{
  "transactions": [
    {
      "hash": "0xe91946bdf3f143fbd3c87203dcda0f00b253527de4a7a245b05cc58b6776c28b",
      "transactionType": "CALL",
      "contractName": null,
      "contractAddress": "0xdc45e5469a8b6d020473f69fec91c0f0e83a3308",
      "function": "trainSkill(uint8)",
      "arguments": [
        "0"
      ],
      "transaction": {
        "from": "0x4c62f6121e6f967a0872da8364995e9b68c1e82f",
        "to": "0xdc45e5469a8b6d020473f69fec91c0f0e83a3308",
        "gas": "0x3ae68",
        "value": "0x0",
        "input": "0xa0a73d0d0000000000000000000000000000000000000000000000000000000000000000",
        "nonce": "0x717",
        "chainId": "0x171"
      },
      "additionalContracts": [],
      "isFixedGasLimit": false
    }
  ],
  "receipts": [
    {
      "status": "0x1",
      "cumulativeGasUsed": "0x52cfab",
      "logs": [
        {
          "address": "0xdc45e5469a8b6d020473f69fec91c0f0e83a3308",
          "topics": [
            "0x5e5a0b90fdb27738829c217bcfc3821977755208ca0818475f4fe9af193a8a38"
          ],
          "data": "0x0000000000000000000000004c62f6121e6f967a0872da8364995e9b68c1e82f0000000000000000000000000000000000000000000000000000000000000032",
          "blockHash": "0xefe00812e9fa7849ee980f9308bdd040104cbccbd56903bea69a4e0142bb964b",
          "blockNumber": "0x18741a2",
          "transactionHash": "0xe91946bdf3f143fbd3c87203dcda0f00b253527de4a7a245b05cc58b6776c28b",
          "transactionIndex": "0x14",
          "logIndex": "0xb4",
          "removed": false
        },
        {
          "address": "0xdc45e5469a8b6d020473f69fec91c0f0e83a3308",
          "topics": [
            "0xa2ecdf3a87e9ffdb151ad823ae834f6165f94e54e5a30467175e075254eb6376"
          ],
          "data": "0x0000000000000000000000004c62f6121e6f967a0872da8364995e9b68c1e82f000000000000000000000000000000000000000000000000000000000000000000000000000000000000000000000000000000000000000000000000000000010000000000000000000000000000000000000000000000000000000000000000000000000000000000000000000000000000000000000000000000000000003200000000000000000000000000000000000000000000000000000000697995d70000000000000000000000000000000000000000000000000000000069798b4b",
          "blockHash": "0xefe00812e9fa7849ee980f9308bdd040104cbccbd56903bea69a4e0142bb964b",
          "blockNumber": "0x18741a2",
          "transactionHash": "0xe91946bdf3f143fbd3c87203dcda0f00b253527de4a7a245b05cc58b6776c28b",
          "transactionIndex": "0x14",
          "logIndex": "0xb5",
          "removed": false
        },
        {
          "address": "0xdc45e5469a8b6d020473f69fec91c0f0e83a3308",
          "topics": [
            "0xe044087a71e55f84948ec1c9a326d935d50b09a1b97fa24ac3721c9437525359"
          ],
          "data": "0x0000000000000000000000004c62f6121e6f967a0872da8364995e9b68c1e82f00000000000000000000000000000000000000000000000000000000000001780000000000000000000000000000000000000000000000000000000000000190",
          "blockHash": "0xefe00812e9fa7849ee980f9308bdd040104cbccbd56903bea69a4e0142bb964b",
          "blockNumber": "0x18741a2",
          "transactionHash": "0xe91946bdf3f143fbd3c87203dcda0f00b253527de4a7a245b05cc58b6776c28b",
          "transactionIndex": "0x14",
          "logIndex": "0xb6",
          "removed": false
        }
      ],
      "logsBloom": "0x00000000000000000000000000400000000000000001000000000000000000000000000000100000000000000000000000000000000000000000000000000000000000000000000000000000000000000000000000002000000000000000000000000000000000002000010004000000000000000000000000000000000000000000000000000000000000000000000000000000000400000000000000000000000000000000000002000000000000000000002000000000000000000000000000000000000000000000000000000000000000000000000000000000000000000000000000000000000000000000400000000000000000000000000100000000",
      "type": "0x2",
      "transactionHash": "0xe91946bdf3f143fbd3c87203dcda0f00b253527de4a7a245b05cc58b6776c28b",
      "transactionIndex": "0x14",
      "blockHash": "0xefe00812e9fa7849ee980f9308bdd040104cbccbd56903bea69a4e0142bb964b",
      "blockNumber": "0x18741a2",
      "gasUsed": "0x332bb",
      "effectiveGasPrice": "0x43644653179be",
      "from": "0x4c62f6121e6f967a0872da8364995e9b68c1e82f",
      "to": "0xdc45e5469a8b6d020473f69fec91c0f0e83a3308",
      "contractAddress": null
    }
  ],
  "libraries": [],
  "pending": [],
  "returns": {},
  "timestamp": 1769573195573,
  "chain": 369,
  "commit": null
}