{
  "transactions": [
    {
      "hash": "0x6a3eb90faa579c13240b308aaf5f3bc13cdebe32ec4792e0cd917369e64349d2",
      "transactionType": "CALL",
      "contractName": null,
      "contractAddress": "0xdc45e5469a8b6d020473f69fec91c0f0e83a3308",
      "function": "trainSkill(uint8)",
      "arguments": [
        "0"
      ],
      "transaction": {
        "from": "0xeca7a53ba6a190c5d205bfdc7707cbc3399336c1",
        "to": "0xdc45e5469a8b6d020473f69fec91c0f0e83a3308",
        "gas": "0x3b9f2",
        "value": "0x0",
        "input": "0xa0a73d0d0000000000000000000000000000000000000000000000000000000000000000",
        "nonce": "0x58b",
        "chainId": "0x171"
      },
      "additionalContracts": [],
      "isFixedGasLimit": false
    }
  ],
  "receipts": [
    {
      "status": "0x1",
      "cumulativeGasUsed": "0x8ed099",
      "logs": [
        {
          "address": "0xdc45e5469a8b6d020473f69fec91c0f0e83a3308",
          "topics": [
            "0xa2ecdf3a87e9ffdb151ad823ae834f6165f94e54e5a30467175e075254eb6376"
          ],
          "data": "0x000000000000000000000000eca7a53ba6a190c5d205bfdc7707cbc3399336c1000000000000000000000000000000000000000000000000000000000000000000000000000000000000000000000000000000000000000000000000000000000000000000000000000000000000000000000000000000000000000000000000000000000000000000000000000000000000000000000000000000000000000000000000000000000000000000000000000000000000000000000000698820a7000000000000000000000000000000000000000000000000000000006988161b",
          "blockHash": "0x538ae3d945dbbd801b069d0e724b3a6f0f332d6deba875ca975d652523e2374b",
          "blockNumber": "0x188aca3",
          "transactionHash": "0x6a3eb90faa579c13240b308aaf5f3bc13cdebe32ec4792e0cd917369e64349d2",
          "transactionIndex": "0x2a",
          "logIndex": "0xad",
          "removed": false
        },
        {
          "address": "0xdc45e5469a8b6d020473f69fec91c0f0e83a3308",
          "topics": [
            "0xe044087a71e55f84948ec1c9a326d935d50b09a1b97fa24ac3721c9437525359"
          ],
          "data": "0x000000000000000000000000eca7a53ba6a190c5d205bfdc7707cbc3399336c10000000000000000000000000000000000000000000000000000000000000e030000000000000000000000000000000000000000000000000000000000000190",
          "blockHash": "0x538ae3d945dbbd801b069d0e724b3a6f0f332d6deba875ca975d652523e2374b",
          "blockNumber": "0x188aca3",
          "transactionHash": "0x6a3eb90faa579c13240b308aaf5f3bc13cdebe32ec4792e0cd917369e64349d2",
          "transactionIndex": "0x2a",
          "logIndex": "0xae",
          "removed": false
        }
      ],
      "logsBloom": "0x00000000000000000000000000000000000000000001000000000000000000000000000000100000000000000000000000000000000000000000000000000000000000000000000000000000000000000000000000002000000000000000000000000000000000002000000004000000000000000000000000000000000000000000000000000000000000000000000000000000000400000000000000000000000000000000000000000000000000000000002000000000000000000000000000000000000000000000000000000000000000000000000000000000000000000000000000000000000000000000400000000000000000000000000100000000",
      "type": "0x2",
      "transactionHash": "0x6a3eb90faa579c13240b308aaf5f3bc13cdebe32ec4792e0cd917369e64349d2",
      "transactionIndex": "0x2a",
      "blockHash": "0x538ae3d945dbbd801b069d0e724b3a6f0f332d6deba875ca975d652523e2374b",
      "blockNumber": "0x188aca3",
      "gasUsed": "0x29660",
      "effectiveGasPrice": "0x3388dbce89d8d",
      "from": "0xeca7a53ba6a190c5d205bfdc7707cbc3399336c1",
      "to": "0xdc45e5469a8b6d020473f69fec91c0f0e83a3308",
      "contractAddress": null
    }
  ],
  "libraries": [],
  "pending": [],
  "returns": {},
  "timestamp": 1770526236463,
  "chain": 369,
  "commit": null
}