{
  "transactions": [
    {
      "hash": "0xfc801b0ce668510d017adf17cab9d21181cf280317751c84844d196fd7dd3cbc",
      "transactionType": "CALL",
      "contractName": null,
      "contractAddress": "0xdc45e5469a8b6d020473f69fec91c0f0e83a3308",
      "function": "trainSkill(uint8)",
      "arguments": [
        "0"
      ],
      "transaction": {
        "from": "0x4c62f6121e6f967a0872da8364995e9b68c1e82f",
        "to": "0xdc45e5469a8b6d020473f69fec91c0f0e83a3308",
        "gas": "0x379ba",
        "value": "0x0",
        "input": "0xa0a73d0d0000000000000000000000000000000000000000000000000000000000000000",
        "nonce": "0x736",
        "chainId": "0x171"
      },
      "additionalContracts": [],
      "isFixedGasLimit": false
    }
  ],
  "receipts": [
    {
      "status": "0x1",
      "cumulativeGasUsed": "0x791b1f",
      "logs": [
        {
          "address": "0xdc45e5469a8b6d020473f69fec91c0f0e83a3308",
          "topics": [
            "0xa2ecdf3a87e9ffdb151ad823ae834f6165f94e54e5a30467175e075254eb6376"
          ],
          "data": "0x0000000000000000000000004c62f6121e6f967a0872da8364995e9b68c1e82f000000000000000000000000000000000000000000000000000000000000000000000000000000000000000000000000000000000000000000000000000000000000000000000000000000000000000000000000000000000000000000000000000000000000000000000000000000000000000000000000000000000000000000000000000000000000000000000000000000000000000000000000697a005d000000000000000000000000000000000000000000000000000000006979f5d1",
          "blockHash": "0x44d567326825996e7ba8652ae2872bf194baddfd2109c228cf64582ad714f4cb",
          "blockNumber": "0x1874c0a",
          "transactionHash": "0xfc801b0ce668510d017adf17cab9d21181cf280317751c84844d196fd7dd3cbc",
          "transactionIndex": "0x31",
          "logIndex": "0xd1",
          "removed": false
        },
        {
          "address": "0xdc45e5469a8b6d020473f69fec91c0f0e83a3308",
          "topics": [
            "0xe044087a71e55f84948ec1c9a326d935d50b09a1b97fa24ac3721c9437525359"
          ],
          "data": "0x0000000000000000000000004c62f6121e6f967a0872da8364995e9b68c1e82f00000000000000000000000000000000000000000000000000000000000024080000000000000000000000000000000000000000000000000000000000000190",
          "blockHash": "0x44d567326825996e7ba8652ae2872bf194baddfd2109c228cf64582ad714f4cb",
          "blockNumber": "0x1874c0a",
          "transactionHash": "0xfc801b0ce668510d017adf17cab9d21181cf280317751c84844d196fd7dd3cbc",
          "transactionIndex": "0x31",
          "logIndex": "0xd2",
          "removed": false
        }
      ],
      "logsBloom": "0x00000000000000000000000000000000000000000001000000000000000000000000000000100000000000000000000000000000000000000000000000000000000000000000000000000000000000000000000000002000000000000000000000000000000000002000000004000000000000000000000000000000000000000000000000000000000000000000000000000000000400000000000000000000000000000000000000000000000000000000002000000000000000000000000000000000000000000000000000000000000000000000000000000000000000000000000000000000000000000000400000000000000000000000000100000000",
      "type": "0x2",
      "transactionHash": "0xfc801b0ce668510d017adf17cab9d21181cf280317751c84844d196fd7dd3cbc",
      "transactionIndex": "0x31",
      "blockHash": "0x44d567326825996e7ba8652ae2872bf194baddfd2109c228cf64582ad714f4cb",
      "blockNumber": "0x1874c0a",
      "gasUsed": "0x28426",
      "effectiveGasPrice": "0x196438d7a9324",
      "from": "0x4c62f6121e6f967a0872da8364995e9b68c1e82f",
      "to": "0xdc45e5469a8b6d020473f69fec91c0f0e83a3308",
      "contractAddress": null
    }
  ],
  "libraries": [],
  "pending": [],
  "returns": {},
  "timestamp": 1769600466656,
  "chain": 369,
  "commit": null
}