{
  "transactions": [
    {
      "hash": "0x1360df6d0303056aac20928a042bc15e7638ce17d343c18d70510d861d8d4a96",
      "transactionType": "CALL",
      "contractName": null,
      "contractAddress": "0xdc45e5469a8b6d020473f69fec91c0f0e83a3308",
      "function": "trainSkill(uint8)",
      "arguments": [
        "0"
      ],
      "transaction": {
        "from": "0x4c62f6121e6f967a0872da8364995e9b68c1e82f",
        "to": "0xdc45e5469a8b6d020473f69fec91c0f0e83a3308",
        "gas": "0x379ba",
        "value": "0x0",
        "input": "0xa0a73d0d0000000000000000000000000000000000000000000000000000000000000000",
        "nonce": "0x733",
        "chainId": "0x171"
      },
      "additionalContracts": [],
      "isFixedGasLimit": false
    }
  ],
  "receipts": [
    {
      "status": "0x1",
      "cumulativeGasUsed": "0xef0831",
      "logs": [
        {
          "address": "0xdc45e5469a8b6d020473f69fec91c0f0e83a3308",
          "topics": [
            "0xa2ecdf3a87e9ffdb151ad823ae834f6165f94e54e5a30467175e075254eb6376"
          ],
          "data": "0x0000000000000000000000004c62f6121e6f967a0872da8364995e9b68c1e82f0000000000000000000000000000000000000000000000000000000000000000000000000000000000000000000000000000000000000000000000000000000000000000000000000000000000000000000000000000000000000000000000000000000000000000000000000000000000000000000000000000000000000000000000000000000000000000000000000000000000000000000000006979f351000000000000000000000000000000000000000000000000000000006979e8c5",
          "blockHash": "0x0f7039d5041e62a64d72d4a0d31b955774a1488de06bbd9de5ae1a7d8d515ad5",
          "blockNumber": "0x1874ac2",
          "transactionHash": "0x1360df6d0303056aac20928a042bc15e7638ce17d343c18d70510d861d8d4a96",
          "transactionIndex": "0xe",
          "logIndex": "0x39c",
          "removed": false
        },
        {
          "address": "0xdc45e5469a8b6d020473f69fec91c0f0e83a3308",
          "topics": [
            "0xe044087a71e55f84948ec1c9a326d935d50b09a1b97fa24ac3721c9437525359"
          ],
          "data": "0x0000000000000000000000004c62f6121e6f967a0872da8364995e9b68c1e82f00000000000000000000000000000000000000000000000000000000000002020000000000000000000000000000000000000000000000000000000000000190",
          "blockHash": "0x0f7039d5041e62a64d72d4a0d31b955774a1488de06bbd9de5ae1a7d8d515ad5",
          "blockNumber": "0x1874ac2",
          "transactionHash": "0x1360df6d0303056aac20928a042bc15e7638ce17d343c18d70510d861d8d4a96",
          "transactionIndex": "0xe",
          "logIndex": "0x39d",
          "removed": false
        }
      ],
      "logsBloom": "0x00000000000000000000000000000000000000000001000000000000000000000000000000100000000000000000000000000000000000000000000000000000000000000000000000000000000000000000000000002000000000000000000000000000000000002000000004000000000000000000000000000000000000000000000000000000000000000000000000000000000400000000000000000000000000000000000000000000000000000000002000000000000000000000000000000000000000000000000000000000000000000000000000000000000000000000000000000000000000000000400000000000000000000000000100000000",
      "type": "0x2",
      "transactionHash": "0x1360df6d0303056aac20928a042bc15e7638ce17d343c18d70510d861d8d4a96",
      "transactionIndex": "0xe",
      "blockHash": "0x0f7039d5041e62a64d72d4a0d31b955774a1488de06bbd9de5ae1a7d8d515ad5",
      "blockNumber": "0x1874ac2",
      "gasUsed": "0x28426",
      "effectiveGasPrice": "0x1bc1a8dd04109",
      "from": "0x4c62f6121e6f967a0872da8364995e9b68c1e82f",
      "to": "0xdc45e5469a8b6d020473f69fec91c0f0e83a3308",
      "contractAddress": null
    }
  ],
  "libraries": [],
  "pending": [],
  "returns": {},
  "timestamp": 1769597126098,
  "chain": 369,
  "commit": null
}