{
  "transactions": [
    {
      "hash": "0x935fa04c519af97aa50e16830f4899d48e6decf16f2acdba4bb25da5b9c1a010",
      "transactionType": "CALL",
      "contractName": null,
      "contractAddress": "0xdc45e5469a8b6d020473f69fec91c0f0e83a3308",
      "function": "trainSkill(uint8)",
      "arguments": [
        "0"
      ],
      "transaction": {
        "from": "0x4c62f6121e6f967a0872da8364995e9b68c1e82f",
        "to": "0xdc45e5469a8b6d020473f69fec91c0f0e83a3308",
        "gas": "0x379ba",
        "value": "0x0",
        "input": "0xa0a73d0d0000000000000000000000000000000000000000000000000000000000000000",
        "nonce": "0x738",
        "chainId": "0x171"
      },
      "additionalContracts": [],
      "isFixedGasLimit": false
    }
  ],
  "receipts": [
    {
      "status": "0x1",
      "cumulativeGasUsed": "0x1172937",
      "logs": [
        {
          "address": "0xdc45e5469a8b6d020473f69fec91c0f0e83a3308",
          "topics": [
            "0xa2ecdf3a87e9ffdb151ad823ae834f6165f94e54e5a30467175e075254eb6376"
          ],
          "data": "0x0000000000000000000000004c62f6121e6f967a0872da8364995e9b68c1e82f000000000000000000000000000000000000000000000000000000000000000000000000000000000000000000000000000000000000000000000000000000000000000000000000000000000000000000000000000000000000000000000000000000000000000000000000000000000000000000000000000000000000000000000000000000000000000000000000000000000000000000000000697a161500000000000000000000000000000000000000000000000000000000697a0b89",
          "blockHash": "0xd60ea3b42e0d0d2af738baa7b36108d3e59ae23c7c09b488188921269627ad56",
          "blockNumber": "0x1874e29",
          "transactionHash": "0x935fa04c519af97aa50e16830f4899d48e6decf16f2acdba4bb25da5b9c1a010",
          "transactionIndex": "0x25",
          "logIndex": "0x17e",
          "removed": false
        },
        {
          "address": "0xdc45e5469a8b6d020473f69fec91c0f0e83a3308",
          "topics": [
            "0xe044087a71e55f84948ec1c9a326d935d50b09a1b97fa24ac3721c9437525359"
          ],
          "data": "0x0000000000000000000000004c62f6121e6f967a0872da8364995e9b68c1e82f00000000000000000000000000000000000000000000000000000000000024df0000000000000000000000000000000000000000000000000000000000000190",
          "blockHash": "0xd60ea3b42e0d0d2af738baa7b36108d3e59ae23c7c09b488188921269627ad56",
          "blockNumber": "0x1874e29",
          "transactionHash": "0x935fa04c519af97aa50e16830f4899d48e6decf16f2acdba4bb25da5b9c1a010",
          "transactionIndex": "0x25",
          "logIndex": "0x17f",
          "removed": false
        }
      ],
      "logsBloom": "0x00000000000000000000000000000000000000000001000000000000000000000000000000100000000000000000000000000000000000000000000000000000000000000000000000000000000000000000000000002000000000000000000000000000000000002000000004000000000000000000000000000000000000000000000000000000000000000000000000000000000400000000000000000000000000000000000000000000000000000000002000000000000000000000000000000000000000000000000000000000000000000000000000000000000000000000000000000000000000000000400000000000000000000000000100000000",
      "type": "0x2",
      "transactionHash": "0x935fa04c519af97aa50e16830f4899d48e6decf16f2acdba4bb25da5b9c1a010",
      "transactionIndex": "0x25",
      "blockHash": "0xd60ea3b42e0d0d2af738baa7b36108d3e59ae23c7c09b488188921269627ad56",
      "blockNumber": "0x1874e29",
      "gasUsed": "0x28426",
      "effectiveGasPrice": "0x2255fe5c04d10",
      "from": "0x4c62f6121e6f967a0872da8364995e9b68c1e82f",
      "to": "0xdc45e5469a8b6d020473f69fec91c0f0e83a3308",
      "contractAddress": null
    }
  ],
  "libraries": [],
  "pending": [],
  "returns": {},
  "timestamp": 1769606025678,
  "chain": 369,
  "commit": null
}