{
  "transactions": [
    {
      "hash": "0x9f3a53f4d97f66d2b10205583d877279f3fe089f43e1f74e30b9c7e9f3fbaea2",
      "transactionType": "CALL",
      "contractName": null,
      "contractAddress": "0xdc45e5469a8b6d020473f69fec91c0f0e83a3308",
      "function": "trainSkill(uint8)",
      "arguments": [
        "0"
      ],
      "transaction": {
        "from": "0xac56dc5a4a9de0197f7b8f584ea04ec7e0123dde",
        "to": "0xdc45e5469a8b6d020473f69fec91c0f0e83a3308",
        "gas": "0x38605",
        "value": "0x0",
        "input": "0xa0a73d0d0000000000000000000000000000000000000000000000000000000000000000",
        "nonce": "0x4f6",
        "chainId": "0x171"
      },
      "additionalContracts": [],
      "isFixedGasLimit": false
    }
  ],
  "receipts": [
    {
      "status": "0x1",
      "cumulativeGasUsed": "0x1bc0be4",
      "logs": [
        {
          "address": "0xdc45e5469a8b6d020473f69fec91c0f0e83a3308",
          "topics": [
            "0xa2ecdf3a87e9ffdb151ad823ae834f6165f94e54e5a30467175e075254eb6376"
          ],
          "data": "0x000000000000000000000000ac56dc5a4a9de0197f7b8f584ea04ec7e0123dde00000000000000000000000000000000000000000000000000000000000000000000000000000000000000000000000000000000000000000000000000000000000000000000000000000000000000000000000000000000000000000000000000000000000000000000000000000000000000000000000000000000000000000000000000000000000000000000000000000000000000000000000069880b0d0000000000000000000000000000000000000000000000000000000069880081",
          "blockHash": "0x3af33e3080efb9df2f9553b76ab42da7df4a1cee57ba9226475aacb0ee049644",
          "blockNumber": "0x188aa85",
          "transactionHash": "0x9f3a53f4d97f66d2b10205583d877279f3fe089f43e1f74e30b9c7e9f3fbaea2",
          "transactionIndex": "0xe6",
          "logIndex": "0x2f6",
          "removed": false
        },
        {
          "address": "0xdc45e5469a8b6d020473f69fec91c0f0e83a3308",
          "topics": [
            "0xe044087a71e55f84948ec1c9a326d935d50b09a1b97fa24ac3721c9437525359"
          ],
          "data": "0x000000000000000000000000ac56dc5a4a9de0197f7b8f584ea04ec7e0123dde00000000000000000000000000000000000000000000000000000000000006830000000000000000000000000000000000000000000000000000000000000190",
          "blockHash": "0x3af33e3080efb9df2f9553b76ab42da7df4a1cee57ba9226475aacb0ee049644",
          "blockNumber": "0x188aa85",
          "transactionHash": "0x9f3a53f4d97f66d2b10205583d877279f3fe089f43e1f74e30b9c7e9f3fbaea2",
          "transactionIndex": "0xe6",
          "logIndex": "0x2f7",
          "removed": false
        }
      ],
      "logsBloom": "0x00000000000000000000000000000000000000000001000000000000000000000000000000100000000000000000000000000000000000000000000000000000000000000000000000000000000000000000000000002000000000000000000000000000000000002000000004000000000000000000000000000000000000000000000000000000000000000000000000000000000400000000000000000000000000000000000000000000000000000000002000000000000000000000000000000000000000000000000000000000000000000000000000000000000000000000000000000000000000000000400000000000000000000000000100000000",
      "type": "0x2",
      "transactionHash": "0x9f3a53f4d97f66d2b10205583d877279f3fe089f43e1f74e30b9c7e9f3fbaea2",
      "transactionIndex": "0xe6",
      "blockHash": "0x3af33e3080efb9df2f9553b76ab42da7df4a1cee57ba9226475aacb0ee049644",
      "blockNumber": "0x188aa85",
      "gasUsed": "0x28d0d",
      "effectiveGasPrice": "0x2cea38669bbb3",
      "from": "0xac56dc5a4a9de0197f7b8f584ea04ec7e0123dde",
      "to": "0xdc45e5469a8b6d020473f69fec91c0f0e83a3308",
      "contractAddress": null
    }
  ],
  "libraries": [],
  "pending": [],
  "returns": {},
  "timestamp": 1770520707364,
  "chain": 369,
  "commit": null
}