{
  "transactions": [
    {
      "hash": "0xf8428e5f719546627659bf6154a6f1a27a43d4584229cbbba389aff1ccf15ce9",
      "transactionType": "CALL",
      "contractName": null,
      "contractAddress": "0xdc45e5469a8b6d020473f69fec91c0f0e83a3308",
      "function": "trainSkill(uint8)",
      "arguments": [
        "0"
      ],
      "transaction": {
        "from": "0xec646a6c9000e04d050435340d9c42c039eb5648",
        "to": "0xdc45e5469a8b6d020473f69fec91c0f0e83a3308",
        "gas": "0x38605",
        "value": "0x0",
        "input": "0xa0a73d0d0000000000000000000000000000000000000000000000000000000000000000",
        "nonce": "0x4a",
        "chainId": "0x171"
      },
      "additionalContracts": [],
      "isFixedGasLimit": false
    }
  ],
  "receipts": [
    {
      "status": "0x1",
      "cumulativeGasUsed": "0x23f103a",
      "logs": [
        {
          "address": "0xdc45e5469a8b6d020473f69fec91c0f0e83a3308",
          "topics": [
            "0xa2ecdf3a87e9ffdb151ad823ae834f6165f94e54e5a30467175e075254eb6376"
          ],
          "data": "0x000000000000000000000000ec646a6c9000e04d050435340d9c42c039eb56480000000000000000000000000000000000000000000000000000000000000000000000000000000000000000000000000000000000000000000000000000000000000000000000000000000000000000000000000000000000000000000000000000000000000000000000000000000000000000000000000000000000000000000000000000000000000000000000000000000000000000000000006988414f00000000000000000000000000000000000000000000000000000000698836c3",
          "blockHash": "0x6eadccd0dacfc7942c4098200fadfa116f078b8e6edc570329efdc25a621d383",
          "blockNumber": "0x188afd5",
          "transactionHash": "0xf8428e5f719546627659bf6154a6f1a27a43d4584229cbbba389aff1ccf15ce9",
          "transactionIndex": "0x2b",
          "logIndex": "0x354",
          "removed": false
        },
        {
          "address": "0xdc45e5469a8b6d020473f69fec91c0f0e83a3308",
          "topics": [
            "0xe044087a71e55f84948ec1c9a326d935d50b09a1b97fa24ac3721c9437525359"
          ],
          "data": "0x000000000000000000000000ec646a6c9000e04d050435340d9c42c039eb564800000000000000000000000000000000000000000000000000000000000003230000000000000000000000000000000000000000000000000000000000000190",
          "blockHash": "0x6eadccd0dacfc7942c4098200fadfa116f078b8e6edc570329efdc25a621d383",
          "blockNumber": "0x188afd5",
          "transactionHash": "0xf8428e5f719546627659bf6154a6f1a27a43d4584229cbbba389aff1ccf15ce9",
          "transactionIndex": "0x2b",
          "logIndex": "0x355",
          "removed": false
        }
      ],
      "logsBloom": "0x00000000000000000000000000000000000000000001000000000000000000000000000000100000000000000000000000000000000000000000000000000000000000000000000000000000000000000000000000002000000000000000000000000000000000002000000004000000000000000000000000000000000000000000000000000000000000000000000000000000000400000000000000000000000000000000000000000000000000000000002000000000000000000000000000000000000000000000000000000000000000000000000000000000000000000000000000000000000000000000400000000000000000000000000100000000",
      "type": "0x2",
      "transactionHash": "0xf8428e5f719546627659bf6154a6f1a27a43d4584229cbbba389aff1ccf15ce9",
      "transactionIndex": "0x2b",
      "blockHash": "0x6eadccd0dacfc7942c4098200fadfa116f078b8e6edc570329efdc25a621d383",
      "blockNumber": "0x188afd5",
      "gasUsed": "0x28d0d",
      "effectiveGasPrice": "0x2666bca917f6c",
      "from": "0xec646a6c9000e04d050435340d9c42c039eb5648",
      "to": "0xdc45e5469a8b6d020473f69fec91c0f0e83a3308",
      "contractAddress": null
    }
  ],
  "libraries": [],
  "pending": [],
  "returns": {},
  "timestamp": 1770534596608,
  "chain": 369,
  "commit": null
}