{
  "transactions": [
    {
      "hash": "0x2e78bad888d8355910b249c8548ed26421241eb99a00e23f859d7ed0d9103f64",
      "transactionType": "CALL",
      "contractName": null,
      "contractAddress": "0xdc45e5469a8b6d020473f69fec91c0f0e83a3308",
      "function": "trainSkill(uint8)",
      "arguments": [
        "0"
      ],
      "transaction": {
        "from": "0xec646a6c9000e04d050435340d9c42c039eb5648",
        "to": "0xdc45e5469a8b6d020473f69fec91c0f0e83a3308",
        "gas": "0x3e46c",
        "value": "0x0",
        "input": "0xa0a73d0d0000000000000000000000000000000000000000000000000000000000000000",
        "nonce": "0x42",
        "chainId": "0x171"
      },
      "additionalContracts": [],
      "isFixedGasLimit": false
    }
  ],
  "receipts": [
    {
      "status": "0x1",
      "cumulativeGasUsed": "0x8c3a39",
      "logs": [
        {
          "address": "0xdc45e5469a8b6d020473f69fec91c0f0e83a3308",
          "topics": [
            "0xa2ecdf3a87e9ffdb151ad823ae834f6165f94e54e5a30467175e075254eb6376"
          ],
          "data": "0x000000000000000000000000ec646a6c9000e04d050435340d9c42c039eb5648000000000000000000000000000000000000000000000000000000000000000000000000000000000000000000000000000000000000000000000000000000000000000000000000000000000000000000000000000000000000000000000000000000000000000000000000000000000000000000000000000000000000000000000000000000000000000000000000000000000000000000000000698820a7000000000000000000000000000000000000000000000000000000006988161b",
          "blockHash": "0x538ae3d945dbbd801b069d0e724b3a6f0f332d6deba875ca975d652523e2374b",
          "blockNumber": "0x188aca3",
          "transactionHash": "0x2e78bad888d8355910b249c8548ed26421241eb99a00e23f859d7ed0d9103f64",
          "transactionIndex": "0x29",
          "logIndex": "0xab",
          "removed": false
        },
        {
          "address": "0xdc45e5469a8b6d020473f69fec91c0f0e83a3308",
          "topics": [
            "0xe044087a71e55f84948ec1c9a326d935d50b09a1b97fa24ac3721c9437525359"
          ],
          "data": "0x000000000000000000000000ec646a6c9000e04d050435340d9c42c039eb56480000000000000000000000000000000000000000000000000000000000000e030000000000000000000000000000000000000000000000000000000000000190",
          "blockHash": "0x538ae3d945dbbd801b069d0e724b3a6f0f332d6deba875ca975d652523e2374b",
          "blockNumber": "0x188aca3",
          "transactionHash": "0x2e78bad888d8355910b249c8548ed26421241eb99a00e23f859d7ed0d9103f64",
          "transactionIndex": "0x29",
          "logIndex": "0xac",
          "removed": false
        }
      ],
      "logsBloom": "0x00000000000000000000000000000000000000000001000000000000000000000000000000100000000000000000000000000000000000000000000000000000000000000000000000000000000000000000000000002000000000000000000000000000000000002000000004000000000000000000000000000000000000000000000000000000000000000000000000000000000400000000000000000000000000000000000000000000000000000000002000000000000000000000000000000000000000000000000000000000000000000000000000000000000000000000000000000000000000000000400000000000000000000000000100000000",
      "type": "0x2",
      "transactionHash": "0x2e78bad888d8355910b249c8548ed26421241eb99a00e23f859d7ed0d9103f64",
      "transactionIndex": "0x29",
      "blockHash": "0x538ae3d945dbbd801b069d0e724b3a6f0f332d6deba875ca975d652523e2374b",
      "blockNumber": "0x188aca3",
      "gasUsed": "0x28d0d",
      "effectiveGasPrice": "0x3388dbce89d8d",
      "from": "0xec646a6c9000e04d050435340d9c42c039eb5648",
      "to": "0xdc45e5469a8b6d020473f69fec91c0f0e83a3308",
      "contractAddress": null
    }
  ],
  "libraries": [],
  "pending": [],
  "returns": {},
  "timestamp": 1770526236512,
  "chain": 369,
  "commit": null
}