{
  "transactions": [
    {
      "hash": "0xfff7d355812373f2c87ef495d4abd3f43b1b6970871e5c73bd9ce86635fc0d97",
      "transactionType": "CALL",
      "contractName": null,
      "contractAddress": "0xdc45e5469a8b6d020473f69fec91c0f0e83a3308",
      "function": "trainSkill(uint8)",
      "arguments": [
        "0"
      ],
      "transaction": {
        "from": "0x4c62f6121e6f967a0872da8364995e9b68c1e82f",
        "to": "0xdc45e5469a8b6d020473f69fec91c0f0e83a3308",
        "gas": "0x38605",
        "value": "0x0",
        "input": "0xa0a73d0d0000000000000000000000000000000000000000000000000000000000000000",
        "nonce": "0x767",
        "chainId": "0x171"
      },
      "additionalContracts": [],
      "isFixedGasLimit": false
    }
  ],
  "receipts": [
    {
      "status": "0x1",
      "cumulativeGasUsed": "0x58ba7e",
      "logs": [
        {
          "address": "0xdc45e5469a8b6d020473f69fec91c0f0e83a3308",
          "topics": [
            "0xa2ecdf3a87e9ffdb151ad823ae834f6165f94e54e5a30467175e075254eb6376"
          ],
          "data": "0x0000000000000000000000004c62f6121e6f967a0872da8364995e9b68c1e82f000000000000000000000000000000000000000000000000000000000000000000000000000000000000000000000000000000000000000000000000000000000000000000000000000000000000000000000000000000000000000000000000000000000000000000000000000000000000000000000000000000000000000000000000000000000000000000000000000000000000000000000000697b3c6100000000000000000000000000000000000000000000000000000000697b31d5",
          "blockHash": "0x645418fad278fa167e375037070f689d6546f42f6d4038a18f19d4cb61f88aa4",
          "blockNumber": "0x1876ae9",
          "transactionHash": "0xfff7d355812373f2c87ef495d4abd3f43b1b6970871e5c73bd9ce86635fc0d97",
          "transactionIndex": "0x1c",
          "logIndex": "0x62",
          "removed": false
        },
        {
          "address": "0xdc45e5469a8b6d020473f69fec91c0f0e83a3308",
          "topics": [
            "0xe044087a71e55f84948ec1c9a326d935d50b09a1b97fa24ac3721c9437525359"
          ],
          "data": "0x0000000000000000000000004c62f6121e6f967a0872da8364995e9b68c1e82f00000000000000000000000000000000000000000000000000000000000008360000000000000000000000000000000000000000000000000000000000000190",
          "blockHash": "0x645418fad278fa167e375037070f689d6546f42f6d4038a18f19d4cb61f88aa4",
          "blockNumber": "0x1876ae9",
          "transactionHash": "0xfff7d355812373f2c87ef495d4abd3f43b1b6970871e5c73bd9ce86635fc0d97",
          "transactionIndex": "0x1c",
          "logIndex": "0x63",
          "removed": false
        }
      ],
      "logsBloom": "0x00000000000000000000000000000000000000000001000000000000000000000000000000100000000000000000000000000000000000000000000000000000000000000000000000000000000000000000000000002000000000000000000000000000000000002000000004000000000000000000000000000000000000000000000000000000000000000000000000000000000400000000000000000000000000000000000000000000000000000000002000000000000000000000000000000000000000000000000000000000000000000000000000000000000000000000000000000000000000000000400000000000000000000000000100000000",
      "type": "0x2",
      "transactionHash": "0xfff7d355812373f2c87ef495d4abd3f43b1b6970871e5c73bd9ce86635fc0d97",
      "transactionIndex": "0x1c",
      "blockHash": "0x645418fad278fa167e375037070f689d6546f42f6d4038a18f19d4cb61f88aa4",
      "blockNumber": "0x1876ae9",
      "gasUsed": "0x28d0d",
      "effectiveGasPrice": "0x1e43dbe26ae3c",
      "from": "0x4c62f6121e6f967a0872da8364995e9b68c1e82f",
      "to": "0xdc45e5469a8b6d020473f69fec91c0f0e83a3308",
      "contractAddress": null
    }
  ],
  "libraries": [],
  "pending": [],
  "returns": {},
  "timestamp": 1769681366014,
  "chain": 369,
  "commit": null
}