{
  "transactions": [
    {
      "hash": "0x2cca63e839ebb222cc66df62df848846beca7c351922e5e5fd4aa9e49b96e24e",
      "transactionType": "CALL",
      "contractName": null,
      "contractAddress": "0xdc45e5469a8b6d020473f69fec91c0f0e83a3308",
      "function": "trainSkill(uint8)",
      "arguments": [
        "0"
      ],
      "transaction": {
        "from": "0xeca7a53ba6a190c5d205bfdc7707cbc3399336c1",
        "to": "0xdc45e5469a8b6d020473f69fec91c0f0e83a3308",
        "gas": "0x3bbb4",
        "value": "0x0",
        "input": "0xa0a73d0d0000000000000000000000000000000000000000000000000000000000000000",
        "nonce": "0x2e5",
        "chainId": "0x171"
      },
      "additionalContracts": [],
      "isFixedGasLimit": false
    }
  ],
  "receipts": [
    {
      "status": "0x1",
      "cumulativeGasUsed": "0x111300b",
      "logs": [
        {
          "address": "0xdc45e5469a8b6d020473f69fec91c0f0e83a3308",
          "topics": [
            "0xa2ecdf3a87e9ffdb151ad823ae834f6165f94e54e5a30467175e075254eb6376"
          ],
          "data": "0x000000000000000000000000eca7a53ba6a190c5d205bfdc7707cbc3399336c1000000000000000000000000000000000000000000000000000000000000000000000000000000000000000000000000000000000000000000000000000000000000000000000000000000000000000000000000000000000000000000000000000000000000000000000000000000000000000000000000000000000000000000000000000000000000000000000000000000000000000000000000697769fb0000000000000000000000000000000000000000000000000000000069775f6f",
          "blockHash": "0xf419d94a9adf70c9b6a6f190eb99605ca2d80b481e5b20a6fd67d25d35ea0b81",
          "blockNumber": "0x1870b4b",
          "transactionHash": "0x2cca63e839ebb222cc66df62df848846beca7c351922e5e5fd4aa9e49b96e24e",
          "transactionIndex": "0x24",
          "logIndex": "0x2f3",
          "removed": false
        },
        {
          "address": "0xdc45e5469a8b6d020473f69fec91c0f0e83a3308",
          "topics": [
            "0xe044087a71e55f84948ec1c9a326d935d50b09a1b97fa24ac3721c9437525359"
          ],
          "data": "0x000000000000000000000000eca7a53ba6a190c5d205bfdc7707cbc3399336c10000000000000000000000000000000000000000000000000000000000001dd10000000000000000000000000000000000000000000000000000000000000190",
          "blockHash": "0xf419d94a9adf70c9b6a6f190eb99605ca2d80b481e5b20a6fd67d25d35ea0b81",
          "blockNumber": "0x1870b4b",
          "transactionHash": "0x2cca63e839ebb222cc66df62df848846beca7c351922e5e5fd4aa9e49b96e24e",
          "transactionIndex": "0x24",
          "logIndex": "0x2f4",
          "removed": false
        }
      ],
      "logsBloom": "0x00000000000000000000000000000000000000000001000000000000000000000000000000100000000000000000000000000000000000000000000000000000000000000000000000000000000000000000000000002000000000000000000000000000000000002000000004000000000000000000000000000000000000000000000000000000000000000000000000000000000400000000000000000000000000000000000000000000000000000000002000000000000000000000000000000000000000000000000000000000000000000000000000000000000000000000000000000000000000000000400000000000000000000000000100000000",
      "type": "0x2",
      "transactionHash": "0x2cca63e839ebb222cc66df62df848846beca7c351922e5e5fd4aa9e49b96e24e",
      "transactionIndex": "0x24",
      "blockHash": "0xf419d94a9adf70c9b6a6f190eb99605ca2d80b481e5b20a6fd67d25d35ea0b81",
      "blockNumber": "0x1870b4b",
      "gasUsed": "0x28d79",
      "effectiveGasPrice": "0x1e95a5a59eb07",
      "from": "0xeca7a53ba6a190c5d205bfdc7707cbc3399336c1",
      "to": "0xdc45e5469a8b6d020473f69fec91c0f0e83a3308",
      "contractAddress": null
    }
  ],
  "libraries": [],
  "pending": [],
  "returns": {},
  "timestamp": 1769430897114,
  "chain": 369,
  "commit": "953695a"
}