{
  "transactions": [
    {
      "hash": "0xab7e9ccf0989a044cad99d9085fc0ab92bf66ae067941cef75a1aafe9240d3e8",
      "transactionType": "CALL",
      "contractName": null,
      "contractAddress": "0xdc45e5469a8b6d020473f69fec91c0f0e83a3308",
      "function": "trainSkill(uint8)",
      "arguments": [
        "0"
      ],
      "transaction": {
        "from": "0xeca7a53ba6a190c5d205bfdc7707cbc3399336c1",
        "to": "0xdc45e5469a8b6d020473f69fec91c0f0e83a3308",
        "gas": "0x392e7",
        "value": "0x0",
        "input": "0xa0a73d0d0000000000000000000000000000000000000000000000000000000000000000",
        "nonce": "0x598",
        "chainId": "0x171"
      },
      "additionalContracts": [],
      "isFixedGasLimit": false
    }
  ],
  "receipts": [
    {
      "status": "0x1",
      "cumulativeGasUsed": "0xa00c76",
      "logs": [
        {
          "address": "0xdc45e5469a8b6d020473f69fec91c0f0e83a3308",
          "topics": [
            "0xa2ecdf3a87e9ffdb151ad823ae834f6165f94e54e5a30467175e075254eb6376"
          ],
          "data": "0x000000000000000000000000eca7a53ba6a190c5d205bfdc7707cbc3399336c100000000000000000000000000000000000000000000000000000000000000000000000000000000000000000000000000000000000000000000000000000000000000000000000000000000000000000000000000000000000000000000000000000000000000000000000000000000000000000000000000000000000000000000000000000000000000000000000000000000000000000000000069884c3f00000000000000000000000000000000000000000000000000000000698841b3",
          "blockHash": "0x3a16b700018235f657bb1d67933355e7d0ba922610796f424d03873219d321e0",
          "blockNumber": "0x188b0e5",
          "transactionHash": "0xab7e9ccf0989a044cad99d9085fc0ab92bf66ae067941cef75a1aafe9240d3e8",
          "transactionIndex": "0x1a",
          "logIndex": "0xb7",
          "removed": false
        },
        {
          "address": "0xdc45e5469a8b6d020473f69fec91c0f0e83a3308",
          "topics": [
            "0xe044087a71e55f84948ec1c9a326d935d50b09a1b97fa24ac3721c9437525359"
          ],
          "data": "0x000000000000000000000000eca7a53ba6a190c5d205bfdc7707cbc3399336c100000000000000000000000000000000000000000000000000000000000026630000000000000000000000000000000000000000000000000000000000000190",
          "blockHash": "0x3a16b700018235f657bb1d67933355e7d0ba922610796f424d03873219d321e0",
          "blockNumber": "0x188b0e5",
          "transactionHash": "0xab7e9ccf0989a044cad99d9085fc0ab92bf66ae067941cef75a1aafe9240d3e8",
          "transactionIndex": "0x1a",
          "logIndex": "0xb8",
          "removed": false
        }
      ],
      "logsBloom": "0x00000000000000000000000000000000000000000001000000000000000000000000000000100000000000000000000000000000000000000000000000000000000000000000000000000000000000000000000000002000000000000000000000000000000000002000000004000000000000000000000000000000000000000000000000000000000000000000000000000000000400000000000000000000000000000000000000000000000000000000002000000000000000000000000000000000000000000000000000000000000000000000000000000000000000000000000000000000000000000000400000000000000000000000000100000000",
      "type": "0x2",
      "transactionHash": "0xab7e9ccf0989a044cad99d9085fc0ab92bf66ae067941cef75a1aafe9240d3e8",
      "transactionIndex": "0x1a",
      "blockHash": "0x3a16b700018235f657bb1d67933355e7d0ba922610796f424d03873219d321e0",
      "blockNumber": "0x188b0e5",
      "gasUsed": "0x29660",
      "effectiveGasPrice": "0x32b53bf7e9363",
      "from": "0xeca7a53ba6a190c5d205bfdc7707cbc3399336c1",
      "to": "0xdc45e5469a8b6d020473f69fec91c0f0e83a3308",
      "contractAddress": null
    }
  ],
  "libraries": [],
  "pending": [],
  "returns": {},
  "timestamp": 1770537396892,
  "chain": 369,
  "commit": null
}