{
  "transactions": [
    {
      "hash": "0x3a73e60a976c6c1e20a2210ba86f4269ef6137d9b7c92804e836de2de0493d83",
      "transactionType": "CALL",
      "contractName": null,
      "contractAddress": "0xdc45e5469a8b6d020473f69fec91c0f0e83a3308",
      "function": "trainSkill(uint8)",
      "arguments": [
        "0"
      ],
      "transaction": {
        "from": "0x4c62f6121e6f967a0872da8364995e9b68c1e82f",
        "to": "0xdc45e5469a8b6d020473f69fec91c0f0e83a3308",
        "gas": "0x38605",
        "value": "0x0",
        "input": "0xa0a73d0d0000000000000000000000000000000000000000000000000000000000000000",
        "nonce": "0x983",
        "chainId": "0x171"
      },
      "additionalContracts": [],
      "isFixedGasLimit": false
    }
  ],
  "receipts": [
    {
      "status": "0x1",
      "cumulativeGasUsed": "0x37403d",
      "logs": [
        {
          "address": "0xdc45e5469a8b6d020473f69fec91c0f0e83a3308",
          "topics": [
            "0xa2ecdf3a87e9ffdb151ad823ae834f6165f94e54e5a30467175e075254eb6376"
          ],
          "data": "0x0000000000000000000000004c62f6121e6f967a0872da8364995e9b68c1e82f00000000000000000000000000000000000000000000000000000000000000000000000000000000000000000000000000000000000000000000000000000000000000000000000000000000000000000000000000000000000000000000000000000000000000000000000000000000000000000000000000000000000000000000000000000000000000000000000000000000000000000000000069885cb10000000000000000000000000000000000000000000000000000000069885225",
          "blockHash": "0x82e361403a0b28927641b0071da2cf7b2f28356f90a504be42f47bc47453a7bd",
          "blockNumber": "0x188b27c",
          "transactionHash": "0x3a73e60a976c6c1e20a2210ba86f4269ef6137d9b7c92804e836de2de0493d83",
          "transactionIndex": "0x1f",
          "logIndex": "0x55",
          "removed": false
        },
        {
          "address": "0xdc45e5469a8b6d020473f69fec91c0f0e83a3308",
          "topics": [
            "0xe044087a71e55f84948ec1c9a326d935d50b09a1b97fa24ac3721c9437525359"
          ],
          "data": "0x0000000000000000000000004c62f6121e6f967a0872da8364995e9b68c1e82f0000000000000000000000000000000000000000000000000000000000000da40000000000000000000000000000000000000000000000000000000000000190",
          "blockHash": "0x82e361403a0b28927641b0071da2cf7b2f28356f90a504be42f47bc47453a7bd",
          "blockNumber": "0x188b27c",
          "transactionHash": "0x3a73e60a976c6c1e20a2210ba86f4269ef6137d9b7c92804e836de2de0493d83",
          "transactionIndex": "0x1f",
          "logIndex": "0x56",
          "removed": false
        }
      ],
      "logsBloom": "0x00000000000000000000000000000000000000000001000000000000000000000000000000100000000000000000000000000000000000000000000000000000000000000000000000000000000000000000000000002000000000000000000000000000000000002000000004000000000000000000000000000000000000000000000000000000000000000000000000000000000400000000000000000000000000000000000000000000000000000000002000000000000000000000000000000000000000000000000000000000000000000000000000000000000000000000000000000000000000000000400000000000000000000000000100000000",
      "type": "0x2",
      "transactionHash": "0x3a73e60a976c6c1e20a2210ba86f4269ef6137d9b7c92804e836de2de0493d83",
      "transactionIndex": "0x1f",
      "blockHash": "0x82e361403a0b28927641b0071da2cf7b2f28356f90a504be42f47bc47453a7bd",
      "blockNumber": "0x188b27c",
      "gasUsed": "0x28d0d",
      "effectiveGasPrice": "0x2ed8366dd347e",
      "from": "0x4c62f6121e6f967a0872da8364995e9b68c1e82f",
      "to": "0xdc45e5469a8b6d020473f69fec91c0f0e83a3308",
      "contractAddress": null
    }
  ],
  "libraries": [],
  "pending": [],
  "returns": {},
  "timestamp": 1770541605403,
  "chain": 369,
  "commit": null
}