{
  "transactions": [
    {
      "hash": "0x5ff673363c4b8959837f50b0fed00b0154d920760646d756ec897f1cd4306b16",
      "transactionType": "CALL",
      "contractName": null,
      "contractAddress": "0xdc45e5469a8b6d020473f69fec91c0f0e83a3308",
      "function": "trainSkill(uint8)",
      "arguments": [
        "0"
      ],
      "transaction": {
        "from": "0x4c62f6121e6f967a0872da8364995e9b68c1e82f",
        "to": "0xdc45e5469a8b6d020473f69fec91c0f0e83a3308",
        "gas": "0x3ae68",
        "value": "0x0",
        "input": "0xa0a73d0d0000000000000000000000000000000000000000000000000000000000000000",
        "nonce": "0x70e",
        "chainId": "0x171"
      },
      "additionalContracts": [],
      "isFixedGasLimit": false
    }
  ],
  "receipts": [
    {
      "status": "0x1",
      "cumulativeGasUsed": "0xd87ef0",
      "logs": [
        {
          "address": "0xdc45e5469a8b6d020473f69fec91c0f0e83a3308",
          "topics": [
            "0xa2ecdf3a87e9ffdb151ad823ae834f6165f94e54e5a30467175e075254eb6376"
          ],
          "data": "0x0000000000000000000000004c62f6121e6f967a0872da8364995e9b68c1e82f000000000000000000000000000000000000000000000000000000000000000000000000000000000000000000000000000000000000000000000000000000000000000000000000000000000000000000000000000000000000000000000000000000000000000000000000000000000000000000000000000000000000000000000000000000000000000000000000000000000000000000000000697971d30000000000000000000000000000000000000000000000000000000069796747",
          "blockHash": "0x8b3dbea848ef5b6d24fe583e00f5811bcb30c56328a7612e038e6da4a4350223",
          "blockNumber": "0x1873e1d",
          "transactionHash": "0x5ff673363c4b8959837f50b0fed00b0154d920760646d756ec897f1cd4306b16",
          "transactionIndex": "0x1a",
          "logIndex": "0xf7",
          "removed": false
        },
        {
          "address": "0xdc45e5469a8b6d020473f69fec91c0f0e83a3308",
          "topics": [
            "0xe044087a71e55f84948ec1c9a326d935d50b09a1b97fa24ac3721c9437525359"
          ],
          "data": "0x0000000000000000000000004c62f6121e6f967a0872da8364995e9b68c1e82f0000000000000000000000000000000000000000000000000000000000001b880000000000000000000000000000000000000000000000000000000000000190",
          "blockHash": "0x8b3dbea848ef5b6d24fe583e00f5811bcb30c56328a7612e038e6da4a4350223",
          "blockNumber": "0x1873e1d",
          "transactionHash": "0x5ff673363c4b8959837f50b0fed00b0154d920760646d756ec897f1cd4306b16",
          "transactionIndex": "0x1a",
          "logIndex": "0xf8",
          "removed": false
        }
      ],
      "logsBloom": "0x00000000000000000000000000000000000000000001000000000000000000000000000000100000000000000000000000000000000000000000000000000000000000000000000000000000000000000000000000002000000000000000000000000000000000002000000004000000000000000000000000000000000000000000000000000000000000000000000000000000000400000000000000000000000000000000000000000000000000000000002000000000000000000000000000000000000000000000000000000000000000000000000000000000000000000000000000000000000000000000400000000000000000000000000100000000",
      "type": "0x2",
      "transactionHash": "0x5ff673363c4b8959837f50b0fed00b0154d920760646d756ec897f1cd4306b16",
      "transactionIndex": "0x1a",
      "blockHash": "0x8b3dbea848ef5b6d24fe583e00f5811bcb30c56328a7612e038e6da4a4350223",
      "blockNumber": "0x1873e1d",
      "gasUsed": "0x28462",
      "effectiveGasPrice": "0x2dda3d37f2ff1",
      "from": "0x4c62f6121e6f967a0872da8364995e9b68c1e82f",
      "to": "0xdc45e5469a8b6d020473f69fec91c0f0e83a3308",
      "contractAddress": null
    }
  ],
  "libraries": [],
  "pending": [],
  "returns": {},
  "timestamp": 1769563976525,
  "chain": 369,
  "commit": null
}