{
  "transactions": [
    {
      "hash": "0x620dc0c6cca4a9ece53f9963cec49a00ebd854fd112921189bb6a71cdfa018d0",
      "transactionType": "CALL",
      "contractName": null,
      "contractAddress": "0xdc45e5469a8b6d020473f69fec91c0f0e83a3308",
      "function": "trainSkill(uint8)",
      "arguments": [
        "0"
      ],
      "transaction": {
        "from": "0x4c62f6121e6f967a0872da8364995e9b68c1e82f",
        "to": "0xdc45e5469a8b6d020473f69fec91c0f0e83a3308",
        "gas": "0x379ba",
        "value": "0x0",
        "input": "0xa0a73d0d0000000000000000000000000000000000000000000000000000000000000000",
        "nonce": "0x748",
        "chainId": "0x171"
      },
      "additionalContracts": [],
      "isFixedGasLimit": false
    }
  ],
  "receipts": [
    {
      "status": "0x1",
      "cumulativeGasUsed": "0xb5d9d8",
      "logs": [
        {
          "address": "0xdc45e5469a8b6d020473f69fec91c0f0e83a3308",
          "topics": [
            "0xa2ecdf3a87e9ffdb151ad823ae834f6165f94e54e5a30467175e075254eb6376"
          ],
          "data": "0x0000000000000000000000004c62f6121e6f967a0872da8364995e9b68c1e82f000000000000000000000000000000000000000000000000000000000000000000000000000000000000000000000000000000000000000000000000000000000000000000000000000000000000000000000000000000000000000000000000000000000000000000000000000000000000000000000000000000000000000000000000000000000000000000000000000000000000000000000000697a759700000000000000000000000000000000000000000000000000000000697a6b0b",
          "blockHash": "0x84dd999f63011ed09f45c16e17cfc598cef71e5ccbf58c8c76760317941abe45",
          "blockNumber": "0x1875786",
          "transactionHash": "0x620dc0c6cca4a9ece53f9963cec49a00ebd854fd112921189bb6a71cdfa018d0",
          "transactionIndex": "0x20",
          "logIndex": "0x8d",
          "removed": false
        },
        {
          "address": "0xdc45e5469a8b6d020473f69fec91c0f0e83a3308",
          "topics": [
            "0xe044087a71e55f84948ec1c9a326d935d50b09a1b97fa24ac3721c9437525359"
          ],
          "data": "0x0000000000000000000000004c62f6121e6f967a0872da8364995e9b68c1e82f00000000000000000000000000000000000000000000000000000000000025400000000000000000000000000000000000000000000000000000000000000190",
          "blockHash": "0x84dd999f63011ed09f45c16e17cfc598cef71e5ccbf58c8c76760317941abe45",
          "blockNumber": "0x1875786",
          "transactionHash": "0x620dc0c6cca4a9ece53f9963cec49a00ebd854fd112921189bb6a71cdfa018d0",
          "transactionIndex": "0x20",
          "logIndex": "0x8e",
          "removed": false
        }
      ],
      "logsBloom": "0x00000000000000000000000000000000000000000001000000000000000000000000000000100000000000000000000000000000000000000000000000000000000000000000000000000000000000000000000000002000000000000000000000000000000000002000000004000000000000000000000000000000000000000000000000000000000000000000000000000000000400000000000000000000000000000000000000000000000000000000002000000000000000000000000000000000000000000000000000000000000000000000000000000000000000000000000000000000000000000000400000000000000000000000000100000000",
      "type": "0x2",
      "transactionHash": "0x620dc0c6cca4a9ece53f9963cec49a00ebd854fd112921189bb6a71cdfa018d0",
      "transactionIndex": "0x20",
      "blockHash": "0x84dd999f63011ed09f45c16e17cfc598cef71e5ccbf58c8c76760317941abe45",
      "blockNumber": "0x1875786",
      "gasUsed": "0x28426",
      "effectiveGasPrice": "0x38a9a2280e8f4",
      "from": "0x4c62f6121e6f967a0872da8364995e9b68c1e82f",
      "to": "0xdc45e5469a8b6d020473f69fec91c0f0e83a3308",
      "contractAddress": null
    }
  ],
  "libraries": [],
  "pending": [],
  "returns": {},
  "timestamp": 1769630475788,
  "chain": 369,
  "commit": null
}