{
  "transactions": [
    {
      "hash": "0x82571ae20b8f5913fb7e5ecae2f54cd49dee69ba566317badfea7f225bf50c79",
      "transactionType": "CALL",
      "contractName": null,
      "contractAddress": "0xdc45e5469a8b6d020473f69fec91c0f0e83a3308",
      "function": "trainSkill(uint8)",
      "arguments": [
        "0"
      ],
      "transaction": {
        "from": "0xeca7a53ba6a190c5d205bfdc7707cbc3399336c1",
        "to": "0xdc45e5469a8b6d020473f69fec91c0f0e83a3308",
        "gas": "0x3bbb4",
        "value": "0x0",
        "input": "0xa0a73d0d0000000000000000000000000000000000000000000000000000000000000000",
        "nonce": "0x3d5",
        "chainId": "0x171"
      },
      "additionalContracts": [],
      "isFixedGasLimit": false
    }
  ],
  "receipts": [
    {
      "status": "0x1",
      "cumulativeGasUsed": "0x11253af",
      "logs": [
        {
          "address": "0xdc45e5469a8b6d020473f69fec91c0f0e83a3308",
          "topics": [
            "0xa2ecdf3a87e9ffdb151ad823ae834f6165f94e54e5a30467175e075254eb6376"
          ],
          "data": "0x000000000000000000000000eca7a53ba6a190c5d205bfdc7707cbc3399336c1000000000000000000000000000000000000000000000000000000000000000000000000000000000000000000000000000000000000000000000000000000000000000000000000000000000000000000000000000000000000000000000000000000000000000000000000000000000000000000000000000000000000000000000000000000000000000000000000000000000000000000000000697a962b00000000000000000000000000000000000000000000000000000000697a8b9f",
          "blockHash": "0x9988d407d12e11d61203ff64b32ff1dbe2a53e520ed6af46b797be5e57941b8a",
          "blockNumber": "0x1875ab2",
          "transactionHash": "0x82571ae20b8f5913fb7e5ecae2f54cd49dee69ba566317badfea7f225bf50c79",
          "transactionIndex": "0x30",
          "logIndex": "0x128",
          "removed": false
        },
        {
          "address": "0xdc45e5469a8b6d020473f69fec91c0f0e83a3308",
          "topics": [
            "0xe044087a71e55f84948ec1c9a326d935d50b09a1b97fa24ac3721c9437525359"
          ],
          "data": "0x000000000000000000000000eca7a53ba6a190c5d205bfdc7707cbc3399336c100000000000000000000000000000000000000000000000000000000000003970000000000000000000000000000000000000000000000000000000000000190",
          "blockHash": "0x9988d407d12e11d61203ff64b32ff1dbe2a53e520ed6af46b797be5e57941b8a",
          "blockNumber": "0x1875ab2",
          "transactionHash": "0x82571ae20b8f5913fb7e5ecae2f54cd49dee69ba566317badfea7f225bf50c79",
          "transactionIndex": "0x30",
          "logIndex": "0x129",
          "removed": false
        }
      ],
      "logsBloom": "0x00000000000000000000000000000000000000000001000000000000000000000000000000100000000000000000000000000000000000000000000000000000000000000000000000000000000000000000000000002000000000000000000000000000000000002000000004000000000000000000000000000000000000000000000000000000000000000000000000000000000400000000000000000000000000000000000000000000000000000000002000000000000000000000000000000000000000000000000000000000000000000000000000000000000000000000000000000000000000000000400000000000000000000000000100000000",
      "type": "0x2",
      "transactionHash": "0x82571ae20b8f5913fb7e5ecae2f54cd49dee69ba566317badfea7f225bf50c79",
      "transactionIndex": "0x30",
      "blockHash": "0x9988d407d12e11d61203ff64b32ff1dbe2a53e520ed6af46b797be5e57941b8a",
      "blockNumber": "0x1875ab2",
      "gasUsed": "0x28d79",
      "effectiveGasPrice": "0x214d203939957",
      "from": "0xeca7a53ba6a190c5d205bfdc7707cbc3399336c1",
      "to": "0xdc45e5469a8b6d020473f69fec91c0f0e83a3308",
      "contractAddress": null
    }
  ],
  "libraries": [],
  "pending": [],
  "returns": {},
  "timestamp": 1769638817612,
  "chain": 369,
  "commit": null
}