{
  "transactions": [
    {
      "hash": "0x2d4256c55ed14f693ef260a67d083b356a1182e1c44ad8e3d6722634daf21aa4",
      "transactionType": "CALL",
      "contractName": null,
      "contractAddress": "0xdc45e5469a8b6d020473f69fec91c0f0e83a3308",
      "function": "trainSkill(uint8)",
      "arguments": [
        "0"
      ],
      "transaction": {
        "from": "0x4c62f6121e6f967a0872da8364995e9b68c1e82f",
        "to": "0xdc45e5469a8b6d020473f69fec91c0f0e83a3308",
        "gas": "0x379ba",
        "value": "0x0",
        "input": "0xa0a73d0d0000000000000000000000000000000000000000000000000000000000000000",
        "nonce": "0x730",
        "chainId": "0x171"
      },
      "additionalContracts": [],
      "isFixedGasLimit": false
    }
  ],
  "receipts": [
    {
      "status": "0x1",
      "cumulativeGasUsed": "0x1f969f",
      "logs": [
        {
          "address": "0xdc45e5469a8b6d020473f69fec91c0f0e83a3308",
          "topics": [
            "0xa2ecdf3a87e9ffdb151ad823ae834f6165f94e54e5a30467175e075254eb6376"
          ],
          "data": "0x0000000000000000000000004c62f6121e6f967a0872da8364995e9b68c1e82f0000000000000000000000000000000000000000000000000000000000000000000000000000000000000000000000000000000000000000000000000000000000000000000000000000000000000000000000000000000000000000000000000000000000000000000000000000000000000000000000000000000000000000000000000000000000000000000000000000000000000000000000006979e19f000000000000000000000000000000000000000000000000000000006979d713",
          "blockHash": "0xbf3fbced28df168cb28cbde0f280e63a0b35c2c7a5f13b11ff37cd38a74f8657",
          "blockNumber": "0x1874905",
          "transactionHash": "0x2d4256c55ed14f693ef260a67d083b356a1182e1c44ad8e3d6722634daf21aa4",
          "transactionIndex": "0xb",
          "logIndex": "0x39",
          "removed": false
        },
        {
          "address": "0xdc45e5469a8b6d020473f69fec91c0f0e83a3308",
          "topics": [
            "0xe044087a71e55f84948ec1c9a326d935d50b09a1b97fa24ac3721c9437525359"
          ],
          "data": "0x0000000000000000000000004c62f6121e6f967a0872da8364995e9b68c1e82f00000000000000000000000000000000000000000000000000000000000013210000000000000000000000000000000000000000000000000000000000000190",
          "blockHash": "0xbf3fbced28df168cb28cbde0f280e63a0b35c2c7a5f13b11ff37cd38a74f8657",
          "blockNumber": "0x1874905",
          "transactionHash": "0x2d4256c55ed14f693ef260a67d083b356a1182e1c44ad8e3d6722634daf21aa4",
          "transactionIndex": "0xb",
          "logIndex": "0x3a",
          "removed": false
        }
      ],
      "logsBloom": "0x00000000000000000000000000000000000000000001000000000000000000000000000000100000000000000000000000000000000000000000000000000000000000000000000000000000000000000000000000002000000000000000000000000000000000002000000004000000000000000000000000000000000000000000000000000000000000000000000000000000000400000000000000000000000000000000000000000000000000000000002000000000000000000000000000000000000000000000000000000000000000000000000000000000000000000000000000000000000000000000400000000000000000000000000100000000",
      "type": "0x2",
      "transactionHash": "0x2d4256c55ed14f693ef260a67d083b356a1182e1c44ad8e3d6722634daf21aa4",
      "transactionIndex": "0xb",
      "blockHash": "0xbf3fbced28df168cb28cbde0f280e63a0b35c2c7a5f13b11ff37cd38a74f8657",
      "blockNumber": "0x1874905",
      "gasUsed": "0x28426",
      "effectiveGasPrice": "0x1c6ef6d0d07a8",
      "from": "0x4c62f6121e6f967a0872da8364995e9b68c1e82f",
      "to": "0xdc45e5469a8b6d020473f69fec91c0f0e83a3308",
      "contractAddress": null
    }
  ],
  "libraries": [],
  "pending": [],
  "returns": {},
  "timestamp": 1769592596200,
  "chain": 369,
  "commit": null
}