{
  "transactions": [
    {
      "hash": "0xfc1df10ffbc04b2308260d2a86fbd96887b3ba52bf01e03491af4ac621a3e92d",
      "transactionType": "CALL",
      "contractName": null,
      "contractAddress": "0xdc45e5469a8b6d020473f69fec91c0f0e83a3308",
      "function": "trainSkill(uint8)",
      "arguments": [
        "0"
      ],
      "transaction": {
        "from": "0x4c62f6121e6f967a0872da8364995e9b68c1e82f",
        "to": "0xdc45e5469a8b6d020473f69fec91c0f0e83a3308",
        "gas": "0x38605",
        "value": "0x0",
        "input": "0xa0a73d0d0000000000000000000000000000000000000000000000000000000000000000",
        "nonce": "0x961",
        "chainId": "0x171"
      },
      "additionalContracts": [],
      "isFixedGasLimit": false
    }
  ],
  "receipts": [
    {
      "status": "0x1",
      "cumulativeGasUsed": "0x75b360",
      "logs": [
        {
          "address": "0xdc45e5469a8b6d020473f69fec91c0f0e83a3308",
          "topics": [
            "0xa2ecdf3a87e9ffdb151ad823ae834f6165f94e54e5a30467175e075254eb6376"
          ],
          "data": "0x0000000000000000000000004c62f6121e6f967a0872da8364995e9b68c1e82f0000000000000000000000000000000000000000000000000000000000000000000000000000000000000000000000000000000000000000000000000000000000000000000000000000000000000000000000000000000000000000000000000000000000000000000000000000000000000000000000000000000000000000000000000000000000000000000000000000000000000000000000006987ad93000000000000000000000000000000000000000000000000000000006987a307",
          "blockHash": "0x7cd6d0c93a7fb1c1bab7bd8190a9c3b268f733e04a669154aed59b172b14e228",
          "blockNumber": "0x188a167",
          "transactionHash": "0xfc1df10ffbc04b2308260d2a86fbd96887b3ba52bf01e03491af4ac621a3e92d",
          "transactionIndex": "0x20",
          "logIndex": "0xac",
          "removed": false
        },
        {
          "address": "0xdc45e5469a8b6d020473f69fec91c0f0e83a3308",
          "topics": [
            "0xe044087a71e55f84948ec1c9a326d935d50b09a1b97fa24ac3721c9437525359"
          ],
          "data": "0x0000000000000000000000004c62f6121e6f967a0872da8364995e9b68c1e82f00000000000000000000000000000000000000000000000000000000000020290000000000000000000000000000000000000000000000000000000000000190",
          "blockHash": "0x7cd6d0c93a7fb1c1bab7bd8190a9c3b268f733e04a669154aed59b172b14e228",
          "blockNumber": "0x188a167",
          "transactionHash": "0xfc1df10ffbc04b2308260d2a86fbd96887b3ba52bf01e03491af4ac621a3e92d",
          "transactionIndex": "0x20",
          "logIndex": "0xad",
          "removed": false
        }
      ],
      "logsBloom": "0x00000000000000000000000000000000000000000001000000000000000000000000000000100000000000000000000000000000000000000000000000000000000000000000000000000000000000000000000000002000000000000000000000000000000000002000000004000000000000000000000000000000000000000000000000000000000000000000000000000000000400000000000000000000000000000000000000000000000000000000002000000000000000000000000000000000000000000000000000000000000000000000000000000000000000000000000000000000000000000000400000000000000000000000000100000000",
      "type": "0x2",
      "transactionHash": "0xfc1df10ffbc04b2308260d2a86fbd96887b3ba52bf01e03491af4ac621a3e92d",
      "transactionIndex": "0x20",
      "blockHash": "0x7cd6d0c93a7fb1c1bab7bd8190a9c3b268f733e04a669154aed59b172b14e228",
      "blockNumber": "0x188a167",
      "gasUsed": "0x28d0d",
      "effectiveGasPrice": "0x327389d94f820",
      "from": "0x4c62f6121e6f967a0872da8364995e9b68c1e82f",
      "to": "0xdc45e5469a8b6d020473f69fec91c0f0e83a3308",
      "contractAddress": null
    }
  ],
  "libraries": [],
  "pending": [],
  "returns": {},
  "timestamp": 1770496776375,
  "chain": 369,
  "commit": null
}