{
  "transactions": [
    {
      "hash": "0x254d3896775fcf9e5b39b05dec7f032beea8f4ba93e25965c9c4b06504c3fa0d",
      "transactionType": "CALL",
      "contractName": null,
      "contractAddress": "0xdc45e5469a8b6d020473f69fec91c0f0e83a3308",
      "function": "trainSkill(uint8)",
      "arguments": [
        "0"
      ],
      "transaction": {
        "from": "0xaa73aa98480757d75aae288b5931261448eb0530",
        "to": "0xdc45e5469a8b6d020473f69fec91c0f0e83a3308",
        "gas": "0x38605",
        "value": "0x0",
        "input": "0xa0a73d0d0000000000000000000000000000000000000000000000000000000000000000",
        "nonce": "0x66",
        "chainId": "0x171"
      },
      "additionalContracts": [],
      "isFixedGasLimit": false
    }
  ],
  "receipts": [
    {
      "status": "0x1",
      "cumulativeGasUsed": "0x1b9d7fb",
      "logs": [
        {
          "address": "0xdc45e5469a8b6d020473f69fec91c0f0e83a3308",
          "topics": [
            "0xa2ecdf3a87e9ffdb151ad823ae834f6165f94e54e5a30467175e075254eb6376"
          ],
          "data": "0x000000000000000000000000aa73aa98480757d75aae288b5931261448eb053000000000000000000000000000000000000000000000000000000000000000000000000000000000000000000000000000000000000000000000000000000000000000000000000000000000000000000000000000000000000000000000000000000000000000000000000000000000000000000000000000000000000000000000000000000000000000000000000000000000000000000000000069882bb50000000000000000000000000000000000000000000000000000000069882129",
          "blockHash": "0x49e819822e5ad827e17250ef7ade2f04bb596d8b43067afc8138c0d0c3fd70a8",
          "blockNumber": "0x188adb8",
          "transactionHash": "0x254d3896775fcf9e5b39b05dec7f032beea8f4ba93e25965c9c4b06504c3fa0d",
          "transactionIndex": "0x2f",
          "logIndex": "0x710",
          "removed": false
        },
        {
          "address": "0xdc45e5469a8b6d020473f69fec91c0f0e83a3308",
          "topics": [
            "0xe044087a71e55f84948ec1c9a326d935d50b09a1b97fa24ac3721c9437525359"
          ],
          "data": "0x000000000000000000000000aa73aa98480757d75aae288b5931261448eb053000000000000000000000000000000000000000000000000000000000000018be0000000000000000000000000000000000000000000000000000000000000190",
          "blockHash": "0x49e819822e5ad827e17250ef7ade2f04bb596d8b43067afc8138c0d0c3fd70a8",
          "blockNumber": "0x188adb8",
          "transactionHash": "0x254d3896775fcf9e5b39b05dec7f032beea8f4ba93e25965c9c4b06504c3fa0d",
          "transactionIndex": "0x2f",
          "logIndex": "0x711",
          "removed": false
        }
      ],
      "logsBloom": "0x00000000000000000000000000000000000000000001000000000000000000000000000000100000000000000000000000000000000000000000000000000000000000000000000000000000000000000000000000002000000000000000000000000000000000002000000004000000000000000000000000000000000000000000000000000000000000000000000000000000000400000000000000000000000000000000000000000000000000000000002000000000000000000000000000000000000000000000000000000000000000000000000000000000000000000000000000000000000000000000400000000000000000000000000100000000",
      "type": "0x2",
      "transactionHash": "0x254d3896775fcf9e5b39b05dec7f032beea8f4ba93e25965c9c4b06504c3fa0d",
      "transactionIndex": "0x2f",
      "blockHash": "0x49e819822e5ad827e17250ef7ade2f04bb596d8b43067afc8138c0d0c3fd70a8",
      "blockNumber": "0x188adb8",
      "gasUsed": "0x28d0d",
      "effectiveGasPrice": "0x27b3ddc256f23",
      "from": "0xaa73aa98480757d75aae288b5931261448eb0530",
      "to": "0xdc45e5469a8b6d020473f69fec91c0f0e83a3308",
      "contractAddress": null
    }
  ],
  "libraries": [],
  "pending": [],
  "returns": {},
  "timestamp": 1770529066638,
  "chain": 369,
  "commit": null
}