{
  "transactions": [
    {
      "hash": "0x064355e069712bef4cf34d36db9b75637245a8164af1baacf4920e141fe18886",
      "transactionType": "CALL",
      "contractName": null,
      "contractAddress": "0xdc45e5469a8b6d020473f69fec91c0f0e83a3308",
      "function": "trainSkill(uint8)",
      "arguments": [
        "0"
      ],
      "transaction": {
        "from": "0xac56dc5a4a9de0197f7b8f584ea04ec7e0123dde",
        "to": "0xdc45e5469a8b6d020473f69fec91c0f0e83a3308",
        "gas": "0x379ba",
        "value": "0x0",
        "input": "0xa0a73d0d0000000000000000000000000000000000000000000000000000000000000000",
        "nonce": "0x3b3",
        "chainId": "0x171"
      },
      "additionalContracts": [],
      "isFixedGasLimit": false
    }
  ],
  "receipts": [
    {
      "status": "0x1",
      "cumulativeGasUsed": "0xbc0f7e",
      "logs": [
        {
          "address": "0xdc45e5469a8b6d020473f69fec91c0f0e83a3308",
          "topics": [
            "0xa2ecdf3a87e9ffdb151ad823ae834f6165f94e54e5a30467175e075254eb6376"
          ],
          "data": "0x000000000000000000000000ac56dc5a4a9de0197f7b8f584ea04ec7e0123dde000000000000000000000000000000000000000000000000000000000000000000000000000000000000000000000000000000000000000000000000000000000000000000000000000000000000000000000000000000000000000000000000000000000000000000000000000000000000000000000000000000000000000000000000000000000000000000000000000000000000000000000000697aa0df00000000000000000000000000000000000000000000000000000000697a9653",
          "blockHash": "0x146f0db4ce2dba52f248cbd73d753a8e29a659a83ae795cade4c1f1ec2fec81e",
          "blockNumber": "0x1875bbd",
          "transactionHash": "0x064355e069712bef4cf34d36db9b75637245a8164af1baacf4920e141fe18886",
          "transactionIndex": "0x38",
          "logIndex": "0x127",
          "removed": false
        },
        {
          "address": "0xdc45e5469a8b6d020473f69fec91c0f0e83a3308",
          "topics": [
            "0xe044087a71e55f84948ec1c9a326d935d50b09a1b97fa24ac3721c9437525359"
          ],
          "data": "0x000000000000000000000000ac56dc5a4a9de0197f7b8f584ea04ec7e0123dde0000000000000000000000000000000000000000000000000000000000001ff90000000000000000000000000000000000000000000000000000000000000190",
          "blockHash": "0x146f0db4ce2dba52f248cbd73d753a8e29a659a83ae795cade4c1f1ec2fec81e",
          "blockNumber": "0x1875bbd",
          "transactionHash": "0x064355e069712bef4cf34d36db9b75637245a8164af1baacf4920e141fe18886",
          "transactionIndex": "0x38",
          "logIndex": "0x128",
          "removed": false
        }
      ],
      "logsBloom": "0x00000000000000000000000000000000000000000001000000000000000000000000000000100000000000000000000000000000000000000000000000000000000000000000000000000000000000000000000000002000000000000000000000000000000000002000000004000000000000000000000000000000000000000000000000000000000000000000000000000000000400000000000000000000000000000000000000000000000000000000002000000000000000000000000000000000000000000000000000000000000000000000000000000000000000000000000000000000000000000000400000000000000000000000000100000000",
      "type": "0x2",
      "transactionHash": "0x064355e069712bef4cf34d36db9b75637245a8164af1baacf4920e141fe18886",
      "transactionIndex": "0x38",
      "blockHash": "0x146f0db4ce2dba52f248cbd73d753a8e29a659a83ae795cade4c1f1ec2fec81e",
      "blockNumber": "0x1875bbd",
      "gasUsed": "0x28426",
      "effectiveGasPrice": "0x1c7db06773a94",
      "from": "0xac56dc5a4a9de0197f7b8f584ea04ec7e0123dde",
      "to": "0xdc45e5469a8b6d020473f69fec91c0f0e83a3308",
      "contractAddress": null
    }
  ],
  "libraries": [],
  "pending": [],
  "returns": {},
  "timestamp": 1769641556998,
  "chain": 369,
  "commit": null
}