{
  "transactions": [
    {
      "hash": "0x4adecb5c8dec6a3b45e3d40c12b84dd4b4672c7b32b51f0724935fba2d3502e7",
      "transactionType": "CALL",
      "contractName": null,
      "contractAddress": "0xdc45e5469a8b6d020473f69fec91c0f0e83a3308",
      "function": "trainSkill(uint8)",
      "arguments": [
        "0"
      ],
      "transaction": {
        "from": "0xaa73aa98480757d75aae288b5931261448eb0530",
        "to": "0xdc45e5469a8b6d020473f69fec91c0f0e83a3308",
        "gas": "0x38605",
        "value": "0x0",
        "input": "0xa0a73d0d0000000000000000000000000000000000000000000000000000000000000000",
        "nonce": "0x5f",
        "chainId": "0x171"
      },
      "additionalContracts": [],
      "isFixedGasLimit": false
    }
  ],
  "receipts": [
    {
      "status": "0x1",
      "cumulativeGasUsed": "0x843a61",
      "logs": [
        {
          "address": "0xdc45e5469a8b6d020473f69fec91c0f0e83a3308",
          "topics": [
            "0xa2ecdf3a87e9ffdb151ad823ae834f6165f94e54e5a30467175e075254eb6376"
          ],
          "data": "0x000000000000000000000000aa73aa98480757d75aae288b5931261448eb0530000000000000000000000000000000000000000000000000000000000000000000000000000000000000000000000000000000000000000000000000000000000000000000000000000000000000000000000000000000000000000000000000000000000000000000000000000000000000000000000000000000000000000000000000000000000000000000000000000000000000000000000000698815fd0000000000000000000000000000000000000000000000000000000069880b71",
          "blockHash": "0x2e5163c9379b8e733778c5606d09e8c377a2e5917aad7382faf40f384ce42910",
          "blockNumber": "0x188ab99",
          "transactionHash": "0x4adecb5c8dec6a3b45e3d40c12b84dd4b4672c7b32b51f0724935fba2d3502e7",
          "transactionIndex": "0x20",
          "logIndex": "0x178",
          "removed": false
        },
        {
          "address": "0xdc45e5469a8b6d020473f69fec91c0f0e83a3308",
          "topics": [
            "0xe044087a71e55f84948ec1c9a326d935d50b09a1b97fa24ac3721c9437525359"
          ],
          "data": "0x000000000000000000000000aa73aa98480757d75aae288b5931261448eb05300000000000000000000000000000000000000000000000000000000000000a140000000000000000000000000000000000000000000000000000000000000190",
          "blockHash": "0x2e5163c9379b8e733778c5606d09e8c377a2e5917aad7382faf40f384ce42910",
          "blockNumber": "0x188ab99",
          "transactionHash": "0x4adecb5c8dec6a3b45e3d40c12b84dd4b4672c7b32b51f0724935fba2d3502e7",
          "transactionIndex": "0x20",
          "logIndex": "0x179",
          "removed": false
        }
      ],
      "logsBloom": "0x00000000000000000000000000000000000000000001000000000000000000000000000000100000000000000000000000000000000000000000000000000000000000000000000000000000000000000000000000002000000000000000000000000000000000002000000004000000000000000000000000000000000000000000000000000000000000000000000000000000000400000000000000000000000000000000000000000000000000000000002000000000000000000000000000000000000000000000000000000000000000000000000000000000000000000000000000000000000000000000400000000000000000000000000100000000",
      "type": "0x2",
      "transactionHash": "0x4adecb5c8dec6a3b45e3d40c12b84dd4b4672c7b32b51f0724935fba2d3502e7",
      "transactionIndex": "0x20",
      "blockHash": "0x2e5163c9379b8e733778c5606d09e8c377a2e5917aad7382faf40f384ce42910",
      "blockNumber": "0x188ab99",
      "gasUsed": "0x28d0d",
      "effectiveGasPrice": "0x2f3dc06a58a30",
      "from": "0xaa73aa98480757d75aae288b5931261448eb0530",
      "to": "0xdc45e5469a8b6d020473f69fec91c0f0e83a3308",
      "contractAddress": null
    }
  ],
  "libraries": [],
  "pending": [],
  "returns": {},
  "timestamp": 1770523506506,
  "chain": 369,
  "commit": null
}