{
  "transactions": [
    {
      "hash": "0x209710363c4a8e23214cc1cbf9a1f5eedbd0a3faa9627d949bb115ae9e668ff7",
      "transactionType": "CALL",
      "contractName": null,
      "contractAddress": "0xdc45e5469a8b6d020473f69fec91c0f0e83a3308",
      "function": "trainSkill(uint8)",
      "arguments": [
        "0"
      ],
      "transaction": {
        "from": "0x4c62f6121e6f967a0872da8364995e9b68c1e82f",
        "to": "0xdc45e5469a8b6d020473f69fec91c0f0e83a3308",
        "gas": "0x38605",
        "value": "0x0",
        "input": "0xa0a73d0d0000000000000000000000000000000000000000000000000000000000000000",
        "nonce": "0x967",
        "chainId": "0x171"
      },
      "additionalContracts": [],
      "isFixedGasLimit": false
    }
  ],
  "receipts": [
    {
      "status": "0x1",
      "cumulativeGasUsed": "0xf970ce",
      "logs": [
        {
          "address": "0xdc45e5469a8b6d020473f69fec91c0f0e83a3308",
          "topics": [
            "0xa2ecdf3a87e9ffdb151ad823ae834f6165f94e54e5a30467175e075254eb6376"
          ],
          "data": "0x0000000000000000000000004c62f6121e6f967a0872da8364995e9b68c1e82f0000000000000000000000000000000000000000000000000000000000000000000000000000000000000000000000000000000000000000000000000000000000000000000000000000000000000000000000000000000000000000000000000000000000000000000000000000000000000000000000000000000000000000000000000000000000000000000000000000000000000000000000006987c35f000000000000000000000000000000000000000000000000000000006987b8d3",
          "blockHash": "0xf3ce82312a32542ad7f4e03a7470b354824f903c73b9c1ef0b47f7a6fa39a0f8",
          "blockNumber": "0x188a38a",
          "transactionHash": "0x209710363c4a8e23214cc1cbf9a1f5eedbd0a3faa9627d949bb115ae9e668ff7",
          "transactionIndex": "0x1d",
          "logIndex": "0x154",
          "removed": false
        },
        {
          "address": "0xdc45e5469a8b6d020473f69fec91c0f0e83a3308",
          "topics": [
            "0xe044087a71e55f84948ec1c9a326d935d50b09a1b97fa24ac3721c9437525359"
          ],
          "data": "0x0000000000000000000000004c62f6121e6f967a0872da8364995e9b68c1e82f00000000000000000000000000000000000000000000000000000000000017f80000000000000000000000000000000000000000000000000000000000000190",
          "blockHash": "0xf3ce82312a32542ad7f4e03a7470b354824f903c73b9c1ef0b47f7a6fa39a0f8",
          "blockNumber": "0x188a38a",
          "transactionHash": "0x209710363c4a8e23214cc1cbf9a1f5eedbd0a3faa9627d949bb115ae9e668ff7",
          "transactionIndex": "0x1d",
          "logIndex": "0x155",
          "removed": false
        }
      ],
      "logsBloom": "0x00000000000000000000000000000000000000000001000000000000000000000000000000100000000000000000000000000000000000000000000000000000000000000000000000000000000000000000000000002000000000000000000000000000000000002000000004000000000000000000000000000000000000000000000000000000000000000000000000000000000400000000000000000000000000000000000000000000000000000000002000000000000000000000000000000000000000000000000000000000000000000000000000000000000000000000000000000000000000000000400000000000000000000000000100000000",
      "type": "0x2",
      "transactionHash": "0x209710363c4a8e23214cc1cbf9a1f5eedbd0a3faa9627d949bb115ae9e668ff7",
      "transactionIndex": "0x1d",
      "blockHash": "0xf3ce82312a32542ad7f4e03a7470b354824f903c73b9c1ef0b47f7a6fa39a0f8",
      "blockNumber": "0x188a38a",
      "gasUsed": "0x28d0d",
      "effectiveGasPrice": "0x31da7c91b7b9c",
      "from": "0x4c62f6121e6f967a0872da8364995e9b68c1e82f",
      "to": "0xdc45e5469a8b6d020473f69fec91c0f0e83a3308",
      "contractAddress": null
    }
  ],
  "libraries": [],
  "pending": [],
  "returns": {},
  "timestamp": 1770502356099,
  "chain": 369,
  "commit": null
}