{
  "transactions": [
    {
      "hash": "0x56e619703ff5828ee8ac549359bbd03896377c7bca97b1b69d55c6036a0d11aa",
      "transactionType": "CALL",
      "contractName": null,
      "contractAddress": "0xdc45e5469a8b6d020473f69fec91c0f0e83a3308",
      "function": "trainSkill(uint8)",
      "arguments": [
        "0"
      ],
      "transaction": {
        "from": "0xac56dc5a4a9de0197f7b8f584ea04ec7e0123dde",
        "to": "0xdc45e5469a8b6d020473f69fec91c0f0e83a3308",
        "gas": "0x38605",
        "value": "0x0",
        "input": "0xa0a73d0d0000000000000000000000000000000000000000000000000000000000000000",
        "nonce": "0x4ef",
        "chainId": "0x171"
      },
      "additionalContracts": [],
      "isFixedGasLimit": false
    }
  ],
  "receipts": [
    {
      "status": "0x1",
      "cumulativeGasUsed": "0xa62508",
      "logs": [
        {
          "address": "0xdc45e5469a8b6d020473f69fec91c0f0e83a3308",
          "topics": [
            "0x5e5a0b90fdb27738829c217bcfc3821977755208ca0818475f4fe9af193a8a38"
          ],
          "data": "0x000000000000000000000000ac56dc5a4a9de0197f7b8f584ea04ec7e0123dde0000000000000000000000000000000000000000000000000000000000000384",
          "blockHash": "0xecb7084584daa59732590824f81de1011f32ee31a17b1eb7b56e4695dedbce87",
          "blockNumber": "0x188a862",
          "transactionHash": "0x56e619703ff5828ee8ac549359bbd03896377c7bca97b1b69d55c6036a0d11aa",
          "transactionIndex": "0x32",
          "logIndex": "0xe3",
          "removed": false
        },
        {
          "address": "0xdc45e5469a8b6d020473f69fec91c0f0e83a3308",
          "topics": [
            "0xa2ecdf3a87e9ffdb151ad823ae834f6165f94e54e5a30467175e075254eb6376"
          ],
          "data": "0x000000000000000000000000ac56dc5a4a9de0197f7b8f584ea04ec7e0123dde0000000000000000000000000000000000000000000000000000000000000000000000000000000000000000000000000000000000000000000000000000000100000000000000000000000000000000000000000000000000000000000000000000000000000000000000000000000000000000000000000000000000000032000000000000000000000000000000000000000000000000000000006987f555000000000000000000000000000000000000000000000000000000006987eac9",
          "blockHash": "0xecb7084584daa59732590824f81de1011f32ee31a17b1eb7b56e4695dedbce87",
          "blockNumber": "0x188a862",
          "transactionHash": "0x56e619703ff5828ee8ac549359bbd03896377c7bca97b1b69d55c6036a0d11aa",
          "transactionIndex": "0x32",
          "logIndex": "0xe4",
          "removed": false
        },
        {
          "address": "0xdc45e5469a8b6d020473f69fec91c0f0e83a3308",
          "topics": [
            "0xe044087a71e55f84948ec1c9a326d935d50b09a1b97fa24ac3721c9437525359"
          ],
          "data": "0x000000000000000000000000ac56dc5a4a9de0197f7b8f584ea04ec7e0123dde00000000000000000000000000000000000000000000000000000000000000650000000000000000000000000000000000000000000000000000000000000190",
          "blockHash": "0xecb7084584daa59732590824f81de1011f32ee31a17b1eb7b56e4695dedbce87",
          "blockNumber": "0x188a862",
          "transactionHash": "0x56e619703ff5828ee8ac549359bbd03896377c7bca97b1b69d55c6036a0d11aa",
          "transactionIndex": "0x32",
          "logIndex": "0xe5",
          "removed": false
        }
      ],
      "logsBloom": "0x00000000000000000000000000400000000000000001000000000000000000000000000000100000000000000000000000000000000000000000000000000000000000000000000000000000000000000000000000002000000000000000000000000000000000002000010004000000000000000000000000000000000000000000000000000000000000000000000000000000000400000000000000000000000000000000000002000000000000000000002000000000000000000000000000000000000000000000000000000000000000000000000000000000000000000000000000000000000000000000400000000000000000000000000100000000",
      "type": "0x2",
      "transactionHash": "0x56e619703ff5828ee8ac549359bbd03896377c7bca97b1b69d55c6036a0d11aa",
      "transactionIndex": "0x32",
      "blockHash": "0xecb7084584daa59732590824f81de1011f32ee31a17b1eb7b56e4695dedbce87",
      "blockNumber": "0x188a862",
      "gasUsed": "0x2a951",
      "effectiveGasPrice": "0x2d313e5e59b59",
      "from": "0xac56dc5a4a9de0197f7b8f584ea04ec7e0123dde",
      "to": "0xdc45e5469a8b6d020473f69fec91c0f0e83a3308",
      "contractAddress": null
    }
  ],
  "libraries": [],
  "pending": [],
  "returns": {},
  "timestamp": 1770515146185,
  "chain": 369,
  "commit": null
}