{
  "transactions": [
    {
      "hash": "0x860692d96469766b0b435a74c8dc507aa2b190d8a34952565da9e07e6adff535",
      "transactionType": "CALL",
      "contractName": null,
      "contractAddress": "0xdc45e5469a8b6d020473f69fec91c0f0e83a3308",
      "function": "trainSkill(uint8)",
      "arguments": [
        "0"
      ],
      "transaction": {
        "from": "0xeca7a53ba6a190c5d205bfdc7707cbc3399336c1",
        "to": "0xdc45e5469a8b6d020473f69fec91c0f0e83a3308",
        "gas": "0x386ee",
        "value": "0x0",
        "input": "0xa0a73d0d0000000000000000000000000000000000000000000000000000000000000000",
        "nonce": "0x2a5",
        "chainId": "0x171"
      },
      "additionalContracts": [],
      "isFixedGasLimit": false
    }
  ],
  "receipts": [
    {
      "status": "0x1",
      "cumulativeGasUsed": "0x188b1ad",
      "logs": [
        {
          "address": "0xdc45e5469a8b6d020473f69fec91c0f0e83a3308",
          "topics": [
            "0xa2ecdf3a87e9ffdb151ad823ae834f6165f94e54e5a30467175e075254eb6376"
          ],
          "data": "0x000000000000000000000000eca7a53ba6a190c5d205bfdc7707cbc3399336c10000000000000000000000000000000000000000000000000000000000000000000000000000000000000000000000000000000000000000000000000000000000000000000000000000000000000000000000000000000000000000000000000000000000000000000000000000000000000000000000000000000000000000000000000000000000000000000000000000000000000000000000006975345100000000000000000000000000000000000000000000000000000000697529c5",
          "blockHash": "0x7b46a8a814cb2e26c6ce35123152bc1d6248cd5bd2393d471469386b5181a178",
          "blockNumber": "0x186d43c",
          "transactionHash": "0x860692d96469766b0b435a74c8dc507aa2b190d8a34952565da9e07e6adff535",
          "transactionIndex": "0x142",
          "logIndex": "0x16c",
          "removed": false
        },
        {
          "address": "0xdc45e5469a8b6d020473f69fec91c0f0e83a3308",
          "topics": [
            "0xe044087a71e55f84948ec1c9a326d935d50b09a1b97fa24ac3721c9437525359"
          ],
          "data": "0x000000000000000000000000eca7a53ba6a190c5d205bfdc7707cbc3399336c100000000000000000000000000000000000000000000000000000000000014460000000000000000000000000000000000000000000000000000000000000190",
          "blockHash": "0x7b46a8a814cb2e26c6ce35123152bc1d6248cd5bd2393d471469386b5181a178",
          "blockNumber": "0x186d43c",
          "transactionHash": "0x860692d96469766b0b435a74c8dc507aa2b190d8a34952565da9e07e6adff535",
          "transactionIndex": "0x142",
          "logIndex": "0x16d",
          "removed": false
        }
      ],
      "logsBloom": "0x00000000000000000000000000000000000000000001000000000000000000000000000000100000000000000000000000000000000000000000000000000000000000000000000000000000000000000000000000002000000000000000000000000000000000002000000004000000000000000000000000000000000000000000000000000000000000000000000000000000000400000000000000000000000000000000000000000000000000000000002000000000000000000000000000000000000000000000000000000000000000000000000000000000000000000000000000000000000000000000400000000000000000000000000100000000",
      "type": "0x2",
      "transactionHash": "0x860692d96469766b0b435a74c8dc507aa2b190d8a34952565da9e07e6adff535",
      "transactionIndex": "0x142",
      "blockHash": "0x7b46a8a814cb2e26c6ce35123152bc1d6248cd5bd2393d471469386b5181a178",
      "blockNumber": "0x186d43c",
      "gasUsed": "0x28db5",
      "effectiveGasPrice": "0xefd3c29273c326",
      "from": "0xeca7a53ba6a190c5d205bfdc7707cbc3399336c1",
      "to": "0xdc45e5469a8b6d020473f69fec91c0f0e83a3308",
      "contractAddress": null
    }
  ],
  "libraries": [],
  "pending": [],
  "returns": {},
  "timestamp": 1769286087539,
  "chain": 369,
  "commit": "953695a"
}