{
  "transactions": [
    {
      "hash": "0xc681c2b1f05b8584c75afd27774edfe327dc5266162d82056459e50d63166907",
      "transactionType": "CALL",
      "contractName": null,
      "contractAddress": "0xdc45e5469a8b6d020473f69fec91c0f0e83a3308",
      "function": "trainSkill(uint8)",
      "arguments": [
        "0"
      ],
      "transaction": {
        "from": "0xaa73aa98480757d75aae288b5931261448eb0530",
        "to": "0xdc45e5469a8b6d020473f69fec91c0f0e83a3308",
        "gas": "0x38605",
        "value": "0x0",
        "input": "0xa0a73d0d0000000000000000000000000000000000000000000000000000000000000000",
        "nonce": "0x4f",
        "chainId": "0x171"
      },
      "additionalContracts": [],
      "isFixedGasLimit": false
    }
  ],
  "receipts": [
    {
      "status": "0x1",
      "cumulativeGasUsed": "0x1a55e95",
      "logs": [
        {
          "address": "0xdc45e5469a8b6d020473f69fec91c0f0e83a3308",
          "topics": [
            "0xa2ecdf3a87e9ffdb151ad823ae834f6165f94e54e5a30467175e075254eb6376"
          ],
          "data": "0x000000000000000000000000aa73aa98480757d75aae288b5931261448eb05300000000000000000000000000000000000000000000000000000000000000000000000000000000000000000000000000000000000000000000000000000000000000000000000000000000000000000000000000000000000000000000000000000000000000000000000000000000000000000000000000000000000000000000000000000000000000000000000000000000000000000000000006987dfa7000000000000000000000000000000000000000000000000000000006987d51b",
          "blockHash": "0x820ab2b41209fc053caf95d90b5f7357dc63f14ed29eaa0f1f76309f47973bcb",
          "blockNumber": "0x188a647",
          "transactionHash": "0xc681c2b1f05b8584c75afd27774edfe327dc5266162d82056459e50d63166907",
          "transactionIndex": "0x65",
          "logIndex": "0x247",
          "removed": false
        },
        {
          "address": "0xdc45e5469a8b6d020473f69fec91c0f0e83a3308",
          "topics": [
            "0xe044087a71e55f84948ec1c9a326d935d50b09a1b97fa24ac3721c9437525359"
          ],
          "data": "0x000000000000000000000000aa73aa98480757d75aae288b5931261448eb05300000000000000000000000000000000000000000000000000000000000001deb0000000000000000000000000000000000000000000000000000000000000190",
          "blockHash": "0x820ab2b41209fc053caf95d90b5f7357dc63f14ed29eaa0f1f76309f47973bcb",
          "blockNumber": "0x188a647",
          "transactionHash": "0xc681c2b1f05b8584c75afd27774edfe327dc5266162d82056459e50d63166907",
          "transactionIndex": "0x65",
          "logIndex": "0x248",
          "removed": false
        }
      ],
      "logsBloom": "0x00000000000000000000000000000000000000000001000000000000000000000000000000100000000000000000000000000000000000000000000000000000000000000000000000000000000000000000000000002000000000000000000000000000000000002000000004000000000000000000000000000000000000000000000000000000000000000000000000000000000400000000000000000000000000000000000000000000000000000000002000000000000000000000000000000000000000000000000000000000000000000000000000000000000000000000000000000000000000000000400000000000000000000000000100000000",
      "type": "0x2",
      "transactionHash": "0xc681c2b1f05b8584c75afd27774edfe327dc5266162d82056459e50d63166907",
      "transactionIndex": "0x65",
      "blockHash": "0x820ab2b41209fc053caf95d90b5f7357dc63f14ed29eaa0f1f76309f47973bcb",
      "blockNumber": "0x188a647",
      "gasUsed": "0x28d0d",
      "effectiveGasPrice": "0x2e9be71ff0a1b",
      "from": "0xaa73aa98480757d75aae288b5931261448eb0530",
      "to": "0xdc45e5469a8b6d020473f69fec91c0f0e83a3308",
      "contractAddress": null
    }
  ],
  "libraries": [],
  "pending": [],
  "returns": {},
  "timestamp": 1770509596551,
  "chain": 369,
  "commit": null
}