{
  "transactions": [
    {
      "hash": "0x7205501ec2ef4142970ca34d874fb7a8a5d905244d5b0c6c027dccfe1fd0cc69",
      "transactionType": "CALL",
      "contractName": null,
      "contractAddress": "0xdc45e5469a8b6d020473f69fec91c0f0e83a3308",
      "function": "trainSkill(uint8)",
      "arguments": [
        "0"
      ],
      "transaction": {
        "from": "0xac56dc5a4a9de0197f7b8f584ea04ec7e0123dde",
        "to": "0xdc45e5469a8b6d020473f69fec91c0f0e83a3308",
        "gas": "0x379ba",
        "value": "0x0",
        "input": "0xa0a73d0d0000000000000000000000000000000000000000000000000000000000000000",
        "nonce": "0x3af",
        "chainId": "0x171"
      },
      "additionalContracts": [],
      "isFixedGasLimit": false
    }
  ],
  "receipts": [
    {
      "status": "0x1",
      "cumulativeGasUsed": "0xb78602",
      "logs": [
        {
          "address": "0xdc45e5469a8b6d020473f69fec91c0f0e83a3308",
          "topics": [
            "0xa2ecdf3a87e9ffdb151ad823ae834f6165f94e54e5a30467175e075254eb6376"
          ],
          "data": "0x000000000000000000000000ac56dc5a4a9de0197f7b8f584ea04ec7e0123dde000000000000000000000000000000000000000000000000000000000000000000000000000000000000000000000000000000000000000000000000000000000000000000000000000000000000000000000000000000000000000000000000000000000000000000000000000000000000000000000000000000000000000000000000000000000000000000000000000000000000000000000000697a960d00000000000000000000000000000000000000000000000000000000697a8b81",
          "blockHash": "0xb80bca7278d1ff61215c15ec1419b35a7a73bbbf907024c7d35c81f22747aefe",
          "blockNumber": "0x1875aaf",
          "transactionHash": "0x7205501ec2ef4142970ca34d874fb7a8a5d905244d5b0c6c027dccfe1fd0cc69",
          "transactionIndex": "0xd",
          "logIndex": "0x106",
          "removed": false
        },
        {
          "address": "0xdc45e5469a8b6d020473f69fec91c0f0e83a3308",
          "topics": [
            "0xe044087a71e55f84948ec1c9a326d935d50b09a1b97fa24ac3721c9437525359"
          ],
          "data": "0x000000000000000000000000ac56dc5a4a9de0197f7b8f584ea04ec7e0123dde00000000000000000000000000000000000000000000000000000000000014070000000000000000000000000000000000000000000000000000000000000190",
          "blockHash": "0xb80bca7278d1ff61215c15ec1419b35a7a73bbbf907024c7d35c81f22747aefe",
          "blockNumber": "0x1875aaf",
          "transactionHash": "0x7205501ec2ef4142970ca34d874fb7a8a5d905244d5b0c6c027dccfe1fd0cc69",
          "transactionIndex": "0xd",
          "logIndex": "0x107",
          "removed": false
        }
      ],
      "logsBloom": "0x00000000000000000000000000000000000000000001000000000000000000000000000000100000000000000000000000000000000000000000000000000000000000000000000000000000000000000000000000002000000000000000000000000000000000002000000004000000000000000000000000000000000000000000000000000000000000000000000000000000000400000000000000000000000000000000000000000000000000000000002000000000000000000000000000000000000000000000000000000000000000000000000000000000000000000000000000000000000000000000400000000000000000000000000100000000",
      "type": "0x2",
      "transactionHash": "0x7205501ec2ef4142970ca34d874fb7a8a5d905244d5b0c6c027dccfe1fd0cc69",
      "transactionIndex": "0xd",
      "blockHash": "0xb80bca7278d1ff61215c15ec1419b35a7a73bbbf907024c7d35c81f22747aefe",
      "blockNumber": "0x1875aaf",
      "gasUsed": "0x28426",
      "effectiveGasPrice": "0x25e765318fd34",
      "from": "0xac56dc5a4a9de0197f7b8f584ea04ec7e0123dde",
      "to": "0xdc45e5469a8b6d020473f69fec91c0f0e83a3308",
      "contractAddress": null
    }
  ],
  "libraries": [],
  "pending": [],
  "returns": {},
  "timestamp": 1769638785612,
  "chain": 369,
  "commit": null
}