{
  "transactions": [
    {
      "hash": "0x0b1194d55571be1e3a8790957ef01c7bd31c51eee5972ecd56409a3a103835fc",
      "transactionType": "CALL",
      "contractName": null,
      "contractAddress": "0xdc45e5469a8b6d020473f69fec91c0f0e83a3308",
      "function": "trainSkill(uint8)",
      "arguments": [
        "0"
      ],
      "transaction": {
        "from": "0xeca7a53ba6a190c5d205bfdc7707cbc3399336c1",
        "to": "0xdc45e5469a8b6d020473f69fec91c0f0e83a3308",
        "gas": "0x392e7",
        "value": "0x0",
        "input": "0xa0a73d0d0000000000000000000000000000000000000000000000000000000000000000",
        "nonce": "0x57f",
        "chainId": "0x171"
      },
      "additionalContracts": [],
      "isFixedGasLimit": false
    }
  ],
  "receipts": [
    {
      "status": "0x1",
      "cumulativeGasUsed": "0xffb585",
      "logs": [
        {
          "address": "0xdc45e5469a8b6d020473f69fec91c0f0e83a3308",
          "topics": [
            "0xa2ecdf3a87e9ffdb151ad823ae834f6165f94e54e5a30467175e075254eb6376"
          ],
          "data": "0x000000000000000000000000eca7a53ba6a190c5d205bfdc7707cbc3399336c10000000000000000000000000000000000000000000000000000000000000000000000000000000000000000000000000000000000000000000000000000000000000000000000000000000000000000000000000000000000000000000000000000000000000000000000000000000000000000000000000000000000000000000000000000000000000000000000000000000000000000000000006987f52d000000000000000000000000000000000000000000000000000000006987eaa1",
          "blockHash": "0xf48d7c222173f69b246b588d2af2be0d644cbe4adee5755f2eb62a2094e49fca",
          "blockNumber": "0x188a85e",
          "transactionHash": "0x0b1194d55571be1e3a8790957ef01c7bd31c51eee5972ecd56409a3a103835fc",
          "transactionIndex": "0x56",
          "logIndex": "0x15f",
          "removed": false
        },
        {
          "address": "0xdc45e5469a8b6d020473f69fec91c0f0e83a3308",
          "topics": [
            "0xe044087a71e55f84948ec1c9a326d935d50b09a1b97fa24ac3721c9437525359"
          ],
          "data": "0x000000000000000000000000eca7a53ba6a190c5d205bfdc7707cbc3399336c100000000000000000000000000000000000000000000000000000000000015fc0000000000000000000000000000000000000000000000000000000000000190",
          "blockHash": "0xf48d7c222173f69b246b588d2af2be0d644cbe4adee5755f2eb62a2094e49fca",
          "blockNumber": "0x188a85e",
          "transactionHash": "0x0b1194d55571be1e3a8790957ef01c7bd31c51eee5972ecd56409a3a103835fc",
          "transactionIndex": "0x56",
          "logIndex": "0x160",
          "removed": false
        }
      ],
      "logsBloom": "0x00000000000000000000000000000000000000000001000000000000000000000000000000100000000000000000000000000000000000000000000000000000000000000000000000000000000000000000000000002000000000000000000000000000000000002000000004000000000000000000000000000000000000000000000000000000000000000000000000000000000400000000000000000000000000000000000000000000000000000000002000000000000000000000000000000000000000000000000000000000000000000000000000000000000000000000000000000000000000000000400000000000000000000000000100000000",
      "type": "0x2",
      "transactionHash": "0x0b1194d55571be1e3a8790957ef01c7bd31c51eee5972ecd56409a3a103835fc",
      "transactionIndex": "0x56",
      "blockHash": "0xf48d7c222173f69b246b588d2af2be0d644cbe4adee5755f2eb62a2094e49fca",
      "blockNumber": "0x188a85e",
      "gasUsed": "0x29660",
      "effectiveGasPrice": "0x32f34782ebe16",
      "from": "0xeca7a53ba6a190c5d205bfdc7707cbc3399336c1",
      "to": "0xdc45e5469a8b6d020473f69fec91c0f0e83a3308",
      "contractAddress": null
    }
  ],
  "libraries": [],
  "pending": [],
  "returns": {},
  "timestamp": 1770515106021,
  "chain": 369,
  "commit": null
}