{
  "transactions": [
    {
      "hash": "0x512e063a88c41f4a72b2fa153bab52d90cda33cea53c3af1f5d6c8ed3b99625f",
      "transactionType": "CALL",
      "contractName": null,
      "contractAddress": "0xdc45e5469a8b6d020473f69fec91c0f0e83a3308",
      "function": "trainSkill(uint8)",
      "arguments": [
        "0"
      ],
      "transaction": {
        "from": "0x4c62f6121e6f967a0872da8364995e9b68c1e82f",
        "to": "0xdc45e5469a8b6d020473f69fec91c0f0e83a3308",
        "gas": "0x38605",
        "value": "0x0",
        "input": "0xa0a73d0d0000000000000000000000000000000000000000000000000000000000000000",
        "nonce": "0x989",
        "chainId": "0x171"
      },
      "additionalContracts": [],
      "isFixedGasLimit": false
    }
  ],
  "receipts": [
    {
      "status": "0x1",
      "cumulativeGasUsed": "0x9e4f7b",
      "logs": [
        {
          "address": "0xdc45e5469a8b6d020473f69fec91c0f0e83a3308",
          "topics": [
            "0xa2ecdf3a87e9ffdb151ad823ae834f6165f94e54e5a30467175e075254eb6376"
          ],
          "data": "0x0000000000000000000000004c62f6121e6f967a0872da8364995e9b68c1e82f000000000000000000000000000000000000000000000000000000000000000000000000000000000000000000000000000000000000000000000000000000000000000000000000000000000000000000000000000000000000000000000000000000000000000000000000000000000000000000000000000000000000000000000000000000000000000000000000000000000000000000000000698874c10000000000000000000000000000000000000000000000000000000069886a35",
          "blockHash": "0x62f3ac2a6f471d46e09b860ffe32de264c423f8b7900e071b2f5b69256a0b05c",
          "blockNumber": "0x188b4d1",
          "transactionHash": "0x512e063a88c41f4a72b2fa153bab52d90cda33cea53c3af1f5d6c8ed3b99625f",
          "transactionIndex": "0xe",
          "logIndex": "0xe1",
          "removed": false
        },
        {
          "address": "0xdc45e5469a8b6d020473f69fec91c0f0e83a3308",
          "topics": [
            "0xe044087a71e55f84948ec1c9a326d935d50b09a1b97fa24ac3721c9437525359"
          ],
          "data": "0x0000000000000000000000004c62f6121e6f967a0872da8364995e9b68c1e82f000000000000000000000000000000000000000000000000000000000000095d0000000000000000000000000000000000000000000000000000000000000190",
          "blockHash": "0x62f3ac2a6f471d46e09b860ffe32de264c423f8b7900e071b2f5b69256a0b05c",
          "blockNumber": "0x188b4d1",
          "transactionHash": "0x512e063a88c41f4a72b2fa153bab52d90cda33cea53c3af1f5d6c8ed3b99625f",
          "transactionIndex": "0xe",
          "logIndex": "0xe2",
          "removed": false
        }
      ],
      "logsBloom": "0x00000000000000000000000000000000000000000001000000000000000000000000000000100000000000000000000000000000000000000000000000000000000000000000000000000000000000000000000000002000000000000000000000000000000000002000000004000000000000000000000000000000000000000000000000000000000000000000000000000000000400000000000000000000000000000000000000000000000000000000002000000000000000000000000000000000000000000000000000000000000000000000000000000000000000000000000000000000000000000000400000000000000000000000000100000000",
      "type": "0x2",
      "transactionHash": "0x512e063a88c41f4a72b2fa153bab52d90cda33cea53c3af1f5d6c8ed3b99625f",
      "transactionIndex": "0xe",
      "blockHash": "0x62f3ac2a6f471d46e09b860ffe32de264c423f8b7900e071b2f5b69256a0b05c",
      "blockNumber": "0x188b4d1",
      "gasUsed": "0x28d0d",
      "effectiveGasPrice": "0x27920aefe76a4",
      "from": "0x4c62f6121e6f967a0872da8364995e9b68c1e82f",
      "to": "0xdc45e5469a8b6d020473f69fec91c0f0e83a3308",
      "contractAddress": null
    }
  ],
  "libraries": [],
  "pending": [],
  "returns": {},
  "timestamp": 1770547765894,
  "chain": 369,
  "commit": null
}