{
  "transactions": [
    {
      "hash": "0x69a8d2860dd3609a339bcbd568ec8e4ff530b418d71aa03b7a731d1366887de6",
      "transactionType": "CALL",
      "contractName": null,
      "contractAddress": "0xdc45e5469a8b6d020473f69fec91c0f0e83a3308",
      "function": "trainSkill(uint8)",
      "arguments": [
        "0"
      ],
      "transaction": {
        "from": "0xeca7a53ba6a190c5d205bfdc7707cbc3399336c1",
        "to": "0xdc45e5469a8b6d020473f69fec91c0f0e83a3308",
        "gas": "0x392e7",
        "value": "0x0",
        "input": "0xa0a73d0d0000000000000000000000000000000000000000000000000000000000000000",
        "nonce": "0x573",
        "chainId": "0x171"
      },
      "additionalContracts": [],
      "isFixedGasLimit": false
    }
  ],
  "receipts": [
    {
      "status": "0x1",
      "cumulativeGasUsed": "0x808e54",
      "logs": [
        {
          "address": "0xdc45e5469a8b6d020473f69fec91c0f0e83a3308",
          "topics": [
            "0xa2ecdf3a87e9ffdb151ad823ae834f6165f94e54e5a30467175e075254eb6376"
          ],
          "data": "0x000000000000000000000000eca7a53ba6a190c5d205bfdc7707cbc3399336c10000000000000000000000000000000000000000000000000000000000000000000000000000000000000000000000000000000000000000000000000000000000000000000000000000000000000000000000000000000000000000000000000000000000000000000000000000000000000000000000000000000000000000000000000000000000000000000000000000000000000000000000006987ce6d000000000000000000000000000000000000000000000000000000006987c3e1",
          "blockHash": "0x43bc0218377b5f7fd82cacc88d695bc9c2d68bf7f815b41202abbbdf3caf8101",
          "blockNumber": "0x188a49c",
          "transactionHash": "0x69a8d2860dd3609a339bcbd568ec8e4ff530b418d71aa03b7a731d1366887de6",
          "transactionIndex": "0x2a",
          "logIndex": "0xa6",
          "removed": false
        },
        {
          "address": "0xdc45e5469a8b6d020473f69fec91c0f0e83a3308",
          "topics": [
            "0xe044087a71e55f84948ec1c9a326d935d50b09a1b97fa24ac3721c9437525359"
          ],
          "data": "0x000000000000000000000000eca7a53ba6a190c5d205bfdc7707cbc3399336c100000000000000000000000000000000000000000000000000000000000007140000000000000000000000000000000000000000000000000000000000000190",
          "blockHash": "0x43bc0218377b5f7fd82cacc88d695bc9c2d68bf7f815b41202abbbdf3caf8101",
          "blockNumber": "0x188a49c",
          "transactionHash": "0x69a8d2860dd3609a339bcbd568ec8e4ff530b418d71aa03b7a731d1366887de6",
          "transactionIndex": "0x2a",
          "logIndex": "0xa7",
          "removed": false
        }
      ],
      "logsBloom": "0x00000000000000000000000000000000000000000001000000000000000000000000000000100000000000000000000000000000000000000000000000000000000000000000000000000000000000000000000000002000000000000000000000000000000000002000000004000000000000000000000000000000000000000000000000000000000000000000000000000000000400000000000000000000000000000000000000000000000000000000002000000000000000000000000000000000000000000000000000000000000000000000000000000000000000000000000000000000000000000000400000000000000000000000000100000000",
      "type": "0x2",
      "transactionHash": "0x69a8d2860dd3609a339bcbd568ec8e4ff530b418d71aa03b7a731d1366887de6",
      "transactionIndex": "0x2a",
      "blockHash": "0x43bc0218377b5f7fd82cacc88d695bc9c2d68bf7f815b41202abbbdf3caf8101",
      "blockNumber": "0x188a49c",
      "gasUsed": "0x29660",
      "effectiveGasPrice": "0x3ce1c39aa867a",
      "from": "0xeca7a53ba6a190c5d205bfdc7707cbc3399336c1",
      "to": "0xdc45e5469a8b6d020473f69fec91c0f0e83a3308",
      "contractAddress": null
    }
  ],
  "libraries": [],
  "pending": [],
  "returns": {},
  "timestamp": 1770505186521,
  "chain": 369,
  "commit": null
}