{
  "transactions": [
    {
      "hash": "0x44c7a9057d5ae307c42a77a9fc557491ef581f934daa185786e6611042f53baf",
      "transactionType": "CALL",
      "contractName": null,
      "contractAddress": "0xdc45e5469a8b6d020473f69fec91c0f0e83a3308",
      "function": "trainSkill(uint8)",
      "arguments": [
        "0"
      ],
      "transaction": {
        "from": "0xaa73aa98480757d75aae288b5931261448eb0530",
        "to": "0xdc45e5469a8b6d020473f69fec91c0f0e83a3308",
        "gas": "0x38605",
        "value": "0x0",
        "input": "0xa0a73d0d0000000000000000000000000000000000000000000000000000000000000000",
        "nonce": "0x59",
        "chainId": "0x171"
      },
      "additionalContracts": [],
      "isFixedGasLimit": false
    }
  ],
  "receipts": [
    {
      "status": "0x1",
      "cumulativeGasUsed": "0x1db7eee",
      "logs": [
        {
          "address": "0xdc45e5469a8b6d020473f69fec91c0f0e83a3308",
          "topics": [
            "0xa2ecdf3a87e9ffdb151ad823ae834f6165f94e54e5a30467175e075254eb6376"
          ],
          "data": "0x000000000000000000000000aa73aa98480757d75aae288b5931261448eb053000000000000000000000000000000000000000000000000000000000000000000000000000000000000000000000000000000000000000000000000000000000000000000000000000000000000000000000000000000000000000000000000000000000000000000000000000000000000000000000000000000000000000000000000000000000000000000000000000000000000000000000000069880045000000000000000000000000000000000000000000000000000000006987f5b9",
          "blockHash": "0x52ab21e73b1f5331f0659779234c242bc697e53e0aec24c2a7486b7e1fb6be7a",
          "blockNumber": "0x188a976",
          "transactionHash": "0x44c7a9057d5ae307c42a77a9fc557491ef581f934daa185786e6611042f53baf",
          "transactionIndex": "0x5d",
          "logIndex": "0x3bc",
          "removed": false
        },
        {
          "address": "0xdc45e5469a8b6d020473f69fec91c0f0e83a3308",
          "topics": [
            "0xe044087a71e55f84948ec1c9a326d935d50b09a1b97fa24ac3721c9437525359"
          ],
          "data": "0x000000000000000000000000aa73aa98480757d75aae288b5931261448eb053000000000000000000000000000000000000000000000000000000000000020900000000000000000000000000000000000000000000000000000000000000190",
          "blockHash": "0x52ab21e73b1f5331f0659779234c242bc697e53e0aec24c2a7486b7e1fb6be7a",
          "blockNumber": "0x188a976",
          "transactionHash": "0x44c7a9057d5ae307c42a77a9fc557491ef581f934daa185786e6611042f53baf",
          "transactionIndex": "0x5d",
          "logIndex": "0x3bd",
          "removed": false
        }
      ],
      "logsBloom": "0x00000000000000000000000000000000000000000001000000000000000000000000000000100000000000000000000000000000000000000000000000000000000000000000000000000000000000000000000000002000000000000000000000000000000000002000000004000000000000000000000000000000000000000000000000000000000000000000000000000000000400000000000000000000000000000000000000000000000000000000002000000000000000000000000000000000000000000000000000000000000000000000000000000000000000000000000000000000000000000000400000000000000000000000000100000000",
      "type": "0x2",
      "transactionHash": "0x44c7a9057d5ae307c42a77a9fc557491ef581f934daa185786e6611042f53baf",
      "transactionIndex": "0x5d",
      "blockHash": "0x52ab21e73b1f5331f0659779234c242bc697e53e0aec24c2a7486b7e1fb6be7a",
      "blockNumber": "0x188a976",
      "gasUsed": "0x28d0d",
      "effectiveGasPrice": "0x2948f4d8dc593",
      "from": "0xaa73aa98480757d75aae288b5931261448eb0530",
      "to": "0xdc45e5469a8b6d020473f69fec91c0f0e83a3308",
      "contractAddress": null
    }
  ],
  "libraries": [],
  "pending": [],
  "returns": {},
  "timestamp": 1770517948115,
  "chain": 369,
  "commit": null
}