{
  "transactions": [
    {
      "hash": "0xd90909cd073cf6d99c13036cb8463fa5df7af159f3fcb7378e6277e6a45672b9",
      "transactionType": "CALL",
      "contractName": null,
      "contractAddress": "0xdc45e5469a8b6d020473f69fec91c0f0e83a3308",
      "function": "trainSkill(uint8)",
      "arguments": [
        "0"
      ],
      "transaction": {
        "from": "0x4c62f6121e6f967a0872da8364995e9b68c1e82f",
        "to": "0xdc45e5469a8b6d020473f69fec91c0f0e83a3308",
        "gas": "0x379ba",
        "value": "0x0",
        "input": "0xa0a73d0d0000000000000000000000000000000000000000000000000000000000000000",
        "nonce": "0x741",
        "chainId": "0x171"
      },
      "additionalContracts": [],
      "isFixedGasLimit": false
    }
  ],
  "receipts": [
    {
      "status": "0x1",
      "cumulativeGasUsed": "0x811803",
      "logs": [
        {
          "address": "0xdc45e5469a8b6d020473f69fec91c0f0e83a3308",
          "topics": [
            "0xa2ecdf3a87e9ffdb151ad823ae834f6165f94e54e5a30467175e075254eb6376"
          ],
          "data": "0x0000000000000000000000004c62f6121e6f967a0872da8364995e9b68c1e82f000000000000000000000000000000000000000000000000000000000000000000000000000000000000000000000000000000000000000000000000000000000000000000000000000000000000000000000000000000000000000000000000000000000000000000000000000000000000000000000000000000000000000000000000000000000000000000000000000000000000000000000000697a5fe900000000000000000000000000000000000000000000000000000000697a555d",
          "blockHash": "0xa05142a5a41df586e8720a5c2df28a588ce692382bce8a78513702b3869bfc30",
          "blockNumber": "0x1875567",
          "transactionHash": "0xd90909cd073cf6d99c13036cb8463fa5df7af159f3fcb7378e6277e6a45672b9",
          "transactionIndex": "0x11",
          "logIndex": "0xa7",
          "removed": false
        },
        {
          "address": "0xdc45e5469a8b6d020473f69fec91c0f0e83a3308",
          "topics": [
            "0xe044087a71e55f84948ec1c9a326d935d50b09a1b97fa24ac3721c9437525359"
          ],
          "data": "0x0000000000000000000000004c62f6121e6f967a0872da8364995e9b68c1e82f0000000000000000000000000000000000000000000000000000000000001b220000000000000000000000000000000000000000000000000000000000000190",
          "blockHash": "0xa05142a5a41df586e8720a5c2df28a588ce692382bce8a78513702b3869bfc30",
          "blockNumber": "0x1875567",
          "transactionHash": "0xd90909cd073cf6d99c13036cb8463fa5df7af159f3fcb7378e6277e6a45672b9",
          "transactionIndex": "0x11",
          "logIndex": "0xa8",
          "removed": false
        }
      ],
      "logsBloom": "0x00000000000000000000000000000000000000000001000000000000000000000000000000100000000000000000000000000000000000000000000000000000000000000000000000000000000000000000000000002000000000000000000000000000000000002000000004000000000000000000000000000000000000000000000000000000000000000000000000000000000400000000000000000000000000000000000000000000000000000000002000000000000000000000000000000000000000000000000000000000000000000000000000000000000000000000000000000000000000000000400000000000000000000000000100000000",
      "type": "0x2",
      "transactionHash": "0xd90909cd073cf6d99c13036cb8463fa5df7af159f3fcb7378e6277e6a45672b9",
      "transactionIndex": "0x11",
      "blockHash": "0xa05142a5a41df586e8720a5c2df28a588ce692382bce8a78513702b3869bfc30",
      "blockNumber": "0x1875567",
      "gasUsed": "0x28426",
      "effectiveGasPrice": "0x3a252c8608f5d",
      "from": "0x4c62f6121e6f967a0872da8364995e9b68c1e82f",
      "to": "0xdc45e5469a8b6d020473f69fec91c0f0e83a3308",
      "contractAddress": null
    }
  ],
  "libraries": [],
  "pending": [],
  "returns": {},
  "timestamp": 1769624926484,
  "chain": 369,
  "commit": null
}