{
  "transactions": [
    {
      "hash": "0xb0e9199df60941c82c5c1e99b29ac97a8fab4f64d921b1264c131a8870924752",
      "transactionType": "CALL",
      "contractName": null,
      "contractAddress": "0xdc45e5469a8b6d020473f69fec91c0f0e83a3308",
      "function": "trainSkill(uint8)",
      "arguments": [
        "0"
      ],
      "transaction": {
        "from": "0xeca7a53ba6a190c5d205bfdc7707cbc3399336c1",
        "to": "0xdc45e5469a8b6d020473f69fec91c0f0e83a3308",
        "gas": "0x3bbb4",
        "value": "0x0",
        "input": "0xa0a73d0d0000000000000000000000000000000000000000000000000000000000000000",
        "nonce": "0x3c8",
        "chainId": "0x171"
      },
      "additionalContracts": [],
      "isFixedGasLimit": false
    }
  ],
  "receipts": [
    {
      "status": "0x1",
      "cumulativeGasUsed": "0x1e00449",
      "logs": [
        {
          "address": "0xdc45e5469a8b6d020473f69fec91c0f0e83a3308",
          "topics": [
            "0xa2ecdf3a87e9ffdb151ad823ae834f6165f94e54e5a30467175e075254eb6376"
          ],
          "data": "0x000000000000000000000000eca7a53ba6a190c5d205bfdc7707cbc3399336c1000000000000000000000000000000000000000000000000000000000000000000000000000000000000000000000000000000000000000000000000000000000000000000000000000000000000000000000000000000000000000000000000000000000000000000000000000000000000000000000000000000000000000000000000000000000000000000000000000000000000000000000000697a75ab00000000000000000000000000000000000000000000000000000000697a6b1f",
          "blockHash": "0x8411968aa9f753f999aa00395d7277e7d94df57af8b3d03ad4ac974ed6d563ab",
          "blockNumber": "0x1875788",
          "transactionHash": "0xb0e9199df60941c82c5c1e99b29ac97a8fab4f64d921b1264c131a8870924752",
          "transactionIndex": "0x2a",
          "logIndex": "0x809",
          "removed": false
        },
        {
          "address": "0xdc45e5469a8b6d020473f69fec91c0f0e83a3308",
          "topics": [
            "0xe044087a71e55f84948ec1c9a326d935d50b09a1b97fa24ac3721c9437525359"
          ],
          "data": "0x000000000000000000000000eca7a53ba6a190c5d205bfdc7707cbc3399336c100000000000000000000000000000000000000000000000000000000000017f50000000000000000000000000000000000000000000000000000000000000190",
          "blockHash": "0x8411968aa9f753f999aa00395d7277e7d94df57af8b3d03ad4ac974ed6d563ab",
          "blockNumber": "0x1875788",
          "transactionHash": "0xb0e9199df60941c82c5c1e99b29ac97a8fab4f64d921b1264c131a8870924752",
          "transactionIndex": "0x2a",
          "logIndex": "0x80a",
          "removed": false
        }
      ],
      "logsBloom": "0x00000000000000000000000000000000000000000001000000000000000000000000000000100000000000000000000000000000000000000000000000000000000000000000000000000000000000000000000000002000000000000000000000000000000000002000000004000000000000000000000000000000000000000000000000000000000000000000000000000000000400000000000000000000000000000000000000000000000000000000002000000000000000000000000000000000000000000000000000000000000000000000000000000000000000000000000000000000000000000000400000000000000000000000000100000000",
      "type": "0x2",
      "transactionHash": "0xb0e9199df60941c82c5c1e99b29ac97a8fab4f64d921b1264c131a8870924752",
      "transactionIndex": "0x2a",
      "blockHash": "0x8411968aa9f753f999aa00395d7277e7d94df57af8b3d03ad4ac974ed6d563ab",
      "blockNumber": "0x1875788",
      "gasUsed": "0x28d79",
      "effectiveGasPrice": "0x2fdf96a4b97c2",
      "from": "0xeca7a53ba6a190c5d205bfdc7707cbc3399336c1",
      "to": "0xdc45e5469a8b6d020473f69fec91c0f0e83a3308",
      "contractAddress": null
    }
  ],
  "libraries": [],
  "pending": [],
  "returns": {},
  "timestamp": 1769630497043,
  "chain": 369,
  "commit": null
}