{
  "transactions": [
    {
      "hash": "0xab19f0d03e2db520ff19efbeccf07d91747cbf3c90e59526f832693c90f1405c",
      "transactionType": "CALL",
      "contractName": null,
      "contractAddress": "0xdc45e5469a8b6d020473f69fec91c0f0e83a3308",
      "function": "trainSkill(uint8)",
      "arguments": [
        "0"
      ],
      "transaction": {
        "from": "0x4c62f6121e6f967a0872da8364995e9b68c1e82f",
        "to": "0xdc45e5469a8b6d020473f69fec91c0f0e83a3308",
        "gas": "0x379ba",
        "value": "0x0",
        "input": "0xa0a73d0d0000000000000000000000000000000000000000000000000000000000000000",
        "nonce": "0x71a",
        "chainId": "0x171"
      },
      "additionalContracts": [],
      "isFixedGasLimit": false
    }
  ],
  "receipts": [
    {
      "status": "0x1",
      "cumulativeGasUsed": "0x1b2ec4f",
      "logs": [
        {
          "address": "0xdc45e5469a8b6d020473f69fec91c0f0e83a3308",
          "topics": [
            "0xa2ecdf3a87e9ffdb151ad823ae834f6165f94e54e5a30467175e075254eb6376"
          ],
          "data": "0x0000000000000000000000004c62f6121e6f967a0872da8364995e9b68c1e82f0000000000000000000000000000000000000000000000000000000000000000000000000000000000000000000000000000000000000000000000000000000000000000000000000000000000000000000000000000000000000000000000000000000000000000000000000000000000000000000000000000000000000000000000000000000000000000000000000000000000000000000000006979a0a9000000000000000000000000000000000000000000000000000000006979961d",
          "blockHash": "0x8e608a74f6831e16893e6ca9b5b55006db607238d53de624a1aeefc1f798d117",
          "blockNumber": "0x18742b2",
          "transactionHash": "0xab19f0d03e2db520ff19efbeccf07d91747cbf3c90e59526f832693c90f1405c",
          "transactionIndex": "0x50",
          "logIndex": "0x537",
          "removed": false
        },
        {
          "address": "0xdc45e5469a8b6d020473f69fec91c0f0e83a3308",
          "topics": [
            "0xe044087a71e55f84948ec1c9a326d935d50b09a1b97fa24ac3721c9437525359"
          ],
          "data": "0x0000000000000000000000004c62f6121e6f967a0872da8364995e9b68c1e82f0000000000000000000000000000000000000000000000000000000000000f600000000000000000000000000000000000000000000000000000000000000190",
          "blockHash": "0x8e608a74f6831e16893e6ca9b5b55006db607238d53de624a1aeefc1f798d117",
          "blockNumber": "0x18742b2",
          "transactionHash": "0xab19f0d03e2db520ff19efbeccf07d91747cbf3c90e59526f832693c90f1405c",
          "transactionIndex": "0x50",
          "logIndex": "0x538",
          "removed": false
        }
      ],
      "logsBloom": "0x00000000000000000000000000000000000000000001000000000000000000000000000000100000000000000000000000000000000000000000000000000000000000000000000000000000000000000000000000002000000000000000000000000000000000002000000004000000000000000000000000000000000000000000000000000000000000000000000000000000000400000000000000000000000000000000000000000000000000000000002000000000000000000000000000000000000000000000000000000000000000000000000000000000000000000000000000000000000000000000400000000000000000000000000100000000",
      "type": "0x2",
      "transactionHash": "0xab19f0d03e2db520ff19efbeccf07d91747cbf3c90e59526f832693c90f1405c",
      "transactionIndex": "0x50",
      "blockHash": "0x8e608a74f6831e16893e6ca9b5b55006db607238d53de624a1aeefc1f798d117",
      "blockNumber": "0x18742b2",
      "gasUsed": "0x28426",
      "effectiveGasPrice": "0x3e14ca7aa9f5e",
      "from": "0x4c62f6121e6f967a0872da8364995e9b68c1e82f",
      "to": "0xdc45e5469a8b6d020473f69fec91c0f0e83a3308",
      "contractAddress": null
    }
  ],
  "libraries": [],
  "pending": [],
  "returns": {},
  "timestamp": 1769575965802,
  "chain": 369,
  "commit": null
}