{
  "transactions": [
    {
      "hash": "0x715d52bdbc855fde4e22c6f16d2f78d2d148e05d72193010abf7bfcd42290fe5",
      "transactionType": "CALL",
      "contractName": null,
      "contractAddress": "0xdc45e5469a8b6d020473f69fec91c0f0e83a3308",
      "function": "trainSkill(uint8)",
      "arguments": [
        "0"
      ],
      "transaction": {
        "from": "0xeca7a53ba6a190c5d205bfdc7707cbc3399336c1",
        "to": "0xdc45e5469a8b6d020473f69fec91c0f0e83a3308",
        "gas": "0x392e7",
        "value": "0x0",
        "input": "0xa0a73d0d0000000000000000000000000000000000000000000000000000000000000000",
        "nonce": "0x592",
        "chainId": "0x171"
      },
      "additionalContracts": [],
      "isFixedGasLimit": false
    }
  ],
  "receipts": [
    {
      "status": "0x1",
      "cumulativeGasUsed": "0x1ab0d2a",
      "logs": [
        {
          "address": "0xdc45e5469a8b6d020473f69fec91c0f0e83a3308",
          "topics": [
            "0xa2ecdf3a87e9ffdb151ad823ae834f6165f94e54e5a30467175e075254eb6376"
          ],
          "data": "0x000000000000000000000000eca7a53ba6a190c5d205bfdc7707cbc3399336c1000000000000000000000000000000000000000000000000000000000000000000000000000000000000000000000000000000000000000000000000000000000000000000000000000000000000000000000000000000000000000000000000000000000000000000000000000000000000000000000000000000000000000000000000000000000000000000000000000000000000000000000000698836690000000000000000000000000000000000000000000000000000000069882bdd",
          "blockHash": "0xb929a3152312c53bf7f0e1d784ff281837664a0740d92537daa3fb65d248ddb2",
          "blockNumber": "0x188aec5",
          "transactionHash": "0x715d52bdbc855fde4e22c6f16d2f78d2d148e05d72193010abf7bfcd42290fe5",
          "transactionIndex": "0x2e",
          "logIndex": "0xe6",
          "removed": false
        },
        {
          "address": "0xdc45e5469a8b6d020473f69fec91c0f0e83a3308",
          "topics": [
            "0xe044087a71e55f84948ec1c9a326d935d50b09a1b97fa24ac3721c9437525359"
          ],
          "data": "0x000000000000000000000000eca7a53ba6a190c5d205bfdc7707cbc3399336c10000000000000000000000000000000000000000000000000000000000000d750000000000000000000000000000000000000000000000000000000000000190",
          "blockHash": "0xb929a3152312c53bf7f0e1d784ff281837664a0740d92537daa3fb65d248ddb2",
          "blockNumber": "0x188aec5",
          "transactionHash": "0x715d52bdbc855fde4e22c6f16d2f78d2d148e05d72193010abf7bfcd42290fe5",
          "transactionIndex": "0x2e",
          "logIndex": "0xe7",
          "removed": false
        }
      ],
      "logsBloom": "0x00000000000000000000000000000000000000000001000000000000000000000000000000100000000000000000000000000000000000000000000000000000000000000000000000000000000000000000000000002000000000000000000000000000000000002000000004000000000000000000000000000000000000000000000000000000000000000000000000000000000400000000000000000000000000000000000000000000000000000000002000000000000000000000000000000000000000000000000000000000000000000000000000000000000000000000000000000000000000000000400000000000000000000000000100000000",
      "type": "0x2",
      "transactionHash": "0x715d52bdbc855fde4e22c6f16d2f78d2d148e05d72193010abf7bfcd42290fe5",
      "transactionIndex": "0x2e",
      "blockHash": "0xb929a3152312c53bf7f0e1d784ff281837664a0740d92537daa3fb65d248ddb2",
      "blockNumber": "0x188aec5",
      "gasUsed": "0x29660",
      "effectiveGasPrice": "0x2e1044c23c783",
      "from": "0xeca7a53ba6a190c5d205bfdc7707cbc3399336c1",
      "to": "0xdc45e5469a8b6d020473f69fec91c0f0e83a3308",
      "contractAddress": null
    }
  ],
  "libraries": [],
  "pending": [],
  "returns": {},
  "timestamp": 1770531806294,
  "chain": 369,
  "commit": null
}