{
  "transactions": [
    {
      "hash": "0x88b9551c2748335645ef32c56c7a46e6a132360c186d04a948f1250d9e2c85ef",
      "transactionType": "CALL",
      "contractName": null,
      "contractAddress": "0xdc45e5469a8b6d020473f69fec91c0f0e83a3308",
      "function": "trainSkill(uint8)",
      "arguments": [
        "0"
      ],
      "transaction": {
        "from": "0xac56dc5a4a9de0197f7b8f584ea04ec7e0123dde",
        "to": "0xdc45e5469a8b6d020473f69fec91c0f0e83a3308",
        "gas": "0x38605",
        "value": "0x0",
        "input": "0xa0a73d0d0000000000000000000000000000000000000000000000000000000000000000",
        "nonce": "0x502",
        "chainId": "0x171"
      },
      "additionalContracts": [],
      "isFixedGasLimit": false
    }
  ],
  "receipts": [
    {
      "status": "0x1",
      "cumulativeGasUsed": "0x1933120",
      "logs": [
        {
          "address": "0xdc45e5469a8b6d020473f69fec91c0f0e83a3308",
          "topics": [
            "0xa2ecdf3a87e9ffdb151ad823ae834f6165f94e54e5a30467175e075254eb6376"
          ],
          "data": "0x000000000000000000000000ac56dc5a4a9de0197f7b8f584ea04ec7e0123dde000000000000000000000000000000000000000000000000000000000000000000000000000000000000000000000000000000000000000000000000000000000000000000000000000000000000000000000000000000000000000000000000000000000000000000000000000000000000000000000000000000000000000000000000000000000000000000000000000000000000000000000000698836910000000000000000000000000000000000000000000000000000000069882c05",
          "blockHash": "0x64751dc338861ffadff28cdf4a44d347b0f23bfe91df7055e2554f4658fe5350",
          "blockNumber": "0x188aec9",
          "transactionHash": "0x88b9551c2748335645ef32c56c7a46e6a132360c186d04a948f1250d9e2c85ef",
          "transactionIndex": "0x26",
          "logIndex": "0x252",
          "removed": false
        },
        {
          "address": "0xdc45e5469a8b6d020473f69fec91c0f0e83a3308",
          "topics": [
            "0xe044087a71e55f84948ec1c9a326d935d50b09a1b97fa24ac3721c9437525359"
          ],
          "data": "0x000000000000000000000000ac56dc5a4a9de0197f7b8f584ea04ec7e0123dde0000000000000000000000000000000000000000000000000000000000001a610000000000000000000000000000000000000000000000000000000000000190",
          "blockHash": "0x64751dc338861ffadff28cdf4a44d347b0f23bfe91df7055e2554f4658fe5350",
          "blockNumber": "0x188aec9",
          "transactionHash": "0x88b9551c2748335645ef32c56c7a46e6a132360c186d04a948f1250d9e2c85ef",
          "transactionIndex": "0x26",
          "logIndex": "0x253",
          "removed": false
        }
      ],
      "logsBloom": "0x00000000000000000000000000000000000000000001000000000000000000000000000000100000000000000000000000000000000000000000000000000000000000000000000000000000000000000000000000002000000000000000000000000000000000002000000004000000000000000000000000000000000000000000000000000000000000000000000000000000000400000000000000000000000000000000000000000000000000000000002000000000000000000000000000000000000000000000000000000000000000000000000000000000000000000000000000000000000000000000400000000000000000000000000100000000",
      "type": "0x2",
      "transactionHash": "0x88b9551c2748335645ef32c56c7a46e6a132360c186d04a948f1250d9e2c85ef",
      "transactionIndex": "0x26",
      "blockHash": "0x64751dc338861ffadff28cdf4a44d347b0f23bfe91df7055e2554f4658fe5350",
      "blockNumber": "0x188aec9",
      "gasUsed": "0x28d0d",
      "effectiveGasPrice": "0x2d437c4b6f59b",
      "from": "0xac56dc5a4a9de0197f7b8f584ea04ec7e0123dde",
      "to": "0xdc45e5469a8b6d020473f69fec91c0f0e83a3308",
      "contractAddress": null
    }
  ],
  "libraries": [],
  "pending": [],
  "returns": {},
  "timestamp": 1770531846738,
  "chain": 369,
  "commit": null
}