{
  "transactions": [
    {
      "hash": "0x8a7e5aee191e65602562bf939eb1fed5fc1f9960bf12907389d65cd40d9cd9ec",
      "transactionType": "CALL",
      "contractName": null,
      "contractAddress": "0xdc45e5469a8b6d020473f69fec91c0f0e83a3308",
      "function": "trainSkill(uint8)",
      "arguments": [
        "0"
      ],
      "transaction": {
        "from": "0xec646a6c9000e04d050435340d9c42c039eb5648",
        "to": "0xdc45e5469a8b6d020473f69fec91c0f0e83a3308",
        "gas": "0x38605",
        "value": "0x0",
        "input": "0xa0a73d0d0000000000000000000000000000000000000000000000000000000000000000",
        "nonce": "0x3c",
        "chainId": "0x171"
      },
      "additionalContracts": [],
      "isFixedGasLimit": false
    }
  ],
  "receipts": [
    {
      "status": "0x1",
      "cumulativeGasUsed": "0x9d33a3",
      "logs": [
        {
          "address": "0xdc45e5469a8b6d020473f69fec91c0f0e83a3308",
          "topics": [
            "0xa2ecdf3a87e9ffdb151ad823ae834f6165f94e54e5a30467175e075254eb6376"
          ],
          "data": "0x000000000000000000000000ec646a6c9000e04d050435340d9c42c039eb564800000000000000000000000000000000000000000000000000000000000000000000000000000000000000000000000000000000000000000000000000000000000000000000000000000000000000000000000000000000000000000000000000000000000000000000000000000000000000000000000000000000000000000000000000000000000000000000000000000000000000000000000069880ae50000000000000000000000000000000000000000000000000000000069880059",
          "blockHash": "0xb289694b85edc868b04c3f50d38ad276d08a532d43a819cf5001ef9bb637ff74",
          "blockNumber": "0x188aa81",
          "transactionHash": "0x8a7e5aee191e65602562bf939eb1fed5fc1f9960bf12907389d65cd40d9cd9ec",
          "transactionIndex": "0x2a",
          "logIndex": "0x1c2",
          "removed": false
        },
        {
          "address": "0xdc45e5469a8b6d020473f69fec91c0f0e83a3308",
          "topics": [
            "0xe044087a71e55f84948ec1c9a326d935d50b09a1b97fa24ac3721c9437525359"
          ],
          "data": "0x000000000000000000000000ec646a6c9000e04d050435340d9c42c039eb564800000000000000000000000000000000000000000000000000000000000014a70000000000000000000000000000000000000000000000000000000000000190",
          "blockHash": "0xb289694b85edc868b04c3f50d38ad276d08a532d43a819cf5001ef9bb637ff74",
          "blockNumber": "0x188aa81",
          "transactionHash": "0x8a7e5aee191e65602562bf939eb1fed5fc1f9960bf12907389d65cd40d9cd9ec",
          "transactionIndex": "0x2a",
          "logIndex": "0x1c3",
          "removed": false
        }
      ],
      "logsBloom": "0x00000000000000000000000000000000000000000001000000000000000000000000000000100000000000000000000000000000000000000000000000000000000000000000000000000000000000000000000000002000000000000000000000000000000000002000000004000000000000000000000000000000000000000000000000000000000000000000000000000000000400000000000000000000000000000000000000000000000000000000002000000000000000000000000000000000000000000000000000000000000000000000000000000000000000000000000000000000000000000000400000000000000000000000000100000000",
      "type": "0x2",
      "transactionHash": "0x8a7e5aee191e65602562bf939eb1fed5fc1f9960bf12907389d65cd40d9cd9ec",
      "transactionIndex": "0x2a",
      "blockHash": "0xb289694b85edc868b04c3f50d38ad276d08a532d43a819cf5001ef9bb637ff74",
      "blockNumber": "0x188aa81",
      "gasUsed": "0x28d0d",
      "effectiveGasPrice": "0x3092bd2307aaa",
      "from": "0xec646a6c9000e04d050435340d9c42c039eb5648",
      "to": "0xdc45e5469a8b6d020473f69fec91c0f0e83a3308",
      "contractAddress": null
    }
  ],
  "libraries": [],
  "pending": [],
  "returns": {},
  "timestamp": 1770520666546,
  "chain": 369,
  "commit": null
}