{
  "transactions": [
    {
      "hash": "0x0dc1ab05248e1f4c704e274e3ed7ec26ec63f24737d87084e2e9cbfbbecd2798",
      "transactionType": "CALL",
      "contractName": null,
      "contractAddress": "0xdc45e5469a8b6d020473f69fec91c0f0e83a3308",
      "function": "trainSkill(uint8)",
      "arguments": [
        "0"
      ],
      "transaction": {
        "from": "0xec646a6c9000e04d050435340d9c42c039eb5648",
        "to": "0xdc45e5469a8b6d020473f69fec91c0f0e83a3308",
        "gas": "0x38605",
        "value": "0x0",
        "input": "0xa0a73d0d0000000000000000000000000000000000000000000000000000000000000000",
        "nonce": "0x47",
        "chainId": "0x171"
      },
      "additionalContracts": [],
      "isFixedGasLimit": false
    }
  ],
  "receipts": [
    {
      "status": "0x1",
      "cumulativeGasUsed": "0xa672b8",
      "logs": [
        {
          "address": "0xdc45e5469a8b6d020473f69fec91c0f0e83a3308",
          "topics": [
            "0xa2ecdf3a87e9ffdb151ad823ae834f6165f94e54e5a30467175e075254eb6376"
          ],
          "data": "0x000000000000000000000000ec646a6c9000e04d050435340d9c42c039eb5648000000000000000000000000000000000000000000000000000000000000000000000000000000000000000000000000000000000000000000000000000000000000000000000000000000000000000000000000000000000000000000000000000000000000000000000000000000000000000000000000000000000000000000000000000000000000000000000000000000000000000000000000698836730000000000000000000000000000000000000000000000000000000069882be7",
          "blockHash": "0x25086dfb20a87a01308c02da8e24bc2d20b492f1f6dc8cb4e1ba57b693900132",
          "blockNumber": "0x188aec6",
          "transactionHash": "0x0dc1ab05248e1f4c704e274e3ed7ec26ec63f24737d87084e2e9cbfbbecd2798",
          "transactionIndex": "0x1e",
          "logIndex": "0xcc",
          "removed": false
        },
        {
          "address": "0xdc45e5469a8b6d020473f69fec91c0f0e83a3308",
          "topics": [
            "0xe044087a71e55f84948ec1c9a326d935d50b09a1b97fa24ac3721c9437525359"
          ],
          "data": "0x000000000000000000000000ec646a6c9000e04d050435340d9c42c039eb564800000000000000000000000000000000000000000000000000000000000007710000000000000000000000000000000000000000000000000000000000000190",
          "blockHash": "0x25086dfb20a87a01308c02da8e24bc2d20b492f1f6dc8cb4e1ba57b693900132",
          "blockNumber": "0x188aec6",
          "transactionHash": "0x0dc1ab05248e1f4c704e274e3ed7ec26ec63f24737d87084e2e9cbfbbecd2798",
          "transactionIndex": "0x1e",
          "logIndex": "0xcd",
          "removed": false
        }
      ],
      "logsBloom": "0x00000000000000000000000000000000000000000001000000000000000000000000000000100000000000000000000000000000000000000000000000000000000000000000000000000000000000000000000000002000000000000000000000000000000000002000000004000000000000000000000000000000000000000000000000000000000000000000000000000000000400000000000000000000000000000000000000000000000000000000002000000000000000000000000000000000000000000000000000000000000000000000000000000000000000000000000000000000000000000000400000000000000000000000000100000000",
      "type": "0x2",
      "transactionHash": "0x0dc1ab05248e1f4c704e274e3ed7ec26ec63f24737d87084e2e9cbfbbecd2798",
      "transactionIndex": "0x1e",
      "blockHash": "0x25086dfb20a87a01308c02da8e24bc2d20b492f1f6dc8cb4e1ba57b693900132",
      "blockNumber": "0x188aec6",
      "gasUsed": "0x28d0d",
      "effectiveGasPrice": "0x32c5b07b36cec",
      "from": "0xec646a6c9000e04d050435340d9c42c039eb5648",
      "to": "0xdc45e5469a8b6d020473f69fec91c0f0e83a3308",
      "contractAddress": null
    }
  ],
  "libraries": [],
  "pending": [],
  "returns": {},
  "timestamp": 1770531816695,
  "chain": 369,
  "commit": null
}