{
  "transactions": [
    {
      "hash": "0x845effa393437b273ca4110a53d406263bf953288c4bfceb6acdce1491d203ab",
      "transactionType": "CALL",
      "contractName": null,
      "contractAddress": "0xdc45e5469a8b6d020473f69fec91c0f0e83a3308",
      "function": "trainSkill(uint8)",
      "arguments": [
        "0"
      ],
      "transaction": {
        "from": "0xeca7a53ba6a190c5d205bfdc7707cbc3399336c1",
        "to": "0xdc45e5469a8b6d020473f69fec91c0f0e83a3308",
        "gas": "0x3bbb4",
        "value": "0x0",
        "input": "0xa0a73d0d0000000000000000000000000000000000000000000000000000000000000000",
        "nonce": "0x397",
        "chainId": "0x171"
      },
      "additionalContracts": [],
      "isFixedGasLimit": false
    }
  ],
  "receipts": [
    {
      "status": "0x1",
      "cumulativeGasUsed": "0x10abee8",
      "logs": [
        {
          "address": "0xdc45e5469a8b6d020473f69fec91c0f0e83a3308",
          "topics": [
            "0xa2ecdf3a87e9ffdb151ad823ae834f6165f94e54e5a30467175e075254eb6376"
          ],
          "data": "0x000000000000000000000000eca7a53ba6a190c5d205bfdc7707cbc3399336c10000000000000000000000000000000000000000000000000000000000000000000000000000000000000000000000000000000000000000000000000000000000000000000000000000000000000000000000000000000000000000000000000000000000000000000000000000000000000000000000000000000000000000000000000000000000000000000000000000000000000000000000006979d6af000000000000000000000000000000000000000000000000000000006979cc23",
          "blockHash": "0xb258c1cd68e8e600616dbb7bdc7285fdfbfe57ef382c1899977942db09b4ae64",
          "blockNumber": "0x18747f4",
          "transactionHash": "0x845effa393437b273ca4110a53d406263bf953288c4bfceb6acdce1491d203ab",
          "transactionIndex": "0x3b",
          "logIndex": "0x195",
          "removed": false
        },
        {
          "address": "0xdc45e5469a8b6d020473f69fec91c0f0e83a3308",
          "topics": [
            "0xe044087a71e55f84948ec1c9a326d935d50b09a1b97fa24ac3721c9437525359"
          ],
          "data": "0x000000000000000000000000eca7a53ba6a190c5d205bfdc7707cbc3399336c10000000000000000000000000000000000000000000000000000000000000b980000000000000000000000000000000000000000000000000000000000000190",
          "blockHash": "0xb258c1cd68e8e600616dbb7bdc7285fdfbfe57ef382c1899977942db09b4ae64",
          "blockNumber": "0x18747f4",
          "transactionHash": "0x845effa393437b273ca4110a53d406263bf953288c4bfceb6acdce1491d203ab",
          "transactionIndex": "0x3b",
          "logIndex": "0x196",
          "removed": false
        }
      ],
      "logsBloom": "0x00000000000000000000000000000000000000000001000000000000000000000000000000100000000000000000000000000000000000000000000000000000000000000000000000000000000000000000000000002000000000000000000000000000000000002000000004000000000000000000000000000000000000000000000000000000000000000000000000000000000400000000000000000000000000000000000000000000000000000000002000000000000000000000000000000000000000000000000000000000000000000000000000000000000000000000000000000000000000000000400000000000000000000000000100000000",
      "type": "0x2",
      "transactionHash": "0x845effa393437b273ca4110a53d406263bf953288c4bfceb6acdce1491d203ab",
      "transactionIndex": "0x3b",
      "blockHash": "0xb258c1cd68e8e600616dbb7bdc7285fdfbfe57ef382c1899977942db09b4ae64",
      "blockNumber": "0x18747f4",
      "gasUsed": "0x28d79",
      "effectiveGasPrice": "0x1b73acb9b59e3",
      "from": "0xeca7a53ba6a190c5d205bfdc7707cbc3399336c1",
      "to": "0xdc45e5469a8b6d020473f69fec91c0f0e83a3308",
      "contractAddress": null
    }
  ],
  "libraries": [],
  "pending": [],
  "returns": {},
  "timestamp": 1769589796189,
  "chain": 369,
  "commit": null
}