{
  "transactions": [
    {
      "hash": "0x1c30fcd49088e2bfe391028d87283719a1817535ad47e30f1fba14250bb5f0dd",
      "transactionType": "CALL",
      "contractName": null,
      "contractAddress": "0xdc45e5469a8b6d020473f69fec91c0f0e83a3308",
      "function": "trainSkill(uint8)",
      "arguments": [
        "0"
      ],
      "transaction": {
        "from": "0x4c62f6121e6f967a0872da8364995e9b68c1e82f",
        "to": "0xdc45e5469a8b6d020473f69fec91c0f0e83a3308",
        "gas": "0x3ae68",
        "value": "0x0",
        "input": "0xa0a73d0d0000000000000000000000000000000000000000000000000000000000000000",
        "nonce": "0x714",
        "chainId": "0x171"
      },
      "additionalContracts": [],
      "isFixedGasLimit": false
    }
  ],
  "receipts": [
    {
      "status": "0x1",
      "cumulativeGasUsed": "0x1bad365",
      "logs": [
        {
          "address": "0xdc45e5469a8b6d020473f69fec91c0f0e83a3308",
          "topics": [
            "0xa2ecdf3a87e9ffdb151ad823ae834f6165f94e54e5a30467175e075254eb6376"
          ],
          "data": "0x0000000000000000000000004c62f6121e6f967a0872da8364995e9b68c1e82f00000000000000000000000000000000000000000000000000000000000000000000000000000000000000000000000000000000000000000000000000000000000000000000000000000000000000000000000000000000000000000000000000000000000000000000000000000000000000000000000000000000000000000000000000000000000000000000000000000000000000000000000069798b19000000000000000000000000000000000000000000000000000000006979808d",
          "blockHash": "0xc40a3fde8004d0e2358197800d23f29832e36cde0decdbd8e36864fcbc635d31",
          "blockNumber": "0x1874096",
          "transactionHash": "0x1c30fcd49088e2bfe391028d87283719a1817535ad47e30f1fba14250bb5f0dd",
          "transactionIndex": "0x42",
          "logIndex": "0x3dc",
          "removed": false
        },
        {
          "address": "0xdc45e5469a8b6d020473f69fec91c0f0e83a3308",
          "topics": [
            "0xe044087a71e55f84948ec1c9a326d935d50b09a1b97fa24ac3721c9437525359"
          ],
          "data": "0x0000000000000000000000004c62f6121e6f967a0872da8364995e9b68c1e82f00000000000000000000000000000000000000000000000000000000000012130000000000000000000000000000000000000000000000000000000000000190",
          "blockHash": "0xc40a3fde8004d0e2358197800d23f29832e36cde0decdbd8e36864fcbc635d31",
          "blockNumber": "0x1874096",
          "transactionHash": "0x1c30fcd49088e2bfe391028d87283719a1817535ad47e30f1fba14250bb5f0dd",
          "transactionIndex": "0x42",
          "logIndex": "0x3dd",
          "removed": false
        }
      ],
      "logsBloom": "0x00000000000000000000000000000000000000000001000000000000000000000000000000100000000000000000000000000000000000000000000000000000000000000000000000000000000000000000000000002000000000000000000000000000000000002000000004000000000000000000000000000000000000000000000000000000000000000000000000000000000400000000000000000000000000000000000000000000000000000000002000000000000000000000000000000000000000000000000000000000000000000000000000000000000000000000000000000000000000000000400000000000000000000000000100000000",
      "type": "0x2",
      "transactionHash": "0x1c30fcd49088e2bfe391028d87283719a1817535ad47e30f1fba14250bb5f0dd",
      "transactionIndex": "0x42",
      "blockHash": "0xc40a3fde8004d0e2358197800d23f29832e36cde0decdbd8e36864fcbc635d31",
      "blockNumber": "0x1874096",
      "gasUsed": "0x28462",
      "effectiveGasPrice": "0x31f4f8d4771bd",
      "from": "0x4c62f6121e6f967a0872da8364995e9b68c1e82f",
      "to": "0xdc45e5469a8b6d020473f69fec91c0f0e83a3308",
      "contractAddress": null
    }
  ],
  "libraries": [],
  "pending": [],
  "returns": {},
  "timestamp": 1769570445816,
  "chain": 369,
  "commit": null
}