{
  "transactions": [
    {
      "hash": "0x04bb6f8d32a51589dbb67e8b9cb50da27d82589e2cb71b7f1c65b2ad7801d989",
      "transactionType": "CALL",
      "contractName": null,
      "contractAddress": "0xdc45e5469a8b6d020473f69fec91c0f0e83a3308",
      "function": "trainSkill(uint8)",
      "arguments": [
        "0"
      ],
      "transaction": {
        "from": "0x4c62f6121e6f967a0872da8364995e9b68c1e82f",
        "to": "0xdc45e5469a8b6d020473f69fec91c0f0e83a3308",
        "gas": "0x38605",
        "value": "0x0",
        "input": "0xa0a73d0d0000000000000000000000000000000000000000000000000000000000000000",
        "nonce": "0x974",
        "chainId": "0x171"
      },
      "additionalContracts": [],
      "isFixedGasLimit": false
    }
  ],
  "receipts": [
    {
      "status": "0x1",
      "cumulativeGasUsed": "0x19b3d22",
      "logs": [
        {
          "address": "0xdc45e5469a8b6d020473f69fec91c0f0e83a3308",
          "topics": [
            "0xa2ecdf3a87e9ffdb151ad823ae834f6165f94e54e5a30467175e075254eb6376"
          ],
          "data": "0x0000000000000000000000004c62f6121e6f967a0872da8364995e9b68c1e82f0000000000000000000000000000000000000000000000000000000000000000000000000000000000000000000000000000000000000000000000000000000000000000000000000000000000000000000000000000000000000000000000000000000000000000000000000000000000000000000000000000000000000000000000000000000000000000000000000000000000000000000000006987ea83000000000000000000000000000000000000000000000000000000006987dff7",
          "blockHash": "0x583b664cb14c25408f0cf12db6ea791f580cfb74ec729d9785c63bb31268df6e",
          "blockNumber": "0x188a752",
          "transactionHash": "0x04bb6f8d32a51589dbb67e8b9cb50da27d82589e2cb71b7f1c65b2ad7801d989",
          "transactionIndex": "0x88",
          "logIndex": "0x29b",
          "removed": false
        },
        {
          "address": "0xdc45e5469a8b6d020473f69fec91c0f0e83a3308",
          "topics": [
            "0xe044087a71e55f84948ec1c9a326d935d50b09a1b97fa24ac3721c9437525359"
          ],
          "data": "0x0000000000000000000000004c62f6121e6f967a0872da8364995e9b68c1e82f00000000000000000000000000000000000000000000000000000000000015650000000000000000000000000000000000000000000000000000000000000190",
          "blockHash": "0x583b664cb14c25408f0cf12db6ea791f580cfb74ec729d9785c63bb31268df6e",
          "blockNumber": "0x188a752",
          "transactionHash": "0x04bb6f8d32a51589dbb67e8b9cb50da27d82589e2cb71b7f1c65b2ad7801d989",
          "transactionIndex": "0x88",
          "logIndex": "0x29c",
          "removed": false
        }
      ],
      "logsBloom": "0x00000000000000000000000000000000000000000001000000000000000000000000000000100000000000000000000000000000000000000000000000000000000000000000000000000000000000000000000000002000000000000000000000000000000000002000000004000000000000000000000000000000000000000000000000000000000000000000000000000000000400000000000000000000000000000000000000000000000000000000002000000000000000000000000000000000000000000000000000000000000000000000000000000000000000000000000000000000000000000000400000000000000000000000000100000000",
      "type": "0x2",
      "transactionHash": "0x04bb6f8d32a51589dbb67e8b9cb50da27d82589e2cb71b7f1c65b2ad7801d989",
      "transactionIndex": "0x88",
      "blockHash": "0x583b664cb14c25408f0cf12db6ea791f580cfb74ec729d9785c63bb31268df6e",
      "blockNumber": "0x188a752",
      "gasUsed": "0x28d0d",
      "effectiveGasPrice": "0x31a91e4b15725",
      "from": "0x4c62f6121e6f967a0872da8364995e9b68c1e82f",
      "to": "0xdc45e5469a8b6d020473f69fec91c0f0e83a3308",
      "contractAddress": null
    }
  ],
  "libraries": [],
  "pending": [],
  "returns": {},
  "timestamp": 1770512377426,
  "chain": 369,
  "commit": null
}