{
  "transactions": [
    {
      "hash": "0xee88fa221520e2b9f1c2869b3f51a23ca66347ab7fb97bac51e44b52a5b2fa26",
      "transactionType": "CALL",
      "contractName": null,
      "contractAddress": "0xdc45e5469a8b6d020473f69fec91c0f0e83a3308",
      "function": "trainSkill(uint8)",
      "arguments": [
        "0"
      ],
      "transaction": {
        "from": "0x4c62f6121e6f967a0872da8364995e9b68c1e82f",
        "to": "0xdc45e5469a8b6d020473f69fec91c0f0e83a3308",
        "gas": "0x379ba",
        "value": "0x0",
        "input": "0xa0a73d0d0000000000000000000000000000000000000000000000000000000000000000",
        "nonce": "0x73c",
        "chainId": "0x171"
      },
      "additionalContracts": [],
      "isFixedGasLimit": false
    }
  ],
  "receipts": [
    {
      "status": "0x1",
      "cumulativeGasUsed": "0x3b7252",
      "logs": [
        {
          "address": "0xdc45e5469a8b6d020473f69fec91c0f0e83a3308",
          "topics": [
            "0xa2ecdf3a87e9ffdb151ad823ae834f6165f94e54e5a30467175e075254eb6376"
          ],
          "data": "0x0000000000000000000000004c62f6121e6f967a0872da8364995e9b68c1e82f000000000000000000000000000000000000000000000000000000000000000000000000000000000000000000000000000000000000000000000000000000000000000000000000000000000000000000000000000000000000000000000000000000000000000000000000000000000000000000000000000000000000000000000000000000000000000000000000000000000000000000000000697a417100000000000000000000000000000000000000000000000000000000697a36e5",
          "blockHash": "0x8404d2bd60ef7cd371389c281c82d56ba47813d9bea55c045ef680fd838408cc",
          "blockNumber": "0x187526b",
          "transactionHash": "0xee88fa221520e2b9f1c2869b3f51a23ca66347ab7fb97bac51e44b52a5b2fa26",
          "transactionIndex": "0x16",
          "logIndex": "0x89",
          "removed": false
        },
        {
          "address": "0xdc45e5469a8b6d020473f69fec91c0f0e83a3308",
          "topics": [
            "0xe044087a71e55f84948ec1c9a326d935d50b09a1b97fa24ac3721c9437525359"
          ],
          "data": "0x0000000000000000000000004c62f6121e6f967a0872da8364995e9b68c1e82f00000000000000000000000000000000000000000000000000000000000003520000000000000000000000000000000000000000000000000000000000000190",
          "blockHash": "0x8404d2bd60ef7cd371389c281c82d56ba47813d9bea55c045ef680fd838408cc",
          "blockNumber": "0x187526b",
          "transactionHash": "0xee88fa221520e2b9f1c2869b3f51a23ca66347ab7fb97bac51e44b52a5b2fa26",
          "transactionIndex": "0x16",
          "logIndex": "0x8a",
          "removed": false
        }
      ],
      "logsBloom": "0x00000000000000000000000000000000000000000001000000000000000000000000000000100000000000000000000000000000000000000000000000000000000000000000000000000000000000000000000000002000000000000000000000000000000000002000000004000000000000000000000000000000000000000000000000000000000000000000000000000000000400000000000000000000000000000000000000000000000000000000002000000000000000000000000000000000000000000000000000000000000000000000000000000000000000000000000000000000000000000000400000000000000000000000000100000000",
      "type": "0x2",
      "transactionHash": "0xee88fa221520e2b9f1c2869b3f51a23ca66347ab7fb97bac51e44b52a5b2fa26",
      "transactionIndex": "0x16",
      "blockHash": "0x8404d2bd60ef7cd371389c281c82d56ba47813d9bea55c045ef680fd838408cc",
      "blockNumber": "0x187526b",
      "gasUsed": "0x28426",
      "effectiveGasPrice": "0x3d7b296131154",
      "from": "0x4c62f6121e6f967a0872da8364995e9b68c1e82f",
      "to": "0xdc45e5469a8b6d020473f69fec91c0f0e83a3308",
      "contractAddress": null
    }
  ],
  "libraries": [],
  "pending": [],
  "returns": {},
  "timestamp": 1769617125800,
  "chain": 369,
  "commit": null
}