{
  "transactions": [
    {
      "hash": "0x523a73f4fc04bb77ec072129dd705b228bee265b5cd1db8ea56965c6ab119ff5",
      "transactionType": "CALL",
      "contractName": null,
      "contractAddress": "0xdc45e5469a8b6d020473f69fec91c0f0e83a3308",
      "function": "trainSkill(uint8)",
      "arguments": [
        "0"
      ],
      "transaction": {
        "from": "0xeca7a53ba6a190c5d205bfdc7707cbc3399336c1",
        "to": "0xdc45e5469a8b6d020473f69fec91c0f0e83a3308",
        "gas": "0x392e7",
        "value": "0x0",
        "input": "0xa0a73d0d0000000000000000000000000000000000000000000000000000000000000000",
        "nonce": "0x3fb",
        "chainId": "0x171"
      },
      "additionalContracts": [],
      "isFixedGasLimit": false
    }
  ],
  "receipts": [
    {
      "status": "0x1",
      "cumulativeGasUsed": "0xbf8cd9",
      "logs": [
        {
          "address": "0xdc45e5469a8b6d020473f69fec91c0f0e83a3308",
          "topics": [
            "0xa2ecdf3a87e9ffdb151ad823ae834f6165f94e54e5a30467175e075254eb6376"
          ],
          "data": "0x000000000000000000000000eca7a53ba6a190c5d205bfdc7707cbc3399336c1000000000000000000000000000000000000000000000000000000000000000000000000000000000000000000000000000000000000000000000000000000000000000000000000000000000000000000000000000000000000000000000000000000000000000000000000000000000000000000000000000000000000000000000000000000000000000000000000000000000000000000000000697b200f00000000000000000000000000000000000000000000000000000000697b1583",
          "blockHash": "0x723b37aca263be97daf197aad4b33633a764a80d9c40de20d00e1bcdf1d4c5a0",
          "blockNumber": "0x1876824",
          "transactionHash": "0x523a73f4fc04bb77ec072129dd705b228bee265b5cd1db8ea56965c6ab119ff5",
          "transactionIndex": "0x1a",
          "logIndex": "0x26b",
          "removed": false
        },
        {
          "address": "0xdc45e5469a8b6d020473f69fec91c0f0e83a3308",
          "topics": [
            "0xe044087a71e55f84948ec1c9a326d935d50b09a1b97fa24ac3721c9437525359"
          ],
          "data": "0x000000000000000000000000eca7a53ba6a190c5d205bfdc7707cbc3399336c100000000000000000000000000000000000000000000000000000000000005b30000000000000000000000000000000000000000000000000000000000000190",
          "blockHash": "0x723b37aca263be97daf197aad4b33633a764a80d9c40de20d00e1bcdf1d4c5a0",
          "blockNumber": "0x1876824",
          "transactionHash": "0x523a73f4fc04bb77ec072129dd705b228bee265b5cd1db8ea56965c6ab119ff5",
          "transactionIndex": "0x1a",
          "logIndex": "0x26c",
          "removed": false
        }
      ],
      "logsBloom": "0x00000000000000000000000000000000000000000001000000000000000000000000000000100000000000000000000000000000000000000000000000000000000000000000000000000000000000000000000000002000000000000000000000000000000000002000000004000000000000000000000000000000000000000000000000000000000000000000000000000000000400000000000000000000000000000000000000000000000000000000002000000000000000000000000000000000000000000000000000000000000000000000000000000000000000000000000000000000000000000000400000000000000000000000000100000000",
      "type": "0x2",
      "transactionHash": "0x523a73f4fc04bb77ec072129dd705b228bee265b5cd1db8ea56965c6ab119ff5",
      "transactionIndex": "0x1a",
      "blockHash": "0x723b37aca263be97daf197aad4b33633a764a80d9c40de20d00e1bcdf1d4c5a0",
      "blockNumber": "0x1876824",
      "gasUsed": "0x29660",
      "effectiveGasPrice": "0x1d26965cdf828",
      "from": "0xeca7a53ba6a190c5d205bfdc7707cbc3399336c1",
      "to": "0xdc45e5469a8b6d020473f69fec91c0f0e83a3308",
      "contractAddress": null
    }
  ],
  "libraries": [],
  "pending": [],
  "returns": {},
  "timestamp": 1769674117679,
  "chain": 369,
  "commit": null
}