{
  "transactions": [
    {
      "hash": "0x23fc187c2b6ce2c329f582d257098438d2cb5698885b6acbad4e3ddfb895c96a",
      "transactionType": "CALL",
      "contractName": null,
      "contractAddress": "0xdc45e5469a8b6d020473f69fec91c0f0e83a3308",
      "function": "trainSkill(uint8)",
      "arguments": [
        "0"
      ],
      "transaction": {
        "from": "0x4c62f6121e6f967a0872da8364995e9b68c1e82f",
        "to": "0xdc45e5469a8b6d020473f69fec91c0f0e83a3308",
        "gas": "0x3ae68",
        "value": "0x0",
        "input": "0xa0a73d0d0000000000000000000000000000000000000000000000000000000000000000",
        "nonce": "0x703",
        "chainId": "0x171"
      },
      "additionalContracts": [],
      "isFixedGasLimit": false
    }
  ],
  "receipts": [
    {
      "status": "0x1",
      "cumulativeGasUsed": "0x1a6e6b",
      "logs": [
        {
          "address": "0xdc45e5469a8b6d020473f69fec91c0f0e83a3308",
          "topics": [
            "0xa2ecdf3a87e9ffdb151ad823ae834f6165f94e54e5a30467175e075254eb6376"
          ],
          "data": "0x0000000000000000000000004c62f6121e6f967a0872da8364995e9b68c1e82f0000000000000000000000000000000000000000000000000000000000000000000000000000000000000000000000000000000000000000000000000000000000000000000000000000000000000000000000000000000000000000000000000000000000000000000000000000000000000000000000000000000000000000000000000000000000000000000000000000000000000000000000006979514900000000000000000000000000000000000000000000000000000000697946bd",
          "blockHash": "0x29f166dc5908e908bacf73245e694c616580359b4a81a477c3d32c09b3afd12d",
          "blockNumber": "0x1873aeb",
          "transactionHash": "0x23fc187c2b6ce2c329f582d257098438d2cb5698885b6acbad4e3ddfb895c96a",
          "transactionIndex": "0x5",
          "logIndex": "0x17",
          "removed": false
        },
        {
          "address": "0xdc45e5469a8b6d020473f69fec91c0f0e83a3308",
          "topics": [
            "0xe044087a71e55f84948ec1c9a326d935d50b09a1b97fa24ac3721c9437525359"
          ],
          "data": "0x0000000000000000000000004c62f6121e6f967a0872da8364995e9b68c1e82f00000000000000000000000000000000000000000000000000000000000004900000000000000000000000000000000000000000000000000000000000000190",
          "blockHash": "0x29f166dc5908e908bacf73245e694c616580359b4a81a477c3d32c09b3afd12d",
          "blockNumber": "0x1873aeb",
          "transactionHash": "0x23fc187c2b6ce2c329f582d257098438d2cb5698885b6acbad4e3ddfb895c96a",
          "transactionIndex": "0x5",
          "logIndex": "0x18",
          "removed": false
        }
      ],
      "logsBloom": "0x00000000000000000000000000000000000000000001000000000000000000000000000000100000000000000000000000000000000000000000000000000000000000000000000000000000000000000000000000002000000000000000000000000000000000002000000004000000000000000000000000000000000000000000000000000000000000000000000000000000000400000000000000000000000000000000000000000000000000000000002000000000000000000000000000000000000000000000000000000000000000000000000000000000000000000000000000000000000000000000400000000000000000000000000100000000",
      "type": "0x2",
      "transactionHash": "0x23fc187c2b6ce2c329f582d257098438d2cb5698885b6acbad4e3ddfb895c96a",
      "transactionIndex": "0x5",
      "blockHash": "0x29f166dc5908e908bacf73245e694c616580359b4a81a477c3d32c09b3afd12d",
      "blockNumber": "0x1873aeb",
      "gasUsed": "0x28462",
      "effectiveGasPrice": "0x34af0e92bc3ab",
      "from": "0x4c62f6121e6f967a0872da8364995e9b68c1e82f",
      "to": "0xdc45e5469a8b6d020473f69fec91c0f0e83a3308",
      "contractAddress": null
    }
  ],
  "libraries": [],
  "pending": [],
  "returns": {},
  "timestamp": 1769555646092,
  "chain": 369,
  "commit": null
}