{
  "transactions": [
    {
      "hash": "0x972b3fd58882c6495e8f2b17fd45e30ed942639fae0ef94a2b9219425172027c",
      "transactionType": "CALL",
      "contractName": null,
      "contractAddress": "0xdc45e5469a8b6d020473f69fec91c0f0e83a3308",
      "function": "trainSkill(uint8)",
      "arguments": [
        "0"
      ],
      "transaction": {
        "from": "0xac56dc5a4a9de0197f7b8f584ea04ec7e0123dde",
        "to": "0xdc45e5469a8b6d020473f69fec91c0f0e83a3308",
        "gas": "0x38605",
        "value": "0x0",
        "input": "0xa0a73d0d0000000000000000000000000000000000000000000000000000000000000000",
        "nonce": "0x4f3",
        "chainId": "0x171"
      },
      "additionalContracts": [],
      "isFixedGasLimit": false
    }
  ],
  "receipts": [
    {
      "status": "0x1",
      "cumulativeGasUsed": "0x37bfb1",
      "logs": [
        {
          "address": "0xdc45e5469a8b6d020473f69fec91c0f0e83a3308",
          "topics": [
            "0xa2ecdf3a87e9ffdb151ad823ae834f6165f94e54e5a30467175e075254eb6376"
          ],
          "data": "0x000000000000000000000000ac56dc5a4a9de0197f7b8f584ea04ec7e0123dde00000000000000000000000000000000000000000000000000000000000000000000000000000000000000000000000000000000000000000000000000000000000000000000000000000000000000000000000000000000000000000000000000000000000000000000000000000000000000000000000000000000000000000000000000000000000000000000000000000000000000000000000069880031000000000000000000000000000000000000000000000000000000006987f5a5",
          "blockHash": "0x21f6a72d3a6f823a5fb0b2b7a28b8991de09e0a9bedc38ce04bef9e939ebf424",
          "blockNumber": "0x188a975",
          "transactionHash": "0x972b3fd58882c6495e8f2b17fd45e30ed942639fae0ef94a2b9219425172027c",
          "transactionIndex": "0x23",
          "logIndex": "0x43",
          "removed": false
        },
        {
          "address": "0xdc45e5469a8b6d020473f69fec91c0f0e83a3308",
          "topics": [
            "0xe044087a71e55f84948ec1c9a326d935d50b09a1b97fa24ac3721c9437525359"
          ],
          "data": "0x000000000000000000000000ac56dc5a4a9de0197f7b8f584ea04ec7e0123dde00000000000000000000000000000000000000000000000000000000000023120000000000000000000000000000000000000000000000000000000000000190",
          "blockHash": "0x21f6a72d3a6f823a5fb0b2b7a28b8991de09e0a9bedc38ce04bef9e939ebf424",
          "blockNumber": "0x188a975",
          "transactionHash": "0x972b3fd58882c6495e8f2b17fd45e30ed942639fae0ef94a2b9219425172027c",
          "transactionIndex": "0x23",
          "logIndex": "0x44",
          "removed": false
        }
      ],
      "logsBloom": "0x00000000000000000000000000000000000000000001000000000000000000000000000000100000000000000000000000000000000000000000000000000000000000000000000000000000000000000000000000002000000000000000000000000000000000002000000004000000000000000000000000000000000000000000000000000000000000000000000000000000000400000000000000000000000000000000000000000000000000000000002000000000000000000000000000000000000000000000000000000000000000000000000000000000000000000000000000000000000000000000400000000000000000000000000100000000",
      "type": "0x2",
      "transactionHash": "0x972b3fd58882c6495e8f2b17fd45e30ed942639fae0ef94a2b9219425172027c",
      "transactionIndex": "0x23",
      "blockHash": "0x21f6a72d3a6f823a5fb0b2b7a28b8991de09e0a9bedc38ce04bef9e939ebf424",
      "blockNumber": "0x188a975",
      "gasUsed": "0x28d0d",
      "effectiveGasPrice": "0x2c9e0d400365a",
      "from": "0xac56dc5a4a9de0197f7b8f584ea04ec7e0123dde",
      "to": "0xdc45e5469a8b6d020473f69fec91c0f0e83a3308",
      "contractAddress": null
    }
  ],
  "libraries": [],
  "pending": [],
  "returns": {},
  "timestamp": 1770517926035,
  "chain": 369,
  "commit": null
}