{
  "transactions": [
    {
      "hash": "0xd00e5765a4e51e384aafc3f6696daf7d5735219dc4e514757a008441fcd22d49",
      "transactionType": "CALL",
      "contractName": null,
      "contractAddress": "0xdc45e5469a8b6d020473f69fec91c0f0e83a3308",
      "function": "trainSkill(uint8)",
      "arguments": [
        "0"
      ],
      "transaction": {
        "from": "0x4c62f6121e6f967a0872da8364995e9b68c1e82f",
        "to": "0xdc45e5469a8b6d020473f69fec91c0f0e83a3308",
        "gas": "0x379ba",
        "value": "0x0",
        "input": "0xa0a73d0d0000000000000000000000000000000000000000000000000000000000000000",
        "nonce": "0x71d",
        "chainId": "0x171"
      },
      "additionalContracts": [],
      "isFixedGasLimit": false
    }
  ],
  "receipts": [
    {
      "status": "0x1",
      "cumulativeGasUsed": "0xf616e2",
      "logs": [
        {
          "address": "0xdc45e5469a8b6d020473f69fec91c0f0e83a3308",
          "topics": [
            "0xa2ecdf3a87e9ffdb151ad823ae834f6165f94e54e5a30467175e075254eb6376"
          ],
          "data": "0x0000000000000000000000004c62f6121e6f967a0872da8364995e9b68c1e82f0000000000000000000000000000000000000000000000000000000000000000000000000000000000000000000000000000000000000000000000000000000000000000000000000000000000000000000000000000000000000000000000000000000000000000000000000000000000000000000000000000000000000000000000000000000000000000000000000000000000000000000000006979ab7b000000000000000000000000000000000000000000000000000000006979a0ef",
          "blockHash": "0x0beb97f77d67cbc2a3c8000d4136a0e538df2f63b6ea54718bf71ada4370fd39",
          "blockNumber": "0x18743bd",
          "transactionHash": "0xd00e5765a4e51e384aafc3f6696daf7d5735219dc4e514757a008441fcd22d49",
          "transactionIndex": "0x13",
          "logIndex": "0x2d3",
          "removed": false
        },
        {
          "address": "0xdc45e5469a8b6d020473f69fec91c0f0e83a3308",
          "topics": [
            "0xe044087a71e55f84948ec1c9a326d935d50b09a1b97fa24ac3721c9437525359"
          ],
          "data": "0x0000000000000000000000004c62f6121e6f967a0872da8364995e9b68c1e82f00000000000000000000000000000000000000000000000000000000000024a80000000000000000000000000000000000000000000000000000000000000190",
          "blockHash": "0x0beb97f77d67cbc2a3c8000d4136a0e538df2f63b6ea54718bf71ada4370fd39",
          "blockNumber": "0x18743bd",
          "transactionHash": "0xd00e5765a4e51e384aafc3f6696daf7d5735219dc4e514757a008441fcd22d49",
          "transactionIndex": "0x13",
          "logIndex": "0x2d4",
          "removed": false
        }
      ],
      "logsBloom": "0x00000000000000000000000000000000000000000001000000000000000000000000000000100000000000000000000000000000000000000000000000000000000000000000000000000000000000000000000000002000000000000000000000000000000000002000000004000000000000000000000000000000000000000000000000000000000000000000000000000000000400000000000000000000000000000000000000000000000000000000002000000000000000000000000000000000000000000000000000000000000000000000000000000000000000000000000000000000000000000000400000000000000000000000000100000000",
      "type": "0x2",
      "transactionHash": "0xd00e5765a4e51e384aafc3f6696daf7d5735219dc4e514757a008441fcd22d49",
      "transactionIndex": "0x13",
      "blockHash": "0x0beb97f77d67cbc2a3c8000d4136a0e538df2f63b6ea54718bf71ada4370fd39",
      "blockNumber": "0x18743bd",
      "gasUsed": "0x28426",
      "effectiveGasPrice": "0x2452fc68a06b5",
      "from": "0x4c62f6121e6f967a0872da8364995e9b68c1e82f",
      "to": "0xdc45e5469a8b6d020473f69fec91c0f0e83a3308",
      "contractAddress": null
    }
  ],
  "libraries": [],
  "pending": [],
  "returns": {},
  "timestamp": 1769578737566,
  "chain": 369,
  "commit": null
}