{
  "transactions": [
    {
      "hash": "0xc89ef4bfb1d226ada6c00403c9f0c17458afa90699425699062150b2ef64ccf9",
      "transactionType": "CALL",
      "contractName": null,
      "contractAddress": "0xdc45e5469a8b6d020473f69fec91c0f0e83a3308",
      "function": "trainSkill(uint8)",
      "arguments": [
        "0"
      ],
      "transaction": {
        "from": "0x4c62f6121e6f967a0872da8364995e9b68c1e82f",
        "to": "0xdc45e5469a8b6d020473f69fec91c0f0e83a3308",
        "gas": "0x379ba",
        "value": "0x0",
        "input": "0xa0a73d0d0000000000000000000000000000000000000000000000000000000000000000",
        "nonce": "0x752",
        "chainId": "0x171"
      },
      "additionalContracts": [],
      "isFixedGasLimit": false
    }
  ],
  "receipts": [
    {
      "status": "0x1",
      "cumulativeGasUsed": "0xba0a28",
      "logs": [
        {
          "address": "0xdc45e5469a8b6d020473f69fec91c0f0e83a3308",
          "topics": [
            "0xa2ecdf3a87e9ffdb151ad823ae834f6165f94e54e5a30467175e075254eb6376"
          ],
          "data": "0x0000000000000000000000004c62f6121e6f967a0872da8364995e9b68c1e82f000000000000000000000000000000000000000000000000000000000000000000000000000000000000000000000000000000000000000000000000000000000000000000000000000000000000000000000000000000000000000000000000000000000000000000000000000000000000000000000000000000000000000000000000000000000000000000000000000000000000000000000000697a960d00000000000000000000000000000000000000000000000000000000697a8b81",
          "blockHash": "0xb80bca7278d1ff61215c15ec1419b35a7a73bbbf907024c7d35c81f22747aefe",
          "blockNumber": "0x1875aaf",
          "transactionHash": "0xc89ef4bfb1d226ada6c00403c9f0c17458afa90699425699062150b2ef64ccf9",
          "transactionIndex": "0xe",
          "logIndex": "0x108",
          "removed": false
        },
        {
          "address": "0xdc45e5469a8b6d020473f69fec91c0f0e83a3308",
          "topics": [
            "0xe044087a71e55f84948ec1c9a326d935d50b09a1b97fa24ac3721c9437525359"
          ],
          "data": "0x0000000000000000000000004c62f6121e6f967a0872da8364995e9b68c1e82f00000000000000000000000000000000000000000000000000000000000014070000000000000000000000000000000000000000000000000000000000000190",
          "blockHash": "0xb80bca7278d1ff61215c15ec1419b35a7a73bbbf907024c7d35c81f22747aefe",
          "blockNumber": "0x1875aaf",
          "transactionHash": "0xc89ef4bfb1d226ada6c00403c9f0c17458afa90699425699062150b2ef64ccf9",
          "transactionIndex": "0xe",
          "logIndex": "0x109",
          "removed": false
        }
      ],
      "logsBloom": "0x00000000000000000000000000000000000000000001000000000000000000000000000000100000000000000000000000000000000000000000000000000000000000000000000000000000000000000000000000002000000000000000000000000000000000002000000004000000000000000000000000000000000000000000000000000000000000000000000000000000000400000000000000000000000000000000000000000000000000000000002000000000000000000000000000000000000000000000000000000000000000000000000000000000000000000000000000000000000000000000400000000000000000000000000100000000",
      "type": "0x2",
      "transactionHash": "0xc89ef4bfb1d226ada6c00403c9f0c17458afa90699425699062150b2ef64ccf9",
      "transactionIndex": "0xe",
      "blockHash": "0xb80bca7278d1ff61215c15ec1419b35a7a73bbbf907024c7d35c81f22747aefe",
      "blockNumber": "0x1875aaf",
      "gasUsed": "0x28426",
      "effectiveGasPrice": "0x25e765318fd34",
      "from": "0x4c62f6121e6f967a0872da8364995e9b68c1e82f",
      "to": "0xdc45e5469a8b6d020473f69fec91c0f0e83a3308",
      "contractAddress": null
    }
  ],
  "libraries": [],
  "pending": [],
  "returns": {},
  "timestamp": 1769638785897,
  "chain": 369,
  "commit": null
}