{
  "transactions": [
    {
      "hash": "0xf69163c7ec48be41d5f79c943f1f0d916354c458436d632ac1391957896999c1",
      "transactionType": "CALL",
      "contractName": null,
      "contractAddress": "0xdc45e5469a8b6d020473f69fec91c0f0e83a3308",
      "function": "trainSkill(uint8)",
      "arguments": [
        "0"
      ],
      "transaction": {
        "from": "0xac56dc5a4a9de0197f7b8f584ea04ec7e0123dde",
        "to": "0xdc45e5469a8b6d020473f69fec91c0f0e83a3308",
        "gas": "0x3ae68",
        "value": "0x0",
        "input": "0xa0a73d0d0000000000000000000000000000000000000000000000000000000000000000",
        "nonce": "0x2b6",
        "chainId": "0x171"
      },
      "additionalContracts": [],
      "isFixedGasLimit": false
    }
  ],
  "receipts": [
    {
      "status": "0x1",
      "cumulativeGasUsed": "0x157df74",
      "logs": [
        {
          "address": "0xdc45e5469a8b6d020473f69fec91c0f0e83a3308",
          "topics": [
            "0xa2ecdf3a87e9ffdb151ad823ae834f6165f94e54e5a30467175e075254eb6376"
          ],
          "data": "0x000000000000000000000000ac56dc5a4a9de0197f7b8f584ea04ec7e0123dde00000000000000000000000000000000000000000000000000000000000000000000000000000000000000000000000000000000000000000000000000000000000000000000000000000000000000000000000000000000000000000000000000000000000000000000000000000000000000000000000000000000000000000000000000000000000000000000000000000000000000000000000069775f010000000000000000000000000000000000000000000000000000000069775475",
          "blockHash": "0xfcd82658b03c5dbe19a449ae22a94fbf263402d496cdf9001ebf55dc37beeba5",
          "blockNumber": "0x1870a36",
          "transactionHash": "0xf69163c7ec48be41d5f79c943f1f0d916354c458436d632ac1391957896999c1",
          "transactionIndex": "0x1f",
          "logIndex": "0x2d0",
          "removed": false
        },
        {
          "address": "0xdc45e5469a8b6d020473f69fec91c0f0e83a3308",
          "topics": [
            "0xe044087a71e55f84948ec1c9a326d935d50b09a1b97fa24ac3721c9437525359"
          ],
          "data": "0x000000000000000000000000ac56dc5a4a9de0197f7b8f584ea04ec7e0123dde00000000000000000000000000000000000000000000000000000000000012d40000000000000000000000000000000000000000000000000000000000000190",
          "blockHash": "0xfcd82658b03c5dbe19a449ae22a94fbf263402d496cdf9001ebf55dc37beeba5",
          "blockNumber": "0x1870a36",
          "transactionHash": "0xf69163c7ec48be41d5f79c943f1f0d916354c458436d632ac1391957896999c1",
          "transactionIndex": "0x1f",
          "logIndex": "0x2d1",
          "removed": false
        }
      ],
      "logsBloom": "0x00000000000000000000000000000000000000000001000000000000000000000000000000100000000000000000000000000000000000000000000000000000000000000000000000000000000000000000000000002000000000000000000000000000000000002000000004000000000000000000000000000000000000000000000000000000000000000000000000000000000400000000000000000000000000000000000000000000000000000000002000000000000000000000000000000000000000000000000000000000000000000000000000000000000000000000000000000000000000000000400000000000000000000000000100000000",
      "type": "0x2",
      "transactionHash": "0xf69163c7ec48be41d5f79c943f1f0d916354c458436d632ac1391957896999c1",
      "transactionIndex": "0x1f",
      "blockHash": "0xfcd82658b03c5dbe19a449ae22a94fbf263402d496cdf9001ebf55dc37beeba5",
      "blockNumber": "0x1870a36",
      "gasUsed": "0x28462",
      "effectiveGasPrice": "0x1a9b7a2a8d981",
      "from": "0xac56dc5a4a9de0197f7b8f584ea04ec7e0123dde",
      "to": "0xdc45e5469a8b6d020473f69fec91c0f0e83a3308",
      "contractAddress": null
    }
  ],
  "libraries": [],
  "pending": [],
  "returns": {},
  "timestamp": 1769428087973,
  "chain": 369,
  "commit": "953695a"
}