{
  "transactions": [
    {
      "hash": "0x7948a0be175c28ca7f66adb925449d09b5c5ab6427b5a41043e2aa5c84a3252a",
      "transactionType": "CALL",
      "contractName": null,
      "contractAddress": "0xdc45e5469a8b6d020473f69fec91c0f0e83a3308",
      "function": "trainSkill(uint8)",
      "arguments": [
        "0"
      ],
      "transaction": {
        "from": "0x4c62f6121e6f967a0872da8364995e9b68c1e82f",
        "to": "0xdc45e5469a8b6d020473f69fec91c0f0e83a3308",
        "gas": "0x3e46c",
        "value": "0x0",
        "input": "0xa0a73d0d0000000000000000000000000000000000000000000000000000000000000000",
        "nonce": "0x97b",
        "chainId": "0x171"
      },
      "additionalContracts": [],
      "isFixedGasLimit": false
    }
  ],
  "receipts": [
    {
      "status": "0x1",
      "cumulativeGasUsed": "0xab4576",
      "logs": [
        {
          "address": "0xdc45e5469a8b6d020473f69fec91c0f0e83a3308",
          "topics": [
            "0xa2ecdf3a87e9ffdb151ad823ae834f6165f94e54e5a30467175e075254eb6376"
          ],
          "data": "0x0000000000000000000000004c62f6121e6f967a0872da8364995e9b68c1e82f0000000000000000000000000000000000000000000000000000000000000000000000000000000000000000000000000000000000000000000000000000000000000000000000000000000000000000000000000000000000000000000000000000000000000000000000000000000000000000000000000000000000000000000000000000000000000000000000000000000000000000000000006988369b0000000000000000000000000000000000000000000000000000000069882c0f",
          "blockHash": "0x6a1ba0b374f60b0b762f7eec6c110a57592ddce6c7226124b56c65824a8dabed",
          "blockNumber": "0x188aeca",
          "transactionHash": "0x7948a0be175c28ca7f66adb925449d09b5c5ab6427b5a41043e2aa5c84a3252a",
          "transactionIndex": "0x2f",
          "logIndex": "0x9a",
          "removed": false
        },
        {
          "address": "0xdc45e5469a8b6d020473f69fec91c0f0e83a3308",
          "topics": [
            "0xe044087a71e55f84948ec1c9a326d935d50b09a1b97fa24ac3721c9437525359"
          ],
          "data": "0x0000000000000000000000004c62f6121e6f967a0872da8364995e9b68c1e82f0000000000000000000000000000000000000000000000000000000000000e390000000000000000000000000000000000000000000000000000000000000190",
          "blockHash": "0x6a1ba0b374f60b0b762f7eec6c110a57592ddce6c7226124b56c65824a8dabed",
          "blockNumber": "0x188aeca",
          "transactionHash": "0x7948a0be175c28ca7f66adb925449d09b5c5ab6427b5a41043e2aa5c84a3252a",
          "transactionIndex": "0x2f",
          "logIndex": "0x9b",
          "removed": false
        }
      ],
      "logsBloom": "0x00000000000000000000000000000000000000000001000000000000000000000000000000100000000000000000000000000000000000000000000000000000000000000000000000000000000000000000000000002000000000000000000000000000000000002000000004000000000000000000000000000000000000000000000000000000000000000000000000000000000400000000000000000000000000000000000000000000000000000000002000000000000000000000000000000000000000000000000000000000000000000000000000000000000000000000000000000000000000000000400000000000000000000000000100000000",
      "type": "0x2",
      "transactionHash": "0x7948a0be175c28ca7f66adb925449d09b5c5ab6427b5a41043e2aa5c84a3252a",
      "transactionIndex": "0x2f",
      "blockHash": "0x6a1ba0b374f60b0b762f7eec6c110a57592ddce6c7226124b56c65824a8dabed",
      "blockNumber": "0x188aeca",
      "gasUsed": "0x28d0d",
      "effectiveGasPrice": "0x2fd54e8c12820",
      "from": "0x4c62f6121e6f967a0872da8364995e9b68c1e82f",
      "to": "0xdc45e5469a8b6d020473f69fec91c0f0e83a3308",
      "contractAddress": null
    }
  ],
  "libraries": [],
  "pending": [],
  "returns": {},
  "timestamp": 1770531855950,
  "chain": 369,
  "commit": null
}