{
  "transactions": [
    {
      "hash": "0x132648fc69f3d5b21882aceaf4b63522ff48875ede1e4337c046066d9b566965",
      "transactionType": "CALL",
      "contractName": null,
      "contractAddress": "0xdc45e5469a8b6d020473f69fec91c0f0e83a3308",
      "function": "trainSkill(uint8)",
      "arguments": [
        "0"
      ],
      "transaction": {
        "from": "0xac56dc5a4a9de0197f7b8f584ea04ec7e0123dde",
        "to": "0xdc45e5469a8b6d020473f69fec91c0f0e83a3308",
        "gas": "0x38605",
        "value": "0x0",
        "input": "0xa0a73d0d0000000000000000000000000000000000000000000000000000000000000000",
        "nonce": "0x4ec",
        "chainId": "0x171"
      },
      "additionalContracts": [],
      "isFixedGasLimit": false
    }
  ],
  "receipts": [
    {
      "status": "0x1",
      "cumulativeGasUsed": "0x1424b65",
      "logs": [
        {
          "address": "0xdc45e5469a8b6d020473f69fec91c0f0e83a3308",
          "topics": [
            "0xa2ecdf3a87e9ffdb151ad823ae834f6165f94e54e5a30467175e075254eb6376"
          ],
          "data": "0x000000000000000000000000ac56dc5a4a9de0197f7b8f584ea04ec7e0123dde0000000000000000000000000000000000000000000000000000000000000000000000000000000000000000000000000000000000000000000000000000000000000000000000000000000000000000000000000000000000000000000000000000000000000000000000000000000000000000000000000000000000000000000000000000000000000000000000000000000000000000000000006987ea79000000000000000000000000000000000000000000000000000000006987dfed",
          "blockHash": "0xf0f3599978eee259ff61d85f30b89c8ba2f559d04e262f77d76e9a4d4670c248",
          "blockNumber": "0x188a751",
          "transactionHash": "0x132648fc69f3d5b21882aceaf4b63522ff48875ede1e4337c046066d9b566965",
          "transactionIndex": "0x42",
          "logIndex": "0x20b",
          "removed": false
        },
        {
          "address": "0xdc45e5469a8b6d020473f69fec91c0f0e83a3308",
          "topics": [
            "0xe044087a71e55f84948ec1c9a326d935d50b09a1b97fa24ac3721c9437525359"
          ],
          "data": "0x000000000000000000000000ac56dc5a4a9de0197f7b8f584ea04ec7e0123dde00000000000000000000000000000000000000000000000000000000000008290000000000000000000000000000000000000000000000000000000000000190",
          "blockHash": "0xf0f3599978eee259ff61d85f30b89c8ba2f559d04e262f77d76e9a4d4670c248",
          "blockNumber": "0x188a751",
          "transactionHash": "0x132648fc69f3d5b21882aceaf4b63522ff48875ede1e4337c046066d9b566965",
          "transactionIndex": "0x42",
          "logIndex": "0x20c",
          "removed": false
        }
      ],
      "logsBloom": "0x00000000000000000000000000000000000000000001000000000000000000000000000000100000000000000000000000000000000000000000000000000000000000000000000000000000000000000000000000002000000000000000000000000000000000002000000004000000000000000000000000000000000000000000000000000000000000000000000000000000000400000000000000000000000000000000000000000000000000000000002000000000000000000000000000000000000000000000000000000000000000000000000000000000000000000000000000000000000000000000400000000000000000000000000100000000",
      "type": "0x2",
      "transactionHash": "0x132648fc69f3d5b21882aceaf4b63522ff48875ede1e4337c046066d9b566965",
      "transactionIndex": "0x42",
      "blockHash": "0xf0f3599978eee259ff61d85f30b89c8ba2f559d04e262f77d76e9a4d4670c248",
      "blockNumber": "0x188a751",
      "gasUsed": "0x28d0d",
      "effectiveGasPrice": "0x32ad91457c71f",
      "from": "0xac56dc5a4a9de0197f7b8f584ea04ec7e0123dde",
      "to": "0xdc45e5469a8b6d020473f69fec91c0f0e83a3308",
      "contractAddress": null
    }
  ],
  "libraries": [],
  "pending": [],
  "returns": {},
  "timestamp": 1770512367097,
  "chain": 369,
  "commit": null
}