{
  "transactions": [
    {
      "hash": "0xecb09c8092ef2c9bbf5ff8cf0ae86d03977dae05da0050051930f9a607c06954",
      "transactionType": "CALL",
      "contractName": null,
      "contractAddress": "0xdc45e5469a8b6d020473f69fec91c0f0e83a3308",
      "function": "trainSkill(uint8)",
      "arguments": [
        "0"
      ],
      "transaction": {
        "from": "0xeca7a53ba6a190c5d205bfdc7707cbc3399336c1",
        "to": "0xdc45e5469a8b6d020473f69fec91c0f0e83a3308",
        "gas": "0x3bbb4",
        "value": "0x0",
        "input": "0xa0a73d0d0000000000000000000000000000000000000000000000000000000000000000",
        "nonce": "0x379",
        "chainId": "0x171"
      },
      "additionalContracts": [],
      "isFixedGasLimit": false
    }
  ],
  "receipts": [
    {
      "status": "0x1",
      "cumulativeGasUsed": "0x28b84bd",
      "logs": [
        {
          "address": "0xdc45e5469a8b6d020473f69fec91c0f0e83a3308",
          "topics": [
            "0xa2ecdf3a87e9ffdb151ad823ae834f6165f94e54e5a30467175e075254eb6376"
          ],
          "data": "0x000000000000000000000000eca7a53ba6a190c5d205bfdc7707cbc3399336c100000000000000000000000000000000000000000000000000000000000000000000000000000000000000000000000000000000000000000000000000000000000000000000000000000000000000000000000000000000000000000000000000000000000000000000000000000000000000000000000000000000000000000000000000000000000000000000000000000000000000000000000069797197000000000000000000000000000000000000000000000000000000006979670b",
          "blockHash": "0x9afed8948a879822828e3710365b2fbee5d32efbacef9d2e3a9c2a2fcebefeb2",
          "blockNumber": "0x1873e17",
          "transactionHash": "0xecb09c8092ef2c9bbf5ff8cf0ae86d03977dae05da0050051930f9a607c06954",
          "transactionIndex": "0x127",
          "logIndex": "0x2ab",
          "removed": false
        },
        {
          "address": "0xdc45e5469a8b6d020473f69fec91c0f0e83a3308",
          "topics": [
            "0xe044087a71e55f84948ec1c9a326d935d50b09a1b97fa24ac3721c9437525359"
          ],
          "data": "0x000000000000000000000000eca7a53ba6a190c5d205bfdc7707cbc3399336c100000000000000000000000000000000000000000000000000000000000017150000000000000000000000000000000000000000000000000000000000000190",
          "blockHash": "0x9afed8948a879822828e3710365b2fbee5d32efbacef9d2e3a9c2a2fcebefeb2",
          "blockNumber": "0x1873e17",
          "transactionHash": "0xecb09c8092ef2c9bbf5ff8cf0ae86d03977dae05da0050051930f9a607c06954",
          "transactionIndex": "0x127",
          "logIndex": "0x2ac",
          "removed": false
        }
      ],
      "logsBloom": "0x00000000000000000000000000000000000000000001000000000000000000000000000000100000000000000000000000000000000000000000000000000000000000000000000000000000000000000000000000002000000000000000000000000000000000002000000004000000000000000000000000000000000000000000000000000000000000000000000000000000000400000000000000000000000000000000000000000000000000000000002000000000000000000000000000000000000000000000000000000000000000000000000000000000000000000000000000000000000000000000400000000000000000000000000100000000",
      "type": "0x2",
      "transactionHash": "0xecb09c8092ef2c9bbf5ff8cf0ae86d03977dae05da0050051930f9a607c06954",
      "transactionIndex": "0x127",
      "blockHash": "0x9afed8948a879822828e3710365b2fbee5d32efbacef9d2e3a9c2a2fcebefeb2",
      "blockNumber": "0x1873e17",
      "gasUsed": "0x28d79",
      "effectiveGasPrice": "0x2a8cbf2ac2991",
      "from": "0xeca7a53ba6a190c5d205bfdc7707cbc3399336c1",
      "to": "0xdc45e5469a8b6d020473f69fec91c0f0e83a3308",
      "contractAddress": null
    }
  ],
  "libraries": [],
  "pending": [],
  "returns": {},
  "timestamp": 1769563916545,
  "chain": 369,
  "commit": null
}