{
  "transactions": [
    {
      "hash": "0x580702c6ceac8292ae6370acbd3401a2cc44ae0b0fbdcc96c98f4f311b960788",
      "transactionType": "CALL",
      "contractName": null,
      "contractAddress": "0xdc45e5469a8b6d020473f69fec91c0f0e83a3308",
      "function": "trainSkill(uint8)",
      "arguments": [
        "0"
      ],
      "transaction": {
        "from": "0xac56dc5a4a9de0197f7b8f584ea04ec7e0123dde",
        "to": "0xdc45e5469a8b6d020473f69fec91c0f0e83a3308",
        "gas": "0x38605",
        "value": "0x0",
        "input": "0xa0a73d0d0000000000000000000000000000000000000000000000000000000000000000",
        "nonce": "0x505",
        "chainId": "0x171"
      },
      "additionalContracts": [],
      "isFixedGasLimit": false
    }
  ],
  "receipts": [
    {
      "status": "0x1",
      "cumulativeGasUsed": "0x7fb001",
      "logs": [
        {
          "address": "0xdc45e5469a8b6d020473f69fec91c0f0e83a3308",
          "topics": [
            "0xa2ecdf3a87e9ffdb151ad823ae834f6165f94e54e5a30467175e075254eb6376"
          ],
          "data": "0x000000000000000000000000ac56dc5a4a9de0197f7b8f584ea04ec7e0123dde0000000000000000000000000000000000000000000000000000000000000000000000000000000000000000000000000000000000000000000000000000000000000000000000000000000000000000000000000000000000000000000000000000000000000000000000000000000000000000000000000000000000000000000000000000000000000000000000000000000000000000000000006988418100000000000000000000000000000000000000000000000000000000698836f5",
          "blockHash": "0xfd207a451099e0b05e31ccb3680906509f90d4d0a8c290a07b6abe07647eb7a6",
          "blockNumber": "0x188afda",
          "transactionHash": "0x580702c6ceac8292ae6370acbd3401a2cc44ae0b0fbdcc96c98f4f311b960788",
          "transactionIndex": "0x2b",
          "logIndex": "0xbb",
          "removed": false
        },
        {
          "address": "0xdc45e5469a8b6d020473f69fec91c0f0e83a3308",
          "topics": [
            "0xe044087a71e55f84948ec1c9a326d935d50b09a1b97fa24ac3721c9437525359"
          ],
          "data": "0x000000000000000000000000ac56dc5a4a9de0197f7b8f584ea04ec7e0123dde00000000000000000000000000000000000000000000000000000000000010ca0000000000000000000000000000000000000000000000000000000000000190",
          "blockHash": "0xfd207a451099e0b05e31ccb3680906509f90d4d0a8c290a07b6abe07647eb7a6",
          "blockNumber": "0x188afda",
          "transactionHash": "0x580702c6ceac8292ae6370acbd3401a2cc44ae0b0fbdcc96c98f4f311b960788",
          "transactionIndex": "0x2b",
          "logIndex": "0xbc",
          "removed": false
        }
      ],
      "logsBloom": "0x00000000000000000000000000000000000000000001000000000000000000000000000000100000000000000000000000000000000000000000000000000000000000000000000000000000000000000000000000002000000000000000000000000000000000002000000004000000000000000000000000000000000000000000000000000000000000000000000000000000000400000000000000000000000000000000000000000000000000000000002000000000000000000000000000000000000000000000000000000000000000000000000000000000000000000000000000000000000000000000400000000000000000000000000100000000",
      "type": "0x2",
      "transactionHash": "0x580702c6ceac8292ae6370acbd3401a2cc44ae0b0fbdcc96c98f4f311b960788",
      "transactionIndex": "0x2b",
      "blockHash": "0xfd207a451099e0b05e31ccb3680906509f90d4d0a8c290a07b6abe07647eb7a6",
      "blockNumber": "0x188afda",
      "gasUsed": "0x28d0d",
      "effectiveGasPrice": "0x2e87b3f14471c",
      "from": "0xac56dc5a4a9de0197f7b8f584ea04ec7e0123dde",
      "to": "0xdc45e5469a8b6d020473f69fec91c0f0e83a3308",
      "contractAddress": null
    }
  ],
  "libraries": [],
  "pending": [],
  "returns": {},
  "timestamp": 1770534645976,
  "chain": 369,
  "commit": null
}