{
  "transactions": [
    {
      "hash": "0xb29aa99780942b453438adca33ef4b8373cf04f8130216a15c5369dab134be6d",
      "transactionType": "CALL",
      "contractName": null,
      "contractAddress": "0xdc45e5469a8b6d020473f69fec91c0f0e83a3308",
      "function": "trainSkill(uint8)",
      "arguments": [
        "0"
      ],
      "transaction": {
        "from": "0x4c62f6121e6f967a0872da8364995e9b68c1e82f",
        "to": "0xdc45e5469a8b6d020473f69fec91c0f0e83a3308",
        "gas": "0x379ba",
        "value": "0x0",
        "input": "0xa0a73d0d0000000000000000000000000000000000000000000000000000000000000000",
        "nonce": "0x73a",
        "chainId": "0x171"
      },
      "additionalContracts": [],
      "isFixedGasLimit": false
    }
  ],
  "receipts": [
    {
      "status": "0x1",
      "cumulativeGasUsed": "0xd4cc66",
      "logs": [
        {
          "address": "0xdc45e5469a8b6d020473f69fec91c0f0e83a3308",
          "topics": [
            "0xa2ecdf3a87e9ffdb151ad823ae834f6165f94e54e5a30467175e075254eb6376"
          ],
          "data": "0x0000000000000000000000004c62f6121e6f967a0872da8364995e9b68c1e82f000000000000000000000000000000000000000000000000000000000000000000000000000000000000000000000000000000000000000000000000000000000000000000000000000000000000000000000000000000000000000000000000000000000000000000000000000000000000000000000000000000000000000000000000000000000000000000000000000000000000000000000000697a2bc300000000000000000000000000000000000000000000000000000000697a2137",
          "blockHash": "0x1975cd3396023697662a2d693f6a75797d065553701f0b8c854f2a0d126f2f98",
          "blockNumber": "0x187504c",
          "transactionHash": "0xb29aa99780942b453438adca33ef4b8373cf04f8130216a15c5369dab134be6d",
          "transactionIndex": "0x15",
          "logIndex": "0xd4",
          "removed": false
        },
        {
          "address": "0xdc45e5469a8b6d020473f69fec91c0f0e83a3308",
          "topics": [
            "0xe044087a71e55f84948ec1c9a326d935d50b09a1b97fa24ac3721c9437525359"
          ],
          "data": "0x0000000000000000000000004c62f6121e6f967a0872da8364995e9b68c1e82f0000000000000000000000000000000000000000000000000000000000001b3f0000000000000000000000000000000000000000000000000000000000000190",
          "blockHash": "0x1975cd3396023697662a2d693f6a75797d065553701f0b8c854f2a0d126f2f98",
          "blockNumber": "0x187504c",
          "transactionHash": "0xb29aa99780942b453438adca33ef4b8373cf04f8130216a15c5369dab134be6d",
          "transactionIndex": "0x15",
          "logIndex": "0xd5",
          "removed": false
        }
      ],
      "logsBloom": "0x00000000000000000000000000000000000000000001000000000000000000000000000000100000000000000000000000000000000000000000000000000000000000000000000000000000000000000000000000002000000000000000000000000000000000002000000004000000000000000000000000000000000000000000000000000000000000000000000000000000000400000000000000000000000000000000000000000000000000000000002000000000000000000000000000000000000000000000000000000000000000000000000000000000000000000000000000000000000000000000400000000000000000000000000100000000",
      "type": "0x2",
      "transactionHash": "0xb29aa99780942b453438adca33ef4b8373cf04f8130216a15c5369dab134be6d",
      "transactionIndex": "0x15",
      "blockHash": "0x1975cd3396023697662a2d693f6a75797d065553701f0b8c854f2a0d126f2f98",
      "blockNumber": "0x187504c",
      "gasUsed": "0x28426",
      "effectiveGasPrice": "0x2b96e120e91fb",
      "from": "0x4c62f6121e6f967a0872da8364995e9b68c1e82f",
      "to": "0xdc45e5469a8b6d020473f69fec91c0f0e83a3308",
      "contractAddress": null
    }
  ],
  "libraries": [],
  "pending": [],
  "returns": {},
  "timestamp": 1769611575558,
  "chain": 369,
  "commit": null
}