{
  "transactions": [
    {
      "hash": "0x468896815fe0515942abef10ac1727d61b1da134b27e37479c16d24783d17a88",
      "transactionType": "CALL",
      "contractName": null,
      "contractAddress": "0xdc45e5469a8b6d020473f69fec91c0f0e83a3308",
      "function": "trainSkill(uint8)",
      "arguments": [
        "0"
      ],
      "transaction": {
        "from": "0xeca7a53ba6a190c5d205bfdc7707cbc3399336c1",
        "to": "0xdc45e5469a8b6d020473f69fec91c0f0e83a3308",
        "gas": "0x392e7",
        "value": "0x0",
        "input": "0xa0a73d0d0000000000000000000000000000000000000000000000000000000000000000",
        "nonce": "0x566",
        "chainId": "0x171"
      },
      "additionalContracts": [],
      "isFixedGasLimit": false
    }
  ],
  "receipts": [
    {
      "status": "0x1",
      "cumulativeGasUsed": "0x3c5982",
      "logs": [
        {
          "address": "0xdc45e5469a8b6d020473f69fec91c0f0e83a3308",
          "topics": [
            "0xa2ecdf3a87e9ffdb151ad823ae834f6165f94e54e5a30467175e075254eb6376"
          ],
          "data": "0x000000000000000000000000eca7a53ba6a190c5d205bfdc7707cbc3399336c1000000000000000000000000000000000000000000000000000000000000000000000000000000000000000000000000000000000000000000000000000000000000000000000000000000000000000000000000000000000000000000000000000000000000000000000000000000000000000000000000000000000000000000000000000000000000000000000000000000000000000000000000698797ef0000000000000000000000000000000000000000000000000000000069878d63",
          "blockHash": "0xa7ff1eeccb63a2c9633607dcf580b6c32688a06d8b146744fecf74b02b51512a",
          "blockNumber": "0x1889f47",
          "transactionHash": "0x468896815fe0515942abef10ac1727d61b1da134b27e37479c16d24783d17a88",
          "transactionIndex": "0x21",
          "logIndex": "0x6b",
          "removed": false
        },
        {
          "address": "0xdc45e5469a8b6d020473f69fec91c0f0e83a3308",
          "topics": [
            "0xe044087a71e55f84948ec1c9a326d935d50b09a1b97fa24ac3721c9437525359"
          ],
          "data": "0x000000000000000000000000eca7a53ba6a190c5d205bfdc7707cbc3399336c10000000000000000000000000000000000000000000000000000000000001dff0000000000000000000000000000000000000000000000000000000000000190",
          "blockHash": "0xa7ff1eeccb63a2c9633607dcf580b6c32688a06d8b146744fecf74b02b51512a",
          "blockNumber": "0x1889f47",
          "transactionHash": "0x468896815fe0515942abef10ac1727d61b1da134b27e37479c16d24783d17a88",
          "transactionIndex": "0x21",
          "logIndex": "0x6c",
          "removed": false
        }
      ],
      "logsBloom": "0x00000000000000000000000000000000000000000001000000000000000000000000000000100000000000000000000000000000000000000000000000000000000000000000000000000000000000000000000000002000000000000000000000000000000000002000000004000000000000000000000000000000000000000000000000000000000000000000000000000000000400000000000000000000000000000000000000000000000000000000002000000000000000000000000000000000000000000000000000000000000000000000000000000000000000000000000000000000000000000000400000000000000000000000000100000000",
      "type": "0x2",
      "transactionHash": "0x468896815fe0515942abef10ac1727d61b1da134b27e37479c16d24783d17a88",
      "transactionIndex": "0x21",
      "blockHash": "0xa7ff1eeccb63a2c9633607dcf580b6c32688a06d8b146744fecf74b02b51512a",
      "blockNumber": "0x1889f47",
      "gasUsed": "0x29660",
      "effectiveGasPrice": "0x30a2e11efb8ce",
      "from": "0xeca7a53ba6a190c5d205bfdc7707cbc3399336c1",
      "to": "0xdc45e5469a8b6d020473f69fec91c0f0e83a3308",
      "contractAddress": null
    }
  ],
  "libraries": [],
  "pending": [],
  "returns": {},
  "timestamp": 1770491236005,
  "chain": 369,
  "commit": null
}