{
  "transactions": [
    {
      "hash": "0x6334e939a3791df78a7417f164ec0add36b2256c6724fe3fda4cc9fb47cf7b26",
      "transactionType": "CALL",
      "contractName": null,
      "contractAddress": "0xdc45e5469a8b6d020473f69fec91c0f0e83a3308",
      "function": "trainSkill(uint8)",
      "arguments": [
        "0"
      ],
      "transaction": {
        "from": "0x4c62f6121e6f967a0872da8364995e9b68c1e82f",
        "to": "0xdc45e5469a8b6d020473f69fec91c0f0e83a3308",
        "gas": "0x3ae68",
        "value": "0x0",
        "input": "0xa0a73d0d0000000000000000000000000000000000000000000000000000000000000000",
        "nonce": "0x706",
        "chainId": "0x171"
      },
      "additionalContracts": [],
      "isFixedGasLimit": false
    }
  ],
  "receipts": [
    {
      "status": "0x1",
      "cumulativeGasUsed": "0xa446ce",
      "logs": [
        {
          "address": "0xdc45e5469a8b6d020473f69fec91c0f0e83a3308",
          "topics": [
            "0xa2ecdf3a87e9ffdb151ad823ae834f6165f94e54e5a30467175e075254eb6376"
          ],
          "data": "0x0000000000000000000000004c62f6121e6f967a0872da8364995e9b68c1e82f00000000000000000000000000000000000000000000000000000000000000000000000000000000000000000000000000000000000000000000000000000000000000000000000000000000000000000000000000000000000000000000000000000000000000000000000000000000000000000000000000000000000000000000000000000000000000000000000000000000000000000000000069795c2f00000000000000000000000000000000000000000000000000000000697951a3",
          "blockHash": "0xfdfdf1b3271f2eaac7af4ef7ad3562b253087c67c7982187c524d804f0329dad",
          "blockNumber": "0x1873bfe",
          "transactionHash": "0x6334e939a3791df78a7417f164ec0add36b2256c6724fe3fda4cc9fb47cf7b26",
          "transactionIndex": "0x37",
          "logIndex": "0x10e",
          "removed": false
        },
        {
          "address": "0xdc45e5469a8b6d020473f69fec91c0f0e83a3308",
          "topics": [
            "0xe044087a71e55f84948ec1c9a326d935d50b09a1b97fa24ac3721c9437525359"
          ],
          "data": "0x0000000000000000000000004c62f6121e6f967a0872da8364995e9b68c1e82f00000000000000000000000000000000000000000000000000000000000015750000000000000000000000000000000000000000000000000000000000000190",
          "blockHash": "0xfdfdf1b3271f2eaac7af4ef7ad3562b253087c67c7982187c524d804f0329dad",
          "blockNumber": "0x1873bfe",
          "transactionHash": "0x6334e939a3791df78a7417f164ec0add36b2256c6724fe3fda4cc9fb47cf7b26",
          "transactionIndex": "0x37",
          "logIndex": "0x10f",
          "removed": false
        }
      ],
      "logsBloom": "0x00000000000000000000000000000000000000000001000000000000000000000000000000100000000000000000000000000000000000000000000000000000000000000000000000000000000000000000000000002000000000000000000000000000000000002000000004000000000000000000000000000000000000000000000000000000000000000000000000000000000400000000000000000000000000000000000000000000000000000000002000000000000000000000000000000000000000000000000000000000000000000000000000000000000000000000000000000000000000000000400000000000000000000000000100000000",
      "type": "0x2",
      "transactionHash": "0x6334e939a3791df78a7417f164ec0add36b2256c6724fe3fda4cc9fb47cf7b26",
      "transactionIndex": "0x37",
      "blockHash": "0xfdfdf1b3271f2eaac7af4ef7ad3562b253087c67c7982187c524d804f0329dad",
      "blockNumber": "0x1873bfe",
      "gasUsed": "0x28462",
      "effectiveGasPrice": "0x64a5f57b73f7a",
      "from": "0x4c62f6121e6f967a0872da8364995e9b68c1e82f",
      "to": "0xdc45e5469a8b6d020473f69fec91c0f0e83a3308",
      "contractAddress": null
    }
  ],
  "libraries": [],
  "pending": [],
  "returns": {},
  "timestamp": 1769558437377,
  "chain": 369,
  "commit": null
}