{
  "transactions": [
    {
      "hash": "0x8f4ccf074069e4990b3b8d2528f349dfcc1cc3f0d7d4232385691971bbb3a8e8",
      "transactionType": "CALL",
      "contractName": null,
      "contractAddress": "0xdc45e5469a8b6d020473f69fec91c0f0e83a3308",
      "function": "trainSkill(uint8)",
      "arguments": [
        "0"
      ],
      "transaction": {
        "from": "0xac56dc5a4a9de0197f7b8f584ea04ec7e0123dde",
        "to": "0xdc45e5469a8b6d020473f69fec91c0f0e83a3308",
        "gas": "0x3ae68",
        "value": "0x0",
        "input": "0xa0a73d0d0000000000000000000000000000000000000000000000000000000000000000",
        "nonce": "0x2b0",
        "chainId": "0x171"
      },
      "additionalContracts": [],
      "isFixedGasLimit": false
    }
  ],
  "receipts": [
    {
      "status": "0x1",
      "cumulativeGasUsed": "0xb4455c",
      "logs": [
        {
          "address": "0xdc45e5469a8b6d020473f69fec91c0f0e83a3308",
          "topics": [
            "0xa2ecdf3a87e9ffdb151ad823ae834f6165f94e54e5a30467175e075254eb6376"
          ],
          "data": "0x000000000000000000000000ac56dc5a4a9de0197f7b8f584ea04ec7e0123dde0000000000000000000000000000000000000000000000000000000000000000000000000000000000000000000000000000000000000000000000000000000000000000000000000000000000000000000000000000000000000000000000000000000000000000000000000000000000000000000000000000000000000000000000000000000000000000000000000000000000000000000000006977495d0000000000000000000000000000000000000000000000000000000069773ed1",
          "blockHash": "0x7f2949f36bc99b9607f13634946f1990ef1cf123ade00a0741b189bba608255d",
          "blockNumber": "0x187081d",
          "transactionHash": "0x8f4ccf074069e4990b3b8d2528f349dfcc1cc3f0d7d4232385691971bbb3a8e8",
          "transactionIndex": "0x25",
          "logIndex": "0xbc",
          "removed": false
        },
        {
          "address": "0xdc45e5469a8b6d020473f69fec91c0f0e83a3308",
          "topics": [
            "0xe044087a71e55f84948ec1c9a326d935d50b09a1b97fa24ac3721c9437525359"
          ],
          "data": "0x000000000000000000000000ac56dc5a4a9de0197f7b8f584ea04ec7e0123dde0000000000000000000000000000000000000000000000000000000000000eb10000000000000000000000000000000000000000000000000000000000000190",
          "blockHash": "0x7f2949f36bc99b9607f13634946f1990ef1cf123ade00a0741b189bba608255d",
          "blockNumber": "0x187081d",
          "transactionHash": "0x8f4ccf074069e4990b3b8d2528f349dfcc1cc3f0d7d4232385691971bbb3a8e8",
          "transactionIndex": "0x25",
          "logIndex": "0xbd",
          "removed": false
        }
      ],
      "logsBloom": "0x00000000000000000000000000000000000000000001000000000000000000000000000000100000000000000000000000000000000000000000000000000000000000000000000000000000000000000000000000002000000000000000000000000000000000002000000004000000000000000000000000000000000000000000000000000000000000000000000000000000000400000000000000000000000000000000000000000000000000000000002000000000000000000000000000000000000000000000000000000000000000000000000000000000000000000000000000000000000000000000400000000000000000000000000100000000",
      "type": "0x2",
      "transactionHash": "0x8f4ccf074069e4990b3b8d2528f349dfcc1cc3f0d7d4232385691971bbb3a8e8",
      "transactionIndex": "0x25",
      "blockHash": "0x7f2949f36bc99b9607f13634946f1990ef1cf123ade00a0741b189bba608255d",
      "blockNumber": "0x187081d",
      "gasUsed": "0x28462",
      "effectiveGasPrice": "0x17abf66a522d3",
      "from": "0xac56dc5a4a9de0197f7b8f584ea04ec7e0123dde",
      "to": "0xdc45e5469a8b6d020473f69fec91c0f0e83a3308",
      "contractAddress": null
    }
  ],
  "libraries": [],
  "pending": [],
  "returns": {},
  "timestamp": 1769422546373,
  "chain": 369,
  "commit": "953695a"
}