{
  "transactions": [
    {
      "hash": "0x7fc2de34865969e0756db82798de18f9de7664079fcb82632e9112368dc84b2f",
      "transactionType": "CALL",
      "contractName": null,
      "contractAddress": "0xdc45e5469a8b6d020473f69fec91c0f0e83a3308",
      "function": "trainSkill(uint8)",
      "arguments": [
        "0"
      ],
      "transaction": {
        "from": "0xeca7a53ba6a190c5d205bfdc7707cbc3399336c1",
        "to": "0xdc45e5469a8b6d020473f69fec91c0f0e83a3308",
        "gas": "0x3bbb4",
        "value": "0x0",
        "input": "0xa0a73d0d0000000000000000000000000000000000000000000000000000000000000000",
        "nonce": "0x3d0",
        "chainId": "0x171"
      },
      "additionalContracts": [],
      "isFixedGasLimit": false
    }
  ],
  "receipts": [
    {
      "status": "0x1",
      "cumulativeGasUsed": "0x20c7da1",
      "logs": [
        {
          "address": "0xdc45e5469a8b6d020473f69fec91c0f0e83a3308",
          "topics": [
            "0xa2ecdf3a87e9ffdb151ad823ae834f6165f94e54e5a30467175e075254eb6376"
          ],
          "data": "0x000000000000000000000000eca7a53ba6a190c5d205bfdc7707cbc3399336c1000000000000000000000000000000000000000000000000000000000000000000000000000000000000000000000000000000000000000000000000000000000000000000000000000000000000000000000000000000000000000000000000000000000000000000000000000000000000000000000000000000000000000000000000000000000000000000000000000000000000000000000000697a8b5900000000000000000000000000000000000000000000000000000000697a80cd",
          "blockHash": "0x17d09f0f61cffbd5096e03ccf7b6002e4e5af1d3076b1b7f3bce4c3cc67eeca7",
          "blockNumber": "0x18759a2",
          "transactionHash": "0x7fc2de34865969e0756db82798de18f9de7664079fcb82632e9112368dc84b2f",
          "transactionIndex": "0x29",
          "logIndex": "0x5a4",
          "removed": false
        },
        {
          "address": "0xdc45e5469a8b6d020473f69fec91c0f0e83a3308",
          "topics": [
            "0xe044087a71e55f84948ec1c9a326d935d50b09a1b97fa24ac3721c9437525359"
          ],
          "data": "0x000000000000000000000000eca7a53ba6a190c5d205bfdc7707cbc3399336c10000000000000000000000000000000000000000000000000000000000001fa70000000000000000000000000000000000000000000000000000000000000190",
          "blockHash": "0x17d09f0f61cffbd5096e03ccf7b6002e4e5af1d3076b1b7f3bce4c3cc67eeca7",
          "blockNumber": "0x18759a2",
          "transactionHash": "0x7fc2de34865969e0756db82798de18f9de7664079fcb82632e9112368dc84b2f",
          "transactionIndex": "0x29",
          "logIndex": "0x5a5",
          "removed": false
        }
      ],
      "logsBloom": "0x00000000000000000000000000000000000000000001000000000000000000000000000000100000000000000000000000000000000000000000000000000000000000000000000000000000000000000000000000002000000000000000000000000000000000002000000004000000000000000000000000000000000000000000000000000000000000000000000000000000000400000000000000000000000000000000000000000000000000000000002000000000000000000000000000000000000000000000000000000000000000000000000000000000000000000000000000000000000000000000400000000000000000000000000100000000",
      "type": "0x2",
      "transactionHash": "0x7fc2de34865969e0756db82798de18f9de7664079fcb82632e9112368dc84b2f",
      "transactionIndex": "0x29",
      "blockHash": "0x17d09f0f61cffbd5096e03ccf7b6002e4e5af1d3076b1b7f3bce4c3cc67eeca7",
      "blockNumber": "0x18759a2",
      "gasUsed": "0x28d79",
      "effectiveGasPrice": "0x3cdf32f3d1c9e",
      "from": "0xeca7a53ba6a190c5d205bfdc7707cbc3399336c1",
      "to": "0xdc45e5469a8b6d020473f69fec91c0f0e83a3308",
      "contractAddress": null
    }
  ],
  "libraries": [],
  "pending": [],
  "returns": {},
  "timestamp": 1769636045789,
  "chain": 369,
  "commit": null
}