{
  "transactions": [
    {
      "hash": "0xeb5d376dd0e94bfbaecc6b2c2de866298b488e59a0bb200e90dc4c12534e0508",
      "transactionType": "CALL",
      "contractName": null,
      "contractAddress": "0xdc45e5469a8b6d020473f69fec91c0f0e83a3308",
      "function": "trainSkill(uint8)",
      "arguments": [
        "0"
      ],
      "transaction": {
        "from": "0xeca7a53ba6a190c5d205bfdc7707cbc3399336c1",
        "to": "0xdc45e5469a8b6d020473f69fec91c0f0e83a3308",
        "gas": "0x3bbb4",
        "value": "0x0",
        "input": "0xa0a73d0d0000000000000000000000000000000000000000000000000000000000000000",
        "nonce": "0x375",
        "chainId": "0x171"
      },
      "additionalContracts": [],
      "isFixedGasLimit": false
    }
  ],
  "receipts": [
    {
      "status": "0x1",
      "cumulativeGasUsed": "0x93d452",
      "logs": [
        {
          "address": "0xdc45e5469a8b6d020473f69fec91c0f0e83a3308",
          "topics": [
            "0xa2ecdf3a87e9ffdb151ad823ae834f6165f94e54e5a30467175e075254eb6376"
          ],
          "data": "0x000000000000000000000000eca7a53ba6a190c5d205bfdc7707cbc3399336c1000000000000000000000000000000000000000000000000000000000000000000000000000000000000000000000000000000000000000000000000000000000000000000000000000000000000000000000000000000000000000000000000000000000000000000000000000000000000000000000000000000000000000000000000000000000000000000000000000000000000000000000000697966c50000000000000000000000000000000000000000000000000000000069795c39",
          "blockHash": "0xf02dece1dd2bbf5eec9ecfb20919c1e325c74238595c448d01a7911608664236",
          "blockNumber": "0x1873d09",
          "transactionHash": "0xeb5d376dd0e94bfbaecc6b2c2de866298b488e59a0bb200e90dc4c12534e0508",
          "transactionIndex": "0x17",
          "logIndex": "0xa5",
          "removed": false
        },
        {
          "address": "0xdc45e5469a8b6d020473f69fec91c0f0e83a3308",
          "topics": [
            "0xe044087a71e55f84948ec1c9a326d935d50b09a1b97fa24ac3721c9437525359"
          ],
          "data": "0x000000000000000000000000eca7a53ba6a190c5d205bfdc7707cbc3399336c100000000000000000000000000000000000000000000000000000000000010bf0000000000000000000000000000000000000000000000000000000000000190",
          "blockHash": "0xf02dece1dd2bbf5eec9ecfb20919c1e325c74238595c448d01a7911608664236",
          "blockNumber": "0x1873d09",
          "transactionHash": "0xeb5d376dd0e94bfbaecc6b2c2de866298b488e59a0bb200e90dc4c12534e0508",
          "transactionIndex": "0x17",
          "logIndex": "0xa6",
          "removed": false
        }
      ],
      "logsBloom": "0x00000000000000000000000000000000000000000001000000000000000000000000000000100000000000000000000000000000000000000000000000000000000000000000000000000000000000000000000000002000000000000000000000000000000000002000000004000000000000000000000000000000000000000000000000000000000000000000000000000000000400000000000000000000000000000000000000000000000000000000002000000000000000000000000000000000000000000000000000000000000000000000000000000000000000000000000000000000000000000000400000000000000000000000000100000000",
      "type": "0x2",
      "transactionHash": "0xeb5d376dd0e94bfbaecc6b2c2de866298b488e59a0bb200e90dc4c12534e0508",
      "transactionIndex": "0x17",
      "blockHash": "0xf02dece1dd2bbf5eec9ecfb20919c1e325c74238595c448d01a7911608664236",
      "blockNumber": "0x1873d09",
      "gasUsed": "0x28d79",
      "effectiveGasPrice": "0x413a59345c3a5",
      "from": "0xeca7a53ba6a190c5d205bfdc7707cbc3399336c1",
      "to": "0xdc45e5469a8b6d020473f69fec91c0f0e83a3308",
      "contractAddress": null
    }
  ],
  "libraries": [],
  "pending": [],
  "returns": {},
  "timestamp": 1769561146228,
  "chain": 369,
  "commit": null
}