{
  "transactions": [
    {
      "hash": "0xea186cdfebe87b94c8475bc111a1dd342b7069e7f4c8af6ca17f654aab98c433",
      "transactionType": "CALL",
      "contractName": null,
      "contractAddress": "0xdc45e5469a8b6d020473f69fec91c0f0e83a3308",
      "function": "trainSkill(uint8)",
      "arguments": [
        "0"
      ],
      "transaction": {
        "from": "0xeca7a53ba6a190c5d205bfdc7707cbc3399336c1",
        "to": "0xdc45e5469a8b6d020473f69fec91c0f0e83a3308",
        "gas": "0x392e7",
        "value": "0x0",
        "input": "0xa0a73d0d0000000000000000000000000000000000000000000000000000000000000000",
        "nonce": "0x3dd",
        "chainId": "0x171"
      },
      "additionalContracts": [],
      "isFixedGasLimit": false
    }
  ],
  "receipts": [
    {
      "status": "0x1",
      "cumulativeGasUsed": "0x72763a",
      "logs": [
        {
          "address": "0xdc45e5469a8b6d020473f69fec91c0f0e83a3308",
          "topics": [
            "0xa2ecdf3a87e9ffdb151ad823ae834f6165f94e54e5a30467175e075254eb6376"
          ],
          "data": "0x000000000000000000000000eca7a53ba6a190c5d205bfdc7707cbc3399336c1000000000000000000000000000000000000000000000000000000000000000000000000000000000000000000000000000000000000000000000000000000000000000000000000000000000000000000000000000000000000000000000000000000000000000000000000000000000000000000000000000000000000000000000000000000000000000000000000000000000000000000000000697ab6bf00000000000000000000000000000000000000000000000000000000697aac33",
          "blockHash": "0x965995ea72d1ad0575557eb15ede7827ce5fcf1884ce295449d977dbed9ed884",
          "blockNumber": "0x1875ddf",
          "transactionHash": "0xea186cdfebe87b94c8475bc111a1dd342b7069e7f4c8af6ca17f654aab98c433",
          "transactionIndex": "0x48",
          "logIndex": "0xb3",
          "removed": false
        },
        {
          "address": "0xdc45e5469a8b6d020473f69fec91c0f0e83a3308",
          "topics": [
            "0xe044087a71e55f84948ec1c9a326d935d50b09a1b97fa24ac3721c9437525359"
          ],
          "data": "0x000000000000000000000000eca7a53ba6a190c5d205bfdc7707cbc3399336c100000000000000000000000000000000000000000000000000000000000010ff0000000000000000000000000000000000000000000000000000000000000190",
          "blockHash": "0x965995ea72d1ad0575557eb15ede7827ce5fcf1884ce295449d977dbed9ed884",
          "blockNumber": "0x1875ddf",
          "transactionHash": "0xea186cdfebe87b94c8475bc111a1dd342b7069e7f4c8af6ca17f654aab98c433",
          "transactionIndex": "0x48",
          "logIndex": "0xb4",
          "removed": false
        }
      ],
      "logsBloom": "0x00000000000000000000000000000000000000000001000000000000000000000000000000100000000000000000000000000000000000000000000000000000000000000000000000000000000000000000000000002000000000000000000000000000000000002000000004000000000000000000000000000000000000000000000000000000000000000000000000000000000400000000000000000000000000000000000000000000000000000000002000000000000000000000000000000000000000000000000000000000000000000000000000000000000000000000000000000000000000000000400000000000000000000000000100000000",
      "type": "0x2",
      "transactionHash": "0xea186cdfebe87b94c8475bc111a1dd342b7069e7f4c8af6ca17f654aab98c433",
      "transactionIndex": "0x48",
      "blockHash": "0x965995ea72d1ad0575557eb15ede7827ce5fcf1884ce295449d977dbed9ed884",
      "blockNumber": "0x1875ddf",
      "gasUsed": "0x29660",
      "effectiveGasPrice": "0x1d1bb270c1c09",
      "from": "0xeca7a53ba6a190c5d205bfdc7707cbc3399336c1",
      "to": "0xdc45e5469a8b6d020473f69fec91c0f0e83a3308",
      "contractAddress": null
    }
  ],
  "libraries": [],
  "pending": [],
  "returns": {},
  "timestamp": 1769647156228,
  "chain": 369,
  "commit": null
}