{
  "transactions": [
    {
      "hash": "0x465fa7853a750d43df670deddabdddbeb614ded490c226d9da1e5fcec44e48d7",
      "transactionType": "CALL",
      "contractName": null,
      "contractAddress": "0xdc45e5469a8b6d020473f69fec91c0f0e83a3308",
      "function": "trainSkill(uint8)",
      "arguments": [
        "0"
      ],
      "transaction": {
        "from": "0x4c62f6121e6f967a0872da8364995e9b68c1e82f",
        "to": "0xdc45e5469a8b6d020473f69fec91c0f0e83a3308",
        "gas": "0x3ae68",
        "value": "0x0",
        "input": "0xa0a73d0d0000000000000000000000000000000000000000000000000000000000000000",
        "nonce": "0x6ff",
        "chainId": "0x171"
      },
      "additionalContracts": [],
      "isFixedGasLimit": false
    }
  ],
  "receipts": [
    {
      "status": "0x1",
      "cumulativeGasUsed": "0x7c16b6",
      "logs": [
        {
          "address": "0xdc45e5469a8b6d020473f69fec91c0f0e83a3308",
          "topics": [
            "0xa2ecdf3a87e9ffdb151ad823ae834f6165f94e54e5a30467175e075254eb6376"
          ],
          "data": "0x0000000000000000000000004c62f6121e6f967a0872da8364995e9b68c1e82f0000000000000000000000000000000000000000000000000000000000000000000000000000000000000000000000000000000000000000000000000000000000000000000000000000000000000000000000000000000000000000000000000000000000000000000000000000000000000000000000000000000000000000000000000000000000000000000000000000000000000000000000006979466d0000000000000000000000000000000000000000000000000000000069793be1",
          "blockHash": "0xbcde131cdbfcd189c012c2f018a4419adf10e5868b1a3a5c0354d38c9833f3a5",
          "blockNumber": "0x18739dc",
          "transactionHash": "0x465fa7853a750d43df670deddabdddbeb614ded490c226d9da1e5fcec44e48d7",
          "transactionIndex": "0x2e",
          "logIndex": "0xaa",
          "removed": false
        },
        {
          "address": "0xdc45e5469a8b6d020473f69fec91c0f0e83a3308",
          "topics": [
            "0xe044087a71e55f84948ec1c9a326d935d50b09a1b97fa24ac3721c9437525359"
          ],
          "data": "0x0000000000000000000000004c62f6121e6f967a0872da8364995e9b68c1e82f00000000000000000000000000000000000000000000000000000000000007c00000000000000000000000000000000000000000000000000000000000000190",
          "blockHash": "0xbcde131cdbfcd189c012c2f018a4419adf10e5868b1a3a5c0354d38c9833f3a5",
          "blockNumber": "0x18739dc",
          "transactionHash": "0x465fa7853a750d43df670deddabdddbeb614ded490c226d9da1e5fcec44e48d7",
          "transactionIndex": "0x2e",
          "logIndex": "0xab",
          "removed": false
        }
      ],
      "logsBloom": "0x00000000000000000000000000000000000000000001000000000000000000000000000000100000000000000000000000000000000000000000000000000000000000000000000000000000000000000000000000002000000000000000000000000000000000002000000004000000000000000000000000000000000000000000000000000000000000000000000000000000000400000000000000000000000000000000000000000000000000000000002000000000000000000000000000000000000000000000000000000000000000000000000000000000000000000000000000000000000000000000400000000000000000000000000100000000",
      "type": "0x2",
      "transactionHash": "0x465fa7853a750d43df670deddabdddbeb614ded490c226d9da1e5fcec44e48d7",
      "transactionIndex": "0x2e",
      "blockHash": "0xbcde131cdbfcd189c012c2f018a4419adf10e5868b1a3a5c0354d38c9833f3a5",
      "blockNumber": "0x18739dc",
      "gasUsed": "0x28462",
      "effectiveGasPrice": "0x463a6383b7d3e",
      "from": "0x4c62f6121e6f967a0872da8364995e9b68c1e82f",
      "to": "0xdc45e5469a8b6d020473f69fec91c0f0e83a3308",
      "contractAddress": null
    }
  ],
  "libraries": [],
  "pending": [],
  "returns": {},
  "timestamp": 1769552865737,
  "chain": 369,
  "commit": null
}