{
  "transactions": [
    {
      "hash": "0x2af48d4c0ce676b9dc37d25ff16ad255a4e6cc54e1d9cab6a341288523c8af8c",
      "transactionType": "CALL",
      "contractName": null,
      "contractAddress": "0xdc45e5469a8b6d020473f69fec91c0f0e83a3308",
      "function": "trainSkill(uint8)",
      "arguments": [
        "0"
      ],
      "transaction": {
        "from": "0xaa73aa98480757d75aae288b5931261448eb0530",
        "to": "0xdc45e5469a8b6d020473f69fec91c0f0e83a3308",
        "gas": "0x38605",
        "value": "0x0",
        "input": "0xa0a73d0d0000000000000000000000000000000000000000000000000000000000000000",
        "nonce": "0x52",
        "chainId": "0x171"
      },
      "additionalContracts": [],
      "isFixedGasLimit": false
    }
  ],
  "receipts": [
    {
      "status": "0x1",
      "cumulativeGasUsed": "0x1693020",
      "logs": [
        {
          "address": "0xdc45e5469a8b6d020473f69fec91c0f0e83a3308",
          "topics": [
            "0xa2ecdf3a87e9ffdb151ad823ae834f6165f94e54e5a30467175e075254eb6376"
          ],
          "data": "0x000000000000000000000000aa73aa98480757d75aae288b5931261448eb05300000000000000000000000000000000000000000000000000000000000000000000000000000000000000000000000000000000000000000000000000000000000000000000000000000000000000000000000000000000000000000000000000000000000000000000000000000000000000000000000000000000000000000000000000000000000000000000000000000000000000000000000006987ea83000000000000000000000000000000000000000000000000000000006987dff7",
          "blockHash": "0x583b664cb14c25408f0cf12db6ea791f580cfb74ec729d9785c63bb31268df6e",
          "blockNumber": "0x188a752",
          "transactionHash": "0x2af48d4c0ce676b9dc37d25ff16ad255a4e6cc54e1d9cab6a341288523c8af8c",
          "transactionIndex": "0x7b",
          "logIndex": "0x26c",
          "removed": false
        },
        {
          "address": "0xdc45e5469a8b6d020473f69fec91c0f0e83a3308",
          "topics": [
            "0xe044087a71e55f84948ec1c9a326d935d50b09a1b97fa24ac3721c9437525359"
          ],
          "data": "0x000000000000000000000000aa73aa98480757d75aae288b5931261448eb053000000000000000000000000000000000000000000000000000000000000015650000000000000000000000000000000000000000000000000000000000000190",
          "blockHash": "0x583b664cb14c25408f0cf12db6ea791f580cfb74ec729d9785c63bb31268df6e",
          "blockNumber": "0x188a752",
          "transactionHash": "0x2af48d4c0ce676b9dc37d25ff16ad255a4e6cc54e1d9cab6a341288523c8af8c",
          "transactionIndex": "0x7b",
          "logIndex": "0x26d",
          "removed": false
        }
      ],
      "logsBloom": "0x00000000000000000000000000000000000000000001000000000000000000000000000000100000000000000000000000000000000000000000000000000000000000000000000000000000000000000000000000002000000000000000000000000000000000002000000004000000000000000000000000000000000000000000000000000000000000000000000000000000000400000000000000000000000000000000000000000000000000000000002000000000000000000000000000000000000000000000000000000000000000000000000000000000000000000000000000000000000000000000400000000000000000000000000100000000",
      "type": "0x2",
      "transactionHash": "0x2af48d4c0ce676b9dc37d25ff16ad255a4e6cc54e1d9cab6a341288523c8af8c",
      "transactionIndex": "0x7b",
      "blockHash": "0x583b664cb14c25408f0cf12db6ea791f580cfb74ec729d9785c63bb31268df6e",
      "blockNumber": "0x188a752",
      "gasUsed": "0x28d0d",
      "effectiveGasPrice": "0x3431cccea1ffe",
      "from": "0xaa73aa98480757d75aae288b5931261448eb0530",
      "to": "0xdc45e5469a8b6d020473f69fec91c0f0e83a3308",
      "contractAddress": null
    }
  ],
  "libraries": [],
  "pending": [],
  "returns": {},
  "timestamp": 1770512377581,
  "chain": 369,
  "commit": null
}