{
  "transactions": [
    {
      "hash": "0xc5c84f6bc34b78f92649d6de3776124fb4d4134f1ab2e09184242668108c9ea4",
      "transactionType": "CALL",
      "contractName": null,
      "contractAddress": "0xdc45e5469a8b6d020473f69fec91c0f0e83a3308",
      "function": "trainSkill(uint8)",
      "arguments": [
        "0"
      ],
      "transaction": {
        "from": "0x4c62f6121e6f967a0872da8364995e9b68c1e82f",
        "to": "0xdc45e5469a8b6d020473f69fec91c0f0e83a3308",
        "gas": "0x38605",
        "value": "0x0",
        "input": "0xa0a73d0d0000000000000000000000000000000000000000000000000000000000000000",
        "nonce": "0x978",
        "chainId": "0x171"
      },
      "additionalContracts": [],
      "isFixedGasLimit": false
    }
  ],
  "receipts": [
    {
      "status": "0x1",
      "cumulativeGasUsed": "0x7d7522",
      "logs": [
        {
          "address": "0xdc45e5469a8b6d020473f69fec91c0f0e83a3308",
          "topics": [
            "0xa2ecdf3a87e9ffdb151ad823ae834f6165f94e54e5a30467175e075254eb6376"
          ],
          "data": "0x0000000000000000000000004c62f6121e6f967a0872da8364995e9b68c1e82f000000000000000000000000000000000000000000000000000000000000000000000000000000000000000000000000000000000000000000000000000000000000000000000000000000000000000000000000000000000000000000000000000000000000000000000000000000000000000000000000000000000000000000000000000000000000000000000000000000000000000000000000698816070000000000000000000000000000000000000000000000000000000069880b7b",
          "blockHash": "0x4eaa7562c028b753c8f5defee302ba31b2d095dfbefd51401120e5547ee827d4",
          "blockNumber": "0x188ab9a",
          "transactionHash": "0xc5c84f6bc34b78f92649d6de3776124fb4d4134f1ab2e09184242668108c9ea4",
          "transactionIndex": "0x24",
          "logIndex": "0x8c",
          "removed": false
        },
        {
          "address": "0xdc45e5469a8b6d020473f69fec91c0f0e83a3308",
          "topics": [
            "0xe044087a71e55f84948ec1c9a326d935d50b09a1b97fa24ac3721c9437525359"
          ],
          "data": "0x0000000000000000000000004c62f6121e6f967a0872da8364995e9b68c1e82f0000000000000000000000000000000000000000000000000000000000001c820000000000000000000000000000000000000000000000000000000000000190",
          "blockHash": "0x4eaa7562c028b753c8f5defee302ba31b2d095dfbefd51401120e5547ee827d4",
          "blockNumber": "0x188ab9a",
          "transactionHash": "0xc5c84f6bc34b78f92649d6de3776124fb4d4134f1ab2e09184242668108c9ea4",
          "transactionIndex": "0x24",
          "logIndex": "0x8d",
          "removed": false
        }
      ],
      "logsBloom": "0x00000000000000000000000000000000000000000001000000000000000000000000000000100000000000000000000000000000000000000000000000000000000000000000000000000000000000000000000000002000000000000000000000000000000000002000000004000000000000000000000000000000000000000000000000000000000000000000000000000000000400000000000000000000000000000000000000000000000000000000002000000000000000000000000000000000000000000000000000000000000000000000000000000000000000000000000000000000000000000000400000000000000000000000000100000000",
      "type": "0x2",
      "transactionHash": "0xc5c84f6bc34b78f92649d6de3776124fb4d4134f1ab2e09184242668108c9ea4",
      "transactionIndex": "0x24",
      "blockHash": "0x4eaa7562c028b753c8f5defee302ba31b2d095dfbefd51401120e5547ee827d4",
      "blockNumber": "0x188ab9a",
      "gasUsed": "0x28d0d",
      "effectiveGasPrice": "0x2bd369f5f6e6c",
      "from": "0x4c62f6121e6f967a0872da8364995e9b68c1e82f",
      "to": "0xdc45e5469a8b6d020473f69fec91c0f0e83a3308",
      "contractAddress": null
    }
  ],
  "libraries": [],
  "pending": [],
  "returns": {},
  "timestamp": 1770523515505,
  "chain": 369,
  "commit": null
}