{
  "transactions": [
    {
      "hash": "0x35d49a3b8037dfd5a85be699bfce3b961d019dab00445b035d70aaf59c682616",
      "transactionType": "CALL",
      "contractName": null,
      "contractAddress": "0xdc45e5469a8b6d020473f69fec91c0f0e83a3308",
      "function": "trainSkill(uint8)",
      "arguments": [
        "0"
      ],
      "transaction": {
        "from": "0x4c62f6121e6f967a0872da8364995e9b68c1e82f",
        "to": "0xdc45e5469a8b6d020473f69fec91c0f0e83a3308",
        "gas": "0x379ba",
        "value": "0x0",
        "input": "0xa0a73d0d0000000000000000000000000000000000000000000000000000000000000000",
        "nonce": "0x739",
        "chainId": "0x171"
      },
      "additionalContracts": [],
      "isFixedGasLimit": false
    }
  ],
  "receipts": [
    {
      "status": "0x1",
      "cumulativeGasUsed": "0x1111d77",
      "logs": [
        {
          "address": "0xdc45e5469a8b6d020473f69fec91c0f0e83a3308",
          "topics": [
            "0xa2ecdf3a87e9ffdb151ad823ae834f6165f94e54e5a30467175e075254eb6376"
          ],
          "data": "0x0000000000000000000000004c62f6121e6f967a0872da8364995e9b68c1e82f000000000000000000000000000000000000000000000000000000000000000000000000000000000000000000000000000000000000000000000000000000000000000000000000000000000000000000000000000000000000000000000000000000000000000000000000000000000000000000000000000000000000000000000000000000000000000000000000000000000000000000000000697a20e700000000000000000000000000000000000000000000000000000000697a165b",
          "blockHash": "0x7536b08e1e2f9df3c54807d6189a9d4e3faec165777f31b2d4691033dab8eded",
          "blockNumber": "0x1874f3a",
          "transactionHash": "0x35d49a3b8037dfd5a85be699bfce3b961d019dab00445b035d70aaf59c682616",
          "transactionIndex": "0x17",
          "logIndex": "0x401",
          "removed": false
        },
        {
          "address": "0xdc45e5469a8b6d020473f69fec91c0f0e83a3308",
          "topics": [
            "0xe044087a71e55f84948ec1c9a326d935d50b09a1b97fa24ac3721c9437525359"
          ],
          "data": "0x0000000000000000000000004c62f6121e6f967a0872da8364995e9b68c1e82f00000000000000000000000000000000000000000000000000000000000016490000000000000000000000000000000000000000000000000000000000000190",
          "blockHash": "0x7536b08e1e2f9df3c54807d6189a9d4e3faec165777f31b2d4691033dab8eded",
          "blockNumber": "0x1874f3a",
          "transactionHash": "0x35d49a3b8037dfd5a85be699bfce3b961d019dab00445b035d70aaf59c682616",
          "transactionIndex": "0x17",
          "logIndex": "0x402",
          "removed": false
        }
      ],
      "logsBloom": "0x00000000000000000000000000000000000000000001000000000000000000000000000000100000000000000000000000000000000000000000000000000000000000000000000000000000000000000000000000002000000000000000000000000000000000002000000004000000000000000000000000000000000000000000000000000000000000000000000000000000000400000000000000000000000000000000000000000000000000000000002000000000000000000000000000000000000000000000000000000000000000000000000000000000000000000000000000000000000000000000400000000000000000000000000100000000",
      "type": "0x2",
      "transactionHash": "0x35d49a3b8037dfd5a85be699bfce3b961d019dab00445b035d70aaf59c682616",
      "transactionIndex": "0x17",
      "blockHash": "0x7536b08e1e2f9df3c54807d6189a9d4e3faec165777f31b2d4691033dab8eded",
      "blockNumber": "0x1874f3a",
      "gasUsed": "0x28426",
      "effectiveGasPrice": "0x2b796326f4ee9",
      "from": "0x4c62f6121e6f967a0872da8364995e9b68c1e82f",
      "to": "0xdc45e5469a8b6d020473f69fec91c0f0e83a3308",
      "contractAddress": null
    }
  ],
  "libraries": [],
  "pending": [],
  "returns": {},
  "timestamp": 1769608795944,
  "chain": 369,
  "commit": null
}