{
  "transactions": [
    {
      "hash": "0x3a6660c15e95b45353b2d754f20a19e5aa9c456d02beab6b2d6d2f9c5485c6a5",
      "transactionType": "CALL",
      "contractName": null,
      "contractAddress": "0xdc45e5469a8b6d020473f69fec91c0f0e83a3308",
      "function": "trainSkill(uint8)",
      "arguments": [
        "0"
      ],
      "transaction": {
        "from": "0x4c62f6121e6f967a0872da8364995e9b68c1e82f",
        "to": "0xdc45e5469a8b6d020473f69fec91c0f0e83a3308",
        "gas": "0x38605",
        "value": "0x0",
        "input": "0xa0a73d0d0000000000000000000000000000000000000000000000000000000000000000",
        "nonce": "0x976",
        "chainId": "0x171"
      },
      "additionalContracts": [],
      "isFixedGasLimit": false
    }
  ],
  "receipts": [
    {
      "status": "0x1",
      "cumulativeGasUsed": "0x443505",
      "logs": [
        {
          "address": "0xdc45e5469a8b6d020473f69fec91c0f0e83a3308",
          "topics": [
            "0xa2ecdf3a87e9ffdb151ad823ae834f6165f94e54e5a30467175e075254eb6376"
          ],
          "data": "0x0000000000000000000000004c62f6121e6f967a0872da8364995e9b68c1e82f0000000000000000000000000000000000000000000000000000000000000000000000000000000000000000000000000000000000000000000000000000000000000000000000000000000000000000000000000000000000000000000000000000000000000000000000000000000000000000000000000000000000000000000000000000000000000000000000000000000000000000000000006988004f000000000000000000000000000000000000000000000000000000006987f5c3",
          "blockHash": "0x9d2287020298cb4a0e93bc3bbcd5f72c0e7f3ccbdb9e4beb089ac64bd6338162",
          "blockNumber": "0x188a977",
          "transactionHash": "0x3a6660c15e95b45353b2d754f20a19e5aa9c456d02beab6b2d6d2f9c5485c6a5",
          "transactionIndex": "0x17",
          "logIndex": "0x68",
          "removed": false
        },
        {
          "address": "0xdc45e5469a8b6d020473f69fec91c0f0e83a3308",
          "topics": [
            "0xe044087a71e55f84948ec1c9a326d935d50b09a1b97fa24ac3721c9437525359"
          ],
          "data": "0x0000000000000000000000004c62f6121e6f967a0872da8364995e9b68c1e82f0000000000000000000000000000000000000000000000000000000000000ed50000000000000000000000000000000000000000000000000000000000000190",
          "blockHash": "0x9d2287020298cb4a0e93bc3bbcd5f72c0e7f3ccbdb9e4beb089ac64bd6338162",
          "blockNumber": "0x188a977",
          "transactionHash": "0x3a6660c15e95b45353b2d754f20a19e5aa9c456d02beab6b2d6d2f9c5485c6a5",
          "transactionIndex": "0x17",
          "logIndex": "0x69",
          "removed": false
        }
      ],
      "logsBloom": "0x00000000000000000000000000000000000000000001000000000000000000000000000000100000000000000000000000000000000000000000000000000000000000000000000000000000000000000000000000002000000000000000000000000000000000002000000004000000000000000000000000000000000000000000000000000000000000000000000000000000000400000000000000000000000000000000000000000000000000000000002000000000000000000000000000000000000000000000000000000000000000000000000000000000000000000000000000000000000000000000400000000000000000000000000100000000",
      "type": "0x2",
      "transactionHash": "0x3a6660c15e95b45353b2d754f20a19e5aa9c456d02beab6b2d6d2f9c5485c6a5",
      "transactionIndex": "0x17",
      "blockHash": "0x9d2287020298cb4a0e93bc3bbcd5f72c0e7f3ccbdb9e4beb089ac64bd6338162",
      "blockNumber": "0x188a977",
      "gasUsed": "0x28d0d",
      "effectiveGasPrice": "0x2c728bad98019",
      "from": "0x4c62f6121e6f967a0872da8364995e9b68c1e82f",
      "to": "0xdc45e5469a8b6d020473f69fec91c0f0e83a3308",
      "contractAddress": null
    }
  ],
  "libraries": [],
  "pending": [],
  "returns": {},
  "timestamp": 1770517955836,
  "chain": 369,
  "commit": null
}