{
  "transactions": [
    {
      "hash": "0xbea39a642b3720eb2994b2419a9cdcfe4d19aed0fea26377e8885c75961cd2cb",
      "transactionType": "CALL",
      "contractName": null,
      "contractAddress": "0xdc45e5469a8b6d020473f69fec91c0f0e83a3308",
      "function": "trainSkill(uint8)",
      "arguments": [
        "0"
      ],
      "transaction": {
        "from": "0x4c62f6121e6f967a0872da8364995e9b68c1e82f",
        "to": "0xdc45e5469a8b6d020473f69fec91c0f0e83a3308",
        "gas": "0x379ba",
        "value": "0x0",
        "input": "0xa0a73d0d0000000000000000000000000000000000000000000000000000000000000000",
        "nonce": "0x737",
        "chainId": "0x171"
      },
      "additionalContracts": [],
      "isFixedGasLimit": false
    }
  ],
  "receipts": [
    {
      "status": "0x1",
      "cumulativeGasUsed": "0x116fea0",
      "logs": [
        {
          "address": "0xdc45e5469a8b6d020473f69fec91c0f0e83a3308",
          "topics": [
            "0xa2ecdf3a87e9ffdb151ad823ae834f6165f94e54e5a30467175e075254eb6376"
          ],
          "data": "0x0000000000000000000000004c62f6121e6f967a0872da8364995e9b68c1e82f000000000000000000000000000000000000000000000000000000000000000000000000000000000000000000000000000000000000000000000000000000000000000000000000000000000000000000000000000000000000000000000000000000000000000000000000000000000000000000000000000000000000000000000000000000000000000000000000000000000000000000000000697a0b2f00000000000000000000000000000000000000000000000000000000697a00a3",
          "blockHash": "0x3e655ac443a2d87299d0f492acde5b14c4fc9adb44770768a29eb566b4515da3",
          "blockNumber": "0x1874d1b",
          "transactionHash": "0xbea39a642b3720eb2994b2419a9cdcfe4d19aed0fea26377e8885c75961cd2cb",
          "transactionIndex": "0x23",
          "logIndex": "0x2e9",
          "removed": false
        },
        {
          "address": "0xdc45e5469a8b6d020473f69fec91c0f0e83a3308",
          "topics": [
            "0xe044087a71e55f84948ec1c9a326d935d50b09a1b97fa24ac3721c9437525359"
          ],
          "data": "0x0000000000000000000000004c62f6121e6f967a0872da8364995e9b68c1e82f000000000000000000000000000000000000000000000000000000000000202a0000000000000000000000000000000000000000000000000000000000000190",
          "blockHash": "0x3e655ac443a2d87299d0f492acde5b14c4fc9adb44770768a29eb566b4515da3",
          "blockNumber": "0x1874d1b",
          "transactionHash": "0xbea39a642b3720eb2994b2419a9cdcfe4d19aed0fea26377e8885c75961cd2cb",
          "transactionIndex": "0x23",
          "logIndex": "0x2ea",
          "removed": false
        }
      ],
      "logsBloom": "0x00000000000000000000000000000000000000000001000000000000000000000000000000100000000000000000000000000000000000000000000000000000000000000000000000000000000000000000000000002000000000000000000000000000000000002000000004000000000000000000000000000000000000000000000000000000000000000000000000000000000400000000000000000000000000000000000000000000000000000000002000000000000000000000000000000000000000000000000000000000000000000000000000000000000000000000000000000000000000000000400000000000000000000000000100000000",
      "type": "0x2",
      "transactionHash": "0xbea39a642b3720eb2994b2419a9cdcfe4d19aed0fea26377e8885c75961cd2cb",
      "transactionIndex": "0x23",
      "blockHash": "0x3e655ac443a2d87299d0f492acde5b14c4fc9adb44770768a29eb566b4515da3",
      "blockNumber": "0x1874d1b",
      "gasUsed": "0x28426",
      "effectiveGasPrice": "0x1be48811ccf5b",
      "from": "0x4c62f6121e6f967a0872da8364995e9b68c1e82f",
      "to": "0xdc45e5469a8b6d020473f69fec91c0f0e83a3308",
      "contractAddress": null
    }
  ],
  "libraries": [],
  "pending": [],
  "returns": {},
  "timestamp": 1769603235577,
  "chain": 369,
  "commit": null
}