{
  "transactions": [
    {
      "hash": "0x8ffb94832de17cb73d29295aab354da024a9eeede72155991015a736c9e1a8f5",
      "transactionType": "CALL",
      "contractName": null,
      "contractAddress": "0xdc45e5469a8b6d020473f69fec91c0f0e83a3308",
      "function": "trainSkill(uint8)",
      "arguments": [
        "0"
      ],
      "transaction": {
        "from": "0xeca7a53ba6a190c5d205bfdc7707cbc3399336c1",
        "to": "0xdc45e5469a8b6d020473f69fec91c0f0e83a3308",
        "gas": "0x3bbb4",
        "value": "0x0",
        "input": "0xa0a73d0d0000000000000000000000000000000000000000000000000000000000000000",
        "nonce": "0x39b",
        "chainId": "0x171"
      },
      "additionalContracts": [],
      "isFixedGasLimit": false
    }
  ],
  "receipts": [
    {
      "status": "0x1",
      "cumulativeGasUsed": "0x12766e2",
      "logs": [
        {
          "address": "0xdc45e5469a8b6d020473f69fec91c0f0e83a3308",
          "topics": [
            "0xa2ecdf3a87e9ffdb151ad823ae834f6165f94e54e5a30467175e075254eb6376"
          ],
          "data": "0x000000000000000000000000eca7a53ba6a190c5d205bfdc7707cbc3399336c10000000000000000000000000000000000000000000000000000000000000000000000000000000000000000000000000000000000000000000000000000000000000000000000000000000000000000000000000000000000000000000000000000000000000000000000000000000000000000000000000000000000000000000000000000000000000000000000000000000000000000000000006979e18b000000000000000000000000000000000000000000000000000000006979d6ff",
          "blockHash": "0xc1ed9295157d1ee9d5b24e57545874bb1c3187d9a1cb31a291d40786bbee34c1",
          "blockNumber": "0x1874903",
          "transactionHash": "0x8ffb94832de17cb73d29295aab354da024a9eeede72155991015a736c9e1a8f5",
          "transactionIndex": "0x12",
          "logIndex": "0x3f1",
          "removed": false
        },
        {
          "address": "0xdc45e5469a8b6d020473f69fec91c0f0e83a3308",
          "topics": [
            "0xe044087a71e55f84948ec1c9a326d935d50b09a1b97fa24ac3721c9437525359"
          ],
          "data": "0x000000000000000000000000eca7a53ba6a190c5d205bfdc7707cbc3399336c100000000000000000000000000000000000000000000000000000000000010be0000000000000000000000000000000000000000000000000000000000000190",
          "blockHash": "0xc1ed9295157d1ee9d5b24e57545874bb1c3187d9a1cb31a291d40786bbee34c1",
          "blockNumber": "0x1874903",
          "transactionHash": "0x8ffb94832de17cb73d29295aab354da024a9eeede72155991015a736c9e1a8f5",
          "transactionIndex": "0x12",
          "logIndex": "0x3f2",
          "removed": false
        }
      ],
      "logsBloom": "0x00000000000000000000000000000000000000000001000000000000000000000000000000100000000000000000000000000000000000000000000000000000000000000000000000000000000000000000000000002000000000000000000000000000000000002000000004000000000000000000000000000000000000000000000000000000000000000000000000000000000400000000000000000000000000000000000000000000000000000000002000000000000000000000000000000000000000000000000000000000000000000000000000000000000000000000000000000000000000000000400000000000000000000000000100000000",
      "type": "0x2",
      "transactionHash": "0x8ffb94832de17cb73d29295aab354da024a9eeede72155991015a736c9e1a8f5",
      "transactionIndex": "0x12",
      "blockHash": "0xc1ed9295157d1ee9d5b24e57545874bb1c3187d9a1cb31a291d40786bbee34c1",
      "blockNumber": "0x1874903",
      "gasUsed": "0x28d79",
      "effectiveGasPrice": "0x1abe7dfcd5898",
      "from": "0xeca7a53ba6a190c5d205bfdc7707cbc3399336c1",
      "to": "0xdc45e5469a8b6d020473f69fec91c0f0e83a3308",
      "contractAddress": null
    }
  ],
  "libraries": [],
  "pending": [],
  "returns": {},
  "timestamp": 1769592576533,
  "chain": 369,
  "commit": null
}