{
  "transactions": [
    {
      "hash": "0xab46322a353919e0c9088e20a33acca175e5ce272e61ea106834d35093c2c73a",
      "transactionType": "CALL",
      "contractName": null,
      "contractAddress": "0xdc45e5469a8b6d020473f69fec91c0f0e83a3308",
      "function": "trainSkill(uint8)",
      "arguments": [
        "0"
      ],
      "transaction": {
        "from": "0x4c62f6121e6f967a0872da8364995e9b68c1e82f",
        "to": "0xdc45e5469a8b6d020473f69fec91c0f0e83a3308",
        "gas": "0x38605",
        "value": "0x0",
        "input": "0xa0a73d0d0000000000000000000000000000000000000000000000000000000000000000",
        "nonce": "0x97a",
        "chainId": "0x171"
      },
      "additionalContracts": [],
      "isFixedGasLimit": false
    }
  ],
  "receipts": [
    {
      "status": "0x1",
      "cumulativeGasUsed": "0x1b50b47",
      "logs": [
        {
          "address": "0xdc45e5469a8b6d020473f69fec91c0f0e83a3308",
          "topics": [
            "0xa2ecdf3a87e9ffdb151ad823ae834f6165f94e54e5a30467175e075254eb6376"
          ],
          "data": "0x0000000000000000000000004c62f6121e6f967a0872da8364995e9b68c1e82f00000000000000000000000000000000000000000000000000000000000000000000000000000000000000000000000000000000000000000000000000000000000000000000000000000000000000000000000000000000000000000000000000000000000000000000000000000000000000000000000000000000000000000000000000000000000000000000000000000000000000000000000069882bbf0000000000000000000000000000000000000000000000000000000069882133",
          "blockHash": "0x19129efcfb4927d863e670c54017042c8b7a4b786e15aaac23cac9ab15dbcd5c",
          "blockNumber": "0x188adb9",
          "transactionHash": "0xab46322a353919e0c9088e20a33acca175e5ce272e61ea106834d35093c2c73a",
          "transactionIndex": "0x33",
          "logIndex": "0x466",
          "removed": false
        },
        {
          "address": "0xdc45e5469a8b6d020473f69fec91c0f0e83a3308",
          "topics": [
            "0xe044087a71e55f84948ec1c9a326d935d50b09a1b97fa24ac3721c9437525359"
          ],
          "data": "0x0000000000000000000000004c62f6121e6f967a0872da8364995e9b68c1e82f0000000000000000000000000000000000000000000000000000000000001a8f0000000000000000000000000000000000000000000000000000000000000190",
          "blockHash": "0x19129efcfb4927d863e670c54017042c8b7a4b786e15aaac23cac9ab15dbcd5c",
          "blockNumber": "0x188adb9",
          "transactionHash": "0xab46322a353919e0c9088e20a33acca175e5ce272e61ea106834d35093c2c73a",
          "transactionIndex": "0x33",
          "logIndex": "0x467",
          "removed": false
        }
      ],
      "logsBloom": "0x00000000000000000000000000000000000000000001000000000000000000000000000000100000000000000000000000000000000000000000000000000000000000000000000000000000000000000000000000002000000000000000000000000000000000002000000004000000000000000000000000000000000000000000000000000000000000000000000000000000000400000000000000000000000000000000000000000000000000000000002000000000000000000000000000000000000000000000000000000000000000000000000000000000000000000000000000000000000000000000400000000000000000000000000100000000",
      "type": "0x2",
      "transactionHash": "0xab46322a353919e0c9088e20a33acca175e5ce272e61ea106834d35093c2c73a",
      "transactionIndex": "0x33",
      "blockHash": "0x19129efcfb4927d863e670c54017042c8b7a4b786e15aaac23cac9ab15dbcd5c",
      "blockNumber": "0x188adb9",
      "gasUsed": "0x28d0d",
      "effectiveGasPrice": "0x2b2b454381066",
      "from": "0x4c62f6121e6f967a0872da8364995e9b68c1e82f",
      "to": "0xdc45e5469a8b6d020473f69fec91c0f0e83a3308",
      "contractAddress": null
    }
  ],
  "libraries": [],
  "pending": [],
  "returns": {},
  "timestamp": 1770529076503,
  "chain": 369,
  "commit": null
}