{
  "transactions": [
    {
      "hash": "0x66e1166853511e2df3375410e609bded7c1fea47cdddce0ead288c559d6db231",
      "transactionType": "CALL",
      "contractName": null,
      "contractAddress": "0xdc45e5469a8b6d020473f69fec91c0f0e83a3308",
      "function": "trainSkill(uint8)",
      "arguments": [
        "0"
      ],
      "transaction": {
        "from": "0xac56dc5a4a9de0197f7b8f584ea04ec7e0123dde",
        "to": "0xdc45e5469a8b6d020473f69fec91c0f0e83a3308",
        "gas": "0x3ae68",
        "value": "0x0",
        "input": "0xa0a73d0d0000000000000000000000000000000000000000000000000000000000000000",
        "nonce": "0x2b3",
        "chainId": "0x171"
      },
      "additionalContracts": [],
      "isFixedGasLimit": false
    }
  ],
  "receipts": [
    {
      "status": "0x1",
      "cumulativeGasUsed": "0xc13a28",
      "logs": [
        {
          "address": "0xdc45e5469a8b6d020473f69fec91c0f0e83a3308",
          "topics": [
            "0xa2ecdf3a87e9ffdb151ad823ae834f6165f94e54e5a30467175e075254eb6376"
          ],
          "data": "0x000000000000000000000000ac56dc5a4a9de0197f7b8f584ea04ec7e0123dde0000000000000000000000000000000000000000000000000000000000000000000000000000000000000000000000000000000000000000000000000000000000000000000000000000000000000000000000000000000000000000000000000000000000000000000000000000000000000000000000000000000000000000000000000000000000000000000000000000000000000000000000006977542f00000000000000000000000000000000000000000000000000000000697749a3",
          "blockHash": "0x6f75ce30f390311abc0e775eb5a3285e73f2fe56fd55b0d66e7a2d362afb13cc",
          "blockNumber": "0x187092b",
          "transactionHash": "0x66e1166853511e2df3375410e609bded7c1fea47cdddce0ead288c559d6db231",
          "transactionIndex": "0x10",
          "logIndex": "0x282",
          "removed": false
        },
        {
          "address": "0xdc45e5469a8b6d020473f69fec91c0f0e83a3308",
          "topics": [
            "0xe044087a71e55f84948ec1c9a326d935d50b09a1b97fa24ac3721c9437525359"
          ],
          "data": "0x000000000000000000000000ac56dc5a4a9de0197f7b8f584ea04ec7e0123dde00000000000000000000000000000000000000000000000000000000000006700000000000000000000000000000000000000000000000000000000000000190",
          "blockHash": "0x6f75ce30f390311abc0e775eb5a3285e73f2fe56fd55b0d66e7a2d362afb13cc",
          "blockNumber": "0x187092b",
          "transactionHash": "0x66e1166853511e2df3375410e609bded7c1fea47cdddce0ead288c559d6db231",
          "transactionIndex": "0x10",
          "logIndex": "0x283",
          "removed": false
        }
      ],
      "logsBloom": "0x00000000000000000000000000000000000000000001000000000000000000000000000000100000000000000000000000000000000000000000000000000000000000000000000000000000000000000000000000002000000000000000000000000000000000002000000004000000000000000000000000000000000000000000000000000000000000000000000000000000000400000000000000000000000000000000000000000000000000000000002000000000000000000000000000000000000000000000000000000000000000000000000000000000000000000000000000000000000000000000400000000000000000000000000100000000",
      "type": "0x2",
      "transactionHash": "0x66e1166853511e2df3375410e609bded7c1fea47cdddce0ead288c559d6db231",
      "transactionIndex": "0x10",
      "blockHash": "0x6f75ce30f390311abc0e775eb5a3285e73f2fe56fd55b0d66e7a2d362afb13cc",
      "blockNumber": "0x187092b",
      "gasUsed": "0x28462",
      "effectiveGasPrice": "0x159a96011aecf",
      "from": "0xac56dc5a4a9de0197f7b8f584ea04ec7e0123dde",
      "to": "0xdc45e5469a8b6d020473f69fec91c0f0e83a3308",
      "contractAddress": null
    }
  ],
  "libraries": [],
  "pending": [],
  "returns": {},
  "timestamp": 1769425316021,
  "chain": 369,
  "commit": "953695a"
}