{
  "transactions": [
    {
      "hash": "0x5ca46b4bf0434683e7f8a1ce3c09a83ad94b584b3e8f59a4bfc4d2b718e46e18",
      "transactionType": "CALL",
      "contractName": null,
      "contractAddress": "0xdc45e5469a8b6d020473f69fec91c0f0e83a3308",
      "function": "trainSkill(uint8)",
      "arguments": [
        "0"
      ],
      "transaction": {
        "from": "0xeca7a53ba6a190c5d205bfdc7707cbc3399336c1",
        "to": "0xdc45e5469a8b6d020473f69fec91c0f0e83a3308",
        "gas": "0x392e7",
        "value": "0x0",
        "input": "0xa0a73d0d0000000000000000000000000000000000000000000000000000000000000000",
        "nonce": "0x56f",
        "chainId": "0x171"
      },
      "additionalContracts": [],
      "isFixedGasLimit": false
    }
  ],
  "receipts": [
    {
      "status": "0x1",
      "cumulativeGasUsed": "0x20a0a63",
      "logs": [
        {
          "address": "0xdc45e5469a8b6d020473f69fec91c0f0e83a3308",
          "topics": [
            "0xa2ecdf3a87e9ffdb151ad823ae834f6165f94e54e5a30467175e075254eb6376"
          ],
          "data": "0x000000000000000000000000eca7a53ba6a190c5d205bfdc7707cbc3399336c10000000000000000000000000000000000000000000000000000000000000000000000000000000000000000000000000000000000000000000000000000000000000000000000000000000000000000000000000000000000000000000000000000000000000000000000000000000000000000000000000000000000000000000000000000000000000000000000000000000000000000000000006987c387000000000000000000000000000000000000000000000000000000006987b8fb",
          "blockHash": "0x185e49ecc9f1fcbb16db9b0066eb2ceb588148f8445fe7c1bfbd0a32f79c99c3",
          "blockNumber": "0x188a38e",
          "transactionHash": "0x5ca46b4bf0434683e7f8a1ce3c09a83ad94b584b3e8f59a4bfc4d2b718e46e18",
          "transactionIndex": "0x8f",
          "logIndex": "0x1a9",
          "removed": false
        },
        {
          "address": "0xdc45e5469a8b6d020473f69fec91c0f0e83a3308",
          "topics": [
            "0xe044087a71e55f84948ec1c9a326d935d50b09a1b97fa24ac3721c9437525359"
          ],
          "data": "0x000000000000000000000000eca7a53ba6a190c5d205bfdc7707cbc3399336c10000000000000000000000000000000000000000000000000000000000001dbf0000000000000000000000000000000000000000000000000000000000000190",
          "blockHash": "0x185e49ecc9f1fcbb16db9b0066eb2ceb588148f8445fe7c1bfbd0a32f79c99c3",
          "blockNumber": "0x188a38e",
          "transactionHash": "0x5ca46b4bf0434683e7f8a1ce3c09a83ad94b584b3e8f59a4bfc4d2b718e46e18",
          "transactionIndex": "0x8f",
          "logIndex": "0x1aa",
          "removed": false
        }
      ],
      "logsBloom": "0x00000000000000000000000000000000000000000001000000000000000000000000000000100000000000000000000000000000000000000000000000000000000000000000000000000000000000000000000000002000000000000000000000000000000000002000000004000000000000000000000000000000000000000000000000000000000000000000000000000000000400000000000000000000000000000000000000000000000000000000002000000000000000000000000000000000000000000000000000000000000000000000000000000000000000000000000000000000000000000000400000000000000000000000000100000000",
      "type": "0x2",
      "transactionHash": "0x5ca46b4bf0434683e7f8a1ce3c09a83ad94b584b3e8f59a4bfc4d2b718e46e18",
      "transactionIndex": "0x8f",
      "blockHash": "0x185e49ecc9f1fcbb16db9b0066eb2ceb588148f8445fe7c1bfbd0a32f79c99c3",
      "blockNumber": "0x188a38e",
      "gasUsed": "0x29660",
      "effectiveGasPrice": "0x2e6ce7d66fb68",
      "from": "0xeca7a53ba6a190c5d205bfdc7707cbc3399336c1",
      "to": "0xdc45e5469a8b6d020473f69fec91c0f0e83a3308",
      "contractAddress": null
    }
  ],
  "libraries": [],
  "pending": [],
  "returns": {},
  "timestamp": 1770502397026,
  "chain": 369,
  "commit": null
}