{
  "transactions": [
    {
      "hash": "0xbfe54bb1f2c3399ce2f48891228b8a78788101ea9e900d22b17457d046ac6f8a",
      "transactionType": "CALL",
      "contractName": null,
      "contractAddress": "0xdc45e5469a8b6d020473f69fec91c0f0e83a3308",
      "function": "trainSkill(uint8)",
      "arguments": [
        "0"
      ],
      "transaction": {
        "from": "0xac56dc5a4a9de0197f7b8f584ea04ec7e0123dde",
        "to": "0xdc45e5469a8b6d020473f69fec91c0f0e83a3308",
        "gas": "0x38605",
        "value": "0x0",
        "input": "0xa0a73d0d0000000000000000000000000000000000000000000000000000000000000000",
        "nonce": "0x4ff",
        "chainId": "0x171"
      },
      "additionalContracts": [],
      "isFixedGasLimit": false
    }
  ],
  "receipts": [
    {
      "status": "0x1",
      "cumulativeGasUsed": "0x1c04f85",
      "logs": [
        {
          "address": "0xdc45e5469a8b6d020473f69fec91c0f0e83a3308",
          "topics": [
            "0xa2ecdf3a87e9ffdb151ad823ae834f6165f94e54e5a30467175e075254eb6376"
          ],
          "data": "0x000000000000000000000000ac56dc5a4a9de0197f7b8f584ea04ec7e0123dde00000000000000000000000000000000000000000000000000000000000000000000000000000000000000000000000000000000000000000000000000000000000000000000000000000000000000000000000000000000000000000000000000000000000000000000000000000000000000000000000000000000000000000000000000000000000000000000000000000000000000000000000069882bb50000000000000000000000000000000000000000000000000000000069882129",
          "blockHash": "0x49e819822e5ad827e17250ef7ade2f04bb596d8b43067afc8138c0d0c3fd70a8",
          "blockNumber": "0x188adb8",
          "transactionHash": "0xbfe54bb1f2c3399ce2f48891228b8a78788101ea9e900d22b17457d046ac6f8a",
          "transactionIndex": "0x31",
          "logIndex": "0x714",
          "removed": false
        },
        {
          "address": "0xdc45e5469a8b6d020473f69fec91c0f0e83a3308",
          "topics": [
            "0xe044087a71e55f84948ec1c9a326d935d50b09a1b97fa24ac3721c9437525359"
          ],
          "data": "0x000000000000000000000000ac56dc5a4a9de0197f7b8f584ea04ec7e0123dde00000000000000000000000000000000000000000000000000000000000018be0000000000000000000000000000000000000000000000000000000000000190",
          "blockHash": "0x49e819822e5ad827e17250ef7ade2f04bb596d8b43067afc8138c0d0c3fd70a8",
          "blockNumber": "0x188adb8",
          "transactionHash": "0xbfe54bb1f2c3399ce2f48891228b8a78788101ea9e900d22b17457d046ac6f8a",
          "transactionIndex": "0x31",
          "logIndex": "0x715",
          "removed": false
        }
      ],
      "logsBloom": "0x00000000000000000000000000000000000000000001000000000000000000000000000000100000000000000000000000000000000000000000000000000000000000000000000000000000000000000000000000002000000000000000000000000000000000002000000004000000000000000000000000000000000000000000000000000000000000000000000000000000000400000000000000000000000000000000000000000000000000000000002000000000000000000000000000000000000000000000000000000000000000000000000000000000000000000000000000000000000000000000400000000000000000000000000100000000",
      "type": "0x2",
      "transactionHash": "0xbfe54bb1f2c3399ce2f48891228b8a78788101ea9e900d22b17457d046ac6f8a",
      "transactionIndex": "0x31",
      "blockHash": "0x49e819822e5ad827e17250ef7ade2f04bb596d8b43067afc8138c0d0c3fd70a8",
      "blockNumber": "0x188adb8",
      "gasUsed": "0x28d0d",
      "effectiveGasPrice": "0x27b3cb21f7d23",
      "from": "0xac56dc5a4a9de0197f7b8f584ea04ec7e0123dde",
      "to": "0xdc45e5469a8b6d020473f69fec91c0f0e83a3308",
      "contractAddress": null
    }
  ],
  "libraries": [],
  "pending": [],
  "returns": {},
  "timestamp": 1770529065858,
  "chain": 369,
  "commit": null
}