{
  "transactions": [
    {
      "hash": "0x0d02198d88ce11575224f0455769bcb4d4f9e22df442887e8a92e6cc40c4fd86",
      "transactionType": "CALL",
      "contractName": null,
      "contractAddress": "0xdc45e5469a8b6d020473f69fec91c0f0e83a3308",
      "function": "trainSkill(uint8)",
      "arguments": [
        "0"
      ],
      "transaction": {
        "from": "0x4c62f6121e6f967a0872da8364995e9b68c1e82f",
        "to": "0xdc45e5469a8b6d020473f69fec91c0f0e83a3308",
        "gas": "0x38605",
        "value": "0x0",
        "input": "0xa0a73d0d0000000000000000000000000000000000000000000000000000000000000000",
        "nonce": "0x76f",
        "chainId": "0x171"
      },
      "additionalContracts": [],
      "isFixedGasLimit": false
    }
  ],
  "receipts": [
    {
      "status": "0x1",
      "cumulativeGasUsed": "0x135d081",
      "logs": [
        {
          "address": "0xdc45e5469a8b6d020473f69fec91c0f0e83a3308",
          "topics": [
            "0xa2ecdf3a87e9ffdb151ad823ae834f6165f94e54e5a30467175e075254eb6376"
          ],
          "data": "0x0000000000000000000000004c62f6121e6f967a0872da8364995e9b68c1e82f000000000000000000000000000000000000000000000000000000000000000000000000000000000000000000000000000000000000000000000000000000000000000000000000000000000000000000000000000000000000000000000000000000000000000000000000000000000000000000000000000000000000000000000000000000000000000000000000000000000000000000000000697b96d900000000000000000000000000000000000000000000000000000000697b8c4d",
          "blockHash": "0x8ae8c583817b94d976b2dc26f3de5a73821c5b60f287d8b87e91e25228e68d84",
          "blockNumber": "0x18773ad",
          "transactionHash": "0x0d02198d88ce11575224f0455769bcb4d4f9e22df442887e8a92e6cc40c4fd86",
          "transactionIndex": "0x27",
          "logIndex": "0x188",
          "removed": false
        },
        {
          "address": "0xdc45e5469a8b6d020473f69fec91c0f0e83a3308",
          "topics": [
            "0xe044087a71e55f84948ec1c9a326d935d50b09a1b97fa24ac3721c9437525359"
          ],
          "data": "0x0000000000000000000000004c62f6121e6f967a0872da8364995e9b68c1e82f00000000000000000000000000000000000000000000000000000000000005170000000000000000000000000000000000000000000000000000000000000190",
          "blockHash": "0x8ae8c583817b94d976b2dc26f3de5a73821c5b60f287d8b87e91e25228e68d84",
          "blockNumber": "0x18773ad",
          "transactionHash": "0x0d02198d88ce11575224f0455769bcb4d4f9e22df442887e8a92e6cc40c4fd86",
          "transactionIndex": "0x27",
          "logIndex": "0x189",
          "removed": false
        }
      ],
      "logsBloom": "0x00000000000000000000000000000000000000000001000000000000000000000000000000100000000000000000000000000000000000000000000000000000000000000000000000000000000000000000000000002000000000000000000000000000000000002000000004000000000000000000000000000000000000000000000000000000000000000000000000000000000400000000000000000000000000000000000000000000000000000000002000000000000000000000000000000000000000000000000000000000000000000000000000000000000000000000000000000000000000000000400000000000000000000000000100000000",
      "type": "0x2",
      "transactionHash": "0x0d02198d88ce11575224f0455769bcb4d4f9e22df442887e8a92e6cc40c4fd86",
      "transactionIndex": "0x27",
      "blockHash": "0x8ae8c583817b94d976b2dc26f3de5a73821c5b60f287d8b87e91e25228e68d84",
      "blockNumber": "0x18773ad",
      "gasUsed": "0x28d0d",
      "effectiveGasPrice": "0x1f39abe5ea7e4",
      "from": "0x4c62f6121e6f967a0872da8364995e9b68c1e82f",
      "to": "0xdc45e5469a8b6d020473f69fec91c0f0e83a3308",
      "contractAddress": null
    }
  ],
  "libraries": [],
  "pending": [],
  "returns": {},
  "timestamp": 1769704526700,
  "chain": 369,
  "commit": null
}