{
  "transactions": [
    {
      "hash": "0xbcad70a357b0b5f0c95137d4ae682510c136c454aae64fee161bcfb8b2ae7d69",
      "transactionType": "CALL",
      "contractName": null,
      "contractAddress": "0xdc45e5469a8b6d020473f69fec91c0f0e83a3308",
      "function": "trainSkill(uint8)",
      "arguments": [
        "0"
      ],
      "transaction": {
        "from": "0xeca7a53ba6a190c5d205bfdc7707cbc3399336c1",
        "to": "0xdc45e5469a8b6d020473f69fec91c0f0e83a3308",
        "gas": "0x3bbb4",
        "value": "0x0",
        "input": "0xa0a73d0d0000000000000000000000000000000000000000000000000000000000000000",
        "nonce": "0x35f",
        "chainId": "0x171"
      },
      "additionalContracts": [],
      "isFixedGasLimit": false
    }
  ],
  "receipts": [
    {
      "status": "0x1",
      "cumulativeGasUsed": "0x14a7ddd",
      "logs": [
        {
          "address": "0xdc45e5469a8b6d020473f69fec91c0f0e83a3308",
          "topics": [
            "0xa2ecdf3a87e9ffdb151ad823ae834f6165f94e54e5a30467175e075254eb6376"
          ],
          "data": "0x000000000000000000000000eca7a53ba6a190c5d205bfdc7707cbc3399336c1000000000000000000000000000000000000000000000000000000000000000000000000000000000000000000000000000000000000000000000000000000000000000000000000000000000000000000000000000000000000000000000000000000000000000000000000000000000000000000000000000000000000000000000000000000000000000000000000000000000000000000000000697927550000000000000000000000000000000000000000000000000000000069791cc9",
          "blockHash": "0x9d674189c318284eeeadf83f054cb5422af7dfbfc1be21dedfd077095bcd08c9",
          "blockNumber": "0x18736d3",
          "transactionHash": "0xbcad70a357b0b5f0c95137d4ae682510c136c454aae64fee161bcfb8b2ae7d69",
          "transactionIndex": "0x18",
          "logIndex": "0x50f",
          "removed": false
        },
        {
          "address": "0xdc45e5469a8b6d020473f69fec91c0f0e83a3308",
          "topics": [
            "0xe044087a71e55f84948ec1c9a326d935d50b09a1b97fa24ac3721c9437525359"
          ],
          "data": "0x000000000000000000000000eca7a53ba6a190c5d205bfdc7707cbc3399336c10000000000000000000000000000000000000000000000000000000000000e330000000000000000000000000000000000000000000000000000000000000190",
          "blockHash": "0x9d674189c318284eeeadf83f054cb5422af7dfbfc1be21dedfd077095bcd08c9",
          "blockNumber": "0x18736d3",
          "transactionHash": "0xbcad70a357b0b5f0c95137d4ae682510c136c454aae64fee161bcfb8b2ae7d69",
          "transactionIndex": "0x18",
          "logIndex": "0x510",
          "removed": false
        }
      ],
      "logsBloom": "0x00000000000000000000000000000000000000000001000000000000000000000000000000100000000000000000000000000000000000000000000000000000000000000000000000000000000000000000000000002000000000000000000000000000000000002000000004000000000000000000000000000000000000000000000000000000000000000000000000000000000400000000000000000000000000000000000000000000000000000000002000000000000000000000000000000000000000000000000000000000000000000000000000000000000000000000000000000000000000000000400000000000000000000000000100000000",
      "type": "0x2",
      "transactionHash": "0xbcad70a357b0b5f0c95137d4ae682510c136c454aae64fee161bcfb8b2ae7d69",
      "transactionIndex": "0x18",
      "blockHash": "0x9d674189c318284eeeadf83f054cb5422af7dfbfc1be21dedfd077095bcd08c9",
      "blockNumber": "0x18736d3",
      "gasUsed": "0x28d79",
      "effectiveGasPrice": "0x36b5f9d1c8c8d",
      "from": "0xeca7a53ba6a190c5d205bfdc7707cbc3399336c1",
      "to": "0xdc45e5469a8b6d020473f69fec91c0f0e83a3308",
      "contractAddress": null
    }
  ],
  "libraries": [],
  "pending": [],
  "returns": {},
  "timestamp": 1769544907304,
  "chain": 369,
  "commit": null
}