{
  "transactions": [
    {
      "hash": "0x1c79ba29435b8ffdb0ba8579ab576a6d37635fc7c6083c374febf1e20de35f65",
      "transactionType": "CALL",
      "contractName": null,
      "contractAddress": "0xdc45e5469a8b6d020473f69fec91c0f0e83a3308",
      "function": "trainSkill(uint8)",
      "arguments": [
        "0"
      ],
      "transaction": {
        "from": "0xec646a6c9000e04d050435340d9c42c039eb5648",
        "to": "0xdc45e5469a8b6d020473f69fec91c0f0e83a3308",
        "gas": "0x38605",
        "value": "0x0",
        "input": "0xa0a73d0d0000000000000000000000000000000000000000000000000000000000000000",
        "nonce": "0x44",
        "chainId": "0x171"
      },
      "additionalContracts": [],
      "isFixedGasLimit": false
    }
  ],
  "receipts": [
    {
      "status": "0x1",
      "cumulativeGasUsed": "0x45b7f1",
      "logs": [
        {
          "address": "0xdc45e5469a8b6d020473f69fec91c0f0e83a3308",
          "topics": [
            "0xa2ecdf3a87e9ffdb151ad823ae834f6165f94e54e5a30467175e075254eb6376"
          ],
          "data": "0x000000000000000000000000ec646a6c9000e04d050435340d9c42c039eb564800000000000000000000000000000000000000000000000000000000000000000000000000000000000000000000000000000000000000000000000000000000000000000000000000000000000000000000000000000000000000000000000000000000000000000000000000000000000000000000000000000000000000000000000000000000000000000000000000000000000000000000000069882b8300000000000000000000000000000000000000000000000000000000698820f7",
          "blockHash": "0x18309e078913dcd8afd5be7df5cfa27738771595a1342ef87b2d55c48ad52154",
          "blockNumber": "0x188adb3",
          "transactionHash": "0x1c79ba29435b8ffdb0ba8579ab576a6d37635fc7c6083c374febf1e20de35f65",
          "transactionIndex": "0x29",
          "logIndex": "0x66",
          "removed": false
        },
        {
          "address": "0xdc45e5469a8b6d020473f69fec91c0f0e83a3308",
          "topics": [
            "0xe044087a71e55f84948ec1c9a326d935d50b09a1b97fa24ac3721c9437525359"
          ],
          "data": "0x000000000000000000000000ec646a6c9000e04d050435340d9c42c039eb564800000000000000000000000000000000000000000000000000000000000018fb0000000000000000000000000000000000000000000000000000000000000190",
          "blockHash": "0x18309e078913dcd8afd5be7df5cfa27738771595a1342ef87b2d55c48ad52154",
          "blockNumber": "0x188adb3",
          "transactionHash": "0x1c79ba29435b8ffdb0ba8579ab576a6d37635fc7c6083c374febf1e20de35f65",
          "transactionIndex": "0x29",
          "logIndex": "0x67",
          "removed": false
        }
      ],
      "logsBloom": "0x00000000000000000000000000000000000000000001000000000000000000000000000000100000000000000000000000000000000000000000000000000000000000000000000000000000000000000000000000002000000000000000000000000000000000002000000004000000000000000000000000000000000000000000000000000000000000000000000000000000000400000000000000000000000000000000000000000000000000000000002000000000000000000000000000000000000000000000000000000000000000000000000000000000000000000000000000000000000000000000400000000000000000000000000100000000",
      "type": "0x2",
      "transactionHash": "0x1c79ba29435b8ffdb0ba8579ab576a6d37635fc7c6083c374febf1e20de35f65",
      "transactionIndex": "0x29",
      "blockHash": "0x18309e078913dcd8afd5be7df5cfa27738771595a1342ef87b2d55c48ad52154",
      "blockNumber": "0x188adb3",
      "gasUsed": "0x28d0d",
      "effectiveGasPrice": "0x290f45d9dff9f",
      "from": "0xec646a6c9000e04d050435340d9c42c039eb5648",
      "to": "0xdc45e5469a8b6d020473f69fec91c0f0e83a3308",
      "contractAddress": null
    }
  ],
  "libraries": [],
  "pending": [],
  "returns": {},
  "timestamp": 1770529015961,
  "chain": 369,
  "commit": null
}