{
  "transactions": [
    {
      "hash": "0xfbd4a78085ff9d955b4bf13d70290a959fd08d3a254d9c9e439438a547cb1cb3",
      "transactionType": "CALL",
      "contractName": null,
      "contractAddress": "0xdc45e5469a8b6d020473f69fec91c0f0e83a3308",
      "function": "trainSkill(uint8)",
      "arguments": [
        "0"
      ],
      "transaction": {
        "from": "0x4c62f6121e6f967a0872da8364995e9b68c1e82f",
        "to": "0xdc45e5469a8b6d020473f69fec91c0f0e83a3308",
        "gas": "0x38605",
        "value": "0x0",
        "input": "0xa0a73d0d0000000000000000000000000000000000000000000000000000000000000000",
        "nonce": "0x979",
        "chainId": "0x171"
      },
      "additionalContracts": [],
      "isFixedGasLimit": false
    }
  ],
  "receipts": [
    {
      "status": "0x1",
      "cumulativeGasUsed": "0xc465cf",
      "logs": [
        {
          "address": "0xdc45e5469a8b6d020473f69fec91c0f0e83a3308",
          "topics": [
            "0xa2ecdf3a87e9ffdb151ad823ae834f6165f94e54e5a30467175e075254eb6376"
          ],
          "data": "0x0000000000000000000000004c62f6121e6f967a0872da8364995e9b68c1e82f000000000000000000000000000000000000000000000000000000000000000000000000000000000000000000000000000000000000000000000000000000000000000000000000000000000000000000000000000000000000000000000000000000000000000000000000000000000000000000000000000000000000000000000000000000000000000000000000000000000000000000000000698820e30000000000000000000000000000000000000000000000000000000069881657",
          "blockHash": "0x1d5410d04a98f177e1752637ec86f8c23e419e1b33ed36b65da1d896a4e483c7",
          "blockNumber": "0x188aca9",
          "transactionHash": "0xfbd4a78085ff9d955b4bf13d70290a959fd08d3a254d9c9e439438a547cb1cb3",
          "transactionIndex": "0x6f",
          "logIndex": "0x77",
          "removed": false
        },
        {
          "address": "0xdc45e5469a8b6d020473f69fec91c0f0e83a3308",
          "topics": [
            "0xe044087a71e55f84948ec1c9a326d935d50b09a1b97fa24ac3721c9437525359"
          ],
          "data": "0x0000000000000000000000004c62f6121e6f967a0872da8364995e9b68c1e82f00000000000000000000000000000000000000000000000000000000000014710000000000000000000000000000000000000000000000000000000000000190",
          "blockHash": "0x1d5410d04a98f177e1752637ec86f8c23e419e1b33ed36b65da1d896a4e483c7",
          "blockNumber": "0x188aca9",
          "transactionHash": "0xfbd4a78085ff9d955b4bf13d70290a959fd08d3a254d9c9e439438a547cb1cb3",
          "transactionIndex": "0x6f",
          "logIndex": "0x78",
          "removed": false
        }
      ],
      "logsBloom": "0x00000000000000000000000000000000000000000001000000000000000000000000000000100000000000000000000000000000000000000000000000000000000000000000000000000000000000000000000000002000000000000000000000000000000000002000000004000000000000000000000000000000000000000000000000000000000000000000000000000000000400000000000000000000000000000000000000000000000000000000002000000000000000000000000000000000000000000000000000000000000000000000000000000000000000000000000000000000000000000000400000000000000000000000000100000000",
      "type": "0x2",
      "transactionHash": "0xfbd4a78085ff9d955b4bf13d70290a959fd08d3a254d9c9e439438a547cb1cb3",
      "transactionIndex": "0x6f",
      "blockHash": "0x1d5410d04a98f177e1752637ec86f8c23e419e1b33ed36b65da1d896a4e483c7",
      "blockNumber": "0x188aca9",
      "gasUsed": "0x28d0d",
      "effectiveGasPrice": "0x3019401eb7eb4",
      "from": "0x4c62f6121e6f967a0872da8364995e9b68c1e82f",
      "to": "0xdc45e5469a8b6d020473f69fec91c0f0e83a3308",
      "contractAddress": null
    }
  ],
  "libraries": [],
  "pending": [],
  "returns": {},
  "timestamp": 1770526296225,
  "chain": 369,
  "commit": null
}