{
  "transactions": [
    {
      "hash": "0xe2afd64f660abd19f85ebcce2613d88a98adee57079075f118278823e8d9d432",
      "transactionType": "CALL",
      "contractName": null,
      "contractAddress": "0xdc45e5469a8b6d020473f69fec91c0f0e83a3308",
      "function": "trainSkill(uint8)",
      "arguments": [
        "0"
      ],
      "transaction": {
        "from": "0xeca7a53ba6a190c5d205bfdc7707cbc3399336c1",
        "to": "0xdc45e5469a8b6d020473f69fec91c0f0e83a3308",
        "gas": "0x392e7",
        "value": "0x0",
        "input": "0xa0a73d0d0000000000000000000000000000000000000000000000000000000000000000",
        "nonce": "0x59d",
        "chainId": "0x171"
      },
      "additionalContracts": [],
      "isFixedGasLimit": false
    }
  ],
  "receipts": [
    {
      "status": "0x1",
      "cumulativeGasUsed": "0x84edae",
      "logs": [
        {
          "address": "0xdc45e5469a8b6d020473f69fec91c0f0e83a3308",
          "topics": [
            "0xa2ecdf3a87e9ffdb151ad823ae834f6165f94e54e5a30467175e075254eb6376"
          ],
          "data": "0x000000000000000000000000eca7a53ba6a190c5d205bfdc7707cbc3399336c1000000000000000000000000000000000000000000000000000000000000000000000000000000000000000000000000000000000000000000000000000000000000000000000000000000000000000000000000000000000000000000000000000000000000000000000000000000000000000000000000000000000000000000000000000000000000000000000000000000000000000000000000698856fd0000000000000000000000000000000000000000000000000000000069884c71",
          "blockHash": "0x9c4793293dd2643964614e6b9af563bed23537518d9c7b26ca904ad0f77967fe",
          "blockNumber": "0x188b1ef",
          "transactionHash": "0xe2afd64f660abd19f85ebcce2613d88a98adee57079075f118278823e8d9d432",
          "transactionIndex": "0x23",
          "logIndex": "0xba",
          "removed": false
        },
        {
          "address": "0xdc45e5469a8b6d020473f69fec91c0f0e83a3308",
          "topics": [
            "0xe044087a71e55f84948ec1c9a326d935d50b09a1b97fa24ac3721c9437525359"
          ],
          "data": "0x000000000000000000000000eca7a53ba6a190c5d205bfdc7707cbc3399336c10000000000000000000000000000000000000000000000000000000000001cc40000000000000000000000000000000000000000000000000000000000000190",
          "blockHash": "0x9c4793293dd2643964614e6b9af563bed23537518d9c7b26ca904ad0f77967fe",
          "blockNumber": "0x188b1ef",
          "transactionHash": "0xe2afd64f660abd19f85ebcce2613d88a98adee57079075f118278823e8d9d432",
          "transactionIndex": "0x23",
          "logIndex": "0xbb",
          "removed": false
        }
      ],
      "logsBloom": "0x00000000000000000000000000000000000000000001000000000000000000000000000000100000000000000000000000000000000000000000000000000000000000000000000000000000000000000000000000002000000000000000000000000000000000002000000004000000000000000000000000000000000000000000000000000000000000000000000000000000000400000000000000000000000000000000000000000000000000000000002000000000000000000000000000000000000000000000000000000000000000000000000000000000000000000000000000000000000000000000400000000000000000000000000100000000",
      "type": "0x2",
      "transactionHash": "0xe2afd64f660abd19f85ebcce2613d88a98adee57079075f118278823e8d9d432",
      "transactionIndex": "0x23",
      "blockHash": "0x9c4793293dd2643964614e6b9af563bed23537518d9c7b26ca904ad0f77967fe",
      "blockNumber": "0x188b1ef",
      "gasUsed": "0x29660",
      "effectiveGasPrice": "0x32796c2006992",
      "from": "0xeca7a53ba6a190c5d205bfdc7707cbc3399336c1",
      "to": "0xdc45e5469a8b6d020473f69fec91c0f0e83a3308",
      "contractAddress": null
    }
  ],
  "libraries": [],
  "pending": [],
  "returns": {},
  "timestamp": 1770540147080,
  "chain": 369,
  "commit": null
}