{
  "transactions": [
    {
      "hash": "0x794cc156f85965d848b9c7b70a4e502802b4596d0a7dad5a035b31693d493a9a",
      "transactionType": "CALL",
      "contractName": null,
      "contractAddress": "0xdc45e5469a8b6d020473f69fec91c0f0e83a3308",
      "function": "trainSkill(uint8)",
      "arguments": [
        "0"
      ],
      "transaction": {
        "from": "0xeca7a53ba6a190c5d205bfdc7707cbc3399336c1",
        "to": "0xdc45e5469a8b6d020473f69fec91c0f0e83a3308",
        "gas": "0x392e7",
        "value": "0x0",
        "input": "0xa0a73d0d0000000000000000000000000000000000000000000000000000000000000000",
        "nonce": "0x58e",
        "chainId": "0x171"
      },
      "additionalContracts": [],
      "isFixedGasLimit": false
    }
  ],
  "receipts": [
    {
      "status": "0x1",
      "cumulativeGasUsed": "0x432ae4",
      "logs": [
        {
          "address": "0xdc45e5469a8b6d020473f69fec91c0f0e83a3308",
          "topics": [
            "0xa2ecdf3a87e9ffdb151ad823ae834f6165f94e54e5a30467175e075254eb6376"
          ],
          "data": "0x000000000000000000000000eca7a53ba6a190c5d205bfdc7707cbc3399336c100000000000000000000000000000000000000000000000000000000000000000000000000000000000000000000000000000000000000000000000000000000000000000000000000000000000000000000000000000000000000000000000000000000000000000000000000000000000000000000000000000000000000000000000000000000000000000000000000000000000000000000000069882b8300000000000000000000000000000000000000000000000000000000698820f7",
          "blockHash": "0x18309e078913dcd8afd5be7df5cfa27738771595a1342ef87b2d55c48ad52154",
          "blockNumber": "0x188adb3",
          "transactionHash": "0x794cc156f85965d848b9c7b70a4e502802b4596d0a7dad5a035b31693d493a9a",
          "transactionIndex": "0x28",
          "logIndex": "0x64",
          "removed": false
        },
        {
          "address": "0xdc45e5469a8b6d020473f69fec91c0f0e83a3308",
          "topics": [
            "0xe044087a71e55f84948ec1c9a326d935d50b09a1b97fa24ac3721c9437525359"
          ],
          "data": "0x000000000000000000000000eca7a53ba6a190c5d205bfdc7707cbc3399336c100000000000000000000000000000000000000000000000000000000000018fb0000000000000000000000000000000000000000000000000000000000000190",
          "blockHash": "0x18309e078913dcd8afd5be7df5cfa27738771595a1342ef87b2d55c48ad52154",
          "blockNumber": "0x188adb3",
          "transactionHash": "0x794cc156f85965d848b9c7b70a4e502802b4596d0a7dad5a035b31693d493a9a",
          "transactionIndex": "0x28",
          "logIndex": "0x65",
          "removed": false
        }
      ],
      "logsBloom": "0x00000000000000000000000000000000000000000001000000000000000000000000000000100000000000000000000000000000000000000000000000000000000000000000000000000000000000000000000000002000000000000000000000000000000000002000000004000000000000000000000000000000000000000000000000000000000000000000000000000000000400000000000000000000000000000000000000000000000000000000002000000000000000000000000000000000000000000000000000000000000000000000000000000000000000000000000000000000000000000000400000000000000000000000000100000000",
      "type": "0x2",
      "transactionHash": "0x794cc156f85965d848b9c7b70a4e502802b4596d0a7dad5a035b31693d493a9a",
      "transactionIndex": "0x28",
      "blockHash": "0x18309e078913dcd8afd5be7df5cfa27738771595a1342ef87b2d55c48ad52154",
      "blockNumber": "0x188adb3",
      "gasUsed": "0x29660",
      "effectiveGasPrice": "0x290f45d9dff9f",
      "from": "0xeca7a53ba6a190c5d205bfdc7707cbc3399336c1",
      "to": "0xdc45e5469a8b6d020473f69fec91c0f0e83a3308",
      "contractAddress": null
    }
  ],
  "libraries": [],
  "pending": [],
  "returns": {},
  "timestamp": 1770529015887,
  "chain": 369,
  "commit": null
}