{
  "transactions": [
    {
      "hash": "0x3c022294e27815af13863d0464b2e6c8cc142aaca18c125e106c7d147bb80ec0",
      "transactionType": "CALL",
      "contractName": null,
      "contractAddress": "0xdc45e5469a8b6d020473f69fec91c0f0e83a3308",
      "function": "trainSkill(uint8)",
      "arguments": [
        "0"
      ],
      "transaction": {
        "from": "0xeca7a53ba6a190c5d205bfdc7707cbc3399336c1",
        "to": "0xdc45e5469a8b6d020473f69fec91c0f0e83a3308",
        "gas": "0x392e7",
        "value": "0x0",
        "input": "0xa0a73d0d0000000000000000000000000000000000000000000000000000000000000000",
        "nonce": "0x561",
        "chainId": "0x171"
      },
      "additionalContracts": [],
      "isFixedGasLimit": false
    }
  ],
  "receipts": [
    {
      "status": "0x1",
      "cumulativeGasUsed": "0xa65409",
      "logs": [
        {
          "address": "0xdc45e5469a8b6d020473f69fec91c0f0e83a3308",
          "topics": [
            "0xa2ecdf3a87e9ffdb151ad823ae834f6165f94e54e5a30467175e075254eb6376"
          ],
          "data": "0x000000000000000000000000eca7a53ba6a190c5d205bfdc7707cbc3399336c10000000000000000000000000000000000000000000000000000000000000000000000000000000000000000000000000000000000000000000000000000000000000000000000000000000000000000000000000000000000000000000000000000000000000000000000000000000000000000000000000000000000000000000000000000000000000000000000000000000000000000000000006987834500000000000000000000000000000000000000000000000000000000698778b9",
          "blockHash": "0x46b9f6b8b60a935ffc794cdf1c3bec8eec26f4a80230864a2c2b1417826475a0",
          "blockNumber": "0x1889d40",
          "transactionHash": "0x3c022294e27815af13863d0464b2e6c8cc142aaca18c125e106c7d147bb80ec0",
          "transactionIndex": "0x22",
          "logIndex": "0xce",
          "removed": false
        },
        {
          "address": "0xdc45e5469a8b6d020473f69fec91c0f0e83a3308",
          "topics": [
            "0xe044087a71e55f84948ec1c9a326d935d50b09a1b97fa24ac3721c9437525359"
          ],
          "data": "0x000000000000000000000000eca7a53ba6a190c5d205bfdc7707cbc3399336c100000000000000000000000000000000000000000000000000000000000013db0000000000000000000000000000000000000000000000000000000000000190",
          "blockHash": "0x46b9f6b8b60a935ffc794cdf1c3bec8eec26f4a80230864a2c2b1417826475a0",
          "blockNumber": "0x1889d40",
          "transactionHash": "0x3c022294e27815af13863d0464b2e6c8cc142aaca18c125e106c7d147bb80ec0",
          "transactionIndex": "0x22",
          "logIndex": "0xcf",
          "removed": false
        }
      ],
      "logsBloom": "0x00000000000000000000000000000000000000000001000000000000000000000000000000100000000000000000000000000000000000000000000000000000000000000000000000000000000000000000000000002000000000000000000000000000000000002000000004000000000000000000000000000000000000000000000000000000000000000000000000000000000400000000000000000000000000000000000000000000000000000000002000000000000000000000000000000000000000000000000000000000000000000000000000000000000000000000000000000000000000000000400000000000000000000000000100000000",
      "type": "0x2",
      "transactionHash": "0x3c022294e27815af13863d0464b2e6c8cc142aaca18c125e106c7d147bb80ec0",
      "transactionIndex": "0x22",
      "blockHash": "0x46b9f6b8b60a935ffc794cdf1c3bec8eec26f4a80230864a2c2b1417826475a0",
      "blockNumber": "0x1889d40",
      "gasUsed": "0x29660",
      "effectiveGasPrice": "0x29bad024b9d58",
      "from": "0xeca7a53ba6a190c5d205bfdc7707cbc3399336c1",
      "to": "0xdc45e5469a8b6d020473f69fec91c0f0e83a3308",
      "contractAddress": null
    }
  ],
  "libraries": [],
  "pending": [],
  "returns": {},
  "timestamp": 1770485946262,
  "chain": 369,
  "commit": null
}