{
  "transactions": [
    {
      "hash": "0xce8ed53e443812307daa9a083324345c39d5b918a862a1cf8f7d468f6274055b",
      "transactionType": "CALL",
      "contractName": null,
      "contractAddress": "0xdc45e5469a8b6d020473f69fec91c0f0e83a3308",
      "function": "trainSkill(uint8)",
      "arguments": [
        "0"
      ],
      "transaction": {
        "from": "0xeca7a53ba6a190c5d205bfdc7707cbc3399336c1",
        "to": "0xdc45e5469a8b6d020473f69fec91c0f0e83a3308",
        "gas": "0x392e7",
        "value": "0x0",
        "input": "0xa0a73d0d0000000000000000000000000000000000000000000000000000000000000000",
        "nonce": "0x579",
        "chainId": "0x171"
      },
      "additionalContracts": [],
      "isFixedGasLimit": false
    }
  ],
  "receipts": [
    {
      "status": "0x1",
      "cumulativeGasUsed": "0xb24ec8",
      "logs": [
        {
          "address": "0xdc45e5469a8b6d020473f69fec91c0f0e83a3308",
          "topics": [
            "0xa2ecdf3a87e9ffdb151ad823ae834f6165f94e54e5a30467175e075254eb6376"
          ],
          "data": "0x000000000000000000000000eca7a53ba6a190c5d205bfdc7707cbc3399336c10000000000000000000000000000000000000000000000000000000000000000000000000000000000000000000000000000000000000000000000000000000000000000000000000000000000000000000000000000000000000000000000000000000000000000000000000000000000000000000000000000000000000000000000000000000000000000000000000000000000000000000000006987d9d5000000000000000000000000000000000000000000000000000000006987cf49",
          "blockHash": "0xfd6997b06a43b116495215c03172a5386db357c7233705d7a2eeffe7a148acb1",
          "blockNumber": "0x188a5b6",
          "transactionHash": "0xce8ed53e443812307daa9a083324345c39d5b918a862a1cf8f7d468f6274055b",
          "transactionIndex": "0x67",
          "logIndex": "0x126",
          "removed": false
        },
        {
          "address": "0xdc45e5469a8b6d020473f69fec91c0f0e83a3308",
          "topics": [
            "0xe044087a71e55f84948ec1c9a326d935d50b09a1b97fa24ac3721c9437525359"
          ],
          "data": "0x000000000000000000000000eca7a53ba6a190c5d205bfdc7707cbc3399336c100000000000000000000000000000000000000000000000000000000000013fd0000000000000000000000000000000000000000000000000000000000000190",
          "blockHash": "0xfd6997b06a43b116495215c03172a5386db357c7233705d7a2eeffe7a148acb1",
          "blockNumber": "0x188a5b6",
          "transactionHash": "0xce8ed53e443812307daa9a083324345c39d5b918a862a1cf8f7d468f6274055b",
          "transactionIndex": "0x67",
          "logIndex": "0x127",
          "removed": false
        }
      ],
      "logsBloom": "0x00000000000000000000000000000000000000000001000000000000000000000000000000100000000000000000000000000000000000000000000000000000000000000000000000000000000000000000000000002000000000000000000000000000000000002000000004000000000000000000000000000000000000000000000000000000000000000000000000000000000400000000000000000000000000000000000000000000000000000000002000000000000000000000000000000000000000000000000000000000000000000000000000000000000000000000000000000000000000000000400000000000000000000000000100000000",
      "type": "0x2",
      "transactionHash": "0xce8ed53e443812307daa9a083324345c39d5b918a862a1cf8f7d468f6274055b",
      "transactionIndex": "0x67",
      "blockHash": "0xfd6997b06a43b116495215c03172a5386db357c7233705d7a2eeffe7a148acb1",
      "blockNumber": "0x188a5b6",
      "gasUsed": "0x29660",
      "effectiveGasPrice": "0x2c477edbc3de1",
      "from": "0xeca7a53ba6a190c5d205bfdc7707cbc3399336c1",
      "to": "0xdc45e5469a8b6d020473f69fec91c0f0e83a3308",
      "contractAddress": null
    }
  ],
  "libraries": [],
  "pending": [],
  "returns": {},
  "timestamp": 1770508106736,
  "chain": 369,
  "commit": null
}