{
  "transactions": [
    {
      "hash": "0x1b29eb417f6eacd2b01282408100cad50689bca52f47b91b3f29e1d99f9371ed",
      "transactionType": "CALL",
      "contractName": null,
      "contractAddress": "0xdc45e5469a8b6d020473f69fec91c0f0e83a3308",
      "function": "trainSkill(uint8)",
      "arguments": [
        "0"
      ],
      "transaction": {
        "from": "0xac56dc5a4a9de0197f7b8f584ea04ec7e0123dde",
        "to": "0xdc45e5469a8b6d020473f69fec91c0f0e83a3308",
        "gas": "0x38605",
        "value": "0x0",
        "input": "0xa0a73d0d0000000000000000000000000000000000000000000000000000000000000000",
        "nonce": "0x4f9",
        "chainId": "0x171"
      },
      "additionalContracts": [],
      "isFixedGasLimit": false
    }
  ],
  "receipts": [
    {
      "status": "0x1",
      "cumulativeGasUsed": "0x12f4370",
      "logs": [
        {
          "address": "0xdc45e5469a8b6d020473f69fec91c0f0e83a3308",
          "topics": [
            "0xa2ecdf3a87e9ffdb151ad823ae834f6165f94e54e5a30467175e075254eb6376"
          ],
          "data": "0x000000000000000000000000ac56dc5a4a9de0197f7b8f584ea04ec7e0123dde000000000000000000000000000000000000000000000000000000000000000000000000000000000000000000000000000000000000000000000000000000000000000000000000000000000000000000000000000000000000000000000000000000000000000000000000000000000000000000000000000000000000000000000000000000000000000000000000000000000000000000000000698815e90000000000000000000000000000000000000000000000000000000069880b5d",
          "blockHash": "0x68f79d534397626020341cce0225ee15e9a9ead0409d9a4d9c5ed5cc642a20ce",
          "blockNumber": "0x188ab97",
          "transactionHash": "0x1b29eb417f6eacd2b01282408100cad50689bca52f47b91b3f29e1d99f9371ed",
          "transactionIndex": "0x5f",
          "logIndex": "0x217",
          "removed": false
        },
        {
          "address": "0xdc45e5469a8b6d020473f69fec91c0f0e83a3308",
          "topics": [
            "0xe044087a71e55f84948ec1c9a326d935d50b09a1b97fa24ac3721c9437525359"
          ],
          "data": "0x000000000000000000000000ac56dc5a4a9de0197f7b8f584ea04ec7e0123dde00000000000000000000000000000000000000000000000000000000000026080000000000000000000000000000000000000000000000000000000000000190",
          "blockHash": "0x68f79d534397626020341cce0225ee15e9a9ead0409d9a4d9c5ed5cc642a20ce",
          "blockNumber": "0x188ab97",
          "transactionHash": "0x1b29eb417f6eacd2b01282408100cad50689bca52f47b91b3f29e1d99f9371ed",
          "transactionIndex": "0x5f",
          "logIndex": "0x218",
          "removed": false
        }
      ],
      "logsBloom": "0x00000000000000000000000000000000000000000001000000000000000000000000000000100000000000000000000000000000000000000000000000000000000000000000000000000000000000000000000000002000000000000000000000000000000000002000000004000000000000000000000000000000000000000000000000000000000000000000000000000000000400000000000000000000000000000000000000000000000000000000002000000000000000000000000000000000000000000000000000000000000000000000000000000000000000000000000000000000000000000000400000000000000000000000000100000000",
      "type": "0x2",
      "transactionHash": "0x1b29eb417f6eacd2b01282408100cad50689bca52f47b91b3f29e1d99f9371ed",
      "transactionIndex": "0x5f",
      "blockHash": "0x68f79d534397626020341cce0225ee15e9a9ead0409d9a4d9c5ed5cc642a20ce",
      "blockNumber": "0x188ab97",
      "gasUsed": "0x28d0d",
      "effectiveGasPrice": "0x2fde268aaa251",
      "from": "0xac56dc5a4a9de0197f7b8f584ea04ec7e0123dde",
      "to": "0xdc45e5469a8b6d020473f69fec91c0f0e83a3308",
      "contractAddress": null
    }
  ],
  "libraries": [],
  "pending": [],
  "returns": {},
  "timestamp": 1770523486841,
  "chain": 369,
  "commit": null
}