{
  "transactions": [
    {
      "hash": "0xc07d432fa44dade5cfd2e233dcc801dfe97fb23d8f2f1e17a8a4f4f47e427d9c",
      "transactionType": "CALL",
      "contractName": null,
      "contractAddress": "0xdc45e5469a8b6d020473f69fec91c0f0e83a3308",
      "function": "trainSkill(uint8)",
      "arguments": [
        "0"
      ],
      "transaction": {
        "from": "0xac56dc5a4a9de0197f7b8f584ea04ec7e0123dde",
        "to": "0xdc45e5469a8b6d020473f69fec91c0f0e83a3308",
        "gas": "0x379ba",
        "value": "0x0",
        "input": "0xa0a73d0d0000000000000000000000000000000000000000000000000000000000000000",
        "nonce": "0x33f",
        "chainId": "0x171"
      },
      "additionalContracts": [],
      "isFixedGasLimit": false
    }
  ],
  "receipts": [
    {
      "status": "0x1",
      "cumulativeGasUsed": "0x1a93170",
      "logs": [
        {
          "address": "0xdc45e5469a8b6d020473f69fec91c0f0e83a3308",
          "topics": [
            "0xa2ecdf3a87e9ffdb151ad823ae834f6165f94e54e5a30467175e075254eb6376"
          ],
          "data": "0x000000000000000000000000ac56dc5a4a9de0197f7b8f584ea04ec7e0123dde0000000000000000000000000000000000000000000000000000000000000000000000000000000000000000000000000000000000000000000000000000000000000000000000000000000000000000000000000000000000000000000000000000000000000000000000000000000000000000000000000000000000000000000000000000000000000000000000000000000000000000000000006979274b0000000000000000000000000000000000000000000000000000000069791cbf",
          "blockHash": "0x28d86086e5cdb0bf1c7c40ee1078eb1367c069668ebb1f9e043a8db639f24b73",
          "blockNumber": "0x18736d2",
          "transactionHash": "0xc07d432fa44dade5cfd2e233dcc801dfe97fb23d8f2f1e17a8a4f4f47e427d9c",
          "transactionIndex": "0x19",
          "logIndex": "0xbc",
          "removed": false
        },
        {
          "address": "0xdc45e5469a8b6d020473f69fec91c0f0e83a3308",
          "topics": [
            "0xe044087a71e55f84948ec1c9a326d935d50b09a1b97fa24ac3721c9437525359"
          ],
          "data": "0x000000000000000000000000ac56dc5a4a9de0197f7b8f584ea04ec7e0123dde00000000000000000000000000000000000000000000000000000000000020320000000000000000000000000000000000000000000000000000000000000190",
          "blockHash": "0x28d86086e5cdb0bf1c7c40ee1078eb1367c069668ebb1f9e043a8db639f24b73",
          "blockNumber": "0x18736d2",
          "transactionHash": "0xc07d432fa44dade5cfd2e233dcc801dfe97fb23d8f2f1e17a8a4f4f47e427d9c",
          "transactionIndex": "0x19",
          "logIndex": "0xbd",
          "removed": false
        }
      ],
      "logsBloom": "0x00000000000000000000000000000000000000000001000000000000000000000000000000100000000000000000000000000000000000000000000000000000000000000000000000000000000000000000000000002000000000000000000000000000000000002000000004000000000000000000000000000000000000000000000000000000000000000000000000000000000400000000000000000000000000000000000000000000000000000000002000000000000000000000000000000000000000000000000000000000000000000000000000000000000000000000000000000000000000000000400000000000000000000000000100000000",
      "type": "0x2",
      "transactionHash": "0xc07d432fa44dade5cfd2e233dcc801dfe97fb23d8f2f1e17a8a4f4f47e427d9c",
      "transactionIndex": "0x19",
      "blockHash": "0x28d86086e5cdb0bf1c7c40ee1078eb1367c069668ebb1f9e043a8db639f24b73",
      "blockNumber": "0x18736d2",
      "gasUsed": "0x28426",
      "effectiveGasPrice": "0x34d5c86031da1",
      "from": "0xac56dc5a4a9de0197f7b8f584ea04ec7e0123dde",
      "to": "0xdc45e5469a8b6d020473f69fec91c0f0e83a3308",
      "contractAddress": null
    }
  ],
  "libraries": [],
  "pending": [],
  "returns": {},
  "timestamp": 1769544895532,
  "chain": 369,
  "commit": null
}