{
  "transactions": [
    {
      "hash": "0x47889f940beeb521876cd96ce29815d59e643c54eef9f96b332077b3b2df0c0f",
      "transactionType": "CALL",
      "contractName": null,
      "contractAddress": "0xdc45e5469a8b6d020473f69fec91c0f0e83a3308",
      "function": "trainSkill(uint8)",
      "arguments": [
        "0"
      ],
      "transaction": {
        "from": "0xac56dc5a4a9de0197f7b8f584ea04ec7e0123dde",
        "to": "0xdc45e5469a8b6d020473f69fec91c0f0e83a3308",
        "gas": "0x38605",
        "value": "0x0",
        "input": "0xa0a73d0d0000000000000000000000000000000000000000000000000000000000000000",
        "nonce": "0x4fc",
        "chainId": "0x171"
      },
      "additionalContracts": [],
      "isFixedGasLimit": false
    }
  ],
  "receipts": [
    {
      "status": "0x1",
      "cumulativeGasUsed": "0x721b61",
      "logs": [
        {
          "address": "0xdc45e5469a8b6d020473f69fec91c0f0e83a3308",
          "topics": [
            "0xa2ecdf3a87e9ffdb151ad823ae834f6165f94e54e5a30467175e075254eb6376"
          ],
          "data": "0x000000000000000000000000ac56dc5a4a9de0197f7b8f584ea04ec7e0123dde000000000000000000000000000000000000000000000000000000000000000000000000000000000000000000000000000000000000000000000000000000000000000000000000000000000000000000000000000000000000000000000000000000000000000000000000000000000000000000000000000000000000000000000000000000000000000000000000000000000000000000000000698820c50000000000000000000000000000000000000000000000000000000069881639",
          "blockHash": "0xb40980d5397065bc4fa6a1dffbccd846bf5092388d5df95f0228a7c98680c191",
          "blockNumber": "0x188aca6",
          "transactionHash": "0x47889f940beeb521876cd96ce29815d59e643c54eef9f96b332077b3b2df0c0f",
          "transactionIndex": "0x1c",
          "logIndex": "0x93",
          "removed": false
        },
        {
          "address": "0xdc45e5469a8b6d020473f69fec91c0f0e83a3308",
          "topics": [
            "0xe044087a71e55f84948ec1c9a326d935d50b09a1b97fa24ac3721c9437525359"
          ],
          "data": "0x000000000000000000000000ac56dc5a4a9de0197f7b8f584ea04ec7e0123dde00000000000000000000000000000000000000000000000000000000000008200000000000000000000000000000000000000000000000000000000000000190",
          "blockHash": "0xb40980d5397065bc4fa6a1dffbccd846bf5092388d5df95f0228a7c98680c191",
          "blockNumber": "0x188aca6",
          "transactionHash": "0x47889f940beeb521876cd96ce29815d59e643c54eef9f96b332077b3b2df0c0f",
          "transactionIndex": "0x1c",
          "logIndex": "0x94",
          "removed": false
        }
      ],
      "logsBloom": "0x00000000000000000000000000000000000000000001000000000000000000000000000000100000000000000000000000000000000000000000000000000000000000000000000000000000000000000000000000002000000000000000000000000000000000002000000004000000000000000000000000000000000000000000000000000000000000000000000000000000000400000000000000000000000000000000000000000000000000000000002000000000000000000000000000000000000000000000000000000000000000000000000000000000000000000000000000000000000000000000400000000000000000000000000100000000",
      "type": "0x2",
      "transactionHash": "0x47889f940beeb521876cd96ce29815d59e643c54eef9f96b332077b3b2df0c0f",
      "transactionIndex": "0x1c",
      "blockHash": "0xb40980d5397065bc4fa6a1dffbccd846bf5092388d5df95f0228a7c98680c191",
      "blockNumber": "0x188aca6",
      "gasUsed": "0x28d0d",
      "effectiveGasPrice": "0x2ea741ef69bed",
      "from": "0xac56dc5a4a9de0197f7b8f584ea04ec7e0123dde",
      "to": "0xdc45e5469a8b6d020473f69fec91c0f0e83a3308",
      "contractAddress": null
    }
  ],
  "libraries": [],
  "pending": [],
  "returns": {},
  "timestamp": 1770526266671,
  "chain": 369,
  "commit": null
}