{
  "transactions": [
    {
      "hash": "0xd1dc15294b8d63400db2b21552d3c912771fceeb2fa90d77ec139be968c68f44",
      "transactionType": "CALL",
      "contractName": null,
      "contractAddress": "0xdc45e5469a8b6d020473f69fec91c0f0e83a3308",
      "function": "trainSkill(uint8)",
      "arguments": [
        "0"
      ],
      "transaction": {
        "from": "0x4c62f6121e6f967a0872da8364995e9b68c1e82f",
        "to": "0xdc45e5469a8b6d020473f69fec91c0f0e83a3308",
        "gas": "0x3ae68",
        "value": "0x0",
        "input": "0xa0a73d0d0000000000000000000000000000000000000000000000000000000000000000",
        "nonce": "0x711",
        "chainId": "0x171"
      },
      "additionalContracts": [],
      "isFixedGasLimit": false
    }
  ],
  "receipts": [
    {
      "status": "0x1",
      "cumulativeGasUsed": "0xa9e03f",
      "logs": [
        {
          "address": "0xdc45e5469a8b6d020473f69fec91c0f0e83a3308",
          "topics": [
            "0xa2ecdf3a87e9ffdb151ad823ae834f6165f94e54e5a30467175e075254eb6376"
          ],
          "data": "0x0000000000000000000000004c62f6121e6f967a0872da8364995e9b68c1e82f00000000000000000000000000000000000000000000000000000000000000000000000000000000000000000000000000000000000000000000000000000000000000000000000000000000000000000000000000000000000000000000000000000000000000000000000000000000000000000000000000000000000000000000000000000000000000000000000000000000000000000000000069797caf0000000000000000000000000000000000000000000000000000000069797223",
          "blockHash": "0xfcc728fa88c8b113d661f70410046e09019799bec4e4348ca1e6c3b14ddc6eeb",
          "blockNumber": "0x1873f2c",
          "transactionHash": "0xd1dc15294b8d63400db2b21552d3c912771fceeb2fa90d77ec139be968c68f44",
          "transactionIndex": "0x18",
          "logIndex": "0x71",
          "removed": false
        },
        {
          "address": "0xdc45e5469a8b6d020473f69fec91c0f0e83a3308",
          "topics": [
            "0xe044087a71e55f84948ec1c9a326d935d50b09a1b97fa24ac3721c9437525359"
          ],
          "data": "0x0000000000000000000000004c62f6121e6f967a0872da8364995e9b68c1e82f00000000000000000000000000000000000000000000000000000000000006850000000000000000000000000000000000000000000000000000000000000190",
          "blockHash": "0xfcc728fa88c8b113d661f70410046e09019799bec4e4348ca1e6c3b14ddc6eeb",
          "blockNumber": "0x1873f2c",
          "transactionHash": "0xd1dc15294b8d63400db2b21552d3c912771fceeb2fa90d77ec139be968c68f44",
          "transactionIndex": "0x18",
          "logIndex": "0x72",
          "removed": false
        }
      ],
      "logsBloom": "0x00000000000000000000000000000000000000000001000000000000000000000000000000100000000000000000000000000000000000000000000000000000000000000000000000000000000000000000000000002000000000000000000000000000000000002000000004000000000000000000000000000000000000000000000000000000000000000000000000000000000400000000000000000000000000000000000000000000000000000000002000000000000000000000000000000000000000000000000000000000000000000000000000000000000000000000000000000000000000000000400000000000000000000000000100000000",
      "type": "0x2",
      "transactionHash": "0xd1dc15294b8d63400db2b21552d3c912771fceeb2fa90d77ec139be968c68f44",
      "transactionIndex": "0x18",
      "blockHash": "0xfcc728fa88c8b113d661f70410046e09019799bec4e4348ca1e6c3b14ddc6eeb",
      "blockNumber": "0x1873f2c",
      "gasUsed": "0x28462",
      "effectiveGasPrice": "0x3c4d58b869e15",
      "from": "0x4c62f6121e6f967a0872da8364995e9b68c1e82f",
      "to": "0xdc45e5469a8b6d020473f69fec91c0f0e83a3308",
      "contractAddress": null
    }
  ],
  "libraries": [],
  "pending": [],
  "returns": {},
  "timestamp": 1769566755714,
  "chain": 369,
  "commit": null
}