{
  "transactions": [
    {
      "hash": "0x9ef0f3efb33d8f005027df34380603c0291926ca17d31a6fd4cfd324ad18ce3b",
      "transactionType": "CALL",
      "contractName": null,
      "contractAddress": "0xdc45e5469a8b6d020473f69fec91c0f0e83a3308",
      "function": "trainSkill(uint8)",
      "arguments": [
        "0"
      ],
      "transaction": {
        "from": "0xec646a6c9000e04d050435340d9c42c039eb5648",
        "to": "0xdc45e5469a8b6d020473f69fec91c0f0e83a3308",
        "gas": "0x38605",
        "value": "0x0",
        "input": "0xa0a73d0d0000000000000000000000000000000000000000000000000000000000000000",
        "nonce": "0x4e",
        "chainId": "0x171"
      },
      "additionalContracts": [],
      "isFixedGasLimit": false
    }
  ],
  "receipts": [
    {
      "status": "0x1",
      "cumulativeGasUsed": "0x1d144a0",
      "logs": [
        {
          "address": "0xdc45e5469a8b6d020473f69fec91c0f0e83a3308",
          "topics": [
            "0xa2ecdf3a87e9ffdb151ad823ae834f6165f94e54e5a30467175e075254eb6376"
          ],
          "data": "0x000000000000000000000000ec646a6c9000e04d050435340d9c42c039eb564800000000000000000000000000000000000000000000000000000000000000000000000000000000000000000000000000000000000000000000000000000000000000000000000000000000000000000000000000000000000000000000000000000000000000000000000000000000000000000000000000000000000000000000000000000000000000000000000000000000000000000000000069884c2b000000000000000000000000000000000000000000000000000000006988419f",
          "blockHash": "0x0f52cfad94c0b2fd274364afd949a399bad2f6365caa194da03c8292309ab4d4",
          "blockNumber": "0x188b0e3",
          "transactionHash": "0x9ef0f3efb33d8f005027df34380603c0291926ca17d31a6fd4cfd324ad18ce3b",
          "transactionIndex": "0x23",
          "logIndex": "0x71d",
          "removed": false
        },
        {
          "address": "0xdc45e5469a8b6d020473f69fec91c0f0e83a3308",
          "topics": [
            "0xe044087a71e55f84948ec1c9a326d935d50b09a1b97fa24ac3721c9437525359"
          ],
          "data": "0x000000000000000000000000ec646a6c9000e04d050435340d9c42c039eb564800000000000000000000000000000000000000000000000000000000000002620000000000000000000000000000000000000000000000000000000000000190",
          "blockHash": "0x0f52cfad94c0b2fd274364afd949a399bad2f6365caa194da03c8292309ab4d4",
          "blockNumber": "0x188b0e3",
          "transactionHash": "0x9ef0f3efb33d8f005027df34380603c0291926ca17d31a6fd4cfd324ad18ce3b",
          "transactionIndex": "0x23",
          "logIndex": "0x71e",
          "removed": false
        }
      ],
      "logsBloom": "0x00000000000000000000000000000000000000000001000000000000000000000000000000100000000000000000000000000000000000000000000000000000000000000000000000000000000000000000000000002000000000000000000000000000000000002000000004000000000000000000000000000000000000000000000000000000000000000000000000000000000400000000000000000000000000000000000000000000000000000000002000000000000000000000000000000000000000000000000000000000000000000000000000000000000000000000000000000000000000000000400000000000000000000000000100000000",
      "type": "0x2",
      "transactionHash": "0x9ef0f3efb33d8f005027df34380603c0291926ca17d31a6fd4cfd324ad18ce3b",
      "transactionIndex": "0x23",
      "blockHash": "0x0f52cfad94c0b2fd274364afd949a399bad2f6365caa194da03c8292309ab4d4",
      "blockNumber": "0x188b0e3",
      "gasUsed": "0x28d0d",
      "effectiveGasPrice": "0x297f2537de42d",
      "from": "0xec646a6c9000e04d050435340d9c42c039eb5648",
      "to": "0xdc45e5469a8b6d020473f69fec91c0f0e83a3308",
      "contractAddress": null
    }
  ],
  "libraries": [],
  "pending": [],
  "returns": {},
  "timestamp": 1770537376763,
  "chain": 369,
  "commit": null
}