{
  "transactions": [
    {
      "hash": "0x91ad6ba8893a7242e590667042a9d0db5d159cb27d35817b6ba5a91e4e7df9c7",
      "transactionType": "CALL",
      "contractName": null,
      "contractAddress": "0xdc45e5469a8b6d020473f69fec91c0f0e83a3308",
      "function": "trainSkill(uint8)",
      "arguments": [
        "0"
      ],
      "transaction": {
        "from": "0xeca7a53ba6a190c5d205bfdc7707cbc3399336c1",
        "to": "0xdc45e5469a8b6d020473f69fec91c0f0e83a3308",
        "gas": "0x3bbb4",
        "value": "0x0",
        "input": "0xa0a73d0d0000000000000000000000000000000000000000000000000000000000000000",
        "nonce": "0x3a0",
        "chainId": "0x171"
      },
      "additionalContracts": [],
      "isFixedGasLimit": false
    }
  ],
  "receipts": [
    {
      "status": "0x1",
      "cumulativeGasUsed": "0xec840b",
      "logs": [
        {
          "address": "0xdc45e5469a8b6d020473f69fec91c0f0e83a3308",
          "topics": [
            "0xa2ecdf3a87e9ffdb151ad823ae834f6165f94e54e5a30467175e075254eb6376"
          ],
          "data": "0x000000000000000000000000eca7a53ba6a190c5d205bfdc7707cbc3399336c10000000000000000000000000000000000000000000000000000000000000000000000000000000000000000000000000000000000000000000000000000000000000000000000000000000000000000000000000000000000000000000000000000000000000000000000000000000000000000000000000000000000000000000000000000000000000000000000000000000000000000000000006979f351000000000000000000000000000000000000000000000000000000006979e8c5",
          "blockHash": "0x0f7039d5041e62a64d72d4a0d31b955774a1488de06bbd9de5ae1a7d8d515ad5",
          "blockNumber": "0x1874ac2",
          "transactionHash": "0x91ad6ba8893a7242e590667042a9d0db5d159cb27d35817b6ba5a91e4e7df9c7",
          "transactionIndex": "0xd",
          "logIndex": "0x39a",
          "removed": false
        },
        {
          "address": "0xdc45e5469a8b6d020473f69fec91c0f0e83a3308",
          "topics": [
            "0xe044087a71e55f84948ec1c9a326d935d50b09a1b97fa24ac3721c9437525359"
          ],
          "data": "0x000000000000000000000000eca7a53ba6a190c5d205bfdc7707cbc3399336c100000000000000000000000000000000000000000000000000000000000002020000000000000000000000000000000000000000000000000000000000000190",
          "blockHash": "0x0f7039d5041e62a64d72d4a0d31b955774a1488de06bbd9de5ae1a7d8d515ad5",
          "blockNumber": "0x1874ac2",
          "transactionHash": "0x91ad6ba8893a7242e590667042a9d0db5d159cb27d35817b6ba5a91e4e7df9c7",
          "transactionIndex": "0xd",
          "logIndex": "0x39b",
          "removed": false
        }
      ],
      "logsBloom": "0x00000000000000000000000000000000000000000001000000000000000000000000000000100000000000000000000000000000000000000000000000000000000000000000000000000000000000000000000000002000000000000000000000000000000000002000000004000000000000000000000000000000000000000000000000000000000000000000000000000000000400000000000000000000000000000000000000000000000000000000002000000000000000000000000000000000000000000000000000000000000000000000000000000000000000000000000000000000000000000000400000000000000000000000000100000000",
      "type": "0x2",
      "transactionHash": "0x91ad6ba8893a7242e590667042a9d0db5d159cb27d35817b6ba5a91e4e7df9c7",
      "transactionIndex": "0xd",
      "blockHash": "0x0f7039d5041e62a64d72d4a0d31b955774a1488de06bbd9de5ae1a7d8d515ad5",
      "blockNumber": "0x1874ac2",
      "gasUsed": "0x28d79",
      "effectiveGasPrice": "0x1bc1a8dd04109",
      "from": "0xeca7a53ba6a190c5d205bfdc7707cbc3399336c1",
      "to": "0xdc45e5469a8b6d020473f69fec91c0f0e83a3308",
      "contractAddress": null
    }
  ],
  "libraries": [],
  "pending": [],
  "returns": {},
  "timestamp": 1769597126679,
  "chain": 369,
  "commit": null
}