{
  "transactions": [
    {
      "hash": "0x134a0d9e908bca0ca7cee840069163a63d6800cee9a52c337d82d1561c902a6b",
      "transactionType": "CALL",
      "contractName": null,
      "contractAddress": "0xdc45e5469a8b6d020473f69fec91c0f0e83a3308",
      "function": "trainSkill(uint8)",
      "arguments": [
        "0"
      ],
      "transaction": {
        "from": "0xec646a6c9000e04d050435340d9c42c039eb5648",
        "to": "0xdc45e5469a8b6d020473f69fec91c0f0e83a3308",
        "gas": "0x38605",
        "value": "0x0",
        "input": "0xa0a73d0d0000000000000000000000000000000000000000000000000000000000000000",
        "nonce": "0x3f",
        "chainId": "0x171"
      },
      "additionalContracts": [],
      "isFixedGasLimit": false
    }
  ],
  "receipts": [
    {
      "status": "0x1",
      "cumulativeGasUsed": "0x430c28",
      "logs": [
        {
          "address": "0xdc45e5469a8b6d020473f69fec91c0f0e83a3308",
          "topics": [
            "0x5e5a0b90fdb27738829c217bcfc3821977755208ca0818475f4fe9af193a8a38"
          ],
          "data": "0x000000000000000000000000ec646a6c9000e04d050435340d9c42c039eb564800000000000000000000000000000000000000000000000000000000000000c8",
          "blockHash": "0xb081bfa5c8764209f7d7c9964cbe8e9f91a9df9d54ef3045c34ccd2ade4b8486",
          "blockNumber": "0x188ab93",
          "transactionHash": "0x134a0d9e908bca0ca7cee840069163a63d6800cee9a52c337d82d1561c902a6b",
          "transactionIndex": "0x1a",
          "logIndex": "0x4e",
          "removed": false
        },
        {
          "address": "0xdc45e5469a8b6d020473f69fec91c0f0e83a3308",
          "topics": [
            "0xa2ecdf3a87e9ffdb151ad823ae834f6165f94e54e5a30467175e075254eb6376"
          ],
          "data": "0x000000000000000000000000ec646a6c9000e04d050435340d9c42c039eb5648000000000000000000000000000000000000000000000000000000000000000000000000000000000000000000000000000000000000000000000000000000010000000000000000000000000000000000000000000000000000000000000000000000000000000000000000000000000000000000000000000000000000003200000000000000000000000000000000000000000000000000000000698815c10000000000000000000000000000000000000000000000000000000069880b35",
          "blockHash": "0xb081bfa5c8764209f7d7c9964cbe8e9f91a9df9d54ef3045c34ccd2ade4b8486",
          "blockNumber": "0x188ab93",
          "transactionHash": "0x134a0d9e908bca0ca7cee840069163a63d6800cee9a52c337d82d1561c902a6b",
          "transactionIndex": "0x1a",
          "logIndex": "0x4f",
          "removed": false
        },
        {
          "address": "0xdc45e5469a8b6d020473f69fec91c0f0e83a3308",
          "topics": [
            "0xe044087a71e55f84948ec1c9a326d935d50b09a1b97fa24ac3721c9437525359"
          ],
          "data": "0x000000000000000000000000ec646a6c9000e04d050435340d9c42c039eb564800000000000000000000000000000000000000000000000000000000000000050000000000000000000000000000000000000000000000000000000000000190",
          "blockHash": "0xb081bfa5c8764209f7d7c9964cbe8e9f91a9df9d54ef3045c34ccd2ade4b8486",
          "blockNumber": "0x188ab93",
          "transactionHash": "0x134a0d9e908bca0ca7cee840069163a63d6800cee9a52c337d82d1561c902a6b",
          "transactionIndex": "0x1a",
          "logIndex": "0x50",
          "removed": false
        }
      ],
      "logsBloom": "0x00000000000000000000000000400000000000000001000000000000000000000000000000100000000000000000000000000000000000000000000000000000000000000000000000000000000000000000000000002000000000000000000000000000000000002000010004000000000000000000000000000000000000000000000000000000000000000000000000000000000400000000000000000000000000000000000002000000000000000000002000000000000000000000000000000000000000000000000000000000000000000000000000000000000000000000000000000000000000000000400000000000000000000000000100000000",
      "type": "0x2",
      "transactionHash": "0x134a0d9e908bca0ca7cee840069163a63d6800cee9a52c337d82d1561c902a6b",
      "transactionIndex": "0x1a",
      "blockHash": "0xb081bfa5c8764209f7d7c9964cbe8e9f91a9df9d54ef3045c34ccd2ade4b8486",
      "blockNumber": "0x188ab93",
      "gasUsed": "0x2a951",
      "effectiveGasPrice": "0x3096db66bd63c",
      "from": "0xec646a6c9000e04d050435340d9c42c039eb5648",
      "to": "0xdc45e5469a8b6d020473f69fec91c0f0e83a3308",
      "contractAddress": null
    }
  ],
  "libraries": [],
  "pending": [],
  "returns": {},
  "timestamp": 1770523446757,
  "chain": 369,
  "commit": null
}