{
  "transactions": [
    {
      "hash": "0xcbfc4dac99f76aa0a47edb4cff6fa666639fb57dfcf3620952c6227b23aa1034",
      "transactionType": "CALL",
      "contractName": null,
      "contractAddress": "0xdc45e5469a8b6d020473f69fec91c0f0e83a3308",
      "function": "trainSkill(uint8)",
      "arguments": [
        "0"
      ],
      "transaction": {
        "from": "0x4c62f6121e6f967a0872da8364995e9b68c1e82f",
        "to": "0xdc45e5469a8b6d020473f69fec91c0f0e83a3308",
        "gas": "0x38605",
        "value": "0x0",
        "input": "0xa0a73d0d0000000000000000000000000000000000000000000000000000000000000000",
        "nonce": "0x97d",
        "chainId": "0x171"
      },
      "additionalContracts": [],
      "isFixedGasLimit": false
    }
  ],
  "receipts": [
    {
      "status": "0x1",
      "cumulativeGasUsed": "0x1531bc2",
      "logs": [
        {
          "address": "0xdc45e5469a8b6d020473f69fec91c0f0e83a3308",
          "topics": [
            "0xa2ecdf3a87e9ffdb151ad823ae834f6165f94e54e5a30467175e075254eb6376"
          ],
          "data": "0x0000000000000000000000004c62f6121e6f967a0872da8364995e9b68c1e82f00000000000000000000000000000000000000000000000000000000000000000000000000000000000000000000000000000000000000000000000000000000000000000000000000000000000000000000000000000000000000000000000000000000000000000000000000000000000000000000000000000000000000000000000000000000000000000000000000000000000000000000000069884c5300000000000000000000000000000000000000000000000000000000698841c7",
          "blockHash": "0x3c6161ba82903fa6c56e61ccc88823d988aaeffa9f5035c1425f513c7bbe2328",
          "blockNumber": "0x188b0e7",
          "transactionHash": "0xcbfc4dac99f76aa0a47edb4cff6fa666639fb57dfcf3620952c6227b23aa1034",
          "transactionIndex": "0x17",
          "logIndex": "0x421",
          "removed": false
        },
        {
          "address": "0xdc45e5469a8b6d020473f69fec91c0f0e83a3308",
          "topics": [
            "0xe044087a71e55f84948ec1c9a326d935d50b09a1b97fa24ac3721c9437525359"
          ],
          "data": "0x0000000000000000000000004c62f6121e6f967a0872da8364995e9b68c1e82f00000000000000000000000000000000000000000000000000000000000021280000000000000000000000000000000000000000000000000000000000000190",
          "blockHash": "0x3c6161ba82903fa6c56e61ccc88823d988aaeffa9f5035c1425f513c7bbe2328",
          "blockNumber": "0x188b0e7",
          "transactionHash": "0xcbfc4dac99f76aa0a47edb4cff6fa666639fb57dfcf3620952c6227b23aa1034",
          "transactionIndex": "0x17",
          "logIndex": "0x422",
          "removed": false
        }
      ],
      "logsBloom": "0x00000000000000000000000000000000000000000001000000000000000000000000000000100000000000000000000000000000000000000000000000000000000000000000000000000000000000000000000000002000000000000000000000000000000000002000000004000000000000000000000000000000000000000000000000000000000000000000000000000000000400000000000000000000000000000000000000000000000000000000002000000000000000000000000000000000000000000000000000000000000000000000000000000000000000000000000000000000000000000000400000000000000000000000000100000000",
      "type": "0x2",
      "transactionHash": "0xcbfc4dac99f76aa0a47edb4cff6fa666639fb57dfcf3620952c6227b23aa1034",
      "transactionIndex": "0x17",
      "blockHash": "0x3c6161ba82903fa6c56e61ccc88823d988aaeffa9f5035c1425f513c7bbe2328",
      "blockNumber": "0x188b0e7",
      "gasUsed": "0x28d0d",
      "effectiveGasPrice": "0x2f7c88469e681",
      "from": "0x4c62f6121e6f967a0872da8364995e9b68c1e82f",
      "to": "0xdc45e5469a8b6d020473f69fec91c0f0e83a3308",
      "contractAddress": null
    }
  ],
  "libraries": [],
  "pending": [],
  "returns": {},
  "timestamp": 1770537418503,
  "chain": 369,
  "commit": null
}