{
  "transactions": [
    {
      "hash": "0xa457ed85c4cc378755196f5aa83a8d86d551c28da51a7bb2b5dfb64dfda65646",
      "transactionType": "CALL",
      "contractName": null,
      "contractAddress": "0xdc45e5469a8b6d020473f69fec91c0f0e83a3308",
      "function": "trainSkill(uint8)",
      "arguments": [
        "0"
      ],
      "transaction": {
        "from": "0xac56dc5a4a9de0197f7b8f584ea04ec7e0123dde",
        "to": "0xdc45e5469a8b6d020473f69fec91c0f0e83a3308",
        "gas": "0x3ae68",
        "value": "0x0",
        "input": "0xa0a73d0d0000000000000000000000000000000000000000000000000000000000000000",
        "nonce": "0x281",
        "chainId": "0x171"
      },
      "additionalContracts": [],
      "isFixedGasLimit": false
    }
  ],
  "receipts": [
    {
      "status": "0x1",
      "cumulativeGasUsed": "0xb410d6",
      "logs": [
        {
          "address": "0xdc45e5469a8b6d020473f69fec91c0f0e83a3308",
          "topics": [
            "0xa2ecdf3a87e9ffdb151ad823ae834f6165f94e54e5a30467175e075254eb6376"
          ],
          "data": "0x000000000000000000000000ac56dc5a4a9de0197f7b8f584ea04ec7e0123dde00000000000000000000000000000000000000000000000000000000000000000000000000000000000000000000000000000000000000000000000000000000000000000000000000000000000000000000000000000000000000000000000000000000000000000000000000000000000000000000000000000000000000000000000000000000000000000000000000000000000000000000000069753ac30000000000000000000000000000000000000000000000000000000069753037",
          "blockHash": "0x099080eee3238d44b165e35f67fa7ec01bb92c484549ee2cfe29df902c0954b7",
          "blockNumber": "0x186d4dc",
          "transactionHash": "0xa457ed85c4cc378755196f5aa83a8d86d551c28da51a7bb2b5dfb64dfda65646",
          "transactionIndex": "0x35",
          "logIndex": "0x11b",
          "removed": false
        },
        {
          "address": "0xdc45e5469a8b6d020473f69fec91c0f0e83a3308",
          "topics": [
            "0xe044087a71e55f84948ec1c9a326d935d50b09a1b97fa24ac3721c9437525359"
          ],
          "data": "0x000000000000000000000000ac56dc5a4a9de0197f7b8f584ea04ec7e0123dde0000000000000000000000000000000000000000000000000000000000001f720000000000000000000000000000000000000000000000000000000000000190",
          "blockHash": "0x099080eee3238d44b165e35f67fa7ec01bb92c484549ee2cfe29df902c0954b7",
          "blockNumber": "0x186d4dc",
          "transactionHash": "0xa457ed85c4cc378755196f5aa83a8d86d551c28da51a7bb2b5dfb64dfda65646",
          "transactionIndex": "0x35",
          "logIndex": "0x11c",
          "removed": false
        }
      ],
      "logsBloom": "0x00000000000000000000000000000000000000000001000000000000000000000000000000100000000000000000000000000000000000000000000000000000000000000000000000000000000000000000000000002000000000000000000000000000000000002000000004000000000000000000000000000000000000000000000000000000000000000000000000000000000400000000000000000000000000000000000000000000000000000000002000000000000000000000000000000000000000000000000000000000000000000000000000000000000000000000000000000000000000000000400000000000000000000000000100000000",
      "type": "0x2",
      "transactionHash": "0xa457ed85c4cc378755196f5aa83a8d86d551c28da51a7bb2b5dfb64dfda65646",
      "transactionIndex": "0x35",
      "blockHash": "0x099080eee3238d44b165e35f67fa7ec01bb92c484549ee2cfe29df902c0954b7",
      "blockNumber": "0x186d4dc",
      "gasUsed": "0x28462",
      "effectiveGasPrice": "0xa50a6ec79ea1ea",
      "from": "0xac56dc5a4a9de0197f7b8f584ea04ec7e0123dde",
      "to": "0xdc45e5469a8b6d020473f69fec91c0f0e83a3308",
      "contractAddress": null
    }
  ],
  "libraries": [],
  "pending": [],
  "returns": {},
  "timestamp": 1769287735883,
  "chain": 369,
  "commit": "953695a"
}