{
  "transactions": [
    {
      "hash": "0x270724326568da904b4bde7c2f2162e56527ca70b822087e0fb9d3802e04e692",
      "transactionType": "CALL",
      "contractName": null,
      "contractAddress": "0xdc45e5469a8b6d020473f69fec91c0f0e83a3308",
      "function": "trainSkill(uint8)",
      "arguments": [
        "0"
      ],
      "transaction": {
        "from": "0x4c62f6121e6f967a0872da8364995e9b68c1e82f",
        "to": "0xdc45e5469a8b6d020473f69fec91c0f0e83a3308",
        "gas": "0x38605",
        "value": "0x0",
        "input": "0xa0a73d0d0000000000000000000000000000000000000000000000000000000000000000",
        "nonce": "0x95e",
        "chainId": "0x171"
      },
      "additionalContracts": [],
      "isFixedGasLimit": false
    }
  ],
  "receipts": [
    {
      "status": "0x1",
      "cumulativeGasUsed": "0x30ecca",
      "logs": [
        {
          "address": "0xdc45e5469a8b6d020473f69fec91c0f0e83a3308",
          "topics": [
            "0xa2ecdf3a87e9ffdb151ad823ae834f6165f94e54e5a30467175e075254eb6376"
          ],
          "data": "0x0000000000000000000000004c62f6121e6f967a0872da8364995e9b68c1e82f0000000000000000000000000000000000000000000000000000000000000000000000000000000000000000000000000000000000000000000000000000000000000000000000000000000000000000000000000000000000000000000000000000000000000000000000000000000000000000000000000000000000000000000000000000000000000000000000000000000000000000000000006987a2ad0000000000000000000000000000000000000000000000000000000069879821",
          "blockHash": "0x65f1210b425c855be0e08191a69b730d2e59f0a46614d1676d62773c1827b661",
          "blockNumber": "0x188a054",
          "transactionHash": "0x270724326568da904b4bde7c2f2162e56527ca70b822087e0fb9d3802e04e692",
          "transactionIndex": "0x20",
          "logIndex": "0x39",
          "removed": false
        },
        {
          "address": "0xdc45e5469a8b6d020473f69fec91c0f0e83a3308",
          "topics": [
            "0xe044087a71e55f84948ec1c9a326d935d50b09a1b97fa24ac3721c9437525359"
          ],
          "data": "0x0000000000000000000000004c62f6121e6f967a0872da8364995e9b68c1e82f00000000000000000000000000000000000000000000000000000000000003440000000000000000000000000000000000000000000000000000000000000190",
          "blockHash": "0x65f1210b425c855be0e08191a69b730d2e59f0a46614d1676d62773c1827b661",
          "blockNumber": "0x188a054",
          "transactionHash": "0x270724326568da904b4bde7c2f2162e56527ca70b822087e0fb9d3802e04e692",
          "transactionIndex": "0x20",
          "logIndex": "0x3a",
          "removed": false
        }
      ],
      "logsBloom": "0x00000000000000000000000000000000000000000001000000000000000000000000000000100000000000000000000000000000000000000000000000000000000000000000000000000000000000000000000000002000000000000000000000000000000000002000000004000000000000000000000000000000000000000000000000000000000000000000000000000000000400000000000000000000000000000000000000000000000000000000002000000000000000000000000000000000000000000000000000000000000000000000000000000000000000000000000000000000000000000000400000000000000000000000000100000000",
      "type": "0x2",
      "transactionHash": "0x270724326568da904b4bde7c2f2162e56527ca70b822087e0fb9d3802e04e692",
      "transactionIndex": "0x20",
      "blockHash": "0x65f1210b425c855be0e08191a69b730d2e59f0a46614d1676d62773c1827b661",
      "blockNumber": "0x188a054",
      "gasUsed": "0x28d0d",
      "effectiveGasPrice": "0x2e46897e31a2e",
      "from": "0x4c62f6121e6f967a0872da8364995e9b68c1e82f",
      "to": "0xdc45e5469a8b6d020473f69fec91c0f0e83a3308",
      "contractAddress": null
    }
  ],
  "libraries": [],
  "pending": [],
  "returns": {},
  "timestamp": 1770493986386,
  "chain": 369,
  "commit": null
}