{
  "transactions": [
    {
      "hash": "0x39eadac0e15a56672bb9e94d37d6458d9f7363c1371481833f050ebacccca600",
      "transactionType": "CALL",
      "contractName": null,
      "contractAddress": "0xdc45e5469a8b6d020473f69fec91c0f0e83a3308",
      "function": "trainSkill(uint8)",
      "arguments": [
        "0"
      ],
      "transaction": {
        "from": "0x4c62f6121e6f967a0872da8364995e9b68c1e82f",
        "to": "0xdc45e5469a8b6d020473f69fec91c0f0e83a3308",
        "gas": "0x38605",
        "value": "0x0",
        "input": "0xa0a73d0d0000000000000000000000000000000000000000000000000000000000000000",
        "nonce": "0x954",
        "chainId": "0x171"
      },
      "additionalContracts": [],
      "isFixedGasLimit": false
    }
  ],
  "receipts": [
    {
      "status": "0x1",
      "cumulativeGasUsed": "0x180335b",
      "logs": [
        {
          "address": "0xdc45e5469a8b6d020473f69fec91c0f0e83a3308",
          "topics": [
            "0xa2ecdf3a87e9ffdb151ad823ae834f6165f94e54e5a30467175e075254eb6376"
          ],
          "data": "0x0000000000000000000000004c62f6121e6f967a0872da8364995e9b68c1e82f000000000000000000000000000000000000000000000000000000000000000000000000000000000000000000000000000000000000000000000000000000000000000000000000000000000000000000000000000000000000000000000000000000000000000000000000000000000000000000000000000000000000000000000000000000000000000000000000000000000000000000000000698782ff0000000000000000000000000000000000000000000000000000000069877873",
          "blockHash": "0xe2dcd0aa626f47b004856942ef3159d54e4cafa4e074e3a6ffcff47e7a90e696",
          "blockNumber": "0x1889d3a",
          "transactionHash": "0x39eadac0e15a56672bb9e94d37d6458d9f7363c1371481833f050ebacccca600",
          "transactionIndex": "0x1e",
          "logIndex": "0x1e3",
          "removed": false
        },
        {
          "address": "0xdc45e5469a8b6d020473f69fec91c0f0e83a3308",
          "topics": [
            "0xe044087a71e55f84948ec1c9a326d935d50b09a1b97fa24ac3721c9437525359"
          ],
          "data": "0x0000000000000000000000004c62f6121e6f967a0872da8364995e9b68c1e82f00000000000000000000000000000000000000000000000000000000000017770000000000000000000000000000000000000000000000000000000000000190",
          "blockHash": "0xe2dcd0aa626f47b004856942ef3159d54e4cafa4e074e3a6ffcff47e7a90e696",
          "blockNumber": "0x1889d3a",
          "transactionHash": "0x39eadac0e15a56672bb9e94d37d6458d9f7363c1371481833f050ebacccca600",
          "transactionIndex": "0x1e",
          "logIndex": "0x1e4",
          "removed": false
        }
      ],
      "logsBloom": "0x00000000000000000000000000000000000000000001000000000000000000000000000000100000000000000000000000000000000000000000000000000000000000000000000000000000000000000000000000002000000000000000000000000000000000002000000004000000000000000000000000000000000000000000000000000000000000000000000000000000000400000000000000000000000000000000000000000000000000000000002000000000000000000000000000000000000000000000000000000000000000000000000000000000000000000000000000000000000000000000400000000000000000000000000100000000",
      "type": "0x2",
      "transactionHash": "0x39eadac0e15a56672bb9e94d37d6458d9f7363c1371481833f050ebacccca600",
      "transactionIndex": "0x1e",
      "blockHash": "0xe2dcd0aa626f47b004856942ef3159d54e4cafa4e074e3a6ffcff47e7a90e696",
      "blockNumber": "0x1889d3a",
      "gasUsed": "0x28d0d",
      "effectiveGasPrice": "0x2ca4c2d7f54c1",
      "from": "0x4c62f6121e6f967a0872da8364995e9b68c1e82f",
      "to": "0xdc45e5469a8b6d020473f69fec91c0f0e83a3308",
      "contractAddress": null
    }
  ],
  "libraries": [],
  "pending": [],
  "returns": {},
  "timestamp": 1770485876102,
  "chain": 369,
  "commit": null
}