{
  "transactions": [
    {
      "hash": "0x591eb258451882cae933bb56e57d86b7177f3a7ead96489d18fdd0b5c4eff5b3",
      "transactionType": "CALL",
      "contractName": null,
      "contractAddress": "0xdc45e5469a8b6d020473f69fec91c0f0e83a3308",
      "function": "trainSkill(uint8)",
      "arguments": [
        "0"
      ],
      "transaction": {
        "from": "0xac56dc5a4a9de0197f7b8f584ea04ec7e0123dde",
        "to": "0xdc45e5469a8b6d020473f69fec91c0f0e83a3308",
        "gas": "0x379ba",
        "value": "0x0",
        "input": "0xa0a73d0d0000000000000000000000000000000000000000000000000000000000000000",
        "nonce": "0x3a4",
        "chainId": "0x171"
      },
      "additionalContracts": [],
      "isFixedGasLimit": false
    }
  ],
  "receipts": [
    {
      "status": "0x1",
      "cumulativeGasUsed": "0x6d3a16",
      "logs": [
        {
          "address": "0xdc45e5469a8b6d020473f69fec91c0f0e83a3308",
          "topics": [
            "0xa2ecdf3a87e9ffdb151ad823ae834f6165f94e54e5a30467175e075254eb6376"
          ],
          "data": "0x000000000000000000000000ac56dc5a4a9de0197f7b8f584ea04ec7e0123dde000000000000000000000000000000000000000000000000000000000000000000000000000000000000000000000000000000000000000000000000000000000000000000000000000000000000000000000000000000000000000000000000000000000000000000000000000000000000000000000000000000000000000000000000000000000000000000000000000000000000000000000000697a758d00000000000000000000000000000000000000000000000000000000697a6b01",
          "blockHash": "0x5380a1e6009261bd32c24b74c90607f59d5b39978ad2e258b14ec89cd4aadbea",
          "blockNumber": "0x1875785",
          "transactionHash": "0x591eb258451882cae933bb56e57d86b7177f3a7ead96489d18fdd0b5c4eff5b3",
          "transactionIndex": "0x13",
          "logIndex": "0xa0",
          "removed": false
        },
        {
          "address": "0xdc45e5469a8b6d020473f69fec91c0f0e83a3308",
          "topics": [
            "0xe044087a71e55f84948ec1c9a326d935d50b09a1b97fa24ac3721c9437525359"
          ],
          "data": "0x000000000000000000000000ac56dc5a4a9de0197f7b8f584ea04ec7e0123dde00000000000000000000000000000000000000000000000000000000000010ab0000000000000000000000000000000000000000000000000000000000000190",
          "blockHash": "0x5380a1e6009261bd32c24b74c90607f59d5b39978ad2e258b14ec89cd4aadbea",
          "blockNumber": "0x1875785",
          "transactionHash": "0x591eb258451882cae933bb56e57d86b7177f3a7ead96489d18fdd0b5c4eff5b3",
          "transactionIndex": "0x13",
          "logIndex": "0xa1",
          "removed": false
        }
      ],
      "logsBloom": "0x00000000000000000000000000000000000000000001000000000000000000000000000000100000000000000000000000000000000000000000000000000000000000000000000000000000000000000000000000002000000000000000000000000000000000002000000004000000000000000000000000000000000000000000000000000000000000000000000000000000000400000000000000000000000000000000000000000000000000000000002000000000000000000000000000000000000000000000000000000000000000000000000000000000000000000000000000000000000000000000400000000000000000000000000100000000",
      "type": "0x2",
      "transactionHash": "0x591eb258451882cae933bb56e57d86b7177f3a7ead96489d18fdd0b5c4eff5b3",
      "transactionIndex": "0x13",
      "blockHash": "0x5380a1e6009261bd32c24b74c90607f59d5b39978ad2e258b14ec89cd4aadbea",
      "blockNumber": "0x1875785",
      "gasUsed": "0x28426",
      "effectiveGasPrice": "0x3dac96868a5fd",
      "from": "0xac56dc5a4a9de0197f7b8f584ea04ec7e0123dde",
      "to": "0xdc45e5469a8b6d020473f69fec91c0f0e83a3308",
      "contractAddress": null
    }
  ],
  "libraries": [],
  "pending": [],
  "returns": {},
  "timestamp": 1769630466484,
  "chain": 369,
  "commit": null
}