{
  "transactions": [
    {
      "hash": "0x27fac3ce998997c7efbd45e13bc89c27d204872fa41ed285be0e67387f497488",
      "transactionType": "CALL",
      "contractName": null,
      "contractAddress": "0xdc45e5469a8b6d020473f69fec91c0f0e83a3308",
      "function": "trainSkill(uint8)",
      "arguments": [
        "0"
      ],
      "transaction": {
        "from": "0xeca7a53ba6a190c5d205bfdc7707cbc3399336c1",
        "to": "0xdc45e5469a8b6d020473f69fec91c0f0e83a3308",
        "gas": "0x3bbb4",
        "value": "0x0",
        "input": "0xa0a73d0d0000000000000000000000000000000000000000000000000000000000000000",
        "nonce": "0x2de",
        "chainId": "0x171"
      },
      "additionalContracts": [],
      "isFixedGasLimit": false
    }
  ],
  "receipts": [
    {
      "status": "0x1",
      "cumulativeGasUsed": "0x1cea379",
      "logs": [
        {
          "address": "0xdc45e5469a8b6d020473f69fec91c0f0e83a3308",
          "topics": [
            "0xa2ecdf3a87e9ffdb151ad823ae834f6165f94e54e5a30467175e075254eb6376"
          ],
          "data": "0x000000000000000000000000eca7a53ba6a190c5d205bfdc7707cbc3399336c10000000000000000000000000000000000000000000000000000000000000000000000000000000000000000000000000000000000000000000000000000000000000000000000000000000000000000000000000000000000000000000000000000000000000000000000000000000000000000000000000000000000000000000000000000000000000000000000000000000000000000000000006977543900000000000000000000000000000000000000000000000000000000697749ad",
          "blockHash": "0x25a79c7e44d6a8e3cfe426c9577a610a2c34410d59cb0bbbd26ec22c47224fed",
          "blockNumber": "0x187092c",
          "transactionHash": "0x27fac3ce998997c7efbd45e13bc89c27d204872fa41ed285be0e67387f497488",
          "transactionIndex": "0x2c",
          "logIndex": "0x3e6",
          "removed": false
        },
        {
          "address": "0xdc45e5469a8b6d020473f69fec91c0f0e83a3308",
          "topics": [
            "0xe044087a71e55f84948ec1c9a326d935d50b09a1b97fa24ac3721c9437525359"
          ],
          "data": "0x000000000000000000000000eca7a53ba6a190c5d205bfdc7707cbc3399336c100000000000000000000000000000000000000000000000000000000000014d50000000000000000000000000000000000000000000000000000000000000190",
          "blockHash": "0x25a79c7e44d6a8e3cfe426c9577a610a2c34410d59cb0bbbd26ec22c47224fed",
          "blockNumber": "0x187092c",
          "transactionHash": "0x27fac3ce998997c7efbd45e13bc89c27d204872fa41ed285be0e67387f497488",
          "transactionIndex": "0x2c",
          "logIndex": "0x3e7",
          "removed": false
        }
      ],
      "logsBloom": "0x00000000000000000000000000000000000000000001000000000000000000000000000000100000000000000000000000000000000000000000000000000000000000000000000000000000000000000000000000002000000000000000000000000000000000002000000004000000000000000000000000000000000000000000000000000000000000000000000000000000000400000000000000000000000000000000000000000000000000000000002000000000000000000000000000000000000000000000000000000000000000000000000000000000000000000000000000000000000000000000400000000000000000000000000100000000",
      "type": "0x2",
      "transactionHash": "0x27fac3ce998997c7efbd45e13bc89c27d204872fa41ed285be0e67387f497488",
      "transactionIndex": "0x2c",
      "blockHash": "0x25a79c7e44d6a8e3cfe426c9577a610a2c34410d59cb0bbbd26ec22c47224fed",
      "blockNumber": "0x187092c",
      "gasUsed": "0x28d79",
      "effectiveGasPrice": "0x14eda1b2fff2f",
      "from": "0xeca7a53ba6a190c5d205bfdc7707cbc3399336c1",
      "to": "0xdc45e5469a8b6d020473f69fec91c0f0e83a3308",
      "contractAddress": null
    }
  ],
  "libraries": [],
  "pending": [],
  "returns": {},
  "timestamp": 1769425326456,
  "chain": 369,
  "commit": "953695a"
}