{
  "transactions": [
    {
      "hash": "0xfe373c078067287daab9b7e3d9582fa85e820d73a718514bb8223b4865e097ae",
      "transactionType": "CALL",
      "contractName": null,
      "contractAddress": "0xdc45e5469a8b6d020473f69fec91c0f0e83a3308",
      "function": "trainSkill(uint8)",
      "arguments": [
        "0"
      ],
      "transaction": {
        "from": "0xac56dc5a4a9de0197f7b8f584ea04ec7e0123dde",
        "to": "0xdc45e5469a8b6d020473f69fec91c0f0e83a3308",
        "gas": "0x38605",
        "value": "0x0",
        "input": "0xa0a73d0d0000000000000000000000000000000000000000000000000000000000000000",
        "nonce": "0x3b6",
        "chainId": "0x171"
      },
      "additionalContracts": [],
      "isFixedGasLimit": false
    }
  ],
  "receipts": [
    {
      "status": "0x1",
      "cumulativeGasUsed": "0x209ebb3",
      "logs": [
        {
          "address": "0xdc45e5469a8b6d020473f69fec91c0f0e83a3308",
          "topics": [
            "0xa2ecdf3a87e9ffdb151ad823ae834f6165f94e54e5a30467175e075254eb6376"
          ],
          "data": "0x000000000000000000000000ac56dc5a4a9de0197f7b8f584ea04ec7e0123dde000000000000000000000000000000000000000000000000000000000000000000000000000000000000000000000000000000000000000000000000000000000000000000000000000000000000000000000000000000000000000000000000000000000000000000000000000000000000000000000000000000000000000000000000000000000000000000000000000000000000000000000000697aabb100000000000000000000000000000000000000000000000000000000697aa125",
          "blockHash": "0xb9d5ebc8fcfabc50f5783bab1d39008f74074957400ec2d391c982a8b3210b55",
          "blockNumber": "0x1875cd0",
          "transactionHash": "0xfe373c078067287daab9b7e3d9582fa85e820d73a718514bb8223b4865e097ae",
          "transactionIndex": "0x2a",
          "logIndex": "0x683",
          "removed": false
        },
        {
          "address": "0xdc45e5469a8b6d020473f69fec91c0f0e83a3308",
          "topics": [
            "0xe044087a71e55f84948ec1c9a326d935d50b09a1b97fa24ac3721c9437525359"
          ],
          "data": "0x000000000000000000000000ac56dc5a4a9de0197f7b8f584ea04ec7e0123dde0000000000000000000000000000000000000000000000000000000000001cb00000000000000000000000000000000000000000000000000000000000000190",
          "blockHash": "0xb9d5ebc8fcfabc50f5783bab1d39008f74074957400ec2d391c982a8b3210b55",
          "blockNumber": "0x1875cd0",
          "transactionHash": "0xfe373c078067287daab9b7e3d9582fa85e820d73a718514bb8223b4865e097ae",
          "transactionIndex": "0x2a",
          "logIndex": "0x684",
          "removed": false
        }
      ],
      "logsBloom": "0x00000000000000000000000000000000000000000001000000000000000000000000000000100000000000000000000000000000000000000000000000000000000000000000000000000000000000000000000000002000000000000000000000000000000000002000000004000000000000000000000000000000000000000000000000000000000000000000000000000000000400000000000000000000000000000000000000000000000000000000002000000000000000000000000000000000000000000000000000000000000000000000000000000000000000000000000000000000000000000000400000000000000000000000000100000000",
      "type": "0x2",
      "transactionHash": "0xfe373c078067287daab9b7e3d9582fa85e820d73a718514bb8223b4865e097ae",
      "transactionIndex": "0x2a",
      "blockHash": "0xb9d5ebc8fcfabc50f5783bab1d39008f74074957400ec2d391c982a8b3210b55",
      "blockNumber": "0x1875cd0",
      "gasUsed": "0x28d0d",
      "effectiveGasPrice": "0x193ca48945217",
      "from": "0xac56dc5a4a9de0197f7b8f584ea04ec7e0123dde",
      "to": "0xdc45e5469a8b6d020473f69fec91c0f0e83a3308",
      "contractAddress": null
    }
  ],
  "libraries": [],
  "pending": [],
  "returns": {},
  "timestamp": 1769644327634,
  "chain": 369,
  "commit": null
}