{
  "transactions": [
    {
      "hash": "0x32c4d4a58f4bca0974c80553e7a8815a5eca7ea81a1514f0f2509c5bf0c46bbf",
      "transactionType": "CALL",
      "contractName": null,
      "contractAddress": "0xdc45e5469a8b6d020473f69fec91c0f0e83a3308",
      "function": "trainSkill(uint8)",
      "arguments": [
        "0"
      ],
      "transaction": {
        "from": "0xeca7a53ba6a190c5d205bfdc7707cbc3399336c1",
        "to": "0xdc45e5469a8b6d020473f69fec91c0f0e83a3308",
        "gas": "0x3bbb4",
        "value": "0x0",
        "input": "0xa0a73d0d0000000000000000000000000000000000000000000000000000000000000000",
        "nonce": "0x2e1",
        "chainId": "0x171"
      },
      "additionalContracts": [],
      "isFixedGasLimit": false
    }
  ],
  "receipts": [
    {
      "status": "0x1",
      "cumulativeGasUsed": "0x204b701",
      "logs": [
        {
          "address": "0xdc45e5469a8b6d020473f69fec91c0f0e83a3308",
          "topics": [
            "0xa2ecdf3a87e9ffdb151ad823ae834f6165f94e54e5a30467175e075254eb6376"
          ],
          "data": "0x000000000000000000000000eca7a53ba6a190c5d205bfdc7707cbc3399336c100000000000000000000000000000000000000000000000000000000000000000000000000000000000000000000000000000000000000000000000000000000000000000000000000000000000000000000000000000000000000000000000000000000000000000000000000000000000000000000000000000000000000000000000000000000000000000000000000000000000000000000000069775f1f0000000000000000000000000000000000000000000000000000000069775493",
          "blockHash": "0xf2829c8251b016cc17c57a34aaf072a8fa6ab464ce170ddeb8c0e9ebee46a90e",
          "blockNumber": "0x1870a39",
          "transactionHash": "0x32c4d4a58f4bca0974c80553e7a8815a5eca7ea81a1514f0f2509c5bf0c46bbf",
          "transactionIndex": "0x2e",
          "logIndex": "0x539",
          "removed": false
        },
        {
          "address": "0xdc45e5469a8b6d020473f69fec91c0f0e83a3308",
          "topics": [
            "0xe044087a71e55f84948ec1c9a326d935d50b09a1b97fa24ac3721c9437525359"
          ],
          "data": "0x000000000000000000000000eca7a53ba6a190c5d205bfdc7707cbc3399336c100000000000000000000000000000000000000000000000000000000000020500000000000000000000000000000000000000000000000000000000000000190",
          "blockHash": "0xf2829c8251b016cc17c57a34aaf072a8fa6ab464ce170ddeb8c0e9ebee46a90e",
          "blockNumber": "0x1870a39",
          "transactionHash": "0x32c4d4a58f4bca0974c80553e7a8815a5eca7ea81a1514f0f2509c5bf0c46bbf",
          "transactionIndex": "0x2e",
          "logIndex": "0x53a",
          "removed": false
        }
      ],
      "logsBloom": "0x00000000000000000000000000000000000000000001000000000000000000000000000000100000000000000000000000000000000000000000000000000000000000000000000000000000000000000000000000002000000000000000000000000000000000002000000004000000000000000000000000000000000000000000000000000000000000000000000000000000000400000000000000000000000000000000000000000000000000000000002000000000000000000000000000000000000000000000000000000000000000000000000000000000000000000000000000000000000000000000400000000000000000000000000100000000",
      "type": "0x2",
      "transactionHash": "0x32c4d4a58f4bca0974c80553e7a8815a5eca7ea81a1514f0f2509c5bf0c46bbf",
      "transactionIndex": "0x2e",
      "blockHash": "0xf2829c8251b016cc17c57a34aaf072a8fa6ab464ce170ddeb8c0e9ebee46a90e",
      "blockNumber": "0x1870a39",
      "gasUsed": "0x28d79",
      "effectiveGasPrice": "0x18e37e4f95ac6",
      "from": "0xeca7a53ba6a190c5d205bfdc7707cbc3399336c1",
      "to": "0xdc45e5469a8b6d020473f69fec91c0f0e83a3308",
      "contractAddress": null
    }
  ],
  "libraries": [],
  "pending": [],
  "returns": {},
  "timestamp": 1769428117366,
  "chain": 369,
  "commit": "953695a"
}