{
  "transactions": [
    {
      "hash": "0x200ee78ee390756dd4bb4527e01f7e79735e433c2c5c7d635330c072f52a25ce",
      "transactionType": "CALL",
      "contractName": null,
      "contractAddress": "0xdc45e5469a8b6d020473f69fec91c0f0e83a3308",
      "function": "trainSkill(uint8)",
      "arguments": [
        "0"
      ],
      "transaction": {
        "from": "0xeca7a53ba6a190c5d205bfdc7707cbc3399336c1",
        "to": "0xdc45e5469a8b6d020473f69fec91c0f0e83a3308",
        "gas": "0x3bbb4",
        "value": "0x0",
        "input": "0xa0a73d0d0000000000000000000000000000000000000000000000000000000000000000",
        "nonce": "0x371",
        "chainId": "0x171"
      },
      "additionalContracts": [],
      "isFixedGasLimit": false
    }
  ],
  "receipts": [
    {
      "status": "0x1",
      "cumulativeGasUsed": "0xbfdc07",
      "logs": [
        {
          "address": "0xdc45e5469a8b6d020473f69fec91c0f0e83a3308",
          "topics": [
            "0xa2ecdf3a87e9ffdb151ad823ae834f6165f94e54e5a30467175e075254eb6376"
          ],
          "data": "0x000000000000000000000000eca7a53ba6a190c5d205bfdc7707cbc3399336c100000000000000000000000000000000000000000000000000000000000000000000000000000000000000000000000000000000000000000000000000000000000000000000000000000000000000000000000000000000000000000000000000000000000000000000000000000000000000000000000000000000000000000000000000000000000000000000000000000000000000000000000069795bf30000000000000000000000000000000000000000000000000000000069795167",
          "blockHash": "0x384f7cda1fbedafeb0455f8223733ccf9bd165950d57c6b14b4a091474931004",
          "blockNumber": "0x1873bf8",
          "transactionHash": "0x200ee78ee390756dd4bb4527e01f7e79735e433c2c5c7d635330c072f52a25ce",
          "transactionIndex": "0x23",
          "logIndex": "0xd3",
          "removed": false
        },
        {
          "address": "0xdc45e5469a8b6d020473f69fec91c0f0e83a3308",
          "topics": [
            "0xe044087a71e55f84948ec1c9a326d935d50b09a1b97fa24ac3721c9437525359"
          ],
          "data": "0x000000000000000000000000eca7a53ba6a190c5d205bfdc7707cbc3399336c100000000000000000000000000000000000000000000000000000000000018800000000000000000000000000000000000000000000000000000000000000190",
          "blockHash": "0x384f7cda1fbedafeb0455f8223733ccf9bd165950d57c6b14b4a091474931004",
          "blockNumber": "0x1873bf8",
          "transactionHash": "0x200ee78ee390756dd4bb4527e01f7e79735e433c2c5c7d635330c072f52a25ce",
          "transactionIndex": "0x23",
          "logIndex": "0xd4",
          "removed": false
        }
      ],
      "logsBloom": "0x00000000000000000000000000000000000000000001000000000000000000000000000000100000000000000000000000000000000000000000000000000000000000000000000000000000000000000000000000002000000000000000000000000000000000002000000004000000000000000000000000000000000000000000000000000000000000000000000000000000000400000000000000000000000000000000000000000000000000000000002000000000000000000000000000000000000000000000000000000000000000000000000000000000000000000000000000000000000000000000400000000000000000000000000100000000",
      "type": "0x2",
      "transactionHash": "0x200ee78ee390756dd4bb4527e01f7e79735e433c2c5c7d635330c072f52a25ce",
      "transactionIndex": "0x23",
      "blockHash": "0x384f7cda1fbedafeb0455f8223733ccf9bd165950d57c6b14b4a091474931004",
      "blockNumber": "0x1873bf8",
      "gasUsed": "0x28d79",
      "effectiveGasPrice": "0x4211443a1e2b6",
      "from": "0xeca7a53ba6a190c5d205bfdc7707cbc3399336c1",
      "to": "0xdc45e5469a8b6d020473f69fec91c0f0e83a3308",
      "contractAddress": null
    }
  ],
  "libraries": [],
  "pending": [],
  "returns": {},
  "timestamp": 1769558376924,
  "chain": 369,
  "commit": null
}