{
  "transactions": [
    {
      "hash": "0x4adc547eb8a26e8bba4222f19b9c66c356b328774ca001da059f6eb14f31f4e9",
      "transactionType": "CALL",
      "contractName": null,
      "contractAddress": "0xdc45e5469a8b6d020473f69fec91c0f0e83a3308",
      "function": "trainSkill(uint8)",
      "arguments": [
        "0"
      ],
      "transaction": {
        "from": "0x4c62f6121e6f967a0872da8364995e9b68c1e82f",
        "to": "0xdc45e5469a8b6d020473f69fec91c0f0e83a3308",
        "gas": "0x379ba",
        "value": "0x0",
        "input": "0xa0a73d0d0000000000000000000000000000000000000000000000000000000000000000",
        "nonce": "0x72d",
        "chainId": "0x171"
      },
      "additionalContracts": [],
      "isFixedGasLimit": false
    }
  ],
  "receipts": [
    {
      "status": "0x1",
      "cumulativeGasUsed": "0xc9eedb",
      "logs": [
        {
          "address": "0xdc45e5469a8b6d020473f69fec91c0f0e83a3308",
          "topics": [
            "0xa2ecdf3a87e9ffdb151ad823ae834f6165f94e54e5a30467175e075254eb6376"
          ],
          "data": "0x0000000000000000000000004c62f6121e6f967a0872da8364995e9b68c1e82f0000000000000000000000000000000000000000000000000000000000000000000000000000000000000000000000000000000000000000000000000000000000000000000000000000000000000000000000000000000000000000000000000000000000000000000000000000000000000000000000000000000000000000000000000000000000000000000000000000000000000000000000006979d6c3000000000000000000000000000000000000000000000000000000006979cc37",
          "blockHash": "0x659a6c3c2f39aec09c356dad5fcd4de8702af9ff91e75592d44b28f42ba4701b",
          "blockNumber": "0x18747f6",
          "transactionHash": "0x4adc547eb8a26e8bba4222f19b9c66c356b328774ca001da059f6eb14f31f4e9",
          "transactionIndex": "0x3d",
          "logIndex": "0x174",
          "removed": false
        },
        {
          "address": "0xdc45e5469a8b6d020473f69fec91c0f0e83a3308",
          "topics": [
            "0xe044087a71e55f84948ec1c9a326d935d50b09a1b97fa24ac3721c9437525359"
          ],
          "data": "0x0000000000000000000000004c62f6121e6f967a0872da8364995e9b68c1e82f0000000000000000000000000000000000000000000000000000000000001d5f0000000000000000000000000000000000000000000000000000000000000190",
          "blockHash": "0x659a6c3c2f39aec09c356dad5fcd4de8702af9ff91e75592d44b28f42ba4701b",
          "blockNumber": "0x18747f6",
          "transactionHash": "0x4adc547eb8a26e8bba4222f19b9c66c356b328774ca001da059f6eb14f31f4e9",
          "transactionIndex": "0x3d",
          "logIndex": "0x175",
          "removed": false
        }
      ],
      "logsBloom": "0x00000000000000000000000000000000000000000001000000000000000000000000000000100000000000000000000000000000000000000000000000000000000000000000000000000000000000000000000000002000000000000000000000000000000000002000000004000000000000000000000000000000000000000000000000000000000000000000000000000000000400000000000000000000000000000000000000000000000000000000002000000000000000000000000000000000000000000000000000000000000000000000000000000000000000000000000000000000000000000000400000000000000000000000000100000000",
      "type": "0x2",
      "transactionHash": "0x4adc547eb8a26e8bba4222f19b9c66c356b328774ca001da059f6eb14f31f4e9",
      "transactionIndex": "0x3d",
      "blockHash": "0x659a6c3c2f39aec09c356dad5fcd4de8702af9ff91e75592d44b28f42ba4701b",
      "blockNumber": "0x18747f6",
      "gasUsed": "0x28426",
      "effectiveGasPrice": "0x1a744da34551e",
      "from": "0x4c62f6121e6f967a0872da8364995e9b68c1e82f",
      "to": "0xdc45e5469a8b6d020473f69fec91c0f0e83a3308",
      "contractAddress": null
    }
  ],
  "libraries": [],
  "pending": [],
  "returns": {},
  "timestamp": 1769589816906,
  "chain": 369,
  "commit": null
}