{
  "transactions": [
    {
      "hash": "0x51ad289e759e799bd3023e6d71b05aefb8a37c69afdd320464af5e3763922841",
      "transactionType": "CALL",
      "contractName": null,
      "contractAddress": "0xdc45e5469a8b6d020473f69fec91c0f0e83a3308",
      "function": "trainSkill(uint8)",
      "arguments": [
        "0"
      ],
      "transaction": {
        "from": "0xeca7a53ba6a190c5d205bfdc7707cbc3399336c1",
        "to": "0xdc45e5469a8b6d020473f69fec91c0f0e83a3308",
        "gas": "0x392e7",
        "value": "0x0",
        "input": "0xa0a73d0d0000000000000000000000000000000000000000000000000000000000000000",
        "nonce": "0x5a6",
        "chainId": "0x171"
      },
      "additionalContracts": [],
      "isFixedGasLimit": false
    }
  ],
  "receipts": [
    {
      "status": "0x1",
      "cumulativeGasUsed": "0xc02e84",
      "logs": [
        {
          "address": "0xdc45e5469a8b6d020473f69fec91c0f0e83a3308",
          "topics": [
            "0xa2ecdf3a87e9ffdb151ad823ae834f6165f94e54e5a30467175e075254eb6376"
          ],
          "data": "0x000000000000000000000000eca7a53ba6a190c5d205bfdc7707cbc3399336c10000000000000000000000000000000000000000000000000000000000000000000000000000000000000000000000000000000000000000000000000000000000000000000000000000000000000000000000000000000000000000000000000000000000000000000000000000000000000000000000000000000000000000000000000000000000000000000000000000000000000000000000006988716f00000000000000000000000000000000000000000000000000000000698866e3",
          "blockHash": "0x36b93f51839b182c341d54e18eeae552c9e0b63bdea9af0641a611c0d5e907cf",
          "blockNumber": "0x188b47e",
          "transactionHash": "0x51ad289e759e799bd3023e6d71b05aefb8a37c69afdd320464af5e3763922841",
          "transactionIndex": "0x2f",
          "logIndex": "0xa6",
          "removed": false
        },
        {
          "address": "0xdc45e5469a8b6d020473f69fec91c0f0e83a3308",
          "topics": [
            "0xe044087a71e55f84948ec1c9a326d935d50b09a1b97fa24ac3721c9437525359"
          ],
          "data": "0x000000000000000000000000eca7a53ba6a190c5d205bfdc7707cbc3399336c10000000000000000000000000000000000000000000000000000000000001b5e0000000000000000000000000000000000000000000000000000000000000190",
          "blockHash": "0x36b93f51839b182c341d54e18eeae552c9e0b63bdea9af0641a611c0d5e907cf",
          "blockNumber": "0x188b47e",
          "transactionHash": "0x51ad289e759e799bd3023e6d71b05aefb8a37c69afdd320464af5e3763922841",
          "transactionIndex": "0x2f",
          "logIndex": "0xa7",
          "removed": false
        }
      ],
      "logsBloom": "0x00000000000000000000000000000000000000000001000000000000000000000000000000100000000000000000000000000000000000000000000000000000000000000000000000000000000000000000000000002000000000000000000000000000000000002000000004000000000000000000000000000000000000000000000000000000000000000000000000000000000400000000000000000000000000000000000000000000000000000000002000000000000000000000000000000000000000000000000000000000000000000000000000000000000000000000000000000000000000000000400000000000000000000000000100000000",
      "type": "0x2",
      "transactionHash": "0x51ad289e759e799bd3023e6d71b05aefb8a37c69afdd320464af5e3763922841",
      "transactionIndex": "0x2f",
      "blockHash": "0x36b93f51839b182c341d54e18eeae552c9e0b63bdea9af0641a611c0d5e907cf",
      "blockNumber": "0x188b47e",
      "gasUsed": "0x29660",
      "effectiveGasPrice": "0x26dc0a37ecb17",
      "from": "0xeca7a53ba6a190c5d205bfdc7707cbc3399336c1",
      "to": "0xdc45e5469a8b6d020473f69fec91c0f0e83a3308",
      "contractAddress": null
    }
  ],
  "libraries": [],
  "pending": [],
  "returns": {},
  "timestamp": 1770546917163,
  "chain": 369,
  "commit": null
}