{
  "transactions": [
    {
      "hash": "0x949c9664ca4da275cbe54c672763e88b4efa3294281aaa0cd03e079cd19f4acb",
      "transactionType": "CALL",
      "contractName": null,
      "contractAddress": "0xdc45e5469a8b6d020473f69fec91c0f0e83a3308",
      "function": "trainSkill(uint8)",
      "arguments": [
        "0"
      ],
      "transaction": {
        "from": "0xaa73aa98480757d75aae288b5931261448eb0530",
        "to": "0xdc45e5469a8b6d020473f69fec91c0f0e83a3308",
        "gas": "0x38605",
        "value": "0x0",
        "input": "0xa0a73d0d0000000000000000000000000000000000000000000000000000000000000000",
        "nonce": "0x5c",
        "chainId": "0x171"
      },
      "additionalContracts": [],
      "isFixedGasLimit": false
    }
  ],
  "receipts": [
    {
      "status": "0x1",
      "cumulativeGasUsed": "0x13f0377",
      "logs": [
        {
          "address": "0xdc45e5469a8b6d020473f69fec91c0f0e83a3308",
          "topics": [
            "0xa2ecdf3a87e9ffdb151ad823ae834f6165f94e54e5a30467175e075254eb6376"
          ],
          "data": "0x000000000000000000000000aa73aa98480757d75aae288b5931261448eb053000000000000000000000000000000000000000000000000000000000000000000000000000000000000000000000000000000000000000000000000000000000000000000000000000000000000000000000000000000000000000000000000000000000000000000000000000000000000000000000000000000000000000000000000000000000000000000000000000000000000000000000000069880b210000000000000000000000000000000000000000000000000000000069880095",
          "blockHash": "0x594b5aeab808659f82da93362d375e39d7cf5dff233e92a741bb0c72147fb451",
          "blockNumber": "0x188aa87",
          "transactionHash": "0x949c9664ca4da275cbe54c672763e88b4efa3294281aaa0cd03e079cd19f4acb",
          "transactionIndex": "0x1c",
          "logIndex": "0x490",
          "removed": false
        },
        {
          "address": "0xdc45e5469a8b6d020473f69fec91c0f0e83a3308",
          "topics": [
            "0xe044087a71e55f84948ec1c9a326d935d50b09a1b97fa24ac3721c9437525359"
          ],
          "data": "0x000000000000000000000000aa73aa98480757d75aae288b5931261448eb05300000000000000000000000000000000000000000000000000000000000001b4c0000000000000000000000000000000000000000000000000000000000000190",
          "blockHash": "0x594b5aeab808659f82da93362d375e39d7cf5dff233e92a741bb0c72147fb451",
          "blockNumber": "0x188aa87",
          "transactionHash": "0x949c9664ca4da275cbe54c672763e88b4efa3294281aaa0cd03e079cd19f4acb",
          "transactionIndex": "0x1c",
          "logIndex": "0x491",
          "removed": false
        }
      ],
      "logsBloom": "0x00000000000000000000000000000000000000000001000000000000000000000000000000100000000000000000000000000000000000000000000000000000000000000000000000000000000000000000000000002000000000000000000000000000000000002000000004000000000000000000000000000000000000000000000000000000000000000000000000000000000400000000000000000000000000000000000000000000000000000000002000000000000000000000000000000000000000000000000000000000000000000000000000000000000000000000000000000000000000000000400000000000000000000000000100000000",
      "type": "0x2",
      "transactionHash": "0x949c9664ca4da275cbe54c672763e88b4efa3294281aaa0cd03e079cd19f4acb",
      "transactionIndex": "0x1c",
      "blockHash": "0x594b5aeab808659f82da93362d375e39d7cf5dff233e92a741bb0c72147fb451",
      "blockNumber": "0x188aa87",
      "gasUsed": "0x28d0d",
      "effectiveGasPrice": "0x2c34e7358bbb3",
      "from": "0xaa73aa98480757d75aae288b5931261448eb0530",
      "to": "0xdc45e5469a8b6d020473f69fec91c0f0e83a3308",
      "contractAddress": null
    }
  ],
  "libraries": [],
  "pending": [],
  "returns": {},
  "timestamp": 1770520726285,
  "chain": 369,
  "commit": null
}