{
  "transactions": [
    {
      "hash": "0xf5efaf616f6f8f30dde252ea1159c390c4cbdb441140d6da44bf821dd495bda2",
      "transactionType": "CALL",
      "contractName": null,
      "contractAddress": "0xdc45e5469a8b6d020473f69fec91c0f0e83a3308",
      "function": "trainSkill(uint8)",
      "arguments": [
        "0"
      ],
      "transaction": {
        "from": "0xeca7a53ba6a190c5d205bfdc7707cbc3399336c1",
        "to": "0xdc45e5469a8b6d020473f69fec91c0f0e83a3308",
        "gas": "0x392e7",
        "value": "0x0",
        "input": "0xa0a73d0d0000000000000000000000000000000000000000000000000000000000000000",
        "nonce": "0x56c",
        "chainId": "0x171"
      },
      "additionalContracts": [],
      "isFixedGasLimit": false
    }
  ],
  "receipts": [
    {
      "status": "0x1",
      "cumulativeGasUsed": "0xb19fce",
      "logs": [
        {
          "address": "0xdc45e5469a8b6d020473f69fec91c0f0e83a3308",
          "topics": [
            "0xa2ecdf3a87e9ffdb151ad823ae834f6165f94e54e5a30467175e075254eb6376"
          ],
          "data": "0x000000000000000000000000eca7a53ba6a190c5d205bfdc7707cbc3399336c10000000000000000000000000000000000000000000000000000000000000000000000000000000000000000000000000000000000000000000000000000000000000000000000000000000000000000000000000000000000000000000000000000000000000000000000000000000000000000000000000000000000000000000000000000000000000000000000000000000000000000000000006987b883000000000000000000000000000000000000000000000000000000006987adf7",
          "blockHash": "0x78393109809f0a29c6e6613ea2aeaddb97f0bd57f089c8ef36ba584812690898",
          "blockNumber": "0x188a27a",
          "transactionHash": "0xf5efaf616f6f8f30dde252ea1159c390c4cbdb441140d6da44bf821dd495bda2",
          "transactionIndex": "0x27",
          "logIndex": "0x11c",
          "removed": false
        },
        {
          "address": "0xdc45e5469a8b6d020473f69fec91c0f0e83a3308",
          "topics": [
            "0xe044087a71e55f84948ec1c9a326d935d50b09a1b97fa24ac3721c9437525359"
          ],
          "data": "0x000000000000000000000000eca7a53ba6a190c5d205bfdc7707cbc3399336c10000000000000000000000000000000000000000000000000000000000001b7d0000000000000000000000000000000000000000000000000000000000000190",
          "blockHash": "0x78393109809f0a29c6e6613ea2aeaddb97f0bd57f089c8ef36ba584812690898",
          "blockNumber": "0x188a27a",
          "transactionHash": "0xf5efaf616f6f8f30dde252ea1159c390c4cbdb441140d6da44bf821dd495bda2",
          "transactionIndex": "0x27",
          "logIndex": "0x11d",
          "removed": false
        }
      ],
      "logsBloom": "0x00000000000000000000000000000000000000000001000000000000000000000000000000100000000000000000000000000000000000000000000000000000000000000000000000000000000000000000000000002000000000000000000000000000000000002000000004000000000000000000000000000000000000000000000000000000000000000000000000000000000400000000000000000000000000000000000000000000000000000000002000000000000000000000000000000000000000000000000000000000000000000000000000000000000000000000000000000000000000000000400000000000000000000000000100000000",
      "type": "0x2",
      "transactionHash": "0xf5efaf616f6f8f30dde252ea1159c390c4cbdb441140d6da44bf821dd495bda2",
      "transactionIndex": "0x27",
      "blockHash": "0x78393109809f0a29c6e6613ea2aeaddb97f0bd57f089c8ef36ba584812690898",
      "blockNumber": "0x188a27a",
      "gasUsed": "0x29660",
      "effectiveGasPrice": "0x338020e2f0123",
      "from": "0xeca7a53ba6a190c5d205bfdc7707cbc3399336c1",
      "to": "0xdc45e5469a8b6d020473f69fec91c0f0e83a3308",
      "contractAddress": null
    }
  ],
  "libraries": [],
  "pending": [],
  "returns": {},
  "timestamp": 1770499576701,
  "chain": 369,
  "commit": null
}