{
  "transactions": [
    {
      "hash": "0xb75ce6764ad795601817e44089f3076206eb5be13d35b1181a07d733fb0ef24b",
      "transactionType": "CALL",
      "contractName": null,
      "contractAddress": "0xdc45e5469a8b6d020473f69fec91c0f0e83a3308",
      "function": "trainSkill(uint8)",
      "arguments": [
        "0"
      ],
      "transaction": {
        "from": "0xeca7a53ba6a190c5d205bfdc7707cbc3399336c1",
        "to": "0xdc45e5469a8b6d020473f69fec91c0f0e83a3308",
        "gas": "0x3bbb4",
        "value": "0x0",
        "input": "0xa0a73d0d0000000000000000000000000000000000000000000000000000000000000000",
        "nonce": "0x2e9",
        "chainId": "0x171"
      },
      "additionalContracts": [],
      "isFixedGasLimit": false
    }
  ],
  "receipts": [
    {
      "status": "0x1",
      "cumulativeGasUsed": "0xd85d7a",
      "logs": [
        {
          "address": "0xdc45e5469a8b6d020473f69fec91c0f0e83a3308",
          "topics": [
            "0xa2ecdf3a87e9ffdb151ad823ae834f6165f94e54e5a30467175e075254eb6376"
          ],
          "data": "0x000000000000000000000000eca7a53ba6a190c5d205bfdc7707cbc3399336c1000000000000000000000000000000000000000000000000000000000000000000000000000000000000000000000000000000000000000000000000000000000000000000000000000000000000000000000000000000000000000000000000000000000000000000000000000000000000000000000000000000000000000000000000000000000000000000000000000000000000000000000000697774cd0000000000000000000000000000000000000000000000000000000069776a41",
          "blockHash": "0xf4365807074f04b49b85bb6700f64ad9bc41cf31db97ccf463832124fcbc4744",
          "blockNumber": "0x1870c51",
          "transactionHash": "0xb75ce6764ad795601817e44089f3076206eb5be13d35b1181a07d733fb0ef24b",
          "transactionIndex": "0x40",
          "logIndex": "0xff",
          "removed": false
        },
        {
          "address": "0xdc45e5469a8b6d020473f69fec91c0f0e83a3308",
          "topics": [
            "0xe044087a71e55f84948ec1c9a326d935d50b09a1b97fa24ac3721c9437525359"
          ],
          "data": "0x000000000000000000000000eca7a53ba6a190c5d205bfdc7707cbc3399336c10000000000000000000000000000000000000000000000000000000000000f8c0000000000000000000000000000000000000000000000000000000000000190",
          "blockHash": "0xf4365807074f04b49b85bb6700f64ad9bc41cf31db97ccf463832124fcbc4744",
          "blockNumber": "0x1870c51",
          "transactionHash": "0xb75ce6764ad795601817e44089f3076206eb5be13d35b1181a07d733fb0ef24b",
          "transactionIndex": "0x40",
          "logIndex": "0x100",
          "removed": false
        }
      ],
      "logsBloom": "0x00000000000000000000000000000000000000000001000000000000000000000000000000100000000000000000000000000000000000000000000000000000000000000000000000000000000000000000000000002000000000000000000000000000000000002000000004000000000000000000000000000000000000000000000000000000000000000000000000000000000400000000000000000000000000000000000000000000000000000000002000000000000000000000000000000000000000000000000000000000000000000000000000000000000000000000000000000000000000000000400000000000000000000000000100000000",
      "type": "0x2",
      "transactionHash": "0xb75ce6764ad795601817e44089f3076206eb5be13d35b1181a07d733fb0ef24b",
      "transactionIndex": "0x40",
      "blockHash": "0xf4365807074f04b49b85bb6700f64ad9bc41cf31db97ccf463832124fcbc4744",
      "blockNumber": "0x1870c51",
      "gasUsed": "0x28d79",
      "effectiveGasPrice": "0x15ba1d19ea073",
      "from": "0xeca7a53ba6a190c5d205bfdc7707cbc3399336c1",
      "to": "0xdc45e5469a8b6d020473f69fec91c0f0e83a3308",
      "contractAddress": null
    }
  ],
  "libraries": [],
  "pending": [],
  "returns": {},
  "timestamp": 1769433665751,
  "chain": 369,
  "commit": "953695a"
}