{
  "transactions": [
    {
      "hash": "0x913c0e7aff8124626adce30ce73339b08949d9a8dd26e7043c509322196341e6",
      "transactionType": "CALL",
      "contractName": null,
      "contractAddress": "0xdc45e5469a8b6d020473f69fec91c0f0e83a3308",
      "function": "trainSkill(uint8)",
      "arguments": [
        "0"
      ],
      "transaction": {
        "from": "0xac56dc5a4a9de0197f7b8f584ea04ec7e0123dde",
        "to": "0xdc45e5469a8b6d020473f69fec91c0f0e83a3308",
        "gas": "0x379ba",
        "value": "0x0",
        "input": "0xa0a73d0d0000000000000000000000000000000000000000000000000000000000000000",
        "nonce": "0x3ab",
        "chainId": "0x171"
      },
      "additionalContracts": [],
      "isFixedGasLimit": false
    }
  ],
  "receipts": [
    {
      "status": "0x1",
      "cumulativeGasUsed": "0x1ea0dba",
      "logs": [
        {
          "address": "0xdc45e5469a8b6d020473f69fec91c0f0e83a3308",
          "topics": [
            "0xa2ecdf3a87e9ffdb151ad823ae834f6165f94e54e5a30467175e075254eb6376"
          ],
          "data": "0x000000000000000000000000ac56dc5a4a9de0197f7b8f584ea04ec7e0123dde000000000000000000000000000000000000000000000000000000000000000000000000000000000000000000000000000000000000000000000000000000000000000000000000000000000000000000000000000000000000000000000000000000000000000000000000000000000000000000000000000000000000000000000000000000000000000000000000000000000000000000000000697a8b3b00000000000000000000000000000000000000000000000000000000697a80af",
          "blockHash": "0x2ff0869fd273f45334d4f42d9233cd86837143bd3d9084b9cb808cf3d4c61aaf",
          "blockNumber": "0x18759a0",
          "transactionHash": "0x913c0e7aff8124626adce30ce73339b08949d9a8dd26e7043c509322196341e6",
          "transactionIndex": "0x1f",
          "logIndex": "0x53d",
          "removed": false
        },
        {
          "address": "0xdc45e5469a8b6d020473f69fec91c0f0e83a3308",
          "topics": [
            "0xe044087a71e55f84948ec1c9a326d935d50b09a1b97fa24ac3721c9437525359"
          ],
          "data": "0x000000000000000000000000ac56dc5a4a9de0197f7b8f584ea04ec7e0123dde00000000000000000000000000000000000000000000000000000000000023900000000000000000000000000000000000000000000000000000000000000190",
          "blockHash": "0x2ff0869fd273f45334d4f42d9233cd86837143bd3d9084b9cb808cf3d4c61aaf",
          "blockNumber": "0x18759a0",
          "transactionHash": "0x913c0e7aff8124626adce30ce73339b08949d9a8dd26e7043c509322196341e6",
          "transactionIndex": "0x1f",
          "logIndex": "0x53e",
          "removed": false
        }
      ],
      "logsBloom": "0x00000000000000000000000000000000000000000001000000000000000000000000000000100000000000000000000000000000000000000000000000000000000000000000000000000000000000000000000000002000000000000000000000000000000000002000000004000000000000000000000000000000000000000000000000000000000000000000000000000000000400000000000000000000000000000000000000000000000000000000002000000000000000000000000000000000000000000000000000000000000000000000000000000000000000000000000000000000000000000000400000000000000000000000000100000000",
      "type": "0x2",
      "transactionHash": "0x913c0e7aff8124626adce30ce73339b08949d9a8dd26e7043c509322196341e6",
      "transactionIndex": "0x1f",
      "blockHash": "0x2ff0869fd273f45334d4f42d9233cd86837143bd3d9084b9cb808cf3d4c61aaf",
      "blockNumber": "0x18759a0",
      "gasUsed": "0x28426",
      "effectiveGasPrice": "0x37c8c599de429",
      "from": "0xac56dc5a4a9de0197f7b8f584ea04ec7e0123dde",
      "to": "0xdc45e5469a8b6d020473f69fec91c0f0e83a3308",
      "contractAddress": null
    }
  ],
  "libraries": [],
  "pending": [],
  "returns": {},
  "timestamp": 1769636015405,
  "chain": 369,
  "commit": null
}