{
  "transactions": [
    {
      "hash": "0x61333af001f96d884b7c9ab23393b5ba8da414cdc1e172746eff64a4b46d9bfe",
      "transactionType": "CALL",
      "contractName": null,
      "contractAddress": "0xdc45e5469a8b6d020473f69fec91c0f0e83a3308",
      "function": "trainSkill(uint8)",
      "arguments": [
        "0"
      ],
      "transaction": {
        "from": "0xeca7a53ba6a190c5d205bfdc7707cbc3399336c1",
        "to": "0xdc45e5469a8b6d020473f69fec91c0f0e83a3308",
        "gas": "0x3bbb4",
        "value": "0x0",
        "input": "0xa0a73d0d0000000000000000000000000000000000000000000000000000000000000000",
        "nonce": "0x3d8",
        "chainId": "0x171"
      },
      "additionalContracts": [],
      "isFixedGasLimit": false
    }
  ],
  "receipts": [
    {
      "status": "0x1",
      "cumulativeGasUsed": "0x8db51d",
      "logs": [
        {
          "address": "0xdc45e5469a8b6d020473f69fec91c0f0e83a3308",
          "topics": [
            "0xa2ecdf3a87e9ffdb151ad823ae834f6165f94e54e5a30467175e075254eb6376"
          ],
          "data": "0x000000000000000000000000eca7a53ba6a190c5d205bfdc7707cbc3399336c1000000000000000000000000000000000000000000000000000000000000000000000000000000000000000000000000000000000000000000000000000000000000000000000000000000000000000000000000000000000000000000000000000000000000000000000000000000000000000000000000000000000000000000000000000000000000000000000000000000000000000000000000697aa11b00000000000000000000000000000000000000000000000000000000697a968f",
          "blockHash": "0x8d8f4bb642f3c03eeddf28cabacecff5adaca2364a1f27ed4c0520d43e941643",
          "blockNumber": "0x1875bc3",
          "transactionHash": "0x61333af001f96d884b7c9ab23393b5ba8da414cdc1e172746eff64a4b46d9bfe",
          "transactionIndex": "0x1b",
          "logIndex": "0xc1",
          "removed": false
        },
        {
          "address": "0xdc45e5469a8b6d020473f69fec91c0f0e83a3308",
          "topics": [
            "0xe044087a71e55f84948ec1c9a326d935d50b09a1b97fa24ac3721c9437525359"
          ],
          "data": "0x000000000000000000000000eca7a53ba6a190c5d205bfdc7707cbc3399336c100000000000000000000000000000000000000000000000000000000000009090000000000000000000000000000000000000000000000000000000000000190",
          "blockHash": "0x8d8f4bb642f3c03eeddf28cabacecff5adaca2364a1f27ed4c0520d43e941643",
          "blockNumber": "0x1875bc3",
          "transactionHash": "0x61333af001f96d884b7c9ab23393b5ba8da414cdc1e172746eff64a4b46d9bfe",
          "transactionIndex": "0x1b",
          "logIndex": "0xc2",
          "removed": false
        }
      ],
      "logsBloom": "0x00000000000000000000000000000000000000000001000000000000000000000000000000100000000000000000000000000000000000000000000000000000000000000000000000000000000000000000000000002000000000000000000000000000000000002000000004000000000000000000000000000000000000000000000000000000000000000000000000000000000400000000000000000000000000000000000000000000000000000000002000000000000000000000000000000000000000000000000000000000000000000000000000000000000000000000000000000000000000000000400000000000000000000000000100000000",
      "type": "0x2",
      "transactionHash": "0x61333af001f96d884b7c9ab23393b5ba8da414cdc1e172746eff64a4b46d9bfe",
      "transactionIndex": "0x1b",
      "blockHash": "0x8d8f4bb642f3c03eeddf28cabacecff5adaca2364a1f27ed4c0520d43e941643",
      "blockNumber": "0x1875bc3",
      "gasUsed": "0x28d79",
      "effectiveGasPrice": "0x1d6f654644be5",
      "from": "0xeca7a53ba6a190c5d205bfdc7707cbc3399336c1",
      "to": "0xdc45e5469a8b6d020473f69fec91c0f0e83a3308",
      "contractAddress": null
    }
  ],
  "libraries": [],
  "pending": [],
  "returns": {},
  "timestamp": 1769641615649,
  "chain": 369,
  "commit": null
}