{
  "transactions": [
    {
      "hash": "0x3ec2377fc18f70c1dc2dda583581d2406354c1fc1dbe9cd567cf1ad320eb75f2",
      "transactionType": "CALL",
      "contractName": null,
      "contractAddress": "0xdc45e5469a8b6d020473f69fec91c0f0e83a3308",
      "function": "trainSkill(uint8)",
      "arguments": [
        "0"
      ],
      "transaction": {
        "from": "0xac56dc5a4a9de0197f7b8f584ea04ec7e0123dde",
        "to": "0xdc45e5469a8b6d020473f69fec91c0f0e83a3308",
        "gas": "0x379ba",
        "value": "0x0",
        "input": "0xa0a73d0d0000000000000000000000000000000000000000000000000000000000000000",
        "nonce": "0x3a8",
        "chainId": "0x171"
      },
      "additionalContracts": [],
      "isFixedGasLimit": false
    }
  ],
  "receipts": [
    {
      "status": "0x1",
      "cumulativeGasUsed": "0x722957",
      "logs": [
        {
          "address": "0xdc45e5469a8b6d020473f69fec91c0f0e83a3308",
          "topics": [
            "0xa2ecdf3a87e9ffdb151ad823ae834f6165f94e54e5a30467175e075254eb6376"
          ],
          "data": "0x000000000000000000000000ac56dc5a4a9de0197f7b8f584ea04ec7e0123dde000000000000000000000000000000000000000000000000000000000000000000000000000000000000000000000000000000000000000000000000000000000000000000000000000000000000000000000000000000000000000000000000000000000000000000000000000000000000000000000000000000000000000000000000000000000000000000000000000000000000000000000000697a806900000000000000000000000000000000000000000000000000000000697a75dd",
          "blockHash": "0x01b2bda81e932acfd93ebb321f1c32a393fc5a75be301fb731cb8de544b241d7",
          "blockNumber": "0x1875890",
          "transactionHash": "0x3ec2377fc18f70c1dc2dda583581d2406354c1fc1dbe9cd567cf1ad320eb75f2",
          "transactionIndex": "0x27",
          "logIndex": "0x9a",
          "removed": false
        },
        {
          "address": "0xdc45e5469a8b6d020473f69fec91c0f0e83a3308",
          "topics": [
            "0xe044087a71e55f84948ec1c9a326d935d50b09a1b97fa24ac3721c9437525359"
          ],
          "data": "0x000000000000000000000000ac56dc5a4a9de0197f7b8f584ea04ec7e0123dde00000000000000000000000000000000000000000000000000000000000023b10000000000000000000000000000000000000000000000000000000000000190",
          "blockHash": "0x01b2bda81e932acfd93ebb321f1c32a393fc5a75be301fb731cb8de544b241d7",
          "blockNumber": "0x1875890",
          "transactionHash": "0x3ec2377fc18f70c1dc2dda583581d2406354c1fc1dbe9cd567cf1ad320eb75f2",
          "transactionIndex": "0x27",
          "logIndex": "0x9b",
          "removed": false
        }
      ],
      "logsBloom": "0x00000000000000000000000000000000000000000001000000000000000000000000000000100000000000000000000000000000000000000000000000000000000000000000000000000000000000000000000000002000000000000000000000000000000000002000000004000000000000000000000000000000000000000000000000000000000000000000000000000000000400000000000000000000000000000000000000000000000000000000002000000000000000000000000000000000000000000000000000000000000000000000000000000000000000000000000000000000000000000000400000000000000000000000000100000000",
      "type": "0x2",
      "transactionHash": "0x3ec2377fc18f70c1dc2dda583581d2406354c1fc1dbe9cd567cf1ad320eb75f2",
      "transactionIndex": "0x27",
      "blockHash": "0x01b2bda81e932acfd93ebb321f1c32a393fc5a75be301fb731cb8de544b241d7",
      "blockNumber": "0x1875890",
      "gasUsed": "0x28426",
      "effectiveGasPrice": "0x3a572abcc46c7",
      "from": "0xac56dc5a4a9de0197f7b8f584ea04ec7e0123dde",
      "to": "0xdc45e5469a8b6d020473f69fec91c0f0e83a3308",
      "contractAddress": null
    }
  ],
  "libraries": [],
  "pending": [],
  "returns": {},
  "timestamp": 1769633246083,
  "chain": 369,
  "commit": null
}