{
  "transactions": [
    {
      "hash": "0x6ba34842dbed4fdefbaf6667a45a662edc0efb266278c2a4eba58a5a9332f21e",
      "transactionType": "CALL",
      "contractName": null,
      "contractAddress": "0xdc45e5469a8b6d020473f69fec91c0f0e83a3308",
      "function": "trainSkill(uint8)",
      "arguments": [
        "0"
      ],
      "transaction": {
        "from": "0x4c62f6121e6f967a0872da8364995e9b68c1e82f",
        "to": "0xdc45e5469a8b6d020473f69fec91c0f0e83a3308",
        "gas": "0x379ba",
        "value": "0x0",
        "input": "0xa0a73d0d0000000000000000000000000000000000000000000000000000000000000000",
        "nonce": "0x74b",
        "chainId": "0x171"
      },
      "additionalContracts": [],
      "isFixedGasLimit": false
    }
  ],
  "receipts": [
    {
      "status": "0x1",
      "cumulativeGasUsed": "0x75f59d",
      "logs": [
        {
          "address": "0xdc45e5469a8b6d020473f69fec91c0f0e83a3308",
          "topics": [
            "0xa2ecdf3a87e9ffdb151ad823ae834f6165f94e54e5a30467175e075254eb6376"
          ],
          "data": "0x0000000000000000000000004c62f6121e6f967a0872da8364995e9b68c1e82f000000000000000000000000000000000000000000000000000000000000000000000000000000000000000000000000000000000000000000000000000000000000000000000000000000000000000000000000000000000000000000000000000000000000000000000000000000000000000000000000000000000000000000000000000000000000000000000000000000000000000000000000697a806900000000000000000000000000000000000000000000000000000000697a75dd",
          "blockHash": "0x01b2bda81e932acfd93ebb321f1c32a393fc5a75be301fb731cb8de544b241d7",
          "blockNumber": "0x1875890",
          "transactionHash": "0x6ba34842dbed4fdefbaf6667a45a662edc0efb266278c2a4eba58a5a9332f21e",
          "transactionIndex": "0x2c",
          "logIndex": "0x9c",
          "removed": false
        },
        {
          "address": "0xdc45e5469a8b6d020473f69fec91c0f0e83a3308",
          "topics": [
            "0xe044087a71e55f84948ec1c9a326d935d50b09a1b97fa24ac3721c9437525359"
          ],
          "data": "0x0000000000000000000000004c62f6121e6f967a0872da8364995e9b68c1e82f00000000000000000000000000000000000000000000000000000000000023b10000000000000000000000000000000000000000000000000000000000000190",
          "blockHash": "0x01b2bda81e932acfd93ebb321f1c32a393fc5a75be301fb731cb8de544b241d7",
          "blockNumber": "0x1875890",
          "transactionHash": "0x6ba34842dbed4fdefbaf6667a45a662edc0efb266278c2a4eba58a5a9332f21e",
          "transactionIndex": "0x2c",
          "logIndex": "0x9d",
          "removed": false
        }
      ],
      "logsBloom": "0x00000000000000000000000000000000000000000001000000000000000000000000000000100000000000000000000000000000000000000000000000000000000000000000000000000000000000000000000000002000000000000000000000000000000000002000000004000000000000000000000000000000000000000000000000000000000000000000000000000000000400000000000000000000000000000000000000000000000000000000002000000000000000000000000000000000000000000000000000000000000000000000000000000000000000000000000000000000000000000000400000000000000000000000000100000000",
      "type": "0x2",
      "transactionHash": "0x6ba34842dbed4fdefbaf6667a45a662edc0efb266278c2a4eba58a5a9332f21e",
      "transactionIndex": "0x2c",
      "blockHash": "0x01b2bda81e932acfd93ebb321f1c32a393fc5a75be301fb731cb8de544b241d7",
      "blockNumber": "0x1875890",
      "gasUsed": "0x28426",
      "effectiveGasPrice": "0x3a572abcc46c7",
      "from": "0x4c62f6121e6f967a0872da8364995e9b68c1e82f",
      "to": "0xdc45e5469a8b6d020473f69fec91c0f0e83a3308",
      "contractAddress": null
    }
  ],
  "libraries": [],
  "pending": [],
  "returns": {},
  "timestamp": 1769633245844,
  "chain": 369,
  "commit": null
}