{
  "transactions": [
    {
      "hash": "0x00dbdb878bbe86ec6315f8c8abf0ec195fd007c9f8097e51077151de911825fc",
      "transactionType": "CALL",
      "contractName": null,
      "contractAddress": "0xdc45e5469a8b6d020473f69fec91c0f0e83a3308",
      "function": "trainSkill(uint8)",
      "arguments": [
        "0"
      ],
      "transaction": {
        "from": "0x4c62f6121e6f967a0872da8364995e9b68c1e82f",
        "to": "0xdc45e5469a8b6d020473f69fec91c0f0e83a3308",
        "gas": "0x38605",
        "value": "0x0",
        "input": "0xa0a73d0d0000000000000000000000000000000000000000000000000000000000000000",
        "nonce": "0x95b",
        "chainId": "0x171"
      },
      "additionalContracts": [],
      "isFixedGasLimit": false
    }
  ],
  "receipts": [
    {
      "status": "0x1",
      "cumulativeGasUsed": "0x26d92e",
      "logs": [
        {
          "address": "0xdc45e5469a8b6d020473f69fec91c0f0e83a3308",
          "topics": [
            "0xa2ecdf3a87e9ffdb151ad823ae834f6165f94e54e5a30467175e075254eb6376"
          ],
          "data": "0x0000000000000000000000004c62f6121e6f967a0872da8364995e9b68c1e82f000000000000000000000000000000000000000000000000000000000000000000000000000000000000000000000000000000000000000000000000000000000000000000000000000000000000000000000000000000000000000000000000000000000000000000000000000000000000000000000000000000000000000000000000000000000000000000000000000000000000000000000000698797c70000000000000000000000000000000000000000000000000000000069878d3b",
          "blockHash": "0xfc0492304a75b680a8089c4d42e68338be5f2190c9a031f8bbea4b35841b6a0a",
          "blockNumber": "0x1889f43",
          "transactionHash": "0x00dbdb878bbe86ec6315f8c8abf0ec195fd007c9f8097e51077151de911825fc",
          "transactionIndex": "0x11",
          "logIndex": "0x35",
          "removed": false
        },
        {
          "address": "0xdc45e5469a8b6d020473f69fec91c0f0e83a3308",
          "topics": [
            "0xe044087a71e55f84948ec1c9a326d935d50b09a1b97fa24ac3721c9437525359"
          ],
          "data": "0x0000000000000000000000004c62f6121e6f967a0872da8364995e9b68c1e82f00000000000000000000000000000000000000000000000000000000000020870000000000000000000000000000000000000000000000000000000000000190",
          "blockHash": "0xfc0492304a75b680a8089c4d42e68338be5f2190c9a031f8bbea4b35841b6a0a",
          "blockNumber": "0x1889f43",
          "transactionHash": "0x00dbdb878bbe86ec6315f8c8abf0ec195fd007c9f8097e51077151de911825fc",
          "transactionIndex": "0x11",
          "logIndex": "0x36",
          "removed": false
        }
      ],
      "logsBloom": "0x00000000000000000000000000000000000000000001000000000000000000000000000000100000000000000000000000000000000000000000000000000000000000000000000000000000000000000000000000002000000000000000000000000000000000002000000004000000000000000000000000000000000000000000000000000000000000000000000000000000000400000000000000000000000000000000000000000000000000000000002000000000000000000000000000000000000000000000000000000000000000000000000000000000000000000000000000000000000000000000400000000000000000000000000100000000",
      "type": "0x2",
      "transactionHash": "0x00dbdb878bbe86ec6315f8c8abf0ec195fd007c9f8097e51077151de911825fc",
      "transactionIndex": "0x11",
      "blockHash": "0xfc0492304a75b680a8089c4d42e68338be5f2190c9a031f8bbea4b35841b6a0a",
      "blockNumber": "0x1889f43",
      "gasUsed": "0x28d0d",
      "effectiveGasPrice": "0x3193e40c4ac6e",
      "from": "0x4c62f6121e6f967a0872da8364995e9b68c1e82f",
      "to": "0xdc45e5469a8b6d020473f69fec91c0f0e83a3308",
      "contractAddress": null
    }
  ],
  "libraries": [],
  "pending": [],
  "returns": {},
  "timestamp": 1770491195696,
  "chain": 369,
  "commit": null
}