{
  "transactions": [
    {
      "hash": "0x0beac7837686d75a8378cdeffb983cf38c31e3ce1b4f78d9ea4dfb03ff8adf85",
      "transactionType": "CALL",
      "contractName": null,
      "contractAddress": "0xdc45e5469a8b6d020473f69fec91c0f0e83a3308",
      "function": "trainSkill(uint8)",
      "arguments": [
        "0"
      ],
      "transaction": {
        "from": "0xeca7a53ba6a190c5d205bfdc7707cbc3399336c1",
        "to": "0xdc45e5469a8b6d020473f69fec91c0f0e83a3308",
        "gas": "0x3bbb4",
        "value": "0x0",
        "input": "0xa0a73d0d0000000000000000000000000000000000000000000000000000000000000000",
        "nonce": "0x37c",
        "chainId": "0x171"
      },
      "additionalContracts": [],
      "isFixedGasLimit": false
    }
  ],
  "receipts": [
    {
      "status": "0x1",
      "cumulativeGasUsed": "0x7be58e",
      "logs": [
        {
          "address": "0xdc45e5469a8b6d020473f69fec91c0f0e83a3308",
          "topics": [
            "0xa2ecdf3a87e9ffdb151ad823ae834f6165f94e54e5a30467175e075254eb6376"
          ],
          "data": "0x000000000000000000000000eca7a53ba6a190c5d205bfdc7707cbc3399336c100000000000000000000000000000000000000000000000000000000000000000000000000000000000000000000000000000000000000000000000000000000000000000000000000000000000000000000000000000000000000000000000000000000000000000000000000000000000000000000000000000000000000000000000000000000000000000000000000000000000000000000000069797c6900000000000000000000000000000000000000000000000000000000697971dd",
          "blockHash": "0xd4eec0d6db644e740116703e3770eaf27e3728528b45748315238665a96b1450",
          "blockNumber": "0x1873f25",
          "transactionHash": "0x0beac7837686d75a8378cdeffb983cf38c31e3ce1b4f78d9ea4dfb03ff8adf85",
          "transactionIndex": "0x19",
          "logIndex": "0x3f",
          "removed": false
        },
        {
          "address": "0xdc45e5469a8b6d020473f69fec91c0f0e83a3308",
          "topics": [
            "0xe044087a71e55f84948ec1c9a326d935d50b09a1b97fa24ac3721c9437525359"
          ],
          "data": "0x000000000000000000000000eca7a53ba6a190c5d205bfdc7707cbc3399336c100000000000000000000000000000000000000000000000000000000000025580000000000000000000000000000000000000000000000000000000000000190",
          "blockHash": "0xd4eec0d6db644e740116703e3770eaf27e3728528b45748315238665a96b1450",
          "blockNumber": "0x1873f25",
          "transactionHash": "0x0beac7837686d75a8378cdeffb983cf38c31e3ce1b4f78d9ea4dfb03ff8adf85",
          "transactionIndex": "0x19",
          "logIndex": "0x40",
          "removed": false
        }
      ],
      "logsBloom": "0x00000000000000000000000000000000000000000001000000000000000000000000000000100000000000000000000000000000000000000000000000000000000000000000000000000000000000000000000000002000000000000000000000000000000000002000000004000000000000000000000000000000000000000000000000000000000000000000000000000000000400000000000000000000000000000000000000000000000000000000002000000000000000000000000000000000000000000000000000000000000000000000000000000000000000000000000000000000000000000000400000000000000000000000000100000000",
      "type": "0x2",
      "transactionHash": "0x0beac7837686d75a8378cdeffb983cf38c31e3ce1b4f78d9ea4dfb03ff8adf85",
      "transactionIndex": "0x19",
      "blockHash": "0xd4eec0d6db644e740116703e3770eaf27e3728528b45748315238665a96b1450",
      "blockNumber": "0x1873f25",
      "gasUsed": "0x28d79",
      "effectiveGasPrice": "0x3fd4299ba3424",
      "from": "0xeca7a53ba6a190c5d205bfdc7707cbc3399336c1",
      "to": "0xdc45e5469a8b6d020473f69fec91c0f0e83a3308",
      "contractAddress": null
    }
  ],
  "libraries": [],
  "pending": [],
  "returns": {},
  "timestamp": 1769566685703,
  "chain": 369,
  "commit": null
}