{
  "transactions": [
    {
      "hash": "0xe7a7944205115f3507a01779bdd27eded1752c776a2df13d82980433a243ff26",
      "transactionType": "CALL",
      "contractName": null,
      "contractAddress": "0xdc45e5469a8b6d020473f69fec91c0f0e83a3308",
      "function": "trainSkill(uint8)",
      "arguments": [
        "0"
      ],
      "transaction": {
        "from": "0xeca7a53ba6a190c5d205bfdc7707cbc3399336c1",
        "to": "0xdc45e5469a8b6d020473f69fec91c0f0e83a3308",
        "gas": "0x3bbb4",
        "value": "0x0",
        "input": "0xa0a73d0d0000000000000000000000000000000000000000000000000000000000000000",
        "nonce": "0x3c4",
        "chainId": "0x171"
      },
      "additionalContracts": [],
      "isFixedGasLimit": false
    }
  ],
  "receipts": [
    {
      "status": "0x1",
      "cumulativeGasUsed": "0xe7a9fb",
      "logs": [
        {
          "address": "0xdc45e5469a8b6d020473f69fec91c0f0e83a3308",
          "topics": [
            "0xa2ecdf3a87e9ffdb151ad823ae834f6165f94e54e5a30467175e075254eb6376"
          ],
          "data": "0x000000000000000000000000eca7a53ba6a190c5d205bfdc7707cbc3399336c1000000000000000000000000000000000000000000000000000000000000000000000000000000000000000000000000000000000000000000000000000000000000000000000000000000000000000000000000000000000000000000000000000000000000000000000000000000000000000000000000000000000000000000000000000000000000000000000000000000000000000000000000697a6acf00000000000000000000000000000000000000000000000000000000697a6043",
          "blockHash": "0x92eb6f76c6ee3c979aec9b45408767872c8d2a7d79eeb32514aa9149a5278fb8",
          "blockNumber": "0x1875676",
          "transactionHash": "0xe7a7944205115f3507a01779bdd27eded1752c776a2df13d82980433a243ff26",
          "transactionIndex": "0x18",
          "logIndex": "0x2c5",
          "removed": false
        },
        {
          "address": "0xdc45e5469a8b6d020473f69fec91c0f0e83a3308",
          "topics": [
            "0xe044087a71e55f84948ec1c9a326d935d50b09a1b97fa24ac3721c9437525359"
          ],
          "data": "0x000000000000000000000000eca7a53ba6a190c5d205bfdc7707cbc3399336c100000000000000000000000000000000000000000000000000000000000025440000000000000000000000000000000000000000000000000000000000000190",
          "blockHash": "0x92eb6f76c6ee3c979aec9b45408767872c8d2a7d79eeb32514aa9149a5278fb8",
          "blockNumber": "0x1875676",
          "transactionHash": "0xe7a7944205115f3507a01779bdd27eded1752c776a2df13d82980433a243ff26",
          "transactionIndex": "0x18",
          "logIndex": "0x2c6",
          "removed": false
        }
      ],
      "logsBloom": "0x00000000000000000000000000000000000000000001000000000000000000000000000000100000000000000000000000000000000000000000000000000000000000000000000000000000000000000000000000002000000000000000000000000000000000002000000004000000000000000000000000000000000000000000000000000000000000000000000000000000000400000000000000000000000000000000000000000000000000000000002000000000000000000000000000000000000000000000000000000000000000000000000000000000000000000000000000000000000000000000400000000000000000000000000100000000",
      "type": "0x2",
      "transactionHash": "0xe7a7944205115f3507a01779bdd27eded1752c776a2df13d82980433a243ff26",
      "transactionIndex": "0x18",
      "blockHash": "0x92eb6f76c6ee3c979aec9b45408767872c8d2a7d79eeb32514aa9149a5278fb8",
      "blockNumber": "0x1875676",
      "gasUsed": "0x28d79",
      "effectiveGasPrice": "0x336501e85852c",
      "from": "0xeca7a53ba6a190c5d205bfdc7707cbc3399336c1",
      "to": "0xdc45e5469a8b6d020473f69fec91c0f0e83a3308",
      "contractAddress": null
    }
  ],
  "libraries": [],
  "pending": [],
  "returns": {},
  "timestamp": 1769627716128,
  "chain": 369,
  "commit": null
}