{
  "transactions": [
    {
      "hash": "0xf8d777486da954833b0eef9e0e743d33b8df734559b1cb2803aefd39209eb027",
      "transactionType": "CALL",
      "contractName": null,
      "contractAddress": "0xdc45e5469a8b6d020473f69fec91c0f0e83a3308",
      "function": "trainSkill(uint8)",
      "arguments": [
        "0"
      ],
      "transaction": {
        "from": "0xec646a6c9000e04d050435340d9c42c039eb5648",
        "to": "0xdc45e5469a8b6d020473f69fec91c0f0e83a3308",
        "gas": "0x38605",
        "value": "0x0",
        "input": "0xa0a73d0d0000000000000000000000000000000000000000000000000000000000000000",
        "nonce": "0x35",
        "chainId": "0x171"
      },
      "additionalContracts": [],
      "isFixedGasLimit": false
    }
  ],
  "receipts": [
    {
      "status": "0x1",
      "cumulativeGasUsed": "0x12c1c01",
      "logs": [
        {
          "address": "0xdc45e5469a8b6d020473f69fec91c0f0e83a3308",
          "topics": [
            "0xa2ecdf3a87e9ffdb151ad823ae834f6165f94e54e5a30467175e075254eb6376"
          ],
          "data": "0x000000000000000000000000ec646a6c9000e04d050435340d9c42c039eb56480000000000000000000000000000000000000000000000000000000000000000000000000000000000000000000000000000000000000000000000000000000000000000000000000000000000000000000000000000000000000000000000000000000000000000000000000000000000000000000000000000000000000000000000000000000000000000000000000000000000000000000000006987ea6f000000000000000000000000000000000000000000000000000000006987dfe3",
          "blockHash": "0xd1960fe4bcb7e701933c83b75c627200f8024d38f773459f61c5c06de0069d70",
          "blockNumber": "0x188a750",
          "transactionHash": "0xf8d777486da954833b0eef9e0e743d33b8df734559b1cb2803aefd39209eb027",
          "transactionIndex": "0x39",
          "logIndex": "0x15e",
          "removed": false
        },
        {
          "address": "0xdc45e5469a8b6d020473f69fec91c0f0e83a3308",
          "topics": [
            "0xe044087a71e55f84948ec1c9a326d935d50b09a1b97fa24ac3721c9437525359"
          ],
          "data": "0x000000000000000000000000ec646a6c9000e04d050435340d9c42c039eb564800000000000000000000000000000000000000000000000000000000000019180000000000000000000000000000000000000000000000000000000000000190",
          "blockHash": "0xd1960fe4bcb7e701933c83b75c627200f8024d38f773459f61c5c06de0069d70",
          "blockNumber": "0x188a750",
          "transactionHash": "0xf8d777486da954833b0eef9e0e743d33b8df734559b1cb2803aefd39209eb027",
          "transactionIndex": "0x39",
          "logIndex": "0x15f",
          "removed": false
        }
      ],
      "logsBloom": "0x00000000000000000000000000000000000000000001000000000000000000000000000000100000000000000000000000000000000000000000000000000000000000000000000000000000000000000000000000002000000000000000000000000000000000002000000004000000000000000000000000000000000000000000000000000000000000000000000000000000000400000000000000000000000000000000000000000000000000000000002000000000000000000000000000000000000000000000000000000000000000000000000000000000000000000000000000000000000000000000400000000000000000000000000100000000",
      "type": "0x2",
      "transactionHash": "0xf8d777486da954833b0eef9e0e743d33b8df734559b1cb2803aefd39209eb027",
      "transactionIndex": "0x39",
      "blockHash": "0xd1960fe4bcb7e701933c83b75c627200f8024d38f773459f61c5c06de0069d70",
      "blockNumber": "0x188a750",
      "gasUsed": "0x28d0d",
      "effectiveGasPrice": "0x31e3b76f62185",
      "from": "0xec646a6c9000e04d050435340d9c42c039eb5648",
      "to": "0xdc45e5469a8b6d020473f69fec91c0f0e83a3308",
      "contractAddress": null
    }
  ],
  "libraries": [],
  "pending": [],
  "returns": {},
  "timestamp": 1770512355987,
  "chain": 369,
  "commit": null
}