{
  "transactions": [
    {
      "hash": "0x10f9fa3086a6a808aa34a4f3e482026059e08e6df9eb596a9baa805b04a18d79",
      "transactionType": "CALL",
      "contractName": null,
      "contractAddress": "0xdc45e5469a8b6d020473f69fec91c0f0e83a3308",
      "function": "trainSkill(uint8)",
      "arguments": [
        "0"
      ],
      "transaction": {
        "from": "0xeca7a53ba6a190c5d205bfdc7707cbc3399336c1",
        "to": "0xdc45e5469a8b6d020473f69fec91c0f0e83a3308",
        "gas": "0x392e7",
        "value": "0x0",
        "input": "0xa0a73d0d0000000000000000000000000000000000000000000000000000000000000000",
        "nonce": "0x5a2",
        "chainId": "0x171"
      },
      "additionalContracts": [],
      "isFixedGasLimit": false
    }
  ],
  "receipts": [
    {
      "status": "0x1",
      "cumulativeGasUsed": "0x26223ca",
      "logs": [
        {
          "address": "0xdc45e5469a8b6d020473f69fec91c0f0e83a3308",
          "topics": [
            "0xa2ecdf3a87e9ffdb151ad823ae834f6165f94e54e5a30467175e075254eb6376"
          ],
          "data": "0x000000000000000000000000eca7a53ba6a190c5d205bfdc7707cbc3399336c10000000000000000000000000000000000000000000000000000000000000000000000000000000000000000000000000000000000000000000000000000000000000000000000000000000000000000000000000000000000000000000000000000000000000000000000000000000000000000000000000000000000000000000000000000000000000000000000000000000000000000000000006988667f0000000000000000000000000000000000000000000000000000000069885bf3",
          "blockHash": "0x7a32d2d27f900b2366da77c18c4cdfdee5a136fb27b4484987dfab947aed8c4b",
          "blockNumber": "0x188b36c",
          "transactionHash": "0x10f9fa3086a6a808aa34a4f3e482026059e08e6df9eb596a9baa805b04a18d79",
          "transactionIndex": "0x78",
          "logIndex": "0x167a",
          "removed": false
        },
        {
          "address": "0xdc45e5469a8b6d020473f69fec91c0f0e83a3308",
          "topics": [
            "0xe044087a71e55f84948ec1c9a326d935d50b09a1b97fa24ac3721c9437525359"
          ],
          "data": "0x000000000000000000000000eca7a53ba6a190c5d205bfdc7707cbc3399336c10000000000000000000000000000000000000000000000000000000000001de00000000000000000000000000000000000000000000000000000000000000190",
          "blockHash": "0x7a32d2d27f900b2366da77c18c4cdfdee5a136fb27b4484987dfab947aed8c4b",
          "blockNumber": "0x188b36c",
          "transactionHash": "0x10f9fa3086a6a808aa34a4f3e482026059e08e6df9eb596a9baa805b04a18d79",
          "transactionIndex": "0x78",
          "logIndex": "0x167b",
          "removed": false
        }
      ],
      "logsBloom": "0x00000000000000000000000000000000000000000001000000000000000000000000000000100000000000000000000000000000000000000000000000000000000000000000000000000000000000000000000000002000000000000000000000000000000000002000000004000000000000000000000000000000000000000000000000000000000000000000000000000000000400000000000000000000000000000000000000000000000000000000002000000000000000000000000000000000000000000000000000000000000000000000000000000000000000000000000000000000000000000000400000000000000000000000000100000000",
      "type": "0x2",
      "transactionHash": "0x10f9fa3086a6a808aa34a4f3e482026059e08e6df9eb596a9baa805b04a18d79",
      "transactionIndex": "0x78",
      "blockHash": "0x7a32d2d27f900b2366da77c18c4cdfdee5a136fb27b4484987dfab947aed8c4b",
      "blockNumber": "0x188b36c",
      "gasUsed": "0x29660",
      "effectiveGasPrice": "0x2904852d90df1",
      "from": "0xeca7a53ba6a190c5d205bfdc7707cbc3399336c1",
      "to": "0xdc45e5469a8b6d020473f69fec91c0f0e83a3308",
      "contractAddress": null
    }
  ],
  "libraries": [],
  "pending": [],
  "returns": {},
  "timestamp": 1770544116388,
  "chain": 369,
  "commit": null
}