{
  "transactions": [
    {
      "hash": "0xb68bcad9859d8529b28a6e41509ed439f75111f776199b2007a9e36e428d54f8",
      "transactionType": "CALL",
      "contractName": null,
      "contractAddress": "0xdc45e5469a8b6d020473f69fec91c0f0e83a3308",
      "function": "trainSkill(uint8)",
      "arguments": [
        "0"
      ],
      "transaction": {
        "from": "0xac56dc5a4a9de0197f7b8f584ea04ec7e0123dde",
        "to": "0xdc45e5469a8b6d020473f69fec91c0f0e83a3308",
        "gas": "0x3ae68",
        "value": "0x0",
        "input": "0xa0a73d0d0000000000000000000000000000000000000000000000000000000000000000",
        "nonce": "0x2ba",
        "chainId": "0x171"
      },
      "additionalContracts": [],
      "isFixedGasLimit": false
    }
  ],
  "receipts": [
    {
      "status": "0x1",
      "cumulativeGasUsed": "0x62889c",
      "logs": [
        {
          "address": "0xdc45e5469a8b6d020473f69fec91c0f0e83a3308",
          "topics": [
            "0xa2ecdf3a87e9ffdb151ad823ae834f6165f94e54e5a30467175e075254eb6376"
          ],
          "data": "0x000000000000000000000000ac56dc5a4a9de0197f7b8f584ea04ec7e0123dde000000000000000000000000000000000000000000000000000000000000000000000000000000000000000000000000000000000000000000000000000000000000000000000000000000000000000000000000000000000000000000000000000000000000000000000000000000000000000000000000000000000000000000000000000000000000000000000000000000000000000000000000697769dd0000000000000000000000000000000000000000000000000000000069775f51",
          "blockHash": "0x645ffa729e23496e0c49d244cf49b64b22223c81d36ed240aab47a7b29976a7f",
          "blockNumber": "0x1870b48",
          "transactionHash": "0xb68bcad9859d8529b28a6e41509ed439f75111f776199b2007a9e36e428d54f8",
          "transactionIndex": "0x1b",
          "logIndex": "0x7f",
          "removed": false
        },
        {
          "address": "0xdc45e5469a8b6d020473f69fec91c0f0e83a3308",
          "topics": [
            "0xe044087a71e55f84948ec1c9a326d935d50b09a1b97fa24ac3721c9437525359"
          ],
          "data": "0x000000000000000000000000ac56dc5a4a9de0197f7b8f584ea04ec7e0123dde00000000000000000000000000000000000000000000000000000000000004f70000000000000000000000000000000000000000000000000000000000000190",
          "blockHash": "0x645ffa729e23496e0c49d244cf49b64b22223c81d36ed240aab47a7b29976a7f",
          "blockNumber": "0x1870b48",
          "transactionHash": "0xb68bcad9859d8529b28a6e41509ed439f75111f776199b2007a9e36e428d54f8",
          "transactionIndex": "0x1b",
          "logIndex": "0x80",
          "removed": false
        }
      ],
      "logsBloom": "0x00000000000000000000000000000000000000000001000000000000000000000000000000100000000000000000000000000000000000000000000000000000000000000000000000000000000000000000000000002000000000000000000000000000000000002000000004000000000000000000000000000000000000000000000000000000000000000000000000000000000400000000000000000000000000000000000000000000000000000000002000000000000000000000000000000000000000000000000000000000000000000000000000000000000000000000000000000000000000000000400000000000000000000000000100000000",
      "type": "0x2",
      "transactionHash": "0xb68bcad9859d8529b28a6e41509ed439f75111f776199b2007a9e36e428d54f8",
      "transactionIndex": "0x1b",
      "blockHash": "0x645ffa729e23496e0c49d244cf49b64b22223c81d36ed240aab47a7b29976a7f",
      "blockNumber": "0x1870b48",
      "gasUsed": "0x28462",
      "effectiveGasPrice": "0x216185c241a65",
      "from": "0xac56dc5a4a9de0197f7b8f584ea04ec7e0123dde",
      "to": "0xdc45e5469a8b6d020473f69fec91c0f0e83a3308",
      "contractAddress": null
    }
  ],
  "libraries": [],
  "pending": [],
  "returns": {},
  "timestamp": 1769430865894,
  "chain": 369,
  "commit": "953695a"
}