{
  "transactions": [
    {
      "hash": "0x88c96eb6027ca681b6579c4f2baf3f313cb0705f0735acfed202b4131f44f273",
      "transactionType": "CALL",
      "contractName": null,
      "contractAddress": "0xdc45e5469a8b6d020473f69fec91c0f0e83a3308",
      "function": "trainSkill(uint8)",
      "arguments": [
        "0"
      ],
      "transaction": {
        "from": "0xaa73aa98480757d75aae288b5931261448eb0530",
        "to": "0xdc45e5469a8b6d020473f69fec91c0f0e83a3308",
        "gas": "0x38605",
        "value": "0x0",
        "input": "0xa0a73d0d0000000000000000000000000000000000000000000000000000000000000000",
        "nonce": "0x6b",
        "chainId": "0x171"
      },
      "additionalContracts": [],
      "isFixedGasLimit": false
    }
  ],
  "receipts": [
    {
      "status": "0x1",
      "cumulativeGasUsed": "0x120cf95",
      "logs": [
        {
          "address": "0xdc45e5469a8b6d020473f69fec91c0f0e83a3308",
          "topics": [
            "0xa2ecdf3a87e9ffdb151ad823ae834f6165f94e54e5a30467175e075254eb6376"
          ],
          "data": "0x000000000000000000000000aa73aa98480757d75aae288b5931261448eb05300000000000000000000000000000000000000000000000000000000000000000000000000000000000000000000000000000000000000000000000000000000000000000000000000000000000000000000000000000000000000000000000000000000000000000000000000000000000000000000000000000000000000000000000000000000000000000000000000000000000000000000000006988416300000000000000000000000000000000000000000000000000000000698836d7",
          "blockHash": "0xc5d0de659d9cc790353500c5065aa6b48af36fa39214d55f4b21de066581d9db",
          "blockNumber": "0x188afd7",
          "transactionHash": "0x88c96eb6027ca681b6579c4f2baf3f313cb0705f0735acfed202b4131f44f273",
          "transactionIndex": "0x35",
          "logIndex": "0x64",
          "removed": false
        },
        {
          "address": "0xdc45e5469a8b6d020473f69fec91c0f0e83a3308",
          "topics": [
            "0xe044087a71e55f84948ec1c9a326d935d50b09a1b97fa24ac3721c9437525359"
          ],
          "data": "0x000000000000000000000000aa73aa98480757d75aae288b5931261448eb0530000000000000000000000000000000000000000000000000000000000000057f0000000000000000000000000000000000000000000000000000000000000190",
          "blockHash": "0xc5d0de659d9cc790353500c5065aa6b48af36fa39214d55f4b21de066581d9db",
          "blockNumber": "0x188afd7",
          "transactionHash": "0x88c96eb6027ca681b6579c4f2baf3f313cb0705f0735acfed202b4131f44f273",
          "transactionIndex": "0x35",
          "logIndex": "0x65",
          "removed": false
        }
      ],
      "logsBloom": "0x00000000000000000000000000000000000000000001000000000000000000000000000000100000000000000000000000000000000000000000000000000000000000000000000000000000000000000000000000002000000000000000000000000000000000002000000004000000000000000000000000000000000000000000000000000000000000000000000000000000000400000000000000000000000000000000000000000000000000000000002000000000000000000000000000000000000000000000000000000000000000000000000000000000000000000000000000000000000000000000400000000000000000000000000100000000",
      "type": "0x2",
      "transactionHash": "0x88c96eb6027ca681b6579c4f2baf3f313cb0705f0735acfed202b4131f44f273",
      "transactionIndex": "0x35",
      "blockHash": "0xc5d0de659d9cc790353500c5065aa6b48af36fa39214d55f4b21de066581d9db",
      "blockNumber": "0x188afd7",
      "gasUsed": "0x28d0d",
      "effectiveGasPrice": "0x2e60ae06a0464",
      "from": "0xaa73aa98480757d75aae288b5931261448eb0530",
      "to": "0xdc45e5469a8b6d020473f69fec91c0f0e83a3308",
      "contractAddress": null
    }
  ],
  "libraries": [],
  "pending": [],
  "returns": {},
  "timestamp": 1770534615539,
  "chain": 369,
  "commit": null
}