{
  "transactions": [
    {
      "hash": "0x9d0b19ffe7de9c42a167f4393d09516d5374702b2a6a7e6d2d02adb8a1d8e152",
      "transactionType": "CALL",
      "contractName": null,
      "contractAddress": "0xdc45e5469a8b6d020473f69fec91c0f0e83a3308",
      "function": "trainSkill(uint8)",
      "arguments": [
        "0"
      ],
      "transaction": {
        "from": "0x4c62f6121e6f967a0872da8364995e9b68c1e82f",
        "to": "0xdc45e5469a8b6d020473f69fec91c0f0e83a3308",
        "gas": "0x38605",
        "value": "0x0",
        "input": "0xa0a73d0d0000000000000000000000000000000000000000000000000000000000000000",
        "nonce": "0x97c",
        "chainId": "0x171"
      },
      "additionalContracts": [],
      "isFixedGasLimit": false
    }
  ],
  "receipts": [
    {
      "status": "0x1",
      "cumulativeGasUsed": "0x1c74dda",
      "logs": [
        {
          "address": "0xdc45e5469a8b6d020473f69fec91c0f0e83a3308",
          "topics": [
            "0xa2ecdf3a87e9ffdb151ad823ae834f6165f94e54e5a30467175e075254eb6376"
          ],
          "data": "0x0000000000000000000000004c62f6121e6f967a0872da8364995e9b68c1e82f0000000000000000000000000000000000000000000000000000000000000000000000000000000000000000000000000000000000000000000000000000000000000000000000000000000000000000000000000000000000000000000000000000000000000000000000000000000000000000000000000000000000000000000000000000000000000000000000000000000000000000000000006988417700000000000000000000000000000000000000000000000000000000698836eb",
          "blockHash": "0x1cdceed553ed8ecd94f5771540673695b16559a98b78308d28782eea84c5bde6",
          "blockNumber": "0x188afd9",
          "transactionHash": "0x9d0b19ffe7de9c42a167f4393d09516d5374702b2a6a7e6d2d02adb8a1d8e152",
          "transactionIndex": "0x24",
          "logIndex": "0x740",
          "removed": false
        },
        {
          "address": "0xdc45e5469a8b6d020473f69fec91c0f0e83a3308",
          "topics": [
            "0xe044087a71e55f84948ec1c9a326d935d50b09a1b97fa24ac3721c9437525359"
          ],
          "data": "0x0000000000000000000000004c62f6121e6f967a0872da8364995e9b68c1e82f0000000000000000000000000000000000000000000000000000000000000fb80000000000000000000000000000000000000000000000000000000000000190",
          "blockHash": "0x1cdceed553ed8ecd94f5771540673695b16559a98b78308d28782eea84c5bde6",
          "blockNumber": "0x188afd9",
          "transactionHash": "0x9d0b19ffe7de9c42a167f4393d09516d5374702b2a6a7e6d2d02adb8a1d8e152",
          "transactionIndex": "0x24",
          "logIndex": "0x741",
          "removed": false
        }
      ],
      "logsBloom": "0x00000000000000000000000000000000000000000001000000000000000000000000000000100000000000000000000000000000000000000000000000000000000000000000000000000000000000000000000000002000000000000000000000000000000000002000000004000000000000000000000000000000000000000000000000000000000000000000000000000000000400000000000000000000000000000000000000000000000000000000002000000000000000000000000000000000000000000000000000000000000000000000000000000000000000000000000000000000000000000000400000000000000000000000000100000000",
      "type": "0x2",
      "transactionHash": "0x9d0b19ffe7de9c42a167f4393d09516d5374702b2a6a7e6d2d02adb8a1d8e152",
      "transactionIndex": "0x24",
      "blockHash": "0x1cdceed553ed8ecd94f5771540673695b16559a98b78308d28782eea84c5bde6",
      "blockNumber": "0x188afd9",
      "gasUsed": "0x28d0d",
      "effectiveGasPrice": "0x2b3f2389b908d",
      "from": "0x4c62f6121e6f967a0872da8364995e9b68c1e82f",
      "to": "0xdc45e5469a8b6d020473f69fec91c0f0e83a3308",
      "contractAddress": null
    }
  ],
  "libraries": [],
  "pending": [],
  "returns": {},
  "timestamp": 1770534635721,
  "chain": 369,
  "commit": null
}