{
  "transactions": [
    {
      "hash": "0x9d225f409f142878b35fc7df013040f154d647529b187a7f92c735a3c64200f6",
      "transactionType": "CALL",
      "contractName": null,
      "contractAddress": "0xdc45e5469a8b6d020473f69fec91c0f0e83a3308",
      "function": "trainSkill(uint8)",
      "arguments": [
        "0"
      ],
      "transaction": {
        "from": "0x4c62f6121e6f967a0872da8364995e9b68c1e82f",
        "to": "0xdc45e5469a8b6d020473f69fec91c0f0e83a3308",
        "gas": "0x38605",
        "value": "0x0",
        "input": "0xa0a73d0d0000000000000000000000000000000000000000000000000000000000000000",
        "nonce": "0x76a",
        "chainId": "0x171"
      },
      "additionalContracts": [],
      "isFixedGasLimit": false
    }
  ],
  "receipts": [
    {
      "status": "0x1",
      "cumulativeGasUsed": "0xfe8052",
      "logs": [
        {
          "address": "0xdc45e5469a8b6d020473f69fec91c0f0e83a3308",
          "topics": [
            "0xa2ecdf3a87e9ffdb151ad823ae834f6165f94e54e5a30467175e075254eb6376"
          ],
          "data": "0x0000000000000000000000004c62f6121e6f967a0872da8364995e9b68c1e82f000000000000000000000000000000000000000000000000000000000000000000000000000000000000000000000000000000000000000000000000000000000000000000000000000000000000000000000000000000000000000000000000000000000000000000000000000000000000000000000000000000000000000000000000000000000000000000000000000000000000000000000000697b473d00000000000000000000000000000000000000000000000000000000697b3cb1",
          "blockHash": "0x2c5cce82baeacadc8bdd872f4d7d53d960c6915a9591e6788ef0cef5223c1ee4",
          "blockNumber": "0x1876bf7",
          "transactionHash": "0x9d225f409f142878b35fc7df013040f154d647529b187a7f92c735a3c64200f6",
          "transactionIndex": "0x1f",
          "logIndex": "0x140",
          "removed": false
        },
        {
          "address": "0xdc45e5469a8b6d020473f69fec91c0f0e83a3308",
          "topics": [
            "0xe044087a71e55f84948ec1c9a326d935d50b09a1b97fa24ac3721c9437525359"
          ],
          "data": "0x0000000000000000000000004c62f6121e6f967a0872da8364995e9b68c1e82f00000000000000000000000000000000000000000000000000000000000022ce0000000000000000000000000000000000000000000000000000000000000190",
          "blockHash": "0x2c5cce82baeacadc8bdd872f4d7d53d960c6915a9591e6788ef0cef5223c1ee4",
          "blockNumber": "0x1876bf7",
          "transactionHash": "0x9d225f409f142878b35fc7df013040f154d647529b187a7f92c735a3c64200f6",
          "transactionIndex": "0x1f",
          "logIndex": "0x141",
          "removed": false
        }
      ],
      "logsBloom": "0x00000000000000000000000000000000000000000001000000000000000000000000000000100000000000000000000000000000000000000000000000000000000000000000000000000000000000000000000000002000000000000000000000000000000000002000000004000000000000000000000000000000000000000000000000000000000000000000000000000000000400000000000000000000000000000000000000000000000000000000002000000000000000000000000000000000000000000000000000000000000000000000000000000000000000000000000000000000000000000000400000000000000000000000000100000000",
      "type": "0x2",
      "transactionHash": "0x9d225f409f142878b35fc7df013040f154d647529b187a7f92c735a3c64200f6",
      "transactionIndex": "0x1f",
      "blockHash": "0x2c5cce82baeacadc8bdd872f4d7d53d960c6915a9591e6788ef0cef5223c1ee4",
      "blockNumber": "0x1876bf7",
      "gasUsed": "0x28d0d",
      "effectiveGasPrice": "0x2948e5dfd55d2",
      "from": "0x4c62f6121e6f967a0872da8364995e9b68c1e82f",
      "to": "0xdc45e5469a8b6d020473f69fec91c0f0e83a3308",
      "contractAddress": null
    }
  ],
  "libraries": [],
  "pending": [],
  "returns": {},
  "timestamp": 1769684146934,
  "chain": 369,
  "commit": null
}