{
  "transactions": [
    {
      "hash": "0x8a622dbfdf439936fe361554dec0810ef084495a340abcce8e701e1e6bd647f8",
      "transactionType": "CALL",
      "contractName": null,
      "contractAddress": "0xdc45e5469a8b6d020473f69fec91c0f0e83a3308",
      "function": "trainSkill(uint8)",
      "arguments": [
        "0"
      ],
      "transaction": {
        "from": "0xac56dc5a4a9de0197f7b8f584ea04ec7e0123dde",
        "to": "0xdc45e5469a8b6d020473f69fec91c0f0e83a3308",
        "gas": "0x3ae68",
        "value": "0x0",
        "input": "0xa0a73d0d0000000000000000000000000000000000000000000000000000000000000000",
        "nonce": "0x2be",
        "chainId": "0x171"
      },
      "additionalContracts": [],
      "isFixedGasLimit": false
    }
  ],
  "receipts": [
    {
      "status": "0x1",
      "cumulativeGasUsed": "0x181f56e",
      "logs": [
        {
          "address": "0xdc45e5469a8b6d020473f69fec91c0f0e83a3308",
          "topics": [
            "0xa2ecdf3a87e9ffdb151ad823ae834f6165f94e54e5a30467175e075254eb6376"
          ],
          "data": "0x000000000000000000000000ac56dc5a4a9de0197f7b8f584ea04ec7e0123dde000000000000000000000000000000000000000000000000000000000000000000000000000000000000000000000000000000000000000000000000000000000000000000000000000000000000000000000000000000000000000000000000000000000000000000000000000000000000000000000000000000000000000000000000000000000000000000000000000000000000000000000000697774af0000000000000000000000000000000000000000000000000000000069776a23",
          "blockHash": "0x9dc4ad317d02002ec3c7ae37c402dc46b1f8f8c93ca6f73f33caf3b98e073509",
          "blockNumber": "0x1870c4e",
          "transactionHash": "0x8a622dbfdf439936fe361554dec0810ef084495a340abcce8e701e1e6bd647f8",
          "transactionIndex": "0x2c",
          "logIndex": "0x37a",
          "removed": false
        },
        {
          "address": "0xdc45e5469a8b6d020473f69fec91c0f0e83a3308",
          "topics": [
            "0xe044087a71e55f84948ec1c9a326d935d50b09a1b97fa24ac3721c9437525359"
          ],
          "data": "0x000000000000000000000000ac56dc5a4a9de0197f7b8f584ea04ec7e0123dde00000000000000000000000000000000000000000000000000000000000019230000000000000000000000000000000000000000000000000000000000000190",
          "blockHash": "0x9dc4ad317d02002ec3c7ae37c402dc46b1f8f8c93ca6f73f33caf3b98e073509",
          "blockNumber": "0x1870c4e",
          "transactionHash": "0x8a622dbfdf439936fe361554dec0810ef084495a340abcce8e701e1e6bd647f8",
          "transactionIndex": "0x2c",
          "logIndex": "0x37b",
          "removed": false
        }
      ],
      "logsBloom": "0x00000000000000000000000000000000000000000001000000000000000000000000000000100000000000000000000000000000000000000000000000000000000000000000000000000000000000000000000000002000000000000000000000000000000000002000000004000000000000000000000000000000000000000000000000000000000000000000000000000000000400000000000000000000000000000000000000000000000000000000002000000000000000000000000000000000000000000000000000000000000000000000000000000000000000000000000000000000000000000000400000000000000000000000000100000000",
      "type": "0x2",
      "transactionHash": "0x8a622dbfdf439936fe361554dec0810ef084495a340abcce8e701e1e6bd647f8",
      "transactionIndex": "0x2c",
      "blockHash": "0x9dc4ad317d02002ec3c7ae37c402dc46b1f8f8c93ca6f73f33caf3b98e073509",
      "blockNumber": "0x1870c4e",
      "gasUsed": "0x28462",
      "effectiveGasPrice": "0x142cbbfc3591a",
      "from": "0xac56dc5a4a9de0197f7b8f584ea04ec7e0123dde",
      "to": "0xdc45e5469a8b6d020473f69fec91c0f0e83a3308",
      "contractAddress": null
    }
  ],
  "libraries": [],
  "pending": [],
  "returns": {},
  "timestamp": 1769433636080,
  "chain": 369,
  "commit": "953695a"
}