{
  "transactions": [
    {
      "hash": "0x6e6ee8eb95cb14c32cc9c6ad832e98a10237614d7965a59ea5f350daa6002ce2",
      "transactionType": "CALL",
      "contractName": null,
      "contractAddress": "0xdc45e5469a8b6d020473f69fec91c0f0e83a3308",
      "function": "trainSkill(uint8)",
      "arguments": [
        "0"
      ],
      "transaction": {
        "from": "0xeca7a53ba6a190c5d205bfdc7707cbc3399336c1",
        "to": "0xdc45e5469a8b6d020473f69fec91c0f0e83a3308",
        "gas": "0x3bbb4",
        "value": "0x0",
        "input": "0xa0a73d0d0000000000000000000000000000000000000000000000000000000000000000",
        "nonce": "0x3cb",
        "chainId": "0x171"
      },
      "additionalContracts": [],
      "isFixedGasLimit": false
    }
  ],
  "receipts": [
    {
      "status": "0x1",
      "cumulativeGasUsed": "0x3c4cce",
      "logs": [
        {
          "address": "0xdc45e5469a8b6d020473f69fec91c0f0e83a3308",
          "topics": [
            "0xa2ecdf3a87e9ffdb151ad823ae834f6165f94e54e5a30467175e075254eb6376"
          ],
          "data": "0x000000000000000000000000eca7a53ba6a190c5d205bfdc7707cbc3399336c1000000000000000000000000000000000000000000000000000000000000000000000000000000000000000000000000000000000000000000000000000000000000000000000000000000000000000000000000000000000000000000000000000000000000000000000000000000000000000000000000000000000000000000000000000000000000000000000000000000000000000000000000697a807d00000000000000000000000000000000000000000000000000000000697a75f1",
          "blockHash": "0xb26e31c29fa9f40ba7bd764b1a25be7373c3e82c89ec88cf142c9fb27be4d7b4",
          "blockNumber": "0x1875892",
          "transactionHash": "0x6e6ee8eb95cb14c32cc9c6ad832e98a10237614d7965a59ea5f350daa6002ce2",
          "transactionIndex": "0x19",
          "logIndex": "0x71",
          "removed": false
        },
        {
          "address": "0xdc45e5469a8b6d020473f69fec91c0f0e83a3308",
          "topics": [
            "0xe044087a71e55f84948ec1c9a326d935d50b09a1b97fa24ac3721c9437525359"
          ],
          "data": "0x000000000000000000000000eca7a53ba6a190c5d205bfdc7707cbc3399336c100000000000000000000000000000000000000000000000000000000000006b80000000000000000000000000000000000000000000000000000000000000190",
          "blockHash": "0xb26e31c29fa9f40ba7bd764b1a25be7373c3e82c89ec88cf142c9fb27be4d7b4",
          "blockNumber": "0x1875892",
          "transactionHash": "0x6e6ee8eb95cb14c32cc9c6ad832e98a10237614d7965a59ea5f350daa6002ce2",
          "transactionIndex": "0x19",
          "logIndex": "0x72",
          "removed": false
        }
      ],
      "logsBloom": "0x00000000000000000000000000000000000000000001000000000000000000000000000000100000000000000000000000000000000000000000000000000000000000000000000000000000000000000000000000002000000000000000000000000000000000002000000004000000000000000000000000000000000000000000000000000000000000000000000000000000000400000000000000000000000000000000000000000000000000000000002000000000000000000000000000000000000000000000000000000000000000000000000000000000000000000000000000000000000000000000400000000000000000000000000100000000",
      "type": "0x2",
      "transactionHash": "0x6e6ee8eb95cb14c32cc9c6ad832e98a10237614d7965a59ea5f350daa6002ce2",
      "transactionIndex": "0x19",
      "blockHash": "0xb26e31c29fa9f40ba7bd764b1a25be7373c3e82c89ec88cf142c9fb27be4d7b4",
      "blockNumber": "0x1875892",
      "gasUsed": "0x28d79",
      "effectiveGasPrice": "0x335eee46dbc55",
      "from": "0xeca7a53ba6a190c5d205bfdc7707cbc3399336c1",
      "to": "0xdc45e5469a8b6d020473f69fec91c0f0e83a3308",
      "contractAddress": null
    }
  ],
  "libraries": [],
  "pending": [],
  "returns": {},
  "timestamp": 1769633266006,
  "chain": 369,
  "commit": null
}