{
  "transactions": [
    {
      "hash": "0x5101ef13d18e2dea1a0155b2eda81771711660e8490170e9f78b07ce366a0522",
      "transactionType": "CALL",
      "contractName": null,
      "contractAddress": "0xdc45e5469a8b6d020473f69fec91c0f0e83a3308",
      "function": "trainSkill(uint8)",
      "arguments": [
        "0"
      ],
      "transaction": {
        "from": "0xeca7a53ba6a190c5d205bfdc7707cbc3399336c1",
        "to": "0xdc45e5469a8b6d020473f69fec91c0f0e83a3308",
        "gas": "0x3bbb4",
        "value": "0x0",
        "input": "0xa0a73d0d0000000000000000000000000000000000000000000000000000000000000000",
        "nonce": "0x3bf",
        "chainId": "0x171"
      },
      "additionalContracts": [],
      "isFixedGasLimit": false
    }
  ],
  "receipts": [
    {
      "status": "0x1",
      "cumulativeGasUsed": "0x1b8b648",
      "logs": [
        {
          "address": "0xdc45e5469a8b6d020473f69fec91c0f0e83a3308",
          "topics": [
            "0xa2ecdf3a87e9ffdb151ad823ae834f6165f94e54e5a30467175e075254eb6376"
          ],
          "data": "0x000000000000000000000000eca7a53ba6a190c5d205bfdc7707cbc3399336c1000000000000000000000000000000000000000000000000000000000000000000000000000000000000000000000000000000000000000000000000000000000000000000000000000000000000000000000000000000000000000000000000000000000000000000000000000000000000000000000000000000000000000000000000000000000000000000000000000000000000000000000000697a5ffd00000000000000000000000000000000000000000000000000000000697a5571",
          "blockHash": "0x85f04007177ccf2aeef4b9e7ebe0c449a3172bbd4499c79624ddf82eaed93c83",
          "blockNumber": "0x1875569",
          "transactionHash": "0x5101ef13d18e2dea1a0155b2eda81771711660e8490170e9f78b07ce366a0522",
          "transactionIndex": "0x13",
          "logIndex": "0x66d",
          "removed": false
        },
        {
          "address": "0xdc45e5469a8b6d020473f69fec91c0f0e83a3308",
          "topics": [
            "0xe044087a71e55f84948ec1c9a326d935d50b09a1b97fa24ac3721c9437525359"
          ],
          "data": "0x000000000000000000000000eca7a53ba6a190c5d205bfdc7707cbc3399336c100000000000000000000000000000000000000000000000000000000000017890000000000000000000000000000000000000000000000000000000000000190",
          "blockHash": "0x85f04007177ccf2aeef4b9e7ebe0c449a3172bbd4499c79624ddf82eaed93c83",
          "blockNumber": "0x1875569",
          "transactionHash": "0x5101ef13d18e2dea1a0155b2eda81771711660e8490170e9f78b07ce366a0522",
          "transactionIndex": "0x13",
          "logIndex": "0x66e",
          "removed": false
        }
      ],
      "logsBloom": "0x00000000000000000000000000000000000000000001000000000000000000000000000000100000000000000000000000000000000000000000000000000000000000000000000000000000000000000000000000002000000000000000000000000000000000002000000004000000000000000000000000000000000000000000000000000000000000000000000000000000000400000000000000000000000000000000000000000000000000000000002000000000000000000000000000000000000000000000000000000000000000000000000000000000000000000000000000000000000000000000400000000000000000000000000100000000",
      "type": "0x2",
      "transactionHash": "0x5101ef13d18e2dea1a0155b2eda81771711660e8490170e9f78b07ce366a0522",
      "transactionIndex": "0x13",
      "blockHash": "0x85f04007177ccf2aeef4b9e7ebe0c449a3172bbd4499c79624ddf82eaed93c83",
      "blockNumber": "0x1875569",
      "gasUsed": "0x28d79",
      "effectiveGasPrice": "0x3f8671fc27882",
      "from": "0xeca7a53ba6a190c5d205bfdc7707cbc3399336c1",
      "to": "0xdc45e5469a8b6d020473f69fec91c0f0e83a3308",
      "contractAddress": null
    }
  ],
  "libraries": [],
  "pending": [],
  "returns": {},
  "timestamp": 1769624945700,
  "chain": 369,
  "commit": null
}