{
  "transactions": [
    {
      "hash": "0x1bf4f84149c85106539bacc8e6d9037c04710d00fcb3127c5d1d01dbeeedb0b6",
      "transactionType": "CALL",
      "contractName": null,
      "contractAddress": "0xdc45e5469a8b6d020473f69fec91c0f0e83a3308",
      "function": "trainSkill(uint8)",
      "arguments": [
        "0"
      ],
      "transaction": {
        "from": "0x4c62f6121e6f967a0872da8364995e9b68c1e82f",
        "to": "0xdc45e5469a8b6d020473f69fec91c0f0e83a3308",
        "gas": "0x38605",
        "value": "0x0",
        "input": "0xa0a73d0d0000000000000000000000000000000000000000000000000000000000000000",
        "nonce": "0x763",
        "chainId": "0x171"
      },
      "additionalContracts": [],
      "isFixedGasLimit": false
    }
  ],
  "receipts": [
    {
      "status": "0x1",
      "cumulativeGasUsed": "0x1976dd6",
      "logs": [
        {
          "address": "0xdc45e5469a8b6d020473f69fec91c0f0e83a3308",
          "topics": [
            "0xa2ecdf3a87e9ffdb151ad823ae834f6165f94e54e5a30467175e075254eb6376"
          ],
          "data": "0x0000000000000000000000004c62f6121e6f967a0872da8364995e9b68c1e82f000000000000000000000000000000000000000000000000000000000000000000000000000000000000000000000000000000000000000000000000000000000000000000000000000000000000000000000000000000000000000000000000000000000000000000000000000000000000000000000000000000000000000000000000000000000000000000000000000000000000000000000000697b317b00000000000000000000000000000000000000000000000000000000697b26ef",
          "blockHash": "0x7c24db5e9b544a3dd7480039ab01ee693a908139ee936eeaac2b10cdbabe6dff",
          "blockNumber": "0x18769d8",
          "transactionHash": "0x1bf4f84149c85106539bacc8e6d9037c04710d00fcb3127c5d1d01dbeeedb0b6",
          "transactionIndex": "0x21",
          "logIndex": "0x60f",
          "removed": false
        },
        {
          "address": "0xdc45e5469a8b6d020473f69fec91c0f0e83a3308",
          "topics": [
            "0xe044087a71e55f84948ec1c9a326d935d50b09a1b97fa24ac3721c9437525359"
          ],
          "data": "0x0000000000000000000000004c62f6121e6f967a0872da8364995e9b68c1e82f00000000000000000000000000000000000000000000000000000000000002090000000000000000000000000000000000000000000000000000000000000190",
          "blockHash": "0x7c24db5e9b544a3dd7480039ab01ee693a908139ee936eeaac2b10cdbabe6dff",
          "blockNumber": "0x18769d8",
          "transactionHash": "0x1bf4f84149c85106539bacc8e6d9037c04710d00fcb3127c5d1d01dbeeedb0b6",
          "transactionIndex": "0x21",
          "logIndex": "0x610",
          "removed": false
        }
      ],
      "logsBloom": "0x00000000000000000000000000000000000000000001000000000000000000000000000000100000000000000000000000000000000000000000000000000000000000000000000000000000000000000000000000002000000000000000000000000000000000002000000004000000000000000000000000000000000000000000000000000000000000000000000000000000000400000000000000000000000000000000000000000000000000000000002000000000000000000000000000000000000000000000000000000000000000000000000000000000000000000000000000000000000000000000400000000000000000000000000100000000",
      "type": "0x2",
      "transactionHash": "0x1bf4f84149c85106539bacc8e6d9037c04710d00fcb3127c5d1d01dbeeedb0b6",
      "transactionIndex": "0x21",
      "blockHash": "0x7c24db5e9b544a3dd7480039ab01ee693a908139ee936eeaac2b10cdbabe6dff",
      "blockNumber": "0x18769d8",
      "gasUsed": "0x28d0d",
      "effectiveGasPrice": "0x1ba80ea88ae20",
      "from": "0x4c62f6121e6f967a0872da8364995e9b68c1e82f",
      "to": "0xdc45e5469a8b6d020473f69fec91c0f0e83a3308",
      "contractAddress": null
    }
  ],
  "libraries": [],
  "pending": [],
  "returns": {},
  "timestamp": 1769678576720,
  "chain": 369,
  "commit": null
}