{
  "transactions": [
    {
      "hash": "0x5fedee241aa168078dd6a62aff95486f9550fe87a1c4182e6b84ff7c3b5c334c",
      "transactionType": "CALL",
      "contractName": null,
      "contractAddress": "0xdc45e5469a8b6d020473f69fec91c0f0e83a3308",
      "function": "trainSkill(uint8)",
      "arguments": [
        "0"
      ],
      "transaction": {
        "from": "0x4c62f6121e6f967a0872da8364995e9b68c1e82f",
        "to": "0xdc45e5469a8b6d020473f69fec91c0f0e83a3308",
        "gas": "0x379ba",
        "value": "0x0",
        "input": "0xa0a73d0d0000000000000000000000000000000000000000000000000000000000000000",
        "nonce": "0x729",
        "chainId": "0x171"
      },
      "additionalContracts": [],
      "isFixedGasLimit": false
    }
  ],
  "receipts": [
    {
      "status": "0x1",
      "cumulativeGasUsed": "0xbfe2ca",
      "logs": [
        {
          "address": "0xdc45e5469a8b6d020473f69fec91c0f0e83a3308",
          "topics": [
            "0xa2ecdf3a87e9ffdb151ad823ae834f6165f94e54e5a30467175e075254eb6376"
          ],
          "data": "0x0000000000000000000000004c62f6121e6f967a0872da8364995e9b68c1e82f0000000000000000000000000000000000000000000000000000000000000000000000000000000000000000000000000000000000000000000000000000000000000000000000000000000000000000000000000000000000000000000000000000000000000000000000000000000000000000000000000000000000000000000000000000000000000000000000000000000000000000000000006979cbf1000000000000000000000000000000000000000000000000000000006979c165",
          "blockHash": "0x3fdbeaebfe5a1bf1409e702b54474582659fe607992c723c1f26701ae90ee7ce",
          "blockNumber": "0x18746e8",
          "transactionHash": "0x5fedee241aa168078dd6a62aff95486f9550fe87a1c4182e6b84ff7c3b5c334c",
          "transactionIndex": "0x11",
          "logIndex": "0x27b",
          "removed": false
        },
        {
          "address": "0xdc45e5469a8b6d020473f69fec91c0f0e83a3308",
          "topics": [
            "0xe044087a71e55f84948ec1c9a326d935d50b09a1b97fa24ac3721c9437525359"
          ],
          "data": "0x0000000000000000000000004c62f6121e6f967a0872da8364995e9b68c1e82f000000000000000000000000000000000000000000000000000000000000121a0000000000000000000000000000000000000000000000000000000000000190",
          "blockHash": "0x3fdbeaebfe5a1bf1409e702b54474582659fe607992c723c1f26701ae90ee7ce",
          "blockNumber": "0x18746e8",
          "transactionHash": "0x5fedee241aa168078dd6a62aff95486f9550fe87a1c4182e6b84ff7c3b5c334c",
          "transactionIndex": "0x11",
          "logIndex": "0x27c",
          "removed": false
        }
      ],
      "logsBloom": "0x00000000000000000000000000000000000000000001000000000000000000000000000000100000000000000000000000000000000000000000000000000000000000000000000000000000000000000000000000002000000000000000000000000000000000002000000004000000000000000000000000000000000000000000000000000000000000000000000000000000000400000000000000000000000000000000000000000000000000000000002000000000000000000000000000000000000000000000000000000000000000000000000000000000000000000000000000000000000000000000400000000000000000000000000100000000",
      "type": "0x2",
      "transactionHash": "0x5fedee241aa168078dd6a62aff95486f9550fe87a1c4182e6b84ff7c3b5c334c",
      "transactionIndex": "0x11",
      "blockHash": "0x3fdbeaebfe5a1bf1409e702b54474582659fe607992c723c1f26701ae90ee7ce",
      "blockNumber": "0x18746e8",
      "gasUsed": "0x28426",
      "effectiveGasPrice": "0x2244b6d44d008",
      "from": "0x4c62f6121e6f967a0872da8364995e9b68c1e82f",
      "to": "0xdc45e5469a8b6d020473f69fec91c0f0e83a3308",
      "contractAddress": null
    }
  ],
  "libraries": [],
  "pending": [],
  "returns": {},
  "timestamp": 1769587046015,
  "chain": 369,
  "commit": null
}