{
  "transactions": [
    {
      "hash": "0x72d14069dde0fba4a5ece5e81a5e5bd6ab3e8e3dcf558226fab5c2a56f7c98c0",
      "transactionType": "CALL",
      "contractName": null,
      "contractAddress": "0xdc45e5469a8b6d020473f69fec91c0f0e83a3308",
      "function": "trainSkill(uint8)",
      "arguments": [
        "0"
      ],
      "transaction": {
        "from": "0xeca7a53ba6a190c5d205bfdc7707cbc3399336c1",
        "to": "0xdc45e5469a8b6d020473f69fec91c0f0e83a3308",
        "gas": "0x392e7",
        "value": "0x0",
        "input": "0xa0a73d0d0000000000000000000000000000000000000000000000000000000000000000",
        "nonce": "0x5a9",
        "chainId": "0x171"
      },
      "additionalContracts": [],
      "isFixedGasLimit": false
    }
  ],
  "receipts": [
    {
      "status": "0x1",
      "cumulativeGasUsed": "0x162850b",
      "logs": [
        {
          "address": "0xdc45e5469a8b6d020473f69fec91c0f0e83a3308",
          "topics": [
            "0xa2ecdf3a87e9ffdb151ad823ae834f6165f94e54e5a30467175e075254eb6376"
          ],
          "data": "0x000000000000000000000000eca7a53ba6a190c5d205bfdc7707cbc3399336c100000000000000000000000000000000000000000000000000000000000000000000000000000000000000000000000000000000000000000000000000000000000000000000000000000000000000000000000000000000000000000000000000000000000000000000000000000000000000000000000000000000000000000000000000000000000000000000000000000000000000000000000069887ed50000000000000000000000000000000000000000000000000000000069887449",
          "blockHash": "0x6ef0d874e950495a3bfa8d13047c44430e9cdbbf2d4d031e85c2e830900bdfc8",
          "blockNumber": "0x188b5ce",
          "transactionHash": "0x72d14069dde0fba4a5ece5e81a5e5bd6ab3e8e3dcf558226fab5c2a56f7c98c0",
          "transactionIndex": "0x26",
          "logIndex": "0x200",
          "removed": false
        },
        {
          "address": "0xdc45e5469a8b6d020473f69fec91c0f0e83a3308",
          "topics": [
            "0xe044087a71e55f84948ec1c9a326d935d50b09a1b97fa24ac3721c9437525359"
          ],
          "data": "0x000000000000000000000000eca7a53ba6a190c5d205bfdc7707cbc3399336c10000000000000000000000000000000000000000000000000000000000001b950000000000000000000000000000000000000000000000000000000000000190",
          "blockHash": "0x6ef0d874e950495a3bfa8d13047c44430e9cdbbf2d4d031e85c2e830900bdfc8",
          "blockNumber": "0x188b5ce",
          "transactionHash": "0x72d14069dde0fba4a5ece5e81a5e5bd6ab3e8e3dcf558226fab5c2a56f7c98c0",
          "transactionIndex": "0x26",
          "logIndex": "0x201",
          "removed": false
        }
      ],
      "logsBloom": "0x00000000000000000000000000000000000000000001000000000000000000000000000000100000000000000000000000000000000000000000000000000000000000000000000000000000000000000000000000002000000000000000000000000000000000002000000004000000000000000000000000000000000000000000000000000000000000000000000000000000000400000000000000000000000000000000000000000000000000000000002000000000000000000000000000000000000000000000000000000000000000000000000000000000000000000000000000000000000000000000400000000000000000000000000100000000",
      "type": "0x2",
      "transactionHash": "0x72d14069dde0fba4a5ece5e81a5e5bd6ab3e8e3dcf558226fab5c2a56f7c98c0",
      "transactionIndex": "0x26",
      "blockHash": "0x6ef0d874e950495a3bfa8d13047c44430e9cdbbf2d4d031e85c2e830900bdfc8",
      "blockNumber": "0x188b5ce",
      "gasUsed": "0x29660",
      "effectiveGasPrice": "0x2f4315a68ed13",
      "from": "0xeca7a53ba6a190c5d205bfdc7707cbc3399336c1",
      "to": "0xdc45e5469a8b6d020473f69fec91c0f0e83a3308",
      "contractAddress": null
    }
  ],
  "libraries": [],
  "pending": [],
  "returns": {},
  "timestamp": 1770550345799,
  "chain": 369,
  "commit": null
}