{
  "transactions": [
    {
      "hash": "0x08e5316efe898c1d8aca92e1604af443a8f029daef72affebd41d72fc305fb44",
      "transactionType": "CALL",
      "contractName": null,
      "contractAddress": "0xdc45e5469a8b6d020473f69fec91c0f0e83a3308",
      "function": "trainSkill(uint8)",
      "arguments": [
        "0"
      ],
      "transaction": {
        "from": "0xac56dc5a4a9de0197f7b8f584ea04ec7e0123dde",
        "to": "0xdc45e5469a8b6d020473f69fec91c0f0e83a3308",
        "gas": "0x38605",
        "value": "0x0",
        "input": "0xa0a73d0d0000000000000000000000000000000000000000000000000000000000000000",
        "nonce": "0x3ba",
        "chainId": "0x171"
      },
      "additionalContracts": [],
      "isFixedGasLimit": false
    }
  ],
  "receipts": [
    {
      "status": "0x1",
      "cumulativeGasUsed": "0x229d620",
      "logs": [
        {
          "address": "0xdc45e5469a8b6d020473f69fec91c0f0e83a3308",
          "topics": [
            "0xa2ecdf3a87e9ffdb151ad823ae834f6165f94e54e5a30467175e075254eb6376"
          ],
          "data": "0x000000000000000000000000ac56dc5a4a9de0197f7b8f584ea04ec7e0123dde000000000000000000000000000000000000000000000000000000000000000000000000000000000000000000000000000000000000000000000000000000000000000000000000000000000000000000000000000000000000000000000000000000000000000000000000000000000000000000000000000000000000000000000000000000000000000000000000000000000000000000000000697ab68300000000000000000000000000000000000000000000000000000000697aabf7",
          "blockHash": "0xa4f7ac554a475668a54191aa1a5cf5162764faf30c4c49a2ec1db3b96008d3f3",
          "blockNumber": "0x1875dd9",
          "transactionHash": "0x08e5316efe898c1d8aca92e1604af443a8f029daef72affebd41d72fc305fb44",
          "transactionIndex": "0x85",
          "logIndex": "0x44a",
          "removed": false
        },
        {
          "address": "0xdc45e5469a8b6d020473f69fec91c0f0e83a3308",
          "topics": [
            "0xe044087a71e55f84948ec1c9a326d935d50b09a1b97fa24ac3721c9437525359"
          ],
          "data": "0x000000000000000000000000ac56dc5a4a9de0197f7b8f584ea04ec7e0123dde00000000000000000000000000000000000000000000000000000000000021980000000000000000000000000000000000000000000000000000000000000190",
          "blockHash": "0xa4f7ac554a475668a54191aa1a5cf5162764faf30c4c49a2ec1db3b96008d3f3",
          "blockNumber": "0x1875dd9",
          "transactionHash": "0x08e5316efe898c1d8aca92e1604af443a8f029daef72affebd41d72fc305fb44",
          "transactionIndex": "0x85",
          "logIndex": "0x44b",
          "removed": false
        }
      ],
      "logsBloom": "0x00000000000000000000000000000000000000000001000000000000000000000000000000100000000000000000000000000000000000000000000000000000000000000000000000000000000000000000000000002000000000000000000000000000000000002000000004000000000000000000000000000000000000000000000000000000000000000000000000000000000400000000000000000000000000000000000000000000000000000000002000000000000000000000000000000000000000000000000000000000000000000000000000000000000000000000000000000000000000000000400000000000000000000000000100000000",
      "type": "0x2",
      "transactionHash": "0x08e5316efe898c1d8aca92e1604af443a8f029daef72affebd41d72fc305fb44",
      "transactionIndex": "0x85",
      "blockHash": "0xa4f7ac554a475668a54191aa1a5cf5162764faf30c4c49a2ec1db3b96008d3f3",
      "blockNumber": "0x1875dd9",
      "gasUsed": "0x28d0d",
      "effectiveGasPrice": "0x1e30d098d3d53",
      "from": "0xac56dc5a4a9de0197f7b8f584ea04ec7e0123dde",
      "to": "0xdc45e5469a8b6d020473f69fec91c0f0e83a3308",
      "contractAddress": null
    }
  ],
  "libraries": [],
  "pending": [],
  "returns": {},
  "timestamp": 1769647096876,
  "chain": 369,
  "commit": null
}