{
  "transactions": [
    {
      "hash": "0x58bdd9aa8a0090cf6420ef5d7feb17a1add4c454dcd6fa8caa94001b3dc89824",
      "transactionType": "CALL",
      "contractName": null,
      "contractAddress": "0xdc45e5469a8b6d020473f69fec91c0f0e83a3308",
      "function": "trainSkill(uint8)",
      "arguments": [
        "0"
      ],
      "transaction": {
        "from": "0x4c62f6121e6f967a0872da8364995e9b68c1e82f",
        "to": "0xdc45e5469a8b6d020473f69fec91c0f0e83a3308",
        "gas": "0x38605",
        "value": "0x0",
        "input": "0xa0a73d0d0000000000000000000000000000000000000000000000000000000000000000",
        "nonce": "0x96b",
        "chainId": "0x171"
      },
      "additionalContracts": [],
      "isFixedGasLimit": false
    }
  ],
  "receipts": [
    {
      "status": "0x1",
      "cumulativeGasUsed": "0x2049ee2",
      "logs": [
        {
          "address": "0xdc45e5469a8b6d020473f69fec91c0f0e83a3308",
          "topics": [
            "0xa2ecdf3a87e9ffdb151ad823ae834f6165f94e54e5a30467175e075254eb6376"
          ],
          "data": "0x0000000000000000000000004c62f6121e6f967a0872da8364995e9b68c1e82f0000000000000000000000000000000000000000000000000000000000000000000000000000000000000000000000000000000000000000000000000000000000000000000000000000000000000000000000000000000000000000000000000000000000000000000000000000000000000000000000000000000000000000000000000000000000000000000000000000000000000000000000006987ce4f000000000000000000000000000000000000000000000000000000006987c3c3",
          "blockHash": "0x1186ce3a7c321d76a89f191780a54be2a8df81583a168556d6f22c9de22aef9f",
          "blockNumber": "0x188a499",
          "transactionHash": "0x58bdd9aa8a0090cf6420ef5d7feb17a1add4c454dcd6fa8caa94001b3dc89824",
          "transactionIndex": "0x4c",
          "logIndex": "0x178",
          "removed": false
        },
        {
          "address": "0xdc45e5469a8b6d020473f69fec91c0f0e83a3308",
          "topics": [
            "0xe044087a71e55f84948ec1c9a326d935d50b09a1b97fa24ac3721c9437525359"
          ],
          "data": "0x0000000000000000000000004c62f6121e6f967a0872da8364995e9b68c1e82f0000000000000000000000000000000000000000000000000000000000000ef40000000000000000000000000000000000000000000000000000000000000190",
          "blockHash": "0x1186ce3a7c321d76a89f191780a54be2a8df81583a168556d6f22c9de22aef9f",
          "blockNumber": "0x188a499",
          "transactionHash": "0x58bdd9aa8a0090cf6420ef5d7feb17a1add4c454dcd6fa8caa94001b3dc89824",
          "transactionIndex": "0x4c",
          "logIndex": "0x179",
          "removed": false
        }
      ],
      "logsBloom": "0x00000000000000000000000000000000000000000001000000000000000000000000000000100000000000000000000000000000000000000000000000000000000000000000000000000000000000000000000000002000000000000000000000000000000000002000000004000000000000000000000000000000000000000000000000000000000000000000000000000000000400000000000000000000000000000000000000000000000000000000002000000000000000000000000000000000000000000000000000000000000000000000000000000000000000000000000000000000000000000000400000000000000000000000000100000000",
      "type": "0x2",
      "transactionHash": "0x58bdd9aa8a0090cf6420ef5d7feb17a1add4c454dcd6fa8caa94001b3dc89824",
      "transactionIndex": "0x4c",
      "blockHash": "0x1186ce3a7c321d76a89f191780a54be2a8df81583a168556d6f22c9de22aef9f",
      "blockNumber": "0x188a499",
      "gasUsed": "0x28d0d",
      "effectiveGasPrice": "0x3c175f3cbb231",
      "from": "0x4c62f6121e6f967a0872da8364995e9b68c1e82f",
      "to": "0xdc45e5469a8b6d020473f69fec91c0f0e83a3308",
      "contractAddress": null
    }
  ],
  "libraries": [],
  "pending": [],
  "returns": {},
  "timestamp": 1770505156174,
  "chain": 369,
  "commit": null
}