{
  "transactions": [
    {
      "hash": "0x6a265009de8ebcaa638852bde99e980c8008b8366f3c94f77ab0a0536d51b6e0",
      "transactionType": "CALL",
      "contractName": null,
      "contractAddress": "0xdc45e5469a8b6d020473f69fec91c0f0e83a3308",
      "function": "trainSkill(uint8)",
      "arguments": [
        "0"
      ],
      "transaction": {
        "from": "0xeca7a53ba6a190c5d205bfdc7707cbc3399336c1",
        "to": "0xdc45e5469a8b6d020473f69fec91c0f0e83a3308",
        "gas": "0x392e7",
        "value": "0x0",
        "input": "0xa0a73d0d0000000000000000000000000000000000000000000000000000000000000000",
        "nonce": "0x582",
        "chainId": "0x171"
      },
      "additionalContracts": [],
      "isFixedGasLimit": false
    }
  ],
  "receipts": [
    {
      "status": "0x1",
      "cumulativeGasUsed": "0x6938c5",
      "logs": [
        {
          "address": "0xdc45e5469a8b6d020473f69fec91c0f0e83a3308",
          "topics": [
            "0xa2ecdf3a87e9ffdb151ad823ae834f6165f94e54e5a30467175e075254eb6376"
          ],
          "data": "0x000000000000000000000000eca7a53ba6a190c5d205bfdc7707cbc3399336c100000000000000000000000000000000000000000000000000000000000000000000000000000000000000000000000000000000000000000000000000000000000000000000000000000000000000000000000000000000000000000000000000000000000000000000000000000000000000000000000000000000000000000000000000000000000000000000000000000000000000000000000069880013000000000000000000000000000000000000000000000000000000006987f587",
          "blockHash": "0xaf2c2d1202e27345e5a04cff53d8a07870ebc427949cb73798fa14097a9b4a3e",
          "blockNumber": "0x188a972",
          "transactionHash": "0x6a265009de8ebcaa638852bde99e980c8008b8366f3c94f77ab0a0536d51b6e0",
          "transactionIndex": "0x2d",
          "logIndex": "0x5f",
          "removed": false
        },
        {
          "address": "0xdc45e5469a8b6d020473f69fec91c0f0e83a3308",
          "topics": [
            "0xe044087a71e55f84948ec1c9a326d935d50b09a1b97fa24ac3721c9437525359"
          ],
          "data": "0x000000000000000000000000eca7a53ba6a190c5d205bfdc7707cbc3399336c100000000000000000000000000000000000000000000000000000000000024810000000000000000000000000000000000000000000000000000000000000190",
          "blockHash": "0xaf2c2d1202e27345e5a04cff53d8a07870ebc427949cb73798fa14097a9b4a3e",
          "blockNumber": "0x188a972",
          "transactionHash": "0x6a265009de8ebcaa638852bde99e980c8008b8366f3c94f77ab0a0536d51b6e0",
          "transactionIndex": "0x2d",
          "logIndex": "0x60",
          "removed": false
        }
      ],
      "logsBloom": "0x00000000000000000000000000000000000000000001000000000000000000000000000000100000000000000000000000000000000000000000000000000000000000000000000000000000000000000000000000002000000000000000000000000000000000002000000004000000000000000000000000000000000000000000000000000000000000000000000000000000000400000000000000000000000000000000000000000000000000000000002000000000000000000000000000000000000000000000000000000000000000000000000000000000000000000000000000000000000000000000400000000000000000000000000100000000",
      "type": "0x2",
      "transactionHash": "0x6a265009de8ebcaa638852bde99e980c8008b8366f3c94f77ab0a0536d51b6e0",
      "transactionIndex": "0x2d",
      "blockHash": "0xaf2c2d1202e27345e5a04cff53d8a07870ebc427949cb73798fa14097a9b4a3e",
      "blockNumber": "0x188a972",
      "gasUsed": "0x29660",
      "effectiveGasPrice": "0x314c1d5837e69",
      "from": "0xeca7a53ba6a190c5d205bfdc7707cbc3399336c1",
      "to": "0xdc45e5469a8b6d020473f69fec91c0f0e83a3308",
      "contractAddress": null
    }
  ],
  "libraries": [],
  "pending": [],
  "returns": {},
  "timestamp": 1770517895965,
  "chain": 369,
  "commit": null
}