{
  "transactions": [
    {
      "hash": "0x11e9985c0061edf46be82bd235c54a0e8b02df23b267ec3b785ec6a50fc189e7",
      "transactionType": "CALL",
      "contractName": null,
      "contractAddress": "0xdc45e5469a8b6d020473f69fec91c0f0e83a3308",
      "function": "trainSkill(uint8)",
      "arguments": [
        "0"
      ],
      "transaction": {
        "from": "0xeca7a53ba6a190c5d205bfdc7707cbc3399336c1",
        "to": "0xdc45e5469a8b6d020473f69fec91c0f0e83a3308",
        "gas": "0x3bbb4",
        "value": "0x0",
        "input": "0xa0a73d0d0000000000000000000000000000000000000000000000000000000000000000",
        "nonce": "0x2da",
        "chainId": "0x171"
      },
      "additionalContracts": [],
      "isFixedGasLimit": false
    }
  ],
  "receipts": [
    {
      "status": "0x1",
      "cumulativeGasUsed": "0x190bf68",
      "logs": [
        {
          "address": "0xdc45e5469a8b6d020473f69fec91c0f0e83a3308",
          "topics": [
            "0xa2ecdf3a87e9ffdb151ad823ae834f6165f94e54e5a30467175e075254eb6376"
          ],
          "data": "0x000000000000000000000000eca7a53ba6a190c5d205bfdc7707cbc3399336c1000000000000000000000000000000000000000000000000000000000000000000000000000000000000000000000000000000000000000000000000000000000000000000000000000000000000000000000000000000000000000000000000000000000000000000000000000000000000000000000000000000000000000000000000000000000000000000000000000000000000000000000000697749670000000000000000000000000000000000000000000000000000000069773edb",
          "blockHash": "0xe170269f08d78485294c602f6d8d00d7b6dd585cca92604f695ad701a463a043",
          "blockNumber": "0x187081e",
          "transactionHash": "0x11e9985c0061edf46be82bd235c54a0e8b02df23b267ec3b785ec6a50fc189e7",
          "transactionIndex": "0x2e",
          "logIndex": "0x384",
          "removed": false
        },
        {
          "address": "0xdc45e5469a8b6d020473f69fec91c0f0e83a3308",
          "topics": [
            "0xe044087a71e55f84948ec1c9a326d935d50b09a1b97fa24ac3721c9437525359"
          ],
          "data": "0x000000000000000000000000eca7a53ba6a190c5d205bfdc7707cbc3399336c10000000000000000000000000000000000000000000000000000000000000a070000000000000000000000000000000000000000000000000000000000000190",
          "blockHash": "0xe170269f08d78485294c602f6d8d00d7b6dd585cca92604f695ad701a463a043",
          "blockNumber": "0x187081e",
          "transactionHash": "0x11e9985c0061edf46be82bd235c54a0e8b02df23b267ec3b785ec6a50fc189e7",
          "transactionIndex": "0x2e",
          "logIndex": "0x385",
          "removed": false
        }
      ],
      "logsBloom": "0x00000000000000000000000000000000000000000001000000000000000000000000000000100000000000000000000000000000000000000000000000000000000000000000000000000000000000000000000000002000000000000000000000000000000000002000000004000000000000000000000000000000000000000000000000000000000000000000000000000000000400000000000000000000000000000000000000000000000000000000002000000000000000000000000000000000000000000000000000000000000000000000000000000000000000000000000000000000000000000000400000000000000000000000000100000000",
      "type": "0x2",
      "transactionHash": "0x11e9985c0061edf46be82bd235c54a0e8b02df23b267ec3b785ec6a50fc189e7",
      "transactionIndex": "0x2e",
      "blockHash": "0xe170269f08d78485294c602f6d8d00d7b6dd585cca92604f695ad701a463a043",
      "blockNumber": "0x187081e",
      "gasUsed": "0x28d79",
      "effectiveGasPrice": "0x1713c8cb30381",
      "from": "0xeca7a53ba6a190c5d205bfdc7707cbc3399336c1",
      "to": "0xdc45e5469a8b6d020473f69fec91c0f0e83a3308",
      "contractAddress": null
    }
  ],
  "libraries": [],
  "pending": [],
  "returns": {},
  "timestamp": 1769422556016,
  "chain": 369,
  "commit": "953695a"
}