{
  "transactions": [
    {
      "hash": "0x255a34b3c5e098427966927e485f0c5044acfb53e58a7a43302316a358941072",
      "transactionType": "CALL",
      "contractName": null,
      "contractAddress": "0xdc45e5469a8b6d020473f69fec91c0f0e83a3308",
      "function": "trainSkill(uint8)",
      "arguments": [
        "0"
      ],
      "transaction": {
        "from": "0xac56dc5a4a9de0197f7b8f584ea04ec7e0123dde",
        "to": "0xdc45e5469a8b6d020473f69fec91c0f0e83a3308",
        "gas": "0x38605",
        "value": "0x0",
        "input": "0xa0a73d0d0000000000000000000000000000000000000000000000000000000000000000",
        "nonce": "0x3d8",
        "chainId": "0x171"
      },
      "additionalContracts": [],
      "isFixedGasLimit": false
    }
  ],
  "receipts": [
    {
      "status": "0x1",
      "cumulativeGasUsed": "0xceccdf",
      "logs": [
        {
          "address": "0xdc45e5469a8b6d020473f69fec91c0f0e83a3308",
          "topics": [
            "0xa2ecdf3a87e9ffdb151ad823ae834f6165f94e54e5a30467175e075254eb6376"
          ],
          "data": "0x000000000000000000000000ac56dc5a4a9de0197f7b8f584ea04ec7e0123dde000000000000000000000000000000000000000000000000000000000000000000000000000000000000000000000000000000000000000000000000000000000000000000000000000000000000000000000000000000000000000000000000000000000000000000000000000000000000000000000000000000000000000000000000000000000000000000000000000000000000000000000000697b201900000000000000000000000000000000000000000000000000000000697b158d",
          "blockHash": "0x999465b0fd9bc72e4713fcdc5087d0d0008b68986e3ce05ad2a8d6313049588d",
          "blockNumber": "0x1876825",
          "transactionHash": "0x255a34b3c5e098427966927e485f0c5044acfb53e58a7a43302316a358941072",
          "transactionIndex": "0x1c",
          "logIndex": "0x28b",
          "removed": false
        },
        {
          "address": "0xdc45e5469a8b6d020473f69fec91c0f0e83a3308",
          "topics": [
            "0xe044087a71e55f84948ec1c9a326d935d50b09a1b97fa24ac3721c9437525359"
          ],
          "data": "0x000000000000000000000000ac56dc5a4a9de0197f7b8f584ea04ec7e0123dde00000000000000000000000000000000000000000000000000000000000013490000000000000000000000000000000000000000000000000000000000000190",
          "blockHash": "0x999465b0fd9bc72e4713fcdc5087d0d0008b68986e3ce05ad2a8d6313049588d",
          "blockNumber": "0x1876825",
          "transactionHash": "0x255a34b3c5e098427966927e485f0c5044acfb53e58a7a43302316a358941072",
          "transactionIndex": "0x1c",
          "logIndex": "0x28c",
          "removed": false
        }
      ],
      "logsBloom": "0x00000000000000000000000000000000000000000001000000000000000000000000000000100000000000000000000000000000000000000000000000000000000000000000000000000000000000000000000000002000000000000000000000000000000000002000000004000000000000000000000000000000000000000000000000000000000000000000000000000000000400000000000000000000000000000000000000000000000000000000002000000000000000000000000000000000000000000000000000000000000000000000000000000000000000000000000000000000000000000000400000000000000000000000000100000000",
      "type": "0x2",
      "transactionHash": "0x255a34b3c5e098427966927e485f0c5044acfb53e58a7a43302316a358941072",
      "transactionIndex": "0x1c",
      "blockHash": "0x999465b0fd9bc72e4713fcdc5087d0d0008b68986e3ce05ad2a8d6313049588d",
      "blockNumber": "0x1876825",
      "gasUsed": "0x28d0d",
      "effectiveGasPrice": "0x1e0410dbcb8a5",
      "from": "0xac56dc5a4a9de0197f7b8f584ea04ec7e0123dde",
      "to": "0xdc45e5469a8b6d020473f69fec91c0f0e83a3308",
      "contractAddress": null
    }
  ],
  "libraries": [],
  "pending": [],
  "returns": {},
  "timestamp": 1769674125763,
  "chain": 369,
  "commit": null
}