{
  "transactions": [
    {
      "hash": "0x184ea0728e6483998615747d87d1a08a228792158faa24d75bd8692cb00d7bea",
      "transactionType": "CALL",
      "contractName": null,
      "contractAddress": "0xdc45e5469a8b6d020473f69fec91c0f0e83a3308",
      "function": "trainSkill(uint8)",
      "arguments": [
        "0"
      ],
      "transaction": {
        "from": "0x4c62f6121e6f967a0872da8364995e9b68c1e82f",
        "to": "0xdc45e5469a8b6d020473f69fec91c0f0e83a3308",
        "gas": "0x38605",
        "value": "0x0",
        "input": "0xa0a73d0d0000000000000000000000000000000000000000000000000000000000000000",
        "nonce": "0x987",
        "chainId": "0x171"
      },
      "additionalContracts": [],
      "isFixedGasLimit": false
    }
  ],
  "receipts": [
    {
      "status": "0x1",
      "cumulativeGasUsed": "0x1fa3962",
      "logs": [
        {
          "address": "0xdc45e5469a8b6d020473f69fec91c0f0e83a3308",
          "topics": [
            "0xa2ecdf3a87e9ffdb151ad823ae834f6165f94e54e5a30467175e075254eb6376"
          ],
          "data": "0x0000000000000000000000004c62f6121e6f967a0872da8364995e9b68c1e82f000000000000000000000000000000000000000000000000000000000000000000000000000000000000000000000000000000000000000000000000000000000000000000000000000000000000000000000000000000000000000000000000000000000000000000000000000000000000000000000000000000000000000000000000000000000000000000000000000000000000000000000000698869e50000000000000000000000000000000000000000000000000000000069885f59",
          "blockHash": "0x3bbc033448cc08cb58135421ec91951249474441b1c4b11d37b2dae956de5206",
          "blockNumber": "0x188b3c2",
          "transactionHash": "0x184ea0728e6483998615747d87d1a08a228792158faa24d75bd8692cb00d7bea",
          "transactionIndex": "0x1a",
          "logIndex": "0x747",
          "removed": false
        },
        {
          "address": "0xdc45e5469a8b6d020473f69fec91c0f0e83a3308",
          "topics": [
            "0xe044087a71e55f84948ec1c9a326d935d50b09a1b97fa24ac3721c9437525359"
          ],
          "data": "0x0000000000000000000000004c62f6121e6f967a0872da8364995e9b68c1e82f000000000000000000000000000000000000000000000000000000000000192b0000000000000000000000000000000000000000000000000000000000000190",
          "blockHash": "0x3bbc033448cc08cb58135421ec91951249474441b1c4b11d37b2dae956de5206",
          "blockNumber": "0x188b3c2",
          "transactionHash": "0x184ea0728e6483998615747d87d1a08a228792158faa24d75bd8692cb00d7bea",
          "transactionIndex": "0x1a",
          "logIndex": "0x748",
          "removed": false
        }
      ],
      "logsBloom": "0x00000000000000000000000000000000000000000001000000000000000000000000000000100000000000000000000000000000000000000000000000000000000000000000000000000000000000000000000000002000000000000000000000000000000000002000000004000000000000000000000000000000000000000000000000000000000000000000000000000000000400000000000000000000000000000000000000000000000000000000002000000000000000000000000000000000000000000000000000000000000000000000000000000000000000000000000000000000000000000000400000000000000000000000000100000000",
      "type": "0x2",
      "transactionHash": "0x184ea0728e6483998615747d87d1a08a228792158faa24d75bd8692cb00d7bea",
      "transactionIndex": "0x1a",
      "blockHash": "0x3bbc033448cc08cb58135421ec91951249474441b1c4b11d37b2dae956de5206",
      "blockNumber": "0x188b3c2",
      "gasUsed": "0x28d0d",
      "effectiveGasPrice": "0x2d5dd61eb84be",
      "from": "0x4c62f6121e6f967a0872da8364995e9b68c1e82f",
      "to": "0xdc45e5469a8b6d020473f69fec91c0f0e83a3308",
      "contractAddress": null
    }
  ],
  "libraries": [],
  "pending": [],
  "returns": {},
  "timestamp": 1770544986387,
  "chain": 369,
  "commit": null
}