{
  "transactions": [
    {
      "hash": "0xace80399aa8efaea6bbce7b7a0c22393901c928bdb00f4680b47fdf75a422449",
      "transactionType": "CALL",
      "contractName": null,
      "contractAddress": "0xdc45e5469a8b6d020473f69fec91c0f0e83a3308",
      "function": "trainSkill(uint8)",
      "arguments": [
        "0"
      ],
      "transaction": {
        "from": "0xec646a6c9000e04d050435340d9c42c039eb5648",
        "to": "0xdc45e5469a8b6d020473f69fec91c0f0e83a3308",
        "gas": "0x38605",
        "value": "0x0",
        "input": "0xa0a73d0d0000000000000000000000000000000000000000000000000000000000000000",
        "nonce": "0x31",
        "chainId": "0x171"
      },
      "additionalContracts": [],
      "isFixedGasLimit": false
    }
  ],
  "receipts": [
    {
      "status": "0x1",
      "cumulativeGasUsed": "0xd6cef1",
      "logs": [
        {
          "address": "0xdc45e5469a8b6d020473f69fec91c0f0e83a3308",
          "topics": [
            "0xa2ecdf3a87e9ffdb151ad823ae834f6165f94e54e5a30467175e075254eb6376"
          ],
          "data": "0x000000000000000000000000ec646a6c9000e04d050435340d9c42c039eb56480000000000000000000000000000000000000000000000000000000000000000000000000000000000000000000000000000000000000000000000000000000000000000000000000000000000000000000000000000000000000000000000000000000000000000000000000000000000000000000000000000000000000000000000000000000000000000000000000000000000000000000000006987d999000000000000000000000000000000000000000000000000000000006987cf0d",
          "blockHash": "0xf19d6f2b099230cce6eafadc0f0a1e02b660ae14a12c6600b1e8f25abbaaed36",
          "blockNumber": "0x188a5b0",
          "transactionHash": "0xace80399aa8efaea6bbce7b7a0c22393901c928bdb00f4680b47fdf75a422449",
          "transactionIndex": "0x31",
          "logIndex": "0x12c",
          "removed": false
        },
        {
          "address": "0xdc45e5469a8b6d020473f69fec91c0f0e83a3308",
          "topics": [
            "0xe044087a71e55f84948ec1c9a326d935d50b09a1b97fa24ac3721c9437525359"
          ],
          "data": "0x000000000000000000000000ec646a6c9000e04d050435340d9c42c039eb56480000000000000000000000000000000000000000000000000000000000000bc40000000000000000000000000000000000000000000000000000000000000190",
          "blockHash": "0xf19d6f2b099230cce6eafadc0f0a1e02b660ae14a12c6600b1e8f25abbaaed36",
          "blockNumber": "0x188a5b0",
          "transactionHash": "0xace80399aa8efaea6bbce7b7a0c22393901c928bdb00f4680b47fdf75a422449",
          "transactionIndex": "0x31",
          "logIndex": "0x12d",
          "removed": false
        }
      ],
      "logsBloom": "0x00000000000000000000000000000000000000000001000000000000000000000000000000100000000000000000000000000000000000000000000000000000000000000000000000000000000000000000000000002000000000000000000000000000000000002000000004000000000000000000000000000000000000000000000000000000000000000000000000000000000400000000000000000000000000000000000000000000000000000000002000000000000000000000000000000000000000000000000000000000000000000000000000000000000000000000000000000000000000000000400000000000000000000000000100000000",
      "type": "0x2",
      "transactionHash": "0xace80399aa8efaea6bbce7b7a0c22393901c928bdb00f4680b47fdf75a422449",
      "transactionIndex": "0x31",
      "blockHash": "0xf19d6f2b099230cce6eafadc0f0a1e02b660ae14a12c6600b1e8f25abbaaed36",
      "blockNumber": "0x188a5b0",
      "gasUsed": "0x28d0d",
      "effectiveGasPrice": "0x35e9b6870a7a9",
      "from": "0xec646a6c9000e04d050435340d9c42c039eb5648",
      "to": "0xdc45e5469a8b6d020473f69fec91c0f0e83a3308",
      "contractAddress": null
    }
  ],
  "libraries": [],
  "pending": [],
  "returns": {},
  "timestamp": 1770508047413,
  "chain": 369,
  "commit": null
}