{
  "transactions": [
    {
      "hash": "0xdfb431676e914c038e1d98a71ceb3526d34b52c51a0cf43b93f3b9e9bd7e72ed",
      "transactionType": "CALL",
      "contractName": null,
      "contractAddress": "0xdc45e5469a8b6d020473f69fec91c0f0e83a3308",
      "function": "trainSkill(uint8)",
      "arguments": [
        "0"
      ],
      "transaction": {
        "from": "0x4c62f6121e6f967a0872da8364995e9b68c1e82f",
        "to": "0xdc45e5469a8b6d020473f69fec91c0f0e83a3308",
        "gas": "0x38605",
        "value": "0x0",
        "input": "0xa0a73d0d0000000000000000000000000000000000000000000000000000000000000000",
        "nonce": "0x977",
        "chainId": "0x171"
      },
      "additionalContracts": [],
      "isFixedGasLimit": false
    }
  ],
  "receipts": [
    {
      "status": "0x1",
      "cumulativeGasUsed": "0x166d055",
      "logs": [
        {
          "address": "0xdc45e5469a8b6d020473f69fec91c0f0e83a3308",
          "topics": [
            "0x5e5a0b90fdb27738829c217bcfc3821977755208ca0818475f4fe9af193a8a38"
          ],
          "data": "0x0000000000000000000000004c62f6121e6f967a0872da8364995e9b68c1e82f00000000000000000000000000000000000000000000000000000000000000c8",
          "blockHash": "0x5c6c877c798232a22e292ef426d3bd2a5ede16f06dbcb41b0b2d224c6ed62972",
          "blockNumber": "0x188aa88",
          "transactionHash": "0xdfb431676e914c038e1d98a71ceb3526d34b52c51a0cf43b93f3b9e9bd7e72ed",
          "transactionIndex": "0x34",
          "logIndex": "0x2df",
          "removed": false
        },
        {
          "address": "0xdc45e5469a8b6d020473f69fec91c0f0e83a3308",
          "topics": [
            "0xa2ecdf3a87e9ffdb151ad823ae834f6165f94e54e5a30467175e075254eb6376"
          ],
          "data": "0x0000000000000000000000004c62f6121e6f967a0872da8364995e9b68c1e82f00000000000000000000000000000000000000000000000000000000000000000000000000000000000000000000000000000000000000000000000000000001000000000000000000000000000000000000000000000000000000000000000000000000000000000000000000000000000000000000000000000000000000320000000000000000000000000000000000000000000000000000000069880b2b000000000000000000000000000000000000000000000000000000006988009f",
          "blockHash": "0x5c6c877c798232a22e292ef426d3bd2a5ede16f06dbcb41b0b2d224c6ed62972",
          "blockNumber": "0x188aa88",
          "transactionHash": "0xdfb431676e914c038e1d98a71ceb3526d34b52c51a0cf43b93f3b9e9bd7e72ed",
          "transactionIndex": "0x34",
          "logIndex": "0x2e0",
          "removed": false
        },
        {
          "address": "0xdc45e5469a8b6d020473f69fec91c0f0e83a3308",
          "topics": [
            "0xe044087a71e55f84948ec1c9a326d935d50b09a1b97fa24ac3721c9437525359"
          ],
          "data": "0x0000000000000000000000004c62f6121e6f967a0872da8364995e9b68c1e82f00000000000000000000000000000000000000000000000000000000000000a40000000000000000000000000000000000000000000000000000000000000190",
          "blockHash": "0x5c6c877c798232a22e292ef426d3bd2a5ede16f06dbcb41b0b2d224c6ed62972",
          "blockNumber": "0x188aa88",
          "transactionHash": "0xdfb431676e914c038e1d98a71ceb3526d34b52c51a0cf43b93f3b9e9bd7e72ed",
          "transactionIndex": "0x34",
          "logIndex": "0x2e1",
          "removed": false
        }
      ],
      "logsBloom": "0x00000000000000000000000000400000000000000001000000000000000000000000000000100000000000000000000000000000000000000000000000000000000000000000000000000000000000000000000000002000000000000000000000000000000000002000010004000000000000000000000000000000000000000000000000000000000000000000000000000000000400000000000000000000000000000000000002000000000000000000002000000000000000000000000000000000000000000000000000000000000000000000000000000000000000000000000000000000000000000000400000000000000000000000000100000000",
      "type": "0x2",
      "transactionHash": "0xdfb431676e914c038e1d98a71ceb3526d34b52c51a0cf43b93f3b9e9bd7e72ed",
      "transactionIndex": "0x34",
      "blockHash": "0x5c6c877c798232a22e292ef426d3bd2a5ede16f06dbcb41b0b2d224c6ed62972",
      "blockNumber": "0x188aa88",
      "gasUsed": "0x2a951",
      "effectiveGasPrice": "0x2bd4aff3f73bf",
      "from": "0x4c62f6121e6f967a0872da8364995e9b68c1e82f",
      "to": "0xdc45e5469a8b6d020473f69fec91c0f0e83a3308",
      "contractAddress": null
    }
  ],
  "libraries": [],
  "pending": [],
  "returns": {},
  "timestamp": 1770520735792,
  "chain": 369,
  "commit": null
}