{
  "transactions": [
    {
      "hash": "0xfd8cc470fd3583d9d15d309a6063e0c16a172e0b4a6266298fa59bdcfb446cac",
      "transactionType": "CALL",
      "contractName": null,
      "contractAddress": "0xa5dc2cb4dc13f12d8464eaa862fac00f19adc84d",
      "function": "trainSkill(uint8)",
      "arguments": [
        "0"
      ],
      "transaction": {
        "from": "0xac56dc5a4a9de0197f7b8f584ea04ec7e0123dde",
        "to": "0xa5dc2cb4dc13f12d8464eaa862fac00f19adc84d",
        "gas": "0x39e08",
        "value": "0x0",
        "input": "0xa0a73d0d0000000000000000000000000000000000000000000000000000000000000000",
        "nonce": "0x22",
        "chainId": "0x38"
      },
      "additionalContracts": [],
      "isFixedGasLimit": false
    }
  ],
  "receipts": [
    {
      "status": "0x1",
      "cumulativeGasUsed": "0x85721b",
      "logs": [
        {
          "address": "0xa5dc2cb4dc13f12d8464eaa862fac00f19adc84d",
          "topics": [
            "0x5e5a0b90fdb27738829c217bcfc3821977755208ca0818475f4fe9af193a8a38"
          ],
          "data": "0x000000000000000000000000ac56dc5a4a9de0197f7b8f584ea04ec7e0123dde0000000000000000000000000000000000000000000000000000000000000032",
          "blockHash": "0x7610e194600e52a331e65ce210b972e985ce10a671ceb8a1feaddb64eb732766",
          "blockNumber": "0x4a4da03",
          "blockTimestamp": "0x697a0b7b",
          "transactionHash": "0xfd8cc470fd3583d9d15d309a6063e0c16a172e0b4a6266298fa59bdcfb446cac",
          "transactionIndex": "0x3a",
          "logIndex": "0x107",
          "removed": false
        },
        {
          "address": "0xaae5ef15499c71301123ee4b13d20d570d24ad5e",
          "topics": [
            "0x6dd0730fb835f9bbe38532c3d82c7c87448bfdec295f1d7cd2d72ff339632a52"
          ],
          "data": "0x00000000000000000000000000000000000000000000000000000000000000c00000000000000000000000000000000000000000000000000000000000000100000000000000000000000000ac56dc5a4a9de0197f7b8f584ea04ec7e0123dde000000000000000000000000000000000000000000000000000000000000000100000000000000000000000000000000000000000000000000000000697a0b7b000000000000000000000000000000000000000000000000000000000000014000000000000000000000000000000000000000000000000000000000000000094b696c6c536b696c6c00000000000000000000000000000000000000000000000000000000000000000000000000000000000000000000000000000000000005547261696e0000000000000000000000000000000000000000000000000000000000000000000000000000000000000000000000000000000000000000000000",
          "blockHash": "0x7610e194600e52a331e65ce210b972e985ce10a671ceb8a1feaddb64eb732766",
          "blockNumber": "0x4a4da03",
          "blockTimestamp": "0x697a0b7b",
          "transactionHash": "0xfd8cc470fd3583d9d15d309a6063e0c16a172e0b4a6266298fa59bdcfb446cac",
          "transactionIndex": "0x3a",
          "logIndex": "0x108",
          "removed": false
        },
        {
          "address": "0xa5dc2cb4dc13f12d8464eaa862fac00f19adc84d",
          "topics": [
            "0xa2ecdf3a87e9ffdb151ad823ae834f6165f94e54e5a30467175e075254eb6376"
          ],
          "data": "0x000000000000000000000000ac56dc5a4a9de0197f7b8f584ea04ec7e0123dde000000000000000000000000000000000000000000000000000000000000000000000000000000000000000000000000000000000000000000000000000000010000000000000000000000000000000000000000000000000000000000000000000000000000000000000000000000000000000000000000000000000000003200000000000000000000000000000000000000000000000000000000697a160700000000000000000000000000000000000000000000000000000000697a0b7b",
          "blockHash": "0x7610e194600e52a331e65ce210b972e985ce10a671ceb8a1feaddb64eb732766",
          "blockNumber": "0x4a4da03",
          "blockTimestamp": "0x697a0b7b",
          "transactionHash": "0xfd8cc470fd3583d9d15d309a6063e0c16a172e0b4a6266298fa59bdcfb446cac",
          "transactionIndex": "0x3a",
          "logIndex": "0x109",
          "removed": false
        },
        {
          "address": "0xa5dc2cb4dc13f12d8464eaa862fac00f19adc84d",
          "topics": [
            "0x2f3c6b138bbc22991cb748093f24117969e5e880b28f9343c903b9473032267b"
          ],
          "data": "0x000000000000000000000000ac56dc5a4a9de0197f7b8f584ea04ec7e0123dde000000000000000000000000000000001bb4293ab371db8d1602ff680f8eec2e00000000000000000000000000000000000000000000000000000000000000fb0000000000000000000000000000000000000000000000000000000000000190",
          "blockHash": "0x7610e194600e52a331e65ce210b972e985ce10a671ceb8a1feaddb64eb732766",
          "blockNumber": "0x4a4da03",
          "blockTimestamp": "0x697a0b7b",
          "transactionHash": "0xfd8cc470fd3583d9d15d309a6063e0c16a172e0b4a6266298fa59bdcfb446cac",
          "transactionIndex": "0x3a",
          "logIndex": "0x10a",
          "removed": false
        }
      ],
      "logsBloom": "0x00000000000000000000010000400000001040040000000004000000000000000001000200000000000000000000000000000000000000000000000000000000000000000000000000000000000000000000000000000000000000000000000000000000000000000000010004000000000000000000000000000000000000000000000000000000000000000000080000000000000000000008000000000000000000000000000002000000000000000000002000000000000000000000000000000000000000000000000000000000000000000000000000000000000000800000000000000000000040000000402000000000000000000000000000000000",
      "type": "0x2",
      "transactionHash": "0xfd8cc470fd3583d9d15d309a6063e0c16a172e0b4a6266298fa59bdcfb446cac",
      "transactionIndex": "0x3a",
      "blockHash": "0x7610e194600e52a331e65ce210b972e985ce10a671ceb8a1feaddb64eb732766",
      "blockNumber": "0x4a4da03",
      "gasUsed": "0x34cc8",
      "effectiveGasPrice": "0x2faf080",
      "from": "0xac56dc5a4a9de0197f7b8f584ea04ec7e0123dde",
      "to": "0xa5dc2cb4dc13f12d8464eaa862fac00f19adc84d",
      "contractAddress": null
    }
  ],
  "libraries": [],
  "pending": [],
  "returns": {},
  "timestamp": 1769606012966,
  "chain": 56,
  "commit": null
}