{
  "transactions": [
    {
      "hash": "0x1b5fe5af47ce0be4525416300b68452862c66e0ac88bfbd7e7af9ce4625a04e2",
      "transactionType": "CALL",
      "contractName": null,
      "contractAddress": "0xa5dc2cb4dc13f12d8464eaa862fac00f19adc84d",
      "function": "trainSkill(uint8)",
      "arguments": [
        "0"
      ],
      "transaction": {
        "from": "0xaa73aa98480757d75aae288b5931261448eb0530",
        "to": "0xa5dc2cb4dc13f12d8464eaa862fac00f19adc84d",
        "gas": "0x3aa54",
        "value": "0x0",
        "input": "0xa0a73d0d0000000000000000000000000000000000000000000000000000000000000000",
        "nonce": "0x192",
        "chainId": "0x38"
      },
      "additionalContracts": [],
      "isFixedGasLimit": false
    }
  ],
  "receipts": [
    {
      "status": "0x1",
      "cumulativeGasUsed": "0x61520f",
      "logs": [
        {
          "address": "0xaae5ef15499c71301123ee4b13d20d570d24ad5e",
          "topics": [
            "0x6dd0730fb835f9bbe38532c3d82c7c87448bfdec295f1d7cd2d72ff339632a52"
          ],
          "data": "0x00000000000000000000000000000000000000000000000000000000000000c00000000000000000000000000000000000000000000000000000000000000100000000000000000000000000aa73aa98480757d75aae288b5931261448eb05300000000000000000000000000000000000000000000000000000000000000000000000000000000000000000000000000000000000000000000000006988366e000000000000000000000000000000000000000000000000000000000000014000000000000000000000000000000000000000000000000000000000000000094b696c6c536b696c6c00000000000000000000000000000000000000000000000000000000000000000000000000000000000000000000000000000000000005547261696e0000000000000000000000000000000000000000000000000000000000000000000000000000000000000000000000000000000000000000000000",
          "blockHash": "0xde35079434d642f1227d820918f9b41285ea7dd807383992559212247d3b9942",
          "blockNumber": "0x4c453c9",
          "blockTimestamp": "0x6988366e",
          "transactionHash": "0x1b5fe5af47ce0be4525416300b68452862c66e0ac88bfbd7e7af9ce4625a04e2",
          "transactionIndex": "0x27",
          "logIndex": "0xcc",
          "removed": false
        },
        {
          "address": "0xa5dc2cb4dc13f12d8464eaa862fac00f19adc84d",
          "topics": [
            "0xa2ecdf3a87e9ffdb151ad823ae834f6165f94e54e5a30467175e075254eb6376"
          ],
          "data": "0x000000000000000000000000aa73aa98480757d75aae288b5931261448eb0530000000000000000000000000000000000000000000000000000000000000000000000000000000000000000000000000000000000000000000000000000000000000000000000000000000000000000000000000000000000000000000000000000000000000000000000000000000000000000000000000000000000000000000000000000000000000000000000000000000000000000000000000698840fa000000000000000000000000000000000000000000000000000000006988366e",
          "blockHash": "0xde35079434d642f1227d820918f9b41285ea7dd807383992559212247d3b9942",
          "blockNumber": "0x4c453c9",
          "blockTimestamp": "0x6988366e",
          "transactionHash": "0x1b5fe5af47ce0be4525416300b68452862c66e0ac88bfbd7e7af9ce4625a04e2",
          "transactionIndex": "0x27",
          "logIndex": "0xcd",
          "removed": false
        },
        {
          "address": "0xa5dc2cb4dc13f12d8464eaa862fac00f19adc84d",
          "topics": [
            "0x2f3c6b138bbc22991cb748093f24117969e5e880b28f9343c903b9473032267b"
          ],
          "data": "0x000000000000000000000000aa73aa98480757d75aae288b5931261448eb05300000000000000000000000000000000002ccd8a24c7578f30b0f4faf4b1f591100000000000000000000000000000000000000000000000000000000000011290000000000000000000000000000000000000000000000000000000000000190",
          "blockHash": "0xde35079434d642f1227d820918f9b41285ea7dd807383992559212247d3b9942",
          "blockNumber": "0x4c453c9",
          "blockTimestamp": "0x6988366e",
          "transactionHash": "0x1b5fe5af47ce0be4525416300b68452862c66e0ac88bfbd7e7af9ce4625a04e2",
          "transactionIndex": "0x27",
          "logIndex": "0xce",
          "removed": false
        }
      ],
      "logsBloom": "0x00000000000000000000010000000000001040040000000004000000000000000001000200000000000000000000000000000000000000000000000000000000000000000000000000000000000000000000000000000000000000000000000000000000000000000000000004000000000000000000000000000000000000000000000000000000000000000000080000000000000000000008000000000000000000000000000000000000000000000000002000000000000000000000000000000000000000000000000000000000000000000000000000000000000000800000000000000000000040000000402000000000000000000000000000000000",
      "type": "0x2",
      "transactionHash": "0x1b5fe5af47ce0be4525416300b68452862c66e0ac88bfbd7e7af9ce4625a04e2",
      "transactionIndex": "0x27",
      "blockHash": "0xde35079434d642f1227d820918f9b41285ea7dd807383992559212247d3b9942",
      "blockNumber": "0x4c453c9",
      "gasUsed": "0x2a756",
      "effectiveGasPrice": "0x2faf080",
      "from": "0xaa73aa98480757d75aae288b5931261448eb0530",
      "to": "0xa5dc2cb4dc13f12d8464eaa862fac00f19adc84d",
      "contractAddress": null
    }
  ],
  "libraries": [],
  "pending": [],
  "returns": {},
  "timestamp": 1770534511570,
  "chain": 56,
  "commit": null
}