{
  "transactions": [
    {
      "hash": "0xd12c2e04b034baa65c43836b1b2315e30a77c3cb51df9efbd4a90025908be159",
      "transactionType": "CALL",
      "contractName": null,
      "contractAddress": "0xa5dc2cb4dc13f12d8464eaa862fac00f19adc84d",
      "function": "trainSkill(uint8)",
      "arguments": [
        "0"
      ],
      "transaction": {
        "from": "0xac56dc5a4a9de0197f7b8f584ea04ec7e0123dde",
        "to": "0xa5dc2cb4dc13f12d8464eaa862fac00f19adc84d",
        "gas": "0x3e12f",
        "value": "0x0",
        "input": "0xa0a73d0d0000000000000000000000000000000000000000000000000000000000000000",
        "nonce": "0x133",
        "chainId": "0x38"
      },
      "additionalContracts": [],
      "isFixedGasLimit": false
    }
  ],
  "receipts": [
    {
      "status": "0x1",
      "cumulativeGasUsed": "0xb3adb0",
      "logs": [
        {
          "address": "0xaae5ef15499c71301123ee4b13d20d570d24ad5e",
          "topics": [
            "0x6dd0730fb835f9bbe38532c3d82c7c87448bfdec295f1d7cd2d72ff339632a52"
          ],
          "data": "0x00000000000000000000000000000000000000000000000000000000000000c00000000000000000000000000000000000000000000000000000000000000100000000000000000000000000ac56dc5a4a9de0197f7b8f584ea04ec7e0123dde0000000000000000000000000000000000000000000000000000000000000000000000000000000000000000000000000000000000000000000000006988668c000000000000000000000000000000000000000000000000000000000000014000000000000000000000000000000000000000000000000000000000000000094b696c6c536b696c6c00000000000000000000000000000000000000000000000000000000000000000000000000000000000000000000000000000000000005547261696e0000000000000000000000000000000000000000000000000000000000000000000000000000000000000000000000000000000000000000000000",
          "blockHash": "0x852b87196e3a9c671c33c222134002c8c417c6edf425718d23936436ef7fe132",
          "blockNumber": "0x4c4bead",
          "blockTimestamp": "0x6988668c",
          "transactionHash": "0xd12c2e04b034baa65c43836b1b2315e30a77c3cb51df9efbd4a90025908be159",
          "transactionIndex": "0x54",
          "logIndex": "0x17e",
          "removed": false
        },
        {
          "address": "0xa5dc2cb4dc13f12d8464eaa862fac00f19adc84d",
          "topics": [
            "0xa2ecdf3a87e9ffdb151ad823ae834f6165f94e54e5a30467175e075254eb6376"
          ],
          "data": "0x000000000000000000000000ac56dc5a4a9de0197f7b8f584ea04ec7e0123dde00000000000000000000000000000000000000000000000000000000000000000000000000000000000000000000000000000000000000000000000000000000000000000000000000000000000000000000000000000000000000000000000000000000000000000000000000000000000000000000000000000000000000000000000000000000000000000000000000000000000000000000000069887118000000000000000000000000000000000000000000000000000000006988668c",
          "blockHash": "0x852b87196e3a9c671c33c222134002c8c417c6edf425718d23936436ef7fe132",
          "blockNumber": "0x4c4bead",
          "blockTimestamp": "0x6988668c",
          "transactionHash": "0xd12c2e04b034baa65c43836b1b2315e30a77c3cb51df9efbd4a90025908be159",
          "transactionIndex": "0x54",
          "logIndex": "0x17f",
          "removed": false
        },
        {
          "address": "0xa5dc2cb4dc13f12d8464eaa862fac00f19adc84d",
          "topics": [
            "0x2f3c6b138bbc22991cb748093f24117969e5e880b28f9343c903b9473032267b"
          ],
          "data": "0x000000000000000000000000ac56dc5a4a9de0197f7b8f584ea04ec7e0123dde000000000000000000000000000000006900dddfacb2f995cf61bef9ab77f5b800000000000000000000000000000000000000000000000000000000000018590000000000000000000000000000000000000000000000000000000000000190",
          "blockHash": "0x852b87196e3a9c671c33c222134002c8c417c6edf425718d23936436ef7fe132",
          "blockNumber": "0x4c4bead",
          "blockTimestamp": "0x6988668c",
          "transactionHash": "0xd12c2e04b034baa65c43836b1b2315e30a77c3cb51df9efbd4a90025908be159",
          "transactionIndex": "0x54",
          "logIndex": "0x180",
          "removed": false
        }
      ],
      "logsBloom": "0x00000000000000000000010000000000001040040000000004000000000000000001000200000000000000000000000000000000000000000000000000000000000000000000000000000000000000000000000000000000000000000000000000000000000000000000000004000000000000000000000000000000000000000000000000000000000000000000080000000000000000000008000000000000000000000000000000000000000000000000002000000000000000000000000000000000000000000000000000000000000000000000000000000000000000800000000000000000000040000000402000000000000000000000000000000000",
      "type": "0x2",
      "transactionHash": "0xd12c2e04b034baa65c43836b1b2315e30a77c3cb51df9efbd4a90025908be159",
      "transactionIndex": "0x54",
      "blockHash": "0x852b87196e3a9c671c33c222134002c8c417c6edf425718d23936436ef7fe132",
      "blockNumber": "0x4c4bead",
      "gasUsed": "0x2a71a",
      "effectiveGasPrice": "0x2faf080",
      "from": "0xac56dc5a4a9de0197f7b8f584ea04ec7e0123dde",
      "to": "0xa5dc2cb4dc13f12d8464eaa862fac00f19adc84d",
      "contractAddress": null
    }
  ],
  "libraries": [],
  "pending": [],
  "returns": {},
  "timestamp": 1770546830281,
  "chain": 56,
  "commit": null
}