{
  "transactions": [
    {
      "hash": "0x132990529ae72223fa3346d6d71e37bd1b45a0e66883c00140f5efca2e00b728",
      "transactionType": "CALL",
      "contractName": null,
      "contractAddress": "0xa5dc2cb4dc13f12d8464eaa862fac00f19adc84d",
      "function": "trainSkill(uint8)",
      "arguments": [
        "0"
      ],
      "transaction": {
        "from": "0xeca7a53ba6a190c5d205bfdc7707cbc3399336c1",
        "to": "0xa5dc2cb4dc13f12d8464eaa862fac00f19adc84d",
        "gas": "0x3e12f",
        "value": "0x0",
        "input": "0xa0a73d0d0000000000000000000000000000000000000000000000000000000000000000",
        "nonce": "0x225",
        "chainId": "0x38"
      },
      "additionalContracts": [],
      "isFixedGasLimit": false
    }
  ],
  "receipts": [
    {
      "status": "0x1",
      "cumulativeGasUsed": "0xb4eac4",
      "logs": [
        {
          "address": "0xaae5ef15499c71301123ee4b13d20d570d24ad5e",
          "topics": [
            "0x6dd0730fb835f9bbe38532c3d82c7c87448bfdec295f1d7cd2d72ff339632a52"
          ],
          "data": "0x00000000000000000000000000000000000000000000000000000000000000c00000000000000000000000000000000000000000000000000000000000000100000000000000000000000000eca7a53ba6a190c5d205bfdc7707cbc3399336c1000000000000000000000000000000000000000000000000000000000000000000000000000000000000000000000000000000000000000000000000697aabf6000000000000000000000000000000000000000000000000000000000000014000000000000000000000000000000000000000000000000000000000000000094b696c6c536b696c6c00000000000000000000000000000000000000000000000000000000000000000000000000000000000000000000000000000000000005547261696e0000000000000000000000000000000000000000000000000000000000000000000000000000000000000000000000000000000000000000000000",
          "blockHash": "0xfe60eb2a80a29a081d48f508e7f85b2dfcfc2c75a9b05244ec96527dcc428a5d",
          "blockNumber": "0x4a63e93",
          "blockTimestamp": "0x697aabf6",
          "transactionHash": "0x132990529ae72223fa3346d6d71e37bd1b45a0e66883c00140f5efca2e00b728",
          "transactionIndex": "0x44",
          "logIndex": "0x155",
          "removed": false
        },
        {
          "address": "0xa5dc2cb4dc13f12d8464eaa862fac00f19adc84d",
          "topics": [
            "0xa2ecdf3a87e9ffdb151ad823ae834f6165f94e54e5a30467175e075254eb6376"
          ],
          "data": "0x000000000000000000000000eca7a53ba6a190c5d205bfdc7707cbc3399336c1000000000000000000000000000000000000000000000000000000000000000000000000000000000000000000000000000000000000000000000000000000000000000000000000000000000000000000000000000000000000000000000000000000000000000000000000000000000000000000000000000000000000000000000000000000000000000000000000000000000000000000000000697ab68200000000000000000000000000000000000000000000000000000000697aabf6",
          "blockHash": "0xfe60eb2a80a29a081d48f508e7f85b2dfcfc2c75a9b05244ec96527dcc428a5d",
          "blockNumber": "0x4a63e93",
          "blockTimestamp": "0x697aabf6",
          "transactionHash": "0x132990529ae72223fa3346d6d71e37bd1b45a0e66883c00140f5efca2e00b728",
          "transactionIndex": "0x44",
          "logIndex": "0x156",
          "removed": false
        },
        {
          "address": "0xa5dc2cb4dc13f12d8464eaa862fac00f19adc84d",
          "topics": [
            "0x2f3c6b138bbc22991cb748093f24117969e5e880b28f9343c903b9473032267b"
          ],
          "data": "0x000000000000000000000000eca7a53ba6a190c5d205bfdc7707cbc3399336c100000000000000000000000000000000e0c70fc78f3b40106f4d412e0edb04f900000000000000000000000000000000000000000000000000000000000021020000000000000000000000000000000000000000000000000000000000000190",
          "blockHash": "0xfe60eb2a80a29a081d48f508e7f85b2dfcfc2c75a9b05244ec96527dcc428a5d",
          "blockNumber": "0x4a63e93",
          "blockTimestamp": "0x697aabf6",
          "transactionHash": "0x132990529ae72223fa3346d6d71e37bd1b45a0e66883c00140f5efca2e00b728",
          "transactionIndex": "0x44",
          "logIndex": "0x157",
          "removed": false
        }
      ],
      "logsBloom": "0x00000000000000000000010000000000001040040000000004000000000000000001000200000000000000000000000000000000000000000000000000000000000000000000000000000000000000000000000000000000000000000000000000000000000000000000000004000000000000000000000000000000000000000000000000000000000000000000080000000000000000000008000000000000000000000000000000000000000000000000002000000000000000000000000000000000000000000000000000000000000000000000000000000000000000800000000000000000000040000000402000000000000000000000000000000000",
      "type": "0x2",
      "transactionHash": "0x132990529ae72223fa3346d6d71e37bd1b45a0e66883c00140f5efca2e00b728",
      "transactionIndex": "0x44",
      "blockHash": "0xfe60eb2a80a29a081d48f508e7f85b2dfcfc2c75a9b05244ec96527dcc428a5d",
      "blockNumber": "0x4a63e93",
      "gasUsed": "0x2a71a",
      "effectiveGasPrice": "0x2faf080",
      "from": "0xeca7a53ba6a190c5d205bfdc7707cbc3399336c1",
      "to": "0xa5dc2cb4dc13f12d8464eaa862fac00f19adc84d",
      "contractAddress": null
    }
  ],
  "libraries": [],
  "pending": [],
  "returns": {},
  "timestamp": 1769647096484,
  "chain": 56,
  "commit": null
}