{
  "transactions": [
    {
      "hash": "0x885faf7789d73795294c4169ac526ea9df75469b20651c96c2d22b4258932d12",
      "transactionType": "CALL",
      "contractName": null,
      "contractAddress": "0xa5dc2cb4dc13f12d8464eaa862fac00f19adc84d",
      "function": "trainSkill(uint8)",
      "arguments": [
        "0"
      ],
      "transaction": {
        "from": "0xac56dc5a4a9de0197f7b8f584ea04ec7e0123dde",
        "to": "0xa5dc2cb4dc13f12d8464eaa862fac00f19adc84d",
        "gas": "0x3d42a",
        "value": "0x0",
        "input": "0xa0a73d0d0000000000000000000000000000000000000000000000000000000000000000",
        "nonce": "0x37",
        "chainId": "0x38"
      },
      "additionalContracts": [],
      "isFixedGasLimit": false
    }
  ],
  "receipts": [
    {
      "status": "0x1",
      "cumulativeGasUsed": "0x8cf82c",
      "logs": [
        {
          "address": "0xaae5ef15499c71301123ee4b13d20d570d24ad5e",
          "topics": [
            "0x6dd0730fb835f9bbe38532c3d82c7c87448bfdec295f1d7cd2d72ff339632a52"
          ],
          "data": "0x00000000000000000000000000000000000000000000000000000000000000c00000000000000000000000000000000000000000000000000000000000000100000000000000000000000000ac56dc5a4a9de0197f7b8f584ea04ec7e0123dde000000000000000000000000000000000000000000000000000000000000000000000000000000000000000000000000000000000000000000000000697a80aa000000000000000000000000000000000000000000000000000000000000014000000000000000000000000000000000000000000000000000000000000000094b696c6c536b696c6c00000000000000000000000000000000000000000000000000000000000000000000000000000000000000000000000000000000000005547261696e0000000000000000000000000000000000000000000000000000000000000000000000000000000000000000000000000000000000000000000000",
          "blockHash": "0x65be18677ea388189d680a579ee2b64c3341a4d33d2b3f716c76ec7bafa7a29a",
          "blockNumber": "0x4a5de5e",
          "blockTimestamp": "0x697a80aa",
          "transactionHash": "0x885faf7789d73795294c4169ac526ea9df75469b20651c96c2d22b4258932d12",
          "transactionIndex": "0x25",
          "logIndex": "0x141",
          "removed": false
        },
        {
          "address": "0xa5dc2cb4dc13f12d8464eaa862fac00f19adc84d",
          "topics": [
            "0xa2ecdf3a87e9ffdb151ad823ae834f6165f94e54e5a30467175e075254eb6376"
          ],
          "data": "0x000000000000000000000000ac56dc5a4a9de0197f7b8f584ea04ec7e0123dde000000000000000000000000000000000000000000000000000000000000000000000000000000000000000000000000000000000000000000000000000000000000000000000000000000000000000000000000000000000000000000000000000000000000000000000000000000000000000000000000000000000000000000000000000000000000000000000000000000000000000000000000697a8b3600000000000000000000000000000000000000000000000000000000697a80aa",
          "blockHash": "0x65be18677ea388189d680a579ee2b64c3341a4d33d2b3f716c76ec7bafa7a29a",
          "blockNumber": "0x4a5de5e",
          "blockTimestamp": "0x697a80aa",
          "transactionHash": "0x885faf7789d73795294c4169ac526ea9df75469b20651c96c2d22b4258932d12",
          "transactionIndex": "0x25",
          "logIndex": "0x142",
          "removed": false
        },
        {
          "address": "0xa5dc2cb4dc13f12d8464eaa862fac00f19adc84d",
          "topics": [
            "0x2f3c6b138bbc22991cb748093f24117969e5e880b28f9343c903b9473032267b"
          ],
          "data": "0x000000000000000000000000ac56dc5a4a9de0197f7b8f584ea04ec7e0123dde0000000000000000000000000000000045acfdbcef0c1ac216cb8d0870c93c3b00000000000000000000000000000000000000000000000000000000000012260000000000000000000000000000000000000000000000000000000000000190",
          "blockHash": "0x65be18677ea388189d680a579ee2b64c3341a4d33d2b3f716c76ec7bafa7a29a",
          "blockNumber": "0x4a5de5e",
          "blockTimestamp": "0x697a80aa",
          "transactionHash": "0x885faf7789d73795294c4169ac526ea9df75469b20651c96c2d22b4258932d12",
          "transactionIndex": "0x25",
          "logIndex": "0x143",
          "removed": false
        }
      ],
      "logsBloom": "0x00000000000000000000010000000000001040040000000004000000000000000001000200000000000000000000000000000000000000000000000000000000000000000000000000000000000000000000000000000000000000000000000000000000000000000000000004000000000000000000000000000000000000000000000000000000000000000000080000000000000000000008000000000000000000000000000000000000000000000000002000000000000000000000000000000000000000000000000000000000000000000000000000000000000000800000000000000000000040000000402000000000000000000000000000000000",
      "type": "0x2",
      "transactionHash": "0x885faf7789d73795294c4169ac526ea9df75469b20651c96c2d22b4258932d12",
      "transactionIndex": "0x25",
      "blockHash": "0x65be18677ea388189d680a579ee2b64c3341a4d33d2b3f716c76ec7bafa7a29a",
      "blockNumber": "0x4a5de5e",
      "gasUsed": "0x29e33",
      "effectiveGasPrice": "0x2faf080",
      "from": "0xac56dc5a4a9de0197f7b8f584ea04ec7e0123dde",
      "to": "0xa5dc2cb4dc13f12d8464eaa862fac00f19adc84d",
      "contractAddress": null
    }
  ],
  "libraries": [],
  "pending": [],
  "returns": {},
  "timestamp": 1769636011687,
  "chain": 56,
  "commit": null
}