{
  "transactions": [
    {
      "hash": "0xe89484cb54f7ec768458c680c0c7cfebd54e08c0bc5b8bf509093588aa799332",
      "transactionType": "CALL",
      "contractName": null,
      "contractAddress": "0xa5dc2cb4dc13f12d8464eaa862fac00f19adc84d",
      "function": "trainSkill(uint8)",
      "arguments": [
        "0"
      ],
      "transaction": {
        "from": "0x4c62f6121e6f967a0872da8364995e9b68c1e82f",
        "to": "0xa5dc2cb4dc13f12d8464eaa862fac00f19adc84d",
        "gas": "0x39e08",
        "value": "0x0",
        "input": "0xa0a73d0d0000000000000000000000000000000000000000000000000000000000000000",
        "nonce": "0xa0",
        "chainId": "0x38"
      },
      "additionalContracts": [],
      "isFixedGasLimit": false
    }
  ],
  "receipts": [
    {
      "status": "0x1",
      "cumulativeGasUsed": "0xe56c08",
      "logs": [
        {
          "address": "0xaae5ef15499c71301123ee4b13d20d570d24ad5e",
          "topics": [
            "0x6dd0730fb835f9bbe38532c3d82c7c87448bfdec295f1d7cd2d72ff339632a52"
          ],
          "data": "0x00000000000000000000000000000000000000000000000000000000000000c000000000000000000000000000000000000000000000000000000000000001000000000000000000000000004c62f6121e6f967a0872da8364995e9b68c1e82f000000000000000000000000000000000000000000000000000000000000000000000000000000000000000000000000000000000000000000000000697a2bc0000000000000000000000000000000000000000000000000000000000000014000000000000000000000000000000000000000000000000000000000000000094b696c6c536b696c6c00000000000000000000000000000000000000000000000000000000000000000000000000000000000000000000000000000000000005547261696e0000000000000000000000000000000000000000000000000000000000000000000000000000000000000000000000000000000000000000000000",
          "blockHash": "0x9290b920ef524f9b73902063037be1cad5672bb4db066b456d0866847a492c12",
          "blockNumber": "0x4a521b6",
          "blockTimestamp": "0x697a2bc0",
          "transactionHash": "0xe89484cb54f7ec768458c680c0c7cfebd54e08c0bc5b8bf509093588aa799332",
          "transactionIndex": "0x4f",
          "logIndex": "0x20a",
          "removed": false
        },
        {
          "address": "0xa5dc2cb4dc13f12d8464eaa862fac00f19adc84d",
          "topics": [
            "0xa2ecdf3a87e9ffdb151ad823ae834f6165f94e54e5a30467175e075254eb6376"
          ],
          "data": "0x0000000000000000000000004c62f6121e6f967a0872da8364995e9b68c1e82f000000000000000000000000000000000000000000000000000000000000000000000000000000000000000000000000000000000000000000000000000000000000000000000000000000000000000000000000000000000000000000000000000000000000000000000000000000000000000000000000000000000000000000000000000000000000000000000000000000000000000000000000697a364c00000000000000000000000000000000000000000000000000000000697a2bc0",
          "blockHash": "0x9290b920ef524f9b73902063037be1cad5672bb4db066b456d0866847a492c12",
          "blockNumber": "0x4a521b6",
          "blockTimestamp": "0x697a2bc0",
          "transactionHash": "0xe89484cb54f7ec768458c680c0c7cfebd54e08c0bc5b8bf509093588aa799332",
          "transactionIndex": "0x4f",
          "logIndex": "0x20b",
          "removed": false
        },
        {
          "address": "0xa5dc2cb4dc13f12d8464eaa862fac00f19adc84d",
          "topics": [
            "0x2f3c6b138bbc22991cb748093f24117969e5e880b28f9343c903b9473032267b"
          ],
          "data": "0x0000000000000000000000004c62f6121e6f967a0872da8364995e9b68c1e82f000000000000000000000000000000007616f58b79a30a9ca68434208d2f176a00000000000000000000000000000000000000000000000000000000000013b10000000000000000000000000000000000000000000000000000000000000190",
          "blockHash": "0x9290b920ef524f9b73902063037be1cad5672bb4db066b456d0866847a492c12",
          "blockNumber": "0x4a521b6",
          "blockTimestamp": "0x697a2bc0",
          "transactionHash": "0xe89484cb54f7ec768458c680c0c7cfebd54e08c0bc5b8bf509093588aa799332",
          "transactionIndex": "0x4f",
          "logIndex": "0x20c",
          "removed": false
        }
      ],
      "logsBloom": "0x00000000000000000000010000000000001040040000000004000000000000000001000200000000000000000000000000000000000000000000000000000000000000000000000000000000000000000000000000000000000000000000000000000000000000000000000004000000000000000000000000000000000000000000000000000000000000000000080000000000000000000008000000000000000000000000000000000000000000000000002000000000000000000000000000000000000000000000000000000000000000000000000000000000000000800000000000000000000040000000402000000000000000000000000000000000",
      "type": "0x2",
      "transactionHash": "0xe89484cb54f7ec768458c680c0c7cfebd54e08c0bc5b8bf509093588aa799332",
      "transactionIndex": "0x4f",
      "blockHash": "0x9290b920ef524f9b73902063037be1cad5672bb4db066b456d0866847a492c12",
      "blockNumber": "0x4a521b6",
      "gasUsed": "0x29e6f",
      "effectiveGasPrice": "0x2faf080",
      "from": "0x4c62f6121e6f967a0872da8364995e9b68c1e82f",
      "to": "0xa5dc2cb4dc13f12d8464eaa862fac00f19adc84d",
      "contractAddress": null
    }
  ],
  "libraries": [],
  "pending": [],
  "returns": {},
  "timestamp": 1769614274018,
  "chain": 56,
  "commit": null
}