{
  "transactions": [
    {
      "hash": "0x83ae885ebc6d885d058115fc6fb2ea8aaef7f94fac3d2ecbfb284d4fc7e0d929",
      "transactionType": "CALL",
      "contractName": null,
      "contractAddress": "0xa5dc2cb4dc13f12d8464eaa862fac00f19adc84d",
      "function": "trainSkill(uint8)",
      "arguments": [
        "0"
      ],
      "transaction": {
        "from": "0xec646a6c9000e04d050435340d9c42c039eb5648",
        "to": "0xa5dc2cb4dc13f12d8464eaa862fac00f19adc84d",
        "gas": "0x3e12f",
        "value": "0x0",
        "input": "0xa0a73d0d0000000000000000000000000000000000000000000000000000000000000000",
        "nonce": "0x80",
        "chainId": "0x38"
      },
      "additionalContracts": [],
      "isFixedGasLimit": false
    }
  ],
  "receipts": [
    {
      "status": "0x1",
      "cumulativeGasUsed": "0x130d95f",
      "logs": [
        {
          "address": "0xaae5ef15499c71301123ee4b13d20d570d24ad5e",
          "topics": [
            "0x6dd0730fb835f9bbe38532c3d82c7c87448bfdec295f1d7cd2d72ff339632a52"
          ],
          "data": "0x00000000000000000000000000000000000000000000000000000000000000c00000000000000000000000000000000000000000000000000000000000000100000000000000000000000000ec646a6c9000e04d050435340d9c42c039eb56480000000000000000000000000000000000000000000000000000000000000000000000000000000000000000000000000000000000000000000000006985c81b000000000000000000000000000000000000000000000000000000000000014000000000000000000000000000000000000000000000000000000000000000094b696c6c536b696c6c00000000000000000000000000000000000000000000000000000000000000000000000000000000000000000000000000000000000005547261696e0000000000000000000000000000000000000000000000000000000000000000000000000000000000000000000000000000000000000000000000",
          "blockHash": "0x810b4b6e187eac546834286bff22840cac92befe188d88e97b3b5b3da80b1f29",
          "blockNumber": "0x4beed14",
          "blockTimestamp": "0x6985c81b",
          "transactionHash": "0x83ae885ebc6d885d058115fc6fb2ea8aaef7f94fac3d2ecbfb284d4fc7e0d929",
          "transactionIndex": "0x70",
          "logIndex": "0x1a8",
          "removed": false
        },
        {
          "address": "0xa5dc2cb4dc13f12d8464eaa862fac00f19adc84d",
          "topics": [
            "0xa2ecdf3a87e9ffdb151ad823ae834f6165f94e54e5a30467175e075254eb6376"
          ],
          "data": "0x000000000000000000000000ec646a6c9000e04d050435340d9c42c039eb56480000000000000000000000000000000000000000000000000000000000000000000000000000000000000000000000000000000000000000000000000000000000000000000000000000000000000000000000000000000000000000000000000000000000000000000000000000000000000000000000000000000000000000000000000000000000000000000000000000000000000000000000006985d2a7000000000000000000000000000000000000000000000000000000006985c81b",
          "blockHash": "0x810b4b6e187eac546834286bff22840cac92befe188d88e97b3b5b3da80b1f29",
          "blockNumber": "0x4beed14",
          "blockTimestamp": "0x6985c81b",
          "transactionHash": "0x83ae885ebc6d885d058115fc6fb2ea8aaef7f94fac3d2ecbfb284d4fc7e0d929",
          "transactionIndex": "0x70",
          "logIndex": "0x1a9",
          "removed": false
        },
        {
          "address": "0xa5dc2cb4dc13f12d8464eaa862fac00f19adc84d",
          "topics": [
            "0x2f3c6b138bbc22991cb748093f24117969e5e880b28f9343c903b9473032267b"
          ],
          "data": "0x000000000000000000000000ec646a6c9000e04d050435340d9c42c039eb5648000000000000000000000000000000000e19717eba3b47835527c2011c5dd10d000000000000000000000000000000000000000000000000000000000000238b0000000000000000000000000000000000000000000000000000000000000190",
          "blockHash": "0x810b4b6e187eac546834286bff22840cac92befe188d88e97b3b5b3da80b1f29",
          "blockNumber": "0x4beed14",
          "blockTimestamp": "0x6985c81b",
          "transactionHash": "0x83ae885ebc6d885d058115fc6fb2ea8aaef7f94fac3d2ecbfb284d4fc7e0d929",
          "transactionIndex": "0x70",
          "logIndex": "0x1aa",
          "removed": false
        }
      ],
      "logsBloom": "0x00000000000000000000010000000000001040040000000004000000000000000001000200000000000000000000000000000000000000000000000000000000000000000000000000000000000000000000000000000000000000000000000000000000000000000000000004000000000000000000000000000000000000000000000000000000000000000000080000000000000000000008000000000000000000000000000000000000000000000000002000000000000000000000000000000000000000000000000000000000000000000000000000000000000000800000000000000000000040000000402000000000000000000000000000000000",
      "type": "0x2",
      "transactionHash": "0x83ae885ebc6d885d058115fc6fb2ea8aaef7f94fac3d2ecbfb284d4fc7e0d929",
      "transactionIndex": "0x70",
      "blockHash": "0x810b4b6e187eac546834286bff22840cac92befe188d88e97b3b5b3da80b1f29",
      "blockNumber": "0x4beed14",
      "gasUsed": "0x2a71a",
      "effectiveGasPrice": "0x2faf080",
      "from": "0xec646a6c9000e04d050435340d9c42c039eb5648",
      "to": "0xa5dc2cb4dc13f12d8464eaa862fac00f19adc84d",
      "contractAddress": null
    }
  ],
  "libraries": [],
  "pending": [],
  "returns": {},
  "timestamp": 1770375197286,
  "chain": 56,
  "commit": null
}