{
  "transactions": [
    {
      "hash": "0x4326839e8e64e0a741477b94d338a4e1dbab00b684a076e5f8534f8fb2fd4d6f",
      "transactionType": "CALL",
      "contractName": null,
      "contractAddress": "0xa5dc2cb4dc13f12d8464eaa862fac00f19adc84d",
      "function": "trainSkill(uint8)",
      "arguments": [
        "0"
      ],
      "transaction": {
        "from": "0xeca7a53ba6a190c5d205bfdc7707cbc3399336c1",
        "to": "0xa5dc2cb4dc13f12d8464eaa862fac00f19adc84d",
        "gas": "0x39e08",
        "value": "0x0",
        "input": "0xa0a73d0d0000000000000000000000000000000000000000000000000000000000000000",
        "nonce": "0x205",
        "chainId": "0x38"
      },
      "additionalContracts": [],
      "isFixedGasLimit": false
    }
  ],
  "receipts": [
    {
      "status": "0x1",
      "cumulativeGasUsed": "0xb45610",
      "logs": [
        {
          "address": "0xaae5ef15499c71301123ee4b13d20d570d24ad5e",
          "topics": [
            "0x6dd0730fb835f9bbe38532c3d82c7c87448bfdec295f1d7cd2d72ff339632a52"
          ],
          "data": "0x00000000000000000000000000000000000000000000000000000000000000c00000000000000000000000000000000000000000000000000000000000000100000000000000000000000000eca7a53ba6a190c5d205bfdc7707cbc3399336c1000000000000000000000000000000000000000000000000000000000000000000000000000000000000000000000000000000000000000000000000697a0b52000000000000000000000000000000000000000000000000000000000000014000000000000000000000000000000000000000000000000000000000000000094b696c6c536b696c6c00000000000000000000000000000000000000000000000000000000000000000000000000000000000000000000000000000000000005547261696e0000000000000000000000000000000000000000000000000000000000000000000000000000000000000000000000000000000000000000000000",
          "blockHash": "0x99479b8a0e65b529edc19f6b67b217369c7ab4167358ee153e98c894fe1e9ef3",
          "blockNumber": "0x4a4d9a7",
          "blockTimestamp": "0x697a0b52",
          "transactionHash": "0x4326839e8e64e0a741477b94d338a4e1dbab00b684a076e5f8534f8fb2fd4d6f",
          "transactionIndex": "0x36",
          "logIndex": "0x17f",
          "removed": false
        },
        {
          "address": "0xa5dc2cb4dc13f12d8464eaa862fac00f19adc84d",
          "topics": [
            "0xa2ecdf3a87e9ffdb151ad823ae834f6165f94e54e5a30467175e075254eb6376"
          ],
          "data": "0x000000000000000000000000eca7a53ba6a190c5d205bfdc7707cbc3399336c1000000000000000000000000000000000000000000000000000000000000000000000000000000000000000000000000000000000000000000000000000000000000000000000000000000000000000000000000000000000000000000000000000000000000000000000000000000000000000000000000000000000000000000000000000000000000000000000000000000000000000000000000697a15de00000000000000000000000000000000000000000000000000000000697a0b52",
          "blockHash": "0x99479b8a0e65b529edc19f6b67b217369c7ab4167358ee153e98c894fe1e9ef3",
          "blockNumber": "0x4a4d9a7",
          "blockTimestamp": "0x697a0b52",
          "transactionHash": "0x4326839e8e64e0a741477b94d338a4e1dbab00b684a076e5f8534f8fb2fd4d6f",
          "transactionIndex": "0x36",
          "logIndex": "0x180",
          "removed": false
        },
        {
          "address": "0xa5dc2cb4dc13f12d8464eaa862fac00f19adc84d",
          "topics": [
            "0x2f3c6b138bbc22991cb748093f24117969e5e880b28f9343c903b9473032267b"
          ],
          "data": "0x000000000000000000000000eca7a53ba6a190c5d205bfdc7707cbc3399336c10000000000000000000000000000000088db155e0709e209204fe0e50ce6b6440000000000000000000000000000000000000000000000000000000000001c8f0000000000000000000000000000000000000000000000000000000000000190",
          "blockHash": "0x99479b8a0e65b529edc19f6b67b217369c7ab4167358ee153e98c894fe1e9ef3",
          "blockNumber": "0x4a4d9a7",
          "blockTimestamp": "0x697a0b52",
          "transactionHash": "0x4326839e8e64e0a741477b94d338a4e1dbab00b684a076e5f8534f8fb2fd4d6f",
          "transactionIndex": "0x36",
          "logIndex": "0x181",
          "removed": false
        }
      ],
      "logsBloom": "0x00000000000000000000010000000000001040040000000004000000000000000001000200000000000000000000000000000000000000000000000000000000000000000000000000000000000000000000000000000000000000000000000000000000000000000000000004000000000000000000000000000000000000000000000000000000000000000000080000000000000000000008000000000000000000000000000000000000000000000000002000000000000000000000000000000000000000000000000000000000000000000000000000000000000000800000000000000000000040000000402000000000000000000000000000000000",
      "type": "0x2",
      "transactionHash": "0x4326839e8e64e0a741477b94d338a4e1dbab00b684a076e5f8534f8fb2fd4d6f",
      "transactionIndex": "0x36",
      "blockHash": "0x99479b8a0e65b529edc19f6b67b217369c7ab4167358ee153e98c894fe1e9ef3",
      "blockNumber": "0x4a4d9a7",
      "gasUsed": "0x29e6f",
      "effectiveGasPrice": "0x2faf080",
      "from": "0xeca7a53ba6a190c5d205bfdc7707cbc3399336c1",
      "to": "0xa5dc2cb4dc13f12d8464eaa862fac00f19adc84d",
      "contractAddress": null
    }
  ],
  "libraries": [],
  "pending": [],
  "returns": {},
  "timestamp": 1769605971406,
  "chain": 56,
  "commit": null
}