{
  "transactions": [
    {
      "hash": "0xe27a8e367a6e01fa3737c17eff2a94f57966631e15541e3c57f3d9b79a494c75",
      "transactionType": "CALL",
      "contractName": null,
      "contractAddress": "0xa5dc2cb4dc13f12d8464eaa862fac00f19adc84d",
      "function": "trainSkill(uint8)",
      "arguments": [
        "0"
      ],
      "transaction": {
        "from": "0xac56dc5a4a9de0197f7b8f584ea04ec7e0123dde",
        "to": "0xa5dc2cb4dc13f12d8464eaa862fac00f19adc84d",
        "gas": "0x3d42a",
        "value": "0x0",
        "input": "0xa0a73d0d0000000000000000000000000000000000000000000000000000000000000000",
        "nonce": "0x2d",
        "chainId": "0x38"
      },
      "additionalContracts": [],
      "isFixedGasLimit": false
    }
  ],
  "receipts": [
    {
      "status": "0x1",
      "cumulativeGasUsed": "0x7663b2",
      "logs": [
        {
          "address": "0xa5dc2cb4dc13f12d8464eaa862fac00f19adc84d",
          "topics": [
            "0x5e5a0b90fdb27738829c217bcfc3821977755208ca0818475f4fe9af193a8a38"
          ],
          "data": "0x000000000000000000000000ac56dc5a4a9de0197f7b8f584ea04ec7e0123dde0000000000000000000000000000000000000000000000000000000000000064",
          "blockHash": "0x3eb63cdeb58339b8f9dcb0e2d64aceffb798eee1cddd6ad369e4abc099e27735",
          "blockNumber": "0x4a59661",
          "blockTimestamp": "0x697a6041",
          "transactionHash": "0xe27a8e367a6e01fa3737c17eff2a94f57966631e15541e3c57f3d9b79a494c75",
          "transactionIndex": "0x25",
          "logIndex": "0xd4",
          "removed": false
        },
        {
          "address": "0xaae5ef15499c71301123ee4b13d20d570d24ad5e",
          "topics": [
            "0x6dd0730fb835f9bbe38532c3d82c7c87448bfdec295f1d7cd2d72ff339632a52"
          ],
          "data": "0x00000000000000000000000000000000000000000000000000000000000000c00000000000000000000000000000000000000000000000000000000000000100000000000000000000000000ac56dc5a4a9de0197f7b8f584ea04ec7e0123dde000000000000000000000000000000000000000000000000000000000000000100000000000000000000000000000000000000000000000000000000697a6041000000000000000000000000000000000000000000000000000000000000014000000000000000000000000000000000000000000000000000000000000000094b696c6c536b696c6c00000000000000000000000000000000000000000000000000000000000000000000000000000000000000000000000000000000000005547261696e0000000000000000000000000000000000000000000000000000000000000000000000000000000000000000000000000000000000000000000000",
          "blockHash": "0x3eb63cdeb58339b8f9dcb0e2d64aceffb798eee1cddd6ad369e4abc099e27735",
          "blockNumber": "0x4a59661",
          "blockTimestamp": "0x697a6041",
          "transactionHash": "0xe27a8e367a6e01fa3737c17eff2a94f57966631e15541e3c57f3d9b79a494c75",
          "transactionIndex": "0x25",
          "logIndex": "0xd5",
          "removed": false
        },
        {
          "address": "0xa5dc2cb4dc13f12d8464eaa862fac00f19adc84d",
          "topics": [
            "0xa2ecdf3a87e9ffdb151ad823ae834f6165f94e54e5a30467175e075254eb6376"
          ],
          "data": "0x000000000000000000000000ac56dc5a4a9de0197f7b8f584ea04ec7e0123dde000000000000000000000000000000000000000000000000000000000000000000000000000000000000000000000000000000000000000000000000000000010000000000000000000000000000000000000000000000000000000000000000000000000000000000000000000000000000000000000000000000000000003200000000000000000000000000000000000000000000000000000000697a6acd00000000000000000000000000000000000000000000000000000000697a6041",
          "blockHash": "0x3eb63cdeb58339b8f9dcb0e2d64aceffb798eee1cddd6ad369e4abc099e27735",
          "blockNumber": "0x4a59661",
          "blockTimestamp": "0x697a6041",
          "transactionHash": "0xe27a8e367a6e01fa3737c17eff2a94f57966631e15541e3c57f3d9b79a494c75",
          "transactionIndex": "0x25",
          "logIndex": "0xd6",
          "removed": false
        },
        {
          "address": "0xa5dc2cb4dc13f12d8464eaa862fac00f19adc84d",
          "topics": [
            "0x2f3c6b138bbc22991cb748093f24117969e5e880b28f9343c903b9473032267b"
          ],
          "data": "0x000000000000000000000000ac56dc5a4a9de0197f7b8f584ea04ec7e0123dde00000000000000000000000000000000a0ede88996c4498c9d6919676664c3a800000000000000000000000000000000000000000000000000000000000001450000000000000000000000000000000000000000000000000000000000000190",
          "blockHash": "0x3eb63cdeb58339b8f9dcb0e2d64aceffb798eee1cddd6ad369e4abc099e27735",
          "blockNumber": "0x4a59661",
          "blockTimestamp": "0x697a6041",
          "transactionHash": "0xe27a8e367a6e01fa3737c17eff2a94f57966631e15541e3c57f3d9b79a494c75",
          "transactionIndex": "0x25",
          "logIndex": "0xd7",
          "removed": false
        }
      ],
      "logsBloom": "0x00000000000000000000010000400000001040040000000004000000000000000001000200000000000000000000000000000000000000000000000000000000000000000000000000000000000000000000000000000000000000000000000000000000000000000000010004000000000000000000000000000000000000000000000000000000000000000000080000000000000000000008000000000000000000000000000002000000000000000000002000000000000000000000000000000000000000000000000000000000000000000000000000000000000000800000000000000000000040000000402000000000000000000000000000000000",
      "type": "0x2",
      "transactionHash": "0xe27a8e367a6e01fa3737c17eff2a94f57966631e15541e3c57f3d9b79a494c75",
      "transactionIndex": "0x25",
      "blockHash": "0x3eb63cdeb58339b8f9dcb0e2d64aceffb798eee1cddd6ad369e4abc099e27735",
      "blockNumber": "0x4a59661",
      "gasUsed": "0x2ba77",
      "effectiveGasPrice": "0x2faf080",
      "from": "0xac56dc5a4a9de0197f7b8f584ea04ec7e0123dde",
      "to": "0xa5dc2cb4dc13f12d8464eaa862fac00f19adc84d",
      "contractAddress": null
    }
  ],
  "libraries": [],
  "pending": [],
  "returns": {},
  "timestamp": 1769627715259,
  "chain": 56,
  "commit": null
}