{
  "transactions": [
    {
      "hash": "0xce2680c7bb25f6458dd9a7e0dce093dda34ace7508c8cfd0a54f6590a3e13644",
      "transactionType": "CALL",
      "contractName": null,
      "contractAddress": "0xa5dc2cb4dc13f12d8464eaa862fac00f19adc84d",
      "function": "trainSkill(uint8)",
      "arguments": [
        "0"
      ],
      "transaction": {
        "from": "0xeca7a53ba6a190c5d205bfdc7707cbc3399336c1",
        "to": "0xa5dc2cb4dc13f12d8464eaa862fac00f19adc84d",
        "gas": "0x3e12f",
        "value": "0x0",
        "input": "0xa0a73d0d0000000000000000000000000000000000000000000000000000000000000000",
        "nonce": "0x2d2",
        "chainId": "0x38"
      },
      "additionalContracts": [],
      "isFixedGasLimit": false
    }
  ],
  "receipts": [
    {
      "status": "0x1",
      "cumulativeGasUsed": "0x697a73",
      "logs": [
        {
          "address": "0xa5dc2cb4dc13f12d8464eaa862fac00f19adc84d",
          "topics": [
            "0x5e5a0b90fdb27738829c217bcfc3821977755208ca0818475f4fe9af193a8a38"
          ],
          "data": "0x000000000000000000000000eca7a53ba6a190c5d205bfdc7707cbc3399336c100000000000000000000000000000000000000000000000000000000000004b0",
          "blockHash": "0x98a0272108f11fcb45ad26bb83f90b9b52e596a0075bd1f7664470f8e1b008a4",
          "blockNumber": "0x4beed43",
          "blockTimestamp": "0x6985c830",
          "transactionHash": "0xce2680c7bb25f6458dd9a7e0dce093dda34ace7508c8cfd0a54f6590a3e13644",
          "transactionIndex": "0x49",
          "logIndex": "0x9f",
          "removed": false
        },
        {
          "address": "0xaae5ef15499c71301123ee4b13d20d570d24ad5e",
          "topics": [
            "0x6dd0730fb835f9bbe38532c3d82c7c87448bfdec295f1d7cd2d72ff339632a52"
          ],
          "data": "0x00000000000000000000000000000000000000000000000000000000000000c00000000000000000000000000000000000000000000000000000000000000100000000000000000000000000eca7a53ba6a190c5d205bfdc7707cbc3399336c10000000000000000000000000000000000000000000000000000000000000001000000000000000000000000000000000000000000000000000000006985c830000000000000000000000000000000000000000000000000000000000000014000000000000000000000000000000000000000000000000000000000000000094b696c6c536b696c6c00000000000000000000000000000000000000000000000000000000000000000000000000000000000000000000000000000000000005547261696e0000000000000000000000000000000000000000000000000000000000000000000000000000000000000000000000000000000000000000000000",
          "blockHash": "0x98a0272108f11fcb45ad26bb83f90b9b52e596a0075bd1f7664470f8e1b008a4",
          "blockNumber": "0x4beed43",
          "blockTimestamp": "0x6985c830",
          "transactionHash": "0xce2680c7bb25f6458dd9a7e0dce093dda34ace7508c8cfd0a54f6590a3e13644",
          "transactionIndex": "0x49",
          "logIndex": "0xa0",
          "removed": false
        },
        {
          "address": "0xa5dc2cb4dc13f12d8464eaa862fac00f19adc84d",
          "topics": [
            "0xa2ecdf3a87e9ffdb151ad823ae834f6165f94e54e5a30467175e075254eb6376"
          ],
          "data": "0x000000000000000000000000eca7a53ba6a190c5d205bfdc7707cbc3399336c10000000000000000000000000000000000000000000000000000000000000000000000000000000000000000000000000000000000000000000000000000000100000000000000000000000000000000000000000000000000000000000000000000000000000000000000000000000000000000000000000000000000000032000000000000000000000000000000000000000000000000000000006985d2bc000000000000000000000000000000000000000000000000000000006985c830",
          "blockHash": "0x98a0272108f11fcb45ad26bb83f90b9b52e596a0075bd1f7664470f8e1b008a4",
          "blockNumber": "0x4beed43",
          "blockTimestamp": "0x6985c830",
          "transactionHash": "0xce2680c7bb25f6458dd9a7e0dce093dda34ace7508c8cfd0a54f6590a3e13644",
          "transactionIndex": "0x49",
          "logIndex": "0xa1",
          "removed": false
        },
        {
          "address": "0xa5dc2cb4dc13f12d8464eaa862fac00f19adc84d",
          "topics": [
            "0x2f3c6b138bbc22991cb748093f24117969e5e880b28f9343c903b9473032267b"
          ],
          "data": "0x000000000000000000000000eca7a53ba6a190c5d205bfdc7707cbc3399336c1000000000000000000000000000000008d1091568ef15f1eb3cf1a4ee8a94fa900000000000000000000000000000000000000000000000000000000000000880000000000000000000000000000000000000000000000000000000000000190",
          "blockHash": "0x98a0272108f11fcb45ad26bb83f90b9b52e596a0075bd1f7664470f8e1b008a4",
          "blockNumber": "0x4beed43",
          "blockTimestamp": "0x6985c830",
          "transactionHash": "0xce2680c7bb25f6458dd9a7e0dce093dda34ace7508c8cfd0a54f6590a3e13644",
          "transactionIndex": "0x49",
          "logIndex": "0xa2",
          "removed": false
        }
      ],
      "logsBloom": "0x00000000000000000000010000400000001040040000000004000000000000000001000200000000000000000000000000000000000000000000000000000000000000000000000000000000000000000000000000000000000000000000000000000000000000000000010004000000000000000000000000000000000000000000000000000000000000000000080000000000000000000008000000000000000000000000000002000000000000000000002000000000000000000000000000000000000000000000000000000000000000000000000000000000000000800000000000000000000040000000402000000000000000000000000000000000",
      "type": "0x2",
      "transactionHash": "0xce2680c7bb25f6458dd9a7e0dce093dda34ace7508c8cfd0a54f6590a3e13644",
      "transactionIndex": "0x49",
      "blockHash": "0x98a0272108f11fcb45ad26bb83f90b9b52e596a0075bd1f7664470f8e1b008a4",
      "blockNumber": "0x4beed43",
      "gasUsed": "0x2c35e",
      "effectiveGasPrice": "0x2faf080",
      "from": "0xeca7a53ba6a190c5d205bfdc7707cbc3399336c1",
      "to": "0xa5dc2cb4dc13f12d8464eaa862fac00f19adc84d",
      "contractAddress": null
    }
  ],
  "libraries": [],
  "pending": [],
  "returns": {},
  "timestamp": 1770375218648,
  "chain": 56,
  "commit": null
}