{
  "transactions": [
    {
      "hash": "0x4dc4e4356806d118c9f22029fcb89d9da4c2421a3d38012727b9a014768f827b",
      "transactionType": "CALL",
      "contractName": null,
      "contractAddress": "0xa5dc2cb4dc13f12d8464eaa862fac00f19adc84d",
      "function": "trainSkill(uint8)",
      "arguments": [
        "0"
      ],
      "transaction": {
        "from": "0x4c62f6121e6f967a0872da8364995e9b68c1e82f",
        "to": "0xa5dc2cb4dc13f12d8464eaa862fac00f19adc84d",
        "gas": "0x39e08",
        "value": "0x0",
        "input": "0xa0a73d0d0000000000000000000000000000000000000000000000000000000000000000",
        "nonce": "0xa2",
        "chainId": "0x38"
      },
      "additionalContracts": [],
      "isFixedGasLimit": false
    }
  ],
  "receipts": [
    {
      "status": "0x1",
      "cumulativeGasUsed": "0xd32378",
      "logs": [
        {
          "address": "0xaae5ef15499c71301123ee4b13d20d570d24ad5e",
          "topics": [
            "0x6dd0730fb835f9bbe38532c3d82c7c87448bfdec295f1d7cd2d72ff339632a52"
          ],
          "data": "0x00000000000000000000000000000000000000000000000000000000000000c000000000000000000000000000000000000000000000000000000000000001000000000000000000000000004c62f6121e6f967a0872da8364995e9b68c1e82f000000000000000000000000000000000000000000000000000000000000000000000000000000000000000000000000000000000000000000000000697a415b000000000000000000000000000000000000000000000000000000000000014000000000000000000000000000000000000000000000000000000000000000094b696c6c536b696c6c00000000000000000000000000000000000000000000000000000000000000000000000000000000000000000000000000000000000005547261696e0000000000000000000000000000000000000000000000000000000000000000000000000000000000000000000000000000000000000000000000",
          "blockHash": "0x14e25b26a7dd62f22b14d8a942f71dcb967f50166c054374767ae9f399dfbb91",
          "blockNumber": "0x4a551b9",
          "blockTimestamp": "0x697a415b",
          "transactionHash": "0x4dc4e4356806d118c9f22029fcb89d9da4c2421a3d38012727b9a014768f827b",
          "transactionIndex": "0x3b",
          "logIndex": "0x15b",
          "removed": false
        },
        {
          "address": "0xa5dc2cb4dc13f12d8464eaa862fac00f19adc84d",
          "topics": [
            "0xa2ecdf3a87e9ffdb151ad823ae834f6165f94e54e5a30467175e075254eb6376"
          ],
          "data": "0x0000000000000000000000004c62f6121e6f967a0872da8364995e9b68c1e82f000000000000000000000000000000000000000000000000000000000000000000000000000000000000000000000000000000000000000000000000000000000000000000000000000000000000000000000000000000000000000000000000000000000000000000000000000000000000000000000000000000000000000000000000000000000000000000000000000000000000000000000000697a4be700000000000000000000000000000000000000000000000000000000697a415b",
          "blockHash": "0x14e25b26a7dd62f22b14d8a942f71dcb967f50166c054374767ae9f399dfbb91",
          "blockNumber": "0x4a551b9",
          "blockTimestamp": "0x697a415b",
          "transactionHash": "0x4dc4e4356806d118c9f22029fcb89d9da4c2421a3d38012727b9a014768f827b",
          "transactionIndex": "0x3b",
          "logIndex": "0x15c",
          "removed": false
        },
        {
          "address": "0xa5dc2cb4dc13f12d8464eaa862fac00f19adc84d",
          "topics": [
            "0x2f3c6b138bbc22991cb748093f24117969e5e880b28f9343c903b9473032267b"
          ],
          "data": "0x0000000000000000000000004c62f6121e6f967a0872da8364995e9b68c1e82f00000000000000000000000000000000dd08e071804d36f6641d708cf8dfd58800000000000000000000000000000000000000000000000000000000000013560000000000000000000000000000000000000000000000000000000000000190",
          "blockHash": "0x14e25b26a7dd62f22b14d8a942f71dcb967f50166c054374767ae9f399dfbb91",
          "blockNumber": "0x4a551b9",
          "blockTimestamp": "0x697a415b",
          "transactionHash": "0x4dc4e4356806d118c9f22029fcb89d9da4c2421a3d38012727b9a014768f827b",
          "transactionIndex": "0x3b",
          "logIndex": "0x15d",
          "removed": false
        }
      ],
      "logsBloom": "0x00000000000000000000010000000000001040040000000004000000000000000001000200000000000000000000000000000000000000000000000000000000000000000000000000000000000000000000000000000000000000000000000000000000000000000000000004000000000000000000000000000000000000000000000000000000000000000000080000000000000000000008000000000000000000000000000000000000000000000000002000000000000000000000000000000000000000000000000000000000000000000000000000000000000000800000000000000000000040000000402000000000000000000000000000000000",
      "type": "0x2",
      "transactionHash": "0x4dc4e4356806d118c9f22029fcb89d9da4c2421a3d38012727b9a014768f827b",
      "transactionIndex": "0x3b",
      "blockHash": "0x14e25b26a7dd62f22b14d8a942f71dcb967f50166c054374767ae9f399dfbb91",
      "blockNumber": "0x4a551b9",
      "gasUsed": "0x29e6f",
      "effectiveGasPrice": "0x2faf080",
      "from": "0x4c62f6121e6f967a0872da8364995e9b68c1e82f",
      "to": "0xa5dc2cb4dc13f12d8464eaa862fac00f19adc84d",
      "contractAddress": null
    }
  ],
  "libraries": [],
  "pending": [],
  "returns": {},
  "timestamp": 1769619804947,
  "chain": 56,
  "commit": null
}