{
  "transactions": [
    {
      "hash": "0x532ae3d6b772260afeae6e6850d16d90a68533a3afdeaf12ee3605926a7960b8",
      "transactionType": "CALL",
      "contractName": null,
      "contractAddress": "0xa5dc2cb4dc13f12d8464eaa862fac00f19adc84d",
      "function": "trainSkill(uint8)",
      "arguments": [
        "0"
      ],
      "transaction": {
        "from": "0xaa73aa98480757d75aae288b5931261448eb0530",
        "to": "0xa5dc2cb4dc13f12d8464eaa862fac00f19adc84d",
        "gas": "0x3aa54",
        "value": "0x0",
        "input": "0xa0a73d0d0000000000000000000000000000000000000000000000000000000000000000",
        "nonce": "0x144",
        "chainId": "0x38"
      },
      "additionalContracts": [],
      "isFixedGasLimit": false
    }
  ],
  "receipts": [
    {
      "status": "0x1",
      "cumulativeGasUsed": "0x64571b",
      "logs": [
        {
          "address": "0xaae5ef15499c71301123ee4b13d20d570d24ad5e",
          "topics": [
            "0x6dd0730fb835f9bbe38532c3d82c7c87448bfdec295f1d7cd2d72ff339632a52"
          ],
          "data": "0x00000000000000000000000000000000000000000000000000000000000000c00000000000000000000000000000000000000000000000000000000000000100000000000000000000000000aa73aa98480757d75aae288b5931261448eb05300000000000000000000000000000000000000000000000000000000000000000000000000000000000000000000000000000000000000000000000006985c823000000000000000000000000000000000000000000000000000000000000014000000000000000000000000000000000000000000000000000000000000000094b696c6c536b696c6c00000000000000000000000000000000000000000000000000000000000000000000000000000000000000000000000000000000000005547261696e0000000000000000000000000000000000000000000000000000000000000000000000000000000000000000000000000000000000000000000000",
          "blockHash": "0xb73fa9b8327d4b4858b8bbb3f8ea82e45543cb95c19429e0d9e7d95ceb7bc5cc",
          "blockNumber": "0x4beed25",
          "blockTimestamp": "0x6985c823",
          "transactionHash": "0x532ae3d6b772260afeae6e6850d16d90a68533a3afdeaf12ee3605926a7960b8",
          "transactionIndex": "0x2d",
          "logIndex": "0xa2",
          "removed": false
        },
        {
          "address": "0xa5dc2cb4dc13f12d8464eaa862fac00f19adc84d",
          "topics": [
            "0xa2ecdf3a87e9ffdb151ad823ae834f6165f94e54e5a30467175e075254eb6376"
          ],
          "data": "0x000000000000000000000000aa73aa98480757d75aae288b5931261448eb05300000000000000000000000000000000000000000000000000000000000000000000000000000000000000000000000000000000000000000000000000000000000000000000000000000000000000000000000000000000000000000000000000000000000000000000000000000000000000000000000000000000000000000000000000000000000000000000000000000000000000000000000006985d2af000000000000000000000000000000000000000000000000000000006985c823",
          "blockHash": "0xb73fa9b8327d4b4858b8bbb3f8ea82e45543cb95c19429e0d9e7d95ceb7bc5cc",
          "blockNumber": "0x4beed25",
          "blockTimestamp": "0x6985c823",
          "transactionHash": "0x532ae3d6b772260afeae6e6850d16d90a68533a3afdeaf12ee3605926a7960b8",
          "transactionIndex": "0x2d",
          "logIndex": "0xa3",
          "removed": false
        },
        {
          "address": "0xa5dc2cb4dc13f12d8464eaa862fac00f19adc84d",
          "topics": [
            "0x2f3c6b138bbc22991cb748093f24117969e5e880b28f9343c903b9473032267b"
          ],
          "data": "0x000000000000000000000000aa73aa98480757d75aae288b5931261448eb053000000000000000000000000000000000078f0957edf9bb6fcb863d86088c78170000000000000000000000000000000000000000000000000000000000000a770000000000000000000000000000000000000000000000000000000000000190",
          "blockHash": "0xb73fa9b8327d4b4858b8bbb3f8ea82e45543cb95c19429e0d9e7d95ceb7bc5cc",
          "blockNumber": "0x4beed25",
          "blockTimestamp": "0x6985c823",
          "transactionHash": "0x532ae3d6b772260afeae6e6850d16d90a68533a3afdeaf12ee3605926a7960b8",
          "transactionIndex": "0x2d",
          "logIndex": "0xa4",
          "removed": false
        }
      ],
      "logsBloom": "0x00000000000000000000010000000000001040040000000004000000000000000001000200000000000000000000000000000000000000000000000000000000000000000000000000000000000000000000000000000000000000000000000000000000000000000000000004000000000000000000000000000000000000000000000000000000000000000000080000000000000000000008000000000000000000000000000000000000000000000000002000000000000000000000000000000000000000000000000000000000000000000000000000000000000000800000000000000000000040000000402000000000000000000000000000000000",
      "type": "0x2",
      "transactionHash": "0x532ae3d6b772260afeae6e6850d16d90a68533a3afdeaf12ee3605926a7960b8",
      "transactionIndex": "0x2d",
      "blockHash": "0xb73fa9b8327d4b4858b8bbb3f8ea82e45543cb95c19429e0d9e7d95ceb7bc5cc",
      "blockNumber": "0x4beed25",
      "gasUsed": "0x2a756",
      "effectiveGasPrice": "0x2faf080",
      "from": "0xaa73aa98480757d75aae288b5931261448eb0530",
      "to": "0xa5dc2cb4dc13f12d8464eaa862fac00f19adc84d",
      "contractAddress": null
    }
  ],
  "libraries": [],
  "pending": [],
  "returns": {},
  "timestamp": 1770375204834,
  "chain": 56,
  "commit": null
}