{
  "transactions": [
    {
      "hash": "0x385c9dc575120f5a9da2a8038ca4b17e94104a05ef95c09758cf84b9cc8ff42d",
      "transactionType": "CALL",
      "contractName": null,
      "contractAddress": "0xa5dc2cb4dc13f12d8464eaa862fac00f19adc84d",
      "function": "trainSkill(uint8)",
      "arguments": [
        "0"
      ],
      "transaction": {
        "from": "0xeca7a53ba6a190c5d205bfdc7707cbc3399336c1",
        "to": "0xa5dc2cb4dc13f12d8464eaa862fac00f19adc84d",
        "gas": "0x3e12f",
        "value": "0x0",
        "input": "0xa0a73d0d0000000000000000000000000000000000000000000000000000000000000000",
        "nonce": "0x2b8",
        "chainId": "0x38"
      },
      "additionalContracts": [],
      "isFixedGasLimit": false
    }
  ],
  "receipts": [
    {
      "status": "0x1",
      "cumulativeGasUsed": "0x600c23",
      "logs": [
        {
          "address": "0xa5dc2cb4dc13f12d8464eaa862fac00f19adc84d",
          "topics": [
            "0x5e5a0b90fdb27738829c217bcfc3821977755208ca0818475f4fe9af193a8a38"
          ],
          "data": "0x000000000000000000000000eca7a53ba6a190c5d205bfdc7707cbc3399336c1000000000000000000000000000000000000000000000000000000000000047e",
          "blockHash": "0x4ecd9c2b16526019e5e1f3255c44df44810fc5cf4d11b14730e2486d2e5b322e",
          "blockNumber": "0x4ba64f1",
          "blockTimestamp": "0x6983bdf7",
          "transactionHash": "0x385c9dc575120f5a9da2a8038ca4b17e94104a05ef95c09758cf84b9cc8ff42d",
          "transactionIndex": "0x2b",
          "logIndex": "0xc7",
          "removed": false
        },
        {
          "address": "0xaae5ef15499c71301123ee4b13d20d570d24ad5e",
          "topics": [
            "0x6dd0730fb835f9bbe38532c3d82c7c87448bfdec295f1d7cd2d72ff339632a52"
          ],
          "data": "0x00000000000000000000000000000000000000000000000000000000000000c00000000000000000000000000000000000000000000000000000000000000100000000000000000000000000eca7a53ba6a190c5d205bfdc7707cbc3399336c10000000000000000000000000000000000000000000000000000000000000001000000000000000000000000000000000000000000000000000000006983bdf7000000000000000000000000000000000000000000000000000000000000014000000000000000000000000000000000000000000000000000000000000000094b696c6c536b696c6c00000000000000000000000000000000000000000000000000000000000000000000000000000000000000000000000000000000000005547261696e0000000000000000000000000000000000000000000000000000000000000000000000000000000000000000000000000000000000000000000000",
          "blockHash": "0x4ecd9c2b16526019e5e1f3255c44df44810fc5cf4d11b14730e2486d2e5b322e",
          "blockNumber": "0x4ba64f1",
          "blockTimestamp": "0x6983bdf7",
          "transactionHash": "0x385c9dc575120f5a9da2a8038ca4b17e94104a05ef95c09758cf84b9cc8ff42d",
          "transactionIndex": "0x2b",
          "logIndex": "0xc8",
          "removed": false
        },
        {
          "address": "0xa5dc2cb4dc13f12d8464eaa862fac00f19adc84d",
          "topics": [
            "0xa2ecdf3a87e9ffdb151ad823ae834f6165f94e54e5a30467175e075254eb6376"
          ],
          "data": "0x000000000000000000000000eca7a53ba6a190c5d205bfdc7707cbc3399336c10000000000000000000000000000000000000000000000000000000000000000000000000000000000000000000000000000000000000000000000000000000100000000000000000000000000000000000000000000000000000000000000000000000000000000000000000000000000000000000000000000000000000032000000000000000000000000000000000000000000000000000000006983c883000000000000000000000000000000000000000000000000000000006983bdf7",
          "blockHash": "0x4ecd9c2b16526019e5e1f3255c44df44810fc5cf4d11b14730e2486d2e5b322e",
          "blockNumber": "0x4ba64f1",
          "blockTimestamp": "0x6983bdf7",
          "transactionHash": "0x385c9dc575120f5a9da2a8038ca4b17e94104a05ef95c09758cf84b9cc8ff42d",
          "transactionIndex": "0x2b",
          "logIndex": "0xc9",
          "removed": false
        },
        {
          "address": "0xa5dc2cb4dc13f12d8464eaa862fac00f19adc84d",
          "topics": [
            "0x2f3c6b138bbc22991cb748093f24117969e5e880b28f9343c903b9473032267b"
          ],
          "data": "0x000000000000000000000000eca7a53ba6a190c5d205bfdc7707cbc3399336c100000000000000000000000000000000fe9480266ec1047be4a9bdb920dca5b3000000000000000000000000000000000000000000000000000000000000016f0000000000000000000000000000000000000000000000000000000000000190",
          "blockHash": "0x4ecd9c2b16526019e5e1f3255c44df44810fc5cf4d11b14730e2486d2e5b322e",
          "blockNumber": "0x4ba64f1",
          "blockTimestamp": "0x6983bdf7",
          "transactionHash": "0x385c9dc575120f5a9da2a8038ca4b17e94104a05ef95c09758cf84b9cc8ff42d",
          "transactionIndex": "0x2b",
          "logIndex": "0xca",
          "removed": false
        }
      ],
      "logsBloom": "0x00000000000000000000010000400000001040040000000004000000000000000001000200000000000000000000000000000000000000000000000000000000000000000000000000000000000000000000000000000000000000000000000000000000000000000000010004000000000000000000000000000000000000000000000000000000000000000000080000000000000000000008000000000000000000000000000002000000000000000000002000000000000000000000000000000000000000000000000000000000000000000000000000000000000000800000000000000000000040000000402000000000000000000000000000000000",
      "type": "0x2",
      "transactionHash": "0x385c9dc575120f5a9da2a8038ca4b17e94104a05ef95c09758cf84b9cc8ff42d",
      "transactionIndex": "0x2b",
      "blockHash": "0x4ecd9c2b16526019e5e1f3255c44df44810fc5cf4d11b14730e2486d2e5b322e",
      "blockNumber": "0x4ba64f1",
      "gasUsed": "0x2c35e",
      "effectiveGasPrice": "0x2faf080",
      "from": "0xeca7a53ba6a190c5d205bfdc7707cbc3399336c1",
      "to": "0xa5dc2cb4dc13f12d8464eaa862fac00f19adc84d",
      "contractAddress": null
    }
  ],
  "libraries": [],
  "pending": [],
  "returns": {},
  "timestamp": 1770241528827,
  "chain": 56,
  "commit": null
}