{
  "transactions": [
    {
      "hash": "0x5763e4d8dbb24b4f2d981533998ce01f37638e01341c8e1f724b66fa0701458f",
      "transactionType": "CALL",
      "contractName": null,
      "contractAddress": "0xa5dc2cb4dc13f12d8464eaa862fac00f19adc84d",
      "function": "trainSkill(uint8)",
      "arguments": [
        "0"
      ],
      "transaction": {
        "from": "0xaa73aa98480757d75aae288b5931261448eb0530",
        "to": "0xa5dc2cb4dc13f12d8464eaa862fac00f19adc84d",
        "gas": "0x3aa54",
        "value": "0x0",
        "input": "0xa0a73d0d0000000000000000000000000000000000000000000000000000000000000000",
        "nonce": "0x18f",
        "chainId": "0x38"
      },
      "additionalContracts": [],
      "isFixedGasLimit": false
    }
  ],
  "receipts": [
    {
      "status": "0x1",
      "cumulativeGasUsed": "0x2a52ec",
      "logs": [
        {
          "address": "0xaae5ef15499c71301123ee4b13d20d570d24ad5e",
          "topics": [
            "0x6dd0730fb835f9bbe38532c3d82c7c87448bfdec295f1d7cd2d72ff339632a52"
          ],
          "data": "0x00000000000000000000000000000000000000000000000000000000000000c00000000000000000000000000000000000000000000000000000000000000100000000000000000000000000aa73aa98480757d75aae288b5931261448eb053000000000000000000000000000000000000000000000000000000000000000000000000000000000000000000000000000000000000000000000000069882b9e000000000000000000000000000000000000000000000000000000000000014000000000000000000000000000000000000000000000000000000000000000094b696c6c536b696c6c00000000000000000000000000000000000000000000000000000000000000000000000000000000000000000000000000000000000005547261696e0000000000000000000000000000000000000000000000000000000000000000000000000000000000000000000000000000000000000000000000",
          "blockHash": "0xe3d91fc4f4232cbb48f78d7fac1c29174f730a78489cc81282b33c7528ee9e82",
          "blockNumber": "0x4c43bc3",
          "blockTimestamp": "0x69882b9e",
          "transactionHash": "0x5763e4d8dbb24b4f2d981533998ce01f37638e01341c8e1f724b66fa0701458f",
          "transactionIndex": "0xf",
          "logIndex": "0x3c",
          "removed": false
        },
        {
          "address": "0xa5dc2cb4dc13f12d8464eaa862fac00f19adc84d",
          "topics": [
            "0xa2ecdf3a87e9ffdb151ad823ae834f6165f94e54e5a30467175e075254eb6376"
          ],
          "data": "0x000000000000000000000000aa73aa98480757d75aae288b5931261448eb05300000000000000000000000000000000000000000000000000000000000000000000000000000000000000000000000000000000000000000000000000000000000000000000000000000000000000000000000000000000000000000000000000000000000000000000000000000000000000000000000000000000000000000000000000000000000000000000000000000000000000000000000006988362a0000000000000000000000000000000000000000000000000000000069882b9e",
          "blockHash": "0xe3d91fc4f4232cbb48f78d7fac1c29174f730a78489cc81282b33c7528ee9e82",
          "blockNumber": "0x4c43bc3",
          "blockTimestamp": "0x69882b9e",
          "transactionHash": "0x5763e4d8dbb24b4f2d981533998ce01f37638e01341c8e1f724b66fa0701458f",
          "transactionIndex": "0xf",
          "logIndex": "0x3d",
          "removed": false
        },
        {
          "address": "0xa5dc2cb4dc13f12d8464eaa862fac00f19adc84d",
          "topics": [
            "0x2f3c6b138bbc22991cb748093f24117969e5e880b28f9343c903b9473032267b"
          ],
          "data": "0x000000000000000000000000aa73aa98480757d75aae288b5931261448eb053000000000000000000000000000000000b32c1df508175a483a5195269e8681c200000000000000000000000000000000000000000000000000000000000023120000000000000000000000000000000000000000000000000000000000000190",
          "blockHash": "0xe3d91fc4f4232cbb48f78d7fac1c29174f730a78489cc81282b33c7528ee9e82",
          "blockNumber": "0x4c43bc3",
          "blockTimestamp": "0x69882b9e",
          "transactionHash": "0x5763e4d8dbb24b4f2d981533998ce01f37638e01341c8e1f724b66fa0701458f",
          "transactionIndex": "0xf",
          "logIndex": "0x3e",
          "removed": false
        }
      ],
      "logsBloom": "0x00000000000000000000010000000000001040040000000004000000000000000001000200000000000000000000000000000000000000000000000000000000000000000000000000000000000000000000000000000000000000000000000000000000000000000000000004000000000000000000000000000000000000000000000000000000000000000000080000000000000000000008000000000000000000000000000000000000000000000000002000000000000000000000000000000000000000000000000000000000000000000000000000000000000000800000000000000000000040000000402000000000000000000000000000000000",
      "type": "0x2",
      "transactionHash": "0x5763e4d8dbb24b4f2d981533998ce01f37638e01341c8e1f724b66fa0701458f",
      "transactionIndex": "0xf",
      "blockHash": "0xe3d91fc4f4232cbb48f78d7fac1c29174f730a78489cc81282b33c7528ee9e82",
      "blockNumber": "0x4c43bc3",
      "gasUsed": "0x2a756",
      "effectiveGasPrice": "0x2faf080",
      "from": "0xaa73aa98480757d75aae288b5931261448eb0530",
      "to": "0xa5dc2cb4dc13f12d8464eaa862fac00f19adc84d",
      "contractAddress": null
    }
  ],
  "libraries": [],
  "pending": [],
  "returns": {},
  "timestamp": 1770531744324,
  "chain": 56,
  "commit": null
}