{
  "transactions": [
    {
      "hash": "0x885ac207ee42a3e9cd5d3f74cfdcfd72878e23c6bc68936885e2da3cef43a3ca",
      "transactionType": "CALL",
      "contractName": null,
      "contractAddress": "0xa5dc2cb4dc13f12d8464eaa862fac00f19adc84d",
      "function": "trainSkill(uint8)",
      "arguments": [
        "0"
      ],
      "transaction": {
        "from": "0x4c62f6121e6f967a0872da8364995e9b68c1e82f",
        "to": "0xa5dc2cb4dc13f12d8464eaa862fac00f19adc84d",
        "gas": "0x3e12f",
        "value": "0x0",
        "input": "0xa0a73d0d0000000000000000000000000000000000000000000000000000000000000000",
        "nonce": "0x17b",
        "chainId": "0x38"
      },
      "additionalContracts": [],
      "isFixedGasLimit": false
    }
  ],
  "receipts": [
    {
      "status": "0x1",
      "cumulativeGasUsed": "0x3a1b54",
      "logs": [
        {
          "address": "0xaae5ef15499c71301123ee4b13d20d570d24ad5e",
          "topics": [
            "0x6dd0730fb835f9bbe38532c3d82c7c87448bfdec295f1d7cd2d72ff339632a52"
          ],
          "data": "0x00000000000000000000000000000000000000000000000000000000000000c000000000000000000000000000000000000000000000000000000000000001000000000000000000000000004c62f6121e6f967a0872da8364995e9b68c1e82f0000000000000000000000000000000000000000000000000000000000000000000000000000000000000000000000000000000000000000000000006985c81e000000000000000000000000000000000000000000000000000000000000014000000000000000000000000000000000000000000000000000000000000000094b696c6c536b696c6c00000000000000000000000000000000000000000000000000000000000000000000000000000000000000000000000000000000000005547261696e0000000000000000000000000000000000000000000000000000000000000000000000000000000000000000000000000000000000000000000000",
          "blockHash": "0x5ea200c48fdb9698ff8eaf66c8f14840cd33913578fa8e7aa415c1cd7a93b652",
          "blockNumber": "0x4beed1b",
          "blockTimestamp": "0x6985c81e",
          "transactionHash": "0x885ac207ee42a3e9cd5d3f74cfdcfd72878e23c6bc68936885e2da3cef43a3ca",
          "transactionIndex": "0x1f",
          "logIndex": "0x49",
          "removed": false
        },
        {
          "address": "0xa5dc2cb4dc13f12d8464eaa862fac00f19adc84d",
          "topics": [
            "0xa2ecdf3a87e9ffdb151ad823ae834f6165f94e54e5a30467175e075254eb6376"
          ],
          "data": "0x0000000000000000000000004c62f6121e6f967a0872da8364995e9b68c1e82f0000000000000000000000000000000000000000000000000000000000000000000000000000000000000000000000000000000000000000000000000000000000000000000000000000000000000000000000000000000000000000000000000000000000000000000000000000000000000000000000000000000000000000000000000000000000000000000000000000000000000000000000006985d2aa000000000000000000000000000000000000000000000000000000006985c81e",
          "blockHash": "0x5ea200c48fdb9698ff8eaf66c8f14840cd33913578fa8e7aa415c1cd7a93b652",
          "blockNumber": "0x4beed1b",
          "blockTimestamp": "0x6985c81e",
          "transactionHash": "0x885ac207ee42a3e9cd5d3f74cfdcfd72878e23c6bc68936885e2da3cef43a3ca",
          "transactionIndex": "0x1f",
          "logIndex": "0x4a",
          "removed": false
        },
        {
          "address": "0xa5dc2cb4dc13f12d8464eaa862fac00f19adc84d",
          "topics": [
            "0x2f3c6b138bbc22991cb748093f24117969e5e880b28f9343c903b9473032267b"
          ],
          "data": "0x0000000000000000000000004c62f6121e6f967a0872da8364995e9b68c1e82f000000000000000000000000000000009a8ce82997c378a10e6d7de8dd33d06a0000000000000000000000000000000000000000000000000000000000001c990000000000000000000000000000000000000000000000000000000000000190",
          "blockHash": "0x5ea200c48fdb9698ff8eaf66c8f14840cd33913578fa8e7aa415c1cd7a93b652",
          "blockNumber": "0x4beed1b",
          "blockTimestamp": "0x6985c81e",
          "transactionHash": "0x885ac207ee42a3e9cd5d3f74cfdcfd72878e23c6bc68936885e2da3cef43a3ca",
          "transactionIndex": "0x1f",
          "logIndex": "0x4b",
          "removed": false
        }
      ],
      "logsBloom": "0x00000000000000000000010000000000001040040000000004000000000000000001000200000000000000000000000000000000000000000000000000000000000000000000000000000000000000000000000000000000000000000000000000000000000000000000000004000000000000000000000000000000000000000000000000000000000000000000080000000000000000000008000000000000000000000000000000000000000000000000002000000000000000000000000000000000000000000000000000000000000000000000000000000000000000800000000000000000000040000000402000000000000000000000000000000000",
      "type": "0x2",
      "transactionHash": "0x885ac207ee42a3e9cd5d3f74cfdcfd72878e23c6bc68936885e2da3cef43a3ca",
      "transactionIndex": "0x1f",
      "blockHash": "0x5ea200c48fdb9698ff8eaf66c8f14840cd33913578fa8e7aa415c1cd7a93b652",
      "blockNumber": "0x4beed1b",
      "gasUsed": "0x2a71a",
      "effectiveGasPrice": "0x2faf080",
      "from": "0x4c62f6121e6f967a0872da8364995e9b68c1e82f",
      "to": "0xa5dc2cb4dc13f12d8464eaa862fac00f19adc84d",
      "contractAddress": null
    }
  ],
  "libraries": [],
  "pending": [],
  "returns": {},
  "timestamp": 1770375200559,
  "chain": 56,
  "commit": null
}