{
  "transactions": [
    {
      "hash": "0x5b97310d5b31ee23d8fb5069f90b12a5df0be3ed196b46324568d9dcff69439f",
      "transactionType": "CALL",
      "contractName": null,
      "contractAddress": "0xa5dc2cb4dc13f12d8464eaa862fac00f19adc84d",
      "function": "trainSkill(uint8)",
      "arguments": [
        "0"
      ],
      "transaction": {
        "from": "0xeca7a53ba6a190c5d205bfdc7707cbc3399336c1",
        "to": "0xa5dc2cb4dc13f12d8464eaa862fac00f19adc84d",
        "gas": "0x39e08",
        "value": "0x0",
        "input": "0xa0a73d0d0000000000000000000000000000000000000000000000000000000000000000",
        "nonce": "0x203",
        "chainId": "0x38"
      },
      "additionalContracts": [],
      "isFixedGasLimit": false
    }
  ],
  "receipts": [
    {
      "status": "0x1",
      "cumulativeGasUsed": "0xef33c7",
      "logs": [
        {
          "address": "0xaae5ef15499c71301123ee4b13d20d570d24ad5e",
          "topics": [
            "0x6dd0730fb835f9bbe38532c3d82c7c87448bfdec295f1d7cd2d72ff339632a52"
          ],
          "data": "0x00000000000000000000000000000000000000000000000000000000000000c00000000000000000000000000000000000000000000000000000000000000100000000000000000000000000eca7a53ba6a190c5d205bfdc7707cbc3399336c10000000000000000000000000000000000000000000000000000000000000000000000000000000000000000000000000000000000000000000000006979f5b6000000000000000000000000000000000000000000000000000000000000014000000000000000000000000000000000000000000000000000000000000000094b696c6c536b696c6c00000000000000000000000000000000000000000000000000000000000000000000000000000000000000000000000000000000000005547261696e0000000000000000000000000000000000000000000000000000000000000000000000000000000000000000000000000000000000000000000000",
          "blockHash": "0x196a3be9939aa1ff835f370f45096c920de78e63c5450b7e9841d7ee52415731",
          "blockNumber": "0x4a4a9a9",
          "blockTimestamp": "0x6979f5b6",
          "transactionHash": "0x5b97310d5b31ee23d8fb5069f90b12a5df0be3ed196b46324568d9dcff69439f",
          "transactionIndex": "0x6b",
          "logIndex": "0x1ab",
          "removed": false
        },
        {
          "address": "0xa5dc2cb4dc13f12d8464eaa862fac00f19adc84d",
          "topics": [
            "0xa2ecdf3a87e9ffdb151ad823ae834f6165f94e54e5a30467175e075254eb6376"
          ],
          "data": "0x000000000000000000000000eca7a53ba6a190c5d205bfdc7707cbc3399336c1000000000000000000000000000000000000000000000000000000000000000000000000000000000000000000000000000000000000000000000000000000000000000000000000000000000000000000000000000000000000000000000000000000000000000000000000000000000000000000000000000000000000000000000000000000000000000000000000000000000000000000000000697a0042000000000000000000000000000000000000000000000000000000006979f5b6",
          "blockHash": "0x196a3be9939aa1ff835f370f45096c920de78e63c5450b7e9841d7ee52415731",
          "blockNumber": "0x4a4a9a9",
          "blockTimestamp": "0x6979f5b6",
          "transactionHash": "0x5b97310d5b31ee23d8fb5069f90b12a5df0be3ed196b46324568d9dcff69439f",
          "transactionIndex": "0x6b",
          "logIndex": "0x1ac",
          "removed": false
        },
        {
          "address": "0xa5dc2cb4dc13f12d8464eaa862fac00f19adc84d",
          "topics": [
            "0x2f3c6b138bbc22991cb748093f24117969e5e880b28f9343c903b9473032267b"
          ],
          "data": "0x000000000000000000000000eca7a53ba6a190c5d205bfdc7707cbc3399336c100000000000000000000000000000000f26799995de7eff0312f2ffbe9e4599300000000000000000000000000000000000000000000000000000000000011520000000000000000000000000000000000000000000000000000000000000190",
          "blockHash": "0x196a3be9939aa1ff835f370f45096c920de78e63c5450b7e9841d7ee52415731",
          "blockNumber": "0x4a4a9a9",
          "blockTimestamp": "0x6979f5b6",
          "transactionHash": "0x5b97310d5b31ee23d8fb5069f90b12a5df0be3ed196b46324568d9dcff69439f",
          "transactionIndex": "0x6b",
          "logIndex": "0x1ad",
          "removed": false
        }
      ],
      "logsBloom": "0x00000000000000000000010000000000001040040000000004000000000000000001000200000000000000000000000000000000000000000000000000000000000000000000000000000000000000000000000000000000000000000000000000000000000000000000000004000000000000000000000000000000000000000000000000000000000000000000080000000000000000000008000000000000000000000000000000000000000000000000002000000000000000000000000000000000000000000000000000000000000000000000000000000000000000800000000000000000000040000000402000000000000000000000000000000000",
      "type": "0x2",
      "transactionHash": "0x5b97310d5b31ee23d8fb5069f90b12a5df0be3ed196b46324568d9dcff69439f",
      "transactionIndex": "0x6b",
      "blockHash": "0x196a3be9939aa1ff835f370f45096c920de78e63c5450b7e9841d7ee52415731",
      "blockNumber": "0x4a4a9a9",
      "gasUsed": "0x29e6f",
      "effectiveGasPrice": "0x2faf080",
      "from": "0xeca7a53ba6a190c5d205bfdc7707cbc3399336c1",
      "to": "0xa5dc2cb4dc13f12d8464eaa862fac00f19adc84d",
      "contractAddress": null
    }
  ],
  "libraries": [],
  "pending": [],
  "returns": {},
  "timestamp": 1769600440236,
  "chain": 56,
  "commit": null
}