{
  "transactions": [
    {
      "hash": "0xc6abf1b6f9abe0efa9563a66bc427d19b1ec9ed4b82620aa122ad7289f7d4959",
      "transactionType": "CALL",
      "contractName": null,
      "contractAddress": "0xa5dc2cb4dc13f12d8464eaa862fac00f19adc84d",
      "function": "trainSkill(uint8)",
      "arguments": [
        "0"
      ],
      "transaction": {
        "from": "0xec646a6c9000e04d050435340d9c42c039eb5648",
        "to": "0xa5dc2cb4dc13f12d8464eaa862fac00f19adc84d",
        "gas": "0x3aa54",
        "value": "0x0",
        "input": "0xa0a73d0d0000000000000000000000000000000000000000000000000000000000000000",
        "nonce": "0x3a",
        "chainId": "0x38"
      },
      "additionalContracts": [],
      "isFixedGasLimit": false
    }
  ],
  "receipts": [
    {
      "status": "0x1",
      "cumulativeGasUsed": "0x222cb18",
      "logs": [
        {
          "address": "0xaae5ef15499c71301123ee4b13d20d570d24ad5e",
          "topics": [
            "0x6dd0730fb835f9bbe38532c3d82c7c87448bfdec295f1d7cd2d72ff339632a52"
          ],
          "data": "0x00000000000000000000000000000000000000000000000000000000000000c00000000000000000000000000000000000000000000000000000000000000100000000000000000000000000ec646a6c9000e04d050435340d9c42c039eb564800000000000000000000000000000000000000000000000000000000000000000000000000000000000000000000000000000000000000000000000069833603000000000000000000000000000000000000000000000000000000000000014000000000000000000000000000000000000000000000000000000000000000094b696c6c536b696c6c00000000000000000000000000000000000000000000000000000000000000000000000000000000000000000000000000000000000005547261696e0000000000000000000000000000000000000000000000000000000000000000000000000000000000000000000000000000000000000000000000",
          "blockHash": "0xe6f9de295f08d9439841fd0f9512459f8c75cbd3e6363c9047d51897988b9c54",
          "blockNumber": "0x4b936e2",
          "blockTimestamp": "0x69833603",
          "transactionHash": "0xc6abf1b6f9abe0efa9563a66bc427d19b1ec9ed4b82620aa122ad7289f7d4959",
          "transactionIndex": "0x68",
          "logIndex": "0x458",
          "removed": false
        },
        {
          "address": "0xa5dc2cb4dc13f12d8464eaa862fac00f19adc84d",
          "topics": [
            "0xa2ecdf3a87e9ffdb151ad823ae834f6165f94e54e5a30467175e075254eb6376"
          ],
          "data": "0x000000000000000000000000ec646a6c9000e04d050435340d9c42c039eb56480000000000000000000000000000000000000000000000000000000000000000000000000000000000000000000000000000000000000000000000000000000000000000000000000000000000000000000000000000000000000000000000000000000000000000000000000000000000000000000000000000000000000000000000000000000000000000000000000000000000000000000000006983408f0000000000000000000000000000000000000000000000000000000069833603",
          "blockHash": "0xe6f9de295f08d9439841fd0f9512459f8c75cbd3e6363c9047d51897988b9c54",
          "blockNumber": "0x4b936e2",
          "blockTimestamp": "0x69833603",
          "transactionHash": "0xc6abf1b6f9abe0efa9563a66bc427d19b1ec9ed4b82620aa122ad7289f7d4959",
          "transactionIndex": "0x68",
          "logIndex": "0x459",
          "removed": false
        },
        {
          "address": "0xa5dc2cb4dc13f12d8464eaa862fac00f19adc84d",
          "topics": [
            "0x2f3c6b138bbc22991cb748093f24117969e5e880b28f9343c903b9473032267b"
          ],
          "data": "0x000000000000000000000000ec646a6c9000e04d050435340d9c42c039eb564800000000000000000000000000000000f132f3c56280c5b56eae0769761660490000000000000000000000000000000000000000000000000000000000001d1a0000000000000000000000000000000000000000000000000000000000000190",
          "blockHash": "0xe6f9de295f08d9439841fd0f9512459f8c75cbd3e6363c9047d51897988b9c54",
          "blockNumber": "0x4b936e2",
          "blockTimestamp": "0x69833603",
          "transactionHash": "0xc6abf1b6f9abe0efa9563a66bc427d19b1ec9ed4b82620aa122ad7289f7d4959",
          "transactionIndex": "0x68",
          "logIndex": "0x45a",
          "removed": false
        }
      ],
      "logsBloom": "0x00000000000000000000010000000000001040040000000004000000000000000001000200000000000000000000000000000000000000000000000000000000000000000000000000000000000000000000000000000000000000000000000000000000000000000000000004000000000000000000000000000000000000000000000000000000000000000000080000000000000000000008000000000000000000000000000000000000000000000000002000000000000000000000000000000000000000000000000000000000000000000000000000000000000000800000000000000000000040000000402000000000000000000000000000000000",
      "type": "0x2",
      "transactionHash": "0xc6abf1b6f9abe0efa9563a66bc427d19b1ec9ed4b82620aa122ad7289f7d4959",
      "transactionIndex": "0x68",
      "blockHash": "0xe6f9de295f08d9439841fd0f9512459f8c75cbd3e6363c9047d51897988b9c54",
      "blockNumber": "0x4b936e2",
      "gasUsed": "0x2a756",
      "effectiveGasPrice": "0x2faf080",
      "from": "0xec646a6c9000e04d050435340d9c42c039eb5648",
      "to": "0xa5dc2cb4dc13f12d8464eaa862fac00f19adc84d",
      "contractAddress": null
    }
  ],
  "libraries": [],
  "pending": [],
  "returns": {},
  "timestamp": 1770206725232,
  "chain": 56,
  "commit": null
}