{
  "transactions": [
    {
      "hash": "0x796d70ab644d466dcacac090a3d2c89ff398c732bceb58809c788d1d1a54137b",
      "transactionType": "CALL",
      "contractName": null,
      "contractAddress": "0xa5dc2cb4dc13f12d8464eaa862fac00f19adc84d",
      "function": "trainSkill(uint8)",
      "arguments": [
        "0"
      ],
      "transaction": {
        "from": "0xac56dc5a4a9de0197f7b8f584ea04ec7e0123dde",
        "to": "0xa5dc2cb4dc13f12d8464eaa862fac00f19adc84d",
        "gas": "0x3e12f",
        "value": "0x0",
        "input": "0xa0a73d0d0000000000000000000000000000000000000000000000000000000000000000",
        "nonce": "0x125",
        "chainId": "0x38"
      },
      "additionalContracts": [],
      "isFixedGasLimit": false
    }
  ],
  "receipts": [
    {
      "status": "0x1",
      "cumulativeGasUsed": "0x746d33",
      "logs": [
        {
          "address": "0xaae5ef15499c71301123ee4b13d20d570d24ad5e",
          "topics": [
            "0x6dd0730fb835f9bbe38532c3d82c7c87448bfdec295f1d7cd2d72ff339632a52"
          ],
          "data": "0x00000000000000000000000000000000000000000000000000000000000000c00000000000000000000000000000000000000000000000000000000000000100000000000000000000000000ac56dc5a4a9de0197f7b8f584ea04ec7e0123dde00000000000000000000000000000000000000000000000000000000000000000000000000000000000000000000000000000000000000000000000069882b86000000000000000000000000000000000000000000000000000000000000014000000000000000000000000000000000000000000000000000000000000000094b696c6c536b696c6c00000000000000000000000000000000000000000000000000000000000000000000000000000000000000000000000000000000000005547261696e0000000000000000000000000000000000000000000000000000000000000000000000000000000000000000000000000000000000000000000000",
          "blockHash": "0x9b2645e8778b2666197832e8785155a1d37bf65ebbac5d50f1ff80d75573e4b4",
          "blockNumber": "0x4c43b8e",
          "blockTimestamp": "0x69882b86",
          "transactionHash": "0x796d70ab644d466dcacac090a3d2c89ff398c732bceb58809c788d1d1a54137b",
          "transactionIndex": "0x3c",
          "logIndex": "0x107",
          "removed": false
        },
        {
          "address": "0xa5dc2cb4dc13f12d8464eaa862fac00f19adc84d",
          "topics": [
            "0xa2ecdf3a87e9ffdb151ad823ae834f6165f94e54e5a30467175e075254eb6376"
          ],
          "data": "0x000000000000000000000000ac56dc5a4a9de0197f7b8f584ea04ec7e0123dde000000000000000000000000000000000000000000000000000000000000000000000000000000000000000000000000000000000000000000000000000000000000000000000000000000000000000000000000000000000000000000000000000000000000000000000000000000000000000000000000000000000000000000000000000000000000000000000000000000000000000000000000698836120000000000000000000000000000000000000000000000000000000069882b86",
          "blockHash": "0x9b2645e8778b2666197832e8785155a1d37bf65ebbac5d50f1ff80d75573e4b4",
          "blockNumber": "0x4c43b8e",
          "blockTimestamp": "0x69882b86",
          "transactionHash": "0x796d70ab644d466dcacac090a3d2c89ff398c732bceb58809c788d1d1a54137b",
          "transactionIndex": "0x3c",
          "logIndex": "0x108",
          "removed": false
        },
        {
          "address": "0xa5dc2cb4dc13f12d8464eaa862fac00f19adc84d",
          "topics": [
            "0x2f3c6b138bbc22991cb748093f24117969e5e880b28f9343c903b9473032267b"
          ],
          "data": "0x000000000000000000000000ac56dc5a4a9de0197f7b8f584ea04ec7e0123dde00000000000000000000000000000000b40423d1b6502bfa5509e7573004693a00000000000000000000000000000000000000000000000000000000000014f90000000000000000000000000000000000000000000000000000000000000190",
          "blockHash": "0x9b2645e8778b2666197832e8785155a1d37bf65ebbac5d50f1ff80d75573e4b4",
          "blockNumber": "0x4c43b8e",
          "blockTimestamp": "0x69882b86",
          "transactionHash": "0x796d70ab644d466dcacac090a3d2c89ff398c732bceb58809c788d1d1a54137b",
          "transactionIndex": "0x3c",
          "logIndex": "0x109",
          "removed": false
        }
      ],
      "logsBloom": "0x00000000000000000000010000000000001040040000000004000000000000000001000200000000000000000000000000000000000000000000000000000000000000000000000000000000000000000000000000000000000000000000000000000000000000000000000004000000000000000000000000000000000000000000000000000000000000000000080000000000000000000008000000000000000000000000000000000000000000000000002000000000000000000000000000000000000000000000000000000000000000000000000000000000000000800000000000000000000040000000402000000000000000000000000000000000",
      "type": "0x2",
      "transactionHash": "0x796d70ab644d466dcacac090a3d2c89ff398c732bceb58809c788d1d1a54137b",
      "transactionIndex": "0x3c",
      "blockHash": "0x9b2645e8778b2666197832e8785155a1d37bf65ebbac5d50f1ff80d75573e4b4",
      "blockNumber": "0x4c43b8e",
      "gasUsed": "0x2a71a",
      "effectiveGasPrice": "0x2faf080",
      "from": "0xac56dc5a4a9de0197f7b8f584ea04ec7e0123dde",
      "to": "0xa5dc2cb4dc13f12d8464eaa862fac00f19adc84d",
      "contractAddress": null
    }
  ],
  "libraries": [],
  "pending": [],
  "returns": {},
  "timestamp": 1770531720360,
  "chain": 56,
  "commit": null
}