{
  "transactions": [
    {
      "hash": "0xde09e383872224a6c243d2baec79042555790e9ad0de57f14f36f85fc1e5368c",
      "transactionType": "CALL",
      "contractName": null,
      "contractAddress": "0xa5dc2cb4dc13f12d8464eaa862fac00f19adc84d",
      "function": "trainSkill(uint8)",
      "arguments": [
        "0"
      ],
      "transaction": {
        "from": "0xec646a6c9000e04d050435340d9c42c039eb5648",
        "to": "0xa5dc2cb4dc13f12d8464eaa862fac00f19adc84d",
        "gas": "0x3aa54",
        "value": "0x0",
        "input": "0xa0a73d0d0000000000000000000000000000000000000000000000000000000000000000",
        "nonce": "0x34",
        "chainId": "0x38"
      },
      "additionalContracts": [],
      "isFixedGasLimit": false
    }
  ],
  "receipts": [
    {
      "status": "0x1",
      "cumulativeGasUsed": "0x562fa2",
      "logs": [
        {
          "address": "0xaae5ef15499c71301123ee4b13d20d570d24ad5e",
          "topics": [
            "0x6dd0730fb835f9bbe38532c3d82c7c87448bfdec295f1d7cd2d72ff339632a52"
          ],
          "data": "0x00000000000000000000000000000000000000000000000000000000000000c00000000000000000000000000000000000000000000000000000000000000100000000000000000000000000ec646a6c9000e04d050435340d9c42c039eb564800000000000000000000000000000000000000000000000000000000000000000000000000000000000000000000000000000000000000000000000069811f87000000000000000000000000000000000000000000000000000000000000014000000000000000000000000000000000000000000000000000000000000000094b696c6c536b696c6c00000000000000000000000000000000000000000000000000000000000000000000000000000000000000000000000000000000000005547261696e0000000000000000000000000000000000000000000000000000000000000000000000000000000000000000000000000000000000000000000000",
          "blockHash": "0x67112a2f5312be6bc989965ea2fcb0a903dcc878633522a2ba9664e044c47211",
          "blockNumber": "0x4b49400",
          "blockTimestamp": "0x69811f87",
          "transactionHash": "0xde09e383872224a6c243d2baec79042555790e9ad0de57f14f36f85fc1e5368c",
          "transactionIndex": "0x33",
          "logIndex": "0x7f",
          "removed": false
        },
        {
          "address": "0xa5dc2cb4dc13f12d8464eaa862fac00f19adc84d",
          "topics": [
            "0xa2ecdf3a87e9ffdb151ad823ae834f6165f94e54e5a30467175e075254eb6376"
          ],
          "data": "0x000000000000000000000000ec646a6c9000e04d050435340d9c42c039eb564800000000000000000000000000000000000000000000000000000000000000000000000000000000000000000000000000000000000000000000000000000000000000000000000000000000000000000000000000000000000000000000000000000000000000000000000000000000000000000000000000000000000000000000000000000000000000000000000000000000000000000000000069812a130000000000000000000000000000000000000000000000000000000069811f87",
          "blockHash": "0x67112a2f5312be6bc989965ea2fcb0a903dcc878633522a2ba9664e044c47211",
          "blockNumber": "0x4b49400",
          "blockTimestamp": "0x69811f87",
          "transactionHash": "0xde09e383872224a6c243d2baec79042555790e9ad0de57f14f36f85fc1e5368c",
          "transactionIndex": "0x33",
          "logIndex": "0x80",
          "removed": false
        },
        {
          "address": "0xa5dc2cb4dc13f12d8464eaa862fac00f19adc84d",
          "topics": [
            "0x2f3c6b138bbc22991cb748093f24117969e5e880b28f9343c903b9473032267b"
          ],
          "data": "0x000000000000000000000000ec646a6c9000e04d050435340d9c42c039eb5648000000000000000000000000000000009cf03f749dac8c44d0de9ff505310bbb00000000000000000000000000000000000000000000000000000000000020690000000000000000000000000000000000000000000000000000000000000190",
          "blockHash": "0x67112a2f5312be6bc989965ea2fcb0a903dcc878633522a2ba9664e044c47211",
          "blockNumber": "0x4b49400",
          "blockTimestamp": "0x69811f87",
          "transactionHash": "0xde09e383872224a6c243d2baec79042555790e9ad0de57f14f36f85fc1e5368c",
          "transactionIndex": "0x33",
          "logIndex": "0x81",
          "removed": false
        }
      ],
      "logsBloom": "0x00000000000000000000010000000000001040040000000004000000000000000001000200000000000000000000000000000000000000000000000000000000000000000000000000000000000000000000000000000000000000000000000000000000000000000000000004000000000000000000000000000000000000000000000000000000000000000000080000000000000000000008000000000000000000000000000000000000000000000000002000000000000000000000000000000000000000000000000000000000000000000000000000000000000000800000000000000000000040000000402000000000000000000000000000000000",
      "type": "0x2",
      "transactionHash": "0xde09e383872224a6c243d2baec79042555790e9ad0de57f14f36f85fc1e5368c",
      "transactionIndex": "0x33",
      "blockHash": "0x67112a2f5312be6bc989965ea2fcb0a903dcc878633522a2ba9664e044c47211",
      "blockNumber": "0x4b49400",
      "gasUsed": "0x2a756",
      "effectiveGasPrice": "0x2faf080",
      "from": "0xec646a6c9000e04d050435340d9c42c039eb5648",
      "to": "0xa5dc2cb4dc13f12d8464eaa862fac00f19adc84d",
      "contractAddress": null
    }
  ],
  "libraries": [],
  "pending": [],
  "returns": {},
  "timestamp": 1770069897059,
  "chain": 56,
  "commit": null
}