{
  "transactions": [
    {
      "hash": "0x0f0b39afb785773badf558ea875690938072f861c195a0d98503ce559acb63d5",
      "transactionType": "CALL",
      "contractName": null,
      "contractAddress": "0xa5dc2cb4dc13f12d8464eaa862fac00f19adc84d",
      "function": "trainSkill(uint8)",
      "arguments": [
        "0"
      ],
      "transaction": {
        "from": "0xac56dc5a4a9de0197f7b8f584ea04ec7e0123dde",
        "to": "0xa5dc2cb4dc13f12d8464eaa862fac00f19adc84d",
        "gas": "0x3e12f",
        "value": "0x0",
        "input": "0xa0a73d0d0000000000000000000000000000000000000000000000000000000000000000",
        "nonce": "0x90",
        "chainId": "0x38"
      },
      "additionalContracts": [],
      "isFixedGasLimit": false
    }
  ],
  "receipts": [
    {
      "status": "0x1",
      "cumulativeGasUsed": "0x57996c",
      "logs": [
        {
          "address": "0xaae5ef15499c71301123ee4b13d20d570d24ad5e",
          "topics": [
            "0x6dd0730fb835f9bbe38532c3d82c7c87448bfdec295f1d7cd2d72ff339632a52"
          ],
          "data": "0x00000000000000000000000000000000000000000000000000000000000000c00000000000000000000000000000000000000000000000000000000000000100000000000000000000000000ac56dc5a4a9de0197f7b8f584ea04ec7e0123dde0000000000000000000000000000000000000000000000000000000000000000000000000000000000000000000000000000000000000000000000006980ebb1000000000000000000000000000000000000000000000000000000000000014000000000000000000000000000000000000000000000000000000000000000094b696c6c536b696c6c00000000000000000000000000000000000000000000000000000000000000000000000000000000000000000000000000000000000005547261696e0000000000000000000000000000000000000000000000000000000000000000000000000000000000000000000000000000000000000000000000",
          "blockHash": "0x037a81008bffbdfae211c9f1ec3c857f1615ae93f86e22136a53b46b1143625a",
          "blockNumber": "0x4b420cf",
          "blockTimestamp": "0x6980ebb1",
          "transactionHash": "0x0f0b39afb785773badf558ea875690938072f861c195a0d98503ce559acb63d5",
          "transactionIndex": "0x35",
          "logIndex": "0x96",
          "removed": false
        },
        {
          "address": "0xa5dc2cb4dc13f12d8464eaa862fac00f19adc84d",
          "topics": [
            "0xa2ecdf3a87e9ffdb151ad823ae834f6165f94e54e5a30467175e075254eb6376"
          ],
          "data": "0x000000000000000000000000ac56dc5a4a9de0197f7b8f584ea04ec7e0123dde0000000000000000000000000000000000000000000000000000000000000000000000000000000000000000000000000000000000000000000000000000000000000000000000000000000000000000000000000000000000000000000000000000000000000000000000000000000000000000000000000000000000000000000000000000000000000000000000000000000000000000000000006980f63d000000000000000000000000000000000000000000000000000000006980ebb1",
          "blockHash": "0x037a81008bffbdfae211c9f1ec3c857f1615ae93f86e22136a53b46b1143625a",
          "blockNumber": "0x4b420cf",
          "blockTimestamp": "0x6980ebb1",
          "transactionHash": "0x0f0b39afb785773badf558ea875690938072f861c195a0d98503ce559acb63d5",
          "transactionIndex": "0x35",
          "logIndex": "0x97",
          "removed": false
        },
        {
          "address": "0xa5dc2cb4dc13f12d8464eaa862fac00f19adc84d",
          "topics": [
            "0x2f3c6b138bbc22991cb748093f24117969e5e880b28f9343c903b9473032267b"
          ],
          "data": "0x000000000000000000000000ac56dc5a4a9de0197f7b8f584ea04ec7e0123dde0000000000000000000000000000000038672a9edb237601095d5358bd8071fe0000000000000000000000000000000000000000000000000000000000000b780000000000000000000000000000000000000000000000000000000000000190",
          "blockHash": "0x037a81008bffbdfae211c9f1ec3c857f1615ae93f86e22136a53b46b1143625a",
          "blockNumber": "0x4b420cf",
          "blockTimestamp": "0x6980ebb1",
          "transactionHash": "0x0f0b39afb785773badf558ea875690938072f861c195a0d98503ce559acb63d5",
          "transactionIndex": "0x35",
          "logIndex": "0x98",
          "removed": false
        }
      ],
      "logsBloom": "0x00000000000000000000010000000000001040040000000004000000000000000001000200000000000000000000000000000000000000000000000000000000000000000000000000000000000000000000000000000000000000000000000000000000000000000000000004000000000000000000000000000000000000000000000000000000000000000000080000000000000000000008000000000000000000000000000000000000000000000000002000000000000000000000000000000000000000000000000000000000000000000000000000000000000000800000000000000000000040000000402000000000000000000000000000000000",
      "type": "0x2",
      "transactionHash": "0x0f0b39afb785773badf558ea875690938072f861c195a0d98503ce559acb63d5",
      "transactionIndex": "0x35",
      "blockHash": "0x037a81008bffbdfae211c9f1ec3c857f1615ae93f86e22136a53b46b1143625a",
      "blockNumber": "0x4b420cf",
      "gasUsed": "0x2a71a",
      "effectiveGasPrice": "0x2faf080",
      "from": "0xac56dc5a4a9de0197f7b8f584ea04ec7e0123dde",
      "to": "0xa5dc2cb4dc13f12d8464eaa862fac00f19adc84d",
      "contractAddress": null
    }
  ],
  "libraries": [],
  "pending": [],
  "returns": {},
  "timestamp": 1770056626837,
  "chain": 56,
  "commit": null
}