{
  "transactions": [
    {
      "hash": "0xc08d329bf748de3050c8cd51bc999f4944249e3b99b780cf5262da493746ec22",
      "transactionType": "CALL",
      "contractName": null,
      "contractAddress": "0xa5dc2cb4dc13f12d8464eaa862fac00f19adc84d",
      "function": "trainSkill(uint8)",
      "arguments": [
        "0"
      ],
      "transaction": {
        "from": "0xac56dc5a4a9de0197f7b8f584ea04ec7e0123dde",
        "to": "0xa5dc2cb4dc13f12d8464eaa862fac00f19adc84d",
        "gas": "0x3e12f",
        "value": "0x0",
        "input": "0xa0a73d0d0000000000000000000000000000000000000000000000000000000000000000",
        "nonce": "0xf7",
        "chainId": "0x38"
      },
      "additionalContracts": [],
      "isFixedGasLimit": false
    }
  ],
  "receipts": [
    {
      "status": "0x1",
      "cumulativeGasUsed": "0x5e74f1",
      "logs": [
        {
          "address": "0xaae5ef15499c71301123ee4b13d20d570d24ad5e",
          "topics": [
            "0x6dd0730fb835f9bbe38532c3d82c7c87448bfdec295f1d7cd2d72ff339632a52"
          ],
          "data": "0x00000000000000000000000000000000000000000000000000000000000000c00000000000000000000000000000000000000000000000000000000000000100000000000000000000000000ac56dc5a4a9de0197f7b8f584ea04ec7e0123dde0000000000000000000000000000000000000000000000000000000000000000000000000000000000000000000000000000000000000000000000006987788c000000000000000000000000000000000000000000000000000000000000014000000000000000000000000000000000000000000000000000000000000000094b696c6c536b696c6c00000000000000000000000000000000000000000000000000000000000000000000000000000000000000000000000000000000000005547261696e0000000000000000000000000000000000000000000000000000000000000000000000000000000000000000000000000000000000000000000000",
          "blockHash": "0x744ae367b997c70738590df27620ebcec35d31063c440517cc0a74b18a456321",
          "blockNumber": "0x4c2addb",
          "blockTimestamp": "0x6987788c",
          "transactionHash": "0xc08d329bf748de3050c8cd51bc999f4944249e3b99b780cf5262da493746ec22",
          "transactionIndex": "0x2d",
          "logIndex": "0xa7",
          "removed": false
        },
        {
          "address": "0xa5dc2cb4dc13f12d8464eaa862fac00f19adc84d",
          "topics": [
            "0xa2ecdf3a87e9ffdb151ad823ae834f6165f94e54e5a30467175e075254eb6376"
          ],
          "data": "0x000000000000000000000000ac56dc5a4a9de0197f7b8f584ea04ec7e0123dde00000000000000000000000000000000000000000000000000000000000000000000000000000000000000000000000000000000000000000000000000000000000000000000000000000000000000000000000000000000000000000000000000000000000000000000000000000000000000000000000000000000000000000000000000000000000000000000000000000000000000000000000069878318000000000000000000000000000000000000000000000000000000006987788c",
          "blockHash": "0x744ae367b997c70738590df27620ebcec35d31063c440517cc0a74b18a456321",
          "blockNumber": "0x4c2addb",
          "blockTimestamp": "0x6987788c",
          "transactionHash": "0xc08d329bf748de3050c8cd51bc999f4944249e3b99b780cf5262da493746ec22",
          "transactionIndex": "0x2d",
          "logIndex": "0xa8",
          "removed": false
        },
        {
          "address": "0xa5dc2cb4dc13f12d8464eaa862fac00f19adc84d",
          "topics": [
            "0x2f3c6b138bbc22991cb748093f24117969e5e880b28f9343c903b9473032267b"
          ],
          "data": "0x000000000000000000000000ac56dc5a4a9de0197f7b8f584ea04ec7e0123dde00000000000000000000000000000000ad7040fe62fcf487be41f23aca9fc78e00000000000000000000000000000000000000000000000000000000000023eb0000000000000000000000000000000000000000000000000000000000000190",
          "blockHash": "0x744ae367b997c70738590df27620ebcec35d31063c440517cc0a74b18a456321",
          "blockNumber": "0x4c2addb",
          "blockTimestamp": "0x6987788c",
          "transactionHash": "0xc08d329bf748de3050c8cd51bc999f4944249e3b99b780cf5262da493746ec22",
          "transactionIndex": "0x2d",
          "logIndex": "0xa9",
          "removed": false
        }
      ],
      "logsBloom": "0x00000000000000000000010000000000001040040000000004000000000000000001000200000000000000000000000000000000000000000000000000000000000000000000000000000000000000000000000000000000000000000000000000000000000000000000000004000000000000000000000000000000000000000000000000000000000000000000080000000000000000000008000000000000000000000000000000000000000000000000002000000000000000000000000000000000000000000000000000000000000000000000000000000000000000800000000000000000000040000000402000000000000000000000000000000000",
      "type": "0x2",
      "transactionHash": "0xc08d329bf748de3050c8cd51bc999f4944249e3b99b780cf5262da493746ec22",
      "transactionIndex": "0x2d",
      "blockHash": "0x744ae367b997c70738590df27620ebcec35d31063c440517cc0a74b18a456321",
      "blockNumber": "0x4c2addb",
      "gasUsed": "0x2a71a",
      "effectiveGasPrice": "0x2faf080",
      "from": "0xac56dc5a4a9de0197f7b8f584ea04ec7e0123dde",
      "to": "0xa5dc2cb4dc13f12d8464eaa862fac00f19adc84d",
      "contractAddress": null
    }
  ],
  "libraries": [],
  "pending": [],
  "returns": {},
  "timestamp": 1770485901768,
  "chain": 56,
  "commit": null
}