{
  "transactions": [
    {
      "hash": "0x88384eecfef50a798a20cff2d02df0b3cee69c455b304fd4975c8efb3a134297",
      "transactionType": "CALL",
      "contractName": null,
      "contractAddress": "0xa5dc2cb4dc13f12d8464eaa862fac00f19adc84d",
      "function": "trainSkill(uint8)",
      "arguments": [
        "0"
      ],
      "transaction": {
        "from": "0xaa73aa98480757d75aae288b5931261448eb0530",
        "to": "0xa5dc2cb4dc13f12d8464eaa862fac00f19adc84d",
        "gas": "0x49b25",
        "value": "0x0",
        "input": "0xa0a73d0d0000000000000000000000000000000000000000000000000000000000000000",
        "nonce": "0x1a3",
        "chainId": "0x38"
      },
      "additionalContracts": [],
      "isFixedGasLimit": false
    }
  ],
  "receipts": [
    {
      "status": "0x1",
      "cumulativeGasUsed": "0x9a50f4",
      "logs": [
        {
          "address": "0xaae5ef15499c71301123ee4b13d20d570d24ad5e",
          "topics": [
            "0x6dd0730fb835f9bbe38532c3d82c7c87448bfdec295f1d7cd2d72ff339632a52"
          ],
          "data": "0x00000000000000000000000000000000000000000000000000000000000000c00000000000000000000000000000000000000000000000000000000000000100000000000000000000000000aa73aa98480757d75aae288b5931261448eb05300000000000000000000000000000000000000000000000000000000000000000000000000000000000000000000000000000000000000000000000006988729d000000000000000000000000000000000000000000000000000000000000014000000000000000000000000000000000000000000000000000000000000000094b696c6c536b696c6c00000000000000000000000000000000000000000000000000000000000000000000000000000000000000000000000000000000000005547261696e0000000000000000000000000000000000000000000000000000000000000000000000000000000000000000000000000000000000000000000000",
          "blockHash": "0x533456f5dff65c691d41422d5276d3ad7c10bd081916237b709c1f93703520bc",
          "blockNumber": "0x4c4d97d",
          "blockTimestamp": "0x6988729d",
          "transactionHash": "0x88384eecfef50a798a20cff2d02df0b3cee69c455b304fd4975c8efb3a134297",
          "transactionIndex": "0x1f",
          "logIndex": "0x18b",
          "removed": false
        },
        {
          "address": "0xa5dc2cb4dc13f12d8464eaa862fac00f19adc84d",
          "topics": [
            "0xa2ecdf3a87e9ffdb151ad823ae834f6165f94e54e5a30467175e075254eb6376"
          ],
          "data": "0x000000000000000000000000aa73aa98480757d75aae288b5931261448eb053000000000000000000000000000000000000000000000000000000000000000000000000000000000000000000000000000000000000000000000000000000000000000000000000000000000000000000000000000000000000000000000000000000000000000000000000000000000000000000000000000000000000000000000000000000000000000000000000000000000000000000000000069887d29000000000000000000000000000000000000000000000000000000006988729d",
          "blockHash": "0x533456f5dff65c691d41422d5276d3ad7c10bd081916237b709c1f93703520bc",
          "blockNumber": "0x4c4d97d",
          "blockTimestamp": "0x6988729d",
          "transactionHash": "0x88384eecfef50a798a20cff2d02df0b3cee69c455b304fd4975c8efb3a134297",
          "transactionIndex": "0x1f",
          "logIndex": "0x18c",
          "removed": false
        },
        {
          "address": "0xa5dc2cb4dc13f12d8464eaa862fac00f19adc84d",
          "topics": [
            "0x2f3c6b138bbc22991cb748093f24117969e5e880b28f9343c903b9473032267b"
          ],
          "data": "0x000000000000000000000000aa73aa98480757d75aae288b5931261448eb053000000000000000000000000000000000d4338e36b118128ce875ecf65b193d910000000000000000000000000000000000000000000000000000000000001fe10000000000000000000000000000000000000000000000000000000000000190",
          "blockHash": "0x533456f5dff65c691d41422d5276d3ad7c10bd081916237b709c1f93703520bc",
          "blockNumber": "0x4c4d97d",
          "blockTimestamp": "0x6988729d",
          "transactionHash": "0x88384eecfef50a798a20cff2d02df0b3cee69c455b304fd4975c8efb3a134297",
          "transactionIndex": "0x1f",
          "logIndex": "0x18d",
          "removed": false
        }
      ],
      "logsBloom": "0x00000000000000000000010000000000001040040000000004000000000000000001000200000000000000000000000000000000000000000000000000000000000000000000000000000000000000000000000000000000000000000000000000000000000000000000000004000000000000000000000000000000000000000000000000000000000000000000080000000000000000000008000000000000000000000000000000000000000000000000002000000000000000000000000000000000000000000000000000000000000000000000000000000000000000800000000000000000000040000000402000000000000000000000000000000000",
      "type": "0x2",
      "transactionHash": "0x88384eecfef50a798a20cff2d02df0b3cee69c455b304fd4975c8efb3a134297",
      "transactionIndex": "0x1f",
      "blockHash": "0x533456f5dff65c691d41422d5276d3ad7c10bd081916237b709c1f93703520bc",
      "blockNumber": "0x4c4d97d",
      "gasUsed": "0x2a756",
      "effectiveGasPrice": "0x2faf080",
      "from": "0xaa73aa98480757d75aae288b5931261448eb0530",
      "to": "0xa5dc2cb4dc13f12d8464eaa862fac00f19adc84d",
      "contractAddress": null
    }
  ],
  "libraries": [],
  "pending": [],
  "returns": {},
  "timestamp": 1770549920339,
  "chain": 56,
  "commit": null
}