{
  "transactions": [
    {
      "hash": "0x744f21bc84d7b8fd79c12dedf0fe305f15b9e32465f085fe8cdca1d579be3f83",
      "transactionType": "CALL",
      "contractName": null,
      "contractAddress": "0xa5dc2cb4dc13f12d8464eaa862fac00f19adc84d",
      "function": "trainSkill(uint8)",
      "arguments": [
        "0"
      ],
      "transaction": {
        "from": "0xec646a6c9000e04d050435340d9c42c039eb5648",
        "to": "0xa5dc2cb4dc13f12d8464eaa862fac00f19adc84d",
        "gas": "0x3e12f",
        "value": "0x0",
        "input": "0xa0a73d0d0000000000000000000000000000000000000000000000000000000000000000",
        "nonce": "0xac",
        "chainId": "0x38"
      },
      "additionalContracts": [],
      "isFixedGasLimit": false
    }
  ],
  "receipts": [
    {
      "status": "0x1",
      "cumulativeGasUsed": "0x87000c",
      "logs": [
        {
          "address": "0xaae5ef15499c71301123ee4b13d20d570d24ad5e",
          "topics": [
            "0x6dd0730fb835f9bbe38532c3d82c7c87448bfdec295f1d7cd2d72ff339632a52"
          ],
          "data": "0x00000000000000000000000000000000000000000000000000000000000000c00000000000000000000000000000000000000000000000000000000000000100000000000000000000000000ec646a6c9000e04d050435340d9c42c039eb56480000000000000000000000000000000000000000000000000000000000000000000000000000000000000000000000000000000000000000000000006987c32b000000000000000000000000000000000000000000000000000000000000014000000000000000000000000000000000000000000000000000000000000000094b696c6c536b696c6c00000000000000000000000000000000000000000000000000000000000000000000000000000000000000000000000000000000000005547261696e0000000000000000000000000000000000000000000000000000000000000000000000000000000000000000000000000000000000000000000000",
          "blockHash": "0x4f4415d49e080e07f267e45d0811fedd40ae97512c0253811df85be4668ee104",
          "blockNumber": "0x4c353ac",
          "blockTimestamp": "0x6987c32b",
          "transactionHash": "0x744f21bc84d7b8fd79c12dedf0fe305f15b9e32465f085fe8cdca1d579be3f83",
          "transactionIndex": "0x35",
          "logIndex": "0xd1",
          "removed": false
        },
        {
          "address": "0xa5dc2cb4dc13f12d8464eaa862fac00f19adc84d",
          "topics": [
            "0xa2ecdf3a87e9ffdb151ad823ae834f6165f94e54e5a30467175e075254eb6376"
          ],
          "data": "0x000000000000000000000000ec646a6c9000e04d050435340d9c42c039eb56480000000000000000000000000000000000000000000000000000000000000000000000000000000000000000000000000000000000000000000000000000000000000000000000000000000000000000000000000000000000000000000000000000000000000000000000000000000000000000000000000000000000000000000000000000000000000000000000000000000000000000000000006987cdb7000000000000000000000000000000000000000000000000000000006987c32b",
          "blockHash": "0x4f4415d49e080e07f267e45d0811fedd40ae97512c0253811df85be4668ee104",
          "blockNumber": "0x4c353ac",
          "blockTimestamp": "0x6987c32b",
          "transactionHash": "0x744f21bc84d7b8fd79c12dedf0fe305f15b9e32465f085fe8cdca1d579be3f83",
          "transactionIndex": "0x35",
          "logIndex": "0xd2",
          "removed": false
        },
        {
          "address": "0xa5dc2cb4dc13f12d8464eaa862fac00f19adc84d",
          "topics": [
            "0x2f3c6b138bbc22991cb748093f24117969e5e880b28f9343c903b9473032267b"
          ],
          "data": "0x000000000000000000000000ec646a6c9000e04d050435340d9c42c039eb564800000000000000000000000000000000aa1f4559cf248df3e0598de8d3ae88ff00000000000000000000000000000000000000000000000000000000000009330000000000000000000000000000000000000000000000000000000000000190",
          "blockHash": "0x4f4415d49e080e07f267e45d0811fedd40ae97512c0253811df85be4668ee104",
          "blockNumber": "0x4c353ac",
          "blockTimestamp": "0x6987c32b",
          "transactionHash": "0x744f21bc84d7b8fd79c12dedf0fe305f15b9e32465f085fe8cdca1d579be3f83",
          "transactionIndex": "0x35",
          "logIndex": "0xd3",
          "removed": false
        }
      ],
      "logsBloom": "0x00000000000000000000010000000000001040040000000004000000000000000001000200000000000000000000000000000000000000000000000000000000000000000000000000000000000000000000000000000000000000000000000000000000000000000000000004000000000000000000000000000000000000000000000000000000000000000000080000000000000000000008000000000000000000000000000000000000000000000000002000000000000000000000000000000000000000000000000000000000000000000000000000000000000000800000000000000000000040000000402000000000000000000000000000000000",
      "type": "0x2",
      "transactionHash": "0x744f21bc84d7b8fd79c12dedf0fe305f15b9e32465f085fe8cdca1d579be3f83",
      "transactionIndex": "0x35",
      "blockHash": "0x4f4415d49e080e07f267e45d0811fedd40ae97512c0253811df85be4668ee104",
      "blockNumber": "0x4c353ac",
      "gasUsed": "0x2a71a",
      "effectiveGasPrice": "0x2faf080",
      "from": "0xec646a6c9000e04d050435340d9c42c039eb5648",
      "to": "0xa5dc2cb4dc13f12d8464eaa862fac00f19adc84d",
      "contractAddress": null
    }
  ],
  "libraries": [],
  "pending": [],
  "returns": {},
  "timestamp": 1770505004712,
  "chain": 56,
  "commit": null
}