{
  "transactions": [
    {
      "hash": "0xd073df94ae368852567cbab81fdb85764cb8e38e1304fee64a90f42479c346bb",
      "transactionType": "CALL",
      "contractName": null,
      "contractAddress": "0xa5dc2cb4dc13f12d8464eaa862fac00f19adc84d",
      "function": "trainSkill(uint8)",
      "arguments": [
        "0"
      ],
      "transaction": {
        "from": "0xec646a6c9000e04d050435340d9c42c039eb5648",
        "to": "0xa5dc2cb4dc13f12d8464eaa862fac00f19adc84d",
        "gas": "0x3e12f",
        "value": "0x0",
        "input": "0xa0a73d0d0000000000000000000000000000000000000000000000000000000000000000",
        "nonce": "0xde",
        "chainId": "0x38"
      },
      "additionalContracts": [],
      "isFixedGasLimit": false
    }
  ],
  "receipts": [
    {
      "status": "0x1",
      "cumulativeGasUsed": "0x8ed9cc",
      "logs": [
        {
          "address": "0xaae5ef15499c71301123ee4b13d20d570d24ad5e",
          "topics": [
            "0x6dd0730fb835f9bbe38532c3d82c7c87448bfdec295f1d7cd2d72ff339632a52"
          ],
          "data": "0x00000000000000000000000000000000000000000000000000000000000000c00000000000000000000000000000000000000000000000000000000000000100000000000000000000000000ec646a6c9000e04d050435340d9c42c039eb5648000000000000000000000000000000000000000000000000000000000000000000000000000000000000000000000000000000000000000000000000698876aa000000000000000000000000000000000000000000000000000000000000014000000000000000000000000000000000000000000000000000000000000000094b696c6c536b696c6c00000000000000000000000000000000000000000000000000000000000000000000000000000000000000000000000000000000000005547261696e0000000000000000000000000000000000000000000000000000000000000000000000000000000000000000000000000000000000000000000000",
          "blockHash": "0x58e1ae3059a1f585e5f651b9c779d984d509da375c5466be7d58eb68127af45c",
          "blockNumber": "0x4c4e27e",
          "blockTimestamp": "0x698876aa",
          "transactionHash": "0xd073df94ae368852567cbab81fdb85764cb8e38e1304fee64a90f42479c346bb",
          "transactionIndex": "0x4c",
          "logIndex": "0x124",
          "removed": false
        },
        {
          "address": "0xa5dc2cb4dc13f12d8464eaa862fac00f19adc84d",
          "topics": [
            "0xa2ecdf3a87e9ffdb151ad823ae834f6165f94e54e5a30467175e075254eb6376"
          ],
          "data": "0x000000000000000000000000ec646a6c9000e04d050435340d9c42c039eb56480000000000000000000000000000000000000000000000000000000000000000000000000000000000000000000000000000000000000000000000000000000000000000000000000000000000000000000000000000000000000000000000000000000000000000000000000000000000000000000000000000000000000000000000000000000000000000000000000000000000000000000000006988813600000000000000000000000000000000000000000000000000000000698876aa",
          "blockHash": "0x58e1ae3059a1f585e5f651b9c779d984d509da375c5466be7d58eb68127af45c",
          "blockNumber": "0x4c4e27e",
          "blockTimestamp": "0x698876aa",
          "transactionHash": "0xd073df94ae368852567cbab81fdb85764cb8e38e1304fee64a90f42479c346bb",
          "transactionIndex": "0x4c",
          "logIndex": "0x125",
          "removed": false
        },
        {
          "address": "0xa5dc2cb4dc13f12d8464eaa862fac00f19adc84d",
          "topics": [
            "0x2f3c6b138bbc22991cb748093f24117969e5e880b28f9343c903b9473032267b"
          ],
          "data": "0x000000000000000000000000ec646a6c9000e04d050435340d9c42c039eb56480000000000000000000000000000000007cd0a5824c16563992455eadafabc7300000000000000000000000000000000000000000000000000000000000025350000000000000000000000000000000000000000000000000000000000000190",
          "blockHash": "0x58e1ae3059a1f585e5f651b9c779d984d509da375c5466be7d58eb68127af45c",
          "blockNumber": "0x4c4e27e",
          "blockTimestamp": "0x698876aa",
          "transactionHash": "0xd073df94ae368852567cbab81fdb85764cb8e38e1304fee64a90f42479c346bb",
          "transactionIndex": "0x4c",
          "logIndex": "0x126",
          "removed": false
        }
      ],
      "logsBloom": "0x00000000000000000000010000000000001040040000000004000000000000000001000200000000000000000000000000000000000000000000000000000000000000000000000000000000000000000000000000000000000000000000000000000000000000000000000004000000000000000000000000000000000000000000000000000000000000000000080000000000000000000008000000000000000000000000000000000000000000000000002000000000000000000000000000000000000000000000000000000000000000000000000000000000000000800000000000000000000040000000402000000000000000000000000000000000",
      "type": "0x2",
      "transactionHash": "0xd073df94ae368852567cbab81fdb85764cb8e38e1304fee64a90f42479c346bb",
      "transactionIndex": "0x4c",
      "blockHash": "0x58e1ae3059a1f585e5f651b9c779d984d509da375c5466be7d58eb68127af45c",
      "blockNumber": "0x4c4e27e",
      "gasUsed": "0x2a71a",
      "effectiveGasPrice": "0x2faf080",
      "from": "0xec646a6c9000e04d050435340d9c42c039eb5648",
      "to": "0xa5dc2cb4dc13f12d8464eaa862fac00f19adc84d",
      "contractAddress": null
    }
  ],
  "libraries": [],
  "pending": [],
  "returns": {},
  "timestamp": 1770550956026,
  "chain": 56,
  "commit": null
}