{
  "transactions": [
    {
      "hash": "0x987f8e97e207c7d2f922d7436e230a52785c36ea0c88d69e3234ca20cfcdd540",
      "transactionType": "CALL",
      "contractName": null,
      "contractAddress": "0xa5dc2cb4dc13f12d8464eaa862fac00f19adc84d",
      "function": "trainSkill(uint8)",
      "arguments": [
        "0"
      ],
      "transaction": {
        "from": "0xaa73aa98480757d75aae288b5931261448eb0530",
        "to": "0xa5dc2cb4dc13f12d8464eaa862fac00f19adc84d",
        "gas": "0x3aa54",
        "value": "0x0",
        "input": "0xa0a73d0d0000000000000000000000000000000000000000000000000000000000000000",
        "nonce": "0x14e",
        "chainId": "0x38"
      },
      "additionalContracts": [],
      "isFixedGasLimit": false
    }
  ],
  "receipts": [
    {
      "status": "0x1",
      "cumulativeGasUsed": "0xf16242",
      "logs": [
        {
          "address": "0xaae5ef15499c71301123ee4b13d20d570d24ad5e",
          "topics": [
            "0x6dd0730fb835f9bbe38532c3d82c7c87448bfdec295f1d7cd2d72ff339632a52"
          ],
          "data": "0x00000000000000000000000000000000000000000000000000000000000000c00000000000000000000000000000000000000000000000000000000000000100000000000000000000000000aa73aa98480757d75aae288b5931261448eb053000000000000000000000000000000000000000000000000000000000000000000000000000000000000000000000000000000000000000000000000069860abb000000000000000000000000000000000000000000000000000000000000014000000000000000000000000000000000000000000000000000000000000000094b696c6c536b696c6c00000000000000000000000000000000000000000000000000000000000000000000000000000000000000000000000000000000000005547261696e0000000000000000000000000000000000000000000000000000000000000000000000000000000000000000000000000000000000000000000000",
          "blockHash": "0x8ff386cde8ec3d470dbf165c5770ad69f83d173d8986f83934d2ac3783d02b96",
          "blockNumber": "0x4bf811f",
          "blockTimestamp": "0x69860abb",
          "transactionHash": "0x987f8e97e207c7d2f922d7436e230a52785c36ea0c88d69e3234ca20cfcdd540",
          "transactionIndex": "0x4a",
          "logIndex": "0xe8",
          "removed": false
        },
        {
          "address": "0xa5dc2cb4dc13f12d8464eaa862fac00f19adc84d",
          "topics": [
            "0xa2ecdf3a87e9ffdb151ad823ae834f6165f94e54e5a30467175e075254eb6376"
          ],
          "data": "0x000000000000000000000000aa73aa98480757d75aae288b5931261448eb0530000000000000000000000000000000000000000000000000000000000000000000000000000000000000000000000000000000000000000000000000000000000000000000000000000000000000000000000000000000000000000000000000000000000000000000000000000000000000000000000000000000000000000000000000000000000000000000000000000000000000000000000000698615470000000000000000000000000000000000000000000000000000000069860abb",
          "blockHash": "0x8ff386cde8ec3d470dbf165c5770ad69f83d173d8986f83934d2ac3783d02b96",
          "blockNumber": "0x4bf811f",
          "blockTimestamp": "0x69860abb",
          "transactionHash": "0x987f8e97e207c7d2f922d7436e230a52785c36ea0c88d69e3234ca20cfcdd540",
          "transactionIndex": "0x4a",
          "logIndex": "0xe9",
          "removed": false
        },
        {
          "address": "0xa5dc2cb4dc13f12d8464eaa862fac00f19adc84d",
          "topics": [
            "0x2f3c6b138bbc22991cb748093f24117969e5e880b28f9343c903b9473032267b"
          ],
          "data": "0x000000000000000000000000aa73aa98480757d75aae288b5931261448eb0530000000000000000000000000000000004a6f4c96da211c5aa0f124aa7f4de5230000000000000000000000000000000000000000000000000000000000001c840000000000000000000000000000000000000000000000000000000000000190",
          "blockHash": "0x8ff386cde8ec3d470dbf165c5770ad69f83d173d8986f83934d2ac3783d02b96",
          "blockNumber": "0x4bf811f",
          "blockTimestamp": "0x69860abb",
          "transactionHash": "0x987f8e97e207c7d2f922d7436e230a52785c36ea0c88d69e3234ca20cfcdd540",
          "transactionIndex": "0x4a",
          "logIndex": "0xea",
          "removed": false
        }
      ],
      "logsBloom": "0x00000000000000000000010000000000001040040000000004000000000000000001000200000000000000000000000000000000000000000000000000000000000000000000000000000000000000000000000000000000000000000000000000000000000000000000000004000000000000000000000000000000000000000000000000000000000000000000080000000000000000000008000000000000000000000000000000000000000000000000002000000000000000000000000000000000000000000000000000000000000000000000000000000000000000800000000000000000000040000000402000000000000000000000000000000000",
      "type": "0x2",
      "transactionHash": "0x987f8e97e207c7d2f922d7436e230a52785c36ea0c88d69e3234ca20cfcdd540",
      "transactionIndex": "0x4a",
      "blockHash": "0x8ff386cde8ec3d470dbf165c5770ad69f83d173d8986f83934d2ac3783d02b96",
      "blockNumber": "0x4bf811f",
      "gasUsed": "0x2a756",
      "effectiveGasPrice": "0x2faf080",
      "from": "0xaa73aa98480757d75aae288b5931261448eb0530",
      "to": "0xa5dc2cb4dc13f12d8464eaa862fac00f19adc84d",
      "contractAddress": null
    }
  ],
  "libraries": [],
  "pending": [],
  "returns": {},
  "timestamp": 1770392252901,
  "chain": 56,
  "commit": null
}