{
  "transactions": [
    {
      "hash": "0xed4ee3f62d0573cc2fb746d87f74bb925b40f15c1f17972a2e8cf489001eab0b",
      "transactionType": "CALL",
      "contractName": null,
      "contractAddress": "0xa5dc2cb4dc13f12d8464eaa862fac00f19adc84d",
      "function": "trainSkill(uint8)",
      "arguments": [
        "0"
      ],
      "transaction": {
        "from": "0xaa73aa98480757d75aae288b5931261448eb0530",
        "to": "0xa5dc2cb4dc13f12d8464eaa862fac00f19adc84d",
        "gas": "0x3aa54",
        "value": "0x0",
        "input": "0xa0a73d0d0000000000000000000000000000000000000000000000000000000000000000",
        "nonce": "0x182",
        "chainId": "0x38"
      },
      "additionalContracts": [],
      "isFixedGasLimit": false
    }
  ],
  "receipts": [
    {
      "status": "0x1",
      "cumulativeGasUsed": "0x72d6af",
      "logs": [
        {
          "address": "0xaae5ef15499c71301123ee4b13d20d570d24ad5e",
          "topics": [
            "0x6dd0730fb835f9bbe38532c3d82c7c87448bfdec295f1d7cd2d72ff339632a52"
          ],
          "data": "0x00000000000000000000000000000000000000000000000000000000000000c00000000000000000000000000000000000000000000000000000000000000100000000000000000000000000aa73aa98480757d75aae288b5931261448eb053000000000000000000000000000000000000000000000000000000000000000000000000000000000000000000000000000000000000000000000000069880054000000000000000000000000000000000000000000000000000000000000014000000000000000000000000000000000000000000000000000000000000000094b696c6c536b696c6c00000000000000000000000000000000000000000000000000000000000000000000000000000000000000000000000000000000000005547261696e0000000000000000000000000000000000000000000000000000000000000000000000000000000000000000000000000000000000000000000000",
          "blockHash": "0x213056f79ce697396b9a39f537bd5057d2ef6faa17b6b65867b62b3688d95de0",
          "blockNumber": "0x4c3db94",
          "blockTimestamp": "0x69880054",
          "transactionHash": "0xed4ee3f62d0573cc2fb746d87f74bb925b40f15c1f17972a2e8cf489001eab0b",
          "transactionIndex": "0x24",
          "logIndex": "0xe3",
          "removed": false
        },
        {
          "address": "0xa5dc2cb4dc13f12d8464eaa862fac00f19adc84d",
          "topics": [
            "0xa2ecdf3a87e9ffdb151ad823ae834f6165f94e54e5a30467175e075254eb6376"
          ],
          "data": "0x000000000000000000000000aa73aa98480757d75aae288b5931261448eb053000000000000000000000000000000000000000000000000000000000000000000000000000000000000000000000000000000000000000000000000000000000000000000000000000000000000000000000000000000000000000000000000000000000000000000000000000000000000000000000000000000000000000000000000000000000000000000000000000000000000000000000000069880ae00000000000000000000000000000000000000000000000000000000069880054",
          "blockHash": "0x213056f79ce697396b9a39f537bd5057d2ef6faa17b6b65867b62b3688d95de0",
          "blockNumber": "0x4c3db94",
          "blockTimestamp": "0x69880054",
          "transactionHash": "0xed4ee3f62d0573cc2fb746d87f74bb925b40f15c1f17972a2e8cf489001eab0b",
          "transactionIndex": "0x24",
          "logIndex": "0xe4",
          "removed": false
        },
        {
          "address": "0xa5dc2cb4dc13f12d8464eaa862fac00f19adc84d",
          "topics": [
            "0x2f3c6b138bbc22991cb748093f24117969e5e880b28f9343c903b9473032267b"
          ],
          "data": "0x000000000000000000000000aa73aa98480757d75aae288b5931261448eb053000000000000000000000000000000000402b4f0f500ee08fbbb67f60294b0aa90000000000000000000000000000000000000000000000000000000000000b0c0000000000000000000000000000000000000000000000000000000000000190",
          "blockHash": "0x213056f79ce697396b9a39f537bd5057d2ef6faa17b6b65867b62b3688d95de0",
          "blockNumber": "0x4c3db94",
          "blockTimestamp": "0x69880054",
          "transactionHash": "0xed4ee3f62d0573cc2fb746d87f74bb925b40f15c1f17972a2e8cf489001eab0b",
          "transactionIndex": "0x24",
          "logIndex": "0xe5",
          "removed": false
        }
      ],
      "logsBloom": "0x00000000000000000000010000000000001040040000000004000000000000000001000200000000000000000000000000000000000000000000000000000000000000000000000000000000000000000000000000000000000000000000000000000000000000000000000004000000000000000000000000000000000000000000000000000000000000000000080000000000000000000008000000000000000000000000000000000000000000000000002000000000000000000000000000000000000000000000000000000000000000000000000000000000000000800000000000000000000040000000402000000000000000000000000000000000",
      "type": "0x2",
      "transactionHash": "0xed4ee3f62d0573cc2fb746d87f74bb925b40f15c1f17972a2e8cf489001eab0b",
      "transactionIndex": "0x24",
      "blockHash": "0x213056f79ce697396b9a39f537bd5057d2ef6faa17b6b65867b62b3688d95de0",
      "blockNumber": "0x4c3db94",
      "gasUsed": "0x2a756",
      "effectiveGasPrice": "0x2faf080",
      "from": "0xaa73aa98480757d75aae288b5931261448eb0530",
      "to": "0xa5dc2cb4dc13f12d8464eaa862fac00f19adc84d",
      "contractAddress": null
    }
  ],
  "libraries": [],
  "pending": [],
  "returns": {},
  "timestamp": 1770520661882,
  "chain": 56,
  "commit": null
}