{
  "transactions": [
    {
      "hash": "0x069af321b89c263a8e1995aaaa97209e07ecb14fea4f15c795bda2ffd0d052c5",
      "transactionType": "CALL",
      "contractName": null,
      "contractAddress": "0xa5dc2cb4dc13f12d8464eaa862fac00f19adc84d",
      "function": "trainSkill(uint8)",
      "arguments": [
        "0"
      ],
      "transaction": {
        "from": "0xec646a6c9000e04d050435340d9c42c039eb5648",
        "to": "0xa5dc2cb4dc13f12d8464eaa862fac00f19adc84d",
        "gas": "0x3aa54",
        "value": "0x0",
        "input": "0xa0a73d0d0000000000000000000000000000000000000000000000000000000000000000",
        "nonce": "0x71",
        "chainId": "0x38"
      },
      "additionalContracts": [],
      "isFixedGasLimit": false
    }
  ],
  "receipts": [
    {
      "status": "0x1",
      "cumulativeGasUsed": "0xc79849",
      "logs": [
        {
          "address": "0xa5dc2cb4dc13f12d8464eaa862fac00f19adc84d",
          "topics": [
            "0x5e5a0b90fdb27738829c217bcfc3821977755208ca0818475f4fe9af193a8a38"
          ],
          "data": "0x000000000000000000000000ec646a6c9000e04d050435340d9c42c039eb56480000000000000000000000000000000000000000000000000000000000000032",
          "blockHash": "0x576ed5a23d84da8c6042056c22da3124f55ad6a40e96c426cab3c66bc7a0a9e5",
          "blockNumber": "0x4bc969d",
          "blockTimestamp": "0x6984bac4",
          "transactionHash": "0x069af321b89c263a8e1995aaaa97209e07ecb14fea4f15c795bda2ffd0d052c5",
          "transactionIndex": "0x5e",
          "logIndex": "0x15b",
          "removed": false
        },
        {
          "address": "0xaae5ef15499c71301123ee4b13d20d570d24ad5e",
          "topics": [
            "0x6dd0730fb835f9bbe38532c3d82c7c87448bfdec295f1d7cd2d72ff339632a52"
          ],
          "data": "0x00000000000000000000000000000000000000000000000000000000000000c00000000000000000000000000000000000000000000000000000000000000100000000000000000000000000ec646a6c9000e04d050435340d9c42c039eb56480000000000000000000000000000000000000000000000000000000000000001000000000000000000000000000000000000000000000000000000006984bac4000000000000000000000000000000000000000000000000000000000000014000000000000000000000000000000000000000000000000000000000000000094b696c6c536b696c6c00000000000000000000000000000000000000000000000000000000000000000000000000000000000000000000000000000000000005547261696e0000000000000000000000000000000000000000000000000000000000000000000000000000000000000000000000000000000000000000000000",
          "blockHash": "0x576ed5a23d84da8c6042056c22da3124f55ad6a40e96c426cab3c66bc7a0a9e5",
          "blockNumber": "0x4bc969d",
          "blockTimestamp": "0x6984bac4",
          "transactionHash": "0x069af321b89c263a8e1995aaaa97209e07ecb14fea4f15c795bda2ffd0d052c5",
          "transactionIndex": "0x5e",
          "logIndex": "0x15c",
          "removed": false
        },
        {
          "address": "0xa5dc2cb4dc13f12d8464eaa862fac00f19adc84d",
          "topics": [
            "0xa2ecdf3a87e9ffdb151ad823ae834f6165f94e54e5a30467175e075254eb6376"
          ],
          "data": "0x000000000000000000000000ec646a6c9000e04d050435340d9c42c039eb56480000000000000000000000000000000000000000000000000000000000000000000000000000000000000000000000000000000000000000000000000000000100000000000000000000000000000000000000000000000000000000000000000000000000000000000000000000000000000000000000000000000000000032000000000000000000000000000000000000000000000000000000006984c550000000000000000000000000000000000000000000000000000000006984bac4",
          "blockHash": "0x576ed5a23d84da8c6042056c22da3124f55ad6a40e96c426cab3c66bc7a0a9e5",
          "blockNumber": "0x4bc969d",
          "blockTimestamp": "0x6984bac4",
          "transactionHash": "0x069af321b89c263a8e1995aaaa97209e07ecb14fea4f15c795bda2ffd0d052c5",
          "transactionIndex": "0x5e",
          "logIndex": "0x15d",
          "removed": false
        },
        {
          "address": "0xa5dc2cb4dc13f12d8464eaa862fac00f19adc84d",
          "topics": [
            "0x2f3c6b138bbc22991cb748093f24117969e5e880b28f9343c903b9473032267b"
          ],
          "data": "0x000000000000000000000000ec646a6c9000e04d050435340d9c42c039eb56480000000000000000000000000000000011c378dec06309989b67c7bec329c20600000000000000000000000000000000000000000000000000000000000000190000000000000000000000000000000000000000000000000000000000000190",
          "blockHash": "0x576ed5a23d84da8c6042056c22da3124f55ad6a40e96c426cab3c66bc7a0a9e5",
          "blockNumber": "0x4bc969d",
          "blockTimestamp": "0x6984bac4",
          "transactionHash": "0x069af321b89c263a8e1995aaaa97209e07ecb14fea4f15c795bda2ffd0d052c5",
          "transactionIndex": "0x5e",
          "logIndex": "0x15e",
          "removed": false
        }
      ],
      "logsBloom": "0x00000000000000000000010000400000001040040000000004000000000000000001000200000000000000000000000000000000000000000000000000000000000000000000000000000000000000000000000000000000000000000000000000000000000000000000010004000000000000000000000000000000000000000000000000000000000000000000080000000000000000000008000000000000000000000000000002000000000000000000002000000000000000000000000000000000000000000000000000000000000000000000000000000000000000800000000000000000000040000000402000000000000000000000000000000000",
      "type": "0x2",
      "transactionHash": "0x069af321b89c263a8e1995aaaa97209e07ecb14fea4f15c795bda2ffd0d052c5",
      "transactionIndex": "0x5e",
      "blockHash": "0x576ed5a23d84da8c6042056c22da3124f55ad6a40e96c426cab3c66bc7a0a9e5",
      "blockNumber": "0x4bc969d",
      "gasUsed": "0x355af",
      "effectiveGasPrice": "0x2faf080",
      "from": "0xec646a6c9000e04d050435340d9c42c039eb5648",
      "to": "0xa5dc2cb4dc13f12d8464eaa862fac00f19adc84d",
      "contractAddress": null
    }
  ],
  "libraries": [],
  "pending": [],
  "returns": {},
  "timestamp": 1770306245589,
  "chain": 56,
  "commit": null
}