{
  "transactions": [
    {
      "hash": "0xde318edf51ce6b5fe40efbc7d1d76838205a1e4a5e64e5c5a7396ad64a3327e3",
      "transactionType": "CALL",
      "contractName": null,
      "contractAddress": "0xa5dc2cb4dc13f12d8464eaa862fac00f19adc84d",
      "function": "trainSkill(uint8)",
      "arguments": [
        "0"
      ],
      "transaction": {
        "from": "0xac56dc5a4a9de0197f7b8f584ea04ec7e0123dde",
        "to": "0xa5dc2cb4dc13f12d8464eaa862fac00f19adc84d",
        "gas": "0x3e12f",
        "value": "0x0",
        "input": "0xa0a73d0d0000000000000000000000000000000000000000000000000000000000000000",
        "nonce": "0x97",
        "chainId": "0x38"
      },
      "additionalContracts": [],
      "isFixedGasLimit": false
    }
  ],
  "receipts": [
    {
      "status": "0x1",
      "cumulativeGasUsed": "0x78f4cc",
      "logs": [
        {
          "address": "0xaae5ef15499c71301123ee4b13d20d570d24ad5e",
          "topics": [
            "0x6dd0730fb835f9bbe38532c3d82c7c87448bfdec295f1d7cd2d72ff339632a52"
          ],
          "data": "0x00000000000000000000000000000000000000000000000000000000000000c00000000000000000000000000000000000000000000000000000000000000100000000000000000000000000ac56dc5a4a9de0197f7b8f584ea04ec7e0123dde00000000000000000000000000000000000000000000000000000000000000000000000000000000000000000000000000000000000000000000000069832b60000000000000000000000000000000000000000000000000000000000000014000000000000000000000000000000000000000000000000000000000000000094b696c6c536b696c6c00000000000000000000000000000000000000000000000000000000000000000000000000000000000000000000000000000000000005547261696e0000000000000000000000000000000000000000000000000000000000000000000000000000000000000000000000000000000000000000000000",
          "blockHash": "0x782153e382cd919fbc69fa8ed94c32bfa18494b357a7e9ec281699eb2042d6c2",
          "blockNumber": "0x4b91f41",
          "blockTimestamp": "0x69832b60",
          "transactionHash": "0xde318edf51ce6b5fe40efbc7d1d76838205a1e4a5e64e5c5a7396ad64a3327e3",
          "transactionIndex": "0x43",
          "logIndex": "0xe3",
          "removed": false
        },
        {
          "address": "0xa5dc2cb4dc13f12d8464eaa862fac00f19adc84d",
          "topics": [
            "0xa2ecdf3a87e9ffdb151ad823ae834f6165f94e54e5a30467175e075254eb6376"
          ],
          "data": "0x000000000000000000000000ac56dc5a4a9de0197f7b8f584ea04ec7e0123dde000000000000000000000000000000000000000000000000000000000000000000000000000000000000000000000000000000000000000000000000000000000000000000000000000000000000000000000000000000000000000000000000000000000000000000000000000000000000000000000000000000000000000000000000000000000000000000000000000000000000000000000000698335ec0000000000000000000000000000000000000000000000000000000069832b60",
          "blockHash": "0x782153e382cd919fbc69fa8ed94c32bfa18494b357a7e9ec281699eb2042d6c2",
          "blockNumber": "0x4b91f41",
          "blockTimestamp": "0x69832b60",
          "transactionHash": "0xde318edf51ce6b5fe40efbc7d1d76838205a1e4a5e64e5c5a7396ad64a3327e3",
          "transactionIndex": "0x43",
          "logIndex": "0xe4",
          "removed": false
        },
        {
          "address": "0xa5dc2cb4dc13f12d8464eaa862fac00f19adc84d",
          "topics": [
            "0x2f3c6b138bbc22991cb748093f24117969e5e880b28f9343c903b9473032267b"
          ],
          "data": "0x000000000000000000000000ac56dc5a4a9de0197f7b8f584ea04ec7e0123dde0000000000000000000000000000000078d53801ef229ce0e841b177c41c4b920000000000000000000000000000000000000000000000000000000000000b120000000000000000000000000000000000000000000000000000000000000190",
          "blockHash": "0x782153e382cd919fbc69fa8ed94c32bfa18494b357a7e9ec281699eb2042d6c2",
          "blockNumber": "0x4b91f41",
          "blockTimestamp": "0x69832b60",
          "transactionHash": "0xde318edf51ce6b5fe40efbc7d1d76838205a1e4a5e64e5c5a7396ad64a3327e3",
          "transactionIndex": "0x43",
          "logIndex": "0xe5",
          "removed": false
        }
      ],
      "logsBloom": "0x00000000000000000000010000000000001040040000000004000000000000000001000200000000000000000000000000000000000000000000000000000000000000000000000000000000000000000000000000000000000000000000000000000000000000000000000004000000000000000000000000000000000000000000000000000000000000000000080000000000000000000008000000000000000000000000000000000000000000000000002000000000000000000000000000000000000000000000000000000000000000000000000000000000000000800000000000000000000040000000402000000000000000000000000000000000",
      "type": "0x2",
      "transactionHash": "0xde318edf51ce6b5fe40efbc7d1d76838205a1e4a5e64e5c5a7396ad64a3327e3",
      "transactionIndex": "0x43",
      "blockHash": "0x782153e382cd919fbc69fa8ed94c32bfa18494b357a7e9ec281699eb2042d6c2",
      "blockNumber": "0x4b91f41",
      "gasUsed": "0x2a71a",
      "effectiveGasPrice": "0x2faf080",
      "from": "0xac56dc5a4a9de0197f7b8f584ea04ec7e0123dde",
      "to": "0xa5dc2cb4dc13f12d8464eaa862fac00f19adc84d",
      "contractAddress": null
    }
  ],
  "libraries": [],
  "pending": [],
  "returns": {},
  "timestamp": 1770204002234,
  "chain": 56,
  "commit": null
}