{
  "transactions": [
    {
      "hash": "0xf7ac4c1e51f10edb9ca490429b5773b3e44efa9c49c4dd60619a850c7157f803",
      "transactionType": "CALL",
      "contractName": null,
      "contractAddress": "0xa5dc2cb4dc13f12d8464eaa862fac00f19adc84d",
      "function": "trainSkill(uint8)",
      "arguments": [
        "0"
      ],
      "transaction": {
        "from": "0xec646a6c9000e04d050435340d9c42c039eb5648",
        "to": "0xa5dc2cb4dc13f12d8464eaa862fac00f19adc84d",
        "gas": "0x3d10b",
        "value": "0x0",
        "input": "0xa0a73d0d0000000000000000000000000000000000000000000000000000000000000000",
        "nonce": "0xd4",
        "chainId": "0x38"
      },
      "additionalContracts": [],
      "isFixedGasLimit": false
    }
  ],
  "receipts": [
    {
      "status": "0x1",
      "cumulativeGasUsed": "0x102f7ee",
      "logs": [
        {
          "address": "0xaae5ef15499c71301123ee4b13d20d570d24ad5e",
          "topics": [
            "0x6dd0730fb835f9bbe38532c3d82c7c87448bfdec295f1d7cd2d72ff339632a52"
          ],
          "data": "0x00000000000000000000000000000000000000000000000000000000000000c00000000000000000000000000000000000000000000000000000000000000100000000000000000000000000ec646a6c9000e04d050435340d9c42c039eb564800000000000000000000000000000000000000000000000000000000000000000000000000000000000000000000000000000000000000000000000069884be2000000000000000000000000000000000000000000000000000000000000014000000000000000000000000000000000000000000000000000000000000000094b696c6c536b696c6c00000000000000000000000000000000000000000000000000000000000000000000000000000000000000000000000000000000000005547261696e0000000000000000000000000000000000000000000000000000000000000000000000000000000000000000000000000000000000000000000000",
          "blockHash": "0xcf79ab9a1da5c1ab144a6217b1450e882ef8bf0e713cd0e8f2867fb97d3eba3c",
          "blockNumber": "0x4c48373",
          "blockTimestamp": "0x69884be2",
          "transactionHash": "0xf7ac4c1e51f10edb9ca490429b5773b3e44efa9c49c4dd60619a850c7157f803",
          "transactionIndex": "0x6a",
          "logIndex": "0x19d",
          "removed": false
        },
        {
          "address": "0xa5dc2cb4dc13f12d8464eaa862fac00f19adc84d",
          "topics": [
            "0xa2ecdf3a87e9ffdb151ad823ae834f6165f94e54e5a30467175e075254eb6376"
          ],
          "data": "0x000000000000000000000000ec646a6c9000e04d050435340d9c42c039eb56480000000000000000000000000000000000000000000000000000000000000000000000000000000000000000000000000000000000000000000000000000000000000000000000000000000000000000000000000000000000000000000000000000000000000000000000000000000000000000000000000000000000000000000000000000000000000000000000000000000000000000000000006988566e0000000000000000000000000000000000000000000000000000000069884be2",
          "blockHash": "0xcf79ab9a1da5c1ab144a6217b1450e882ef8bf0e713cd0e8f2867fb97d3eba3c",
          "blockNumber": "0x4c48373",
          "blockTimestamp": "0x69884be2",
          "transactionHash": "0xf7ac4c1e51f10edb9ca490429b5773b3e44efa9c49c4dd60619a850c7157f803",
          "transactionIndex": "0x6a",
          "logIndex": "0x19e",
          "removed": false
        },
        {
          "address": "0xa5dc2cb4dc13f12d8464eaa862fac00f19adc84d",
          "topics": [
            "0x2f3c6b138bbc22991cb748093f24117969e5e880b28f9343c903b9473032267b"
          ],
          "data": "0x000000000000000000000000ec646a6c9000e04d050435340d9c42c039eb5648000000000000000000000000000000008660699588d3a861559f9854dd0b4b62000000000000000000000000000000000000000000000000000000000000198b0000000000000000000000000000000000000000000000000000000000000190",
          "blockHash": "0xcf79ab9a1da5c1ab144a6217b1450e882ef8bf0e713cd0e8f2867fb97d3eba3c",
          "blockNumber": "0x4c48373",
          "blockTimestamp": "0x69884be2",
          "transactionHash": "0xf7ac4c1e51f10edb9ca490429b5773b3e44efa9c49c4dd60619a850c7157f803",
          "transactionIndex": "0x6a",
          "logIndex": "0x19f",
          "removed": false
        }
      ],
      "logsBloom": "0x00000000000000000000010000000000001040040000000004000000000000000001000200000000000000000000000000000000000000000000000000000000000000000000000000000000000000000000000000000000000000000000000000000000000000000000000004000000000000000000000000000000000000000000000000000000000000000000080000000000000000000008000000000000000000000000000000000000000000000000002000000000000000000000000000000000000000000000000000000000000000000000000000000000000000800000000000000000000040000000402000000000000000000000000000000000",
      "type": "0x2",
      "transactionHash": "0xf7ac4c1e51f10edb9ca490429b5773b3e44efa9c49c4dd60619a850c7157f803",
      "transactionIndex": "0x6a",
      "blockHash": "0xcf79ab9a1da5c1ab144a6217b1450e882ef8bf0e713cd0e8f2867fb97d3eba3c",
      "blockNumber": "0x4c48373",
      "gasUsed": "0x2a71a",
      "effectiveGasPrice": "0x2faf080",
      "from": "0xec646a6c9000e04d050435340d9c42c039eb5648",
      "to": "0xa5dc2cb4dc13f12d8464eaa862fac00f19adc84d",
      "contractAddress": null
    }
  ],
  "libraries": [],
  "pending": [],
  "returns": {},
  "timestamp": 1770540004588,
  "chain": 56,
  "commit": null
}