{
  "transactions": [
    {
      "hash": "0xb2934c641f0d29c749e4c10021385a5bbb86a30a659853eeb0c7c9268afa5b38",
      "transactionType": "CALL",
      "contractName": null,
      "contractAddress": "0xa5dc2cb4dc13f12d8464eaa862fac00f19adc84d",
      "function": "trainSkill(uint8)",
      "arguments": [
        "0"
      ],
      "transaction": {
        "from": "0x4c62f6121e6f967a0872da8364995e9b68c1e82f",
        "to": "0xa5dc2cb4dc13f12d8464eaa862fac00f19adc84d",
        "gas": "0x3e12f",
        "value": "0x0",
        "input": "0xa0a73d0d0000000000000000000000000000000000000000000000000000000000000000",
        "nonce": "0x1be",
        "chainId": "0x38"
      },
      "additionalContracts": [],
      "isFixedGasLimit": false
    }
  ],
  "receipts": [
    {
      "status": "0x1",
      "cumulativeGasUsed": "0x94f1ea",
      "logs": [
        {
          "address": "0xaae5ef15499c71301123ee4b13d20d570d24ad5e",
          "topics": [
            "0x6dd0730fb835f9bbe38532c3d82c7c87448bfdec295f1d7cd2d72ff339632a52"
          ],
          "data": "0x00000000000000000000000000000000000000000000000000000000000000c000000000000000000000000000000000000000000000000000000000000001000000000000000000000000004c62f6121e6f967a0872da8364995e9b68c1e82f0000000000000000000000000000000000000000000000000000000000000000000000000000000000000000000000000000000000000000000000006987f58c000000000000000000000000000000000000000000000000000000000000014000000000000000000000000000000000000000000000000000000000000000094b696c6c536b696c6c00000000000000000000000000000000000000000000000000000000000000000000000000000000000000000000000000000000000005547261696e0000000000000000000000000000000000000000000000000000000000000000000000000000000000000000000000000000000000000000000000",
          "blockHash": "0x2b12a373eee648f8be8e265f69f81c3c89dccf4e193e29f354bfa9fdfa1ad68b",
          "blockNumber": "0x4c3c39f",
          "blockTimestamp": "0x6987f58c",
          "transactionHash": "0xb2934c641f0d29c749e4c10021385a5bbb86a30a659853eeb0c7c9268afa5b38",
          "transactionIndex": "0x53",
          "logIndex": "0xc7",
          "removed": false
        },
        {
          "address": "0xa5dc2cb4dc13f12d8464eaa862fac00f19adc84d",
          "topics": [
            "0xa2ecdf3a87e9ffdb151ad823ae834f6165f94e54e5a30467175e075254eb6376"
          ],
          "data": "0x0000000000000000000000004c62f6121e6f967a0872da8364995e9b68c1e82f00000000000000000000000000000000000000000000000000000000000000000000000000000000000000000000000000000000000000000000000000000000000000000000000000000000000000000000000000000000000000000000000000000000000000000000000000000000000000000000000000000000000000000000000000000000000000000000000000000000000000000000000069880018000000000000000000000000000000000000000000000000000000006987f58c",
          "blockHash": "0x2b12a373eee648f8be8e265f69f81c3c89dccf4e193e29f354bfa9fdfa1ad68b",
          "blockNumber": "0x4c3c39f",
          "blockTimestamp": "0x6987f58c",
          "transactionHash": "0xb2934c641f0d29c749e4c10021385a5bbb86a30a659853eeb0c7c9268afa5b38",
          "transactionIndex": "0x53",
          "logIndex": "0xc8",
          "removed": false
        },
        {
          "address": "0xa5dc2cb4dc13f12d8464eaa862fac00f19adc84d",
          "topics": [
            "0x2f3c6b138bbc22991cb748093f24117969e5e880b28f9343c903b9473032267b"
          ],
          "data": "0x0000000000000000000000004c62f6121e6f967a0872da8364995e9b68c1e82f000000000000000000000000000000008cc8aabbbddb40872040a555e2da663c00000000000000000000000000000000000000000000000000000000000009010000000000000000000000000000000000000000000000000000000000000190",
          "blockHash": "0x2b12a373eee648f8be8e265f69f81c3c89dccf4e193e29f354bfa9fdfa1ad68b",
          "blockNumber": "0x4c3c39f",
          "blockTimestamp": "0x6987f58c",
          "transactionHash": "0xb2934c641f0d29c749e4c10021385a5bbb86a30a659853eeb0c7c9268afa5b38",
          "transactionIndex": "0x53",
          "logIndex": "0xc9",
          "removed": false
        }
      ],
      "logsBloom": "0x00000000000000000000010000000000001040040000000004000000000000000001000200000000000000000000000000000000000000000000000000000000000000000000000000000000000000000000000000000000000000000000000000000000000000000000000004000000000000000000000000000000000000000000000000000000000000000000080000000000000000000008000000000000000000000000000000000000000000000000002000000000000000000000000000000000000000000000000000000000000000000000000000000000000000800000000000000000000040000000402000000000000000000000000000000000",
      "type": "0x2",
      "transactionHash": "0xb2934c641f0d29c749e4c10021385a5bbb86a30a659853eeb0c7c9268afa5b38",
      "transactionIndex": "0x53",
      "blockHash": "0x2b12a373eee648f8be8e265f69f81c3c89dccf4e193e29f354bfa9fdfa1ad68b",
      "blockNumber": "0x4c3c39f",
      "gasUsed": "0x2a71a",
      "effectiveGasPrice": "0x2faf080",
      "from": "0x4c62f6121e6f967a0872da8364995e9b68c1e82f",
      "to": "0xa5dc2cb4dc13f12d8464eaa862fac00f19adc84d",
      "contractAddress": null
    }
  ],
  "libraries": [],
  "pending": [],
  "returns": {},
  "timestamp": 1770517901824,
  "chain": 56,
  "commit": null
}