{
  "transactions": [
    {
      "hash": "0xa22d799d96117dd388eec696ead0ee16200d449d2445a748c6050da25ec2415c",
      "transactionType": "CALL",
      "contractName": null,
      "contractAddress": "0xa5dc2cb4dc13f12d8464eaa862fac00f19adc84d",
      "function": "trainSkill(uint8)",
      "arguments": [
        "0"
      ],
      "transaction": {
        "from": "0x4c62f6121e6f967a0872da8364995e9b68c1e82f",
        "to": "0xa5dc2cb4dc13f12d8464eaa862fac00f19adc84d",
        "gas": "0x39e08",
        "value": "0x0",
        "input": "0xa0a73d0d0000000000000000000000000000000000000000000000000000000000000000",
        "nonce": "0xa7",
        "chainId": "0x38"
      },
      "additionalContracts": [],
      "isFixedGasLimit": false
    }
  ],
  "receipts": [
    {
      "status": "0x1",
      "cumulativeGasUsed": "0x6594cf",
      "logs": [
        {
          "address": "0xa5dc2cb4dc13f12d8464eaa862fac00f19adc84d",
          "topics": [
            "0x5e5a0b90fdb27738829c217bcfc3821977755208ca0818475f4fe9af193a8a38"
          ],
          "data": "0x0000000000000000000000004c62f6121e6f967a0872da8364995e9b68c1e82f000000000000000000000000000000000000000000000000000000000000047e",
          "blockHash": "0x41c5264620a6355eaaaaf4546a294f24a46c1b77044b3ac16bd17b09bf82504c",
          "blockNumber": "0x4a59665",
          "blockTimestamp": "0x697a6043",
          "transactionHash": "0xa22d799d96117dd388eec696ead0ee16200d449d2445a748c6050da25ec2415c",
          "transactionIndex": "0x2b",
          "logIndex": "0x9e",
          "removed": false
        },
        {
          "address": "0xaae5ef15499c71301123ee4b13d20d570d24ad5e",
          "topics": [
            "0x6dd0730fb835f9bbe38532c3d82c7c87448bfdec295f1d7cd2d72ff339632a52"
          ],
          "data": "0x00000000000000000000000000000000000000000000000000000000000000c000000000000000000000000000000000000000000000000000000000000001000000000000000000000000004c62f6121e6f967a0872da8364995e9b68c1e82f000000000000000000000000000000000000000000000000000000000000000100000000000000000000000000000000000000000000000000000000697a6043000000000000000000000000000000000000000000000000000000000000014000000000000000000000000000000000000000000000000000000000000000094b696c6c536b696c6c00000000000000000000000000000000000000000000000000000000000000000000000000000000000000000000000000000000000005547261696e0000000000000000000000000000000000000000000000000000000000000000000000000000000000000000000000000000000000000000000000",
          "blockHash": "0x41c5264620a6355eaaaaf4546a294f24a46c1b77044b3ac16bd17b09bf82504c",
          "blockNumber": "0x4a59665",
          "blockTimestamp": "0x697a6043",
          "transactionHash": "0xa22d799d96117dd388eec696ead0ee16200d449d2445a748c6050da25ec2415c",
          "transactionIndex": "0x2b",
          "logIndex": "0x9f",
          "removed": false
        },
        {
          "address": "0xa5dc2cb4dc13f12d8464eaa862fac00f19adc84d",
          "topics": [
            "0xa2ecdf3a87e9ffdb151ad823ae834f6165f94e54e5a30467175e075254eb6376"
          ],
          "data": "0x0000000000000000000000004c62f6121e6f967a0872da8364995e9b68c1e82f000000000000000000000000000000000000000000000000000000000000000000000000000000000000000000000000000000000000000000000000000000010000000000000000000000000000000000000000000000000000000000000000000000000000000000000000000000000000000000000000000000000000003200000000000000000000000000000000000000000000000000000000697a6acf00000000000000000000000000000000000000000000000000000000697a6043",
          "blockHash": "0x41c5264620a6355eaaaaf4546a294f24a46c1b77044b3ac16bd17b09bf82504c",
          "blockNumber": "0x4a59665",
          "blockTimestamp": "0x697a6043",
          "transactionHash": "0xa22d799d96117dd388eec696ead0ee16200d449d2445a748c6050da25ec2415c",
          "transactionIndex": "0x2b",
          "logIndex": "0xa0",
          "removed": false
        },
        {
          "address": "0xa5dc2cb4dc13f12d8464eaa862fac00f19adc84d",
          "topics": [
            "0x2f3c6b138bbc22991cb748093f24117969e5e880b28f9343c903b9473032267b"
          ],
          "data": "0x0000000000000000000000004c62f6121e6f967a0872da8364995e9b68c1e82f000000000000000000000000000000005614a204ee3aa2d09fdb876e317fea2d000000000000000000000000000000000000000000000000000000000000011b0000000000000000000000000000000000000000000000000000000000000190",
          "blockHash": "0x41c5264620a6355eaaaaf4546a294f24a46c1b77044b3ac16bd17b09bf82504c",
          "blockNumber": "0x4a59665",
          "blockTimestamp": "0x697a6043",
          "transactionHash": "0xa22d799d96117dd388eec696ead0ee16200d449d2445a748c6050da25ec2415c",
          "transactionIndex": "0x2b",
          "logIndex": "0xa1",
          "removed": false
        }
      ],
      "logsBloom": "0x00000000000000000000010000400000001040040000000004000000000000000001000200000000000000000000000000000000000000000000000000000000000000000000000000000000000000000000000000000000000000000000000000000000000000000000010004000000000000000000000000000000000000000000000000000000000000000000080000000000000000000008000000000000000000000000000002000000000000000000002000000000000000000000000000000000000000000000000000000000000000000000000000000000000000800000000000000000000040000000402000000000000000000000000000000000",
      "type": "0x2",
      "transactionHash": "0xa22d799d96117dd388eec696ead0ee16200d449d2445a748c6050da25ec2415c",
      "transactionIndex": "0x2b",
      "blockHash": "0x41c5264620a6355eaaaaf4546a294f24a46c1b77044b3ac16bd17b09bf82504c",
      "blockNumber": "0x4a59665",
      "gasUsed": "0x309fc",
      "effectiveGasPrice": "0x2faf080",
      "from": "0x4c62f6121e6f967a0872da8364995e9b68c1e82f",
      "to": "0xa5dc2cb4dc13f12d8464eaa862fac00f19adc84d",
      "contractAddress": null
    }
  ],
  "libraries": [],
  "pending": [],
  "returns": {},
  "timestamp": 1769627716890,
  "chain": 56,
  "commit": null
}