{
  "transactions": [
    {
      "hash": "0xff556158770b7c433d49c10d2a5f7d3ce3616dd4a30a2ecd5e0635be250a559e",
      "transactionType": "CALL",
      "contractName": null,
      "contractAddress": "0xa5dc2cb4dc13f12d8464eaa862fac00f19adc84d",
      "function": "trainSkill(uint8)",
      "arguments": [
        "0"
      ],
      "transaction": {
        "from": "0xac56dc5a4a9de0197f7b8f584ea04ec7e0123dde",
        "to": "0xa5dc2cb4dc13f12d8464eaa862fac00f19adc84d",
        "gas": "0x3d42a",
        "value": "0x0",
        "input": "0xa0a73d0d0000000000000000000000000000000000000000000000000000000000000000",
        "nonce": "0x27",
        "chainId": "0x38"
      },
      "additionalContracts": [],
      "isFixedGasLimit": false
    }
  ],
  "receipts": [
    {
      "status": "0x1",
      "cumulativeGasUsed": "0x9616e6",
      "logs": [
        {
          "address": "0xaae5ef15499c71301123ee4b13d20d570d24ad5e",
          "topics": [
            "0x6dd0730fb835f9bbe38532c3d82c7c87448bfdec295f1d7cd2d72ff339632a52"
          ],
          "data": "0x00000000000000000000000000000000000000000000000000000000000000c00000000000000000000000000000000000000000000000000000000000000100000000000000000000000000ac56dc5a4a9de0197f7b8f584ea04ec7e0123dde000000000000000000000000000000000000000000000000000000000000000000000000000000000000000000000000000000000000000000000000697a41a5000000000000000000000000000000000000000000000000000000000000014000000000000000000000000000000000000000000000000000000000000000094b696c6c536b696c6c00000000000000000000000000000000000000000000000000000000000000000000000000000000000000000000000000000000000005547261696e0000000000000000000000000000000000000000000000000000000000000000000000000000000000000000000000000000000000000000000000",
          "blockHash": "0x858991d1b25e63b12f51235e2e2ef2a515037dbf59e2c411b0c46702cf43bddb",
          "blockNumber": "0x4a5525e",
          "blockTimestamp": "0x697a41a5",
          "transactionHash": "0xff556158770b7c433d49c10d2a5f7d3ce3616dd4a30a2ecd5e0635be250a559e",
          "transactionIndex": "0x31",
          "logIndex": "0x152",
          "removed": false
        },
        {
          "address": "0xa5dc2cb4dc13f12d8464eaa862fac00f19adc84d",
          "topics": [
            "0xa2ecdf3a87e9ffdb151ad823ae834f6165f94e54e5a30467175e075254eb6376"
          ],
          "data": "0x000000000000000000000000ac56dc5a4a9de0197f7b8f584ea04ec7e0123dde000000000000000000000000000000000000000000000000000000000000000000000000000000000000000000000000000000000000000000000000000000000000000000000000000000000000000000000000000000000000000000000000000000000000000000000000000000000000000000000000000000000000000000000000000000000000000000000000000000000000000000000000697a4c3100000000000000000000000000000000000000000000000000000000697a41a5",
          "blockHash": "0x858991d1b25e63b12f51235e2e2ef2a515037dbf59e2c411b0c46702cf43bddb",
          "blockNumber": "0x4a5525e",
          "blockTimestamp": "0x697a41a5",
          "transactionHash": "0xff556158770b7c433d49c10d2a5f7d3ce3616dd4a30a2ecd5e0635be250a559e",
          "transactionIndex": "0x31",
          "logIndex": "0x153",
          "removed": false
        },
        {
          "address": "0xa5dc2cb4dc13f12d8464eaa862fac00f19adc84d",
          "topics": [
            "0x2f3c6b138bbc22991cb748093f24117969e5e880b28f9343c903b9473032267b"
          ],
          "data": "0x000000000000000000000000ac56dc5a4a9de0197f7b8f584ea04ec7e0123dde000000000000000000000000000000004492c8f4f6ac138c0c6713131f4dc69c0000000000000000000000000000000000000000000000000000000000000fe00000000000000000000000000000000000000000000000000000000000000190",
          "blockHash": "0x858991d1b25e63b12f51235e2e2ef2a515037dbf59e2c411b0c46702cf43bddb",
          "blockNumber": "0x4a5525e",
          "blockTimestamp": "0x697a41a5",
          "transactionHash": "0xff556158770b7c433d49c10d2a5f7d3ce3616dd4a30a2ecd5e0635be250a559e",
          "transactionIndex": "0x31",
          "logIndex": "0x154",
          "removed": false
        }
      ],
      "logsBloom": "0x00000000000000000000010000000000001040040000000004000000000000000001000200000000000000000000000000000000000000000000000000000000000000000000000000000000000000000000000000000000000000000000000000000000000000000000000004000000000000000000000000000000000000000000000000000000000000000000080000000000000000000008000000000000000000000000000000000000000000000000002000000000000000000000000000000000000000000000000000000000000000000000000000000000000000800000000000000000000040000000402000000000000000000000000000000000",
      "type": "0x2",
      "transactionHash": "0xff556158770b7c433d49c10d2a5f7d3ce3616dd4a30a2ecd5e0635be250a559e",
      "transactionIndex": "0x31",
      "blockHash": "0x858991d1b25e63b12f51235e2e2ef2a515037dbf59e2c411b0c46702cf43bddb",
      "blockNumber": "0x4a5525e",
      "gasUsed": "0x29e33",
      "effectiveGasPrice": "0x2faf080",
      "from": "0xac56dc5a4a9de0197f7b8f584ea04ec7e0123dde",
      "to": "0xa5dc2cb4dc13f12d8464eaa862fac00f19adc84d",
      "contractAddress": null
    }
  ],
  "libraries": [],
  "pending": [],
  "returns": {},
  "timestamp": 1769619879356,
  "chain": 56,
  "commit": null
}