{
  "transactions": [
    {
      "hash": "0x0fdba6b7b88b3780e5ada94ffc54a2c4a058306066ce0eaedd9cef123491e919",
      "transactionType": "CALL",
      "contractName": null,
      "contractAddress": "0xa5dc2cb4dc13f12d8464eaa862fac00f19adc84d",
      "function": "trainSkill(uint8)",
      "arguments": [
        "0"
      ],
      "transaction": {
        "from": "0xeca7a53ba6a190c5d205bfdc7707cbc3399336c1",
        "to": "0xa5dc2cb4dc13f12d8464eaa862fac00f19adc84d",
        "gas": "0x3e12f",
        "value": "0x0",
        "input": "0xa0a73d0d0000000000000000000000000000000000000000000000000000000000000000",
        "nonce": "0x28e",
        "chainId": "0x38"
      },
      "additionalContracts": [],
      "isFixedGasLimit": false
    }
  ],
  "receipts": [
    {
      "status": "0x1",
      "cumulativeGasUsed": "0xd11170",
      "logs": [
        {
          "address": "0xaae5ef15499c71301123ee4b13d20d570d24ad5e",
          "topics": [
            "0x6dd0730fb835f9bbe38532c3d82c7c87448bfdec295f1d7cd2d72ff339632a52"
          ],
          "data": "0x00000000000000000000000000000000000000000000000000000000000000c00000000000000000000000000000000000000000000000000000000000000100000000000000000000000000eca7a53ba6a190c5d205bfdc7707cbc3399336c1000000000000000000000000000000000000000000000000000000000000000000000000000000000000000000000000000000000000000000000000698345bf000000000000000000000000000000000000000000000000000000000000014000000000000000000000000000000000000000000000000000000000000000094b696c6c536b696c6c00000000000000000000000000000000000000000000000000000000000000000000000000000000000000000000000000000000000005547261696e0000000000000000000000000000000000000000000000000000000000000000000000000000000000000000000000000000000000000000000000",
          "blockHash": "0xce471f1e3fa6ba225c80789be29ac8e0dadb42e6e91cf248cbb4b0ab5689e4d0",
          "blockNumber": "0x4b959da",
          "blockTimestamp": "0x698345bf",
          "transactionHash": "0x0fdba6b7b88b3780e5ada94ffc54a2c4a058306066ce0eaedd9cef123491e919",
          "transactionIndex": "0x57",
          "logIndex": "0x1b9",
          "removed": false
        },
        {
          "address": "0xa5dc2cb4dc13f12d8464eaa862fac00f19adc84d",
          "topics": [
            "0xa2ecdf3a87e9ffdb151ad823ae834f6165f94e54e5a30467175e075254eb6376"
          ],
          "data": "0x000000000000000000000000eca7a53ba6a190c5d205bfdc7707cbc3399336c10000000000000000000000000000000000000000000000000000000000000000000000000000000000000000000000000000000000000000000000000000000000000000000000000000000000000000000000000000000000000000000000000000000000000000000000000000000000000000000000000000000000000000000000000000000000000000000000000000000000000000000000006983504b00000000000000000000000000000000000000000000000000000000698345bf",
          "blockHash": "0xce471f1e3fa6ba225c80789be29ac8e0dadb42e6e91cf248cbb4b0ab5689e4d0",
          "blockNumber": "0x4b959da",
          "blockTimestamp": "0x698345bf",
          "transactionHash": "0x0fdba6b7b88b3780e5ada94ffc54a2c4a058306066ce0eaedd9cef123491e919",
          "transactionIndex": "0x57",
          "logIndex": "0x1ba",
          "removed": false
        },
        {
          "address": "0xa5dc2cb4dc13f12d8464eaa862fac00f19adc84d",
          "topics": [
            "0x2f3c6b138bbc22991cb748093f24117969e5e880b28f9343c903b9473032267b"
          ],
          "data": "0x000000000000000000000000eca7a53ba6a190c5d205bfdc7707cbc3399336c100000000000000000000000000000000a3387222db60454427edab7741b4445f00000000000000000000000000000000000000000000000000000000000002c50000000000000000000000000000000000000000000000000000000000000190",
          "blockHash": "0xce471f1e3fa6ba225c80789be29ac8e0dadb42e6e91cf248cbb4b0ab5689e4d0",
          "blockNumber": "0x4b959da",
          "blockTimestamp": "0x698345bf",
          "transactionHash": "0x0fdba6b7b88b3780e5ada94ffc54a2c4a058306066ce0eaedd9cef123491e919",
          "transactionIndex": "0x57",
          "logIndex": "0x1bb",
          "removed": false
        }
      ],
      "logsBloom": "0x00000000000000000000010000000000001040040000000004000000000000000001000200000000000000000000000000000000000000000000000000000000000000000000000000000000000000000000000000000000000000000000000000000000000000000000000004000000000000000000000000000000000000000000000000000000000000000000080000000000000000000008000000000000000000000000000000000000000000000000002000000000000000000000000000000000000000000000000000000000000000000000000000000000000000800000000000000000000040000000402000000000000000000000000000000000",
      "type": "0x2",
      "transactionHash": "0x0fdba6b7b88b3780e5ada94ffc54a2c4a058306066ce0eaedd9cef123491e919",
      "transactionIndex": "0x57",
      "blockHash": "0xce471f1e3fa6ba225c80789be29ac8e0dadb42e6e91cf248cbb4b0ab5689e4d0",
      "blockNumber": "0x4b959da",
      "gasUsed": "0x2a71a",
      "effectiveGasPrice": "0x2faf080",
      "from": "0xeca7a53ba6a190c5d205bfdc7707cbc3399336c1",
      "to": "0xa5dc2cb4dc13f12d8464eaa862fac00f19adc84d",
      "contractAddress": null
    }
  ],
  "libraries": [],
  "pending": [],
  "returns": {},
  "timestamp": 1770210753755,
  "chain": 56,
  "commit": null
}