{
  "transactions": [
    {
      "hash": "0xf4c94ba7b56ecd89553115284cf534298522b38db2b75164a624821105e695c2",
      "transactionType": "CALL",
      "contractName": null,
      "contractAddress": "0xa5dc2cb4dc13f12d8464eaa862fac00f19adc84d",
      "function": "trainSkill(uint8)",
      "arguments": [
        "0"
      ],
      "transaction": {
        "from": "0xac56dc5a4a9de0197f7b8f584ea04ec7e0123dde",
        "to": "0xa5dc2cb4dc13f12d8464eaa862fac00f19adc84d",
        "gas": "0x3e12f",
        "value": "0x0",
        "input": "0xa0a73d0d0000000000000000000000000000000000000000000000000000000000000000",
        "nonce": "0xe2",
        "chainId": "0x38"
      },
      "additionalContracts": [],
      "isFixedGasLimit": false
    }
  ],
  "receipts": [
    {
      "status": "0x1",
      "cumulativeGasUsed": "0x968348",
      "logs": [
        {
          "address": "0xaae5ef15499c71301123ee4b13d20d570d24ad5e",
          "topics": [
            "0x6dd0730fb835f9bbe38532c3d82c7c87448bfdec295f1d7cd2d72ff339632a52"
          ],
          "data": "0x00000000000000000000000000000000000000000000000000000000000000c00000000000000000000000000000000000000000000000000000000000000100000000000000000000000000ac56dc5a4a9de0197f7b8f584ea04ec7e0123dde0000000000000000000000000000000000000000000000000000000000000000000000000000000000000000000000000000000000000000000000006985e47b000000000000000000000000000000000000000000000000000000000000014000000000000000000000000000000000000000000000000000000000000000094b696c6c536b696c6c00000000000000000000000000000000000000000000000000000000000000000000000000000000000000000000000000000000000005547261696e0000000000000000000000000000000000000000000000000000000000000000000000000000000000000000000000000000000000000000000000",
          "blockHash": "0x56b0a6e53b1b03756552dc9bf6bbefa9237c4209c721138e035b47ba59f27067",
          "blockNumber": "0x4bf2c22",
          "blockTimestamp": "0x6985e47b",
          "transactionHash": "0xf4c94ba7b56ecd89553115284cf534298522b38db2b75164a624821105e695c2",
          "transactionIndex": "0x54",
          "logIndex": "0x106",
          "removed": false
        },
        {
          "address": "0xa5dc2cb4dc13f12d8464eaa862fac00f19adc84d",
          "topics": [
            "0xa2ecdf3a87e9ffdb151ad823ae834f6165f94e54e5a30467175e075254eb6376"
          ],
          "data": "0x000000000000000000000000ac56dc5a4a9de0197f7b8f584ea04ec7e0123dde0000000000000000000000000000000000000000000000000000000000000000000000000000000000000000000000000000000000000000000000000000000000000000000000000000000000000000000000000000000000000000000000000000000000000000000000000000000000000000000000000000000000000000000000000000000000000000000000000000000000000000000000006985ef07000000000000000000000000000000000000000000000000000000006985e47b",
          "blockHash": "0x56b0a6e53b1b03756552dc9bf6bbefa9237c4209c721138e035b47ba59f27067",
          "blockNumber": "0x4bf2c22",
          "blockTimestamp": "0x6985e47b",
          "transactionHash": "0xf4c94ba7b56ecd89553115284cf534298522b38db2b75164a624821105e695c2",
          "transactionIndex": "0x54",
          "logIndex": "0x107",
          "removed": false
        },
        {
          "address": "0xa5dc2cb4dc13f12d8464eaa862fac00f19adc84d",
          "topics": [
            "0x2f3c6b138bbc22991cb748093f24117969e5e880b28f9343c903b9473032267b"
          ],
          "data": "0x000000000000000000000000ac56dc5a4a9de0197f7b8f584ea04ec7e0123dde000000000000000000000000000000002532700ad1c0e3553afe548d01b81ada00000000000000000000000000000000000000000000000000000000000001a40000000000000000000000000000000000000000000000000000000000000190",
          "blockHash": "0x56b0a6e53b1b03756552dc9bf6bbefa9237c4209c721138e035b47ba59f27067",
          "blockNumber": "0x4bf2c22",
          "blockTimestamp": "0x6985e47b",
          "transactionHash": "0xf4c94ba7b56ecd89553115284cf534298522b38db2b75164a624821105e695c2",
          "transactionIndex": "0x54",
          "logIndex": "0x108",
          "removed": false
        }
      ],
      "logsBloom": "0x00000000000000000000010000000000001040040000000004000000000000000001000200000000000000000000000000000000000000000000000000000000000000000000000000000000000000000000000000000000000000000000000000000000000000000000000004000000000000000000000000000000000000000000000000000000000000000000080000000000000000000008000000000000000000000000000000000000000000000000002000000000000000000000000000000000000000000000000000000000000000000000000000000000000000800000000000000000000040000000402000000000000000000000000000000000",
      "type": "0x2",
      "transactionHash": "0xf4c94ba7b56ecd89553115284cf534298522b38db2b75164a624821105e695c2",
      "transactionIndex": "0x54",
      "blockHash": "0x56b0a6e53b1b03756552dc9bf6bbefa9237c4209c721138e035b47ba59f27067",
      "blockNumber": "0x4bf2c22",
      "gasUsed": "0x2a71a",
      "effectiveGasPrice": "0x2faf080",
      "from": "0xac56dc5a4a9de0197f7b8f584ea04ec7e0123dde",
      "to": "0xa5dc2cb4dc13f12d8464eaa862fac00f19adc84d",
      "contractAddress": null
    }
  ],
  "libraries": [],
  "pending": [],
  "returns": {},
  "timestamp": 1770382461268,
  "chain": 56,
  "commit": null
}