{
  "transactions": [
    {
      "hash": "0x8bb95721d964878e559d3d7b38b3f000c53dd0e61458be167921d2e3823b103d",
      "transactionType": "CALL",
      "contractName": null,
      "contractAddress": "0xa5dc2cb4dc13f12d8464eaa862fac00f19adc84d",
      "function": "trainSkill(uint8)",
      "arguments": [
        "0"
      ],
      "transaction": {
        "from": "0xeca7a53ba6a190c5d205bfdc7707cbc3399336c1",
        "to": "0xa5dc2cb4dc13f12d8464eaa862fac00f19adc84d",
        "gas": "0x39e08",
        "value": "0x0",
        "input": "0xa0a73d0d0000000000000000000000000000000000000000000000000000000000000000",
        "nonce": "0x20f",
        "chainId": "0x38"
      },
      "additionalContracts": [],
      "isFixedGasLimit": false
    }
  ],
  "receipts": [
    {
      "status": "0x1",
      "cumulativeGasUsed": "0x9b6801",
      "logs": [
        {
          "address": "0xaae5ef15499c71301123ee4b13d20d570d24ad5e",
          "topics": [
            "0x6dd0730fb835f9bbe38532c3d82c7c87448bfdec295f1d7cd2d72ff339632a52"
          ],
          "data": "0x00000000000000000000000000000000000000000000000000000000000000c00000000000000000000000000000000000000000000000000000000000000100000000000000000000000000eca7a53ba6a190c5d205bfdc7707cbc3399336c1000000000000000000000000000000000000000000000000000000000000000000000000000000000000000000000000000000000000000000000000697a558a000000000000000000000000000000000000000000000000000000000000014000000000000000000000000000000000000000000000000000000000000000094b696c6c536b696c6c00000000000000000000000000000000000000000000000000000000000000000000000000000000000000000000000000000000000005547261696e0000000000000000000000000000000000000000000000000000000000000000000000000000000000000000000000000000000000000000000000",
          "blockHash": "0x9a4a33f084d8dd813ab8d5756eff3a3aa84fb765f43c9290e1c9c21a5f80504f",
          "blockNumber": "0x4a57e92",
          "blockTimestamp": "0x697a558a",
          "transactionHash": "0x8bb95721d964878e559d3d7b38b3f000c53dd0e61458be167921d2e3823b103d",
          "transactionIndex": "0x5a",
          "logIndex": "0x132",
          "removed": false
        },
        {
          "address": "0xa5dc2cb4dc13f12d8464eaa862fac00f19adc84d",
          "topics": [
            "0xa2ecdf3a87e9ffdb151ad823ae834f6165f94e54e5a30467175e075254eb6376"
          ],
          "data": "0x000000000000000000000000eca7a53ba6a190c5d205bfdc7707cbc3399336c1000000000000000000000000000000000000000000000000000000000000000000000000000000000000000000000000000000000000000000000000000000000000000000000000000000000000000000000000000000000000000000000000000000000000000000000000000000000000000000000000000000000000000000000000000000000000000000000000000000000000000000000000697a601600000000000000000000000000000000000000000000000000000000697a558a",
          "blockHash": "0x9a4a33f084d8dd813ab8d5756eff3a3aa84fb765f43c9290e1c9c21a5f80504f",
          "blockNumber": "0x4a57e92",
          "blockTimestamp": "0x697a558a",
          "transactionHash": "0x8bb95721d964878e559d3d7b38b3f000c53dd0e61458be167921d2e3823b103d",
          "transactionIndex": "0x5a",
          "logIndex": "0x133",
          "removed": false
        },
        {
          "address": "0xa5dc2cb4dc13f12d8464eaa862fac00f19adc84d",
          "topics": [
            "0x2f3c6b138bbc22991cb748093f24117969e5e880b28f9343c903b9473032267b"
          ],
          "data": "0x000000000000000000000000eca7a53ba6a190c5d205bfdc7707cbc3399336c1000000000000000000000000000000008e721170f2d7c6f94e3651644d4571950000000000000000000000000000000000000000000000000000000000000fcd0000000000000000000000000000000000000000000000000000000000000190",
          "blockHash": "0x9a4a33f084d8dd813ab8d5756eff3a3aa84fb765f43c9290e1c9c21a5f80504f",
          "blockNumber": "0x4a57e92",
          "blockTimestamp": "0x697a558a",
          "transactionHash": "0x8bb95721d964878e559d3d7b38b3f000c53dd0e61458be167921d2e3823b103d",
          "transactionIndex": "0x5a",
          "logIndex": "0x134",
          "removed": false
        }
      ],
      "logsBloom": "0x00000000000000000000010000000000001040040000000004000000000000000001000200000000000000000000000000000000000000000000000000000000000000000000000000000000000000000000000000000000000000000000000000000000000000000000000004000000000000000000000000000000000000000000000000000000000000000000080000000000000000000008000000000000000000000000000000000000000000000000002000000000000000000000000000000000000000000000000000000000000000000000000000000000000000800000000000000000000040000000402000000000000000000000000000000000",
      "type": "0x2",
      "transactionHash": "0x8bb95721d964878e559d3d7b38b3f000c53dd0e61458be167921d2e3823b103d",
      "transactionIndex": "0x5a",
      "blockHash": "0x9a4a33f084d8dd813ab8d5756eff3a3aa84fb765f43c9290e1c9c21a5f80504f",
      "blockNumber": "0x4a57e92",
      "gasUsed": "0x29e6f",
      "effectiveGasPrice": "0x2faf080",
      "from": "0xeca7a53ba6a190c5d205bfdc7707cbc3399336c1",
      "to": "0xa5dc2cb4dc13f12d8464eaa862fac00f19adc84d",
      "contractAddress": null
    }
  ],
  "libraries": [],
  "pending": [],
  "returns": {},
  "timestamp": 1769624972311,
  "chain": 56,
  "commit": null
}