{
  "transactions": [
    {
      "hash": "0x3cadd3afb5c806d55638be75f8cc1ec64ce13a8eb80e13a8034bad0cb7eae21b",
      "transactionType": "CALL",
      "contractName": null,
      "contractAddress": "0xa5dc2cb4dc13f12d8464eaa862fac00f19adc84d",
      "function": "trainSkill(uint8)",
      "arguments": [
        "0"
      ],
      "transaction": {
        "from": "0xac56dc5a4a9de0197f7b8f584ea04ec7e0123dde",
        "to": "0xa5dc2cb4dc13f12d8464eaa862fac00f19adc84d",
        "gas": "0x3e12f",
        "value": "0x0",
        "input": "0xa0a73d0d0000000000000000000000000000000000000000000000000000000000000000",
        "nonce": "0xff",
        "chainId": "0x38"
      },
      "additionalContracts": [],
      "isFixedGasLimit": false
    }
  ],
  "receipts": [
    {
      "status": "0x1",
      "cumulativeGasUsed": "0xd41c5b",
      "logs": [
        {
          "address": "0xaae5ef15499c71301123ee4b13d20d570d24ad5e",
          "topics": [
            "0x6dd0730fb835f9bbe38532c3d82c7c87448bfdec295f1d7cd2d72ff339632a52"
          ],
          "data": "0x00000000000000000000000000000000000000000000000000000000000000c00000000000000000000000000000000000000000000000000000000000000100000000000000000000000000ac56dc5a4a9de0197f7b8f584ea04ec7e0123dde0000000000000000000000000000000000000000000000000000000000000000000000000000000000000000000000000000000000000000000000006987981d000000000000000000000000000000000000000000000000000000000000014000000000000000000000000000000000000000000000000000000000000000094b696c6c536b696c6c00000000000000000000000000000000000000000000000000000000000000000000000000000000000000000000000000000000000005547261696e0000000000000000000000000000000000000000000000000000000000000000000000000000000000000000000000000000000000000000000000",
          "blockHash": "0x86ab50b3ba0df19f60877a80cbd3111fc3ec9d92c9c3f364f945dbfd4f44c508",
          "blockNumber": "0x4c2f400",
          "blockTimestamp": "0x6987981d",
          "transactionHash": "0x3cadd3afb5c806d55638be75f8cc1ec64ce13a8eb80e13a8034bad0cb7eae21b",
          "transactionIndex": "0x57",
          "logIndex": "0x19e",
          "removed": false
        },
        {
          "address": "0xa5dc2cb4dc13f12d8464eaa862fac00f19adc84d",
          "topics": [
            "0xa2ecdf3a87e9ffdb151ad823ae834f6165f94e54e5a30467175e075254eb6376"
          ],
          "data": "0x000000000000000000000000ac56dc5a4a9de0197f7b8f584ea04ec7e0123dde0000000000000000000000000000000000000000000000000000000000000000000000000000000000000000000000000000000000000000000000000000000000000000000000000000000000000000000000000000000000000000000000000000000000000000000000000000000000000000000000000000000000000000000000000000000000000000000000000000000000000000000000006987a2a9000000000000000000000000000000000000000000000000000000006987981d",
          "blockHash": "0x86ab50b3ba0df19f60877a80cbd3111fc3ec9d92c9c3f364f945dbfd4f44c508",
          "blockNumber": "0x4c2f400",
          "blockTimestamp": "0x6987981d",
          "transactionHash": "0x3cadd3afb5c806d55638be75f8cc1ec64ce13a8eb80e13a8034bad0cb7eae21b",
          "transactionIndex": "0x57",
          "logIndex": "0x19f",
          "removed": false
        },
        {
          "address": "0xa5dc2cb4dc13f12d8464eaa862fac00f19adc84d",
          "topics": [
            "0x2f3c6b138bbc22991cb748093f24117969e5e880b28f9343c903b9473032267b"
          ],
          "data": "0x000000000000000000000000ac56dc5a4a9de0197f7b8f584ea04ec7e0123dde0000000000000000000000000000000080e19f46a8fb9833344755b8ecc2d82500000000000000000000000000000000000000000000000000000000000020710000000000000000000000000000000000000000000000000000000000000190",
          "blockHash": "0x86ab50b3ba0df19f60877a80cbd3111fc3ec9d92c9c3f364f945dbfd4f44c508",
          "blockNumber": "0x4c2f400",
          "blockTimestamp": "0x6987981d",
          "transactionHash": "0x3cadd3afb5c806d55638be75f8cc1ec64ce13a8eb80e13a8034bad0cb7eae21b",
          "transactionIndex": "0x57",
          "logIndex": "0x1a0",
          "removed": false
        }
      ],
      "logsBloom": "0x00000000000000000000010000000000001040040000000004000000000000000001000200000000000000000000000000000000000000000000000000000000000000000000000000000000000000000000000000000000000000000000000000000000000000000000000004000000000000000000000000000000000000000000000000000000000000000000080000000000000000000008000000000000000000000000000000000000000000000000002000000000000000000000000000000000000000000000000000000000000000000000000000000000000000800000000000000000000040000000402000000000000000000000000000000000",
      "type": "0x2",
      "transactionHash": "0x3cadd3afb5c806d55638be75f8cc1ec64ce13a8eb80e13a8034bad0cb7eae21b",
      "transactionIndex": "0x57",
      "blockHash": "0x86ab50b3ba0df19f60877a80cbd3111fc3ec9d92c9c3f364f945dbfd4f44c508",
      "blockNumber": "0x4c2f400",
      "gasUsed": "0x2a71a",
      "effectiveGasPrice": "0x2faf080",
      "from": "0xac56dc5a4a9de0197f7b8f584ea04ec7e0123dde",
      "to": "0xa5dc2cb4dc13f12d8464eaa862fac00f19adc84d",
      "contractAddress": null
    }
  ],
  "libraries": [],
  "pending": [],
  "returns": {},
  "timestamp": 1770493983580,
  "chain": 56,
  "commit": null
}