{
  "transactions": [
    {
      "hash": "0x5622d28a5a41235a17ac9b9902719ac489446f2b40af93ef98ad267bb9ba01fc",
      "transactionType": "CALL",
      "contractName": null,
      "contractAddress": "0xa5dc2cb4dc13f12d8464eaa862fac00f19adc84d",
      "function": "trainSkill(uint8)",
      "arguments": [
        "0"
      ],
      "transaction": {
        "from": "0xec646a6c9000e04d050435340d9c42c039eb5648",
        "to": "0xa5dc2cb4dc13f12d8464eaa862fac00f19adc84d",
        "gas": "0x3aa54",
        "value": "0x0",
        "input": "0xa0a73d0d0000000000000000000000000000000000000000000000000000000000000000",
        "nonce": "0x58",
        "chainId": "0x38"
      },
      "additionalContracts": [],
      "isFixedGasLimit": false
    }
  ],
  "receipts": [
    {
      "status": "0x1",
      "cumulativeGasUsed": "0x60a24e",
      "logs": [
        {
          "address": "0xaae5ef15499c71301123ee4b13d20d570d24ad5e",
          "topics": [
            "0x6dd0730fb835f9bbe38532c3d82c7c87448bfdec295f1d7cd2d72ff339632a52"
          ],
          "data": "0x00000000000000000000000000000000000000000000000000000000000000c00000000000000000000000000000000000000000000000000000000000000100000000000000000000000000ec646a6c9000e04d050435340d9c42c039eb564800000000000000000000000000000000000000000000000000000000000000000000000000000000000000000000000000000000000000000000000069839152000000000000000000000000000000000000000000000000000000000000014000000000000000000000000000000000000000000000000000000000000000094b696c6c536b696c6c00000000000000000000000000000000000000000000000000000000000000000000000000000000000000000000000000000000000005547261696e0000000000000000000000000000000000000000000000000000000000000000000000000000000000000000000000000000000000000000000000",
          "blockHash": "0x8bede1d251b18eb8876d41fd830c3972584c0924e10f722afbaf53f6f8a33bf1",
          "blockNumber": "0x4ba01be",
          "blockTimestamp": "0x69839152",
          "transactionHash": "0x5622d28a5a41235a17ac9b9902719ac489446f2b40af93ef98ad267bb9ba01fc",
          "transactionIndex": "0x3f",
          "logIndex": "0xaf",
          "removed": false
        },
        {
          "address": "0xa5dc2cb4dc13f12d8464eaa862fac00f19adc84d",
          "topics": [
            "0xa2ecdf3a87e9ffdb151ad823ae834f6165f94e54e5a30467175e075254eb6376"
          ],
          "data": "0x000000000000000000000000ec646a6c9000e04d050435340d9c42c039eb564800000000000000000000000000000000000000000000000000000000000000000000000000000000000000000000000000000000000000000000000000000000000000000000000000000000000000000000000000000000000000000000000000000000000000000000000000000000000000000000000000000000000000000000000000000000000000000000000000000000000000000000000069839bde0000000000000000000000000000000000000000000000000000000069839152",
          "blockHash": "0x8bede1d251b18eb8876d41fd830c3972584c0924e10f722afbaf53f6f8a33bf1",
          "blockNumber": "0x4ba01be",
          "blockTimestamp": "0x69839152",
          "transactionHash": "0x5622d28a5a41235a17ac9b9902719ac489446f2b40af93ef98ad267bb9ba01fc",
          "transactionIndex": "0x3f",
          "logIndex": "0xb0",
          "removed": false
        },
        {
          "address": "0xa5dc2cb4dc13f12d8464eaa862fac00f19adc84d",
          "topics": [
            "0x2f3c6b138bbc22991cb748093f24117969e5e880b28f9343c903b9473032267b"
          ],
          "data": "0x000000000000000000000000ec646a6c9000e04d050435340d9c42c039eb564800000000000000000000000000000000b0fd141cf66260ea06fcbd96ff05f3e00000000000000000000000000000000000000000000000000000000000000e9f0000000000000000000000000000000000000000000000000000000000000190",
          "blockHash": "0x8bede1d251b18eb8876d41fd830c3972584c0924e10f722afbaf53f6f8a33bf1",
          "blockNumber": "0x4ba01be",
          "blockTimestamp": "0x69839152",
          "transactionHash": "0x5622d28a5a41235a17ac9b9902719ac489446f2b40af93ef98ad267bb9ba01fc",
          "transactionIndex": "0x3f",
          "logIndex": "0xb1",
          "removed": false
        }
      ],
      "logsBloom": "0x00000000000000000000010000000000001040040000000004000000000000000001000200000000000000000000000000000000000000000000000000000000000000000000000000000000000000000000000000000000000000000000000000000000000000000000000004000000000000000000000000000000000000000000000000000000000000000000080000000000000000000008000000000000000000000000000000000000000000000000002000000000000000000000000000000000000000000000000000000000000000000000000000000000000000800000000000000000000040000000402000000000000000000000000000000000",
      "type": "0x2",
      "transactionHash": "0x5622d28a5a41235a17ac9b9902719ac489446f2b40af93ef98ad267bb9ba01fc",
      "transactionIndex": "0x3f",
      "blockHash": "0x8bede1d251b18eb8876d41fd830c3972584c0924e10f722afbaf53f6f8a33bf1",
      "blockNumber": "0x4ba01be",
      "gasUsed": "0x2a756",
      "effectiveGasPrice": "0x2faf080",
      "from": "0xec646a6c9000e04d050435340d9c42c039eb5648",
      "to": "0xa5dc2cb4dc13f12d8464eaa862fac00f19adc84d",
      "contractAddress": null
    }
  ],
  "libraries": [],
  "pending": [],
  "returns": {},
  "timestamp": 1770230100543,
  "chain": 56,
  "commit": null
}