{
  "transactions": [
    {
      "hash": "0xed007a4d1df5bf952b2bad62a54ab43bafaa1b7690a47bd8d029c78c80bb55d5",
      "transactionType": "CALL",
      "contractName": null,
      "contractAddress": "0xa5dc2cb4dc13f12d8464eaa862fac00f19adc84d",
      "function": "trainSkill(uint8)",
      "arguments": [
        "0"
      ],
      "transaction": {
        "from": "0x4c62f6121e6f967a0872da8364995e9b68c1e82f",
        "to": "0xa5dc2cb4dc13f12d8464eaa862fac00f19adc84d",
        "gas": "0x3e12f",
        "value": "0x0",
        "input": "0xa0a73d0d0000000000000000000000000000000000000000000000000000000000000000",
        "nonce": "0x178",
        "chainId": "0x38"
      },
      "additionalContracts": [],
      "isFixedGasLimit": false
    }
  ],
  "receipts": [
    {
      "status": "0x1",
      "cumulativeGasUsed": "0x1770234",
      "logs": [
        {
          "address": "0xaae5ef15499c71301123ee4b13d20d570d24ad5e",
          "topics": [
            "0x6dd0730fb835f9bbe38532c3d82c7c87448bfdec295f1d7cd2d72ff339632a52"
          ],
          "data": "0x00000000000000000000000000000000000000000000000000000000000000c000000000000000000000000000000000000000000000000000000000000001000000000000000000000000004c62f6121e6f967a0872da8364995e9b68c1e82f0000000000000000000000000000000000000000000000000000000000000000000000000000000000000000000000000000000000000000000000006985b54b000000000000000000000000000000000000000000000000000000000000014000000000000000000000000000000000000000000000000000000000000000094b696c6c536b696c6c00000000000000000000000000000000000000000000000000000000000000000000000000000000000000000000000000000000000005547261696e0000000000000000000000000000000000000000000000000000000000000000000000000000000000000000000000000000000000000000000000",
          "blockHash": "0xb13609e6a9b65219a07198766d6efbc72fef960a90d05aca83483bef522921e6",
          "blockNumber": "0x4bec348",
          "blockTimestamp": "0x6985b54b",
          "transactionHash": "0xed007a4d1df5bf952b2bad62a54ab43bafaa1b7690a47bd8d029c78c80bb55d5",
          "transactionIndex": "0x9b",
          "logIndex": "0x2d7",
          "removed": false
        },
        {
          "address": "0xa5dc2cb4dc13f12d8464eaa862fac00f19adc84d",
          "topics": [
            "0xa2ecdf3a87e9ffdb151ad823ae834f6165f94e54e5a30467175e075254eb6376"
          ],
          "data": "0x0000000000000000000000004c62f6121e6f967a0872da8364995e9b68c1e82f0000000000000000000000000000000000000000000000000000000000000000000000000000000000000000000000000000000000000000000000000000000000000000000000000000000000000000000000000000000000000000000000000000000000000000000000000000000000000000000000000000000000000000000000000000000000000000000000000000000000000000000000006985bfd7000000000000000000000000000000000000000000000000000000006985b54b",
          "blockHash": "0xb13609e6a9b65219a07198766d6efbc72fef960a90d05aca83483bef522921e6",
          "blockNumber": "0x4bec348",
          "blockTimestamp": "0x6985b54b",
          "transactionHash": "0xed007a4d1df5bf952b2bad62a54ab43bafaa1b7690a47bd8d029c78c80bb55d5",
          "transactionIndex": "0x9b",
          "logIndex": "0x2d8",
          "removed": false
        },
        {
          "address": "0xa5dc2cb4dc13f12d8464eaa862fac00f19adc84d",
          "topics": [
            "0x2f3c6b138bbc22991cb748093f24117969e5e880b28f9343c903b9473032267b"
          ],
          "data": "0x0000000000000000000000004c62f6121e6f967a0872da8364995e9b68c1e82f0000000000000000000000000000000002dee9b3f377e11e4c182e494589d454000000000000000000000000000000000000000000000000000000000000028b0000000000000000000000000000000000000000000000000000000000000190",
          "blockHash": "0xb13609e6a9b65219a07198766d6efbc72fef960a90d05aca83483bef522921e6",
          "blockNumber": "0x4bec348",
          "blockTimestamp": "0x6985b54b",
          "transactionHash": "0xed007a4d1df5bf952b2bad62a54ab43bafaa1b7690a47bd8d029c78c80bb55d5",
          "transactionIndex": "0x9b",
          "logIndex": "0x2d9",
          "removed": false
        }
      ],
      "logsBloom": "0x00000000000000000000010000000000001040040000000004000000000000000001000200000000000000000000000000000000000000000000000000000000000000000000000000000000000000000000000000000000000000000000000000000000000000000000000004000000000000000000000000000000000000000000000000000000000000000000080000000000000000000008000000000000000000000000000000000000000000000000002000000000000000000000000000000000000000000000000000000000000000000000000000000000000000800000000000000000000040000000402000000000000000000000000000000000",
      "type": "0x2",
      "transactionHash": "0xed007a4d1df5bf952b2bad62a54ab43bafaa1b7690a47bd8d029c78c80bb55d5",
      "transactionIndex": "0x9b",
      "blockHash": "0xb13609e6a9b65219a07198766d6efbc72fef960a90d05aca83483bef522921e6",
      "blockNumber": "0x4bec348",
      "gasUsed": "0x2a71a",
      "effectiveGasPrice": "0x2faf080",
      "from": "0x4c62f6121e6f967a0872da8364995e9b68c1e82f",
      "to": "0xa5dc2cb4dc13f12d8464eaa862fac00f19adc84d",
      "contractAddress": null
    }
  ],
  "libraries": [],
  "pending": [],
  "returns": {},
  "timestamp": 1770370381167,
  "chain": 56,
  "commit": null
}