{
  "transactions": [
    {
      "hash": "0x1f5db2076b59adfce1d40e4471e4827d6d458a7aa345de5ef2fb8d5d7fc49866",
      "transactionType": "CALL",
      "contractName": null,
      "contractAddress": "0xa5dc2cb4dc13f12d8464eaa862fac00f19adc84d",
      "function": "trainSkill(uint8)",
      "arguments": [
        "0"
      ],
      "transaction": {
        "from": "0xeca7a53ba6a190c5d205bfdc7707cbc3399336c1",
        "to": "0xa5dc2cb4dc13f12d8464eaa862fac00f19adc84d",
        "gas": "0x3e12f",
        "value": "0x0",
        "input": "0xa0a73d0d0000000000000000000000000000000000000000000000000000000000000000",
        "nonce": "0x285",
        "chainId": "0x38"
      },
      "additionalContracts": [],
      "isFixedGasLimit": false
    }
  ],
  "receipts": [
    {
      "status": "0x1",
      "cumulativeGasUsed": "0x6dca58",
      "logs": [
        {
          "address": "0xaae5ef15499c71301123ee4b13d20d570d24ad5e",
          "topics": [
            "0x6dd0730fb835f9bbe38532c3d82c7c87448bfdec295f1d7cd2d72ff339632a52"
          ],
          "data": "0x00000000000000000000000000000000000000000000000000000000000000c00000000000000000000000000000000000000000000000000000000000000100000000000000000000000000eca7a53ba6a190c5d205bfdc7707cbc3399336c100000000000000000000000000000000000000000000000000000000000000000000000000000000000000000000000000000000000000000000000069832556000000000000000000000000000000000000000000000000000000000000014000000000000000000000000000000000000000000000000000000000000000094b696c6c536b696c6c00000000000000000000000000000000000000000000000000000000000000000000000000000000000000000000000000000000000005547261696e0000000000000000000000000000000000000000000000000000000000000000000000000000000000000000000000000000000000000000000000",
          "blockHash": "0x89fc2e4b878cbe4ca38ffddf7d036b705d7fbfccebb8f05acf4782bad8f7bd3d",
          "blockNumber": "0x4b911d6",
          "blockTimestamp": "0x69832556",
          "transactionHash": "0x1f5db2076b59adfce1d40e4471e4827d6d458a7aa345de5ef2fb8d5d7fc49866",
          "transactionIndex": "0x5a",
          "logIndex": "0x92",
          "removed": false
        },
        {
          "address": "0xa5dc2cb4dc13f12d8464eaa862fac00f19adc84d",
          "topics": [
            "0xa2ecdf3a87e9ffdb151ad823ae834f6165f94e54e5a30467175e075254eb6376"
          ],
          "data": "0x000000000000000000000000eca7a53ba6a190c5d205bfdc7707cbc3399336c100000000000000000000000000000000000000000000000000000000000000000000000000000000000000000000000000000000000000000000000000000000000000000000000000000000000000000000000000000000000000000000000000000000000000000000000000000000000000000000000000000000000000000000000000000000000000000000000000000000000000000000000069832fe20000000000000000000000000000000000000000000000000000000069832556",
          "blockHash": "0x89fc2e4b878cbe4ca38ffddf7d036b705d7fbfccebb8f05acf4782bad8f7bd3d",
          "blockNumber": "0x4b911d6",
          "blockTimestamp": "0x69832556",
          "transactionHash": "0x1f5db2076b59adfce1d40e4471e4827d6d458a7aa345de5ef2fb8d5d7fc49866",
          "transactionIndex": "0x5a",
          "logIndex": "0x93",
          "removed": false
        },
        {
          "address": "0xa5dc2cb4dc13f12d8464eaa862fac00f19adc84d",
          "topics": [
            "0x2f3c6b138bbc22991cb748093f24117969e5e880b28f9343c903b9473032267b"
          ],
          "data": "0x000000000000000000000000eca7a53ba6a190c5d205bfdc7707cbc3399336c1000000000000000000000000000000007bb820efa2ec4343a18276ca596d45fe00000000000000000000000000000000000000000000000000000000000012470000000000000000000000000000000000000000000000000000000000000190",
          "blockHash": "0x89fc2e4b878cbe4ca38ffddf7d036b705d7fbfccebb8f05acf4782bad8f7bd3d",
          "blockNumber": "0x4b911d6",
          "blockTimestamp": "0x69832556",
          "transactionHash": "0x1f5db2076b59adfce1d40e4471e4827d6d458a7aa345de5ef2fb8d5d7fc49866",
          "transactionIndex": "0x5a",
          "logIndex": "0x94",
          "removed": false
        }
      ],
      "logsBloom": "0x00000000000000000000010000000000001040040000000004000000000000000001000200000000000000000000000000000000000000000000000000000000000000000000000000000000000000000000000000000000000000000000000000000000000000000000000004000000000000000000000000000000000000000000000000000000000000000000080000000000000000000008000000000000000000000000000000000000000000000000002000000000000000000000000000000000000000000000000000000000000000000000000000000000000000800000000000000000000040000000402000000000000000000000000000000000",
      "type": "0x2",
      "transactionHash": "0x1f5db2076b59adfce1d40e4471e4827d6d458a7aa345de5ef2fb8d5d7fc49866",
      "transactionIndex": "0x5a",
      "blockHash": "0x89fc2e4b878cbe4ca38ffddf7d036b705d7fbfccebb8f05acf4782bad8f7bd3d",
      "blockNumber": "0x4b911d6",
      "gasUsed": "0x2a71a",
      "effectiveGasPrice": "0x2faf080",
      "from": "0xeca7a53ba6a190c5d205bfdc7707cbc3399336c1",
      "to": "0xa5dc2cb4dc13f12d8464eaa862fac00f19adc84d",
      "contractAddress": null
    }
  ],
  "libraries": [],
  "pending": [],
  "returns": {},
  "timestamp": 1770202456124,
  "chain": 56,
  "commit": null
}