{
  "transactions": [
    {
      "hash": "0xb8af96089c944787a07e5dd6dc60cb2ee34c32c38ca1a58b41ed5c2df86efb32",
      "transactionType": "CALL",
      "contractName": null,
      "contractAddress": "0xa5dc2cb4dc13f12d8464eaa862fac00f19adc84d",
      "function": "trainSkill(uint8)",
      "arguments": [
        "0"
      ],
      "transaction": {
        "from": "0xec646a6c9000e04d050435340d9c42c039eb5648",
        "to": "0xa5dc2cb4dc13f12d8464eaa862fac00f19adc84d",
        "gas": "0x3e12f",
        "value": "0x0",
        "input": "0xa0a73d0d0000000000000000000000000000000000000000000000000000000000000000",
        "nonce": "0xa3",
        "chainId": "0x38"
      },
      "additionalContracts": [],
      "isFixedGasLimit": false
    }
  ],
  "receipts": [
    {
      "status": "0x1",
      "cumulativeGasUsed": "0x8041d3",
      "logs": [
        {
          "address": "0xaae5ef15499c71301123ee4b13d20d570d24ad5e",
          "topics": [
            "0x6dd0730fb835f9bbe38532c3d82c7c87448bfdec295f1d7cd2d72ff339632a52"
          ],
          "data": "0x00000000000000000000000000000000000000000000000000000000000000c00000000000000000000000000000000000000000000000000000000000000100000000000000000000000000ec646a6c9000e04d050435340d9c42c039eb56480000000000000000000000000000000000000000000000000000000000000000000000000000000000000000000000000000000000000000000000006987a2b6000000000000000000000000000000000000000000000000000000000000014000000000000000000000000000000000000000000000000000000000000000094b696c6c536b696c6c00000000000000000000000000000000000000000000000000000000000000000000000000000000000000000000000000000000000005547261696e0000000000000000000000000000000000000000000000000000000000000000000000000000000000000000000000000000000000000000000000",
          "blockHash": "0xdfa079fce509b789230fbe55753e3e7fab4194bd6c280e5fb81141433f6a5af0",
          "blockNumber": "0x4c30b8c",
          "blockTimestamp": "0x6987a2b6",
          "transactionHash": "0xb8af96089c944787a07e5dd6dc60cb2ee34c32c38ca1a58b41ed5c2df86efb32",
          "transactionIndex": "0x34",
          "logIndex": "0x150",
          "removed": false
        },
        {
          "address": "0xa5dc2cb4dc13f12d8464eaa862fac00f19adc84d",
          "topics": [
            "0xa2ecdf3a87e9ffdb151ad823ae834f6165f94e54e5a30467175e075254eb6376"
          ],
          "data": "0x000000000000000000000000ec646a6c9000e04d050435340d9c42c039eb56480000000000000000000000000000000000000000000000000000000000000000000000000000000000000000000000000000000000000000000000000000000000000000000000000000000000000000000000000000000000000000000000000000000000000000000000000000000000000000000000000000000000000000000000000000000000000000000000000000000000000000000000006987ad42000000000000000000000000000000000000000000000000000000006987a2b6",
          "blockHash": "0xdfa079fce509b789230fbe55753e3e7fab4194bd6c280e5fb81141433f6a5af0",
          "blockNumber": "0x4c30b8c",
          "blockTimestamp": "0x6987a2b6",
          "transactionHash": "0xb8af96089c944787a07e5dd6dc60cb2ee34c32c38ca1a58b41ed5c2df86efb32",
          "transactionIndex": "0x34",
          "logIndex": "0x151",
          "removed": false
        },
        {
          "address": "0xa5dc2cb4dc13f12d8464eaa862fac00f19adc84d",
          "topics": [
            "0x2f3c6b138bbc22991cb748093f24117969e5e880b28f9343c903b9473032267b"
          ],
          "data": "0x000000000000000000000000ec646a6c9000e04d050435340d9c42c039eb564800000000000000000000000000000000910d4b41ca6cf60b485a3c74033d9bbb00000000000000000000000000000000000000000000000000000000000018530000000000000000000000000000000000000000000000000000000000000190",
          "blockHash": "0xdfa079fce509b789230fbe55753e3e7fab4194bd6c280e5fb81141433f6a5af0",
          "blockNumber": "0x4c30b8c",
          "blockTimestamp": "0x6987a2b6",
          "transactionHash": "0xb8af96089c944787a07e5dd6dc60cb2ee34c32c38ca1a58b41ed5c2df86efb32",
          "transactionIndex": "0x34",
          "logIndex": "0x152",
          "removed": false
        }
      ],
      "logsBloom": "0x00000000000000000000010000000000001040040000000004000000000000000001000200000000000000000000000000000000000000000000000000000000000000000000000000000000000000000000000000000000000000000000000000000000000000000000000004000000000000000000000000000000000000000000000000000000000000000000080000000000000000000008000000000000000000000000000000000000000000000000002000000000000000000000000000000000000000000000000000000000000000000000000000000000000000800000000000000000000040000000402000000000000000000000000000000000",
      "type": "0x2",
      "transactionHash": "0xb8af96089c944787a07e5dd6dc60cb2ee34c32c38ca1a58b41ed5c2df86efb32",
      "transactionIndex": "0x34",
      "blockHash": "0xdfa079fce509b789230fbe55753e3e7fab4194bd6c280e5fb81141433f6a5af0",
      "blockNumber": "0x4c30b8c",
      "gasUsed": "0x2a71a",
      "effectiveGasPrice": "0x2faf080",
      "from": "0xec646a6c9000e04d050435340d9c42c039eb5648",
      "to": "0xa5dc2cb4dc13f12d8464eaa862fac00f19adc84d",
      "contractAddress": null
    }
  ],
  "libraries": [],
  "pending": [],
  "returns": {},
  "timestamp": 1770496696460,
  "chain": 56,
  "commit": null
}