{
  "transactions": [
    {
      "hash": "0xa228e024dc2ce5efb92b840e5e2a03e392b7dc4c1153b76a9f2760c4e2fbba46",
      "transactionType": "CALL",
      "contractName": null,
      "contractAddress": "0xa5dc2cb4dc13f12d8464eaa862fac00f19adc84d",
      "function": "trainSkill(uint8)",
      "arguments": [
        "0"
      ],
      "transaction": {
        "from": "0x4c62f6121e6f967a0872da8364995e9b68c1e82f",
        "to": "0xa5dc2cb4dc13f12d8464eaa862fac00f19adc84d",
        "gas": "0x3e12f",
        "value": "0x0",
        "input": "0xa0a73d0d0000000000000000000000000000000000000000000000000000000000000000",
        "nonce": "0x18e",
        "chainId": "0x38"
      },
      "additionalContracts": [],
      "isFixedGasLimit": false
    }
  ],
  "receipts": [
    {
      "status": "0x1",
      "cumulativeGasUsed": "0xb46cbc",
      "logs": [
        {
          "address": "0xaae5ef15499c71301123ee4b13d20d570d24ad5e",
          "topics": [
            "0x6dd0730fb835f9bbe38532c3d82c7c87448bfdec295f1d7cd2d72ff339632a52"
          ],
          "data": "0x00000000000000000000000000000000000000000000000000000000000000c000000000000000000000000000000000000000000000000000000000000001000000000000000000000000004c62f6121e6f967a0872da8364995e9b68c1e82f00000000000000000000000000000000000000000000000000000000000000000000000000000000000000000000000000000000000000000000000069861eb3000000000000000000000000000000000000000000000000000000000000014000000000000000000000000000000000000000000000000000000000000000094b696c6c536b696c6c00000000000000000000000000000000000000000000000000000000000000000000000000000000000000000000000000000000000005547261696e0000000000000000000000000000000000000000000000000000000000000000000000000000000000000000000000000000000000000000000000",
          "blockHash": "0x7ee0394d46bab1769cfb58e76ccc876121f64930775b3901e42d15fd6829fe35",
          "blockNumber": "0x4bfad79",
          "blockTimestamp": "0x69861eb3",
          "transactionHash": "0xa228e024dc2ce5efb92b840e5e2a03e392b7dc4c1153b76a9f2760c4e2fbba46",
          "transactionIndex": "0x66",
          "logIndex": "0x138",
          "removed": false
        },
        {
          "address": "0xa5dc2cb4dc13f12d8464eaa862fac00f19adc84d",
          "topics": [
            "0xa2ecdf3a87e9ffdb151ad823ae834f6165f94e54e5a30467175e075254eb6376"
          ],
          "data": "0x0000000000000000000000004c62f6121e6f967a0872da8364995e9b68c1e82f0000000000000000000000000000000000000000000000000000000000000000000000000000000000000000000000000000000000000000000000000000000000000000000000000000000000000000000000000000000000000000000000000000000000000000000000000000000000000000000000000000000000000000000000000000000000000000000000000000000000000000000000006986293f0000000000000000000000000000000000000000000000000000000069861eb3",
          "blockHash": "0x7ee0394d46bab1769cfb58e76ccc876121f64930775b3901e42d15fd6829fe35",
          "blockNumber": "0x4bfad79",
          "blockTimestamp": "0x69861eb3",
          "transactionHash": "0xa228e024dc2ce5efb92b840e5e2a03e392b7dc4c1153b76a9f2760c4e2fbba46",
          "transactionIndex": "0x66",
          "logIndex": "0x139",
          "removed": false
        },
        {
          "address": "0xa5dc2cb4dc13f12d8464eaa862fac00f19adc84d",
          "topics": [
            "0x2f3c6b138bbc22991cb748093f24117969e5e880b28f9343c903b9473032267b"
          ],
          "data": "0x0000000000000000000000004c62f6121e6f967a0872da8364995e9b68c1e82f00000000000000000000000000000000e2d57c776c0f17861d509345f90a90a30000000000000000000000000000000000000000000000000000000000000da30000000000000000000000000000000000000000000000000000000000000190",
          "blockHash": "0x7ee0394d46bab1769cfb58e76ccc876121f64930775b3901e42d15fd6829fe35",
          "blockNumber": "0x4bfad79",
          "blockTimestamp": "0x69861eb3",
          "transactionHash": "0xa228e024dc2ce5efb92b840e5e2a03e392b7dc4c1153b76a9f2760c4e2fbba46",
          "transactionIndex": "0x66",
          "logIndex": "0x13a",
          "removed": false
        }
      ],
      "logsBloom": "0x00000000000000000000010000000000001040040000000004000000000000000001000200000000000000000000000000000000000000000000000000000000000000000000000000000000000000000000000000000000000000000000000000000000000000000000000004000000000000000000000000000000000000000000000000000000000000000000080000000000000000000008000000000000000000000000000000000000000000000000002000000000000000000000000000000000000000000000000000000000000000000000000000000000000000800000000000000000000040000000402000000000000000000000000000000000",
      "type": "0x2",
      "transactionHash": "0xa228e024dc2ce5efb92b840e5e2a03e392b7dc4c1153b76a9f2760c4e2fbba46",
      "transactionIndex": "0x66",
      "blockHash": "0x7ee0394d46bab1769cfb58e76ccc876121f64930775b3901e42d15fd6829fe35",
      "blockNumber": "0x4bfad79",
      "gasUsed": "0x2a71a",
      "effectiveGasPrice": "0x2faf080",
      "from": "0x4c62f6121e6f967a0872da8364995e9b68c1e82f",
      "to": "0xa5dc2cb4dc13f12d8464eaa862fac00f19adc84d",
      "contractAddress": null
    }
  ],
  "libraries": [],
  "pending": [],
  "returns": {},
  "timestamp": 1770397364920,
  "chain": 56,
  "commit": null
}