{
  "transactions": [
    {
      "hash": "0xc09dfe86af4c07f510b0454507b07f73265109330e1c67c2f181208e85bf57a8",
      "transactionType": "CALL",
      "contractName": null,
      "contractAddress": "0xa5dc2cb4dc13f12d8464eaa862fac00f19adc84d",
      "function": "trainSkill(uint8)",
      "arguments": [
        "0"
      ],
      "transaction": {
        "from": "0xac56dc5a4a9de0197f7b8f584ea04ec7e0123dde",
        "to": "0xa5dc2cb4dc13f12d8464eaa862fac00f19adc84d",
        "gas": "0x3e12f",
        "value": "0x0",
        "input": "0xa0a73d0d0000000000000000000000000000000000000000000000000000000000000000",
        "nonce": "0x119",
        "chainId": "0x38"
      },
      "additionalContracts": [],
      "isFixedGasLimit": false
    }
  ],
  "receipts": [
    {
      "status": "0x1",
      "cumulativeGasUsed": "0x559b38",
      "logs": [
        {
          "address": "0xa5dc2cb4dc13f12d8464eaa862fac00f19adc84d",
          "topics": [
            "0x5e5a0b90fdb27738829c217bcfc3821977755208ca0818475f4fe9af193a8a38"
          ],
          "data": "0x000000000000000000000000ac56dc5a4a9de0197f7b8f584ea04ec7e0123dde00000000000000000000000000000000000000000000000000000000000000c8",
          "blockHash": "0x6b1585a50d0507727c424435e2708aa4ebc495c3b3cde8fa300112c217c5b783",
          "blockNumber": "0x4c3c381",
          "blockTimestamp": "0x6987f57e",
          "transactionHash": "0xc09dfe86af4c07f510b0454507b07f73265109330e1c67c2f181208e85bf57a8",
          "transactionIndex": "0x2a",
          "logIndex": "0xb2",
          "removed": false
        },
        {
          "address": "0xaae5ef15499c71301123ee4b13d20d570d24ad5e",
          "topics": [
            "0x6dd0730fb835f9bbe38532c3d82c7c87448bfdec295f1d7cd2d72ff339632a52"
          ],
          "data": "0x00000000000000000000000000000000000000000000000000000000000000c00000000000000000000000000000000000000000000000000000000000000100000000000000000000000000ac56dc5a4a9de0197f7b8f584ea04ec7e0123dde0000000000000000000000000000000000000000000000000000000000000001000000000000000000000000000000000000000000000000000000006987f57e000000000000000000000000000000000000000000000000000000000000014000000000000000000000000000000000000000000000000000000000000000094b696c6c536b696c6c00000000000000000000000000000000000000000000000000000000000000000000000000000000000000000000000000000000000005547261696e0000000000000000000000000000000000000000000000000000000000000000000000000000000000000000000000000000000000000000000000",
          "blockHash": "0x6b1585a50d0507727c424435e2708aa4ebc495c3b3cde8fa300112c217c5b783",
          "blockNumber": "0x4c3c381",
          "blockTimestamp": "0x6987f57e",
          "transactionHash": "0xc09dfe86af4c07f510b0454507b07f73265109330e1c67c2f181208e85bf57a8",
          "transactionIndex": "0x2a",
          "logIndex": "0xb3",
          "removed": false
        },
        {
          "address": "0xa5dc2cb4dc13f12d8464eaa862fac00f19adc84d",
          "topics": [
            "0xa2ecdf3a87e9ffdb151ad823ae834f6165f94e54e5a30467175e075254eb6376"
          ],
          "data": "0x000000000000000000000000ac56dc5a4a9de0197f7b8f584ea04ec7e0123dde0000000000000000000000000000000000000000000000000000000000000000000000000000000000000000000000000000000000000000000000000000000100000000000000000000000000000000000000000000000000000000000000000000000000000000000000000000000000000000000000000000000000000032000000000000000000000000000000000000000000000000000000006988000a000000000000000000000000000000000000000000000000000000006987f57e",
          "blockHash": "0x6b1585a50d0507727c424435e2708aa4ebc495c3b3cde8fa300112c217c5b783",
          "blockNumber": "0x4c3c381",
          "blockTimestamp": "0x6987f57e",
          "transactionHash": "0xc09dfe86af4c07f510b0454507b07f73265109330e1c67c2f181208e85bf57a8",
          "transactionIndex": "0x2a",
          "logIndex": "0xb4",
          "removed": false
        },
        {
          "address": "0xa5dc2cb4dc13f12d8464eaa862fac00f19adc84d",
          "topics": [
            "0x2f3c6b138bbc22991cb748093f24117969e5e880b28f9343c903b9473032267b"
          ],
          "data": "0x000000000000000000000000ac56dc5a4a9de0197f7b8f584ea04ec7e0123dde000000000000000000000000000000007e9ba7fe23feb4a11b5177d14f46701400000000000000000000000000000000000000000000000000000000000000540000000000000000000000000000000000000000000000000000000000000190",
          "blockHash": "0x6b1585a50d0507727c424435e2708aa4ebc495c3b3cde8fa300112c217c5b783",
          "blockNumber": "0x4c3c381",
          "blockTimestamp": "0x6987f57e",
          "transactionHash": "0xc09dfe86af4c07f510b0454507b07f73265109330e1c67c2f181208e85bf57a8",
          "transactionIndex": "0x2a",
          "logIndex": "0xb5",
          "removed": false
        }
      ],
      "logsBloom": "0x00000000000000000000010000400000001040040000000004000000000000000001000200000000000000000000000000000000000000000000000000000000000000000000000000000000000000000000000000000000000000000000000000000000000000000000010004000000000000000000000000000000000000000000000000000000000000000000080000000000000000000008000000000000000000000000000002000000000000000000002000000000000000000000000000000000000000000000000000000000000000000000000000000000000000800000000000000000000040000000402000000000000000000000000000000000",
      "type": "0x2",
      "transactionHash": "0xc09dfe86af4c07f510b0454507b07f73265109330e1c67c2f181208e85bf57a8",
      "transactionIndex": "0x2a",
      "blockHash": "0x6b1585a50d0507727c424435e2708aa4ebc495c3b3cde8fa300112c217c5b783",
      "blockNumber": "0x4c3c381",
      "gasUsed": "0x2c35e",
      "effectiveGasPrice": "0x2faf080",
      "from": "0xac56dc5a4a9de0197f7b8f584ea04ec7e0123dde",
      "to": "0xa5dc2cb4dc13f12d8464eaa862fac00f19adc84d",
      "contractAddress": null
    }
  ],
  "libraries": [],
  "pending": [],
  "returns": {},
  "timestamp": 1770517888489,
  "chain": 56,
  "commit": null
}