{
  "transactions": [
    {
      "hash": "0xa171908ffd3457e9f0ea083542c2e464aa541bd63740cf7d93b4bd9382fcc41e",
      "transactionType": "CALL",
      "contractName": null,
      "contractAddress": "0xa5dc2cb4dc13f12d8464eaa862fac00f19adc84d",
      "function": "trainSkill(uint8)",
      "arguments": [
        "0"
      ],
      "transaction": {
        "from": "0x4c62f6121e6f967a0872da8364995e9b68c1e82f",
        "to": "0xa5dc2cb4dc13f12d8464eaa862fac00f19adc84d",
        "gas": "0x3d42a",
        "value": "0x0",
        "input": "0xa0a73d0d0000000000000000000000000000000000000000000000000000000000000000",
        "nonce": "0xaa",
        "chainId": "0x38"
      },
      "additionalContracts": [],
      "isFixedGasLimit": false
    }
  ],
  "receipts": [
    {
      "status": "0x1",
      "cumulativeGasUsed": "0x370768",
      "logs": [
        {
          "address": "0xaae5ef15499c71301123ee4b13d20d570d24ad5e",
          "topics": [
            "0x6dd0730fb835f9bbe38532c3d82c7c87448bfdec295f1d7cd2d72ff339632a52"
          ],
          "data": "0x00000000000000000000000000000000000000000000000000000000000000c000000000000000000000000000000000000000000000000000000000000001000000000000000000000000004c62f6121e6f967a0872da8364995e9b68c1e82f000000000000000000000000000000000000000000000000000000000000000000000000000000000000000000000000000000000000000000000000697a6b10000000000000000000000000000000000000000000000000000000000000014000000000000000000000000000000000000000000000000000000000000000094b696c6c536b696c6c00000000000000000000000000000000000000000000000000000000000000000000000000000000000000000000000000000000000005547261696e0000000000000000000000000000000000000000000000000000000000000000000000000000000000000000000000000000000000000000000000",
          "blockHash": "0x735f6840db9a354b2eba71a1c3279640c1b6db9918d1ca9b2dd463355c9102d4",
          "blockNumber": "0x4a5ae63",
          "blockTimestamp": "0x697a6b10",
          "transactionHash": "0xa171908ffd3457e9f0ea083542c2e464aa541bd63740cf7d93b4bd9382fcc41e",
          "transactionIndex": "0x2d",
          "logIndex": "0x2d",
          "removed": false
        },
        {
          "address": "0xa5dc2cb4dc13f12d8464eaa862fac00f19adc84d",
          "topics": [
            "0xa2ecdf3a87e9ffdb151ad823ae834f6165f94e54e5a30467175e075254eb6376"
          ],
          "data": "0x0000000000000000000000004c62f6121e6f967a0872da8364995e9b68c1e82f000000000000000000000000000000000000000000000000000000000000000000000000000000000000000000000000000000000000000000000000000000000000000000000000000000000000000000000000000000000000000000000000000000000000000000000000000000000000000000000000000000000000000000000000000000000000000000000000000000000000000000000000697a759c00000000000000000000000000000000000000000000000000000000697a6b10",
          "blockHash": "0x735f6840db9a354b2eba71a1c3279640c1b6db9918d1ca9b2dd463355c9102d4",
          "blockNumber": "0x4a5ae63",
          "blockTimestamp": "0x697a6b10",
          "transactionHash": "0xa171908ffd3457e9f0ea083542c2e464aa541bd63740cf7d93b4bd9382fcc41e",
          "transactionIndex": "0x2d",
          "logIndex": "0x2e",
          "removed": false
        },
        {
          "address": "0xa5dc2cb4dc13f12d8464eaa862fac00f19adc84d",
          "topics": [
            "0x2f3c6b138bbc22991cb748093f24117969e5e880b28f9343c903b9473032267b"
          ],
          "data": "0x0000000000000000000000004c62f6121e6f967a0872da8364995e9b68c1e82f000000000000000000000000000000000cf2a8f3a4010f62931a9ca3ac12fb3e00000000000000000000000000000000000000000000000000000000000019730000000000000000000000000000000000000000000000000000000000000190",
          "blockHash": "0x735f6840db9a354b2eba71a1c3279640c1b6db9918d1ca9b2dd463355c9102d4",
          "blockNumber": "0x4a5ae63",
          "blockTimestamp": "0x697a6b10",
          "transactionHash": "0xa171908ffd3457e9f0ea083542c2e464aa541bd63740cf7d93b4bd9382fcc41e",
          "transactionIndex": "0x2d",
          "logIndex": "0x2f",
          "removed": false
        }
      ],
      "logsBloom": "0x00000000000000000000010000000000001040040000000004000000000000000001000200000000000000000000000000000000000000000000000000000000000000000000000000000000000000000000000000000000000000000000000000000000000000000000000004000000000000000000000000000000000000000000000000000000000000000000080000000000000000000008000000000000000000000000000000000000000000000000002000000000000000000000000000000000000000000000000000000000000000000000000000000000000000800000000000000000000040000000402000000000000000000000000000000000",
      "type": "0x2",
      "transactionHash": "0xa171908ffd3457e9f0ea083542c2e464aa541bd63740cf7d93b4bd9382fcc41e",
      "transactionIndex": "0x2d",
      "blockHash": "0x735f6840db9a354b2eba71a1c3279640c1b6db9918d1ca9b2dd463355c9102d4",
      "blockNumber": "0x4a5ae63",
      "gasUsed": "0x29e33",
      "effectiveGasPrice": "0x2faf080",
      "from": "0x4c62f6121e6f967a0872da8364995e9b68c1e82f",
      "to": "0xa5dc2cb4dc13f12d8464eaa862fac00f19adc84d",
      "contractAddress": null
    }
  ],
  "libraries": [],
  "pending": [],
  "returns": {},
  "timestamp": 1769630482250,
  "chain": 56,
  "commit": null
}