{
  "transactions": [
    {
      "hash": "0xd1d756ef6230dfd145f021e133fe06d695a9666c108044d4da02fe80909a55e7",
      "transactionType": "CALL",
      "contractName": null,
      "contractAddress": "0xa5dc2cb4dc13f12d8464eaa862fac00f19adc84d",
      "function": "trainSkill(uint8)",
      "arguments": [
        "0"
      ],
      "transaction": {
        "from": "0xac56dc5a4a9de0197f7b8f584ea04ec7e0123dde",
        "to": "0xa5dc2cb4dc13f12d8464eaa862fac00f19adc84d",
        "gas": "0x3e12f",
        "value": "0x0",
        "input": "0xa0a73d0d0000000000000000000000000000000000000000000000000000000000000000",
        "nonce": "0x42",
        "chainId": "0x38"
      },
      "additionalContracts": [],
      "isFixedGasLimit": false
    }
  ],
  "receipts": [
    {
      "status": "0x1",
      "cumulativeGasUsed": "0x8f2538",
      "logs": [
        {
          "address": "0xaae5ef15499c71301123ee4b13d20d570d24ad5e",
          "topics": [
            "0x6dd0730fb835f9bbe38532c3d82c7c87448bfdec295f1d7cd2d72ff339632a52"
          ],
          "data": "0x00000000000000000000000000000000000000000000000000000000000000c00000000000000000000000000000000000000000000000000000000000000100000000000000000000000000ac56dc5a4a9de0197f7b8f584ea04ec7e0123dde000000000000000000000000000000000000000000000000000000000000000000000000000000000000000000000000000000000000000000000000697aabdc000000000000000000000000000000000000000000000000000000000000014000000000000000000000000000000000000000000000000000000000000000094b696c6c536b696c6c00000000000000000000000000000000000000000000000000000000000000000000000000000000000000000000000000000000000005547261696e0000000000000000000000000000000000000000000000000000000000000000000000000000000000000000000000000000000000000000000000",
          "blockHash": "0x51d27c037745c4eae0561c82ab28309da8ab8330b82b97bf73a2467c26cb0344",
          "blockNumber": "0x4a63e59",
          "blockTimestamp": "0x697aabdc",
          "transactionHash": "0xd1d756ef6230dfd145f021e133fe06d695a9666c108044d4da02fe80909a55e7",
          "transactionIndex": "0x40",
          "logIndex": "0x14a",
          "removed": false
        },
        {
          "address": "0xa5dc2cb4dc13f12d8464eaa862fac00f19adc84d",
          "topics": [
            "0xa2ecdf3a87e9ffdb151ad823ae834f6165f94e54e5a30467175e075254eb6376"
          ],
          "data": "0x000000000000000000000000ac56dc5a4a9de0197f7b8f584ea04ec7e0123dde000000000000000000000000000000000000000000000000000000000000000000000000000000000000000000000000000000000000000000000000000000000000000000000000000000000000000000000000000000000000000000000000000000000000000000000000000000000000000000000000000000000000000000000000000000000000000000000000000000000000000000000000697ab66800000000000000000000000000000000000000000000000000000000697aabdc",
          "blockHash": "0x51d27c037745c4eae0561c82ab28309da8ab8330b82b97bf73a2467c26cb0344",
          "blockNumber": "0x4a63e59",
          "blockTimestamp": "0x697aabdc",
          "transactionHash": "0xd1d756ef6230dfd145f021e133fe06d695a9666c108044d4da02fe80909a55e7",
          "transactionIndex": "0x40",
          "logIndex": "0x14b",
          "removed": false
        },
        {
          "address": "0xa5dc2cb4dc13f12d8464eaa862fac00f19adc84d",
          "topics": [
            "0x2f3c6b138bbc22991cb748093f24117969e5e880b28f9343c903b9473032267b"
          ],
          "data": "0x000000000000000000000000ac56dc5a4a9de0197f7b8f584ea04ec7e0123dde000000000000000000000000000000006ba23c9be6bf09e29a0687564bea09bf0000000000000000000000000000000000000000000000000000000000000d590000000000000000000000000000000000000000000000000000000000000190",
          "blockHash": "0x51d27c037745c4eae0561c82ab28309da8ab8330b82b97bf73a2467c26cb0344",
          "blockNumber": "0x4a63e59",
          "blockTimestamp": "0x697aabdc",
          "transactionHash": "0xd1d756ef6230dfd145f021e133fe06d695a9666c108044d4da02fe80909a55e7",
          "transactionIndex": "0x40",
          "logIndex": "0x14c",
          "removed": false
        }
      ],
      "logsBloom": "0x00000000000000000000010000000000001040040000000004000000000000000001000200000000000000000000000000000000000000000000000000000000000000000000000000000000000000000000000000000000000000000000000000000000000000000000000004000000000000000000000000000000000000000000000000000000000000000000080000000000000000000008000000000000000000000000000000000000000000000000002000000000000000000000000000000000000000000000000000000000000000000000000000000000000000800000000000000000000040000000402000000000000000000000000000000000",
      "type": "0x2",
      "transactionHash": "0xd1d756ef6230dfd145f021e133fe06d695a9666c108044d4da02fe80909a55e7",
      "transactionIndex": "0x40",
      "blockHash": "0x51d27c037745c4eae0561c82ab28309da8ab8330b82b97bf73a2467c26cb0344",
      "blockNumber": "0x4a63e59",
      "gasUsed": "0x2a71a",
      "effectiveGasPrice": "0x2faf080",
      "from": "0xac56dc5a4a9de0197f7b8f584ea04ec7e0123dde",
      "to": "0xa5dc2cb4dc13f12d8464eaa862fac00f19adc84d",
      "contractAddress": null
    }
  ],
  "libraries": [],
  "pending": [],
  "returns": {},
  "timestamp": 1769647070302,
  "chain": 56,
  "commit": null
}