{
  "transactions": [
    {
      "hash": "0xcfc628428f6d6183a2cbbac290f649ae71936fb4382995f45635815744d3d585",
      "transactionType": "CALL",
      "contractName": null,
      "contractAddress": "0xa5dc2cb4dc13f12d8464eaa862fac00f19adc84d",
      "function": "trainSkill(uint8)",
      "arguments": [
        "0"
      ],
      "transaction": {
        "from": "0xeca7a53ba6a190c5d205bfdc7707cbc3399336c1",
        "to": "0xa5dc2cb4dc13f12d8464eaa862fac00f19adc84d",
        "gas": "0x3e12f",
        "value": "0x0",
        "input": "0xa0a73d0d0000000000000000000000000000000000000000000000000000000000000000",
        "nonce": "0x283",
        "chainId": "0x38"
      },
      "additionalContracts": [],
      "isFixedGasLimit": false
    }
  ],
  "receipts": [
    {
      "status": "0x1",
      "cumulativeGasUsed": "0x7861e7",
      "logs": [
        {
          "address": "0xa5dc2cb4dc13f12d8464eaa862fac00f19adc84d",
          "topics": [
            "0x5e5a0b90fdb27738829c217bcfc3821977755208ca0818475f4fe9af193a8a38"
          ],
          "data": "0x000000000000000000000000eca7a53ba6a190c5d205bfdc7707cbc3399336c1000000000000000000000000000000000000000000000000000000000000044c",
          "blockHash": "0x30a845ed6ad6651bb4bfd7e07f1a1db3ceed98d946f402a4b152e5fdf99f7059",
          "blockNumber": "0x4b493d3",
          "blockTimestamp": "0x69811f73",
          "transactionHash": "0xcfc628428f6d6183a2cbbac290f649ae71936fb4382995f45635815744d3d585",
          "transactionIndex": "0x38",
          "logIndex": "0x118",
          "removed": false
        },
        {
          "address": "0xaae5ef15499c71301123ee4b13d20d570d24ad5e",
          "topics": [
            "0x6dd0730fb835f9bbe38532c3d82c7c87448bfdec295f1d7cd2d72ff339632a52"
          ],
          "data": "0x00000000000000000000000000000000000000000000000000000000000000c00000000000000000000000000000000000000000000000000000000000000100000000000000000000000000eca7a53ba6a190c5d205bfdc7707cbc3399336c100000000000000000000000000000000000000000000000000000000000000010000000000000000000000000000000000000000000000000000000069811f73000000000000000000000000000000000000000000000000000000000000014000000000000000000000000000000000000000000000000000000000000000094b696c6c536b696c6c00000000000000000000000000000000000000000000000000000000000000000000000000000000000000000000000000000000000005547261696e0000000000000000000000000000000000000000000000000000000000000000000000000000000000000000000000000000000000000000000000",
          "blockHash": "0x30a845ed6ad6651bb4bfd7e07f1a1db3ceed98d946f402a4b152e5fdf99f7059",
          "blockNumber": "0x4b493d3",
          "blockTimestamp": "0x69811f73",
          "transactionHash": "0xcfc628428f6d6183a2cbbac290f649ae71936fb4382995f45635815744d3d585",
          "transactionIndex": "0x38",
          "logIndex": "0x119",
          "removed": false
        },
        {
          "address": "0xa5dc2cb4dc13f12d8464eaa862fac00f19adc84d",
          "topics": [
            "0xa2ecdf3a87e9ffdb151ad823ae834f6165f94e54e5a30467175e075254eb6376"
          ],
          "data": "0x000000000000000000000000eca7a53ba6a190c5d205bfdc7707cbc3399336c1000000000000000000000000000000000000000000000000000000000000000000000000000000000000000000000000000000000000000000000000000000010000000000000000000000000000000000000000000000000000000000000000000000000000000000000000000000000000000000000000000000000000003200000000000000000000000000000000000000000000000000000000698129ff0000000000000000000000000000000000000000000000000000000069811f73",
          "blockHash": "0x30a845ed6ad6651bb4bfd7e07f1a1db3ceed98d946f402a4b152e5fdf99f7059",
          "blockNumber": "0x4b493d3",
          "blockTimestamp": "0x69811f73",
          "transactionHash": "0xcfc628428f6d6183a2cbbac290f649ae71936fb4382995f45635815744d3d585",
          "transactionIndex": "0x38",
          "logIndex": "0x11a",
          "removed": false
        },
        {
          "address": "0xa5dc2cb4dc13f12d8464eaa862fac00f19adc84d",
          "topics": [
            "0x2f3c6b138bbc22991cb748093f24117969e5e880b28f9343c903b9473032267b"
          ],
          "data": "0x000000000000000000000000eca7a53ba6a190c5d205bfdc7707cbc3399336c1000000000000000000000000000000005ddd9ad398bdf8a9ab3d4bfbcb499a0e00000000000000000000000000000000000000000000000000000000000000540000000000000000000000000000000000000000000000000000000000000190",
          "blockHash": "0x30a845ed6ad6651bb4bfd7e07f1a1db3ceed98d946f402a4b152e5fdf99f7059",
          "blockNumber": "0x4b493d3",
          "blockTimestamp": "0x69811f73",
          "transactionHash": "0xcfc628428f6d6183a2cbbac290f649ae71936fb4382995f45635815744d3d585",
          "transactionIndex": "0x38",
          "logIndex": "0x11b",
          "removed": false
        }
      ],
      "logsBloom": "0x00000000000000000000010000400000001040040000000004000000000000000001000200000000000000000000000000000000000000000000000000000000000000000000000000000000000000000000000000000000000000000000000000000000000000000000010004000000000000000000000000000000000000000000000000000000000000000000080000000000000000000008000000000000000000000000000002000000000000000000002000000000000000000000000000000000000000000000000000000000000000000000000000000000000000800000000000000000000040000000402000000000000000000000000000000000",
      "type": "0x2",
      "transactionHash": "0xcfc628428f6d6183a2cbbac290f649ae71936fb4382995f45635815744d3d585",
      "transactionIndex": "0x38",
      "blockHash": "0x30a845ed6ad6651bb4bfd7e07f1a1db3ceed98d946f402a4b152e5fdf99f7059",
      "blockNumber": "0x4b493d3",
      "gasUsed": "0x2c35e",
      "effectiveGasPrice": "0x2faf080",
      "from": "0xeca7a53ba6a190c5d205bfdc7707cbc3399336c1",
      "to": "0xa5dc2cb4dc13f12d8464eaa862fac00f19adc84d",
      "contractAddress": null
    }
  ],
  "libraries": [],
  "pending": [],
  "returns": {},
  "timestamp": 1770069876873,
  "chain": 56,
  "commit": null
}