{
  "transactions": [
    {
      "hash": "0x0d7d2b00eedf38829a14dd232c3ece6746515855f8eca700f8cfde75de047fb6",
      "transactionType": "CALL",
      "contractName": null,
      "contractAddress": "0xa5dc2cb4dc13f12d8464eaa862fac00f19adc84d",
      "function": "trainSkill(uint8)",
      "arguments": [
        "0"
      ],
      "transaction": {
        "from": "0xec646a6c9000e04d050435340d9c42c039eb5648",
        "to": "0xa5dc2cb4dc13f12d8464eaa862fac00f19adc84d",
        "gas": "0x3aa54",
        "value": "0x0",
        "input": "0xa0a73d0d0000000000000000000000000000000000000000000000000000000000000000",
        "nonce": "0x53",
        "chainId": "0x38"
      },
      "additionalContracts": [],
      "isFixedGasLimit": false
    }
  ],
  "receipts": [
    {
      "status": "0x1",
      "cumulativeGasUsed": "0x1d91b5f",
      "logs": [
        {
          "address": "0xaae5ef15499c71301123ee4b13d20d570d24ad5e",
          "topics": [
            "0x6dd0730fb835f9bbe38532c3d82c7c87448bfdec295f1d7cd2d72ff339632a52"
          ],
          "data": "0x00000000000000000000000000000000000000000000000000000000000000c00000000000000000000000000000000000000000000000000000000000000100000000000000000000000000ec646a6c9000e04d050435340d9c42c039eb564800000000000000000000000000000000000000000000000000000000000000000000000000000000000000000000000000000000000000000000000069838193000000000000000000000000000000000000000000000000000000000000014000000000000000000000000000000000000000000000000000000000000000094b696c6c536b696c6c00000000000000000000000000000000000000000000000000000000000000000000000000000000000000000000000000000000000005547261696e0000000000000000000000000000000000000000000000000000000000000000000000000000000000000000000000000000000000000000000000",
          "blockHash": "0x811c1c7d91ea467c6bb86ac1ec1d0873794f7623dab3118cbbbfc75486b1af36",
          "blockNumber": "0x4b9dec0",
          "blockTimestamp": "0x69838193",
          "transactionHash": "0x0d7d2b00eedf38829a14dd232c3ece6746515855f8eca700f8cfde75de047fb6",
          "transactionIndex": "0x22",
          "logIndex": "0x55",
          "removed": false
        },
        {
          "address": "0xa5dc2cb4dc13f12d8464eaa862fac00f19adc84d",
          "topics": [
            "0xa2ecdf3a87e9ffdb151ad823ae834f6165f94e54e5a30467175e075254eb6376"
          ],
          "data": "0x000000000000000000000000ec646a6c9000e04d050435340d9c42c039eb564800000000000000000000000000000000000000000000000000000000000000000000000000000000000000000000000000000000000000000000000000000000000000000000000000000000000000000000000000000000000000000000000000000000000000000000000000000000000000000000000000000000000000000000000000000000000000000000000000000000000000000000000069838c1f0000000000000000000000000000000000000000000000000000000069838193",
          "blockHash": "0x811c1c7d91ea467c6bb86ac1ec1d0873794f7623dab3118cbbbfc75486b1af36",
          "blockNumber": "0x4b9dec0",
          "blockTimestamp": "0x69838193",
          "transactionHash": "0x0d7d2b00eedf38829a14dd232c3ece6746515855f8eca700f8cfde75de047fb6",
          "transactionIndex": "0x22",
          "logIndex": "0x56",
          "removed": false
        },
        {
          "address": "0xa5dc2cb4dc13f12d8464eaa862fac00f19adc84d",
          "topics": [
            "0x2f3c6b138bbc22991cb748093f24117969e5e880b28f9343c903b9473032267b"
          ],
          "data": "0x000000000000000000000000ec646a6c9000e04d050435340d9c42c039eb56480000000000000000000000000000000000008dc369b65c22a6ee92179fcc45d400000000000000000000000000000000000000000000000000000000000026d10000000000000000000000000000000000000000000000000000000000000190",
          "blockHash": "0x811c1c7d91ea467c6bb86ac1ec1d0873794f7623dab3118cbbbfc75486b1af36",
          "blockNumber": "0x4b9dec0",
          "blockTimestamp": "0x69838193",
          "transactionHash": "0x0d7d2b00eedf38829a14dd232c3ece6746515855f8eca700f8cfde75de047fb6",
          "transactionIndex": "0x22",
          "logIndex": "0x57",
          "removed": false
        }
      ],
      "logsBloom": "0x00000000000000000000010000000000001040040000000004000000000000000001000200000000000000000000000000000000000000000000000000000000000000000000000000000000000000000000000000000000000000000000000000000000000000000000000004000000000000000000000000000000000000000000000000000000000000000000080000000000000000000008000000000000000000000000000000000000000000000000002000000000000000000000000000000000000000000000000000000000000000000000000000000000000000800000000000000000000040000000402000000000000000000000000000000000",
      "type": "0x2",
      "transactionHash": "0x0d7d2b00eedf38829a14dd232c3ece6746515855f8eca700f8cfde75de047fb6",
      "transactionIndex": "0x22",
      "blockHash": "0x811c1c7d91ea467c6bb86ac1ec1d0873794f7623dab3118cbbbfc75486b1af36",
      "blockNumber": "0x4b9dec0",
      "gasUsed": "0x2a756",
      "effectiveGasPrice": "0x3197505",
      "from": "0xec646a6c9000e04d050435340d9c42c039eb5648",
      "to": "0xa5dc2cb4dc13f12d8464eaa862fac00f19adc84d",
      "contractAddress": null
    }
  ],
  "libraries": [],
  "pending": [],
  "returns": {},
  "timestamp": 1770226068822,
  "chain": 56,
  "commit": null
}