{
  "transactions": [
    {
      "hash": "0x1b96a0a2baf82e57929809ceb63e2a5abd2c1ef2931f2aeb834d65102439d745",
      "transactionType": "CALL",
      "contractName": null,
      "contractAddress": "0xa5dc2cb4dc13f12d8464eaa862fac00f19adc84d",
      "function": "trainSkill(uint8)",
      "arguments": [
        "0"
      ],
      "transaction": {
        "from": "0xeca7a53ba6a190c5d205bfdc7707cbc3399336c1",
        "to": "0xa5dc2cb4dc13f12d8464eaa862fac00f19adc84d",
        "gas": "0x39e08",
        "value": "0x0",
        "input": "0xa0a73d0d0000000000000000000000000000000000000000000000000000000000000000",
        "nonce": "0x211",
        "chainId": "0x38"
      },
      "additionalContracts": [],
      "isFixedGasLimit": false
    }
  ],
  "receipts": [
    {
      "status": "0x1",
      "cumulativeGasUsed": "0x59dd4b",
      "logs": [
        {
          "address": "0xaae5ef15499c71301123ee4b13d20d570d24ad5e",
          "topics": [
            "0x6dd0730fb835f9bbe38532c3d82c7c87448bfdec295f1d7cd2d72ff339632a52"
          ],
          "data": "0x00000000000000000000000000000000000000000000000000000000000000c00000000000000000000000000000000000000000000000000000000000000100000000000000000000000000eca7a53ba6a190c5d205bfdc7707cbc3399336c1000000000000000000000000000000000000000000000000000000000000000000000000000000000000000000000000000000000000000000000000697a6058000000000000000000000000000000000000000000000000000000000000014000000000000000000000000000000000000000000000000000000000000000094b696c6c536b696c6c00000000000000000000000000000000000000000000000000000000000000000000000000000000000000000000000000000000000005547261696e0000000000000000000000000000000000000000000000000000000000000000000000000000000000000000000000000000000000000000000000",
          "blockHash": "0x26f1fc1d3c6f645bdd06a7b326efc7c08d1b66289a7e89dcf4a38da14f39f68c",
          "blockNumber": "0x4a59693",
          "blockTimestamp": "0x697a6058",
          "transactionHash": "0x1b96a0a2baf82e57929809ceb63e2a5abd2c1ef2931f2aeb834d65102439d745",
          "transactionIndex": "0x34",
          "logIndex": "0xc3",
          "removed": false
        },
        {
          "address": "0xa5dc2cb4dc13f12d8464eaa862fac00f19adc84d",
          "topics": [
            "0xa2ecdf3a87e9ffdb151ad823ae834f6165f94e54e5a30467175e075254eb6376"
          ],
          "data": "0x000000000000000000000000eca7a53ba6a190c5d205bfdc7707cbc3399336c1000000000000000000000000000000000000000000000000000000000000000000000000000000000000000000000000000000000000000000000000000000000000000000000000000000000000000000000000000000000000000000000000000000000000000000000000000000000000000000000000000000000000000000000000000000000000000000000000000000000000000000000000697a6ae400000000000000000000000000000000000000000000000000000000697a6058",
          "blockHash": "0x26f1fc1d3c6f645bdd06a7b326efc7c08d1b66289a7e89dcf4a38da14f39f68c",
          "blockNumber": "0x4a59693",
          "blockTimestamp": "0x697a6058",
          "transactionHash": "0x1b96a0a2baf82e57929809ceb63e2a5abd2c1ef2931f2aeb834d65102439d745",
          "transactionIndex": "0x34",
          "logIndex": "0xc4",
          "removed": false
        },
        {
          "address": "0xa5dc2cb4dc13f12d8464eaa862fac00f19adc84d",
          "topics": [
            "0x2f3c6b138bbc22991cb748093f24117969e5e880b28f9343c903b9473032267b"
          ],
          "data": "0x000000000000000000000000eca7a53ba6a190c5d205bfdc7707cbc3399336c1000000000000000000000000000000008449c5ebfe66ef5dbd3a1665efb1368d0000000000000000000000000000000000000000000000000000000000000d7b0000000000000000000000000000000000000000000000000000000000000190",
          "blockHash": "0x26f1fc1d3c6f645bdd06a7b326efc7c08d1b66289a7e89dcf4a38da14f39f68c",
          "blockNumber": "0x4a59693",
          "blockTimestamp": "0x697a6058",
          "transactionHash": "0x1b96a0a2baf82e57929809ceb63e2a5abd2c1ef2931f2aeb834d65102439d745",
          "transactionIndex": "0x34",
          "logIndex": "0xc5",
          "removed": false
        }
      ],
      "logsBloom": "0x00000000000000000000010000000000001040040000000004000000000000000001000200000000000000000000000000000000000000000000000000000000000000000000000000000000000000000000000000000000000000000000000000000000000000000000000004000000000000000000000000000000000000000000000000000000000000000000080000000000000000000008000000000000000000000000000000000000000000000000002000000000000000000000000000000000000000000000000000000000000000000000000000000000000000800000000000000000000040000000402000000000000000000000000000000000",
      "type": "0x2",
      "transactionHash": "0x1b96a0a2baf82e57929809ceb63e2a5abd2c1ef2931f2aeb834d65102439d745",
      "transactionIndex": "0x34",
      "blockHash": "0x26f1fc1d3c6f645bdd06a7b326efc7c08d1b66289a7e89dcf4a38da14f39f68c",
      "blockNumber": "0x4a59693",
      "gasUsed": "0x29e6f",
      "effectiveGasPrice": "0x2faf080",
      "from": "0xeca7a53ba6a190c5d205bfdc7707cbc3399336c1",
      "to": "0xa5dc2cb4dc13f12d8464eaa862fac00f19adc84d",
      "contractAddress": null
    }
  ],
  "libraries": [],
  "pending": [],
  "returns": {},
  "timestamp": 1769627737739,
  "chain": 56,
  "commit": null
}