{
  "transactions": [
    {
      "hash": "0xebc7ca659d87a21790a4d61f96dd8374085609030b6a5ebf7fd5cd925941fcf2",
      "transactionType": "CALL",
      "contractName": null,
      "contractAddress": "0xa5dc2cb4dc13f12d8464eaa862fac00f19adc84d",
      "function": "trainSkill(uint8)",
      "arguments": [
        "0"
      ],
      "transaction": {
        "from": "0xaa73aa98480757d75aae288b5931261448eb0530",
        "to": "0xa5dc2cb4dc13f12d8464eaa862fac00f19adc84d",
        "gas": "0x3aa54",
        "value": "0x0",
        "input": "0xa0a73d0d0000000000000000000000000000000000000000000000000000000000000000",
        "nonce": "0x10e",
        "chainId": "0x38"
      },
      "additionalContracts": [],
      "isFixedGasLimit": false
    }
  ],
  "receipts": [
    {
      "status": "0x1",
      "cumulativeGasUsed": "0x1c52e85",
      "logs": [
        {
          "address": "0xaae5ef15499c71301123ee4b13d20d570d24ad5e",
          "topics": [
            "0x6dd0730fb835f9bbe38532c3d82c7c87448bfdec295f1d7cd2d72ff339632a52"
          ],
          "data": "0x00000000000000000000000000000000000000000000000000000000000000c00000000000000000000000000000000000000000000000000000000000000100000000000000000000000000aa73aa98480757d75aae288b5931261448eb053000000000000000000000000000000000000000000000000000000000000000000000000000000000000000000000000000000000000000000000000069836c05000000000000000000000000000000000000000000000000000000000000014000000000000000000000000000000000000000000000000000000000000000094b696c6c536b696c6c00000000000000000000000000000000000000000000000000000000000000000000000000000000000000000000000000000000000005547261696e0000000000000000000000000000000000000000000000000000000000000000000000000000000000000000000000000000000000000000000000",
          "blockHash": "0x576832fd61878336bdd697971f3873a37e57d74b6fa559328aef463597218d73",
          "blockNumber": "0x4b9aeda",
          "blockTimestamp": "0x69836c05",
          "transactionHash": "0xebc7ca659d87a21790a4d61f96dd8374085609030b6a5ebf7fd5cd925941fcf2",
          "transactionIndex": "0x2a",
          "logIndex": "0xef",
          "removed": false
        },
        {
          "address": "0xa5dc2cb4dc13f12d8464eaa862fac00f19adc84d",
          "topics": [
            "0xa2ecdf3a87e9ffdb151ad823ae834f6165f94e54e5a30467175e075254eb6376"
          ],
          "data": "0x000000000000000000000000aa73aa98480757d75aae288b5931261448eb0530000000000000000000000000000000000000000000000000000000000000000000000000000000000000000000000000000000000000000000000000000000000000000000000000000000000000000000000000000000000000000000000000000000000000000000000000000000000000000000000000000000000000000000000000000000000000000000000000000000000000000000000000698376910000000000000000000000000000000000000000000000000000000069836c05",
          "blockHash": "0x576832fd61878336bdd697971f3873a37e57d74b6fa559328aef463597218d73",
          "blockNumber": "0x4b9aeda",
          "blockTimestamp": "0x69836c05",
          "transactionHash": "0xebc7ca659d87a21790a4d61f96dd8374085609030b6a5ebf7fd5cd925941fcf2",
          "transactionIndex": "0x2a",
          "logIndex": "0xf0",
          "removed": false
        },
        {
          "address": "0xa5dc2cb4dc13f12d8464eaa862fac00f19adc84d",
          "topics": [
            "0x2f3c6b138bbc22991cb748093f24117969e5e880b28f9343c903b9473032267b"
          ],
          "data": "0x000000000000000000000000aa73aa98480757d75aae288b5931261448eb0530000000000000000000000000000000009904d015f988b7e75899e508f1ce25520000000000000000000000000000000000000000000000000000000000000dc00000000000000000000000000000000000000000000000000000000000000190",
          "blockHash": "0x576832fd61878336bdd697971f3873a37e57d74b6fa559328aef463597218d73",
          "blockNumber": "0x4b9aeda",
          "blockTimestamp": "0x69836c05",
          "transactionHash": "0xebc7ca659d87a21790a4d61f96dd8374085609030b6a5ebf7fd5cd925941fcf2",
          "transactionIndex": "0x2a",
          "logIndex": "0xf1",
          "removed": false
        }
      ],
      "logsBloom": "0x00000000000000000000010000000000001040040000000004000000000000000001000200000000000000000000000000000000000000000000000000000000000000000000000000000000000000000000000000000000000000000000000000000000000000000000000004000000000000000000000000000000000000000000000000000000000000000000080000000000000000000008000000000000000000000000000000000000000000000000002000000000000000000000000000000000000000000000000000000000000000000000000000000000000000800000000000000000000040000000402000000000000000000000000000000000",
      "type": "0x2",
      "transactionHash": "0xebc7ca659d87a21790a4d61f96dd8374085609030b6a5ebf7fd5cd925941fcf2",
      "transactionIndex": "0x2a",
      "blockHash": "0x576832fd61878336bdd697971f3873a37e57d74b6fa559328aef463597218d73",
      "blockNumber": "0x4b9aeda",
      "gasUsed": "0x2a756",
      "effectiveGasPrice": "0x3473bc0",
      "from": "0xaa73aa98480757d75aae288b5931261448eb0530",
      "to": "0xa5dc2cb4dc13f12d8464eaa862fac00f19adc84d",
      "contractAddress": null
    }
  ],
  "libraries": [],
  "pending": [],
  "returns": {},
  "timestamp": 1770220550800,
  "chain": 56,
  "commit": null
}