{
  "transactions": [
    {
      "hash": "0x28df8733f81de887a5e9e8a52418952ddf28c21acdcfe7cd885e676b4627b906",
      "transactionType": "CALL",
      "contractName": null,
      "contractAddress": "0xa5dc2cb4dc13f12d8464eaa862fac00f19adc84d",
      "function": "trainSkill(uint8)",
      "arguments": [
        "0"
      ],
      "transaction": {
        "from": "0xec646a6c9000e04d050435340d9c42c039eb5648",
        "to": "0xa5dc2cb4dc13f12d8464eaa862fac00f19adc84d",
        "gas": "0x3e12f",
        "value": "0x0",
        "input": "0xa0a73d0d0000000000000000000000000000000000000000000000000000000000000000",
        "nonce": "0x94",
        "chainId": "0x38"
      },
      "additionalContracts": [],
      "isFixedGasLimit": false
    }
  ],
  "receipts": [
    {
      "status": "0x1",
      "cumulativeGasUsed": "0x9ada24",
      "logs": [
        {
          "address": "0xaae5ef15499c71301123ee4b13d20d570d24ad5e",
          "topics": [
            "0x6dd0730fb835f9bbe38532c3d82c7c87448bfdec295f1d7cd2d72ff339632a52"
          ],
          "data": "0x00000000000000000000000000000000000000000000000000000000000000c00000000000000000000000000000000000000000000000000000000000000100000000000000000000000000ec646a6c9000e04d050435340d9c42c039eb564800000000000000000000000000000000000000000000000000000000000000000000000000000000000000000000000000000000000000000000000069876631000000000000000000000000000000000000000000000000000000000000014000000000000000000000000000000000000000000000000000000000000000094b696c6c536b696c6c00000000000000000000000000000000000000000000000000000000000000000000000000000000000000000000000000000000000005547261696e0000000000000000000000000000000000000000000000000000000000000000000000000000000000000000000000000000000000000000000000",
          "blockHash": "0xcb61ee72bd763045b45304591da113d34d11a956f0fac00410666c5c6b9b300a",
          "blockNumber": "0x4c28512",
          "blockTimestamp": "0x69876631",
          "transactionHash": "0x28df8733f81de887a5e9e8a52418952ddf28c21acdcfe7cd885e676b4627b906",
          "transactionIndex": "0x68",
          "logIndex": "0x10b",
          "removed": false
        },
        {
          "address": "0xa5dc2cb4dc13f12d8464eaa862fac00f19adc84d",
          "topics": [
            "0xa2ecdf3a87e9ffdb151ad823ae834f6165f94e54e5a30467175e075254eb6376"
          ],
          "data": "0x000000000000000000000000ec646a6c9000e04d050435340d9c42c039eb5648000000000000000000000000000000000000000000000000000000000000000000000000000000000000000000000000000000000000000000000000000000000000000000000000000000000000000000000000000000000000000000000000000000000000000000000000000000000000000000000000000000000000000000000000000000000000000000000000000000000000000000000000698770bd0000000000000000000000000000000000000000000000000000000069876631",
          "blockHash": "0xcb61ee72bd763045b45304591da113d34d11a956f0fac00410666c5c6b9b300a",
          "blockNumber": "0x4c28512",
          "blockTimestamp": "0x69876631",
          "transactionHash": "0x28df8733f81de887a5e9e8a52418952ddf28c21acdcfe7cd885e676b4627b906",
          "transactionIndex": "0x68",
          "logIndex": "0x10c",
          "removed": false
        },
        {
          "address": "0xa5dc2cb4dc13f12d8464eaa862fac00f19adc84d",
          "topics": [
            "0x2f3c6b138bbc22991cb748093f24117969e5e880b28f9343c903b9473032267b"
          ],
          "data": "0x000000000000000000000000ec646a6c9000e04d050435340d9c42c039eb564800000000000000000000000000000000a1ad0c7b446b89f855fa3e10e423e1790000000000000000000000000000000000000000000000000000000000001e080000000000000000000000000000000000000000000000000000000000000190",
          "blockHash": "0xcb61ee72bd763045b45304591da113d34d11a956f0fac00410666c5c6b9b300a",
          "blockNumber": "0x4c28512",
          "blockTimestamp": "0x69876631",
          "transactionHash": "0x28df8733f81de887a5e9e8a52418952ddf28c21acdcfe7cd885e676b4627b906",
          "transactionIndex": "0x68",
          "logIndex": "0x10d",
          "removed": false
        }
      ],
      "logsBloom": "0x00000000000000000000010000000000001040040000000004000000000000000001000200000000000000000000000000000000000000000000000000000000000000000000000000000000000000000000000000000000000000000000000000000000000000000000000004000000000000000000000000000000000000000000000000000000000000000000080000000000000000000008000000000000000000000000000000000000000000000000002000000000000000000000000000000000000000000000000000000000000000000000000000000000000000800000000000000000000040000000402000000000000000000000000000000000",
      "type": "0x2",
      "transactionHash": "0x28df8733f81de887a5e9e8a52418952ddf28c21acdcfe7cd885e676b4627b906",
      "transactionIndex": "0x68",
      "blockHash": "0xcb61ee72bd763045b45304591da113d34d11a956f0fac00410666c5c6b9b300a",
      "blockNumber": "0x4c28512",
      "gasUsed": "0x2a71a",
      "effectiveGasPrice": "0x2faf080",
      "from": "0xec646a6c9000e04d050435340d9c42c039eb5648",
      "to": "0xa5dc2cb4dc13f12d8464eaa862fac00f19adc84d",
      "contractAddress": null
    }
  ],
  "libraries": [],
  "pending": [],
  "returns": {},
  "timestamp": 1770481203225,
  "chain": 56,
  "commit": null
}