{
  "transactions": [
    {
      "hash": "0xa60bfb972d79866853c3fb06377e06b1357934cb653c86bd10246f56d098f538",
      "transactionType": "CALL",
      "contractName": null,
      "contractAddress": "0xa5dc2cb4dc13f12d8464eaa862fac00f19adc84d",
      "function": "trainSkill(uint8)",
      "arguments": [
        "0"
      ],
      "transaction": {
        "from": "0x4c62f6121e6f967a0872da8364995e9b68c1e82f",
        "to": "0xa5dc2cb4dc13f12d8464eaa862fac00f19adc84d",
        "gas": "0x3e12f",
        "value": "0x0",
        "input": "0xa0a73d0d0000000000000000000000000000000000000000000000000000000000000000",
        "nonce": "0x1dd",
        "chainId": "0x38"
      },
      "additionalContracts": [],
      "isFixedGasLimit": false
    }
  ],
  "receipts": [
    {
      "status": "0x1",
      "cumulativeGasUsed": "0x6ef3e9",
      "logs": [
        {
          "address": "0xaae5ef15499c71301123ee4b13d20d570d24ad5e",
          "topics": [
            "0x6dd0730fb835f9bbe38532c3d82c7c87448bfdec295f1d7cd2d72ff339632a52"
          ],
          "data": "0x00000000000000000000000000000000000000000000000000000000000000c000000000000000000000000000000000000000000000000000000000000001000000000000000000000000004c62f6121e6f967a0872da8364995e9b68c1e82f00000000000000000000000000000000000000000000000000000000000000000000000000000000000000000000000000000000000000000000000069886b8a000000000000000000000000000000000000000000000000000000000000014000000000000000000000000000000000000000000000000000000000000000094b696c6c536b696c6c00000000000000000000000000000000000000000000000000000000000000000000000000000000000000000000000000000000000005547261696e0000000000000000000000000000000000000000000000000000000000000000000000000000000000000000000000000000000000000000000000",
          "blockHash": "0x8663fff3992891a1bcc68fcf28e6dbaa90b4a3cd500c60707228ba54f2831858",
          "blockNumber": "0x4c4c9c5",
          "blockTimestamp": "0x69886b8a",
          "transactionHash": "0xa60bfb972d79866853c3fb06377e06b1357934cb653c86bd10246f56d098f538",
          "transactionIndex": "0x41",
          "logIndex": "0xd5",
          "removed": false
        },
        {
          "address": "0xa5dc2cb4dc13f12d8464eaa862fac00f19adc84d",
          "topics": [
            "0xa2ecdf3a87e9ffdb151ad823ae834f6165f94e54e5a30467175e075254eb6376"
          ],
          "data": "0x0000000000000000000000004c62f6121e6f967a0872da8364995e9b68c1e82f000000000000000000000000000000000000000000000000000000000000000000000000000000000000000000000000000000000000000000000000000000000000000000000000000000000000000000000000000000000000000000000000000000000000000000000000000000000000000000000000000000000000000000000000000000000000000000000000000000000000000000000000698876160000000000000000000000000000000000000000000000000000000069886b8a",
          "blockHash": "0x8663fff3992891a1bcc68fcf28e6dbaa90b4a3cd500c60707228ba54f2831858",
          "blockNumber": "0x4c4c9c5",
          "blockTimestamp": "0x69886b8a",
          "transactionHash": "0xa60bfb972d79866853c3fb06377e06b1357934cb653c86bd10246f56d098f538",
          "transactionIndex": "0x41",
          "logIndex": "0xd6",
          "removed": false
        },
        {
          "address": "0xa5dc2cb4dc13f12d8464eaa862fac00f19adc84d",
          "topics": [
            "0x2f3c6b138bbc22991cb748093f24117969e5e880b28f9343c903b9473032267b"
          ],
          "data": "0x0000000000000000000000004c62f6121e6f967a0872da8364995e9b68c1e82f0000000000000000000000000000000002464e3e7f4bb970fd326daec76dd57c00000000000000000000000000000000000000000000000000000000000005fb0000000000000000000000000000000000000000000000000000000000000190",
          "blockHash": "0x8663fff3992891a1bcc68fcf28e6dbaa90b4a3cd500c60707228ba54f2831858",
          "blockNumber": "0x4c4c9c5",
          "blockTimestamp": "0x69886b8a",
          "transactionHash": "0xa60bfb972d79866853c3fb06377e06b1357934cb653c86bd10246f56d098f538",
          "transactionIndex": "0x41",
          "logIndex": "0xd7",
          "removed": false
        }
      ],
      "logsBloom": "0x00000000000000000000010000000000001040040000000004000000000000000001000200000000000000000000000000000000000000000000000000000000000000000000000000000000000000000000000000000000000000000000000000000000000000000000000004000000000000000000000000000000000000000000000000000000000000000000080000000000000000000008000000000000000000000000000000000000000000000000002000000000000000000000000000000000000000000000000000000000000000000000000000000000000000800000000000000000000040000000402000000000000000000000000000000000",
      "type": "0x2",
      "transactionHash": "0xa60bfb972d79866853c3fb06377e06b1357934cb653c86bd10246f56d098f538",
      "transactionIndex": "0x41",
      "blockHash": "0x8663fff3992891a1bcc68fcf28e6dbaa90b4a3cd500c60707228ba54f2831858",
      "blockNumber": "0x4c4c9c5",
      "gasUsed": "0x2a71a",
      "effectiveGasPrice": "0x2faf080",
      "from": "0x4c62f6121e6f967a0872da8364995e9b68c1e82f",
      "to": "0xa5dc2cb4dc13f12d8464eaa862fac00f19adc84d",
      "contractAddress": null
    }
  ],
  "libraries": [],
  "pending": [],
  "returns": {},
  "timestamp": 1770548108128,
  "chain": 56,
  "commit": null
}