{
  "transactions": [
    {
      "hash": "0x3a97096be5c2d1c8fa9e84d7da8581716e780b2573588385f86f729f0bc5e3fc",
      "transactionType": "CALL",
      "contractName": null,
      "contractAddress": "0xa5dc2cb4dc13f12d8464eaa862fac00f19adc84d",
      "function": "trainSkill(uint8)",
      "arguments": [
        "0"
      ],
      "transaction": {
        "from": "0xeca7a53ba6a190c5d205bfdc7707cbc3399336c1",
        "to": "0xa5dc2cb4dc13f12d8464eaa862fac00f19adc84d",
        "gas": "0x3e12f",
        "value": "0x0",
        "input": "0xa0a73d0d0000000000000000000000000000000000000000000000000000000000000000",
        "nonce": "0x315",
        "chainId": "0x38"
      },
      "additionalContracts": [],
      "isFixedGasLimit": false
    }
  ],
  "receipts": [
    {
      "status": "0x1",
      "cumulativeGasUsed": "0x4d6b4f",
      "logs": [
        {
          "address": "0xaae5ef15499c71301123ee4b13d20d570d24ad5e",
          "topics": [
            "0x6dd0730fb835f9bbe38532c3d82c7c87448bfdec295f1d7cd2d72ff339632a52"
          ],
          "data": "0x00000000000000000000000000000000000000000000000000000000000000c00000000000000000000000000000000000000000000000000000000000000100000000000000000000000000eca7a53ba6a190c5d205bfdc7707cbc3399336c100000000000000000000000000000000000000000000000000000000000000000000000000000000000000000000000000000000000000000000000069882b46000000000000000000000000000000000000000000000000000000000000014000000000000000000000000000000000000000000000000000000000000000094b696c6c536b696c6c00000000000000000000000000000000000000000000000000000000000000000000000000000000000000000000000000000000000005547261696e0000000000000000000000000000000000000000000000000000000000000000000000000000000000000000000000000000000000000000000000",
          "blockHash": "0x06d4c7c761d20128be37aea127f827abf2fc427b1a2048963b1342acb3d56b6b",
          "blockNumber": "0x4c43aff",
          "blockTimestamp": "0x69882b46",
          "transactionHash": "0x3a97096be5c2d1c8fa9e84d7da8581716e780b2573588385f86f729f0bc5e3fc",
          "transactionIndex": "0x31",
          "logIndex": "0x91",
          "removed": false
        },
        {
          "address": "0xa5dc2cb4dc13f12d8464eaa862fac00f19adc84d",
          "topics": [
            "0xa2ecdf3a87e9ffdb151ad823ae834f6165f94e54e5a30467175e075254eb6376"
          ],
          "data": "0x000000000000000000000000eca7a53ba6a190c5d205bfdc7707cbc3399336c1000000000000000000000000000000000000000000000000000000000000000000000000000000000000000000000000000000000000000000000000000000000000000000000000000000000000000000000000000000000000000000000000000000000000000000000000000000000000000000000000000000000000000000000000000000000000000000000000000000000000000000000000698835d20000000000000000000000000000000000000000000000000000000069882b46",
          "blockHash": "0x06d4c7c761d20128be37aea127f827abf2fc427b1a2048963b1342acb3d56b6b",
          "blockNumber": "0x4c43aff",
          "blockTimestamp": "0x69882b46",
          "transactionHash": "0x3a97096be5c2d1c8fa9e84d7da8581716e780b2573588385f86f729f0bc5e3fc",
          "transactionIndex": "0x31",
          "logIndex": "0x92",
          "removed": false
        },
        {
          "address": "0xa5dc2cb4dc13f12d8464eaa862fac00f19adc84d",
          "topics": [
            "0x2f3c6b138bbc22991cb748093f24117969e5e880b28f9343c903b9473032267b"
          ],
          "data": "0x000000000000000000000000eca7a53ba6a190c5d205bfdc7707cbc3399336c100000000000000000000000000000000bcb54151921a9f22efdb3116a05cb7f900000000000000000000000000000000000000000000000000000000000009b10000000000000000000000000000000000000000000000000000000000000190",
          "blockHash": "0x06d4c7c761d20128be37aea127f827abf2fc427b1a2048963b1342acb3d56b6b",
          "blockNumber": "0x4c43aff",
          "blockTimestamp": "0x69882b46",
          "transactionHash": "0x3a97096be5c2d1c8fa9e84d7da8581716e780b2573588385f86f729f0bc5e3fc",
          "transactionIndex": "0x31",
          "logIndex": "0x93",
          "removed": false
        }
      ],
      "logsBloom": "0x00000000000000000000010000000000001040040000000004000000000000000001000200000000000000000000000000000000000000000000000000000000000000000000000000000000000000000000000000000000000000000000000000000000000000000000000004000000000000000000000000000000000000000000000000000000000000000000080000000000000000000008000000000000000000000000000000000000000000000000002000000000000000000000000000000000000000000000000000000000000000000000000000000000000000800000000000000000000040000000402000000000000000000000000000000000",
      "type": "0x2",
      "transactionHash": "0x3a97096be5c2d1c8fa9e84d7da8581716e780b2573588385f86f729f0bc5e3fc",
      "transactionIndex": "0x31",
      "blockHash": "0x06d4c7c761d20128be37aea127f827abf2fc427b1a2048963b1342acb3d56b6b",
      "blockNumber": "0x4c43aff",
      "gasUsed": "0x2a71a",
      "effectiveGasPrice": "0x2faf080",
      "from": "0xeca7a53ba6a190c5d205bfdc7707cbc3399336c1",
      "to": "0xa5dc2cb4dc13f12d8464eaa862fac00f19adc84d",
      "contractAddress": null
    }
  ],
  "libraries": [],
  "pending": [],
  "returns": {},
  "timestamp": 1770531656170,
  "chain": 56,
  "commit": null
}