{
  "transactions": [
    {
      "hash": "0x7e0b8996d8714a11f41bc0dd5929925989168bfa63805bc0865d16a8d53a50f6",
      "transactionType": "CALL",
      "contractName": null,
      "contractAddress": "0xa5dc2cb4dc13f12d8464eaa862fac00f19adc84d",
      "function": "trainSkill(uint8)",
      "arguments": [
        "0"
      ],
      "transaction": {
        "from": "0x4c62f6121e6f967a0872da8364995e9b68c1e82f",
        "to": "0xa5dc2cb4dc13f12d8464eaa862fac00f19adc84d",
        "gas": "0x3d42a",
        "value": "0x0",
        "input": "0xa0a73d0d0000000000000000000000000000000000000000000000000000000000000000",
        "nonce": "0xad",
        "chainId": "0x38"
      },
      "additionalContracts": [],
      "isFixedGasLimit": false
    }
  ],
  "receipts": [
    {
      "status": "0x1",
      "cumulativeGasUsed": "0x73ce08",
      "logs": [
        {
          "address": "0xaae5ef15499c71301123ee4b13d20d570d24ad5e",
          "topics": [
            "0x6dd0730fb835f9bbe38532c3d82c7c87448bfdec295f1d7cd2d72ff339632a52"
          ],
          "data": "0x00000000000000000000000000000000000000000000000000000000000000c000000000000000000000000000000000000000000000000000000000000001000000000000000000000000004c62f6121e6f967a0872da8364995e9b68c1e82f000000000000000000000000000000000000000000000000000000000000000000000000000000000000000000000000000000000000000000000000697a75dd000000000000000000000000000000000000000000000000000000000000014000000000000000000000000000000000000000000000000000000000000000094b696c6c536b696c6c00000000000000000000000000000000000000000000000000000000000000000000000000000000000000000000000000000000000005547261696e0000000000000000000000000000000000000000000000000000000000000000000000000000000000000000000000000000000000000000000000",
          "blockHash": "0x879a172f44d83b8fcc0c78f25640a2e1574f21cbf2114089afb3a7b361b33d9b",
          "blockNumber": "0x4a5c664",
          "blockTimestamp": "0x697a75dd",
          "transactionHash": "0x7e0b8996d8714a11f41bc0dd5929925989168bfa63805bc0865d16a8d53a50f6",
          "transactionIndex": "0x2d",
          "logIndex": "0x134",
          "removed": false
        },
        {
          "address": "0xa5dc2cb4dc13f12d8464eaa862fac00f19adc84d",
          "topics": [
            "0xa2ecdf3a87e9ffdb151ad823ae834f6165f94e54e5a30467175e075254eb6376"
          ],
          "data": "0x0000000000000000000000004c62f6121e6f967a0872da8364995e9b68c1e82f000000000000000000000000000000000000000000000000000000000000000000000000000000000000000000000000000000000000000000000000000000000000000000000000000000000000000000000000000000000000000000000000000000000000000000000000000000000000000000000000000000000000000000000000000000000000000000000000000000000000000000000000697a806900000000000000000000000000000000000000000000000000000000697a75dd",
          "blockHash": "0x879a172f44d83b8fcc0c78f25640a2e1574f21cbf2114089afb3a7b361b33d9b",
          "blockNumber": "0x4a5c664",
          "blockTimestamp": "0x697a75dd",
          "transactionHash": "0x7e0b8996d8714a11f41bc0dd5929925989168bfa63805bc0865d16a8d53a50f6",
          "transactionIndex": "0x2d",
          "logIndex": "0x135",
          "removed": false
        },
        {
          "address": "0xa5dc2cb4dc13f12d8464eaa862fac00f19adc84d",
          "topics": [
            "0x2f3c6b138bbc22991cb748093f24117969e5e880b28f9343c903b9473032267b"
          ],
          "data": "0x0000000000000000000000004c62f6121e6f967a0872da8364995e9b68c1e82f0000000000000000000000000000000059af12f583651d4d30c32862513b076500000000000000000000000000000000000000000000000000000000000024340000000000000000000000000000000000000000000000000000000000000190",
          "blockHash": "0x879a172f44d83b8fcc0c78f25640a2e1574f21cbf2114089afb3a7b361b33d9b",
          "blockNumber": "0x4a5c664",
          "blockTimestamp": "0x697a75dd",
          "transactionHash": "0x7e0b8996d8714a11f41bc0dd5929925989168bfa63805bc0865d16a8d53a50f6",
          "transactionIndex": "0x2d",
          "logIndex": "0x136",
          "removed": false
        }
      ],
      "logsBloom": "0x00000000000000000000010000000000001040040000000004000000000000000001000200000000000000000000000000000000000000000000000000000000000000000000000000000000000000000000000000000000000000000000000000000000000000000000000004000000000000000000000000000000000000000000000000000000000000000000080000000000000000000008000000000000000000000000000000000000000000000000002000000000000000000000000000000000000000000000000000000000000000000000000000000000000000800000000000000000000040000000402000000000000000000000000000000000",
      "type": "0x2",
      "transactionHash": "0x7e0b8996d8714a11f41bc0dd5929925989168bfa63805bc0865d16a8d53a50f6",
      "transactionIndex": "0x2d",
      "blockHash": "0x879a172f44d83b8fcc0c78f25640a2e1574f21cbf2114089afb3a7b361b33d9b",
      "blockNumber": "0x4a5c664",
      "gasUsed": "0x29e33",
      "effectiveGasPrice": "0x2faf080",
      "from": "0x4c62f6121e6f967a0872da8364995e9b68c1e82f",
      "to": "0xa5dc2cb4dc13f12d8464eaa862fac00f19adc84d",
      "contractAddress": null
    }
  ],
  "libraries": [],
  "pending": [],
  "returns": {},
  "timestamp": 1769633247754,
  "chain": 56,
  "commit": null
}