{
  "transactions": [
    {
      "hash": "0xf13ab472994a4ac806d4390f44f3c7761cc6fa971d5ec0d1dd034e5ee5fe1903",
      "transactionType": "CALL",
      "contractName": null,
      "contractAddress": "0xa5dc2cb4dc13f12d8464eaa862fac00f19adc84d",
      "function": "trainSkill(uint8)",
      "arguments": [
        "0"
      ],
      "transaction": {
        "from": "0xec646a6c9000e04d050435340d9c42c039eb5648",
        "to": "0xa5dc2cb4dc13f12d8464eaa862fac00f19adc84d",
        "gas": "0x3aa54",
        "value": "0x0",
        "input": "0xa0a73d0d0000000000000000000000000000000000000000000000000000000000000000",
        "nonce": "0x6a",
        "chainId": "0x38"
      },
      "additionalContracts": [],
      "isFixedGasLimit": false
    }
  ],
  "receipts": [
    {
      "status": "0x1",
      "cumulativeGasUsed": "0x66ea60",
      "logs": [
        {
          "address": "0xaae5ef15499c71301123ee4b13d20d570d24ad5e",
          "topics": [
            "0x6dd0730fb835f9bbe38532c3d82c7c87448bfdec295f1d7cd2d72ff339632a52"
          ],
          "data": "0x00000000000000000000000000000000000000000000000000000000000000c00000000000000000000000000000000000000000000000000000000000000100000000000000000000000000ec646a6c9000e04d050435340d9c42c039eb56480000000000000000000000000000000000000000000000000000000000000000000000000000000000000000000000000000000000000000000000006984a524000000000000000000000000000000000000000000000000000000000000014000000000000000000000000000000000000000000000000000000000000000094b696c6c536b696c6c00000000000000000000000000000000000000000000000000000000000000000000000000000000000000000000000000000000000005547261696e0000000000000000000000000000000000000000000000000000000000000000000000000000000000000000000000000000000000000000000000",
          "blockHash": "0x84b1e005852d09922158ef3d2087a010536f1570728cef0ce9255146d1f64103",
          "blockNumber": "0x4bc6694",
          "blockTimestamp": "0x6984a524",
          "transactionHash": "0xf13ab472994a4ac806d4390f44f3c7761cc6fa971d5ec0d1dd034e5ee5fe1903",
          "transactionIndex": "0x28",
          "logIndex": "0xa5",
          "removed": false
        },
        {
          "address": "0xa5dc2cb4dc13f12d8464eaa862fac00f19adc84d",
          "topics": [
            "0xa2ecdf3a87e9ffdb151ad823ae834f6165f94e54e5a30467175e075254eb6376"
          ],
          "data": "0x000000000000000000000000ec646a6c9000e04d050435340d9c42c039eb56480000000000000000000000000000000000000000000000000000000000000000000000000000000000000000000000000000000000000000000000000000000000000000000000000000000000000000000000000000000000000000000000000000000000000000000000000000000000000000000000000000000000000000000000000000000000000000000000000000000000000000000000006984afb0000000000000000000000000000000000000000000000000000000006984a524",
          "blockHash": "0x84b1e005852d09922158ef3d2087a010536f1570728cef0ce9255146d1f64103",
          "blockNumber": "0x4bc6694",
          "blockTimestamp": "0x6984a524",
          "transactionHash": "0xf13ab472994a4ac806d4390f44f3c7761cc6fa971d5ec0d1dd034e5ee5fe1903",
          "transactionIndex": "0x28",
          "logIndex": "0xa6",
          "removed": false
        },
        {
          "address": "0xa5dc2cb4dc13f12d8464eaa862fac00f19adc84d",
          "topics": [
            "0x2f3c6b138bbc22991cb748093f24117969e5e880b28f9343c903b9473032267b"
          ],
          "data": "0x000000000000000000000000ec646a6c9000e04d050435340d9c42c039eb56480000000000000000000000000000000072f656305b2d335c8b6c567511c4915b00000000000000000000000000000000000000000000000000000000000019570000000000000000000000000000000000000000000000000000000000000190",
          "blockHash": "0x84b1e005852d09922158ef3d2087a010536f1570728cef0ce9255146d1f64103",
          "blockNumber": "0x4bc6694",
          "blockTimestamp": "0x6984a524",
          "transactionHash": "0xf13ab472994a4ac806d4390f44f3c7761cc6fa971d5ec0d1dd034e5ee5fe1903",
          "transactionIndex": "0x28",
          "logIndex": "0xa7",
          "removed": false
        }
      ],
      "logsBloom": "0x00000000000000000000010000000000001040040000000004000000000000000001000200000000000000000000000000000000000000000000000000000000000000000000000000000000000000000000000000000000000000000000000000000000000000000000000004000000000000000000000000000000000000000000000000000000000000000000080000000000000000000008000000000000000000000000000000000000000000000000002000000000000000000000000000000000000000000000000000000000000000000000000000000000000000800000000000000000000040000000402000000000000000000000000000000000",
      "type": "0x2",
      "transactionHash": "0xf13ab472994a4ac806d4390f44f3c7761cc6fa971d5ec0d1dd034e5ee5fe1903",
      "transactionIndex": "0x28",
      "blockHash": "0x84b1e005852d09922158ef3d2087a010536f1570728cef0ce9255146d1f64103",
      "blockNumber": "0x4bc6694",
      "gasUsed": "0x2a756",
      "effectiveGasPrice": "0x2faf080",
      "from": "0xec646a6c9000e04d050435340d9c42c039eb5648",
      "to": "0xa5dc2cb4dc13f12d8464eaa862fac00f19adc84d",
      "contractAddress": null
    }
  ],
  "libraries": [],
  "pending": [],
  "returns": {},
  "timestamp": 1770300710310,
  "chain": 56,
  "commit": null
}