{
  "transactions": [
    {
      "hash": "0xc1549eb5ac45182ec815fd89e2025876cb2f312157ee6f0e427f94c426b30744",
      "transactionType": "CALL",
      "contractName": null,
      "contractAddress": "0xa5dc2cb4dc13f12d8464eaa862fac00f19adc84d",
      "function": "trainSkill(uint8)",
      "arguments": [
        "0"
      ],
      "transaction": {
        "from": "0x4c62f6121e6f967a0872da8364995e9b68c1e82f",
        "to": "0xa5dc2cb4dc13f12d8464eaa862fac00f19adc84d",
        "gas": "0x3e12f",
        "value": "0x0",
        "input": "0xa0a73d0d0000000000000000000000000000000000000000000000000000000000000000",
        "nonce": "0x1b7",
        "chainId": "0x38"
      },
      "additionalContracts": [],
      "isFixedGasLimit": false
    }
  ],
  "receipts": [
    {
      "status": "0x1",
      "cumulativeGasUsed": "0x63ae11",
      "logs": [
        {
          "address": "0xa5dc2cb4dc13f12d8464eaa862fac00f19adc84d",
          "topics": [
            "0x5e5a0b90fdb27738829c217bcfc3821977755208ca0818475f4fe9af193a8a38"
          ],
          "data": "0x0000000000000000000000004c62f6121e6f967a0872da8364995e9b68c1e82f00000000000000000000000000000000000000000000000000000000000005aa",
          "blockHash": "0xa28d0706b171d5c0b1df4f38cc622b965581ff95b5a29b6878a2879b77a7a484",
          "blockNumber": "0x4c39378",
          "blockTimestamp": "0x6987dfe0",
          "transactionHash": "0xc1549eb5ac45182ec815fd89e2025876cb2f312157ee6f0e427f94c426b30744",
          "transactionIndex": "0x3c",
          "logIndex": "0xff",
          "removed": false
        },
        {
          "address": "0xaae5ef15499c71301123ee4b13d20d570d24ad5e",
          "topics": [
            "0x6dd0730fb835f9bbe38532c3d82c7c87448bfdec295f1d7cd2d72ff339632a52"
          ],
          "data": "0x00000000000000000000000000000000000000000000000000000000000000c000000000000000000000000000000000000000000000000000000000000001000000000000000000000000004c62f6121e6f967a0872da8364995e9b68c1e82f0000000000000000000000000000000000000000000000000000000000000001000000000000000000000000000000000000000000000000000000006987dfe0000000000000000000000000000000000000000000000000000000000000014000000000000000000000000000000000000000000000000000000000000000094b696c6c536b696c6c00000000000000000000000000000000000000000000000000000000000000000000000000000000000000000000000000000000000005547261696e0000000000000000000000000000000000000000000000000000000000000000000000000000000000000000000000000000000000000000000000",
          "blockHash": "0xa28d0706b171d5c0b1df4f38cc622b965581ff95b5a29b6878a2879b77a7a484",
          "blockNumber": "0x4c39378",
          "blockTimestamp": "0x6987dfe0",
          "transactionHash": "0xc1549eb5ac45182ec815fd89e2025876cb2f312157ee6f0e427f94c426b30744",
          "transactionIndex": "0x3c",
          "logIndex": "0x100",
          "removed": false
        },
        {
          "address": "0xa5dc2cb4dc13f12d8464eaa862fac00f19adc84d",
          "topics": [
            "0xa2ecdf3a87e9ffdb151ad823ae834f6165f94e54e5a30467175e075254eb6376"
          ],
          "data": "0x0000000000000000000000004c62f6121e6f967a0872da8364995e9b68c1e82f0000000000000000000000000000000000000000000000000000000000000000000000000000000000000000000000000000000000000000000000000000000100000000000000000000000000000000000000000000000000000000000000000000000000000000000000000000000000000000000000000000000000000032000000000000000000000000000000000000000000000000000000006987ea6c000000000000000000000000000000000000000000000000000000006987dfe0",
          "blockHash": "0xa28d0706b171d5c0b1df4f38cc622b965581ff95b5a29b6878a2879b77a7a484",
          "blockNumber": "0x4c39378",
          "blockTimestamp": "0x6987dfe0",
          "transactionHash": "0xc1549eb5ac45182ec815fd89e2025876cb2f312157ee6f0e427f94c426b30744",
          "transactionIndex": "0x3c",
          "logIndex": "0x101",
          "removed": false
        },
        {
          "address": "0xa5dc2cb4dc13f12d8464eaa862fac00f19adc84d",
          "topics": [
            "0x2f3c6b138bbc22991cb748093f24117969e5e880b28f9343c903b9473032267b"
          ],
          "data": "0x0000000000000000000000004c62f6121e6f967a0872da8364995e9b68c1e82f00000000000000000000000000000000013aa05db1ac9d7fbc9f116e65fe062a00000000000000000000000000000000000000000000000000000000000000b10000000000000000000000000000000000000000000000000000000000000190",
          "blockHash": "0xa28d0706b171d5c0b1df4f38cc622b965581ff95b5a29b6878a2879b77a7a484",
          "blockNumber": "0x4c39378",
          "blockTimestamp": "0x6987dfe0",
          "transactionHash": "0xc1549eb5ac45182ec815fd89e2025876cb2f312157ee6f0e427f94c426b30744",
          "transactionIndex": "0x3c",
          "logIndex": "0x102",
          "removed": false
        }
      ],
      "logsBloom": "0x00000000000000000000010000400000001040040000000004000000000000000001000200000000000000000000000000000000000000000000000000000000000000000000000000000000000000000000000000000000000000000000000000000000000000000000010004000000000000000000000000000000000000000000000000000000000000000000080000000000000000000008000000000000000000000000000002000000000000000000002000000000000000000000000000000000000000000000000000000000000000000000000000000000000000800000000000000000000040000000402000000000000000000000000000000000",
      "type": "0x2",
      "transactionHash": "0xc1549eb5ac45182ec815fd89e2025876cb2f312157ee6f0e427f94c426b30744",
      "transactionIndex": "0x3c",
      "blockHash": "0xa28d0706b171d5c0b1df4f38cc622b965581ff95b5a29b6878a2879b77a7a484",
      "blockNumber": "0x4c39378",
      "gasUsed": "0x2c35e",
      "effectiveGasPrice": "0x2faf080",
      "from": "0x4c62f6121e6f967a0872da8364995e9b68c1e82f",
      "to": "0xa5dc2cb4dc13f12d8464eaa862fac00f19adc84d",
      "contractAddress": null
    }
  ],
  "libraries": [],
  "pending": [],
  "returns": {},
  "timestamp": 1770512354223,
  "chain": 56,
  "commit": null
}