{
  "transactions": [
    {
      "hash": "0xd6088f3ea255db1a86a94e0bbf8eb775a708e44ce5b0d607106b9708e2fec508",
      "transactionType": "CALL",
      "contractName": null,
      "contractAddress": "0xa5dc2cb4dc13f12d8464eaa862fac00f19adc84d",
      "function": "trainSkill(uint8)",
      "arguments": [
        "0"
      ],
      "transaction": {
        "from": "0xaa73aa98480757d75aae288b5931261448eb0530",
        "to": "0xa5dc2cb4dc13f12d8464eaa862fac00f19adc84d",
        "gas": "0x3aa54",
        "value": "0x0",
        "input": "0xa0a73d0d0000000000000000000000000000000000000000000000000000000000000000",
        "nonce": "0x102",
        "chainId": "0x38"
      },
      "additionalContracts": [],
      "isFixedGasLimit": false
    }
  ],
  "receipts": [
    {
      "status": "0x1",
      "cumulativeGasUsed": "0xa8d215",
      "logs": [
        {
          "address": "0xaae5ef15499c71301123ee4b13d20d570d24ad5e",
          "topics": [
            "0x6dd0730fb835f9bbe38532c3d82c7c87448bfdec295f1d7cd2d72ff339632a52"
          ],
          "data": "0x00000000000000000000000000000000000000000000000000000000000000c00000000000000000000000000000000000000000000000000000000000000100000000000000000000000000aa73aa98480757d75aae288b5931261448eb0530000000000000000000000000000000000000000000000000000000000000000000000000000000000000000000000000000000000000000000000000698345e5000000000000000000000000000000000000000000000000000000000000014000000000000000000000000000000000000000000000000000000000000000094b696c6c536b696c6c00000000000000000000000000000000000000000000000000000000000000000000000000000000000000000000000000000000000005547261696e0000000000000000000000000000000000000000000000000000000000000000000000000000000000000000000000000000000000000000000000",
          "blockHash": "0xe2ba6aa0ac3bbd4366853149eb138fd061ef68ccae6939194cb4d9c570cb5cdc",
          "blockNumber": "0x4b95a2d",
          "blockTimestamp": "0x698345e5",
          "transactionHash": "0xd6088f3ea255db1a86a94e0bbf8eb775a708e44ce5b0d607106b9708e2fec508",
          "transactionIndex": "0x45",
          "logIndex": "0x12c",
          "removed": false
        },
        {
          "address": "0xa5dc2cb4dc13f12d8464eaa862fac00f19adc84d",
          "topics": [
            "0xa2ecdf3a87e9ffdb151ad823ae834f6165f94e54e5a30467175e075254eb6376"
          ],
          "data": "0x000000000000000000000000aa73aa98480757d75aae288b5931261448eb05300000000000000000000000000000000000000000000000000000000000000000000000000000000000000000000000000000000000000000000000000000000000000000000000000000000000000000000000000000000000000000000000000000000000000000000000000000000000000000000000000000000000000000000000000000000000000000000000000000000000000000000000006983507100000000000000000000000000000000000000000000000000000000698345e5",
          "blockHash": "0xe2ba6aa0ac3bbd4366853149eb138fd061ef68ccae6939194cb4d9c570cb5cdc",
          "blockNumber": "0x4b95a2d",
          "blockTimestamp": "0x698345e5",
          "transactionHash": "0xd6088f3ea255db1a86a94e0bbf8eb775a708e44ce5b0d607106b9708e2fec508",
          "transactionIndex": "0x45",
          "logIndex": "0x12d",
          "removed": false
        },
        {
          "address": "0xa5dc2cb4dc13f12d8464eaa862fac00f19adc84d",
          "topics": [
            "0x2f3c6b138bbc22991cb748093f24117969e5e880b28f9343c903b9473032267b"
          ],
          "data": "0x000000000000000000000000aa73aa98480757d75aae288b5931261448eb053000000000000000000000000000000000546014aec6e9c01a2eb242aeb75b077f00000000000000000000000000000000000000000000000000000000000018ad0000000000000000000000000000000000000000000000000000000000000190",
          "blockHash": "0xe2ba6aa0ac3bbd4366853149eb138fd061ef68ccae6939194cb4d9c570cb5cdc",
          "blockNumber": "0x4b95a2d",
          "blockTimestamp": "0x698345e5",
          "transactionHash": "0xd6088f3ea255db1a86a94e0bbf8eb775a708e44ce5b0d607106b9708e2fec508",
          "transactionIndex": "0x45",
          "logIndex": "0x12e",
          "removed": false
        }
      ],
      "logsBloom": "0x00000000000000000000010000000000001040040000000004000000000000000001000200000000000000000000000000000000000000000000000000000000000000000000000000000000000000000000000000000000000000000000000000000000000000000000000004000000000000000000000000000000000000000000000000000000000000000000080000000000000000000008000000000000000000000000000000000000000000000000002000000000000000000000000000000000000000000000000000000000000000000000000000000000000000800000000000000000000040000000402000000000000000000000000000000000",
      "type": "0x2",
      "transactionHash": "0xd6088f3ea255db1a86a94e0bbf8eb775a708e44ce5b0d607106b9708e2fec508",
      "transactionIndex": "0x45",
      "blockHash": "0xe2ba6aa0ac3bbd4366853149eb138fd061ef68ccae6939194cb4d9c570cb5cdc",
      "blockNumber": "0x4b95a2d",
      "gasUsed": "0x2a756",
      "effectiveGasPrice": "0x2faf080",
      "from": "0xaa73aa98480757d75aae288b5931261448eb0530",
      "to": "0xa5dc2cb4dc13f12d8464eaa862fac00f19adc84d",
      "contractAddress": null
    }
  ],
  "libraries": [],
  "pending": [],
  "returns": {},
  "timestamp": 1770210790953,
  "chain": 56,
  "commit": null
}