{
  "transactions": [
    {
      "hash": "0x102136bbc3e7df82df41cd93aa5e644af41f78a3e65e9b1682919fcc5d740f44",
      "transactionType": "CALL",
      "contractName": null,
      "contractAddress": "0xa5dc2cb4dc13f12d8464eaa862fac00f19adc84d",
      "function": "trainSkill(uint8)",
      "arguments": [
        "0"
      ],
      "transaction": {
        "from": "0xac56dc5a4a9de0197f7b8f584ea04ec7e0123dde",
        "to": "0xa5dc2cb4dc13f12d8464eaa862fac00f19adc84d",
        "gas": "0x3e12f",
        "value": "0x0",
        "input": "0xa0a73d0d0000000000000000000000000000000000000000000000000000000000000000",
        "nonce": "0xac",
        "chainId": "0x38"
      },
      "additionalContracts": [],
      "isFixedGasLimit": false
    }
  ],
  "receipts": [
    {
      "status": "0x1",
      "cumulativeGasUsed": "0x769693",
      "logs": [
        {
          "address": "0xaae5ef15499c71301123ee4b13d20d570d24ad5e",
          "topics": [
            "0x6dd0730fb835f9bbe38532c3d82c7c87448bfdec295f1d7cd2d72ff339632a52"
          ],
          "data": "0x00000000000000000000000000000000000000000000000000000000000000c00000000000000000000000000000000000000000000000000000000000000100000000000000000000000000ac56dc5a4a9de0197f7b8f584ea04ec7e0123dde00000000000000000000000000000000000000000000000000000000000000000000000000000000000000000000000000000000000000000000000069836617000000000000000000000000000000000000000000000000000000000000014000000000000000000000000000000000000000000000000000000000000000094b696c6c536b696c6c00000000000000000000000000000000000000000000000000000000000000000000000000000000000000000000000000000000000005547261696e0000000000000000000000000000000000000000000000000000000000000000000000000000000000000000000000000000000000000000000000",
          "blockHash": "0x6c9d774bf6adf5e6357c35d2e331c3970d453e423db5d3a42ac7bc477a577ca2",
          "blockNumber": "0x4b9a1ac",
          "blockTimestamp": "0x69836617",
          "transactionHash": "0x102136bbc3e7df82df41cd93aa5e644af41f78a3e65e9b1682919fcc5d740f44",
          "transactionIndex": "0x35",
          "logIndex": "0x108",
          "removed": false
        },
        {
          "address": "0xa5dc2cb4dc13f12d8464eaa862fac00f19adc84d",
          "topics": [
            "0xa2ecdf3a87e9ffdb151ad823ae834f6165f94e54e5a30467175e075254eb6376"
          ],
          "data": "0x000000000000000000000000ac56dc5a4a9de0197f7b8f584ea04ec7e0123dde000000000000000000000000000000000000000000000000000000000000000000000000000000000000000000000000000000000000000000000000000000000000000000000000000000000000000000000000000000000000000000000000000000000000000000000000000000000000000000000000000000000000000000000000000000000000000000000000000000000000000000000000698370a30000000000000000000000000000000000000000000000000000000069836617",
          "blockHash": "0x6c9d774bf6adf5e6357c35d2e331c3970d453e423db5d3a42ac7bc477a577ca2",
          "blockNumber": "0x4b9a1ac",
          "blockTimestamp": "0x69836617",
          "transactionHash": "0x102136bbc3e7df82df41cd93aa5e644af41f78a3e65e9b1682919fcc5d740f44",
          "transactionIndex": "0x35",
          "logIndex": "0x109",
          "removed": false
        },
        {
          "address": "0xa5dc2cb4dc13f12d8464eaa862fac00f19adc84d",
          "topics": [
            "0x2f3c6b138bbc22991cb748093f24117969e5e880b28f9343c903b9473032267b"
          ],
          "data": "0x000000000000000000000000ac56dc5a4a9de0197f7b8f584ea04ec7e0123dde00000000000000000000000000000000aa983d73b9a533795021908eb185ffc70000000000000000000000000000000000000000000000000000000000000fef0000000000000000000000000000000000000000000000000000000000000190",
          "blockHash": "0x6c9d774bf6adf5e6357c35d2e331c3970d453e423db5d3a42ac7bc477a577ca2",
          "blockNumber": "0x4b9a1ac",
          "blockTimestamp": "0x69836617",
          "transactionHash": "0x102136bbc3e7df82df41cd93aa5e644af41f78a3e65e9b1682919fcc5d740f44",
          "transactionIndex": "0x35",
          "logIndex": "0x10a",
          "removed": false
        }
      ],
      "logsBloom": "0x00000000000000000000010000000000001040040000000004000000000000000001000200000000000000000000000000000000000000000000000000000000000000000000000000000000000000000000000000000000000000000000000000000000000000000000000004000000000000000000000000000000000000000000000000000000000000000000080000000000000000000008000000000000000000000000000000000000000000000000002000000000000000000000000000000000000000000000000000000000000000000000000000000000000000800000000000000000000040000000402000000000000000000000000000000000",
      "type": "0x2",
      "transactionHash": "0x102136bbc3e7df82df41cd93aa5e644af41f78a3e65e9b1682919fcc5d740f44",
      "transactionIndex": "0x35",
      "blockHash": "0x6c9d774bf6adf5e6357c35d2e331c3970d453e423db5d3a42ac7bc477a577ca2",
      "blockNumber": "0x4b9a1ac",
      "gasUsed": "0x2a71a",
      "effectiveGasPrice": "0x2faf080",
      "from": "0xac56dc5a4a9de0197f7b8f584ea04ec7e0123dde",
      "to": "0xa5dc2cb4dc13f12d8464eaa862fac00f19adc84d",
      "contractAddress": null
    }
  ],
  "libraries": [],
  "pending": [],
  "returns": {},
  "timestamp": 1770219032896,
  "chain": 56,
  "commit": null
}