{
  "transactions": [
    {
      "hash": "0x07c65a19a5932709e50ec33b425ef063d5a74c4b3283a27357cddeb278829101",
      "transactionType": "CALL",
      "contractName": null,
      "contractAddress": "0xa5dc2cb4dc13f12d8464eaa862fac00f19adc84d",
      "function": "trainSkill(uint8)",
      "arguments": [
        "0"
      ],
      "transaction": {
        "from": "0xac56dc5a4a9de0197f7b8f584ea04ec7e0123dde",
        "to": "0xa5dc2cb4dc13f12d8464eaa862fac00f19adc84d",
        "gas": "0x3d42a",
        "value": "0x0",
        "input": "0xa0a73d0d0000000000000000000000000000000000000000000000000000000000000000",
        "nonce": "0x26",
        "chainId": "0x38"
      },
      "additionalContracts": [],
      "isFixedGasLimit": false
    }
  ],
  "receipts": [
    {
      "status": "0x1",
      "cumulativeGasUsed": "0xe8114b",
      "logs": [
        {
          "address": "0xaae5ef15499c71301123ee4b13d20d570d24ad5e",
          "topics": [
            "0x6dd0730fb835f9bbe38532c3d82c7c87448bfdec295f1d7cd2d72ff339632a52"
          ],
          "data": "0x00000000000000000000000000000000000000000000000000000000000000c00000000000000000000000000000000000000000000000000000000000000100000000000000000000000000ac56dc5a4a9de0197f7b8f584ea04ec7e0123dde000000000000000000000000000000000000000000000000000000000000000000000000000000000000000000000000000000000000000000000000697a36d4000000000000000000000000000000000000000000000000000000000000014000000000000000000000000000000000000000000000000000000000000000094b696c6c536b696c6c00000000000000000000000000000000000000000000000000000000000000000000000000000000000000000000000000000000000005547261696e0000000000000000000000000000000000000000000000000000000000000000000000000000000000000000000000000000000000000000000000",
          "blockHash": "0x4582c6e3329acdd36505719aaebe45eb41115ddf2122625eb575d075067fe6e7",
          "blockNumber": "0x4a53a53",
          "blockTimestamp": "0x697a36d4",
          "transactionHash": "0x07c65a19a5932709e50ec33b425ef063d5a74c4b3283a27357cddeb278829101",
          "transactionIndex": "0x6b",
          "logIndex": "0x1b5",
          "removed": false
        },
        {
          "address": "0xa5dc2cb4dc13f12d8464eaa862fac00f19adc84d",
          "topics": [
            "0xa2ecdf3a87e9ffdb151ad823ae834f6165f94e54e5a30467175e075254eb6376"
          ],
          "data": "0x000000000000000000000000ac56dc5a4a9de0197f7b8f584ea04ec7e0123dde000000000000000000000000000000000000000000000000000000000000000000000000000000000000000000000000000000000000000000000000000000000000000000000000000000000000000000000000000000000000000000000000000000000000000000000000000000000000000000000000000000000000000000000000000000000000000000000000000000000000000000000000697a416000000000000000000000000000000000000000000000000000000000697a36d4",
          "blockHash": "0x4582c6e3329acdd36505719aaebe45eb41115ddf2122625eb575d075067fe6e7",
          "blockNumber": "0x4a53a53",
          "blockTimestamp": "0x697a36d4",
          "transactionHash": "0x07c65a19a5932709e50ec33b425ef063d5a74c4b3283a27357cddeb278829101",
          "transactionIndex": "0x6b",
          "logIndex": "0x1b6",
          "removed": false
        },
        {
          "address": "0xa5dc2cb4dc13f12d8464eaa862fac00f19adc84d",
          "topics": [
            "0x2f3c6b138bbc22991cb748093f24117969e5e880b28f9343c903b9473032267b"
          ],
          "data": "0x000000000000000000000000ac56dc5a4a9de0197f7b8f584ea04ec7e0123dde000000000000000000000000000000003eba870f67d211dcdfe6ee167369fd9900000000000000000000000000000000000000000000000000000000000025620000000000000000000000000000000000000000000000000000000000000190",
          "blockHash": "0x4582c6e3329acdd36505719aaebe45eb41115ddf2122625eb575d075067fe6e7",
          "blockNumber": "0x4a53a53",
          "blockTimestamp": "0x697a36d4",
          "transactionHash": "0x07c65a19a5932709e50ec33b425ef063d5a74c4b3283a27357cddeb278829101",
          "transactionIndex": "0x6b",
          "logIndex": "0x1b7",
          "removed": false
        }
      ],
      "logsBloom": "0x00000000000000000000010000000000001040040000000004000000000000000001000200000000000000000000000000000000000000000000000000000000000000000000000000000000000000000000000000000000000000000000000000000000000000000000000004000000000000000000000000000000000000000000000000000000000000000000080000000000000000000008000000000000000000000000000000000000000000000000002000000000000000000000000000000000000000000000000000000000000000000000000000000000000000800000000000000000000040000000402000000000000000000000000000000000",
      "type": "0x2",
      "transactionHash": "0x07c65a19a5932709e50ec33b425ef063d5a74c4b3283a27357cddeb278829101",
      "transactionIndex": "0x6b",
      "blockHash": "0x4582c6e3329acdd36505719aaebe45eb41115ddf2122625eb575d075067fe6e7",
      "blockNumber": "0x4a53a53",
      "gasUsed": "0x29e33",
      "effectiveGasPrice": "0x2faf080",
      "from": "0xac56dc5a4a9de0197f7b8f584ea04ec7e0123dde",
      "to": "0xa5dc2cb4dc13f12d8464eaa862fac00f19adc84d",
      "contractAddress": null
    }
  ],
  "libraries": [],
  "pending": [],
  "returns": {},
  "timestamp": 1769617111493,
  "chain": 56,
  "commit": null
}