{
  "transactions": [
    {
      "hash": "0x55c7e6d473e7f293f79d02ab88e6792690f4489ab0f57b1562ec96abf985f22a",
      "transactionType": "CALL",
      "contractName": null,
      "contractAddress": "0xa5dc2cb4dc13f12d8464eaa862fac00f19adc84d",
      "function": "trainSkill(uint8)",
      "arguments": [
        "0"
      ],
      "transaction": {
        "from": "0xaa73aa98480757d75aae288b5931261448eb0530",
        "to": "0xa5dc2cb4dc13f12d8464eaa862fac00f19adc84d",
        "gas": "0x3aa54",
        "value": "0x0",
        "input": "0xa0a73d0d0000000000000000000000000000000000000000000000000000000000000000",
        "nonce": "0x121",
        "chainId": "0x38"
      },
      "additionalContracts": [],
      "isFixedGasLimit": false
    }
  ],
  "receipts": [
    {
      "status": "0x1",
      "cumulativeGasUsed": "0xe068f2",
      "logs": [
        {
          "address": "0xaae5ef15499c71301123ee4b13d20d570d24ad5e",
          "topics": [
            "0x6dd0730fb835f9bbe38532c3d82c7c87448bfdec295f1d7cd2d72ff339632a52"
          ],
          "data": "0x00000000000000000000000000000000000000000000000000000000000000c00000000000000000000000000000000000000000000000000000000000000100000000000000000000000000aa73aa98480757d75aae288b5931261448eb05300000000000000000000000000000000000000000000000000000000000000000000000000000000000000000000000000000000000000000000000006983a208000000000000000000000000000000000000000000000000000000000000014000000000000000000000000000000000000000000000000000000000000000094b696c6c536b696c6c00000000000000000000000000000000000000000000000000000000000000000000000000000000000000000000000000000000000005547261696e0000000000000000000000000000000000000000000000000000000000000000000000000000000000000000000000000000000000000000000000",
          "blockHash": "0x6f5cd2dc3b41839d65ca6139207cd29cefe9da1866623a225686529887b67e00",
          "blockNumber": "0x4ba26e1",
          "blockTimestamp": "0x6983a208",
          "transactionHash": "0x55c7e6d473e7f293f79d02ab88e6792690f4489ab0f57b1562ec96abf985f22a",
          "transactionIndex": "0x6b",
          "logIndex": "0x137",
          "removed": false
        },
        {
          "address": "0xa5dc2cb4dc13f12d8464eaa862fac00f19adc84d",
          "topics": [
            "0xa2ecdf3a87e9ffdb151ad823ae834f6165f94e54e5a30467175e075254eb6376"
          ],
          "data": "0x000000000000000000000000aa73aa98480757d75aae288b5931261448eb05300000000000000000000000000000000000000000000000000000000000000000000000000000000000000000000000000000000000000000000000000000000000000000000000000000000000000000000000000000000000000000000000000000000000000000000000000000000000000000000000000000000000000000000000000000000000000000000000000000000000000000000000006983ac94000000000000000000000000000000000000000000000000000000006983a208",
          "blockHash": "0x6f5cd2dc3b41839d65ca6139207cd29cefe9da1866623a225686529887b67e00",
          "blockNumber": "0x4ba26e1",
          "blockTimestamp": "0x6983a208",
          "transactionHash": "0x55c7e6d473e7f293f79d02ab88e6792690f4489ab0f57b1562ec96abf985f22a",
          "transactionIndex": "0x6b",
          "logIndex": "0x138",
          "removed": false
        },
        {
          "address": "0xa5dc2cb4dc13f12d8464eaa862fac00f19adc84d",
          "topics": [
            "0x2f3c6b138bbc22991cb748093f24117969e5e880b28f9343c903b9473032267b"
          ],
          "data": "0x000000000000000000000000aa73aa98480757d75aae288b5931261448eb05300000000000000000000000000000000001b26da7d71d137019e6d4c0671eaffa00000000000000000000000000000000000000000000000000000000000011830000000000000000000000000000000000000000000000000000000000000190",
          "blockHash": "0x6f5cd2dc3b41839d65ca6139207cd29cefe9da1866623a225686529887b67e00",
          "blockNumber": "0x4ba26e1",
          "blockTimestamp": "0x6983a208",
          "transactionHash": "0x55c7e6d473e7f293f79d02ab88e6792690f4489ab0f57b1562ec96abf985f22a",
          "transactionIndex": "0x6b",
          "logIndex": "0x139",
          "removed": false
        }
      ],
      "logsBloom": "0x00000000000000000000010000000000001040040000000004000000000000000001000200000000000000000000000000000000000000000000000000000000000000000000000000000000000000000000000000000000000000000000000000000000000000000000000004000000000000000000000000000000000000000000000000000000000000000000080000000000000000000008000000000000000000000000000000000000000000000000002000000000000000000000000000000000000000000000000000000000000000000000000000000000000000800000000000000000000040000000402000000000000000000000000000000000",
      "type": "0x2",
      "transactionHash": "0x55c7e6d473e7f293f79d02ab88e6792690f4489ab0f57b1562ec96abf985f22a",
      "transactionIndex": "0x6b",
      "blockHash": "0x6f5cd2dc3b41839d65ca6139207cd29cefe9da1866623a225686529887b67e00",
      "blockNumber": "0x4ba26e1",
      "gasUsed": "0x2a756",
      "effectiveGasPrice": "0x2faf080",
      "from": "0xaa73aa98480757d75aae288b5931261448eb0530",
      "to": "0xa5dc2cb4dc13f12d8464eaa862fac00f19adc84d",
      "contractAddress": null
    }
  ],
  "libraries": [],
  "pending": [],
  "returns": {},
  "timestamp": 1770234378625,
  "chain": 56,
  "commit": null
}