{
  "transactions": [
    {
      "hash": "0x21a49a871d2173bcd55c20fe83a6ca2479f7be813339687c5e4119b0d0068751",
      "transactionType": "CALL",
      "contractName": null,
      "contractAddress": "0xa5dc2cb4dc13f12d8464eaa862fac00f19adc84d",
      "function": "trainSkill(uint8)",
      "arguments": [
        "0"
      ],
      "transaction": {
        "from": "0xac56dc5a4a9de0197f7b8f584ea04ec7e0123dde",
        "to": "0xa5dc2cb4dc13f12d8464eaa862fac00f19adc84d",
        "gas": "0x39e08",
        "value": "0x0",
        "input": "0xa0a73d0d0000000000000000000000000000000000000000000000000000000000000000",
        "nonce": "0x20",
        "chainId": "0x38"
      },
      "additionalContracts": [],
      "isFixedGasLimit": false
    }
  ],
  "receipts": [
    {
      "status": "0x1",
      "cumulativeGasUsed": "0xe92717",
      "logs": [
        {
          "address": "0xaae5ef15499c71301123ee4b13d20d570d24ad5e",
          "topics": [
            "0x6dd0730fb835f9bbe38532c3d82c7c87448bfdec295f1d7cd2d72ff339632a52"
          ],
          "data": "0x00000000000000000000000000000000000000000000000000000000000000c00000000000000000000000000000000000000000000000000000000000000100000000000000000000000000ac56dc5a4a9de0197f7b8f584ea04ec7e0123dde0000000000000000000000000000000000000000000000000000000000000000000000000000000000000000000000000000000000000000000000006979f5e0000000000000000000000000000000000000000000000000000000000000014000000000000000000000000000000000000000000000000000000000000000094b696c6c536b696c6c00000000000000000000000000000000000000000000000000000000000000000000000000000000000000000000000000000000000005547261696e0000000000000000000000000000000000000000000000000000000000000000000000000000000000000000000000000000000000000000000000",
          "blockHash": "0x6fc29f4ca204c73d2de4e9cdb76300a238382b8f2df351667653b5fad2193b7a",
          "blockNumber": "0x4a4aa07",
          "blockTimestamp": "0x6979f5e0",
          "transactionHash": "0x21a49a871d2173bcd55c20fe83a6ca2479f7be813339687c5e4119b0d0068751",
          "transactionIndex": "0x5b",
          "logIndex": "0x16b",
          "removed": false
        },
        {
          "address": "0xa5dc2cb4dc13f12d8464eaa862fac00f19adc84d",
          "topics": [
            "0xa2ecdf3a87e9ffdb151ad823ae834f6165f94e54e5a30467175e075254eb6376"
          ],
          "data": "0x000000000000000000000000ac56dc5a4a9de0197f7b8f584ea04ec7e0123dde000000000000000000000000000000000000000000000000000000000000000000000000000000000000000000000000000000000000000000000000000000000000000000000000000000000000000000000000000000000000000000000000000000000000000000000000000000000000000000000000000000000000000000000000000000000000000000000000000000000000000000000000697a006c000000000000000000000000000000000000000000000000000000006979f5e0",
          "blockHash": "0x6fc29f4ca204c73d2de4e9cdb76300a238382b8f2df351667653b5fad2193b7a",
          "blockNumber": "0x4a4aa07",
          "blockTimestamp": "0x6979f5e0",
          "transactionHash": "0x21a49a871d2173bcd55c20fe83a6ca2479f7be813339687c5e4119b0d0068751",
          "transactionIndex": "0x5b",
          "logIndex": "0x16c",
          "removed": false
        },
        {
          "address": "0xa5dc2cb4dc13f12d8464eaa862fac00f19adc84d",
          "topics": [
            "0x2f3c6b138bbc22991cb748093f24117969e5e880b28f9343c903b9473032267b"
          ],
          "data": "0x000000000000000000000000ac56dc5a4a9de0197f7b8f584ea04ec7e0123dde00000000000000000000000000000000ba84f8f83403898fe6d35ba4b5fcb3f500000000000000000000000000000000000000000000000000000000000004ae0000000000000000000000000000000000000000000000000000000000000190",
          "blockHash": "0x6fc29f4ca204c73d2de4e9cdb76300a238382b8f2df351667653b5fad2193b7a",
          "blockNumber": "0x4a4aa07",
          "blockTimestamp": "0x6979f5e0",
          "transactionHash": "0x21a49a871d2173bcd55c20fe83a6ca2479f7be813339687c5e4119b0d0068751",
          "transactionIndex": "0x5b",
          "logIndex": "0x16d",
          "removed": false
        }
      ],
      "logsBloom": "0x00000000000000000000010000000000001040040000000004000000000000000001000200000000000000000000000000000000000000000000000000000000000000000000000000000000000000000000000000000000000000000000000000000000000000000000000004000000000000000000000000000000000000000000000000000000000000000000080000000000000000000008000000000000000000000000000000000000000000000000002000000000000000000000000000000000000000000000000000000000000000000000000000000000000000800000000000000000000040000000402000000000000000000000000000000000",
      "type": "0x2",
      "transactionHash": "0x21a49a871d2173bcd55c20fe83a6ca2479f7be813339687c5e4119b0d0068751",
      "transactionIndex": "0x5b",
      "blockHash": "0x6fc29f4ca204c73d2de4e9cdb76300a238382b8f2df351667653b5fad2193b7a",
      "blockNumber": "0x4a4aa07",
      "gasUsed": "0x29e6f",
      "effectiveGasPrice": "0x2faf080",
      "from": "0xac56dc5a4a9de0197f7b8f584ea04ec7e0123dde",
      "to": "0xa5dc2cb4dc13f12d8464eaa862fac00f19adc84d",
      "contractAddress": null
    }
  ],
  "libraries": [],
  "pending": [],
  "returns": {},
  "timestamp": 1769600482121,
  "chain": 56,
  "commit": null
}