{
  "transactions": [
    {
      "hash": "0x36ae910ad5f1cedd151b3120d6d07a23c457bfd7ac95d95d507d523809ec2b1f",
      "transactionType": "CALL",
      "contractName": null,
      "contractAddress": "0xa5dc2cb4dc13f12d8464eaa862fac00f19adc84d",
      "function": "trainSkill(uint8)",
      "arguments": [
        "0"
      ],
      "transaction": {
        "from": "0xaa73aa98480757d75aae288b5931261448eb0530",
        "to": "0xa5dc2cb4dc13f12d8464eaa862fac00f19adc84d",
        "gas": "0x3aa54",
        "value": "0x0",
        "input": "0xa0a73d0d0000000000000000000000000000000000000000000000000000000000000000",
        "nonce": "0x16c",
        "chainId": "0x38"
      },
      "additionalContracts": [],
      "isFixedGasLimit": false
    }
  ],
  "receipts": [
    {
      "status": "0x1",
      "cumulativeGasUsed": "0x3e947f",
      "logs": [
        {
          "address": "0xaae5ef15499c71301123ee4b13d20d570d24ad5e",
          "topics": [
            "0x6dd0730fb835f9bbe38532c3d82c7c87448bfdec295f1d7cd2d72ff339632a52"
          ],
          "data": "0x00000000000000000000000000000000000000000000000000000000000000c00000000000000000000000000000000000000000000000000000000000000100000000000000000000000000aa73aa98480757d75aae288b5931261448eb05300000000000000000000000000000000000000000000000000000000000000000000000000000000000000000000000000000000000000000000000006987adca000000000000000000000000000000000000000000000000000000000000014000000000000000000000000000000000000000000000000000000000000000094b696c6c536b696c6c00000000000000000000000000000000000000000000000000000000000000000000000000000000000000000000000000000000000005547261696e0000000000000000000000000000000000000000000000000000000000000000000000000000000000000000000000000000000000000000000000",
          "blockHash": "0x3471b25835ff356a5d3b6b7c12dcd15cf289330e430563c6c726a28aa84d1d18",
          "blockNumber": "0x4c3242b",
          "blockTimestamp": "0x6987adca",
          "transactionHash": "0x36ae910ad5f1cedd151b3120d6d07a23c457bfd7ac95d95d507d523809ec2b1f",
          "transactionIndex": "0x24",
          "logIndex": "0x85",
          "removed": false
        },
        {
          "address": "0xa5dc2cb4dc13f12d8464eaa862fac00f19adc84d",
          "topics": [
            "0xa2ecdf3a87e9ffdb151ad823ae834f6165f94e54e5a30467175e075254eb6376"
          ],
          "data": "0x000000000000000000000000aa73aa98480757d75aae288b5931261448eb05300000000000000000000000000000000000000000000000000000000000000000000000000000000000000000000000000000000000000000000000000000000000000000000000000000000000000000000000000000000000000000000000000000000000000000000000000000000000000000000000000000000000000000000000000000000000000000000000000000000000000000000000006987b856000000000000000000000000000000000000000000000000000000006987adca",
          "blockHash": "0x3471b25835ff356a5d3b6b7c12dcd15cf289330e430563c6c726a28aa84d1d18",
          "blockNumber": "0x4c3242b",
          "blockTimestamp": "0x6987adca",
          "transactionHash": "0x36ae910ad5f1cedd151b3120d6d07a23c457bfd7ac95d95d507d523809ec2b1f",
          "transactionIndex": "0x24",
          "logIndex": "0x86",
          "removed": false
        },
        {
          "address": "0xa5dc2cb4dc13f12d8464eaa862fac00f19adc84d",
          "topics": [
            "0x2f3c6b138bbc22991cb748093f24117969e5e880b28f9343c903b9473032267b"
          ],
          "data": "0x000000000000000000000000aa73aa98480757d75aae288b5931261448eb053000000000000000000000000000000000aacff059a1d06d19da639b25f04f941100000000000000000000000000000000000000000000000000000000000019f40000000000000000000000000000000000000000000000000000000000000190",
          "blockHash": "0x3471b25835ff356a5d3b6b7c12dcd15cf289330e430563c6c726a28aa84d1d18",
          "blockNumber": "0x4c3242b",
          "blockTimestamp": "0x6987adca",
          "transactionHash": "0x36ae910ad5f1cedd151b3120d6d07a23c457bfd7ac95d95d507d523809ec2b1f",
          "transactionIndex": "0x24",
          "logIndex": "0x87",
          "removed": false
        }
      ],
      "logsBloom": "0x00000000000000000000010000000000001040040000000004000000000000000001000200000000000000000000000000000000000000000000000000000000000000000000000000000000000000000000000000000000000000000000000000000000000000000000000004000000000000000000000000000000000000000000000000000000000000000000080000000000000000000008000000000000000000000000000000000000000000000000002000000000000000000000000000000000000000000000000000000000000000000000000000000000000000800000000000000000000040000000402000000000000000000000000000000000",
      "type": "0x2",
      "transactionHash": "0x36ae910ad5f1cedd151b3120d6d07a23c457bfd7ac95d95d507d523809ec2b1f",
      "transactionIndex": "0x24",
      "blockHash": "0x3471b25835ff356a5d3b6b7c12dcd15cf289330e430563c6c726a28aa84d1d18",
      "blockNumber": "0x4c3242b",
      "gasUsed": "0x2a756",
      "effectiveGasPrice": "0x2faf080",
      "from": "0xaa73aa98480757d75aae288b5931261448eb0530",
      "to": "0xa5dc2cb4dc13f12d8464eaa862fac00f19adc84d",
      "contractAddress": null
    }
  ],
  "libraries": [],
  "pending": [],
  "returns": {},
  "timestamp": 1770499532606,
  "chain": 56,
  "commit": null
}