{
  "transactions": [
    {
      "hash": "0x72cd2e3b64db9cc3ccebc1303537bde70cd9423675d4f0643b5921891314f463",
      "transactionType": "CALL",
      "contractName": null,
      "contractAddress": "0xa5dc2cb4dc13f12d8464eaa862fac00f19adc84d",
      "function": "trainSkill(uint8)",
      "arguments": [
        "0"
      ],
      "transaction": {
        "from": "0xaa73aa98480757d75aae288b5931261448eb0530",
        "to": "0xa5dc2cb4dc13f12d8464eaa862fac00f19adc84d",
        "gas": "0x3aa54",
        "value": "0x0",
        "input": "0xa0a73d0d0000000000000000000000000000000000000000000000000000000000000000",
        "nonce": "0x19b",
        "chainId": "0x38"
      },
      "additionalContracts": [],
      "isFixedGasLimit": false
    }
  ],
  "receipts": [
    {
      "status": "0x1",
      "cumulativeGasUsed": "0x53239c",
      "logs": [
        {
          "address": "0xaae5ef15499c71301123ee4b13d20d570d24ad5e",
          "topics": [
            "0x6dd0730fb835f9bbe38532c3d82c7c87448bfdec295f1d7cd2d72ff339632a52"
          ],
          "data": "0x00000000000000000000000000000000000000000000000000000000000000c00000000000000000000000000000000000000000000000000000000000000100000000000000000000000000aa73aa98480757d75aae288b5931261448eb053000000000000000000000000000000000000000000000000000000000000000000000000000000000000000000000000000000000000000000000000069884bfc000000000000000000000000000000000000000000000000000000000000014000000000000000000000000000000000000000000000000000000000000000094b696c6c536b696c6c00000000000000000000000000000000000000000000000000000000000000000000000000000000000000000000000000000000000005547261696e0000000000000000000000000000000000000000000000000000000000000000000000000000000000000000000000000000000000000000000000",
          "blockHash": "0x0f8ceb5c029553979ebe42c8e5bd4ddf2eff4d39e89d46a4d3e6eaafa2116028",
          "blockNumber": "0x4c483ac",
          "blockTimestamp": "0x69884bfc",
          "transactionHash": "0x72cd2e3b64db9cc3ccebc1303537bde70cd9423675d4f0643b5921891314f463",
          "transactionIndex": "0x28",
          "logIndex": "0x95",
          "removed": false
        },
        {
          "address": "0xa5dc2cb4dc13f12d8464eaa862fac00f19adc84d",
          "topics": [
            "0xa2ecdf3a87e9ffdb151ad823ae834f6165f94e54e5a30467175e075254eb6376"
          ],
          "data": "0x000000000000000000000000aa73aa98480757d75aae288b5931261448eb0530000000000000000000000000000000000000000000000000000000000000000000000000000000000000000000000000000000000000000000000000000000000000000000000000000000000000000000000000000000000000000000000000000000000000000000000000000000000000000000000000000000000000000000000000000000000000000000000000000000000000000000000000698856880000000000000000000000000000000000000000000000000000000069884bfc",
          "blockHash": "0x0f8ceb5c029553979ebe42c8e5bd4ddf2eff4d39e89d46a4d3e6eaafa2116028",
          "blockNumber": "0x4c483ac",
          "blockTimestamp": "0x69884bfc",
          "transactionHash": "0x72cd2e3b64db9cc3ccebc1303537bde70cd9423675d4f0643b5921891314f463",
          "transactionIndex": "0x28",
          "logIndex": "0x96",
          "removed": false
        },
        {
          "address": "0xa5dc2cb4dc13f12d8464eaa862fac00f19adc84d",
          "topics": [
            "0x2f3c6b138bbc22991cb748093f24117969e5e880b28f9343c903b9473032267b"
          ],
          "data": "0x000000000000000000000000aa73aa98480757d75aae288b5931261448eb053000000000000000000000000000000000fb0e456df64d14e9d8c81c1bc7a641f300000000000000000000000000000000000000000000000000000000000010ca0000000000000000000000000000000000000000000000000000000000000190",
          "blockHash": "0x0f8ceb5c029553979ebe42c8e5bd4ddf2eff4d39e89d46a4d3e6eaafa2116028",
          "blockNumber": "0x4c483ac",
          "blockTimestamp": "0x69884bfc",
          "transactionHash": "0x72cd2e3b64db9cc3ccebc1303537bde70cd9423675d4f0643b5921891314f463",
          "transactionIndex": "0x28",
          "logIndex": "0x97",
          "removed": false
        }
      ],
      "logsBloom": "0x00000000000000000000010000000000001040040000000004000000000000000001000200000000000000000000000000000000000000000000000000000000000000000000000000000000000000000000000000000000000000000000000000000000000000000000000004000000000000000000000000000000000000000000000000000000000000000000080000000000000000000008000000000000000000000000000000000000000000000000002000000000000000000000000000000000000000000000000000000000000000000000000000000000000000800000000000000000000040000000402000000000000000000000000000000000",
      "type": "0x2",
      "transactionHash": "0x72cd2e3b64db9cc3ccebc1303537bde70cd9423675d4f0643b5921891314f463",
      "transactionIndex": "0x28",
      "blockHash": "0x0f8ceb5c029553979ebe42c8e5bd4ddf2eff4d39e89d46a4d3e6eaafa2116028",
      "blockNumber": "0x4c483ac",
      "gasUsed": "0x2a756",
      "effectiveGasPrice": "0x2faf080",
      "from": "0xaa73aa98480757d75aae288b5931261448eb0530",
      "to": "0xa5dc2cb4dc13f12d8464eaa862fac00f19adc84d",
      "contractAddress": null
    }
  ],
  "libraries": [],
  "pending": [],
  "returns": {},
  "timestamp": 1770540030120,
  "chain": 56,
  "commit": null
}