{
  "transactions": [
    {
      "hash": "0xf2f98b4216b211f772de9ad66fbc68bc2f5e7a5e7d284f9a9bf19b07ca47a7f4",
      "transactionType": "CALL",
      "contractName": null,
      "contractAddress": "0xa5dc2cb4dc13f12d8464eaa862fac00f19adc84d",
      "function": "trainSkill(uint8)",
      "arguments": [
        "0"
      ],
      "transaction": {
        "from": "0xac56dc5a4a9de0197f7b8f584ea04ec7e0123dde",
        "to": "0xa5dc2cb4dc13f12d8464eaa862fac00f19adc84d",
        "gas": "0x3d42a",
        "value": "0x0",
        "input": "0xa0a73d0d0000000000000000000000000000000000000000000000000000000000000000",
        "nonce": "0x25",
        "chainId": "0x38"
      },
      "additionalContracts": [],
      "isFixedGasLimit": false
    }
  ],
  "receipts": [
    {
      "status": "0x1",
      "cumulativeGasUsed": "0xfec865",
      "logs": [
        {
          "address": "0xaae5ef15499c71301123ee4b13d20d570d24ad5e",
          "topics": [
            "0x6dd0730fb835f9bbe38532c3d82c7c87448bfdec295f1d7cd2d72ff339632a52"
          ],
          "data": "0x00000000000000000000000000000000000000000000000000000000000000c00000000000000000000000000000000000000000000000000000000000000100000000000000000000000000ac56dc5a4a9de0197f7b8f584ea04ec7e0123dde000000000000000000000000000000000000000000000000000000000000000000000000000000000000000000000000000000000000000000000000697a2be3000000000000000000000000000000000000000000000000000000000000014000000000000000000000000000000000000000000000000000000000000000094b696c6c536b696c6c00000000000000000000000000000000000000000000000000000000000000000000000000000000000000000000000000000000000005547261696e0000000000000000000000000000000000000000000000000000000000000000000000000000000000000000000000000000000000000000000000",
          "blockHash": "0xc8c61a3102382afddba2b71b32d95f30da017a2297352046e1bd6728b141bbaf",
          "blockNumber": "0x4a52204",
          "blockTimestamp": "0x697a2be3",
          "transactionHash": "0xf2f98b4216b211f772de9ad66fbc68bc2f5e7a5e7d284f9a9bf19b07ca47a7f4",
          "transactionIndex": "0x6f",
          "logIndex": "0x1e0",
          "removed": false
        },
        {
          "address": "0xa5dc2cb4dc13f12d8464eaa862fac00f19adc84d",
          "topics": [
            "0xa2ecdf3a87e9ffdb151ad823ae834f6165f94e54e5a30467175e075254eb6376"
          ],
          "data": "0x000000000000000000000000ac56dc5a4a9de0197f7b8f584ea04ec7e0123dde000000000000000000000000000000000000000000000000000000000000000000000000000000000000000000000000000000000000000000000000000000000000000000000000000000000000000000000000000000000000000000000000000000000000000000000000000000000000000000000000000000000000000000000000000000000000000000000000000000000000000000000000697a366f00000000000000000000000000000000000000000000000000000000697a2be3",
          "blockHash": "0xc8c61a3102382afddba2b71b32d95f30da017a2297352046e1bd6728b141bbaf",
          "blockNumber": "0x4a52204",
          "blockTimestamp": "0x697a2be3",
          "transactionHash": "0xf2f98b4216b211f772de9ad66fbc68bc2f5e7a5e7d284f9a9bf19b07ca47a7f4",
          "transactionIndex": "0x6f",
          "logIndex": "0x1e1",
          "removed": false
        },
        {
          "address": "0xa5dc2cb4dc13f12d8464eaa862fac00f19adc84d",
          "topics": [
            "0x2f3c6b138bbc22991cb748093f24117969e5e880b28f9343c903b9473032267b"
          ],
          "data": "0x000000000000000000000000ac56dc5a4a9de0197f7b8f584ea04ec7e0123dde00000000000000000000000000000000df9178c11abbcb23198161739ddd00570000000000000000000000000000000000000000000000000000000000000fff0000000000000000000000000000000000000000000000000000000000000190",
          "blockHash": "0xc8c61a3102382afddba2b71b32d95f30da017a2297352046e1bd6728b141bbaf",
          "blockNumber": "0x4a52204",
          "blockTimestamp": "0x697a2be3",
          "transactionHash": "0xf2f98b4216b211f772de9ad66fbc68bc2f5e7a5e7d284f9a9bf19b07ca47a7f4",
          "transactionIndex": "0x6f",
          "logIndex": "0x1e2",
          "removed": false
        }
      ],
      "logsBloom": "0x00000000000000000000010000000000001040040000000004000000000000000001000200000000000000000000000000000000000000000000000000000000000000000000000000000000000000000000000000000000000000000000000000000000000000000000000004000000000000000000000000000000000000000000000000000000000000000000080000000000000000000008000000000000000000000000000000000000000000000000002000000000000000000000000000000000000000000000000000000000000000000000000000000000000000800000000000000000000040000000402000000000000000000000000000000000",
      "type": "0x2",
      "transactionHash": "0xf2f98b4216b211f772de9ad66fbc68bc2f5e7a5e7d284f9a9bf19b07ca47a7f4",
      "transactionIndex": "0x6f",
      "blockHash": "0xc8c61a3102382afddba2b71b32d95f30da017a2297352046e1bd6728b141bbaf",
      "blockNumber": "0x4a52204",
      "gasUsed": "0x29e33",
      "effectiveGasPrice": "0x2faf080",
      "from": "0xac56dc5a4a9de0197f7b8f584ea04ec7e0123dde",
      "to": "0xa5dc2cb4dc13f12d8464eaa862fac00f19adc84d",
      "contractAddress": null
    }
  ],
  "libraries": [],
  "pending": [],
  "returns": {},
  "timestamp": 1769614309391,
  "chain": 56,
  "commit": null
}