{
  "transactions": [
    {
      "hash": "0x4573293fdb5dfa43e97aad181684f0cc27058bb59e77f0f400f20f2c7e59ada1",
      "transactionType": "CALL",
      "contractName": null,
      "contractAddress": "0xa5dc2cb4dc13f12d8464eaa862fac00f19adc84d",
      "function": "trainSkill(uint8)",
      "arguments": [
        "0"
      ],
      "transaction": {
        "from": "0x4c62f6121e6f967a0872da8364995e9b68c1e82f",
        "to": "0xa5dc2cb4dc13f12d8464eaa862fac00f19adc84d",
        "gas": "0x3e12f",
        "value": "0x0",
        "input": "0xa0a73d0d0000000000000000000000000000000000000000000000000000000000000000",
        "nonce": "0x1cc",
        "chainId": "0x38"
      },
      "additionalContracts": [],
      "isFixedGasLimit": false
    }
  ],
  "receipts": [
    {
      "status": "0x1",
      "cumulativeGasUsed": "0x443882",
      "logs": [
        {
          "address": "0xaae5ef15499c71301123ee4b13d20d570d24ad5e",
          "topics": [
            "0x6dd0730fb835f9bbe38532c3d82c7c87448bfdec295f1d7cd2d72ff339632a52"
          ],
          "data": "0x00000000000000000000000000000000000000000000000000000000000000c000000000000000000000000000000000000000000000000000000000000001000000000000000000000000004c62f6121e6f967a0872da8364995e9b68c1e82f00000000000000000000000000000000000000000000000000000000000000000000000000000000000000000000000000000000000000000000000069882b9f000000000000000000000000000000000000000000000000000000000000014000000000000000000000000000000000000000000000000000000000000000094b696c6c536b696c6c00000000000000000000000000000000000000000000000000000000000000000000000000000000000000000000000000000000000005547261696e0000000000000000000000000000000000000000000000000000000000000000000000000000000000000000000000000000000000000000000000",
          "blockHash": "0x9d86f59473cf6c5c5f53c77714c4cb50dc2f9fb213f8989c133bebb773d678ba",
          "blockNumber": "0x4c43bc4",
          "blockTimestamp": "0x69882b9f",
          "transactionHash": "0x4573293fdb5dfa43e97aad181684f0cc27058bb59e77f0f400f20f2c7e59ada1",
          "transactionIndex": "0x29",
          "logIndex": "0x97",
          "removed": false
        },
        {
          "address": "0xa5dc2cb4dc13f12d8464eaa862fac00f19adc84d",
          "topics": [
            "0xa2ecdf3a87e9ffdb151ad823ae834f6165f94e54e5a30467175e075254eb6376"
          ],
          "data": "0x0000000000000000000000004c62f6121e6f967a0872da8364995e9b68c1e82f0000000000000000000000000000000000000000000000000000000000000000000000000000000000000000000000000000000000000000000000000000000000000000000000000000000000000000000000000000000000000000000000000000000000000000000000000000000000000000000000000000000000000000000000000000000000000000000000000000000000000000000000006988362b0000000000000000000000000000000000000000000000000000000069882b9f",
          "blockHash": "0x9d86f59473cf6c5c5f53c77714c4cb50dc2f9fb213f8989c133bebb773d678ba",
          "blockNumber": "0x4c43bc4",
          "blockTimestamp": "0x69882b9f",
          "transactionHash": "0x4573293fdb5dfa43e97aad181684f0cc27058bb59e77f0f400f20f2c7e59ada1",
          "transactionIndex": "0x29",
          "logIndex": "0x98",
          "removed": false
        },
        {
          "address": "0xa5dc2cb4dc13f12d8464eaa862fac00f19adc84d",
          "topics": [
            "0x2f3c6b138bbc22991cb748093f24117969e5e880b28f9343c903b9473032267b"
          ],
          "data": "0x0000000000000000000000004c62f6121e6f967a0872da8364995e9b68c1e82f000000000000000000000000000000001a7aa35c755bcf795cb1a81bc5e557710000000000000000000000000000000000000000000000000000000000000a040000000000000000000000000000000000000000000000000000000000000190",
          "blockHash": "0x9d86f59473cf6c5c5f53c77714c4cb50dc2f9fb213f8989c133bebb773d678ba",
          "blockNumber": "0x4c43bc4",
          "blockTimestamp": "0x69882b9f",
          "transactionHash": "0x4573293fdb5dfa43e97aad181684f0cc27058bb59e77f0f400f20f2c7e59ada1",
          "transactionIndex": "0x29",
          "logIndex": "0x99",
          "removed": false
        }
      ],
      "logsBloom": "0x00000000000000000000010000000000001040040000000004000000000000000001000200000000000000000000000000000000000000000000000000000000000000000000000000000000000000000000000000000000000000000000000000000000000000000000000004000000000000000000000000000000000000000000000000000000000000000000080000000000000000000008000000000000000000000000000000000000000000000000002000000000000000000000000000000000000000000000000000000000000000000000000000000000000000800000000000000000000040000000402000000000000000000000000000000000",
      "type": "0x2",
      "transactionHash": "0x4573293fdb5dfa43e97aad181684f0cc27058bb59e77f0f400f20f2c7e59ada1",
      "transactionIndex": "0x29",
      "blockHash": "0x9d86f59473cf6c5c5f53c77714c4cb50dc2f9fb213f8989c133bebb773d678ba",
      "blockNumber": "0x4c43bc4",
      "gasUsed": "0x2a71a",
      "effectiveGasPrice": "0x2faf080",
      "from": "0x4c62f6121e6f967a0872da8364995e9b68c1e82f",
      "to": "0xa5dc2cb4dc13f12d8464eaa862fac00f19adc84d",
      "contractAddress": null
    }
  ],
  "libraries": [],
  "pending": [],
  "returns": {},
  "timestamp": 1770531744846,
  "chain": 56,
  "commit": null
}