{
  "transactions": [
    {
      "hash": "0xa2a4345d101c2ca83c9e05e4b7daa55212f0d06fd6c8da1595043c699bae8652",
      "transactionType": "CALL",
      "contractName": null,
      "contractAddress": "0xa5dc2cb4dc13f12d8464eaa862fac00f19adc84d",
      "function": "trainSkill(uint8)",
      "arguments": [
        "0"
      ],
      "transaction": {
        "from": "0xec646a6c9000e04d050435340d9c42c039eb5648",
        "to": "0xa5dc2cb4dc13f12d8464eaa862fac00f19adc84d",
        "gas": "0x3e12f",
        "value": "0x0",
        "input": "0xa0a73d0d0000000000000000000000000000000000000000000000000000000000000000",
        "nonce": "0xc4",
        "chainId": "0x38"
      },
      "additionalContracts": [],
      "isFixedGasLimit": false
    }
  ],
  "receipts": [
    {
      "status": "0x1",
      "cumulativeGasUsed": "0x5adc72",
      "logs": [
        {
          "address": "0xaae5ef15499c71301123ee4b13d20d570d24ad5e",
          "topics": [
            "0x6dd0730fb835f9bbe38532c3d82c7c87448bfdec295f1d7cd2d72ff339632a52"
          ],
          "data": "0x00000000000000000000000000000000000000000000000000000000000000c00000000000000000000000000000000000000000000000000000000000000100000000000000000000000000ec646a6c9000e04d050435340d9c42c039eb5648000000000000000000000000000000000000000000000000000000000000000000000000000000000000000000000000000000000000000000000000698815b4000000000000000000000000000000000000000000000000000000000000014000000000000000000000000000000000000000000000000000000000000000094b696c6c536b696c6c00000000000000000000000000000000000000000000000000000000000000000000000000000000000000000000000000000000000005547261696e0000000000000000000000000000000000000000000000000000000000000000000000000000000000000000000000000000000000000000000000",
          "blockHash": "0xa32421aaa0c45d9cc91e7c172d6d5c0c766d4ecd04f17a45a90353fd6547c731",
          "blockNumber": "0x4c40b10",
          "blockTimestamp": "0x698815b4",
          "transactionHash": "0xa2a4345d101c2ca83c9e05e4b7daa55212f0d06fd6c8da1595043c699bae8652",
          "transactionIndex": "0x45",
          "logIndex": "0x9e",
          "removed": false
        },
        {
          "address": "0xa5dc2cb4dc13f12d8464eaa862fac00f19adc84d",
          "topics": [
            "0xa2ecdf3a87e9ffdb151ad823ae834f6165f94e54e5a30467175e075254eb6376"
          ],
          "data": "0x000000000000000000000000ec646a6c9000e04d050435340d9c42c039eb56480000000000000000000000000000000000000000000000000000000000000000000000000000000000000000000000000000000000000000000000000000000000000000000000000000000000000000000000000000000000000000000000000000000000000000000000000000000000000000000000000000000000000000000000000000000000000000000000000000000000000000000000006988204000000000000000000000000000000000000000000000000000000000698815b4",
          "blockHash": "0xa32421aaa0c45d9cc91e7c172d6d5c0c766d4ecd04f17a45a90353fd6547c731",
          "blockNumber": "0x4c40b10",
          "blockTimestamp": "0x698815b4",
          "transactionHash": "0xa2a4345d101c2ca83c9e05e4b7daa55212f0d06fd6c8da1595043c699bae8652",
          "transactionIndex": "0x45",
          "logIndex": "0x9f",
          "removed": false
        },
        {
          "address": "0xa5dc2cb4dc13f12d8464eaa862fac00f19adc84d",
          "topics": [
            "0x2f3c6b138bbc22991cb748093f24117969e5e880b28f9343c903b9473032267b"
          ],
          "data": "0x000000000000000000000000ec646a6c9000e04d050435340d9c42c039eb564800000000000000000000000000000000c166f56d38c8c981745d3f2373e2c17b0000000000000000000000000000000000000000000000000000000000001ce10000000000000000000000000000000000000000000000000000000000000190",
          "blockHash": "0xa32421aaa0c45d9cc91e7c172d6d5c0c766d4ecd04f17a45a90353fd6547c731",
          "blockNumber": "0x4c40b10",
          "blockTimestamp": "0x698815b4",
          "transactionHash": "0xa2a4345d101c2ca83c9e05e4b7daa55212f0d06fd6c8da1595043c699bae8652",
          "transactionIndex": "0x45",
          "logIndex": "0xa0",
          "removed": false
        }
      ],
      "logsBloom": "0x00000000000000000000010000000000001040040000000004000000000000000001000200000000000000000000000000000000000000000000000000000000000000000000000000000000000000000000000000000000000000000000000000000000000000000000000004000000000000000000000000000000000000000000000000000000000000000000080000000000000000000008000000000000000000000000000000000000000000000000002000000000000000000000000000000000000000000000000000000000000000000000000000000000000000800000000000000000000040000000402000000000000000000000000000000000",
      "type": "0x2",
      "transactionHash": "0xa2a4345d101c2ca83c9e05e4b7daa55212f0d06fd6c8da1595043c699bae8652",
      "transactionIndex": "0x45",
      "blockHash": "0xa32421aaa0c45d9cc91e7c172d6d5c0c766d4ecd04f17a45a90353fd6547c731",
      "blockNumber": "0x4c40b10",
      "gasUsed": "0x2a71a",
      "effectiveGasPrice": "0x2faf080",
      "from": "0xec646a6c9000e04d050435340d9c42c039eb5648",
      "to": "0xa5dc2cb4dc13f12d8464eaa862fac00f19adc84d",
      "contractAddress": null
    }
  ],
  "libraries": [],
  "pending": [],
  "returns": {},
  "timestamp": 1770526134179,
  "chain": 56,
  "commit": null
}