{
  "transactions": [
    {
      "hash": "0x457326ff211397e4a595d6227e65734d1ba784a9f4eb46398f81edc42580cf17",
      "transactionType": "CALL",
      "contractName": null,
      "contractAddress": "0xa5dc2cb4dc13f12d8464eaa862fac00f19adc84d",
      "function": "trainSkill(uint8)",
      "arguments": [
        "0"
      ],
      "transaction": {
        "from": "0xec646a6c9000e04d050435340d9c42c039eb5648",
        "to": "0xa5dc2cb4dc13f12d8464eaa862fac00f19adc84d",
        "gas": "0x3e12f",
        "value": "0x0",
        "input": "0xa0a73d0d0000000000000000000000000000000000000000000000000000000000000000",
        "nonce": "0xa1",
        "chainId": "0x38"
      },
      "additionalContracts": [],
      "isFixedGasLimit": false
    }
  ],
  "receipts": [
    {
      "status": "0x1",
      "cumulativeGasUsed": "0x4854be",
      "logs": [
        {
          "address": "0xaae5ef15499c71301123ee4b13d20d570d24ad5e",
          "topics": [
            "0x6dd0730fb835f9bbe38532c3d82c7c87448bfdec295f1d7cd2d72ff339632a52"
          ],
          "data": "0x00000000000000000000000000000000000000000000000000000000000000c00000000000000000000000000000000000000000000000000000000000000100000000000000000000000000ec646a6c9000e04d050435340d9c42c039eb5648000000000000000000000000000000000000000000000000000000000000000000000000000000000000000000000000000000000000000000000000698797e2000000000000000000000000000000000000000000000000000000000000014000000000000000000000000000000000000000000000000000000000000000094b696c6c536b696c6c00000000000000000000000000000000000000000000000000000000000000000000000000000000000000000000000000000000000005547261696e0000000000000000000000000000000000000000000000000000000000000000000000000000000000000000000000000000000000000000000000",
          "blockHash": "0xde6b58083a00aef9a81fbe446028a22de5bb3bdf2ab133b718b448b04c1a632d",
          "blockNumber": "0x4c2f37c",
          "blockTimestamp": "0x698797e2",
          "transactionHash": "0x457326ff211397e4a595d6227e65734d1ba784a9f4eb46398f81edc42580cf17",
          "transactionIndex": "0x29",
          "logIndex": "0x8e",
          "removed": false
        },
        {
          "address": "0xa5dc2cb4dc13f12d8464eaa862fac00f19adc84d",
          "topics": [
            "0xa2ecdf3a87e9ffdb151ad823ae834f6165f94e54e5a30467175e075254eb6376"
          ],
          "data": "0x000000000000000000000000ec646a6c9000e04d050435340d9c42c039eb56480000000000000000000000000000000000000000000000000000000000000000000000000000000000000000000000000000000000000000000000000000000000000000000000000000000000000000000000000000000000000000000000000000000000000000000000000000000000000000000000000000000000000000000000000000000000000000000000000000000000000000000000006987a26e00000000000000000000000000000000000000000000000000000000698797e2",
          "blockHash": "0xde6b58083a00aef9a81fbe446028a22de5bb3bdf2ab133b718b448b04c1a632d",
          "blockNumber": "0x4c2f37c",
          "blockTimestamp": "0x698797e2",
          "transactionHash": "0x457326ff211397e4a595d6227e65734d1ba784a9f4eb46398f81edc42580cf17",
          "transactionIndex": "0x29",
          "logIndex": "0x8f",
          "removed": false
        },
        {
          "address": "0xa5dc2cb4dc13f12d8464eaa862fac00f19adc84d",
          "topics": [
            "0x2f3c6b138bbc22991cb748093f24117969e5e880b28f9343c903b9473032267b"
          ],
          "data": "0x000000000000000000000000ec646a6c9000e04d050435340d9c42c039eb5648000000000000000000000000000000000de9a7032c207d92db52ea4a39c48842000000000000000000000000000000000000000000000000000000000000039e0000000000000000000000000000000000000000000000000000000000000190",
          "blockHash": "0xde6b58083a00aef9a81fbe446028a22de5bb3bdf2ab133b718b448b04c1a632d",
          "blockNumber": "0x4c2f37c",
          "blockTimestamp": "0x698797e2",
          "transactionHash": "0x457326ff211397e4a595d6227e65734d1ba784a9f4eb46398f81edc42580cf17",
          "transactionIndex": "0x29",
          "logIndex": "0x90",
          "removed": false
        }
      ],
      "logsBloom": "0x00000000000000000000010000000000001040040000000004000000000000000001000200000000000000000000000000000000000000000000000000000000000000000000000000000000000000000000000000000000000000000000000000000000000000000000000004000000000000000000000000000000000000000000000000000000000000000000080000000000000000000008000000000000000000000000000000000000000000000000002000000000000000000000000000000000000000000000000000000000000000000000000000000000000000800000000000000000000040000000402000000000000000000000000000000000",
      "type": "0x2",
      "transactionHash": "0x457326ff211397e4a595d6227e65734d1ba784a9f4eb46398f81edc42580cf17",
      "transactionIndex": "0x29",
      "blockHash": "0xde6b58083a00aef9a81fbe446028a22de5bb3bdf2ab133b718b448b04c1a632d",
      "blockNumber": "0x4c2f37c",
      "gasUsed": "0x2a71a",
      "effectiveGasPrice": "0x2faf080",
      "from": "0xec646a6c9000e04d050435340d9c42c039eb5648",
      "to": "0xa5dc2cb4dc13f12d8464eaa862fac00f19adc84d",
      "contractAddress": null
    }
  ],
  "libraries": [],
  "pending": [],
  "returns": {},
  "timestamp": 1770493924003,
  "chain": 56,
  "commit": null
}