{
  "transactions": [
    {
      "hash": "0x80073bb76d8a83cbc39e247dd670913b70434c2dfe6a349dfb453a2789e267ca",
      "transactionType": "CALL",
      "contractName": null,
      "contractAddress": "0xa5dc2cb4dc13f12d8464eaa862fac00f19adc84d",
      "function": "trainSkill(uint8)",
      "arguments": [
        "0"
      ],
      "transaction": {
        "from": "0xec646a6c9000e04d050435340d9c42c039eb5648",
        "to": "0xa5dc2cb4dc13f12d8464eaa862fac00f19adc84d",
        "gas": "0x3aa54",
        "value": "0x0",
        "input": "0xa0a73d0d0000000000000000000000000000000000000000000000000000000000000000",
        "nonce": "0x4f",
        "chainId": "0x38"
      },
      "additionalContracts": [],
      "isFixedGasLimit": false
    }
  ],
  "receipts": [
    {
      "status": "0x1",
      "cumulativeGasUsed": "0x25908fe",
      "logs": [
        {
          "address": "0xaae5ef15499c71301123ee4b13d20d570d24ad5e",
          "topics": [
            "0x6dd0730fb835f9bbe38532c3d82c7c87448bfdec295f1d7cd2d72ff339632a52"
          ],
          "data": "0x00000000000000000000000000000000000000000000000000000000000000c00000000000000000000000000000000000000000000000000000000000000100000000000000000000000000ec646a6c9000e04d050435340d9c42c039eb5648000000000000000000000000000000000000000000000000000000000000000000000000000000000000000000000000000000000000000000000000698376c5000000000000000000000000000000000000000000000000000000000000014000000000000000000000000000000000000000000000000000000000000000094b696c6c536b696c6c00000000000000000000000000000000000000000000000000000000000000000000000000000000000000000000000000000000000005547261696e0000000000000000000000000000000000000000000000000000000000000000000000000000000000000000000000000000000000000000000000",
          "blockHash": "0x6c9167eb54f93fce92c8dec710f8ef2e0af1c6e88f34b75450c2afdb365a2372",
          "blockNumber": "0x4b9c6be",
          "blockTimestamp": "0x698376c5",
          "transactionHash": "0x80073bb76d8a83cbc39e247dd670913b70434c2dfe6a349dfb453a2789e267ca",
          "transactionIndex": "0x6f",
          "logIndex": "0x266",
          "removed": false
        },
        {
          "address": "0xa5dc2cb4dc13f12d8464eaa862fac00f19adc84d",
          "topics": [
            "0xa2ecdf3a87e9ffdb151ad823ae834f6165f94e54e5a30467175e075254eb6376"
          ],
          "data": "0x000000000000000000000000ec646a6c9000e04d050435340d9c42c039eb56480000000000000000000000000000000000000000000000000000000000000000000000000000000000000000000000000000000000000000000000000000000000000000000000000000000000000000000000000000000000000000000000000000000000000000000000000000000000000000000000000000000000000000000000000000000000000000000000000000000000000000000000006983815100000000000000000000000000000000000000000000000000000000698376c5",
          "blockHash": "0x6c9167eb54f93fce92c8dec710f8ef2e0af1c6e88f34b75450c2afdb365a2372",
          "blockNumber": "0x4b9c6be",
          "blockTimestamp": "0x698376c5",
          "transactionHash": "0x80073bb76d8a83cbc39e247dd670913b70434c2dfe6a349dfb453a2789e267ca",
          "transactionIndex": "0x6f",
          "logIndex": "0x267",
          "removed": false
        },
        {
          "address": "0xa5dc2cb4dc13f12d8464eaa862fac00f19adc84d",
          "topics": [
            "0x2f3c6b138bbc22991cb748093f24117969e5e880b28f9343c903b9473032267b"
          ],
          "data": "0x000000000000000000000000ec646a6c9000e04d050435340d9c42c039eb564800000000000000000000000000000000f67b6f41fe388679847c2cc284fdffd3000000000000000000000000000000000000000000000000000000000000058d0000000000000000000000000000000000000000000000000000000000000190",
          "blockHash": "0x6c9167eb54f93fce92c8dec710f8ef2e0af1c6e88f34b75450c2afdb365a2372",
          "blockNumber": "0x4b9c6be",
          "blockTimestamp": "0x698376c5",
          "transactionHash": "0x80073bb76d8a83cbc39e247dd670913b70434c2dfe6a349dfb453a2789e267ca",
          "transactionIndex": "0x6f",
          "logIndex": "0x268",
          "removed": false
        }
      ],
      "logsBloom": "0x00000000000000000000010000000000001040040000000004000000000000000001000200000000000000000000000000000000000000000000000000000000000000000000000000000000000000000000000000000000000000000000000000000000000000000000000004000000000000000000000000000000000000000000000000000000000000000000080000000000000000000008000000000000000000000000000000000000000000000000002000000000000000000000000000000000000000000000000000000000000000000000000000000000000000800000000000000000000040000000402000000000000000000000000000000000",
      "type": "0x2",
      "transactionHash": "0x80073bb76d8a83cbc39e247dd670913b70434c2dfe6a349dfb453a2789e267ca",
      "transactionIndex": "0x6f",
      "blockHash": "0x6c9167eb54f93fce92c8dec710f8ef2e0af1c6e88f34b75450c2afdb365a2372",
      "blockNumber": "0x4b9c6be",
      "gasUsed": "0x2a756",
      "effectiveGasPrice": "0x3807430",
      "from": "0xec646a6c9000e04d050435340d9c42c039eb5648",
      "to": "0xa5dc2cb4dc13f12d8464eaa862fac00f19adc84d",
      "contractAddress": null
    }
  ],
  "libraries": [],
  "pending": [],
  "returns": {},
  "timestamp": 1770223303238,
  "chain": 56,
  "commit": null
}