{
  "transactions": [
    {
      "hash": "0x87675e81c8633da272ba86396bd710f7a7f999dc1830ba4efc955d8520406887",
      "transactionType": "CALL",
      "contractName": null,
      "contractAddress": "0xa5dc2cb4dc13f12d8464eaa862fac00f19adc84d",
      "function": "trainSkill(uint8)",
      "arguments": [
        "0"
      ],
      "transaction": {
        "from": "0xeca7a53ba6a190c5d205bfdc7707cbc3399336c1",
        "to": "0xa5dc2cb4dc13f12d8464eaa862fac00f19adc84d",
        "gas": "0x3e12f",
        "value": "0x0",
        "input": "0xa0a73d0d0000000000000000000000000000000000000000000000000000000000000000",
        "nonce": "0x302",
        "chainId": "0x38"
      },
      "additionalContracts": [],
      "isFixedGasLimit": false
    }
  ],
  "receipts": [
    {
      "status": "0x1",
      "cumulativeGasUsed": "0x315e0f",
      "logs": [
        {
          "address": "0xaae5ef15499c71301123ee4b13d20d570d24ad5e",
          "topics": [
            "0x6dd0730fb835f9bbe38532c3d82c7c87448bfdec295f1d7cd2d72ff339632a52"
          ],
          "data": "0x00000000000000000000000000000000000000000000000000000000000000c00000000000000000000000000000000000000000000000000000000000000100000000000000000000000000eca7a53ba6a190c5d205bfdc7707cbc3399336c10000000000000000000000000000000000000000000000000000000000000000000000000000000000000000000000000000000000000000000000006987cf38000000000000000000000000000000000000000000000000000000000000014000000000000000000000000000000000000000000000000000000000000000094b696c6c536b696c6c00000000000000000000000000000000000000000000000000000000000000000000000000000000000000000000000000000000000005547261696e0000000000000000000000000000000000000000000000000000000000000000000000000000000000000000000000000000000000000000000000",
          "blockHash": "0xee2e8a719bff2cdd1565940169a5818217e4a7ce2485d7a39b29284333e033d3",
          "blockNumber": "0x4c36e74",
          "blockTimestamp": "0x6987cf38",
          "transactionHash": "0x87675e81c8633da272ba86396bd710f7a7f999dc1830ba4efc955d8520406887",
          "transactionIndex": "0x16",
          "logIndex": "0x8d",
          "removed": false
        },
        {
          "address": "0xa5dc2cb4dc13f12d8464eaa862fac00f19adc84d",
          "topics": [
            "0xa2ecdf3a87e9ffdb151ad823ae834f6165f94e54e5a30467175e075254eb6376"
          ],
          "data": "0x000000000000000000000000eca7a53ba6a190c5d205bfdc7707cbc3399336c10000000000000000000000000000000000000000000000000000000000000000000000000000000000000000000000000000000000000000000000000000000000000000000000000000000000000000000000000000000000000000000000000000000000000000000000000000000000000000000000000000000000000000000000000000000000000000000000000000000000000000000000006987d9c4000000000000000000000000000000000000000000000000000000006987cf38",
          "blockHash": "0xee2e8a719bff2cdd1565940169a5818217e4a7ce2485d7a39b29284333e033d3",
          "blockNumber": "0x4c36e74",
          "blockTimestamp": "0x6987cf38",
          "transactionHash": "0x87675e81c8633da272ba86396bd710f7a7f999dc1830ba4efc955d8520406887",
          "transactionIndex": "0x16",
          "logIndex": "0x8e",
          "removed": false
        },
        {
          "address": "0xa5dc2cb4dc13f12d8464eaa862fac00f19adc84d",
          "topics": [
            "0x2f3c6b138bbc22991cb748093f24117969e5e880b28f9343c903b9473032267b"
          ],
          "data": "0x000000000000000000000000eca7a53ba6a190c5d205bfdc7707cbc3399336c10000000000000000000000000000000028b843dc26535862230e1ef9d53b62210000000000000000000000000000000000000000000000000000000000001c6e0000000000000000000000000000000000000000000000000000000000000190",
          "blockHash": "0xee2e8a719bff2cdd1565940169a5818217e4a7ce2485d7a39b29284333e033d3",
          "blockNumber": "0x4c36e74",
          "blockTimestamp": "0x6987cf38",
          "transactionHash": "0x87675e81c8633da272ba86396bd710f7a7f999dc1830ba4efc955d8520406887",
          "transactionIndex": "0x16",
          "logIndex": "0x8f",
          "removed": false
        }
      ],
      "logsBloom": "0x00000000000000000000010000000000001040040000000004000000000000000001000200000000000000000000000000000000000000000000000000000000000000000000000000000000000000000000000000000000000000000000000000000000000000000000000004000000000000000000000000000000000000000000000000000000000000000000080000000000000000000008000000000000000000000000000000000000000000000000002000000000000000000000000000000000000000000000000000000000000000000000000000000000000000800000000000000000000040000000402000000000000000000000000000000000",
      "type": "0x2",
      "transactionHash": "0x87675e81c8633da272ba86396bd710f7a7f999dc1830ba4efc955d8520406887",
      "transactionIndex": "0x16",
      "blockHash": "0xee2e8a719bff2cdd1565940169a5818217e4a7ce2485d7a39b29284333e033d3",
      "blockNumber": "0x4c36e74",
      "gasUsed": "0x2a71a",
      "effectiveGasPrice": "0x2faf080",
      "from": "0xeca7a53ba6a190c5d205bfdc7707cbc3399336c1",
      "to": "0xa5dc2cb4dc13f12d8464eaa862fac00f19adc84d",
      "contractAddress": null
    }
  ],
  "libraries": [],
  "pending": [],
  "returns": {},
  "timestamp": 1770508090318,
  "chain": 56,
  "commit": null
}