{
  "transactions": [
    {
      "hash": "0xa07e6d256106f2b274d2f0ce1fb6cbca69dc93c908fa88f12ef6302aae61624b",
      "transactionType": "CALL",
      "contractName": null,
      "contractAddress": "0xa5dc2cb4dc13f12d8464eaa862fac00f19adc84d",
      "function": "trainSkill(uint8)",
      "arguments": [
        "0"
      ],
      "transaction": {
        "from": "0xeca7a53ba6a190c5d205bfdc7707cbc3399336c1",
        "to": "0xa5dc2cb4dc13f12d8464eaa862fac00f19adc84d",
        "gas": "0x39e08",
        "value": "0x0",
        "input": "0xa0a73d0d0000000000000000000000000000000000000000000000000000000000000000",
        "nonce": "0x219",
        "chainId": "0x38"
      },
      "additionalContracts": [],
      "isFixedGasLimit": false
    }
  ],
  "receipts": [
    {
      "status": "0x1",
      "cumulativeGasUsed": "0x5194e8",
      "logs": [
        {
          "address": "0xaae5ef15499c71301123ee4b13d20d570d24ad5e",
          "topics": [
            "0x6dd0730fb835f9bbe38532c3d82c7c87448bfdec295f1d7cd2d72ff339632a52"
          ],
          "data": "0x00000000000000000000000000000000000000000000000000000000000000c00000000000000000000000000000000000000000000000000000000000000100000000000000000000000000eca7a53ba6a190c5d205bfdc7707cbc3399336c1000000000000000000000000000000000000000000000000000000000000000000000000000000000000000000000000000000000000000000000000697a80c0000000000000000000000000000000000000000000000000000000000000014000000000000000000000000000000000000000000000000000000000000000094b696c6c536b696c6c00000000000000000000000000000000000000000000000000000000000000000000000000000000000000000000000000000000000005547261696e0000000000000000000000000000000000000000000000000000000000000000000000000000000000000000000000000000000000000000000000",
          "blockHash": "0x0059deffff45fc3444309dbc6843d658c7ad172b0ffeddbd5ab8d5ae225d6607",
          "blockNumber": "0x4a5de8f",
          "blockTimestamp": "0x697a80c0",
          "transactionHash": "0xa07e6d256106f2b274d2f0ce1fb6cbca69dc93c908fa88f12ef6302aae61624b",
          "transactionIndex": "0x20",
          "logIndex": "0x99",
          "removed": false
        },
        {
          "address": "0xa5dc2cb4dc13f12d8464eaa862fac00f19adc84d",
          "topics": [
            "0xa2ecdf3a87e9ffdb151ad823ae834f6165f94e54e5a30467175e075254eb6376"
          ],
          "data": "0x000000000000000000000000eca7a53ba6a190c5d205bfdc7707cbc3399336c1000000000000000000000000000000000000000000000000000000000000000000000000000000000000000000000000000000000000000000000000000000000000000000000000000000000000000000000000000000000000000000000000000000000000000000000000000000000000000000000000000000000000000000000000000000000000000000000000000000000000000000000000697a8b4c00000000000000000000000000000000000000000000000000000000697a80c0",
          "blockHash": "0x0059deffff45fc3444309dbc6843d658c7ad172b0ffeddbd5ab8d5ae225d6607",
          "blockNumber": "0x4a5de8f",
          "blockTimestamp": "0x697a80c0",
          "transactionHash": "0xa07e6d256106f2b274d2f0ce1fb6cbca69dc93c908fa88f12ef6302aae61624b",
          "transactionIndex": "0x20",
          "logIndex": "0x9a",
          "removed": false
        },
        {
          "address": "0xa5dc2cb4dc13f12d8464eaa862fac00f19adc84d",
          "topics": [
            "0x2f3c6b138bbc22991cb748093f24117969e5e880b28f9343c903b9473032267b"
          ],
          "data": "0x000000000000000000000000eca7a53ba6a190c5d205bfdc7707cbc3399336c100000000000000000000000000000000c0ade0e63376ead5e4959b3e104358a000000000000000000000000000000000000000000000000000000000000022540000000000000000000000000000000000000000000000000000000000000190",
          "blockHash": "0x0059deffff45fc3444309dbc6843d658c7ad172b0ffeddbd5ab8d5ae225d6607",
          "blockNumber": "0x4a5de8f",
          "blockTimestamp": "0x697a80c0",
          "transactionHash": "0xa07e6d256106f2b274d2f0ce1fb6cbca69dc93c908fa88f12ef6302aae61624b",
          "transactionIndex": "0x20",
          "logIndex": "0x9b",
          "removed": false
        }
      ],
      "logsBloom": "0x00000000000000000000010000000000001040040000000004000000000000000001000200000000000000000000000000000000000000000000000000000000000000000000000000000000000000000000000000000000000000000000000000000000000000000000000004000000000000000000000000000000000000000000000000000000000000000000080000000000000000000008000000000000000000000000000000000000000000000000002000000000000000000000000000000000000000000000000000000000000000000000000000000000000000800000000000000000000040000000402000000000000000000000000000000000",
      "type": "0x2",
      "transactionHash": "0xa07e6d256106f2b274d2f0ce1fb6cbca69dc93c908fa88f12ef6302aae61624b",
      "transactionIndex": "0x20",
      "blockHash": "0x0059deffff45fc3444309dbc6843d658c7ad172b0ffeddbd5ab8d5ae225d6607",
      "blockNumber": "0x4a5de8f",
      "gasUsed": "0x29e6f",
      "effectiveGasPrice": "0x2faf080",
      "from": "0xeca7a53ba6a190c5d205bfdc7707cbc3399336c1",
      "to": "0xa5dc2cb4dc13f12d8464eaa862fac00f19adc84d",
      "contractAddress": null
    }
  ],
  "libraries": [],
  "pending": [],
  "returns": {},
  "timestamp": 1769636034155,
  "chain": 56,
  "commit": null
}