{
  "transactions": [
    {
      "hash": "0xa5f9ed9f60ebd37cb28ca72b51473d14ca3b16a3939d39f460063fe694ea5b8d",
      "transactionType": "CALL",
      "contractName": null,
      "contractAddress": "0xa5dc2cb4dc13f12d8464eaa862fac00f19adc84d",
      "function": "trainSkill(uint8)",
      "arguments": [
        "0"
      ],
      "transaction": {
        "from": "0xec646a6c9000e04d050435340d9c42c039eb5648",
        "to": "0xa5dc2cb4dc13f12d8464eaa862fac00f19adc84d",
        "gas": "0x49b25",
        "value": "0x0",
        "input": "0xa0a73d0d0000000000000000000000000000000000000000000000000000000000000000",
        "nonce": "0x6d",
        "chainId": "0x38"
      },
      "additionalContracts": [],
      "isFixedGasLimit": false
    }
  ],
  "receipts": [
    {
      "status": "0x1",
      "cumulativeGasUsed": "0x85cf2a",
      "logs": [
        {
          "address": "0xaae5ef15499c71301123ee4b13d20d570d24ad5e",
          "topics": [
            "0x6dd0730fb835f9bbe38532c3d82c7c87448bfdec295f1d7cd2d72ff339632a52"
          ],
          "data": "0x00000000000000000000000000000000000000000000000000000000000000c00000000000000000000000000000000000000000000000000000000000000100000000000000000000000000ec646a6c9000e04d050435340d9c42c039eb56480000000000000000000000000000000000000000000000000000000000000000000000000000000000000000000000000000000000000000000000006984aff5000000000000000000000000000000000000000000000000000000000000014000000000000000000000000000000000000000000000000000000000000000094b696c6c536b696c6c00000000000000000000000000000000000000000000000000000000000000000000000000000000000000000000000000000000000005547261696e0000000000000000000000000000000000000000000000000000000000000000000000000000000000000000000000000000000000000000000000",
          "blockHash": "0x8f90626436bc3458d01b25de7639430b0601867fb7031a3f893622081a5109a5",
          "blockNumber": "0x4bc7e9a",
          "blockTimestamp": "0x6984aff5",
          "transactionHash": "0xa5f9ed9f60ebd37cb28ca72b51473d14ca3b16a3939d39f460063fe694ea5b8d",
          "transactionIndex": "0x4a",
          "logIndex": "0xde",
          "removed": false
        },
        {
          "address": "0xa5dc2cb4dc13f12d8464eaa862fac00f19adc84d",
          "topics": [
            "0xa2ecdf3a87e9ffdb151ad823ae834f6165f94e54e5a30467175e075254eb6376"
          ],
          "data": "0x000000000000000000000000ec646a6c9000e04d050435340d9c42c039eb56480000000000000000000000000000000000000000000000000000000000000000000000000000000000000000000000000000000000000000000000000000000000000000000000000000000000000000000000000000000000000000000000000000000000000000000000000000000000000000000000000000000000000000000000000000000000000000000000000000000000000000000000006984ba81000000000000000000000000000000000000000000000000000000006984aff5",
          "blockHash": "0x8f90626436bc3458d01b25de7639430b0601867fb7031a3f893622081a5109a5",
          "blockNumber": "0x4bc7e9a",
          "blockTimestamp": "0x6984aff5",
          "transactionHash": "0xa5f9ed9f60ebd37cb28ca72b51473d14ca3b16a3939d39f460063fe694ea5b8d",
          "transactionIndex": "0x4a",
          "logIndex": "0xdf",
          "removed": false
        },
        {
          "address": "0xa5dc2cb4dc13f12d8464eaa862fac00f19adc84d",
          "topics": [
            "0x2f3c6b138bbc22991cb748093f24117969e5e880b28f9343c903b9473032267b"
          ],
          "data": "0x000000000000000000000000ec646a6c9000e04d050435340d9c42c039eb564800000000000000000000000000000000e1dcd8411a9e22ae1a740d7a8b197edd000000000000000000000000000000000000000000000000000000000000163e0000000000000000000000000000000000000000000000000000000000000190",
          "blockHash": "0x8f90626436bc3458d01b25de7639430b0601867fb7031a3f893622081a5109a5",
          "blockNumber": "0x4bc7e9a",
          "blockTimestamp": "0x6984aff5",
          "transactionHash": "0xa5f9ed9f60ebd37cb28ca72b51473d14ca3b16a3939d39f460063fe694ea5b8d",
          "transactionIndex": "0x4a",
          "logIndex": "0xe0",
          "removed": false
        }
      ],
      "logsBloom": "0x00000000000000000000010000000000001040040000000004000000000000000001000200000000000000000000000000000000000000000000000000000000000000000000000000000000000000000000000000000000000000000000000000000000000000000000000004000000000000000000000000000000000000000000000000000000000000000000080000000000000000000008000000000000000000000000000000000000000000000000002000000000000000000000000000000000000000000000000000000000000000000000000000000000000000800000000000000000000040000000402000000000000000000000000000000000",
      "type": "0x2",
      "transactionHash": "0xa5f9ed9f60ebd37cb28ca72b51473d14ca3b16a3939d39f460063fe694ea5b8d",
      "transactionIndex": "0x4a",
      "blockHash": "0x8f90626436bc3458d01b25de7639430b0601867fb7031a3f893622081a5109a5",
      "blockNumber": "0x4bc7e9a",
      "gasUsed": "0x2a756",
      "effectiveGasPrice": "0x2faf080",
      "from": "0xec646a6c9000e04d050435340d9c42c039eb5648",
      "to": "0xa5dc2cb4dc13f12d8464eaa862fac00f19adc84d",
      "contractAddress": null
    }
  ],
  "libraries": [],
  "pending": [],
  "returns": {},
  "timestamp": 1770303479710,
  "chain": 56,
  "commit": null
}