{
  "transactions": [
    {
      "hash": "0xdfccbdbb5b55f5c58f441f479916c841df3f05409e54d8a4c54c106955aae1f6",
      "transactionType": "CALL",
      "contractName": null,
      "contractAddress": "0xa5dc2cb4dc13f12d8464eaa862fac00f19adc84d",
      "function": "trainSkill(uint8)",
      "arguments": [
        "0"
      ],
      "transaction": {
        "from": "0xec646a6c9000e04d050435340d9c42c039eb5648",
        "to": "0xa5dc2cb4dc13f12d8464eaa862fac00f19adc84d",
        "gas": "0x3aa54",
        "value": "0x0",
        "input": "0xa0a73d0d0000000000000000000000000000000000000000000000000000000000000000",
        "nonce": "0x5b",
        "chainId": "0x38"
      },
      "additionalContracts": [],
      "isFixedGasLimit": false
    }
  ],
  "receipts": [
    {
      "status": "0x1",
      "cumulativeGasUsed": "0x6ce16b",
      "logs": [
        {
          "address": "0xaae5ef15499c71301123ee4b13d20d570d24ad5e",
          "topics": [
            "0x6dd0730fb835f9bbe38532c3d82c7c87448bfdec295f1d7cd2d72ff339632a52"
          ],
          "data": "0x00000000000000000000000000000000000000000000000000000000000000c00000000000000000000000000000000000000000000000000000000000000100000000000000000000000000ec646a6c9000e04d050435340d9c42c039eb564800000000000000000000000000000000000000000000000000000000000000000000000000000000000000000000000000000000000000000000000069839c20000000000000000000000000000000000000000000000000000000000000014000000000000000000000000000000000000000000000000000000000000000094b696c6c536b696c6c00000000000000000000000000000000000000000000000000000000000000000000000000000000000000000000000000000000000005547261696e0000000000000000000000000000000000000000000000000000000000000000000000000000000000000000000000000000000000000000000000",
          "blockHash": "0x09e81dfeb20b6ada674a7fbf6a9ecbd1e42989592d1918ab3531f8725e2d24a0",
          "blockNumber": "0x4ba19c0",
          "blockTimestamp": "0x69839c20",
          "transactionHash": "0xdfccbdbb5b55f5c58f441f479916c841df3f05409e54d8a4c54c106955aae1f6",
          "transactionIndex": "0x34",
          "logIndex": "0xc1",
          "removed": false
        },
        {
          "address": "0xa5dc2cb4dc13f12d8464eaa862fac00f19adc84d",
          "topics": [
            "0xa2ecdf3a87e9ffdb151ad823ae834f6165f94e54e5a30467175e075254eb6376"
          ],
          "data": "0x000000000000000000000000ec646a6c9000e04d050435340d9c42c039eb56480000000000000000000000000000000000000000000000000000000000000000000000000000000000000000000000000000000000000000000000000000000000000000000000000000000000000000000000000000000000000000000000000000000000000000000000000000000000000000000000000000000000000000000000000000000000000000000000000000000000000000000000006983a6ac0000000000000000000000000000000000000000000000000000000069839c20",
          "blockHash": "0x09e81dfeb20b6ada674a7fbf6a9ecbd1e42989592d1918ab3531f8725e2d24a0",
          "blockNumber": "0x4ba19c0",
          "blockTimestamp": "0x69839c20",
          "transactionHash": "0xdfccbdbb5b55f5c58f441f479916c841df3f05409e54d8a4c54c106955aae1f6",
          "transactionIndex": "0x34",
          "logIndex": "0xc2",
          "removed": false
        },
        {
          "address": "0xa5dc2cb4dc13f12d8464eaa862fac00f19adc84d",
          "topics": [
            "0x2f3c6b138bbc22991cb748093f24117969e5e880b28f9343c903b9473032267b"
          ],
          "data": "0x000000000000000000000000ec646a6c9000e04d050435340d9c42c039eb564800000000000000000000000000000000df586deca3cbc7bedd662036bd14bb6100000000000000000000000000000000000000000000000000000000000014c90000000000000000000000000000000000000000000000000000000000000190",
          "blockHash": "0x09e81dfeb20b6ada674a7fbf6a9ecbd1e42989592d1918ab3531f8725e2d24a0",
          "blockNumber": "0x4ba19c0",
          "blockTimestamp": "0x69839c20",
          "transactionHash": "0xdfccbdbb5b55f5c58f441f479916c841df3f05409e54d8a4c54c106955aae1f6",
          "transactionIndex": "0x34",
          "logIndex": "0xc3",
          "removed": false
        }
      ],
      "logsBloom": "0x00000000000000000000010000000000001040040000000004000000000000000001000200000000000000000000000000000000000000000000000000000000000000000000000000000000000000000000000000000000000000000000000000000000000000000000000004000000000000000000000000000000000000000000000000000000000000000000080000000000000000000008000000000000000000000000000000000000000000000000002000000000000000000000000000000000000000000000000000000000000000000000000000000000000000800000000000000000000040000000402000000000000000000000000000000000",
      "type": "0x2",
      "transactionHash": "0xdfccbdbb5b55f5c58f441f479916c841df3f05409e54d8a4c54c106955aae1f6",
      "transactionIndex": "0x34",
      "blockHash": "0x09e81dfeb20b6ada674a7fbf6a9ecbd1e42989592d1918ab3531f8725e2d24a0",
      "blockNumber": "0x4ba19c0",
      "gasUsed": "0x2a756",
      "effectiveGasPrice": "0x2faf080",
      "from": "0xec646a6c9000e04d050435340d9c42c039eb5648",
      "to": "0xa5dc2cb4dc13f12d8464eaa862fac00f19adc84d",
      "contractAddress": null
    }
  ],
  "libraries": [],
  "pending": [],
  "returns": {},
  "timestamp": 1770232866218,
  "chain": 56,
  "commit": null
}