{
  "transactions": [
    {
      "hash": "0x62571eea72853f89a6b00095dbf9e8c8057b5edac935efe664ae4f7e6086c230",
      "transactionType": "CALL",
      "contractName": null,
      "contractAddress": "0xa5dc2cb4dc13f12d8464eaa862fac00f19adc84d",
      "function": "trainSkill(uint8)",
      "arguments": [
        "0"
      ],
      "transaction": {
        "from": "0xeca7a53ba6a190c5d205bfdc7707cbc3399336c1",
        "to": "0xa5dc2cb4dc13f12d8464eaa862fac00f19adc84d",
        "gas": "0x3e12f",
        "value": "0x0",
        "input": "0xa0a73d0d0000000000000000000000000000000000000000000000000000000000000000",
        "nonce": "0x2b4",
        "chainId": "0x38"
      },
      "additionalContracts": [],
      "isFixedGasLimit": false
    }
  ],
  "receipts": [
    {
      "status": "0x1",
      "cumulativeGasUsed": "0x3f4d36",
      "logs": [
        {
          "address": "0xaae5ef15499c71301123ee4b13d20d570d24ad5e",
          "topics": [
            "0x6dd0730fb835f9bbe38532c3d82c7c87448bfdec295f1d7cd2d72ff339632a52"
          ],
          "data": "0x00000000000000000000000000000000000000000000000000000000000000c00000000000000000000000000000000000000000000000000000000000000100000000000000000000000000eca7a53ba6a190c5d205bfdc7707cbc3399336c10000000000000000000000000000000000000000000000000000000000000000000000000000000000000000000000000000000000000000000000006983b2bb000000000000000000000000000000000000000000000000000000000000014000000000000000000000000000000000000000000000000000000000000000094b696c6c536b696c6c00000000000000000000000000000000000000000000000000000000000000000000000000000000000000000000000000000000000005547261696e0000000000000000000000000000000000000000000000000000000000000000000000000000000000000000000000000000000000000000000000",
          "blockHash": "0x94e624f4d9550a4cef144eef391ad99585767c585ed33cbf23182e529438f336",
          "blockNumber": "0x4ba4bfc",
          "blockTimestamp": "0x6983b2bb",
          "transactionHash": "0x62571eea72853f89a6b00095dbf9e8c8057b5edac935efe664ae4f7e6086c230",
          "transactionIndex": "0x24",
          "logIndex": "0x73",
          "removed": false
        },
        {
          "address": "0xa5dc2cb4dc13f12d8464eaa862fac00f19adc84d",
          "topics": [
            "0xa2ecdf3a87e9ffdb151ad823ae834f6165f94e54e5a30467175e075254eb6376"
          ],
          "data": "0x000000000000000000000000eca7a53ba6a190c5d205bfdc7707cbc3399336c10000000000000000000000000000000000000000000000000000000000000000000000000000000000000000000000000000000000000000000000000000000000000000000000000000000000000000000000000000000000000000000000000000000000000000000000000000000000000000000000000000000000000000000000000000000000000000000000000000000000000000000000006983bd47000000000000000000000000000000000000000000000000000000006983b2bb",
          "blockHash": "0x94e624f4d9550a4cef144eef391ad99585767c585ed33cbf23182e529438f336",
          "blockNumber": "0x4ba4bfc",
          "blockTimestamp": "0x6983b2bb",
          "transactionHash": "0x62571eea72853f89a6b00095dbf9e8c8057b5edac935efe664ae4f7e6086c230",
          "transactionIndex": "0x24",
          "logIndex": "0x74",
          "removed": false
        },
        {
          "address": "0xa5dc2cb4dc13f12d8464eaa862fac00f19adc84d",
          "topics": [
            "0x2f3c6b138bbc22991cb748093f24117969e5e880b28f9343c903b9473032267b"
          ],
          "data": "0x000000000000000000000000eca7a53ba6a190c5d205bfdc7707cbc3399336c1000000000000000000000000000000005be7c791480e212b82ed1f08f882a67c0000000000000000000000000000000000000000000000000000000000000a670000000000000000000000000000000000000000000000000000000000000190",
          "blockHash": "0x94e624f4d9550a4cef144eef391ad99585767c585ed33cbf23182e529438f336",
          "blockNumber": "0x4ba4bfc",
          "blockTimestamp": "0x6983b2bb",
          "transactionHash": "0x62571eea72853f89a6b00095dbf9e8c8057b5edac935efe664ae4f7e6086c230",
          "transactionIndex": "0x24",
          "logIndex": "0x75",
          "removed": false
        }
      ],
      "logsBloom": "0x00000000000000000000010000000000001040040000000004000000000000000001000200000000000000000000000000000000000000000000000000000000000000000000000000000000000000000000000000000000000000000000000000000000000000000000000004000000000000000000000000000000000000000000000000000000000000000000080000000000000000000008000000000000000000000000000000000000000000000000002000000000000000000000000000000000000000000000000000000000000000000000000000000000000000800000000000000000000040000000402000000000000000000000000000000000",
      "type": "0x2",
      "transactionHash": "0x62571eea72853f89a6b00095dbf9e8c8057b5edac935efe664ae4f7e6086c230",
      "transactionIndex": "0x24",
      "blockHash": "0x94e624f4d9550a4cef144eef391ad99585767c585ed33cbf23182e529438f336",
      "blockNumber": "0x4ba4bfc",
      "gasUsed": "0x2a71a",
      "effectiveGasPrice": "0x2faf080",
      "from": "0xeca7a53ba6a190c5d205bfdc7707cbc3399336c1",
      "to": "0xa5dc2cb4dc13f12d8464eaa862fac00f19adc84d",
      "contractAddress": null
    }
  ],
  "libraries": [],
  "pending": [],
  "returns": {},
  "timestamp": 1770238653441,
  "chain": 56,
  "commit": null
}