{
  "transactions": [
    {
      "hash": "0xc775c469e3a7392d4e07538da1351f15ffba8e263892eadbf2f9a224edb120b3",
      "transactionType": "CALL",
      "contractName": null,
      "contractAddress": "0xa5dc2cb4dc13f12d8464eaa862fac00f19adc84d",
      "function": "trainSkill(uint8)",
      "arguments": [
        "0"
      ],
      "transaction": {
        "from": "0xec646a6c9000e04d050435340d9c42c039eb5648",
        "to": "0xa5dc2cb4dc13f12d8464eaa862fac00f19adc84d",
        "gas": "0x3aa54",
        "value": "0x0",
        "input": "0xa0a73d0d0000000000000000000000000000000000000000000000000000000000000000",
        "nonce": "0x60",
        "chainId": "0x38"
      },
      "additionalContracts": [],
      "isFixedGasLimit": false
    }
  ],
  "receipts": [
    {
      "status": "0x1",
      "cumulativeGasUsed": "0x5cbf88",
      "logs": [
        {
          "address": "0xaae5ef15499c71301123ee4b13d20d570d24ad5e",
          "topics": [
            "0x6dd0730fb835f9bbe38532c3d82c7c87448bfdec295f1d7cd2d72ff339632a52"
          ],
          "data": "0x00000000000000000000000000000000000000000000000000000000000000c00000000000000000000000000000000000000000000000000000000000000100000000000000000000000000ec646a6c9000e04d050435340d9c42c039eb56480000000000000000000000000000000000000000000000000000000000000000000000000000000000000000000000000000000000000000000000006983a6ee000000000000000000000000000000000000000000000000000000000000014000000000000000000000000000000000000000000000000000000000000000094b696c6c536b696c6c00000000000000000000000000000000000000000000000000000000000000000000000000000000000000000000000000000000000005547261696e0000000000000000000000000000000000000000000000000000000000000000000000000000000000000000000000000000000000000000000000",
          "blockHash": "0x616a204b71c4f918a5ca481b37c1cf816c19e76476bba45f6a45e0e326aa2d4c",
          "blockNumber": "0x4ba31c1",
          "blockTimestamp": "0x6983a6ee",
          "transactionHash": "0xc775c469e3a7392d4e07538da1351f15ffba8e263892eadbf2f9a224edb120b3",
          "transactionIndex": "0x3a",
          "logIndex": "0xab",
          "removed": false
        },
        {
          "address": "0xa5dc2cb4dc13f12d8464eaa862fac00f19adc84d",
          "topics": [
            "0xa2ecdf3a87e9ffdb151ad823ae834f6165f94e54e5a30467175e075254eb6376"
          ],
          "data": "0x000000000000000000000000ec646a6c9000e04d050435340d9c42c039eb56480000000000000000000000000000000000000000000000000000000000000000000000000000000000000000000000000000000000000000000000000000000000000000000000000000000000000000000000000000000000000000000000000000000000000000000000000000000000000000000000000000000000000000000000000000000000000000000000000000000000000000000000006983b17a000000000000000000000000000000000000000000000000000000006983a6ee",
          "blockHash": "0x616a204b71c4f918a5ca481b37c1cf816c19e76476bba45f6a45e0e326aa2d4c",
          "blockNumber": "0x4ba31c1",
          "blockTimestamp": "0x6983a6ee",
          "transactionHash": "0xc775c469e3a7392d4e07538da1351f15ffba8e263892eadbf2f9a224edb120b3",
          "transactionIndex": "0x3a",
          "logIndex": "0xac",
          "removed": false
        },
        {
          "address": "0xa5dc2cb4dc13f12d8464eaa862fac00f19adc84d",
          "topics": [
            "0x2f3c6b138bbc22991cb748093f24117969e5e880b28f9343c903b9473032267b"
          ],
          "data": "0x000000000000000000000000ec646a6c9000e04d050435340d9c42c039eb564800000000000000000000000000000000fbcb556446da616bdc5962fd1a02f904000000000000000000000000000000000000000000000000000000000000119c0000000000000000000000000000000000000000000000000000000000000190",
          "blockHash": "0x616a204b71c4f918a5ca481b37c1cf816c19e76476bba45f6a45e0e326aa2d4c",
          "blockNumber": "0x4ba31c1",
          "blockTimestamp": "0x6983a6ee",
          "transactionHash": "0xc775c469e3a7392d4e07538da1351f15ffba8e263892eadbf2f9a224edb120b3",
          "transactionIndex": "0x3a",
          "logIndex": "0xad",
          "removed": false
        }
      ],
      "logsBloom": "0x00000000000000000000010000000000001040040000000004000000000000000001000200000000000000000000000000000000000000000000000000000000000000000000000000000000000000000000000000000000000000000000000000000000000000000000000004000000000000000000000000000000000000000000000000000000000000000000080000000000000000000008000000000000000000000000000000000000000000000000002000000000000000000000000000000000000000000000000000000000000000000000000000000000000000800000000000000000000040000000402000000000000000000000000000000000",
      "type": "0x2",
      "transactionHash": "0xc775c469e3a7392d4e07538da1351f15ffba8e263892eadbf2f9a224edb120b3",
      "transactionIndex": "0x3a",
      "blockHash": "0x616a204b71c4f918a5ca481b37c1cf816c19e76476bba45f6a45e0e326aa2d4c",
      "blockNumber": "0x4ba31c1",
      "gasUsed": "0x2a756",
      "effectiveGasPrice": "0x2faf080",
      "from": "0xec646a6c9000e04d050435340d9c42c039eb5648",
      "to": "0xa5dc2cb4dc13f12d8464eaa862fac00f19adc84d",
      "contractAddress": null
    }
  ],
  "libraries": [],
  "pending": [],
  "returns": {},
  "timestamp": 1770235631947,
  "chain": 56,
  "commit": null
}