{
  "transactions": [
    {
      "hash": "0x228c4cd823e037f7f196bb3ace72493156648a7ab2f2a536e1ba7d36499ee4a0",
      "transactionType": "CALL",
      "contractName": null,
      "contractAddress": "0xa5dc2cb4dc13f12d8464eaa862fac00f19adc84d",
      "function": "trainSkill(uint8)",
      "arguments": [
        "0"
      ],
      "transaction": {
        "from": "0xeca7a53ba6a190c5d205bfdc7707cbc3399336c1",
        "to": "0xa5dc2cb4dc13f12d8464eaa862fac00f19adc84d",
        "gas": "0x3aa54",
        "value": "0x0",
        "input": "0xa0a73d0d0000000000000000000000000000000000000000000000000000000000000000",
        "nonce": "0x223",
        "chainId": "0x38"
      },
      "additionalContracts": [],
      "isFixedGasLimit": false
    }
  ],
  "receipts": [
    {
      "status": "0x1",
      "cumulativeGasUsed": "0x7531df",
      "logs": [
        {
          "address": "0xa5dc2cb4dc13f12d8464eaa862fac00f19adc84d",
          "topics": [
            "0x5e5a0b90fdb27738829c217bcfc3821977755208ca0818475f4fe9af193a8a38"
          ],
          "data": "0x000000000000000000000000eca7a53ba6a190c5d205bfdc7707cbc3399336c1000000000000000000000000000000000000000000000000000000000000041a",
          "blockHash": "0x940e9294c89d5e2f2061d3c50b6b73ac40ba99792d48c113db758a4035bf90f8",
          "blockNumber": "0x4a62694",
          "blockTimestamp": "0x697aa129",
          "transactionHash": "0x228c4cd823e037f7f196bb3ace72493156648a7ab2f2a536e1ba7d36499ee4a0",
          "transactionIndex": "0x2d",
          "logIndex": "0xec",
          "removed": false
        },
        {
          "address": "0xaae5ef15499c71301123ee4b13d20d570d24ad5e",
          "topics": [
            "0x6dd0730fb835f9bbe38532c3d82c7c87448bfdec295f1d7cd2d72ff339632a52"
          ],
          "data": "0x00000000000000000000000000000000000000000000000000000000000000c00000000000000000000000000000000000000000000000000000000000000100000000000000000000000000eca7a53ba6a190c5d205bfdc7707cbc3399336c1000000000000000000000000000000000000000000000000000000000000000100000000000000000000000000000000000000000000000000000000697aa129000000000000000000000000000000000000000000000000000000000000014000000000000000000000000000000000000000000000000000000000000000094b696c6c536b696c6c00000000000000000000000000000000000000000000000000000000000000000000000000000000000000000000000000000000000005547261696e0000000000000000000000000000000000000000000000000000000000000000000000000000000000000000000000000000000000000000000000",
          "blockHash": "0x940e9294c89d5e2f2061d3c50b6b73ac40ba99792d48c113db758a4035bf90f8",
          "blockNumber": "0x4a62694",
          "blockTimestamp": "0x697aa129",
          "transactionHash": "0x228c4cd823e037f7f196bb3ace72493156648a7ab2f2a536e1ba7d36499ee4a0",
          "transactionIndex": "0x2d",
          "logIndex": "0xed",
          "removed": false
        },
        {
          "address": "0xa5dc2cb4dc13f12d8464eaa862fac00f19adc84d",
          "topics": [
            "0xa2ecdf3a87e9ffdb151ad823ae834f6165f94e54e5a30467175e075254eb6376"
          ],
          "data": "0x000000000000000000000000eca7a53ba6a190c5d205bfdc7707cbc3399336c1000000000000000000000000000000000000000000000000000000000000000000000000000000000000000000000000000000000000000000000000000000010000000000000000000000000000000000000000000000000000000000000000000000000000000000000000000000000000000000000000000000000000003200000000000000000000000000000000000000000000000000000000697aabb500000000000000000000000000000000000000000000000000000000697aa129",
          "blockHash": "0x940e9294c89d5e2f2061d3c50b6b73ac40ba99792d48c113db758a4035bf90f8",
          "blockNumber": "0x4a62694",
          "blockTimestamp": "0x697aa129",
          "transactionHash": "0x228c4cd823e037f7f196bb3ace72493156648a7ab2f2a536e1ba7d36499ee4a0",
          "transactionIndex": "0x2d",
          "logIndex": "0xee",
          "removed": false
        },
        {
          "address": "0xa5dc2cb4dc13f12d8464eaa862fac00f19adc84d",
          "topics": [
            "0x2f3c6b138bbc22991cb748093f24117969e5e880b28f9343c903b9473032267b"
          ],
          "data": "0x000000000000000000000000eca7a53ba6a190c5d205bfdc7707cbc3399336c1000000000000000000000000000000009f6f14aea31bf4ffd6117fb45ed14f8800000000000000000000000000000000000000000000000000000000000000e10000000000000000000000000000000000000000000000000000000000000190",
          "blockHash": "0x940e9294c89d5e2f2061d3c50b6b73ac40ba99792d48c113db758a4035bf90f8",
          "blockNumber": "0x4a62694",
          "blockTimestamp": "0x697aa129",
          "transactionHash": "0x228c4cd823e037f7f196bb3ace72493156648a7ab2f2a536e1ba7d36499ee4a0",
          "transactionIndex": "0x2d",
          "logIndex": "0xef",
          "removed": false
        }
      ],
      "logsBloom": "0x00000000000000000000010000400000001040040000000004000000000000000001000200000000000000000000000000000000000000000000000000000000000000000000000000000000000000000000000000000000000000000000000000000000000000000000010004000000000000000000000000000000000000000000000000000000000000000000080000000000000000000008000000000000000000000000000002000000000000000000002000000000000000000000000000000000000000000000000000000000000000000000000000000000000000800000000000000000000040000000402000000000000000000000000000000000",
      "type": "0x2",
      "transactionHash": "0x228c4cd823e037f7f196bb3ace72493156648a7ab2f2a536e1ba7d36499ee4a0",
      "transactionIndex": "0x2d",
      "blockHash": "0x940e9294c89d5e2f2061d3c50b6b73ac40ba99792d48c113db758a4035bf90f8",
      "blockNumber": "0x4a62694",
      "gasUsed": "0x312e3",
      "effectiveGasPrice": "0x2faf080",
      "from": "0xeca7a53ba6a190c5d205bfdc7707cbc3399336c1",
      "to": "0xa5dc2cb4dc13f12d8464eaa862fac00f19adc84d",
      "contractAddress": null
    }
  ],
  "libraries": [],
  "pending": [],
  "returns": {},
  "timestamp": 1769644330539,
  "chain": 56,
  "commit": null
}