{
  "transactions": [
    {
      "hash": "0x0f74e78b3b2aa36e52dc2c4097f7698e373fcea2c3ba5d8f2f285432efc40f5c",
      "transactionType": "CALL",
      "contractName": null,
      "contractAddress": "0xa5dc2cb4dc13f12d8464eaa862fac00f19adc84d",
      "function": "trainSkill(uint8)",
      "arguments": [
        "0"
      ],
      "transaction": {
        "from": "0xec646a6c9000e04d050435340d9c42c039eb5648",
        "to": "0xa5dc2cb4dc13f12d8464eaa862fac00f19adc84d",
        "gas": "0x3e12f",
        "value": "0x0",
        "input": "0xa0a73d0d0000000000000000000000000000000000000000000000000000000000000000",
        "nonce": "0xcb",
        "chainId": "0x38"
      },
      "additionalContracts": [],
      "isFixedGasLimit": false
    }
  ],
  "receipts": [
    {
      "status": "0x1",
      "cumulativeGasUsed": "0x6970b6",
      "logs": [
        {
          "address": "0xaae5ef15499c71301123ee4b13d20d570d24ad5e",
          "topics": [
            "0x6dd0730fb835f9bbe38532c3d82c7c87448bfdec295f1d7cd2d72ff339632a52"
          ],
          "data": "0x00000000000000000000000000000000000000000000000000000000000000c00000000000000000000000000000000000000000000000000000000000000100000000000000000000000000ec646a6c9000e04d050435340d9c42c039eb564800000000000000000000000000000000000000000000000000000000000000000000000000000000000000000000000000000000000000000000000069882b53000000000000000000000000000000000000000000000000000000000000014000000000000000000000000000000000000000000000000000000000000000094b696c6c536b696c6c00000000000000000000000000000000000000000000000000000000000000000000000000000000000000000000000000000000000005547261696e0000000000000000000000000000000000000000000000000000000000000000000000000000000000000000000000000000000000000000000000",
          "blockHash": "0x962b8ea18900727cad7a94ceb13b0ce1f9dae503657baefcb19efc00bcb5d5e4",
          "blockNumber": "0x4c43b1c",
          "blockTimestamp": "0x69882b53",
          "transactionHash": "0x0f74e78b3b2aa36e52dc2c4097f7698e373fcea2c3ba5d8f2f285432efc40f5c",
          "transactionIndex": "0x58",
          "logIndex": "0xc9",
          "removed": false
        },
        {
          "address": "0xa5dc2cb4dc13f12d8464eaa862fac00f19adc84d",
          "topics": [
            "0xa2ecdf3a87e9ffdb151ad823ae834f6165f94e54e5a30467175e075254eb6376"
          ],
          "data": "0x000000000000000000000000ec646a6c9000e04d050435340d9c42c039eb5648000000000000000000000000000000000000000000000000000000000000000000000000000000000000000000000000000000000000000000000000000000000000000000000000000000000000000000000000000000000000000000000000000000000000000000000000000000000000000000000000000000000000000000000000000000000000000000000000000000000000000000000000698835df0000000000000000000000000000000000000000000000000000000069882b53",
          "blockHash": "0x962b8ea18900727cad7a94ceb13b0ce1f9dae503657baefcb19efc00bcb5d5e4",
          "blockNumber": "0x4c43b1c",
          "blockTimestamp": "0x69882b53",
          "transactionHash": "0x0f74e78b3b2aa36e52dc2c4097f7698e373fcea2c3ba5d8f2f285432efc40f5c",
          "transactionIndex": "0x58",
          "logIndex": "0xca",
          "removed": false
        },
        {
          "address": "0xa5dc2cb4dc13f12d8464eaa862fac00f19adc84d",
          "topics": [
            "0x2f3c6b138bbc22991cb748093f24117969e5e880b28f9343c903b9473032267b"
          ],
          "data": "0x000000000000000000000000ec646a6c9000e04d050435340d9c42c039eb564800000000000000000000000000000000ffb4bc5ff05f2802552d0641b821d1b200000000000000000000000000000000000000000000000000000000000015b40000000000000000000000000000000000000000000000000000000000000190",
          "blockHash": "0x962b8ea18900727cad7a94ceb13b0ce1f9dae503657baefcb19efc00bcb5d5e4",
          "blockNumber": "0x4c43b1c",
          "blockTimestamp": "0x69882b53",
          "transactionHash": "0x0f74e78b3b2aa36e52dc2c4097f7698e373fcea2c3ba5d8f2f285432efc40f5c",
          "transactionIndex": "0x58",
          "logIndex": "0xcb",
          "removed": false
        }
      ],
      "logsBloom": "0x00000000000000000000010000000000001040040000000004000000000000000001000200000000000000000000000000000000000000000000000000000000000000000000000000000000000000000000000000000000000000000000000000000000000000000000000004000000000000000000000000000000000000000000000000000000000000000000080000000000000000000008000000000000000000000000000000000000000000000000002000000000000000000000000000000000000000000000000000000000000000000000000000000000000000800000000000000000000040000000402000000000000000000000000000000000",
      "type": "0x2",
      "transactionHash": "0x0f74e78b3b2aa36e52dc2c4097f7698e373fcea2c3ba5d8f2f285432efc40f5c",
      "transactionIndex": "0x58",
      "blockHash": "0x962b8ea18900727cad7a94ceb13b0ce1f9dae503657baefcb19efc00bcb5d5e4",
      "blockNumber": "0x4c43b1c",
      "gasUsed": "0x2a71a",
      "effectiveGasPrice": "0x2faf080",
      "from": "0xec646a6c9000e04d050435340d9c42c039eb5648",
      "to": "0xa5dc2cb4dc13f12d8464eaa862fac00f19adc84d",
      "contractAddress": null
    }
  ],
  "libraries": [],
  "pending": [],
  "returns": {},
  "timestamp": 1770531669020,
  "chain": 56,
  "commit": null
}