{
  "transactions": [
    {
      "hash": "0x02cadfd5bd1e4dffea912399b11bfe78c7f547e5050d47daba3514949c04c753",
      "transactionType": "CALL",
      "contractName": null,
      "contractAddress": "0xa5dc2cb4dc13f12d8464eaa862fac00f19adc84d",
      "function": "trainSkill(uint8)",
      "arguments": [
        "0"
      ],
      "transaction": {
        "from": "0x4c62f6121e6f967a0872da8364995e9b68c1e82f",
        "to": "0xa5dc2cb4dc13f12d8464eaa862fac00f19adc84d",
        "gas": "0x3e12f",
        "value": "0x0",
        "input": "0xa0a73d0d0000000000000000000000000000000000000000000000000000000000000000",
        "nonce": "0x1e2",
        "chainId": "0x38"
      },
      "additionalContracts": [],
      "isFixedGasLimit": false
    }
  ],
  "receipts": [
    {
      "status": "0x1",
      "cumulativeGasUsed": "0x90faf9",
      "logs": [
        {
          "address": "0xaae5ef15499c71301123ee4b13d20d570d24ad5e",
          "topics": [
            "0x6dd0730fb835f9bbe38532c3d82c7c87448bfdec295f1d7cd2d72ff339632a52"
          ],
          "data": "0x00000000000000000000000000000000000000000000000000000000000000c000000000000000000000000000000000000000000000000000000000000001000000000000000000000000004c62f6121e6f967a0872da8364995e9b68c1e82f000000000000000000000000000000000000000000000000000000000000000000000000000000000000000000000000000000000000000000000000698878e4000000000000000000000000000000000000000000000000000000000000014000000000000000000000000000000000000000000000000000000000000000094b696c6c536b696c6c00000000000000000000000000000000000000000000000000000000000000000000000000000000000000000000000000000000000005547261696e0000000000000000000000000000000000000000000000000000000000000000000000000000000000000000000000000000000000000000000000",
          "blockHash": "0xdb372516fd2dd286f11048084ce40d86893f41df00b61117afc88fbceca871ab",
          "blockNumber": "0x4c4e76f",
          "blockTimestamp": "0x698878e4",
          "transactionHash": "0x02cadfd5bd1e4dffea912399b11bfe78c7f547e5050d47daba3514949c04c753",
          "transactionIndex": "0x4e",
          "logIndex": "0x113",
          "removed": false
        },
        {
          "address": "0xa5dc2cb4dc13f12d8464eaa862fac00f19adc84d",
          "topics": [
            "0xa2ecdf3a87e9ffdb151ad823ae834f6165f94e54e5a30467175e075254eb6376"
          ],
          "data": "0x0000000000000000000000004c62f6121e6f967a0872da8364995e9b68c1e82f0000000000000000000000000000000000000000000000000000000000000000000000000000000000000000000000000000000000000000000000000000000000000000000000000000000000000000000000000000000000000000000000000000000000000000000000000000000000000000000000000000000000000000000000000000000000000000000000000000000000000000000000006988837000000000000000000000000000000000000000000000000000000000698878e4",
          "blockHash": "0xdb372516fd2dd286f11048084ce40d86893f41df00b61117afc88fbceca871ab",
          "blockNumber": "0x4c4e76f",
          "blockTimestamp": "0x698878e4",
          "transactionHash": "0x02cadfd5bd1e4dffea912399b11bfe78c7f547e5050d47daba3514949c04c753",
          "transactionIndex": "0x4e",
          "logIndex": "0x114",
          "removed": false
        },
        {
          "address": "0xa5dc2cb4dc13f12d8464eaa862fac00f19adc84d",
          "topics": [
            "0x2f3c6b138bbc22991cb748093f24117969e5e880b28f9343c903b9473032267b"
          ],
          "data": "0x0000000000000000000000004c62f6121e6f967a0872da8364995e9b68c1e82f0000000000000000000000000000000030d6e5a0b24caa5ab69312736b6c2b6c0000000000000000000000000000000000000000000000000000000000001a2c0000000000000000000000000000000000000000000000000000000000000190",
          "blockHash": "0xdb372516fd2dd286f11048084ce40d86893f41df00b61117afc88fbceca871ab",
          "blockNumber": "0x4c4e76f",
          "blockTimestamp": "0x698878e4",
          "transactionHash": "0x02cadfd5bd1e4dffea912399b11bfe78c7f547e5050d47daba3514949c04c753",
          "transactionIndex": "0x4e",
          "logIndex": "0x115",
          "removed": false
        }
      ],
      "logsBloom": "0x00000000000000000000010000000000001040040000000004000000000000000001000200000000000000000000000000000000000000000000000000000000000000000000000000000000000000000000000000000000000000000000000000000000000000000000000004000000000000000000000000000000000000000000000000000000000000000000080000000000000000000008000000000000000000000000000000000000000000000000002000000000000000000000000000000000000000000000000000000000000000000000000000000000000000800000000000000000000040000000402000000000000000000000000000000000",
      "type": "0x2",
      "transactionHash": "0x02cadfd5bd1e4dffea912399b11bfe78c7f547e5050d47daba3514949c04c753",
      "transactionIndex": "0x4e",
      "blockHash": "0xdb372516fd2dd286f11048084ce40d86893f41df00b61117afc88fbceca871ab",
      "blockNumber": "0x4c4e76f",
      "gasUsed": "0x2a71a",
      "effectiveGasPrice": "0x2faf080",
      "from": "0x4c62f6121e6f967a0872da8364995e9b68c1e82f",
      "to": "0xa5dc2cb4dc13f12d8464eaa862fac00f19adc84d",
      "contractAddress": null
    }
  ],
  "libraries": [],
  "pending": [],
  "returns": {},
  "timestamp": 1770551525353,
  "chain": 56,
  "commit": null
}