{
  "transactions": [
    {
      "hash": "0x02dbd362829ca8a7844115f8c0c5b0cba44b68dbc3ec991d35c4ea7bff36b22c",
      "transactionType": "CALL",
      "contractName": null,
      "contractAddress": "0xa5dc2cb4dc13f12d8464eaa862fac00f19adc84d",
      "function": "trainSkill(uint8)",
      "arguments": [
        "0"
      ],
      "transaction": {
        "from": "0x4c62f6121e6f967a0872da8364995e9b68c1e82f",
        "to": "0xa5dc2cb4dc13f12d8464eaa862fac00f19adc84d",
        "gas": "0x39e08",
        "value": "0x0",
        "input": "0xa0a73d0d0000000000000000000000000000000000000000000000000000000000000000",
        "nonce": "0x9d",
        "chainId": "0x38"
      },
      "additionalContracts": [],
      "isFixedGasLimit": false
    }
  ],
  "receipts": [
    {
      "status": "0x1",
      "cumulativeGasUsed": "0x109abd1",
      "logs": [
        {
          "address": "0xaae5ef15499c71301123ee4b13d20d570d24ad5e",
          "topics": [
            "0x6dd0730fb835f9bbe38532c3d82c7c87448bfdec295f1d7cd2d72ff339632a52"
          ],
          "data": "0x00000000000000000000000000000000000000000000000000000000000000c000000000000000000000000000000000000000000000000000000000000001000000000000000000000000004c62f6121e6f967a0872da8364995e9b68c1e82f000000000000000000000000000000000000000000000000000000000000000000000000000000000000000000000000000000000000000000000000697a0b57000000000000000000000000000000000000000000000000000000000000014000000000000000000000000000000000000000000000000000000000000000094b696c6c536b696c6c00000000000000000000000000000000000000000000000000000000000000000000000000000000000000000000000000000000000005547261696e0000000000000000000000000000000000000000000000000000000000000000000000000000000000000000000000000000000000000000000000",
          "blockHash": "0x33760c374aa88724a1812fadb200036e8e54c47d3123d5b8e765cef2ee748c04",
          "blockNumber": "0x4a4d9b3",
          "blockTimestamp": "0x697a0b57",
          "transactionHash": "0x02dbd362829ca8a7844115f8c0c5b0cba44b68dbc3ec991d35c4ea7bff36b22c",
          "transactionIndex": "0x78",
          "logIndex": "0x225",
          "removed": false
        },
        {
          "address": "0xa5dc2cb4dc13f12d8464eaa862fac00f19adc84d",
          "topics": [
            "0xa2ecdf3a87e9ffdb151ad823ae834f6165f94e54e5a30467175e075254eb6376"
          ],
          "data": "0x0000000000000000000000004c62f6121e6f967a0872da8364995e9b68c1e82f000000000000000000000000000000000000000000000000000000000000000000000000000000000000000000000000000000000000000000000000000000000000000000000000000000000000000000000000000000000000000000000000000000000000000000000000000000000000000000000000000000000000000000000000000000000000000000000000000000000000000000000000697a15e300000000000000000000000000000000000000000000000000000000697a0b57",
          "blockHash": "0x33760c374aa88724a1812fadb200036e8e54c47d3123d5b8e765cef2ee748c04",
          "blockNumber": "0x4a4d9b3",
          "blockTimestamp": "0x697a0b57",
          "transactionHash": "0x02dbd362829ca8a7844115f8c0c5b0cba44b68dbc3ec991d35c4ea7bff36b22c",
          "transactionIndex": "0x78",
          "logIndex": "0x226",
          "removed": false
        },
        {
          "address": "0xa5dc2cb4dc13f12d8464eaa862fac00f19adc84d",
          "topics": [
            "0x2f3c6b138bbc22991cb748093f24117969e5e880b28f9343c903b9473032267b"
          ],
          "data": "0x0000000000000000000000004c62f6121e6f967a0872da8364995e9b68c1e82f0000000000000000000000000000000090d9b3776c25f3bdd40b02de27e177ab00000000000000000000000000000000000000000000000000000000000022010000000000000000000000000000000000000000000000000000000000000190",
          "blockHash": "0x33760c374aa88724a1812fadb200036e8e54c47d3123d5b8e765cef2ee748c04",
          "blockNumber": "0x4a4d9b3",
          "blockTimestamp": "0x697a0b57",
          "transactionHash": "0x02dbd362829ca8a7844115f8c0c5b0cba44b68dbc3ec991d35c4ea7bff36b22c",
          "transactionIndex": "0x78",
          "logIndex": "0x227",
          "removed": false
        }
      ],
      "logsBloom": "0x00000000000000000000010000000000001040040000000004000000000000000001000200000000000000000000000000000000000000000000000000000000000000000000000000000000000000000000000000000000000000000000000000000000000000000000000004000000000000000000000000000000000000000000000000000000000000000000080000000000000000000008000000000000000000000000000000000000000000000000002000000000000000000000000000000000000000000000000000000000000000000000000000000000000000800000000000000000000040000000402000000000000000000000000000000000",
      "type": "0x2",
      "transactionHash": "0x02dbd362829ca8a7844115f8c0c5b0cba44b68dbc3ec991d35c4ea7bff36b22c",
      "transactionIndex": "0x78",
      "blockHash": "0x33760c374aa88724a1812fadb200036e8e54c47d3123d5b8e765cef2ee748c04",
      "blockNumber": "0x4a4d9b3",
      "gasUsed": "0x29e6f",
      "effectiveGasPrice": "0x2faf080",
      "from": "0x4c62f6121e6f967a0872da8364995e9b68c1e82f",
      "to": "0xa5dc2cb4dc13f12d8464eaa862fac00f19adc84d",
      "contractAddress": null
    }
  ],
  "libraries": [],
  "pending": [],
  "returns": {},
  "timestamp": 1769605976881,
  "chain": 56,
  "commit": null
}