{
  "transactions": [
    {
      "hash": "0x8803d24da9024f5f6b976adcc59165da0ede406f007236565b9929c4fe0d58e4",
      "transactionType": "CALL",
      "contractName": null,
      "contractAddress": "0xa5dc2cb4dc13f12d8464eaa862fac00f19adc84d",
      "function": "trainSkill(uint8)",
      "arguments": [
        "0"
      ],
      "transaction": {
        "from": "0xeca7a53ba6a190c5d205bfdc7707cbc3399336c1",
        "to": "0xa5dc2cb4dc13f12d8464eaa862fac00f19adc84d",
        "gas": "0x39e08",
        "value": "0x0",
        "input": "0xa0a73d0d0000000000000000000000000000000000000000000000000000000000000000",
        "nonce": "0x204",
        "chainId": "0x38"
      },
      "additionalContracts": [],
      "isFixedGasLimit": false
    }
  ],
  "receipts": [
    {
      "status": "0x1",
      "cumulativeGasUsed": "0xd8221f",
      "logs": [
        {
          "address": "0xaae5ef15499c71301123ee4b13d20d570d24ad5e",
          "topics": [
            "0x6dd0730fb835f9bbe38532c3d82c7c87448bfdec295f1d7cd2d72ff339632a52"
          ],
          "data": "0x00000000000000000000000000000000000000000000000000000000000000c00000000000000000000000000000000000000000000000000000000000000100000000000000000000000000eca7a53ba6a190c5d205bfdc7707cbc3399336c1000000000000000000000000000000000000000000000000000000000000000000000000000000000000000000000000000000000000000000000000697a0084000000000000000000000000000000000000000000000000000000000000014000000000000000000000000000000000000000000000000000000000000000094b696c6c536b696c6c00000000000000000000000000000000000000000000000000000000000000000000000000000000000000000000000000000000000005547261696e0000000000000000000000000000000000000000000000000000000000000000000000000000000000000000000000000000000000000000000000",
          "blockHash": "0x238844ca6809b6daf7688d7f91f86a1d03f8f155364029f7d38489fca0c3029c",
          "blockNumber": "0x4a4c1a8",
          "blockTimestamp": "0x697a0084",
          "transactionHash": "0x8803d24da9024f5f6b976adcc59165da0ede406f007236565b9929c4fe0d58e4",
          "transactionIndex": "0x68",
          "logIndex": "0x133",
          "removed": false
        },
        {
          "address": "0xa5dc2cb4dc13f12d8464eaa862fac00f19adc84d",
          "topics": [
            "0xa2ecdf3a87e9ffdb151ad823ae834f6165f94e54e5a30467175e075254eb6376"
          ],
          "data": "0x000000000000000000000000eca7a53ba6a190c5d205bfdc7707cbc3399336c1000000000000000000000000000000000000000000000000000000000000000000000000000000000000000000000000000000000000000000000000000000000000000000000000000000000000000000000000000000000000000000000000000000000000000000000000000000000000000000000000000000000000000000000000000000000000000000000000000000000000000000000000697a0b1000000000000000000000000000000000000000000000000000000000697a0084",
          "blockHash": "0x238844ca6809b6daf7688d7f91f86a1d03f8f155364029f7d38489fca0c3029c",
          "blockNumber": "0x4a4c1a8",
          "blockTimestamp": "0x697a0084",
          "transactionHash": "0x8803d24da9024f5f6b976adcc59165da0ede406f007236565b9929c4fe0d58e4",
          "transactionIndex": "0x68",
          "logIndex": "0x134",
          "removed": false
        },
        {
          "address": "0xa5dc2cb4dc13f12d8464eaa862fac00f19adc84d",
          "topics": [
            "0x2f3c6b138bbc22991cb748093f24117969e5e880b28f9343c903b9473032267b"
          ],
          "data": "0x000000000000000000000000eca7a53ba6a190c5d205bfdc7707cbc3399336c1000000000000000000000000000000007ea9978df42cbee29173a0839187f90600000000000000000000000000000000000000000000000000000000000013a10000000000000000000000000000000000000000000000000000000000000190",
          "blockHash": "0x238844ca6809b6daf7688d7f91f86a1d03f8f155364029f7d38489fca0c3029c",
          "blockNumber": "0x4a4c1a8",
          "blockTimestamp": "0x697a0084",
          "transactionHash": "0x8803d24da9024f5f6b976adcc59165da0ede406f007236565b9929c4fe0d58e4",
          "transactionIndex": "0x68",
          "logIndex": "0x135",
          "removed": false
        }
      ],
      "logsBloom": "0x00000000000000000000010000000000001040040000000004000000000000000001000200000000000000000000000000000000000000000000000000000000000000000000000000000000000000000000000000000000000000000000000000000000000000000000000004000000000000000000000000000000000000000000000000000000000000000000080000000000000000000008000000000000000000000000000000000000000000000000002000000000000000000000000000000000000000000000000000000000000000000000000000000000000000800000000000000000000040000000402000000000000000000000000000000000",
      "type": "0x2",
      "transactionHash": "0x8803d24da9024f5f6b976adcc59165da0ede406f007236565b9929c4fe0d58e4",
      "transactionIndex": "0x68",
      "blockHash": "0x238844ca6809b6daf7688d7f91f86a1d03f8f155364029f7d38489fca0c3029c",
      "blockNumber": "0x4a4c1a8",
      "gasUsed": "0x29e6f",
      "effectiveGasPrice": "0x2faf080",
      "from": "0xeca7a53ba6a190c5d205bfdc7707cbc3399336c1",
      "to": "0xa5dc2cb4dc13f12d8464eaa862fac00f19adc84d",
      "contractAddress": null
    }
  ],
  "libraries": [],
  "pending": [],
  "returns": {},
  "timestamp": 1769603205919,
  "chain": 56,
  "commit": null
}