{
  "transactions": [
    {
      "hash": "0x6c49c477563bf4bd1e610bb8f601bb54f27c1ec031996d40445f1d9985a41c2a",
      "transactionType": "CALL",
      "contractName": null,
      "contractAddress": "0xa5dc2cb4dc13f12d8464eaa862fac00f19adc84d",
      "function": "trainSkill(uint8)",
      "arguments": [
        "0"
      ],
      "transaction": {
        "from": "0xac56dc5a4a9de0197f7b8f584ea04ec7e0123dde",
        "to": "0xa5dc2cb4dc13f12d8464eaa862fac00f19adc84d",
        "gas": "0x39e08",
        "value": "0x0",
        "input": "0xa0a73d0d0000000000000000000000000000000000000000000000000000000000000000",
        "nonce": "0x21",
        "chainId": "0x38"
      },
      "additionalContracts": [],
      "isFixedGasLimit": false
    }
  ],
  "receipts": [
    {
      "status": "0x1",
      "cumulativeGasUsed": "0x10fe499",
      "logs": [
        {
          "address": "0xaae5ef15499c71301123ee4b13d20d570d24ad5e",
          "topics": [
            "0x6dd0730fb835f9bbe38532c3d82c7c87448bfdec295f1d7cd2d72ff339632a52"
          ],
          "data": "0x00000000000000000000000000000000000000000000000000000000000000c00000000000000000000000000000000000000000000000000000000000000100000000000000000000000000ac56dc5a4a9de0197f7b8f584ea04ec7e0123dde000000000000000000000000000000000000000000000000000000000000000000000000000000000000000000000000000000000000000000000000697a00ad000000000000000000000000000000000000000000000000000000000000014000000000000000000000000000000000000000000000000000000000000000094b696c6c536b696c6c00000000000000000000000000000000000000000000000000000000000000000000000000000000000000000000000000000000000005547261696e0000000000000000000000000000000000000000000000000000000000000000000000000000000000000000000000000000000000000000000000",
          "blockHash": "0x18fc34823e9586d81e568c6a3a6cf9ebb8161b4fd038a251aa6d30daa17414c5",
          "blockNumber": "0x4a4c204",
          "blockTimestamp": "0x697a00ad",
          "transactionHash": "0x6c49c477563bf4bd1e610bb8f601bb54f27c1ec031996d40445f1d9985a41c2a",
          "transactionIndex": "0x6b",
          "logIndex": "0x21f",
          "removed": false
        },
        {
          "address": "0xa5dc2cb4dc13f12d8464eaa862fac00f19adc84d",
          "topics": [
            "0xa2ecdf3a87e9ffdb151ad823ae834f6165f94e54e5a30467175e075254eb6376"
          ],
          "data": "0x000000000000000000000000ac56dc5a4a9de0197f7b8f584ea04ec7e0123dde000000000000000000000000000000000000000000000000000000000000000000000000000000000000000000000000000000000000000000000000000000000000000000000000000000000000000000000000000000000000000000000000000000000000000000000000000000000000000000000000000000000000000000000000000000000000000000000000000000000000000000000000697a0b3900000000000000000000000000000000000000000000000000000000697a00ad",
          "blockHash": "0x18fc34823e9586d81e568c6a3a6cf9ebb8161b4fd038a251aa6d30daa17414c5",
          "blockNumber": "0x4a4c204",
          "blockTimestamp": "0x697a00ad",
          "transactionHash": "0x6c49c477563bf4bd1e610bb8f601bb54f27c1ec031996d40445f1d9985a41c2a",
          "transactionIndex": "0x6b",
          "logIndex": "0x220",
          "removed": false
        },
        {
          "address": "0xa5dc2cb4dc13f12d8464eaa862fac00f19adc84d",
          "topics": [
            "0x2f3c6b138bbc22991cb748093f24117969e5e880b28f9343c903b9473032267b"
          ],
          "data": "0x000000000000000000000000ac56dc5a4a9de0197f7b8f584ea04ec7e0123dde0000000000000000000000000000000027d65258b43a0737adcda16759f3da7800000000000000000000000000000000000000000000000000000000000015750000000000000000000000000000000000000000000000000000000000000190",
          "blockHash": "0x18fc34823e9586d81e568c6a3a6cf9ebb8161b4fd038a251aa6d30daa17414c5",
          "blockNumber": "0x4a4c204",
          "blockTimestamp": "0x697a00ad",
          "transactionHash": "0x6c49c477563bf4bd1e610bb8f601bb54f27c1ec031996d40445f1d9985a41c2a",
          "transactionIndex": "0x6b",
          "logIndex": "0x221",
          "removed": false
        }
      ],
      "logsBloom": "0x00000000000000000000010000000000001040040000000004000000000000000001000200000000000000000000000000000000000000000000000000000000000000000000000000000000000000000000000000000000000000000000000000000000000000000000000004000000000000000000000000000000000000000000000000000000000000000000080000000000000000000008000000000000000000000000000000000000000000000000002000000000000000000000000000000000000000000000000000000000000000000000000000000000000000800000000000000000000040000000402000000000000000000000000000000000",
      "type": "0x2",
      "transactionHash": "0x6c49c477563bf4bd1e610bb8f601bb54f27c1ec031996d40445f1d9985a41c2a",
      "transactionIndex": "0x6b",
      "blockHash": "0x18fc34823e9586d81e568c6a3a6cf9ebb8161b4fd038a251aa6d30daa17414c5",
      "blockNumber": "0x4a4c204",
      "gasUsed": "0x29e6f",
      "effectiveGasPrice": "0x2faf080",
      "from": "0xac56dc5a4a9de0197f7b8f584ea04ec7e0123dde",
      "to": "0xa5dc2cb4dc13f12d8464eaa862fac00f19adc84d",
      "contractAddress": null
    }
  ],
  "libraries": [],
  "pending": [],
  "returns": {},
  "timestamp": 1769603247527,
  "chain": 56,
  "commit": null
}