{
  "transactions": [
    {
      "hash": "0x8b6e53ccc96164ce59358601d147b2b1eecb944a4b5ba542a799d38449dafb61",
      "transactionType": "CALL",
      "contractName": null,
      "contractAddress": "0xa5dc2cb4dc13f12d8464eaa862fac00f19adc84d",
      "function": "trainSkill(uint8)",
      "arguments": [
        "0"
      ],
      "transaction": {
        "from": "0x4c62f6121e6f967a0872da8364995e9b68c1e82f",
        "to": "0xa5dc2cb4dc13f12d8464eaa862fac00f19adc84d",
        "gas": "0x3e12f",
        "value": "0x0",
        "input": "0xa0a73d0d0000000000000000000000000000000000000000000000000000000000000000",
        "nonce": "0x1c9",
        "chainId": "0x38"
      },
      "additionalContracts": [],
      "isFixedGasLimit": false
    }
  ],
  "receipts": [
    {
      "status": "0x1",
      "cumulativeGasUsed": "0x51162f",
      "logs": [
        {
          "address": "0xaae5ef15499c71301123ee4b13d20d570d24ad5e",
          "topics": [
            "0x6dd0730fb835f9bbe38532c3d82c7c87448bfdec295f1d7cd2d72ff339632a52"
          ],
          "data": "0x00000000000000000000000000000000000000000000000000000000000000c000000000000000000000000000000000000000000000000000000000000001000000000000000000000000004c62f6121e6f967a0872da8364995e9b68c1e82f000000000000000000000000000000000000000000000000000000000000000000000000000000000000000000000000000000000000000000000000698820ce000000000000000000000000000000000000000000000000000000000000014000000000000000000000000000000000000000000000000000000000000000094b696c6c536b696c6c00000000000000000000000000000000000000000000000000000000000000000000000000000000000000000000000000000000000005547261696e0000000000000000000000000000000000000000000000000000000000000000000000000000000000000000000000000000000000000000000000",
          "blockHash": "0x681e1f00d75ff88f41b5fa9e70adaf7ce3e0e4e6575235029e658e7e28cbe03d",
          "blockNumber": "0x4c423bc",
          "blockTimestamp": "0x698820ce",
          "transactionHash": "0x8b6e53ccc96164ce59358601d147b2b1eecb944a4b5ba542a799d38449dafb61",
          "transactionIndex": "0x3c",
          "logIndex": "0x8b",
          "removed": false
        },
        {
          "address": "0xa5dc2cb4dc13f12d8464eaa862fac00f19adc84d",
          "topics": [
            "0xa2ecdf3a87e9ffdb151ad823ae834f6165f94e54e5a30467175e075254eb6376"
          ],
          "data": "0x0000000000000000000000004c62f6121e6f967a0872da8364995e9b68c1e82f00000000000000000000000000000000000000000000000000000000000000000000000000000000000000000000000000000000000000000000000000000000000000000000000000000000000000000000000000000000000000000000000000000000000000000000000000000000000000000000000000000000000000000000000000000000000000000000000000000000000000000000000069882b5a00000000000000000000000000000000000000000000000000000000698820ce",
          "blockHash": "0x681e1f00d75ff88f41b5fa9e70adaf7ce3e0e4e6575235029e658e7e28cbe03d",
          "blockNumber": "0x4c423bc",
          "blockTimestamp": "0x698820ce",
          "transactionHash": "0x8b6e53ccc96164ce59358601d147b2b1eecb944a4b5ba542a799d38449dafb61",
          "transactionIndex": "0x3c",
          "logIndex": "0x8c",
          "removed": false
        },
        {
          "address": "0xa5dc2cb4dc13f12d8464eaa862fac00f19adc84d",
          "topics": [
            "0x2f3c6b138bbc22991cb748093f24117969e5e880b28f9343c903b9473032267b"
          ],
          "data": "0x0000000000000000000000004c62f6121e6f967a0872da8364995e9b68c1e82f00000000000000000000000000000000f31a38390f621f2c9757fa74c5d621090000000000000000000000000000000000000000000000000000000000001fc30000000000000000000000000000000000000000000000000000000000000190",
          "blockHash": "0x681e1f00d75ff88f41b5fa9e70adaf7ce3e0e4e6575235029e658e7e28cbe03d",
          "blockNumber": "0x4c423bc",
          "blockTimestamp": "0x698820ce",
          "transactionHash": "0x8b6e53ccc96164ce59358601d147b2b1eecb944a4b5ba542a799d38449dafb61",
          "transactionIndex": "0x3c",
          "logIndex": "0x8d",
          "removed": false
        }
      ],
      "logsBloom": "0x00000000000000000000010000000000001040040000000004000000000000000001000200000000000000000000000000000000000000000000000000000000000000000000000000000000000000000000000000000000000000000000000000000000000000000000000004000000000000000000000000000000000000000000000000000000000000000000080000000000000000000008000000000000000000000000000000000000000000000000002000000000000000000000000000000000000000000000000000000000000000000000000000000000000000800000000000000000000040000000402000000000000000000000000000000000",
      "type": "0x2",
      "transactionHash": "0x8b6e53ccc96164ce59358601d147b2b1eecb944a4b5ba542a799d38449dafb61",
      "transactionIndex": "0x3c",
      "blockHash": "0x681e1f00d75ff88f41b5fa9e70adaf7ce3e0e4e6575235029e658e7e28cbe03d",
      "blockNumber": "0x4c423bc",
      "gasUsed": "0x2a71a",
      "effectiveGasPrice": "0x2faf080",
      "from": "0x4c62f6121e6f967a0872da8364995e9b68c1e82f",
      "to": "0xa5dc2cb4dc13f12d8464eaa862fac00f19adc84d",
      "contractAddress": null
    }
  ],
  "libraries": [],
  "pending": [],
  "returns": {},
  "timestamp": 1770528976423,
  "chain": 56,
  "commit": null
}