{
  "transactions": [
    {
      "hash": "0xabd7e0468f0b0297b612aa1446309e33a9b30ce2e0ac0dc6ce0dacd5969a39a1",
      "transactionType": "CALL",
      "contractName": null,
      "contractAddress": "0xa5dc2cb4dc13f12d8464eaa862fac00f19adc84d",
      "function": "trainSkill(uint8)",
      "arguments": [
        "0"
      ],
      "transaction": {
        "from": "0xeca7a53ba6a190c5d205bfdc7707cbc3399336c1",
        "to": "0xa5dc2cb4dc13f12d8464eaa862fac00f19adc84d",
        "gas": "0x39e08",
        "value": "0x0",
        "input": "0xa0a73d0d0000000000000000000000000000000000000000000000000000000000000000",
        "nonce": "0x208",
        "chainId": "0x38"
      },
      "additionalContracts": [],
      "isFixedGasLimit": false
    }
  ],
  "receipts": [
    {
      "status": "0x1",
      "cumulativeGasUsed": "0x65b245",
      "logs": [
        {
          "address": "0xaae5ef15499c71301123ee4b13d20d570d24ad5e",
          "topics": [
            "0x6dd0730fb835f9bbe38532c3d82c7c87448bfdec295f1d7cd2d72ff339632a52"
          ],
          "data": "0x00000000000000000000000000000000000000000000000000000000000000c00000000000000000000000000000000000000000000000000000000000000100000000000000000000000000eca7a53ba6a190c5d205bfdc7707cbc3399336c1000000000000000000000000000000000000000000000000000000000000000000000000000000000000000000000000000000000000000000000000697a2bba000000000000000000000000000000000000000000000000000000000000014000000000000000000000000000000000000000000000000000000000000000094b696c6c536b696c6c00000000000000000000000000000000000000000000000000000000000000000000000000000000000000000000000000000000000005547261696e0000000000000000000000000000000000000000000000000000000000000000000000000000000000000000000000000000000000000000000000",
          "blockHash": "0x5bfc49809f16915b6aa9dfb002b63eaed29e84cf49764f651ccc7d3d9a5abad4",
          "blockNumber": "0x4a521a9",
          "blockTimestamp": "0x697a2bba",
          "transactionHash": "0xabd7e0468f0b0297b612aa1446309e33a9b30ce2e0ac0dc6ce0dacd5969a39a1",
          "transactionIndex": "0x55",
          "logIndex": "0x9e",
          "removed": false
        },
        {
          "address": "0xa5dc2cb4dc13f12d8464eaa862fac00f19adc84d",
          "topics": [
            "0xa2ecdf3a87e9ffdb151ad823ae834f6165f94e54e5a30467175e075254eb6376"
          ],
          "data": "0x000000000000000000000000eca7a53ba6a190c5d205bfdc7707cbc3399336c1000000000000000000000000000000000000000000000000000000000000000000000000000000000000000000000000000000000000000000000000000000000000000000000000000000000000000000000000000000000000000000000000000000000000000000000000000000000000000000000000000000000000000000000000000000000000000000000000000000000000000000000000697a364600000000000000000000000000000000000000000000000000000000697a2bba",
          "blockHash": "0x5bfc49809f16915b6aa9dfb002b63eaed29e84cf49764f651ccc7d3d9a5abad4",
          "blockNumber": "0x4a521a9",
          "blockTimestamp": "0x697a2bba",
          "transactionHash": "0xabd7e0468f0b0297b612aa1446309e33a9b30ce2e0ac0dc6ce0dacd5969a39a1",
          "transactionIndex": "0x55",
          "logIndex": "0x9f",
          "removed": false
        },
        {
          "address": "0xa5dc2cb4dc13f12d8464eaa862fac00f19adc84d",
          "topics": [
            "0x2f3c6b138bbc22991cb748093f24117969e5e880b28f9343c903b9473032267b"
          ],
          "data": "0x000000000000000000000000eca7a53ba6a190c5d205bfdc7707cbc3399336c10000000000000000000000000000000019ee4e918de0e2defde48ddb52d7d11700000000000000000000000000000000000000000000000000000000000020bd0000000000000000000000000000000000000000000000000000000000000190",
          "blockHash": "0x5bfc49809f16915b6aa9dfb002b63eaed29e84cf49764f651ccc7d3d9a5abad4",
          "blockNumber": "0x4a521a9",
          "blockTimestamp": "0x697a2bba",
          "transactionHash": "0xabd7e0468f0b0297b612aa1446309e33a9b30ce2e0ac0dc6ce0dacd5969a39a1",
          "transactionIndex": "0x55",
          "logIndex": "0xa0",
          "removed": false
        }
      ],
      "logsBloom": "0x00000000000000000000010000000000001040040000000004000000000000000001000200000000000000000000000000000000000000000000000000000000000000000000000000000000000000000000000000000000000000000000000000000000000000000000000004000000000000000000000000000000000000000000000000000000000000000000080000000000000000000008000000000000000000000000000000000000000000000000002000000000000000000000000000000000000000000000000000000000000000000000000000000000000000800000000000000000000040000000402000000000000000000000000000000000",
      "type": "0x2",
      "transactionHash": "0xabd7e0468f0b0297b612aa1446309e33a9b30ce2e0ac0dc6ce0dacd5969a39a1",
      "transactionIndex": "0x55",
      "blockHash": "0x5bfc49809f16915b6aa9dfb002b63eaed29e84cf49764f651ccc7d3d9a5abad4",
      "blockNumber": "0x4a521a9",
      "gasUsed": "0x29e6f",
      "effectiveGasPrice": "0x2faf080",
      "from": "0xeca7a53ba6a190c5d205bfdc7707cbc3399336c1",
      "to": "0xa5dc2cb4dc13f12d8464eaa862fac00f19adc84d",
      "contractAddress": null
    }
  ],
  "libraries": [],
  "pending": [],
  "returns": {},
  "timestamp": 1769614268116,
  "chain": 56,
  "commit": null
}