{
  "transactions": [
    {
      "hash": "0xfa02a221356d729d9152d3fe2bfc859cf2a924bbbff5930507b0f79d8c730719",
      "transactionType": "CALL",
      "contractName": null,
      "contractAddress": "0xf077d4d0508505c5a80249afc10bc6ead90e47f1",
      "function": "makeCrime(uint8)",
      "arguments": [
        "0"
      ],
      "transaction": {
        "from": "0x4c62f6121e6f967a0872da8364995e9b68c1e82f",
        "to": "0xf077d4d0508505c5a80249afc10bc6ead90e47f1",
        "gas": "0x2a297",
        "value": "0x0",
        "input": "0xc625abb40000000000000000000000000000000000000000000000000000000000000000",
        "nonce": "0x740",
        "chainId": "0x171"
      },
      "additionalContracts": [],
      "isFixedGasLimit": false
    }
  ],
  "receipts": [
    {
      "status": "0x1",
      "cumulativeGasUsed": "0x5c7a51",
      "logs": [
        {
          "address": "0xf077d4d0508505c5a80249afc10bc6ead90e47f1",
          "topics": [
            "0xe36ceebd3770780c5617d53efc7d77328074f1248146245ed3b854cbf651fb37"
          ],
          "data": "0x0000000000000000000000004c62f6121e6f967a0872da8364995e9b68c1e82f0000000000000000000000000000000000000000000000000000000000000000000000000000000000000000000000000000000000000000000000000000000000000000000000000000000000000000000000000000000000000000000000000000000000000000000000000000000000000000000000000000000000000000000000000000000000000000000000000000000000000000000000000000000000000000000000000000000000000000000000000000000000000000697a55c100000000000000000000000000000000000000000000000000000000697a523d",
          "blockHash": "0xdde1db923bb92ff5fda1b60dba72cb0c3cee8ceeff351edb50ef0be1f1a56929",
          "blockNumber": "0x1875519",
          "transactionHash": "0xfa02a221356d729d9152d3fe2bfc859cf2a924bbbff5930507b0f79d8c730719",
          "transactionIndex": "0x16",
          "logIndex": "0x8f",
          "removed": false
        }
      ],
      "logsBloom": "0x00000000000000000000000000000000000000000000000000000000400000000000000000000000000000000000000000000000000000000000000000000000000000000000000000000000000000000000000000000000000000000000000000000000000000000000000000000000400000000000000000000000000000000000000000000000000000100000000000000000000020000000000000000000000000000000000000000000000000000000000000000000000000000000000000000000000000000100000000000000000000000000000000000000000000000000000000000000000000000000000000000000000000000000000000000002",
      "type": "0x2",
      "transactionHash": "0xfa02a221356d729d9152d3fe2bfc859cf2a924bbbff5930507b0f79d8c730719",
      "transactionIndex": "0x16",
      "blockHash": "0xdde1db923bb92ff5fda1b60dba72cb0c3cee8ceeff351edb50ef0be1f1a56929",
      "blockNumber": "0x1875519",
      "gasUsed": "0x1e865",
      "effectiveGasPrice": "0x3a0f3015042af",
      "from": "0x4c62f6121e6f967a0872da8364995e9b68c1e82f",
      "to": "0xf077d4d0508505c5a80249afc10bc6ead90e47f1",
      "contractAddress": null
    }
  ],
  "libraries": [],
  "pending": [],
  "returns": {},
  "timestamp": 1769624126281,
  "chain": 369,
  "commit": null
}