{
  "transactions": [
    {
      "hash": "0xaa2c1fd203c3697eb5b11b21346f8e04c8b8b603f844eb7a886e6cd4532daf86",
      "transactionType": "CALL",
      "contractName": null,
      "contractAddress": "0xf077d4d0508505c5a80249afc10bc6ead90e47f1",
      "function": "makeCrime(uint8)",
      "arguments": [
        "0"
      ],
      "transaction": {
        "from": "0xeca7a53ba6a190c5d205bfdc7707cbc3399336c1",
        "to": "0xf077d4d0508505c5a80249afc10bc6ead90e47f1",
        "gas": "0x41b40",
        "value": "0x0",
        "input": "0xc625abb40000000000000000000000000000000000000000000000000000000000000000",
        "nonce": "0x597",
        "chainId": "0x171"
      },
      "additionalContracts": [],
      "isFixedGasLimit": false
    }
  ],
  "receipts": [
    {
      "status": "0x1",
      "cumulativeGasUsed": "0xd8202a",
      "logs": [
        {
          "address": "0xdcd5e9c0b2b4e9cb93677a258521d854b3a9f5a1",
          "topics": [
            "0x0bff5315606c84d1cee047503678048ca39946be11bfdd5a8c03fe5e272d98e3"
          ],
          "data": "0x000000000000000000000000eca7a53ba6a190c5d205bfdc7707cbc3399336c100000000000000000000000000000000000000000000000000000000698840d70000000000000000000000000000000000000000000000000000000000000000",
          "blockHash": "0xd62fe666f5bc2ab3ba257bd5780a110e74fb6b3243e3377c89e563522b2aacab",
          "blockNumber": "0x188b04c",
          "transactionHash": "0xaa2c1fd203c3697eb5b11b21346f8e04c8b8b603f844eb7a886e6cd4532daf86",
          "transactionIndex": "0x2a",
          "logIndex": "0x123",
          "removed": false
        },
        {
          "address": "0xf077d4d0508505c5a80249afc10bc6ead90e47f1",
          "topics": [
            "0xe36ceebd3770780c5617d53efc7d77328074f1248146245ed3b854cbf651fb37"
          ],
          "data": "0x000000000000000000000000eca7a53ba6a190c5d205bfdc7707cbc3399336c1000000000000000000000000000000000000000000000000000000000000000000000000000000000000000000000000000000000000000000000000000000000000000000000000000000000000000000000000000000000000000000000001000000000000000000000000000000000000000000000000000000000000000000000000000000000000000000000000000000000000000000000000000000000000000000000000000000000000000000000000000000000000000069883f150000000000000000000000000000000000000000000000000000000069883b91",
          "blockHash": "0xd62fe666f5bc2ab3ba257bd5780a110e74fb6b3243e3377c89e563522b2aacab",
          "blockNumber": "0x188b04c",
          "transactionHash": "0xaa2c1fd203c3697eb5b11b21346f8e04c8b8b603f844eb7a886e6cd4532daf86",
          "transactionIndex": "0x2a",
          "logIndex": "0x124",
          "removed": false
        }
      ],
      "logsBloom": "0x00000000000000000000000000000000010000000000000000000000400000000000000000000000000000000000000000000000000000000000000000000000000000000000000000000000000000000000000000000000001000000000000000000000000000000000000000000000400000000080000000000000000000000000000000000000000000100000000000000000000020000000000000000000000000000000000000000000000000000000000000000000400000000000000000000000000000000100000000000040000000000000000000000000000000000000000000000000000000000000000000000000000000000000000000001002",
      "type": "0x2",
      "transactionHash": "0xaa2c1fd203c3697eb5b11b21346f8e04c8b8b603f844eb7a886e6cd4532daf86",
      "transactionIndex": "0x2a",
      "blockHash": "0xd62fe666f5bc2ab3ba257bd5780a110e74fb6b3243e3377c89e563522b2aacab",
      "blockNumber": "0x188b04c",
      "gasUsed": "0x2f917",
      "effectiveGasPrice": "0x30e162162ebd3",
      "from": "0xeca7a53ba6a190c5d205bfdc7707cbc3399336c1",
      "to": "0xf077d4d0508505c5a80249afc10bc6ead90e47f1",
      "contractAddress": null
    }
  ],
  "libraries": [],
  "pending": [],
  "returns": {},
  "timestamp": 1770535825638,
  "chain": 369,
  "commit": null
}