{
  "transactions": [
    {
      "hash": "0x8d3c35a436b4fc6126e8def80a4e88e23be204b9b8c13d869b0232f7b11500c9",
      "transactionType": "CALL",
      "contractName": null,
      "contractAddress": "0xf077d4d0508505c5a80249afc10bc6ead90e47f1",
      "function": "makeCrime(uint8)",
      "arguments": [
        "0"
      ],
      "transaction": {
        "from": "0x4c62f6121e6f967a0872da8364995e9b68c1e82f",
        "to": "0xf077d4d0508505c5a80249afc10bc6ead90e47f1",
        "gas": "0x409a4",
        "value": "0x0",
        "input": "0xc625abb40000000000000000000000000000000000000000000000000000000000000000",
        "nonce": "0x95a",
        "chainId": "0x171"
      },
      "additionalContracts": [],
      "isFixedGasLimit": false
    }
  ],
  "receipts": [
    {
      "status": "0x1",
      "cumulativeGasUsed": "0x1e38e14",
      "logs": [
        {
          "address": "0xf077d4d0508505c5a80249afc10bc6ead90e47f1",
          "topics": [
            "0xe36ceebd3770780c5617d53efc7d77328074f1248146245ed3b854cbf651fb37"
          ],
          "data": "0x0000000000000000000000004c62f6121e6f967a0872da8364995e9b68c1e82f000000000000000000000000000000000000000000000000000000000000000000000000000000000000000000000000000000000000000000000000000000000000000000000000000000000000000000000000000000000000000000000000000000000000000000000000000000000000000000000000000000000000000000000000000000000000000000000000000000000000000000000000000000000000000000000000000000000000000000000000000000000000000069878c0f000000000000000000000000000000000000000000000000000000006987888b",
          "blockHash": "0xc371c059cd517a7599d813436e9bd3dec0eec60ecdd7ab8521fb3a2840449d30",
          "blockNumber": "0x1889ecc",
          "transactionHash": "0x8d3c35a436b4fc6126e8def80a4e88e23be204b9b8c13d869b0232f7b11500c9",
          "transactionIndex": "0x22",
          "logIndex": "0x8be",
          "removed": false
        }
      ],
      "logsBloom": "0x00000000000000000000000000000000000000000000000000000000400000000000000000000000000000000000000000000000000000000000000000000000000000000000000000000000000000000000000000000000000000000000000000000000000000000000000000000000400000000000000000000000000000000000000000000000000000100000000000000000000020000000000000000000000000000000000000000000000000000000000000000000000000000000000000000000000000000100000000000000000000000000000000000000000000000000000000000000000000000000000000000000000000000000000000000002",
      "type": "0x2",
      "transactionHash": "0x8d3c35a436b4fc6126e8def80a4e88e23be204b9b8c13d869b0232f7b11500c9",
      "transactionIndex": "0x22",
      "blockHash": "0xc371c059cd517a7599d813436e9bd3dec0eec60ecdd7ab8521fb3a2840449d30",
      "blockNumber": "0x1889ecc",
      "gasUsed": "0x1e865",
      "effectiveGasPrice": "0x2c88a114b7efa",
      "from": "0x4c62f6121e6f967a0872da8364995e9b68c1e82f",
      "to": "0xf077d4d0508505c5a80249afc10bc6ead90e47f1",
      "contractAddress": null
    }
  ],
  "libraries": [],
  "pending": [],
  "returns": {},
  "timestamp": 1770489997421,
  "chain": 369,
  "commit": null
}