{
  "transactions": [
    {
      "hash": "0x20a98c359aff20396847049fc944de5386bf903765c5ace0d4e34cfe45ac4256",
      "transactionType": "CALL",
      "contractName": null,
      "contractAddress": "0xf077d4d0508505c5a80249afc10bc6ead90e47f1",
      "function": "makeCrime(uint8)",
      "arguments": [
        "0"
      ],
      "transaction": {
        "from": "0xeca7a53ba6a190c5d205bfdc7707cbc3399336c1",
        "to": "0xf077d4d0508505c5a80249afc10bc6ead90e47f1",
        "gas": "0x54ec2",
        "value": "0x0",
        "input": "0xc625abb40000000000000000000000000000000000000000000000000000000000000000",
        "nonce": "0x36f",
        "chainId": "0x171"
      },
      "additionalContracts": [],
      "isFixedGasLimit": false
    }
  ],
  "receipts": [
    {
      "status": "0x1",
      "cumulativeGasUsed": "0x64f918",
      "logs": [
        {
          "address": "0xdcd5e9c0b2b4e9cb93677a258521d854b3a9f5a1",
          "topics": [
            "0x0bff5315606c84d1cee047503678048ca39946be11bfdd5a8c03fe5e272d98e3"
          ],
          "data": "0x000000000000000000000000eca7a53ba6a190c5d205bfdc7707cbc3399336c10000000000000000000000000000000000000000000000000000000069794e1f0000000000000000000000000000000000000000000000000000000000000000",
          "blockHash": "0xdf56fe8c4f88bb77dd19d00e6ce080b09a555c459b0d2a341704cfb3cb9cec34",
          "blockNumber": "0x1873b21",
          "transactionHash": "0x20a98c359aff20396847049fc944de5386bf903765c5ace0d4e34cfe45ac4256",
          "transactionIndex": "0x17",
          "logIndex": "0xb2",
          "removed": false
        },
        {
          "address": "0xf077d4d0508505c5a80249afc10bc6ead90e47f1",
          "topics": [
            "0xe36ceebd3770780c5617d53efc7d77328074f1248146245ed3b854cbf651fb37"
          ],
          "data": "0x000000000000000000000000eca7a53ba6a190c5d205bfdc7707cbc3399336c1000000000000000000000000000000000000000000000000000000000000000000000000000000000000000000000000000000000000000000000000000000000000000000000000000000000000000000000000000000000000000000000001000000000000000000000000000000000000000000000000000000000000000000000000000000000000000000000000000000000000000000000000000000000000000000000000000000000000000000000000000000000000000069794c5d00000000000000000000000000000000000000000000000000000000697948d9",
          "blockHash": "0xdf56fe8c4f88bb77dd19d00e6ce080b09a555c459b0d2a341704cfb3cb9cec34",
          "blockNumber": "0x1873b21",
          "transactionHash": "0x20a98c359aff20396847049fc944de5386bf903765c5ace0d4e34cfe45ac4256",
          "transactionIndex": "0x17",
          "logIndex": "0xb3",
          "removed": false
        }
      ],
      "logsBloom": "0x00000000000000000000000000000000010000000000000000000000400000000000000000000000000000000000000000000000000000000000000000000000000000000000000000000000000000000000000000000000001000000000000000000000000000000000000000000000400000000080000000000000000000000000000000000000000000100000000000000000000020000000000000000000000000000000000000000000000000000000000000000000400000000000000000000000000000000100000000000040000000000000000000000000000000000000000000000000000000000000000000000000000000000000000000001002",
      "type": "0x2",
      "transactionHash": "0x20a98c359aff20396847049fc944de5386bf903765c5ace0d4e34cfe45ac4256",
      "transactionIndex": "0x17",
      "blockHash": "0xdf56fe8c4f88bb77dd19d00e6ce080b09a555c459b0d2a341704cfb3cb9cec34",
      "blockNumber": "0x1873b21",
      "gasUsed": "0x2f030",
      "effectiveGasPrice": "0x2ee7b8951f9fc",
      "from": "0xeca7a53ba6a190c5d205bfdc7707cbc3399336c1",
      "to": "0xf077d4d0508505c5a80249afc10bc6ead90e47f1",
      "contractAddress": null
    }
  ],
  "libraries": [],
  "pending": [],
  "returns": {},
  "timestamp": 1769556185753,
  "chain": 369,
  "commit": null
}