{
  "transactions": [
    {
      "hash": "0x7bfa40c27dc74aa8ceddf258c46f6711b1616e8d2c940db5a51a2d1bceef8b50",
      "transactionType": "CALL",
      "contractName": null,
      "contractAddress": "0xf077d4d0508505c5a80249afc10bc6ead90e47f1",
      "function": "makeCrime(uint8)",
      "arguments": [
        "0"
      ],
      "transaction": {
        "from": "0xac56dc5a4a9de0197f7b8f584ea04ec7e0123dde",
        "to": "0xf077d4d0508505c5a80249afc10bc6ead90e47f1",
        "gas": "0x4033d",
        "value": "0x0",
        "input": "0xc625abb40000000000000000000000000000000000000000000000000000000000000000",
        "nonce": "0x269",
        "chainId": "0x171"
      },
      "additionalContracts": [],
      "isFixedGasLimit": false
    }
  ],
  "receipts": [
    {
      "status": "0x1",
      "cumulativeGasUsed": "0x98a9c5",
      "logs": [
        {
          "address": "0x74eadd7ebeeed638fd7c413134fa3d3433699d92",
          "topics": [
            "0x570f308d592bed3a47a73125665ce3b81fe296da89acff1af6d926e08a0a9f12"
          ],
          "data": "0x000000000000000000000000ac56dc5a4a9de0197f7b8f584ea04ec7e0123dde0000000000000000000000000000000000000000000000000000000000036a53",
          "blockHash": "0x7f77ff2017f02edf204a90beb367c2e164bfcacc5ca09a2634a4ce3bcf1081e7",
          "blockNumber": "0x1862c7a",
          "transactionHash": "0x7bfa40c27dc74aa8ceddf258c46f6711b1616e8d2c940db5a51a2d1bceef8b50",
          "transactionIndex": "0x22",
          "logIndex": "0x262",
          "removed": false
        },
        {
          "address": "0xf077d4d0508505c5a80249afc10bc6ead90e47f1",
          "topics": [
            "0xe36ceebd3770780c5617d53efc7d77328074f1248146245ed3b854cbf651fb37"
          ],
          "data": "0x000000000000000000000000ac56dc5a4a9de0197f7b8f584ea04ec7e0123dde00000000000000000000000000000000000000000000000000000000000000000000000000000000000000000000000000000000000000000000000000000001000000000000000000000000000000000000000000000000000000000000000000000000000000000000000000000000000000000000001a589ad90fc7d80000000000000000000000000000000000000000000000000000000000000000006400000000000000000000000000000000000000000000000000000000696e72e700000000000000000000000000000000000000000000000000000000696e6f63",
          "blockHash": "0x7f77ff2017f02edf204a90beb367c2e164bfcacc5ca09a2634a4ce3bcf1081e7",
          "blockNumber": "0x1862c7a",
          "transactionHash": "0x7bfa40c27dc74aa8ceddf258c46f6711b1616e8d2c940db5a51a2d1bceef8b50",
          "transactionIndex": "0x22",
          "logIndex": "0x263",
          "removed": false
        }
      ],
      "logsBloom": "0x00000000000000000000000000000000004000000000000000000000400000000000000000000000000000000000000000000000000000000000000000000000000000000000000000008000000000000000000000000000000000000000000000000100000000000000000000000000400000000000000000000000000000000000000000000000000000100000000000000000000020000000000000000008000000000000000000000000000000000010000000000000000000000000000000000000000002000100000000000000000000000000000000000000000000000000000000000000000000000000000000000000000000000000000000000002",
      "type": "0x2",
      "transactionHash": "0x7bfa40c27dc74aa8ceddf258c46f6711b1616e8d2c940db5a51a2d1bceef8b50",
      "transactionIndex": "0x22",
      "blockHash": "0x7f77ff2017f02edf204a90beb367c2e164bfcacc5ca09a2634a4ce3bcf1081e7",
      "blockNumber": "0x1862c7a",
      "gasUsed": "0x3cf70",
      "effectiveGasPrice": "0x1545009f34288",
      "from": "0xac56dc5a4a9de0197f7b8f584ea04ec7e0123dde",
      "to": "0xf077d4d0508505c5a80249afc10bc6ead90e47f1",
      "contractAddress": null
    }
  ],
  "libraries": [],
  "pending": [],
  "returns": {},
  "timestamp": 1768845157077,
  "chain": 369,
  "commit": "953695a"
}