{
  "transactions": [
    {
      "hash": "0xcff67ee2c3ac3306428c103fb573a55998a808e511b0e22a715471373a977a7f",
      "transactionType": "CALL",
      "contractName": null,
      "contractAddress": "0xf077d4d0508505c5a80249afc10bc6ead90e47f1",
      "function": "makeCrime(uint8)",
      "arguments": [
        "0"
      ],
      "transaction": {
        "from": "0x4c62f6121e6f967a0872da8364995e9b68c1e82f",
        "to": "0xf077d4d0508505c5a80249afc10bc6ead90e47f1",
        "gas": "0x3fd59",
        "value": "0x0",
        "input": "0xc625abb40000000000000000000000000000000000000000000000000000000000000000",
        "nonce": "0x74a",
        "chainId": "0x171"
      },
      "additionalContracts": [],
      "isFixedGasLimit": false
    }
  ],
  "receipts": [
    {
      "status": "0x1",
      "cumulativeGasUsed": "0x180b0a3",
      "logs": [
        {
          "address": "0xf077d4d0508505c5a80249afc10bc6ead90e47f1",
          "topics": [
            "0xe36ceebd3770780c5617d53efc7d77328074f1248146245ed3b854cbf651fb37"
          ],
          "data": "0x0000000000000000000000004c62f6121e6f967a0872da8364995e9b68c1e82f0000000000000000000000000000000000000000000000000000000000000000000000000000000000000000000000000000000000000000000000000000000000000000000000000000000000000000000000000000000000000000000000000000000000000000000000000000000000000000000000000000000000000000000000000000000000000000000000000000000000000000000000000000000000000000000000000000000000000000000000000000000000000000697a75d300000000000000000000000000000000000000000000000000000000697a724f",
          "blockHash": "0x9e6a90fb09a023c9383fa53b00e4cb4cae7f5ea1f0f2e0ded99911d9916fedc1",
          "blockNumber": "0x187583a",
          "transactionHash": "0xcff67ee2c3ac3306428c103fb573a55998a808e511b0e22a715471373a977a7f",
          "transactionIndex": "0x1c",
          "logIndex": "0x51c",
          "removed": false
        }
      ],
      "logsBloom": "0x00000000000000000000000000000000000000000000000000000000400000000000000000000000000000000000000000000000000000000000000000000000000000000000000000000000000000000000000000000000000000000000000000000000000000000000000000000000400000000000000000000000000000000000000000000000000000100000000000000000000020000000000000000000000000000000000000000000000000000000000000000000000000000000000000000000000000000100000000000000000000000000000000000000000000000000000000000000000000000000000000000000000000000000000000000002",
      "type": "0x2",
      "transactionHash": "0xcff67ee2c3ac3306428c103fb573a55998a808e511b0e22a715471373a977a7f",
      "transactionIndex": "0x1c",
      "blockHash": "0x9e6a90fb09a023c9383fa53b00e4cb4cae7f5ea1f0f2e0ded99911d9916fedc1",
      "blockNumber": "0x187583a",
      "gasUsed": "0x1e865",
      "effectiveGasPrice": "0x34ae34f14f656",
      "from": "0x4c62f6121e6f967a0872da8364995e9b68c1e82f",
      "to": "0xf077d4d0508505c5a80249afc10bc6ead90e47f1",
      "contractAddress": null
    }
  ],
  "libraries": [],
  "pending": [],
  "returns": {},
  "timestamp": 1769632336596,
  "chain": 369,
  "commit": null
}