{
  "transactions": [
    {
      "hash": "0xe6ed3e250e1a358caf021757dca8798d6d3517edeb2b78d2259fe6721bc6b01b",
      "transactionType": "CALL",
      "contractName": null,
      "contractAddress": "0xf077d4d0508505c5a80249afc10bc6ead90e47f1",
      "function": "makeCrime(uint8)",
      "arguments": [
        "0"
      ],
      "transaction": {
        "from": "0xac56dc5a4a9de0197f7b8f584ea04ec7e0123dde",
        "to": "0xf077d4d0508505c5a80249afc10bc6ead90e47f1",
        "gas": "0x4033d",
        "value": "0x0",
        "input": "0xc625abb40000000000000000000000000000000000000000000000000000000000000000",
        "nonce": "0x34a",
        "chainId": "0x171"
      },
      "additionalContracts": [],
      "isFixedGasLimit": false
    }
  ],
  "receipts": [
    {
      "status": "0x1",
      "cumulativeGasUsed": "0x226251c",
      "logs": [
        {
          "address": "0xdcd5e9c0b2b4e9cb93677a258521d854b3a9f5a1",
          "topics": [
            "0x0bff5315606c84d1cee047503678048ca39946be11bfdd5a8c03fe5e272d98e3"
          ],
          "data": "0x000000000000000000000000ac56dc5a4a9de0197f7b8f584ea04ec7e0123dde00000000000000000000000000000000000000000000000000000000697946090000000000000000000000000000000000000000000000000000000000000000",
          "blockHash": "0x08efd50006a49a405ac9b9e56343775fd52932a19588381af6aea4e15827438f",
          "blockNumber": "0x1873a56",
          "transactionHash": "0xe6ed3e250e1a358caf021757dca8798d6d3517edeb2b78d2259fe6721bc6b01b",
          "transactionIndex": "0x24",
          "logIndex": "0x6b6",
          "removed": false
        },
        {
          "address": "0xf077d4d0508505c5a80249afc10bc6ead90e47f1",
          "topics": [
            "0xe36ceebd3770780c5617d53efc7d77328074f1248146245ed3b854cbf651fb37"
          ],
          "data": "0x000000000000000000000000ac56dc5a4a9de0197f7b8f584ea04ec7e0123dde00000000000000000000000000000000000000000000000000000000000000000000000000000000000000000000000000000000000000000000000000000000000000000000000000000000000000000000000000000000000000000000000100000000000000000000000000000000000000000000000000000000000000000000000000000000000000000000000000000000000000000000000000000000000000000000000000000000000000000000000000000000000000006979444700000000000000000000000000000000000000000000000000000000697940c3",
          "blockHash": "0x08efd50006a49a405ac9b9e56343775fd52932a19588381af6aea4e15827438f",
          "blockNumber": "0x1873a56",
          "transactionHash": "0xe6ed3e250e1a358caf021757dca8798d6d3517edeb2b78d2259fe6721bc6b01b",
          "transactionIndex": "0x24",
          "logIndex": "0x6b7",
          "removed": false
        }
      ],
      "logsBloom": "0x00000000000000000000000000000000010000000000000000000000400000000000000000000000000000000000000000000000000000000000000000000000000000000000000000000000000000000000000000000000001000000000000000000000000000000000000000000000400000000080000000000000000000000000000000000000000000100000000000000000000020000000000000000000000000000000000000000000000000000000000000000000400000000000000000000000000000000100000000000040000000000000000000000000000000000000000000000000000000000000000000000000000000000000000000001002",
      "type": "0x2",
      "transactionHash": "0xe6ed3e250e1a358caf021757dca8798d6d3517edeb2b78d2259fe6721bc6b01b",
      "transactionIndex": "0x24",
      "blockHash": "0x08efd50006a49a405ac9b9e56343775fd52932a19588381af6aea4e15827438f",
      "blockNumber": "0x1873a56",
      "gasUsed": "0x2e7b4",
      "effectiveGasPrice": "0x471663a6bf8c5",
      "from": "0xac56dc5a4a9de0197f7b8f584ea04ec7e0123dde",
      "to": "0xf077d4d0508505c5a80249afc10bc6ead90e47f1",
      "contractAddress": null
    }
  ],
  "libraries": [],
  "pending": [],
  "returns": {},
  "timestamp": 1769554116042,
  "chain": 369,
  "commit": null
}