{
  "transactions": [
    {
      "hash": "0x7b2eb0a3f3faf36ef6514c5b95686184daff3484ef9219658a84674be0efb786",
      "transactionType": "CALL",
      "contractName": null,
      "contractAddress": "0xf077d4d0508505c5a80249afc10bc6ead90e47f1",
      "function": "makeCrime(uint8)",
      "arguments": [
        "0"
      ],
      "transaction": {
        "from": "0x4c62f6121e6f967a0872da8364995e9b68c1e82f",
        "to": "0xf077d4d0508505c5a80249afc10bc6ead90e47f1",
        "gas": "0x53c96",
        "value": "0x0",
        "input": "0xc625abb40000000000000000000000000000000000000000000000000000000000000000",
        "nonce": "0x74d",
        "chainId": "0x171"
      },
      "additionalContracts": [],
      "isFixedGasLimit": false
    }
  ],
  "receipts": [
    {
      "status": "0x1",
      "cumulativeGasUsed": "0xe34b4c",
      "logs": [
        {
          "address": "0xf077d4d0508505c5a80249afc10bc6ead90e47f1",
          "topics": [
            "0xe36ceebd3770780c5617d53efc7d77328074f1248146245ed3b854cbf651fb37"
          ],
          "data": "0x0000000000000000000000004c62f6121e6f967a0872da8364995e9b68c1e82f0000000000000000000000000000000000000000000000000000000000000000000000000000000000000000000000000000000000000000000000000000000000000000000000000000000000000000000000000000000000000000000000000000000000000000000000000000000000000000000000000000000000000000000000000000000000000000000000000000000000000000000000000000000000000000000000000000000000000000000000000000000000000000697a7e6100000000000000000000000000000000000000000000000000000000697a7add",
          "blockHash": "0x25a7bb0256965942f797de82fcb6778fe3343ebf8426f8da705f49211cc0826f",
          "blockNumber": "0x187590c",
          "transactionHash": "0x7b2eb0a3f3faf36ef6514c5b95686184daff3484ef9219658a84674be0efb786",
          "transactionIndex": "0x1e",
          "logIndex": "0x298",
          "removed": false
        }
      ],
      "logsBloom": "0x00000000000000000000000000000000000000000000000000000000400000000000000000000000000000000000000000000000000000000000000000000000000000000000000000000000000000000000000000000000000000000000000000000000000000000000000000000000400000000000000000000000000000000000000000000000000000100000000000000000000020000000000000000000000000000000000000000000000000000000000000000000000000000000000000000000000000000100000000000000000000000000000000000000000000000000000000000000000000000000000000000000000000000000000000000002",
      "type": "0x2",
      "transactionHash": "0x7b2eb0a3f3faf36ef6514c5b95686184daff3484ef9219658a84674be0efb786",
      "transactionIndex": "0x1e",
      "blockHash": "0x25a7bb0256965942f797de82fcb6778fe3343ebf8426f8da705f49211cc0826f",
      "blockNumber": "0x187590c",
      "gasUsed": "0x1e865",
      "effectiveGasPrice": "0x3548e7d7d1ffc",
      "from": "0x4c62f6121e6f967a0872da8364995e9b68c1e82f",
      "to": "0xf077d4d0508505c5a80249afc10bc6ead90e47f1",
      "contractAddress": null
    }
  ],
  "libraries": [],
  "pending": [],
  "returns": {},
  "timestamp": 1769634525969,
  "chain": 369,
  "commit": null
}