{
  "transactions": [
    {
      "hash": "0x0c790cbdfe30ba6c7949ce4ddfc5eb878dec6dc4128594788a5bed2356901da4",
      "transactionType": "CALL",
      "contractName": null,
      "contractAddress": "0xf077d4d0508505c5a80249afc10bc6ead90e47f1",
      "function": "makeCrime(uint8)",
      "arguments": [
        "0"
      ],
      "transaction": {
        "from": "0x4c62f6121e6f967a0872da8364995e9b68c1e82f",
        "to": "0xf077d4d0508505c5a80249afc10bc6ead90e47f1",
        "gas": "0x2a297",
        "value": "0x0",
        "input": "0xc625abb40000000000000000000000000000000000000000000000000000000000000000",
        "nonce": "0x75d",
        "chainId": "0x171"
      },
      "additionalContracts": [],
      "isFixedGasLimit": false
    }
  ],
  "receipts": [
    {
      "status": "0x1",
      "cumulativeGasUsed": "0x9e8d6e",
      "logs": [
        {
          "address": "0xf077d4d0508505c5a80249afc10bc6ead90e47f1",
          "topics": [
            "0xe36ceebd3770780c5617d53efc7d77328074f1248146245ed3b854cbf651fb37"
          ],
          "data": "0x0000000000000000000000004c62f6121e6f967a0872da8364995e9b68c1e82f0000000000000000000000000000000000000000000000000000000000000000000000000000000000000000000000000000000000000000000000000000000000000000000000000000000000000000000000000000000000000000000000000000000000000000000000000000000000000000000000000000000000000000000000000000000000000000000000000000000000000000000000000000000000000000000000000000000000000000000000000000000000000000697ab6b500000000000000000000000000000000000000000000000000000000697ab331",
          "blockHash": "0x41053ddbf7cbb6541de584b3ac39d3ed7106c119fef7655b3ddbbdefac5b1f5d",
          "blockNumber": "0x1875e8a",
          "transactionHash": "0x0c790cbdfe30ba6c7949ce4ddfc5eb878dec6dc4128594788a5bed2356901da4",
          "transactionIndex": "0x49",
          "logIndex": "0xf8",
          "removed": false
        }
      ],
      "logsBloom": "0x00000000000000000000000000000000000000000000000000000000400000000000000000000000000000000000000000000000000000000000000000000000000000000000000000000000000000000000000000000000000000000000000000000000000000000000000000000000400000000000000000000000000000000000000000000000000000100000000000000000000020000000000000000000000000000000000000000000000000000000000000000000000000000000000000000000000000000100000000000000000000000000000000000000000000000000000000000000000000000000000000000000000000000000000000000002",
      "type": "0x2",
      "transactionHash": "0x0c790cbdfe30ba6c7949ce4ddfc5eb878dec6dc4128594788a5bed2356901da4",
      "transactionIndex": "0x49",
      "blockHash": "0x41053ddbf7cbb6541de584b3ac39d3ed7106c119fef7655b3ddbbdefac5b1f5d",
      "blockNumber": "0x1875e8a",
      "gasUsed": "0x1e865",
      "effectiveGasPrice": "0x1b744602b9b20",
      "from": "0x4c62f6121e6f967a0872da8364995e9b68c1e82f",
      "to": "0xf077d4d0508505c5a80249afc10bc6ead90e47f1",
      "contractAddress": null
    }
  ],
  "libraries": [],
  "pending": [],
  "returns": {},
  "timestamp": 1769648945980,
  "chain": 369,
  "commit": null
}