{
  "transactions": [
    {
      "hash": "0xf32a20c4d10f87f7ed73dfebd0732ddcf03de4a32d6a33ecc56c5a9f1473cf66",
      "transactionType": "CALL",
      "contractName": null,
      "contractAddress": "0xf077d4d0508505c5a80249afc10bc6ead90e47f1",
      "function": "makeCrime(uint8)",
      "arguments": [
        "0"
      ],
      "transaction": {
        "from": "0x4c62f6121e6f967a0872da8364995e9b68c1e82f",
        "to": "0xf077d4d0508505c5a80249afc10bc6ead90e47f1",
        "gas": "0x3fd59",
        "value": "0x0",
        "input": "0xc625abb40000000000000000000000000000000000000000000000000000000000000000",
        "nonce": "0x71e",
        "chainId": "0x171"
      },
      "additionalContracts": [],
      "isFixedGasLimit": false
    }
  ],
  "receipts": [
    {
      "status": "0x1",
      "cumulativeGasUsed": "0xd919ea",
      "logs": [
        {
          "address": "0xf077d4d0508505c5a80249afc10bc6ead90e47f1",
          "topics": [
            "0xe36ceebd3770780c5617d53efc7d77328074f1248146245ed3b854cbf651fb37"
          ],
          "data": "0x0000000000000000000000004c62f6121e6f967a0872da8364995e9b68c1e82f00000000000000000000000000000000000000000000000000000000000000000000000000000000000000000000000000000000000000000000000000000000000000000000000000000000000000000000000000000000000000000000000000000000000000000000000000000000000000000000000000000000000000000000000000000000000000000000000000000000000000000000000000000000000000000000000000000000000000000000000000000000000000006979a51d000000000000000000000000000000000000000000000000000000006979a199",
          "blockHash": "0xc9439d2f9ff3bf2677c1099a8c5e274224db358dceef44125bbe28db033c4ddb",
          "blockNumber": "0x18743ce",
          "transactionHash": "0xf32a20c4d10f87f7ed73dfebd0732ddcf03de4a32d6a33ecc56c5a9f1473cf66",
          "transactionIndex": "0x24",
          "logIndex": "0x151",
          "removed": false
        }
      ],
      "logsBloom": "0x00000000000000000000000000000000000000000000000000000000400000000000000000000000000000000000000000000000000000000000000000000000000000000000000000000000000000000000000000000000000000000000000000000000000000000000000000000000400000000000000000000000000000000000000000000000000000100000000000000000000020000000000000000000000000000000000000000000000000000000000000000000000000000000000000000000000000000100000000000000000000000000000000000000000000000000000000000000000000000000000000000000000000000000000000000002",
      "type": "0x2",
      "transactionHash": "0xf32a20c4d10f87f7ed73dfebd0732ddcf03de4a32d6a33ecc56c5a9f1473cf66",
      "transactionIndex": "0x24",
      "blockHash": "0xc9439d2f9ff3bf2677c1099a8c5e274224db358dceef44125bbe28db033c4ddb",
      "blockNumber": "0x18743ce",
      "gasUsed": "0x1e865",
      "effectiveGasPrice": "0x2811c0693a351",
      "from": "0x4c62f6121e6f967a0872da8364995e9b68c1e82f",
      "to": "0xf077d4d0508505c5a80249afc10bc6ead90e47f1",
      "contractAddress": null
    }
  ],
  "libraries": [],
  "pending": [],
  "returns": {},
  "timestamp": 1769578905746,
  "chain": 369,
  "commit": null
}