{
  "transactions": [
    {
      "hash": "0x8cd1bdbd3507d8dedf397897c8926c7320a1461752b85df71ce3cacb5e771a77",
      "transactionType": "CALL",
      "contractName": null,
      "contractAddress": "0xf077d4d0508505c5a80249afc10bc6ead90e47f1",
      "function": "makeCrime(uint8)",
      "arguments": [
        "0"
      ],
      "transaction": {
        "from": "0xeca7a53ba6a190c5d205bfdc7707cbc3399336c1",
        "to": "0xf077d4d0508505c5a80249afc10bc6ead90e47f1",
        "gas": "0x55e10",
        "value": "0x0",
        "input": "0xc625abb40000000000000000000000000000000000000000000000000000000000000000",
        "nonce": "0x568",
        "chainId": "0x171"
      },
      "additionalContracts": [],
      "isFixedGasLimit": false
    }
  ],
  "receipts": [
    {
      "status": "0x1",
      "cumulativeGasUsed": "0xcecf5b",
      "logs": [
        {
          "address": "0xdcd5e9c0b2b4e9cb93677a258521d854b3a9f5a1",
          "topics": [
            "0x0bff5315606c84d1cee047503678048ca39946be11bfdd5a8c03fe5e272d98e3"
          ],
          "data": "0x000000000000000000000000eca7a53ba6a190c5d205bfdc7707cbc3399336c100000000000000000000000000000000000000000000000000000000698798cb0000000000000000000000000000000000000000000000000000000000000000",
          "blockHash": "0x7049e775983ae099ecc78343163c90a72ab0ea8c4fb8af707e9493ce34028e02",
          "blockNumber": "0x1889fe1",
          "transactionHash": "0x8cd1bdbd3507d8dedf397897c8926c7320a1461752b85df71ce3cacb5e771a77",
          "transactionIndex": "0x2d",
          "logIndex": "0x151",
          "removed": false
        },
        {
          "address": "0xf077d4d0508505c5a80249afc10bc6ead90e47f1",
          "topics": [
            "0xe36ceebd3770780c5617d53efc7d77328074f1248146245ed3b854cbf651fb37"
          ],
          "data": "0x000000000000000000000000eca7a53ba6a190c5d205bfdc7707cbc3399336c10000000000000000000000000000000000000000000000000000000000000000000000000000000000000000000000000000000000000000000000000000000000000000000000000000000000000000000000000000000000000000000000010000000000000000000000000000000000000000000000000000000000000000000000000000000000000000000000000000000000000000000000000000000000000000000000000000000000000000000000000000000000000000698797090000000000000000000000000000000000000000000000000000000069879385",
          "blockHash": "0x7049e775983ae099ecc78343163c90a72ab0ea8c4fb8af707e9493ce34028e02",
          "blockNumber": "0x1889fe1",
          "transactionHash": "0x8cd1bdbd3507d8dedf397897c8926c7320a1461752b85df71ce3cacb5e771a77",
          "transactionIndex": "0x2d",
          "logIndex": "0x152",
          "removed": false
        }
      ],
      "logsBloom": "0x00000000000000000000000000000000010000000000000000000000400000000000000000000000000000000000000000000000000000000000000000000000000000000000000000000000000000000000000000000000001000000000000000000000000000000000000000000000400000000080000000000000000000000000000000000000000000100000000000000000000020000000000000000000000000000000000000000000000000000000000000000000400000000000000000000000000000000100000000000040000000000000000000000000000000000000000000000000000000000000000000000000000000000000000000001002",
      "type": "0x2",
      "transactionHash": "0x8cd1bdbd3507d8dedf397897c8926c7320a1461752b85df71ce3cacb5e771a77",
      "transactionIndex": "0x2d",
      "blockHash": "0x7049e775983ae099ecc78343163c90a72ab0ea8c4fb8af707e9493ce34028e02",
      "blockNumber": "0x1889fe1",
      "gasUsed": "0x2f917",
      "effectiveGasPrice": "0x271b5534d87ce",
      "from": "0xeca7a53ba6a190c5d205bfdc7707cbc3399336c1",
      "to": "0xf077d4d0508505c5a80249afc10bc6ead90e47f1",
      "contractAddress": null
    }
  ],
  "libraries": [],
  "pending": [],
  "returns": {},
  "timestamp": 1770492806927,
  "chain": 369,
  "commit": null
}