{
  "transactions": [
    {
      "hash": "0xcb17f5e609f9bcd2d833613d958fc751119dafbef3d7669971b70878293d3dac",
      "transactionType": "CALL",
      "contractName": null,
      "contractAddress": "0xf077d4d0508505c5a80249afc10bc6ead90e47f1",
      "function": "makeCrime(uint8)",
      "arguments": [
        "0"
      ],
      "transaction": {
        "from": "0xeca7a53ba6a190c5d205bfdc7707cbc3399336c1",
        "to": "0xf077d4d0508505c5a80249afc10bc6ead90e47f1",
        "gas": "0x54ec2",
        "value": "0x0",
        "input": "0xc625abb40000000000000000000000000000000000000000000000000000000000000000",
        "nonce": "0x2e0",
        "chainId": "0x171"
      },
      "additionalContracts": [],
      "isFixedGasLimit": false
    }
  ],
  "receipts": [
    {
      "status": "0x1",
      "cumulativeGasUsed": "0x12b9cc3",
      "logs": [
        {
          "address": "0xf077d4d0508505c5a80249afc10bc6ead90e47f1",
          "topics": [
            "0xe36ceebd3770780c5617d53efc7d77328074f1248146245ed3b854cbf651fb37"
          ],
          "data": "0x000000000000000000000000eca7a53ba6a190c5d205bfdc7707cbc3399336c100000000000000000000000000000000000000000000000000000000000000000000000000000000000000000000000000000000000000000000000000000000000000000000000000000000000000000000000000000000000000000000000000000000000000000000000000000000000000000000000000000000000000000000000000000000000000000000000000000000000000000000000000000000000000000000000000000000000000000000000000000000000000006977553300000000000000000000000000000000000000000000000000000000697751af",
          "blockHash": "0xb5c019cbb8e3a50eef41506fcc1fc2cbc1e632ede0695ca371ed44c0bd9945fe",
          "blockNumber": "0x18709f2",
          "transactionHash": "0xcb17f5e609f9bcd2d833613d958fc751119dafbef3d7669971b70878293d3dac",
          "transactionIndex": "0x23",
          "logIndex": "0x320",
          "removed": false
        }
      ],
      "logsBloom": "0x00000000000000000000000000000000000000000000000000000000400000000000000000000000000000000000000000000000000000000000000000000000000000000000000000000000000000000000000000000000000000000000000000000000000000000000000000000000400000000000000000000000000000000000000000000000000000100000000000000000000020000000000000000000000000000000000000000000000000000000000000000000000000000000000000000000000000000100000000000000000000000000000000000000000000000000000000000000000000000000000000000000000000000000000000000002",
      "type": "0x2",
      "transactionHash": "0xcb17f5e609f9bcd2d833613d958fc751119dafbef3d7669971b70878293d3dac",
      "transactionIndex": "0x23",
      "blockHash": "0xb5c019cbb8e3a50eef41506fcc1fc2cbc1e632ede0695ca371ed44c0bd9945fe",
      "blockNumber": "0x18709f2",
      "gasUsed": "0x1f525",
      "effectiveGasPrice": "0x1e1e9e64cf532",
      "from": "0xeca7a53ba6a190c5d205bfdc7707cbc3399336c1",
      "to": "0xf077d4d0508505c5a80249afc10bc6ead90e47f1",
      "contractAddress": null
    }
  ],
  "libraries": [],
  "pending": [],
  "returns": {},
  "timestamp": 1769427375693,
  "chain": 369,
  "commit": "953695a"
}