{
  "transactions": [
    {
      "hash": "0x093b4e7d1496153bdf8d0b28b4afd48a57b49aacd97a33ebaef2a9fb40162b05",
      "transactionType": "CALL",
      "contractName": null,
      "contractAddress": "0xf077d4d0508505c5a80249afc10bc6ead90e47f1",
      "function": "makeCrime(uint8)",
      "arguments": [
        "0"
      ],
      "transaction": {
        "from": "0xeca7a53ba6a190c5d205bfdc7707cbc3399336c1",
        "to": "0xf077d4d0508505c5a80249afc10bc6ead90e47f1",
        "gas": "0x54ec2",
        "value": "0x0",
        "input": "0xc625abb40000000000000000000000000000000000000000000000000000000000000000",
        "nonce": "0x378",
        "chainId": "0x171"
      },
      "additionalContracts": [],
      "isFixedGasLimit": false
    }
  ],
  "receipts": [
    {
      "status": "0x1",
      "cumulativeGasUsed": "0xa7258e",
      "logs": [
        {
          "address": "0xf077d4d0508505c5a80249afc10bc6ead90e47f1",
          "topics": [
            "0xe36ceebd3770780c5617d53efc7d77328074f1248146245ed3b854cbf651fb37"
          ],
          "data": "0x000000000000000000000000eca7a53ba6a190c5d205bfdc7707cbc3399336c10000000000000000000000000000000000000000000000000000000000000000000000000000000000000000000000000000000000000000000000000000000000000000000000000000000000000000000000000000000000000000000000000000000000000000000000000000000000000000000000000000000000000000000000000000000000000000000000000000000000000000000000000000000000000000000000000000000000000000000000000000000000000000697967c90000000000000000000000000000000000000000000000000000000069796445",
          "blockHash": "0xeff1a8443314376ecf31f253ad11b8d3c09ccaa433fdb6cf8da133e69fe2c658",
          "blockNumber": "0x1873dd1",
          "transactionHash": "0x093b4e7d1496153bdf8d0b28b4afd48a57b49aacd97a33ebaef2a9fb40162b05",
          "transactionIndex": "0x27",
          "logIndex": "0x122",
          "removed": false
        }
      ],
      "logsBloom": "0x00000000000000000000000000000000000000000000000000000000400000000000000000000000000000000000000000000000000000000000000000000000000000000000000000000000000000000000000000000000000000000000000000000000000000000000000000000000400000000000000000000000000000000000000000000000000000100000000000000000000020000000000000000000000000000000000000000000000000000000000000000000000000000000000000000000000000000100000000000000000000000000000000000000000000000000000000000000000000000000000000000000000000000000000000000002",
      "type": "0x2",
      "transactionHash": "0x093b4e7d1496153bdf8d0b28b4afd48a57b49aacd97a33ebaef2a9fb40162b05",
      "transactionIndex": "0x27",
      "blockHash": "0xeff1a8443314376ecf31f253ad11b8d3c09ccaa433fdb6cf8da133e69fe2c658",
      "blockNumber": "0x1873dd1",
      "gasUsed": "0x1f525",
      "effectiveGasPrice": "0x2e4ab155bb4bc",
      "from": "0xeca7a53ba6a190c5d205bfdc7707cbc3399336c1",
      "to": "0xf077d4d0508505c5a80249afc10bc6ead90e47f1",
      "contractAddress": null
    }
  ],
  "libraries": [],
  "pending": [],
  "returns": {},
  "timestamp": 1769563206761,
  "chain": 369,
  "commit": null
}