{
  "transactions": [
    {
      "hash": "0xd430eac3ab08da14c64b4343d0b4dde3d0ac072a89ba354eb0c79fa6224757a4",
      "transactionType": "CALL",
      "contractName": null,
      "contractAddress": "0xf077d4d0508505c5a80249afc10bc6ead90e47f1",
      "function": "makeCrime(uint8)",
      "arguments": [
        "0"
      ],
      "transaction": {
        "from": "0xac56dc5a4a9de0197f7b8f584ea04ec7e0123dde",
        "to": "0xf077d4d0508505c5a80249afc10bc6ead90e47f1",
        "gas": "0x54352",
        "value": "0x0",
        "input": "0xc625abb40000000000000000000000000000000000000000000000000000000000000000",
        "nonce": "0x267",
        "chainId": "0x171"
      },
      "additionalContracts": [],
      "isFixedGasLimit": false
    }
  ],
  "receipts": [
    {
      "status": "0x1",
      "cumulativeGasUsed": "0x455b55",
      "logs": [
        {
          "address": "0x74eadd7ebeeed638fd7c413134fa3d3433699d92",
          "topics": [
            "0x570f308d592bed3a47a73125665ce3b81fe296da89acff1af6d926e08a0a9f12"
          ],
          "data": "0x000000000000000000000000ac56dc5a4a9de0197f7b8f584ea04ec7e0123dde00000000000000000000000000000000000000000000000000000000000369ef",
          "blockHash": "0xe56e5a24c4262d27b6a6f4df4546e34f6a0d2005bf721713662a339e650eaf30",
          "blockNumber": "0x18629ff",
          "transactionHash": "0xd430eac3ab08da14c64b4343d0b4dde3d0ac072a89ba354eb0c79fa6224757a4",
          "transactionIndex": "0x22",
          "logIndex": "0x8e",
          "removed": false
        },
        {
          "address": "0xf077d4d0508505c5a80249afc10bc6ead90e47f1",
          "topics": [
            "0xe36ceebd3770780c5617d53efc7d77328074f1248146245ed3b854cbf651fb37"
          ],
          "data": "0x000000000000000000000000ac56dc5a4a9de0197f7b8f584ea04ec7e0123dde00000000000000000000000000000000000000000000000000000000000000000000000000000000000000000000000000000000000000000000000000000001000000000000000000000000000000000000000000000000000000000000000000000000000000000000000000000000000000000000001166c51744e4640000000000000000000000000000000000000000000000000000000000000000006400000000000000000000000000000000000000000000000000000000696e598d00000000000000000000000000000000000000000000000000000000696e5609",
          "blockHash": "0xe56e5a24c4262d27b6a6f4df4546e34f6a0d2005bf721713662a339e650eaf30",
          "blockNumber": "0x18629ff",
          "transactionHash": "0xd430eac3ab08da14c64b4343d0b4dde3d0ac072a89ba354eb0c79fa6224757a4",
          "transactionIndex": "0x22",
          "logIndex": "0x8f",
          "removed": false
        }
      ],
      "logsBloom": "0x00000000000000000000000000000000004000000000000000000000400000000000000000000000000000000000000000000000000000000000000000000000000000000000000000008000000000000000000000000000000000000000000000000100000000000000000000000000400000000000000000000000000000000000000000000000000000100000000000000000000020000000000000000008000000000000000000000000000000000010000000000000000000000000000000000000000002000100000000000000000000000000000000000000000000000000000000000000000000000000000000000000000000000000000000000002",
      "type": "0x2",
      "transactionHash": "0xd430eac3ab08da14c64b4343d0b4dde3d0ac072a89ba354eb0c79fa6224757a4",
      "transactionIndex": "0x22",
      "blockHash": "0xe56e5a24c4262d27b6a6f4df4546e34f6a0d2005bf721713662a339e650eaf30",
      "blockNumber": "0x18629ff",
      "gasUsed": "0x3cf70",
      "effectiveGasPrice": "0x19403d2c07638",
      "from": "0xac56dc5a4a9de0197f7b8f584ea04ec7e0123dde",
      "to": "0xf077d4d0508505c5a80249afc10bc6ead90e47f1",
      "contractAddress": null
    }
  ],
  "libraries": [],
  "pending": [],
  "returns": {},
  "timestamp": 1768838665672,
  "chain": 369,
  "commit": "953695a"
}