{
  "transactions": [
    {
      "hash": "0x7c0c6c38bfa1411a120fbd27983899ddc9be5809d8b6294970743aa9f43e167b",
      "transactionType": "CALL",
      "contractName": null,
      "contractAddress": "0xf077d4d0508505c5a80249afc10bc6ead90e47f1",
      "function": "makeCrime(uint8)",
      "arguments": [
        "0"
      ],
      "transaction": {
        "from": "0xec646a6c9000e04d050435340d9c42c039eb5648",
        "to": "0xf077d4d0508505c5a80249afc10bc6ead90e47f1",
        "gas": "0x54be5",
        "value": "0x0",
        "input": "0xc625abb40000000000000000000000000000000000000000000000000000000000000000",
        "nonce": "0x39",
        "chainId": "0x171"
      },
      "additionalContracts": [],
      "isFixedGasLimit": false
    }
  ],
  "receipts": [
    {
      "status": "0x1",
      "cumulativeGasUsed": "0x2691267",
      "logs": [
        {
          "address": "0xdcd5e9c0b2b4e9cb93677a258521d854b3a9f5a1",
          "topics": [
            "0x0bff5315606c84d1cee047503678048ca39946be11bfdd5a8c03fe5e272d98e3"
          ],
          "data": "0x000000000000000000000000ec646a6c9000e04d050435340d9c42c039eb5648000000000000000000000000000000000000000000000000000000006987f6630000000000000000000000000000000000000000000000000000000000000000",
          "blockHash": "0x28883ebfec9b5049a085c0b8588ec700fd1b6411666a6b9b470477485c8f17e5",
          "blockNumber": "0x188a903",
          "transactionHash": "0x7c0c6c38bfa1411a120fbd27983899ddc9be5809d8b6294970743aa9f43e167b",
          "transactionIndex": "0xaa",
          "logIndex": "0x29a",
          "removed": false
        },
        {
          "address": "0xf077d4d0508505c5a80249afc10bc6ead90e47f1",
          "topics": [
            "0xe36ceebd3770780c5617d53efc7d77328074f1248146245ed3b854cbf651fb37"
          ],
          "data": "0x000000000000000000000000ec646a6c9000e04d050435340d9c42c039eb564800000000000000000000000000000000000000000000000000000000000000000000000000000000000000000000000000000000000000000000000000000000000000000000000000000000000000000000000000000000000000000000000100000000000000000000000000000000000000000000000000000000000000000000000000000000000000000000000000000000000000000000000000000000000000000000000000000000000000000000000000000000000000006987f4a1000000000000000000000000000000000000000000000000000000006987f11d",
          "blockHash": "0x28883ebfec9b5049a085c0b8588ec700fd1b6411666a6b9b470477485c8f17e5",
          "blockNumber": "0x188a903",
          "transactionHash": "0x7c0c6c38bfa1411a120fbd27983899ddc9be5809d8b6294970743aa9f43e167b",
          "transactionIndex": "0xaa",
          "logIndex": "0x29b",
          "removed": false
        }
      ],
      "logsBloom": "0x00000000000000000000000000000000010000000000000000000000400000000000000000000000000000000000000000000000000000000000000000000000000000000000000000000000000000000000000000000000001000000000000000000000000000000000000000000000400000000080000000000000000000000000000000000000000000100000000000000000000020000000000000000000000000000000000000000000000000000000000000000000400000000000000000000000000000000100000000000040000000000000000000000000000000000000000000000000000000000000000000000000000000000000000000001002",
      "type": "0x2",
      "transactionHash": "0x7c0c6c38bfa1411a120fbd27983899ddc9be5809d8b6294970743aa9f43e167b",
      "transactionIndex": "0xaa",
      "blockHash": "0x28883ebfec9b5049a085c0b8588ec700fd1b6411666a6b9b470477485c8f17e5",
      "blockNumber": "0x188a903",
      "gasUsed": "0x2ec57",
      "effectiveGasPrice": "0x45ecc3c0723db",
      "from": "0xec646a6c9000e04d050435340d9c42c039eb5648",
      "to": "0xf077d4d0508505c5a80249afc10bc6ead90e47f1",
      "contractAddress": null
    }
  ],
  "libraries": [],
  "pending": [],
  "returns": {},
  "timestamp": 1770516766211,
  "chain": 369,
  "commit": null
}