{
  "transactions": [
    {
      "hash": "0xef12b77701cb137daceb3f22b0143dd417a3d37fdc8cef62fde963c8fd4b6675",
      "transactionType": "CALL",
      "contractName": null,
      "contractAddress": "0xf077d4d0508505c5a80249afc10bc6ead90e47f1",
      "function": "makeCrime(uint8)",
      "arguments": [
        "0"
      ],
      "transaction": {
        "from": "0xeca7a53ba6a190c5d205bfdc7707cbc3399336c1",
        "to": "0xf077d4d0508505c5a80249afc10bc6ead90e47f1",
        "gas": "0x54ec2",
        "value": "0x0",
        "input": "0xc625abb40000000000000000000000000000000000000000000000000000000000000000",
        "nonce": "0x36b",
        "chainId": "0x171"
      },
      "additionalContracts": [],
      "isFixedGasLimit": false
    }
  ],
  "receipts": [
    {
      "status": "0x1",
      "cumulativeGasUsed": "0xc29c10",
      "logs": [
        {
          "address": "0xf077d4d0508505c5a80249afc10bc6ead90e47f1",
          "topics": [
            "0xe36ceebd3770780c5617d53efc7d77328074f1248146245ed3b854cbf651fb37"
          ],
          "data": "0x000000000000000000000000eca7a53ba6a190c5d205bfdc7707cbc3399336c10000000000000000000000000000000000000000000000000000000000000000000000000000000000000000000000000000000000000000000000000000000000000000000000000000000000000000000000000000000000000000000000000000000000000000000000000000000000000000000000000000000000000000000000000000000000000000000000000000000000000000000000000000000000000000000000000000000000000000000000000000000000000000697941e50000000000000000000000000000000000000000000000000000000069793e61",
          "blockHash": "0x0ca116145f376d3a26c991e6d0d662d369c0f68cd6cf6618943ed9061f39372f",
          "blockNumber": "0x1873a1a",
          "transactionHash": "0xef12b77701cb137daceb3f22b0143dd417a3d37fdc8cef62fde963c8fd4b6675",
          "transactionIndex": "0x1f",
          "logIndex": "0xff",
          "removed": false
        }
      ],
      "logsBloom": "0x00000000000000000000000000000000000000000000000000000000400000000000000000000000000000000000000000000000000000000000000000000000000000000000000000000000000000000000000000000000000000000000000000000000000000000000000000000000400000000000000000000000000000000000000000000000000000100000000000000000000020000000000000000000000000000000000000000000000000000000000000000000000000000000000000000000000000000100000000000000000000000000000000000000000000000000000000000000000000000000000000000000000000000000000000000002",
      "type": "0x2",
      "transactionHash": "0xef12b77701cb137daceb3f22b0143dd417a3d37fdc8cef62fde963c8fd4b6675",
      "transactionIndex": "0x1f",
      "blockHash": "0x0ca116145f376d3a26c991e6d0d662d369c0f68cd6cf6618943ed9061f39372f",
      "blockNumber": "0x1873a1a",
      "gasUsed": "0x1f525",
      "effectiveGasPrice": "0x43718a6614bd1",
      "from": "0xeca7a53ba6a190c5d205bfdc7707cbc3399336c1",
      "to": "0xf077d4d0508505c5a80249afc10bc6ead90e47f1",
      "contractAddress": null
    }
  ],
  "libraries": [],
  "pending": [],
  "returns": {},
  "timestamp": 1769553505719,
  "chain": 369,
  "commit": null
}