{
  "transactions": [
    {
      "hash": "0xf27957f9119b43d4b3c96226416168a626df0852ddd4ae757f265e6c4cb099f0",
      "transactionType": "CALL",
      "contractName": null,
      "contractAddress": "0xf077d4d0508505c5a80249afc10bc6ead90e47f1",
      "function": "makeCrime(uint8)",
      "arguments": [
        "0"
      ],
      "transaction": {
        "from": "0xac56dc5a4a9de0197f7b8f584ea04ec7e0123dde",
        "to": "0xf077d4d0508505c5a80249afc10bc6ead90e47f1",
        "gas": "0x44caf",
        "value": "0x0",
        "input": "0xc625abb40000000000000000000000000000000000000000000000000000000000000000",
        "nonce": "0x4f5",
        "chainId": "0x171"
      },
      "additionalContracts": [],
      "isFixedGasLimit": false
    }
  ],
  "receipts": [
    {
      "status": "0x1",
      "cumulativeGasUsed": "0x7f7d85",
      "logs": [
        {
          "address": "0x74eadd7ebeeed638fd7c413134fa3d3433699d92",
          "topics": [
            "0x570f308d592bed3a47a73125665ce3b81fe296da89acff1af6d926e08a0a9f12"
          ],
          "data": "0x000000000000000000000000ac56dc5a4a9de0197f7b8f584ea04ec7e0123dde000000000000000000000000000000000000000000000000000000000003b0a3",
          "blockHash": "0x196fff63ae4b09edf55561bc15d34786dba52c762660ee3422dbf08a0c2b3496",
          "blockNumber": "0x188aa60",
          "transactionHash": "0xf27957f9119b43d4b3c96226416168a626df0852ddd4ae757f265e6c4cb099f0",
          "transactionIndex": "0x1c",
          "logIndex": "0x96",
          "removed": false
        },
        {
          "address": "0xf077d4d0508505c5a80249afc10bc6ead90e47f1",
          "topics": [
            "0xe36ceebd3770780c5617d53efc7d77328074f1248146245ed3b854cbf651fb37"
          ],
          "data": "0x000000000000000000000000ac56dc5a4a9de0197f7b8f584ea04ec7e0123dde00000000000000000000000000000000000000000000000000000000000000000000000000000000000000000000000000000000000000000000000000000001000000000000000000000000000000000000000000000000000000000000000000000000000000000000000000000000000000000000000e873f44133cb0000000000000000000000000000000000000000000000000000000000000000000640000000000000000000000000000000000000000000000000000000069880293000000000000000000000000000000000000000000000000000000006987ff0f",
          "blockHash": "0x196fff63ae4b09edf55561bc15d34786dba52c762660ee3422dbf08a0c2b3496",
          "blockNumber": "0x188aa60",
          "transactionHash": "0xf27957f9119b43d4b3c96226416168a626df0852ddd4ae757f265e6c4cb099f0",
          "transactionIndex": "0x1c",
          "logIndex": "0x97",
          "removed": false
        }
      ],
      "logsBloom": "0x00000000000000000000000000000000004000000000000000000000400000000000000000000000000000000000000000000000000000000000000000000000000000000000000000008000000000000000000000000000000000000000000000000100000000000000000000000000400000000000000000000000000000000000000000000000000000100000000000000000000020000000000000000008000000000000000000000000000000000010000000000000000000000000000000000000000002000100000000000000000000000000000000000000000000000000000000000000000000000000000000000000000000000000000000000002",
      "type": "0x2",
      "transactionHash": "0xf27957f9119b43d4b3c96226416168a626df0852ddd4ae757f265e6c4cb099f0",
      "transactionIndex": "0x1c",
      "blockHash": "0x196fff63ae4b09edf55561bc15d34786dba52c762660ee3422dbf08a0c2b3496",
      "blockNumber": "0x188aa60",
      "gasUsed": "0x3da85",
      "effectiveGasPrice": "0x2b924709193ef",
      "from": "0xac56dc5a4a9de0197f7b8f584ea04ec7e0123dde",
      "to": "0xf077d4d0508505c5a80249afc10bc6ead90e47f1",
      "contractAddress": null
    }
  ],
  "libraries": [],
  "pending": [],
  "returns": {},
  "timestamp": 1770520336420,
  "chain": 369,
  "commit": null
}