{
  "transactions": [
    {
      "hash": "0x9d7cd21559f695092b5e16df8ecac6b1798c2fa4c974188aa4bcc634e975ae14",
      "transactionType": "CALL",
      "contractName": null,
      "contractAddress": "0xf077d4d0508505c5a80249afc10bc6ead90e47f1",
      "function": "makeCrime(uint8)",
      "arguments": [
        "0"
      ],
      "transaction": {
        "from": "0xeca7a53ba6a190c5d205bfdc7707cbc3399336c1",
        "to": "0xf077d4d0508505c5a80249afc10bc6ead90e47f1",
        "gas": "0x54ec2",
        "value": "0x0",
        "input": "0xc625abb40000000000000000000000000000000000000000000000000000000000000000",
        "nonce": "0x3d3",
        "chainId": "0x171"
      },
      "additionalContracts": [],
      "isFixedGasLimit": false
    }
  ],
  "receipts": [
    {
      "status": "0x1",
      "cumulativeGasUsed": "0x1a24cc6",
      "logs": [
        {
          "address": "0xf077d4d0508505c5a80249afc10bc6ead90e47f1",
          "topics": [
            "0xe36ceebd3770780c5617d53efc7d77328074f1248146245ed3b854cbf651fb37"
          ],
          "data": "0x000000000000000000000000eca7a53ba6a190c5d205bfdc7707cbc3399336c10000000000000000000000000000000000000000000000000000000000000000000000000000000000000000000000000000000000000000000000000000000000000000000000000000000000000000000000000000000000000000000000000000000000000000000000000000000000000000000000000000000000000000000000000000000000000000000000000000000000000000000000000000000000000000000000000000000000000000000000000000000000000000697a89dd00000000000000000000000000000000000000000000000000000000697a8659",
          "blockHash": "0x869ca746ded8b1238dfaa769f2cec0a91c3021568709fbae526c42c0aa0a6c8a",
          "blockNumber": "0x1875a2c",
          "transactionHash": "0x9d7cd21559f695092b5e16df8ecac6b1798c2fa4c974188aa4bcc634e975ae14",
          "transactionIndex": "0x2d",
          "logIndex": "0x4b0",
          "removed": false
        }
      ],
      "logsBloom": "0x00000000000000000000000000000000000000000000000000000000400000000000000000000000000000000000000000000000000000000000000000000000000000000000000000000000000000000000000000000000000000000000000000000000000000000000000000000000400000000000000000000000000000000000000000000000000000100000000000000000000020000000000000000000000000000000000000000000000000000000000000000000000000000000000000000000000000000100000000000000000000000000000000000000000000000000000000000000000000000000000000000000000000000000000000000002",
      "type": "0x2",
      "transactionHash": "0x9d7cd21559f695092b5e16df8ecac6b1798c2fa4c974188aa4bcc634e975ae14",
      "transactionIndex": "0x2d",
      "blockHash": "0x869ca746ded8b1238dfaa769f2cec0a91c3021568709fbae526c42c0aa0a6c8a",
      "blockNumber": "0x1875a2c",
      "gasUsed": "0x1f525",
      "effectiveGasPrice": "0x32eccb9be63f6",
      "from": "0xeca7a53ba6a190c5d205bfdc7707cbc3399336c1",
      "to": "0xf077d4d0508505c5a80249afc10bc6ead90e47f1",
      "contractAddress": null
    }
  ],
  "libraries": [],
  "pending": [],
  "returns": {},
  "timestamp": 1769637466125,
  "chain": 369,
  "commit": null
}