{
  "transactions": [
    {
      "hash": "0x35af4a8a4549bef537e5baa9e12991ffa614ab66ed3136e0019811fcdb2e3fba",
      "transactionType": "CALL",
      "contractName": null,
      "contractAddress": "0xf077d4d0508505c5a80249afc10bc6ead90e47f1",
      "function": "makeCrime(uint8)",
      "arguments": [
        "0"
      ],
      "transaction": {
        "from": "0x4c62f6121e6f967a0872da8364995e9b68c1e82f",
        "to": "0xf077d4d0508505c5a80249afc10bc6ead90e47f1",
        "gas": "0x54be5",
        "value": "0x0",
        "input": "0xc625abb40000000000000000000000000000000000000000000000000000000000000000",
        "nonce": "0x76b",
        "chainId": "0x171"
      },
      "additionalContracts": [],
      "isFixedGasLimit": false
    }
  ],
  "receipts": [
    {
      "status": "0x1",
      "cumulativeGasUsed": "0x29411c4",
      "logs": [
        {
          "address": "0xf077d4d0508505c5a80249afc10bc6ead90e47f1",
          "topics": [
            "0xe36ceebd3770780c5617d53efc7d77328074f1248146245ed3b854cbf651fb37"
          ],
          "data": "0x0000000000000000000000004c62f6121e6f967a0872da8364995e9b68c1e82f0000000000000000000000000000000000000000000000000000000000000000000000000000000000000000000000000000000000000000000000000000000000000000000000000000000000000000000000000000000000000000000000000000000000000000000000000000000000000000000000000000000000000000000000000000000000000000000000000000000000000000000000000000000000000000000000000000000000000000000000000000000000000000697b450300000000000000000000000000000000000000000000000000000000697b417f",
          "blockHash": "0xed179b7a789defa9e071bcebd2a379c611823ac78fb11613c8bb0ce72c91ce32",
          "blockNumber": "0x1876c6c",
          "transactionHash": "0x35af4a8a4549bef537e5baa9e12991ffa614ab66ed3136e0019811fcdb2e3fba",
          "transactionIndex": "0x25",
          "logIndex": "0x647",
          "removed": false
        }
      ],
      "logsBloom": "0x00000000000000000000000000000000000000000000000000000000400000000000000000000000000000000000000000000000000000000000000000000000000000000000000000000000000000000000000000000000000000000000000000000000000000000000000000000000400000000000000000000000000000000000000000000000000000100000000000000000000020000000000000000000000000000000000000000000000000000000000000000000000000000000000000000000000000000100000000000000000000000000000000000000000000000000000000000000000000000000000000000000000000000000000000000002",
      "type": "0x2",
      "transactionHash": "0x35af4a8a4549bef537e5baa9e12991ffa614ab66ed3136e0019811fcdb2e3fba",
      "transactionIndex": "0x25",
      "blockHash": "0xed179b7a789defa9e071bcebd2a379c611823ac78fb11613c8bb0ce72c91ce32",
      "blockNumber": "0x1876c6c",
      "gasUsed": "0x1e865",
      "effectiveGasPrice": "0x242fc165593fb",
      "from": "0x4c62f6121e6f967a0872da8364995e9b68c1e82f",
      "to": "0xf077d4d0508505c5a80249afc10bc6ead90e47f1",
      "contractAddress": null
    }
  ],
  "libraries": [],
  "pending": [],
  "returns": {},
  "timestamp": 1769685376700,
  "chain": 369,
  "commit": null
}