{
  "transactions": [
    {
      "hash": "0x4adb7b0f992a5e64ad45e7d34b81f272de97a60008270a7e506fd601ca4dfb30",
      "transactionType": "CALL",
      "contractName": null,
      "contractAddress": "0xf077d4d0508505c5a80249afc10bc6ead90e47f1",
      "function": "makeCrime(uint8)",
      "arguments": [
        "0"
      ],
      "transaction": {
        "from": "0x4c62f6121e6f967a0872da8364995e9b68c1e82f",
        "to": "0xf077d4d0508505c5a80249afc10bc6ead90e47f1",
        "gas": "0x409a4",
        "value": "0x0",
        "input": "0xc625abb40000000000000000000000000000000000000000000000000000000000000000",
        "nonce": "0x96e",
        "chainId": "0x171"
      },
      "additionalContracts": [],
      "isFixedGasLimit": false
    }
  ],
  "receipts": [
    {
      "status": "0x1",
      "cumulativeGasUsed": "0x6df2f7",
      "logs": [
        {
          "address": "0xdcd5e9c0b2b4e9cb93677a258521d854b3a9f5a1",
          "topics": [
            "0x0bff5315606c84d1cee047503678048ca39946be11bfdd5a8c03fe5e272d98e3"
          ],
          "data": "0x0000000000000000000000004c62f6121e6f967a0872da8364995e9b68c1e82f000000000000000000000000000000000000000000000000000000006987d2870000000000000000000000000000000000000000000000000000000000000000",
          "blockHash": "0x33d6e58e9024528a75ddb69122c074fa96435afee22c9bc051734c03bd4d4a30",
          "blockNumber": "0x188a584",
          "transactionHash": "0x4adb7b0f992a5e64ad45e7d34b81f272de97a60008270a7e506fd601ca4dfb30",
          "transactionIndex": "0x23",
          "logIndex": "0x94",
          "removed": false
        },
        {
          "address": "0xf077d4d0508505c5a80249afc10bc6ead90e47f1",
          "topics": [
            "0xe36ceebd3770780c5617d53efc7d77328074f1248146245ed3b854cbf651fb37"
          ],
          "data": "0x0000000000000000000000004c62f6121e6f967a0872da8364995e9b68c1e82f00000000000000000000000000000000000000000000000000000000000000000000000000000000000000000000000000000000000000000000000000000000000000000000000000000000000000000000000000000000000000000000000100000000000000000000000000000000000000000000000000000000000000000000000000000000000000000000000000000000000000000000000000000000000000000000000000000000000000000000000000000000000000006987d0c5000000000000000000000000000000000000000000000000000000006987cd41",
          "blockHash": "0x33d6e58e9024528a75ddb69122c074fa96435afee22c9bc051734c03bd4d4a30",
          "blockNumber": "0x188a584",
          "transactionHash": "0x4adb7b0f992a5e64ad45e7d34b81f272de97a60008270a7e506fd601ca4dfb30",
          "transactionIndex": "0x23",
          "logIndex": "0x95",
          "removed": false
        }
      ],
      "logsBloom": "0x00000000000000000000000000000000010000000000000000000000400000000000000000000000000000000000000000000000000000000000000000000000000000000000000000000000000000000000000000000000001000000000000000000000000000000000000000000000400000000080000000000000000000000000000000000000000000100000000000000000000020000000000000000000000000000000000000000000000000000000000000000000400000000000000000000000000000000100000000000040000000000000000000000000000000000000000000000000000000000000000000000000000000000000000000001002",
      "type": "0x2",
      "transactionHash": "0x4adb7b0f992a5e64ad45e7d34b81f272de97a60008270a7e506fd601ca4dfb30",
      "transactionIndex": "0x23",
      "blockHash": "0x33d6e58e9024528a75ddb69122c074fa96435afee22c9bc051734c03bd4d4a30",
      "blockNumber": "0x188a584",
      "gasUsed": "0x2ec57",
      "effectiveGasPrice": "0x2f93bf08aa4af",
      "from": "0x4c62f6121e6f967a0872da8364995e9b68c1e82f",
      "to": "0xf077d4d0508505c5a80249afc10bc6ead90e47f1",
      "contractAddress": null
    }
  ],
  "libraries": [],
  "pending": [],
  "returns": {},
  "timestamp": 1770507586858,
  "chain": 369,
  "commit": null
}