{
  "transactions": [
    {
      "hash": "0x6dbf8c9d49d33d98ca9837e45e48e7dbca1a4a0a3200b99aafa232e72c00267e",
      "transactionType": "CALL",
      "contractName": null,
      "contractAddress": "0xf077d4d0508505c5a80249afc10bc6ead90e47f1",
      "function": "makeCrime(uint8)",
      "arguments": [
        "0"
      ],
      "transaction": {
        "from": "0x4c62f6121e6f967a0872da8364995e9b68c1e82f",
        "to": "0xf077d4d0508505c5a80249afc10bc6ead90e47f1",
        "gas": "0x53c96",
        "value": "0x0",
        "input": "0xc625abb40000000000000000000000000000000000000000000000000000000000000000",
        "nonce": "0x710",
        "chainId": "0x171"
      },
      "additionalContracts": [],
      "isFixedGasLimit": false
    }
  ],
  "receipts": [
    {
      "status": "0x1",
      "cumulativeGasUsed": "0xd42527",
      "logs": [
        {
          "address": "0xf077d4d0508505c5a80249afc10bc6ead90e47f1",
          "topics": [
            "0xe36ceebd3770780c5617d53efc7d77328074f1248146245ed3b854cbf651fb37"
          ],
          "data": "0x0000000000000000000000004c62f6121e6f967a0872da8364995e9b68c1e82f0000000000000000000000000000000000000000000000000000000000000000000000000000000000000000000000000000000000000000000000000000000000000000000000000000000000000000000000000000000000000000000000000000000000000000000000000000000000000000000000000000000000000000000000000000000000000000000000000000000000000000000000000000000000000000000000000000000000000000000000000000000000000000697972230000000000000000000000000000000000000000000000000000000069796e9f",
          "blockHash": "0x76831cb0504dc8d9b543061802bd0c28a047260fe406f071ec574feeb891bff5",
          "blockNumber": "0x1873ed4",
          "transactionHash": "0x6dbf8c9d49d33d98ca9837e45e48e7dbca1a4a0a3200b99aafa232e72c00267e",
          "transactionIndex": "0x3a",
          "logIndex": "0x124",
          "removed": false
        }
      ],
      "logsBloom": "0x00000000000000000000000000000000000000000000000000000000400000000000000000000000000000000000000000000000000000000000000000000000000000000000000000000000000000000000000000000000000000000000000000000000000000000000000000000000400000000000000000000000000000000000000000000000000000100000000000000000000020000000000000000000000000000000000000000000000000000000000000000000000000000000000000000000000000000100000000000000000000000000000000000000000000000000000000000000000000000000000000000000000000000000000000000002",
      "type": "0x2",
      "transactionHash": "0x6dbf8c9d49d33d98ca9837e45e48e7dbca1a4a0a3200b99aafa232e72c00267e",
      "transactionIndex": "0x3a",
      "blockHash": "0x76831cb0504dc8d9b543061802bd0c28a047260fe406f071ec574feeb891bff5",
      "blockNumber": "0x1873ed4",
      "gasUsed": "0x1e865",
      "effectiveGasPrice": "0x3a5d305ae1de0",
      "from": "0x4c62f6121e6f967a0872da8364995e9b68c1e82f",
      "to": "0xf077d4d0508505c5a80249afc10bc6ead90e47f1",
      "contractAddress": null
    }
  ],
  "libraries": [],
  "pending": [],
  "returns": {},
  "timestamp": 1769565855922,
  "chain": 369,
  "commit": null
}