{
  "transactions": [
    {
      "hash": "0x930145e65872fdcb2ecdc7690c97940265aaff31deab3f58c89d9ed0cacdd58f",
      "transactionType": "CALL",
      "contractName": null,
      "contractAddress": "0xf077d4d0508505c5a80249afc10bc6ead90e47f1",
      "function": "makeCrime(uint8)",
      "arguments": [
        "0"
      ],
      "transaction": {
        "from": "0xeca7a53ba6a190c5d205bfdc7707cbc3399336c1",
        "to": "0xf077d4d0508505c5a80249afc10bc6ead90e47f1",
        "gas": "0x55e10",
        "value": "0x0",
        "input": "0xc625abb40000000000000000000000000000000000000000000000000000000000000000",
        "nonce": "0x581",
        "chainId": "0x171"
      },
      "additionalContracts": [],
      "isFixedGasLimit": false
    }
  ],
  "receipts": [
    {
      "status": "0x1",
      "cumulativeGasUsed": "0xf71e95",
      "logs": [
        {
          "address": "0x74eadd7ebeeed638fd7c413134fa3d3433699d92",
          "topics": [
            "0x570f308d592bed3a47a73125665ce3b81fe296da89acff1af6d926e08a0a9f12"
          ],
          "data": "0x000000000000000000000000eca7a53ba6a190c5d205bfdc7707cbc3399336c10000000000000000000000000000000000000000000000000000000000023ab6",
          "blockHash": "0x4e30ddbe188f28fb35430eafcfa99eb3888f70af37212c1aa5a9b347cf9acb68",
          "blockNumber": "0x188a937",
          "transactionHash": "0x930145e65872fdcb2ecdc7690c97940265aaff31deab3f58c89d9ed0cacdd58f",
          "transactionIndex": "0x3f",
          "logIndex": "0x21f",
          "removed": false
        },
        {
          "address": "0xf077d4d0508505c5a80249afc10bc6ead90e47f1",
          "topics": [
            "0xe36ceebd3770780c5617d53efc7d77328074f1248146245ed3b854cbf651fb37"
          ],
          "data": "0x000000000000000000000000eca7a53ba6a190c5d205bfdc7707cbc3399336c100000000000000000000000000000000000000000000000000000000000000000000000000000000000000000000000000000000000000000000000000000001000000000000000000000000000000000000000000000000000000000000000000000000000000000000000000000000000000000000001803dc28e2aa0c00000000000000000000000000000000000000000000000000000000000000000014000000000000000000000000000000000000000000000000000000006987f6b3000000000000000000000000000000000000000000000000000000006987f32f",
          "blockHash": "0x4e30ddbe188f28fb35430eafcfa99eb3888f70af37212c1aa5a9b347cf9acb68",
          "blockNumber": "0x188a937",
          "transactionHash": "0x930145e65872fdcb2ecdc7690c97940265aaff31deab3f58c89d9ed0cacdd58f",
          "transactionIndex": "0x3f",
          "logIndex": "0x220",
          "removed": false
        }
      ],
      "logsBloom": "0x00000000000000000000000000000000004000000000000000000000400000000000000000000000000000000000000000000000000000000000000000000000000000000000000000008000000000000000000000000000000000000000000000000100000000000000000000000000400000000000000000000000000000000000000000000000000000100000000000000000000020000000000000000008000000000000000000000000000000000010000000000000000000000000000000000000000002000100000000000000000000000000000000000000000000000000000000000000000000000000000000000000000000000000000000000002",
      "type": "0x2",
      "transactionHash": "0x930145e65872fdcb2ecdc7690c97940265aaff31deab3f58c89d9ed0cacdd58f",
      "transactionIndex": "0x3f",
      "blockHash": "0x4e30ddbe188f28fb35430eafcfa99eb3888f70af37212c1aa5a9b347cf9acb68",
      "blockNumber": "0x188a937",
      "gasUsed": "0x3e2cd",
      "effectiveGasPrice": "0x30acd4a0505b4",
      "from": "0xeca7a53ba6a190c5d205bfdc7707cbc3399336c1",
      "to": "0xf077d4d0508505c5a80249afc10bc6ead90e47f1",
      "contractAddress": null
    }
  ],
  "libraries": [],
  "pending": [],
  "returns": {},
  "timestamp": 1770517297566,
  "chain": 369,
  "commit": null
}