{
  "transactions": [
    {
      "hash": "0xcfd360fd4d7810b57e0de87534fd0b6a1e74bc9254048216269110a4a28aa18a",
      "transactionType": "CALL",
      "contractName": null,
      "contractAddress": "0xf077d4d0508505c5a80249afc10bc6ead90e47f1",
      "function": "makeCrime(uint8)",
      "arguments": [
        "0"
      ],
      "transaction": {
        "from": "0xec646a6c9000e04d050435340d9c42c039eb5648",
        "to": "0xf077d4d0508505c5a80249afc10bc6ead90e47f1",
        "gas": "0x409a4",
        "value": "0x0",
        "input": "0xc625abb40000000000000000000000000000000000000000000000000000000000000000",
        "nonce": "0x41",
        "chainId": "0x171"
      },
      "additionalContracts": [],
      "isFixedGasLimit": false
    }
  ],
  "receipts": [
    {
      "status": "0x1",
      "cumulativeGasUsed": "0x77cd18",
      "logs": [
        {
          "address": "0x74eadd7ebeeed638fd7c413134fa3d3433699d92",
          "topics": [
            "0x570f308d592bed3a47a73125665ce3b81fe296da89acff1af6d926e08a0a9f12"
          ],
          "data": "0x000000000000000000000000ec646a6c9000e04d050435340d9c42c039eb56480000000000000000000000000000000000000000000000000000000000000384",
          "blockHash": "0x5335c9be1ba55ba85736df10ac45aed0700f0ad86fe31294e60f3199b5c0d542",
          "blockNumber": "0x188ac75",
          "transactionHash": "0xcfd360fd4d7810b57e0de87534fd0b6a1e74bc9254048216269110a4a28aa18a",
          "transactionIndex": "0x1c",
          "logIndex": "0xe1",
          "removed": false
        },
        {
          "address": "0xf077d4d0508505c5a80249afc10bc6ead90e47f1",
          "topics": [
            "0xe36ceebd3770780c5617d53efc7d77328074f1248146245ed3b854cbf651fb37"
          ],
          "data": "0x000000000000000000000000ec646a6c9000e04d050435340d9c42c039eb5648000000000000000000000000000000000000000000000000000000000000000000000000000000000000000000000000000000000000000000000000000000010000000000000000000000000000000000000000000000000000000000000000000000000000000000000000000000000000000000000011ba095f7ad0bc0000000000000000000000000000000000000000000000000000000000000000006400000000000000000000000000000000000000000000000000000000698817d3000000000000000000000000000000000000000000000000000000006988144f",
          "blockHash": "0x5335c9be1ba55ba85736df10ac45aed0700f0ad86fe31294e60f3199b5c0d542",
          "blockNumber": "0x188ac75",
          "transactionHash": "0xcfd360fd4d7810b57e0de87534fd0b6a1e74bc9254048216269110a4a28aa18a",
          "transactionIndex": "0x1c",
          "logIndex": "0xe2",
          "removed": false
        }
      ],
      "logsBloom": "0x00000000000000000000000000000000004000000000000000000000400000000000000000000000000000000000000000000000000000000000000000000000000000000000000000008000000000000000000000000000000000000000000000000100000000000000000000000000400000000000000000000000000000000000000000000000000000100000000000000000000020000000000000000008000000000000000000000000000000000010000000000000000000000000000000000000000002000100000000000000000000000000000000000000000000000000000000000000000000000000000000000000000000000000000000000002",
      "type": "0x2",
      "transactionHash": "0xcfd360fd4d7810b57e0de87534fd0b6a1e74bc9254048216269110a4a28aa18a",
      "transactionIndex": "0x1c",
      "blockHash": "0x5335c9be1ba55ba85736df10ac45aed0700f0ad86fe31294e60f3199b5c0d542",
      "blockNumber": "0x188ac75",
      "gasUsed": "0x3d5a5",
      "effectiveGasPrice": "0x2acd108e3474e",
      "from": "0xec646a6c9000e04d050435340d9c42c039eb5648",
      "to": "0xf077d4d0508505c5a80249afc10bc6ead90e47f1",
      "contractAddress": null
    }
  ],
  "libraries": [],
  "pending": [],
  "returns": {},
  "timestamp": 1770525776105,
  "chain": 369,
  "commit": null
}