{
  "transactions": [
    {
      "hash": "0xfae14e1146f41d2adc59b65b9ac1b1d66c27de659c58156a053ded803fcac76d",
      "transactionType": "CALL",
      "contractName": null,
      "contractAddress": "0xf077d4d0508505c5a80249afc10bc6ead90e47f1",
      "function": "makeCrime(uint8)",
      "arguments": [
        "0"
      ],
      "transaction": {
        "from": "0xaa73aa98480757d75aae288b5931261448eb0530",
        "to": "0xf077d4d0508505c5a80249afc10bc6ead90e47f1",
        "gas": "0x409a4",
        "value": "0x0",
        "input": "0xc625abb40000000000000000000000000000000000000000000000000000000000000000",
        "nonce": "0x57",
        "chainId": "0x171"
      },
      "additionalContracts": [],
      "isFixedGasLimit": false
    }
  ],
  "receipts": [
    {
      "status": "0x1",
      "cumulativeGasUsed": "0x1c06185",
      "logs": [
        {
          "address": "0x74eadd7ebeeed638fd7c413134fa3d3433699d92",
          "topics": [
            "0x570f308d592bed3a47a73125665ce3b81fe296da89acff1af6d926e08a0a9f12"
          ],
          "data": "0x000000000000000000000000aa73aa98480757d75aae288b5931261448eb05300000000000000000000000000000000000000000000000000000000000000320",
          "blockHash": "0xc593592e409ec11f82a6f824d68ff89ead8d282b776f163ad0cc26e8378af7d3",
          "blockNumber": "0x188a8ac",
          "transactionHash": "0xfae14e1146f41d2adc59b65b9ac1b1d66c27de659c58156a053ded803fcac76d",
          "transactionIndex": "0x1b",
          "logIndex": "0x80f",
          "removed": false
        },
        {
          "address": "0xf077d4d0508505c5a80249afc10bc6ead90e47f1",
          "topics": [
            "0xe36ceebd3770780c5617d53efc7d77328074f1248146245ed3b854cbf651fb37"
          ],
          "data": "0x000000000000000000000000aa73aa98480757d75aae288b5931261448eb0530000000000000000000000000000000000000000000000000000000000000000000000000000000000000000000000000000000000000000000000000000000010000000000000000000000000000000000000000000000000000000000000000000000000000000000000000000000000000000000000013f306a2409fc000000000000000000000000000000000000000000000000000000000000000000064000000000000000000000000000000000000000000000000000000006987f131000000000000000000000000000000000000000000000000000000006987edad",
          "blockHash": "0xc593592e409ec11f82a6f824d68ff89ead8d282b776f163ad0cc26e8378af7d3",
          "blockNumber": "0x188a8ac",
          "transactionHash": "0xfae14e1146f41d2adc59b65b9ac1b1d66c27de659c58156a053ded803fcac76d",
          "transactionIndex": "0x1b",
          "logIndex": "0x810",
          "removed": false
        }
      ],
      "logsBloom": "0x00000000000000000000000000000000004000000000000000000000400000000000000000000000000000000000000000000000000000000000000000000000000000000000000000008000000000000000000000000000000000000000000000000100000000000000000000000000400000000000000000000000000000000000000000000000000000100000000000000000000020000000000000000008000000000000000000000000000000000010000000000000000000000000000000000000000002000100000000000000000000000000000000000000000000000000000000000000000000000000000000000000000000000000000000000002",
      "type": "0x2",
      "transactionHash": "0xfae14e1146f41d2adc59b65b9ac1b1d66c27de659c58156a053ded803fcac76d",
      "transactionIndex": "0x1b",
      "blockHash": "0xc593592e409ec11f82a6f824d68ff89ead8d282b776f163ad0cc26e8378af7d3",
      "blockNumber": "0x188a8ac",
      "gasUsed": "0x3d5a5",
      "effectiveGasPrice": "0x3855c8ab0548c",
      "from": "0xaa73aa98480757d75aae288b5931261448eb0530",
      "to": "0xf077d4d0508505c5a80249afc10bc6ead90e47f1",
      "contractAddress": null
    }
  ],
  "libraries": [],
  "pending": [],
  "returns": {},
  "timestamp": 1770515886180,
  "chain": 369,
  "commit": null
}