{
  "transactions": [
    {
      "hash": "0x6366fc58d085dcd5eff1017696f59f17e4e34eff7e503c7c1465b89f7ece8ee3",
      "transactionType": "CALL",
      "contractName": null,
      "contractAddress": "0xf077d4d0508505c5a80249afc10bc6ead90e47f1",
      "function": "makeCrime(uint8)",
      "arguments": [
        "0"
      ],
      "transaction": {
        "from": "0xeca7a53ba6a190c5d205bfdc7707cbc3399336c1",
        "to": "0xf077d4d0508505c5a80249afc10bc6ead90e47f1",
        "gas": "0x40ef5",
        "value": "0x0",
        "input": "0xc625abb40000000000000000000000000000000000000000000000000000000000000000",
        "nonce": "0x3ce",
        "chainId": "0x171"
      },
      "additionalContracts": [],
      "isFixedGasLimit": false
    }
  ],
  "receipts": [
    {
      "status": "0x1",
      "cumulativeGasUsed": "0x8cdcaf",
      "logs": [
        {
          "address": "0x74eadd7ebeeed638fd7c413134fa3d3433699d92",
          "topics": [
            "0x570f308d592bed3a47a73125665ce3b81fe296da89acff1af6d926e08a0a9f12"
          ],
          "data": "0x000000000000000000000000eca7a53ba6a190c5d205bfdc7707cbc3399336c100000000000000000000000000000000000000000000000000000000000231e2",
          "blockHash": "0xe950102526fc3c1f67f320b977a8e111dd6c2e842010b18c48af76aa007554b6",
          "blockNumber": "0x18758eb",
          "transactionHash": "0x6366fc58d085dcd5eff1017696f59f17e4e34eff7e503c7c1465b89f7ece8ee3",
          "transactionIndex": "0x18",
          "logIndex": "0x83",
          "removed": false
        },
        {
          "address": "0xf077d4d0508505c5a80249afc10bc6ead90e47f1",
          "topics": [
            "0xe36ceebd3770780c5617d53efc7d77328074f1248146245ed3b854cbf651fb37"
          ],
          "data": "0x000000000000000000000000eca7a53ba6a190c5d205bfdc7707cbc3399336c10000000000000000000000000000000000000000000000000000000000000000000000000000000000000000000000000000000000000000000000000000000100000000000000000000000000000000000000000000000000000000000000000000000000000000000000000000000000000000000000162c03e5066ec40000000000000000000000000000000000000000000000000000000000000000001400000000000000000000000000000000000000000000000000000000697a7d1700000000000000000000000000000000000000000000000000000000697a7993",
          "blockHash": "0xe950102526fc3c1f67f320b977a8e111dd6c2e842010b18c48af76aa007554b6",
          "blockNumber": "0x18758eb",
          "transactionHash": "0x6366fc58d085dcd5eff1017696f59f17e4e34eff7e503c7c1465b89f7ece8ee3",
          "transactionIndex": "0x18",
          "logIndex": "0x84",
          "removed": false
        }
      ],
      "logsBloom": "0x00000000000000000000000000000000004000000000000000000000400000000000000000000000000000000000000000000000000000000000000000000000000000000000000000008000000000000000000000000000000000000000000000000100000000000000000000000000400000000000000000000000000000000000000000000000000000100000000000000000000020000000000000000008000000000000000000000000000000000010000000000000000000000000000000000000000002000100000000000000000000000000000000000000000000000000000000000000000000000000000000000000000000000000000000000002",
      "type": "0x2",
      "transactionHash": "0x6366fc58d085dcd5eff1017696f59f17e4e34eff7e503c7c1465b89f7ece8ee3",
      "transactionIndex": "0x18",
      "blockHash": "0xe950102526fc3c1f67f320b977a8e111dd6c2e842010b18c48af76aa007554b6",
      "blockNumber": "0x18758eb",
      "gasUsed": "0x3d7b8",
      "effectiveGasPrice": "0x38b7aa3d749d3",
      "from": "0xeca7a53ba6a190c5d205bfdc7707cbc3399336c1",
      "to": "0xf077d4d0508505c5a80249afc10bc6ead90e47f1",
      "contractAddress": null
    }
  ],
  "libraries": [],
  "pending": [],
  "returns": {},
  "timestamp": 1769634196815,
  "chain": 369,
  "commit": null
}