{
  "transactions": [
    {
      "hash": "0x409173de33004a760089bb533ef8e37f3d2a122e14bcdfe7f7820580cf2aeb2d",
      "transactionType": "CALL",
      "contractName": null,
      "contractAddress": "0xf077d4d0508505c5a80249afc10bc6ead90e47f1",
      "function": "makeCrime(uint8)",
      "arguments": [
        "0"
      ],
      "transaction": {
        "from": "0xeca7a53ba6a190c5d205bfdc7707cbc3399336c1",
        "to": "0xf077d4d0508505c5a80249afc10bc6ead90e47f1",
        "gas": "0x55e10",
        "value": "0x0",
        "input": "0xc625abb40000000000000000000000000000000000000000000000000000000000000000",
        "nonce": "0x563",
        "chainId": "0x171"
      },
      "additionalContracts": [],
      "isFixedGasLimit": false
    }
  ],
  "receipts": [
    {
      "status": "0x1",
      "cumulativeGasUsed": "0x4f3267",
      "logs": [
        {
          "address": "0xf077d4d0508505c5a80249afc10bc6ead90e47f1",
          "topics": [
            "0xe36ceebd3770780c5617d53efc7d77328074f1248146245ed3b854cbf651fb37"
          ],
          "data": "0x000000000000000000000000eca7a53ba6a190c5d205bfdc7707cbc3399336c100000000000000000000000000000000000000000000000000000000000000000000000000000000000000000000000000000000000000000000000000000000000000000000000000000000000000000000000000000000000000000000000000000000000000000000000000000000000000000000000000000000000000000000000000000000000000000000000000000000000000000000000000000000000000000000000000000000000000000000000000000000000000006987806b0000000000000000000000000000000000000000000000000000000069877ce7",
          "blockHash": "0x3a991297e7f3f5359fb0360c3a25f78e033c207d5f26fd5936ca6bb1856b1031",
          "blockNumber": "0x1889daa",
          "transactionHash": "0x409173de33004a760089bb533ef8e37f3d2a122e14bcdfe7f7820580cf2aeb2d",
          "transactionIndex": "0x12",
          "logIndex": "0x54",
          "removed": false
        }
      ],
      "logsBloom": "0x00000000000000000000000000000000000000000000000000000000400000000000000000000000000000000000000000000000000000000000000000000000000000000000000000000000000000000000000000000000000000000000000000000000000000000000000000000000400000000000000000000000000000000000000000000000000000100000000000000000000020000000000000000000000000000000000000000000000000000000000000000000000000000000000000000000000000000100000000000000000000000000000000000000000000000000000000000000000000000000000000000000000000000000000000000002",
      "type": "0x2",
      "transactionHash": "0x409173de33004a760089bb533ef8e37f3d2a122e14bcdfe7f7820580cf2aeb2d",
      "transactionIndex": "0x12",
      "blockHash": "0x3a991297e7f3f5359fb0360c3a25f78e033c207d5f26fd5936ca6bb1856b1031",
      "blockNumber": "0x1889daa",
      "gasUsed": "0x1f525",
      "effectiveGasPrice": "0x2fa1a729bd9bf",
      "from": "0xeca7a53ba6a190c5d205bfdc7707cbc3399336c1",
      "to": "0xf077d4d0508505c5a80249afc10bc6ead90e47f1",
      "contractAddress": null
    }
  ],
  "libraries": [],
  "pending": [],
  "returns": {},
  "timestamp": 1770487016708,
  "chain": 369,
  "commit": null
}