{
  "transactions": [
    {
      "hash": "0xb804e7f0e9ce32da06726bf5177eaa0429c97cd0011ad8490185b2465fdc4e53",
      "transactionType": "CALL",
      "contractName": null,
      "contractAddress": "0xf077d4d0508505c5a80249afc10bc6ead90e47f1",
      "function": "makeCrime(uint8)",
      "arguments": [
        "0"
      ],
      "transaction": {
        "from": "0x4c62f6121e6f967a0872da8364995e9b68c1e82f",
        "to": "0xf077d4d0508505c5a80249afc10bc6ead90e47f1",
        "gas": "0x3fd59",
        "value": "0x0",
        "input": "0xc625abb40000000000000000000000000000000000000000000000000000000000000000",
        "nonce": "0x704",
        "chainId": "0x171"
      },
      "additionalContracts": [],
      "isFixedGasLimit": false
    }
  ],
  "receipts": [
    {
      "status": "0x1",
      "cumulativeGasUsed": "0x4b1b82",
      "logs": [
        {
          "address": "0xf077d4d0508505c5a80249afc10bc6ead90e47f1",
          "topics": [
            "0xe36ceebd3770780c5617d53efc7d77328074f1248146245ed3b854cbf651fb37"
          ],
          "data": "0x0000000000000000000000004c62f6121e6f967a0872da8364995e9b68c1e82f000000000000000000000000000000000000000000000000000000000000000000000000000000000000000000000000000000000000000000000000000000000000000000000000000000000000000000000000000000000000000000000000000000000000000000000000000000000000000000000000000000000000000000000000000000000000000000000000000000000000000000000000000000000000000000000000000000000000000000000000000000000000000069794d930000000000000000000000000000000000000000000000000000000069794a0f",
          "blockHash": "0x2db1f4c77559f8424b918379201b452de0e2d782c88cb5ab197c09bba3c569a3",
          "blockNumber": "0x1873b3f",
          "transactionHash": "0xb804e7f0e9ce32da06726bf5177eaa0429c97cd0011ad8490185b2465fdc4e53",
          "transactionIndex": "0xe",
          "logIndex": "0x6f",
          "removed": false
        }
      ],
      "logsBloom": "0x00000000000000000000000000000000000000000000000000000000400000000000000000000000000000000000000000000000000000000000000000000000000000000000000000000000000000000000000000000000000000000000000000000000000000000000000000000000400000000000000000000000000000000000000000000000000000100000000000000000000020000000000000000000000000000000000000000000000000000000000000000000000000000000000000000000000000000100000000000000000000000000000000000000000000000000000000000000000000000000000000000000000000000000000000000002",
      "type": "0x2",
      "transactionHash": "0xb804e7f0e9ce32da06726bf5177eaa0429c97cd0011ad8490185b2465fdc4e53",
      "transactionIndex": "0xe",
      "blockHash": "0x2db1f4c77559f8424b918379201b452de0e2d782c88cb5ab197c09bba3c569a3",
      "blockNumber": "0x1873b3f",
      "gasUsed": "0x1e865",
      "effectiveGasPrice": "0x3e8b2c61fc032",
      "from": "0x4c62f6121e6f967a0872da8364995e9b68c1e82f",
      "to": "0xf077d4d0508505c5a80249afc10bc6ead90e47f1",
      "contractAddress": null
    }
  ],
  "libraries": [],
  "pending": [],
  "returns": {},
  "timestamp": 1769556496133,
  "chain": 369,
  "commit": null
}