{
  "transactions": [
    {
      "hash": "0x8540eaeeda2f509acb464b5afdabd42ad9b1dd6e099505bd8e8e01c5439085ec",
      "transactionType": "CALL",
      "contractName": null,
      "contractAddress": "0xf077d4d0508505c5a80249afc10bc6ead90e47f1",
      "function": "makeCrime(uint8)",
      "arguments": [
        "0"
      ],
      "transaction": {
        "from": "0x4c62f6121e6f967a0872da8364995e9b68c1e82f",
        "to": "0xf077d4d0508505c5a80249afc10bc6ead90e47f1",
        "gas": "0x54be5",
        "value": "0x0",
        "input": "0xc625abb40000000000000000000000000000000000000000000000000000000000000000",
        "nonce": "0x76e",
        "chainId": "0x171"
      },
      "additionalContracts": [],
      "isFixedGasLimit": false
    }
  ],
  "receipts": [
    {
      "status": "0x1",
      "cumulativeGasUsed": "0x15920d3",
      "logs": [
        {
          "address": "0x74eadd7ebeeed638fd7c413134fa3d3433699d92",
          "topics": [
            "0x570f308d592bed3a47a73125665ce3b81fe296da89acff1af6d926e08a0a9f12"
          ],
          "data": "0x0000000000000000000000004c62f6121e6f967a0872da8364995e9b68c1e82f0000000000000000000000000000000000000000000000000000000000000514",
          "blockHash": "0xdacf0ba734e5c43d8d7add9ac9185842a05eb9b474b8130833503d05f6a349a0",
          "blockNumber": "0x18773a9",
          "transactionHash": "0x8540eaeeda2f509acb464b5afdabd42ad9b1dd6e099505bd8e8e01c5439085ec",
          "transactionIndex": "0x11",
          "logIndex": "0x353",
          "removed": false
        },
        {
          "address": "0xf077d4d0508505c5a80249afc10bc6ead90e47f1",
          "topics": [
            "0xe36ceebd3770780c5617d53efc7d77328074f1248146245ed3b854cbf651fb37"
          ],
          "data": "0x0000000000000000000000004c62f6121e6f967a0872da8364995e9b68c1e82f00000000000000000000000000000000000000000000000000000000000000000000000000000000000000000000000000000000000000000000000000000001000000000000000000000000000000000000000000000000000000000000000000000000000000000000000000000000000000000000000fd45064eaee100000000000000000000000000000000000000000000000000000000000000000006400000000000000000000000000000000000000000000000000000000697b8fa900000000000000000000000000000000000000000000000000000000697b8c25",
          "blockHash": "0xdacf0ba734e5c43d8d7add9ac9185842a05eb9b474b8130833503d05f6a349a0",
          "blockNumber": "0x18773a9",
          "transactionHash": "0x8540eaeeda2f509acb464b5afdabd42ad9b1dd6e099505bd8e8e01c5439085ec",
          "transactionIndex": "0x11",
          "logIndex": "0x354",
          "removed": false
        }
      ],
      "logsBloom": "0x00000000000000000000000000000000004000000000000000000000400000000000000000000000000000000000000000000000000000000000000000000000000000000000000000008000000000000000000000000000000000000000000000000100000000000000000000000000400000000000000000000000000000000000000000000000000000100000000000000000000020000000000000000008000000000000000000000000000000000010000000000000000000000000000000000000000002000100000000000000000000000000000000000000000000000000000000000000000000000000000000000000000000000000000000000002",
      "type": "0x2",
      "transactionHash": "0x8540eaeeda2f509acb464b5afdabd42ad9b1dd6e099505bd8e8e01c5439085ec",
      "transactionIndex": "0x11",
      "blockHash": "0xdacf0ba734e5c43d8d7add9ac9185842a05eb9b474b8130833503d05f6a349a0",
      "blockNumber": "0x18773a9",
      "gasUsed": "0x3d5a5",
      "effectiveGasPrice": "0x218d750a9f27b",
      "from": "0x4c62f6121e6f967a0872da8364995e9b68c1e82f",
      "to": "0xf077d4d0508505c5a80249afc10bc6ead90e47f1",
      "contractAddress": null
    }
  ],
  "libraries": [],
  "pending": [],
  "returns": {},
  "timestamp": 1769704485832,
  "chain": 369,
  "commit": null
}