{
  "transactions": [
    {
      "hash": "0x38ad5096647d7c04f0c24afb46f02efa4593fa19124bbf460eb451d0301ff584",
      "transactionType": "CALL",
      "contractName": null,
      "contractAddress": "0xf077d4d0508505c5a80249afc10bc6ead90e47f1",
      "function": "makeCrime(uint8)",
      "arguments": [
        "0"
      ],
      "transaction": {
        "from": "0xec646a6c9000e04d050435340d9c42c039eb5648",
        "to": "0xf077d4d0508505c5a80249afc10bc6ead90e47f1",
        "gas": "0x409a4",
        "value": "0x0",
        "input": "0xc625abb40000000000000000000000000000000000000000000000000000000000000000",
        "nonce": "0x43",
        "chainId": "0x171"
      },
      "additionalContracts": [],
      "isFixedGasLimit": false
    }
  ],
  "receipts": [
    {
      "status": "0x1",
      "cumulativeGasUsed": "0x773707",
      "logs": [
        {
          "address": "0xdcd5e9c0b2b4e9cb93677a258521d854b3a9f5a1",
          "topics": [
            "0x0bff5315606c84d1cee047503678048ca39946be11bfdd5a8c03fe5e272d98e3"
          ],
          "data": "0x000000000000000000000000ec646a6c9000e04d050435340d9c42c039eb56480000000000000000000000000000000000000000000000000000000069881da50000000000000000000000000000000000000000000000000000000000000000",
          "blockHash": "0x6fcaafec1847ec4d46d5ca3e35b5785515a764d3d3efffee338be3c4f09c908e",
          "blockNumber": "0x188acdc",
          "transactionHash": "0x38ad5096647d7c04f0c24afb46f02efa4593fa19124bbf460eb451d0301ff584",
          "transactionIndex": "0x2c",
          "logIndex": "0x71",
          "removed": false
        },
        {
          "address": "0xf077d4d0508505c5a80249afc10bc6ead90e47f1",
          "topics": [
            "0xe36ceebd3770780c5617d53efc7d77328074f1248146245ed3b854cbf651fb37"
          ],
          "data": "0x000000000000000000000000ec646a6c9000e04d050435340d9c42c039eb5648000000000000000000000000000000000000000000000000000000000000000000000000000000000000000000000000000000000000000000000000000000000000000000000000000000000000000000000000000000000000000000000001000000000000000000000000000000000000000000000000000000000000000000000000000000000000000000000000000000000000000000000000000000000000000000000000000000000000000000000000000000000000000069881be3000000000000000000000000000000000000000000000000000000006988185f",
          "blockHash": "0x6fcaafec1847ec4d46d5ca3e35b5785515a764d3d3efffee338be3c4f09c908e",
          "blockNumber": "0x188acdc",
          "transactionHash": "0x38ad5096647d7c04f0c24afb46f02efa4593fa19124bbf460eb451d0301ff584",
          "transactionIndex": "0x2c",
          "logIndex": "0x72",
          "removed": false
        }
      ],
      "logsBloom": "0x00000000000000000000000000000000010000000000000000000000400000000000000000000000000000000000000000000000000000000000000000000000000000000000000000000000000000000000000000000000001000000000000000000000000000000000000000000000400000000080000000000000000000000000000000000000000000100000000000000000000020000000000000000000000000000000000000000000000000000000000000000000400000000000000000000000000000000100000000000040000000000000000000000000000000000000000000000000000000000000000000000000000000000000000000001002",
      "type": "0x2",
      "transactionHash": "0x38ad5096647d7c04f0c24afb46f02efa4593fa19124bbf460eb451d0301ff584",
      "transactionIndex": "0x2c",
      "blockHash": "0x6fcaafec1847ec4d46d5ca3e35b5785515a764d3d3efffee338be3c4f09c908e",
      "blockNumber": "0x188acdc",
      "gasUsed": "0x2ec57",
      "effectiveGasPrice": "0x2e3465ecfca57",
      "from": "0xec646a6c9000e04d050435340d9c42c039eb5648",
      "to": "0xf077d4d0508505c5a80249afc10bc6ead90e47f1",
      "contractAddress": null
    }
  ],
  "libraries": [],
  "pending": [],
  "returns": {},
  "timestamp": 1770526815754,
  "chain": 369,
  "commit": null
}