{
  "transactions": [
    {
      "hash": "0xdedb6f3b0d7584aecd462c812f3d7b62ccd9517a2133cb875a92db89a55213ef",
      "transactionType": "CALL",
      "contractName": null,
      "contractAddress": "0xf077d4d0508505c5a80249afc10bc6ead90e47f1",
      "function": "makeCrime(uint8)",
      "arguments": [
        "0"
      ],
      "transaction": {
        "from": "0x4c62f6121e6f967a0872da8364995e9b68c1e82f",
        "to": "0xf077d4d0508505c5a80249afc10bc6ead90e47f1",
        "gas": "0x409a4",
        "value": "0x0",
        "input": "0xc625abb40000000000000000000000000000000000000000000000000000000000000000",
        "nonce": "0x959",
        "chainId": "0x171"
      },
      "additionalContracts": [],
      "isFixedGasLimit": false
    }
  ],
  "receipts": [
    {
      "status": "0x1",
      "cumulativeGasUsed": "0x743809",
      "logs": [
        {
          "address": "0xdcd5e9c0b2b4e9cb93677a258521d854b3a9f5a1",
          "topics": [
            "0x0bff5315606c84d1cee047503678048ca39946be11bfdd5a8c03fe5e272d98e3"
          ],
          "data": "0x0000000000000000000000004c62f6121e6f967a0872da8364995e9b68c1e82f000000000000000000000000000000000000000000000000000000006987879b0000000000000000000000000000000000000000000000000000000000000000",
          "blockHash": "0x9538aacdabc74905d088ad9e2b4ad0f3710d9fdf7b0ad6eca3d951a80374cfb8",
          "blockNumber": "0x1889e32",
          "transactionHash": "0xdedb6f3b0d7584aecd462c812f3d7b62ccd9517a2133cb875a92db89a55213ef",
          "transactionIndex": "0x20",
          "logIndex": "0xe3",
          "removed": false
        },
        {
          "address": "0xf077d4d0508505c5a80249afc10bc6ead90e47f1",
          "topics": [
            "0xe36ceebd3770780c5617d53efc7d77328074f1248146245ed3b854cbf651fb37"
          ],
          "data": "0x0000000000000000000000004c62f6121e6f967a0872da8364995e9b68c1e82f0000000000000000000000000000000000000000000000000000000000000000000000000000000000000000000000000000000000000000000000000000000000000000000000000000000000000000000000000000000000000000000000010000000000000000000000000000000000000000000000000000000000000000000000000000000000000000000000000000000000000000000000000000000000000000000000000000000000000000000000000000000000000000698785d90000000000000000000000000000000000000000000000000000000069878255",
          "blockHash": "0x9538aacdabc74905d088ad9e2b4ad0f3710d9fdf7b0ad6eca3d951a80374cfb8",
          "blockNumber": "0x1889e32",
          "transactionHash": "0xdedb6f3b0d7584aecd462c812f3d7b62ccd9517a2133cb875a92db89a55213ef",
          "transactionIndex": "0x20",
          "logIndex": "0xe4",
          "removed": false
        }
      ],
      "logsBloom": "0x00000000000000000000000000000000010000000000000000000000400000000000000000000000000000000000000000000000000000000000000000000000000000000000000000000000000000000000000000000000001000000000000000000000000000000000000000000000400000000080000000000000000000000000000000000000000000100000000000000000000020000000000000000000000000000000000000000000000000000000000000000000400000000000000000000000000000000100000000000040000000000000000000000000000000000000000000000000000000000000000000000000000000000000000000001002",
      "type": "0x2",
      "transactionHash": "0xdedb6f3b0d7584aecd462c812f3d7b62ccd9517a2133cb875a92db89a55213ef",
      "transactionIndex": "0x20",
      "blockHash": "0x9538aacdabc74905d088ad9e2b4ad0f3710d9fdf7b0ad6eca3d951a80374cfb8",
      "blockNumber": "0x1889e32",
      "gasUsed": "0x2ec57",
      "effectiveGasPrice": "0x2b17a9aeec10b",
      "from": "0x4c62f6121e6f967a0872da8364995e9b68c1e82f",
      "to": "0xf077d4d0508505c5a80249afc10bc6ead90e47f1",
      "contractAddress": null
    }
  ],
  "libraries": [],
  "pending": [],
  "returns": {},
  "timestamp": 1770488406268,
  "chain": 369,
  "commit": null
}