{
  "transactions": [
    {
      "hash": "0x7866a6d548a4c25915ad1b30ea08e2cee010b9766183452b72477cc55d3a7e21",
      "transactionType": "CALL",
      "contractName": null,
      "contractAddress": "0xf077d4d0508505c5a80249afc10bc6ead90e47f1",
      "function": "makeCrime(uint8)",
      "arguments": [
        "0"
      ],
      "transaction": {
        "from": "0xac56dc5a4a9de0197f7b8f584ea04ec7e0123dde",
        "to": "0xf077d4d0508505c5a80249afc10bc6ead90e47f1",
        "gas": "0x54352",
        "value": "0x0",
        "input": "0xc625abb40000000000000000000000000000000000000000000000000000000000000000",
        "nonce": "0x24e",
        "chainId": "0x171"
      },
      "additionalContracts": [],
      "isFixedGasLimit": false
    }
  ],
  "receipts": [
    {
      "status": "0x1",
      "cumulativeGasUsed": "0x2835ac9",
      "logs": [
        {
          "address": "0xdcd5e9c0b2b4e9cb93677a258521d854b3a9f5a1",
          "topics": [
            "0x0bff5315606c84d1cee047503678048ca39946be11bfdd5a8c03fe5e272d98e3"
          ],
          "data": "0x000000000000000000000000ac56dc5a4a9de0197f7b8f584ea04ec7e0123dde00000000000000000000000000000000000000000000000000000000696d0cef0000000000000000000000000000000000000000000000000000000000000000",
          "blockHash": "0xc02e0a1ab1e4ec822e4a09ce5ac2b367444869cbfc9366e5a8adc3392876ed2f",
          "blockNumber": "0x1860956",
          "transactionHash": "0x7866a6d548a4c25915ad1b30ea08e2cee010b9766183452b72477cc55d3a7e21",
          "transactionIndex": "0x5d",
          "logIndex": "0x3c0",
          "removed": false
        },
        {
          "address": "0xf077d4d0508505c5a80249afc10bc6ead90e47f1",
          "topics": [
            "0xe36ceebd3770780c5617d53efc7d77328074f1248146245ed3b854cbf651fb37"
          ],
          "data": "0x000000000000000000000000ac56dc5a4a9de0197f7b8f584ea04ec7e0123dde0000000000000000000000000000000000000000000000000000000000000000000000000000000000000000000000000000000000000000000000000000000000000000000000000000000000000000000000000000000000000000000000010000000000000000000000000000000000000000000000000000000000000000000000000000000000000000000000000000000000000000000000000000000000000000000000000000000000000000000000000000000000000000696d0b2d00000000000000000000000000000000000000000000000000000000696d07a9",
          "blockHash": "0xc02e0a1ab1e4ec822e4a09ce5ac2b367444869cbfc9366e5a8adc3392876ed2f",
          "blockNumber": "0x1860956",
          "transactionHash": "0x7866a6d548a4c25915ad1b30ea08e2cee010b9766183452b72477cc55d3a7e21",
          "transactionIndex": "0x5d",
          "logIndex": "0x3c1",
          "removed": false
        }
      ],
      "logsBloom": "0x00000000000000000000000000000000010000000000000000000000400000000000000000000000000000000000000000000000000000000000000000000000000000000000000000000000000000000000000000000000001000000000000000000000000000000000000000000000400000000080000000000000000000000000000000000000000000100000000000000000000020000000000000000000000000000000000000000000000000000000000000000000400000000000000000000000000000000100000000000040000000000000000000000000000000000000000000000000000000000000000000000000000000000000000000001002",
      "type": "0x2",
      "transactionHash": "0x7866a6d548a4c25915ad1b30ea08e2cee010b9766183452b72477cc55d3a7e21",
      "transactionIndex": "0x5d",
      "blockHash": "0xc02e0a1ab1e4ec822e4a09ce5ac2b367444869cbfc9366e5a8adc3392876ed2f",
      "blockNumber": "0x1860956",
      "gasUsed": "0x2dfe4",
      "effectiveGasPrice": "0xb88c8737ebcc",
      "from": "0xac56dc5a4a9de0197f7b8f584ea04ec7e0123dde",
      "to": "0xf077d4d0508505c5a80249afc10bc6ead90e47f1",
      "contractAddress": null
    }
  ],
  "libraries": [],
  "pending": [],
  "returns": {},
  "timestamp": 1768753066126,
  "chain": 369,
  "commit": "953695a"
}