{
  "transactions": [
    {
      "hash": "0x6a00bc91cb19317dca7b5bbbad25f6f1a9e505846dcf9740b4024ddf92e1052d",
      "transactionType": "CALL",
      "contractName": null,
      "contractAddress": "0xf077d4d0508505c5a80249afc10bc6ead90e47f1",
      "function": "makeCrime(uint8)",
      "arguments": [
        "0"
      ],
      "transaction": {
        "from": "0x4c62f6121e6f967a0872da8364995e9b68c1e82f",
        "to": "0xf077d4d0508505c5a80249afc10bc6ead90e47f1",
        "gas": "0x2a297",
        "value": "0x0",
        "input": "0xc625abb40000000000000000000000000000000000000000000000000000000000000000",
        "nonce": "0x705",
        "chainId": "0x171"
      },
      "additionalContracts": [],
      "isFixedGasLimit": false
    }
  ],
  "receipts": [
    {
      "status": "0x1",
      "cumulativeGasUsed": "0x9eafc5",
      "logs": [
        {
          "address": "0xf077d4d0508505c5a80249afc10bc6ead90e47f1",
          "topics": [
            "0xe36ceebd3770780c5617d53efc7d77328074f1248146245ed3b854cbf651fb37"
          ],
          "data": "0x0000000000000000000000004c62f6121e6f967a0872da8364995e9b68c1e82f0000000000000000000000000000000000000000000000000000000000000000000000000000000000000000000000000000000000000000000000000000000000000000000000000000000000000000000000000000000000000000000000000000000000000000000000000000000000000000000000000000000000000000000000000000000000000000000000000000000000000000000000000000000000000000000000000000000000000000000000000000000000000000697952d90000000000000000000000000000000000000000000000000000000069794f55",
          "blockHash": "0xbbb09aaf679467f01a242ef07b429dd7a3f48e401d2d2d11533506d969da01d0",
          "blockNumber": "0x1873bc4",
          "transactionHash": "0x6a00bc91cb19317dca7b5bbbad25f6f1a9e505846dcf9740b4024ddf92e1052d",
          "transactionIndex": "0x17",
          "logIndex": "0xb9",
          "removed": false
        }
      ],
      "logsBloom": "0x00000000000000000000000000000000000000000000000000000000400000000000000000000000000000000000000000000000000000000000000000000000000000000000000000000000000000000000000000000000000000000000000000000000000000000000000000000000400000000000000000000000000000000000000000000000000000100000000000000000000020000000000000000000000000000000000000000000000000000000000000000000000000000000000000000000000000000100000000000000000000000000000000000000000000000000000000000000000000000000000000000000000000000000000000000002",
      "type": "0x2",
      "transactionHash": "0x6a00bc91cb19317dca7b5bbbad25f6f1a9e505846dcf9740b4024ddf92e1052d",
      "transactionIndex": "0x17",
      "blockHash": "0xbbb09aaf679467f01a242ef07b429dd7a3f48e401d2d2d11533506d969da01d0",
      "blockNumber": "0x1873bc4",
      "gasUsed": "0x1e865",
      "effectiveGasPrice": "0x31f3ff8377744",
      "from": "0x4c62f6121e6f967a0872da8364995e9b68c1e82f",
      "to": "0xf077d4d0508505c5a80249afc10bc6ead90e47f1",
      "contractAddress": null
    }
  ],
  "libraries": [],
  "pending": [],
  "returns": {},
  "timestamp": 1769557846289,
  "chain": 369,
  "commit": null
}