{
  "transactions": [
    {
      "hash": "0x428fd2edebda18cc591dd29024a3782d117761d8bea30cced3d960344ca1bd89",
      "transactionType": "CALL",
      "contractName": null,
      "contractAddress": "0xf077d4d0508505c5a80249afc10bc6ead90e47f1",
      "function": "makeCrime(uint8)",
      "arguments": [
        "0"
      ],
      "transaction": {
        "from": "0x4c62f6121e6f967a0872da8364995e9b68c1e82f",
        "to": "0xf077d4d0508505c5a80249afc10bc6ead90e47f1",
        "gas": "0x2a297",
        "value": "0x0",
        "input": "0xc625abb40000000000000000000000000000000000000000000000000000000000000000",
        "nonce": "0x963",
        "chainId": "0x171"
      },
      "additionalContracts": [],
      "isFixedGasLimit": false
    }
  ],
  "receipts": [
    {
      "status": "0x1",
      "cumulativeGasUsed": "0xddf113",
      "logs": [
        {
          "address": "0xf077d4d0508505c5a80249afc10bc6ead90e47f1",
          "topics": [
            "0xe36ceebd3770780c5617d53efc7d77328074f1248146245ed3b854cbf651fb37"
          ],
          "data": "0x0000000000000000000000004c62f6121e6f967a0872da8364995e9b68c1e82f00000000000000000000000000000000000000000000000000000000000000000000000000000000000000000000000000000000000000000000000000000000000000000000000000000000000000000000000000000000000000000000000000000000000000000000000000000000000000000000000000000000000000000000000000000000000000000000000000000000000000000000000000000000000000000000000000000000000000000000000000000000000000006987afff000000000000000000000000000000000000000000000000000000006987ac7b",
          "blockHash": "0x1c235a48e3b6636a706ddb128070f0b0ba221b0034da5fcaae9d6f799218a32c",
          "blockNumber": "0x188a254",
          "transactionHash": "0x428fd2edebda18cc591dd29024a3782d117761d8bea30cced3d960344ca1bd89",
          "transactionIndex": "0x4b",
          "logIndex": "0x145",
          "removed": false
        }
      ],
      "logsBloom": "0x00000000000000000000000000000000000000000000000000000000400000000000000000000000000000000000000000000000000000000000000000000000000000000000000000000000000000000000000000000000000000000000000000000000000000000000000000000000400000000000000000000000000000000000000000000000000000100000000000000000000020000000000000000000000000000000000000000000000000000000000000000000000000000000000000000000000000000100000000000000000000000000000000000000000000000000000000000000000000000000000000000000000000000000000000000002",
      "type": "0x2",
      "transactionHash": "0x428fd2edebda18cc591dd29024a3782d117761d8bea30cced3d960344ca1bd89",
      "transactionIndex": "0x4b",
      "blockHash": "0x1c235a48e3b6636a706ddb128070f0b0ba221b0034da5fcaae9d6f799218a32c",
      "blockNumber": "0x188a254",
      "gasUsed": "0x1e865",
      "effectiveGasPrice": "0x31daeab7c0b18",
      "from": "0x4c62f6121e6f967a0872da8364995e9b68c1e82f",
      "to": "0xf077d4d0508505c5a80249afc10bc6ead90e47f1",
      "contractAddress": null
    }
  ],
  "libraries": [],
  "pending": [],
  "returns": {},
  "timestamp": 1770499196823,
  "chain": 369,
  "commit": null
}