{
  "transactions": [
    {
      "hash": "0x99effc965501b9b07ae08e0f1492d3a37bb5f9597b1ced503a8517ad840f6829",
      "transactionType": "CALL",
      "contractName": null,
      "contractAddress": "0xf077d4d0508505c5a80249afc10bc6ead90e47f1",
      "function": "makeCrime(uint8)",
      "arguments": [
        "0"
      ],
      "transaction": {
        "from": "0x4c62f6121e6f967a0872da8364995e9b68c1e82f",
        "to": "0xf077d4d0508505c5a80249afc10bc6ead90e47f1",
        "gas": "0x409a4",
        "value": "0x0",
        "input": "0xc625abb40000000000000000000000000000000000000000000000000000000000000000",
        "nonce": "0x75b",
        "chainId": "0x171"
      },
      "additionalContracts": [],
      "isFixedGasLimit": false
    }
  ],
  "receipts": [
    {
      "status": "0x1",
      "cumulativeGasUsed": "0x22332ca",
      "logs": [
        {
          "address": "0xf077d4d0508505c5a80249afc10bc6ead90e47f1",
          "topics": [
            "0xe36ceebd3770780c5617d53efc7d77328074f1248146245ed3b854cbf651fb37"
          ],
          "data": "0x0000000000000000000000004c62f6121e6f967a0872da8364995e9b68c1e82f0000000000000000000000000000000000000000000000000000000000000000000000000000000000000000000000000000000000000000000000000000000000000000000000000000000000000000000000000000000000000000000000000000000000000000000000000000000000000000000000000000000000000000000000000000000000000000000000000000000000000000000000000000000000000000000000000000000000000000000000000000000000000000697ab00700000000000000000000000000000000000000000000000000000000697aac83",
          "blockHash": "0xe539e8910d6f7089d2fe3363e42075d257a8b85cea4b6ae90cfdb3ed9f324c3f",
          "blockNumber": "0x1875de6",
          "transactionHash": "0x99effc965501b9b07ae08e0f1492d3a37bb5f9597b1ced503a8517ad840f6829",
          "transactionIndex": "0xd1",
          "logIndex": "0x2ef",
          "removed": false
        }
      ],
      "logsBloom": "0x00000000000000000000000000000000000000000000000000000000400000000000000000000000000000000000000000000000000000000000000000000000000000000000000000000000000000000000000000000000000000000000000000000000000000000000000000000000400000000000000000000000000000000000000000000000000000100000000000000000000020000000000000000000000000000000000000000000000000000000000000000000000000000000000000000000000000000100000000000000000000000000000000000000000000000000000000000000000000000000000000000000000000000000000000000002",
      "type": "0x2",
      "transactionHash": "0x99effc965501b9b07ae08e0f1492d3a37bb5f9597b1ced503a8517ad840f6829",
      "transactionIndex": "0xd1",
      "blockHash": "0xe539e8910d6f7089d2fe3363e42075d257a8b85cea4b6ae90cfdb3ed9f324c3f",
      "blockNumber": "0x1875de6",
      "gasUsed": "0x1e865",
      "effectiveGasPrice": "0x1bb09627001a3",
      "from": "0x4c62f6121e6f967a0872da8364995e9b68c1e82f",
      "to": "0xf077d4d0508505c5a80249afc10bc6ead90e47f1",
      "contractAddress": null
    }
  ],
  "libraries": [],
  "pending": [],
  "returns": {},
  "timestamp": 1769647237711,
  "chain": 369,
  "commit": null
}