{
  "transactions": [
    {
      "hash": "0xb6dd701adfe1a6b99a275906339db584e008d335e55f2a752a29f1513afa7297",
      "transactionType": "CALL",
      "contractName": null,
      "contractAddress": "0xf077d4d0508505c5a80249afc10bc6ead90e47f1",
      "function": "makeCrime(uint8)",
      "arguments": [
        "0"
      ],
      "transaction": {
        "from": "0xeca7a53ba6a190c5d205bfdc7707cbc3399336c1",
        "to": "0xf077d4d0508505c5a80249afc10bc6ead90e47f1",
        "gas": "0x54ec2",
        "value": "0x0",
        "input": "0xc625abb40000000000000000000000000000000000000000000000000000000000000000",
        "nonce": "0x388",
        "chainId": "0x171"
      },
      "additionalContracts": [],
      "isFixedGasLimit": false
    }
  ],
  "receipts": [
    {
      "status": "0x1",
      "cumulativeGasUsed": "0x1afcb9e",
      "logs": [
        {
          "address": "0xdcd5e9c0b2b4e9cb93677a258521d854b3a9f5a1",
          "topics": [
            "0x0bff5315606c84d1cee047503678048ca39946be11bfdd5a8c03fe5e272d98e3"
          ],
          "data": "0x000000000000000000000000eca7a53ba6a190c5d205bfdc7707cbc3399336c1000000000000000000000000000000000000000000000000000000006979a17b0000000000000000000000000000000000000000000000000000000000000000",
          "blockHash": "0x0e6f8c595c037f1fc08f26d3c375b2ef4f9a4055eebaef4b31d00bf7639ce741",
          "blockNumber": "0x187434a",
          "transactionHash": "0xb6dd701adfe1a6b99a275906339db584e008d335e55f2a752a29f1513afa7297",
          "transactionIndex": "0x3f",
          "logIndex": "0x3ab",
          "removed": false
        },
        {
          "address": "0xf077d4d0508505c5a80249afc10bc6ead90e47f1",
          "topics": [
            "0xe36ceebd3770780c5617d53efc7d77328074f1248146245ed3b854cbf651fb37"
          ],
          "data": "0x000000000000000000000000eca7a53ba6a190c5d205bfdc7707cbc3399336c1000000000000000000000000000000000000000000000000000000000000000000000000000000000000000000000000000000000000000000000000000000000000000000000000000000000000000000000000000000000000000000000001000000000000000000000000000000000000000000000000000000000000000000000000000000000000000000000000000000000000000000000000000000000000000000000000000000000000000000000000000000000000000069799fb90000000000000000000000000000000000000000000000000000000069799c35",
          "blockHash": "0x0e6f8c595c037f1fc08f26d3c375b2ef4f9a4055eebaef4b31d00bf7639ce741",
          "blockNumber": "0x187434a",
          "transactionHash": "0xb6dd701adfe1a6b99a275906339db584e008d335e55f2a752a29f1513afa7297",
          "transactionIndex": "0x3f",
          "logIndex": "0x3ac",
          "removed": false
        }
      ],
      "logsBloom": "0x00000000000000000000000000000000010000000000000000000000400000000000000000000000000000000000000000000000000000000000000000000000000000000000000000000000000000000000000000000000001000000000000000000000000000000000000000000000400000000080000000000000000000000000000000000000000000100000000000000000000020000000000000000000000000000000000000000000000000000000000000000000400000000000000000000000000000000100000000000040000000000000000000000000000000000000000000000000000000000000000000000000000000000000000000001002",
      "type": "0x2",
      "transactionHash": "0xb6dd701adfe1a6b99a275906339db584e008d335e55f2a752a29f1513afa7297",
      "transactionIndex": "0x3f",
      "blockHash": "0x0e6f8c595c037f1fc08f26d3c375b2ef4f9a4055eebaef4b31d00bf7639ce741",
      "blockNumber": "0x187434a",
      "gasUsed": "0x2f030",
      "effectiveGasPrice": "0x1f946f8dc6eca",
      "from": "0xeca7a53ba6a190c5d205bfdc7707cbc3399336c1",
      "to": "0xf077d4d0508505c5a80249afc10bc6ead90e47f1",
      "contractAddress": null
    }
  ],
  "libraries": [],
  "pending": [],
  "returns": {},
  "timestamp": 1769577526833,
  "chain": 369,
  "commit": null
}