{
  "transactions": [
    {
      "hash": "0x8dd2efa6c2d24fd414137b93f97954dd7d536521072424f2c40f950aac34f1a6",
      "transactionType": "CALL",
      "contractName": null,
      "contractAddress": "0xf077d4d0508505c5a80249afc10bc6ead90e47f1",
      "function": "makeCrime(uint8)",
      "arguments": [
        "0"
      ],
      "transaction": {
        "from": "0x4c62f6121e6f967a0872da8364995e9b68c1e82f",
        "to": "0xf077d4d0508505c5a80249afc10bc6ead90e47f1",
        "gas": "0x2a297",
        "value": "0x0",
        "input": "0xc625abb40000000000000000000000000000000000000000000000000000000000000000",
        "nonce": "0x765",
        "chainId": "0x171"
      },
      "additionalContracts": [],
      "isFixedGasLimit": false
    }
  ],
  "receipts": [
    {
      "status": "0x1",
      "cumulativeGasUsed": "0x13b42b2",
      "logs": [
        {
          "address": "0xf077d4d0508505c5a80249afc10bc6ead90e47f1",
          "topics": [
            "0xe36ceebd3770780c5617d53efc7d77328074f1248146245ed3b854cbf651fb37"
          ],
          "data": "0x0000000000000000000000004c62f6121e6f967a0872da8364995e9b68c1e82f0000000000000000000000000000000000000000000000000000000000000000000000000000000000000000000000000000000000000000000000000000000000000000000000000000000000000000000000000000000000000000000000000000000000000000000000000000000000000000000000000000000000000000000000000000000000000000000000000000000000000000000000000000000000000000000000000000000000000000000000000000000000000000697b2f7d00000000000000000000000000000000000000000000000000000000697b2bf9",
          "blockHash": "0xf59b61553b82a025552764086ca0f1315a91e70b495453786569e42d9817741b",
          "blockNumber": "0x1876a54",
          "transactionHash": "0x8dd2efa6c2d24fd414137b93f97954dd7d536521072424f2c40f950aac34f1a6",
          "transactionIndex": "0x24",
          "logIndex": "0x405",
          "removed": false
        }
      ],
      "logsBloom": "0x00000000000000000000000000000000000000000000000000000000400000000000000000000000000000000000000000000000000000000000000000000000000000000000000000000000000000000000000000000000000000000000000000000000000000000000000000000000400000000000000000000000000000000000000000000000000000100000000000000000000020000000000000000000000000000000000000000000000000000000000000000000000000000000000000000000000000000100000000000000000000000000000000000000000000000000000000000000000000000000000000000000000000000000000000000002",
      "type": "0x2",
      "transactionHash": "0x8dd2efa6c2d24fd414137b93f97954dd7d536521072424f2c40f950aac34f1a6",
      "transactionIndex": "0x24",
      "blockHash": "0xf59b61553b82a025552764086ca0f1315a91e70b495453786569e42d9817741b",
      "blockNumber": "0x1876a54",
      "gasUsed": "0x1e865",
      "effectiveGasPrice": "0x1abbc1dd0025f",
      "from": "0x4c62f6121e6f967a0872da8364995e9b68c1e82f",
      "to": "0xf077d4d0508505c5a80249afc10bc6ead90e47f1",
      "contractAddress": null
    }
  ],
  "libraries": [],
  "pending": [],
  "returns": {},
  "timestamp": 1769679866070,
  "chain": 369,
  "commit": null
}