{
  "transactions": [
    {
      "hash": "0x67d51ddb1de77f030752703b9b1c33bd40443b6a2feca21150bf50fb24b9b761",
      "transactionType": "CALL",
      "contractName": null,
      "contractAddress": "0xf077d4d0508505c5a80249afc10bc6ead90e47f1",
      "function": "makeCrime(uint8)",
      "arguments": [
        "0"
      ],
      "transaction": {
        "from": "0xac56dc5a4a9de0197f7b8f584ea04ec7e0123dde",
        "to": "0xf077d4d0508505c5a80249afc10bc6ead90e47f1",
        "gas": "0x3f872",
        "value": "0x0",
        "input": "0xc625abb40000000000000000000000000000000000000000000000000000000000000000",
        "nonce": "0x27d",
        "chainId": "0x171"
      },
      "additionalContracts": [],
      "isFixedGasLimit": false
    }
  ],
  "receipts": [
    {
      "status": "0x1",
      "cumulativeGasUsed": "0x5c7dcb",
      "logs": [
        {
          "address": "0x74eadd7ebeeed638fd7c413134fa3d3433699d92",
          "topics": [
            "0x570f308d592bed3a47a73125665ce3b81fe296da89acff1af6d926e08a0a9f12"
          ],
          "data": "0x000000000000000000000000ac56dc5a4a9de0197f7b8f584ea04ec7e0123dde0000000000000000000000000000000000000000000000000000000000036d0f",
          "blockHash": "0x292b19b3624a8aa59f3f62a82b2a5a0106cd5e79f37e9399d0d09f76c5206451",
          "blockNumber": "0x1866765",
          "transactionHash": "0x67d51ddb1de77f030752703b9b1c33bd40443b6a2feca21150bf50fb24b9b761",
          "transactionIndex": "0x1f",
          "logIndex": "0xa1",
          "removed": false
        },
        {
          "address": "0xf077d4d0508505c5a80249afc10bc6ead90e47f1",
          "topics": [
            "0xe36ceebd3770780c5617d53efc7d77328074f1248146245ed3b854cbf651fb37"
          ],
          "data": "0x000000000000000000000000ac56dc5a4a9de0197f7b8f584ea04ec7e0123dde00000000000000000000000000000000000000000000000000000000000000000000000000000000000000000000000000000000000000000000000000000001000000000000000000000000000000000000000000000000000000000000000000000000000000000000000000000000000000000000000e0a58d7c25a2c00000000000000000000000000000000000000000000000000000000000000000064000000000000000000000000000000000000000000000000000000006970cec5000000000000000000000000000000000000000000000000000000006970cb41",
          "blockHash": "0x292b19b3624a8aa59f3f62a82b2a5a0106cd5e79f37e9399d0d09f76c5206451",
          "blockNumber": "0x1866765",
          "transactionHash": "0x67d51ddb1de77f030752703b9b1c33bd40443b6a2feca21150bf50fb24b9b761",
          "transactionIndex": "0x1f",
          "logIndex": "0xa2",
          "removed": false
        }
      ],
      "logsBloom": "0x00000000000000000000000000000000004000000000000000000000400000000000000000000000000000000000000000000000000000000000000000000000000000000000000000008000000000000000000000000000000000000000000000000100000000000000000000000000400000000000000000000000000000000000000000000000000000100000000000000000000020000000000000000008000000000000000000000000000000000010000000000000000000000000000000000000000002000100000000000000000000000000000000000000000000000000000000000000000000000000000000000000000000000000000000000002",
      "type": "0x2",
      "transactionHash": "0x67d51ddb1de77f030752703b9b1c33bd40443b6a2feca21150bf50fb24b9b761",
      "transactionIndex": "0x1f",
      "blockHash": "0x292b19b3624a8aa59f3f62a82b2a5a0106cd5e79f37e9399d0d09f76c5206451",
      "blockNumber": "0x1866765",
      "gasUsed": "0x3cf70",
      "effectiveGasPrice": "0xe4d13c9a57d2",
      "from": "0xac56dc5a4a9de0197f7b8f584ea04ec7e0123dde",
      "to": "0xf077d4d0508505c5a80249afc10bc6ead90e47f1",
      "contractAddress": null
    }
  ],
  "libraries": [],
  "pending": [],
  "returns": {},
  "timestamp": 1768999746076,
  "chain": 369,
  "commit": "953695a"
}