{
  "transactions": [
    {
      "hash": "0xff949dca8584cbf53e32a53e9aaf41643f257592426fd97d261ac99ee00b1e58",
      "transactionType": "CALL",
      "contractName": null,
      "contractAddress": "0xf077d4d0508505c5a80249afc10bc6ead90e47f1",
      "function": "makeCrime(uint8)",
      "arguments": [
        "0"
      ],
      "transaction": {
        "from": "0xec646a6c9000e04d050435340d9c42c039eb5648",
        "to": "0xf077d4d0508505c5a80249afc10bc6ead90e47f1",
        "gas": "0x409a4",
        "value": "0x0",
        "input": "0xc625abb40000000000000000000000000000000000000000000000000000000000000000",
        "nonce": "0x37",
        "chainId": "0x171"
      },
      "additionalContracts": [],
      "isFixedGasLimit": false
    }
  ],
  "receipts": [
    {
      "status": "0x1",
      "cumulativeGasUsed": "0x257da6e",
      "logs": [
        {
          "address": "0xf077d4d0508505c5a80249afc10bc6ead90e47f1",
          "topics": [
            "0xe36ceebd3770780c5617d53efc7d77328074f1248146245ed3b854cbf651fb37"
          ],
          "data": "0x000000000000000000000000ec646a6c9000e04d050435340d9c42c039eb564800000000000000000000000000000000000000000000000000000000000000000000000000000000000000000000000000000000000000000000000000000000000000000000000000000000000000000000000000000000000000000000000000000000000000000000000000000000000000000000000000000000000000000000000000000000000000000000000000000000000000000000000000000000000000000000000000000000000000000000000000000000000000006987e867000000000000000000000000000000000000000000000000000000006987e4e3",
          "blockHash": "0x6e7a2c14047a9ef63bbe1161423a30e6357f4c321a4e1dcc1e9f711c61e1c1d5",
          "blockNumber": "0x188a7cd",
          "transactionHash": "0xff949dca8584cbf53e32a53e9aaf41643f257592426fd97d261ac99ee00b1e58",
          "transactionIndex": "0x90",
          "logIndex": "0x7a1",
          "removed": false
        }
      ],
      "logsBloom": "0x00000000000000000000000000000000000000000000000000000000400000000000000000000000000000000000000000000000000000000000000000000000000000000000000000000000000000000000000000000000000000000000000000000000000000000000000000000000400000000000000000000000000000000000000000000000000000100000000000000000000020000000000000000000000000000000000000000000000000000000000000000000000000000000000000000000000000000100000000000000000000000000000000000000000000000000000000000000000000000000000000000000000000000000000000000002",
      "type": "0x2",
      "transactionHash": "0xff949dca8584cbf53e32a53e9aaf41643f257592426fd97d261ac99ee00b1e58",
      "transactionIndex": "0x90",
      "blockHash": "0x6e7a2c14047a9ef63bbe1161423a30e6357f4c321a4e1dcc1e9f711c61e1c1d5",
      "blockNumber": "0x188a7cd",
      "gasUsed": "0x1e865",
      "effectiveGasPrice": "0x2954cd3f67ce5",
      "from": "0xec646a6c9000e04d050435340d9c42c039eb5648",
      "to": "0xf077d4d0508505c5a80249afc10bc6ead90e47f1",
      "contractAddress": null
    }
  ],
  "libraries": [],
  "pending": [],
  "returns": {},
  "timestamp": 1770513636769,
  "chain": 369,
  "commit": null
}