{
  "transactions": [
    {
      "hash": "0x0ba480272b05d6e11d149cf7de33306422bc59b976c5c52ea6c3b69232ae47db",
      "transactionType": "CALL",
      "contractName": null,
      "contractAddress": "0xf077d4d0508505c5a80249afc10bc6ead90e47f1",
      "function": "makeCrime(uint8)",
      "arguments": [
        "0"
      ],
      "transaction": {
        "from": "0xeca7a53ba6a190c5d205bfdc7707cbc3399336c1",
        "to": "0xf077d4d0508505c5a80249afc10bc6ead90e47f1",
        "gas": "0x54ec2",
        "value": "0x0",
        "input": "0xc625abb40000000000000000000000000000000000000000000000000000000000000000",
        "nonce": "0x385",
        "chainId": "0x171"
      },
      "additionalContracts": [],
      "isFixedGasLimit": false
    }
  ],
  "receipts": [
    {
      "status": "0x1",
      "cumulativeGasUsed": "0x158e0b7",
      "logs": [
        {
          "address": "0x74eadd7ebeeed638fd7c413134fa3d3433699d92",
          "topics": [
            "0x570f308d592bed3a47a73125665ce3b81fe296da89acff1af6d926e08a0a9f12"
          ],
          "data": "0x000000000000000000000000eca7a53ba6a190c5d205bfdc7707cbc3399336c1000000000000000000000000000000000000000000000000000000000002307a",
          "blockHash": "0x8a5bf95daa1462e8adfe9739843714531bb7b059caec6ce8d6c8af6c753ae0c6",
          "blockNumber": "0x1874257",
          "transactionHash": "0x0ba480272b05d6e11d149cf7de33306422bc59b976c5c52ea6c3b69232ae47db",
          "transactionIndex": "0x5c",
          "logIndex": "0x479",
          "removed": false
        },
        {
          "address": "0xf077d4d0508505c5a80249afc10bc6ead90e47f1",
          "topics": [
            "0xe36ceebd3770780c5617d53efc7d77328074f1248146245ed3b854cbf651fb37"
          ],
          "data": "0x000000000000000000000000eca7a53ba6a190c5d205bfdc7707cbc3399336c1000000000000000000000000000000000000000000000000000000000000000000000000000000000000000000000000000000000000000000000000000000010000000000000000000000000000000000000000000000000000000000000000000000000000000000000000000000000000000000000011d5cacce21f840000000000000000000000000000000000000000000000000000000000000000001400000000000000000000000000000000000000000000000000000000697995ff000000000000000000000000000000000000000000000000000000006979927b",
          "blockHash": "0x8a5bf95daa1462e8adfe9739843714531bb7b059caec6ce8d6c8af6c753ae0c6",
          "blockNumber": "0x1874257",
          "transactionHash": "0x0ba480272b05d6e11d149cf7de33306422bc59b976c5c52ea6c3b69232ae47db",
          "transactionIndex": "0x5c",
          "logIndex": "0x47a",
          "removed": false
        }
      ],
      "logsBloom": "0x00000000000000000000000000000000004000000000000000000000400000000000000000000000000000000000000000000000000000000000000000000000000000000000000000008000000000000000000000000000000000000000000000000100000000000000000000000000400000000000000000000000000000000000000000000000000000100000000000000000000020000000000000000008000000000000000000000000000000000010000000000000000000000000000000000000000002000100000000000000000000000000000000000000000000000000000000000000000000000000000000000000000000000000000000000002",
      "type": "0x2",
      "transactionHash": "0x0ba480272b05d6e11d149cf7de33306422bc59b976c5c52ea6c3b69232ae47db",
      "transactionIndex": "0x5c",
      "blockHash": "0x8a5bf95daa1462e8adfe9739843714531bb7b059caec6ce8d6c8af6c753ae0c6",
      "blockNumber": "0x1874257",
      "gasUsed": "0x3d7b8",
      "effectiveGasPrice": "0x34097f6a8167b",
      "from": "0xeca7a53ba6a190c5d205bfdc7707cbc3399336c1",
      "to": "0xf077d4d0508505c5a80249afc10bc6ead90e47f1",
      "contractAddress": null
    }
  ],
  "libraries": [],
  "pending": [],
  "returns": {},
  "timestamp": 1769575036591,
  "chain": 369,
  "commit": null
}