{
  "transactions": [
    {
      "hash": "0xbd78bb3c634b42e7a92a2fb9abe48ab7128703a23ff29083f2993f9fba635bc5",
      "transactionType": "CALL",
      "contractName": null,
      "contractAddress": "0xf077d4d0508505c5a80249afc10bc6ead90e47f1",
      "function": "makeCrime(uint8)",
      "arguments": [
        "0"
      ],
      "transaction": {
        "from": "0xeca7a53ba6a190c5d205bfdc7707cbc3399336c1",
        "to": "0xf077d4d0508505c5a80249afc10bc6ead90e47f1",
        "gas": "0x55e10",
        "value": "0x0",
        "input": "0xc625abb40000000000000000000000000000000000000000000000000000000000000000",
        "nonce": "0x59b",
        "chainId": "0x171"
      },
      "additionalContracts": [],
      "isFixedGasLimit": false
    }
  ],
  "receipts": [
    {
      "status": "0x1",
      "cumulativeGasUsed": "0x1869b2a",
      "logs": [
        {
          "address": "0x74eadd7ebeeed638fd7c413134fa3d3433699d92",
          "topics": [
            "0x570f308d592bed3a47a73125665ce3b81fe296da89acff1af6d926e08a0a9f12"
          ],
          "data": "0x000000000000000000000000eca7a53ba6a190c5d205bfdc7707cbc3399336c10000000000000000000000000000000000000000000000000000000000023caa",
          "blockHash": "0x8c66fe114cd775f06363ba3117d124c72ad9e09977da1c3c5accbd406e37b62f",
          "blockNumber": "0x188b196",
          "transactionHash": "0xbd78bb3c634b42e7a92a2fb9abe48ab7128703a23ff29083f2993f9fba635bc5",
          "transactionIndex": "0x43",
          "logIndex": "0x3dd",
          "removed": false
        },
        {
          "address": "0xf077d4d0508505c5a80249afc10bc6ead90e47f1",
          "topics": [
            "0xe36ceebd3770780c5617d53efc7d77328074f1248146245ed3b854cbf651fb37"
          ],
          "data": "0x000000000000000000000000eca7a53ba6a190c5d205bfdc7707cbc3399336c10000000000000000000000000000000000000000000000000000000000000000000000000000000000000000000000000000000000000000000000000000000100000000000000000000000000000000000000000000000000000000000000000000000000000000000000000000000000000000000000161042779f1ffc000000000000000000000000000000000000000000000000000000000000000000140000000000000000000000000000000000000000000000000000000069884c5d00000000000000000000000000000000000000000000000000000000698848d9",
          "blockHash": "0x8c66fe114cd775f06363ba3117d124c72ad9e09977da1c3c5accbd406e37b62f",
          "blockNumber": "0x188b196",
          "transactionHash": "0xbd78bb3c634b42e7a92a2fb9abe48ab7128703a23ff29083f2993f9fba635bc5",
          "transactionIndex": "0x43",
          "logIndex": "0x3de",
          "removed": false
        }
      ],
      "logsBloom": "0x00000000000000000000000000000000004000000000000000000000400000000000000000000000000000000000000000000000000000000000000000000000000000000000000000008000000000000000000000000000000000000000000000000100000000000000000000000000400000000000000000000000000000000000000000000000000000100000000000000000000020000000000000000008000000000000000000000000000000000010000000000000000000000000000000000000000002000100000000000000000000000000000000000000000000000000000000000000000000000000000000000000000000000000000000000002",
      "type": "0x2",
      "transactionHash": "0xbd78bb3c634b42e7a92a2fb9abe48ab7128703a23ff29083f2993f9fba635bc5",
      "transactionIndex": "0x43",
      "blockHash": "0x8c66fe114cd775f06363ba3117d124c72ad9e09977da1c3c5accbd406e37b62f",
      "blockNumber": "0x188b196",
      "gasUsed": "0x3e2cd",
      "effectiveGasPrice": "0x257c309f79b72",
      "from": "0xeca7a53ba6a190c5d205bfdc7707cbc3399336c1",
      "to": "0xf077d4d0508505c5a80249afc10bc6ead90e47f1",
      "contractAddress": null
    }
  ],
  "libraries": [],
  "pending": [],
  "returns": {},
  "timestamp": 1770539226755,
  "chain": 369,
  "commit": null
}