{
  "transactions": [
    {
      "hash": "0x4c44a737da2a3a478a6f2754f9b78833c6f006e20b06c2fbd719804784074fac",
      "transactionType": "CALL",
      "contractName": null,
      "contractAddress": "0xf077d4d0508505c5a80249afc10bc6ead90e47f1",
      "function": "makeCrime(uint8)",
      "arguments": [
        "0"
      ],
      "transaction": {
        "from": "0xeca7a53ba6a190c5d205bfdc7707cbc3399336c1",
        "to": "0xf077d4d0508505c5a80249afc10bc6ead90e47f1",
        "gas": "0x41b40",
        "value": "0x0",
        "input": "0xc625abb40000000000000000000000000000000000000000000000000000000000000000",
        "nonce": "0x5a8",
        "chainId": "0x171"
      },
      "additionalContracts": [],
      "isFixedGasLimit": false
    }
  ],
  "receipts": [
    {
      "status": "0x1",
      "cumulativeGasUsed": "0x695098",
      "logs": [
        {
          "address": "0xdcd5e9c0b2b4e9cb93677a258521d854b3a9f5a1",
          "topics": [
            "0x0bff5315606c84d1cee047503678048ca39946be11bfdd5a8c03fe5e272d98e3"
          ],
          "data": "0x000000000000000000000000eca7a53ba6a190c5d205bfdc7707cbc3399336c100000000000000000000000000000000000000000000000000000000698874210000000000000000000000000000000000000000000000000000000000000000",
          "blockHash": "0xf4de8577e697bf27edbc3d1fe0a7778fdb311c38dee064a07629bab7ec5b3931",
          "blockNumber": "0x188b544",
          "transactionHash": "0x4c44a737da2a3a478a6f2754f9b78833c6f006e20b06c2fbd719804784074fac",
          "transactionIndex": "0x19",
          "logIndex": "0x73",
          "removed": false
        },
        {
          "address": "0xf077d4d0508505c5a80249afc10bc6ead90e47f1",
          "topics": [
            "0xe36ceebd3770780c5617d53efc7d77328074f1248146245ed3b854cbf651fb37"
          ],
          "data": "0x000000000000000000000000eca7a53ba6a190c5d205bfdc7707cbc3399336c100000000000000000000000000000000000000000000000000000000000000000000000000000000000000000000000000000000000000000000000000000000000000000000000000000000000000000000000000000000000000000000000100000000000000000000000000000000000000000000000000000000000000000000000000000000000000000000000000000000000000000000000000000000000000000000000000000000000000000000000000000000000000006988725f0000000000000000000000000000000000000000000000000000000069886edb",
          "blockHash": "0xf4de8577e697bf27edbc3d1fe0a7778fdb311c38dee064a07629bab7ec5b3931",
          "blockNumber": "0x188b544",
          "transactionHash": "0x4c44a737da2a3a478a6f2754f9b78833c6f006e20b06c2fbd719804784074fac",
          "transactionIndex": "0x19",
          "logIndex": "0x74",
          "removed": false
        }
      ],
      "logsBloom": "0x00000000000000000000000000000000010000000000000000000000400000000000000000000000000000000000000000000000000000000000000000000000000000000000000000000000000000000000000000000000001000000000000000000000000000000000000000000000400000000080000000000000000000000000000000000000000000100000000000000000000020000000000000000000000000000000000000000000000000000000000000000000400000000000000000000000000000000100000000000040000000000000000000000000000000000000000000000000000000000000000000000000000000000000000000001002",
      "type": "0x2",
      "transactionHash": "0x4c44a737da2a3a478a6f2754f9b78833c6f006e20b06c2fbd719804784074fac",
      "transactionIndex": "0x19",
      "blockHash": "0xf4de8577e697bf27edbc3d1fe0a7778fdb311c38dee064a07629bab7ec5b3931",
      "blockNumber": "0x188b544",
      "gasUsed": "0x2f917",
      "effectiveGasPrice": "0x2ccc7000f439b",
      "from": "0xeca7a53ba6a190c5d205bfdc7707cbc3399336c1",
      "to": "0xf077d4d0508505c5a80249afc10bc6ead90e47f1",
      "contractAddress": null
    }
  ],
  "libraries": [],
  "pending": [],
  "returns": {},
  "timestamp": 1770548955783,
  "chain": 369,
  "commit": null
}