{
  "transactions": [
    {
      "hash": "0x260e322b36d3c7eac09b15a3ffc213fdcdaa8979dc79fd01208bc47383b1b615",
      "transactionType": "CALL",
      "contractName": null,
      "contractAddress": "0xf077d4d0508505c5a80249afc10bc6ead90e47f1",
      "function": "makeCrime(uint8)",
      "arguments": [
        "0"
      ],
      "transaction": {
        "from": "0xeca7a53ba6a190c5d205bfdc7707cbc3399336c1",
        "to": "0xf077d4d0508505c5a80249afc10bc6ead90e47f1",
        "gas": "0x54ec2",
        "value": "0x0",
        "input": "0xc625abb40000000000000000000000000000000000000000000000000000000000000000",
        "nonce": "0x300",
        "chainId": "0x171"
      },
      "additionalContracts": [],
      "isFixedGasLimit": false
    }
  ],
  "receipts": [
    {
      "status": "0x1",
      "cumulativeGasUsed": "0xdef771",
      "logs": [
        {
          "address": "0xf077d4d0508505c5a80249afc10bc6ead90e47f1",
          "topics": [
            "0xe36ceebd3770780c5617d53efc7d77328074f1248146245ed3b854cbf651fb37"
          ],
          "data": "0x000000000000000000000000eca7a53ba6a190c5d205bfdc7707cbc3399336c100000000000000000000000000000000000000000000000000000000000000000000000000000000000000000000000000000000000000000000000000000000000000000000000000000000000000000000000000000000000000000000000000000000000000000000000000000000000000000000000000000000000000000000000000000000000000000000000000000000000000000000000000000000000000000000000000000000000000000000000000000000000000006977bb09000000000000000000000000000000000000000000000000000000006977b785",
          "blockHash": "0xd1ae50e67d129ceed9a0d4c4959c7a99d9116e59d649901772dd49d1bc087443",
          "blockNumber": "0x18713db",
          "transactionHash": "0x260e322b36d3c7eac09b15a3ffc213fdcdaa8979dc79fd01208bc47383b1b615",
          "transactionIndex": "0x4c",
          "logIndex": "0x130",
          "removed": false
        }
      ],
      "logsBloom": "0x00000000000000000000000000000000000000000000000000000000400000000000000000000000000000000000000000000000000000000000000000000000000000000000000000000000000000000000000000000000000000000000000000000000000000000000000000000000400000000000000000000000000000000000000000000000000000100000000000000000000020000000000000000000000000000000000000000000000000000000000000000000000000000000000000000000000000000100000000000000000000000000000000000000000000000000000000000000000000000000000000000000000000000000000000000002",
      "type": "0x2",
      "transactionHash": "0x260e322b36d3c7eac09b15a3ffc213fdcdaa8979dc79fd01208bc47383b1b615",
      "transactionIndex": "0x4c",
      "blockHash": "0xd1ae50e67d129ceed9a0d4c4959c7a99d9116e59d649901772dd49d1bc087443",
      "blockNumber": "0x18713db",
      "gasUsed": "0x1f525",
      "effectiveGasPrice": "0x314c88281fb43",
      "from": "0xeca7a53ba6a190c5d205bfdc7707cbc3399336c1",
      "to": "0xf077d4d0508505c5a80249afc10bc6ead90e47f1",
      "contractAddress": null
    }
  ],
  "libraries": [],
  "pending": [],
  "returns": {},
  "timestamp": 1769453446103,
  "chain": 369,
  "commit": "953695a"
}