{
  "transactions": [
    {
      "hash": "0x602dfff9b14f84ff5320b0329e26aa680c3d5044c92e9637916e82140349855e",
      "transactionType": "CALL",
      "contractName": null,
      "contractAddress": "0xf077d4d0508505c5a80249afc10bc6ead90e47f1",
      "function": "makeCrime(uint8)",
      "arguments": [
        "0"
      ],
      "transaction": {
        "from": "0x4c62f6121e6f967a0872da8364995e9b68c1e82f",
        "to": "0xf077d4d0508505c5a80249afc10bc6ead90e47f1",
        "gas": "0x2a297",
        "value": "0x0",
        "input": "0xc625abb40000000000000000000000000000000000000000000000000000000000000000",
        "nonce": "0x716",
        "chainId": "0x171"
      },
      "additionalContracts": [],
      "isFixedGasLimit": false
    }
  ],
  "receipts": [
    {
      "status": "0x1",
      "cumulativeGasUsed": "0x262d097",
      "logs": [
        {
          "address": "0xf077d4d0508505c5a80249afc10bc6ead90e47f1",
          "topics": [
            "0xe36ceebd3770780c5617d53efc7d77328074f1248146245ed3b854cbf651fb37"
          ],
          "data": "0x0000000000000000000000004c62f6121e6f967a0872da8364995e9b68c1e82f000000000000000000000000000000000000000000000000000000000000000000000000000000000000000000000000000000000000000000000000000000000000000000000000000000000000000000000000000000000000000000000000000000000000000000000000000000000000000000000000000000000000000000000000000000000000000000000000000000000000000000000000000000000000000000000000000000000000000000000000000000000000000069798e250000000000000000000000000000000000000000000000000000000069798aa1",
          "blockHash": "0x43f200a52ac433fcfe281216035fc5378e8ab72f79b6e8751c9cc3d31969d8a1",
          "blockNumber": "0x1874191",
          "transactionHash": "0x602dfff9b14f84ff5320b0329e26aa680c3d5044c92e9637916e82140349855e",
          "transactionIndex": "0x6f",
          "logIndex": "0x207",
          "removed": false
        }
      ],
      "logsBloom": "0x00000000000000000000000000000000000000000000000000000000400000000000000000000000000000000000000000000000000000000000000000000000000000000000000000000000000000000000000000000000000000000000000000000000000000000000000000000000400000000000000000000000000000000000000000000000000000100000000000000000000020000000000000000000000000000000000000000000000000000000000000000000000000000000000000000000000000000100000000000000000000000000000000000000000000000000000000000000000000000000000000000000000000000000000000000002",
      "type": "0x2",
      "transactionHash": "0x602dfff9b14f84ff5320b0329e26aa680c3d5044c92e9637916e82140349855e",
      "transactionIndex": "0x6f",
      "blockHash": "0x43f200a52ac433fcfe281216035fc5378e8ab72f79b6e8751c9cc3d31969d8a1",
      "blockNumber": "0x1874191",
      "gasUsed": "0x1e865",
      "effectiveGasPrice": "0x3341788cc7bde",
      "from": "0x4c62f6121e6f967a0872da8364995e9b68c1e82f",
      "to": "0xf077d4d0508505c5a80249afc10bc6ead90e47f1",
      "contractAddress": null
    }
  ],
  "libraries": [],
  "pending": [],
  "returns": {},
  "timestamp": 1769573026253,
  "chain": 369,
  "commit": null
}