{
  "transactions": [
    {
      "hash": "0xd462ad3537f7c2d3f8ed223834c78794b6c4e58784777633a5b859ba8afb879c",
      "transactionType": "CALL",
      "contractName": null,
      "contractAddress": "0xf077d4d0508505c5a80249afc10bc6ead90e47f1",
      "function": "makeCrime(uint8)",
      "arguments": [
        "0"
      ],
      "transaction": {
        "from": "0xec646a6c9000e04d050435340d9c42c039eb5648",
        "to": "0xf077d4d0508505c5a80249afc10bc6ead90e47f1",
        "gas": "0x409a4",
        "value": "0x0",
        "input": "0xc625abb40000000000000000000000000000000000000000000000000000000000000000",
        "nonce": "0x3d",
        "chainId": "0x171"
      },
      "additionalContracts": [],
      "isFixedGasLimit": false
    }
  ],
  "receipts": [
    {
      "status": "0x1",
      "cumulativeGasUsed": "0xb3f84e",
      "logs": [
        {
          "address": "0xdcd5e9c0b2b4e9cb93677a258521d854b3a9f5a1",
          "topics": [
            "0x0bff5315606c84d1cee047503678048ca39946be11bfdd5a8c03fe5e272d98e3"
          ],
          "data": "0x000000000000000000000000ec646a6c9000e04d050435340d9c42c039eb564800000000000000000000000000000000000000000000000000000000698807070000000000000000000000000000000000000000000000000000000000000000",
          "blockHash": "0xaa78406a3904e142dca5caaa84bb3041f70e65b320a9a5f8f9ff2d57536e7cf4",
          "blockNumber": "0x188aaa5",
          "transactionHash": "0xd462ad3537f7c2d3f8ed223834c78794b6c4e58784777633a5b859ba8afb879c",
          "transactionIndex": "0x24",
          "logIndex": "0x12e",
          "removed": false
        },
        {
          "address": "0xf077d4d0508505c5a80249afc10bc6ead90e47f1",
          "topics": [
            "0xe36ceebd3770780c5617d53efc7d77328074f1248146245ed3b854cbf651fb37"
          ],
          "data": "0x000000000000000000000000ec646a6c9000e04d050435340d9c42c039eb564800000000000000000000000000000000000000000000000000000000000000000000000000000000000000000000000000000000000000000000000000000000000000000000000000000000000000000000000000000000000000000000000100000000000000000000000000000000000000000000000000000000000000000000000000000000000000000000000000000000000000000000000000000000000000000000000000000000000000000000000000000000000000006988054500000000000000000000000000000000000000000000000000000000698801c1",
          "blockHash": "0xaa78406a3904e142dca5caaa84bb3041f70e65b320a9a5f8f9ff2d57536e7cf4",
          "blockNumber": "0x188aaa5",
          "transactionHash": "0xd462ad3537f7c2d3f8ed223834c78794b6c4e58784777633a5b859ba8afb879c",
          "transactionIndex": "0x24",
          "logIndex": "0x12f",
          "removed": false
        }
      ],
      "logsBloom": "0x00000000000000000000000000000000010000000000000000000000400000000000000000000000000000000000000000000000000000000000000000000000000000000000000000000000000000000000000000000000001000000000000000000000000000000000000000000000400000000080000000000000000000000000000000000000000000100000000000000000000020000000000000000000000000000000000000000000000000000000000000000000400000000000000000000000000000000100000000000040000000000000000000000000000000000000000000000000000000000000000000000000000000000000000000001002",
      "type": "0x2",
      "transactionHash": "0xd462ad3537f7c2d3f8ed223834c78794b6c4e58784777633a5b859ba8afb879c",
      "transactionIndex": "0x24",
      "blockHash": "0xaa78406a3904e142dca5caaa84bb3041f70e65b320a9a5f8f9ff2d57536e7cf4",
      "blockNumber": "0x188aaa5",
      "gasUsed": "0x2ec57",
      "effectiveGasPrice": "0x2d0bba298230e",
      "from": "0xec646a6c9000e04d050435340d9c42c039eb5648",
      "to": "0xf077d4d0508505c5a80249afc10bc6ead90e47f1",
      "contractAddress": null
    }
  ],
  "libraries": [],
  "pending": [],
  "returns": {},
  "timestamp": 1770521026614,
  "chain": 369,
  "commit": null
}