{
  "transactions": [
    {
      "hash": "0xbdb08d4fc4eb7537252bec25c49667a899dd24d0330c1534b5e57cd5d371a3cb",
      "transactionType": "CALL",
      "contractName": null,
      "contractAddress": "0xf077d4d0508505c5a80249afc10bc6ead90e47f1",
      "function": "makeCrime(uint8)",
      "arguments": [
        "0"
      ],
      "transaction": {
        "from": "0x4c62f6121e6f967a0872da8364995e9b68c1e82f",
        "to": "0xf077d4d0508505c5a80249afc10bc6ead90e47f1",
        "gas": "0x2ca9e",
        "value": "0x0",
        "input": "0xc625abb40000000000000000000000000000000000000000000000000000000000000000",
        "nonce": "0x6fe",
        "chainId": "0x171"
      },
      "additionalContracts": [],
      "isFixedGasLimit": false
    }
  ],
  "receipts": [
    {
      "status": "0x1",
      "cumulativeGasUsed": "0x23aeb69",
      "logs": [
        {
          "address": "0xf077d4d0508505c5a80249afc10bc6ead90e47f1",
          "topics": [
            "0xe36ceebd3770780c5617d53efc7d77328074f1248146245ed3b854cbf651fb37"
          ],
          "data": "0x0000000000000000000000004c62f6121e6f967a0872da8364995e9b68c1e82f000000000000000000000000000000000000000000000000000000000000000000000000000000000000000000000000000000000000000000000000000000000000000000000000000000000000000000000000000000000000000000000000000000000000000000000000000000000000000000000000000000000000000000000000000000000000000000000000000000000000000000000000000000000000000000000000000000000000000000000000000000000000000069793e4d0000000000000000000000000000000000000000000000000000000069793ac9",
          "blockHash": "0xcf84b98e20ef65e199f15746f41d6f9a44be5989b42e1d35075140a8751e281d",
          "blockNumber": "0x18739c0",
          "transactionHash": "0xbdb08d4fc4eb7537252bec25c49667a899dd24d0330c1534b5e57cd5d371a3cb",
          "transactionIndex": "0xa2",
          "logIndex": "0x146",
          "removed": false
        }
      ],
      "logsBloom": "0x00000000000000000000000000000000000000000000000000000000400000000000000000000000000000000000000000000000000000000000000000000000000000000000000000000000000000000000000000000000000000000000000000000000000000000000000000000000400000000000000000000000000000000000000000000000000000100000000000000000000020000000000000000000000000000000000000000000000000000000000000000000000000000000000000000000000000000100000000000000000000000000000000000000000000000000000000000000000000000000000000000000000000000000000000000002",
      "type": "0x2",
      "transactionHash": "0xbdb08d4fc4eb7537252bec25c49667a899dd24d0330c1534b5e57cd5d371a3cb",
      "transactionIndex": "0xa2",
      "blockHash": "0xcf84b98e20ef65e199f15746f41d6f9a44be5989b42e1d35075140a8751e281d",
      "blockNumber": "0x18739c0",
      "gasUsed": "0x1e8a1",
      "effectiveGasPrice": "0x4399f73a870f3",
      "from": "0x4c62f6121e6f967a0872da8364995e9b68c1e82f",
      "to": "0xf077d4d0508505c5a80249afc10bc6ead90e47f1",
      "contractAddress": null
    }
  ],
  "libraries": [],
  "pending": [],
  "returns": {},
  "timestamp": 1769552586538,
  "chain": 369,
  "commit": null
}