{
  "transactions": [
    {
      "hash": "0xfa94a5b311d4234b83af8a68678fb1d1d9254c5b3e27e43fa25a33a3b57b4110",
      "transactionType": "CALL",
      "contractName": null,
      "contractAddress": "0xf077d4d0508505c5a80249afc10bc6ead90e47f1",
      "function": "makeCrime(uint8)",
      "arguments": [
        "0"
      ],
      "transaction": {
        "from": "0xeca7a53ba6a190c5d205bfdc7707cbc3399336c1",
        "to": "0xf077d4d0508505c5a80249afc10bc6ead90e47f1",
        "gas": "0x41b40",
        "value": "0x0",
        "input": "0xc625abb40000000000000000000000000000000000000000000000000000000000000000",
        "nonce": "0x584",
        "chainId": "0x171"
      },
      "additionalContracts": [],
      "isFixedGasLimit": false
    }
  ],
  "receipts": [
    {
      "status": "0x1",
      "cumulativeGasUsed": "0x960529",
      "logs": [
        {
          "address": "0xdcd5e9c0b2b4e9cb93677a258521d854b3a9f5a1",
          "topics": [
            "0x0bff5315606c84d1cee047503678048ca39946be11bfdd5a8c03fe5e272d98e3"
          ],
          "data": "0x000000000000000000000000eca7a53ba6a190c5d205bfdc7707cbc3399336c100000000000000000000000000000000000000000000000000000000698801850000000000000000000000000000000000000000000000000000000000000000",
          "blockHash": "0x9f75607a7ce7d262402e57afad47a9a16b490c04350cf3a6c4cfd3469e6b9890",
          "blockNumber": "0x188aa1a",
          "transactionHash": "0xfa94a5b311d4234b83af8a68678fb1d1d9254c5b3e27e43fa25a33a3b57b4110",
          "transactionIndex": "0x45",
          "logIndex": "0xba",
          "removed": false
        },
        {
          "address": "0xf077d4d0508505c5a80249afc10bc6ead90e47f1",
          "topics": [
            "0xe36ceebd3770780c5617d53efc7d77328074f1248146245ed3b854cbf651fb37"
          ],
          "data": "0x000000000000000000000000eca7a53ba6a190c5d205bfdc7707cbc3399336c100000000000000000000000000000000000000000000000000000000000000000000000000000000000000000000000000000000000000000000000000000000000000000000000000000000000000000000000000000000000000000000000100000000000000000000000000000000000000000000000000000000000000000000000000000000000000000000000000000000000000000000000000000000000000000000000000000000000000000000000000000000000000006987ffc3000000000000000000000000000000000000000000000000000000006987fc3f",
          "blockHash": "0x9f75607a7ce7d262402e57afad47a9a16b490c04350cf3a6c4cfd3469e6b9890",
          "blockNumber": "0x188aa1a",
          "transactionHash": "0xfa94a5b311d4234b83af8a68678fb1d1d9254c5b3e27e43fa25a33a3b57b4110",
          "transactionIndex": "0x45",
          "logIndex": "0xbb",
          "removed": false
        }
      ],
      "logsBloom": "0x00000000000000000000000000000000010000000000000000000000400000000000000000000000000000000000000000000000000000000000000000000000000000000000000000000000000000000000000000000000001000000000000000000000000000000000000000000000400000000080000000000000000000000000000000000000000000100000000000000000000020000000000000000000000000000000000000000000000000000000000000000000400000000000000000000000000000000100000000000040000000000000000000000000000000000000000000000000000000000000000000000000000000000000000000001002",
      "type": "0x2",
      "transactionHash": "0xfa94a5b311d4234b83af8a68678fb1d1d9254c5b3e27e43fa25a33a3b57b4110",
      "transactionIndex": "0x45",
      "blockHash": "0x9f75607a7ce7d262402e57afad47a9a16b490c04350cf3a6c4cfd3469e6b9890",
      "blockNumber": "0x188aa1a",
      "gasUsed": "0x2f917",
      "effectiveGasPrice": "0x35338d1bcc797",
      "from": "0xeca7a53ba6a190c5d205bfdc7707cbc3399336c1",
      "to": "0xf077d4d0508505c5a80249afc10bc6ead90e47f1",
      "contractAddress": null
    }
  ],
  "libraries": [],
  "pending": [],
  "returns": {},
  "timestamp": 1770519616222,
  "chain": 369,
  "commit": null
}