{
  "transactions": [
    {
      "hash": "0x53d4770da48a46112dfff6a04a523a8f567cf31816c6f7ee6cd15fd3c554d004",
      "transactionType": "CALL",
      "contractName": null,
      "contractAddress": "0xf077d4d0508505c5a80249afc10bc6ead90e47f1",
      "function": "makeCrime(uint8)",
      "arguments": [
        "0"
      ],
      "transaction": {
        "from": "0xeca7a53ba6a190c5d205bfdc7707cbc3399336c1",
        "to": "0xf077d4d0508505c5a80249afc10bc6ead90e47f1",
        "gas": "0x54ec2",
        "value": "0x0",
        "input": "0xc625abb40000000000000000000000000000000000000000000000000000000000000000",
        "nonce": "0x368",
        "chainId": "0x171"
      },
      "additionalContracts": [],
      "isFixedGasLimit": false
    }
  ],
  "receipts": [
    {
      "status": "0x1",
      "cumulativeGasUsed": "0x231d731",
      "logs": [
        {
          "address": "0x74eadd7ebeeed638fd7c413134fa3d3433699d92",
          "topics": [
            "0x570f308d592bed3a47a73125665ce3b81fe296da89acff1af6d926e08a0a9f12"
          ],
          "data": "0x000000000000000000000000eca7a53ba6a190c5d205bfdc7707cbc3399336c10000000000000000000000000000000000000000000000000000000000023016",
          "blockHash": "0x7e51504e1f8ca942bda4649b95fca1639f6547be51b28c6a579c8a5cd6ec404b",
          "blockNumber": "0x187394a",
          "transactionHash": "0x53d4770da48a46112dfff6a04a523a8f567cf31816c6f7ee6cd15fd3c554d004",
          "transactionIndex": "0x33",
          "logIndex": "0x6ef",
          "removed": false
        },
        {
          "address": "0xf077d4d0508505c5a80249afc10bc6ead90e47f1",
          "topics": [
            "0xe36ceebd3770780c5617d53efc7d77328074f1248146245ed3b854cbf651fb37"
          ],
          "data": "0x000000000000000000000000eca7a53ba6a190c5d205bfdc7707cbc3399336c1000000000000000000000000000000000000000000000000000000000000000000000000000000000000000000000000000000000000000000000000000000010000000000000000000000000000000000000000000000000000000000000000000000000000000000000000000000000000000000000017cc594e140c7c00000000000000000000000000000000000000000000000000000000000000000014000000000000000000000000000000000000000000000000000000006979397f00000000000000000000000000000000000000000000000000000000697935fb",
          "blockHash": "0x7e51504e1f8ca942bda4649b95fca1639f6547be51b28c6a579c8a5cd6ec404b",
          "blockNumber": "0x187394a",
          "transactionHash": "0x53d4770da48a46112dfff6a04a523a8f567cf31816c6f7ee6cd15fd3c554d004",
          "transactionIndex": "0x33",
          "logIndex": "0x6f0",
          "removed": false
        }
      ],
      "logsBloom": "0x00000000000000000000000000000000004000000000000000000000400000000000000000000000000000000000000000000000000000000000000000000000000000000000000000008000000000000000000000000000000000000000000000000100000000000000000000000000400000000000000000000000000000000000000000000000000000100000000000000000000020000000000000000008000000000000000000000000000000000010000000000000000000000000000000000000000002000100000000000000000000000000000000000000000000000000000000000000000000000000000000000000000000000000000000000002",
      "type": "0x2",
      "transactionHash": "0x53d4770da48a46112dfff6a04a523a8f567cf31816c6f7ee6cd15fd3c554d004",
      "transactionIndex": "0x33",
      "blockHash": "0x7e51504e1f8ca942bda4649b95fca1639f6547be51b28c6a579c8a5cd6ec404b",
      "blockNumber": "0x187394a",
      "gasUsed": "0x3d7b8",
      "effectiveGasPrice": "0x4875d261f44cc",
      "from": "0xeca7a53ba6a190c5d205bfdc7707cbc3399336c1",
      "to": "0xf077d4d0508505c5a80249afc10bc6ead90e47f1",
      "contractAddress": null
    }
  ],
  "libraries": [],
  "pending": [],
  "returns": {},
  "timestamp": 1769551356964,
  "chain": 369,
  "commit": null
}