{
  "transactions": [
    {
      "hash": "0x102081788c022fcaae1975a13d4a9fc98c67d11e6d76b075539d71134d71532e",
      "transactionType": "CALL",
      "contractName": null,
      "contractAddress": "0xf077d4d0508505c5a80249afc10bc6ead90e47f1",
      "function": "makeCrime(uint8)",
      "arguments": [
        "0"
      ],
      "transaction": {
        "from": "0xec646a6c9000e04d050435340d9c42c039eb5648",
        "to": "0xf077d4d0508505c5a80249afc10bc6ead90e47f1",
        "gas": "0x54be5",
        "value": "0x0",
        "input": "0xc625abb40000000000000000000000000000000000000000000000000000000000000000",
        "nonce": "0x4d",
        "chainId": "0x171"
      },
      "additionalContracts": [],
      "isFixedGasLimit": false
    }
  ],
  "receipts": [
    {
      "status": "0x1",
      "cumulativeGasUsed": "0x7f8244",
      "logs": [
        {
          "address": "0xf077d4d0508505c5a80249afc10bc6ead90e47f1",
          "topics": [
            "0xe36ceebd3770780c5617d53efc7d77328074f1248146245ed3b854cbf651fb37"
          ],
          "data": "0x000000000000000000000000ec646a6c9000e04d050435340d9c42c039eb56480000000000000000000000000000000000000000000000000000000000000000000000000000000000000000000000000000000000000000000000000000000000000000000000000000000000000000000000000000000000000000000000000000000000000000000000000000000000000000000000000000000000000000000000000000000000000000000000000000000000000000000000000000000000000000000000000000000000000000000000000000000000000000698845050000000000000000000000000000000000000000000000000000000069884181",
          "blockHash": "0x18975daa2cb522e139a998d1c272a608c7e15caa7d89fd53ce92749c16830421",
          "blockNumber": "0x188b0e0",
          "transactionHash": "0x102081788c022fcaae1975a13d4a9fc98c67d11e6d76b075539d71134d71532e",
          "transactionIndex": "0x15",
          "logIndex": "0x3b",
          "removed": false
        }
      ],
      "logsBloom": "0x00000000000000000000000000000000000000000000000000000000400000000000000000000000000000000000000000000000000000000000000000000000000000000000000000000000000000000000000000000000000000000000000000000000000000000000000000000000400000000000000000000000000000000000000000000000000000100000000000000000000020000000000000000000000000000000000000000000000000000000000000000000000000000000000000000000000000000100000000000000000000000000000000000000000000000000000000000000000000000000000000000000000000000000000000000002",
      "type": "0x2",
      "transactionHash": "0x102081788c022fcaae1975a13d4a9fc98c67d11e6d76b075539d71134d71532e",
      "transactionIndex": "0x15",
      "blockHash": "0x18975daa2cb522e139a998d1c272a608c7e15caa7d89fd53ce92749c16830421",
      "blockNumber": "0x188b0e0",
      "gasUsed": "0x1e865",
      "effectiveGasPrice": "0x339b13384033c",
      "from": "0xec646a6c9000e04d050435340d9c42c039eb5648",
      "to": "0xf077d4d0508505c5a80249afc10bc6ead90e47f1",
      "contractAddress": null
    }
  ],
  "libraries": [],
  "pending": [],
  "returns": {},
  "timestamp": 1770537346028,
  "chain": 369,
  "commit": null
}