{
  "transactions": [
    {
      "hash": "0x3045991e5e639a6aa576e45b1b56bf725dbb106b8c8107f8697a642bf83a0bf8",
      "transactionType": "CALL",
      "contractName": null,
      "contractAddress": "0xf077d4d0508505c5a80249afc10bc6ead90e47f1",
      "function": "makeCrime(uint8)",
      "arguments": [
        "0"
      ],
      "transaction": {
        "from": "0x4c62f6121e6f967a0872da8364995e9b68c1e82f",
        "to": "0xf077d4d0508505c5a80249afc10bc6ead90e47f1",
        "gas": "0x2a297",
        "value": "0x0",
        "input": "0xc625abb40000000000000000000000000000000000000000000000000000000000000000",
        "nonce": "0x768",
        "chainId": "0x171"
      },
      "additionalContracts": [],
      "isFixedGasLimit": false
    }
  ],
  "receipts": [
    {
      "status": "0x1",
      "cumulativeGasUsed": "0xe7a1f0",
      "logs": [
        {
          "address": "0xf077d4d0508505c5a80249afc10bc6ead90e47f1",
          "topics": [
            "0xe36ceebd3770780c5617d53efc7d77328074f1248146245ed3b854cbf651fb37"
          ],
          "data": "0x0000000000000000000000004c62f6121e6f967a0872da8364995e9b68c1e82f0000000000000000000000000000000000000000000000000000000000000000000000000000000000000000000000000000000000000000000000000000000000000000000000000000000000000000000000000000000000000000000000000000000000000000000000000000000000000000000000000000000000000000000000000000000000000000000000000000000000000000000000000000000000000000000000000000000000000000000000000000000000000000697b374300000000000000000000000000000000000000000000000000000000697b33bf",
          "blockHash": "0x52c86acfdde5c154a2fe4aaa6ecfe820b86624d10ae9132a7a7217b9f9aa75aa",
          "blockNumber": "0x1876b19",
          "transactionHash": "0x3045991e5e639a6aa576e45b1b56bf725dbb106b8c8107f8697a642bf83a0bf8",
          "transactionIndex": "0x2e",
          "logIndex": "0x2ce",
          "removed": false
        }
      ],
      "logsBloom": "0x00000000000000000000000000000000000000000000000000000000400000000000000000000000000000000000000000000000000000000000000000000000000000000000000000000000000000000000000000000000000000000000000000000000000000000000000000000000400000000000000000000000000000000000000000000000000000100000000000000000000020000000000000000000000000000000000000000000000000000000000000000000000000000000000000000000000000000100000000000000000000000000000000000000000000000000000000000000000000000000000000000000000000000000000000000002",
      "type": "0x2",
      "transactionHash": "0x3045991e5e639a6aa576e45b1b56bf725dbb106b8c8107f8697a642bf83a0bf8",
      "transactionIndex": "0x2e",
      "blockHash": "0x52c86acfdde5c154a2fe4aaa6ecfe820b86624d10ae9132a7a7217b9f9aa75aa",
      "blockNumber": "0x1876b19",
      "gasUsed": "0x1e865",
      "effectiveGasPrice": "0x1df82cf4933a5",
      "from": "0x4c62f6121e6f967a0872da8364995e9b68c1e82f",
      "to": "0xf077d4d0508505c5a80249afc10bc6ead90e47f1",
      "contractAddress": null
    }
  ],
  "libraries": [],
  "pending": [],
  "returns": {},
  "timestamp": 1769681857060,
  "chain": 369,
  "commit": null
}