{
  "transactions": [
    {
      "hash": "0x071fd129cc5460a1a7fe7bbd3de658f5d076ef11594cb084dc334837388840c0",
      "transactionType": "CALL",
      "contractName": null,
      "contractAddress": "0xf077d4d0508505c5a80249afc10bc6ead90e47f1",
      "function": "makeCrime(uint8)",
      "arguments": [
        "0"
      ],
      "transaction": {
        "from": "0xeca7a53ba6a190c5d205bfdc7707cbc3399336c1",
        "to": "0xf077d4d0508505c5a80249afc10bc6ead90e47f1",
        "gas": "0x55e10",
        "value": "0x0",
        "input": "0xc625abb40000000000000000000000000000000000000000000000000000000000000000",
        "nonce": "0x3dc",
        "chainId": "0x171"
      },
      "additionalContracts": [],
      "isFixedGasLimit": false
    }
  ],
  "receipts": [
    {
      "status": "0x1",
      "cumulativeGasUsed": "0x2294e63",
      "logs": [
        {
          "address": "0xdcd5e9c0b2b4e9cb93677a258521d854b3a9f5a1",
          "topics": [
            "0x0bff5315606c84d1cee047503678048ca39946be11bfdd5a8c03fe5e272d98e3"
          ],
          "data": "0x000000000000000000000000eca7a53ba6a190c5d205bfdc7707cbc3399336c100000000000000000000000000000000000000000000000000000000697aabe30000000000000000000000000000000000000000000000000000000000000000",
          "blockHash": "0xf02c15be0e3dc75e138d4c51b6a54cf6d00d5a81dd73fdcb218a1b346ecc134b",
          "blockNumber": "0x1875d56",
          "transactionHash": "0x071fd129cc5460a1a7fe7bbd3de658f5d076ef11594cb084dc334837388840c0",
          "transactionIndex": "0xbc",
          "logIndex": "0x467",
          "removed": false
        },
        {
          "address": "0xf077d4d0508505c5a80249afc10bc6ead90e47f1",
          "topics": [
            "0xe36ceebd3770780c5617d53efc7d77328074f1248146245ed3b854cbf651fb37"
          ],
          "data": "0x000000000000000000000000eca7a53ba6a190c5d205bfdc7707cbc3399336c10000000000000000000000000000000000000000000000000000000000000000000000000000000000000000000000000000000000000000000000000000000000000000000000000000000000000000000000000000000000000000000000010000000000000000000000000000000000000000000000000000000000000000000000000000000000000000000000000000000000000000000000000000000000000000000000000000000000000000000000000000000000000000697aaa2100000000000000000000000000000000000000000000000000000000697aa69d",
          "blockHash": "0xf02c15be0e3dc75e138d4c51b6a54cf6d00d5a81dd73fdcb218a1b346ecc134b",
          "blockNumber": "0x1875d56",
          "transactionHash": "0x071fd129cc5460a1a7fe7bbd3de658f5d076ef11594cb084dc334837388840c0",
          "transactionIndex": "0xbc",
          "logIndex": "0x468",
          "removed": false
        }
      ],
      "logsBloom": "0x00000000000000000000000000000000010000000000000000000000400000000000000000000000000000000000000000000000000000000000000000000000000000000000000000000000000000000000000000000000001000000000000000000000000000000000000000000000400000000080000000000000000000000000000000000000000000100000000000000000000020000000000000000000000000000000000000000000000000000000000000000000400000000000000000000000000000000100000000000040000000000000000000000000000000000000000000000000000000000000000000000000000000000000000000001002",
      "type": "0x2",
      "transactionHash": "0x071fd129cc5460a1a7fe7bbd3de658f5d076ef11594cb084dc334837388840c0",
      "transactionIndex": "0xbc",
      "blockHash": "0xf02c15be0e3dc75e138d4c51b6a54cf6d00d5a81dd73fdcb218a1b346ecc134b",
      "blockNumber": "0x1875d56",
      "gasUsed": "0x2f917",
      "effectiveGasPrice": "0x19316f81461d8",
      "from": "0xeca7a53ba6a190c5d205bfdc7707cbc3399336c1",
      "to": "0xf077d4d0508505c5a80249afc10bc6ead90e47f1",
      "contractAddress": null
    }
  ],
  "libraries": [],
  "pending": [],
  "returns": {},
  "timestamp": 1769645729138,
  "chain": 369,
  "commit": null
}