{
  "transactions": [
    {
      "hash": "0x790153abb86376fbd4a178e1337743d505f0bbcc18ee28f1823a0980e5c79046",
      "transactionType": "CALL",
      "contractName": null,
      "contractAddress": "0xf077d4d0508505c5a80249afc10bc6ead90e47f1",
      "function": "makeCrime(uint8)",
      "arguments": [
        "0"
      ],
      "transaction": {
        "from": "0xaa73aa98480757d75aae288b5931261448eb0530",
        "to": "0xf077d4d0508505c5a80249afc10bc6ead90e47f1",
        "gas": "0x409a4",
        "value": "0x0",
        "input": "0xc625abb40000000000000000000000000000000000000000000000000000000000000000",
        "nonce": "0x68",
        "chainId": "0x171"
      },
      "additionalContracts": [],
      "isFixedGasLimit": false
    }
  ],
  "receipts": [
    {
      "status": "0x1",
      "cumulativeGasUsed": "0xd39d7a",
      "logs": [
        {
          "address": "0xdcd5e9c0b2b4e9cb93677a258521d854b3a9f5a1",
          "topics": [
            "0x0bff5315606c84d1cee047503678048ca39946be11bfdd5a8c03fe5e272d98e3"
          ],
          "data": "0x000000000000000000000000aa73aa98480757d75aae288b5931261448eb05300000000000000000000000000000000000000000000000000000000069882cf50000000000000000000000000000000000000000000000000000000000000000",
          "blockHash": "0xb6252e3737dc6a8ae103dcce6c3a51a167c8d94ace4be101663ebd5d1c3cc6d3",
          "blockNumber": "0x188ae5c",
          "transactionHash": "0x790153abb86376fbd4a178e1337743d505f0bbcc18ee28f1823a0980e5c79046",
          "transactionIndex": "0x18",
          "logIndex": "0x392",
          "removed": false
        },
        {
          "address": "0xf077d4d0508505c5a80249afc10bc6ead90e47f1",
          "topics": [
            "0xe36ceebd3770780c5617d53efc7d77328074f1248146245ed3b854cbf651fb37"
          ],
          "data": "0x000000000000000000000000aa73aa98480757d75aae288b5931261448eb0530000000000000000000000000000000000000000000000000000000000000000000000000000000000000000000000000000000000000000000000000000000000000000000000000000000000000000000000000000000000000000000000001000000000000000000000000000000000000000000000000000000000000000000000000000000000000000000000000000000000000000000000000000000000000000000000000000000000000000000000000000000000000000069882b3300000000000000000000000000000000000000000000000000000000698827af",
          "blockHash": "0xb6252e3737dc6a8ae103dcce6c3a51a167c8d94ace4be101663ebd5d1c3cc6d3",
          "blockNumber": "0x188ae5c",
          "transactionHash": "0x790153abb86376fbd4a178e1337743d505f0bbcc18ee28f1823a0980e5c79046",
          "transactionIndex": "0x18",
          "logIndex": "0x393",
          "removed": false
        }
      ],
      "logsBloom": "0x00000000000000000000000000000000010000000000000000000000400000000000000000000000000000000000000000000000000000000000000000000000000000000000000000000000000000000000000000000000001000000000000000000000000000000000000000000000400000000080000000000000000000000000000000000000000000100000000000000000000020000000000000000000000000000000000000000000000000000000000000000000400000000000000000000000000000000100000000000040000000000000000000000000000000000000000000000000000000000000000000000000000000000000000000001002",
      "type": "0x2",
      "transactionHash": "0x790153abb86376fbd4a178e1337743d505f0bbcc18ee28f1823a0980e5c79046",
      "transactionIndex": "0x18",
      "blockHash": "0xb6252e3737dc6a8ae103dcce6c3a51a167c8d94ace4be101663ebd5d1c3cc6d3",
      "blockNumber": "0x188ae5c",
      "gasUsed": "0x2ec57",
      "effectiveGasPrice": "0x27cdd86dd4b52",
      "from": "0xaa73aa98480757d75aae288b5931261448eb0530",
      "to": "0xf077d4d0508505c5a80249afc10bc6ead90e47f1",
      "contractAddress": null
    }
  ],
  "libraries": [],
  "pending": [],
  "returns": {},
  "timestamp": 1770530736638,
  "chain": 369,
  "commit": null
}