{
  "transactions": [
    {
      "hash": "0x7f6105dd3d8f7c319b62548b691e727e83accc8d16a7737ea9e44af15485cad8",
      "transactionType": "CALL",
      "contractName": null,
      "contractAddress": "0xf077d4d0508505c5a80249afc10bc6ead90e47f1",
      "function": "makeCrime(uint8)",
      "arguments": [
        "0"
      ],
      "transaction": {
        "from": "0x4c62f6121e6f967a0872da8364995e9b68c1e82f",
        "to": "0xf077d4d0508505c5a80249afc10bc6ead90e47f1",
        "gas": "0x3fd59",
        "value": "0x0",
        "input": "0xc625abb40000000000000000000000000000000000000000000000000000000000000000",
        "nonce": "0x74c",
        "chainId": "0x171"
      },
      "additionalContracts": [],
      "isFixedGasLimit": false
    }
  ],
  "receipts": [
    {
      "status": "0x1",
      "cumulativeGasUsed": "0x9fd597",
      "logs": [
        {
          "address": "0x74eadd7ebeeed638fd7c413134fa3d3433699d92",
          "topics": [
            "0x570f308d592bed3a47a73125665ce3b81fe296da89acff1af6d926e08a0a9f12"
          ],
          "data": "0x0000000000000000000000004c62f6121e6f967a0872da8364995e9b68c1e82f00000000000000000000000000000000000000000000000000000000000003e8",
          "blockHash": "0x01a99bef497b82e17fe976f0b6ff0dbe335d4b90386e6a3973d867749284195e",
          "blockNumber": "0x18758a8",
          "transactionHash": "0x7f6105dd3d8f7c319b62548b691e727e83accc8d16a7737ea9e44af15485cad8",
          "transactionIndex": "0x21",
          "logIndex": "0xec",
          "removed": false
        },
        {
          "address": "0xf077d4d0508505c5a80249afc10bc6ead90e47f1",
          "topics": [
            "0xe36ceebd3770780c5617d53efc7d77328074f1248146245ed3b854cbf651fb37"
          ],
          "data": "0x0000000000000000000000004c62f6121e6f967a0872da8364995e9b68c1e82f00000000000000000000000000000000000000000000000000000000000000000000000000000000000000000000000000000000000000000000000000000001000000000000000000000000000000000000000000000000000000000000000000000000000000000000000000000000000000000000001105a0185b50a80000000000000000000000000000000000000000000000000000000000000000006400000000000000000000000000000000000000000000000000000000697a7a5b00000000000000000000000000000000000000000000000000000000697a76d7",
          "blockHash": "0x01a99bef497b82e17fe976f0b6ff0dbe335d4b90386e6a3973d867749284195e",
          "blockNumber": "0x18758a8",
          "transactionHash": "0x7f6105dd3d8f7c319b62548b691e727e83accc8d16a7737ea9e44af15485cad8",
          "transactionIndex": "0x21",
          "logIndex": "0xed",
          "removed": false
        }
      ],
      "logsBloom": "0x00000000000000000000000000000000004000000000000000000000400000000000000000000000000000000000000000000000000000000000000000000000000000000000000000008000000000000000000000000000000000000000000000000100000000000000000000000000400000000000000000000000000000000000000000000000000000100000000000000000000020000000000000000008000000000000000000000000000000000010000000000000000000000000000000000000000002000100000000000000000000000000000000000000000000000000000000000000000000000000000000000000000000000000000000000002",
      "type": "0x2",
      "transactionHash": "0x7f6105dd3d8f7c319b62548b691e727e83accc8d16a7737ea9e44af15485cad8",
      "transactionIndex": "0x21",
      "blockHash": "0x01a99bef497b82e17fe976f0b6ff0dbe335d4b90386e6a3973d867749284195e",
      "blockNumber": "0x18758a8",
      "gasUsed": "0x3ca90",
      "effectiveGasPrice": "0x31c4cc52a6c4e",
      "from": "0x4c62f6121e6f967a0872da8364995e9b68c1e82f",
      "to": "0xf077d4d0508505c5a80249afc10bc6ead90e47f1",
      "contractAddress": null
    }
  ],
  "libraries": [],
  "pending": [],
  "returns": {},
  "timestamp": 1769633495853,
  "chain": 369,
  "commit": null
}