{
  "transactions": [
    {
      "hash": "0x37e0c6e753b0cb091a7fb8ba6d4ed343ee6c68e1a220d7483b51f4cf30b7b50f",
      "transactionType": "CALL",
      "contractName": null,
      "contractAddress": "0xf077d4d0508505c5a80249afc10bc6ead90e47f1",
      "function": "makeCrime(uint8)",
      "arguments": [
        "0"
      ],
      "transaction": {
        "from": "0x4c62f6121e6f967a0872da8364995e9b68c1e82f",
        "to": "0xf077d4d0508505c5a80249afc10bc6ead90e47f1",
        "gas": "0x54be5",
        "value": "0x0",
        "input": "0xc625abb40000000000000000000000000000000000000000000000000000000000000000",
        "nonce": "0x95d",
        "chainId": "0x171"
      },
      "additionalContracts": [],
      "isFixedGasLimit": false
    }
  ],
  "receipts": [
    {
      "status": "0x1",
      "cumulativeGasUsed": "0x97bd95",
      "logs": [
        {
          "address": "0xf077d4d0508505c5a80249afc10bc6ead90e47f1",
          "topics": [
            "0xe36ceebd3770780c5617d53efc7d77328074f1248146245ed3b854cbf651fb37"
          ],
          "data": "0x0000000000000000000000004c62f6121e6f967a0872da8364995e9b68c1e82f0000000000000000000000000000000000000000000000000000000000000000000000000000000000000000000000000000000000000000000000000000000000000000000000000000000000000000000000000000000000000000000000000000000000000000000000000000000000000000000000000000000000000000000000000000000000000000000000000000000000000000000000000000000000000000000000000000000000000000000000000000000000000000698798f3000000000000000000000000000000000000000000000000000000006987956f",
          "blockHash": "0x1242210f8f4bd726616c76f610ec46b8da7894b4b881cb195a6feffae2664645",
          "blockNumber": "0x188a011",
          "transactionHash": "0x37e0c6e753b0cb091a7fb8ba6d4ed343ee6c68e1a220d7483b51f4cf30b7b50f",
          "transactionIndex": "0x23",
          "logIndex": "0xe1",
          "removed": false
        }
      ],
      "logsBloom": "0x00000000000000000000000000000000000000000000000000000000400000000000000000000000000000000000000000000000000000000000000000000000000000000000000000000000000000000000000000000000000000000000000000000000000000000000000000000000400000000000000000000000000000000000000000000000000000100000000000000000000020000000000000000000000000000000000000000000000000000000000000000000000000000000000000000000000000000100000000000000000000000000000000000000000000000000000000000000000000000000000000000000000000000000000000000002",
      "type": "0x2",
      "transactionHash": "0x37e0c6e753b0cb091a7fb8ba6d4ed343ee6c68e1a220d7483b51f4cf30b7b50f",
      "transactionIndex": "0x23",
      "blockHash": "0x1242210f8f4bd726616c76f610ec46b8da7894b4b881cb195a6feffae2664645",
      "blockNumber": "0x188a011",
      "gasUsed": "0x1e865",
      "effectiveGasPrice": "0x2d9893db685bb",
      "from": "0x4c62f6121e6f967a0872da8364995e9b68c1e82f",
      "to": "0xf077d4d0508505c5a80249afc10bc6ead90e47f1",
      "contractAddress": null
    }
  ],
  "libraries": [],
  "pending": [],
  "returns": {},
  "timestamp": 1770493296624,
  "chain": 369,
  "commit": null
}