{
  "transactions": [
    {
      "hash": "0x31e7622c7c3c32388385da50d418ba5648e51c74e3ee1e6aac6badcb1344b117",
      "transactionType": "CALL",
      "contractName": null,
      "contractAddress": "0xf077d4d0508505c5a80249afc10bc6ead90e47f1",
      "function": "makeCrime(uint8)",
      "arguments": [
        "0"
      ],
      "transaction": {
        "from": "0x4c62f6121e6f967a0872da8364995e9b68c1e82f",
        "to": "0xf077d4d0508505c5a80249afc10bc6ead90e47f1",
        "gas": "0x459ee",
        "value": "0x0",
        "input": "0xc625abb40000000000000000000000000000000000000000000000000000000000000000",
        "nonce": "0x6f9",
        "chainId": "0x171"
      },
      "additionalContracts": [],
      "isFixedGasLimit": false
    }
  ],
  "receipts": [
    {
      "status": "0x1",
      "cumulativeGasUsed": "0x7eeb50",
      "logs": [
        {
          "address": "0xdcd5e9c0b2b4e9cb93677a258521d854b3a9f5a1",
          "topics": [
            "0x0bff5315606c84d1cee047503678048ca39946be11bfdd5a8c03fe5e272d98e3"
          ],
          "data": "0x0000000000000000000000004c62f6121e6f967a0872da8364995e9b68c1e82f00000000000000000000000000000000000000000000000000000000697921c90000000000000000000000000000000000000000000000000000000000000000",
          "blockHash": "0x1294c24ce992eaa0e805b7714172baebf13d9f4b1eb9595729ebb9beeb819304",
          "blockNumber": "0x18736cc",
          "transactionHash": "0x31e7622c7c3c32388385da50d418ba5648e51c74e3ee1e6aac6badcb1344b117",
          "transactionIndex": "0x1f",
          "logIndex": "0xf4",
          "removed": false
        },
        {
          "address": "0xf077d4d0508505c5a80249afc10bc6ead90e47f1",
          "topics": [
            "0xe36ceebd3770780c5617d53efc7d77328074f1248146245ed3b854cbf651fb37"
          ],
          "data": "0x0000000000000000000000004c62f6121e6f967a0872da8364995e9b68c1e82f0000000000000000000000000000000000000000000000000000000000000000000000000000000000000000000000000000000000000000000000000000000000000000000000000000000000000000000000000000000000000000000000010000000000000000000000000000000000000000000000000000000000000000000000000000000000000000000000000000000000000000000000000000000000000000000000000000000000000000000000000000000000000000697920070000000000000000000000000000000000000000000000000000000069791c83",
          "blockHash": "0x1294c24ce992eaa0e805b7714172baebf13d9f4b1eb9595729ebb9beeb819304",
          "blockNumber": "0x18736cc",
          "transactionHash": "0x31e7622c7c3c32388385da50d418ba5648e51c74e3ee1e6aac6badcb1344b117",
          "transactionIndex": "0x1f",
          "logIndex": "0xf5",
          "removed": false
        }
      ],
      "logsBloom": "0x00000000000000000000000000000000010000000000000000000000400000000000000000000000000000000000000000000000000000000000000000000000000000000000000000000000000000000000000000000000001000000000000000000000000000000000000000000000400000000080000000000000000000000000000000000000000000100000000000000000000020000000000000000000000000000000000000000000000000000000000000000000400000000000000000000000000000000100000000000040000000000000000000000000000000000000000000000000000000000000000000000000000000000000000000001002",
      "type": "0x2",
      "transactionHash": "0x31e7622c7c3c32388385da50d418ba5648e51c74e3ee1e6aac6badcb1344b117",
      "transactionIndex": "0x1f",
      "blockHash": "0x1294c24ce992eaa0e805b7714172baebf13d9f4b1eb9595729ebb9beeb819304",
      "blockNumber": "0x18736cc",
      "gasUsed": "0x32678",
      "effectiveGasPrice": "0x3537b11c3e414",
      "from": "0x4c62f6121e6f967a0872da8364995e9b68c1e82f",
      "to": "0xf077d4d0508505c5a80249afc10bc6ead90e47f1",
      "contractAddress": null
    }
  ],
  "libraries": [],
  "pending": [],
  "returns": {},
  "timestamp": 1769544835723,
  "chain": 369,
  "commit": null
}