{
  "transactions": [
    {
      "hash": "0x61752a3b7f5be1c82ff46eadd8391073435d154c27c598e5ea084e16c482c077",
      "transactionType": "CALL",
      "contractName": null,
      "contractAddress": "0xf077d4d0508505c5a80249afc10bc6ead90e47f1",
      "function": "makeCrime(uint8)",
      "arguments": [
        "0"
      ],
      "transaction": {
        "from": "0xac56dc5a4a9de0197f7b8f584ea04ec7e0123dde",
        "to": "0xf077d4d0508505c5a80249afc10bc6ead90e47f1",
        "gas": "0x54352",
        "value": "0x0",
        "input": "0xc625abb40000000000000000000000000000000000000000000000000000000000000000",
        "nonce": "0x3a0",
        "chainId": "0x171"
      },
      "additionalContracts": [],
      "isFixedGasLimit": false
    }
  ],
  "receipts": [
    {
      "status": "0x1",
      "cumulativeGasUsed": "0x13f0d15",
      "logs": [
        {
          "address": "0xdcd5e9c0b2b4e9cb93677a258521d854b3a9f5a1",
          "topics": [
            "0x0bff5315606c84d1cee047503678048ca39946be11bfdd5a8c03fe5e272d98e3"
          ],
          "data": "0x000000000000000000000000ac56dc5a4a9de0197f7b8f584ea04ec7e0123dde00000000000000000000000000000000000000000000000000000000697a5d7d0000000000000000000000000000000000000000000000000000000000000000",
          "blockHash": "0x3b85cd65bd71095e6a23f72a990c70aaf32668c4f074a979b40a2e38f565c32e",
          "blockNumber": "0x18755ad",
          "transactionHash": "0x61752a3b7f5be1c82ff46eadd8391073435d154c27c598e5ea084e16c482c077",
          "transactionIndex": "0x20",
          "logIndex": "0x35a",
          "removed": false
        },
        {
          "address": "0xf077d4d0508505c5a80249afc10bc6ead90e47f1",
          "topics": [
            "0xe36ceebd3770780c5617d53efc7d77328074f1248146245ed3b854cbf651fb37"
          ],
          "data": "0x000000000000000000000000ac56dc5a4a9de0197f7b8f584ea04ec7e0123dde0000000000000000000000000000000000000000000000000000000000000000000000000000000000000000000000000000000000000000000000000000000000000000000000000000000000000000000000000000000000000000000000010000000000000000000000000000000000000000000000000000000000000000000000000000000000000000000000000000000000000000000000000000000000000000000000000000000000000000000000000000000000000000697a5bbb00000000000000000000000000000000000000000000000000000000697a5837",
          "blockHash": "0x3b85cd65bd71095e6a23f72a990c70aaf32668c4f074a979b40a2e38f565c32e",
          "blockNumber": "0x18755ad",
          "transactionHash": "0x61752a3b7f5be1c82ff46eadd8391073435d154c27c598e5ea084e16c482c077",
          "transactionIndex": "0x20",
          "logIndex": "0x35b",
          "removed": false
        }
      ],
      "logsBloom": "0x00000000000000000000000000000000010000000000000000000000400000000000000000000000000000000000000000000000000000000000000000000000000000000000000000000000000000000000000000000000001000000000000000000000000000000000000000000000400000000080000000000000000000000000000000000000000000100000000000000000000020000000000000000000000000000000000000000000000000000000000000000000400000000000000000000000000000000100000000000040000000000000000000000000000000000000000000000000000000000000000000000000000000000000000000001002",
      "type": "0x2",
      "transactionHash": "0x61752a3b7f5be1c82ff46eadd8391073435d154c27c598e5ea084e16c482c077",
      "transactionIndex": "0x20",
      "blockHash": "0x3b85cd65bd71095e6a23f72a990c70aaf32668c4f074a979b40a2e38f565c32e",
      "blockNumber": "0x18755ad",
      "gasUsed": "0x2e7b4",
      "effectiveGasPrice": "0x3244ea096ea46",
      "from": "0xac56dc5a4a9de0197f7b8f584ea04ec7e0123dde",
      "to": "0xf077d4d0508505c5a80249afc10bc6ead90e47f1",
      "contractAddress": null
    }
  ],
  "libraries": [],
  "pending": [],
  "returns": {},
  "timestamp": 1769625656556,
  "chain": 369,
  "commit": null
}