{
  "transactions": [
    {
      "hash": "0xfa5078a0b0a240d9ca7a4c9ce556215afbb5c915db5c08baa9902203a3c9649d",
      "transactionType": "CALL",
      "contractName": null,
      "contractAddress": "0xf077d4d0508505c5a80249afc10bc6ead90e47f1",
      "function": "makeCrime(uint8)",
      "arguments": [
        "0"
      ],
      "transaction": {
        "from": "0xac56dc5a4a9de0197f7b8f584ea04ec7e0123dde",
        "to": "0xf077d4d0508505c5a80249afc10bc6ead90e47f1",
        "gas": "0x2d083",
        "value": "0x0",
        "input": "0xc625abb40000000000000000000000000000000000000000000000000000000000000000",
        "nonce": "0x3b2",
        "chainId": "0x171"
      },
      "additionalContracts": [],
      "isFixedGasLimit": false
    }
  ],
  "receipts": [
    {
      "status": "0x1",
      "cumulativeGasUsed": "0x22cd7c",
      "logs": [
        {
          "address": "0xf077d4d0508505c5a80249afc10bc6ead90e47f1",
          "topics": [
            "0xe36ceebd3770780c5617d53efc7d77328074f1248146245ed3b854cbf651fb37"
          ],
          "data": "0x000000000000000000000000ac56dc5a4a9de0197f7b8f584ea04ec7e0123dde0000000000000000000000000000000000000000000000000000000000000000000000000000000000000000000000000000000000000000000000000000000000000000000000000000000000000000000000000000000000000000000000000000000000000000000000000000000000000000000000000000000000000000000000000000000000000000000000000000000000000000000000000000000000000000000000000000000000000000000000000000000000000000697a99a500000000000000000000000000000000000000000000000000000000697a9621",
          "blockHash": "0x63d2758244f7141538afac2f37d81bf9ee30eba955869ab41efa2bd0e6c61fbc",
          "blockNumber": "0x1875bb8",
          "transactionHash": "0xfa5078a0b0a240d9ca7a4c9ce556215afbb5c915db5c08baa9902203a3c9649d",
          "transactionIndex": "0x13",
          "logIndex": "0x34",
          "removed": false
        }
      ],
      "logsBloom": "0x00000000000000000000000000000000000000000000000000000000400000000000000000000000000000000000000000000000000000000000000000000000000000000000000000000000000000000000000000000000000000000000000000000000000000000000000000000000400000000000000000000000000000000000000000000000000000100000000000000000000020000000000000000000000000000000000000000000000000000000000000000000000000000000000000000000000000000100000000000000000000000000000000000000000000000000000000000000000000000000000000000000000000000000000000000002",
      "type": "0x2",
      "transactionHash": "0xfa5078a0b0a240d9ca7a4c9ce556215afbb5c915db5c08baa9902203a3c9649d",
      "transactionIndex": "0x13",
      "blockHash": "0x63d2758244f7141538afac2f37d81bf9ee30eba955869ab41efa2bd0e6c61fbc",
      "blockNumber": "0x1875bb8",
      "gasUsed": "0x1eca9",
      "effectiveGasPrice": "0x1d83c2b9c27bc",
      "from": "0xac56dc5a4a9de0197f7b8f584ea04ec7e0123dde",
      "to": "0xf077d4d0508505c5a80249afc10bc6ead90e47f1",
      "contractAddress": null
    }
  ],
  "libraries": [],
  "pending": [],
  "returns": {},
  "timestamp": 1769641505571,
  "chain": 369,
  "commit": null
}