{
  "transactions": [
    {
      "hash": "0xbb8b0d1c8e484f5316c8328a9868a7caaaa3c6a891b7345d4ca676a581438e5f",
      "transactionType": "CALL",
      "contractName": null,
      "contractAddress": "0xf077d4d0508505c5a80249afc10bc6ead90e47f1",
      "function": "makeCrime(uint8)",
      "arguments": [
        "0"
      ],
      "transaction": {
        "from": "0x4c62f6121e6f967a0872da8364995e9b68c1e82f",
        "to": "0xf077d4d0508505c5a80249afc10bc6ead90e47f1",
        "gas": "0x53c96",
        "value": "0x0",
        "input": "0xc625abb40000000000000000000000000000000000000000000000000000000000000000",
        "nonce": "0x734",
        "chainId": "0x171"
      },
      "additionalContracts": [],
      "isFixedGasLimit": false
    }
  ],
  "receipts": [
    {
      "status": "0x1",
      "cumulativeGasUsed": "0x74009c",
      "logs": [
        {
          "address": "0xf077d4d0508505c5a80249afc10bc6ead90e47f1",
          "topics": [
            "0xe36ceebd3770780c5617d53efc7d77328074f1248146245ed3b854cbf651fb37"
          ],
          "data": "0x0000000000000000000000004c62f6121e6f967a0872da8364995e9b68c1e82f00000000000000000000000000000000000000000000000000000000000000000000000000000000000000000000000000000000000000000000000000000000000000000000000000000000000000000000000000000000000000000000000000000000000000000000000000000000000000000000000000000000000000000000000000000000000000000000000000000000000000000000000000000000000000000000000000000000000000000000000000000000000000006979f22f000000000000000000000000000000000000000000000000000000006979eeab",
          "blockHash": "0xc16e518206a6a9c132d1dcf181af855069523b4b025c640ed5008206c1d9cd7b",
          "blockNumber": "0x1874b54",
          "transactionHash": "0xbb8b0d1c8e484f5316c8328a9868a7caaaa3c6a891b7345d4ca676a581438e5f",
          "transactionIndex": "0x1f",
          "logIndex": "0x8b",
          "removed": false
        }
      ],
      "logsBloom": "0x00000000000000000000000000000000000000000000000000000000400000000000000000000000000000000000000000000000000000000000000000000000000000000000000000000000000000000000000000000000000000000000000000000000000000000000000000000000400000000000000000000000000000000000000000000000000000100000000000000000000020000000000000000000000000000000000000000000000000000000000000000000000000000000000000000000000000000100000000000000000000000000000000000000000000000000000000000000000000000000000000000000000000000000000000000002",
      "type": "0x2",
      "transactionHash": "0xbb8b0d1c8e484f5316c8328a9868a7caaaa3c6a891b7345d4ca676a581438e5f",
      "transactionIndex": "0x1f",
      "blockHash": "0xc16e518206a6a9c132d1dcf181af855069523b4b025c640ed5008206c1d9cd7b",
      "blockNumber": "0x1874b54",
      "gasUsed": "0x1e865",
      "effectiveGasPrice": "0x1bf7a42bd4202",
      "from": "0x4c62f6121e6f967a0872da8364995e9b68c1e82f",
      "to": "0xf077d4d0508505c5a80249afc10bc6ead90e47f1",
      "contractAddress": null
    }
  ],
  "libraries": [],
  "pending": [],
  "returns": {},
  "timestamp": 1769598636874,
  "chain": 369,
  "commit": null
}