{
  "transactions": [
    {
      "hash": "0x7f930f9b3c0ecde41119a3d678a6c94ca74f7b0420583174a5d39c36cd6cfff1",
      "transactionType": "CALL",
      "contractName": null,
      "contractAddress": "0xf077d4d0508505c5a80249afc10bc6ead90e47f1",
      "function": "makeCrime(uint8)",
      "arguments": [
        "0"
      ],
      "transaction": {
        "from": "0xac56dc5a4a9de0197f7b8f584ea04ec7e0123dde",
        "to": "0xf077d4d0508505c5a80249afc10bc6ead90e47f1",
        "gas": "0x552c4",
        "value": "0x0",
        "input": "0xc625abb40000000000000000000000000000000000000000000000000000000000000000",
        "nonce": "0x506",
        "chainId": "0x171"
      },
      "additionalContracts": [],
      "isFixedGasLimit": false
    }
  ],
  "receipts": [
    {
      "status": "0x1",
      "cumulativeGasUsed": "0x87a988",
      "logs": [
        {
          "address": "0xf077d4d0508505c5a80249afc10bc6ead90e47f1",
          "topics": [
            "0xe36ceebd3770780c5617d53efc7d77328074f1248146245ed3b854cbf651fb37"
          ],
          "data": "0x000000000000000000000000ac56dc5a4a9de0197f7b8f584ea04ec7e0123dde000000000000000000000000000000000000000000000000000000000000000000000000000000000000000000000000000000000000000000000000000000000000000000000000000000000000000000000000000000000000000000000000000000000000000000000000000000000000000000000000000000000000000000000000000000000000000000000000000000000000000000000000000000000000000000000000000000000000000000000000000000000000000069883c13000000000000000000000000000000000000000000000000000000006988388f",
          "blockHash": "0x27b56b557d487af4a259b04d692f74a1125cdb4c93a885bba5edd7662e097e83",
          "blockNumber": "0x188b002",
          "transactionHash": "0x7f930f9b3c0ecde41119a3d678a6c94ca74f7b0420583174a5d39c36cd6cfff1",
          "transactionIndex": "0x22",
          "logIndex": "0x6a",
          "removed": false
        }
      ],
      "logsBloom": "0x00000000000000000000000000000000000000000000000000000000400000000000000000000000000000000000000000000000000000000000000000000000000000000000000000000000000000000000000000000000000000000000000000000000000000000000000000000000400000000000000000000000000000000000000000000000000000100000000000000000000020000000000000000000000000000000000000000000000000000000000000000000000000000000000000000000000000000100000000000000000000000000000000000000000000000000000000000000000000000000000000000000000000000000000000000002",
      "type": "0x2",
      "transactionHash": "0x7f930f9b3c0ecde41119a3d678a6c94ca74f7b0420583174a5d39c36cd6cfff1",
      "transactionIndex": "0x22",
      "blockHash": "0x27b56b557d487af4a259b04d692f74a1125cdb4c93a885bba5edd7662e097e83",
      "blockNumber": "0x188b002",
      "gasUsed": "0x1eca9",
      "effectiveGasPrice": "0x2f1e097e4d7c4",
      "from": "0xac56dc5a4a9de0197f7b8f584ea04ec7e0123dde",
      "to": "0xf077d4d0508505c5a80249afc10bc6ead90e47f1",
      "contractAddress": null
    }
  ],
  "libraries": [],
  "pending": [],
  "returns": {},
  "timestamp": 1770535055599,
  "chain": 369,
  "commit": null
}