{
  "transactions": [
    {
      "hash": "0x9e8de190b408b84f4e0d4ce11c7f426ecadbd81ff0aab84056c24858aa9fce7c",
      "transactionType": "CALL",
      "contractName": null,
      "contractAddress": "0xf077d4d0508505c5a80249afc10bc6ead90e47f1",
      "function": "makeCrime(uint8)",
      "arguments": [
        "2"
      ],
      "transaction": {
        "from": "0xeca7a53ba6a190c5d205bfdc7707cbc3399336c1",
        "to": "0xf077d4d0508505c5a80249afc10bc6ead90e47f1",
        "gas": "0x55f25",
        "value": "0x0",
        "input": "0xc625abb40000000000000000000000000000000000000000000000000000000000000002",
        "nonce": "0x5ab",
        "chainId": "0x171"
      },
      "additionalContracts": [],
      "isFixedGasLimit": false
    }
  ],
  "receipts": [
    {
      "status": "0x1",
      "cumulativeGasUsed": "0x897f15",
      "logs": [
        {
          "address": "0x74eadd7ebeeed638fd7c413134fa3d3433699d92",
          "topics": [
            "0x570f308d592bed3a47a73125665ce3b81fe296da89acff1af6d926e08a0a9f12"
          ],
          "data": "0x000000000000000000000000eca7a53ba6a190c5d205bfdc7707cbc3399336c10000000000000000000000000000000000000000000000000000000000023ce6",
          "blockHash": "0xa1474aca9ae30cf4b90ab838751dc5239068b28192420dc1cc08cf9115a1581b",
          "blockNumber": "0x188b659",
          "transactionHash": "0x9e8de190b408b84f4e0d4ce11c7f426ecadbd81ff0aab84056c24858aa9fce7c",
          "transactionIndex": "0xe",
          "logIndex": "0xd1",
          "removed": false
        },
        {
          "address": "0xf077d4d0508505c5a80249afc10bc6ead90e47f1",
          "topics": [
            "0xe36ceebd3770780c5617d53efc7d77328074f1248146245ed3b854cbf651fb37"
          ],
          "data": "0x000000000000000000000000eca7a53ba6a190c5d205bfdc7707cbc3399336c10000000000000000000000000000000000000000000000000000000000000002000000000000000000000000000000000000000000000000000000000000000100000000000000000000000000000000000000000000000000000000000000000000000000000000000000000000000000000000000000e726e3205c19a0000000000000000000000000000000000000000000000000000000000000000000140000000000000000000000000000000000000000000000000000000069887d6d00000000000000000000000000000000000000000000000000000000698879e9",
          "blockHash": "0xa1474aca9ae30cf4b90ab838751dc5239068b28192420dc1cc08cf9115a1581b",
          "blockNumber": "0x188b659",
          "transactionHash": "0x9e8de190b408b84f4e0d4ce11c7f426ecadbd81ff0aab84056c24858aa9fce7c",
          "transactionIndex": "0xe",
          "logIndex": "0xd2",
          "removed": false
        }
      ],
      "logsBloom": "0x00000000000000000000000000000000004000000000000000000000400000000000000000000000000000000000000000000000000000000000000000000000000000000000000000008000000000000000000000000000000000000000000000000100000000000000000000000000400000000000000000000000000000000000000000000000000000100000000000000000000020000000000000000008000000000000000000000000000000000010000000000000000000000000000000000000000002000100000000000000000000000000000000000000000000000000000000000000000000000000000000000000000000000000000000000002",
      "type": "0x2",
      "transactionHash": "0x9e8de190b408b84f4e0d4ce11c7f426ecadbd81ff0aab84056c24858aa9fce7c",
      "transactionIndex": "0xe",
      "blockHash": "0xa1474aca9ae30cf4b90ab838751dc5239068b28192420dc1cc08cf9115a1581b",
      "blockNumber": "0x188b659",
      "gasUsed": "0x3e395",
      "effectiveGasPrice": "0x306ad4615f9fa",
      "from": "0xeca7a53ba6a190c5d205bfdc7707cbc3399336c1",
      "to": "0xf077d4d0508505c5a80249afc10bc6ead90e47f1",
      "contractAddress": null
    }
  ],
  "libraries": [],
  "pending": [],
  "returns": {},
  "timestamp": 1770551786190,
  "chain": 369,
  "commit": null
}