{
  "transactions": [
    {
      "hash": "0x98b2aaf5e17733d4a8b692d6abcbfe47491dd8b090d6d8b639198158dce7ad40",
      "transactionType": "CALL",
      "contractName": null,
      "contractAddress": "0xf077d4d0508505c5a80249afc10bc6ead90e47f1",
      "function": "makeCrime(uint8)",
      "arguments": [
        "0"
      ],
      "transaction": {
        "from": "0xac56dc5a4a9de0197f7b8f584ea04ec7e0123dde",
        "to": "0xf077d4d0508505c5a80249afc10bc6ead90e47f1",
        "gas": "0x54352",
        "value": "0x0",
        "input": "0xc625abb40000000000000000000000000000000000000000000000000000000000000000",
        "nonce": "0x27f",
        "chainId": "0x171"
      },
      "additionalContracts": [],
      "isFixedGasLimit": false
    }
  ],
  "receipts": [
    {
      "status": "0x1",
      "cumulativeGasUsed": "0xd8e513",
      "logs": [
        {
          "address": "0xf077d4d0508505c5a80249afc10bc6ead90e47f1",
          "topics": [
            "0xe36ceebd3770780c5617d53efc7d77328074f1248146245ed3b854cbf651fb37"
          ],
          "data": "0x000000000000000000000000ac56dc5a4a9de0197f7b8f584ea04ec7e0123dde000000000000000000000000000000000000000000000000000000000000000000000000000000000000000000000000000000000000000000000000000000000000000000000000000000000000000000000000000000000000000000000000000000000000000000000000000000000000000000000000000000000000000000000000000000000000000000000000000000000000000000000000000000000000000000000000000000000000000000000000000000000000000069752ce50000000000000000000000000000000000000000000000000000000069752961",
          "blockHash": "0xcfc01dd0e715bbf5cb7fb6cedabdece1ffd0782cbfc088af78ed35da2abea4a0",
          "blockNumber": "0x186d432",
          "transactionHash": "0x98b2aaf5e17733d4a8b692d6abcbfe47491dd8b090d6d8b639198158dce7ad40",
          "transactionIndex": "0x88",
          "logIndex": "0x144",
          "removed": false
        }
      ],
      "logsBloom": "0x00000000000000000000000000000000000000000000000000000000400000000000000000000000000000000000000000000000000000000000000000000000000000000000000000000000000000000000000000000000000000000000000000000000000000000000000000000000400000000000000000000000000000000000000000000000000000100000000000000000000020000000000000000000000000000000000000000000000000000000000000000000000000000000000000000000000000000100000000000000000000000000000000000000000000000000000000000000000000000000000000000000000000000000000000000002",
      "type": "0x2",
      "transactionHash": "0x98b2aaf5e17733d4a8b692d6abcbfe47491dd8b090d6d8b639198158dce7ad40",
      "transactionIndex": "0x88",
      "blockHash": "0xcfc01dd0e715bbf5cb7fb6cedabdece1ffd0782cbfc088af78ed35da2abea4a0",
      "blockNumber": "0x186d432",
      "gasUsed": "0x1eca9",
      "effectiveGasPrice": "0xa3b199d447b474",
      "from": "0xac56dc5a4a9de0197f7b8f584ea04ec7e0123dde",
      "to": "0xf077d4d0508505c5a80249afc10bc6ead90e47f1",
      "contractAddress": null
    }
  ],
  "libraries": [],
  "pending": [],
  "returns": {},
  "timestamp": 1769285986928,
  "chain": 369,
  "commit": "953695a"
}