{
  "transactions": [
    {
      "hash": "0x57a2d01f4e9234e12dc69a46e18de6c39924368b41803dffc9f6fd15d6515ca7",
      "transactionType": "CALL",
      "contractName": null,
      "contractAddress": "0xf077d4d0508505c5a80249afc10bc6ead90e47f1",
      "function": "makeCrime(uint8)",
      "arguments": [
        "0"
      ],
      "transaction": {
        "from": "0xeca7a53ba6a190c5d205bfdc7707cbc3399336c1",
        "to": "0xf077d4d0508505c5a80249afc10bc6ead90e47f1",
        "gas": "0x55e10",
        "value": "0x0",
        "input": "0xc625abb40000000000000000000000000000000000000000000000000000000000000000",
        "nonce": "0x58d",
        "chainId": "0x171"
      },
      "additionalContracts": [],
      "isFixedGasLimit": false
    }
  ],
  "receipts": [
    {
      "status": "0x1",
      "cumulativeGasUsed": "0xce2fa6",
      "logs": [
        {
          "address": "0x74eadd7ebeeed638fd7c413134fa3d3433699d92",
          "topics": [
            "0x570f308d592bed3a47a73125665ce3b81fe296da89acff1af6d926e08a0a9f12"
          ],
          "data": "0x000000000000000000000000eca7a53ba6a190c5d205bfdc7707cbc3399336c10000000000000000000000000000000000000000000000000000000000023ba6",
          "blockHash": "0x227c02b81ad40e1a5d748c0240abf4386e077a075a020ade3fad1f32189ae814",
          "blockNumber": "0x188ad47",
          "transactionHash": "0x57a2d01f4e9234e12dc69a46e18de6c39924368b41803dffc9f6fd15d6515ca7",
          "transactionIndex": "0x20",
          "logIndex": "0x93",
          "removed": false
        },
        {
          "address": "0xf077d4d0508505c5a80249afc10bc6ead90e47f1",
          "topics": [
            "0xe36ceebd3770780c5617d53efc7d77328074f1248146245ed3b854cbf651fb37"
          ],
          "data": "0x000000000000000000000000eca7a53ba6a190c5d205bfdc7707cbc3399336c1000000000000000000000000000000000000000000000000000000000000000000000000000000000000000000000000000000000000000000000000000000010000000000000000000000000000000000000000000000000000000000000000000000000000000000000000000000000000000000000019a43191f047c400000000000000000000000000000000000000000000000000000000000000000014000000000000000000000000000000000000000000000000000000006988201b0000000000000000000000000000000000000000000000000000000069881c97",
          "blockHash": "0x227c02b81ad40e1a5d748c0240abf4386e077a075a020ade3fad1f32189ae814",
          "blockNumber": "0x188ad47",
          "transactionHash": "0x57a2d01f4e9234e12dc69a46e18de6c39924368b41803dffc9f6fd15d6515ca7",
          "transactionIndex": "0x20",
          "logIndex": "0x94",
          "removed": false
        }
      ],
      "logsBloom": "0x00000000000000000000000000000000004000000000000000000000400000000000000000000000000000000000000000000000000000000000000000000000000000000000000000008000000000000000000000000000000000000000000000000100000000000000000000000000400000000000000000000000000000000000000000000000000000100000000000000000000020000000000000000008000000000000000000000000000000000010000000000000000000000000000000000000000002000100000000000000000000000000000000000000000000000000000000000000000000000000000000000000000000000000000000000002",
      "type": "0x2",
      "transactionHash": "0x57a2d01f4e9234e12dc69a46e18de6c39924368b41803dffc9f6fd15d6515ca7",
      "transactionIndex": "0x20",
      "blockHash": "0x227c02b81ad40e1a5d748c0240abf4386e077a075a020ade3fad1f32189ae814",
      "blockNumber": "0x188ad47",
      "gasUsed": "0x3e2cd",
      "effectiveGasPrice": "0x2c93b043131dd",
      "from": "0xeca7a53ba6a190c5d205bfdc7707cbc3399336c1",
      "to": "0xf077d4d0508505c5a80249afc10bc6ead90e47f1",
      "contractAddress": null
    }
  ],
  "libraries": [],
  "pending": [],
  "returns": {},
  "timestamp": 1770527895938,
  "chain": 369,
  "commit": null
}