{
  "transactions": [
    {
      "hash": "0x0f8239b86d20b01e6cea599022cb7fa9747dd24ac766334af4534996750051c1",
      "transactionType": "CALL",
      "contractName": null,
      "contractAddress": "0xf077d4d0508505c5a80249afc10bc6ead90e47f1",
      "function": "makeCrime(uint8)",
      "arguments": [
        "0"
      ],
      "transaction": {
        "from": "0x4c62f6121e6f967a0872da8364995e9b68c1e82f",
        "to": "0xf077d4d0508505c5a80249afc10bc6ead90e47f1",
        "gas": "0x409a4",
        "value": "0x0",
        "input": "0xc625abb40000000000000000000000000000000000000000000000000000000000000000",
        "nonce": "0x769",
        "chainId": "0x171"
      },
      "additionalContracts": [],
      "isFixedGasLimit": false
    }
  ],
  "receipts": [
    {
      "status": "0x1",
      "cumulativeGasUsed": "0x18a455e",
      "logs": [
        {
          "address": "0xdcd5e9c0b2b4e9cb93677a258521d854b3a9f5a1",
          "topics": [
            "0x0bff5315606c84d1cee047503678048ca39946be11bfdd5a8c03fe5e272d98e3"
          ],
          "data": "0x0000000000000000000000004c62f6121e6f967a0872da8364995e9b68c1e82f00000000000000000000000000000000000000000000000000000000697b3ecd0000000000000000000000000000000000000000000000000000000000000000",
          "blockHash": "0xed95cf48c863302533c40f2a07cbe7134958c366a8c81dbedbc695b06a8471ac",
          "blockNumber": "0x1876baa",
          "transactionHash": "0x0f8239b86d20b01e6cea599022cb7fa9747dd24ac766334af4534996750051c1",
          "transactionIndex": "0x42",
          "logIndex": "0x1e4",
          "removed": false
        },
        {
          "address": "0xf077d4d0508505c5a80249afc10bc6ead90e47f1",
          "topics": [
            "0xe36ceebd3770780c5617d53efc7d77328074f1248146245ed3b854cbf651fb37"
          ],
          "data": "0x0000000000000000000000004c62f6121e6f967a0872da8364995e9b68c1e82f0000000000000000000000000000000000000000000000000000000000000000000000000000000000000000000000000000000000000000000000000000000000000000000000000000000000000000000000000000000000000000000000010000000000000000000000000000000000000000000000000000000000000000000000000000000000000000000000000000000000000000000000000000000000000000000000000000000000000000000000000000000000000000697b3d0b00000000000000000000000000000000000000000000000000000000697b3987",
          "blockHash": "0xed95cf48c863302533c40f2a07cbe7134958c366a8c81dbedbc695b06a8471ac",
          "blockNumber": "0x1876baa",
          "transactionHash": "0x0f8239b86d20b01e6cea599022cb7fa9747dd24ac766334af4534996750051c1",
          "transactionIndex": "0x42",
          "logIndex": "0x1e5",
          "removed": false
        }
      ],
      "logsBloom": "0x00000000000000000000000000000000010000000000000000000000400000000000000000000000000000000000000000000000000000000000000000000000000000000000000000000000000000000000000000000000001000000000000000000000000000000000000000000000400000000080000000000000000000000000000000000000000000100000000000000000000020000000000000000000000000000000000000000000000000000000000000000000400000000000000000000000000000000100000000000040000000000000000000000000000000000000000000000000000000000000000000000000000000000000000000001002",
      "type": "0x2",
      "transactionHash": "0x0f8239b86d20b01e6cea599022cb7fa9747dd24ac766334af4534996750051c1",
      "transactionIndex": "0x42",
      "blockHash": "0xed95cf48c863302533c40f2a07cbe7134958c366a8c81dbedbc695b06a8471ac",
      "blockNumber": "0x1876baa",
      "gasUsed": "0x2ec57",
      "effectiveGasPrice": "0x1a8b53d8d653a",
      "from": "0x4c62f6121e6f967a0872da8364995e9b68c1e82f",
      "to": "0xf077d4d0508505c5a80249afc10bc6ead90e47f1",
      "contractAddress": null
    }
  ],
  "libraries": [],
  "pending": [],
  "returns": {},
  "timestamp": 1769683336740,
  "chain": 369,
  "commit": null
}