{
  "transactions": [
    {
      "hash": "0x61d9cd685d26474953af461ed3000380fc7517b5dd14ac87765fe759338ef98e",
      "transactionType": "CALL",
      "contractName": null,
      "contractAddress": "0xf077d4d0508505c5a80249afc10bc6ead90e47f1",
      "function": "makeCrime(uint8)",
      "arguments": [
        "0"
      ],
      "transaction": {
        "from": "0xac56dc5a4a9de0197f7b8f584ea04ec7e0123dde",
        "to": "0xf077d4d0508505c5a80249afc10bc6ead90e47f1",
        "gas": "0x4033d",
        "value": "0x0",
        "input": "0xc625abb40000000000000000000000000000000000000000000000000000000000000000",
        "nonce": "0x36c",
        "chainId": "0x171"
      },
      "additionalContracts": [],
      "isFixedGasLimit": false
    }
  ],
  "receipts": [
    {
      "status": "0x1",
      "cumulativeGasUsed": "0x176f3dc",
      "logs": [
        {
          "address": "0xf077d4d0508505c5a80249afc10bc6ead90e47f1",
          "topics": [
            "0xe36ceebd3770780c5617d53efc7d77328074f1248146245ed3b854cbf651fb37"
          ],
          "data": "0x000000000000000000000000ac56dc5a4a9de0197f7b8f584ea04ec7e0123dde00000000000000000000000000000000000000000000000000000000000000000000000000000000000000000000000000000000000000000000000000000000000000000000000000000000000000000000000000000000000000000000000000000000000000000000000000000000000000000000000000000000000000000000000000000000000000000000000000000000000000000000000000000000000000000000000000000000000000000000000000000000000000006979aff9000000000000000000000000000000000000000000000000000000006979ac75",
          "blockHash": "0x386c87449ad0f61ae1758d0947c77762e61731129fd0baa94a05db9bec20a137",
          "blockNumber": "0x18744df",
          "transactionHash": "0x61d9cd685d26474953af461ed3000380fc7517b5dd14ac87765fe759338ef98e",
          "transactionIndex": "0x36",
          "logIndex": "0x32f",
          "removed": false
        }
      ],
      "logsBloom": "0x00000000000000000000000000000000000000000000000000000000400000000000000000000000000000000000000000000000000000000000000000000000000000000000000000000000000000000000000000000000000000000000000000000000000000000000000000000000400000000000000000000000000000000000000000000000000000100000000000000000000020000000000000000000000000000000000000000000000000000000000000000000000000000000000000000000000000000100000000000000000000000000000000000000000000000000000000000000000000000000000000000000000000000000000000000002",
      "type": "0x2",
      "transactionHash": "0x61d9cd685d26474953af461ed3000380fc7517b5dd14ac87765fe759338ef98e",
      "transactionIndex": "0x36",
      "blockHash": "0x386c87449ad0f61ae1758d0947c77762e61731129fd0baa94a05db9bec20a137",
      "blockNumber": "0x18744df",
      "gasUsed": "0x1eca9",
      "effectiveGasPrice": "0x228858d3aa1d5",
      "from": "0xac56dc5a4a9de0197f7b8f584ea04ec7e0123dde",
      "to": "0xf077d4d0508505c5a80249afc10bc6ead90e47f1",
      "contractAddress": null
    }
  ],
  "libraries": [],
  "pending": [],
  "returns": {},
  "timestamp": 1769581685593,
  "chain": 369,
  "commit": null
}