{
  "transactions": [
    {
      "hash": "0x80eb4b1bb927fd985818bc4bb6612f64a294c57a8d239eba7dfd092d9ebe42d0",
      "transactionType": "CALL",
      "contractName": null,
      "contractAddress": "0xf077d4d0508505c5a80249afc10bc6ead90e47f1",
      "function": "makeCrime(uint8)",
      "arguments": [
        "0"
      ],
      "transaction": {
        "from": "0xeca7a53ba6a190c5d205bfdc7707cbc3399336c1",
        "to": "0xf077d4d0508505c5a80249afc10bc6ead90e47f1",
        "gas": "0x55e10",
        "value": "0x0",
        "input": "0xc625abb40000000000000000000000000000000000000000000000000000000000000000",
        "nonce": "0x580",
        "chainId": "0x171"
      },
      "additionalContracts": [],
      "isFixedGasLimit": false
    }
  ],
  "receipts": [
    {
      "status": "0x1",
      "cumulativeGasUsed": "0x14241a5",
      "logs": [
        {
          "address": "0xf077d4d0508505c5a80249afc10bc6ead90e47f1",
          "topics": [
            "0xe36ceebd3770780c5617d53efc7d77328074f1248146245ed3b854cbf651fb37"
          ],
          "data": "0x000000000000000000000000eca7a53ba6a190c5d205bfdc7707cbc3399336c100000000000000000000000000000000000000000000000000000000000000000000000000000000000000000000000000000000000000000000000000000000000000000000000000000000000000000000000000000000000000000000000000000000000000000000000000000000000000000000000000000000000000000000000000000000000000000000000000000000000000000000000000000000000000000000000000000000000000000000000000000000000000006987f25d000000000000000000000000000000000000000000000000000000006987eed9",
          "blockHash": "0x7c2a11fe745a13ddbd996db774aa881009cdcc0bbfc2d36dfb8a5aecacb75f87",
          "blockNumber": "0x188a8ca",
          "transactionHash": "0x80eb4b1bb927fd985818bc4bb6612f64a294c57a8d239eba7dfd092d9ebe42d0",
          "transactionIndex": "0x57",
          "logIndex": "0x27c",
          "removed": false
        }
      ],
      "logsBloom": "0x00000000000000000000000000000000000000000000000000000000400000000000000000000000000000000000000000000000000000000000000000000000000000000000000000000000000000000000000000000000000000000000000000000000000000000000000000000000400000000000000000000000000000000000000000000000000000100000000000000000000020000000000000000000000000000000000000000000000000000000000000000000000000000000000000000000000000000100000000000000000000000000000000000000000000000000000000000000000000000000000000000000000000000000000000000002",
      "type": "0x2",
      "transactionHash": "0x80eb4b1bb927fd985818bc4bb6612f64a294c57a8d239eba7dfd092d9ebe42d0",
      "transactionIndex": "0x57",
      "blockHash": "0x7c2a11fe745a13ddbd996db774aa881009cdcc0bbfc2d36dfb8a5aecacb75f87",
      "blockNumber": "0x188a8ca",
      "gasUsed": "0x1f525",
      "effectiveGasPrice": "0x327715003e7a9",
      "from": "0xeca7a53ba6a190c5d205bfdc7707cbc3399336c1",
      "to": "0xf077d4d0508505c5a80249afc10bc6ead90e47f1",
      "contractAddress": null
    }
  ],
  "libraries": [],
  "pending": [],
  "returns": {},
  "timestamp": 1770516186462,
  "chain": 369,
  "commit": null
}