{
  "transactions": [
    {
      "hash": "0x77bfc90497715d549ba044298367b81fb5390d0a0afd467642fe48c4e74f9209",
      "transactionType": "CALL",
      "contractName": null,
      "contractAddress": "0xf077d4d0508505c5a80249afc10bc6ead90e47f1",
      "function": "makeCrime(uint8)",
      "arguments": [
        "0"
      ],
      "transaction": {
        "from": "0xac56dc5a4a9de0197f7b8f584ea04ec7e0123dde",
        "to": "0xf077d4d0508505c5a80249afc10bc6ead90e47f1",
        "gas": "0x44caf",
        "value": "0x0",
        "input": "0xc625abb40000000000000000000000000000000000000000000000000000000000000000",
        "nonce": "0x4e9",
        "chainId": "0x171"
      },
      "additionalContracts": [],
      "isFixedGasLimit": false
    }
  ],
  "receipts": [
    {
      "status": "0x1",
      "cumulativeGasUsed": "0x19c0254",
      "logs": [
        {
          "address": "0xf077d4d0508505c5a80249afc10bc6ead90e47f1",
          "topics": [
            "0xe36ceebd3770780c5617d53efc7d77328074f1248146245ed3b854cbf651fb37"
          ],
          "data": "0x000000000000000000000000ac56dc5a4a9de0197f7b8f584ea04ec7e0123dde00000000000000000000000000000000000000000000000000000000000000000000000000000000000000000000000000000000000000000000000000000000000000000000000000000000000000000000000000000000000000000000000000000000000000000000000000000000000000000000000000000000000000000000000000000000000000000000000000000000000000000000000000000000000000000000000000000000000000000000000000000000000000006987d89f000000000000000000000000000000000000000000000000000000006987d51b",
          "blockHash": "0x820ab2b41209fc053caf95d90b5f7357dc63f14ed29eaa0f1f76309f47973bcb",
          "blockNumber": "0x188a647",
          "transactionHash": "0x77bfc90497715d549ba044298367b81fb5390d0a0afd467642fe48c4e74f9209",
          "transactionIndex": "0x62",
          "logIndex": "0x243",
          "removed": false
        }
      ],
      "logsBloom": "0x00000000000000000000000000000000000000000000000000000000400000000000000000000000000000000000000000000000000000000000000000000000000000000000000000000000000000000000000000000000000000000000000000000000000000000000000000000000400000000000000000000000000000000000000000000000000000100000000000000000000020000000000000000000000000000000000000000000000000000000000000000000000000000000000000000000000000000100000000000000000000000000000000000000000000000000000000000000000000000000000000000000000000000000000000000002",
      "type": "0x2",
      "transactionHash": "0x77bfc90497715d549ba044298367b81fb5390d0a0afd467642fe48c4e74f9209",
      "transactionIndex": "0x62",
      "blockHash": "0x820ab2b41209fc053caf95d90b5f7357dc63f14ed29eaa0f1f76309f47973bcb",
      "blockNumber": "0x188a647",
      "gasUsed": "0x1eca9",
      "effectiveGasPrice": "0x2e9be71ff0a1b",
      "from": "0xac56dc5a4a9de0197f7b8f584ea04ec7e0123dde",
      "to": "0xf077d4d0508505c5a80249afc10bc6ead90e47f1",
      "contractAddress": null
    }
  ],
  "libraries": [],
  "pending": [],
  "returns": {},
  "timestamp": 1770509596619,
  "chain": 369,
  "commit": null
}