{
  "transactions": [
    {
      "hash": "0xf676b83edb55d868616fa2ac0259edb0d73d0ec394557b2623c58486ebbcfbd2",
      "transactionType": "CALL",
      "contractName": null,
      "contractAddress": "0xf077d4d0508505c5a80249afc10bc6ead90e47f1",
      "function": "makeCrime(uint8)",
      "arguments": [
        "0"
      ],
      "transaction": {
        "from": "0xeca7a53ba6a190c5d205bfdc7707cbc3399336c1",
        "to": "0xf077d4d0508505c5a80249afc10bc6ead90e47f1",
        "gas": "0x54ec2",
        "value": "0x0",
        "input": "0xc625abb40000000000000000000000000000000000000000000000000000000000000000",
        "nonce": "0x391",
        "chainId": "0x171"
      },
      "additionalContracts": [],
      "isFixedGasLimit": false
    }
  ],
  "receipts": [
    {
      "status": "0x1",
      "cumulativeGasUsed": "0x61f594",
      "logs": [
        {
          "address": "0xf077d4d0508505c5a80249afc10bc6ead90e47f1",
          "topics": [
            "0xe36ceebd3770780c5617d53efc7d77328074f1248146245ed3b854cbf651fb37"
          ],
          "data": "0x000000000000000000000000eca7a53ba6a190c5d205bfdc7707cbc3399336c100000000000000000000000000000000000000000000000000000000000000000000000000000000000000000000000000000000000000000000000000000000000000000000000000000000000000000000000000000000000000000000000000000000000000000000000000000000000000000000000000000000000000000000000000000000000000000000000000000000000000000000000000000000000000000000000000000000000000000000000000000000000000006979bf21000000000000000000000000000000000000000000000000000000006979bb9d",
          "blockHash": "0x23bb320994afb198e316e01cb43a1ade8053c3ea3093fd0dd7275d4d1076d3e9",
          "blockNumber": "0x1874659",
          "transactionHash": "0xf676b83edb55d868616fa2ac0259edb0d73d0ec394557b2623c58486ebbcfbd2",
          "transactionIndex": "0x1a",
          "logIndex": "0x96",
          "removed": false
        }
      ],
      "logsBloom": "0x00000000000000000000000000000000000000000000000000000000400000000000000000000000000000000000000000000000000000000000000000000000000000000000000000000000000000000000000000000000000000000000000000000000000000000000000000000000400000000000000000000000000000000000000000000000000000100000000000000000000020000000000000000000000000000000000000000000000000000000000000000000000000000000000000000000000000000100000000000000000000000000000000000000000000000000000000000000000000000000000000000000000000000000000000000002",
      "type": "0x2",
      "transactionHash": "0xf676b83edb55d868616fa2ac0259edb0d73d0ec394557b2623c58486ebbcfbd2",
      "transactionIndex": "0x1a",
      "blockHash": "0x23bb320994afb198e316e01cb43a1ade8053c3ea3093fd0dd7275d4d1076d3e9",
      "blockNumber": "0x1874659",
      "gasUsed": "0x1f525",
      "effectiveGasPrice": "0x22c252cf00013",
      "from": "0xeca7a53ba6a190c5d205bfdc7707cbc3399336c1",
      "to": "0xf077d4d0508505c5a80249afc10bc6ead90e47f1",
      "contractAddress": null
    }
  ],
  "libraries": [],
  "pending": [],
  "returns": {},
  "timestamp": 1769585566911,
  "chain": 369,
  "commit": null
}