{
  "transactions": [
    {
      "hash": "0x10fa3887d813f8b82dfcce67d4c84a026a888ff454665bbba85f89dca618bb02",
      "transactionType": "CALL",
      "contractName": null,
      "contractAddress": "0xf077d4d0508505c5a80249afc10bc6ead90e47f1",
      "function": "makeCrime(uint8)",
      "arguments": [
        "0"
      ],
      "transaction": {
        "from": "0xaa73aa98480757d75aae288b5931261448eb0530",
        "to": "0xf077d4d0508505c5a80249afc10bc6ead90e47f1",
        "gas": "0x409a4",
        "value": "0x0",
        "input": "0xc625abb40000000000000000000000000000000000000000000000000000000000000000",
        "nonce": "0x58",
        "chainId": "0x171"
      },
      "additionalContracts": [],
      "isFixedGasLimit": false
    }
  ],
  "receipts": [
    {
      "status": "0x1",
      "cumulativeGasUsed": "0xa8b899",
      "logs": [
        {
          "address": "0x74eadd7ebeeed638fd7c413134fa3d3433699d92",
          "topics": [
            "0x570f308d592bed3a47a73125665ce3b81fe296da89acff1af6d926e08a0a9f12"
          ],
          "data": "0x000000000000000000000000aa73aa98480757d75aae288b5931261448eb05300000000000000000000000000000000000000000000000000000000000000384",
          "blockHash": "0x7935cb6b0c3e73ef3a8d636218b2b10d12c3acb2972a3048e85f007e8cc5b983",
          "blockNumber": "0x188a966",
          "transactionHash": "0x10fa3887d813f8b82dfcce67d4c84a026a888ff454665bbba85f89dca618bb02",
          "transactionIndex": "0x32",
          "logIndex": "0x17b",
          "removed": false
        },
        {
          "address": "0xf077d4d0508505c5a80249afc10bc6ead90e47f1",
          "topics": [
            "0xe36ceebd3770780c5617d53efc7d77328074f1248146245ed3b854cbf651fb37"
          ],
          "data": "0x000000000000000000000000aa73aa98480757d75aae288b5931261448eb053000000000000000000000000000000000000000000000000000000000000000000000000000000000000000000000000000000000000000000000000000000001000000000000000000000000000000000000000000000000000000000000000000000000000000000000000000000000000000000000000fe2311b9e957400000000000000000000000000000000000000000000000000000000000000000064000000000000000000000000000000000000000000000000000000006987f893000000000000000000000000000000000000000000000000000000006987f50f",
          "blockHash": "0x7935cb6b0c3e73ef3a8d636218b2b10d12c3acb2972a3048e85f007e8cc5b983",
          "blockNumber": "0x188a966",
          "transactionHash": "0x10fa3887d813f8b82dfcce67d4c84a026a888ff454665bbba85f89dca618bb02",
          "transactionIndex": "0x32",
          "logIndex": "0x17c",
          "removed": false
        }
      ],
      "logsBloom": "0x00000000000000000000000000000000004000000000000000000000400000000000000000000000000000000000000000000000000000000000000000000000000000000000000000008000000000000000000000000000000000000000000000000100000000000000000000000000400000000000000000000000000000000000000000000000000000100000000000000000000020000000000000000008000000000000000000000000000000000010000000000000000000000000000000000000000002000100000000000000000000000000000000000000000000000000000000000000000000000000000000000000000000000000000000000002",
      "type": "0x2",
      "transactionHash": "0x10fa3887d813f8b82dfcce67d4c84a026a888ff454665bbba85f89dca618bb02",
      "transactionIndex": "0x32",
      "blockHash": "0x7935cb6b0c3e73ef3a8d636218b2b10d12c3acb2972a3048e85f007e8cc5b983",
      "blockNumber": "0x188a966",
      "gasUsed": "0x3d5a5",
      "effectiveGasPrice": "0x337754c4177c1",
      "from": "0xaa73aa98480757d75aae288b5931261448eb0530",
      "to": "0xf077d4d0508505c5a80249afc10bc6ead90e47f1",
      "contractAddress": null
    }
  ],
  "libraries": [],
  "pending": [],
  "returns": {},
  "timestamp": 1770517775975,
  "chain": 369,
  "commit": null
}