{
  "transactions": [
    {
      "hash": "0xd75696a9bc9930b4317fa1d45ede6934157cbe17ee67f0f26492d32babc5bcff",
      "transactionType": "CALL",
      "contractName": null,
      "contractAddress": "0xf077d4d0508505c5a80249afc10bc6ead90e47f1",
      "function": "makeCrime(uint8)",
      "arguments": [
        "0"
      ],
      "transaction": {
        "from": "0xac56dc5a4a9de0197f7b8f584ea04ec7e0123dde",
        "to": "0xf077d4d0508505c5a80249afc10bc6ead90e47f1",
        "gas": "0x4033d",
        "value": "0x0",
        "input": "0xc625abb40000000000000000000000000000000000000000000000000000000000000000",
        "nonce": "0x368",
        "chainId": "0x171"
      },
      "additionalContracts": [],
      "isFixedGasLimit": false
    }
  ],
  "receipts": [
    {
      "status": "0x1",
      "cumulativeGasUsed": "0xef6995",
      "logs": [
        {
          "address": "0xf077d4d0508505c5a80249afc10bc6ead90e47f1",
          "topics": [
            "0xe36ceebd3770780c5617d53efc7d77328074f1248146245ed3b854cbf651fb37"
          ],
          "data": "0x000000000000000000000000ac56dc5a4a9de0197f7b8f584ea04ec7e0123dde00000000000000000000000000000000000000000000000000000000000000000000000000000000000000000000000000000000000000000000000000000000000000000000000000000000000000000000000000000000000000000000000000000000000000000000000000000000000000000000000000000000000000000000000000000000000000000000000000000000000000000000000000000000000000000000000000000000000000000000000000000000000000006979a3b5000000000000000000000000000000000000000000000000000000006979a031",
          "blockHash": "0xa4060a9e170cf2c7f6b9bb497185290032aa040c50c2d6ebb147efd70bf778e2",
          "blockNumber": "0x18743ab",
          "transactionHash": "0xd75696a9bc9930b4317fa1d45ede6934157cbe17ee67f0f26492d32babc5bcff",
          "transactionIndex": "0x1a",
          "logIndex": "0x14b",
          "removed": false
        }
      ],
      "logsBloom": "0x00000000000000000000000000000000000000000000000000000000400000000000000000000000000000000000000000000000000000000000000000000000000000000000000000000000000000000000000000000000000000000000000000000000000000000000000000000000400000000000000000000000000000000000000000000000000000100000000000000000000020000000000000000000000000000000000000000000000000000000000000000000000000000000000000000000000000000100000000000000000000000000000000000000000000000000000000000000000000000000000000000000000000000000000000000002",
      "type": "0x2",
      "transactionHash": "0xd75696a9bc9930b4317fa1d45ede6934157cbe17ee67f0f26492d32babc5bcff",
      "transactionIndex": "0x1a",
      "blockHash": "0xa4060a9e170cf2c7f6b9bb497185290032aa040c50c2d6ebb147efd70bf778e2",
      "blockNumber": "0x18743ab",
      "gasUsed": "0x1eca9",
      "effectiveGasPrice": "0x237f4de3d4fd4",
      "from": "0xac56dc5a4a9de0197f7b8f584ea04ec7e0123dde",
      "to": "0xf077d4d0508505c5a80249afc10bc6ead90e47f1",
      "contractAddress": null
    }
  ],
  "libraries": [],
  "pending": [],
  "returns": {},
  "timestamp": 1769578545898,
  "chain": 369,
  "commit": null
}