{
  "transactions": [
    {
      "hash": "0x408c79d2a1a8fbfec333f1329d3f5fe6788208de7dbe9dd861386c6efd0ea122",
      "transactionType": "CALL",
      "contractName": null,
      "contractAddress": "0xf077d4d0508505c5a80249afc10bc6ead90e47f1",
      "function": "makeCrime(uint8)",
      "arguments": [
        "0"
      ],
      "transaction": {
        "from": "0x4c62f6121e6f967a0872da8364995e9b68c1e82f",
        "to": "0xf077d4d0508505c5a80249afc10bc6ead90e47f1",
        "gas": "0x53c96",
        "value": "0x0",
        "input": "0xc625abb40000000000000000000000000000000000000000000000000000000000000000",
        "nonce": "0x709",
        "chainId": "0x171"
      },
      "additionalContracts": [],
      "isFixedGasLimit": false
    }
  ],
  "receipts": [
    {
      "status": "0x1",
      "cumulativeGasUsed": "0xa6b447",
      "logs": [
        {
          "address": "0xdcd5e9c0b2b4e9cb93677a258521d854b3a9f5a1",
          "topics": [
            "0x0bff5315606c84d1cee047503678048ca39946be11bfdd5a8c03fe5e272d98e3"
          ],
          "data": "0x0000000000000000000000004c62f6121e6f967a0872da8364995e9b68c1e82f0000000000000000000000000000000000000000000000000000000069795fdb0000000000000000000000000000000000000000000000000000000000000000",
          "blockHash": "0x188535f6976682a05feca98cb8999cc6f7c28bb47d57326d58b534f6bf76acd2",
          "blockNumber": "0x1873ce0",
          "transactionHash": "0x408c79d2a1a8fbfec333f1329d3f5fe6788208de7dbe9dd861386c6efd0ea122",
          "transactionIndex": "0x13",
          "logIndex": "0xbf",
          "removed": false
        },
        {
          "address": "0xf077d4d0508505c5a80249afc10bc6ead90e47f1",
          "topics": [
            "0xe36ceebd3770780c5617d53efc7d77328074f1248146245ed3b854cbf651fb37"
          ],
          "data": "0x0000000000000000000000004c62f6121e6f967a0872da8364995e9b68c1e82f000000000000000000000000000000000000000000000000000000000000000000000000000000000000000000000000000000000000000000000000000000000000000000000000000000000000000000000000000000000000000000000001000000000000000000000000000000000000000000000000000000000000000000000000000000000000000000000000000000000000000000000000000000000000000000000000000000000000000000000000000000000000000069795e190000000000000000000000000000000000000000000000000000000069795a95",
          "blockHash": "0x188535f6976682a05feca98cb8999cc6f7c28bb47d57326d58b534f6bf76acd2",
          "blockNumber": "0x1873ce0",
          "transactionHash": "0x408c79d2a1a8fbfec333f1329d3f5fe6788208de7dbe9dd861386c6efd0ea122",
          "transactionIndex": "0x13",
          "logIndex": "0xc0",
          "removed": false
        }
      ],
      "logsBloom": "0x00000000000000000000000000000000010000000000000000000000400000000000000000000000000000000000000000000000000000000000000000000000000000000000000000000000000000000000000000000000001000000000000000000000000000000000000000000000400000000080000000000000000000000000000000000000000000100000000000000000000020000000000000000000000000000000000000000000000000000000000000000000400000000000000000000000000000000100000000000040000000000000000000000000000000000000000000000000000000000000000000000000000000000000000000001002",
      "type": "0x2",
      "transactionHash": "0x408c79d2a1a8fbfec333f1329d3f5fe6788208de7dbe9dd861386c6efd0ea122",
      "transactionIndex": "0x13",
      "blockHash": "0x188535f6976682a05feca98cb8999cc6f7c28bb47d57326d58b534f6bf76acd2",
      "blockNumber": "0x1873ce0",
      "gasUsed": "0x2e370",
      "effectiveGasPrice": "0x3b2677013f069",
      "from": "0x4c62f6121e6f967a0872da8364995e9b68c1e82f",
      "to": "0xf077d4d0508505c5a80249afc10bc6ead90e47f1",
      "contractAddress": null
    }
  ],
  "libraries": [],
  "pending": [],
  "returns": {},
  "timestamp": 1769560726128,
  "chain": 369,
  "commit": null
}