{
  "transactions": [
    {
      "hash": "0x4f62efbed528e4f081a7b33d12f925692a4ea98d7d21e3cb110edc4224334a70",
      "transactionType": "CALL",
      "contractName": null,
      "contractAddress": "0xf077d4d0508505c5a80249afc10bc6ead90e47f1",
      "function": "makeCrime(uint8)",
      "arguments": [
        "0"
      ],
      "transaction": {
        "from": "0xeca7a53ba6a190c5d205bfdc7707cbc3399336c1",
        "to": "0xf077d4d0508505c5a80249afc10bc6ead90e47f1",
        "gas": "0x54ec2",
        "value": "0x0",
        "input": "0xc625abb40000000000000000000000000000000000000000000000000000000000000000",
        "nonce": "0x38e",
        "chainId": "0x171"
      },
      "additionalContracts": [],
      "isFixedGasLimit": false
    }
  ],
  "receipts": [
    {
      "status": "0x1",
      "cumulativeGasUsed": "0xdf74d8",
      "logs": [
        {
          "address": "0x74eadd7ebeeed638fd7c413134fa3d3433699d92",
          "topics": [
            "0x570f308d592bed3a47a73125665ce3b81fe296da89acff1af6d926e08a0a9f12"
          ],
          "data": "0x000000000000000000000000eca7a53ba6a190c5d205bfdc7707cbc3399336c100000000000000000000000000000000000000000000000000000000000230b6",
          "blockHash": "0x028c18ea4e3bfc45d58396531960ae9721d2ac606f3f9209ec625c213d1b991d",
          "blockNumber": "0x187459d",
          "transactionHash": "0x4f62efbed528e4f081a7b33d12f925692a4ea98d7d21e3cb110edc4224334a70",
          "transactionIndex": "0x13",
          "logIndex": "0x284",
          "removed": false
        },
        {
          "address": "0xf077d4d0508505c5a80249afc10bc6ead90e47f1",
          "topics": [
            "0xe36ceebd3770780c5617d53efc7d77328074f1248146245ed3b854cbf651fb37"
          ],
          "data": "0x000000000000000000000000eca7a53ba6a190c5d205bfdc7707cbc3399336c1000000000000000000000000000000000000000000000000000000000000000000000000000000000000000000000000000000000000000000000000000000010000000000000000000000000000000000000000000000000000000000000000000000000000000000000000000000000000000000000018aa64b94e82bc00000000000000000000000000000000000000000000000000000000000000000014000000000000000000000000000000000000000000000000000000006979b78d000000000000000000000000000000000000000000000000000000006979b409",
          "blockHash": "0x028c18ea4e3bfc45d58396531960ae9721d2ac606f3f9209ec625c213d1b991d",
          "blockNumber": "0x187459d",
          "transactionHash": "0x4f62efbed528e4f081a7b33d12f925692a4ea98d7d21e3cb110edc4224334a70",
          "transactionIndex": "0x13",
          "logIndex": "0x285",
          "removed": false
        }
      ],
      "logsBloom": "0x00000000000000000000000000000000004000000000000000000000400000000000000000000000000000000000000000000000000000000000000000000000000000000000000000008000000000000000000000000000000000000000000000000100000000000000000000000000400000000000000000000000000000000000000000000000000000100000000000000000000020000000000000000008000000000000000000000000000000000010000000000000000000000000000000000000000002000100000000000000000000000000000000000000000000000000000000000000000000000000000000000000000000000000000000000002",
      "type": "0x2",
      "transactionHash": "0x4f62efbed528e4f081a7b33d12f925692a4ea98d7d21e3cb110edc4224334a70",
      "transactionIndex": "0x13",
      "blockHash": "0x028c18ea4e3bfc45d58396531960ae9721d2ac606f3f9209ec625c213d1b991d",
      "blockNumber": "0x187459d",
      "gasUsed": "0x3d7b8",
      "effectiveGasPrice": "0x3058cb796e6b6",
      "from": "0xeca7a53ba6a190c5d205bfdc7707cbc3399336c1",
      "to": "0xf077d4d0508505c5a80249afc10bc6ead90e47f1",
      "contractAddress": null
    }
  ],
  "libraries": [],
  "pending": [],
  "returns": {},
  "timestamp": 1769583626477,
  "chain": 369,
  "commit": null
}