{
  "transactions": [
    {
      "hash": "0xcbc7b1af0ab9ac4a672f9c5020bad67934422952dfcf06f5880480229d2ca74f",
      "transactionType": "CALL",
      "contractName": null,
      "contractAddress": "0xf077d4d0508505c5a80249afc10bc6ead90e47f1",
      "function": "makeCrime(uint8)",
      "arguments": [
        "0"
      ],
      "transaction": {
        "from": "0xac56dc5a4a9de0197f7b8f584ea04ec7e0123dde",
        "to": "0xf077d4d0508505c5a80249afc10bc6ead90e47f1",
        "gas": "0x552a0",
        "value": "0x0",
        "input": "0xc625abb40000000000000000000000000000000000000000000000000000000000000000",
        "nonce": "0x4ee",
        "chainId": "0x171"
      },
      "additionalContracts": [],
      "isFixedGasLimit": false
    }
  ],
  "receipts": [
    {
      "status": "0x1",
      "cumulativeGasUsed": "0x12ef89f",
      "logs": [
        {
          "address": "0xf077d4d0508505c5a80249afc10bc6ead90e47f1",
          "topics": [
            "0xe36ceebd3770780c5617d53efc7d77328074f1248146245ed3b854cbf651fb37"
          ],
          "data": "0x000000000000000000000000ac56dc5a4a9de0197f7b8f584ea04ec7e0123dde00000000000000000000000000000000000000000000000000000000000000000000000000000000000000000000000000000000000000000000000000000000000000000000000000000000000000000000000000000000000000000000000000000000000000000000000000000000000000000000000000000000000000000000000000000000000000000000000000000000000000000000000000000000000000000000000000000000000000000000000000000000000000006987e943000000000000000000000000000000000000000000000000000000006987e5bf",
          "blockHash": "0xecf48943b339baf42f4522feb37a995cd22e251f93c7cdd94069bec4a1ed0274",
          "blockNumber": "0x188a7e3",
          "transactionHash": "0xcbc7b1af0ab9ac4a672f9c5020bad67934422952dfcf06f5880480229d2ca74f",
          "transactionIndex": "0x29",
          "logIndex": "0x40f",
          "removed": false
        }
      ],
      "logsBloom": "0x00000000000000000000000000000000000000000000000000000000400000000000000000000000000000000000000000000000000000000000000000000000000000000000000000000000000000000000000000000000000000000000000000000000000000000000000000000000400000000000000000000000000000000000000000000000000000100000000000000000000020000000000000000000000000000000000000000000000000000000000000000000000000000000000000000000000000000100000000000000000000000000000000000000000000000000000000000000000000000000000000000000000000000000000000000002",
      "type": "0x2",
      "transactionHash": "0xcbc7b1af0ab9ac4a672f9c5020bad67934422952dfcf06f5880480229d2ca74f",
      "transactionIndex": "0x29",
      "blockHash": "0xecf48943b339baf42f4522feb37a995cd22e251f93c7cdd94069bec4a1ed0274",
      "blockNumber": "0x188a7e3",
      "gasUsed": "0x1eca9",
      "effectiveGasPrice": "0x2c6a45dbba086",
      "from": "0xac56dc5a4a9de0197f7b8f584ea04ec7e0123dde",
      "to": "0xf077d4d0508505c5a80249afc10bc6ead90e47f1",
      "contractAddress": null
    }
  ],
  "libraries": [],
  "pending": [],
  "returns": {},
  "timestamp": 1770513856434,
  "chain": 369,
  "commit": null
}