{
  "transactions": [
    {
      "hash": "0x6ece5b28bc345a0fb20dfca18780916e5a4b09b7fb2ac63d6ec8bf39816faf27",
      "transactionType": "CALL",
      "contractName": null,
      "contractAddress": "0xf077d4d0508505c5a80249afc10bc6ead90e47f1",
      "function": "makeCrime(uint8)",
      "arguments": [
        "0"
      ],
      "transaction": {
        "from": "0xeca7a53ba6a190c5d205bfdc7707cbc3399336c1",
        "to": "0xf077d4d0508505c5a80249afc10bc6ead90e47f1",
        "gas": "0x54ec2",
        "value": "0x0",
        "input": "0xc625abb40000000000000000000000000000000000000000000000000000000000000000",
        "nonce": "0x37a",
        "chainId": "0x171"
      },
      "additionalContracts": [],
      "isFixedGasLimit": false
    }
  ],
  "receipts": [
    {
      "status": "0x1",
      "cumulativeGasUsed": "0x15dafad",
      "logs": [
        {
          "address": "0xdcd5e9c0b2b4e9cb93677a258521d854b3a9f5a1",
          "topics": [
            "0x0bff5315606c84d1cee047503678048ca39946be11bfdd5a8c03fe5e272d98e3"
          ],
          "data": "0x000000000000000000000000eca7a53ba6a190c5d205bfdc7707cbc3399336c10000000000000000000000000000000000000000000000000000000069796e4f0000000000000000000000000000000000000000000000000000000000000000",
          "blockHash": "0xb8df3d8332ae25ede4349ac5bb7340babba6faecd169c8aad1de36777fc0d907",
          "blockNumber": "0x1873e48",
          "transactionHash": "0x6ece5b28bc345a0fb20dfca18780916e5a4b09b7fb2ac63d6ec8bf39816faf27",
          "transactionIndex": "0x25",
          "logIndex": "0x2f8",
          "removed": false
        },
        {
          "address": "0xf077d4d0508505c5a80249afc10bc6ead90e47f1",
          "topics": [
            "0xe36ceebd3770780c5617d53efc7d77328074f1248146245ed3b854cbf651fb37"
          ],
          "data": "0x000000000000000000000000eca7a53ba6a190c5d205bfdc7707cbc3399336c1000000000000000000000000000000000000000000000000000000000000000000000000000000000000000000000000000000000000000000000000000000000000000000000000000000000000000000000000000000000000000000000001000000000000000000000000000000000000000000000000000000000000000000000000000000000000000000000000000000000000000000000000000000000000000000000000000000000000000000000000000000000000000069796c8d0000000000000000000000000000000000000000000000000000000069796909",
          "blockHash": "0xb8df3d8332ae25ede4349ac5bb7340babba6faecd169c8aad1de36777fc0d907",
          "blockNumber": "0x1873e48",
          "transactionHash": "0x6ece5b28bc345a0fb20dfca18780916e5a4b09b7fb2ac63d6ec8bf39816faf27",
          "transactionIndex": "0x25",
          "logIndex": "0x2f9",
          "removed": false
        }
      ],
      "logsBloom": "0x00000000000000000000000000000000010000000000000000000000400000000000000000000000000000000000000000000000000000000000000000000000000000000000000000000000000000000000000000000000001000000000000000000000000000000000000000000000400000000080000000000000000000000000000000000000000000100000000000000000000020000000000000000000000000000000000000000000000000000000000000000000400000000000000000000000000000000100000000000040000000000000000000000000000000000000000000000000000000000000000000000000000000000000000000001002",
      "type": "0x2",
      "transactionHash": "0x6ece5b28bc345a0fb20dfca18780916e5a4b09b7fb2ac63d6ec8bf39816faf27",
      "transactionIndex": "0x25",
      "blockHash": "0xb8df3d8332ae25ede4349ac5bb7340babba6faecd169c8aad1de36777fc0d907",
      "blockNumber": "0x1873e48",
      "gasUsed": "0x2f030",
      "effectiveGasPrice": "0x2827501fc82e4",
      "from": "0xeca7a53ba6a190c5d205bfdc7707cbc3399336c1",
      "to": "0xf077d4d0508505c5a80249afc10bc6ead90e47f1",
      "contractAddress": null
    }
  ],
  "libraries": [],
  "pending": [],
  "returns": {},
  "timestamp": 1769564425760,
  "chain": 369,
  "commit": null
}