{
  "transactions": [
    {
      "hash": "0x0b1e5f227ae7bbcf30b2f45fa2efcdb11d9ba8e24d8d6e8b977bbf78573fc097",
      "transactionType": "CALL",
      "contractName": null,
      "contractAddress": "0xf077d4d0508505c5a80249afc10bc6ead90e47f1",
      "function": "makeCrime(uint8)",
      "arguments": [
        "0"
      ],
      "transaction": {
        "from": "0x4c62f6121e6f967a0872da8364995e9b68c1e82f",
        "to": "0xf077d4d0508505c5a80249afc10bc6ead90e47f1",
        "gas": "0x3fdab",
        "value": "0x0",
        "input": "0xc625abb40000000000000000000000000000000000000000000000000000000000000000",
        "nonce": "0x6fb",
        "chainId": "0x171"
      },
      "additionalContracts": [],
      "isFixedGasLimit": false
    }
  ],
  "receipts": [
    {
      "status": "0x1",
      "cumulativeGasUsed": "0x1e396fe",
      "logs": [
        {
          "address": "0xdcd5e9c0b2b4e9cb93677a258521d854b3a9f5a1",
          "topics": [
            "0x0bff5315606c84d1cee047503678048ca39946be11bfdd5a8c03fe5e272d98e3"
          ],
          "data": "0x0000000000000000000000004c62f6121e6f967a0872da8364995e9b68c1e82f00000000000000000000000000000000000000000000000000000000697936410000000000000000000000000000000000000000000000000000000000000000",
          "blockHash": "0xa70c190930049779d2519ff51b28172f4df2e25f90005b1e23f476eca7d1237b",
          "blockNumber": "0x18738cb",
          "transactionHash": "0x0b1e5f227ae7bbcf30b2f45fa2efcdb11d9ba8e24d8d6e8b977bbf78573fc097",
          "transactionIndex": "0x28",
          "logIndex": "0x5f3",
          "removed": false
        },
        {
          "address": "0xf077d4d0508505c5a80249afc10bc6ead90e47f1",
          "topics": [
            "0xe36ceebd3770780c5617d53efc7d77328074f1248146245ed3b854cbf651fb37"
          ],
          "data": "0x0000000000000000000000004c62f6121e6f967a0872da8364995e9b68c1e82f00000000000000000000000000000000000000000000000000000000000000000000000000000000000000000000000000000000000000000000000000000000000000000000000000000000000000000000000000000000000000000000000100000000000000000000000000000000000000000000000000000000000000000000000000000000000000000000000000000000000000000000000000000000000000000000000000000000000000000000000000000000000000006979347f00000000000000000000000000000000000000000000000000000000697930fb",
          "blockHash": "0xa70c190930049779d2519ff51b28172f4df2e25f90005b1e23f476eca7d1237b",
          "blockNumber": "0x18738cb",
          "transactionHash": "0x0b1e5f227ae7bbcf30b2f45fa2efcdb11d9ba8e24d8d6e8b977bbf78573fc097",
          "transactionIndex": "0x28",
          "logIndex": "0x5f4",
          "removed": false
        }
      ],
      "logsBloom": "0x00000000000000000000000000000000010000000000000000000000400000000000000000000000000000000000000000000000000000000000000000000000000000000000000000000000000000000000000000000000001000000000000000000000000000000000000000000000400000000080000000000000000000000000000000000000000000100000000000000000000020000000000000000000000000000000000000000000000000000000000000000000400000000000000000000000000000000100000000000040000000000000000000000000000000000000000000000000000000000000000000000000000000000000000000001002",
      "type": "0x2",
      "transactionHash": "0x0b1e5f227ae7bbcf30b2f45fa2efcdb11d9ba8e24d8d6e8b977bbf78573fc097",
      "transactionIndex": "0x28",
      "blockHash": "0xa70c190930049779d2519ff51b28172f4df2e25f90005b1e23f476eca7d1237b",
      "blockNumber": "0x18738cb",
      "gasUsed": "0x2e3ac",
      "effectiveGasPrice": "0x3b5e3093b6c1d",
      "from": "0x4c62f6121e6f967a0872da8364995e9b68c1e82f",
      "to": "0xf077d4d0508505c5a80249afc10bc6ead90e47f1",
      "contractAddress": null
    }
  ],
  "libraries": [],
  "pending": [],
  "returns": {},
  "timestamp": 1769550076641,
  "chain": 369,
  "commit": null
}