{
  "transactions": [
    {
      "hash": "0xcebb7d008ba04020f22ff7576574323d911df1a230e894ef71c36f7c2129c64b",
      "transactionType": "CALL",
      "contractName": null,
      "contractAddress": "0xf077d4d0508505c5a80249afc10bc6ead90e47f1",
      "function": "makeCrime(uint8)",
      "arguments": [
        "0"
      ],
      "transaction": {
        "from": "0xaa73aa98480757d75aae288b5931261448eb0530",
        "to": "0xf077d4d0508505c5a80249afc10bc6ead90e47f1",
        "gas": "0x409a4",
        "value": "0x0",
        "input": "0xc625abb40000000000000000000000000000000000000000000000000000000000000000",
        "nonce": "0x64",
        "chainId": "0x171"
      },
      "additionalContracts": [],
      "isFixedGasLimit": false
    }
  ],
  "receipts": [
    {
      "status": "0x1",
      "cumulativeGasUsed": "0x719225",
      "logs": [
        {
          "address": "0xf077d4d0508505c5a80249afc10bc6ead90e47f1",
          "topics": [
            "0xe36ceebd3770780c5617d53efc7d77328074f1248146245ed3b854cbf651fb37"
          ],
          "data": "0x000000000000000000000000aa73aa98480757d75aae288b5931261448eb0530000000000000000000000000000000000000000000000000000000000000000000000000000000000000000000000000000000000000000000000000000000000000000000000000000000000000000000000000000000000000000000000000000000000000000000000000000000000000000000000000000000000000000000000000000000000000000000000000000000000000000000000000000000000000000000000000000000000000000000000000000000000000000069881e770000000000000000000000000000000000000000000000000000000069881af3",
          "blockHash": "0x88073de1cb2bbf33d56eb9aa8e4721da076f1d82f078b425565089bcc31cf566",
          "blockNumber": "0x188ad1d",
          "transactionHash": "0xcebb7d008ba04020f22ff7576574323d911df1a230e894ef71c36f7c2129c64b",
          "transactionIndex": "0x20",
          "logIndex": "0x9b",
          "removed": false
        }
      ],
      "logsBloom": "0x00000000000000000000000000000000000000000000000000000000400000000000000000000000000000000000000000000000000000000000000000000000000000000000000000000000000000000000000000000000000000000000000000000000000000000000000000000000400000000000000000000000000000000000000000000000000000100000000000000000000020000000000000000000000000000000000000000000000000000000000000000000000000000000000000000000000000000100000000000000000000000000000000000000000000000000000000000000000000000000000000000000000000000000000000000002",
      "type": "0x2",
      "transactionHash": "0xcebb7d008ba04020f22ff7576574323d911df1a230e894ef71c36f7c2129c64b",
      "transactionIndex": "0x20",
      "blockHash": "0x88073de1cb2bbf33d56eb9aa8e4721da076f1d82f078b425565089bcc31cf566",
      "blockNumber": "0x188ad1d",
      "gasUsed": "0x1e865",
      "effectiveGasPrice": "0x2f5560d43f82d",
      "from": "0xaa73aa98480757d75aae288b5931261448eb0530",
      "to": "0xf077d4d0508505c5a80249afc10bc6ead90e47f1",
      "contractAddress": null
    }
  ],
  "libraries": [],
  "pending": [],
  "returns": {},
  "timestamp": 1770527476747,
  "chain": 369,
  "commit": null
}