{
  "transactions": [
    {
      "hash": "0x6bfa567096d0c2025b470575fda155e9515f5f9d00ff30de76ce5aa7a43f567b",
      "transactionType": "CALL",
      "contractName": null,
      "contractAddress": "0xf077d4d0508505c5a80249afc10bc6ead90e47f1",
      "function": "makeCrime(uint8)",
      "arguments": [
        "0"
      ],
      "transaction": {
        "from": "0xeca7a53ba6a190c5d205bfdc7707cbc3399336c1",
        "to": "0xf077d4d0508505c5a80249afc10bc6ead90e47f1",
        "gas": "0x2b434",
        "value": "0x0",
        "input": "0xc625abb40000000000000000000000000000000000000000000000000000000000000000",
        "nonce": "0x5a0",
        "chainId": "0x171"
      },
      "additionalContracts": [],
      "isFixedGasLimit": false
    }
  ],
  "receipts": [
    {
      "status": "0x1",
      "cumulativeGasUsed": "0x10314fd",
      "logs": [
        {
          "address": "0xf077d4d0508505c5a80249afc10bc6ead90e47f1",
          "topics": [
            "0xe36ceebd3770780c5617d53efc7d77328074f1248146245ed3b854cbf651fb37"
          ],
          "data": "0x000000000000000000000000eca7a53ba6a190c5d205bfdc7707cbc3399336c100000000000000000000000000000000000000000000000000000000000000000000000000000000000000000000000000000000000000000000000000000000000000000000000000000000000000000000000000000000000000000000000000000000000000000000000000000000000000000000000000000000000000000000000000000000000000000000000000000000000000000000000000000000000000000000000000000000000000000000000000000000000000006988592d00000000000000000000000000000000000000000000000000000000698855a9",
          "blockHash": "0x1fd8ce61172cf0c9d4feb4ce075bafec9782f3d358c9d658a590337c475ffe44",
          "blockNumber": "0x188b2d0",
          "transactionHash": "0x6bfa567096d0c2025b470575fda155e9515f5f9d00ff30de76ce5aa7a43f567b",
          "transactionIndex": "0x12",
          "logIndex": "0x1b2",
          "removed": false
        }
      ],
      "logsBloom": "0x00000000000000000000000000000000000000000000000000000000400000000000000000000000000000000000000000000000000000000000000000000000000000000000000000000000000000000000000000000000000000000000000000000000000000000000000000000000400000000000000000000000000000000000000000000000000000100000000000000000000020000000000000000000000000000000000000000000000000000000000000000000000000000000000000000000000000000100000000000000000000000000000000000000000000000000000000000000000000000000000000000000000000000000000000000002",
      "type": "0x2",
      "transactionHash": "0x6bfa567096d0c2025b470575fda155e9515f5f9d00ff30de76ce5aa7a43f567b",
      "transactionIndex": "0x12",
      "blockHash": "0x1fd8ce61172cf0c9d4feb4ce075bafec9782f3d358c9d658a590337c475ffe44",
      "blockNumber": "0x188b2d0",
      "gasUsed": "0x1f525",
      "effectiveGasPrice": "0x2ea1ef7e5eea8",
      "from": "0xeca7a53ba6a190c5d205bfdc7707cbc3399336c1",
      "to": "0xf077d4d0508505c5a80249afc10bc6ead90e47f1",
      "contractAddress": null
    }
  ],
  "libraries": [],
  "pending": [],
  "returns": {},
  "timestamp": 1770542505873,
  "chain": 369,
  "commit": null
}