{
  "transactions": [
    {
      "hash": "0xa0564b5af5d4a2b1b3dfee6ffe61e1f3417c09ad68b1a3280ff96b3f5ccde407",
      "transactionType": "CALL",
      "contractName": null,
      "contractAddress": "0xf077d4d0508505c5a80249afc10bc6ead90e47f1",
      "function": "makeCrime(uint8)",
      "arguments": [
        "0"
      ],
      "transaction": {
        "from": "0x4c62f6121e6f967a0872da8364995e9b68c1e82f",
        "to": "0xf077d4d0508505c5a80249afc10bc6ead90e47f1",
        "gas": "0x3fd59",
        "value": "0x0",
        "input": "0xc625abb40000000000000000000000000000000000000000000000000000000000000000",
        "nonce": "0x755",
        "chainId": "0x171"
      },
      "additionalContracts": [],
      "isFixedGasLimit": false
    }
  ],
  "receipts": [
    {
      "status": "0x1",
      "cumulativeGasUsed": "0x237c6c6",
      "logs": [
        {
          "address": "0xf077d4d0508505c5a80249afc10bc6ead90e47f1",
          "topics": [
            "0xe36ceebd3770780c5617d53efc7d77328074f1248146245ed3b854cbf651fb37"
          ],
          "data": "0x0000000000000000000000004c62f6121e6f967a0872da8364995e9b68c1e82f0000000000000000000000000000000000000000000000000000000000000000000000000000000000000000000000000000000000000000000000000000000000000000000000000000000000000000000000000000000000000000000000000000000000000000000000000000000000000000000000000000000000000000000000000000000000000000000000000000000000000000000000000000000000000000000000000000000000000000000000000000000000000000697a9a6300000000000000000000000000000000000000000000000000000000697a96df",
          "blockHash": "0x80adc49f63f90b233362bc695c5025fb4fc8577f33a8a2dc2a18e4483388d906",
          "blockNumber": "0x1875bcb",
          "transactionHash": "0xa0564b5af5d4a2b1b3dfee6ffe61e1f3417c09ad68b1a3280ff96b3f5ccde407",
          "transactionIndex": "0x26",
          "logIndex": "0x5c3",
          "removed": false
        }
      ],
      "logsBloom": "0x00000000000000000000000000000000000000000000000000000000400000000000000000000000000000000000000000000000000000000000000000000000000000000000000000000000000000000000000000000000000000000000000000000000000000000000000000000000400000000000000000000000000000000000000000000000000000100000000000000000000020000000000000000000000000000000000000000000000000000000000000000000000000000000000000000000000000000100000000000000000000000000000000000000000000000000000000000000000000000000000000000000000000000000000000000002",
      "type": "0x2",
      "transactionHash": "0xa0564b5af5d4a2b1b3dfee6ffe61e1f3417c09ad68b1a3280ff96b3f5ccde407",
      "transactionIndex": "0x26",
      "blockHash": "0x80adc49f63f90b233362bc695c5025fb4fc8577f33a8a2dc2a18e4483388d906",
      "blockNumber": "0x1875bcb",
      "gasUsed": "0x1e865",
      "effectiveGasPrice": "0x19d6c12752708",
      "from": "0x4c62f6121e6f967a0872da8364995e9b68c1e82f",
      "to": "0xf077d4d0508505c5a80249afc10bc6ead90e47f1",
      "contractAddress": null
    }
  ],
  "libraries": [],
  "pending": [],
  "returns": {},
  "timestamp": 1769641695804,
  "chain": 369,
  "commit": null
}