{
  "transactions": [
    {
      "hash": "0xb84cc78f3e81c38da3dd6c052b3011303deead71fdff78503bcded86a2132293",
      "transactionType": "CALL",
      "contractName": null,
      "contractAddress": "0xf077d4d0508505c5a80249afc10bc6ead90e47f1",
      "function": "makeCrime(uint8)",
      "arguments": [
        "0"
      ],
      "transaction": {
        "from": "0x4c62f6121e6f967a0872da8364995e9b68c1e82f",
        "to": "0xf077d4d0508505c5a80249afc10bc6ead90e47f1",
        "gas": "0x3fd59",
        "value": "0x0",
        "input": "0xc625abb40000000000000000000000000000000000000000000000000000000000000000",
        "nonce": "0x718",
        "chainId": "0x171"
      },
      "additionalContracts": [],
      "isFixedGasLimit": false
    }
  ],
  "receipts": [
    {
      "status": "0x1",
      "cumulativeGasUsed": "0x81a777",
      "logs": [
        {
          "address": "0x74eadd7ebeeed638fd7c413134fa3d3433699d92",
          "topics": [
            "0x570f308d592bed3a47a73125665ce3b81fe296da89acff1af6d926e08a0a9f12"
          ],
          "data": "0x0000000000000000000000004c62f6121e6f967a0872da8364995e9b68c1e82f00000000000000000000000000000000000000000000000000000000000000c8",
          "blockHash": "0x3c23a7416bbe5975c7cb426d02b2d0c3054b8114126c8de4aed49aa116b97fdd",
          "blockNumber": "0x187422a",
          "transactionHash": "0xb84cc78f3e81c38da3dd6c052b3011303deead71fdff78503bcded86a2132293",
          "transactionIndex": "0x16",
          "logIndex": "0x99",
          "removed": false
        },
        {
          "address": "0xf077d4d0508505c5a80249afc10bc6ead90e47f1",
          "topics": [
            "0xe36ceebd3770780c5617d53efc7d77328074f1248146245ed3b854cbf651fb37"
          ],
          "data": "0x0000000000000000000000004c62f6121e6f967a0872da8364995e9b68c1e82f0000000000000000000000000000000000000000000000000000000000000000000000000000000000000000000000000000000000000000000000000000000100000000000000000000000000000000000000000000000000000000000000000000000000000000000000000000000000000000000000140ec80fa7ee8800000000000000000000000000000000000000000000000000000000000000000064000000000000000000000000000000000000000000000000000000006979942900000000000000000000000000000000000000000000000000000000697990a5",
          "blockHash": "0x3c23a7416bbe5975c7cb426d02b2d0c3054b8114126c8de4aed49aa116b97fdd",
          "blockNumber": "0x187422a",
          "transactionHash": "0xb84cc78f3e81c38da3dd6c052b3011303deead71fdff78503bcded86a2132293",
          "transactionIndex": "0x16",
          "logIndex": "0x9a",
          "removed": false
        }
      ],
      "logsBloom": "0x00000000000000000000000000000000004000000000000000000000400000000000000000000000000000000000000000000000000000000000000000000000000000000000000000008000000000000000000000000000000000000000000000000100000000000000000000000000400000000000000000000000000000000000000000000000000000100000000000000000000020000000000000000008000000000000000000000000000000000010000000000000000000000000000000000000000002000100000000000000000000000000000000000000000000000000000000000000000000000000000000000000000000000000000000000002",
      "type": "0x2",
      "transactionHash": "0xb84cc78f3e81c38da3dd6c052b3011303deead71fdff78503bcded86a2132293",
      "transactionIndex": "0x16",
      "blockHash": "0x3c23a7416bbe5975c7cb426d02b2d0c3054b8114126c8de4aed49aa116b97fdd",
      "blockNumber": "0x187422a",
      "gasUsed": "0x3ca90",
      "effectiveGasPrice": "0x46018e395e5b6",
      "from": "0x4c62f6121e6f967a0872da8364995e9b68c1e82f",
      "to": "0xf077d4d0508505c5a80249afc10bc6ead90e47f1",
      "contractAddress": null
    }
  ],
  "libraries": [],
  "pending": [],
  "returns": {},
  "timestamp": 1769574565989,
  "chain": 369,
  "commit": null
}