{
  "transactions": [
    {
      "hash": "0x4d3d41ac8debbf0bfedb0bbdc280125ababf63bc49682394339315b69c39a981",
      "transactionType": "CALL",
      "contractName": null,
      "contractAddress": "0xf077d4d0508505c5a80249afc10bc6ead90e47f1",
      "function": "makeCrime(uint8)",
      "arguments": [
        "0"
      ],
      "transaction": {
        "from": "0x4c62f6121e6f967a0872da8364995e9b68c1e82f",
        "to": "0xf077d4d0508505c5a80249afc10bc6ead90e47f1",
        "gas": "0x3fd59",
        "value": "0x0",
        "input": "0xc625abb40000000000000000000000000000000000000000000000000000000000000000",
        "nonce": "0x720",
        "chainId": "0x171"
      },
      "additionalContracts": [],
      "isFixedGasLimit": false
    }
  ],
  "receipts": [
    {
      "status": "0x1",
      "cumulativeGasUsed": "0x6b8011",
      "logs": [
        {
          "address": "0xf077d4d0508505c5a80249afc10bc6ead90e47f1",
          "topics": [
            "0xe36ceebd3770780c5617d53efc7d77328074f1248146245ed3b854cbf651fb37"
          ],
          "data": "0x0000000000000000000000004c62f6121e6f967a0872da8364995e9b68c1e82f00000000000000000000000000000000000000000000000000000000000000000000000000000000000000000000000000000000000000000000000000000000000000000000000000000000000000000000000000000000000000000000000000000000000000000000000000000000000000000000000000000000000000000000000000000000000000000000000000000000000000000000000000000000000000000000000000000000000000000000000000000000000000006979ae55000000000000000000000000000000000000000000000000000000006979aad1",
          "blockHash": "0x10b195a005563e6f96681de518826375ac330e8c5f71111f64deb5f3fec95a16",
          "blockNumber": "0x18744b5",
          "transactionHash": "0x4d3d41ac8debbf0bfedb0bbdc280125ababf63bc49682394339315b69c39a981",
          "transactionIndex": "0x15",
          "logIndex": "0xaf",
          "removed": false
        }
      ],
      "logsBloom": "0x00000000000000000000000000000000000000000000000000000000400000000000000000000000000000000000000000000000000000000000000000000000000000000000000000000000000000000000000000000000000000000000000000000000000000000000000000000000400000000000000000000000000000000000000000000000000000100000000000000000000020000000000000000000000000000000000000000000000000000000000000000000000000000000000000000000000000000100000000000000000000000000000000000000000000000000000000000000000000000000000000000000000000000000000000000002",
      "type": "0x2",
      "transactionHash": "0x4d3d41ac8debbf0bfedb0bbdc280125ababf63bc49682394339315b69c39a981",
      "transactionIndex": "0x15",
      "blockHash": "0x10b195a005563e6f96681de518826375ac330e8c5f71111f64deb5f3fec95a16",
      "blockNumber": "0x18744b5",
      "gasUsed": "0x1e865",
      "effectiveGasPrice": "0x2919a403a2c0c",
      "from": "0x4c62f6121e6f967a0872da8364995e9b68c1e82f",
      "to": "0xf077d4d0508505c5a80249afc10bc6ead90e47f1",
      "contractAddress": null
    }
  ],
  "libraries": [],
  "pending": [],
  "returns": {},
  "timestamp": 1769581266850,
  "chain": 369,
  "commit": null
}