{
  "transactions": [
    {
      "hash": "0xe4b753cbdeccdcbe96d76983a10a3da0b1d39d6b66949ef8de4079a58667f925",
      "transactionType": "CALL",
      "contractName": null,
      "contractAddress": "0xf077d4d0508505c5a80249afc10bc6ead90e47f1",
      "function": "makeCrime(uint8)",
      "arguments": [
        "0"
      ],
      "transaction": {
        "from": "0x4c62f6121e6f967a0872da8364995e9b68c1e82f",
        "to": "0xf077d4d0508505c5a80249afc10bc6ead90e47f1",
        "gas": "0x53c96",
        "value": "0x0",
        "input": "0xc625abb40000000000000000000000000000000000000000000000000000000000000000",
        "nonce": "0x72e",
        "chainId": "0x171"
      },
      "additionalContracts": [],
      "isFixedGasLimit": false
    }
  ],
  "receipts": [
    {
      "status": "0x1",
      "cumulativeGasUsed": "0x143c675",
      "logs": [
        {
          "address": "0x74eadd7ebeeed638fd7c413134fa3d3433699d92",
          "topics": [
            "0x570f308d592bed3a47a73125665ce3b81fe296da89acff1af6d926e08a0a9f12"
          ],
          "data": "0x0000000000000000000000004c62f6121e6f967a0872da8364995e9b68c1e82f0000000000000000000000000000000000000000000000000000000000000258",
          "blockHash": "0x05897b1eca41005e71d7a003df5686c75b3a118865776b45adb411c7acae488f",
          "blockNumber": "0x187484f",
          "transactionHash": "0xe4b753cbdeccdcbe96d76983a10a3da0b1d39d6b66949ef8de4079a58667f925",
          "transactionIndex": "0xb9",
          "logIndex": "0x1d6",
          "removed": false
        },
        {
          "address": "0xf077d4d0508505c5a80249afc10bc6ead90e47f1",
          "topics": [
            "0xe36ceebd3770780c5617d53efc7d77328074f1248146245ed3b854cbf651fb37"
          ],
          "data": "0x0000000000000000000000004c62f6121e6f967a0872da8364995e9b68c1e82f00000000000000000000000000000000000000000000000000000000000000000000000000000000000000000000000000000000000000000000000000000001000000000000000000000000000000000000000000000000000000000000000000000000000000000000000000000000000000000000001391e1a3570c0400000000000000000000000000000000000000000000000000000000000000000064000000000000000000000000000000000000000000000000000000006979d353000000000000000000000000000000000000000000000000000000006979cfcf",
          "blockHash": "0x05897b1eca41005e71d7a003df5686c75b3a118865776b45adb411c7acae488f",
          "blockNumber": "0x187484f",
          "transactionHash": "0xe4b753cbdeccdcbe96d76983a10a3da0b1d39d6b66949ef8de4079a58667f925",
          "transactionIndex": "0xb9",
          "logIndex": "0x1d7",
          "removed": false
        }
      ],
      "logsBloom": "0x00000000000000000000000000000000004000000000000000000000400000000000000000000000000000000000000000000000000000000000000000000000000000000000000000008000000000000000000000000000000000000000000000000100000000000000000000000000400000000000000000000000000000000000000000000000000000100000000000000000000020000000000000000008000000000000000000000000000000000010000000000000000000000000000000000000000002000100000000000000000000000000000000000000000000000000000000000000000000000000000000000000000000000000000000000002",
      "type": "0x2",
      "transactionHash": "0xe4b753cbdeccdcbe96d76983a10a3da0b1d39d6b66949ef8de4079a58667f925",
      "transactionIndex": "0xb9",
      "blockHash": "0x05897b1eca41005e71d7a003df5686c75b3a118865776b45adb411c7acae488f",
      "blockNumber": "0x187484f",
      "gasUsed": "0x3ca90",
      "effectiveGasPrice": "0x1bf6913a81053",
      "from": "0x4c62f6121e6f967a0872da8364995e9b68c1e82f",
      "to": "0xf077d4d0508505c5a80249afc10bc6ead90e47f1",
      "contractAddress": null
    }
  ],
  "libraries": [],
  "pending": [],
  "returns": {},
  "timestamp": 1769590736082,
  "chain": 369,
  "commit": null
}