{
  "transactions": [
    {
      "hash": "0x96d2b3d10fd8138b0f12fb846f59aeca45a6e73973ed6f2948cb437ecf921097",
      "transactionType": "CALL",
      "contractName": null,
      "contractAddress": "0xf077d4d0508505c5a80249afc10bc6ead90e47f1",
      "function": "makeCrime(uint8)",
      "arguments": [
        "0"
      ],
      "transaction": {
        "from": "0xac56dc5a4a9de0197f7b8f584ea04ec7e0123dde",
        "to": "0xf077d4d0508505c5a80249afc10bc6ead90e47f1",
        "gas": "0x2d083",
        "value": "0x0",
        "input": "0xc625abb40000000000000000000000000000000000000000000000000000000000000000",
        "nonce": "0x4fa",
        "chainId": "0x171"
      },
      "additionalContracts": [],
      "isFixedGasLimit": false
    }
  ],
  "receipts": [
    {
      "status": "0x1",
      "cumulativeGasUsed": "0x101c84e",
      "logs": [
        {
          "address": "0xf077d4d0508505c5a80249afc10bc6ead90e47f1",
          "topics": [
            "0xe36ceebd3770780c5617d53efc7d77328074f1248146245ed3b854cbf651fb37"
          ],
          "data": "0x000000000000000000000000ac56dc5a4a9de0197f7b8f584ea04ec7e0123dde0000000000000000000000000000000000000000000000000000000000000000000000000000000000000000000000000000000000000000000000000000000000000000000000000000000000000000000000000000000000000000000000000000000000000000000000000000000000000000000000000000000000000000000000000000000000000000000000000000000000000000000000000000000000000000000000000000000000000000000000000000000000000000698811890000000000000000000000000000000000000000000000000000000069880e05",
          "blockHash": "0x574d40e653024702f128e8b9b324b608aeac042e37773000475d5dbe6f796195",
          "blockNumber": "0x188abda",
          "transactionHash": "0x96d2b3d10fd8138b0f12fb846f59aeca45a6e73973ed6f2948cb437ecf921097",
          "transactionIndex": "0x20",
          "logIndex": "0x3d8",
          "removed": false
        }
      ],
      "logsBloom": "0x00000000000000000000000000000000000000000000000000000000400000000000000000000000000000000000000000000000000000000000000000000000000000000000000000000000000000000000000000000000000000000000000000000000000000000000000000000000400000000000000000000000000000000000000000000000000000100000000000000000000020000000000000000000000000000000000000000000000000000000000000000000000000000000000000000000000000000100000000000000000000000000000000000000000000000000000000000000000000000000000000000000000000000000000000000002",
      "type": "0x2",
      "transactionHash": "0x96d2b3d10fd8138b0f12fb846f59aeca45a6e73973ed6f2948cb437ecf921097",
      "transactionIndex": "0x20",
      "blockHash": "0x574d40e653024702f128e8b9b324b608aeac042e37773000475d5dbe6f796195",
      "blockNumber": "0x188abda",
      "gasUsed": "0x1eca9",
      "effectiveGasPrice": "0x2d5e4c97b139d",
      "from": "0xac56dc5a4a9de0197f7b8f584ea04ec7e0123dde",
      "to": "0xf077d4d0508505c5a80249afc10bc6ead90e47f1",
      "contractAddress": null
    }
  ],
  "libraries": [],
  "pending": [],
  "returns": {},
  "timestamp": 1770524167111,
  "chain": 369,
  "commit": null
}