{
  "transactions": [
    {
      "hash": "0xddd675a1cc84361f63ff0aa62c1cce80ea82cdb1b73c6cc5e28588125ac89a87",
      "transactionType": "CALL",
      "contractName": null,
      "contractAddress": "0xf077d4d0508505c5a80249afc10bc6ead90e47f1",
      "function": "makeCrime(uint8)",
      "arguments": [
        "0"
      ],
      "transaction": {
        "from": "0xeca7a53ba6a190c5d205bfdc7707cbc3399336c1",
        "to": "0xf077d4d0508505c5a80249afc10bc6ead90e47f1",
        "gas": "0x41b40",
        "value": "0x0",
        "input": "0xc625abb40000000000000000000000000000000000000000000000000000000000000000",
        "nonce": "0x591",
        "chainId": "0x171"
      },
      "additionalContracts": [],
      "isFixedGasLimit": false
    }
  ],
  "receipts": [
    {
      "status": "0x1",
      "cumulativeGasUsed": "0x1b7ef24",
      "logs": [
        {
          "address": "0xf077d4d0508505c5a80249afc10bc6ead90e47f1",
          "topics": [
            "0xe36ceebd3770780c5617d53efc7d77328074f1248146245ed3b854cbf651fb37"
          ],
          "data": "0x000000000000000000000000eca7a53ba6a190c5d205bfdc7707cbc3399336c1000000000000000000000000000000000000000000000000000000000000000000000000000000000000000000000000000000000000000000000000000000000000000000000000000000000000000000000000000000000000000000000000000000000000000000000000000000000000000000000000000000000000000000000000000000000000000000000000000000000000000000000000000000000000000000000000000000000000000000000000000000000000000069882c870000000000000000000000000000000000000000000000000000000069882903",
          "blockHash": "0xac9a9e8cbc73519f41a60bb66c49e01a52c81feaf61d77847034a60aa21ca9de",
          "blockNumber": "0x188ae7e",
          "transactionHash": "0xddd675a1cc84361f63ff0aa62c1cce80ea82cdb1b73c6cc5e28588125ac89a87",
          "transactionIndex": "0x24",
          "logIndex": "0x1e1",
          "removed": false
        }
      ],
      "logsBloom": "0x00000000000000000000000000000000000000000000000000000000400000000000000000000000000000000000000000000000000000000000000000000000000000000000000000000000000000000000000000000000000000000000000000000000000000000000000000000000400000000000000000000000000000000000000000000000000000100000000000000000000020000000000000000000000000000000000000000000000000000000000000000000000000000000000000000000000000000100000000000000000000000000000000000000000000000000000000000000000000000000000000000000000000000000000000000002",
      "type": "0x2",
      "transactionHash": "0xddd675a1cc84361f63ff0aa62c1cce80ea82cdb1b73c6cc5e28588125ac89a87",
      "transactionIndex": "0x24",
      "blockHash": "0xac9a9e8cbc73519f41a60bb66c49e01a52c81feaf61d77847034a60aa21ca9de",
      "blockNumber": "0x188ae7e",
      "gasUsed": "0x1f525",
      "effectiveGasPrice": "0x2acb5069c634f",
      "from": "0xeca7a53ba6a190c5d205bfdc7707cbc3399336c1",
      "to": "0xf077d4d0508505c5a80249afc10bc6ead90e47f1",
      "contractAddress": null
    }
  ],
  "libraries": [],
  "pending": [],
  "returns": {},
  "timestamp": 1770531075954,
  "chain": 369,
  "commit": null
}