{
  "transactions": [
    {
      "hash": "0x6dc159a41eec2f787fb5141bd8605fa3e684d07171b56962874bfed5619ebcf8",
      "transactionType": "CALL",
      "contractName": null,
      "contractAddress": "0xf077d4d0508505c5a80249afc10bc6ead90e47f1",
      "function": "makeCrime(uint8)",
      "arguments": [
        "0"
      ],
      "transaction": {
        "from": "0x4c62f6121e6f967a0872da8364995e9b68c1e82f",
        "to": "0xf077d4d0508505c5a80249afc10bc6ead90e47f1",
        "gas": "0x409a4",
        "value": "0x0",
        "input": "0xc625abb40000000000000000000000000000000000000000000000000000000000000000",
        "nonce": "0x98a",
        "chainId": "0x171"
      },
      "additionalContracts": [],
      "isFixedGasLimit": false
    }
  ],
  "receipts": [
    {
      "status": "0x1",
      "cumulativeGasUsed": "0x31e253",
      "logs": [
        {
          "address": "0xdcd5e9c0b2b4e9cb93677a258521d854b3a9f5a1",
          "topics": [
            "0x0bff5315606c84d1cee047503678048ca39946be11bfdd5a8c03fe5e272d98e3"
          ],
          "data": "0x0000000000000000000000004c62f6121e6f967a0872da8364995e9b68c1e82f00000000000000000000000000000000000000000000000000000000698874170000000000000000000000000000000000000000000000000000000000000000",
          "blockHash": "0x41ccc2c5ab407d20db783e64e7619187ce56fbf9156ecb4a3bae1fcd7cf2bbc0",
          "blockNumber": "0x188b543",
          "transactionHash": "0x6dc159a41eec2f787fb5141bd8605fa3e684d07171b56962874bfed5619ebcf8",
          "transactionIndex": "0xc",
          "logIndex": "0x36",
          "removed": false
        },
        {
          "address": "0xf077d4d0508505c5a80249afc10bc6ead90e47f1",
          "topics": [
            "0xe36ceebd3770780c5617d53efc7d77328074f1248146245ed3b854cbf651fb37"
          ],
          "data": "0x0000000000000000000000004c62f6121e6f967a0872da8364995e9b68c1e82f0000000000000000000000000000000000000000000000000000000000000000000000000000000000000000000000000000000000000000000000000000000000000000000000000000000000000000000000000000000000000000000000010000000000000000000000000000000000000000000000000000000000000000000000000000000000000000000000000000000000000000000000000000000000000000000000000000000000000000000000000000000000000000698872550000000000000000000000000000000000000000000000000000000069886ed1",
          "blockHash": "0x41ccc2c5ab407d20db783e64e7619187ce56fbf9156ecb4a3bae1fcd7cf2bbc0",
          "blockNumber": "0x188b543",
          "transactionHash": "0x6dc159a41eec2f787fb5141bd8605fa3e684d07171b56962874bfed5619ebcf8",
          "transactionIndex": "0xc",
          "logIndex": "0x37",
          "removed": false
        }
      ],
      "logsBloom": "0x00000000000000000000000000000000010000000000000000000000400000000000000000000000000000000000000000000000000000000000000000000000000000000000000000000000000000000000000000000000001000000000000000000000000000000000000000000000400000000080000000000000000000000000000000000000000000100000000000000000000020000000000000000000000000000000000000000000000000000000000000000000400000000000000000000000000000000100000000000040000000000000000000000000000000000000000000000000000000000000000000000000000000000000000000001002",
      "type": "0x2",
      "transactionHash": "0x6dc159a41eec2f787fb5141bd8605fa3e684d07171b56962874bfed5619ebcf8",
      "transactionIndex": "0xc",
      "blockHash": "0x41ccc2c5ab407d20db783e64e7619187ce56fbf9156ecb4a3bae1fcd7cf2bbc0",
      "blockNumber": "0x188b543",
      "gasUsed": "0x2ec57",
      "effectiveGasPrice": "0x2fe07b7e7ed7c",
      "from": "0x4c62f6121e6f967a0872da8364995e9b68c1e82f",
      "to": "0xf077d4d0508505c5a80249afc10bc6ead90e47f1",
      "contractAddress": null
    }
  ],
  "libraries": [],
  "pending": [],
  "returns": {},
  "timestamp": 1770548946042,
  "chain": 369,
  "commit": null
}