{
  "transactions": [
    {
      "hash": "0xb5a634098dc55d5a589b39597f19c56267d695a66d643b0f2ef294350d0a4907",
      "transactionType": "CALL",
      "contractName": null,
      "contractAddress": "0xf077d4d0508505c5a80249afc10bc6ead90e47f1",
      "function": "makeCrime(uint8)",
      "arguments": [
        "0"
      ],
      "transaction": {
        "from": "0xac56dc5a4a9de0197f7b8f584ea04ec7e0123dde",
        "to": "0xf077d4d0508505c5a80249afc10bc6ead90e47f1",
        "gas": "0x45f80",
        "value": "0x0",
        "input": "0xc625abb40000000000000000000000000000000000000000000000000000000000000000",
        "nonce": "0x241",
        "chainId": "0x171"
      },
      "additionalContracts": [],
      "isFixedGasLimit": false
    }
  ],
  "receipts": [
    {
      "status": "0x1",
      "cumulativeGasUsed": "0x132ab54",
      "logs": [
        {
          "address": "0xdcd5e9c0b2b4e9cb93677a258521d854b3a9f5a1",
          "topics": [
            "0x0bff5315606c84d1cee047503678048ca39946be11bfdd5a8c03fe5e272d98e3"
          ],
          "data": "0x000000000000000000000000ac56dc5a4a9de0197f7b8f584ea04ec7e0123dde00000000000000000000000000000000000000000000000000000000696c01ab0000000000000000000000000000000000000000000000000000000000000000",
          "blockHash": "0xeab24cbaf312bc097ffb817cd04bcbc9bf92c7e1fa27b0f4569f93b4a790e370",
          "blockNumber": "0x185ef3f",
          "transactionHash": "0xb5a634098dc55d5a589b39597f19c56267d695a66d643b0f2ef294350d0a4907",
          "transactionIndex": "0x42",
          "logIndex": "0x190",
          "removed": false
        },
        {
          "address": "0xf077d4d0508505c5a80249afc10bc6ead90e47f1",
          "topics": [
            "0xe36ceebd3770780c5617d53efc7d77328074f1248146245ed3b854cbf651fb37"
          ],
          "data": "0x000000000000000000000000ac56dc5a4a9de0197f7b8f584ea04ec7e0123dde0000000000000000000000000000000000000000000000000000000000000000000000000000000000000000000000000000000000000000000000000000000000000000000000000000000000000000000000000000000000000000000000010000000000000000000000000000000000000000000000000000000000000000000000000000000000000000000000000000000000000000000000000000000000000000000000000000000000000000000000000000000000000000696bffe900000000000000000000000000000000000000000000000000000000696bfc65",
          "blockHash": "0xeab24cbaf312bc097ffb817cd04bcbc9bf92c7e1fa27b0f4569f93b4a790e370",
          "blockNumber": "0x185ef3f",
          "transactionHash": "0xb5a634098dc55d5a589b39597f19c56267d695a66d643b0f2ef294350d0a4907",
          "transactionIndex": "0x42",
          "logIndex": "0x191",
          "removed": false
        }
      ],
      "logsBloom": "0x00000000000000000000000000000000010000000000000000000000400000000000000000000000000000000000000000000000000000000000000000000000000000000000000000000000000000000000000000000000001000000000000000000000000000000000000000000000400000000080000000000000000000000000000000000000000000100000000000000000000020000000000000000000000000000000000000000000000000000000000000000000400000000000000000000000000000000100000000000040000000000000000000000000000000000000000000000000000000000000000000000000000000000000000000001002",
      "type": "0x2",
      "transactionHash": "0xb5a634098dc55d5a589b39597f19c56267d695a66d643b0f2ef294350d0a4907",
      "transactionIndex": "0x42",
      "blockHash": "0xeab24cbaf312bc097ffb817cd04bcbc9bf92c7e1fa27b0f4569f93b4a790e370",
      "blockNumber": "0x185ef3f",
      "gasUsed": "0x32a80",
      "effectiveGasPrice": "0x12607a2dd6e29",
      "from": "0xac56dc5a4a9de0197f7b8f584ea04ec7e0123dde",
      "to": "0xf077d4d0508505c5a80249afc10bc6ead90e47f1",
      "contractAddress": null
    }
  ],
  "libraries": [],
  "pending": [],
  "returns": {},
  "timestamp": 1768684646400,
  "chain": 369,
  "commit": "953695a"
}