{
  "transactions": [
    {
      "hash": "0x5ac817dfdf92c65142e2643da4d97ae973abfc88007f7350a7000b3255e59f24",
      "transactionType": "CALL",
      "contractName": null,
      "contractAddress": "0xf077d4d0508505c5a80249afc10bc6ead90e47f1",
      "function": "makeCrime(uint8)",
      "arguments": [
        "0"
      ],
      "transaction": {
        "from": "0xaa73aa98480757d75aae288b5931261448eb0530",
        "to": "0xf077d4d0508505c5a80249afc10bc6ead90e47f1",
        "gas": "0x54be5",
        "value": "0x0",
        "input": "0xc625abb40000000000000000000000000000000000000000000000000000000000000000",
        "nonce": "0x6d",
        "chainId": "0x171"
      },
      "additionalContracts": [],
      "isFixedGasLimit": false
    }
  ],
  "receipts": [
    {
      "status": "0x1",
      "cumulativeGasUsed": "0x331f7c",
      "logs": [
        {
          "address": "0x74eadd7ebeeed638fd7c413134fa3d3433699d92",
          "topics": [
            "0x570f308d592bed3a47a73125665ce3b81fe296da89acff1af6d926e08a0a9f12"
          ],
          "data": "0x000000000000000000000000aa73aa98480757d75aae288b5931261448eb053000000000000000000000000000000000000000000000000000000000000004b0",
          "blockHash": "0x224d211709e9a360eebe523e080e2e333a2ec22eeb66dad2b8fe94c848895aba",
          "blockNumber": "0x188b05b",
          "transactionHash": "0x5ac817dfdf92c65142e2643da4d97ae973abfc88007f7350a7000b3255e59f24",
          "transactionIndex": "0x12",
          "logIndex": "0x30",
          "removed": false
        },
        {
          "address": "0xf077d4d0508505c5a80249afc10bc6ead90e47f1",
          "topics": [
            "0xe36ceebd3770780c5617d53efc7d77328074f1248146245ed3b854cbf651fb37"
          ],
          "data": "0x000000000000000000000000aa73aa98480757d75aae288b5931261448eb0530000000000000000000000000000000000000000000000000000000000000000000000000000000000000000000000000000000000000000000000000000000010000000000000000000000000000000000000000000000000000000000000000000000000000000000000000000000000000000000000019274b259f6540000000000000000000000000000000000000000000000000000000000000000000640000000000000000000000000000000000000000000000000000000069883fab0000000000000000000000000000000000000000000000000000000069883c27",
          "blockHash": "0x224d211709e9a360eebe523e080e2e333a2ec22eeb66dad2b8fe94c848895aba",
          "blockNumber": "0x188b05b",
          "transactionHash": "0x5ac817dfdf92c65142e2643da4d97ae973abfc88007f7350a7000b3255e59f24",
          "transactionIndex": "0x12",
          "logIndex": "0x31",
          "removed": false
        }
      ],
      "logsBloom": "0x00000000000000000000000000000000004000000000000000000000400000000000000000000000000000000000000000000000000000000000000000000000000000000000000000008000000000000000000000000000000000000000000000000100000000000000000000000000400000000000000000000000000000000000000000000000000000100000000000000000000020000000000000000008000000000000000000000000000000000010000000000000000000000000000000000000000002000100000000000000000000000000000000000000000000000000000000000000000000000000000000000000000000000000000000000002",
      "type": "0x2",
      "transactionHash": "0x5ac817dfdf92c65142e2643da4d97ae973abfc88007f7350a7000b3255e59f24",
      "transactionIndex": "0x12",
      "blockHash": "0x224d211709e9a360eebe523e080e2e333a2ec22eeb66dad2b8fe94c848895aba",
      "blockNumber": "0x188b05b",
      "gasUsed": "0x3d5a5",
      "effectiveGasPrice": "0x2d10c7dedc8b6",
      "from": "0xaa73aa98480757d75aae288b5931261448eb0530",
      "to": "0xf077d4d0508505c5a80249afc10bc6ead90e47f1",
      "contractAddress": null
    }
  ],
  "libraries": [],
  "pending": [],
  "returns": {},
  "timestamp": 1770535975516,
  "chain": 369,
  "commit": null
}