{
  "transactions": [
    {
      "hash": "0x5331cb06e930af4209070bb453f023113c0c2a7339ee662173d8cc12139f90be",
      "transactionType": "CALL",
      "contractName": null,
      "contractAddress": "0xf077d4d0508505c5a80249afc10bc6ead90e47f1",
      "function": "makeCrime(uint8)",
      "arguments": [
        "0"
      ],
      "transaction": {
        "from": "0xac56dc5a4a9de0197f7b8f584ea04ec7e0123dde",
        "to": "0xf077d4d0508505c5a80249afc10bc6ead90e47f1",
        "gas": "0x552a0",
        "value": "0x0",
        "input": "0xc625abb40000000000000000000000000000000000000000000000000000000000000000",
        "nonce": "0x4fb",
        "chainId": "0x171"
      },
      "additionalContracts": [],
      "isFixedGasLimit": false
    }
  ],
  "receipts": [
    {
      "status": "0x1",
      "cumulativeGasUsed": "0x16dd2fd",
      "logs": [
        {
          "address": "0x74eadd7ebeeed638fd7c413134fa3d3433699d92",
          "topics": [
            "0x570f308d592bed3a47a73125665ce3b81fe296da89acff1af6d926e08a0a9f12"
          ],
          "data": "0x000000000000000000000000ac56dc5a4a9de0197f7b8f584ea04ec7e0123dde000000000000000000000000000000000000000000000000000000000003b107",
          "blockHash": "0xce6d409b5f9aecec00fb7768e1c473877ca30e636d75c908ea1e4c6fe536e137",
          "blockNumber": "0x188ac45",
          "transactionHash": "0x5331cb06e930af4209070bb453f023113c0c2a7339ee662173d8cc12139f90be",
          "transactionIndex": "0x1d",
          "logIndex": "0x440",
          "removed": false
        },
        {
          "address": "0xf077d4d0508505c5a80249afc10bc6ead90e47f1",
          "topics": [
            "0xe36ceebd3770780c5617d53efc7d77328074f1248146245ed3b854cbf651fb37"
          ],
          "data": "0x000000000000000000000000ac56dc5a4a9de0197f7b8f584ea04ec7e0123dde000000000000000000000000000000000000000000000000000000000000000000000000000000000000000000000000000000000000000000000000000000010000000000000000000000000000000000000000000000000000000000000000000000000000000000000000000000000000000000000014a76fe9601fd40000000000000000000000000000000000000000000000000000000000000000006400000000000000000000000000000000000000000000000000000000698815df000000000000000000000000000000000000000000000000000000006988125b",
          "blockHash": "0xce6d409b5f9aecec00fb7768e1c473877ca30e636d75c908ea1e4c6fe536e137",
          "blockNumber": "0x188ac45",
          "transactionHash": "0x5331cb06e930af4209070bb453f023113c0c2a7339ee662173d8cc12139f90be",
          "transactionIndex": "0x1d",
          "logIndex": "0x441",
          "removed": false
        }
      ],
      "logsBloom": "0x00000000000000000000000000000000004000000000000000000000400000000000000000000000000000000000000000000000000000000000000000000000000000000000000000008000000000000000000000000000000000000000000000000100000000000000000000000000400000000000000000000000000000000000000000000000000000100000000000000000000020000000000000000008000000000000000000000000000000000010000000000000000000000000000000000000000002000100000000000000000000000000000000000000000000000000000000000000000000000000000000000000000000000000000000000002",
      "type": "0x2",
      "transactionHash": "0x5331cb06e930af4209070bb453f023113c0c2a7339ee662173d8cc12139f90be",
      "transactionIndex": "0x1d",
      "blockHash": "0xce6d409b5f9aecec00fb7768e1c473877ca30e636d75c908ea1e4c6fe536e137",
      "blockNumber": "0x188ac45",
      "gasUsed": "0x3da85",
      "effectiveGasPrice": "0x227f5411ef47a",
      "from": "0xac56dc5a4a9de0197f7b8f584ea04ec7e0123dde",
      "to": "0xf077d4d0508505c5a80249afc10bc6ead90e47f1",
      "contractAddress": null
    }
  ],
  "libraries": [],
  "pending": [],
  "returns": {},
  "timestamp": 1770525276433,
  "chain": 369,
  "commit": null
}