{
  "transactions": [
    {
      "hash": "0xff5fa2125655c4db2e13326966cb96275236af06d846754627ab1983028b59d4",
      "transactionType": "CALL",
      "contractName": null,
      "contractAddress": "0xf077d4d0508505c5a80249afc10bc6ead90e47f1",
      "function": "makeCrime(uint8)",
      "arguments": [
        "0"
      ],
      "transaction": {
        "from": "0x4c62f6121e6f967a0872da8364995e9b68c1e82f",
        "to": "0xf077d4d0508505c5a80249afc10bc6ead90e47f1",
        "gas": "0x409a4",
        "value": "0x0",
        "input": "0xc625abb40000000000000000000000000000000000000000000000000000000000000000",
        "nonce": "0x968",
        "chainId": "0x171"
      },
      "additionalContracts": [],
      "isFixedGasLimit": false
    }
  ],
  "receipts": [
    {
      "status": "0x1",
      "cumulativeGasUsed": "0x1ce4fef",
      "logs": [
        {
          "address": "0x74eadd7ebeeed638fd7c413134fa3d3433699d92",
          "topics": [
            "0x570f308d592bed3a47a73125665ce3b81fe296da89acff1af6d926e08a0a9f12"
          ],
          "data": "0x0000000000000000000000004c62f6121e6f967a0872da8364995e9b68c1e82f0000000000000000000000000000000000000000000000000000000000001edc",
          "blockHash": "0x8dcf6ce66126d50eca71322b1db5c149ca5dc743cda13c8824302764ce15a77e",
          "blockNumber": "0x188a3a2",
          "transactionHash": "0xff5fa2125655c4db2e13326966cb96275236af06d846754627ab1983028b59d4",
          "transactionIndex": "0x27",
          "logIndex": "0x124a",
          "removed": false
        },
        {
          "address": "0xf077d4d0508505c5a80249afc10bc6ead90e47f1",
          "topics": [
            "0xe36ceebd3770780c5617d53efc7d77328074f1248146245ed3b854cbf651fb37"
          ],
          "data": "0x0000000000000000000000004c62f6121e6f967a0872da8364995e9b68c1e82f00000000000000000000000000000000000000000000000000000000000000000000000000000000000000000000000000000000000000000000000000000001000000000000000000000000000000000000000000000000000000000000000000000000000000000000000000000000000000000000000fe2311b9e957400000000000000000000000000000000000000000000000000000000000000000064000000000000000000000000000000000000000000000000000000006987bd5b000000000000000000000000000000000000000000000000000000006987b9d7",
          "blockHash": "0x8dcf6ce66126d50eca71322b1db5c149ca5dc743cda13c8824302764ce15a77e",
          "blockNumber": "0x188a3a2",
          "transactionHash": "0xff5fa2125655c4db2e13326966cb96275236af06d846754627ab1983028b59d4",
          "transactionIndex": "0x27",
          "logIndex": "0x124b",
          "removed": false
        }
      ],
      "logsBloom": "0x00000000000000000000000000000000004000000000000000000000400000000000000000000000000000000000000000000000000000000000000000000000000000000000000000008000000000000000000000000000000000000000000000000100000000000000000000000000400000000000000000000000000000000000000000000000000000100000000000000000000020000000000000000008000000000000000000000000000000000010000000000000000000000000000000000000000002000100000000000000000000000000000000000000000000000000000000000000000000000000000000000000000000000000000000000002",
      "type": "0x2",
      "transactionHash": "0xff5fa2125655c4db2e13326966cb96275236af06d846754627ab1983028b59d4",
      "transactionIndex": "0x27",
      "blockHash": "0x8dcf6ce66126d50eca71322b1db5c149ca5dc743cda13c8824302764ce15a77e",
      "blockNumber": "0x188a3a2",
      "gasUsed": "0x3d5a5",
      "effectiveGasPrice": "0x29587615f800d",
      "from": "0x4c62f6121e6f967a0872da8364995e9b68c1e82f",
      "to": "0xf077d4d0508505c5a80249afc10bc6ead90e47f1",
      "contractAddress": null
    }
  ],
  "libraries": [],
  "pending": [],
  "returns": {},
  "timestamp": 1770502616543,
  "chain": 369,
  "commit": null
}