{
  "transactions": [
    {
      "hash": "0x2674b2781116f18092ca2139ed934745d2ddb137f7627453e24a9d69bb174a19",
      "transactionType": "CALL",
      "contractName": null,
      "contractAddress": "0xf077d4d0508505c5a80249afc10bc6ead90e47f1",
      "function": "makeCrime(uint8)",
      "arguments": [
        "0"
      ],
      "transaction": {
        "from": "0xeca7a53ba6a190c5d205bfdc7707cbc3399336c1",
        "to": "0xf077d4d0508505c5a80249afc10bc6ead90e47f1",
        "gas": "0x55e10",
        "value": "0x0",
        "input": "0xc625abb40000000000000000000000000000000000000000000000000000000000000000",
        "nonce": "0x57c",
        "chainId": "0x171"
      },
      "additionalContracts": [],
      "isFixedGasLimit": false
    }
  ],
  "receipts": [
    {
      "status": "0x1",
      "cumulativeGasUsed": "0x4ed0b3",
      "logs": [
        {
          "address": "0xdcd5e9c0b2b4e9cb93677a258521d854b3a9f5a1",
          "topics": [
            "0x0bff5315606c84d1cee047503678048ca39946be11bfdd5a8c03fe5e272d98e3"
          ],
          "data": "0x000000000000000000000000eca7a53ba6a190c5d205bfdc7707cbc3399336c1000000000000000000000000000000000000000000000000000000006987e2810000000000000000000000000000000000000000000000000000000000000000",
          "blockHash": "0x56ae98a3d30a18bb2a5b714db34288671c3339a1798838ec1dc62bc9dbd69d40",
          "blockNumber": "0x188a70f",
          "transactionHash": "0x2674b2781116f18092ca2139ed934745d2ddb137f7627453e24a9d69bb174a19",
          "transactionIndex": "0x24",
          "logIndex": "0x7c",
          "removed": false
        },
        {
          "address": "0xf077d4d0508505c5a80249afc10bc6ead90e47f1",
          "topics": [
            "0xe36ceebd3770780c5617d53efc7d77328074f1248146245ed3b854cbf651fb37"
          ],
          "data": "0x000000000000000000000000eca7a53ba6a190c5d205bfdc7707cbc3399336c100000000000000000000000000000000000000000000000000000000000000000000000000000000000000000000000000000000000000000000000000000000000000000000000000000000000000000000000000000000000000000000000100000000000000000000000000000000000000000000000000000000000000000000000000000000000000000000000000000000000000000000000000000000000000000000000000000000000000000000000000000000000000006987e0bf000000000000000000000000000000000000000000000000000000006987dd3b",
          "blockHash": "0x56ae98a3d30a18bb2a5b714db34288671c3339a1798838ec1dc62bc9dbd69d40",
          "blockNumber": "0x188a70f",
          "transactionHash": "0x2674b2781116f18092ca2139ed934745d2ddb137f7627453e24a9d69bb174a19",
          "transactionIndex": "0x24",
          "logIndex": "0x7d",
          "removed": false
        }
      ],
      "logsBloom": "0x00000000000000000000000000000000010000000000000000000000400000000000000000000000000000000000000000000000000000000000000000000000000000000000000000000000000000000000000000000000001000000000000000000000000000000000000000000000400000000080000000000000000000000000000000000000000000100000000000000000000020000000000000000000000000000000000000000000000000000000000000000000400000000000000000000000000000000100000000000040000000000000000000000000000000000000000000000000000000000000000000000000000000000000000000001002",
      "type": "0x2",
      "transactionHash": "0x2674b2781116f18092ca2139ed934745d2ddb137f7627453e24a9d69bb174a19",
      "transactionIndex": "0x24",
      "blockHash": "0x56ae98a3d30a18bb2a5b714db34288671c3339a1798838ec1dc62bc9dbd69d40",
      "blockNumber": "0x188a70f",
      "gasUsed": "0x2f917",
      "effectiveGasPrice": "0x2e250b33782e2",
      "from": "0xeca7a53ba6a190c5d205bfdc7707cbc3399336c1",
      "to": "0xf077d4d0508505c5a80249afc10bc6ead90e47f1",
      "contractAddress": null
    }
  ],
  "libraries": [],
  "pending": [],
  "returns": {},
  "timestamp": 1770511676299,
  "chain": 369,
  "commit": null
}