{
  "transactions": [
    {
      "hash": "0x79feefd264bdf238a367cd9e18f549181db05fe136d1f7969b6931f243d352e7",
      "transactionType": "CALL",
      "contractName": null,
      "contractAddress": "0xf077d4d0508505c5a80249afc10bc6ead90e47f1",
      "function": "makeCrime(uint8)",
      "arguments": [
        "0"
      ],
      "transaction": {
        "from": "0xeca7a53ba6a190c5d205bfdc7707cbc3399336c1",
        "to": "0xf077d4d0508505c5a80249afc10bc6ead90e47f1",
        "gas": "0x54ec2",
        "value": "0x0",
        "input": "0xc625abb40000000000000000000000000000000000000000000000000000000000000000",
        "nonce": "0x3bd",
        "chainId": "0x171"
      },
      "additionalContracts": [],
      "isFixedGasLimit": false
    }
  ],
  "receipts": [
    {
      "status": "0x1",
      "cumulativeGasUsed": "0x23efd26",
      "logs": [
        {
          "address": "0xf077d4d0508505c5a80249afc10bc6ead90e47f1",
          "topics": [
            "0xe36ceebd3770780c5617d53efc7d77328074f1248146245ed3b854cbf651fb37"
          ],
          "data": "0x000000000000000000000000eca7a53ba6a190c5d205bfdc7707cbc3399336c10000000000000000000000000000000000000000000000000000000000000000000000000000000000000000000000000000000000000000000000000000000000000000000000000000000000000000000000000000000000000000000000000000000000000000000000000000000000000000000000000000000000000000000000000000000000000000000000000000000000000000000000000000000000000000000000000000000000000000000000000000000000000000697a51bb00000000000000000000000000000000000000000000000000000000697a4e37",
          "blockHash": "0x843b3a901481ec719628ddfbecc949fa95363c43568ede84eeac5144e31c312b",
          "blockNumber": "0x18754b4",
          "transactionHash": "0x79feefd264bdf238a367cd9e18f549181db05fe136d1f7969b6931f243d352e7",
          "transactionIndex": "0x28",
          "logIndex": "0x5fe",
          "removed": false
        }
      ],
      "logsBloom": "0x00000000000000000000000000000000000000000000000000000000400000000000000000000000000000000000000000000000000000000000000000000000000000000000000000000000000000000000000000000000000000000000000000000000000000000000000000000000400000000000000000000000000000000000000000000000000000100000000000000000000020000000000000000000000000000000000000000000000000000000000000000000000000000000000000000000000000000100000000000000000000000000000000000000000000000000000000000000000000000000000000000000000000000000000000000002",
      "type": "0x2",
      "transactionHash": "0x79feefd264bdf238a367cd9e18f549181db05fe136d1f7969b6931f243d352e7",
      "transactionIndex": "0x28",
      "blockHash": "0x843b3a901481ec719628ddfbecc949fa95363c43568ede84eeac5144e31c312b",
      "blockNumber": "0x18754b4",
      "gasUsed": "0x1f525",
      "effectiveGasPrice": "0x3006f86f18fa8",
      "from": "0xeca7a53ba6a190c5d205bfdc7707cbc3399336c1",
      "to": "0xf077d4d0508505c5a80249afc10bc6ead90e47f1",
      "contractAddress": null
    }
  ],
  "libraries": [],
  "pending": [],
  "returns": {},
  "timestamp": 1769623096607,
  "chain": 369,
  "commit": null
}