{
  "transactions": [
    {
      "hash": "0x0880e971c91772a19ed14c1d34ccf92797db014051a7d127d63cb99b1650f5b7",
      "transactionType": "CALL",
      "contractName": null,
      "contractAddress": "0xf077d4d0508505c5a80249afc10bc6ead90e47f1",
      "function": "makeCrime(uint8)",
      "arguments": [
        "0"
      ],
      "transaction": {
        "from": "0xac56dc5a4a9de0197f7b8f584ea04ec7e0123dde",
        "to": "0xf077d4d0508505c5a80249afc10bc6ead90e47f1",
        "gas": "0x4033d",
        "value": "0x0",
        "input": "0xc625abb40000000000000000000000000000000000000000000000000000000000000000",
        "nonce": "0x245",
        "chainId": "0x171"
      },
      "additionalContracts": [],
      "isFixedGasLimit": false
    }
  ],
  "receipts": [
    {
      "status": "0x1",
      "cumulativeGasUsed": "0x28b2fef",
      "logs": [
        {
          "address": "0x74eadd7ebeeed638fd7c413134fa3d3433699d92",
          "topics": [
            "0x570f308d592bed3a47a73125665ce3b81fe296da89acff1af6d926e08a0a9f12"
          ],
          "data": "0x000000000000000000000000ac56dc5a4a9de0197f7b8f584ea04ec7e0123dde000000000000000000000000000000000000000000000000000000000003666b",
          "blockHash": "0xc5831bf2163fb7fadebbf490b35cc4196e2ed76cb5cd024e7560214519f270a1",
          "blockNumber": "0x1860687",
          "transactionHash": "0x0880e971c91772a19ed14c1d34ccf92797db014051a7d127d63cb99b1650f5b7",
          "transactionIndex": "0xe3",
          "logIndex": "0x41c",
          "removed": false
        },
        {
          "address": "0xf077d4d0508505c5a80249afc10bc6ead90e47f1",
          "topics": [
            "0xe36ceebd3770780c5617d53efc7d77328074f1248146245ed3b854cbf651fb37"
          ],
          "data": "0x000000000000000000000000ac56dc5a4a9de0197f7b8f584ea04ec7e0123dde000000000000000000000000000000000000000000000000000000000000000000000000000000000000000000000000000000000000000000000000000000010000000000000000000000000000000000000000000000000000000000000000000000000000000000000000000000000000000000000019f775da26341c0000000000000000000000000000000000000000000000000000000000000000006400000000000000000000000000000000000000000000000000000000696cee4f00000000000000000000000000000000000000000000000000000000696ceacb",
          "blockHash": "0xc5831bf2163fb7fadebbf490b35cc4196e2ed76cb5cd024e7560214519f270a1",
          "blockNumber": "0x1860687",
          "transactionHash": "0x0880e971c91772a19ed14c1d34ccf92797db014051a7d127d63cb99b1650f5b7",
          "transactionIndex": "0xe3",
          "logIndex": "0x41d",
          "removed": false
        }
      ],
      "logsBloom": "0x00000000000000000000000000000000004000000000000000000000400000000000000000000000000000000000000000000000000000000000000000000000000000000000000000008000000000000000000000000000000000000000000000000100000000000000000000000000400000000000000000000000000000000000000000000000000000100000000000000000000020000000000000000008000000000000000000000000000000000010000000000000000000000000000000000000000002000100000000000000000000000000000000000000000000000000000000000000000000000000000000000000000000000000000000000002",
      "type": "0x2",
      "transactionHash": "0x0880e971c91772a19ed14c1d34ccf92797db014051a7d127d63cb99b1650f5b7",
      "transactionIndex": "0xe3",
      "blockHash": "0xc5831bf2163fb7fadebbf490b35cc4196e2ed76cb5cd024e7560214519f270a1",
      "blockNumber": "0x1860687",
      "gasUsed": "0x3cf70",
      "effectiveGasPrice": "0x1540db7b3f33c",
      "from": "0xac56dc5a4a9de0197f7b8f584ea04ec7e0123dde",
      "to": "0xf077d4d0508505c5a80249afc10bc6ead90e47f1",
      "contractAddress": null
    }
  ],
  "libraries": [],
  "pending": [],
  "returns": {},
  "timestamp": 1768745676696,
  "chain": 369,
  "commit": "953695a"
}