{
  "transactions": [
    {
      "hash": "0xa8362624cc7a52c4e2aa8cd5dbec30cea168e7230e878bb4001b98a177ce3fcd",
      "transactionType": "CALL",
      "contractName": null,
      "contractAddress": "0xf077d4d0508505c5a80249afc10bc6ead90e47f1",
      "function": "makeCrime(uint8)",
      "arguments": [
        "0"
      ],
      "transaction": {
        "from": "0x4c62f6121e6f967a0872da8364995e9b68c1e82f",
        "to": "0xf077d4d0508505c5a80249afc10bc6ead90e47f1",
        "gas": "0x53c96",
        "value": "0x0",
        "input": "0xc625abb40000000000000000000000000000000000000000000000000000000000000000",
        "nonce": "0x712",
        "chainId": "0x171"
      },
      "additionalContracts": [],
      "isFixedGasLimit": false
    }
  ],
  "receipts": [
    {
      "status": "0x1",
      "cumulativeGasUsed": "0xaebfe8",
      "logs": [
        {
          "address": "0xdcd5e9c0b2b4e9cb93677a258521d854b3a9f5a1",
          "topics": [
            "0x0bff5315606c84d1cee047503678048ca39946be11bfdd5a8c03fe5e272d98e3"
          ],
          "data": "0x0000000000000000000000004c62f6121e6f967a0872da8364995e9b68c1e82f00000000000000000000000000000000000000000000000000000000697977730000000000000000000000000000000000000000000000000000000000000000",
          "blockHash": "0x28e1799054d3be9683f94e71e35df2812679697614b8627a694e7c7aff8f2ca9",
          "blockNumber": "0x1873f2d",
          "transactionHash": "0xa8362624cc7a52c4e2aa8cd5dbec30cea168e7230e878bb4001b98a177ce3fcd",
          "transactionIndex": "0x23",
          "logIndex": "0xbd",
          "removed": false
        },
        {
          "address": "0xf077d4d0508505c5a80249afc10bc6ead90e47f1",
          "topics": [
            "0xe36ceebd3770780c5617d53efc7d77328074f1248146245ed3b854cbf651fb37"
          ],
          "data": "0x0000000000000000000000004c62f6121e6f967a0872da8364995e9b68c1e82f0000000000000000000000000000000000000000000000000000000000000000000000000000000000000000000000000000000000000000000000000000000000000000000000000000000000000000000000000000000000000000000000010000000000000000000000000000000000000000000000000000000000000000000000000000000000000000000000000000000000000000000000000000000000000000000000000000000000000000000000000000000000000000697975b1000000000000000000000000000000000000000000000000000000006979722d",
          "blockHash": "0x28e1799054d3be9683f94e71e35df2812679697614b8627a694e7c7aff8f2ca9",
          "blockNumber": "0x1873f2d",
          "transactionHash": "0xa8362624cc7a52c4e2aa8cd5dbec30cea168e7230e878bb4001b98a177ce3fcd",
          "transactionIndex": "0x23",
          "logIndex": "0xbe",
          "removed": false
        }
      ],
      "logsBloom": "0x00000000000000000000000000000000010000000000000000000000400000000000000000000000000000000000000000000000000000000000000000000000000000000000000000000000000000000000000000000000001000000000000000000000000000000000000000000000400000000080000000000000000000000000000000000000000000100000000000000000000020000000000000000000000000000000000000000000000000000000000000000000400000000000000000000000000000000100000000000040000000000000000000000000000000000000000000000000000000000000000000000000000000000000000000001002",
      "type": "0x2",
      "transactionHash": "0xa8362624cc7a52c4e2aa8cd5dbec30cea168e7230e878bb4001b98a177ce3fcd",
      "transactionIndex": "0x23",
      "blockHash": "0x28e1799054d3be9683f94e71e35df2812679697614b8627a694e7c7aff8f2ca9",
      "blockNumber": "0x1873f2d",
      "gasUsed": "0x2e370",
      "effectiveGasPrice": "0x3ae2d699a4db5",
      "from": "0x4c62f6121e6f967a0872da8364995e9b68c1e82f",
      "to": "0xf077d4d0508505c5a80249afc10bc6ead90e47f1",
      "contractAddress": null
    }
  ],
  "libraries": [],
  "pending": [],
  "returns": {},
  "timestamp": 1769566766074,
  "chain": 369,
  "commit": null
}