{
  "transactions": [
    {
      "hash": "0x5bd8c9a938f7c78dd6e9a5f821b27fc61d2a2acb7f1a966aa7708e7b587986d2",
      "transactionType": "CALL",
      "contractName": null,
      "contractAddress": "0xf077d4d0508505c5a80249afc10bc6ead90e47f1",
      "function": "makeCrime(uint8)",
      "arguments": [
        "0"
      ],
      "transaction": {
        "from": "0xac56dc5a4a9de0197f7b8f584ea04ec7e0123dde",
        "to": "0xf077d4d0508505c5a80249afc10bc6ead90e47f1",
        "gas": "0x54352",
        "value": "0x0",
        "input": "0xc625abb40000000000000000000000000000000000000000000000000000000000000000",
        "nonce": "0x257",
        "chainId": "0x171"
      },
      "additionalContracts": [],
      "isFixedGasLimit": false
    }
  ],
  "receipts": [
    {
      "status": "0x1",
      "cumulativeGasUsed": "0x167cc7e",
      "logs": [
        {
          "address": "0xdcd5e9c0b2b4e9cb93677a258521d854b3a9f5a1",
          "topics": [
            "0x0bff5315606c84d1cee047503678048ca39946be11bfdd5a8c03fe5e272d98e3"
          ],
          "data": "0x000000000000000000000000ac56dc5a4a9de0197f7b8f584ea04ec7e0123dde00000000000000000000000000000000000000000000000000000000696d23bf0000000000000000000000000000000000000000000000000000000000000000",
          "blockHash": "0x1557ae57f62379bbb0e8228c322082c82ef1423baa3426cd32e077e0a187062e",
          "blockNumber": "0x1860b90",
          "transactionHash": "0x5bd8c9a938f7c78dd6e9a5f821b27fc61d2a2acb7f1a966aa7708e7b587986d2",
          "transactionIndex": "0x22",
          "logIndex": "0x27d",
          "removed": false
        },
        {
          "address": "0xf077d4d0508505c5a80249afc10bc6ead90e47f1",
          "topics": [
            "0xe36ceebd3770780c5617d53efc7d77328074f1248146245ed3b854cbf651fb37"
          ],
          "data": "0x000000000000000000000000ac56dc5a4a9de0197f7b8f584ea04ec7e0123dde0000000000000000000000000000000000000000000000000000000000000000000000000000000000000000000000000000000000000000000000000000000000000000000000000000000000000000000000000000000000000000000000010000000000000000000000000000000000000000000000000000000000000000000000000000000000000000000000000000000000000000000000000000000000000000000000000000000000000000000000000000000000000000696d21fd00000000000000000000000000000000000000000000000000000000696d1e79",
          "blockHash": "0x1557ae57f62379bbb0e8228c322082c82ef1423baa3426cd32e077e0a187062e",
          "blockNumber": "0x1860b90",
          "transactionHash": "0x5bd8c9a938f7c78dd6e9a5f821b27fc61d2a2acb7f1a966aa7708e7b587986d2",
          "transactionIndex": "0x22",
          "logIndex": "0x27e",
          "removed": false
        }
      ],
      "logsBloom": "0x00000000000000000000000000000000010000000000000000000000400000000000000000000000000000000000000000000000000000000000000000000000000000000000000000000000000000000000000000000000001000000000000000000000000000000000000000000000400000000080000000000000000000000000000000000000000000100000000000000000000020000000000000000000000000000000000000000000000000000000000000000000400000000000000000000000000000000100000000000040000000000000000000000000000000000000000000000000000000000000000000000000000000000000000000001002",
      "type": "0x2",
      "transactionHash": "0x5bd8c9a938f7c78dd6e9a5f821b27fc61d2a2acb7f1a966aa7708e7b587986d2",
      "transactionIndex": "0x22",
      "blockHash": "0x1557ae57f62379bbb0e8228c322082c82ef1423baa3426cd32e077e0a187062e",
      "blockNumber": "0x1860b90",
      "gasUsed": "0x2dfe4",
      "effectiveGasPrice": "0xd5e12357925c",
      "from": "0xac56dc5a4a9de0197f7b8f584ea04ec7e0123dde",
      "to": "0xf077d4d0508505c5a80249afc10bc6ead90e47f1",
      "contractAddress": null
    }
  ],
  "libraries": [],
  "pending": [],
  "returns": {},
  "timestamp": 1768758907014,
  "chain": 369,
  "commit": "953695a"
}