{
  "transactions": [
    {
      "hash": "0xa87cdcb5494a89e814067540151a4fc92021cd9be184c2b35723c931ccb218ba",
      "transactionType": "CALL",
      "contractName": null,
      "contractAddress": "0xf077d4d0508505c5a80249afc10bc6ead90e47f1",
      "function": "makeCrime(uint8)",
      "arguments": [
        "0"
      ],
      "transaction": {
        "from": "0xac56dc5a4a9de0197f7b8f584ea04ec7e0123dde",
        "to": "0xf077d4d0508505c5a80249afc10bc6ead90e47f1",
        "gas": "0x54352",
        "value": "0x0",
        "input": "0xc625abb40000000000000000000000000000000000000000000000000000000000000000",
        "nonce": "0x3a3",
        "chainId": "0x171"
      },
      "additionalContracts": [],
      "isFixedGasLimit": false
    }
  ],
  "receipts": [
    {
      "status": "0x1",
      "cumulativeGasUsed": "0x936905",
      "logs": [
        {
          "address": "0xf077d4d0508505c5a80249afc10bc6ead90e47f1",
          "topics": [
            "0xe36ceebd3770780c5617d53efc7d77328074f1248146245ed3b854cbf651fb37"
          ],
          "data": "0x000000000000000000000000ac56dc5a4a9de0197f7b8f584ea04ec7e0123dde0000000000000000000000000000000000000000000000000000000000000000000000000000000000000000000000000000000000000000000000000000000000000000000000000000000000000000000000000000000000000000000000000000000000000000000000000000000000000000000000000000000000000000000000000000000000000000000000000000000000000000000000000000000000000000000000000000000000000000000000000000000000000000697a6def00000000000000000000000000000000000000000000000000000000697a6a6b",
          "blockHash": "0x883faaf6ad8eddd7c6462ba52021448a4f9358ab9d11b43016afe4a824b33635",
          "blockNumber": "0x1875776",
          "transactionHash": "0xa87cdcb5494a89e814067540151a4fc92021cd9be184c2b35723c931ccb218ba",
          "transactionIndex": "0x1d",
          "logIndex": "0x125",
          "removed": false
        }
      ],
      "logsBloom": "0x00000000000000000000000000000000000000000000000000000000400000000000000000000000000000000000000000000000000000000000000000000000000000000000000000000000000000000000000000000000000000000000000000000000000000000000000000000000400000000000000000000000000000000000000000000000000000100000000000000000000020000000000000000000000000000000000000000000000000000000000000000000000000000000000000000000000000000100000000000000000000000000000000000000000000000000000000000000000000000000000000000000000000000000000000000002",
      "type": "0x2",
      "transactionHash": "0xa87cdcb5494a89e814067540151a4fc92021cd9be184c2b35723c931ccb218ba",
      "transactionIndex": "0x1d",
      "blockHash": "0x883faaf6ad8eddd7c6462ba52021448a4f9358ab9d11b43016afe4a824b33635",
      "blockNumber": "0x1875776",
      "gasUsed": "0x1eca9",
      "effectiveGasPrice": "0x372d326ad2f59",
      "from": "0xac56dc5a4a9de0197f7b8f584ea04ec7e0123dde",
      "to": "0xf077d4d0508505c5a80249afc10bc6ead90e47f1",
      "contractAddress": null
    }
  ],
  "libraries": [],
  "pending": [],
  "returns": {},
  "timestamp": 1769630316779,
  "chain": 369,
  "commit": null
}