{
  "transactions": [
    {
      "hash": "0x21685054c0fa6108ce221ef0b9d1d7204bbbf4170a3c75a38a5ef1406751caba",
      "transactionType": "CALL",
      "contractName": null,
      "contractAddress": "0xf077d4d0508505c5a80249afc10bc6ead90e47f1",
      "function": "makeCrime(uint8)",
      "arguments": [
        "0"
      ],
      "transaction": {
        "from": "0xac56dc5a4a9de0197f7b8f584ea04ec7e0123dde",
        "to": "0xf077d4d0508505c5a80249afc10bc6ead90e47f1",
        "gas": "0x54352",
        "value": "0x0",
        "input": "0xc625abb40000000000000000000000000000000000000000000000000000000000000000",
        "nonce": "0x381",
        "chainId": "0x171"
      },
      "additionalContracts": [],
      "isFixedGasLimit": false
    }
  ],
  "receipts": [
    {
      "status": "0x1",
      "cumulativeGasUsed": "0xd9a81e",
      "logs": [
        {
          "address": "0xf077d4d0508505c5a80249afc10bc6ead90e47f1",
          "topics": [
            "0xe36ceebd3770780c5617d53efc7d77328074f1248146245ed3b854cbf651fb37"
          ],
          "data": "0x000000000000000000000000ac56dc5a4a9de0197f7b8f584ea04ec7e0123dde00000000000000000000000000000000000000000000000000000000000000000000000000000000000000000000000000000000000000000000000000000000000000000000000000000000000000000000000000000000000000000000000000000000000000000000000000000000000000000000000000000000000000000000000000000000000000000000000000000000000000000000000000000000000000000000000000000000000000000000000000000000000000006979f6a3000000000000000000000000000000000000000000000000000000006979f31f",
          "blockHash": "0x5ec0542161e9ad0016ab835c5ccb28f52f34da81214d7175e1701d8badb6f7c4",
          "blockNumber": "0x1874bc5",
          "transactionHash": "0x21685054c0fa6108ce221ef0b9d1d7204bbbf4170a3c75a38a5ef1406751caba",
          "transactionIndex": "0x13",
          "logIndex": "0x3b7",
          "removed": false
        }
      ],
      "logsBloom": "0x00000000000000000000000000000000000000000000000000000000400000000000000000000000000000000000000000000000000000000000000000000000000000000000000000000000000000000000000000000000000000000000000000000000000000000000000000000000400000000000000000000000000000000000000000000000000000100000000000000000000020000000000000000000000000000000000000000000000000000000000000000000000000000000000000000000000000000100000000000000000000000000000000000000000000000000000000000000000000000000000000000000000000000000000000000002",
      "type": "0x2",
      "transactionHash": "0x21685054c0fa6108ce221ef0b9d1d7204bbbf4170a3c75a38a5ef1406751caba",
      "transactionIndex": "0x13",
      "blockHash": "0x5ec0542161e9ad0016ab835c5ccb28f52f34da81214d7175e1701d8badb6f7c4",
      "blockNumber": "0x1874bc5",
      "gasUsed": "0x1eca9",
      "effectiveGasPrice": "0x21ef3391831b8",
      "from": "0xac56dc5a4a9de0197f7b8f584ea04ec7e0123dde",
      "to": "0xf077d4d0508505c5a80249afc10bc6ead90e47f1",
      "contractAddress": null
    }
  ],
  "libraries": [],
  "pending": [],
  "returns": {},
  "timestamp": 1769599776614,
  "chain": 369,
  "commit": null
}