{
  "transactions": [
    {
      "hash": "0x7e973210959198db98fcf802e0e50c39268fffc0e62a731ea01d0e0bfabfc06d",
      "transactionType": "CALL",
      "contractName": null,
      "contractAddress": "0xf077d4d0508505c5a80249afc10bc6ead90e47f1",
      "function": "makeCrime(uint8)",
      "arguments": [
        "0"
      ],
      "transaction": {
        "from": "0xaa73aa98480757d75aae288b5931261448eb0530",
        "to": "0xf077d4d0508505c5a80249afc10bc6ead90e47f1",
        "gas": "0x54be5",
        "value": "0x0",
        "input": "0xc625abb40000000000000000000000000000000000000000000000000000000000000000",
        "nonce": "0x50",
        "chainId": "0x171"
      },
      "additionalContracts": [],
      "isFixedGasLimit": false
    }
  ],
  "receipts": [
    {
      "status": "0x1",
      "cumulativeGasUsed": "0x3a93af",
      "logs": [
        {
          "address": "0x74eadd7ebeeed638fd7c413134fa3d3433699d92",
          "topics": [
            "0x570f308d592bed3a47a73125665ce3b81fe296da89acff1af6d926e08a0a9f12"
          ],
          "data": "0x000000000000000000000000aa73aa98480757d75aae288b5931261448eb05300000000000000000000000000000000000000000000000000000000000000258",
          "blockHash": "0xf0e1d078bc60e77b3e065ebb20de3f7db358557c4aea7f284643434a4730850b",
          "blockNumber": "0x188a69e",
          "transactionHash": "0x7e973210959198db98fcf802e0e50c39268fffc0e62a731ea01d0e0bfabfc06d",
          "transactionIndex": "0xf",
          "logIndex": "0x5b",
          "removed": false
        },
        {
          "address": "0xf077d4d0508505c5a80249afc10bc6ead90e47f1",
          "topics": [
            "0xe36ceebd3770780c5617d53efc7d77328074f1248146245ed3b854cbf651fb37"
          ],
          "data": "0x000000000000000000000000aa73aa98480757d75aae288b5931261448eb05300000000000000000000000000000000000000000000000000000000000000000000000000000000000000000000000000000000000000000000000000000000100000000000000000000000000000000000000000000000000000000000000000000000000000000000000000000000000000000000000114b03a9dd959c00000000000000000000000000000000000000000000000000000000000000000064000000000000000000000000000000000000000000000000000000006987dc0f000000000000000000000000000000000000000000000000000000006987d88b",
          "blockHash": "0xf0e1d078bc60e77b3e065ebb20de3f7db358557c4aea7f284643434a4730850b",
          "blockNumber": "0x188a69e",
          "transactionHash": "0x7e973210959198db98fcf802e0e50c39268fffc0e62a731ea01d0e0bfabfc06d",
          "transactionIndex": "0xf",
          "logIndex": "0x5c",
          "removed": false
        }
      ],
      "logsBloom": "0x00000000000000000000000000000000004000000000000000000000400000000000000000000000000000000000000000000000000000000000000000000000000000000000000000008000000000000000000000000000000000000000000000000100000000000000000000000000400000000000000000000000000000000000000000000000000000100000000000000000000020000000000000000008000000000000000000000000000000000010000000000000000000000000000000000000000002000100000000000000000000000000000000000000000000000000000000000000000000000000000000000000000000000000000000000002",
      "type": "0x2",
      "transactionHash": "0x7e973210959198db98fcf802e0e50c39268fffc0e62a731ea01d0e0bfabfc06d",
      "transactionIndex": "0xf",
      "blockHash": "0xf0e1d078bc60e77b3e065ebb20de3f7db358557c4aea7f284643434a4730850b",
      "blockNumber": "0x188a69e",
      "gasUsed": "0x3d5a5",
      "effectiveGasPrice": "0x31f6c9d51d8ed",
      "from": "0xaa73aa98480757d75aae288b5931261448eb0530",
      "to": "0xf077d4d0508505c5a80249afc10bc6ead90e47f1",
      "contractAddress": null
    }
  ],
  "libraries": [],
  "pending": [],
  "returns": {},
  "timestamp": 1770510476642,
  "chain": 369,
  "commit": null
}