{
  "transactions": [
    {
      "hash": "0x762ef5ba7afe58f1220f67d877e98851c2f850286ef8f46e49630ae4dc3f8a21",
      "transactionType": "CALL",
      "contractName": null,
      "contractAddress": "0xf077d4d0508505c5a80249afc10bc6ead90e47f1",
      "function": "makeCrime(uint8)",
      "arguments": [
        "0"
      ],
      "transaction": {
        "from": "0xaa73aa98480757d75aae288b5931261448eb0530",
        "to": "0xf077d4d0508505c5a80249afc10bc6ead90e47f1",
        "gas": "0x409a4",
        "value": "0x0",
        "input": "0xc625abb40000000000000000000000000000000000000000000000000000000000000000",
        "nonce": "0x55",
        "chainId": "0x171"
      },
      "additionalContracts": [],
      "isFixedGasLimit": false
    }
  ],
  "receipts": [
    {
      "status": "0x1",
      "cumulativeGasUsed": "0x1363dac",
      "logs": [
        {
          "address": "0x74eadd7ebeeed638fd7c413134fa3d3433699d92",
          "topics": [
            "0x570f308d592bed3a47a73125665ce3b81fe296da89acff1af6d926e08a0a9f12"
          ],
          "data": "0x000000000000000000000000aa73aa98480757d75aae288b5931261448eb053000000000000000000000000000000000000000000000000000000000000002bc",
          "blockHash": "0x18199de9d883781ba9d60121324bb054ce807d62e5efd9fdeadb9220c8049b3c",
          "blockNumber": "0x188a83f",
          "transactionHash": "0x762ef5ba7afe58f1220f67d877e98851c2f850286ef8f46e49630ae4dc3f8a21",
          "transactionIndex": "0x1f",
          "logIndex": "0x200",
          "removed": false
        },
        {
          "address": "0xf077d4d0508505c5a80249afc10bc6ead90e47f1",
          "topics": [
            "0xe36ceebd3770780c5617d53efc7d77328074f1248146245ed3b854cbf651fb37"
          ],
          "data": "0x000000000000000000000000aa73aa98480757d75aae288b5931261448eb0530000000000000000000000000000000000000000000000000000000000000000000000000000000000000000000000000000000000000000000000000000000010000000000000000000000000000000000000000000000000000000000000000000000000000000000000000000000000000000000000011c7ea162e782000000000000000000000000000000000000000000000000000000000000000000064000000000000000000000000000000000000000000000000000000006987ece5000000000000000000000000000000000000000000000000000000006987e961",
          "blockHash": "0x18199de9d883781ba9d60121324bb054ce807d62e5efd9fdeadb9220c8049b3c",
          "blockNumber": "0x188a83f",
          "transactionHash": "0x762ef5ba7afe58f1220f67d877e98851c2f850286ef8f46e49630ae4dc3f8a21",
          "transactionIndex": "0x1f",
          "logIndex": "0x201",
          "removed": false
        }
      ],
      "logsBloom": "0x00000000000000000000000000000000004000000000000000000000400000000000000000000000000000000000000000000000000000000000000000000000000000000000000000008000000000000000000000000000000000000000000000000100000000000000000000000000400000000000000000000000000000000000000000000000000000100000000000000000000020000000000000000008000000000000000000000000000000000010000000000000000000000000000000000000000002000100000000000000000000000000000000000000000000000000000000000000000000000000000000000000000000000000000000000002",
      "type": "0x2",
      "transactionHash": "0x762ef5ba7afe58f1220f67d877e98851c2f850286ef8f46e49630ae4dc3f8a21",
      "transactionIndex": "0x1f",
      "blockHash": "0x18199de9d883781ba9d60121324bb054ce807d62e5efd9fdeadb9220c8049b3c",
      "blockNumber": "0x188a83f",
      "gasUsed": "0x3d5a5",
      "effectiveGasPrice": "0x37f4af95a3c99",
      "from": "0xaa73aa98480757d75aae288b5931261448eb0530",
      "to": "0xf077d4d0508505c5a80249afc10bc6ead90e47f1",
      "contractAddress": null
    }
  ],
  "libraries": [],
  "pending": [],
  "returns": {},
  "timestamp": 1770514786266,
  "chain": 369,
  "commit": null
}