{
  "transactions": [
    {
      "hash": "0xea5943c9ec58b2b6b00e9cbd3cce2ffaf076c5e8c0feb2968c3a6866fc838e56",
      "transactionType": "CALL",
      "contractName": null,
      "contractAddress": "0xf077d4d0508505c5a80249afc10bc6ead90e47f1",
      "function": "makeCrime(uint8)",
      "arguments": [
        "0"
      ],
      "transaction": {
        "from": "0xac56dc5a4a9de0197f7b8f584ea04ec7e0123dde",
        "to": "0xf077d4d0508505c5a80249afc10bc6ead90e47f1",
        "gas": "0x54352",
        "value": "0x0",
        "input": "0xc625abb40000000000000000000000000000000000000000000000000000000000000000",
        "nonce": "0x248",
        "chainId": "0x171"
      },
      "additionalContracts": [],
      "isFixedGasLimit": false
    }
  ],
  "receipts": [
    {
      "status": "0x1",
      "cumulativeGasUsed": "0xc237dc",
      "logs": [
        {
          "address": "0xf077d4d0508505c5a80249afc10bc6ead90e47f1",
          "topics": [
            "0xe36ceebd3770780c5617d53efc7d77328074f1248146245ed3b854cbf651fb37"
          ],
          "data": "0x000000000000000000000000ac56dc5a4a9de0197f7b8f584ea04ec7e0123dde0000000000000000000000000000000000000000000000000000000000000000000000000000000000000000000000000000000000000000000000000000000000000000000000000000000000000000000000000000000000000000000000000000000000000000000000000000000000000000000000000000000000000000000000000000000000000000000000000000000000000000000000000000000000000000000000000000000000000000000000000000000000000000696cf7c300000000000000000000000000000000000000000000000000000000696cf43f",
          "blockHash": "0x51370f3e3dcb47b0b381d9e519ba785dcbc3e01afc0fa7a3f2a31e3ba8f6c760",
          "blockNumber": "0x1860772",
          "transactionHash": "0xea5943c9ec58b2b6b00e9cbd3cce2ffaf076c5e8c0feb2968c3a6866fc838e56",
          "transactionIndex": "0x30",
          "logIndex": "0x1db",
          "removed": false
        }
      ],
      "logsBloom": "0x00000000000000000000000000000000000000000000000000000000400000000000000000000000000000000000000000000000000000000000000000000000000000000000000000000000000000000000000000000000000000000000000000000000000000000000000000000000400000000000000000000000000000000000000000000000000000100000000000000000000020000000000000000000000000000000000000000000000000000000000000000000000000000000000000000000000000000100000000000000000000000000000000000000000000000000000000000000000000000000000000000000000000000000000000000002",
      "type": "0x2",
      "transactionHash": "0xea5943c9ec58b2b6b00e9cbd3cce2ffaf076c5e8c0feb2968c3a6866fc838e56",
      "transactionIndex": "0x30",
      "blockHash": "0x51370f3e3dcb47b0b381d9e519ba785dcbc3e01afc0fa7a3f2a31e3ba8f6c760",
      "blockNumber": "0x1860772",
      "gasUsed": "0x1eca9",
      "effectiveGasPrice": "0xc7b26bbaa513",
      "from": "0xac56dc5a4a9de0197f7b8f584ea04ec7e0123dde",
      "to": "0xf077d4d0508505c5a80249afc10bc6ead90e47f1",
      "contractAddress": null
    }
  ],
  "libraries": [],
  "pending": [],
  "returns": {},
  "timestamp": 1768748096363,
  "chain": 369,
  "commit": "953695a"
}