{
  "transactions": [
    {
      "hash": "0x612873e698a4608dd323bcf74d37df39881d533ad70e25c856ddb67d8578b0c0",
      "transactionType": "CALL",
      "contractName": null,
      "contractAddress": "0xf077d4d0508505c5a80249afc10bc6ead90e47f1",
      "function": "makeCrime(uint8)",
      "arguments": [
        "0"
      ],
      "transaction": {
        "from": "0xeca7a53ba6a190c5d205bfdc7707cbc3399336c1",
        "to": "0xf077d4d0508505c5a80249afc10bc6ead90e47f1",
        "gas": "0x41b40",
        "value": "0x0",
        "input": "0xc625abb40000000000000000000000000000000000000000000000000000000000000000",
        "nonce": "0x571",
        "chainId": "0x171"
      },
      "additionalContracts": [],
      "isFixedGasLimit": false
    }
  ],
  "receipts": [
    {
      "status": "0x1",
      "cumulativeGasUsed": "0xf7b2aa",
      "logs": [
        {
          "address": "0xdcd5e9c0b2b4e9cb93677a258521d854b3a9f5a1",
          "topics": [
            "0x0bff5315606c84d1cee047503678048ca39946be11bfdd5a8c03fe5e272d98e3"
          ],
          "data": "0x000000000000000000000000eca7a53ba6a190c5d205bfdc7707cbc3399336c1000000000000000000000000000000000000000000000000000000006987c1bb0000000000000000000000000000000000000000000000000000000000000000",
          "blockHash": "0xa6aa17b3751d0ba6e231f58f10f778072f5ee7114683b28ebd70120727027d76",
          "blockNumber": "0x188a3e4",
          "transactionHash": "0x612873e698a4608dd323bcf74d37df39881d533ad70e25c856ddb67d8578b0c0",
          "transactionIndex": "0x24",
          "logIndex": "0x3b1",
          "removed": false
        },
        {
          "address": "0xf077d4d0508505c5a80249afc10bc6ead90e47f1",
          "topics": [
            "0xe36ceebd3770780c5617d53efc7d77328074f1248146245ed3b854cbf651fb37"
          ],
          "data": "0x000000000000000000000000eca7a53ba6a190c5d205bfdc7707cbc3399336c100000000000000000000000000000000000000000000000000000000000000000000000000000000000000000000000000000000000000000000000000000000000000000000000000000000000000000000000000000000000000000000000100000000000000000000000000000000000000000000000000000000000000000000000000000000000000000000000000000000000000000000000000000000000000000000000000000000000000000000000000000000000000006987bff9000000000000000000000000000000000000000000000000000000006987bc75",
          "blockHash": "0xa6aa17b3751d0ba6e231f58f10f778072f5ee7114683b28ebd70120727027d76",
          "blockNumber": "0x188a3e4",
          "transactionHash": "0x612873e698a4608dd323bcf74d37df39881d533ad70e25c856ddb67d8578b0c0",
          "transactionIndex": "0x24",
          "logIndex": "0x3b2",
          "removed": false
        }
      ],
      "logsBloom": "0x00000000000000000000000000000000010000000000000000000000400000000000000000000000000000000000000000000000000000000000000000000000000000000000000000000000000000000000000000000000001000000000000000000000000000000000000000000000400000000080000000000000000000000000000000000000000000100000000000000000000020000000000000000000000000000000000000000000000000000000000000000000400000000000000000000000000000000100000000000040000000000000000000000000000000000000000000000000000000000000000000000000000000000000000000001002",
      "type": "0x2",
      "transactionHash": "0x612873e698a4608dd323bcf74d37df39881d533ad70e25c856ddb67d8578b0c0",
      "transactionIndex": "0x24",
      "blockHash": "0xa6aa17b3751d0ba6e231f58f10f778072f5ee7114683b28ebd70120727027d76",
      "blockNumber": "0x188a3e4",
      "gasUsed": "0x2f917",
      "effectiveGasPrice": "0x2b145267080be",
      "from": "0xeca7a53ba6a190c5d205bfdc7707cbc3399336c1",
      "to": "0xf077d4d0508505c5a80249afc10bc6ead90e47f1",
      "contractAddress": null
    }
  ],
  "libraries": [],
  "pending": [],
  "returns": {},
  "timestamp": 1770503286174,
  "chain": 369,
  "commit": null
}