{
  "transactions": [
    {
      "hash": "0xd39f2f2618a2d71b103286c5a6b9caaaebe9bdfdf249a44be62fac3d2a0aaadc",
      "transactionType": "CALL",
      "contractName": null,
      "contractAddress": "0xf077d4d0508505c5a80249afc10bc6ead90e47f1",
      "function": "makeCrime(uint8)",
      "arguments": [
        "0"
      ],
      "transaction": {
        "from": "0x4c62f6121e6f967a0872da8364995e9b68c1e82f",
        "to": "0xf077d4d0508505c5a80249afc10bc6ead90e47f1",
        "gas": "0x2a297",
        "value": "0x0",
        "input": "0xc625abb40000000000000000000000000000000000000000000000000000000000000000",
        "nonce": "0x753",
        "chainId": "0x171"
      },
      "additionalContracts": [],
      "isFixedGasLimit": false
    }
  ],
  "receipts": [
    {
      "status": "0x1",
      "cumulativeGasUsed": "0x17a1502",
      "logs": [
        {
          "address": "0xf077d4d0508505c5a80249afc10bc6ead90e47f1",
          "topics": [
            "0xe36ceebd3770780c5617d53efc7d77328074f1248146245ed3b854cbf651fb37"
          ],
          "data": "0x0000000000000000000000004c62f6121e6f967a0872da8364995e9b68c1e82f0000000000000000000000000000000000000000000000000000000000000000000000000000000000000000000000000000000000000000000000000000000000000000000000000000000000000000000000000000000000000000000000000000000000000000000000000000000000000000000000000000000000000000000000000000000000000000000000000000000000000000000000000000000000000000000000000000000000000000000000000000000000000000697a938300000000000000000000000000000000000000000000000000000000697a8fff",
          "blockHash": "0xe497c95e40da1ea8e60635b8c17d3bcbf43583a0d7ede93f34b6786c09020169",
          "blockNumber": "0x1875b20",
          "transactionHash": "0xd39f2f2618a2d71b103286c5a6b9caaaebe9bdfdf249a44be62fac3d2a0aaadc",
          "transactionIndex": "0x6c",
          "logIndex": "0x20e",
          "removed": false
        }
      ],
      "logsBloom": "0x00000000000000000000000000000000000000000000000000000000400000000000000000000000000000000000000000000000000000000000000000000000000000000000000000000000000000000000000000000000000000000000000000000000000000000000000000000000400000000000000000000000000000000000000000000000000000100000000000000000000020000000000000000000000000000000000000000000000000000000000000000000000000000000000000000000000000000100000000000000000000000000000000000000000000000000000000000000000000000000000000000000000000000000000000000002",
      "type": "0x2",
      "transactionHash": "0xd39f2f2618a2d71b103286c5a6b9caaaebe9bdfdf249a44be62fac3d2a0aaadc",
      "transactionIndex": "0x6c",
      "blockHash": "0xe497c95e40da1ea8e60635b8c17d3bcbf43583a0d7ede93f34b6786c09020169",
      "blockNumber": "0x1875b20",
      "gasUsed": "0x1e865",
      "effectiveGasPrice": "0x19821e680d6ba",
      "from": "0x4c62f6121e6f967a0872da8364995e9b68c1e82f",
      "to": "0xf077d4d0508505c5a80249afc10bc6ead90e47f1",
      "contractAddress": null
    }
  ],
  "libraries": [],
  "pending": [],
  "returns": {},
  "timestamp": 1769639937585,
  "chain": 369,
  "commit": null
}