{
  "transactions": [
    {
      "hash": "0x1a95b500986fed7dc253efcd26c6ce30cc7760c519d4bca1dee4e5297a3c11c7",
      "transactionType": "CALL",
      "contractName": null,
      "contractAddress": "0xf077d4d0508505c5a80249afc10bc6ead90e47f1",
      "function": "makeCrime(uint8)",
      "arguments": [
        "0"
      ],
      "transaction": {
        "from": "0xeca7a53ba6a190c5d205bfdc7707cbc3399336c1",
        "to": "0xf077d4d0508505c5a80249afc10bc6ead90e47f1",
        "gas": "0x41b40",
        "value": "0x0",
        "input": "0xc625abb40000000000000000000000000000000000000000000000000000000000000000",
        "nonce": "0x567",
        "chainId": "0x171"
      },
      "additionalContracts": [],
      "isFixedGasLimit": false
    }
  ],
  "receipts": [
    {
      "status": "0x1",
      "cumulativeGasUsed": "0x1a41fee",
      "logs": [
        {
          "address": "0xf077d4d0508505c5a80249afc10bc6ead90e47f1",
          "topics": [
            "0xe36ceebd3770780c5617d53efc7d77328074f1248146245ed3b854cbf651fb37"
          ],
          "data": "0x000000000000000000000000eca7a53ba6a190c5d205bfdc7707cbc3399336c10000000000000000000000000000000000000000000000000000000000000000000000000000000000000000000000000000000000000000000000000000000000000000000000000000000000000000000000000000000000000000000000000000000000000000000000000000000000000000000000000000000000000000000000000000000000000000000000000000000000000000000000000000000000000000000000000000000000000000000000000000000000000000698791050000000000000000000000000000000000000000000000000000000069878d81",
          "blockHash": "0xce4e4cef5c0217bc70838d37a4535c9684bb9d4083bc1340ef8553aa80411db3",
          "blockNumber": "0x1889f4a",
          "transactionHash": "0x1a95b500986fed7dc253efcd26c6ce30cc7760c519d4bca1dee4e5297a3c11c7",
          "transactionIndex": "0x10",
          "logIndex": "0x805",
          "removed": false
        }
      ],
      "logsBloom": "0x00000000000000000000000000000000000000000000000000000000400000000000000000000000000000000000000000000000000000000000000000000000000000000000000000000000000000000000000000000000000000000000000000000000000000000000000000000000400000000000000000000000000000000000000000000000000000100000000000000000000020000000000000000000000000000000000000000000000000000000000000000000000000000000000000000000000000000100000000000000000000000000000000000000000000000000000000000000000000000000000000000000000000000000000000000002",
      "type": "0x2",
      "transactionHash": "0x1a95b500986fed7dc253efcd26c6ce30cc7760c519d4bca1dee4e5297a3c11c7",
      "transactionIndex": "0x10",
      "blockHash": "0xce4e4cef5c0217bc70838d37a4535c9684bb9d4083bc1340ef8553aa80411db3",
      "blockNumber": "0x1889f4a",
      "gasUsed": "0x1f525",
      "effectiveGasPrice": "0x2d440efd092d2",
      "from": "0xeca7a53ba6a190c5d205bfdc7707cbc3399336c1",
      "to": "0xf077d4d0508505c5a80249afc10bc6ead90e47f1",
      "contractAddress": null
    }
  ],
  "libraries": [],
  "pending": [],
  "returns": {},
  "timestamp": 1770491265968,
  "chain": 369,
  "commit": null
}