{
  "transactions": [
    {
      "hash": "0x2f006ff0ed96ef7e5ee8edfeda9c3ff428a14f9d2d047175542dc7993bc3e3d8",
      "transactionType": "CALL",
      "contractName": null,
      "contractAddress": "0xf077d4d0508505c5a80249afc10bc6ead90e47f1",
      "function": "makeCrime(uint8)",
      "arguments": [
        "0"
      ],
      "transaction": {
        "from": "0xeca7a53ba6a190c5d205bfdc7707cbc3399336c1",
        "to": "0xf077d4d0508505c5a80249afc10bc6ead90e47f1",
        "gas": "0x40ef5",
        "value": "0x0",
        "input": "0xc625abb40000000000000000000000000000000000000000000000000000000000000000",
        "nonce": "0x3d7",
        "chainId": "0x171"
      },
      "additionalContracts": [],
      "isFixedGasLimit": false
    }
  ],
  "receipts": [
    {
      "status": "0x1",
      "cumulativeGasUsed": "0xfd2e91",
      "logs": [
        {
          "address": "0xf077d4d0508505c5a80249afc10bc6ead90e47f1",
          "topics": [
            "0xe36ceebd3770780c5617d53efc7d77328074f1248146245ed3b854cbf651fb37"
          ],
          "data": "0x000000000000000000000000eca7a53ba6a190c5d205bfdc7707cbc3399336c10000000000000000000000000000000000000000000000000000000000000000000000000000000000000000000000000000000000000000000000000000000000000000000000000000000000000000000000000000000000000000000000000000000000000000000000000000000000000000000000000000000000000000000000000000000000000000000000000000000000000000000000000000000000000000000000000000000000000000000000000000000000000000697a976b00000000000000000000000000000000000000000000000000000000697a93e7",
          "blockHash": "0x32a009df346565ecd1d2134f1e5bbd3fc0d3170ffcc7cda9d5c18c62d9b0eb5f",
          "blockNumber": "0x1875b81",
          "transactionHash": "0x2f006ff0ed96ef7e5ee8edfeda9c3ff428a14f9d2d047175542dc7993bc3e3d8",
          "transactionIndex": "0x9c",
          "logIndex": "0x168",
          "removed": false
        }
      ],
      "logsBloom": "0x00000000000000000000000000000000000000000000000000000000400000000000000000000000000000000000000000000000000000000000000000000000000000000000000000000000000000000000000000000000000000000000000000000000000000000000000000000000400000000000000000000000000000000000000000000000000000100000000000000000000020000000000000000000000000000000000000000000000000000000000000000000000000000000000000000000000000000100000000000000000000000000000000000000000000000000000000000000000000000000000000000000000000000000000000000002",
      "type": "0x2",
      "transactionHash": "0x2f006ff0ed96ef7e5ee8edfeda9c3ff428a14f9d2d047175542dc7993bc3e3d8",
      "transactionIndex": "0x9c",
      "blockHash": "0x32a009df346565ecd1d2134f1e5bbd3fc0d3170ffcc7cda9d5c18c62d9b0eb5f",
      "blockNumber": "0x1875b81",
      "gasUsed": "0x1f525",
      "effectiveGasPrice": "0x1ed255e9102a0",
      "from": "0xeca7a53ba6a190c5d205bfdc7707cbc3399336c1",
      "to": "0xf077d4d0508505c5a80249afc10bc6ead90e47f1",
      "contractAddress": null
    }
  ],
  "libraries": [],
  "pending": [],
  "returns": {},
  "timestamp": 1769640936216,
  "chain": 369,
  "commit": null
}