{
  "transactions": [
    {
      "hash": "0x672861db207f2cad21572cc90b3d0e40441f36bd2f6b70619ca0640abb3cb447",
      "transactionType": "CALL",
      "contractName": null,
      "contractAddress": "0xf077d4d0508505c5a80249afc10bc6ead90e47f1",
      "function": "makeCrime(uint8)",
      "arguments": [
        "1"
      ],
      "transaction": {
        "from": "0x4c62f6121e6f967a0872da8364995e9b68c1e82f",
        "to": "0xf077d4d0508505c5a80249afc10bc6ead90e47f1",
        "gas": "0x2cacf",
        "value": "0x0",
        "input": "0xc625abb40000000000000000000000000000000000000000000000000000000000000001",
        "nonce": "0x98d",
        "chainId": "0x171"
      },
      "additionalContracts": [],
      "isFixedGasLimit": false
    }
  ],
  "receipts": [
    {
      "status": "0x1",
      "cumulativeGasUsed": "0x24c7b31",
      "logs": [
        {
          "address": "0xf077d4d0508505c5a80249afc10bc6ead90e47f1",
          "topics": [
            "0xe36ceebd3770780c5617d53efc7d77328074f1248146245ed3b854cbf651fb37"
          ],
          "data": "0x0000000000000000000000004c62f6121e6f967a0872da8364995e9b68c1e82f0000000000000000000000000000000000000000000000000000000000000001000000000000000000000000000000000000000000000000000000000000000000000000000000000000000000000000000000000000000000000000000000000000000000000000000000000000000000000000000000000000000000000000000000000000000000000000000000000000000000000000000000000000000000000000000000000000000000000000000000000000000000000000698881870000000000000000000000000000000000000000000000000000000069887e03",
          "blockHash": "0x7813532417d295fd1d1aaad94ca4ac567f3872f2b154fdcc04326ec907ccc4c1",
          "blockNumber": "0x188b6c2",
          "transactionHash": "0x672861db207f2cad21572cc90b3d0e40441f36bd2f6b70619ca0640abb3cb447",
          "transactionIndex": "0x40",
          "logIndex": "0x7f6",
          "removed": false
        }
      ],
      "logsBloom": "0x00000000000000000000000000000000000000000000000000000000400000000000000000000000000000000000000000000000000000000000000000000000000000000000000000000000000000000000000000000000000000000000000000000000000000000000000000000000400000000000000000000000000000000000000000000000000000100000000000000000000020000000000000000000000000000000000000000000000000000000000000000000000000000000000000000000000000000100000000000000000000000000000000000000000000000000000000000000000000000000000000000000000000000000000000000002",
      "type": "0x2",
      "transactionHash": "0x672861db207f2cad21572cc90b3d0e40441f36bd2f6b70619ca0640abb3cb447",
      "transactionIndex": "0x40",
      "blockHash": "0x7813532417d295fd1d1aaad94ca4ac567f3872f2b154fdcc04326ec907ccc4c1",
      "blockNumber": "0x188b6c2",
      "gasUsed": "0x1e8c3",
      "effectiveGasPrice": "0x2adf22879f583",
      "from": "0x4c62f6121e6f967a0872da8364995e9b68c1e82f",
      "to": "0xf077d4d0508505c5a80249afc10bc6ead90e47f1",
      "contractAddress": null
    }
  ],
  "libraries": [],
  "pending": [],
  "returns": {},
  "timestamp": 1770552836126,
  "chain": 369,
  "commit": null
}