{
  "transactions": [
    {
      "hash": "0x9f3d3dc0034d71b9e71bbbc18ac8f7d6a08239fc65c6a1aa6294524b825f9d14",
      "transactionType": "CALL",
      "contractName": null,
      "contractAddress": "0xf077d4d0508505c5a80249afc10bc6ead90e47f1",
      "function": "makeCrime(uint8)",
      "arguments": [
        "0"
      ],
      "transaction": {
        "from": "0xac56dc5a4a9de0197f7b8f584ea04ec7e0123dde",
        "to": "0xf077d4d0508505c5a80249afc10bc6ead90e47f1",
        "gas": "0x4033d",
        "value": "0x0",
        "input": "0xc625abb40000000000000000000000000000000000000000000000000000000000000000",
        "nonce": "0x39c",
        "chainId": "0x171"
      },
      "additionalContracts": [],
      "isFixedGasLimit": false
    }
  ],
  "receipts": [
    {
      "status": "0x1",
      "cumulativeGasUsed": "0xcadb15",
      "logs": [
        {
          "address": "0xf077d4d0508505c5a80249afc10bc6ead90e47f1",
          "topics": [
            "0xe36ceebd3770780c5617d53efc7d77328074f1248146245ed3b854cbf651fb37"
          ],
          "data": "0x000000000000000000000000ac56dc5a4a9de0197f7b8f584ea04ec7e0123dde0000000000000000000000000000000000000000000000000000000000000000000000000000000000000000000000000000000000000000000000000000000000000000000000000000000000000000000000000000000000000000000000000000000000000000000000000000000000000000000000000000000000000000000000000000000000000000000000000000000000000000000000000000000000000000000000000000000000000000000000000000000000000000697a514300000000000000000000000000000000000000000000000000000000697a4dbf",
          "blockHash": "0x1b94f3ab1f2e3b403d1f8c2c79cb634c7315a504a317bd5a9f98d7f6613f5cce",
          "blockNumber": "0x18754a8",
          "transactionHash": "0x9f3d3dc0034d71b9e71bbbc18ac8f7d6a08239fc65c6a1aa6294524b825f9d14",
          "transactionIndex": "0x3a",
          "logIndex": "0x158",
          "removed": false
        }
      ],
      "logsBloom": "0x00000000000000000000000000000000000000000000000000000000400000000000000000000000000000000000000000000000000000000000000000000000000000000000000000000000000000000000000000000000000000000000000000000000000000000000000000000000400000000000000000000000000000000000000000000000000000100000000000000000000020000000000000000000000000000000000000000000000000000000000000000000000000000000000000000000000000000100000000000000000000000000000000000000000000000000000000000000000000000000000000000000000000000000000000000002",
      "type": "0x2",
      "transactionHash": "0x9f3d3dc0034d71b9e71bbbc18ac8f7d6a08239fc65c6a1aa6294524b825f9d14",
      "transactionIndex": "0x3a",
      "blockHash": "0x1b94f3ab1f2e3b403d1f8c2c79cb634c7315a504a317bd5a9f98d7f6613f5cce",
      "blockNumber": "0x18754a8",
      "gasUsed": "0x1eca9",
      "effectiveGasPrice": "0x470c6ea3211dd",
      "from": "0xac56dc5a4a9de0197f7b8f584ea04ec7e0123dde",
      "to": "0xf077d4d0508505c5a80249afc10bc6ead90e47f1",
      "contractAddress": null
    }
  ],
  "libraries": [],
  "pending": [],
  "returns": {},
  "timestamp": 1769622976528,
  "chain": 369,
  "commit": null
}