{
  "transactions": [
    {
      "hash": "0xdec7ccb2fe90923f643895b12c1e1144c5a4b10183d7f761e344740732b823fd",
      "transactionType": "CALL",
      "contractName": null,
      "contractAddress": "0xf077d4d0508505c5a80249afc10bc6ead90e47f1",
      "function": "makeCrime(uint8)",
      "arguments": [
        "0"
      ],
      "transaction": {
        "from": "0xac56dc5a4a9de0197f7b8f584ea04ec7e0123dde",
        "to": "0xf077d4d0508505c5a80249afc10bc6ead90e47f1",
        "gas": "0x54352",
        "value": "0x0",
        "input": "0xc625abb40000000000000000000000000000000000000000000000000000000000000000",
        "nonce": "0x3a7",
        "chainId": "0x171"
      },
      "additionalContracts": [],
      "isFixedGasLimit": false
    }
  ],
  "receipts": [
    {
      "status": "0x1",
      "cumulativeGasUsed": "0x8088c1",
      "logs": [
        {
          "address": "0x74eadd7ebeeed638fd7c413134fa3d3433699d92",
          "topics": [
            "0x570f308d592bed3a47a73125665ce3b81fe296da89acff1af6d926e08a0a9f12"
          ],
          "data": "0x000000000000000000000000ac56dc5a4a9de0197f7b8f584ea04ec7e0123dde0000000000000000000000000000000000000000000000000000000000038b23",
          "blockHash": "0x042f1d1a0ac5d2885ab83269cd95cf6f19ba9e2dfd1779ee1488d4b05403fb90",
          "blockNumber": "0x1875880",
          "transactionHash": "0xdec7ccb2fe90923f643895b12c1e1144c5a4b10183d7f761e344740732b823fd",
          "transactionIndex": "0x23",
          "logIndex": "0xf3",
          "removed": false
        },
        {
          "address": "0xf077d4d0508505c5a80249afc10bc6ead90e47f1",
          "topics": [
            "0xe36ceebd3770780c5617d53efc7d77328074f1248146245ed3b854cbf651fb37"
          ],
          "data": "0x000000000000000000000000ac56dc5a4a9de0197f7b8f584ea04ec7e0123dde000000000000000000000000000000000000000000000000000000000000000000000000000000000000000000000000000000000000000000000000000000010000000000000000000000000000000000000000000000000000000000000000000000000000000000000000000000000000000000000012eb5912eb33540000000000000000000000000000000000000000000000000000000000000000006400000000000000000000000000000000000000000000000000000000697a78a300000000000000000000000000000000000000000000000000000000697a751f",
          "blockHash": "0x042f1d1a0ac5d2885ab83269cd95cf6f19ba9e2dfd1779ee1488d4b05403fb90",
          "blockNumber": "0x1875880",
          "transactionHash": "0xdec7ccb2fe90923f643895b12c1e1144c5a4b10183d7f761e344740732b823fd",
          "transactionIndex": "0x23",
          "logIndex": "0xf4",
          "removed": false
        }
      ],
      "logsBloom": "0x00000000000000000000000000000000004000000000000000000000400000000000000000000000000000000000000000000000000000000000000000000000000000000000000000008000000000000000000000000000000000000000000000000100000000000000000000000000400000000000000000000000000000000000000000000000000000100000000000000000000020000000000000000008000000000000000000000000000000000010000000000000000000000000000000000000000002000100000000000000000000000000000000000000000000000000000000000000000000000000000000000000000000000000000000000002",
      "type": "0x2",
      "transactionHash": "0xdec7ccb2fe90923f643895b12c1e1144c5a4b10183d7f761e344740732b823fd",
      "transactionIndex": "0x23",
      "blockHash": "0x042f1d1a0ac5d2885ab83269cd95cf6f19ba9e2dfd1779ee1488d4b05403fb90",
      "blockNumber": "0x1875880",
      "gasUsed": "0x3cf70",
      "effectiveGasPrice": "0x2fd617515e7bb",
      "from": "0xac56dc5a4a9de0197f7b8f584ea04ec7e0123dde",
      "to": "0xf077d4d0508505c5a80249afc10bc6ead90e47f1",
      "contractAddress": null
    }
  ],
  "libraries": [],
  "pending": [],
  "returns": {},
  "timestamp": 1769633056197,
  "chain": 369,
  "commit": null
}