{
  "transactions": [
    {
      "hash": "0x6569dcb6903f000869eee8e328fd944b5f6fc6b5f7be31a5ef104a72387702bf",
      "transactionType": "CALL",
      "contractName": null,
      "contractAddress": "0xf077d4d0508505c5a80249afc10bc6ead90e47f1",
      "function": "makeCrime(uint8)",
      "arguments": [
        "0"
      ],
      "transaction": {
        "from": "0xac56dc5a4a9de0197f7b8f584ea04ec7e0123dde",
        "to": "0xf077d4d0508505c5a80249afc10bc6ead90e47f1",
        "gas": "0x552a0",
        "value": "0x0",
        "input": "0xc625abb40000000000000000000000000000000000000000000000000000000000000000",
        "nonce": "0x4e8",
        "chainId": "0x171"
      },
      "additionalContracts": [],
      "isFixedGasLimit": false
    }
  ],
  "receipts": [
    {
      "status": "0x1",
      "cumulativeGasUsed": "0xde181c",
      "logs": [
        {
          "address": "0x74eadd7ebeeed638fd7c413134fa3d3433699d92",
          "topics": [
            "0x570f308d592bed3a47a73125665ce3b81fe296da89acff1af6d926e08a0a9f12"
          ],
          "data": "0x000000000000000000000000ac56dc5a4a9de0197f7b8f584ea04ec7e0123dde000000000000000000000000000000000000000000000000000000000003af77",
          "blockHash": "0xf19d6f2b099230cce6eafadc0f0a1e02b660ae14a12c6600b1e8f25abbaaed36",
          "blockNumber": "0x188a5b0",
          "transactionHash": "0x6569dcb6903f000869eee8e328fd944b5f6fc6b5f7be31a5ef104a72387702bf",
          "transactionIndex": "0x34",
          "logIndex": "0x130",
          "removed": false
        },
        {
          "address": "0xf077d4d0508505c5a80249afc10bc6ead90e47f1",
          "topics": [
            "0xe36ceebd3770780c5617d53efc7d77328074f1248146245ed3b854cbf651fb37"
          ],
          "data": "0x000000000000000000000000ac56dc5a4a9de0197f7b8f584ea04ec7e0123dde000000000000000000000000000000000000000000000000000000000000000000000000000000000000000000000000000000000000000000000000000000010000000000000000000000000000000000000000000000000000000000000000000000000000000000000000000000000000000000000012290f15180bdc00000000000000000000000000000000000000000000000000000000000000000064000000000000000000000000000000000000000000000000000000006987d291000000000000000000000000000000000000000000000000000000006987cf0d",
          "blockHash": "0xf19d6f2b099230cce6eafadc0f0a1e02b660ae14a12c6600b1e8f25abbaaed36",
          "blockNumber": "0x188a5b0",
          "transactionHash": "0x6569dcb6903f000869eee8e328fd944b5f6fc6b5f7be31a5ef104a72387702bf",
          "transactionIndex": "0x34",
          "logIndex": "0x131",
          "removed": false
        }
      ],
      "logsBloom": "0x00000000000000000000000000000000004000000000000000000000400000000000000000000000000000000000000000000000000000000000000000000000000000000000000000008000000000000000000000000000000000000000000000000100000000000000000000000000400000000000000000000000000000000000000000000000000000100000000000000000000020000000000000000008000000000000000000000000000000000010000000000000000000000000000000000000000002000100000000000000000000000000000000000000000000000000000000000000000000000000000000000000000000000000000000000002",
      "type": "0x2",
      "transactionHash": "0x6569dcb6903f000869eee8e328fd944b5f6fc6b5f7be31a5ef104a72387702bf",
      "transactionIndex": "0x34",
      "blockHash": "0xf19d6f2b099230cce6eafadc0f0a1e02b660ae14a12c6600b1e8f25abbaaed36",
      "blockNumber": "0x188a5b0",
      "gasUsed": "0x3da85",
      "effectiveGasPrice": "0x352d61acf5e77",
      "from": "0xac56dc5a4a9de0197f7b8f584ea04ec7e0123dde",
      "to": "0xf077d4d0508505c5a80249afc10bc6ead90e47f1",
      "contractAddress": null
    }
  ],
  "libraries": [],
  "pending": [],
  "returns": {},
  "timestamp": 1770508046909,
  "chain": 369,
  "commit": null
}