{
  "transactions": [
    {
      "hash": "0x72b8fabb462796f8c1aca5e647f75302fe3bd72c2adca17276a1df0a4070b316",
      "transactionType": "CALL",
      "contractName": null,
      "contractAddress": "0xf077d4d0508505c5a80249afc10bc6ead90e47f1",
      "function": "makeCrime(uint8)",
      "arguments": [
        "0"
      ],
      "transaction": {
        "from": "0xac56dc5a4a9de0197f7b8f584ea04ec7e0123dde",
        "to": "0xf077d4d0508505c5a80249afc10bc6ead90e47f1",
        "gas": "0x54352",
        "value": "0x0",
        "input": "0xc625abb40000000000000000000000000000000000000000000000000000000000000000",
        "nonce": "0x246",
        "chainId": "0x171"
      },
      "additionalContracts": [],
      "isFixedGasLimit": false
    }
  ],
  "receipts": [
    {
      "status": "0x1",
      "cumulativeGasUsed": "0x66d6e2",
      "logs": [
        {
          "address": "0x74eadd7ebeeed638fd7c413134fa3d3433699d92",
          "topics": [
            "0x570f308d592bed3a47a73125665ce3b81fe296da89acff1af6d926e08a0a9f12"
          ],
          "data": "0x000000000000000000000000ac56dc5a4a9de0197f7b8f584ea04ec7e0123dde00000000000000000000000000000000000000000000000000000000000366cf",
          "blockHash": "0x646f503d91320de75e189eea2cac645e0dccb4d7393dee35ccd1862305090823",
          "blockNumber": "0x18606f6",
          "transactionHash": "0x72b8fabb462796f8c1aca5e647f75302fe3bd72c2adca17276a1df0a4070b316",
          "transactionIndex": "0x1f",
          "logIndex": "0x145",
          "removed": false
        },
        {
          "address": "0xf077d4d0508505c5a80249afc10bc6ead90e47f1",
          "topics": [
            "0xe36ceebd3770780c5617d53efc7d77328074f1248146245ed3b854cbf651fb37"
          ],
          "data": "0x000000000000000000000000ac56dc5a4a9de0197f7b8f584ea04ec7e0123dde000000000000000000000000000000000000000000000000000000000000000000000000000000000000000000000000000000000000000000000000000000010000000000000000000000000000000000000000000000000000000000000000000000000000000000000000000000000000000000000011f18c3a496e4c0000000000000000000000000000000000000000000000000000000000000000006400000000000000000000000000000000000000000000000000000000696cf2c300000000000000000000000000000000000000000000000000000000696cef3f",
          "blockHash": "0x646f503d91320de75e189eea2cac645e0dccb4d7393dee35ccd1862305090823",
          "blockNumber": "0x18606f6",
          "transactionHash": "0x72b8fabb462796f8c1aca5e647f75302fe3bd72c2adca17276a1df0a4070b316",
          "transactionIndex": "0x1f",
          "logIndex": "0x146",
          "removed": false
        }
      ],
      "logsBloom": "0x00000000000000000000000000000000004000000000000000000000400000000000000000000000000000000000000000000000000000000000000000000000000000000000000000008000000000000000000000000000000000000000000000000100000000000000000000000000400000000000000000000000000000000000000000000000000000100000000000000000000020000000000000000008000000000000000000000000000000000010000000000000000000000000000000000000000002000100000000000000000000000000000000000000000000000000000000000000000000000000000000000000000000000000000000000002",
      "type": "0x2",
      "transactionHash": "0x72b8fabb462796f8c1aca5e647f75302fe3bd72c2adca17276a1df0a4070b316",
      "transactionIndex": "0x1f",
      "blockHash": "0x646f503d91320de75e189eea2cac645e0dccb4d7393dee35ccd1862305090823",
      "blockNumber": "0x18606f6",
      "gasUsed": "0x3cf70",
      "effectiveGasPrice": "0xeb32408526ce",
      "from": "0xac56dc5a4a9de0197f7b8f584ea04ec7e0123dde",
      "to": "0xf077d4d0508505c5a80249afc10bc6ead90e47f1",
      "contractAddress": null
    }
  ],
  "libraries": [],
  "pending": [],
  "returns": {},
  "timestamp": 1768746815558,
  "chain": 369,
  "commit": "953695a"
}