{
  "transactions": [
    {
      "hash": "0xf677b175a13e38e7de4b3c9f36e9d6b796bc3fd972d4f3257f85d7b4d57f89f8",
      "transactionType": "CALL",
      "contractName": null,
      "contractAddress": "0xf077d4d0508505c5a80249afc10bc6ead90e47f1",
      "function": "makeCrime(uint8)",
      "arguments": [
        "0"
      ],
      "transaction": {
        "from": "0x4c62f6121e6f967a0872da8364995e9b68c1e82f",
        "to": "0xf077d4d0508505c5a80249afc10bc6ead90e47f1",
        "gas": "0x53c96",
        "value": "0x0",
        "input": "0xc625abb40000000000000000000000000000000000000000000000000000000000000000",
        "nonce": "0x731",
        "chainId": "0x171"
      },
      "additionalContracts": [],
      "isFixedGasLimit": false
    }
  ],
  "receipts": [
    {
      "status": "0x1",
      "cumulativeGasUsed": "0x1c71be6",
      "logs": [
        {
          "address": "0x74eadd7ebeeed638fd7c413134fa3d3433699d92",
          "topics": [
            "0x570f308d592bed3a47a73125665ce3b81fe296da89acff1af6d926e08a0a9f12"
          ],
          "data": "0x0000000000000000000000004c62f6121e6f967a0872da8364995e9b68c1e82f00000000000000000000000000000000000000000000000000000000000002bc",
          "blockHash": "0xfa127881edf10e146036701be24f0f2fce25bb479022ee7dd3e2907996ed4920",
          "blockNumber": "0x1874942",
          "transactionHash": "0xf677b175a13e38e7de4b3c9f36e9d6b796bc3fd972d4f3257f85d7b4d57f89f8",
          "transactionIndex": "0x27",
          "logIndex": "0x4e8",
          "removed": false
        },
        {
          "address": "0xf077d4d0508505c5a80249afc10bc6ead90e47f1",
          "topics": [
            "0xe36ceebd3770780c5617d53efc7d77328074f1248146245ed3b854cbf651fb37"
          ],
          "data": "0x0000000000000000000000004c62f6121e6f967a0872da8364995e9b68c1e82f00000000000000000000000000000000000000000000000000000000000000000000000000000000000000000000000000000000000000000000000000000001000000000000000000000000000000000000000000000000000000000000000000000000000000000000000000000000000000000000000dd2d5fcf3bc9c00000000000000000000000000000000000000000000000000000000000000000064000000000000000000000000000000000000000000000000000000006979dd03000000000000000000000000000000000000000000000000000000006979d97f",
          "blockHash": "0xfa127881edf10e146036701be24f0f2fce25bb479022ee7dd3e2907996ed4920",
          "blockNumber": "0x1874942",
          "transactionHash": "0xf677b175a13e38e7de4b3c9f36e9d6b796bc3fd972d4f3257f85d7b4d57f89f8",
          "transactionIndex": "0x27",
          "logIndex": "0x4e9",
          "removed": false
        }
      ],
      "logsBloom": "0x00000000000000000000000000000000004000000000000000000000400000000000000000000000000000000000000000000000000000000000000000000000000000000000000000008000000000000000000000000000000000000000000000000100000000000000000000000000400000000000000000000000000000000000000000000000000000100000000000000000000020000000000000000008000000000000000000000000000000000010000000000000000000000000000000000000000002000100000000000000000000000000000000000000000000000000000000000000000000000000000000000000000000000000000000000002",
      "type": "0x2",
      "transactionHash": "0xf677b175a13e38e7de4b3c9f36e9d6b796bc3fd972d4f3257f85d7b4d57f89f8",
      "transactionIndex": "0x27",
      "blockHash": "0xfa127881edf10e146036701be24f0f2fce25bb479022ee7dd3e2907996ed4920",
      "blockNumber": "0x1874942",
      "gasUsed": "0x3ca90",
      "effectiveGasPrice": "0x18241d8704a73",
      "from": "0x4c62f6121e6f967a0872da8364995e9b68c1e82f",
      "to": "0xf077d4d0508505c5a80249afc10bc6ead90e47f1",
      "contractAddress": null
    }
  ],
  "libraries": [],
  "pending": [],
  "returns": {},
  "timestamp": 1769593216407,
  "chain": 369,
  "commit": null
}