{
  "transactions": [
    {
      "hash": "0x43f127f789af4cf5737aabd776ef1e544a62d65c7fc57553a485b464e8adebd7",
      "transactionType": "CALL",
      "contractName": null,
      "contractAddress": "0xf077d4d0508505c5a80249afc10bc6ead90e47f1",
      "function": "makeCrime(uint8)",
      "arguments": [
        "0"
      ],
      "transaction": {
        "from": "0xeca7a53ba6a190c5d205bfdc7707cbc3399336c1",
        "to": "0xf077d4d0508505c5a80249afc10bc6ead90e47f1",
        "gas": "0x55e10",
        "value": "0x0",
        "input": "0xc625abb40000000000000000000000000000000000000000000000000000000000000000",
        "nonce": "0x59a",
        "chainId": "0x171"
      },
      "additionalContracts": [],
      "isFixedGasLimit": false
    }
  ],
  "receipts": [
    {
      "status": "0x1",
      "cumulativeGasUsed": "0xc0fd93",
      "logs": [
        {
          "address": "0x74eadd7ebeeed638fd7c413134fa3d3433699d92",
          "topics": [
            "0x570f308d592bed3a47a73125665ce3b81fe296da89acff1af6d926e08a0a9f12"
          ],
          "data": "0x000000000000000000000000eca7a53ba6a190c5d205bfdc7707cbc3399336c10000000000000000000000000000000000000000000000000000000000023c96",
          "blockHash": "0xade7fe5c662257b86e252fd68858eeaa40416e4c63d201a3ba7fee0e9021a7f5",
          "blockNumber": "0x188b12e",
          "transactionHash": "0x43f127f789af4cf5737aabd776ef1e544a62d65c7fc57553a485b464e8adebd7",
          "transactionIndex": "0x27",
          "logIndex": "0xfa",
          "removed": false
        },
        {
          "address": "0xf077d4d0508505c5a80249afc10bc6ead90e47f1",
          "topics": [
            "0xe36ceebd3770780c5617d53efc7d77328074f1248146245ed3b854cbf651fb37"
          ],
          "data": "0x000000000000000000000000eca7a53ba6a190c5d205bfdc7707cbc3399336c1000000000000000000000000000000000000000000000000000000000000000000000000000000000000000000000000000000000000000000000000000000010000000000000000000000000000000000000000000000000000000000000000000000000000000000000000000000000000000000000011d5cacce21f8400000000000000000000000000000000000000000000000000000000000000000014000000000000000000000000000000000000000000000000000000006988482500000000000000000000000000000000000000000000000000000000698844a1",
          "blockHash": "0xade7fe5c662257b86e252fd68858eeaa40416e4c63d201a3ba7fee0e9021a7f5",
          "blockNumber": "0x188b12e",
          "transactionHash": "0x43f127f789af4cf5737aabd776ef1e544a62d65c7fc57553a485b464e8adebd7",
          "transactionIndex": "0x27",
          "logIndex": "0xfb",
          "removed": false
        }
      ],
      "logsBloom": "0x00000000000000000000000000000000004000000000000000000000400000000000000000000000000000000000000000000000000000000000000000000000000000000000000000008000000000000000000000000000000000000000000000000100000000000000000000000000400000000000000000000000000000000000000000000000000000100000000000000000000020000000000000000008000000000000000000000000000000000010000000000000000000000000000000000000000002000100000000000000000000000000000000000000000000000000000000000000000000000000000000000000000000000000000000000002",
      "type": "0x2",
      "transactionHash": "0x43f127f789af4cf5737aabd776ef1e544a62d65c7fc57553a485b464e8adebd7",
      "transactionIndex": "0x27",
      "blockHash": "0xade7fe5c662257b86e252fd68858eeaa40416e4c63d201a3ba7fee0e9021a7f5",
      "blockNumber": "0x188b12e",
      "gasUsed": "0x3e2cd",
      "effectiveGasPrice": "0x30f74a313bd2e",
      "from": "0xeca7a53ba6a190c5d205bfdc7707cbc3399336c1",
      "to": "0xf077d4d0508505c5a80249afc10bc6ead90e47f1",
      "contractAddress": null
    }
  ],
  "libraries": [],
  "pending": [],
  "returns": {},
  "timestamp": 1770538145679,
  "chain": 369,
  "commit": null
}