{
  "transactions": [
    {
      "hash": "0x85c9c3315bfdd8e8ba602749acd46a7d72123b5ed1ad8184b09d0066cf4415e7",
      "transactionType": "CALL",
      "contractName": null,
      "contractAddress": "0xf077d4d0508505c5a80249afc10bc6ead90e47f1",
      "function": "makeCrime(uint8)",
      "arguments": [
        "0"
      ],
      "transaction": {
        "from": "0xeca7a53ba6a190c5d205bfdc7707cbc3399336c1",
        "to": "0xf077d4d0508505c5a80249afc10bc6ead90e47f1",
        "gas": "0x54ec2",
        "value": "0x0",
        "input": "0xc625abb40000000000000000000000000000000000000000000000000000000000000000",
        "nonce": "0x370",
        "chainId": "0x171"
      },
      "additionalContracts": [],
      "isFixedGasLimit": false
    }
  ],
  "receipts": [
    {
      "status": "0x1",
      "cumulativeGasUsed": "0x1ead431",
      "logs": [
        {
          "address": "0x74eadd7ebeeed638fd7c413134fa3d3433699d92",
          "topics": [
            "0x570f308d592bed3a47a73125665ce3b81fe296da89acff1af6d926e08a0a9f12"
          ],
          "data": "0x000000000000000000000000eca7a53ba6a190c5d205bfdc7707cbc3399336c1000000000000000000000000000000000000000000000000000000000002303e",
          "blockHash": "0x4e57fa1f5a43e3922204697379dee2ea018d79645c7c7970adf97450820a628e",
          "blockNumber": "0x1873bd3",
          "transactionHash": "0x85c9c3315bfdd8e8ba602749acd46a7d72123b5ed1ad8184b09d0066cf4415e7",
          "transactionIndex": "0x7b",
          "logIndex": "0x2b3",
          "removed": false
        },
        {
          "address": "0xf077d4d0508505c5a80249afc10bc6ead90e47f1",
          "topics": [
            "0xe36ceebd3770780c5617d53efc7d77328074f1248146245ed3b854cbf651fb37"
          ],
          "data": "0x000000000000000000000000eca7a53ba6a190c5d205bfdc7707cbc3399336c10000000000000000000000000000000000000000000000000000000000000000000000000000000000000000000000000000000000000000000000000000000100000000000000000000000000000000000000000000000000000000000000000000000000000000000000000000000000000000000000162c03e5066ec40000000000000000000000000000000000000000000000000000000000000000001400000000000000000000000000000000000000000000000000000000697953790000000000000000000000000000000000000000000000000000000069794ff5",
          "blockHash": "0x4e57fa1f5a43e3922204697379dee2ea018d79645c7c7970adf97450820a628e",
          "blockNumber": "0x1873bd3",
          "transactionHash": "0x85c9c3315bfdd8e8ba602749acd46a7d72123b5ed1ad8184b09d0066cf4415e7",
          "transactionIndex": "0x7b",
          "logIndex": "0x2b4",
          "removed": false
        }
      ],
      "logsBloom": "0x00000000000000000000000000000000004000000000000000000000400000000000000000000000000000000000000000000000000000000000000000000000000000000000000000008000000000000000000000000000000000000000000000000100000000000000000000000000400000000000000000000000000000000000000000000000000000100000000000000000000020000000000000000008000000000000000000000000000000000010000000000000000000000000000000000000000002000100000000000000000000000000000000000000000000000000000000000000000000000000000000000000000000000000000000000002",
      "type": "0x2",
      "transactionHash": "0x85c9c3315bfdd8e8ba602749acd46a7d72123b5ed1ad8184b09d0066cf4415e7",
      "transactionIndex": "0x7b",
      "blockHash": "0x4e57fa1f5a43e3922204697379dee2ea018d79645c7c7970adf97450820a628e",
      "blockNumber": "0x1873bd3",
      "gasUsed": "0x3d7b8",
      "effectiveGasPrice": "0x2edabf1f61723",
      "from": "0xeca7a53ba6a190c5d205bfdc7707cbc3399336c1",
      "to": "0xf077d4d0508505c5a80249afc10bc6ead90e47f1",
      "contractAddress": null
    }
  ],
  "libraries": [],
  "pending": [],
  "returns": {},
  "timestamp": 1769558007171,
  "chain": 369,
  "commit": null
}