{
  "transactions": [
    {
      "hash": "0x9063aa60978f0a5968143117499642c7d1bbaa05cc5a7835d8dfb31f74d43def",
      "transactionType": "CALL",
      "contractName": null,
      "contractAddress": "0xf077d4d0508505c5a80249afc10bc6ead90e47f1",
      "function": "makeCrime(uint8)",
      "arguments": [
        "0"
      ],
      "transaction": {
        "from": "0xaa73aa98480757d75aae288b5931261448eb0530",
        "to": "0xf077d4d0508505c5a80249afc10bc6ead90e47f1",
        "gas": "0x54be5",
        "value": "0x0",
        "input": "0xc625abb40000000000000000000000000000000000000000000000000000000000000000",
        "nonce": "0x65",
        "chainId": "0x171"
      },
      "additionalContracts": [],
      "isFixedGasLimit": false
    }
  ],
  "receipts": [
    {
      "status": "0x1",
      "cumulativeGasUsed": "0x204e02a",
      "logs": [
        {
          "address": "0xf077d4d0508505c5a80249afc10bc6ead90e47f1",
          "topics": [
            "0xe36ceebd3770780c5617d53efc7d77328074f1248146245ed3b854cbf651fb37"
          ],
          "data": "0x000000000000000000000000aa73aa98480757d75aae288b5931261448eb05300000000000000000000000000000000000000000000000000000000000000000000000000000000000000000000000000000000000000000000000000000000000000000000000000000000000000000000000000000000000000000000000000000000000000000000000000000000000000000000000000000000000000000000000000000000000000000000000000000000000000000000000000000000000000000000000000000000000000000000000000000000000000000698822d70000000000000000000000000000000000000000000000000000000069881f53",
          "blockHash": "0xac7ca2e96699297c4e238025a69772ea6f5d2fa059dd831771e2c63ce0be4f28",
          "blockNumber": "0x188ad89",
          "transactionHash": "0x9063aa60978f0a5968143117499642c7d1bbaa05cc5a7835d8dfb31f74d43def",
          "transactionIndex": "0x20",
          "logIndex": "0x87a",
          "removed": false
        }
      ],
      "logsBloom": "0x00000000000000000000000000000000000000000000000000000000400000000000000000000000000000000000000000000000000000000000000000000000000000000000000000000000000000000000000000000000000000000000000000000000000000000000000000000000400000000000000000000000000000000000000000000000000000100000000000000000000020000000000000000000000000000000000000000000000000000000000000000000000000000000000000000000000000000100000000000000000000000000000000000000000000000000000000000000000000000000000000000000000000000000000000000002",
      "type": "0x2",
      "transactionHash": "0x9063aa60978f0a5968143117499642c7d1bbaa05cc5a7835d8dfb31f74d43def",
      "transactionIndex": "0x20",
      "blockHash": "0xac7ca2e96699297c4e238025a69772ea6f5d2fa059dd831771e2c63ce0be4f28",
      "blockNumber": "0x188ad89",
      "gasUsed": "0x1e865",
      "effectiveGasPrice": "0x2ccd5abd3a702",
      "from": "0xaa73aa98480757d75aae288b5931261448eb0530",
      "to": "0xf077d4d0508505c5a80249afc10bc6ead90e47f1",
      "contractAddress": null
    }
  ],
  "libraries": [],
  "pending": [],
  "returns": {},
  "timestamp": 1770528597274,
  "chain": 369,
  "commit": null
}