{
  "transactions": [
    {
      "hash": "0x47abe908de2541b9bb5f64994ede997712ccffd17b046306b674659638b6f763",
      "transactionType": "CALL",
      "contractName": null,
      "contractAddress": "0xf077d4d0508505c5a80249afc10bc6ead90e47f1",
      "function": "makeCrime(uint8)",
      "arguments": [
        "0"
      ],
      "transaction": {
        "from": "0x4c62f6121e6f967a0872da8364995e9b68c1e82f",
        "to": "0xf077d4d0508505c5a80249afc10bc6ead90e47f1",
        "gas": "0x53c96",
        "value": "0x0",
        "input": "0xc625abb40000000000000000000000000000000000000000000000000000000000000000",
        "nonce": "0x72b",
        "chainId": "0x171"
      },
      "additionalContracts": [],
      "isFixedGasLimit": false
    }
  ],
  "receipts": [
    {
      "status": "0x1",
      "cumulativeGasUsed": "0x11a2b96",
      "logs": [
        {
          "address": "0x74eadd7ebeeed638fd7c413134fa3d3433699d92",
          "topics": [
            "0x570f308d592bed3a47a73125665ce3b81fe296da89acff1af6d926e08a0a9f12"
          ],
          "data": "0x0000000000000000000000004c62f6121e6f967a0872da8364995e9b68c1e82f00000000000000000000000000000000000000000000000000000000000001f4",
          "blockHash": "0x69745e30d21497ed61b69caebd4eab5aefbe99853885e083bad289ce2fb91b79",
          "blockNumber": "0x187478b",
          "transactionHash": "0x47abe908de2541b9bb5f64994ede997712ccffd17b046306b674659638b6f763",
          "transactionIndex": "0x30",
          "logIndex": "0x1a3",
          "removed": false
        },
        {
          "address": "0xf077d4d0508505c5a80249afc10bc6ead90e47f1",
          "topics": [
            "0xe36ceebd3770780c5617d53efc7d77328074f1248146245ed3b854cbf651fb37"
          ],
          "data": "0x0000000000000000000000004c62f6121e6f967a0872da8364995e9b68c1e82f00000000000000000000000000000000000000000000000000000000000000000000000000000000000000000000000000000000000000000000000000000001000000000000000000000000000000000000000000000000000000000000000000000000000000000000000000000000000000000000000e795e8d5f954c00000000000000000000000000000000000000000000000000000000000000000064000000000000000000000000000000000000000000000000000000006979cb6f000000000000000000000000000000000000000000000000000000006979c7eb",
          "blockHash": "0x69745e30d21497ed61b69caebd4eab5aefbe99853885e083bad289ce2fb91b79",
          "blockNumber": "0x187478b",
          "transactionHash": "0x47abe908de2541b9bb5f64994ede997712ccffd17b046306b674659638b6f763",
          "transactionIndex": "0x30",
          "logIndex": "0x1a4",
          "removed": false
        }
      ],
      "logsBloom": "0x00000000000000000000000000000000004000000000000000000000400000000000000000000000000000000000000000000000000000000000000000000000000000000000000000008000000000000000000000000000000000000000000000000100000000000000000000000000400000000000000000000000000000000000000000000000000000100000000000000000000020000000000000000008000000000000000000000000000000000010000000000000000000000000000000000000000002000100000000000000000000000000000000000000000000000000000000000000000000000000000000000000000000000000000000000002",
      "type": "0x2",
      "transactionHash": "0x47abe908de2541b9bb5f64994ede997712ccffd17b046306b674659638b6f763",
      "transactionIndex": "0x30",
      "blockHash": "0x69745e30d21497ed61b69caebd4eab5aefbe99853885e083bad289ce2fb91b79",
      "blockNumber": "0x187478b",
      "gasUsed": "0x3ca90",
      "effectiveGasPrice": "0x1f92c4f6b40ec",
      "from": "0x4c62f6121e6f967a0872da8364995e9b68c1e82f",
      "to": "0xf077d4d0508505c5a80249afc10bc6ead90e47f1",
      "contractAddress": null
    }
  ],
  "libraries": [],
  "pending": [],
  "returns": {},
  "timestamp": 1769588716921,
  "chain": 369,
  "commit": null
}