{
  "transactions": [
    {
      "hash": "0x1e33bdf61344d54cf45d691d454fe3033d4a9e3275646f20400dae12cd037081",
      "transactionType": "CALL",
      "contractName": null,
      "contractAddress": "0xf077d4d0508505c5a80249afc10bc6ead90e47f1",
      "function": "makeCrime(uint8)",
      "arguments": [
        "0"
      ],
      "transaction": {
        "from": "0xac56dc5a4a9de0197f7b8f584ea04ec7e0123dde",
        "to": "0xf077d4d0508505c5a80249afc10bc6ead90e47f1",
        "gas": "0x552c4",
        "value": "0x0",
        "input": "0xc625abb40000000000000000000000000000000000000000000000000000000000000000",
        "nonce": "0x503",
        "chainId": "0x171"
      },
      "additionalContracts": [],
      "isFixedGasLimit": false
    }
  ],
  "receipts": [
    {
      "status": "0x1",
      "cumulativeGasUsed": "0xdfc793",
      "logs": [
        {
          "address": "0xdcd5e9c0b2b4e9cb93677a258521d854b3a9f5a1",
          "topics": [
            "0x0bff5315606c84d1cee047503678048ca39946be11bfdd5a8c03fe5e272d98e3"
          ],
          "data": "0x000000000000000000000000ac56dc5a4a9de0197f7b8f584ea04ec7e0123dde000000000000000000000000000000000000000000000000000000006988321d0000000000000000000000000000000000000000000000000000000000000000",
          "blockHash": "0x3c333985ad402fb56e125f2db2e31c437e712361c978626cca55f4619c4a4b4f",
          "blockNumber": "0x188aede",
          "transactionHash": "0x1e33bdf61344d54cf45d691d454fe3033d4a9e3275646f20400dae12cd037081",
          "transactionIndex": "0x20",
          "logIndex": "0x289",
          "removed": false
        },
        {
          "address": "0xf077d4d0508505c5a80249afc10bc6ead90e47f1",
          "topics": [
            "0xe36ceebd3770780c5617d53efc7d77328074f1248146245ed3b854cbf651fb37"
          ],
          "data": "0x000000000000000000000000ac56dc5a4a9de0197f7b8f584ea04ec7e0123dde00000000000000000000000000000000000000000000000000000000000000000000000000000000000000000000000000000000000000000000000000000000000000000000000000000000000000000000000000000000000000000000000100000000000000000000000000000000000000000000000000000000000000000000000000000000000000000000000000000000000000000000000000000000000000000000000000000000000000000000000000000000000000006988305b0000000000000000000000000000000000000000000000000000000069882cd7",
          "blockHash": "0x3c333985ad402fb56e125f2db2e31c437e712361c978626cca55f4619c4a4b4f",
          "blockNumber": "0x188aede",
          "transactionHash": "0x1e33bdf61344d54cf45d691d454fe3033d4a9e3275646f20400dae12cd037081",
          "transactionIndex": "0x20",
          "logIndex": "0x28a",
          "removed": false
        }
      ],
      "logsBloom": "0x00000000000000000000000000000000010000000000000000000000400000000000000000000000000000000000000000000000000000000000000000000000000000000000000000000000000000000000000000000000001000000000000000000000000000000000000000000000400000000080000000000000000000000000000000000000000000100000000000000000000020000000000000000000000000000000000000000000000000000000000000000000400000000000000000000000000000000100000000000040000000000000000000000000000000000000000000000000000000000000000000000000000000000000000000001002",
      "type": "0x2",
      "transactionHash": "0x1e33bdf61344d54cf45d691d454fe3033d4a9e3275646f20400dae12cd037081",
      "transactionIndex": "0x20",
      "blockHash": "0x3c333985ad402fb56e125f2db2e31c437e712361c978626cca55f4619c4a4b4f",
      "blockNumber": "0x188aede",
      "gasUsed": "0x2f09b",
      "effectiveGasPrice": "0x252f26323f48f",
      "from": "0xac56dc5a4a9de0197f7b8f584ea04ec7e0123dde",
      "to": "0xf077d4d0508505c5a80249afc10bc6ead90e47f1",
      "contractAddress": null
    }
  ],
  "libraries": [],
  "pending": [],
  "returns": {},
  "timestamp": 1770532056142,
  "chain": 369,
  "commit": null
}