{
  "transactions": [
    {
      "hash": "0x0869307f7ebc5819102e90353afcbb0c0ea1747978ccad38109bcdbbbfcd8acc",
      "transactionType": "CALL",
      "contractName": null,
      "contractAddress": "0xf077d4d0508505c5a80249afc10bc6ead90e47f1",
      "function": "makeCrime(uint8)",
      "arguments": [
        "0"
      ],
      "transaction": {
        "from": "0xeca7a53ba6a190c5d205bfdc7707cbc3399336c1",
        "to": "0xf077d4d0508505c5a80249afc10bc6ead90e47f1",
        "gas": "0x41b40",
        "value": "0x0",
        "input": "0xc625abb40000000000000000000000000000000000000000000000000000000000000000",
        "nonce": "0x58a",
        "chainId": "0x171"
      },
      "additionalContracts": [],
      "isFixedGasLimit": false
    }
  ],
  "receipts": [
    {
      "status": "0x1",
      "cumulativeGasUsed": "0x12ce6cc",
      "logs": [
        {
          "address": "0xf077d4d0508505c5a80249afc10bc6ead90e47f1",
          "topics": [
            "0xe36ceebd3770780c5617d53efc7d77328074f1248146245ed3b854cbf651fb37"
          ],
          "data": "0x000000000000000000000000eca7a53ba6a190c5d205bfdc7707cbc3399336c100000000000000000000000000000000000000000000000000000000000000000000000000000000000000000000000000000000000000000000000000000000000000000000000000000000000000000000000000000000000000000000000000000000000000000000000000000000000000000000000000000000000000000000000000000000000000000000000000000000000000000000000000000000000000000000000000000000000000000000000000000000000000006988161b0000000000000000000000000000000000000000000000000000000069881297",
          "blockHash": "0x64691700867fe7bbd7ec00a9fc79ab78eabd253518344ff5a7c1d624c1ce9563",
          "blockNumber": "0x188ac4b",
          "transactionHash": "0x0869307f7ebc5819102e90353afcbb0c0ea1747978ccad38109bcdbbbfcd8acc",
          "transactionIndex": "0x24",
          "logIndex": "0x3cf",
          "removed": false
        }
      ],
      "logsBloom": "0x00000000000000000000000000000000000000000000000000000000400000000000000000000000000000000000000000000000000000000000000000000000000000000000000000000000000000000000000000000000000000000000000000000000000000000000000000000000400000000000000000000000000000000000000000000000000000100000000000000000000020000000000000000000000000000000000000000000000000000000000000000000000000000000000000000000000000000100000000000000000000000000000000000000000000000000000000000000000000000000000000000000000000000000000000000002",
      "type": "0x2",
      "transactionHash": "0x0869307f7ebc5819102e90353afcbb0c0ea1747978ccad38109bcdbbbfcd8acc",
      "transactionIndex": "0x24",
      "blockHash": "0x64691700867fe7bbd7ec00a9fc79ab78eabd253518344ff5a7c1d624c1ce9563",
      "blockNumber": "0x188ac4b",
      "gasUsed": "0x1f525",
      "effectiveGasPrice": "0x2adc7d33ec8f6",
      "from": "0xeca7a53ba6a190c5d205bfdc7707cbc3399336c1",
      "to": "0xf077d4d0508505c5a80249afc10bc6ead90e47f1",
      "contractAddress": null
    }
  ],
  "libraries": [],
  "pending": [],
  "returns": {},
  "timestamp": 1770525335806,
  "chain": 369,
  "commit": null
}