{
  "transactions": [
    {
      "hash": "0xf616c08679838558c7a9ee03e265a380735eb4f76124e71b2ff7a1d83b95f8f5",
      "transactionType": "CALL",
      "contractName": null,
      "contractAddress": "0xf077d4d0508505c5a80249afc10bc6ead90e47f1",
      "function": "makeCrime(uint8)",
      "arguments": [
        "0"
      ],
      "transaction": {
        "from": "0x4c62f6121e6f967a0872da8364995e9b68c1e82f",
        "to": "0xf077d4d0508505c5a80249afc10bc6ead90e47f1",
        "gas": "0x53c96",
        "value": "0x0",
        "input": "0xc625abb40000000000000000000000000000000000000000000000000000000000000000",
        "nonce": "0x750",
        "chainId": "0x171"
      },
      "additionalContracts": [],
      "isFixedGasLimit": false
    }
  ],
  "receipts": [
    {
      "status": "0x1",
      "cumulativeGasUsed": "0xf03c4b",
      "logs": [
        {
          "address": "0xf077d4d0508505c5a80249afc10bc6ead90e47f1",
          "topics": [
            "0xe36ceebd3770780c5617d53efc7d77328074f1248146245ed3b854cbf651fb37"
          ],
          "data": "0x0000000000000000000000004c62f6121e6f967a0872da8364995e9b68c1e82f0000000000000000000000000000000000000000000000000000000000000000000000000000000000000000000000000000000000000000000000000000000000000000000000000000000000000000000000000000000000000000000000000000000000000000000000000000000000000000000000000000000000000000000000000000000000000000000000000000000000000000000000000000000000000000000000000000000000000000000000000000000000000000697a8a7d00000000000000000000000000000000000000000000000000000000697a86f9",
          "blockHash": "0x8569108cb089e58973250f9197fc44c2f21bd253c560d0a507f6076a3b7cb595",
          "blockNumber": "0x1875a3c",
          "transactionHash": "0xf616c08679838558c7a9ee03e265a380735eb4f76124e71b2ff7a1d83b95f8f5",
          "transactionIndex": "0x37",
          "logIndex": "0xf3",
          "removed": false
        }
      ],
      "logsBloom": "0x00000000000000000000000000000000000000000000000000000000400000000000000000000000000000000000000000000000000000000000000000000000000000000000000000000000000000000000000000000000000000000000000000000000000000000000000000000000400000000000000000000000000000000000000000000000000000100000000000000000000020000000000000000000000000000000000000000000000000000000000000000000000000000000000000000000000000000100000000000000000000000000000000000000000000000000000000000000000000000000000000000000000000000000000000000002",
      "type": "0x2",
      "transactionHash": "0xf616c08679838558c7a9ee03e265a380735eb4f76124e71b2ff7a1d83b95f8f5",
      "transactionIndex": "0x37",
      "blockHash": "0x8569108cb089e58973250f9197fc44c2f21bd253c560d0a507f6076a3b7cb595",
      "blockNumber": "0x1875a3c",
      "gasUsed": "0x1e865",
      "effectiveGasPrice": "0x3cf7607ada2a8",
      "from": "0x4c62f6121e6f967a0872da8364995e9b68c1e82f",
      "to": "0xf077d4d0508505c5a80249afc10bc6ead90e47f1",
      "contractAddress": null
    }
  ],
  "libraries": [],
  "pending": [],
  "returns": {},
  "timestamp": 1769637625782,
  "chain": 369,
  "commit": null
}