{
  "transactions": [
    {
      "hash": "0x0ab18dfa5624422e96633d2cac7e1a41ab07cbcfbffe61d7112e82a7744c98c9",
      "transactionType": "CALL",
      "contractName": null,
      "contractAddress": "0xf077d4d0508505c5a80249afc10bc6ead90e47f1",
      "function": "makeCrime(uint8)",
      "arguments": [
        "0"
      ],
      "transaction": {
        "from": "0xac56dc5a4a9de0197f7b8f584ea04ec7e0123dde",
        "to": "0xf077d4d0508505c5a80249afc10bc6ead90e47f1",
        "gas": "0x2d083",
        "value": "0x0",
        "input": "0xc625abb40000000000000000000000000000000000000000000000000000000000000000",
        "nonce": "0x500",
        "chainId": "0x171"
      },
      "additionalContracts": [],
      "isFixedGasLimit": false
    }
  ],
  "receipts": [
    {
      "status": "0x1",
      "cumulativeGasUsed": "0x1dfa8e9",
      "logs": [
        {
          "address": "0xf077d4d0508505c5a80249afc10bc6ead90e47f1",
          "topics": [
            "0xe36ceebd3770780c5617d53efc7d77328074f1248146245ed3b854cbf651fb37"
          ],
          "data": "0x000000000000000000000000ac56dc5a4a9de0197f7b8f584ea04ec7e0123dde00000000000000000000000000000000000000000000000000000000000000000000000000000000000000000000000000000000000000000000000000000000000000000000000000000000000000000000000000000000000000000000000000000000000000000000000000000000000000000000000000000000000000000000000000000000000000000000000000000000000000000000000000000000000000000000000000000000000000000000000000000000000000006988251b0000000000000000000000000000000000000000000000000000000069882197",
          "blockHash": "0x0fc88e5b95893aa9ca4145b7fef4ee3ff267f8d777fa63049471fa0c0af9e0ef",
          "blockNumber": "0x188adc3",
          "transactionHash": "0x0ab18dfa5624422e96633d2cac7e1a41ab07cbcfbffe61d7112e82a7744c98c9",
          "transactionIndex": "0x3c",
          "logIndex": "0x6c7",
          "removed": false
        }
      ],
      "logsBloom": "0x00000000000000000000000000000000000000000000000000000000400000000000000000000000000000000000000000000000000000000000000000000000000000000000000000000000000000000000000000000000000000000000000000000000000000000000000000000000400000000000000000000000000000000000000000000000000000100000000000000000000020000000000000000000000000000000000000000000000000000000000000000000000000000000000000000000000000000100000000000000000000000000000000000000000000000000000000000000000000000000000000000000000000000000000000000002",
      "type": "0x2",
      "transactionHash": "0x0ab18dfa5624422e96633d2cac7e1a41ab07cbcfbffe61d7112e82a7744c98c9",
      "transactionIndex": "0x3c",
      "blockHash": "0x0fc88e5b95893aa9ca4145b7fef4ee3ff267f8d777fa63049471fa0c0af9e0ef",
      "blockNumber": "0x188adc3",
      "gasUsed": "0x1eca9",
      "effectiveGasPrice": "0x244cbce82ff65",
      "from": "0xac56dc5a4a9de0197f7b8f584ea04ec7e0123dde",
      "to": "0xf077d4d0508505c5a80249afc10bc6ead90e47f1",
      "contractAddress": null
    }
  ],
  "libraries": [],
  "pending": [],
  "returns": {},
  "timestamp": 1770529175932,
  "chain": 369,
  "commit": null
}