{
  "transactions": [
    {
      "hash": "0x43891d82bb67de4786ed6ede216bee08c1caf21451254fefbab4395a401b488a",
      "transactionType": "CALL",
      "contractName": null,
      "contractAddress": "0xf077d4d0508505c5a80249afc10bc6ead90e47f1",
      "function": "makeCrime(uint8)",
      "arguments": [
        "0"
      ],
      "transaction": {
        "from": "0x4c62f6121e6f967a0872da8364995e9b68c1e82f",
        "to": "0xf077d4d0508505c5a80249afc10bc6ead90e47f1",
        "gas": "0x54be5",
        "value": "0x0",
        "input": "0xc625abb40000000000000000000000000000000000000000000000000000000000000000",
        "nonce": "0x969",
        "chainId": "0x171"
      },
      "additionalContracts": [],
      "isFixedGasLimit": false
    }
  ],
  "receipts": [
    {
      "status": "0x1",
      "cumulativeGasUsed": "0xbe83b7",
      "logs": [
        {
          "address": "0x74eadd7ebeeed638fd7c413134fa3d3433699d92",
          "topics": [
            "0x570f308d592bed3a47a73125665ce3b81fe296da89acff1af6d926e08a0a9f12"
          ],
          "data": "0x0000000000000000000000004c62f6121e6f967a0872da8364995e9b68c1e82f0000000000000000000000000000000000000000000000000000000000001f40",
          "blockHash": "0x3edfb7f40305f94777a2e2d837c102b9b20745197e180b4e4ce2fed8008f7f3b",
          "blockNumber": "0x188a419",
          "transactionHash": "0x43891d82bb67de4786ed6ede216bee08c1caf21451254fefbab4395a401b488a",
          "transactionIndex": "0x28",
          "logIndex": "0x140",
          "removed": false
        },
        {
          "address": "0xf077d4d0508505c5a80249afc10bc6ead90e47f1",
          "topics": [
            "0xe36ceebd3770780c5617d53efc7d77328074f1248146245ed3b854cbf651fb37"
          ],
          "data": "0x0000000000000000000000004c62f6121e6f967a0872da8364995e9b68c1e82f000000000000000000000000000000000000000000000000000000000000000000000000000000000000000000000000000000000000000000000000000000010000000000000000000000000000000000000000000000000000000000000000000000000000000000000000000000000000000000000013d74534d950f800000000000000000000000000000000000000000000000000000000000000000064000000000000000000000000000000000000000000000000000000006987c21f000000000000000000000000000000000000000000000000000000006987be9b",
          "blockHash": "0x3edfb7f40305f94777a2e2d837c102b9b20745197e180b4e4ce2fed8008f7f3b",
          "blockNumber": "0x188a419",
          "transactionHash": "0x43891d82bb67de4786ed6ede216bee08c1caf21451254fefbab4395a401b488a",
          "transactionIndex": "0x28",
          "logIndex": "0x141",
          "removed": false
        }
      ],
      "logsBloom": "0x00000000000000000000000000000000004000000000000000000000400000000000000000000000000000000000000000000000000000000000000000000000000000000000000000008000000000000000000000000000000000000000000000000100000000000000000000000000400000000000000000000000000000000000000000000000000000100000000000000000000020000000000000000008000000000000000000000000000000000010000000000000000000000000000000000000000002000100000000000000000000000000000000000000000000000000000000000000000000000000000000000000000000000000000000000002",
      "type": "0x2",
      "transactionHash": "0x43891d82bb67de4786ed6ede216bee08c1caf21451254fefbab4395a401b488a",
      "transactionIndex": "0x28",
      "blockHash": "0x3edfb7f40305f94777a2e2d837c102b9b20745197e180b4e4ce2fed8008f7f3b",
      "blockNumber": "0x188a419",
      "gasUsed": "0x3d5a5",
      "effectiveGasPrice": "0x357095240422f",
      "from": "0x4c62f6121e6f967a0872da8364995e9b68c1e82f",
      "to": "0xf077d4d0508505c5a80249afc10bc6ead90e47f1",
      "contractAddress": null
    }
  ],
  "libraries": [],
  "pending": [],
  "returns": {},
  "timestamp": 1770503836383,
  "chain": 369,
  "commit": null
}