{
  "transactions": [
    {
      "hash": "0x868c50abda7b9306e446bb61f5621c5afbdaad9b6e06bfc8b6ac036186fc767b",
      "transactionType": "CALL",
      "contractName": null,
      "contractAddress": "0xf077d4d0508505c5a80249afc10bc6ead90e47f1",
      "function": "makeCrime(uint8)",
      "arguments": [
        "0"
      ],
      "transaction": {
        "from": "0xac56dc5a4a9de0197f7b8f584ea04ec7e0123dde",
        "to": "0xf077d4d0508505c5a80249afc10bc6ead90e47f1",
        "gas": "0x44caf",
        "value": "0x0",
        "input": "0xc625abb40000000000000000000000000000000000000000000000000000000000000000",
        "nonce": "0x4fd",
        "chainId": "0x171"
      },
      "additionalContracts": [],
      "isFixedGasLimit": false
    }
  ],
  "receipts": [
    {
      "status": "0x1",
      "cumulativeGasUsed": "0xb3c5ae",
      "logs": [
        {
          "address": "0x74eadd7ebeeed638fd7c413134fa3d3433699d92",
          "topics": [
            "0x570f308d592bed3a47a73125665ce3b81fe296da89acff1af6d926e08a0a9f12"
          ],
          "data": "0x000000000000000000000000ac56dc5a4a9de0197f7b8f584ea04ec7e0123dde000000000000000000000000000000000000000000000000000000000003b16b",
          "blockHash": "0xa1ae9d25eeaaa73dc9df1a7ef96fb0bb99d950a0caa20c40067a0d34b7a00d53",
          "blockNumber": "0x188acf8",
          "transactionHash": "0x868c50abda7b9306e446bb61f5621c5afbdaad9b6e06bfc8b6ac036186fc767b",
          "transactionIndex": "0x46",
          "logIndex": "0x110",
          "removed": false
        },
        {
          "address": "0xf077d4d0508505c5a80249afc10bc6ead90e47f1",
          "topics": [
            "0xe36ceebd3770780c5617d53efc7d77328074f1248146245ed3b854cbf651fb37"
          ],
          "data": "0x000000000000000000000000ac56dc5a4a9de0197f7b8f584ea04ec7e0123dde0000000000000000000000000000000000000000000000000000000000000000000000000000000000000000000000000000000000000000000000000000000100000000000000000000000000000000000000000000000000000000000000000000000000000000000000000000000000000000000000154017c3185120000000000000000000000000000000000000000000000000000000000000000000640000000000000000000000000000000000000000000000000000000069881cfb0000000000000000000000000000000000000000000000000000000069881977",
          "blockHash": "0xa1ae9d25eeaaa73dc9df1a7ef96fb0bb99d950a0caa20c40067a0d34b7a00d53",
          "blockNumber": "0x188acf8",
          "transactionHash": "0x868c50abda7b9306e446bb61f5621c5afbdaad9b6e06bfc8b6ac036186fc767b",
          "transactionIndex": "0x46",
          "logIndex": "0x111",
          "removed": false
        }
      ],
      "logsBloom": "0x00000000000000000000000000000000004000000000000000000000400000000000000000000000000000000000000000000000000000000000000000000000000000000000000000008000000000000000000000000000000000000000000000000100000000000000000000000000400000000000000000000000000000000000000000000000000000100000000000000000000020000000000000000008000000000000000000000000000000000010000000000000000000000000000000000000000002000100000000000000000000000000000000000000000000000000000000000000000000000000000000000000000000000000000000000002",
      "type": "0x2",
      "transactionHash": "0x868c50abda7b9306e446bb61f5621c5afbdaad9b6e06bfc8b6ac036186fc767b",
      "transactionIndex": "0x46",
      "blockHash": "0xa1ae9d25eeaaa73dc9df1a7ef96fb0bb99d950a0caa20c40067a0d34b7a00d53",
      "blockNumber": "0x188acf8",
      "gasUsed": "0x3da85",
      "effectiveGasPrice": "0x30cf22565e621",
      "from": "0xac56dc5a4a9de0197f7b8f584ea04ec7e0123dde",
      "to": "0xf077d4d0508505c5a80249afc10bc6ead90e47f1",
      "contractAddress": null
    }
  ],
  "libraries": [],
  "pending": [],
  "returns": {},
  "timestamp": 1770527097146,
  "chain": 369,
  "commit": null
}