{
  "transactions": [
    {
      "hash": "0xa0a51ca9269412e0483080ab107f68836eafaed5b6fe106defb14c2b905571ac",
      "transactionType": "CALL",
      "contractName": null,
      "contractAddress": "0xf077d4d0508505c5a80249afc10bc6ead90e47f1",
      "function": "makeCrime(uint8)",
      "arguments": [
        "0"
      ],
      "transaction": {
        "from": "0xeca7a53ba6a190c5d205bfdc7707cbc3399336c1",
        "to": "0xf077d4d0508505c5a80249afc10bc6ead90e47f1",
        "gas": "0x54ec2",
        "value": "0x0",
        "input": "0xc625abb40000000000000000000000000000000000000000000000000000000000000000",
        "nonce": "0x387",
        "chainId": "0x171"
      },
      "additionalContracts": [],
      "isFixedGasLimit": false
    }
  ],
  "receipts": [
    {
      "status": "0x1",
      "cumulativeGasUsed": "0x1230991",
      "logs": [
        {
          "address": "0x74eadd7ebeeed638fd7c413134fa3d3433699d92",
          "topics": [
            "0x570f308d592bed3a47a73125665ce3b81fe296da89acff1af6d926e08a0a9f12"
          ],
          "data": "0x000000000000000000000000eca7a53ba6a190c5d205bfdc7707cbc3399336c1000000000000000000000000000000000000000000000000000000000002308e",
          "blockHash": "0x34cf00987137622a7fa80dced74894eb932f800bcf2919fd1808ebd1a3564815",
          "blockNumber": "0x18742d3",
          "transactionHash": "0xa0a51ca9269412e0483080ab107f68836eafaed5b6fe106defb14c2b905571ac",
          "transactionIndex": "0x48",
          "logIndex": "0x259",
          "removed": false
        },
        {
          "address": "0xf077d4d0508505c5a80249afc10bc6ead90e47f1",
          "topics": [
            "0xe36ceebd3770780c5617d53efc7d77328074f1248146245ed3b854cbf651fb37"
          ],
          "data": "0x000000000000000000000000eca7a53ba6a190c5d205bfdc7707cbc3399336c1000000000000000000000000000000000000000000000000000000000000000000000000000000000000000000000000000000000000000000000000000000010000000000000000000000000000000000000000000000000000000000000000000000000000000000000000000000000000000000000019f775da26341c000000000000000000000000000000000000000000000000000000000000000000140000000000000000000000000000000000000000000000000000000069799aff000000000000000000000000000000000000000000000000000000006979977b",
          "blockHash": "0x34cf00987137622a7fa80dced74894eb932f800bcf2919fd1808ebd1a3564815",
          "blockNumber": "0x18742d3",
          "transactionHash": "0xa0a51ca9269412e0483080ab107f68836eafaed5b6fe106defb14c2b905571ac",
          "transactionIndex": "0x48",
          "logIndex": "0x25a",
          "removed": false
        }
      ],
      "logsBloom": "0x00000000000000000000000000000000004000000000000000000000400000000000000000000000000000000000000000000000000000000000000000000000000000000000000000008000000000000000000000000000000000000000000000000100000000000000000000000000400000000000000000000000000000000000000000000000000000100000000000000000000020000000000000000008000000000000000000000000000000000010000000000000000000000000000000000000000002000100000000000000000000000000000000000000000000000000000000000000000000000000000000000000000000000000000000000002",
      "type": "0x2",
      "transactionHash": "0xa0a51ca9269412e0483080ab107f68836eafaed5b6fe106defb14c2b905571ac",
      "transactionIndex": "0x48",
      "blockHash": "0x34cf00987137622a7fa80dced74894eb932f800bcf2919fd1808ebd1a3564815",
      "blockNumber": "0x18742d3",
      "gasUsed": "0x3d7b8",
      "effectiveGasPrice": "0x34028c390e492",
      "from": "0xeca7a53ba6a190c5d205bfdc7707cbc3399336c1",
      "to": "0xf077d4d0508505c5a80249afc10bc6ead90e47f1",
      "contractAddress": null
    }
  ],
  "libraries": [],
  "pending": [],
  "returns": {},
  "timestamp": 1769576315930,
  "chain": 369,
  "commit": null
}