{
  "transactions": [
    {
      "hash": "0x06aec9f76ec1f06760b9b1f8449b459db6940cdc6457bc3bc501e51377271f30",
      "transactionType": "CALL",
      "contractName": null,
      "contractAddress": "0xf077d4d0508505c5a80249afc10bc6ead90e47f1",
      "function": "makeCrime(uint8)",
      "arguments": [
        "0"
      ],
      "transaction": {
        "from": "0xeca7a53ba6a190c5d205bfdc7707cbc3399336c1",
        "to": "0xf077d4d0508505c5a80249afc10bc6ead90e47f1",
        "gas": "0x55e10",
        "value": "0x0",
        "input": "0xc625abb40000000000000000000000000000000000000000000000000000000000000000",
        "nonce": "0x56b",
        "chainId": "0x171"
      },
      "additionalContracts": [],
      "isFixedGasLimit": false
    }
  ],
  "receipts": [
    {
      "status": "0x1",
      "cumulativeGasUsed": "0x41286d",
      "logs": [
        {
          "address": "0xdcd5e9c0b2b4e9cb93677a258521d854b3a9f5a1",
          "topics": [
            "0x0bff5315606c84d1cee047503678048ca39946be11bfdd5a8c03fe5e272d98e3"
          ],
          "data": "0x000000000000000000000000eca7a53ba6a190c5d205bfdc7707cbc3399336c1000000000000000000000000000000000000000000000000000000006987ad890000000000000000000000000000000000000000000000000000000000000000",
          "blockHash": "0x47203931720e3f70cc641e323290907c3ea09201d03cb3afaad0762efb1600ff",
          "blockNumber": "0x188a1ea",
          "transactionHash": "0x06aec9f76ec1f06760b9b1f8449b459db6940cdc6457bc3bc501e51377271f30",
          "transactionIndex": "0x11",
          "logIndex": "0x6c",
          "removed": false
        },
        {
          "address": "0xf077d4d0508505c5a80249afc10bc6ead90e47f1",
          "topics": [
            "0xe36ceebd3770780c5617d53efc7d77328074f1248146245ed3b854cbf651fb37"
          ],
          "data": "0x000000000000000000000000eca7a53ba6a190c5d205bfdc7707cbc3399336c100000000000000000000000000000000000000000000000000000000000000000000000000000000000000000000000000000000000000000000000000000000000000000000000000000000000000000000000000000000000000000000000100000000000000000000000000000000000000000000000000000000000000000000000000000000000000000000000000000000000000000000000000000000000000000000000000000000000000000000000000000000000000006987abc7000000000000000000000000000000000000000000000000000000006987a843",
          "blockHash": "0x47203931720e3f70cc641e323290907c3ea09201d03cb3afaad0762efb1600ff",
          "blockNumber": "0x188a1ea",
          "transactionHash": "0x06aec9f76ec1f06760b9b1f8449b459db6940cdc6457bc3bc501e51377271f30",
          "transactionIndex": "0x11",
          "logIndex": "0x6d",
          "removed": false
        }
      ],
      "logsBloom": "0x00000000000000000000000000000000010000000000000000000000400000000000000000000000000000000000000000000000000000000000000000000000000000000000000000000000000000000000000000000000001000000000000000000000000000000000000000000000400000000080000000000000000000000000000000000000000000100000000000000000000020000000000000000000000000000000000000000000000000000000000000000000400000000000000000000000000000000100000000000040000000000000000000000000000000000000000000000000000000000000000000000000000000000000000000001002",
      "type": "0x2",
      "transactionHash": "0x06aec9f76ec1f06760b9b1f8449b459db6940cdc6457bc3bc501e51377271f30",
      "transactionIndex": "0x11",
      "blockHash": "0x47203931720e3f70cc641e323290907c3ea09201d03cb3afaad0762efb1600ff",
      "blockNumber": "0x188a1ea",
      "gasUsed": "0x2f917",
      "effectiveGasPrice": "0x2e2861822e74f",
      "from": "0xeca7a53ba6a190c5d205bfdc7707cbc3399336c1",
      "to": "0xf077d4d0508505c5a80249afc10bc6ead90e47f1",
      "contractAddress": null
    }
  ],
  "libraries": [],
  "pending": [],
  "returns": {},
  "timestamp": 1770498116215,
  "chain": 369,
  "commit": null
}