{
  "transactions": [
    {
      "hash": "0xfa5106ce8327a920a21b360a0595bcbfa1dfaade08c5f34b985cc658e17b702f",
      "transactionType": "CALL",
      "contractName": null,
      "contractAddress": "0xf077d4d0508505c5a80249afc10bc6ead90e47f1",
      "function": "makeCrime(uint8)",
      "arguments": [
        "0"
      ],
      "transaction": {
        "from": "0xec646a6c9000e04d050435340d9c42c039eb5648",
        "to": "0xf077d4d0508505c5a80249afc10bc6ead90e47f1",
        "gas": "0x54be5",
        "value": "0x0",
        "input": "0xc625abb40000000000000000000000000000000000000000000000000000000000000000",
        "nonce": "0x33",
        "chainId": "0x171"
      },
      "additionalContracts": [],
      "isFixedGasLimit": false
    }
  ],
  "receipts": [
    {
      "status": "0x1",
      "cumulativeGasUsed": "0x19deab9",
      "logs": [
        {
          "address": "0xf077d4d0508505c5a80249afc10bc6ead90e47f1",
          "topics": [
            "0xe36ceebd3770780c5617d53efc7d77328074f1248146245ed3b854cbf651fb37"
          ],
          "data": "0x000000000000000000000000ec646a6c9000e04d050435340d9c42c039eb564800000000000000000000000000000000000000000000000000000000000000000000000000000000000000000000000000000000000000000000000000000000000000000000000000000000000000000000000000000000000000000000000000000000000000000000000000000000000000000000000000000000000000000000000000000000000000000000000000000000000000000000000000000000000000000000000000000000000000000000000000000000000000006987d89f000000000000000000000000000000000000000000000000000000006987d51b",
          "blockHash": "0x820ab2b41209fc053caf95d90b5f7357dc63f14ed29eaa0f1f76309f47973bcb",
          "blockNumber": "0x188a647",
          "transactionHash": "0xfa5106ce8327a920a21b360a0595bcbfa1dfaade08c5f34b985cc658e17b702f",
          "transactionIndex": "0x63",
          "logIndex": "0x244",
          "removed": false
        }
      ],
      "logsBloom": "0x00000000000000000000000000000000000000000000000000000000400000000000000000000000000000000000000000000000000000000000000000000000000000000000000000000000000000000000000000000000000000000000000000000000000000000000000000000000400000000000000000000000000000000000000000000000000000100000000000000000000020000000000000000000000000000000000000000000000000000000000000000000000000000000000000000000000000000100000000000000000000000000000000000000000000000000000000000000000000000000000000000000000000000000000000000002",
      "type": "0x2",
      "transactionHash": "0xfa5106ce8327a920a21b360a0595bcbfa1dfaade08c5f34b985cc658e17b702f",
      "transactionIndex": "0x63",
      "blockHash": "0x820ab2b41209fc053caf95d90b5f7357dc63f14ed29eaa0f1f76309f47973bcb",
      "blockNumber": "0x188a647",
      "gasUsed": "0x1e865",
      "effectiveGasPrice": "0x2e9be71ff0a1b",
      "from": "0xec646a6c9000e04d050435340d9c42c039eb5648",
      "to": "0xf077d4d0508505c5a80249afc10bc6ead90e47f1",
      "contractAddress": null
    }
  ],
  "libraries": [],
  "pending": [],
  "returns": {},
  "timestamp": 1770509597300,
  "chain": 369,
  "commit": null
}