{
  "transactions": [
    {
      "hash": "0x0c029a79dfb9664a3b2d0ccb31666f909d21dafcd057cadfa8c2aee1ff63dc03",
      "transactionType": "CALL",
      "contractName": null,
      "contractAddress": "0xf077d4d0508505c5a80249afc10bc6ead90e47f1",
      "function": "makeCrime(uint8)",
      "arguments": [
        "0"
      ],
      "transaction": {
        "from": "0x4c62f6121e6f967a0872da8364995e9b68c1e82f",
        "to": "0xf077d4d0508505c5a80249afc10bc6ead90e47f1",
        "gas": "0x3fd59",
        "value": "0x0",
        "input": "0xc625abb40000000000000000000000000000000000000000000000000000000000000000",
        "nonce": "0x70c",
        "chainId": "0x171"
      },
      "additionalContracts": [],
      "isFixedGasLimit": false
    }
  ],
  "receipts": [
    {
      "status": "0x1",
      "cumulativeGasUsed": "0x175e121",
      "logs": [
        {
          "address": "0xf077d4d0508505c5a80249afc10bc6ead90e47f1",
          "topics": [
            "0xe36ceebd3770780c5617d53efc7d77328074f1248146245ed3b854cbf651fb37"
          ],
          "data": "0x0000000000000000000000004c62f6121e6f967a0872da8364995e9b68c1e82f0000000000000000000000000000000000000000000000000000000000000000000000000000000000000000000000000000000000000000000000000000000000000000000000000000000000000000000000000000000000000000000000000000000000000000000000000000000000000000000000000000000000000000000000000000000000000000000000000000000000000000000000000000000000000000000000000000000000000000000000000000000000000000697964f90000000000000000000000000000000000000000000000000000000069796175",
          "blockHash": "0xc2fa1f79857e908d6f685a9f33da7f6a09c9587f13f169bd9870b94dcbc2422c",
          "blockNumber": "0x1873d8c",
          "transactionHash": "0x0c029a79dfb9664a3b2d0ccb31666f909d21dafcd057cadfa8c2aee1ff63dc03",
          "transactionIndex": "0x28",
          "logIndex": "0x318",
          "removed": false
        }
      ],
      "logsBloom": "0x00000000000000000000000000000000000000000000000000000000400000000000000000000000000000000000000000000000000000000000000000000000000000000000000000000000000000000000000000000000000000000000000000000000000000000000000000000000400000000000000000000000000000000000000000000000000000100000000000000000000020000000000000000000000000000000000000000000000000000000000000000000000000000000000000000000000000000100000000000000000000000000000000000000000000000000000000000000000000000000000000000000000000000000000000000002",
      "type": "0x2",
      "transactionHash": "0x0c029a79dfb9664a3b2d0ccb31666f909d21dafcd057cadfa8c2aee1ff63dc03",
      "transactionIndex": "0x28",
      "blockHash": "0xc2fa1f79857e908d6f685a9f33da7f6a09c9587f13f169bd9870b94dcbc2422c",
      "blockNumber": "0x1873d8c",
      "gasUsed": "0x1e865",
      "effectiveGasPrice": "0x2eac46f4318e1",
      "from": "0x4c62f6121e6f967a0872da8364995e9b68c1e82f",
      "to": "0xf077d4d0508505c5a80249afc10bc6ead90e47f1",
      "contractAddress": null
    }
  ],
  "libraries": [],
  "pending": [],
  "returns": {},
  "timestamp": 1769562485966,
  "chain": 369,
  "commit": null
}