{
  "transactions": [
    {
      "hash": "0x2c81518920f441cdec677ed09c2bd5f0dc12666976d8abe02d6fee31b1b38dbf",
      "transactionType": "CALL",
      "contractName": null,
      "contractAddress": "0xf077d4d0508505c5a80249afc10bc6ead90e47f1",
      "function": "makeCrime(uint8)",
      "arguments": [
        "0"
      ],
      "transaction": {
        "from": "0xac56dc5a4a9de0197f7b8f584ea04ec7e0123dde",
        "to": "0xf077d4d0508505c5a80249afc10bc6ead90e47f1",
        "gas": "0x4033d",
        "value": "0x0",
        "input": "0xc625abb40000000000000000000000000000000000000000000000000000000000000000",
        "nonce": "0x244",
        "chainId": "0x171"
      },
      "additionalContracts": [],
      "isFixedGasLimit": false
    }
  ],
  "receipts": [
    {
      "status": "0x1",
      "cumulativeGasUsed": "0xf708a5",
      "logs": [
        {
          "address": "0x74eadd7ebeeed638fd7c413134fa3d3433699d92",
          "topics": [
            "0x570f308d592bed3a47a73125665ce3b81fe296da89acff1af6d926e08a0a9f12"
          ],
          "data": "0x000000000000000000000000ac56dc5a4a9de0197f7b8f584ea04ec7e0123dde0000000000000000000000000000000000000000000000000000000000036607",
          "blockHash": "0xb127bbbd1e5ede7d8282313e3c080bc126ef28d0885eca0cf2d6ef5c5f34ba0e",
          "blockNumber": "0x1860627",
          "transactionHash": "0x2c81518920f441cdec677ed09c2bd5f0dc12666976d8abe02d6fee31b1b38dbf",
          "transactionIndex": "0x25",
          "logIndex": "0x119",
          "removed": false
        },
        {
          "address": "0xf077d4d0508505c5a80249afc10bc6ead90e47f1",
          "topics": [
            "0xe36ceebd3770780c5617d53efc7d77328074f1248146245ed3b854cbf651fb37"
          ],
          "data": "0x000000000000000000000000ac56dc5a4a9de0197f7b8f584ea04ec7e0123dde0000000000000000000000000000000000000000000000000000000000000000000000000000000000000000000000000000000000000000000000000000000100000000000000000000000000000000000000000000000000000000000000000000000000000000000000000000000000000000000000166386bfd50c540000000000000000000000000000000000000000000000000000000000000000006400000000000000000000000000000000000000000000000000000000696cea7b00000000000000000000000000000000000000000000000000000000696ce6f7",
          "blockHash": "0xb127bbbd1e5ede7d8282313e3c080bc126ef28d0885eca0cf2d6ef5c5f34ba0e",
          "blockNumber": "0x1860627",
          "transactionHash": "0x2c81518920f441cdec677ed09c2bd5f0dc12666976d8abe02d6fee31b1b38dbf",
          "transactionIndex": "0x25",
          "logIndex": "0x11a",
          "removed": false
        }
      ],
      "logsBloom": "0x00000000000000000000000000000000004000000000000000000000400000000000000000000000000000000000000000000000000000000000000000000000000000000000000000008000000000000000000000000000000000000000000000000100000000000000000000000000400000000000000000000000000000000000000000000000000000100000000000000000000020000000000000000008000000000000000000000000000000000010000000000000000000000000000000000000000002000100000000000000000000000000000000000000000000000000000000000000000000000000000000000000000000000000000000000002",
      "type": "0x2",
      "transactionHash": "0x2c81518920f441cdec677ed09c2bd5f0dc12666976d8abe02d6fee31b1b38dbf",
      "transactionIndex": "0x25",
      "blockHash": "0xb127bbbd1e5ede7d8282313e3c080bc126ef28d0885eca0cf2d6ef5c5f34ba0e",
      "blockNumber": "0x1860627",
      "gasUsed": "0x3cf70",
      "effectiveGasPrice": "0xe125f9e31a4b",
      "from": "0xac56dc5a4a9de0197f7b8f584ea04ec7e0123dde",
      "to": "0xf077d4d0508505c5a80249afc10bc6ead90e47f1",
      "contractAddress": null
    }
  ],
  "libraries": [],
  "pending": [],
  "returns": {},
  "timestamp": 1768744695698,
  "chain": 369,
  "commit": "953695a"
}