{
  "transactions": [
    {
      "hash": "0xb936eb075e300ab238673dad8623e121a1edb1498ed83d26720132ec2f31e3ff",
      "transactionType": "CALL",
      "contractName": null,
      "contractAddress": "0xf077d4d0508505c5a80249afc10bc6ead90e47f1",
      "function": "makeCrime(uint8)",
      "arguments": [
        "0"
      ],
      "transaction": {
        "from": "0x4c62f6121e6f967a0872da8364995e9b68c1e82f",
        "to": "0xf077d4d0508505c5a80249afc10bc6ead90e47f1",
        "gas": "0x3fd59",
        "value": "0x0",
        "input": "0xc625abb40000000000000000000000000000000000000000000000000000000000000000",
        "nonce": "0x72c",
        "chainId": "0x171"
      },
      "additionalContracts": [],
      "isFixedGasLimit": false
    }
  ],
  "receipts": [
    {
      "status": "0x1",
      "cumulativeGasUsed": "0x1b511b8",
      "logs": [
        {
          "address": "0xf077d4d0508505c5a80249afc10bc6ead90e47f1",
          "topics": [
            "0xe36ceebd3770780c5617d53efc7d77328074f1248146245ed3b854cbf651fb37"
          ],
          "data": "0x0000000000000000000000004c62f6121e6f967a0872da8364995e9b68c1e82f00000000000000000000000000000000000000000000000000000000000000000000000000000000000000000000000000000000000000000000000000000000000000000000000000000000000000000000000000000000000000000000000000000000000000000000000000000000000000000000000000000000000000000000000000000000000000000000000000000000000000000000000000000000000000000000000000000000000000000000000000000000000000006979cf11000000000000000000000000000000000000000000000000000000006979cb8d",
          "blockHash": "0x7bd11f2f2f3502f606b1068b1f5dac8472c7d402c946b28a937e809db41af06c",
          "blockNumber": "0x18747e5",
          "transactionHash": "0xb936eb075e300ab238673dad8623e121a1edb1498ed83d26720132ec2f31e3ff",
          "transactionIndex": "0x6c",
          "logIndex": "0x235",
          "removed": false
        }
      ],
      "logsBloom": "0x00000000000000000000000000000000000000000000000000000000400000000000000000000000000000000000000000000000000000000000000000000000000000000000000000000000000000000000000000000000000000000000000000000000000000000000000000000000400000000000000000000000000000000000000000000000000000100000000000000000000020000000000000000000000000000000000000000000000000000000000000000000000000000000000000000000000000000100000000000000000000000000000000000000000000000000000000000000000000000000000000000000000000000000000000000002",
      "type": "0x2",
      "transactionHash": "0xb936eb075e300ab238673dad8623e121a1edb1498ed83d26720132ec2f31e3ff",
      "transactionIndex": "0x6c",
      "blockHash": "0x7bd11f2f2f3502f606b1068b1f5dac8472c7d402c946b28a937e809db41af06c",
      "blockNumber": "0x18747e5",
      "gasUsed": "0x1e865",
      "effectiveGasPrice": "0x23e83ce06f343",
      "from": "0x4c62f6121e6f967a0872da8364995e9b68c1e82f",
      "to": "0xf077d4d0508505c5a80249afc10bc6ead90e47f1",
      "contractAddress": null
    }
  ],
  "libraries": [],
  "pending": [],
  "returns": {},
  "timestamp": 1769589646489,
  "chain": 369,
  "commit": null
}