{
  "transactions": [
    {
      "hash": "0x6ee8a15c4ff7e1cf254d8f1093c01bdc83a7a09e786707ad17691f56d30365dc",
      "transactionType": "CALL",
      "contractName": null,
      "contractAddress": "0xf077d4d0508505c5a80249afc10bc6ead90e47f1",
      "function": "makeCrime(uint8)",
      "arguments": [
        "0"
      ],
      "transaction": {
        "from": "0xac56dc5a4a9de0197f7b8f584ea04ec7e0123dde",
        "to": "0xf077d4d0508505c5a80249afc10bc6ead90e47f1",
        "gas": "0x552c4",
        "value": "0x0",
        "input": "0xc625abb40000000000000000000000000000000000000000000000000000000000000000",
        "nonce": "0x504",
        "chainId": "0x171"
      },
      "additionalContracts": [],
      "isFixedGasLimit": false
    }
  ],
  "receipts": [
    {
      "status": "0x1",
      "cumulativeGasUsed": "0xc82d32",
      "logs": [
        {
          "address": "0xdcd5e9c0b2b4e9cb93677a258521d854b3a9f5a1",
          "topics": [
            "0x0bff5315606c84d1cee047503678048ca39946be11bfdd5a8c03fe5e272d98e3"
          ],
          "data": "0x000000000000000000000000ac56dc5a4a9de0197f7b8f584ea04ec7e0123dde00000000000000000000000000000000000000000000000000000000698838170000000000000000000000000000000000000000000000000000000000000000",
          "blockHash": "0x17924816685acb3baa085143e56546198b926a8acb11bd0f8d640bf30b4704c9",
          "blockNumber": "0x188af72",
          "transactionHash": "0x6ee8a15c4ff7e1cf254d8f1093c01bdc83a7a09e786707ad17691f56d30365dc",
          "transactionIndex": "0x41",
          "logIndex": "0x187",
          "removed": false
        },
        {
          "address": "0xf077d4d0508505c5a80249afc10bc6ead90e47f1",
          "topics": [
            "0xe36ceebd3770780c5617d53efc7d77328074f1248146245ed3b854cbf651fb37"
          ],
          "data": "0x000000000000000000000000ac56dc5a4a9de0197f7b8f584ea04ec7e0123dde00000000000000000000000000000000000000000000000000000000000000000000000000000000000000000000000000000000000000000000000000000000000000000000000000000000000000000000000000000000000000000000000100000000000000000000000000000000000000000000000000000000000000000000000000000000000000000000000000000000000000000000000000000000000000000000000000000000000000000000000000000000000000006988365500000000000000000000000000000000000000000000000000000000698832d1",
          "blockHash": "0x17924816685acb3baa085143e56546198b926a8acb11bd0f8d640bf30b4704c9",
          "blockNumber": "0x188af72",
          "transactionHash": "0x6ee8a15c4ff7e1cf254d8f1093c01bdc83a7a09e786707ad17691f56d30365dc",
          "transactionIndex": "0x41",
          "logIndex": "0x188",
          "removed": false
        }
      ],
      "logsBloom": "0x00000000000000000000000000000000010000000000000000000000400000000000000000000000000000000000000000000000000000000000000000000000000000000000000000000000000000000000000000000000001000000000000000000000000000000000000000000000400000000080000000000000000000000000000000000000000000100000000000000000000020000000000000000000000000000000000000000000000000000000000000000000400000000000000000000000000000000100000000000040000000000000000000000000000000000000000000000000000000000000000000000000000000000000000000001002",
      "type": "0x2",
      "transactionHash": "0x6ee8a15c4ff7e1cf254d8f1093c01bdc83a7a09e786707ad17691f56d30365dc",
      "transactionIndex": "0x41",
      "blockHash": "0x17924816685acb3baa085143e56546198b926a8acb11bd0f8d640bf30b4704c9",
      "blockNumber": "0x188af72",
      "gasUsed": "0x2f09b",
      "effectiveGasPrice": "0x2ad725bf88d50",
      "from": "0xac56dc5a4a9de0197f7b8f584ea04ec7e0123dde",
      "to": "0xf077d4d0508505c5a80249afc10bc6ead90e47f1",
      "contractAddress": null
    }
  ],
  "libraries": [],
  "pending": [],
  "returns": {},
  "timestamp": 1770533586080,
  "chain": 369,
  "commit": null
}