{
  "transactions": [
    {
      "hash": "0xc3e5abe2276d16a0643412704c02bfa7cc9bdcc0839035fc4e27555d347a4a61",
      "transactionType": "CALL",
      "contractName": null,
      "contractAddress": "0xf077d4d0508505c5a80249afc10bc6ead90e47f1",
      "function": "makeCrime(uint8)",
      "arguments": [
        "0"
      ],
      "transaction": {
        "from": "0xac56dc5a4a9de0197f7b8f584ea04ec7e0123dde",
        "to": "0xf077d4d0508505c5a80249afc10bc6ead90e47f1",
        "gas": "0x2d083",
        "value": "0x0",
        "input": "0xc625abb40000000000000000000000000000000000000000000000000000000000000000",
        "nonce": "0x280",
        "chainId": "0x171"
      },
      "additionalContracts": [],
      "isFixedGasLimit": false
    }
  ],
  "receipts": [
    {
      "status": "0x1",
      "cumulativeGasUsed": "0x5583be",
      "logs": [
        {
          "address": "0xf077d4d0508505c5a80249afc10bc6ead90e47f1",
          "topics": [
            "0xe36ceebd3770780c5617d53efc7d77328074f1248146245ed3b854cbf651fb37"
          ],
          "data": "0x000000000000000000000000ac56dc5a4a9de0197f7b8f584ea04ec7e0123dde00000000000000000000000000000000000000000000000000000000000000000000000000000000000000000000000000000000000000000000000000000000000000000000000000000000000000000000000000000000000000000000000000000000000000000000000000000000000000000000000000000000000000000000000000000000000000000000000000000000000000000000000000000000000000000000000000000000000000000000000000000000000000006975339d0000000000000000000000000000000000000000000000000000000069753019",
          "blockHash": "0xcd08da3553526ce60185519573d4f35ee9871a53ed6837f16165a426f6987e97",
          "blockNumber": "0x186d4d9",
          "transactionHash": "0xc3e5abe2276d16a0643412704c02bfa7cc9bdcc0839035fc4e27555d347a4a61",
          "transactionIndex": "0x24",
          "logIndex": "0xd4",
          "removed": false
        }
      ],
      "logsBloom": "0x00000000000000000000000000000000000000000000000000000000400000000000000000000000000000000000000000000000000000000000000000000000000000000000000000000000000000000000000000000000000000000000000000000000000000000000000000000000400000000000000000000000000000000000000000000000000000100000000000000000000020000000000000000000000000000000000000000000000000000000000000000000000000000000000000000000000000000100000000000000000000000000000000000000000000000000000000000000000000000000000000000000000000000000000000000002",
      "type": "0x2",
      "transactionHash": "0xc3e5abe2276d16a0643412704c02bfa7cc9bdcc0839035fc4e27555d347a4a61",
      "transactionIndex": "0x24",
      "blockHash": "0xcd08da3553526ce60185519573d4f35ee9871a53ed6837f16165a426f6987e97",
      "blockNumber": "0x186d4d9",
      "gasUsed": "0x1eca9",
      "effectiveGasPrice": "0xbd6cedf72cd7d0",
      "from": "0xac56dc5a4a9de0197f7b8f584ea04ec7e0123dde",
      "to": "0xf077d4d0508505c5a80249afc10bc6ead90e47f1",
      "contractAddress": null
    }
  ],
  "libraries": [],
  "pending": [],
  "returns": {},
  "timestamp": 1769287706302,
  "chain": 369,
  "commit": "953695a"
}