{
  "transactions": [
    {
      "hash": "0xd20ce4ccab640cd27db1a4d74df01105330e521d2086107019779424ca29b48b",
      "transactionType": "CALL",
      "contractName": null,
      "contractAddress": "0xf077d4d0508505c5a80249afc10bc6ead90e47f1",
      "function": "makeCrime(uint8)",
      "arguments": [
        "0"
      ],
      "transaction": {
        "from": "0xeca7a53ba6a190c5d205bfdc7707cbc3399336c1",
        "to": "0xf077d4d0508505c5a80249afc10bc6ead90e47f1",
        "gas": "0x55e10",
        "value": "0x0",
        "input": "0xc625abb40000000000000000000000000000000000000000000000000000000000000000",
        "nonce": "0x57b",
        "chainId": "0x171"
      },
      "additionalContracts": [],
      "isFixedGasLimit": false
    }
  ],
  "receipts": [
    {
      "status": "0x1",
      "cumulativeGasUsed": "0x15bd723",
      "logs": [
        {
          "address": "0xf077d4d0508505c5a80249afc10bc6ead90e47f1",
          "topics": [
            "0xe36ceebd3770780c5617d53efc7d77328074f1248146245ed3b854cbf651fb37"
          ],
          "data": "0x000000000000000000000000eca7a53ba6a190c5d205bfdc7707cbc3399336c100000000000000000000000000000000000000000000000000000000000000000000000000000000000000000000000000000000000000000000000000000000000000000000000000000000000000000000000000000000000000000000000000000000000000000000000000000000000000000000000000000000000000000000000000000000000000000000000000000000000000000000000000000000000000000000000000000000000000000000000000000000000000006987dc23000000000000000000000000000000000000000000000000000000006987d89f",
          "blockHash": "0x5e4e6396a6efb75abb4ab9d617141f90ebaf33dc1f8f38020302c1296c682969",
          "blockNumber": "0x188a6a0",
          "transactionHash": "0xd20ce4ccab640cd27db1a4d74df01105330e521d2086107019779424ca29b48b",
          "transactionIndex": "0x26",
          "logIndex": "0x27d",
          "removed": false
        }
      ],
      "logsBloom": "0x00000000000000000000000000000000000000000000000000000000400000000000000000000000000000000000000000000000000000000000000000000000000000000000000000000000000000000000000000000000000000000000000000000000000000000000000000000000400000000000000000000000000000000000000000000000000000100000000000000000000020000000000000000000000000000000000000000000000000000000000000000000000000000000000000000000000000000100000000000000000000000000000000000000000000000000000000000000000000000000000000000000000000000000000000000002",
      "type": "0x2",
      "transactionHash": "0xd20ce4ccab640cd27db1a4d74df01105330e521d2086107019779424ca29b48b",
      "transactionIndex": "0x26",
      "blockHash": "0x5e4e6396a6efb75abb4ab9d617141f90ebaf33dc1f8f38020302c1296c682969",
      "blockNumber": "0x188a6a0",
      "gasUsed": "0x1f525",
      "effectiveGasPrice": "0x30fb422032664",
      "from": "0xeca7a53ba6a190c5d205bfdc7707cbc3399336c1",
      "to": "0xf077d4d0508505c5a80249afc10bc6ead90e47f1",
      "contractAddress": null
    }
  ],
  "libraries": [],
  "pending": [],
  "returns": {},
  "timestamp": 1770510496320,
  "chain": 369,
  "commit": null
}