{
  "transactions": [
    {
      "hash": "0x2180d202649cdf2f773455da27888990e80aa903c3d878435f0f1fe65e5f9a2c",
      "transactionType": "CALL",
      "contractName": null,
      "contractAddress": "0xf077d4d0508505c5a80249afc10bc6ead90e47f1",
      "function": "makeCrime(uint8)",
      "arguments": [
        "0"
      ],
      "transaction": {
        "from": "0xac56dc5a4a9de0197f7b8f584ea04ec7e0123dde",
        "to": "0xf077d4d0508505c5a80249afc10bc6ead90e47f1",
        "gas": "0x552a0",
        "value": "0x0",
        "input": "0xc625abb40000000000000000000000000000000000000000000000000000000000000000",
        "nonce": "0x3e7",
        "chainId": "0x171"
      },
      "additionalContracts": [],
      "isFixedGasLimit": false
    }
  ],
  "receipts": [
    {
      "status": "0x1",
      "cumulativeGasUsed": "0x298ae26",
      "logs": [
        {
          "address": "0xdcd5e9c0b2b4e9cb93677a258521d854b3a9f5a1",
          "topics": [
            "0x0bff5315606c84d1cee047503678048ca39946be11bfdd5a8c03fe5e272d98e3"
          ],
          "data": "0x000000000000000000000000ac56dc5a4a9de0197f7b8f584ea04ec7e0123dde00000000000000000000000000000000000000000000000000000000697b46a70000000000000000000000000000000000000000000000000000000000000000",
          "blockHash": "0x9ac0fa6f7b6a3ae882766f7c7b3356bdbc586ac6bb1ce2f840180b360ece03df",
          "blockNumber": "0x1876c69",
          "transactionHash": "0x2180d202649cdf2f773455da27888990e80aa903c3d878435f0f1fe65e5f9a2c",
          "transactionIndex": "0x26",
          "logIndex": "0x7e7",
          "removed": false
        },
        {
          "address": "0xf077d4d0508505c5a80249afc10bc6ead90e47f1",
          "topics": [
            "0xe36ceebd3770780c5617d53efc7d77328074f1248146245ed3b854cbf651fb37"
          ],
          "data": "0x000000000000000000000000ac56dc5a4a9de0197f7b8f584ea04ec7e0123dde0000000000000000000000000000000000000000000000000000000000000000000000000000000000000000000000000000000000000000000000000000000000000000000000000000000000000000000000000000000000000000000000010000000000000000000000000000000000000000000000000000000000000000000000000000000000000000000000000000000000000000000000000000000000000000000000000000000000000000000000000000000000000000697b44e500000000000000000000000000000000000000000000000000000000697b4161",
          "blockHash": "0x9ac0fa6f7b6a3ae882766f7c7b3356bdbc586ac6bb1ce2f840180b360ece03df",
          "blockNumber": "0x1876c69",
          "transactionHash": "0x2180d202649cdf2f773455da27888990e80aa903c3d878435f0f1fe65e5f9a2c",
          "transactionIndex": "0x26",
          "logIndex": "0x7e8",
          "removed": false
        }
      ],
      "logsBloom": "0x00000000000000000000000000000000010000000000000000000000400000000000000000000000000000000000000000000000000000000000000000000000000000000000000000000000000000000000000000000000001000000000000000000000000000000000000000000000400000000080000000000000000000000000000000000000000000100000000000000000000020000000000000000000000000000000000000000000000000000000000000000000400000000000000000000000000000000100000000000040000000000000000000000000000000000000000000000000000000000000000000000000000000000000000000001002",
      "type": "0x2",
      "transactionHash": "0x2180d202649cdf2f773455da27888990e80aa903c3d878435f0f1fe65e5f9a2c",
      "transactionIndex": "0x26",
      "blockHash": "0x9ac0fa6f7b6a3ae882766f7c7b3356bdbc586ac6bb1ce2f840180b360ece03df",
      "blockNumber": "0x1876c69",
      "gasUsed": "0x2f09b",
      "effectiveGasPrice": "0x1f80aeba5d6da",
      "from": "0xac56dc5a4a9de0197f7b8f584ea04ec7e0123dde",
      "to": "0xf077d4d0508505c5a80249afc10bc6ead90e47f1",
      "contractAddress": null
    }
  ],
  "libraries": [],
  "pending": [],
  "returns": {},
  "timestamp": 1769685346661,
  "chain": 369,
  "commit": null
}