{
  "transactions": [
    {
      "hash": "0x6ef05418529ed6d803a5293234ac8a796946af8d27b63833587bcdb933b15912",
      "transactionType": "CALL",
      "contractName": null,
      "contractAddress": "0xf077d4d0508505c5a80249afc10bc6ead90e47f1",
      "function": "makeCrime(uint8)",
      "arguments": [
        "0"
      ],
      "transaction": {
        "from": "0xaa73aa98480757d75aae288b5931261448eb0530",
        "to": "0xf077d4d0508505c5a80249afc10bc6ead90e47f1",
        "gas": "0x54be5",
        "value": "0x0",
        "input": "0xc625abb40000000000000000000000000000000000000000000000000000000000000000",
        "nonce": "0x53",
        "chainId": "0x171"
      },
      "additionalContracts": [],
      "isFixedGasLimit": false
    }
  ],
  "receipts": [
    {
      "status": "0x1",
      "cumulativeGasUsed": "0x12dd33a",
      "logs": [
        {
          "address": "0xf077d4d0508505c5a80249afc10bc6ead90e47f1",
          "topics": [
            "0xe36ceebd3770780c5617d53efc7d77328074f1248146245ed3b854cbf651fb37"
          ],
          "data": "0x000000000000000000000000aa73aa98480757d75aae288b5931261448eb053000000000000000000000000000000000000000000000000000000000000000000000000000000000000000000000000000000000000000000000000000000000000000000000000000000000000000000000000000000000000000000000000000000000000000000000000000000000000000000000000000000000000000000000000000000000000000000000000000000000000000000000000000000000000000000000000000000000000000000000000000000000000000006987e47f000000000000000000000000000000000000000000000000000000006987e0fb",
          "blockHash": "0x97e2a839823bb26b44a184f285eb472fe5059cd0d7ef51cd2ee7b8fd6a47b0af",
          "blockNumber": "0x188a76c",
          "transactionHash": "0x6ef05418529ed6d803a5293234ac8a796946af8d27b63833587bcdb933b15912",
          "transactionIndex": "0x1d",
          "logIndex": "0x1e3",
          "removed": false
        }
      ],
      "logsBloom": "0x00000000000000000000000000000000000000000000000000000000400000000000000000000000000000000000000000000000000000000000000000000000000000000000000000000000000000000000000000000000000000000000000000000000000000000000000000000000400000000000000000000000000000000000000000000000000000100000000000000000000020000000000000000000000000000000000000000000000000000000000000000000000000000000000000000000000000000100000000000000000000000000000000000000000000000000000000000000000000000000000000000000000000000000000000000002",
      "type": "0x2",
      "transactionHash": "0x6ef05418529ed6d803a5293234ac8a796946af8d27b63833587bcdb933b15912",
      "transactionIndex": "0x1d",
      "blockHash": "0x97e2a839823bb26b44a184f285eb472fe5059cd0d7ef51cd2ee7b8fd6a47b0af",
      "blockNumber": "0x188a76c",
      "gasUsed": "0x1e865",
      "effectiveGasPrice": "0x32e5335494d2b",
      "from": "0xaa73aa98480757d75aae288b5931261448eb0530",
      "to": "0xf077d4d0508505c5a80249afc10bc6ead90e47f1",
      "contractAddress": null
    }
  ],
  "libraries": [],
  "pending": [],
  "returns": {},
  "timestamp": 1770512636126,
  "chain": 369,
  "commit": null
}