{
  "transactions": [
    {
      "hash": "0x797828a95b77361a9438d375b5c44feec684027305fc31d56e38849772cf8979",
      "transactionType": "CALL",
      "contractName": null,
      "contractAddress": "0xf077d4d0508505c5a80249afc10bc6ead90e47f1",
      "function": "makeCrime(uint8)",
      "arguments": [
        "0"
      ],
      "transaction": {
        "from": "0xeca7a53ba6a190c5d205bfdc7707cbc3399336c1",
        "to": "0xf077d4d0508505c5a80249afc10bc6ead90e47f1",
        "gas": "0x55e10",
        "value": "0x0",
        "input": "0xc625abb40000000000000000000000000000000000000000000000000000000000000000",
        "nonce": "0x565",
        "chainId": "0x171"
      },
      "additionalContracts": [],
      "isFixedGasLimit": false
    }
  ],
  "receipts": [
    {
      "status": "0x1",
      "cumulativeGasUsed": "0x16d8f5c",
      "logs": [
        {
          "address": "0x74eadd7ebeeed638fd7c413134fa3d3433699d92",
          "topics": [
            "0x570f308d592bed3a47a73125665ce3b81fe296da89acff1af6d926e08a0a9f12"
          ],
          "data": "0x000000000000000000000000eca7a53ba6a190c5d205bfdc7707cbc3399336c10000000000000000000000000000000000000000000000000000000000023962",
          "blockHash": "0x08f83f6fc5a686dc5228e1f07137dccdceda5a1a7e0aee39a0969b1991ce9dd3",
          "blockNumber": "0x1889ea0",
          "transactionHash": "0x797828a95b77361a9438d375b5c44feec684027305fc31d56e38849772cf8979",
          "transactionIndex": "0x20",
          "logIndex": "0x45d",
          "removed": false
        },
        {
          "address": "0xf077d4d0508505c5a80249afc10bc6ead90e47f1",
          "topics": [
            "0xe36ceebd3770780c5617d53efc7d77328074f1248146245ed3b854cbf651fb37"
          ],
          "data": "0x000000000000000000000000eca7a53ba6a190c5d205bfdc7707cbc3399336c1000000000000000000000000000000000000000000000000000000000000000000000000000000000000000000000000000000000000000000000000000000010000000000000000000000000000000000000000000000000000000000000000000000000000000000000000000000000000000000000019e99523728cb8000000000000000000000000000000000000000000000000000000000000000000140000000000000000000000000000000000000000000000000000000069878a4d00000000000000000000000000000000000000000000000000000000698786c9",
          "blockHash": "0x08f83f6fc5a686dc5228e1f07137dccdceda5a1a7e0aee39a0969b1991ce9dd3",
          "blockNumber": "0x1889ea0",
          "transactionHash": "0x797828a95b77361a9438d375b5c44feec684027305fc31d56e38849772cf8979",
          "transactionIndex": "0x20",
          "logIndex": "0x45e",
          "removed": false
        }
      ],
      "logsBloom": "0x00000000000000000000000000000000004000000000000000000000400000000000000000000000000000000000000000000000000000000000000000000000000000000000000000008000000000000000000000000000000000000000000000000100000000000000000000000000400000000000000000000000000000000000000000000000000000100000000000000000000020000000000000000008000000000000000000000000000000000010000000000000000000000000000000000000000002000100000000000000000000000000000000000000000000000000000000000000000000000000000000000000000000000000000000000002",
      "type": "0x2",
      "transactionHash": "0x797828a95b77361a9438d375b5c44feec684027305fc31d56e38849772cf8979",
      "transactionIndex": "0x20",
      "blockHash": "0x08f83f6fc5a686dc5228e1f07137dccdceda5a1a7e0aee39a0969b1991ce9dd3",
      "blockNumber": "0x1889ea0",
      "gasUsed": "0x3e2cd",
      "effectiveGasPrice": "0x2c0e872db2482",
      "from": "0xeca7a53ba6a190c5d205bfdc7707cbc3399336c1",
      "to": "0xf077d4d0508505c5a80249afc10bc6ead90e47f1",
      "contractAddress": null
    }
  ],
  "libraries": [],
  "pending": [],
  "returns": {},
  "timestamp": 1770489546233,
  "chain": 369,
  "commit": null
}