{
  "transactions": [
    {
      "hash": "0xf4b01fedb3c0f2547e742dc19653c15b78540c817a2c1e28dc6cb826a85fed6e",
      "transactionType": "CALL",
      "contractName": null,
      "contractAddress": "0xf077d4d0508505c5a80249afc10bc6ead90e47f1",
      "function": "makeCrime(uint8)",
      "arguments": [
        "0"
      ],
      "transaction": {
        "from": "0xac56dc5a4a9de0197f7b8f584ea04ec7e0123dde",
        "to": "0xf077d4d0508505c5a80249afc10bc6ead90e47f1",
        "gas": "0x2d083",
        "value": "0x0",
        "input": "0xc625abb40000000000000000000000000000000000000000000000000000000000000000",
        "nonce": "0x4f8",
        "chainId": "0x171"
      },
      "additionalContracts": [],
      "isFixedGasLimit": false
    }
  ],
  "receipts": [
    {
      "status": "0x1",
      "cumulativeGasUsed": "0x9dc2b6",
      "logs": [
        {
          "address": "0xf077d4d0508505c5a80249afc10bc6ead90e47f1",
          "topics": [
            "0xe36ceebd3770780c5617d53efc7d77328074f1248146245ed3b854cbf651fb37"
          ],
          "data": "0x000000000000000000000000ac56dc5a4a9de0197f7b8f584ea04ec7e0123dde000000000000000000000000000000000000000000000000000000000000000000000000000000000000000000000000000000000000000000000000000000000000000000000000000000000000000000000000000000000000000000000000000000000000000000000000000000000000000000000000000000000000000000000000000000000000000000000000000000000000000000000000000000000000000000000000000000000000000000000000000000000000000069880d4700000000000000000000000000000000000000000000000000000000698809c3",
          "blockHash": "0x640c688341ebaf0d1e3a411c5af5780132d69189089fb3137c6f8c0f92f55493",
          "blockNumber": "0x188ab6f",
          "transactionHash": "0xf4b01fedb3c0f2547e742dc19653c15b78540c817a2c1e28dc6cb826a85fed6e",
          "transactionIndex": "0x1f",
          "logIndex": "0x17a",
          "removed": false
        }
      ],
      "logsBloom": "0x00000000000000000000000000000000000000000000000000000000400000000000000000000000000000000000000000000000000000000000000000000000000000000000000000000000000000000000000000000000000000000000000000000000000000000000000000000000400000000000000000000000000000000000000000000000000000100000000000000000000020000000000000000000000000000000000000000000000000000000000000000000000000000000000000000000000000000100000000000000000000000000000000000000000000000000000000000000000000000000000000000000000000000000000000000002",
      "type": "0x2",
      "transactionHash": "0xf4b01fedb3c0f2547e742dc19653c15b78540c817a2c1e28dc6cb826a85fed6e",
      "transactionIndex": "0x1f",
      "blockHash": "0x640c688341ebaf0d1e3a411c5af5780132d69189089fb3137c6f8c0f92f55493",
      "blockNumber": "0x188ab6f",
      "gasUsed": "0x1eca9",
      "effectiveGasPrice": "0x2d0c584136ee7",
      "from": "0xac56dc5a4a9de0197f7b8f584ea04ec7e0123dde",
      "to": "0xf077d4d0508505c5a80249afc10bc6ead90e47f1",
      "contractAddress": null
    }
  ],
  "libraries": [],
  "pending": [],
  "returns": {},
  "timestamp": 1770523077095,
  "chain": 369,
  "commit": null
}