{
  "transactions": [
    {
      "hash": "0x8fbc0e2cc916187926f4fb086f0f4ac4269c9d862f7cc34be9b53d721b424dd0",
      "transactionType": "CALL",
      "contractName": null,
      "contractAddress": "0xf077d4d0508505c5a80249afc10bc6ead90e47f1",
      "function": "makeCrime(uint8)",
      "arguments": [
        "0"
      ],
      "transaction": {
        "from": "0x4c62f6121e6f967a0872da8364995e9b68c1e82f",
        "to": "0xf077d4d0508505c5a80249afc10bc6ead90e47f1",
        "gas": "0x409a4",
        "value": "0x0",
        "input": "0xc625abb40000000000000000000000000000000000000000000000000000000000000000",
        "nonce": "0x76c",
        "chainId": "0x171"
      },
      "additionalContracts": [],
      "isFixedGasLimit": false
    }
  ],
  "receipts": [
    {
      "status": "0x1",
      "cumulativeGasUsed": "0x6c49a5",
      "logs": [
        {
          "address": "0xf077d4d0508505c5a80249afc10bc6ead90e47f1",
          "topics": [
            "0xe36ceebd3770780c5617d53efc7d77328074f1248146245ed3b854cbf651fb37"
          ],
          "data": "0x0000000000000000000000004c62f6121e6f967a0872da8364995e9b68c1e82f0000000000000000000000000000000000000000000000000000000000000000000000000000000000000000000000000000000000000000000000000000000000000000000000000000000000000000000000000000000000000000000000000000000000000000000000000000000000000000000000000000000000000000000000000000000000000000000000000000000000000000000000000000000000000000000000000000000000000000000000000000000000000000697b4d6900000000000000000000000000000000000000000000000000000000697b49e5",
          "blockHash": "0x35102ff50efef93bca678272e12140c0510eff8cf6b4a7b5edc5f428457d33b3",
          "blockNumber": "0x1876d3f",
          "transactionHash": "0x8fbc0e2cc916187926f4fb086f0f4ac4269c9d862f7cc34be9b53d721b424dd0",
          "transactionIndex": "0x23",
          "logIndex": "0x96",
          "removed": false
        }
      ],
      "logsBloom": "0x00000000000000000000000000000000000000000000000000000000400000000000000000000000000000000000000000000000000000000000000000000000000000000000000000000000000000000000000000000000000000000000000000000000000000000000000000000000400000000000000000000000000000000000000000000000000000100000000000000000000020000000000000000000000000000000000000000000000000000000000000000000000000000000000000000000000000000100000000000000000000000000000000000000000000000000000000000000000000000000000000000000000000000000000000000002",
      "type": "0x2",
      "transactionHash": "0x8fbc0e2cc916187926f4fb086f0f4ac4269c9d862f7cc34be9b53d721b424dd0",
      "transactionIndex": "0x23",
      "blockHash": "0x35102ff50efef93bca678272e12140c0510eff8cf6b4a7b5edc5f428457d33b3",
      "blockNumber": "0x1876d3f",
      "gasUsed": "0x1e865",
      "effectiveGasPrice": "0x22cc8abd6a5ec",
      "from": "0x4c62f6121e6f967a0872da8364995e9b68c1e82f",
      "to": "0xf077d4d0508505c5a80249afc10bc6ead90e47f1",
      "contractAddress": null
    }
  ],
  "libraries": [],
  "pending": [],
  "returns": {},
  "timestamp": 1769687526688,
  "chain": 369,
  "commit": null
}