{
  "transactions": [
    {
      "hash": "0x8da30c3be06ce822e5f3e8c140d82e7d627e6216facf86d2597f2a3f34e8c8d8",
      "transactionType": "CALL",
      "contractName": null,
      "contractAddress": "0xf077d4d0508505c5a80249afc10bc6ead90e47f1",
      "function": "makeCrime(uint8)",
      "arguments": [
        "0"
      ],
      "transaction": {
        "from": "0xec646a6c9000e04d050435340d9c42c039eb5648",
        "to": "0xf077d4d0508505c5a80249afc10bc6ead90e47f1",
        "gas": "0x54be5",
        "value": "0x0",
        "input": "0xc625abb40000000000000000000000000000000000000000000000000000000000000000",
        "nonce": "0x3e",
        "chainId": "0x171"
      },
      "additionalContracts": [],
      "isFixedGasLimit": false
    }
  ],
  "receipts": [
    {
      "status": "0x1",
      "cumulativeGasUsed": "0x1be9690",
      "logs": [
        {
          "address": "0x74eadd7ebeeed638fd7c413134fa3d3433699d92",
          "topics": [
            "0x570f308d592bed3a47a73125665ce3b81fe296da89acff1af6d926e08a0a9f12"
          ],
          "data": "0x000000000000000000000000ec646a6c9000e04d050435340d9c42c039eb56480000000000000000000000000000000000000000000000000000000000000320",
          "blockHash": "0xf534cb99209e4dd8657d1399dac93bb2f91e0b72096a34613efa47d05ee96221",
          "blockNumber": "0x188ab8d",
          "transactionHash": "0x8da30c3be06ce822e5f3e8c140d82e7d627e6216facf86d2597f2a3f34e8c8d8",
          "transactionIndex": "0x1e",
          "logIndex": "0x755",
          "removed": false
        },
        {
          "address": "0xf077d4d0508505c5a80249afc10bc6ead90e47f1",
          "topics": [
            "0xe36ceebd3770780c5617d53efc7d77328074f1248146245ed3b854cbf651fb37"
          ],
          "data": "0x000000000000000000000000ec646a6c9000e04d050435340d9c42c039eb564800000000000000000000000000000000000000000000000000000000000000000000000000000000000000000000000000000000000000000000000000000001000000000000000000000000000000000000000000000000000000000000000000000000000000000000000000000000000000000000000ecca2d59581a4000000000000000000000000000000000000000000000000000000000000000000640000000000000000000000000000000000000000000000000000000069880e7d0000000000000000000000000000000000000000000000000000000069880af9",
          "blockHash": "0xf534cb99209e4dd8657d1399dac93bb2f91e0b72096a34613efa47d05ee96221",
          "blockNumber": "0x188ab8d",
          "transactionHash": "0x8da30c3be06ce822e5f3e8c140d82e7d627e6216facf86d2597f2a3f34e8c8d8",
          "transactionIndex": "0x1e",
          "logIndex": "0x756",
          "removed": false
        }
      ],
      "logsBloom": "0x00000000000000000000000000000000004000000000000000000000400000000000000000000000000000000000000000000000000000000000000000000000000000000000000000008000000000000000000000000000000000000000000000000100000000000000000000000000400000000000000000000000000000000000000000000000000000100000000000000000000020000000000000000008000000000000000000000000000000000010000000000000000000000000000000000000000002000100000000000000000000000000000000000000000000000000000000000000000000000000000000000000000000000000000000000002",
      "type": "0x2",
      "transactionHash": "0x8da30c3be06ce822e5f3e8c140d82e7d627e6216facf86d2597f2a3f34e8c8d8",
      "transactionIndex": "0x1e",
      "blockHash": "0xf534cb99209e4dd8657d1399dac93bb2f91e0b72096a34613efa47d05ee96221",
      "blockNumber": "0x188ab8d",
      "gasUsed": "0x3d5a5",
      "effectiveGasPrice": "0x2b66692fb4da0",
      "from": "0xec646a6c9000e04d050435340d9c42c039eb5648",
      "to": "0xf077d4d0508505c5a80249afc10bc6ead90e47f1",
      "contractAddress": null
    }
  ],
  "libraries": [],
  "pending": [],
  "returns": {},
  "timestamp": 1770523386971,
  "chain": 369,
  "commit": null
}