{
  "transactions": [
    {
      "hash": "0x41271c209922ddba7877251890b597094658aaee8ec1548cd2e343c9338e517a",
      "transactionType": "CALL",
      "contractName": null,
      "contractAddress": "0xf077d4d0508505c5a80249afc10bc6ead90e47f1",
      "function": "makeCrime(uint8)",
      "arguments": [
        "0"
      ],
      "transaction": {
        "from": "0xec646a6c9000e04d050435340d9c42c039eb5648",
        "to": "0xf077d4d0508505c5a80249afc10bc6ead90e47f1",
        "gas": "0x409a4",
        "value": "0x0",
        "input": "0xc625abb40000000000000000000000000000000000000000000000000000000000000000",
        "nonce": "0x51",
        "chainId": "0x171"
      },
      "additionalContracts": [],
      "isFixedGasLimit": false
    }
  ],
  "receipts": [
    {
      "status": "0x1",
      "cumulativeGasUsed": "0x2e0c17",
      "logs": [
        {
          "address": "0x74eadd7ebeeed638fd7c413134fa3d3433699d92",
          "topics": [
            "0x570f308d592bed3a47a73125665ce3b81fe296da89acff1af6d926e08a0a9f12"
          ],
          "data": "0x000000000000000000000000ec646a6c9000e04d050435340d9c42c039eb56480000000000000000000000000000000000000000000000000000000000000514",
          "blockHash": "0xfd66fe4e8565dfdaae9f39202025ebc3a88cae859d9d0a7fce5cb64d29676599",
          "blockNumber": "0x188b1f4",
          "transactionHash": "0x41271c209922ddba7877251890b597094658aaee8ec1548cd2e343c9338e517a",
          "transactionIndex": "0x13",
          "logIndex": "0x61",
          "removed": false
        },
        {
          "address": "0xf077d4d0508505c5a80249afc10bc6ead90e47f1",
          "topics": [
            "0xe36ceebd3770780c5617d53efc7d77328074f1248146245ed3b854cbf651fb37"
          ],
          "data": "0x000000000000000000000000ec646a6c9000e04d050435340d9c42c039eb56480000000000000000000000000000000000000000000000000000000000000000000000000000000000000000000000000000000000000000000000000000000100000000000000000000000000000000000000000000000000000000000000000000000000000000000000000000000000000000000000140ec80fa7ee880000000000000000000000000000000000000000000000000000000000000000006400000000000000000000000000000000000000000000000000000000698850270000000000000000000000000000000000000000000000000000000069884ca3",
          "blockHash": "0xfd66fe4e8565dfdaae9f39202025ebc3a88cae859d9d0a7fce5cb64d29676599",
          "blockNumber": "0x188b1f4",
          "transactionHash": "0x41271c209922ddba7877251890b597094658aaee8ec1548cd2e343c9338e517a",
          "transactionIndex": "0x13",
          "logIndex": "0x62",
          "removed": false
        }
      ],
      "logsBloom": "0x00000000000000000000000000000000004000000000000000000000400000000000000000000000000000000000000000000000000000000000000000000000000000000000000000008000000000000000000000000000000000000000000000000100000000000000000000000000400000000000000000000000000000000000000000000000000000100000000000000000000020000000000000000008000000000000000000000000000000000010000000000000000000000000000000000000000002000100000000000000000000000000000000000000000000000000000000000000000000000000000000000000000000000000000000000002",
      "type": "0x2",
      "transactionHash": "0x41271c209922ddba7877251890b597094658aaee8ec1548cd2e343c9338e517a",
      "transactionIndex": "0x13",
      "blockHash": "0xfd66fe4e8565dfdaae9f39202025ebc3a88cae859d9d0a7fce5cb64d29676599",
      "blockNumber": "0x188b1f4",
      "gasUsed": "0x3d5a5",
      "effectiveGasPrice": "0x2d46ade41dfcf",
      "from": "0xec646a6c9000e04d050435340d9c42c039eb5648",
      "to": "0xf077d4d0508505c5a80249afc10bc6ead90e47f1",
      "contractAddress": null
    }
  ],
  "libraries": [],
  "pending": [],
  "returns": {},
  "timestamp": 1770540195745,
  "chain": 369,
  "commit": null
}