{
  "transactions": [
    {
      "hash": "0x3d53f18f0c5f10e6580cddd90f8a5ad225910e987f7a37c67cd59d19ddf65fa3",
      "transactionType": "CALL",
      "contractName": null,
      "contractAddress": "0xf077d4d0508505c5a80249afc10bc6ead90e47f1",
      "function": "makeCrime(uint8)",
      "arguments": [
        "0"
      ],
      "transaction": {
        "from": "0xac56dc5a4a9de0197f7b8f584ea04ec7e0123dde",
        "to": "0xf077d4d0508505c5a80249afc10bc6ead90e47f1",
        "gas": "0x2d083",
        "value": "0x0",
        "input": "0xc625abb40000000000000000000000000000000000000000000000000000000000000000",
        "nonce": "0x359",
        "chainId": "0x171"
      },
      "additionalContracts": [],
      "isFixedGasLimit": false
    }
  ],
  "receipts": [
    {
      "status": "0x1",
      "cumulativeGasUsed": "0x125ac00",
      "logs": [
        {
          "address": "0xf077d4d0508505c5a80249afc10bc6ead90e47f1",
          "topics": [
            "0xe36ceebd3770780c5617d53efc7d77328074f1248146245ed3b854cbf651fb37"
          ],
          "data": "0x000000000000000000000000ac56dc5a4a9de0197f7b8f584ea04ec7e0123dde0000000000000000000000000000000000000000000000000000000000000000000000000000000000000000000000000000000000000000000000000000000000000000000000000000000000000000000000000000000000000000000000000000000000000000000000000000000000000000000000000000000000000000000000000000000000000000000000000000000000000000000000000000000000000000000000000000000000000000000000000000000000000000697973590000000000000000000000000000000000000000000000000000000069796fd5",
          "blockHash": "0x128403d2e47bbe8984809c7c91580d611d24ae0b1b2dca1af597a60355c28a16",
          "blockNumber": "0x1873ef3",
          "transactionHash": "0x3d53f18f0c5f10e6580cddd90f8a5ad225910e987f7a37c67cd59d19ddf65fa3",
          "transactionIndex": "0x14",
          "logIndex": "0x2c4",
          "removed": false
        }
      ],
      "logsBloom": "0x00000000000000000000000000000000000000000000000000000000400000000000000000000000000000000000000000000000000000000000000000000000000000000000000000000000000000000000000000000000000000000000000000000000000000000000000000000000400000000000000000000000000000000000000000000000000000100000000000000000000020000000000000000000000000000000000000000000000000000000000000000000000000000000000000000000000000000100000000000000000000000000000000000000000000000000000000000000000000000000000000000000000000000000000000000002",
      "type": "0x2",
      "transactionHash": "0x3d53f18f0c5f10e6580cddd90f8a5ad225910e987f7a37c67cd59d19ddf65fa3",
      "transactionIndex": "0x14",
      "blockHash": "0x128403d2e47bbe8984809c7c91580d611d24ae0b1b2dca1af597a60355c28a16",
      "blockNumber": "0x1873ef3",
      "gasUsed": "0x1eca9",
      "effectiveGasPrice": "0x2a205573d3640",
      "from": "0xac56dc5a4a9de0197f7b8f584ea04ec7e0123dde",
      "to": "0xf077d4d0508505c5a80249afc10bc6ead90e47f1",
      "contractAddress": null
    }
  ],
  "libraries": [],
  "pending": [],
  "returns": {},
  "timestamp": 1769566165992,
  "chain": 369,
  "commit": null
}