{
  "transactions": [
    {
      "hash": "0xb5227a195d881de179f63c59058a73afb77a8d38851a86a02fffb162a6571149",
      "transactionType": "CALL",
      "contractName": null,
      "contractAddress": "0xf077d4d0508505c5a80249afc10bc6ead90e47f1",
      "function": "makeCrime(uint8)",
      "arguments": [
        "0"
      ],
      "transaction": {
        "from": "0x4c62f6121e6f967a0872da8364995e9b68c1e82f",
        "to": "0xf077d4d0508505c5a80249afc10bc6ead90e47f1",
        "gas": "0x54be5",
        "value": "0x0",
        "input": "0xc625abb40000000000000000000000000000000000000000000000000000000000000000",
        "nonce": "0x985",
        "chainId": "0x171"
      },
      "additionalContracts": [],
      "isFixedGasLimit": false
    }
  ],
  "receipts": [
    {
      "status": "0x1",
      "cumulativeGasUsed": "0xbfe092",
      "logs": [
        {
          "address": "0xdcd5e9c0b2b4e9cb93677a258521d854b3a9f5a1",
          "topics": [
            "0x0bff5315606c84d1cee047503678048ca39946be11bfdd5a8c03fe5e272d98e3"
          ],
          "data": "0x0000000000000000000000004c62f6121e6f967a0872da8364995e9b68c1e82f0000000000000000000000000000000000000000000000000000000069885f1d0000000000000000000000000000000000000000000000000000000000000000",
          "blockHash": "0xcd88fc6c4bd74a7673b01025185fcdcbe87ce3e9dc6c93451a6b826e7420ce91",
          "blockNumber": "0x188b338",
          "transactionHash": "0xb5227a195d881de179f63c59058a73afb77a8d38851a86a02fffb162a6571149",
          "transactionIndex": "0x2c",
          "logIndex": "0x140",
          "removed": false
        },
        {
          "address": "0xf077d4d0508505c5a80249afc10bc6ead90e47f1",
          "topics": [
            "0xe36ceebd3770780c5617d53efc7d77328074f1248146245ed3b854cbf651fb37"
          ],
          "data": "0x0000000000000000000000004c62f6121e6f967a0872da8364995e9b68c1e82f000000000000000000000000000000000000000000000000000000000000000000000000000000000000000000000000000000000000000000000000000000000000000000000000000000000000000000000000000000000000000000000001000000000000000000000000000000000000000000000000000000000000000000000000000000000000000000000000000000000000000000000000000000000000000000000000000000000000000000000000000000000000000069885d5b00000000000000000000000000000000000000000000000000000000698859d7",
          "blockHash": "0xcd88fc6c4bd74a7673b01025185fcdcbe87ce3e9dc6c93451a6b826e7420ce91",
          "blockNumber": "0x188b338",
          "transactionHash": "0xb5227a195d881de179f63c59058a73afb77a8d38851a86a02fffb162a6571149",
          "transactionIndex": "0x2c",
          "logIndex": "0x141",
          "removed": false
        }
      ],
      "logsBloom": "0x00000000000000000000000000000000010000000000000000000000400000000000000000000000000000000000000000000000000000000000000000000000000000000000000000000000000000000000000000000000001000000000000000000000000000000000000000000000400000000080000000000000000000000000000000000000000000100000000000000000000020000000000000000000000000000000000000000000000000000000000000000000400000000000000000000000000000000100000000000040000000000000000000000000000000000000000000000000000000000000000000000000000000000000000000001002",
      "type": "0x2",
      "transactionHash": "0xb5227a195d881de179f63c59058a73afb77a8d38851a86a02fffb162a6571149",
      "transactionIndex": "0x2c",
      "blockHash": "0xcd88fc6c4bd74a7673b01025185fcdcbe87ce3e9dc6c93451a6b826e7420ce91",
      "blockNumber": "0x188b338",
      "gasUsed": "0x2ec57",
      "effectiveGasPrice": "0x2e64e5ff16c48",
      "from": "0x4c62f6121e6f967a0872da8364995e9b68c1e82f",
      "to": "0xf077d4d0508505c5a80249afc10bc6ead90e47f1",
      "contractAddress": null
    }
  ],
  "libraries": [],
  "pending": [],
  "returns": {},
  "timestamp": 1770543576483,
  "chain": 369,
  "commit": null
}