{
  "transactions": [
    {
      "hash": "0x5a8a0801d0b3b69d52bc87773ad6d44d448a038182fc95882f46f419900c2540",
      "transactionType": "CALL",
      "contractName": null,
      "contractAddress": "0xf077d4d0508505c5a80249afc10bc6ead90e47f1",
      "function": "makeCrime(uint8)",
      "arguments": [
        "0"
      ],
      "transaction": {
        "from": "0x4c62f6121e6f967a0872da8364995e9b68c1e82f",
        "to": "0xf077d4d0508505c5a80249afc10bc6ead90e47f1",
        "gas": "0x2a297",
        "value": "0x0",
        "input": "0xc625abb40000000000000000000000000000000000000000000000000000000000000000",
        "nonce": "0x73f",
        "chainId": "0x171"
      },
      "additionalContracts": [],
      "isFixedGasLimit": false
    }
  ],
  "receipts": [
    {
      "status": "0x1",
      "cumulativeGasUsed": "0x92abe1",
      "logs": [
        {
          "address": "0xf077d4d0508505c5a80249afc10bc6ead90e47f1",
          "topics": [
            "0xe36ceebd3770780c5617d53efc7d77328074f1248146245ed3b854cbf651fb37"
          ],
          "data": "0x0000000000000000000000004c62f6121e6f967a0872da8364995e9b68c1e82f0000000000000000000000000000000000000000000000000000000000000000000000000000000000000000000000000000000000000000000000000000000000000000000000000000000000000000000000000000000000000000000000000000000000000000000000000000000000000000000000000000000000000000000000000000000000000000000000000000000000000000000000000000000000000000000000000000000000000000000000000000000000000000697a510700000000000000000000000000000000000000000000000000000000697a4d83",
          "blockHash": "0x42c03795f6340c4a48710d83dc0f2fdc5283cf705d05d48e4b58cbe3ae5e6f28",
          "blockNumber": "0x18754a2",
          "transactionHash": "0x5a8a0801d0b3b69d52bc87773ad6d44d448a038182fc95882f46f419900c2540",
          "transactionIndex": "0x2d",
          "logIndex": "0xd1",
          "removed": false
        }
      ],
      "logsBloom": "0x00000000000000000000000000000000000000000000000000000000400000000000000000000000000000000000000000000000000000000000000000000000000000000000000000000000000000000000000000000000000000000000000000000000000000000000000000000000400000000000000000000000000000000000000000000000000000100000000000000000000020000000000000000000000000000000000000000000000000000000000000000000000000000000000000000000000000000100000000000000000000000000000000000000000000000000000000000000000000000000000000000000000000000000000000000002",
      "type": "0x2",
      "transactionHash": "0x5a8a0801d0b3b69d52bc87773ad6d44d448a038182fc95882f46f419900c2540",
      "transactionIndex": "0x2d",
      "blockHash": "0x42c03795f6340c4a48710d83dc0f2fdc5283cf705d05d48e4b58cbe3ae5e6f28",
      "blockNumber": "0x18754a2",
      "gasUsed": "0x1e865",
      "effectiveGasPrice": "0x3719112082bb1",
      "from": "0x4c62f6121e6f967a0872da8364995e9b68c1e82f",
      "to": "0xf077d4d0508505c5a80249afc10bc6ead90e47f1",
      "contractAddress": null
    }
  ],
  "libraries": [],
  "pending": [],
  "returns": {},
  "timestamp": 1769622915634,
  "chain": 369,
  "commit": null
}