{
  "transactions": [
    {
      "hash": "0x402bba07c6e45db51c1d51a5f58047eeeac05506a56a2dc7354585abc791749d",
      "transactionType": "CALL",
      "contractName": null,
      "contractAddress": "0xf077d4d0508505c5a80249afc10bc6ead90e47f1",
      "function": "makeCrime(uint8)",
      "arguments": [
        "0"
      ],
      "transaction": {
        "from": "0xeca7a53ba6a190c5d205bfdc7707cbc3399336c1",
        "to": "0xf077d4d0508505c5a80249afc10bc6ead90e47f1",
        "gas": "0x41b40",
        "value": "0x0",
        "input": "0xc625abb40000000000000000000000000000000000000000000000000000000000000000",
        "nonce": "0x5a3",
        "chainId": "0x171"
      },
      "additionalContracts": [],
      "isFixedGasLimit": false
    }
  ],
  "receipts": [
    {
      "status": "0x1",
      "cumulativeGasUsed": "0x53f072",
      "logs": [
        {
          "address": "0x74eadd7ebeeed638fd7c413134fa3d3433699d92",
          "topics": [
            "0x570f308d592bed3a47a73125665ce3b81fe296da89acff1af6d926e08a0a9f12"
          ],
          "data": "0x000000000000000000000000eca7a53ba6a190c5d205bfdc7707cbc3399336c10000000000000000000000000000000000000000000000000000000000023cd2",
          "blockHash": "0xfb1114ab6d6a89319718ab404cc61644518869c3869d1098deed0837eeae188b",
          "blockNumber": "0x188b3a8",
          "transactionHash": "0x402bba07c6e45db51c1d51a5f58047eeeac05506a56a2dc7354585abc791749d",
          "transactionIndex": "0x11",
          "logIndex": "0x7c",
          "removed": false
        },
        {
          "address": "0xf077d4d0508505c5a80249afc10bc6ead90e47f1",
          "topics": [
            "0xe36ceebd3770780c5617d53efc7d77328074f1248146245ed3b854cbf651fb37"
          ],
          "data": "0x000000000000000000000000eca7a53ba6a190c5d205bfdc7707cbc3399336c1000000000000000000000000000000000000000000000000000000000000000000000000000000000000000000000000000000000000000000000000000000010000000000000000000000000000000000000000000000000000000000000000000000000000000000000000000000000000000000000010969a62be15880000000000000000000000000000000000000000000000000000000000000000001400000000000000000000000000000000000000000000000000000000698861cf0000000000000000000000000000000000000000000000000000000069885e4b",
          "blockHash": "0xfb1114ab6d6a89319718ab404cc61644518869c3869d1098deed0837eeae188b",
          "blockNumber": "0x188b3a8",
          "transactionHash": "0x402bba07c6e45db51c1d51a5f58047eeeac05506a56a2dc7354585abc791749d",
          "transactionIndex": "0x11",
          "logIndex": "0x7d",
          "removed": false
        }
      ],
      "logsBloom": "0x00000000000000000000000000000000004000000000000000000000400000000000000000000000000000000000000000000000000000000000000000000000000000000000000000008000000000000000000000000000000000000000000000000100000000000000000000000000400000000000000000000000000000000000000000000000000000100000000000000000000020000000000000000008000000000000000000000000000000000010000000000000000000000000000000000000000002000100000000000000000000000000000000000000000000000000000000000000000000000000000000000000000000000000000000000002",
      "type": "0x2",
      "transactionHash": "0x402bba07c6e45db51c1d51a5f58047eeeac05506a56a2dc7354585abc791749d",
      "transactionIndex": "0x11",
      "blockHash": "0xfb1114ab6d6a89319718ab404cc61644518869c3869d1098deed0837eeae188b",
      "blockNumber": "0x188b3a8",
      "gasUsed": "0x3e2cd",
      "effectiveGasPrice": "0x2ffad05f160df",
      "from": "0xeca7a53ba6a190c5d205bfdc7707cbc3399336c1",
      "to": "0xf077d4d0508505c5a80249afc10bc6ead90e47f1",
      "contractAddress": null
    }
  ],
  "libraries": [],
  "pending": [],
  "returns": {},
  "timestamp": 1770544716015,
  "chain": 369,
  "commit": null
}