{
  "transactions": [
    {
      "hash": "0x14338588515d177e9774d42bf97ad001c03b221ae7a15f575943e1977e0df374",
      "transactionType": "CALL",
      "contractName": null,
      "contractAddress": "0xf077d4d0508505c5a80249afc10bc6ead90e47f1",
      "function": "makeCrime(uint8)",
      "arguments": [
        "0"
      ],
      "transaction": {
        "from": "0xac56dc5a4a9de0197f7b8f584ea04ec7e0123dde",
        "to": "0xf077d4d0508505c5a80249afc10bc6ead90e47f1",
        "gas": "0x44caf",
        "value": "0x0",
        "input": "0xc625abb40000000000000000000000000000000000000000000000000000000000000000",
        "nonce": "0x3b9",
        "chainId": "0x171"
      },
      "additionalContracts": [],
      "isFixedGasLimit": false
    }
  ],
  "receipts": [
    {
      "status": "0x1",
      "cumulativeGasUsed": "0x11fc5b3",
      "logs": [
        {
          "address": "0x74eadd7ebeeed638fd7c413134fa3d3433699d92",
          "topics": [
            "0x570f308d592bed3a47a73125665ce3b81fe296da89acff1af6d926e08a0a9f12"
          ],
          "data": "0x000000000000000000000000ac56dc5a4a9de0197f7b8f584ea04ec7e0123dde0000000000000000000000000000000000000000000000000000000000038d7b",
          "blockHash": "0x5c98bcfef030f66c5728ef7af27a0e9d3acbb6cda2034fb3dd92dc3012f2065e",
          "blockNumber": "0x1875d9b",
          "transactionHash": "0x14338588515d177e9774d42bf97ad001c03b221ae7a15f575943e1977e0df374",
          "transactionIndex": "0x22",
          "logIndex": "0x308",
          "removed": false
        },
        {
          "address": "0xf077d4d0508505c5a80249afc10bc6ead90e47f1",
          "topics": [
            "0xe36ceebd3770780c5617d53efc7d77328074f1248146245ed3b854cbf651fb37"
          ],
          "data": "0x000000000000000000000000ac56dc5a4a9de0197f7b8f584ea04ec7e0123dde000000000000000000000000000000000000000000000000000000000000000000000000000000000000000000000000000000000000000000000000000000010000000000000000000000000000000000000000000000000000000000000000000000000000000000000000000000000000000000000018493fba64ef000000000000000000000000000000000000000000000000000000000000000000006400000000000000000000000000000000000000000000000000000000697aad0500000000000000000000000000000000000000000000000000000000697aa981",
          "blockHash": "0x5c98bcfef030f66c5728ef7af27a0e9d3acbb6cda2034fb3dd92dc3012f2065e",
          "blockNumber": "0x1875d9b",
          "transactionHash": "0x14338588515d177e9774d42bf97ad001c03b221ae7a15f575943e1977e0df374",
          "transactionIndex": "0x22",
          "logIndex": "0x309",
          "removed": false
        }
      ],
      "logsBloom": "0x00000000000000000000000000000000004000000000000000000000400000000000000000000000000000000000000000000000000000000000000000000000000000000000000000008000000000000000000000000000000000000000000000000100000000000000000000000000400000000000000000000000000000000000000000000000000000100000000000000000000020000000000000000008000000000000000000000000000000000010000000000000000000000000000000000000000002000100000000000000000000000000000000000000000000000000000000000000000000000000000000000000000000000000000000000002",
      "type": "0x2",
      "transactionHash": "0x14338588515d177e9774d42bf97ad001c03b221ae7a15f575943e1977e0df374",
      "transactionIndex": "0x22",
      "blockHash": "0x5c98bcfef030f66c5728ef7af27a0e9d3acbb6cda2034fb3dd92dc3012f2065e",
      "blockNumber": "0x1875d9b",
      "gasUsed": "0x3da85",
      "effectiveGasPrice": "0x1abac8f8d5ed5",
      "from": "0xac56dc5a4a9de0197f7b8f584ea04ec7e0123dde",
      "to": "0xf077d4d0508505c5a80249afc10bc6ead90e47f1",
      "contractAddress": null
    }
  ],
  "libraries": [],
  "pending": [],
  "returns": {},
  "timestamp": 1769646466797,
  "chain": 369,
  "commit": null
}