{
  "transactions": [
    {
      "hash": "0x67d7fce9c9ed856f601af66a27d3d7d88f58b6b7e9b17f09341bad1f1d7e422e",
      "transactionType": "CALL",
      "contractName": null,
      "contractAddress": "0xf077d4d0508505c5a80249afc10bc6ead90e47f1",
      "function": "makeCrime(uint8)",
      "arguments": [
        "0"
      ],
      "transaction": {
        "from": "0xaa73aa98480757d75aae288b5931261448eb0530",
        "to": "0xf077d4d0508505c5a80249afc10bc6ead90e47f1",
        "gas": "0x2a297",
        "value": "0x0",
        "input": "0xc625abb40000000000000000000000000000000000000000000000000000000000000000",
        "nonce": "0x6f",
        "chainId": "0x171"
      },
      "additionalContracts": [],
      "isFixedGasLimit": false
    }
  ],
  "receipts": [
    {
      "status": "0x1",
      "cumulativeGasUsed": "0x6db9f5",
      "logs": [
        {
          "address": "0xf077d4d0508505c5a80249afc10bc6ead90e47f1",
          "topics": [
            "0xe36ceebd3770780c5617d53efc7d77328074f1248146245ed3b854cbf651fb37"
          ],
          "data": "0x000000000000000000000000aa73aa98480757d75aae288b5931261448eb053000000000000000000000000000000000000000000000000000000000000000000000000000000000000000000000000000000000000000000000000000000000000000000000000000000000000000000000000000000000000000000000000000000000000000000000000000000000000000000000000000000000000000000000000000000000000000000000000000000000000000000000000000000000000000000000000000000000000000000000000000000000000000006988501d0000000000000000000000000000000000000000000000000000000069884c99",
          "blockHash": "0x02ee8016b9738c29a924f66e1ef16b6f2f0f3efad012819f93bbbc6bfe0384a5",
          "blockNumber": "0x188b1f3",
          "transactionHash": "0x67d7fce9c9ed856f601af66a27d3d7d88f58b6b7e9b17f09341bad1f1d7e422e",
          "transactionIndex": "0x25",
          "logIndex": "0xa7",
          "removed": false
        }
      ],
      "logsBloom": "0x00000000000000000000000000000000000000000000000000000000400000000000000000000000000000000000000000000000000000000000000000000000000000000000000000000000000000000000000000000000000000000000000000000000000000000000000000000000400000000000000000000000000000000000000000000000000000100000000000000000000020000000000000000000000000000000000000000000000000000000000000000000000000000000000000000000000000000100000000000000000000000000000000000000000000000000000000000000000000000000000000000000000000000000000000000002",
      "type": "0x2",
      "transactionHash": "0x67d7fce9c9ed856f601af66a27d3d7d88f58b6b7e9b17f09341bad1f1d7e422e",
      "transactionIndex": "0x25",
      "blockHash": "0x02ee8016b9738c29a924f66e1ef16b6f2f0f3efad012819f93bbbc6bfe0384a5",
      "blockNumber": "0x188b1f3",
      "gasUsed": "0x1e865",
      "effectiveGasPrice": "0x289c60201efac",
      "from": "0xaa73aa98480757d75aae288b5931261448eb0530",
      "to": "0xf077d4d0508505c5a80249afc10bc6ead90e47f1",
      "contractAddress": null
    }
  ],
  "libraries": [],
  "pending": [],
  "returns": {},
  "timestamp": 1770540185707,
  "chain": 369,
  "commit": null
}