{
  "transactions": [
    {
      "hash": "0x07081f8df2a01b151cf5b2f7c87f0b20e6d235c0720e09566164208ffecc136a",
      "transactionType": "CALL",
      "contractName": null,
      "contractAddress": "0xf077d4d0508505c5a80249afc10bc6ead90e47f1",
      "function": "makeCrime(uint8)",
      "arguments": [
        "0"
      ],
      "transaction": {
        "from": "0xac56dc5a4a9de0197f7b8f584ea04ec7e0123dde",
        "to": "0xf077d4d0508505c5a80249afc10bc6ead90e47f1",
        "gas": "0x54352",
        "value": "0x0",
        "input": "0xc625abb40000000000000000000000000000000000000000000000000000000000000000",
        "nonce": "0x26d",
        "chainId": "0x171"
      },
      "additionalContracts": [],
      "isFixedGasLimit": false
    }
  ],
  "receipts": [
    {
      "status": "0x1",
      "cumulativeGasUsed": "0x79d24c",
      "logs": [
        {
          "address": "0x74eadd7ebeeed638fd7c413134fa3d3433699d92",
          "topics": [
            "0x570f308d592bed3a47a73125665ce3b81fe296da89acff1af6d926e08a0a9f12"
          ],
          "data": "0x000000000000000000000000ac56dc5a4a9de0197f7b8f584ea04ec7e0123dde0000000000000000000000000000000000000000000000000000000000036ab7",
          "blockHash": "0xa8256b33d4260c6658408bef49d0b8bf0a3b410f24ad6304c6f0c9cf56c6a95d",
          "blockNumber": "0x186635d",
          "transactionHash": "0x07081f8df2a01b151cf5b2f7c87f0b20e6d235c0720e09566164208ffecc136a",
          "transactionIndex": "0x11",
          "logIndex": "0x21a",
          "removed": false
        },
        {
          "address": "0xf077d4d0508505c5a80249afc10bc6ead90e47f1",
          "topics": [
            "0xe36ceebd3770780c5617d53efc7d77328074f1248146245ed3b854cbf651fb37"
          ],
          "data": "0x000000000000000000000000ac56dc5a4a9de0197f7b8f584ea04ec7e0123dde000000000000000000000000000000000000000000000000000000000000000000000000000000000000000000000000000000000000000000000000000000010000000000000000000000000000000000000000000000000000000000000000000000000000000000000000000000000000000000000012c1b6eed03d2800000000000000000000000000000000000000000000000000000000000000000064000000000000000000000000000000000000000000000000000000006970a52b000000000000000000000000000000000000000000000000000000006970a1a7",
          "blockHash": "0xa8256b33d4260c6658408bef49d0b8bf0a3b410f24ad6304c6f0c9cf56c6a95d",
          "blockNumber": "0x186635d",
          "transactionHash": "0x07081f8df2a01b151cf5b2f7c87f0b20e6d235c0720e09566164208ffecc136a",
          "transactionIndex": "0x11",
          "logIndex": "0x21b",
          "removed": false
        }
      ],
      "logsBloom": "0x00000000000000000000000000000000004000000000000000000000400000000000000000000000000000000000000000000000000000000000000000000000000000000000000000008000000000000000000000000000000000000000000000000100000000000000000000000000400000000000000000000000000000000000000000000000000000100000000000000000000020000000000000000008000000000000000000000000000000000010000000000000000000000000000000000000000002000100000000000000000000000000000000000000000000000000000000000000000000000000000000000000000000000000000000000002",
      "type": "0x2",
      "transactionHash": "0x07081f8df2a01b151cf5b2f7c87f0b20e6d235c0720e09566164208ffecc136a",
      "transactionIndex": "0x11",
      "blockHash": "0xa8256b33d4260c6658408bef49d0b8bf0a3b410f24ad6304c6f0c9cf56c6a95d",
      "blockNumber": "0x186635d",
      "gasUsed": "0x3cf70",
      "effectiveGasPrice": "0xf549294d5251",
      "from": "0xac56dc5a4a9de0197f7b8f584ea04ec7e0123dde",
      "to": "0xf077d4d0508505c5a80249afc10bc6ead90e47f1",
      "contractAddress": null
    }
  ],
  "libraries": [],
  "pending": [],
  "returns": {},
  "timestamp": 1768989095666,
  "chain": 369,
  "commit": "953695a"
}