{
  "transactions": [
    {
      "hash": "0x4e1f91b1bfc03daf4b22c42c7416109369943d425fb129e6024a70817f20365a",
      "transactionType": "CALL",
      "contractName": null,
      "contractAddress": "0xf077d4d0508505c5a80249afc10bc6ead90e47f1",
      "function": "makeCrime(uint8)",
      "arguments": [
        "0"
      ],
      "transaction": {
        "from": "0x4c62f6121e6f967a0872da8364995e9b68c1e82f",
        "to": "0xf077d4d0508505c5a80249afc10bc6ead90e47f1",
        "gas": "0x2a297",
        "value": "0x0",
        "input": "0xc625abb40000000000000000000000000000000000000000000000000000000000000000",
        "nonce": "0x745",
        "chainId": "0x171"
      },
      "additionalContracts": [],
      "isFixedGasLimit": false
    }
  ],
  "receipts": [
    {
      "status": "0x1",
      "cumulativeGasUsed": "0x80534b",
      "logs": [
        {
          "address": "0xf077d4d0508505c5a80249afc10bc6ead90e47f1",
          "topics": [
            "0xe36ceebd3770780c5617d53efc7d77328074f1248146245ed3b854cbf651fb37"
          ],
          "data": "0x0000000000000000000000004c62f6121e6f967a0872da8364995e9b68c1e82f0000000000000000000000000000000000000000000000000000000000000000000000000000000000000000000000000000000000000000000000000000000000000000000000000000000000000000000000000000000000000000000000000000000000000000000000000000000000000000000000000000000000000000000000000000000000000000000000000000000000000000000000000000000000000000000000000000000000000000000000000000000000000000697a651b00000000000000000000000000000000000000000000000000000000697a6197",
          "blockHash": "0x70f53b66f03fe8ca1d5c7d6055ae7e6fe9db0142d59d5c42d39d22dd3ad8895c",
          "blockNumber": "0x1875698",
          "transactionHash": "0x4e1f91b1bfc03daf4b22c42c7416109369943d425fb129e6024a70817f20365a",
          "transactionIndex": "0x1b",
          "logIndex": "0xe5",
          "removed": false
        }
      ],
      "logsBloom": "0x00000000000000000000000000000000000000000000000000000000400000000000000000000000000000000000000000000000000000000000000000000000000000000000000000000000000000000000000000000000000000000000000000000000000000000000000000000000400000000000000000000000000000000000000000000000000000100000000000000000000020000000000000000000000000000000000000000000000000000000000000000000000000000000000000000000000000000100000000000000000000000000000000000000000000000000000000000000000000000000000000000000000000000000000000000002",
      "type": "0x2",
      "transactionHash": "0x4e1f91b1bfc03daf4b22c42c7416109369943d425fb129e6024a70817f20365a",
      "transactionIndex": "0x1b",
      "blockHash": "0x70f53b66f03fe8ca1d5c7d6055ae7e6fe9db0142d59d5c42d39d22dd3ad8895c",
      "blockNumber": "0x1875698",
      "gasUsed": "0x1e865",
      "effectiveGasPrice": "0x395499a479410",
      "from": "0x4c62f6121e6f967a0872da8364995e9b68c1e82f",
      "to": "0xf077d4d0508505c5a80249afc10bc6ead90e47f1",
      "contractAddress": null
    }
  ],
  "libraries": [],
  "pending": [],
  "returns": {},
  "timestamp": 1769628055834,
  "chain": 369,
  "commit": null
}