{
  "transactions": [
    {
      "hash": "0x48997c5c5d72890b4d1f8e7ceb5a57fc6ccbcedab21c8e21a33fb3d2392e6162",
      "transactionType": "CALL",
      "contractName": null,
      "contractAddress": "0xf077d4d0508505c5a80249afc10bc6ead90e47f1",
      "function": "makeCrime(uint8)",
      "arguments": [
        "0"
      ],
      "transaction": {
        "from": "0xeca7a53ba6a190c5d205bfdc7707cbc3399336c1",
        "to": "0xf077d4d0508505c5a80249afc10bc6ead90e47f1",
        "gas": "0x41b40",
        "value": "0x0",
        "input": "0xc625abb40000000000000000000000000000000000000000000000000000000000000000",
        "nonce": "0x589",
        "chainId": "0x171"
      },
      "additionalContracts": [],
      "isFixedGasLimit": false
    }
  ],
  "receipts": [
    {
      "status": "0x1",
      "cumulativeGasUsed": "0x5b0d6a",
      "logs": [
        {
          "address": "0xf077d4d0508505c5a80249afc10bc6ead90e47f1",
          "topics": [
            "0xe36ceebd3770780c5617d53efc7d77328074f1248146245ed3b854cbf651fb37"
          ],
          "data": "0x000000000000000000000000eca7a53ba6a190c5d205bfdc7707cbc3399336c10000000000000000000000000000000000000000000000000000000000000000000000000000000000000000000000000000000000000000000000000000000000000000000000000000000000000000000000000000000000000000000000000000000000000000000000000000000000000000000000000000000000000000000000000000000000000000000000000000000000000000000000000000000000000000000000000000000000000000000000000000000000000000698811110000000000000000000000000000000000000000000000000000000069880d8d",
          "blockHash": "0xe78e1a03d2c27dbc967aa78009a4c28fcb5c27a7b83ff8eec912cbb5540cafaa",
          "blockNumber": "0x188abce",
          "transactionHash": "0x48997c5c5d72890b4d1f8e7ceb5a57fc6ccbcedab21c8e21a33fb3d2392e6162",
          "transactionIndex": "0x2f",
          "logIndex": "0x78",
          "removed": false
        }
      ],
      "logsBloom": "0x00000000000000000000000000000000000000000000000000000000400000000000000000000000000000000000000000000000000000000000000000000000000000000000000000000000000000000000000000000000000000000000000000000000000000000000000000000000400000000000000000000000000000000000000000000000000000100000000000000000000020000000000000000000000000000000000000000000000000000000000000000000000000000000000000000000000000000100000000000000000000000000000000000000000000000000000000000000000000000000000000000000000000000000000000000002",
      "type": "0x2",
      "transactionHash": "0x48997c5c5d72890b4d1f8e7ceb5a57fc6ccbcedab21c8e21a33fb3d2392e6162",
      "transactionIndex": "0x2f",
      "blockHash": "0xe78e1a03d2c27dbc967aa78009a4c28fcb5c27a7b83ff8eec912cbb5540cafaa",
      "blockNumber": "0x188abce",
      "gasUsed": "0x1f525",
      "effectiveGasPrice": "0x2bcdbf5a6ed60",
      "from": "0xeca7a53ba6a190c5d205bfdc7707cbc3399336c1",
      "to": "0xf077d4d0508505c5a80249afc10bc6ead90e47f1",
      "contractAddress": null
    }
  ],
  "libraries": [],
  "pending": [],
  "returns": {},
  "timestamp": 1770524047292,
  "chain": 369,
  "commit": null
}