{
  "transactions": [
    {
      "hash": "0xab84180f91a5b620fee03f50346ac03da9100a68ce2500283a7e97dfbdf9f2f5",
      "transactionType": "CALL",
      "contractName": null,
      "contractAddress": "0xf077d4d0508505c5a80249afc10bc6ead90e47f1",
      "function": "makeCrime(uint8)",
      "arguments": [
        "0"
      ],
      "transaction": {
        "from": "0xeca7a53ba6a190c5d205bfdc7707cbc3399336c1",
        "to": "0xf077d4d0508505c5a80249afc10bc6ead90e47f1",
        "gas": "0x41b40",
        "value": "0x0",
        "input": "0xc625abb40000000000000000000000000000000000000000000000000000000000000000",
        "nonce": "0x56d",
        "chainId": "0x171"
      },
      "additionalContracts": [],
      "isFixedGasLimit": false
    }
  ],
  "receipts": [
    {
      "status": "0x1",
      "cumulativeGasUsed": "0x8dc56d",
      "logs": [
        {
          "address": "0x74eadd7ebeeed638fd7c413134fa3d3433699d92",
          "topics": [
            "0x570f308d592bed3a47a73125665ce3b81fe296da89acff1af6d926e08a0a9f12"
          ],
          "data": "0x000000000000000000000000eca7a53ba6a190c5d205bfdc7707cbc3399336c1000000000000000000000000000000000000000000000000000000000002398a",
          "blockHash": "0xa6c80db643f6a88b50199266681ee85d7973d0d57f4b710a96e2330e00256d94",
          "blockNumber": "0x188a2bb",
          "transactionHash": "0xab84180f91a5b620fee03f50346ac03da9100a68ce2500283a7e97dfbdf9f2f5",
          "transactionIndex": "0x26",
          "logIndex": "0xc4",
          "removed": false
        },
        {
          "address": "0xf077d4d0508505c5a80249afc10bc6ead90e47f1",
          "topics": [
            "0xe36ceebd3770780c5617d53efc7d77328074f1248146245ed3b854cbf651fb37"
          ],
          "data": "0x000000000000000000000000eca7a53ba6a190c5d205bfdc7707cbc3399336c1000000000000000000000000000000000000000000000000000000000000000000000000000000000000000000000000000000000000000000000000000000010000000000000000000000000000000000000000000000000000000000000000000000000000000000000000000000000000000000000014542ba12a337c00000000000000000000000000000000000000000000000000000000000000000014000000000000000000000000000000000000000000000000000000006987b40f000000000000000000000000000000000000000000000000000000006987b08b",
          "blockHash": "0xa6c80db643f6a88b50199266681ee85d7973d0d57f4b710a96e2330e00256d94",
          "blockNumber": "0x188a2bb",
          "transactionHash": "0xab84180f91a5b620fee03f50346ac03da9100a68ce2500283a7e97dfbdf9f2f5",
          "transactionIndex": "0x26",
          "logIndex": "0xc5",
          "removed": false
        }
      ],
      "logsBloom": "0x00000000000000000000000000000000004000000000000000000000400000000000000000000000000000000000000000000000000000000000000000000000000000000000000000008000000000000000000000000000000000000000000000000100000000000000000000000000400000000000000000000000000000000000000000000000000000100000000000000000000020000000000000000008000000000000000000000000000000000010000000000000000000000000000000000000000002000100000000000000000000000000000000000000000000000000000000000000000000000000000000000000000000000000000000000002",
      "type": "0x2",
      "transactionHash": "0xab84180f91a5b620fee03f50346ac03da9100a68ce2500283a7e97dfbdf9f2f5",
      "transactionIndex": "0x26",
      "blockHash": "0xa6c80db643f6a88b50199266681ee85d7973d0d57f4b710a96e2330e00256d94",
      "blockNumber": "0x188a2bb",
      "gasUsed": "0x3e2cd",
      "effectiveGasPrice": "0x45a38d4c59b3e",
      "from": "0xeca7a53ba6a190c5d205bfdc7707cbc3399336c1",
      "to": "0xf077d4d0508505c5a80249afc10bc6ead90e47f1",
      "contractAddress": null
    }
  ],
  "libraries": [],
  "pending": [],
  "returns": {},
  "timestamp": 1770500236082,
  "chain": 369,
  "commit": null
}