{
  "transactions": [
    {
      "hash": "0x04cb125f9fb8f055a9e667ac9e6596f807c0c75fdc22142998db82a7fc9403f6",
      "transactionType": "CALL",
      "contractName": null,
      "contractAddress": "0xf077d4d0508505c5a80249afc10bc6ead90e47f1",
      "function": "makeCrime(uint8)",
      "arguments": [
        "0"
      ],
      "transaction": {
        "from": "0x4c62f6121e6f967a0872da8364995e9b68c1e82f",
        "to": "0xf077d4d0508505c5a80249afc10bc6ead90e47f1",
        "gas": "0x409a4",
        "value": "0x0",
        "input": "0xc625abb40000000000000000000000000000000000000000000000000000000000000000",
        "nonce": "0x962",
        "chainId": "0x171"
      },
      "additionalContracts": [],
      "isFixedGasLimit": false
    }
  ],
  "receipts": [
    {
      "status": "0x1",
      "cumulativeGasUsed": "0x82444e",
      "logs": [
        {
          "address": "0xf077d4d0508505c5a80249afc10bc6ead90e47f1",
          "topics": [
            "0xe36ceebd3770780c5617d53efc7d77328074f1248146245ed3b854cbf651fb37"
          ],
          "data": "0x0000000000000000000000004c62f6121e6f967a0872da8364995e9b68c1e82f00000000000000000000000000000000000000000000000000000000000000000000000000000000000000000000000000000000000000000000000000000000000000000000000000000000000000000000000000000000000000000000000000000000000000000000000000000000000000000000000000000000000000000000000000000000000000000000000000000000000000000000000000000000000000000000000000000000000000000000000000000000000000006987aa37000000000000000000000000000000000000000000000000000000006987a6b3",
          "blockHash": "0x0a5e86f4e73fd7b682fdc1aeb82065e361ad6bbd9d80aee89ccd72f0fb313e37",
          "blockNumber": "0x188a1c2",
          "transactionHash": "0x04cb125f9fb8f055a9e667ac9e6596f807c0c75fdc22142998db82a7fc9403f6",
          "transactionIndex": "0x13",
          "logIndex": "0xe7",
          "removed": false
        }
      ],
      "logsBloom": "0x00000000000000000000000000000000000000000000000000000000400000000000000000000000000000000000000000000000000000000000000000000000000000000000000000000000000000000000000000000000000000000000000000000000000000000000000000000000400000000000000000000000000000000000000000000000000000100000000000000000000020000000000000000000000000000000000000000000000000000000000000000000000000000000000000000000000000000100000000000000000000000000000000000000000000000000000000000000000000000000000000000000000000000000000000000002",
      "type": "0x2",
      "transactionHash": "0x04cb125f9fb8f055a9e667ac9e6596f807c0c75fdc22142998db82a7fc9403f6",
      "transactionIndex": "0x13",
      "blockHash": "0x0a5e86f4e73fd7b682fdc1aeb82065e361ad6bbd9d80aee89ccd72f0fb313e37",
      "blockNumber": "0x188a1c2",
      "gasUsed": "0x1e865",
      "effectiveGasPrice": "0x2c42c6cb3ec20",
      "from": "0x4c62f6121e6f967a0872da8364995e9b68c1e82f",
      "to": "0xf077d4d0508505c5a80249afc10bc6ead90e47f1",
      "contractAddress": null
    }
  ],
  "libraries": [],
  "pending": [],
  "returns": {},
  "timestamp": 1770497715807,
  "chain": 369,
  "commit": null
}