{
  "transactions": [
    {
      "hash": "0xbfd873db5bef37a66d35e4558d6dafea276df1cfcbf18a438a504e0d3b71ed8a",
      "transactionType": "CALL",
      "contractName": null,
      "contractAddress": "0xf077d4d0508505c5a80249afc10bc6ead90e47f1",
      "function": "makeCrime(uint8)",
      "arguments": [
        "0"
      ],
      "transaction": {
        "from": "0xeca7a53ba6a190c5d205bfdc7707cbc3399336c1",
        "to": "0xf077d4d0508505c5a80249afc10bc6ead90e47f1",
        "gas": "0x41b40",
        "value": "0x0",
        "input": "0xc625abb40000000000000000000000000000000000000000000000000000000000000000",
        "nonce": "0x578",
        "chainId": "0x171"
      },
      "additionalContracts": [],
      "isFixedGasLimit": false
    }
  ],
  "receipts": [
    {
      "status": "0x1",
      "cumulativeGasUsed": "0x6b06a0",
      "logs": [
        {
          "address": "0x74eadd7ebeeed638fd7c413134fa3d3433699d92",
          "topics": [
            "0x570f308d592bed3a47a73125665ce3b81fe296da89acff1af6d926e08a0a9f12"
          ],
          "data": "0x000000000000000000000000eca7a53ba6a190c5d205bfdc7707cbc3399336c10000000000000000000000000000000000000000000000000000000000023a8e",
          "blockHash": "0x33d6e58e9024528a75ddb69122c074fa96435afee22c9bc051734c03bd4d4a30",
          "blockNumber": "0x188a584",
          "transactionHash": "0xbfd873db5bef37a66d35e4558d6dafea276df1cfcbf18a438a504e0d3b71ed8a",
          "transactionIndex": "0x22",
          "logIndex": "0x92",
          "removed": false
        },
        {
          "address": "0xf077d4d0508505c5a80249afc10bc6ead90e47f1",
          "topics": [
            "0xe36ceebd3770780c5617d53efc7d77328074f1248146245ed3b854cbf651fb37"
          ],
          "data": "0x000000000000000000000000eca7a53ba6a190c5d205bfdc7707cbc3399336c10000000000000000000000000000000000000000000000000000000000000000000000000000000000000000000000000000000000000000000000000000000100000000000000000000000000000000000000000000000000000000000000000000000000000000000000000000000000000000000000129814cab546fc00000000000000000000000000000000000000000000000000000000000000000014000000000000000000000000000000000000000000000000000000006987d0c5000000000000000000000000000000000000000000000000000000006987cd41",
          "blockHash": "0x33d6e58e9024528a75ddb69122c074fa96435afee22c9bc051734c03bd4d4a30",
          "blockNumber": "0x188a584",
          "transactionHash": "0xbfd873db5bef37a66d35e4558d6dafea276df1cfcbf18a438a504e0d3b71ed8a",
          "transactionIndex": "0x22",
          "logIndex": "0x93",
          "removed": false
        }
      ],
      "logsBloom": "0x00000000000000000000000000000000004000000000000000000000400000000000000000000000000000000000000000000000000000000000000000000000000000000000000000008000000000000000000000000000000000000000000000000100000000000000000000000000400000000000000000000000000000000000000000000000000000100000000000000000000020000000000000000008000000000000000000000000000000000010000000000000000000000000000000000000000002000100000000000000000000000000000000000000000000000000000000000000000000000000000000000000000000000000000000000002",
      "type": "0x2",
      "transactionHash": "0xbfd873db5bef37a66d35e4558d6dafea276df1cfcbf18a438a504e0d3b71ed8a",
      "transactionIndex": "0x22",
      "blockHash": "0x33d6e58e9024528a75ddb69122c074fa96435afee22c9bc051734c03bd4d4a30",
      "blockNumber": "0x188a584",
      "gasUsed": "0x3e2cd",
      "effectiveGasPrice": "0x2f93bf08aa4af",
      "from": "0xeca7a53ba6a190c5d205bfdc7707cbc3399336c1",
      "to": "0xf077d4d0508505c5a80249afc10bc6ead90e47f1",
      "contractAddress": null
    }
  ],
  "libraries": [],
  "pending": [],
  "returns": {},
  "timestamp": 1770507585882,
  "chain": 369,
  "commit": null
}