{
  "transactions": [
    {
      "hash": "0x158b8dc809b67742293498cb2d6b568683d519e3ee04e5e3b2b396148eac13dc",
      "transactionType": "CALL",
      "contractName": null,
      "contractAddress": "0xf077d4d0508505c5a80249afc10bc6ead90e47f1",
      "function": "makeCrime(uint8)",
      "arguments": [
        "0"
      ],
      "transaction": {
        "from": "0xeca7a53ba6a190c5d205bfdc7707cbc3399336c1",
        "to": "0xf077d4d0508505c5a80249afc10bc6ead90e47f1",
        "gas": "0x41b40",
        "value": "0x0",
        "input": "0xc625abb40000000000000000000000000000000000000000000000000000000000000000",
        "nonce": "0x577",
        "chainId": "0x171"
      },
      "additionalContracts": [],
      "isFixedGasLimit": false
    }
  ],
  "receipts": [
    {
      "status": "0x1",
      "cumulativeGasUsed": "0xd880af",
      "logs": [
        {
          "address": "0x74eadd7ebeeed638fd7c413134fa3d3433699d92",
          "topics": [
            "0x570f308d592bed3a47a73125665ce3b81fe296da89acff1af6d926e08a0a9f12"
          ],
          "data": "0x000000000000000000000000eca7a53ba6a190c5d205bfdc7707cbc3399336c10000000000000000000000000000000000000000000000000000000000023a7a",
          "blockHash": "0xe4ded1bfbcfac3764f1307b27e706109095264d4513c3e53d367b5ff950707e4",
          "blockNumber": "0x188a52e",
          "transactionHash": "0x158b8dc809b67742293498cb2d6b568683d519e3ee04e5e3b2b396148eac13dc",
          "transactionIndex": "0x1c",
          "logIndex": "0x1f5",
          "removed": false
        },
        {
          "address": "0xf077d4d0508505c5a80249afc10bc6ead90e47f1",
          "topics": [
            "0xe36ceebd3770780c5617d53efc7d77328074f1248146245ed3b854cbf651fb37"
          ],
          "data": "0x000000000000000000000000eca7a53ba6a190c5d205bfdc7707cbc3399336c1000000000000000000000000000000000000000000000000000000000000000000000000000000000000000000000000000000000000000000000000000000010000000000000000000000000000000000000000000000000000000000000000000000000000000000000000000000000000000000000019dbb46cbee55400000000000000000000000000000000000000000000000000000000000000000014000000000000000000000000000000000000000000000000000000006987cd2d000000000000000000000000000000000000000000000000000000006987c9a9",
          "blockHash": "0xe4ded1bfbcfac3764f1307b27e706109095264d4513c3e53d367b5ff950707e4",
          "blockNumber": "0x188a52e",
          "transactionHash": "0x158b8dc809b67742293498cb2d6b568683d519e3ee04e5e3b2b396148eac13dc",
          "transactionIndex": "0x1c",
          "logIndex": "0x1f6",
          "removed": false
        }
      ],
      "logsBloom": "0x00000000000000000000000000000000004000000000000000000000400000000000000000000000000000000000000000000000000000000000000000000000000000000000000000008000000000000000000000000000000000000000000000000100000000000000000000000000400000000000000000000000000000000000000000000000000000100000000000000000000020000000000000000008000000000000000000000000000000000010000000000000000000000000000000000000000002000100000000000000000000000000000000000000000000000000000000000000000000000000000000000000000000000000000000000002",
      "type": "0x2",
      "transactionHash": "0x158b8dc809b67742293498cb2d6b568683d519e3ee04e5e3b2b396148eac13dc",
      "transactionIndex": "0x1c",
      "blockHash": "0xe4ded1bfbcfac3764f1307b27e706109095264d4513c3e53d367b5ff950707e4",
      "blockNumber": "0x188a52e",
      "gasUsed": "0x3e2cd",
      "effectiveGasPrice": "0x27469c55b3be4",
      "from": "0xeca7a53ba6a190c5d205bfdc7707cbc3399336c1",
      "to": "0xf077d4d0508505c5a80249afc10bc6ead90e47f1",
      "contractAddress": null
    }
  ],
  "libraries": [],
  "pending": [],
  "returns": {},
  "timestamp": 1770506666482,
  "chain": 369,
  "commit": null
}