{
  "transactions": [
    {
      "hash": "0xa40650f88de787759bbe617478233682c892242d3bdc2517a62fdf92a251dce8",
      "transactionType": "CALL",
      "contractName": null,
      "contractAddress": "0xf077d4d0508505c5a80249afc10bc6ead90e47f1",
      "function": "makeCrime(uint8)",
      "arguments": [
        "0"
      ],
      "transaction": {
        "from": "0x4c62f6121e6f967a0872da8364995e9b68c1e82f",
        "to": "0xf077d4d0508505c5a80249afc10bc6ead90e47f1",
        "gas": "0x53c96",
        "value": "0x0",
        "input": "0xc625abb40000000000000000000000000000000000000000000000000000000000000000",
        "nonce": "0x70f",
        "chainId": "0x171"
      },
      "additionalContracts": [],
      "isFixedGasLimit": false
    }
  ],
  "receipts": [
    {
      "status": "0x1",
      "cumulativeGasUsed": "0x161372d",
      "logs": [
        {
          "address": "0xdcd5e9c0b2b4e9cb93677a258521d854b3a9f5a1",
          "topics": [
            "0x0bff5315606c84d1cee047503678048ca39946be11bfdd5a8c03fe5e272d98e3"
          ],
          "data": "0x0000000000000000000000004c62f6121e6f967a0872da8364995e9b68c1e82f0000000000000000000000000000000000000000000000000000000069796e4f0000000000000000000000000000000000000000000000000000000000000000",
          "blockHash": "0xb8df3d8332ae25ede4349ac5bb7340babba6faecd169c8aad1de36777fc0d907",
          "blockNumber": "0x1873e48",
          "transactionHash": "0xa40650f88de787759bbe617478233682c892242d3bdc2517a62fdf92a251dce8",
          "transactionIndex": "0x28",
          "logIndex": "0x2fa",
          "removed": false
        },
        {
          "address": "0xf077d4d0508505c5a80249afc10bc6ead90e47f1",
          "topics": [
            "0xe36ceebd3770780c5617d53efc7d77328074f1248146245ed3b854cbf651fb37"
          ],
          "data": "0x0000000000000000000000004c62f6121e6f967a0872da8364995e9b68c1e82f000000000000000000000000000000000000000000000000000000000000000000000000000000000000000000000000000000000000000000000000000000000000000000000000000000000000000000000000000000000000000000000001000000000000000000000000000000000000000000000000000000000000000000000000000000000000000000000000000000000000000000000000000000000000000000000000000000000000000000000000000000000000000069796c8d0000000000000000000000000000000000000000000000000000000069796909",
          "blockHash": "0xb8df3d8332ae25ede4349ac5bb7340babba6faecd169c8aad1de36777fc0d907",
          "blockNumber": "0x1873e48",
          "transactionHash": "0xa40650f88de787759bbe617478233682c892242d3bdc2517a62fdf92a251dce8",
          "transactionIndex": "0x28",
          "logIndex": "0x2fb",
          "removed": false
        }
      ],
      "logsBloom": "0x00000000000000000000000000000000010000000000000000000000400000000000000000000000000000000000000000000000000000000000000000000000000000000000000000000000000000000000000000000000001000000000000000000000000000000000000000000000400000000080000000000000000000000000000000000000000000100000000000000000000020000000000000000000000000000000000000000000000000000000000000000000400000000000000000000000000000000100000000000040000000000000000000000000000000000000000000000000000000000000000000000000000000000000000000001002",
      "type": "0x2",
      "transactionHash": "0xa40650f88de787759bbe617478233682c892242d3bdc2517a62fdf92a251dce8",
      "transactionIndex": "0x28",
      "blockHash": "0xb8df3d8332ae25ede4349ac5bb7340babba6faecd169c8aad1de36777fc0d907",
      "blockNumber": "0x1873e48",
      "gasUsed": "0x2e370",
      "effectiveGasPrice": "0x2827501fc82e4",
      "from": "0x4c62f6121e6f967a0872da8364995e9b68c1e82f",
      "to": "0xf077d4d0508505c5a80249afc10bc6ead90e47f1",
      "contractAddress": null
    }
  ],
  "libraries": [],
  "pending": [],
  "returns": {},
  "timestamp": 1769564425857,
  "chain": 369,
  "commit": null
}