{
  "transactions": [
    {
      "hash": "0xeae62299de0fc54cc1a4115d5563c61766ddf718262621a2f395d82f839d02b2",
      "transactionType": "CALL",
      "contractName": null,
      "contractAddress": "0xf077d4d0508505c5a80249afc10bc6ead90e47f1",
      "function": "makeCrime(uint8)",
      "arguments": [
        "0"
      ],
      "transaction": {
        "from": "0xac56dc5a4a9de0197f7b8f584ea04ec7e0123dde",
        "to": "0xf077d4d0508505c5a80249afc10bc6ead90e47f1",
        "gas": "0x54352",
        "value": "0x0",
        "input": "0xc625abb40000000000000000000000000000000000000000000000000000000000000000",
        "nonce": "0x378",
        "chainId": "0x171"
      },
      "additionalContracts": [],
      "isFixedGasLimit": false
    }
  ],
  "receipts": [
    {
      "status": "0x1",
      "cumulativeGasUsed": "0x693d11",
      "logs": [
        {
          "address": "0x74eadd7ebeeed638fd7c413134fa3d3433699d92",
          "topics": [
            "0x570f308d592bed3a47a73125665ce3b81fe296da89acff1af6d926e08a0a9f12"
          ],
          "data": "0x000000000000000000000000ac56dc5a4a9de0197f7b8f584ea04ec7e0123dde000000000000000000000000000000000000000000000000000000000003860f",
          "blockHash": "0x8594d3bdf276f654306d98d9c5dc6c89d60db6f2ae9db3cac1f7547811a2d904",
          "blockNumber": "0x187489f",
          "transactionHash": "0xeae62299de0fc54cc1a4115d5563c61766ddf718262621a2f395d82f839d02b2",
          "transactionIndex": "0x1c",
          "logIndex": "0xc4",
          "removed": false
        },
        {
          "address": "0xf077d4d0508505c5a80249afc10bc6ead90e47f1",
          "topics": [
            "0xe36ceebd3770780c5617d53efc7d77328074f1248146245ed3b854cbf651fb37"
          ],
          "data": "0x000000000000000000000000ac56dc5a4a9de0197f7b8f584ea04ec7e0123dde000000000000000000000000000000000000000000000000000000000000000000000000000000000000000000000000000000000000000000000000000000010000000000000000000000000000000000000000000000000000000000000000000000000000000000000000000000000000000000000016e06d2c25eed800000000000000000000000000000000000000000000000000000000000000000064000000000000000000000000000000000000000000000000000000006979d687000000000000000000000000000000000000000000000000000000006979d303",
          "blockHash": "0x8594d3bdf276f654306d98d9c5dc6c89d60db6f2ae9db3cac1f7547811a2d904",
          "blockNumber": "0x187489f",
          "transactionHash": "0xeae62299de0fc54cc1a4115d5563c61766ddf718262621a2f395d82f839d02b2",
          "transactionIndex": "0x1c",
          "logIndex": "0xc5",
          "removed": false
        }
      ],
      "logsBloom": "0x00000000000000000000000000000000004000000000000000000000400000000000000000000000000000000000000000000000000000000000000000000000000000000000000000008000000000000000000000000000000000000000000000000100000000000000000000000000400000000000000000000000000000000000000000000000000000100000000000000000000020000000000000000008000000000000000000000000000000000010000000000000000000000000000000000000000002000100000000000000000000000000000000000000000000000000000000000000000000000000000000000000000000000000000000000002",
      "type": "0x2",
      "transactionHash": "0xeae62299de0fc54cc1a4115d5563c61766ddf718262621a2f395d82f839d02b2",
      "transactionIndex": "0x1c",
      "blockHash": "0x8594d3bdf276f654306d98d9c5dc6c89d60db6f2ae9db3cac1f7547811a2d904",
      "blockNumber": "0x187489f",
      "gasUsed": "0x3cf70",
      "effectiveGasPrice": "0x1877e07781189",
      "from": "0xac56dc5a4a9de0197f7b8f584ea04ec7e0123dde",
      "to": "0xf077d4d0508505c5a80249afc10bc6ead90e47f1",
      "contractAddress": null
    }
  ],
  "libraries": [],
  "pending": [],
  "returns": {},
  "timestamp": 1769591556969,
  "chain": 369,
  "commit": null
}