{
  "transactions": [
    {
      "hash": "0x369a1b159d358c5adaa08607e13d29b51d6503727e2d1be7cc75ec543a343b31",
      "transactionType": "CALL",
      "contractName": null,
      "contractAddress": "0xf077d4d0508505c5a80249afc10bc6ead90e47f1",
      "function": "makeCrime(uint8)",
      "arguments": [
        "0"
      ],
      "transaction": {
        "from": "0xec646a6c9000e04d050435340d9c42c039eb5648",
        "to": "0xf077d4d0508505c5a80249afc10bc6ead90e47f1",
        "gas": "0x54be5",
        "value": "0x0",
        "input": "0xc625abb40000000000000000000000000000000000000000000000000000000000000000",
        "nonce": "0x45",
        "chainId": "0x171"
      },
      "additionalContracts": [],
      "isFixedGasLimit": false
    }
  ],
  "receipts": [
    {
      "status": "0x1",
      "cumulativeGasUsed": "0x5a9ec6",
      "logs": [
        {
          "address": "0x74eadd7ebeeed638fd7c413134fa3d3433699d92",
          "topics": [
            "0x570f308d592bed3a47a73125665ce3b81fe296da89acff1af6d926e08a0a9f12"
          ],
          "data": "0x000000000000000000000000ec646a6c9000e04d050435340d9c42c039eb564800000000000000000000000000000000000000000000000000000000000003e8",
          "blockHash": "0xec8ea72129e2ff16371da3f367297231bb65cfe4f59daa61769b154eb4a1ec40",
          "blockNumber": "0x188adb7",
          "transactionHash": "0x369a1b159d358c5adaa08607e13d29b51d6503727e2d1be7cc75ec543a343b31",
          "transactionIndex": "0xf",
          "logIndex": "0x81",
          "removed": false
        },
        {
          "address": "0xf077d4d0508505c5a80249afc10bc6ead90e47f1",
          "topics": [
            "0xe36ceebd3770780c5617d53efc7d77328074f1248146245ed3b854cbf651fb37"
          ],
          "data": "0x000000000000000000000000ec646a6c9000e04d050435340d9c42c039eb564800000000000000000000000000000000000000000000000000000000000000000000000000000000000000000000000000000000000000000000000000000001000000000000000000000000000000000000000000000000000000000000000000000000000000000000000000000000000000000000000fb88ef7839f480000000000000000000000000000000000000000000000000000000000000000006400000000000000000000000000000000000000000000000000000000698824a3000000000000000000000000000000000000000000000000000000006988211f",
          "blockHash": "0xec8ea72129e2ff16371da3f367297231bb65cfe4f59daa61769b154eb4a1ec40",
          "blockNumber": "0x188adb7",
          "transactionHash": "0x369a1b159d358c5adaa08607e13d29b51d6503727e2d1be7cc75ec543a343b31",
          "transactionIndex": "0xf",
          "logIndex": "0x82",
          "removed": false
        }
      ],
      "logsBloom": "0x00000000000000000000000000000000004000000000000000000000400000000000000000000000000000000000000000000000000000000000000000000000000000000000000000008000000000000000000000000000000000000000000000000100000000000000000000000000400000000000000000000000000000000000000000000000000000100000000000000000000020000000000000000008000000000000000000000000000000000010000000000000000000000000000000000000000002000100000000000000000000000000000000000000000000000000000000000000000000000000000000000000000000000000000000000002",
      "type": "0x2",
      "transactionHash": "0x369a1b159d358c5adaa08607e13d29b51d6503727e2d1be7cc75ec543a343b31",
      "transactionIndex": "0xf",
      "blockHash": "0xec8ea72129e2ff16371da3f367297231bb65cfe4f59daa61769b154eb4a1ec40",
      "blockNumber": "0x188adb7",
      "gasUsed": "0x3d5a5",
      "effectiveGasPrice": "0x26b0365f5d3c1",
      "from": "0xec646a6c9000e04d050435340d9c42c039eb5648",
      "to": "0xf077d4d0508505c5a80249afc10bc6ead90e47f1",
      "contractAddress": null
    }
  ],
  "libraries": [],
  "pending": [],
  "returns": {},
  "timestamp": 1770529056923,
  "chain": 369,
  "commit": null
}