{
  "transactions": [
    {
      "hash": "0xd8fc0f516fdcb0419e54e28c21203c11aefb8047623d482570e6bb724a829c07",
      "transactionType": "CALL",
      "contractName": null,
      "contractAddress": "0xf077d4d0508505c5a80249afc10bc6ead90e47f1",
      "function": "makeCrime(uint8)",
      "arguments": [
        "0"
      ],
      "transaction": {
        "from": "0xeca7a53ba6a190c5d205bfdc7707cbc3399336c1",
        "to": "0xf077d4d0508505c5a80249afc10bc6ead90e47f1",
        "gas": "0x2b434",
        "value": "0x0",
        "input": "0xc625abb40000000000000000000000000000000000000000000000000000000000000000",
        "nonce": "0x2a6",
        "chainId": "0x171"
      },
      "additionalContracts": [],
      "isFixedGasLimit": false
    }
  ],
  "receipts": [
    {
      "status": "0x1",
      "cumulativeGasUsed": "0x5778e3",
      "logs": [
        {
          "address": "0xf077d4d0508505c5a80249afc10bc6ead90e47f1",
          "topics": [
            "0xe36ceebd3770780c5617d53efc7d77328074f1248146245ed3b854cbf651fb37"
          ],
          "data": "0x000000000000000000000000eca7a53ba6a190c5d205bfdc7707cbc3399336c100000000000000000000000000000000000000000000000000000000000000000000000000000000000000000000000000000000000000000000000000000000000000000000000000000000000000000000000000000000000000000000000000000000000000000000000000000000000000000000000000000000000000000000000000000000000000000000000000000000000000000000000000000000000000000000000000000000000000000000000000000000000000006975339d0000000000000000000000000000000000000000000000000000000069753019",
          "blockHash": "0xcd08da3553526ce60185519573d4f35ee9871a53ed6837f16165a426f6987e97",
          "blockNumber": "0x186d4d9",
          "transactionHash": "0xd8fc0f516fdcb0419e54e28c21203c11aefb8047623d482570e6bb724a829c07",
          "transactionIndex": "0x25",
          "logIndex": "0xd5",
          "removed": false
        }
      ],
      "logsBloom": "0x00000000000000000000000000000000000000000000000000000000400000000000000000000000000000000000000000000000000000000000000000000000000000000000000000000000000000000000000000000000000000000000000000000000000000000000000000000000400000000000000000000000000000000000000000000000000000100000000000000000000020000000000000000000000000000000000000000000000000000000000000000000000000000000000000000000000000000100000000000000000000000000000000000000000000000000000000000000000000000000000000000000000000000000000000000002",
      "type": "0x2",
      "transactionHash": "0xd8fc0f516fdcb0419e54e28c21203c11aefb8047623d482570e6bb724a829c07",
      "transactionIndex": "0x25",
      "blockHash": "0xcd08da3553526ce60185519573d4f35ee9871a53ed6837f16165a426f6987e97",
      "blockNumber": "0x186d4d9",
      "gasUsed": "0x1f525",
      "effectiveGasPrice": "0xbd6cedf72cd7d0",
      "from": "0xeca7a53ba6a190c5d205bfdc7707cbc3399336c1",
      "to": "0xf077d4d0508505c5a80249afc10bc6ead90e47f1",
      "contractAddress": null
    }
  ],
  "libraries": [],
  "pending": [],
  "returns": {},
  "timestamp": 1769287706260,
  "chain": 369,
  "commit": "953695a"
}