{
  "transactions": [
    {
      "hash": "0x7492b9dc1dded774fce5d7b70e4ae4f3869da666803ccccd9f8a4668d7e8c180",
      "transactionType": "CALL",
      "contractName": null,
      "contractAddress": "0xf077d4d0508505c5a80249afc10bc6ead90e47f1",
      "function": "makeCrime(uint8)",
      "arguments": [
        "0"
      ],
      "transaction": {
        "from": "0xeca7a53ba6a190c5d205bfdc7707cbc3399336c1",
        "to": "0xf077d4d0508505c5a80249afc10bc6ead90e47f1",
        "gas": "0x41b40",
        "value": "0x0",
        "input": "0xc625abb40000000000000000000000000000000000000000000000000000000000000000",
        "nonce": "0x56a",
        "chainId": "0x171"
      },
      "additionalContracts": [],
      "isFixedGasLimit": false
    }
  ],
  "receipts": [
    {
      "status": "0x1",
      "cumulativeGasUsed": "0x17b64ce",
      "logs": [
        {
          "address": "0x74eadd7ebeeed638fd7c413134fa3d3433699d92",
          "topics": [
            "0x570f308d592bed3a47a73125665ce3b81fe296da89acff1af6d926e08a0a9f12"
          ],
          "data": "0x000000000000000000000000eca7a53ba6a190c5d205bfdc7707cbc3399336c10000000000000000000000000000000000000000000000000000000000023976",
          "blockHash": "0x7ad1e226fd5a94cd381764eb183c38c542f5fb21a965140fff75c2ce6343421f",
          "blockNumber": "0x188a166",
          "transactionHash": "0x7492b9dc1dded774fce5d7b70e4ae4f3869da666803ccccd9f8a4668d7e8c180",
          "transactionIndex": "0x4f",
          "logIndex": "0x228",
          "removed": false
        },
        {
          "address": "0xf077d4d0508505c5a80249afc10bc6ead90e47f1",
          "topics": [
            "0xe36ceebd3770780c5617d53efc7d77328074f1248146245ed3b854cbf651fb37"
          ],
          "data": "0x000000000000000000000000eca7a53ba6a190c5d205bfdc7707cbc3399336c100000000000000000000000000000000000000000000000000000000000000000000000000000000000000000000000000000000000000000000000000000001000000000000000000000000000000000000000000000000000000000000000000000000000000000000000000000000000000000000001ab9bfd7f95b9400000000000000000000000000000000000000000000000000000000000000000014000000000000000000000000000000000000000000000000000000006987a681000000000000000000000000000000000000000000000000000000006987a2fd",
          "blockHash": "0x7ad1e226fd5a94cd381764eb183c38c542f5fb21a965140fff75c2ce6343421f",
          "blockNumber": "0x188a166",
          "transactionHash": "0x7492b9dc1dded774fce5d7b70e4ae4f3869da666803ccccd9f8a4668d7e8c180",
          "transactionIndex": "0x4f",
          "logIndex": "0x229",
          "removed": false
        }
      ],
      "logsBloom": "0x00000000000000000000000000000000004000000000000000000000400000000000000000000000000000000000000000000000000000000000000000000000000000000000000000008000000000000000000000000000000000000000000000000100000000000000000000000000400000000000000000000000000000000000000000000000000000100000000000000000000020000000000000000008000000000000000000000000000000000010000000000000000000000000000000000000000002000100000000000000000000000000000000000000000000000000000000000000000000000000000000000000000000000000000000000002",
      "type": "0x2",
      "transactionHash": "0x7492b9dc1dded774fce5d7b70e4ae4f3869da666803ccccd9f8a4668d7e8c180",
      "transactionIndex": "0x4f",
      "blockHash": "0x7ad1e226fd5a94cd381764eb183c38c542f5fb21a965140fff75c2ce6343421f",
      "blockNumber": "0x188a166",
      "gasUsed": "0x3e2cd",
      "effectiveGasPrice": "0x3016fe96b2c60",
      "from": "0xeca7a53ba6a190c5d205bfdc7707cbc3399336c1",
      "to": "0xf077d4d0508505c5a80249afc10bc6ead90e47f1",
      "contractAddress": null
    }
  ],
  "libraries": [],
  "pending": [],
  "returns": {},
  "timestamp": 1770496767955,
  "chain": 369,
  "commit": null
}