{
  "transactions": [
    {
      "hash": "0x7ff3505fdef355b192db3236323cfa9be862bc7e43fad39a49fabb0b3aabdb19",
      "transactionType": "CALL",
      "contractName": null,
      "contractAddress": "0xf077d4d0508505c5a80249afc10bc6ead90e47f1",
      "function": "makeCrime(uint8)",
      "arguments": [
        "0"
      ],
      "transaction": {
        "from": "0xaa73aa98480757d75aae288b5931261448eb0530",
        "to": "0xf077d4d0508505c5a80249afc10bc6ead90e47f1",
        "gas": "0x54be5",
        "value": "0x0",
        "input": "0xc625abb40000000000000000000000000000000000000000000000000000000000000000",
        "nonce": "0x60",
        "chainId": "0x171"
      },
      "additionalContracts": [],
      "isFixedGasLimit": false
    }
  ],
  "receipts": [
    {
      "status": "0x1",
      "cumulativeGasUsed": "0x392fdf",
      "logs": [
        {
          "address": "0xdcd5e9c0b2b4e9cb93677a258521d854b3a9f5a1",
          "topics": [
            "0x0bff5315606c84d1cee047503678048ca39946be11bfdd5a8c03fe5e272d98e3"
          ],
          "data": "0x000000000000000000000000aa73aa98480757d75aae288b5931261448eb0530000000000000000000000000000000000000000000000000000000006988130f0000000000000000000000000000000000000000000000000000000000000000",
          "blockHash": "0x41ce3d9b17b0577924f029f82018be5865bbcf4f63cb0f449d59441f17c21a6a",
          "blockNumber": "0x188abd4",
          "transactionHash": "0x7ff3505fdef355b192db3236323cfa9be862bc7e43fad39a49fabb0b3aabdb19",
          "transactionIndex": "0x2a",
          "logIndex": "0x35",
          "removed": false
        },
        {
          "address": "0xf077d4d0508505c5a80249afc10bc6ead90e47f1",
          "topics": [
            "0xe36ceebd3770780c5617d53efc7d77328074f1248146245ed3b854cbf651fb37"
          ],
          "data": "0x000000000000000000000000aa73aa98480757d75aae288b5931261448eb053000000000000000000000000000000000000000000000000000000000000000000000000000000000000000000000000000000000000000000000000000000000000000000000000000000000000000000000000000000000000000000000000100000000000000000000000000000000000000000000000000000000000000000000000000000000000000000000000000000000000000000000000000000000000000000000000000000000000000000000000000000000000000006988114d0000000000000000000000000000000000000000000000000000000069880dc9",
          "blockHash": "0x41ce3d9b17b0577924f029f82018be5865bbcf4f63cb0f449d59441f17c21a6a",
          "blockNumber": "0x188abd4",
          "transactionHash": "0x7ff3505fdef355b192db3236323cfa9be862bc7e43fad39a49fabb0b3aabdb19",
          "transactionIndex": "0x2a",
          "logIndex": "0x36",
          "removed": false
        }
      ],
      "logsBloom": "0x00000000000000000000000000000000010000000000000000000000400000000000000000000000000000000000000000000000000000000000000000000000000000000000000000000000000000000000000000000000001000000000000000000000000000000000000000000000400000000080000000000000000000000000000000000000000000100000000000000000000020000000000000000000000000000000000000000000000000000000000000000000400000000000000000000000000000000100000000000040000000000000000000000000000000000000000000000000000000000000000000000000000000000000000000001002",
      "type": "0x2",
      "transactionHash": "0x7ff3505fdef355b192db3236323cfa9be862bc7e43fad39a49fabb0b3aabdb19",
      "transactionIndex": "0x2a",
      "blockHash": "0x41ce3d9b17b0577924f029f82018be5865bbcf4f63cb0f449d59441f17c21a6a",
      "blockNumber": "0x188abd4",
      "gasUsed": "0x2ec57",
      "effectiveGasPrice": "0x332c3c6e637b8",
      "from": "0xaa73aa98480757d75aae288b5931261448eb0530",
      "to": "0xf077d4d0508505c5a80249afc10bc6ead90e47f1",
      "contractAddress": null
    }
  ],
  "libraries": [],
  "pending": [],
  "returns": {},
  "timestamp": 1770524105600,
  "chain": 369,
  "commit": null
}