{
  "transactions": [
    {
      "hash": "0xd01b9d4231d848de0e114d961d0242fc43b68efec8fb3b068786c8b9ff8cb5fd",
      "transactionType": "CALL",
      "contractName": null,
      "contractAddress": "0xf077d4d0508505c5a80249afc10bc6ead90e47f1",
      "function": "makeCrime(uint8)",
      "arguments": [
        "0"
      ],
      "transaction": {
        "from": "0xac56dc5a4a9de0197f7b8f584ea04ec7e0123dde",
        "to": "0xf077d4d0508505c5a80249afc10bc6ead90e47f1",
        "gas": "0x3f872",
        "value": "0x0",
        "input": "0xc625abb40000000000000000000000000000000000000000000000000000000000000000",
        "nonce": "0x263",
        "chainId": "0x171"
      },
      "additionalContracts": [],
      "isFixedGasLimit": false
    }
  ],
  "receipts": [
    {
      "status": "0x1",
      "cumulativeGasUsed": "0x25be90",
      "logs": [
        {
          "address": "0x74eadd7ebeeed638fd7c413134fa3d3433699d92",
          "topics": [
            "0x570f308d592bed3a47a73125665ce3b81fe296da89acff1af6d926e08a0a9f12"
          ],
          "data": "0x000000000000000000000000ac56dc5a4a9de0197f7b8f584ea04ec7e0123dde000000000000000000000000000000000000000000000000000000000003698b",
          "blockHash": "0x502ee5118ada3e61a0733274d13aa12e77aa796cb87887ada0197258cf10f967",
          "blockNumber": "0x1862539",
          "transactionHash": "0xd01b9d4231d848de0e114d961d0242fc43b68efec8fb3b068786c8b9ff8cb5fd",
          "transactionIndex": "0xc",
          "logIndex": "0x25",
          "removed": false
        },
        {
          "address": "0xf077d4d0508505c5a80249afc10bc6ead90e47f1",
          "topics": [
            "0xe36ceebd3770780c5617d53efc7d77328074f1248146245ed3b854cbf651fb37"
          ],
          "data": "0x000000000000000000000000ac56dc5a4a9de0197f7b8f584ea04ec7e0123dde0000000000000000000000000000000000000000000000000000000000000000000000000000000000000000000000000000000000000000000000000000000100000000000000000000000000000000000000000000000000000000000000000000000000000000000000000000000000000000000000160261c0eb78980000000000000000000000000000000000000000000000000000000000000000006400000000000000000000000000000000000000000000000000000000696e287d00000000000000000000000000000000000000000000000000000000696e24f9",
          "blockHash": "0x502ee5118ada3e61a0733274d13aa12e77aa796cb87887ada0197258cf10f967",
          "blockNumber": "0x1862539",
          "transactionHash": "0xd01b9d4231d848de0e114d961d0242fc43b68efec8fb3b068786c8b9ff8cb5fd",
          "transactionIndex": "0xc",
          "logIndex": "0x26",
          "removed": false
        }
      ],
      "logsBloom": "0x00000000000000000000000000000000004000000000000000000000400000000000000000000000000000000000000000000000000000000000000000000000000000000000000000008000000000000000000000000000000000000000000000000100000000000000000000000000400000000000000000000000000000000000000000000000000000100000000000000000000020000000000000000008000000000000000000000000000000000010000000000000000000000000000000000000000002000100000000000000000000000000000000000000000000000000000000000000000000000000000000000000000000000000000000000002",
      "type": "0x2",
      "transactionHash": "0xd01b9d4231d848de0e114d961d0242fc43b68efec8fb3b068786c8b9ff8cb5fd",
      "transactionIndex": "0xc",
      "blockHash": "0x502ee5118ada3e61a0733274d13aa12e77aa796cb87887ada0197258cf10f967",
      "blockNumber": "0x1862539",
      "gasUsed": "0x3cf70",
      "effectiveGasPrice": "0xcc9167b53d13",
      "from": "0xac56dc5a4a9de0197f7b8f584ea04ec7e0123dde",
      "to": "0xf077d4d0508505c5a80249afc10bc6ead90e47f1",
      "contractAddress": null
    }
  ],
  "libraries": [],
  "pending": [],
  "returns": {},
  "timestamp": 1768826105364,
  "chain": 369,
  "commit": "953695a"
}