{
  "transactions": [
    {
      "hash": "0x902a6041021ace773e446e36cbca572989d929aead94dc6b6ae887cbdf66def2",
      "transactionType": "CALL",
      "contractName": null,
      "contractAddress": "0xf077d4d0508505c5a80249afc10bc6ead90e47f1",
      "function": "makeCrime(uint8)",
      "arguments": [
        "0"
      ],
      "transaction": {
        "from": "0x4c62f6121e6f967a0872da8364995e9b68c1e82f",
        "to": "0xf077d4d0508505c5a80249afc10bc6ead90e47f1",
        "gas": "0x54be5",
        "value": "0x0",
        "input": "0xc625abb40000000000000000000000000000000000000000000000000000000000000000",
        "nonce": "0x965",
        "chainId": "0x171"
      },
      "additionalContracts": [],
      "isFixedGasLimit": false
    }
  ],
  "receipts": [
    {
      "status": "0x1",
      "cumulativeGasUsed": "0x8880cc",
      "logs": [
        {
          "address": "0xf077d4d0508505c5a80249afc10bc6ead90e47f1",
          "topics": [
            "0xe36ceebd3770780c5617d53efc7d77328074f1248146245ed3b854cbf651fb37"
          ],
          "data": "0x0000000000000000000000004c62f6121e6f967a0872da8364995e9b68c1e82f00000000000000000000000000000000000000000000000000000000000000000000000000000000000000000000000000000000000000000000000000000000000000000000000000000000000000000000000000000000000000000000000000000000000000000000000000000000000000000000000000000000000000000000000000000000000000000000000000000000000000000000000000000000000000000000000000000000000000000000000000000000000000006987b4ff000000000000000000000000000000000000000000000000000000006987b17b",
          "blockHash": "0xad76d3df9c696c8d6374c581563b3ca7d112f48d3e05f8684ba45eaca7a57c0e",
          "blockNumber": "0x188a2d2",
          "transactionHash": "0x902a6041021ace773e446e36cbca572989d929aead94dc6b6ae887cbdf66def2",
          "transactionIndex": "0x3a",
          "logIndex": "0xf6",
          "removed": false
        }
      ],
      "logsBloom": "0x00000000000000000000000000000000000000000000000000000000400000000000000000000000000000000000000000000000000000000000000000000000000000000000000000000000000000000000000000000000000000000000000000000000000000000000000000000000400000000000000000000000000000000000000000000000000000100000000000000000000020000000000000000000000000000000000000000000000000000000000000000000000000000000000000000000000000000100000000000000000000000000000000000000000000000000000000000000000000000000000000000000000000000000000000000002",
      "type": "0x2",
      "transactionHash": "0x902a6041021ace773e446e36cbca572989d929aead94dc6b6ae887cbdf66def2",
      "transactionIndex": "0x3a",
      "blockHash": "0xad76d3df9c696c8d6374c581563b3ca7d112f48d3e05f8684ba45eaca7a57c0e",
      "blockNumber": "0x188a2d2",
      "gasUsed": "0x1e865",
      "effectiveGasPrice": "0x29baf8e19b823",
      "from": "0x4c62f6121e6f967a0872da8364995e9b68c1e82f",
      "to": "0xf077d4d0508505c5a80249afc10bc6ead90e47f1",
      "contractAddress": null
    }
  ],
  "libraries": [],
  "pending": [],
  "returns": {},
  "timestamp": 1770500475987,
  "chain": 369,
  "commit": null
}