{
  "transactions": [
    {
      "hash": "0xe8c2f83c4abcb8903bdf738df210451b7f66835a3abaae079b7c2e924c88ef0b",
      "transactionType": "CALL",
      "contractName": null,
      "contractAddress": "0xf077d4d0508505c5a80249afc10bc6ead90e47f1",
      "function": "makeCrime(uint8)",
      "arguments": [
        "0"
      ],
      "transaction": {
        "from": "0x4c62f6121e6f967a0872da8364995e9b68c1e82f",
        "to": "0xf077d4d0508505c5a80249afc10bc6ead90e47f1",
        "gas": "0x2a297",
        "value": "0x0",
        "input": "0xc625abb40000000000000000000000000000000000000000000000000000000000000000",
        "nonce": "0x762",
        "chainId": "0x171"
      },
      "additionalContracts": [],
      "isFixedGasLimit": false
    }
  ],
  "receipts": [
    {
      "status": "0x1",
      "cumulativeGasUsed": "0x1412b7f",
      "logs": [
        {
          "address": "0xf077d4d0508505c5a80249afc10bc6ead90e47f1",
          "topics": [
            "0xe36ceebd3770780c5617d53efc7d77328074f1248146245ed3b854cbf651fb37"
          ],
          "data": "0x0000000000000000000000004c62f6121e6f967a0872da8364995e9b68c1e82f0000000000000000000000000000000000000000000000000000000000000000000000000000000000000000000000000000000000000000000000000000000000000000000000000000000000000000000000000000000000000000000000000000000000000000000000000000000000000000000000000000000000000000000000000000000000000000000000000000000000000000000000000000000000000000000000000000000000000000000000000000000000000000697b278500000000000000000000000000000000000000000000000000000000697b2401",
          "blockHash": "0x49e66ae87be6e7d1d4f24c2792a50cf10f891f23397c9096d4d5092fc5563541",
          "blockNumber": "0x187698e",
          "transactionHash": "0xe8c2f83c4abcb8903bdf738df210451b7f66835a3abaae079b7c2e924c88ef0b",
          "transactionIndex": "0x1f",
          "logIndex": "0x35f",
          "removed": false
        }
      ],
      "logsBloom": "0x00000000000000000000000000000000000000000000000000000000400000000000000000000000000000000000000000000000000000000000000000000000000000000000000000000000000000000000000000000000000000000000000000000000000000000000000000000000400000000000000000000000000000000000000000000000000000100000000000000000000020000000000000000000000000000000000000000000000000000000000000000000000000000000000000000000000000000100000000000000000000000000000000000000000000000000000000000000000000000000000000000000000000000000000000000002",
      "type": "0x2",
      "transactionHash": "0xe8c2f83c4abcb8903bdf738df210451b7f66835a3abaae079b7c2e924c88ef0b",
      "transactionIndex": "0x1f",
      "blockHash": "0x49e66ae87be6e7d1d4f24c2792a50cf10f891f23397c9096d4d5092fc5563541",
      "blockNumber": "0x187698e",
      "gasUsed": "0x1e865",
      "effectiveGasPrice": "0x1f0d8aa572fc6",
      "from": "0x4c62f6121e6f967a0872da8364995e9b68c1e82f",
      "to": "0xf077d4d0508505c5a80249afc10bc6ead90e47f1",
      "contractAddress": null
    }
  ],
  "libraries": [],
  "pending": [],
  "returns": {},
  "timestamp": 1769677826138,
  "chain": 369,
  "commit": null
}