{
  "transactions": [
    {
      "hash": "0x44e26cd4bdc680710d4402f9192fec0a16b74f644e4ee0b376c91eb4af225c81",
      "transactionType": "CALL",
      "contractName": null,
      "contractAddress": "0xf077d4d0508505c5a80249afc10bc6ead90e47f1",
      "function": "makeCrime(uint8)",
      "arguments": [
        "0"
      ],
      "transaction": {
        "from": "0xeca7a53ba6a190c5d205bfdc7707cbc3399336c1",
        "to": "0xf077d4d0508505c5a80249afc10bc6ead90e47f1",
        "gas": "0x41b40",
        "value": "0x0",
        "input": "0xc625abb40000000000000000000000000000000000000000000000000000000000000000",
        "nonce": "0x57e",
        "chainId": "0x171"
      },
      "additionalContracts": [],
      "isFixedGasLimit": false
    }
  ],
  "receipts": [
    {
      "status": "0x1",
      "cumulativeGasUsed": "0x745038",
      "logs": [
        {
          "address": "0xf077d4d0508505c5a80249afc10bc6ead90e47f1",
          "topics": [
            "0xe36ceebd3770780c5617d53efc7d77328074f1248146245ed3b854cbf651fb37"
          ],
          "data": "0x000000000000000000000000eca7a53ba6a190c5d205bfdc7707cbc3399336c100000000000000000000000000000000000000000000000000000000000000000000000000000000000000000000000000000000000000000000000000000000000000000000000000000000000000000000000000000000000000000000000000000000000000000000000000000000000000000000000000000000000000000000000000000000000000000000000000000000000000000000000000000000000000000000000000000000000000000000000000000000000000006987edcb000000000000000000000000000000000000000000000000000000006987ea47",
          "blockHash": "0x4dd30c89b20c2716c2396c794010c0f1a19e100e499d1abc1d2a563acf227acf",
          "blockNumber": "0x188a856",
          "transactionHash": "0x44e26cd4bdc680710d4402f9192fec0a16b74f644e4ee0b376c91eb4af225c81",
          "transactionIndex": "0x1b",
          "logIndex": "0x166",
          "removed": false
        }
      ],
      "logsBloom": "0x00000000000000000000000000000000000000000000000000000000400000000000000000000000000000000000000000000000000000000000000000000000000000000000000000000000000000000000000000000000000000000000000000000000000000000000000000000000400000000000000000000000000000000000000000000000000000100000000000000000000020000000000000000000000000000000000000000000000000000000000000000000000000000000000000000000000000000100000000000000000000000000000000000000000000000000000000000000000000000000000000000000000000000000000000000002",
      "type": "0x2",
      "transactionHash": "0x44e26cd4bdc680710d4402f9192fec0a16b74f644e4ee0b376c91eb4af225c81",
      "transactionIndex": "0x1b",
      "blockHash": "0x4dd30c89b20c2716c2396c794010c0f1a19e100e499d1abc1d2a563acf227acf",
      "blockNumber": "0x188a856",
      "gasUsed": "0x1f525",
      "effectiveGasPrice": "0x301f13dcd5978",
      "from": "0xeca7a53ba6a190c5d205bfdc7707cbc3399336c1",
      "to": "0xf077d4d0508505c5a80249afc10bc6ead90e47f1",
      "contractAddress": null
    }
  ],
  "libraries": [],
  "pending": [],
  "returns": {},
  "timestamp": 1770515016210,
  "chain": 369,
  "commit": null
}