{
  "transactions": [
    {
      "hash": "0xcee5c05df3758a62775d09f436b5f9ac6d3c460cab697d13ad8629f1854dd33c",
      "transactionType": "CALL",
      "contractName": null,
      "contractAddress": "0xf077d4d0508505c5a80249afc10bc6ead90e47f1",
      "function": "makeCrime(uint8)",
      "arguments": [
        "0"
      ],
      "transaction": {
        "from": "0xeca7a53ba6a190c5d205bfdc7707cbc3399336c1",
        "to": "0xf077d4d0508505c5a80249afc10bc6ead90e47f1",
        "gas": "0x55e10",
        "value": "0x0",
        "input": "0xc625abb40000000000000000000000000000000000000000000000000000000000000000",
        "nonce": "0x57a",
        "chainId": "0x171"
      },
      "additionalContracts": [],
      "isFixedGasLimit": false
    }
  ],
  "receipts": [
    {
      "status": "0x1",
      "cumulativeGasUsed": "0x841983",
      "logs": [
        {
          "address": "0x74eadd7ebeeed638fd7c413134fa3d3433699d92",
          "topics": [
            "0x570f308d592bed3a47a73125665ce3b81fe296da89acff1af6d926e08a0a9f12"
          ],
          "data": "0x000000000000000000000000eca7a53ba6a190c5d205bfdc7707cbc3399336c10000000000000000000000000000000000000000000000000000000000023aa2",
          "blockHash": "0x8ccd534ea58c0809f2cee499ecea9821df1f6e44dd07dd23946285ba827950ea",
          "blockNumber": "0x188a620",
          "transactionHash": "0xcee5c05df3758a62775d09f436b5f9ac6d3c460cab697d13ad8629f1854dd33c",
          "transactionIndex": "0x11",
          "logIndex": "0x75",
          "removed": false
        },
        {
          "address": "0xf077d4d0508505c5a80249afc10bc6ead90e47f1",
          "topics": [
            "0xe36ceebd3770780c5617d53efc7d77328074f1248146245ed3b854cbf651fb37"
          ],
          "data": "0x000000000000000000000000eca7a53ba6a190c5d205bfdc7707cbc3399336c100000000000000000000000000000000000000000000000000000000000000000000000000000000000000000000000000000000000000000000000000000001000000000000000000000000000000000000000000000000000000000000000000000000000000000000000000000000000000000000000e6b7dd6abede800000000000000000000000000000000000000000000000000000000000000000014000000000000000000000000000000000000000000000000000000006987d6fb000000000000000000000000000000000000000000000000000000006987d377",
          "blockHash": "0x8ccd534ea58c0809f2cee499ecea9821df1f6e44dd07dd23946285ba827950ea",
          "blockNumber": "0x188a620",
          "transactionHash": "0xcee5c05df3758a62775d09f436b5f9ac6d3c460cab697d13ad8629f1854dd33c",
          "transactionIndex": "0x11",
          "logIndex": "0x76",
          "removed": false
        }
      ],
      "logsBloom": "0x00000000000000000000000000000000004000000000000000000000400000000000000000000000000000000000000000000000000000000000000000000000000000000000000000008000000000000000000000000000000000000000000000000100000000000000000000000000400000000000000000000000000000000000000000000000000000100000000000000000000020000000000000000008000000000000000000000000000000000010000000000000000000000000000000000000000002000100000000000000000000000000000000000000000000000000000000000000000000000000000000000000000000000000000000000002",
      "type": "0x2",
      "transactionHash": "0xcee5c05df3758a62775d09f436b5f9ac6d3c460cab697d13ad8629f1854dd33c",
      "transactionIndex": "0x11",
      "blockHash": "0x8ccd534ea58c0809f2cee499ecea9821df1f6e44dd07dd23946285ba827950ea",
      "blockNumber": "0x188a620",
      "gasUsed": "0x3e2cd",
      "effectiveGasPrice": "0x2ed46f83f8c59",
      "from": "0xeca7a53ba6a190c5d205bfdc7707cbc3399336c1",
      "to": "0xf077d4d0508505c5a80249afc10bc6ead90e47f1",
      "contractAddress": null
    }
  ],
  "libraries": [],
  "pending": [],
  "returns": {},
  "timestamp": 1770509175647,
  "chain": 369,
  "commit": null
}