{
  "transactions": [
    {
      "hash": "0xa1bb7821f12c65374935b9fd8823501628093eb7191201dfc235716cb3869bd6",
      "transactionType": "CALL",
      "contractName": null,
      "contractAddress": "0xf077d4d0508505c5a80249afc10bc6ead90e47f1",
      "function": "makeCrime(uint8)",
      "arguments": [
        "0"
      ],
      "transaction": {
        "from": "0xaa73aa98480757d75aae288b5931261448eb0530",
        "to": "0xf077d4d0508505c5a80249afc10bc6ead90e47f1",
        "gas": "0x2a297",
        "value": "0x0",
        "input": "0xc625abb40000000000000000000000000000000000000000000000000000000000000000",
        "nonce": "0x51",
        "chainId": "0x171"
      },
      "additionalContracts": [],
      "isFixedGasLimit": false
    }
  ],
  "receipts": [
    {
      "status": "0x1",
      "cumulativeGasUsed": "0x1560166",
      "logs": [
        {
          "address": "0xf077d4d0508505c5a80249afc10bc6ead90e47f1",
          "topics": [
            "0xe36ceebd3770780c5617d53efc7d77328074f1248146245ed3b854cbf651fb37"
          ],
          "data": "0x000000000000000000000000aa73aa98480757d75aae288b5931261448eb053000000000000000000000000000000000000000000000000000000000000000000000000000000000000000000000000000000000000000000000000000000000000000000000000000000000000000000000000000000000000000000000000000000000000000000000000000000000000000000000000000000000000000000000000000000000000000000000000000000000000000000000000000000000000000000000000000000000000000000000000000000000000000006987e065000000000000000000000000000000000000000000000000000000006987dce1",
          "blockHash": "0x3be4bbc398ae47cb89b8dec1dac9b6ece83c3242f7bc8371c0389c284aa4498e",
          "blockNumber": "0x188a707",
          "transactionHash": "0xa1bb7821f12c65374935b9fd8823501628093eb7191201dfc235716cb3869bd6",
          "transactionIndex": "0x1d",
          "logIndex": "0x2fa",
          "removed": false
        }
      ],
      "logsBloom": "0x00000000000000000000000000000000000000000000000000000000400000000000000000000000000000000000000000000000000000000000000000000000000000000000000000000000000000000000000000000000000000000000000000000000000000000000000000000000400000000000000000000000000000000000000000000000000000100000000000000000000020000000000000000000000000000000000000000000000000000000000000000000000000000000000000000000000000000100000000000000000000000000000000000000000000000000000000000000000000000000000000000000000000000000000000000002",
      "type": "0x2",
      "transactionHash": "0xa1bb7821f12c65374935b9fd8823501628093eb7191201dfc235716cb3869bd6",
      "transactionIndex": "0x1d",
      "blockHash": "0x3be4bbc398ae47cb89b8dec1dac9b6ece83c3242f7bc8371c0389c284aa4498e",
      "blockNumber": "0x188a707",
      "gasUsed": "0x1e865",
      "effectiveGasPrice": "0x2a13e395bdfa0",
      "from": "0xaa73aa98480757d75aae288b5931261448eb0530",
      "to": "0xf077d4d0508505c5a80249afc10bc6ead90e47f1",
      "contractAddress": null
    }
  ],
  "libraries": [],
  "pending": [],
  "returns": {},
  "timestamp": 1770511587429,
  "chain": 369,
  "commit": null
}