{
  "transactions": [
    {
      "hash": "0x8e3a87d1bf1e5569af083b9419c9d607ea571dd695a46d6c9562861f1d20f9a3",
      "transactionType": "CALL",
      "contractName": null,
      "contractAddress": "0xf077d4d0508505c5a80249afc10bc6ead90e47f1",
      "function": "makeCrime(uint8)",
      "arguments": [
        "0"
      ],
      "transaction": {
        "from": "0x4c62f6121e6f967a0872da8364995e9b68c1e82f",
        "to": "0xf077d4d0508505c5a80249afc10bc6ead90e47f1",
        "gas": "0x54be5",
        "value": "0x0",
        "input": "0xc625abb40000000000000000000000000000000000000000000000000000000000000000",
        "nonce": "0x972",
        "chainId": "0x171"
      },
      "additionalContracts": [],
      "isFixedGasLimit": false
    }
  ],
  "receipts": [
    {
      "status": "0x1",
      "cumulativeGasUsed": "0x57ba93",
      "logs": [
        {
          "address": "0xdcd5e9c0b2b4e9cb93677a258521d854b3a9f5a1",
          "topics": [
            "0x0bff5315606c84d1cee047503678048ca39946be11bfdd5a8c03fe5e272d98e3"
          ],
          "data": "0x0000000000000000000000004c62f6121e6f967a0872da8364995e9b68c1e82f000000000000000000000000000000000000000000000000000000006987da390000000000000000000000000000000000000000000000000000000000000000",
          "blockHash": "0x1d6ae7ef6b0f5d74ce4fad9e33ec8921b55173066eda617ba7ea211b9f776adc",
          "blockNumber": "0x188a645",
          "transactionHash": "0x8e3a87d1bf1e5569af083b9419c9d607ea571dd695a46d6c9562861f1d20f9a3",
          "transactionIndex": "0x27",
          "logIndex": "0x86",
          "removed": false
        },
        {
          "address": "0xf077d4d0508505c5a80249afc10bc6ead90e47f1",
          "topics": [
            "0xe36ceebd3770780c5617d53efc7d77328074f1248146245ed3b854cbf651fb37"
          ],
          "data": "0x0000000000000000000000004c62f6121e6f967a0872da8364995e9b68c1e82f00000000000000000000000000000000000000000000000000000000000000000000000000000000000000000000000000000000000000000000000000000000000000000000000000000000000000000000000000000000000000000000000100000000000000000000000000000000000000000000000000000000000000000000000000000000000000000000000000000000000000000000000000000000000000000000000000000000000000000000000000000000000000006987d877000000000000000000000000000000000000000000000000000000006987d4f3",
          "blockHash": "0x1d6ae7ef6b0f5d74ce4fad9e33ec8921b55173066eda617ba7ea211b9f776adc",
          "blockNumber": "0x188a645",
          "transactionHash": "0x8e3a87d1bf1e5569af083b9419c9d607ea571dd695a46d6c9562861f1d20f9a3",
          "transactionIndex": "0x27",
          "logIndex": "0x87",
          "removed": false
        }
      ],
      "logsBloom": "0x00000000000000000000000000000000010000000000000000000000400000000000000000000000000000000000000000000000000000000000000000000000000000000000000000000000000000000000000000000000001000000000000000000000000000000000000000000000400000000080000000000000000000000000000000000000000000100000000000000000000020000000000000000000000000000000000000000000000000000000000000000000400000000000000000000000000000000100000000000040000000000000000000000000000000000000000000000000000000000000000000000000000000000000000000001002",
      "type": "0x2",
      "transactionHash": "0x8e3a87d1bf1e5569af083b9419c9d607ea571dd695a46d6c9562861f1d20f9a3",
      "transactionIndex": "0x27",
      "blockHash": "0x1d6ae7ef6b0f5d74ce4fad9e33ec8921b55173066eda617ba7ea211b9f776adc",
      "blockNumber": "0x188a645",
      "gasUsed": "0x2ec57",
      "effectiveGasPrice": "0x2dde998a08d9a",
      "from": "0x4c62f6121e6f967a0872da8364995e9b68c1e82f",
      "to": "0xf077d4d0508505c5a80249afc10bc6ead90e47f1",
      "contractAddress": null
    }
  ],
  "libraries": [],
  "pending": [],
  "returns": {},
  "timestamp": 1770509555952,
  "chain": 369,
  "commit": null
}