{
  "transactions": [
    {
      "hash": "0xfabcd5da2dee9fb6494400a88f5c05a50b7eade922ef5222e4981741a0805c14",
      "transactionType": "CALL",
      "contractName": null,
      "contractAddress": "0xf077d4d0508505c5a80249afc10bc6ead90e47f1",
      "function": "makeCrime(uint8)",
      "arguments": [
        "0"
      ],
      "transaction": {
        "from": "0x4c62f6121e6f967a0872da8364995e9b68c1e82f",
        "to": "0xf077d4d0508505c5a80249afc10bc6ead90e47f1",
        "gas": "0x409a4",
        "value": "0x0",
        "input": "0xc625abb40000000000000000000000000000000000000000000000000000000000000000",
        "nonce": "0x95c",
        "chainId": "0x171"
      },
      "additionalContracts": [],
      "isFixedGasLimit": false
    }
  ],
  "receipts": [
    {
      "status": "0x1",
      "cumulativeGasUsed": "0x2686681",
      "logs": [
        {
          "address": "0xdcd5e9c0b2b4e9cb93677a258521d854b3a9f5a1",
          "topics": [
            "0x0bff5315606c84d1cee047503678048ca39946be11bfdd5a8c03fe5e272d98e3"
          ],
          "data": "0x0000000000000000000000004c62f6121e6f967a0872da8364995e9b68c1e82f000000000000000000000000000000000000000000000000000000006987929f0000000000000000000000000000000000000000000000000000000000000000",
          "blockHash": "0x28449e4dc6c5e5b30dac15118f56935a545a45075b06cd309fa5cab6cacf4198",
          "blockNumber": "0x1889f46",
          "transactionHash": "0xfabcd5da2dee9fb6494400a88f5c05a50b7eade922ef5222e4981741a0805c14",
          "transactionIndex": "0x11",
          "logIndex": "0xb33",
          "removed": false
        },
        {
          "address": "0xf077d4d0508505c5a80249afc10bc6ead90e47f1",
          "topics": [
            "0xe36ceebd3770780c5617d53efc7d77328074f1248146245ed3b854cbf651fb37"
          ],
          "data": "0x0000000000000000000000004c62f6121e6f967a0872da8364995e9b68c1e82f0000000000000000000000000000000000000000000000000000000000000000000000000000000000000000000000000000000000000000000000000000000000000000000000000000000000000000000000000000000000000000000000010000000000000000000000000000000000000000000000000000000000000000000000000000000000000000000000000000000000000000000000000000000000000000000000000000000000000000000000000000000000000000698790dd0000000000000000000000000000000000000000000000000000000069878d59",
          "blockHash": "0x28449e4dc6c5e5b30dac15118f56935a545a45075b06cd309fa5cab6cacf4198",
          "blockNumber": "0x1889f46",
          "transactionHash": "0xfabcd5da2dee9fb6494400a88f5c05a50b7eade922ef5222e4981741a0805c14",
          "transactionIndex": "0x11",
          "logIndex": "0xb34",
          "removed": false
        }
      ],
      "logsBloom": "0x00000000000000000000000000000000010000000000000000000000400000000000000000000000000000000000000000000000000000000000000000000000000000000000000000000000000000000000000000000000001000000000000000000000000000000000000000000000400000000080000000000000000000000000000000000000000000100000000000000000000020000000000000000000000000000000000000000000000000000000000000000000400000000000000000000000000000000100000000000040000000000000000000000000000000000000000000000000000000000000000000000000000000000000000000001002",
      "type": "0x2",
      "transactionHash": "0xfabcd5da2dee9fb6494400a88f5c05a50b7eade922ef5222e4981741a0805c14",
      "transactionIndex": "0x11",
      "blockHash": "0x28449e4dc6c5e5b30dac15118f56935a545a45075b06cd309fa5cab6cacf4198",
      "blockNumber": "0x1889f46",
      "gasUsed": "0x2ec57",
      "effectiveGasPrice": "0x2c1ccbc83adc7",
      "from": "0x4c62f6121e6f967a0872da8364995e9b68c1e82f",
      "to": "0xf077d4d0508505c5a80249afc10bc6ead90e47f1",
      "contractAddress": null
    }
  ],
  "libraries": [],
  "pending": [],
  "returns": {},
  "timestamp": 1770491226448,
  "chain": 369,
  "commit": null
}