{
  "transactions": [
    {
      "hash": "0xdcb7f79eca1113b77aa4c82fd47cd352131f6f323499144542dcec5ed72d26a4",
      "transactionType": "CALL",
      "contractName": null,
      "contractAddress": "0xf077d4d0508505c5a80249afc10bc6ead90e47f1",
      "function": "makeCrime(uint8)",
      "arguments": [
        "0"
      ],
      "transaction": {
        "from": "0x4c62f6121e6f967a0872da8364995e9b68c1e82f",
        "to": "0xf077d4d0508505c5a80249afc10bc6ead90e47f1",
        "gas": "0x2a297",
        "value": "0x0",
        "input": "0xc625abb40000000000000000000000000000000000000000000000000000000000000000",
        "nonce": "0x702",
        "chainId": "0x171"
      },
      "additionalContracts": [],
      "isFixedGasLimit": false
    }
  ],
  "receipts": [
    {
      "status": "0x1",
      "cumulativeGasUsed": "0x220da7",
      "logs": [
        {
          "address": "0xf077d4d0508505c5a80249afc10bc6ead90e47f1",
          "topics": [
            "0xe36ceebd3770780c5617d53efc7d77328074f1248146245ed3b854cbf651fb37"
          ],
          "data": "0x0000000000000000000000004c62f6121e6f967a0872da8364995e9b68c1e82f00000000000000000000000000000000000000000000000000000000000000000000000000000000000000000000000000000000000000000000000000000000000000000000000000000000000000000000000000000000000000000000000000000000000000000000000000000000000000000000000000000000000000000000000000000000000000000000000000000000000000000000000000000000000000000000000000000000000000000000000000000000000000006979498d0000000000000000000000000000000000000000000000000000000069794609",
          "blockHash": "0x6a702421542cf2f232aa84ac0b1f40307f4b6dcbcbb652a2cee20d2472f6ee72",
          "blockNumber": "0x1873ad9",
          "transactionHash": "0xdcb7f79eca1113b77aa4c82fd47cd352131f6f323499144542dcec5ed72d26a4",
          "transactionIndex": "0xe",
          "logIndex": "0x33",
          "removed": false
        }
      ],
      "logsBloom": "0x00000000000000000000000000000000000000000000000000000000400000000000000000000000000000000000000000000000000000000000000000000000000000000000000000000000000000000000000000000000000000000000000000000000000000000000000000000000400000000000000000000000000000000000000000000000000000100000000000000000000020000000000000000000000000000000000000000000000000000000000000000000000000000000000000000000000000000100000000000000000000000000000000000000000000000000000000000000000000000000000000000000000000000000000000000002",
      "type": "0x2",
      "transactionHash": "0xdcb7f79eca1113b77aa4c82fd47cd352131f6f323499144542dcec5ed72d26a4",
      "transactionIndex": "0xe",
      "blockHash": "0x6a702421542cf2f232aa84ac0b1f40307f4b6dcbcbb652a2cee20d2472f6ee72",
      "blockNumber": "0x1873ad9",
      "gasUsed": "0x1e865",
      "effectiveGasPrice": "0x443bf92510b18",
      "from": "0x4c62f6121e6f967a0872da8364995e9b68c1e82f",
      "to": "0xf077d4d0508505c5a80249afc10bc6ead90e47f1",
      "contractAddress": null
    }
  ],
  "libraries": [],
  "pending": [],
  "returns": {},
  "timestamp": 1769555467049,
  "chain": 369,
  "commit": null
}