{
  "transactions": [
    {
      "hash": "0xa8837ecb473b44f399df3b79d4805d4d3ae82ac57eb316979f99a2b6afe0febc",
      "transactionType": "CALL",
      "contractName": null,
      "contractAddress": "0xf077d4d0508505c5a80249afc10bc6ead90e47f1",
      "function": "makeCrime(uint8)",
      "arguments": [
        "0"
      ],
      "transaction": {
        "from": "0x4c62f6121e6f967a0872da8364995e9b68c1e82f",
        "to": "0xf077d4d0508505c5a80249afc10bc6ead90e47f1",
        "gas": "0x409a4",
        "value": "0x0",
        "input": "0xc625abb40000000000000000000000000000000000000000000000000000000000000000",
        "nonce": "0x984",
        "chainId": "0x171"
      },
      "additionalContracts": [],
      "isFixedGasLimit": false
    }
  ],
  "receipts": [
    {
      "status": "0x1",
      "cumulativeGasUsed": "0x4c1138",
      "logs": [
        {
          "address": "0xdcd5e9c0b2b4e9cb93677a258521d854b3a9f5a1",
          "topics": [
            "0x0bff5315606c84d1cee047503678048ca39946be11bfdd5a8c03fe5e272d98e3"
          ],
          "data": "0x0000000000000000000000004c62f6121e6f967a0872da8364995e9b68c1e82f0000000000000000000000000000000000000000000000000000000069885a1d0000000000000000000000000000000000000000000000000000000000000000",
          "blockHash": "0x5b69e3b7e3c380ee71d30b29d294c529ee30eb32889aba9c7f9387772df474cf",
          "blockNumber": "0x188b2bd",
          "transactionHash": "0xa8837ecb473b44f399df3b79d4805d4d3ae82ac57eb316979f99a2b6afe0febc",
          "transactionIndex": "0x16",
          "logIndex": "0x7b",
          "removed": false
        },
        {
          "address": "0xf077d4d0508505c5a80249afc10bc6ead90e47f1",
          "topics": [
            "0xe36ceebd3770780c5617d53efc7d77328074f1248146245ed3b854cbf651fb37"
          ],
          "data": "0x0000000000000000000000004c62f6121e6f967a0872da8364995e9b68c1e82f00000000000000000000000000000000000000000000000000000000000000000000000000000000000000000000000000000000000000000000000000000000000000000000000000000000000000000000000000000000000000000000000100000000000000000000000000000000000000000000000000000000000000000000000000000000000000000000000000000000000000000000000000000000000000000000000000000000000000000000000000000000000000006988585b00000000000000000000000000000000000000000000000000000000698854d7",
          "blockHash": "0x5b69e3b7e3c380ee71d30b29d294c529ee30eb32889aba9c7f9387772df474cf",
          "blockNumber": "0x188b2bd",
          "transactionHash": "0xa8837ecb473b44f399df3b79d4805d4d3ae82ac57eb316979f99a2b6afe0febc",
          "transactionIndex": "0x16",
          "logIndex": "0x7c",
          "removed": false
        }
      ],
      "logsBloom": "0x00000000000000000000000000000000010000000000000000000000400000000000000000000000000000000000000000000000000000000000000000000000000000000000000000000000000000000000000000000000001000000000000000000000000000000000000000000000400000000080000000000000000000000000000000000000000000100000000000000000000020000000000000000000000000000000000000000000000000000000000000000000400000000000000000000000000000000100000000000040000000000000000000000000000000000000000000000000000000000000000000000000000000000000000000001002",
      "type": "0x2",
      "transactionHash": "0xa8837ecb473b44f399df3b79d4805d4d3ae82ac57eb316979f99a2b6afe0febc",
      "transactionIndex": "0x16",
      "blockHash": "0x5b69e3b7e3c380ee71d30b29d294c529ee30eb32889aba9c7f9387772df474cf",
      "blockNumber": "0x188b2bd",
      "gasUsed": "0x2ec57",
      "effectiveGasPrice": "0x2ecc6b9da4ad9",
      "from": "0x4c62f6121e6f967a0872da8364995e9b68c1e82f",
      "to": "0xf077d4d0508505c5a80249afc10bc6ead90e47f1",
      "contractAddress": null
    }
  ],
  "libraries": [],
  "pending": [],
  "returns": {},
  "timestamp": 1770542296710,
  "chain": 369,
  "commit": null
}