{
  "transactions": [
    {
      "hash": "0x9246a348b3289865fef503da9593c27020a4aec9711b039d1dfb6d85302503ae",
      "transactionType": "CALL",
      "contractName": null,
      "contractAddress": "0xf077d4d0508505c5a80249afc10bc6ead90e47f1",
      "function": "makeCrime(uint8)",
      "arguments": [
        "0"
      ],
      "transaction": {
        "from": "0x4c62f6121e6f967a0872da8364995e9b68c1e82f",
        "to": "0xf077d4d0508505c5a80249afc10bc6ead90e47f1",
        "gas": "0x2a297",
        "value": "0x0",
        "input": "0xc625abb40000000000000000000000000000000000000000000000000000000000000000",
        "nonce": "0x764",
        "chainId": "0x171"
      },
      "additionalContracts": [],
      "isFixedGasLimit": false
    }
  ],
  "receipts": [
    {
      "status": "0x1",
      "cumulativeGasUsed": "0x45ddfa",
      "logs": [
        {
          "address": "0xf077d4d0508505c5a80249afc10bc6ead90e47f1",
          "topics": [
            "0xe36ceebd3770780c5617d53efc7d77328074f1248146245ed3b854cbf651fb37"
          ],
          "data": "0x0000000000000000000000004c62f6121e6f967a0872da8364995e9b68c1e82f0000000000000000000000000000000000000000000000000000000000000000000000000000000000000000000000000000000000000000000000000000000000000000000000000000000000000000000000000000000000000000000000000000000000000000000000000000000000000000000000000000000000000000000000000000000000000000000000000000000000000000000000000000000000000000000000000000000000000000000000000000000000000000697b2b5900000000000000000000000000000000000000000000000000000000697b27d5",
          "blockHash": "0x14ca2de3676006fce86df58e798e8f09ee768feb70dd7fb619cb82ec3aaf83a4",
          "blockNumber": "0x18769ec",
          "transactionHash": "0x9246a348b3289865fef503da9593c27020a4aec9711b039d1dfb6d85302503ae",
          "transactionIndex": "0x15",
          "logIndex": "0x59",
          "removed": false
        }
      ],
      "logsBloom": "0x00000000000000000000000000000000000000000000000000000000400000000000000000000000000000000000000000000000000000000000000000000000000000000000000000000000000000000000000000000000000000000000000000000000000000000000000000000000400000000000000000000000000000000000000000000000000000100000000000000000000020000000000000000000000000000000000000000000000000000000000000000000000000000000000000000000000000000100000000000000000000000000000000000000000000000000000000000000000000000000000000000000000000000000000000000002",
      "type": "0x2",
      "transactionHash": "0x9246a348b3289865fef503da9593c27020a4aec9711b039d1dfb6d85302503ae",
      "transactionIndex": "0x15",
      "blockHash": "0x14ca2de3676006fce86df58e798e8f09ee768feb70dd7fb619cb82ec3aaf83a4",
      "blockNumber": "0x18769ec",
      "gasUsed": "0x1e865",
      "effectiveGasPrice": "0x1de64d9671774",
      "from": "0x4c62f6121e6f967a0872da8364995e9b68c1e82f",
      "to": "0xf077d4d0508505c5a80249afc10bc6ead90e47f1",
      "contractAddress": null
    }
  ],
  "libraries": [],
  "pending": [],
  "returns": {},
  "timestamp": 1769678806241,
  "chain": 369,
  "commit": null
}