{
  "transactions": [
    {
      "hash": "0x6b668105373767d03fc4ea2b0abdb1272d6f6544c94214a9d2a478ccce23e48e",
      "transactionType": "CALL",
      "contractName": null,
      "contractAddress": "0xf077d4d0508505c5a80249afc10bc6ead90e47f1",
      "function": "makeCrime(uint8)",
      "arguments": [
        "0"
      ],
      "transaction": {
        "from": "0xac56dc5a4a9de0197f7b8f584ea04ec7e0123dde",
        "to": "0xf077d4d0508505c5a80249afc10bc6ead90e47f1",
        "gas": "0x54352",
        "value": "0x0",
        "input": "0xc625abb40000000000000000000000000000000000000000000000000000000000000000",
        "nonce": "0x26b",
        "chainId": "0x171"
      },
      "additionalContracts": [],
      "isFixedGasLimit": false
    }
  ],
  "receipts": [
    {
      "status": "0x1",
      "cumulativeGasUsed": "0x962ba9",
      "logs": [
        {
          "address": "0xf077d4d0508505c5a80249afc10bc6ead90e47f1",
          "topics": [
            "0xe36ceebd3770780c5617d53efc7d77328074f1248146245ed3b854cbf651fb37"
          ],
          "data": "0x000000000000000000000000ac56dc5a4a9de0197f7b8f584ea04ec7e0123dde0000000000000000000000000000000000000000000000000000000000000000000000000000000000000000000000000000000000000000000000000000000000000000000000000000000000000000000000000000000000000000000000000000000000000000000000000000000000000000000000000000000000000000000000000000000000000000000000000000000000000000000000000000000000000000000000000000000000000000000000000000000000000000696e793100000000000000000000000000000000000000000000000000000000696e75ad",
          "blockHash": "0x7810892eeedfd0934941f6df1aef56ce024ea8358db79eeeff80bff50f90ee8a",
          "blockNumber": "0x1862d19",
          "transactionHash": "0x6b668105373767d03fc4ea2b0abdb1272d6f6544c94214a9d2a478ccce23e48e",
          "transactionIndex": "0x22",
          "logIndex": "0x243",
          "removed": false
        }
      ],
      "logsBloom": "0x00000000000000000000000000000000000000000000000000000000400000000000000000000000000000000000000000000000000000000000000000000000000000000000000000000000000000000000000000000000000000000000000000000000000000000000000000000000400000000000000000000000000000000000000000000000000000100000000000000000000020000000000000000000000000000000000000000000000000000000000000000000000000000000000000000000000000000100000000000000000000000000000000000000000000000000000000000000000000000000000000000000000000000000000000000002",
      "type": "0x2",
      "transactionHash": "0x6b668105373767d03fc4ea2b0abdb1272d6f6544c94214a9d2a478ccce23e48e",
      "transactionIndex": "0x22",
      "blockHash": "0x7810892eeedfd0934941f6df1aef56ce024ea8358db79eeeff80bff50f90ee8a",
      "blockNumber": "0x1862d19",
      "gasUsed": "0x1eca9",
      "effectiveGasPrice": "0x10785b12478e2",
      "from": "0xac56dc5a4a9de0197f7b8f584ea04ec7e0123dde",
      "to": "0xf077d4d0508505c5a80249afc10bc6ead90e47f1",
      "contractAddress": null
    }
  ],
  "libraries": [],
  "pending": [],
  "returns": {},
  "timestamp": 1768846766001,
  "chain": 369,
  "commit": "953695a"
}