{
  "transactions": [
    {
      "hash": "0x8b53d8659b10d88501136e3b5f660139b1bf433cd644c8c80da3000b9d33c0f2",
      "transactionType": "CALL",
      "contractName": null,
      "contractAddress": "0xf077d4d0508505c5a80249afc10bc6ead90e47f1",
      "function": "makeCrime(uint8)",
      "arguments": [
        "0"
      ],
      "transaction": {
        "from": "0x4c62f6121e6f967a0872da8364995e9b68c1e82f",
        "to": "0xf077d4d0508505c5a80249afc10bc6ead90e47f1",
        "gas": "0x3fd59",
        "value": "0x0",
        "input": "0xc625abb40000000000000000000000000000000000000000000000000000000000000000",
        "nonce": "0x71c",
        "chainId": "0x171"
      },
      "additionalContracts": [],
      "isFixedGasLimit": false
    }
  ],
  "receipts": [
    {
      "status": "0x1",
      "cumulativeGasUsed": "0x6e3ded",
      "logs": [
        {
          "address": "0xdcd5e9c0b2b4e9cb93677a258521d854b3a9f5a1",
          "topics": [
            "0x0bff5315606c84d1cee047503678048ca39946be11bfdd5a8c03fe5e272d98e3"
          ],
          "data": "0x0000000000000000000000004c62f6121e6f967a0872da8364995e9b68c1e82f000000000000000000000000000000000000000000000000000000006979a2cf0000000000000000000000000000000000000000000000000000000000000000",
          "blockHash": "0xf0a0947c7f998e806eb1d1bddbeede35c0e72ce88f8ad37d989bb7dc38da0bed",
          "blockNumber": "0x187436a",
          "transactionHash": "0x8b53d8659b10d88501136e3b5f660139b1bf433cd644c8c80da3000b9d33c0f2",
          "transactionIndex": "0x1c",
          "logIndex": "0xbb",
          "removed": false
        },
        {
          "address": "0xf077d4d0508505c5a80249afc10bc6ead90e47f1",
          "topics": [
            "0xe36ceebd3770780c5617d53efc7d77328074f1248146245ed3b854cbf651fb37"
          ],
          "data": "0x0000000000000000000000004c62f6121e6f967a0872da8364995e9b68c1e82f00000000000000000000000000000000000000000000000000000000000000000000000000000000000000000000000000000000000000000000000000000000000000000000000000000000000000000000000000000000000000000000000100000000000000000000000000000000000000000000000000000000000000000000000000000000000000000000000000000000000000000000000000000000000000000000000000000000000000000000000000000000000000006979a10d0000000000000000000000000000000000000000000000000000000069799d89",
          "blockHash": "0xf0a0947c7f998e806eb1d1bddbeede35c0e72ce88f8ad37d989bb7dc38da0bed",
          "blockNumber": "0x187436a",
          "transactionHash": "0x8b53d8659b10d88501136e3b5f660139b1bf433cd644c8c80da3000b9d33c0f2",
          "transactionIndex": "0x1c",
          "logIndex": "0xbc",
          "removed": false
        }
      ],
      "logsBloom": "0x00000000000000000000000000000000010000000000000000000000400000000000000000000000000000000000000000000000000000000000000000000000000000000000000000000000000000000000000000000000001000000000000000000000000000000000000000000000400000000080000000000000000000000000000000000000000000100000000000000000000020000000000000000000000000000000000000000000000000000000000000000000400000000000000000000000000000000100000000000040000000000000000000000000000000000000000000000000000000000000000000000000000000000000000000001002",
      "type": "0x2",
      "transactionHash": "0x8b53d8659b10d88501136e3b5f660139b1bf433cd644c8c80da3000b9d33c0f2",
      "transactionIndex": "0x1c",
      "blockHash": "0xf0a0947c7f998e806eb1d1bddbeede35c0e72ce88f8ad37d989bb7dc38da0bed",
      "blockNumber": "0x187436a",
      "gasUsed": "0x2e370",
      "effectiveGasPrice": "0x2744ea85c06a2",
      "from": "0x4c62f6121e6f967a0872da8364995e9b68c1e82f",
      "to": "0xf077d4d0508505c5a80249afc10bc6ead90e47f1",
      "contractAddress": null
    }
  ],
  "libraries": [],
  "pending": [],
  "returns": {},
  "timestamp": 1769577866022,
  "chain": 369,
  "commit": null
}