{
  "transactions": [
    {
      "hash": "0x87e561d9d276f96784392d434939c5fa4789b70485dcd9931d2a719c440a24f1",
      "transactionType": "CALL",
      "contractName": null,
      "contractAddress": "0xf077d4d0508505c5a80249afc10bc6ead90e47f1",
      "function": "makeCrime(uint8)",
      "arguments": [
        "1"
      ],
      "transaction": {
        "from": "0x4c62f6121e6f967a0872da8364995e9b68c1e82f",
        "to": "0xf077d4d0508505c5a80249afc10bc6ead90e47f1",
        "gas": "0x2cacf",
        "value": "0x0",
        "input": "0xc625abb40000000000000000000000000000000000000000000000000000000000000001",
        "nonce": "0x98c",
        "chainId": "0x171"
      },
      "additionalContracts": [],
      "isFixedGasLimit": false
    }
  ],
  "receipts": [
    {
      "status": "0x1",
      "cumulativeGasUsed": "0x171b533",
      "logs": [
        {
          "address": "0xf077d4d0508505c5a80249afc10bc6ead90e47f1",
          "topics": [
            "0xe36ceebd3770780c5617d53efc7d77328074f1248146245ed3b854cbf651fb37"
          ],
          "data": "0x0000000000000000000000004c62f6121e6f967a0872da8364995e9b68c1e82f000000000000000000000000000000000000000000000000000000000000000100000000000000000000000000000000000000000000000000000000000000000000000000000000000000000000000000000000000000000000000000000000000000000000000000000000000000000000000000000000000000000000000000000000000000000000000000000000000000000000000000000000000000000000000000000000000000000000000000000000000000000000000069887cb90000000000000000000000000000000000000000000000000000000069887935",
          "blockHash": "0xb59905eab9aa6a64da6affe0831734f379e402419b840ff8db94b586f7ae07c2",
          "blockNumber": "0x188b649",
          "transactionHash": "0x87e561d9d276f96784392d434939c5fa4789b70485dcd9931d2a719c440a24f1",
          "transactionIndex": "0x1b",
          "logIndex": "0x83",
          "removed": false
        }
      ],
      "logsBloom": "0x00000000000000000000000000000000000000000000000000000000400000000000000000000000000000000000000000000000000000000000000000000000000000000000000000000000000000000000000000000000000000000000000000000000000000000000000000000000400000000000000000000000000000000000000000000000000000100000000000000000000020000000000000000000000000000000000000000000000000000000000000000000000000000000000000000000000000000100000000000000000000000000000000000000000000000000000000000000000000000000000000000000000000000000000000000002",
      "type": "0x2",
      "transactionHash": "0x87e561d9d276f96784392d434939c5fa4789b70485dcd9931d2a719c440a24f1",
      "transactionIndex": "0x1b",
      "blockHash": "0xb59905eab9aa6a64da6affe0831734f379e402419b840ff8db94b586f7ae07c2",
      "blockNumber": "0x188b649",
      "gasUsed": "0x1e8c3",
      "effectiveGasPrice": "0x2c07480ca2f62",
      "from": "0x4c62f6121e6f967a0872da8364995e9b68c1e82f",
      "to": "0xf077d4d0508505c5a80249afc10bc6ead90e47f1",
      "contractAddress": null
    }
  ],
  "libraries": [],
  "pending": [],
  "returns": {},
  "timestamp": 1770551607025,
  "chain": 369,
  "commit": null
}