{
  "transactions": [
    {
      "hash": "0x4df2d357b6495dd5ba0441dc11f3d7b5bf1b1c158e40641e9c7d84290f80f03e",
      "transactionType": "CALL",
      "contractName": null,
      "contractAddress": "0xf077d4d0508505c5a80249afc10bc6ead90e47f1",
      "function": "makeCrime(uint8)",
      "arguments": [
        "0"
      ],
      "transaction": {
        "from": "0xaa73aa98480757d75aae288b5931261448eb0530",
        "to": "0xf077d4d0508505c5a80249afc10bc6ead90e47f1",
        "gas": "0x54be5",
        "value": "0x0",
        "input": "0xc625abb40000000000000000000000000000000000000000000000000000000000000000",
        "nonce": "0x6c",
        "chainId": "0x171"
      },
      "additionalContracts": [],
      "isFixedGasLimit": false
    }
  ],
  "receipts": [
    {
      "status": "0x1",
      "cumulativeGasUsed": "0x8991ed",
      "logs": [
        {
          "address": "0xf077d4d0508505c5a80249afc10bc6ead90e47f1",
          "topics": [
            "0xe36ceebd3770780c5617d53efc7d77328074f1248146245ed3b854cbf651fb37"
          ],
          "data": "0x000000000000000000000000aa73aa98480757d75aae288b5931261448eb0530000000000000000000000000000000000000000000000000000000000000000000000000000000000000000000000000000000000000000000000000000000000000000000000000000000000000000000000000000000000000000000000000000000000000000000000000000000000000000000000000000000000000000000000000000000000000000000000000000000000000000000000000000000000000000000000000000000000000000000000000000000000000000069883c13000000000000000000000000000000000000000000000000000000006988388f",
          "blockHash": "0x27b56b557d487af4a259b04d692f74a1125cdb4c93a885bba5edd7662e097e83",
          "blockNumber": "0x188b002",
          "transactionHash": "0x4df2d357b6495dd5ba0441dc11f3d7b5bf1b1c158e40641e9c7d84290f80f03e",
          "transactionIndex": "0x23",
          "logIndex": "0x6b",
          "removed": false
        }
      ],
      "logsBloom": "0x00000000000000000000000000000000000000000000000000000000400000000000000000000000000000000000000000000000000000000000000000000000000000000000000000000000000000000000000000000000000000000000000000000000000000000000000000000000400000000000000000000000000000000000000000000000000000100000000000000000000020000000000000000000000000000000000000000000000000000000000000000000000000000000000000000000000000000100000000000000000000000000000000000000000000000000000000000000000000000000000000000000000000000000000000000002",
      "type": "0x2",
      "transactionHash": "0x4df2d357b6495dd5ba0441dc11f3d7b5bf1b1c158e40641e9c7d84290f80f03e",
      "transactionIndex": "0x23",
      "blockHash": "0x27b56b557d487af4a259b04d692f74a1125cdb4c93a885bba5edd7662e097e83",
      "blockNumber": "0x188b002",
      "gasUsed": "0x1e865",
      "effectiveGasPrice": "0x2f1e097e4d7c4",
      "from": "0xaa73aa98480757d75aae288b5931261448eb0530",
      "to": "0xf077d4d0508505c5a80249afc10bc6ead90e47f1",
      "contractAddress": null
    }
  ],
  "libraries": [],
  "pending": [],
  "returns": {},
  "timestamp": 1770535055717,
  "chain": 369,
  "commit": null
}