{
  "transactions": [
    {
      "hash": "0xfba7d0e8abcae51e5029a7918b7f2da1cc160d81ce190213c12e09951dcb7293",
      "transactionType": "CALL",
      "contractName": null,
      "contractAddress": "0xf077d4d0508505c5a80249afc10bc6ead90e47f1",
      "function": "makeCrime(uint8)",
      "arguments": [
        "0"
      ],
      "transaction": {
        "from": "0xac56dc5a4a9de0197f7b8f584ea04ec7e0123dde",
        "to": "0xf077d4d0508505c5a80249afc10bc6ead90e47f1",
        "gas": "0x44caf",
        "value": "0x0",
        "input": "0xc625abb40000000000000000000000000000000000000000000000000000000000000000",
        "nonce": "0x4f7",
        "chainId": "0x171"
      },
      "additionalContracts": [],
      "isFixedGasLimit": false
    }
  ],
  "receipts": [
    {
      "status": "0x1",
      "cumulativeGasUsed": "0xc76d7d",
      "logs": [
        {
          "address": "0xdcd5e9c0b2b4e9cb93677a258521d854b3a9f5a1",
          "topics": [
            "0x0bff5315606c84d1cee047503678048ca39946be11bfdd5a8c03fe5e272d98e3"
          ],
          "data": "0x000000000000000000000000ac56dc5a4a9de0197f7b8f584ea04ec7e0123dde00000000000000000000000000000000000000000000000000000000698808a10000000000000000000000000000000000000000000000000000000000000000",
          "blockHash": "0x364b7395ce163a0bec62ad7681b536ee122028d09432de74f420a9d0772fd098",
          "blockNumber": "0x188aace",
          "transactionHash": "0xfba7d0e8abcae51e5029a7918b7f2da1cc160d81ce190213c12e09951dcb7293",
          "transactionIndex": "0x2a",
          "logIndex": "0x10b",
          "removed": false
        },
        {
          "address": "0xf077d4d0508505c5a80249afc10bc6ead90e47f1",
          "topics": [
            "0xe36ceebd3770780c5617d53efc7d77328074f1248146245ed3b854cbf651fb37"
          ],
          "data": "0x000000000000000000000000ac56dc5a4a9de0197f7b8f584ea04ec7e0123dde0000000000000000000000000000000000000000000000000000000000000000000000000000000000000000000000000000000000000000000000000000000000000000000000000000000000000000000000000000000000000000000000010000000000000000000000000000000000000000000000000000000000000000000000000000000000000000000000000000000000000000000000000000000000000000000000000000000000000000000000000000000000000000698806df000000000000000000000000000000000000000000000000000000006988035b",
          "blockHash": "0x364b7395ce163a0bec62ad7681b536ee122028d09432de74f420a9d0772fd098",
          "blockNumber": "0x188aace",
          "transactionHash": "0xfba7d0e8abcae51e5029a7918b7f2da1cc160d81ce190213c12e09951dcb7293",
          "transactionIndex": "0x2a",
          "logIndex": "0x10c",
          "removed": false
        }
      ],
      "logsBloom": "0x00000000000000000000000000000000010000000000000000000000400000000000000000000000000000000000000000000000000000000000000000000000000000000000000000000000000000000000000000000000001000000000000000000000000000000000000000000000400000000080000000000000000000000000000000000000000000100000000000000000000020000000000000000000000000000000000000000000000000000000000000000000400000000000000000000000000000000100000000000040000000000000000000000000000000000000000000000000000000000000000000000000000000000000000000001002",
      "type": "0x2",
      "transactionHash": "0xfba7d0e8abcae51e5029a7918b7f2da1cc160d81ce190213c12e09951dcb7293",
      "transactionIndex": "0x2a",
      "blockHash": "0x364b7395ce163a0bec62ad7681b536ee122028d09432de74f420a9d0772fd098",
      "blockNumber": "0x188aace",
      "gasUsed": "0x2f09b",
      "effectiveGasPrice": "0x2ff84ad508237",
      "from": "0xac56dc5a4a9de0197f7b8f584ea04ec7e0123dde",
      "to": "0xf077d4d0508505c5a80249afc10bc6ead90e47f1",
      "contractAddress": null
    }
  ],
  "libraries": [],
  "pending": [],
  "returns": {},
  "timestamp": 1770521436116,
  "chain": 369,
  "commit": null
}