{
  "transactions": [
    {
      "hash": "0x909c2148b41aae57c6c3f1eea5e40242e27ad00acb5cf20d9a4557b14339dfc9",
      "transactionType": "CALL",
      "contractName": null,
      "contractAddress": "0xf077d4d0508505c5a80249afc10bc6ead90e47f1",
      "function": "makeCrime(uint8)",
      "arguments": [
        "0"
      ],
      "transaction": {
        "from": "0xeca7a53ba6a190c5d205bfdc7707cbc3399336c1",
        "to": "0xf077d4d0508505c5a80249afc10bc6ead90e47f1",
        "gas": "0x40ef5",
        "value": "0x0",
        "input": "0xc625abb40000000000000000000000000000000000000000000000000000000000000000",
        "nonce": "0x3d4",
        "chainId": "0x171"
      },
      "additionalContracts": [],
      "isFixedGasLimit": false
    }
  ],
  "receipts": [
    {
      "status": "0x1",
      "cumulativeGasUsed": "0xbaae31",
      "logs": [
        {
          "address": "0x74eadd7ebeeed638fd7c413134fa3d3433699d92",
          "topics": [
            "0x570f308d592bed3a47a73125665ce3b81fe296da89acff1af6d926e08a0a9f12"
          ],
          "data": "0x000000000000000000000000eca7a53ba6a190c5d205bfdc7707cbc3399336c1000000000000000000000000000000000000000000000000000000000002320a",
          "blockHash": "0x83eba94f53101747fcafc95995299501730e71402ba2af98d103f79b8e5f8489",
          "blockNumber": "0x1875a8d",
          "transactionHash": "0x909c2148b41aae57c6c3f1eea5e40242e27ad00acb5cf20d9a4557b14339dfc9",
          "transactionIndex": "0x3e",
          "logIndex": "0xe6",
          "removed": false
        },
        {
          "address": "0xf077d4d0508505c5a80249afc10bc6ead90e47f1",
          "topics": [
            "0xe36ceebd3770780c5617d53efc7d77328074f1248146245ed3b854cbf651fb37"
          ],
          "data": "0x000000000000000000000000eca7a53ba6a190c5d205bfdc7707cbc3399336c1000000000000000000000000000000000000000000000000000000000000000000000000000000000000000000000000000000000000000000000000000000010000000000000000000000000000000000000000000000000000000000000000000000000000000000000000000000000000000000000014b550a013c7380000000000000000000000000000000000000000000000000000000000000000001400000000000000000000000000000000000000000000000000000000697a8db100000000000000000000000000000000000000000000000000000000697a8a2d",
          "blockHash": "0x83eba94f53101747fcafc95995299501730e71402ba2af98d103f79b8e5f8489",
          "blockNumber": "0x1875a8d",
          "transactionHash": "0x909c2148b41aae57c6c3f1eea5e40242e27ad00acb5cf20d9a4557b14339dfc9",
          "transactionIndex": "0x3e",
          "logIndex": "0xe7",
          "removed": false
        }
      ],
      "logsBloom": "0x00000000000000000000000000000000004000000000000000000000400000000000000000000000000000000000000000000000000000000000000000000000000000000000000000008000000000000000000000000000000000000000000000000100000000000000000000000000400000000000000000000000000000000000000000000000000000100000000000000000000020000000000000000008000000000000000000000000000000000010000000000000000000000000000000000000000002000100000000000000000000000000000000000000000000000000000000000000000000000000000000000000000000000000000000000002",
      "type": "0x2",
      "transactionHash": "0x909c2148b41aae57c6c3f1eea5e40242e27ad00acb5cf20d9a4557b14339dfc9",
      "transactionIndex": "0x3e",
      "blockHash": "0x83eba94f53101747fcafc95995299501730e71402ba2af98d103f79b8e5f8489",
      "blockNumber": "0x1875a8d",
      "gasUsed": "0x3d7b8",
      "effectiveGasPrice": "0x2c1dad42618c4",
      "from": "0xeca7a53ba6a190c5d205bfdc7707cbc3399336c1",
      "to": "0xf077d4d0508505c5a80249afc10bc6ead90e47f1",
      "contractAddress": null
    }
  ],
  "libraries": [],
  "pending": [],
  "returns": {},
  "timestamp": 1769638446008,
  "chain": 369,
  "commit": null
}