{
  "transactions": [
    {
      "hash": "0x6b290ec0d6f44346a88f2e1c5e5313e6aff882dd737f1aab5de1e5c4d1c80319",
      "transactionType": "CALL",
      "contractName": null,
      "contractAddress": "0xf077d4d0508505c5a80249afc10bc6ead90e47f1",
      "function": "makeCrime(uint8)",
      "arguments": [
        "0"
      ],
      "transaction": {
        "from": "0x4c62f6121e6f967a0872da8364995e9b68c1e82f",
        "to": "0xf077d4d0508505c5a80249afc10bc6ead90e47f1",
        "gas": "0x409a4",
        "value": "0x0",
        "input": "0xc625abb40000000000000000000000000000000000000000000000000000000000000000",
        "nonce": "0x760",
        "chainId": "0x171"
      },
      "additionalContracts": [],
      "isFixedGasLimit": false
    }
  ],
  "receipts": [
    {
      "status": "0x1",
      "cumulativeGasUsed": "0x77e28b",
      "logs": [
        {
          "address": "0xdcd5e9c0b2b4e9cb93677a258521d854b3a9f5a1",
          "topics": [
            "0x0bff5315606c84d1cee047503678048ca39946be11bfdd5a8c03fe5e272d98e3"
          ],
          "data": "0x0000000000000000000000004c62f6121e6f967a0872da8364995e9b68c1e82f00000000000000000000000000000000000000000000000000000000697b1e110000000000000000000000000000000000000000000000000000000000000000",
          "blockHash": "0x0a644ac7c18a7e3a1e537dc401b992609b6a776ba58ba4f5d405a1f5b0a67965",
          "blockNumber": "0x1876876",
          "transactionHash": "0x6b290ec0d6f44346a88f2e1c5e5313e6aff882dd737f1aab5de1e5c4d1c80319",
          "transactionIndex": "0x20",
          "logIndex": "0x9f",
          "removed": false
        },
        {
          "address": "0xf077d4d0508505c5a80249afc10bc6ead90e47f1",
          "topics": [
            "0xe36ceebd3770780c5617d53efc7d77328074f1248146245ed3b854cbf651fb37"
          ],
          "data": "0x0000000000000000000000004c62f6121e6f967a0872da8364995e9b68c1e82f0000000000000000000000000000000000000000000000000000000000000000000000000000000000000000000000000000000000000000000000000000000000000000000000000000000000000000000000000000000000000000000000010000000000000000000000000000000000000000000000000000000000000000000000000000000000000000000000000000000000000000000000000000000000000000000000000000000000000000000000000000000000000000697b1c4f00000000000000000000000000000000000000000000000000000000697b18cb",
          "blockHash": "0x0a644ac7c18a7e3a1e537dc401b992609b6a776ba58ba4f5d405a1f5b0a67965",
          "blockNumber": "0x1876876",
          "transactionHash": "0x6b290ec0d6f44346a88f2e1c5e5313e6aff882dd737f1aab5de1e5c4d1c80319",
          "transactionIndex": "0x20",
          "logIndex": "0xa0",
          "removed": false
        }
      ],
      "logsBloom": "0x00000000000000000000000000000000010000000000000000000000400000000000000000000000000000000000000000000000000000000000000000000000000000000000000000000000000000000000000000000000001000000000000000000000000000000000000000000000400000000080000000000000000000000000000000000000000000100000000000000000000020000000000000000000000000000000000000000000000000000000000000000000400000000000000000000000000000000100000000000040000000000000000000000000000000000000000000000000000000000000000000000000000000000000000000001002",
      "type": "0x2",
      "transactionHash": "0x6b290ec0d6f44346a88f2e1c5e5313e6aff882dd737f1aab5de1e5c4d1c80319",
      "transactionIndex": "0x20",
      "blockHash": "0x0a644ac7c18a7e3a1e537dc401b992609b6a776ba58ba4f5d405a1f5b0a67965",
      "blockNumber": "0x1876876",
      "gasUsed": "0x2ec57",
      "effectiveGasPrice": "0x1c7c5f13f5232",
      "from": "0x4c62f6121e6f967a0872da8364995e9b68c1e82f",
      "to": "0xf077d4d0508505c5a80249afc10bc6ead90e47f1",
      "contractAddress": null
    }
  ],
  "libraries": [],
  "pending": [],
  "returns": {},
  "timestamp": 1769674957265,
  "chain": 369,
  "commit": null
}