{
  "transactions": [
    {
      "hash": "0x31c7f22080eb660cf3d7f7f771a58503db026f9eb3337ed94f58f8aaf58fa9f5",
      "transactionType": "CALL",
      "contractName": null,
      "contractAddress": "0xf077d4d0508505c5a80249afc10bc6ead90e47f1",
      "function": "makeCrime(uint8)",
      "arguments": [
        "0"
      ],
      "transaction": {
        "from": "0xeca7a53ba6a190c5d205bfdc7707cbc3399336c1",
        "to": "0xf077d4d0508505c5a80249afc10bc6ead90e47f1",
        "gas": "0x54ec2",
        "value": "0x0",
        "input": "0xc625abb40000000000000000000000000000000000000000000000000000000000000000",
        "nonce": "0x3c7",
        "chainId": "0x171"
      },
      "additionalContracts": [],
      "isFixedGasLimit": false
    }
  ],
  "receipts": [
    {
      "status": "0x1",
      "cumulativeGasUsed": "0x9cdfb2",
      "logs": [
        {
          "address": "0x74eadd7ebeeed638fd7c413134fa3d3433699d92",
          "topics": [
            "0x570f308d592bed3a47a73125665ce3b81fe296da89acff1af6d926e08a0a9f12"
          ],
          "data": "0x000000000000000000000000eca7a53ba6a190c5d205bfdc7707cbc3399336c100000000000000000000000000000000000000000000000000000000000231ba",
          "blockHash": "0x005a383e31885a1482673d100d960d678277a1b0c21658c2f5d64802e9bd5b8d",
          "blockNumber": "0x187577c",
          "transactionHash": "0x31c7f22080eb660cf3d7f7f771a58503db026f9eb3337ed94f58f8aaf58fa9f5",
          "transactionIndex": "0x18",
          "logIndex": "0xee",
          "removed": false
        },
        {
          "address": "0xf077d4d0508505c5a80249afc10bc6ead90e47f1",
          "topics": [
            "0xe36ceebd3770780c5617d53efc7d77328074f1248146245ed3b854cbf651fb37"
          ],
          "data": "0x000000000000000000000000eca7a53ba6a190c5d205bfdc7707cbc3399336c100000000000000000000000000000000000000000000000000000000000000000000000000000000000000000000000000000000000000000000000000000001000000000000000000000000000000000000000000000000000000000000000000000000000000000000000000000000000000000000000d9b5322251f0c0000000000000000000000000000000000000000000000000000000000000000001400000000000000000000000000000000000000000000000000000000697a6e2b00000000000000000000000000000000000000000000000000000000697a6aa7",
          "blockHash": "0x005a383e31885a1482673d100d960d678277a1b0c21658c2f5d64802e9bd5b8d",
          "blockNumber": "0x187577c",
          "transactionHash": "0x31c7f22080eb660cf3d7f7f771a58503db026f9eb3337ed94f58f8aaf58fa9f5",
          "transactionIndex": "0x18",
          "logIndex": "0xef",
          "removed": false
        }
      ],
      "logsBloom": "0x00000000000000000000000000000000004000000000000000000000400000000000000000000000000000000000000000000000000000000000000000000000000000000000000000008000000000000000000000000000000000000000000000000100000000000000000000000000400000000000000000000000000000000000000000000000000000100000000000000000000020000000000000000008000000000000000000000000000000000010000000000000000000000000000000000000000002000100000000000000000000000000000000000000000000000000000000000000000000000000000000000000000000000000000000000002",
      "type": "0x2",
      "transactionHash": "0x31c7f22080eb660cf3d7f7f771a58503db026f9eb3337ed94f58f8aaf58fa9f5",
      "transactionIndex": "0x18",
      "blockHash": "0x005a383e31885a1482673d100d960d678277a1b0c21658c2f5d64802e9bd5b8d",
      "blockNumber": "0x187577c",
      "gasUsed": "0x3d7b8",
      "effectiveGasPrice": "0x31f91bb751402",
      "from": "0xeca7a53ba6a190c5d205bfdc7707cbc3399336c1",
      "to": "0xf077d4d0508505c5a80249afc10bc6ead90e47f1",
      "contractAddress": null
    }
  ],
  "libraries": [],
  "pending": [],
  "returns": {},
  "timestamp": 1769630376265,
  "chain": 369,
  "commit": null
}