{
  "transactions": [
    {
      "hash": "0x2fe0e133da3500b0712f5ef6021a884046aa7a18bc6ed32591ce0a92abf16020",
      "transactionType": "CALL",
      "contractName": null,
      "contractAddress": "0xf077d4d0508505c5a80249afc10bc6ead90e47f1",
      "function": "makeCrime(uint8)",
      "arguments": [
        "0"
      ],
      "transaction": {
        "from": "0x4c62f6121e6f967a0872da8364995e9b68c1e82f",
        "to": "0xf077d4d0508505c5a80249afc10bc6ead90e47f1",
        "gas": "0x3fd59",
        "value": "0x0",
        "input": "0xc625abb40000000000000000000000000000000000000000000000000000000000000000",
        "nonce": "0x715",
        "chainId": "0x171"
      },
      "additionalContracts": [],
      "isFixedGasLimit": false
    }
  ],
  "receipts": [
    {
      "status": "0x1",
      "cumulativeGasUsed": "0x355bcb",
      "logs": [
        {
          "address": "0xdcd5e9c0b2b4e9cb93677a258521d854b3a9f5a1",
          "topics": [
            "0x0bff5315606c84d1cee047503678048ca39946be11bfdd5a8c03fe5e272d98e3"
          ],
          "data": "0x0000000000000000000000004c62f6121e6f967a0872da8364995e9b68c1e82f00000000000000000000000000000000000000000000000000000000697988cb0000000000000000000000000000000000000000000000000000000000000000",
          "blockHash": "0xe6550cef9fa1ab345505cccce7e4f2416569f15dc568462257a23d5d9ad8d25f",
          "blockNumber": "0x18740df",
          "transactionHash": "0x2fe0e133da3500b0712f5ef6021a884046aa7a18bc6ed32591ce0a92abf16020",
          "transactionIndex": "0x13",
          "logIndex": "0x68",
          "removed": false
        },
        {
          "address": "0xf077d4d0508505c5a80249afc10bc6ead90e47f1",
          "topics": [
            "0xe36ceebd3770780c5617d53efc7d77328074f1248146245ed3b854cbf651fb37"
          ],
          "data": "0x0000000000000000000000004c62f6121e6f967a0872da8364995e9b68c1e82f0000000000000000000000000000000000000000000000000000000000000000000000000000000000000000000000000000000000000000000000000000000000000000000000000000000000000000000000000000000000000000000000010000000000000000000000000000000000000000000000000000000000000000000000000000000000000000000000000000000000000000000000000000000000000000000000000000000000000000000000000000000000000000697987090000000000000000000000000000000000000000000000000000000069798385",
          "blockHash": "0xe6550cef9fa1ab345505cccce7e4f2416569f15dc568462257a23d5d9ad8d25f",
          "blockNumber": "0x18740df",
          "transactionHash": "0x2fe0e133da3500b0712f5ef6021a884046aa7a18bc6ed32591ce0a92abf16020",
          "transactionIndex": "0x13",
          "logIndex": "0x69",
          "removed": false
        }
      ],
      "logsBloom": "0x00000000000000000000000000000000010000000000000000000000400000000000000000000000000000000000000000000000000000000000000000000000000000000000000000000000000000000000000000000000001000000000000000000000000000000000000000000000400000000080000000000000000000000000000000000000000000100000000000000000000020000000000000000000000000000000000000000000000000000000000000000000400000000000000000000000000000000100000000000040000000000000000000000000000000000000000000000000000000000000000000000000000000000000000000001002",
      "type": "0x2",
      "transactionHash": "0x2fe0e133da3500b0712f5ef6021a884046aa7a18bc6ed32591ce0a92abf16020",
      "transactionIndex": "0x13",
      "blockHash": "0xe6550cef9fa1ab345505cccce7e4f2416569f15dc568462257a23d5d9ad8d25f",
      "blockNumber": "0x18740df",
      "gasUsed": "0x2e370",
      "effectiveGasPrice": "0x2eda91c11d83f",
      "from": "0x4c62f6121e6f967a0872da8364995e9b68c1e82f",
      "to": "0xf077d4d0508505c5a80249afc10bc6ead90e47f1",
      "contractAddress": null
    }
  ],
  "libraries": [],
  "pending": [],
  "returns": {},
  "timestamp": 1769571206787,
  "chain": 369,
  "commit": null
}