{
  "transactions": [
    {
      "hash": "0xd89215f4a4f9867cf17e848d1ced20ba3266af47473a098230efc791db938806",
      "transactionType": "CALL",
      "contractName": null,
      "contractAddress": "0xf077d4d0508505c5a80249afc10bc6ead90e47f1",
      "function": "makeCrime(uint8)",
      "arguments": [
        "0"
      ],
      "transaction": {
        "from": "0xac56dc5a4a9de0197f7b8f584ea04ec7e0123dde",
        "to": "0xf077d4d0508505c5a80249afc10bc6ead90e47f1",
        "gas": "0x54352",
        "value": "0x0",
        "input": "0xc625abb40000000000000000000000000000000000000000000000000000000000000000",
        "nonce": "0x243",
        "chainId": "0x171"
      },
      "additionalContracts": [],
      "isFixedGasLimit": false
    }
  ],
  "receipts": [
    {
      "status": "0x1",
      "cumulativeGasUsed": "0x1c83dc1",
      "logs": [
        {
          "address": "0xf077d4d0508505c5a80249afc10bc6ead90e47f1",
          "topics": [
            "0xe36ceebd3770780c5617d53efc7d77328074f1248146245ed3b854cbf651fb37"
          ],
          "data": "0x000000000000000000000000ac56dc5a4a9de0197f7b8f584ea04ec7e0123dde0000000000000000000000000000000000000000000000000000000000000000000000000000000000000000000000000000000000000000000000000000000000000000000000000000000000000000000000000000000000000000000000000000000000000000000000000000000000000000000000000000000000000000000000000000000000000000000000000000000000000000000000000000000000000000000000000000000000000000000000000000000000000000696ce6b100000000000000000000000000000000000000000000000000000000696ce32d",
          "blockHash": "0x029d91be9430f57e288e7211c6fc644f1119fe5a27fb3029034aad894a20359c",
          "blockNumber": "0x18605c7",
          "transactionHash": "0xd89215f4a4f9867cf17e848d1ced20ba3266af47473a098230efc791db938806",
          "transactionIndex": "0x6c",
          "logIndex": "0x373",
          "removed": false
        }
      ],
      "logsBloom": "0x00000000000000000000000000000000000000000000000000000000400000000000000000000000000000000000000000000000000000000000000000000000000000000000000000000000000000000000000000000000000000000000000000000000000000000000000000000000400000000000000000000000000000000000000000000000000000100000000000000000000020000000000000000000000000000000000000000000000000000000000000000000000000000000000000000000000000000100000000000000000000000000000000000000000000000000000000000000000000000000000000000000000000000000000000000002",
      "type": "0x2",
      "transactionHash": "0xd89215f4a4f9867cf17e848d1ced20ba3266af47473a098230efc791db938806",
      "transactionIndex": "0x6c",
      "blockHash": "0x029d91be9430f57e288e7211c6fc644f1119fe5a27fb3029034aad894a20359c",
      "blockNumber": "0x18605c7",
      "gasUsed": "0x1eca9",
      "effectiveGasPrice": "0xcd3782d11cd5",
      "from": "0xac56dc5a4a9de0197f7b8f584ea04ec7e0123dde",
      "to": "0xf077d4d0508505c5a80249afc10bc6ead90e47f1",
      "contractAddress": null
    }
  ],
  "libraries": [],
  "pending": [],
  "returns": {},
  "timestamp": 1768743725904,
  "chain": 369,
  "commit": "953695a"
}