{
  "transactions": [
    {
      "hash": "0x319aac7aac27968db3a8bda91c896311e1b92c6b27b21edbb17094fc37dde806",
      "transactionType": "CALL",
      "contractName": null,
      "contractAddress": "0xf077d4d0508505c5a80249afc10bc6ead90e47f1",
      "function": "makeCrime(uint8)",
      "arguments": [
        "0"
      ],
      "transaction": {
        "from": "0xac56dc5a4a9de0197f7b8f584ea04ec7e0123dde",
        "to": "0xf077d4d0508505c5a80249afc10bc6ead90e47f1",
        "gas": "0x54352",
        "value": "0x0",
        "input": "0xc625abb40000000000000000000000000000000000000000000000000000000000000000",
        "nonce": "0x347",
        "chainId": "0x171"
      },
      "additionalContracts": [],
      "isFixedGasLimit": false
    }
  ],
  "receipts": [
    {
      "status": "0x1",
      "cumulativeGasUsed": "0x72a03e",
      "logs": [
        {
          "address": "0xf077d4d0508505c5a80249afc10bc6ead90e47f1",
          "topics": [
            "0xe36ceebd3770780c5617d53efc7d77328074f1248146245ed3b854cbf651fb37"
          ],
          "data": "0x000000000000000000000000ac56dc5a4a9de0197f7b8f584ea04ec7e0123dde000000000000000000000000000000000000000000000000000000000000000000000000000000000000000000000000000000000000000000000000000000000000000000000000000000000000000000000000000000000000000000000000000000000000000000000000000000000000000000000000000000000000000000000000000000000000000000000000000000000000000000000000000000000000000000000000000000000000000000000000000000000000000069793803000000000000000000000000000000000000000000000000000000006979347f",
          "blockHash": "0xd10cd58df9e8ce0c5064e8956878c20a67a79f2e712c77ab281ff284a67f9d40",
          "blockNumber": "0x1873924",
          "transactionHash": "0x319aac7aac27968db3a8bda91c896311e1b92c6b27b21edbb17094fc37dde806",
          "transactionIndex": "0x17",
          "logIndex": "0x7c",
          "removed": false
        }
      ],
      "logsBloom": "0x00000000000000000000000000000000000000000000000000000000400000000000000000000000000000000000000000000000000000000000000000000000000000000000000000000000000000000000000000000000000000000000000000000000000000000000000000000000400000000000000000000000000000000000000000000000000000100000000000000000000020000000000000000000000000000000000000000000000000000000000000000000000000000000000000000000000000000100000000000000000000000000000000000000000000000000000000000000000000000000000000000000000000000000000000000002",
      "type": "0x2",
      "transactionHash": "0x319aac7aac27968db3a8bda91c896311e1b92c6b27b21edbb17094fc37dde806",
      "transactionIndex": "0x17",
      "blockHash": "0xd10cd58df9e8ce0c5064e8956878c20a67a79f2e712c77ab281ff284a67f9d40",
      "blockNumber": "0x1873924",
      "gasUsed": "0x1eca9",
      "effectiveGasPrice": "0x4392af4e79b52",
      "from": "0xac56dc5a4a9de0197f7b8f584ea04ec7e0123dde",
      "to": "0xf077d4d0508505c5a80249afc10bc6ead90e47f1",
      "contractAddress": null
    }
  ],
  "libraries": [],
  "pending": [],
  "returns": {},
  "timestamp": 1769550976898,
  "chain": 369,
  "commit": null
}