{
  "transactions": [
    {
      "hash": "0x2732320328bb5e700f6bf24bd96e689b5a04158e03f31f61bbd2e2c00806a69d",
      "transactionType": "CALL",
      "contractName": null,
      "contractAddress": "0xf077d4d0508505c5a80249afc10bc6ead90e47f1",
      "function": "makeCrime(uint8)",
      "arguments": [
        "0"
      ],
      "transaction": {
        "from": "0xeca7a53ba6a190c5d205bfdc7707cbc3399336c1",
        "to": "0xf077d4d0508505c5a80249afc10bc6ead90e47f1",
        "gas": "0x55e10",
        "value": "0x0",
        "input": "0xc625abb40000000000000000000000000000000000000000000000000000000000000000",
        "nonce": "0x569",
        "chainId": "0x171"
      },
      "additionalContracts": [],
      "isFixedGasLimit": false
    }
  ],
  "receipts": [
    {
      "status": "0x1",
      "cumulativeGasUsed": "0x3904ba",
      "logs": [
        {
          "address": "0xf077d4d0508505c5a80249afc10bc6ead90e47f1",
          "topics": [
            "0xe36ceebd3770780c5617d53efc7d77328074f1248146245ed3b854cbf651fb37"
          ],
          "data": "0x000000000000000000000000eca7a53ba6a190c5d205bfdc7707cbc3399336c1000000000000000000000000000000000000000000000000000000000000000000000000000000000000000000000000000000000000000000000000000000000000000000000000000000000000000000000000000000000000000000000000000000000000000000000000000000000000000000000000000000000000000000000000000000000000000000000000000000000000000000000000000000000000000000000000000000000000000000000000000000000000000069879f5b0000000000000000000000000000000000000000000000000000000069879bd7",
          "blockHash": "0x6c4646fe2a5fbe513e532c9421c75fe84e324c58baf3df98ca72803857a12336",
          "blockNumber": "0x188a0b1",
          "transactionHash": "0x2732320328bb5e700f6bf24bd96e689b5a04158e03f31f61bbd2e2c00806a69d",
          "transactionIndex": "0x28",
          "logIndex": "0x5f",
          "removed": false
        }
      ],
      "logsBloom": "0x00000000000000000000000000000000000000000000000000000000400000000000000000000000000000000000000000000000000000000000000000000000000000000000000000000000000000000000000000000000000000000000000000000000000000000000000000000000400000000000000000000000000000000000000000000000000000100000000000000000000020000000000000000000000000000000000000000000000000000000000000000000000000000000000000000000000000000100000000000000000000000000000000000000000000000000000000000000000000000000000000000000000000000000000000000002",
      "type": "0x2",
      "transactionHash": "0x2732320328bb5e700f6bf24bd96e689b5a04158e03f31f61bbd2e2c00806a69d",
      "transactionIndex": "0x28",
      "blockHash": "0x6c4646fe2a5fbe513e532c9421c75fe84e324c58baf3df98ca72803857a12336",
      "blockNumber": "0x188a0b1",
      "gasUsed": "0x1f525",
      "effectiveGasPrice": "0x2efa1646cf3bb",
      "from": "0xeca7a53ba6a190c5d205bfdc7707cbc3399336c1",
      "to": "0xf077d4d0508505c5a80249afc10bc6ead90e47f1",
      "contractAddress": null
    }
  ],
  "libraries": [],
  "pending": [],
  "returns": {},
  "timestamp": 1770494936840,
  "chain": 369,
  "commit": null
}