{
  "transactions": [
    {
      "hash": "0xa852251a9c92ec2f60d490706a8256f07f1fc3e2b42d61619a25350c58a2f1fd",
      "transactionType": "CALL",
      "contractName": null,
      "contractAddress": "0xf077d4d0508505c5a80249afc10bc6ead90e47f1",
      "function": "makeCrime(uint8)",
      "arguments": [
        "0"
      ],
      "transaction": {
        "from": "0x4c62f6121e6f967a0872da8364995e9b68c1e82f",
        "to": "0xf077d4d0508505c5a80249afc10bc6ead90e47f1",
        "gas": "0x3fd59",
        "value": "0x0",
        "input": "0xc625abb40000000000000000000000000000000000000000000000000000000000000000",
        "nonce": "0x708",
        "chainId": "0x171"
      },
      "additionalContracts": [],
      "isFixedGasLimit": false
    }
  ],
  "receipts": [
    {
      "status": "0x1",
      "cumulativeGasUsed": "0x18557a5",
      "logs": [
        {
          "address": "0xdcd5e9c0b2b4e9cb93677a258521d854b3a9f5a1",
          "topics": [
            "0x0bff5315606c84d1cee047503678048ca39946be11bfdd5a8c03fe5e272d98e3"
          ],
          "data": "0x0000000000000000000000004c62f6121e6f967a0872da8364995e9b68c1e82f0000000000000000000000000000000000000000000000000000000069795bfd0000000000000000000000000000000000000000000000000000000000000000",
          "blockHash": "0xccd603eac42b3029cd7384ab0d72296e22ea77d022ba7d8e72e7124e015f43f4",
          "blockNumber": "0x1873c7e",
          "transactionHash": "0xa852251a9c92ec2f60d490706a8256f07f1fc3e2b42d61619a25350c58a2f1fd",
          "transactionIndex": "0x2c",
          "logIndex": "0x33e",
          "removed": false
        },
        {
          "address": "0xf077d4d0508505c5a80249afc10bc6ead90e47f1",
          "topics": [
            "0xe36ceebd3770780c5617d53efc7d77328074f1248146245ed3b854cbf651fb37"
          ],
          "data": "0x0000000000000000000000004c62f6121e6f967a0872da8364995e9b68c1e82f000000000000000000000000000000000000000000000000000000000000000000000000000000000000000000000000000000000000000000000000000000000000000000000000000000000000000000000000000000000000000000000001000000000000000000000000000000000000000000000000000000000000000000000000000000000000000000000000000000000000000000000000000000000000000000000000000000000000000000000000000000000000000069795a3b00000000000000000000000000000000000000000000000000000000697956b7",
          "blockHash": "0xccd603eac42b3029cd7384ab0d72296e22ea77d022ba7d8e72e7124e015f43f4",
          "blockNumber": "0x1873c7e",
          "transactionHash": "0xa852251a9c92ec2f60d490706a8256f07f1fc3e2b42d61619a25350c58a2f1fd",
          "transactionIndex": "0x2c",
          "logIndex": "0x33f",
          "removed": false
        }
      ],
      "logsBloom": "0x00000000000000000000000000000000010000000000000000000000400000000000000000000000000000000000000000000000000000000000000000000000000000000000000000000000000000000000000000000000001000000000000000000000000000000000000000000000400000000080000000000000000000000000000000000000000000100000000000000000000020000000000000000000000000000000000000000000000000000000000000000000400000000000000000000000000000000100000000000040000000000000000000000000000000000000000000000000000000000000000000000000000000000000000000001002",
      "type": "0x2",
      "transactionHash": "0xa852251a9c92ec2f60d490706a8256f07f1fc3e2b42d61619a25350c58a2f1fd",
      "transactionIndex": "0x2c",
      "blockHash": "0xccd603eac42b3029cd7384ab0d72296e22ea77d022ba7d8e72e7124e015f43f4",
      "blockNumber": "0x1873c7e",
      "gasUsed": "0x2e370",
      "effectiveGasPrice": "0x2ac244f157c97",
      "from": "0x4c62f6121e6f967a0872da8364995e9b68c1e82f",
      "to": "0xf077d4d0508505c5a80249afc10bc6ead90e47f1",
      "contractAddress": null
    }
  ],
  "libraries": [],
  "pending": [],
  "returns": {},
  "timestamp": 1769559735666,
  "chain": 369,
  "commit": null
}