{
  "transactions": [
    {
      "hash": "0x7d01ae4b0a3ba96e7f51216d969337dc53f43c3b5ef2b7ae808379e4c490d239",
      "transactionType": "CALL",
      "contractName": null,
      "contractAddress": "0xf077d4d0508505c5a80249afc10bc6ead90e47f1",
      "function": "makeCrime(uint8)",
      "arguments": [
        "0"
      ],
      "transaction": {
        "from": "0xac56dc5a4a9de0197f7b8f584ea04ec7e0123dde",
        "to": "0xf077d4d0508505c5a80249afc10bc6ead90e47f1",
        "gas": "0x54352",
        "value": "0x0",
        "input": "0xc625abb40000000000000000000000000000000000000000000000000000000000000000",
        "nonce": "0x365",
        "chainId": "0x171"
      },
      "additionalContracts": [],
      "isFixedGasLimit": false
    }
  ],
  "receipts": [
    {
      "status": "0x1",
      "cumulativeGasUsed": "0xd1b797",
      "logs": [
        {
          "address": "0xf077d4d0508505c5a80249afc10bc6ead90e47f1",
          "topics": [
            "0xe36ceebd3770780c5617d53efc7d77328074f1248146245ed3b854cbf651fb37"
          ],
          "data": "0x000000000000000000000000ac56dc5a4a9de0197f7b8f584ea04ec7e0123dde0000000000000000000000000000000000000000000000000000000000000000000000000000000000000000000000000000000000000000000000000000000000000000000000000000000000000000000000000000000000000000000000000000000000000000000000000000000000000000000000000000000000000000000000000000000000000000000000000000000000000000000000000000000000000000000000000000000000000000000000000000000000000000697999150000000000000000000000000000000000000000000000000000000069799591",
          "blockHash": "0x997208506f90ee0d0f60539747ccb256f784656fef2746df213d7557e9896b04",
          "blockNumber": "0x18742a5",
          "transactionHash": "0x7d01ae4b0a3ba96e7f51216d969337dc53f43c3b5ef2b7ae808379e4c490d239",
          "transactionIndex": "0x19",
          "logIndex": "0x2ba",
          "removed": false
        }
      ],
      "logsBloom": "0x00000000000000000000000000000000000000000000000000000000400000000000000000000000000000000000000000000000000000000000000000000000000000000000000000000000000000000000000000000000000000000000000000000000000000000000000000000000400000000000000000000000000000000000000000000000000000100000000000000000000020000000000000000000000000000000000000000000000000000000000000000000000000000000000000000000000000000100000000000000000000000000000000000000000000000000000000000000000000000000000000000000000000000000000000000002",
      "type": "0x2",
      "transactionHash": "0x7d01ae4b0a3ba96e7f51216d969337dc53f43c3b5ef2b7ae808379e4c490d239",
      "transactionIndex": "0x19",
      "blockHash": "0x997208506f90ee0d0f60539747ccb256f784656fef2746df213d7557e9896b04",
      "blockNumber": "0x18742a5",
      "gasUsed": "0x1eca9",
      "effectiveGasPrice": "0x37e46cddfe653",
      "from": "0xac56dc5a4a9de0197f7b8f584ea04ec7e0123dde",
      "to": "0xf077d4d0508505c5a80249afc10bc6ead90e47f1",
      "contractAddress": null
    }
  ],
  "libraries": [],
  "pending": [],
  "returns": {},
  "timestamp": 1769575826273,
  "chain": 369,
  "commit": null
}