{
  "transactions": [
    {
      "hash": "0x2e9b483241b51d24b0df3680afbf37826a6269fb172e50ced439eec3b1e5273f",
      "transactionType": "CALL",
      "contractName": null,
      "contractAddress": "0xf077d4d0508505c5a80249afc10bc6ead90e47f1",
      "function": "makeCrime(uint8)",
      "arguments": [
        "0"
      ],
      "transaction": {
        "from": "0xeca7a53ba6a190c5d205bfdc7707cbc3399336c1",
        "to": "0xf077d4d0508505c5a80249afc10bc6ead90e47f1",
        "gas": "0x54ec2",
        "value": "0x0",
        "input": "0xc625abb40000000000000000000000000000000000000000000000000000000000000000",
        "nonce": "0x2ea",
        "chainId": "0x171"
      },
      "additionalContracts": [],
      "isFixedGasLimit": false
    }
  ],
  "receipts": [
    {
      "status": "0x1",
      "cumulativeGasUsed": "0x3b6417",
      "logs": [
        {
          "address": "0x74eadd7ebeeed638fd7c413134fa3d3433699d92",
          "topics": [
            "0x570f308d592bed3a47a73125665ce3b81fe296da89acff1af6d926e08a0a9f12"
          ],
          "data": "0x000000000000000000000000eca7a53ba6a190c5d205bfdc7707cbc3399336c10000000000000000000000000000000000000000000000000000000000022dbe",
          "blockHash": "0x83ff4990cd0048a78fede36c4b1eeff44823dfe5bca732c87646513ac7b6ef5d",
          "blockNumber": "0x1870c85",
          "transactionHash": "0x2e9b483241b51d24b0df3680afbf37826a6269fb172e50ced439eec3b1e5273f",
          "transactionIndex": "0x13",
          "logIndex": "0x45",
          "removed": false
        },
        {
          "address": "0xf077d4d0508505c5a80249afc10bc6ead90e47f1",
          "topics": [
            "0xe36ceebd3770780c5617d53efc7d77328074f1248146245ed3b854cbf651fb37"
          ],
          "data": "0x000000000000000000000000eca7a53ba6a190c5d205bfdc7707cbc3399336c1000000000000000000000000000000000000000000000000000000000000000000000000000000000000000000000000000000000000000000000000000000010000000000000000000000000000000000000000000000000000000000000000000000000000000000000000000000000000000000000011ac28a8c72958000000000000000000000000000000000000000000000000000000000000000000140000000000000000000000000000000000000000000000000000000069776fd70000000000000000000000000000000000000000000000000000000069776c53",
          "blockHash": "0x83ff4990cd0048a78fede36c4b1eeff44823dfe5bca732c87646513ac7b6ef5d",
          "blockNumber": "0x1870c85",
          "transactionHash": "0x2e9b483241b51d24b0df3680afbf37826a6269fb172e50ced439eec3b1e5273f",
          "transactionIndex": "0x13",
          "logIndex": "0x46",
          "removed": false
        }
      ],
      "logsBloom": "0x00000000000000000000000000000000004000000000000000000000400000000000000000000000000000000000000000000000000000000000000000000000000000000000000000008000000000000000000000000000000000000000000000000100000000000000000000000000400000000000000000000000000000000000000000000000000000100000000000000000000020000000000000000008000000000000000000000000000000000010000000000000000000000000000000000000000002000100000000000000000000000000000000000000000000000000000000000000000000000000000000000000000000000000000000000002",
      "type": "0x2",
      "transactionHash": "0x2e9b483241b51d24b0df3680afbf37826a6269fb172e50ced439eec3b1e5273f",
      "transactionIndex": "0x13",
      "blockHash": "0x83ff4990cd0048a78fede36c4b1eeff44823dfe5bca732c87646513ac7b6ef5d",
      "blockNumber": "0x1870c85",
      "gasUsed": "0x3d7b8",
      "effectiveGasPrice": "0x1c105bfc4ade3",
      "from": "0xeca7a53ba6a190c5d205bfdc7707cbc3399336c1",
      "to": "0xf077d4d0508505c5a80249afc10bc6ead90e47f1",
      "contractAddress": null
    }
  ],
  "libraries": [],
  "pending": [],
  "returns": {},
  "timestamp": 1769434196702,
  "chain": 369,
  "commit": "953695a"
}