{
  "transactions": [
    {
      "hash": "0x97da247f2854297ec69b351ad413aeef899b046613af64ad2949b034a4b7b18a",
      "transactionType": "CALL",
      "contractName": null,
      "contractAddress": "0xf077d4d0508505c5a80249afc10bc6ead90e47f1",
      "function": "makeCrime(uint8)",
      "arguments": [
        "0"
      ],
      "transaction": {
        "from": "0xeca7a53ba6a190c5d205bfdc7707cbc3399336c1",
        "to": "0xf077d4d0508505c5a80249afc10bc6ead90e47f1",
        "gas": "0x41b40",
        "value": "0x0",
        "input": "0xc625abb40000000000000000000000000000000000000000000000000000000000000000",
        "nonce": "0x586",
        "chainId": "0x171"
      },
      "additionalContracts": [],
      "isFixedGasLimit": false
    }
  ],
  "receipts": [
    {
      "status": "0x1",
      "cumulativeGasUsed": "0x9e22ad",
      "logs": [
        {
          "address": "0x74eadd7ebeeed638fd7c413134fa3d3433699d92",
          "topics": [
            "0x570f308d592bed3a47a73125665ce3b81fe296da89acff1af6d926e08a0a9f12"
          ],
          "data": "0x000000000000000000000000eca7a53ba6a190c5d205bfdc7707cbc3399336c10000000000000000000000000000000000000000000000000000000000023b92",
          "blockHash": "0xe04fe614fd3f912dced705759035111ff74e93d6248e41d466a84c55b5276531",
          "blockNumber": "0x188ab08",
          "transactionHash": "0x97da247f2854297ec69b351ad413aeef899b046613af64ad2949b034a4b7b18a",
          "transactionIndex": "0x2a",
          "logIndex": "0xdc",
          "removed": false
        },
        {
          "address": "0xf077d4d0508505c5a80249afc10bc6ead90e47f1",
          "topics": [
            "0xe36ceebd3770780c5617d53efc7d77328074f1248146245ed3b854cbf651fb37"
          ],
          "data": "0x000000000000000000000000eca7a53ba6a190c5d205bfdc7707cbc3399336c100000000000000000000000000000000000000000000000000000000000000000000000000000000000000000000000000000000000000000000000000000001000000000000000000000000000000000000000000000000000000000000000000000000000000000000000000000000000000000000001811bcdf96517000000000000000000000000000000000000000000000000000000000000000000014000000000000000000000000000000000000000000000000000000006988093700000000000000000000000000000000000000000000000000000000698805b3",
          "blockHash": "0xe04fe614fd3f912dced705759035111ff74e93d6248e41d466a84c55b5276531",
          "blockNumber": "0x188ab08",
          "transactionHash": "0x97da247f2854297ec69b351ad413aeef899b046613af64ad2949b034a4b7b18a",
          "transactionIndex": "0x2a",
          "logIndex": "0xdd",
          "removed": false
        }
      ],
      "logsBloom": "0x00000000000000000000000000000000004000000000000000000000400000000000000000000000000000000000000000000000000000000000000000000000000000000000000000008000000000000000000000000000000000000000000000000100000000000000000000000000400000000000000000000000000000000000000000000000000000100000000000000000000020000000000000000008000000000000000000000000000000000010000000000000000000000000000000000000000002000100000000000000000000000000000000000000000000000000000000000000000000000000000000000000000000000000000000000002",
      "type": "0x2",
      "transactionHash": "0x97da247f2854297ec69b351ad413aeef899b046613af64ad2949b034a4b7b18a",
      "transactionIndex": "0x2a",
      "blockHash": "0xe04fe614fd3f912dced705759035111ff74e93d6248e41d466a84c55b5276531",
      "blockNumber": "0x188ab08",
      "gasUsed": "0x3e2cd",
      "effectiveGasPrice": "0x32ccf12c32b2a",
      "from": "0xeca7a53ba6a190c5d205bfdc7707cbc3399336c1",
      "to": "0xf077d4d0508505c5a80249afc10bc6ead90e47f1",
      "contractAddress": null
    }
  ],
  "libraries": [],
  "pending": [],
  "returns": {},
  "timestamp": 1770522036475,
  "chain": 369,
  "commit": null
}