{
  "transactions": [
    {
      "hash": "0x3e9ccc3b7d80817c13129ff3c22e6f1609fd5d7573c7e44be219f62e2df2e41b",
      "transactionType": "CALL",
      "contractName": null,
      "contractAddress": "0xf077d4d0508505c5a80249afc10bc6ead90e47f1",
      "function": "makeCrime(uint8)",
      "arguments": [
        "0"
      ],
      "transaction": {
        "from": "0x4c62f6121e6f967a0872da8364995e9b68c1e82f",
        "to": "0xf077d4d0508505c5a80249afc10bc6ead90e47f1",
        "gas": "0x3fd59",
        "value": "0x0",
        "input": "0xc625abb40000000000000000000000000000000000000000000000000000000000000000",
        "nonce": "0x723",
        "chainId": "0x171"
      },
      "additionalContracts": [],
      "isFixedGasLimit": false
    }
  ],
  "receipts": [
    {
      "status": "0x1",
      "cumulativeGasUsed": "0x4801f7",
      "logs": [
        {
          "address": "0x74eadd7ebeeed638fd7c413134fa3d3433699d92",
          "topics": [
            "0x570f308d592bed3a47a73125665ce3b81fe296da89acff1af6d926e08a0a9f12"
          ],
          "data": "0x0000000000000000000000004c62f6121e6f967a0872da8364995e9b68c1e82f000000000000000000000000000000000000000000000000000000000000012c",
          "blockHash": "0xed9e23b2b73bb3da10d9556675b28b307f68647536706ac626d4603710050c71",
          "blockNumber": "0x187454a",
          "transactionHash": "0x3e9ccc3b7d80817c13129ff3c22e6f1609fd5d7573c7e44be219f62e2df2e41b",
          "transactionIndex": "0x10",
          "logIndex": "0x74",
          "removed": false
        },
        {
          "address": "0xf077d4d0508505c5a80249afc10bc6ead90e47f1",
          "topics": [
            "0xe36ceebd3770780c5617d53efc7d77328074f1248146245ed3b854cbf651fb37"
          ],
          "data": "0x0000000000000000000000004c62f6121e6f967a0872da8364995e9b68c1e82f00000000000000000000000000000000000000000000000000000000000000000000000000000000000000000000000000000000000000000000000000000001000000000000000000000000000000000000000000000000000000000000000000000000000000000000000000000000000000000000000f5769f89a0b8c00000000000000000000000000000000000000000000000000000000000000000064000000000000000000000000000000000000000000000000000000006979b445000000000000000000000000000000000000000000000000000000006979b0c1",
          "blockHash": "0xed9e23b2b73bb3da10d9556675b28b307f68647536706ac626d4603710050c71",
          "blockNumber": "0x187454a",
          "transactionHash": "0x3e9ccc3b7d80817c13129ff3c22e6f1609fd5d7573c7e44be219f62e2df2e41b",
          "transactionIndex": "0x10",
          "logIndex": "0x75",
          "removed": false
        }
      ],
      "logsBloom": "0x00000000000000000000000000000000004000000000000000000000400000000000000000000000000000000000000000000000000000000000000000000000000000000000000000008000000000000000000000000000000000000000000000000100000000000000000000000000400000000000000000000000000000000000000000000000000000100000000000000000000020000000000000000008000000000000000000000000000000000010000000000000000000000000000000000000000002000100000000000000000000000000000000000000000000000000000000000000000000000000000000000000000000000000000000000002",
      "type": "0x2",
      "transactionHash": "0x3e9ccc3b7d80817c13129ff3c22e6f1609fd5d7573c7e44be219f62e2df2e41b",
      "transactionIndex": "0x10",
      "blockHash": "0xed9e23b2b73bb3da10d9556675b28b307f68647536706ac626d4603710050c71",
      "blockNumber": "0x187454a",
      "gasUsed": "0x3ca90",
      "effectiveGasPrice": "0x290ae465b0235",
      "from": "0x4c62f6121e6f967a0872da8364995e9b68c1e82f",
      "to": "0xf077d4d0508505c5a80249afc10bc6ead90e47f1",
      "contractAddress": null
    }
  ],
  "libraries": [],
  "pending": [],
  "returns": {},
  "timestamp": 1769582785822,
  "chain": 369,
  "commit": null
}