{
  "transactions": [
    {
      "hash": "0x7f124123e510fa07760cef71e1b51f2fc650565b4bd31f954ad3516ecb60ec35",
      "transactionType": "CALL",
      "contractName": null,
      "contractAddress": "0xf077d4d0508505c5a80249afc10bc6ead90e47f1",
      "function": "makeCrime(uint8)",
      "arguments": [
        "0"
      ],
      "transaction": {
        "from": "0x4c62f6121e6f967a0872da8364995e9b68c1e82f",
        "to": "0xf077d4d0508505c5a80249afc10bc6ead90e47f1",
        "gas": "0x3fd59",
        "value": "0x0",
        "input": "0xc625abb40000000000000000000000000000000000000000000000000000000000000000",
        "nonce": "0x726",
        "chainId": "0x171"
      },
      "additionalContracts": [],
      "isFixedGasLimit": false
    }
  ],
  "receipts": [
    {
      "status": "0x1",
      "cumulativeGasUsed": "0xa50f41",
      "logs": [
        {
          "address": "0x74eadd7ebeeed638fd7c413134fa3d3433699d92",
          "topics": [
            "0x570f308d592bed3a47a73125665ce3b81fe296da89acff1af6d926e08a0a9f12"
          ],
          "data": "0x0000000000000000000000004c62f6121e6f967a0872da8364995e9b68c1e82f0000000000000000000000000000000000000000000000000000000000000190",
          "blockHash": "0xd7b78fb59c141d913e150bfe158f89f60fb5172f397662f15d71c11e4ea0b5c9",
          "blockNumber": "0x1874640",
          "transactionHash": "0x7f124123e510fa07760cef71e1b51f2fc650565b4bd31f954ad3516ecb60ec35",
          "transactionIndex": "0x57",
          "logIndex": "0xf6",
          "removed": false
        },
        {
          "address": "0xf077d4d0508505c5a80249afc10bc6ead90e47f1",
          "topics": [
            "0xe36ceebd3770780c5617d53efc7d77328074f1248146245ed3b854cbf651fb37"
          ],
          "data": "0x0000000000000000000000004c62f6121e6f967a0872da8364995e9b68c1e82f00000000000000000000000000000000000000000000000000000000000000000000000000000000000000000000000000000000000000000000000000000001000000000000000000000000000000000000000000000000000000000000000000000000000000000000000000000000000000000000001043561a88293000000000000000000000000000000000000000000000000000000000000000000064000000000000000000000000000000000000000000000000000000006979be27000000000000000000000000000000000000000000000000000000006979baa3",
          "blockHash": "0xd7b78fb59c141d913e150bfe158f89f60fb5172f397662f15d71c11e4ea0b5c9",
          "blockNumber": "0x1874640",
          "transactionHash": "0x7f124123e510fa07760cef71e1b51f2fc650565b4bd31f954ad3516ecb60ec35",
          "transactionIndex": "0x57",
          "logIndex": "0xf7",
          "removed": false
        }
      ],
      "logsBloom": "0x00000000000000000000000000000000004000000000000000000000400000000000000000000000000000000000000000000000000000000000000000000000000000000000000000008000000000000000000000000000000000000000000000000100000000000000000000000000400000000000000000000000000000000000000000000000000000100000000000000000000020000000000000000008000000000000000000000000000000000010000000000000000000000000000000000000000002000100000000000000000000000000000000000000000000000000000000000000000000000000000000000000000000000000000000000002",
      "type": "0x2",
      "transactionHash": "0x7f124123e510fa07760cef71e1b51f2fc650565b4bd31f954ad3516ecb60ec35",
      "transactionIndex": "0x57",
      "blockHash": "0xd7b78fb59c141d913e150bfe158f89f60fb5172f397662f15d71c11e4ea0b5c9",
      "blockNumber": "0x1874640",
      "gasUsed": "0x3ca90",
      "effectiveGasPrice": "0x217f3c5c8d30b",
      "from": "0x4c62f6121e6f967a0872da8364995e9b68c1e82f",
      "to": "0xf077d4d0508505c5a80249afc10bc6ead90e47f1",
      "contractAddress": null
    }
  ],
  "libraries": [],
  "pending": [],
  "returns": {},
  "timestamp": 1769585316693,
  "chain": 369,
  "commit": null
}