{
  "transactions": [
    {
      "hash": "0x75434511eb0abdd6edc514fcf384f0b3d373b3fe9a91ba488ecbeddcc99e6fea",
      "transactionType": "CALL",
      "contractName": null,
      "contractAddress": "0xf077d4d0508505c5a80249afc10bc6ead90e47f1",
      "function": "makeCrime(uint8)",
      "arguments": [
        "0"
      ],
      "transaction": {
        "from": "0xaa73aa98480757d75aae288b5931261448eb0530",
        "to": "0xf077d4d0508505c5a80249afc10bc6ead90e47f1",
        "gas": "0x54be5",
        "value": "0x0",
        "input": "0xc625abb40000000000000000000000000000000000000000000000000000000000000000",
        "nonce": "0x5b",
        "chainId": "0x171"
      },
      "additionalContracts": [],
      "isFixedGasLimit": false
    }
  ],
  "receipts": [
    {
      "status": "0x1",
      "cumulativeGasUsed": "0x22f3a28",
      "logs": [
        {
          "address": "0x74eadd7ebeeed638fd7c413134fa3d3433699d92",
          "topics": [
            "0x570f308d592bed3a47a73125665ce3b81fe296da89acff1af6d926e08a0a9f12"
          ],
          "data": "0x000000000000000000000000aa73aa98480757d75aae288b5931261448eb053000000000000000000000000000000000000000000000000000000000000003e8",
          "blockHash": "0xfc10d28ddefe9e3921737c9b0ca97f481cf44fb7af5ddb00f83c42977b33473a",
          "blockNumber": "0x188aa53",
          "transactionHash": "0x75434511eb0abdd6edc514fcf384f0b3d373b3fe9a91ba488ecbeddcc99e6fea",
          "transactionIndex": "0x39",
          "logIndex": "0x144e",
          "removed": false
        },
        {
          "address": "0xf077d4d0508505c5a80249afc10bc6ead90e47f1",
          "topics": [
            "0xe36ceebd3770780c5617d53efc7d77328074f1248146245ed3b854cbf651fb37"
          ],
          "data": "0x000000000000000000000000aa73aa98480757d75aae288b5931261448eb053000000000000000000000000000000000000000000000000000000000000000000000000000000000000000000000000000000000000000000000000000000001000000000000000000000000000000000000000000000000000000000000000000000000000000000000000000000000000000000000001786f5bc91c788000000000000000000000000000000000000000000000000000000000000000000640000000000000000000000000000000000000000000000000000000069880211000000000000000000000000000000000000000000000000000000006987fe8d",
          "blockHash": "0xfc10d28ddefe9e3921737c9b0ca97f481cf44fb7af5ddb00f83c42977b33473a",
          "blockNumber": "0x188aa53",
          "transactionHash": "0x75434511eb0abdd6edc514fcf384f0b3d373b3fe9a91ba488ecbeddcc99e6fea",
          "transactionIndex": "0x39",
          "logIndex": "0x144f",
          "removed": false
        }
      ],
      "logsBloom": "0x00000000000000000000000000000000004000000000000000000000400000000000000000000000000000000000000000000000000000000000000000000000000000000000000000008000000000000000000000000000000000000000000000000100000000000000000000000000400000000000000000000000000000000000000000000000000000100000000000000000000020000000000000000008000000000000000000000000000000000010000000000000000000000000000000000000000002000100000000000000000000000000000000000000000000000000000000000000000000000000000000000000000000000000000000000002",
      "type": "0x2",
      "transactionHash": "0x75434511eb0abdd6edc514fcf384f0b3d373b3fe9a91ba488ecbeddcc99e6fea",
      "transactionIndex": "0x39",
      "blockHash": "0xfc10d28ddefe9e3921737c9b0ca97f481cf44fb7af5ddb00f83c42977b33473a",
      "blockNumber": "0x188aa53",
      "gasUsed": "0x3d5a5",
      "effectiveGasPrice": "0x31de026c8d387",
      "from": "0xaa73aa98480757d75aae288b5931261448eb0530",
      "to": "0xf077d4d0508505c5a80249afc10bc6ead90e47f1",
      "contractAddress": null
    }
  ],
  "libraries": [],
  "pending": [],
  "returns": {},
  "timestamp": 1770520206449,
  "chain": 369,
  "commit": null
}