{
  "transactions": [
    {
      "hash": "0x42db3cf7c643b09d7202fc2f8bad06a5f17fb3984282f99fbbc0887293643ae4",
      "transactionType": "CALL",
      "contractName": null,
      "contractAddress": "0xf077d4d0508505c5a80249afc10bc6ead90e47f1",
      "function": "makeCrime(uint8)",
      "arguments": [
        "0"
      ],
      "transaction": {
        "from": "0x4c62f6121e6f967a0872da8364995e9b68c1e82f",
        "to": "0xf077d4d0508505c5a80249afc10bc6ead90e47f1",
        "gas": "0x53c96",
        "value": "0x0",
        "input": "0xc625abb40000000000000000000000000000000000000000000000000000000000000000",
        "nonce": "0x71b",
        "chainId": "0x171"
      },
      "additionalContracts": [],
      "isFixedGasLimit": false
    }
  ],
  "receipts": [
    {
      "status": "0x1",
      "cumulativeGasUsed": "0x865707",
      "logs": [
        {
          "address": "0xdcd5e9c0b2b4e9cb93677a258521d854b3a9f5a1",
          "topics": [
            "0x0bff5315606c84d1cee047503678048ca39946be11bfdd5a8c03fe5e272d98e3"
          ],
          "data": "0x0000000000000000000000004c62f6121e6f967a0872da8364995e9b68c1e82f0000000000000000000000000000000000000000000000000000000069799bb30000000000000000000000000000000000000000000000000000000000000000",
          "blockHash": "0xdac2fe6d042819d17e4376d13b88fa3153180d5da92017e746dcc40d92089091",
          "blockNumber": "0x18742b9",
          "transactionHash": "0x42db3cf7c643b09d7202fc2f8bad06a5f17fb3984282f99fbbc0887293643ae4",
          "transactionIndex": "0x2a",
          "logIndex": "0xd0",
          "removed": false
        },
        {
          "address": "0xf077d4d0508505c5a80249afc10bc6ead90e47f1",
          "topics": [
            "0xe36ceebd3770780c5617d53efc7d77328074f1248146245ed3b854cbf651fb37"
          ],
          "data": "0x0000000000000000000000004c62f6121e6f967a0872da8364995e9b68c1e82f0000000000000000000000000000000000000000000000000000000000000000000000000000000000000000000000000000000000000000000000000000000000000000000000000000000000000000000000000000000000000000000000010000000000000000000000000000000000000000000000000000000000000000000000000000000000000000000000000000000000000000000000000000000000000000000000000000000000000000000000000000000000000000697999f1000000000000000000000000000000000000000000000000000000006979966d",
          "blockHash": "0xdac2fe6d042819d17e4376d13b88fa3153180d5da92017e746dcc40d92089091",
          "blockNumber": "0x18742b9",
          "transactionHash": "0x42db3cf7c643b09d7202fc2f8bad06a5f17fb3984282f99fbbc0887293643ae4",
          "transactionIndex": "0x2a",
          "logIndex": "0xd1",
          "removed": false
        }
      ],
      "logsBloom": "0x00000000000000000000000000000000010000000000000000000000400000000000000000000000000000000000000000000000000000000000000000000000000000000000000000000000000000000000000000000000001000000000000000000000000000000000000000000000400000000080000000000000000000000000000000000000000000100000000000000000000020000000000000000000000000000000000000000000000000000000000000000000400000000000000000000000000000000100000000000040000000000000000000000000000000000000000000000000000000000000000000000000000000000000000000001002",
      "type": "0x2",
      "transactionHash": "0x42db3cf7c643b09d7202fc2f8bad06a5f17fb3984282f99fbbc0887293643ae4",
      "transactionIndex": "0x2a",
      "blockHash": "0xdac2fe6d042819d17e4376d13b88fa3153180d5da92017e746dcc40d92089091",
      "blockNumber": "0x18742b9",
      "gasUsed": "0x2e370",
      "effectiveGasPrice": "0x36305e8ab0dd5",
      "from": "0x4c62f6121e6f967a0872da8364995e9b68c1e82f",
      "to": "0xf077d4d0508505c5a80249afc10bc6ead90e47f1",
      "contractAddress": null
    }
  ],
  "libraries": [],
  "pending": [],
  "returns": {},
  "timestamp": 1769576046445,
  "chain": 369,
  "commit": null
}