{
  "transactions": [
    {
      "hash": "0xb41296c3ce5b50d5e3b20fb4ecf66f63b0d03ba9b2f1c011f36d51aa3128c064",
      "transactionType": "CALL",
      "contractName": null,
      "contractAddress": "0xf077d4d0508505c5a80249afc10bc6ead90e47f1",
      "function": "makeCrime(uint8)",
      "arguments": [
        "0"
      ],
      "transaction": {
        "from": "0x4c62f6121e6f967a0872da8364995e9b68c1e82f",
        "to": "0xf077d4d0508505c5a80249afc10bc6ead90e47f1",
        "gas": "0x2a297",
        "value": "0x0",
        "input": "0xc625abb40000000000000000000000000000000000000000000000000000000000000000",
        "nonce": "0x957",
        "chainId": "0x171"
      },
      "additionalContracts": [],
      "isFixedGasLimit": false
    }
  ],
  "receipts": [
    {
      "status": "0x1",
      "cumulativeGasUsed": "0x142401a",
      "logs": [
        {
          "address": "0xf077d4d0508505c5a80249afc10bc6ead90e47f1",
          "topics": [
            "0xe36ceebd3770780c5617d53efc7d77328074f1248146245ed3b854cbf651fb37"
          ],
          "data": "0x0000000000000000000000004c62f6121e6f967a0872da8364995e9b68c1e82f0000000000000000000000000000000000000000000000000000000000000000000000000000000000000000000000000000000000000000000000000000000000000000000000000000000000000000000000000000000000000000000000000000000000000000000000000000000000000000000000000000000000000000000000000000000000000000000000000000000000000000000000000000000000000000000000000000000000000000000000000000000000000000698780930000000000000000000000000000000000000000000000000000000069877d0f",
          "blockHash": "0x2f57d76e6671dc5e279484f674a6855979ea2e0b4d56a923b551fab35e081f1b",
          "blockNumber": "0x1889dae",
          "transactionHash": "0xb41296c3ce5b50d5e3b20fb4ecf66f63b0d03ba9b2f1c011f36d51aa3128c064",
          "transactionIndex": "0x15",
          "logIndex": "0x1235",
          "removed": false
        }
      ],
      "logsBloom": "0x00000000000000000000000000000000000000000000000000000000400000000000000000000000000000000000000000000000000000000000000000000000000000000000000000000000000000000000000000000000000000000000000000000000000000000000000000000000400000000000000000000000000000000000000000000000000000100000000000000000000020000000000000000000000000000000000000000000000000000000000000000000000000000000000000000000000000000100000000000000000000000000000000000000000000000000000000000000000000000000000000000000000000000000000000000002",
      "type": "0x2",
      "transactionHash": "0xb41296c3ce5b50d5e3b20fb4ecf66f63b0d03ba9b2f1c011f36d51aa3128c064",
      "transactionIndex": "0x15",
      "blockHash": "0x2f57d76e6671dc5e279484f674a6855979ea2e0b4d56a923b551fab35e081f1b",
      "blockNumber": "0x1889dae",
      "gasUsed": "0x1e865",
      "effectiveGasPrice": "0x2768ce5edd350",
      "from": "0x4c62f6121e6f967a0872da8364995e9b68c1e82f",
      "to": "0xf077d4d0508505c5a80249afc10bc6ead90e47f1",
      "contractAddress": null
    }
  ],
  "libraries": [],
  "pending": [],
  "returns": {},
  "timestamp": 1770487055617,
  "chain": 369,
  "commit": null
}