{
  "transactions": [
    {
      "hash": "0x04d33a45b2d33f188a387ea102f24fd8514937cad16e6ee44035a4e26a7eb1c7",
      "transactionType": "CALL",
      "contractName": null,
      "contractAddress": "0xf077d4d0508505c5a80249afc10bc6ead90e47f1",
      "function": "makeCrime(uint8)",
      "arguments": [
        "0"
      ],
      "transaction": {
        "from": "0xac56dc5a4a9de0197f7b8f584ea04ec7e0123dde",
        "to": "0xf077d4d0508505c5a80249afc10bc6ead90e47f1",
        "gas": "0x54352",
        "value": "0x0",
        "input": "0xc625abb40000000000000000000000000000000000000000000000000000000000000000",
        "nonce": "0x2bc",
        "chainId": "0x171"
      },
      "additionalContracts": [],
      "isFixedGasLimit": false
    }
  ],
  "receipts": [
    {
      "status": "0x1",
      "cumulativeGasUsed": "0x1a0c4f0",
      "logs": [
        {
          "address": "0x74eadd7ebeeed638fd7c413134fa3d3433699d92",
          "topics": [
            "0x570f308d592bed3a47a73125665ce3b81fe296da89acff1af6d926e08a0a9f12"
          ],
          "data": "0x000000000000000000000000ac56dc5a4a9de0197f7b8f584ea04ec7e0123dde0000000000000000000000000000000000000000000000000000000000037417",
          "blockHash": "0xc5373283413028cf23e234c7039749fe49624e6fd979da5e9ad47ddf16e02e23",
          "blockNumber": "0x1870bc9",
          "transactionHash": "0x04d33a45b2d33f188a387ea102f24fd8514937cad16e6ee44035a4e26a7eb1c7",
          "transactionIndex": "0x41",
          "logIndex": "0x340",
          "removed": false
        },
        {
          "address": "0xf077d4d0508505c5a80249afc10bc6ead90e47f1",
          "topics": [
            "0xe36ceebd3770780c5617d53efc7d77328074f1248146245ed3b854cbf651fb37"
          ],
          "data": "0x000000000000000000000000ac56dc5a4a9de0197f7b8f584ea04ec7e0123dde00000000000000000000000000000000000000000000000000000000000000000000000000000000000000000000000000000000000000000000000000000001000000000000000000000000000000000000000000000000000000000000000000000000000000000000000000000000000000000000001a4aba225c20740000000000000000000000000000000000000000000000000000000000000000006400000000000000000000000000000000000000000000000000000000697767fd0000000000000000000000000000000000000000000000000000000069776479",
          "blockHash": "0xc5373283413028cf23e234c7039749fe49624e6fd979da5e9ad47ddf16e02e23",
          "blockNumber": "0x1870bc9",
          "transactionHash": "0x04d33a45b2d33f188a387ea102f24fd8514937cad16e6ee44035a4e26a7eb1c7",
          "transactionIndex": "0x41",
          "logIndex": "0x341",
          "removed": false
        }
      ],
      "logsBloom": "0x00000000000000000000000000000000004000000000000000000000400000000000000000000000000000000000000000000000000000000000000000000000000000000000000000008000000000000000000000000000000000000000000000000100000000000000000000000000400000000000000000000000000000000000000000000000000000100000000000000000000020000000000000000008000000000000000000000000000000000010000000000000000000000000000000000000000002000100000000000000000000000000000000000000000000000000000000000000000000000000000000000000000000000000000000000002",
      "type": "0x2",
      "transactionHash": "0x04d33a45b2d33f188a387ea102f24fd8514937cad16e6ee44035a4e26a7eb1c7",
      "transactionIndex": "0x41",
      "blockHash": "0xc5373283413028cf23e234c7039749fe49624e6fd979da5e9ad47ddf16e02e23",
      "blockNumber": "0x1870bc9",
      "gasUsed": "0x3cf70",
      "effectiveGasPrice": "0x1d0b8a22c96e8",
      "from": "0xac56dc5a4a9de0197f7b8f584ea04ec7e0123dde",
      "to": "0xf077d4d0508505c5a80249afc10bc6ead90e47f1",
      "contractAddress": null
    }
  ],
  "libraries": [],
  "pending": [],
  "returns": {},
  "timestamp": 1769432186639,
  "chain": 369,
  "commit": "953695a"
}