{
  "transactions": [
    {
      "hash": "0x81ded454b2bda62172a6274ca4892f5ac1b176b249804ba68b50172acec4826d",
      "transactionType": "CALL",
      "contractName": null,
      "contractAddress": "0xf077d4d0508505c5a80249afc10bc6ead90e47f1",
      "function": "makeCrime(uint8)",
      "arguments": [
        "0"
      ],
      "transaction": {
        "from": "0x4c62f6121e6f967a0872da8364995e9b68c1e82f",
        "to": "0xf077d4d0508505c5a80249afc10bc6ead90e47f1",
        "gas": "0x3fd59",
        "value": "0x0",
        "input": "0xc625abb40000000000000000000000000000000000000000000000000000000000000000",
        "nonce": "0x72f",
        "chainId": "0x171"
      },
      "additionalContracts": [],
      "isFixedGasLimit": false
    }
  ],
  "receipts": [
    {
      "status": "0x1",
      "cumulativeGasUsed": "0x8e5393",
      "logs": [
        {
          "address": "0xdcd5e9c0b2b4e9cb93677a258521d854b3a9f5a1",
          "topics": [
            "0x0bff5315606c84d1cee047503678048ca39946be11bfdd5a8c03fe5e272d98e3"
          ],
          "data": "0x0000000000000000000000004c62f6121e6f967a0872da8364995e9b68c1e82f000000000000000000000000000000000000000000000000000000006979d96b0000000000000000000000000000000000000000000000000000000000000000",
          "blockHash": "0x2e873065466dcde7d9cb82fe3b9c9cab8855a872ebb26bc400798f70b645a774",
          "blockNumber": "0x18748ba",
          "transactionHash": "0x81ded454b2bda62172a6274ca4892f5ac1b176b249804ba68b50172acec4826d",
          "transactionIndex": "0x24",
          "logIndex": "0xa6",
          "removed": false
        },
        {
          "address": "0xf077d4d0508505c5a80249afc10bc6ead90e47f1",
          "topics": [
            "0xe36ceebd3770780c5617d53efc7d77328074f1248146245ed3b854cbf651fb37"
          ],
          "data": "0x0000000000000000000000004c62f6121e6f967a0872da8364995e9b68c1e82f00000000000000000000000000000000000000000000000000000000000000000000000000000000000000000000000000000000000000000000000000000000000000000000000000000000000000000000000000000000000000000000000100000000000000000000000000000000000000000000000000000000000000000000000000000000000000000000000000000000000000000000000000000000000000000000000000000000000000000000000000000000000000006979d7a9000000000000000000000000000000000000000000000000000000006979d425",
          "blockHash": "0x2e873065466dcde7d9cb82fe3b9c9cab8855a872ebb26bc400798f70b645a774",
          "blockNumber": "0x18748ba",
          "transactionHash": "0x81ded454b2bda62172a6274ca4892f5ac1b176b249804ba68b50172acec4826d",
          "transactionIndex": "0x24",
          "logIndex": "0xa7",
          "removed": false
        }
      ],
      "logsBloom": "0x00000000000000000000000000000000010000000000000000000000400000000000000000000000000000000000000000000000000000000000000000000000000000000000000000000000000000000000000000000000001000000000000000000000000000000000000000000000400000000080000000000000000000000000000000000000000000100000000000000000000020000000000000000000000000000000000000000000000000000000000000000000400000000000000000000000000000000100000000000040000000000000000000000000000000000000000000000000000000000000000000000000000000000000000000001002",
      "type": "0x2",
      "transactionHash": "0x81ded454b2bda62172a6274ca4892f5ac1b176b249804ba68b50172acec4826d",
      "transactionIndex": "0x24",
      "blockHash": "0x2e873065466dcde7d9cb82fe3b9c9cab8855a872ebb26bc400798f70b645a774",
      "blockNumber": "0x18748ba",
      "gasUsed": "0x2e370",
      "effectiveGasPrice": "0x1d70fdc1c7952",
      "from": "0x4c62f6121e6f967a0872da8364995e9b68c1e82f",
      "to": "0xf077d4d0508505c5a80249afc10bc6ead90e47f1",
      "contractAddress": null
    }
  ],
  "libraries": [],
  "pending": [],
  "returns": {},
  "timestamp": 1769591845958,
  "chain": 369,
  "commit": null
}