{
  "transactions": [
    {
      "hash": "0x89b2c6e6b0848c7c7372619f7b0ff70e579fe640ccc7ae02b1649939b1d69db0",
      "transactionType": "CALL",
      "contractName": null,
      "contractAddress": "0xf077d4d0508505c5a80249afc10bc6ead90e47f1",
      "function": "makeCrime(uint8)",
      "arguments": [
        "0"
      ],
      "transaction": {
        "from": "0xac56dc5a4a9de0197f7b8f584ea04ec7e0123dde",
        "to": "0xf077d4d0508505c5a80249afc10bc6ead90e47f1",
        "gas": "0x54352",
        "value": "0x0",
        "input": "0xc625abb40000000000000000000000000000000000000000000000000000000000000000",
        "nonce": "0x2bb",
        "chainId": "0x171"
      },
      "additionalContracts": [],
      "isFixedGasLimit": false
    }
  ],
  "receipts": [
    {
      "status": "0x1",
      "cumulativeGasUsed": "0x18f44bf",
      "logs": [
        {
          "address": "0x74eadd7ebeeed638fd7c413134fa3d3433699d92",
          "topics": [
            "0x570f308d592bed3a47a73125665ce3b81fe296da89acff1af6d926e08a0a9f12"
          ],
          "data": "0x000000000000000000000000ac56dc5a4a9de0197f7b8f584ea04ec7e0123dde00000000000000000000000000000000000000000000000000000000000373b3",
          "blockHash": "0xc75abfe2f3691df6e8443bcc6bbf3fbd572b69cc253d588bc125dec6d3d6669c",
          "blockNumber": "0x1870b6a",
          "transactionHash": "0x89b2c6e6b0848c7c7372619f7b0ff70e579fe640ccc7ae02b1649939b1d69db0",
          "transactionIndex": "0x1b",
          "logIndex": "0x3af",
          "removed": false
        },
        {
          "address": "0xf077d4d0508505c5a80249afc10bc6ead90e47f1",
          "topics": [
            "0xe36ceebd3770780c5617d53efc7d77328074f1248146245ed3b854cbf651fb37"
          ],
          "data": "0x000000000000000000000000ac56dc5a4a9de0197f7b8f584ea04ec7e0123dde000000000000000000000000000000000000000000000000000000000000000000000000000000000000000000000000000000000000000000000000000000010000000000000000000000000000000000000000000000000000000000000000000000000000000000000000000000000000000000000017791505de202400000000000000000000000000000000000000000000000000000000000000000064000000000000000000000000000000000000000000000000000000006977642900000000000000000000000000000000000000000000000000000000697760a5",
          "blockHash": "0xc75abfe2f3691df6e8443bcc6bbf3fbd572b69cc253d588bc125dec6d3d6669c",
          "blockNumber": "0x1870b6a",
          "transactionHash": "0x89b2c6e6b0848c7c7372619f7b0ff70e579fe640ccc7ae02b1649939b1d69db0",
          "transactionIndex": "0x1b",
          "logIndex": "0x3b0",
          "removed": false
        }
      ],
      "logsBloom": "0x00000000000000000000000000000000004000000000000000000000400000000000000000000000000000000000000000000000000000000000000000000000000000000000000000008000000000000000000000000000000000000000000000000100000000000000000000000000400000000000000000000000000000000000000000000000000000100000000000000000000020000000000000000008000000000000000000000000000000000010000000000000000000000000000000000000000002000100000000000000000000000000000000000000000000000000000000000000000000000000000000000000000000000000000000000002",
      "type": "0x2",
      "transactionHash": "0x89b2c6e6b0848c7c7372619f7b0ff70e579fe640ccc7ae02b1649939b1d69db0",
      "transactionIndex": "0x1b",
      "blockHash": "0xc75abfe2f3691df6e8443bcc6bbf3fbd572b69cc253d588bc125dec6d3d6669c",
      "blockNumber": "0x1870b6a",
      "gasUsed": "0x3cf70",
      "effectiveGasPrice": "0x1ef30111ae893",
      "from": "0xac56dc5a4a9de0197f7b8f584ea04ec7e0123dde",
      "to": "0xf077d4d0508505c5a80249afc10bc6ead90e47f1",
      "contractAddress": null
    }
  ],
  "libraries": [],
  "pending": [],
  "returns": {},
  "timestamp": 1769431205988,
  "chain": 369,
  "commit": "953695a"
}