{
  "transactions": [
    {
      "hash": "0xc821b17496a4ccac13e6fab7694e3b0f85cfd0ececda61b079e468c63063d018",
      "transactionType": "CALL",
      "contractName": null,
      "contractAddress": "0xf077d4d0508505c5a80249afc10bc6ead90e47f1",
      "function": "makeCrime(uint8)",
      "arguments": [
        "0"
      ],
      "transaction": {
        "from": "0x4c62f6121e6f967a0872da8364995e9b68c1e82f",
        "to": "0xf077d4d0508505c5a80249afc10bc6ead90e47f1",
        "gas": "0x2a297",
        "value": "0x0",
        "input": "0xc625abb40000000000000000000000000000000000000000000000000000000000000000",
        "nonce": "0x71f",
        "chainId": "0x171"
      },
      "additionalContracts": [],
      "isFixedGasLimit": false
    }
  ],
  "receipts": [
    {
      "status": "0x1",
      "cumulativeGasUsed": "0x13242be",
      "logs": [
        {
          "address": "0xf077d4d0508505c5a80249afc10bc6ead90e47f1",
          "topics": [
            "0xe36ceebd3770780c5617d53efc7d77328074f1248146245ed3b854cbf651fb37"
          ],
          "data": "0x0000000000000000000000004c62f6121e6f967a0872da8364995e9b68c1e82f00000000000000000000000000000000000000000000000000000000000000000000000000000000000000000000000000000000000000000000000000000000000000000000000000000000000000000000000000000000000000000000000000000000000000000000000000000000000000000000000000000000000000000000000000000000000000000000000000000000000000000000000000000000000000000000000000000000000000000000000000000000000000006979aa1d000000000000000000000000000000000000000000000000000000006979a699",
          "blockHash": "0x18fd9720cf54fc4e0fd4b40050c22a4c58e61f245dfc7fcc2b21ff916d5255e1",
          "blockNumber": "0x187444a",
          "transactionHash": "0xc821b17496a4ccac13e6fab7694e3b0f85cfd0ececda61b079e468c63063d018",
          "transactionIndex": "0x16",
          "logIndex": "0x411",
          "removed": false
        }
      ],
      "logsBloom": "0x00000000000000000000000000000000000000000000000000000000400000000000000000000000000000000000000000000000000000000000000000000000000000000000000000000000000000000000000000000000000000000000000000000000000000000000000000000000400000000000000000000000000000000000000000000000000000100000000000000000000020000000000000000000000000000000000000000000000000000000000000000000000000000000000000000000000000000100000000000000000000000000000000000000000000000000000000000000000000000000000000000000000000000000000000000002",
      "type": "0x2",
      "transactionHash": "0xc821b17496a4ccac13e6fab7694e3b0f85cfd0ececda61b079e468c63063d018",
      "transactionIndex": "0x16",
      "blockHash": "0x18fd9720cf54fc4e0fd4b40050c22a4c58e61f245dfc7fcc2b21ff916d5255e1",
      "blockNumber": "0x187444a",
      "gasUsed": "0x1e865",
      "effectiveGasPrice": "0x2196ff27ce532",
      "from": "0x4c62f6121e6f967a0872da8364995e9b68c1e82f",
      "to": "0xf077d4d0508505c5a80249afc10bc6ead90e47f1",
      "contractAddress": null
    }
  ],
  "libraries": [],
  "pending": [],
  "returns": {},
  "timestamp": 1769580185915,
  "chain": 369,
  "commit": null
}