{
  "transactions": [
    {
      "hash": "0x5218c50b1048320be067b9b73d83c44df067a201262b622c7430002bcae2896b",
      "transactionType": "CALL",
      "contractName": null,
      "contractAddress": "0xf077d4d0508505c5a80249afc10bc6ead90e47f1",
      "function": "makeCrime(uint8)",
      "arguments": [
        "0"
      ],
      "transaction": {
        "from": "0xac56dc5a4a9de0197f7b8f584ea04ec7e0123dde",
        "to": "0xf077d4d0508505c5a80249afc10bc6ead90e47f1",
        "gas": "0x552c4",
        "value": "0x0",
        "input": "0xc625abb40000000000000000000000000000000000000000000000000000000000000000",
        "nonce": "0x501",
        "chainId": "0x171"
      },
      "additionalContracts": [],
      "isFixedGasLimit": false
    }
  ],
  "receipts": [
    {
      "status": "0x1",
      "cumulativeGasUsed": "0x8d05aa",
      "logs": [
        {
          "address": "0xdcd5e9c0b2b4e9cb93677a258521d854b3a9f5a1",
          "topics": [
            "0x0bff5315606c84d1cee047503678048ca39946be11bfdd5a8c03fe5e272d98e3"
          ],
          "data": "0x000000000000000000000000ac56dc5a4a9de0197f7b8f584ea04ec7e0123dde0000000000000000000000000000000000000000000000000000000069882aed0000000000000000000000000000000000000000000000000000000000000000",
          "blockHash": "0x716ccfb18c4ea24f9db3e66d7f0e94488e2b8b9823f9ac58a49c55d7d91de738",
          "blockNumber": "0x188ae28",
          "transactionHash": "0x5218c50b1048320be067b9b73d83c44df067a201262b622c7430002bcae2896b",
          "transactionIndex": "0xa",
          "logIndex": "0xf1",
          "removed": false
        },
        {
          "address": "0xf077d4d0508505c5a80249afc10bc6ead90e47f1",
          "topics": [
            "0xe36ceebd3770780c5617d53efc7d77328074f1248146245ed3b854cbf651fb37"
          ],
          "data": "0x000000000000000000000000ac56dc5a4a9de0197f7b8f584ea04ec7e0123dde00000000000000000000000000000000000000000000000000000000000000000000000000000000000000000000000000000000000000000000000000000000000000000000000000000000000000000000000000000000000000000000000100000000000000000000000000000000000000000000000000000000000000000000000000000000000000000000000000000000000000000000000000000000000000000000000000000000000000000000000000000000000000006988292b00000000000000000000000000000000000000000000000000000000698825a7",
          "blockHash": "0x716ccfb18c4ea24f9db3e66d7f0e94488e2b8b9823f9ac58a49c55d7d91de738",
          "blockNumber": "0x188ae28",
          "transactionHash": "0x5218c50b1048320be067b9b73d83c44df067a201262b622c7430002bcae2896b",
          "transactionIndex": "0xa",
          "logIndex": "0xf2",
          "removed": false
        }
      ],
      "logsBloom": "0x00000000000000000000000000000000010000000000000000000000400000000000000000000000000000000000000000000000000000000000000000000000000000000000000000000000000000000000000000000000001000000000000000000000000000000000000000000000400000000080000000000000000000000000000000000000000000100000000000000000000020000000000000000000000000000000000000000000000000000000000000000000400000000000000000000000000000000100000000000040000000000000000000000000000000000000000000000000000000000000000000000000000000000000000000001002",
      "type": "0x2",
      "transactionHash": "0x5218c50b1048320be067b9b73d83c44df067a201262b622c7430002bcae2896b",
      "transactionIndex": "0xa",
      "blockHash": "0x716ccfb18c4ea24f9db3e66d7f0e94488e2b8b9823f9ac58a49c55d7d91de738",
      "blockNumber": "0x188ae28",
      "gasUsed": "0x2f09b",
      "effectiveGasPrice": "0x33e6e16f1e0ab",
      "from": "0xac56dc5a4a9de0197f7b8f584ea04ec7e0123dde",
      "to": "0xf077d4d0508505c5a80249afc10bc6ead90e47f1",
      "contractAddress": null
    }
  ],
  "libraries": [],
  "pending": [],
  "returns": {},
  "timestamp": 1770530215998,
  "chain": 369,
  "commit": null
}