{
  "transactions": [
    {
      "hash": "0xda5c573033823b3a9eaa5bf196922e471c5d0674094552a53a65ebf838b103d0",
      "transactionType": "CALL",
      "contractName": null,
      "contractAddress": "0xf077d4d0508505c5a80249afc10bc6ead90e47f1",
      "function": "makeCrime(uint8)",
      "arguments": [
        "0"
      ],
      "transaction": {
        "from": "0xac56dc5a4a9de0197f7b8f584ea04ec7e0123dde",
        "to": "0xf077d4d0508505c5a80249afc10bc6ead90e47f1",
        "gas": "0x2d083",
        "value": "0x0",
        "input": "0xc625abb40000000000000000000000000000000000000000000000000000000000000000",
        "nonce": "0x249",
        "chainId": "0x171"
      },
      "additionalContracts": [],
      "isFixedGasLimit": false
    }
  ],
  "receipts": [
    {
      "status": "0x1",
      "cumulativeGasUsed": "0xa8cac4",
      "logs": [
        {
          "address": "0xf077d4d0508505c5a80249afc10bc6ead90e47f1",
          "topics": [
            "0xe36ceebd3770780c5617d53efc7d77328074f1248146245ed3b854cbf651fb37"
          ],
          "data": "0x000000000000000000000000ac56dc5a4a9de0197f7b8f584ea04ec7e0123dde0000000000000000000000000000000000000000000000000000000000000000000000000000000000000000000000000000000000000000000000000000000000000000000000000000000000000000000000000000000000000000000000000000000000000000000000000000000000000000000000000000000000000000000000000000000000000000000000000000000000000000000000000000000000000000000000000000000000000000000000000000000000000000696cfb8d00000000000000000000000000000000000000000000000000000000696cf809",
          "blockHash": "0x11f6df72afec56b37ca59cf5a9f4771b3c546b14a37fba478eaf3fdbdbcd5aba",
          "blockNumber": "0x18607ce",
          "transactionHash": "0xda5c573033823b3a9eaa5bf196922e471c5d0674094552a53a65ebf838b103d0",
          "transactionIndex": "0x34",
          "logIndex": "0x130",
          "removed": false
        }
      ],
      "logsBloom": "0x00000000000000000000000000000000000000000000000000000000400000000000000000000000000000000000000000000000000000000000000000000000000000000000000000000000000000000000000000000000000000000000000000000000000000000000000000000000400000000000000000000000000000000000000000000000000000100000000000000000000020000000000000000000000000000000000000000000000000000000000000000000000000000000000000000000000000000100000000000000000000000000000000000000000000000000000000000000000000000000000000000000000000000000000000000002",
      "type": "0x2",
      "transactionHash": "0xda5c573033823b3a9eaa5bf196922e471c5d0674094552a53a65ebf838b103d0",
      "transactionIndex": "0x34",
      "blockHash": "0x11f6df72afec56b37ca59cf5a9f4771b3c546b14a37fba478eaf3fdbdbcd5aba",
      "blockNumber": "0x18607ce",
      "gasUsed": "0x1eca9",
      "effectiveGasPrice": "0x11d8e26ed519c",
      "from": "0xac56dc5a4a9de0197f7b8f584ea04ec7e0123dde",
      "to": "0xf077d4d0508505c5a80249afc10bc6ead90e47f1",
      "contractAddress": null
    }
  ],
  "libraries": [],
  "pending": [],
  "returns": {},
  "timestamp": 1768749066107,
  "chain": 369,
  "commit": "953695a"
}