{
  "transactions": [
    {
      "hash": "0x55185ff4161f304798ad55c8c5dfda4cdb6915e6134c9e181d13793bbe6322ad",
      "transactionType": "CALL",
      "contractName": null,
      "contractAddress": "0xf077d4d0508505c5a80249afc10bc6ead90e47f1",
      "function": "makeCrime(uint8)",
      "arguments": [
        "0"
      ],
      "transaction": {
        "from": "0x4c62f6121e6f967a0872da8364995e9b68c1e82f",
        "to": "0xf077d4d0508505c5a80249afc10bc6ead90e47f1",
        "gas": "0x3fd59",
        "value": "0x0",
        "input": "0xc625abb40000000000000000000000000000000000000000000000000000000000000000",
        "nonce": "0x747",
        "chainId": "0x171"
      },
      "additionalContracts": [],
      "isFixedGasLimit": false
    }
  ],
  "receipts": [
    {
      "status": "0x1",
      "cumulativeGasUsed": "0xd060ea",
      "logs": [
        {
          "address": "0x74eadd7ebeeed638fd7c413134fa3d3433699d92",
          "topics": [
            "0x570f308d592bed3a47a73125665ce3b81fe296da89acff1af6d926e08a0a9f12"
          ],
          "data": "0x0000000000000000000000004c62f6121e6f967a0872da8364995e9b68c1e82f0000000000000000000000000000000000000000000000000000000000000384",
          "blockHash": "0x0eeb66c18e563e8b416dec0a73646ee25bc26b9150212d48fdfad4a990333c95",
          "blockNumber": "0x187575a",
          "transactionHash": "0x55185ff4161f304798ad55c8c5dfda4cdb6915e6134c9e181d13793bbe6322ad",
          "transactionIndex": "0x19",
          "logIndex": "0x109",
          "removed": false
        },
        {
          "address": "0xf077d4d0508505c5a80249afc10bc6ead90e47f1",
          "topics": [
            "0xe36ceebd3770780c5617d53efc7d77328074f1248146245ed3b854cbf651fb37"
          ],
          "data": "0x0000000000000000000000004c62f6121e6f967a0872da8364995e9b68c1e82f000000000000000000000000000000000000000000000000000000000000000000000000000000000000000000000000000000000000000000000000000000010000000000000000000000000000000000000000000000000000000000000000000000000000000000000000000000000000000000000011ff6cf0fd15b00000000000000000000000000000000000000000000000000000000000000000006400000000000000000000000000000000000000000000000000000000697a6ccd00000000000000000000000000000000000000000000000000000000697a6949",
          "blockHash": "0x0eeb66c18e563e8b416dec0a73646ee25bc26b9150212d48fdfad4a990333c95",
          "blockNumber": "0x187575a",
          "transactionHash": "0x55185ff4161f304798ad55c8c5dfda4cdb6915e6134c9e181d13793bbe6322ad",
          "transactionIndex": "0x19",
          "logIndex": "0x10a",
          "removed": false
        }
      ],
      "logsBloom": "0x00000000000000000000000000000000004000000000000000000000400000000000000000000000000000000000000000000000000000000000000000000000000000000000000000008000000000000000000000000000000000000000000000000100000000000000000000000000400000000000000000000000000000000000000000000000000000100000000000000000000020000000000000000008000000000000000000000000000000000010000000000000000000000000000000000000000002000100000000000000000000000000000000000000000000000000000000000000000000000000000000000000000000000000000000000002",
      "type": "0x2",
      "transactionHash": "0x55185ff4161f304798ad55c8c5dfda4cdb6915e6134c9e181d13793bbe6322ad",
      "transactionIndex": "0x19",
      "blockHash": "0x0eeb66c18e563e8b416dec0a73646ee25bc26b9150212d48fdfad4a990333c95",
      "blockNumber": "0x187575a",
      "gasUsed": "0x3ca90",
      "effectiveGasPrice": "0x3197a05e91023",
      "from": "0x4c62f6121e6f967a0872da8364995e9b68c1e82f",
      "to": "0xf077d4d0508505c5a80249afc10bc6ead90e47f1",
      "contractAddress": null
    }
  ],
  "libraries": [],
  "pending": [],
  "returns": {},
  "timestamp": 1769630026548,
  "chain": 369,
  "commit": null
}