{
  "transactions": [
    {
      "hash": "0x12782511463c83adec2168b2a0ef99cf4a6bc74abac09e51a7970dd776ffa762",
      "transactionType": "CALL",
      "contractName": null,
      "contractAddress": "0xf077d4d0508505c5a80249afc10bc6ead90e47f1",
      "function": "makeCrime(uint8)",
      "arguments": [
        "0"
      ],
      "transaction": {
        "from": "0xac56dc5a4a9de0197f7b8f584ea04ec7e0123dde",
        "to": "0xf077d4d0508505c5a80249afc10bc6ead90e47f1",
        "gas": "0x2d083",
        "value": "0x0",
        "input": "0xc625abb40000000000000000000000000000000000000000000000000000000000000000",
        "nonce": "0x27a",
        "chainId": "0x171"
      },
      "additionalContracts": [],
      "isFixedGasLimit": false
    }
  ],
  "receipts": [
    {
      "status": "0x1",
      "cumulativeGasUsed": "0x252c50b",
      "logs": [
        {
          "address": "0xf077d4d0508505c5a80249afc10bc6ead90e47f1",
          "topics": [
            "0xe36ceebd3770780c5617d53efc7d77328074f1248146245ed3b854cbf651fb37"
          ],
          "data": "0x000000000000000000000000ac56dc5a4a9de0197f7b8f584ea04ec7e0123dde00000000000000000000000000000000000000000000000000000000000000000000000000000000000000000000000000000000000000000000000000000000000000000000000000000000000000000000000000000000000000000000000000000000000000000000000000000000000000000000000000000000000000000000000000000000000000000000000000000000000000000000000000000000000000000000000000000000000000000000000000000000000000006970c727000000000000000000000000000000000000000000000000000000006970c3a3",
          "blockHash": "0x9f22fc8f071fff226c01b17404eaa086abaac116629e37632e0a9b8be40e929c",
          "blockNumber": "0x18666a9",
          "transactionHash": "0x12782511463c83adec2168b2a0ef99cf4a6bc74abac09e51a7970dd776ffa762",
          "transactionIndex": "0xbd",
          "logIndex": "0x1e0",
          "removed": false
        }
      ],
      "logsBloom": "0x00000000000000000000000000000000000000000000000000000000400000000000000000000000000000000000000000000000000000000000000000000000000000000000000000000000000000000000000000000000000000000000000000000000000000000000000000000000400000000000000000000000000000000000000000000000000000100000000000000000000020000000000000000000000000000000000000000000000000000000000000000000000000000000000000000000000000000100000000000000000000000000000000000000000000000000000000000000000000000000000000000000000000000000000000000002",
      "type": "0x2",
      "transactionHash": "0x12782511463c83adec2168b2a0ef99cf4a6bc74abac09e51a7970dd776ffa762",
      "transactionIndex": "0xbd",
      "blockHash": "0x9f22fc8f071fff226c01b17404eaa086abaac116629e37632e0a9b8be40e929c",
      "blockNumber": "0x18666a9",
      "gasUsed": "0x1eca9",
      "effectiveGasPrice": "0x135fb1dbbb599",
      "from": "0xac56dc5a4a9de0197f7b8f584ea04ec7e0123dde",
      "to": "0xf077d4d0508505c5a80249afc10bc6ead90e47f1",
      "contractAddress": null
    }
  ],
  "libraries": [],
  "pending": [],
  "returns": {},
  "timestamp": 1768997796051,
  "chain": 369,
  "commit": "953695a"
}