{
  "transactions": [
    {
      "hash": "0x45346d2173dffeaaef6b81bebd04d5bf4526d3b4583137bce0d9dd9857f85217",
      "transactionType": "CALL",
      "contractName": null,
      "contractAddress": "0xf077d4d0508505c5a80249afc10bc6ead90e47f1",
      "function": "makeCrime(uint8)",
      "arguments": [
        "0"
      ],
      "transaction": {
        "from": "0xeca7a53ba6a190c5d205bfdc7707cbc3399336c1",
        "to": "0xf077d4d0508505c5a80249afc10bc6ead90e47f1",
        "gas": "0x41b40",
        "value": "0x0",
        "input": "0xc625abb40000000000000000000000000000000000000000000000000000000000000000",
        "nonce": "0x421",
        "chainId": "0x171"
      },
      "additionalContracts": [],
      "isFixedGasLimit": false
    }
  ],
  "receipts": [
    {
      "status": "0x1",
      "cumulativeGasUsed": "0x541f17",
      "logs": [
        {
          "address": "0xdcd5e9c0b2b4e9cb93677a258521d854b3a9f5a1",
          "topics": [
            "0x0bff5315606c84d1cee047503678048ca39946be11bfdd5a8c03fe5e272d98e3"
          ],
          "data": "0x000000000000000000000000eca7a53ba6a190c5d205bfdc7707cbc3399336c100000000000000000000000000000000000000000000000000000000697b91cf0000000000000000000000000000000000000000000000000000000000000000",
          "blockHash": "0x1a8dd85630e60db92225cba2c92bad03fcee114bd54abbade94c70b7564e7ef3",
          "blockNumber": "0x18773b3",
          "transactionHash": "0x45346d2173dffeaaef6b81bebd04d5bf4526d3b4583137bce0d9dd9857f85217",
          "transactionIndex": "0x14",
          "logIndex": "0x7a",
          "removed": false
        },
        {
          "address": "0xf077d4d0508505c5a80249afc10bc6ead90e47f1",
          "topics": [
            "0xe36ceebd3770780c5617d53efc7d77328074f1248146245ed3b854cbf651fb37"
          ],
          "data": "0x000000000000000000000000eca7a53ba6a190c5d205bfdc7707cbc3399336c10000000000000000000000000000000000000000000000000000000000000000000000000000000000000000000000000000000000000000000000000000000000000000000000000000000000000000000000000000000000000000000000010000000000000000000000000000000000000000000000000000000000000000000000000000000000000000000000000000000000000000000000000000000000000000000000000000000000000000000000000000000000000000697b900d00000000000000000000000000000000000000000000000000000000697b8c89",
          "blockHash": "0x1a8dd85630e60db92225cba2c92bad03fcee114bd54abbade94c70b7564e7ef3",
          "blockNumber": "0x18773b3",
          "transactionHash": "0x45346d2173dffeaaef6b81bebd04d5bf4526d3b4583137bce0d9dd9857f85217",
          "transactionIndex": "0x14",
          "logIndex": "0x7b",
          "removed": false
        }
      ],
      "logsBloom": "0x00000000000000000000000000000000010000000000000000000000400000000000000000000000000000000000000000000000000000000000000000000000000000000000000000000000000000000000000000000000001000000000000000000000000000000000000000000000400000000080000000000000000000000000000000000000000000100000000000000000000020000000000000000000000000000000000000000000000000000000000000000000400000000000000000000000000000000100000000000040000000000000000000000000000000000000000000000000000000000000000000000000000000000000000000001002",
      "type": "0x2",
      "transactionHash": "0x45346d2173dffeaaef6b81bebd04d5bf4526d3b4583137bce0d9dd9857f85217",
      "transactionIndex": "0x14",
      "blockHash": "0x1a8dd85630e60db92225cba2c92bad03fcee114bd54abbade94c70b7564e7ef3",
      "blockNumber": "0x18773b3",
      "gasUsed": "0x2f917",
      "effectiveGasPrice": "0x1eb2029cb3d5e",
      "from": "0xeca7a53ba6a190c5d205bfdc7707cbc3399336c1",
      "to": "0xf077d4d0508505c5a80249afc10bc6ead90e47f1",
      "contractAddress": null
    }
  ],
  "libraries": [],
  "pending": [],
  "returns": {},
  "timestamp": 1769704585673,
  "chain": 369,
  "commit": null
}