{
  "transactions": [
    {
      "hash": "0xec8470f9db2da2a4a59496420721406ae7891a550dd7a96624b66814bcd09866",
      "transactionType": "CALL",
      "contractName": null,
      "contractAddress": "0xf077d4d0508505c5a80249afc10bc6ead90e47f1",
      "function": "makeCrime(uint8)",
      "arguments": [
        "0"
      ],
      "transaction": {
        "from": "0xec646a6c9000e04d050435340d9c42c039eb5648",
        "to": "0xf077d4d0508505c5a80249afc10bc6ead90e47f1",
        "gas": "0x409a4",
        "value": "0x0",
        "input": "0xc625abb40000000000000000000000000000000000000000000000000000000000000000",
        "nonce": "0x46",
        "chainId": "0x171"
      },
      "additionalContracts": [],
      "isFixedGasLimit": false
    }
  ],
  "receipts": [
    {
      "status": "0x1",
      "cumulativeGasUsed": "0xa1bb0b",
      "logs": [
        {
          "address": "0xf077d4d0508505c5a80249afc10bc6ead90e47f1",
          "topics": [
            "0xe36ceebd3770780c5617d53efc7d77328074f1248146245ed3b854cbf651fb37"
          ],
          "data": "0x000000000000000000000000ec646a6c9000e04d050435340d9c42c039eb5648000000000000000000000000000000000000000000000000000000000000000000000000000000000000000000000000000000000000000000000000000000000000000000000000000000000000000000000000000000000000000000000000000000000000000000000000000000000000000000000000000000000000000000000000000000000000000000000000000000000000000000000000000000000000000000000000000000000000000000000000000000000000000069882b150000000000000000000000000000000000000000000000000000000069882791",
          "blockHash": "0x3b92abc67d23d60de4aa37bb35316401627e913c30b48aee869c6d8b86cda6ce",
          "blockNumber": "0x188ae59",
          "transactionHash": "0xec8470f9db2da2a4a59496420721406ae7891a550dd7a96624b66814bcd09866",
          "transactionIndex": "0x26",
          "logIndex": "0xdd",
          "removed": false
        }
      ],
      "logsBloom": "0x00000000000000000000000000000000000000000000000000000000400000000000000000000000000000000000000000000000000000000000000000000000000000000000000000000000000000000000000000000000000000000000000000000000000000000000000000000000400000000000000000000000000000000000000000000000000000100000000000000000000020000000000000000000000000000000000000000000000000000000000000000000000000000000000000000000000000000100000000000000000000000000000000000000000000000000000000000000000000000000000000000000000000000000000000000002",
      "type": "0x2",
      "transactionHash": "0xec8470f9db2da2a4a59496420721406ae7891a550dd7a96624b66814bcd09866",
      "transactionIndex": "0x26",
      "blockHash": "0x3b92abc67d23d60de4aa37bb35316401627e913c30b48aee869c6d8b86cda6ce",
      "blockNumber": "0x188ae59",
      "gasUsed": "0x1e865",
      "effectiveGasPrice": "0x2ac6d9f2ed21f",
      "from": "0xec646a6c9000e04d050435340d9c42c039eb5648",
      "to": "0xf077d4d0508505c5a80249afc10bc6ead90e47f1",
      "contractAddress": null
    }
  ],
  "libraries": [],
  "pending": [],
  "returns": {},
  "timestamp": 1770530706608,
  "chain": 369,
  "commit": null
}