{
  "transactions": [
    {
      "hash": "0x44f8862b931eced56d8c80bcb24e84f9a1f4a1438f3ac50ba15f44723d26100e",
      "transactionType": "CALL",
      "contractName": null,
      "contractAddress": "0xf077d4d0508505c5a80249afc10bc6ead90e47f1",
      "function": "makeCrime(uint8)",
      "arguments": [
        "0"
      ],
      "transaction": {
        "from": "0xeca7a53ba6a190c5d205bfdc7707cbc3399336c1",
        "to": "0xf077d4d0508505c5a80249afc10bc6ead90e47f1",
        "gas": "0x54ec2",
        "value": "0x0",
        "input": "0xc625abb40000000000000000000000000000000000000000000000000000000000000000",
        "nonce": "0x36e",
        "chainId": "0x171"
      },
      "additionalContracts": [],
      "isFixedGasLimit": false
    }
  ],
  "receipts": [
    {
      "status": "0x1",
      "cumulativeGasUsed": "0x14580e5",
      "logs": [
        {
          "address": "0x74eadd7ebeeed638fd7c413134fa3d3433699d92",
          "topics": [
            "0x570f308d592bed3a47a73125665ce3b81fe296da89acff1af6d926e08a0a9f12"
          ],
          "data": "0x000000000000000000000000eca7a53ba6a190c5d205bfdc7707cbc3399336c1000000000000000000000000000000000000000000000000000000000002302a",
          "blockHash": "0x9256ed296e071c8deb42325589d1917446d2cc914f59d5decccf257a07f7904c",
          "blockNumber": "0x1873aba",
          "transactionHash": "0x44f8862b931eced56d8c80bcb24e84f9a1f4a1438f3ac50ba15f44723d26100e",
          "transactionIndex": "0x24",
          "logIndex": "0x15e",
          "removed": false
        },
        {
          "address": "0xf077d4d0508505c5a80249afc10bc6ead90e47f1",
          "topics": [
            "0xe36ceebd3770780c5617d53efc7d77328074f1248146245ed3b854cbf651fb37"
          ],
          "data": "0x000000000000000000000000eca7a53ba6a190c5d205bfdc7707cbc3399336c1000000000000000000000000000000000000000000000000000000000000000000000000000000000000000000000000000000000000000000000000000000010000000000000000000000000000000000000000000000000000000000000000000000000000000000000000000000000000000000000012eb5912eb335400000000000000000000000000000000000000000000000000000000000000000014000000000000000000000000000000000000000000000000000000006979484d00000000000000000000000000000000000000000000000000000000697944c9",
          "blockHash": "0x9256ed296e071c8deb42325589d1917446d2cc914f59d5decccf257a07f7904c",
          "blockNumber": "0x1873aba",
          "transactionHash": "0x44f8862b931eced56d8c80bcb24e84f9a1f4a1438f3ac50ba15f44723d26100e",
          "transactionIndex": "0x24",
          "logIndex": "0x15f",
          "removed": false
        }
      ],
      "logsBloom": "0x00000000000000000000000000000000004000000000000000000000400000000000000000000000000000000000000000000000000000000000000000000000000000000000000000008000000000000000000000000000000000000000000000000100000000000000000000000000400000000000000000000000000000000000000000000000000000100000000000000000000020000000000000000008000000000000000000000000000000000010000000000000000000000000000000000000000002000100000000000000000000000000000000000000000000000000000000000000000000000000000000000000000000000000000000000002",
      "type": "0x2",
      "transactionHash": "0x44f8862b931eced56d8c80bcb24e84f9a1f4a1438f3ac50ba15f44723d26100e",
      "transactionIndex": "0x24",
      "blockHash": "0x9256ed296e071c8deb42325589d1917446d2cc914f59d5decccf257a07f7904c",
      "blockNumber": "0x1873aba",
      "gasUsed": "0x3d7b8",
      "effectiveGasPrice": "0x3d2c0c78dae52",
      "from": "0xeca7a53ba6a190c5d205bfdc7707cbc3399336c1",
      "to": "0xf077d4d0508505c5a80249afc10bc6ead90e47f1",
      "contractAddress": null
    }
  ],
  "libraries": [],
  "pending": [],
  "returns": {},
  "timestamp": 1769555146545,
  "chain": 369,
  "commit": null
}