{
  "transactions": [
    {
      "hash": "0xdb3a3727c18c70bd72917340798ae7ed1a5ac7f6147a3b53c59792b046cc8e06",
      "transactionType": "CALL",
      "contractName": null,
      "contractAddress": "0xf077d4d0508505c5a80249afc10bc6ead90e47f1",
      "function": "makeCrime(uint8)",
      "arguments": [
        "0"
      ],
      "transaction": {
        "from": "0xec646a6c9000e04d050435340d9c42c039eb5648",
        "to": "0xf077d4d0508505c5a80249afc10bc6ead90e47f1",
        "gas": "0x409a4",
        "value": "0x0",
        "input": "0xc625abb40000000000000000000000000000000000000000000000000000000000000000",
        "nonce": "0x48",
        "chainId": "0x171"
      },
      "additionalContracts": [],
      "isFixedGasLimit": false
    }
  ],
  "receipts": [
    {
      "status": "0x1",
      "cumulativeGasUsed": "0x8c33c5",
      "logs": [
        {
          "address": "0x74eadd7ebeeed638fd7c413134fa3d3433699d92",
          "topics": [
            "0x570f308d592bed3a47a73125665ce3b81fe296da89acff1af6d926e08a0a9f12"
          ],
          "data": "0x000000000000000000000000ec646a6c9000e04d050435340d9c42c039eb5648000000000000000000000000000000000000000000000000000000000000044c",
          "blockHash": "0x60658df5cd975903201692c4c46581123743bbe998b427feea7d81dd4931805b",
          "blockNumber": "0x188aed7",
          "transactionHash": "0xdb3a3727c18c70bd72917340798ae7ed1a5ac7f6147a3b53c59792b046cc8e06",
          "transactionIndex": "0x16",
          "logIndex": "0xf1",
          "removed": false
        },
        {
          "address": "0xf077d4d0508505c5a80249afc10bc6ead90e47f1",
          "topics": [
            "0xe36ceebd3770780c5617d53efc7d77328074f1248146245ed3b854cbf651fb37"
          ],
          "data": "0x000000000000000000000000ec646a6c9000e04d050435340d9c42c039eb56480000000000000000000000000000000000000000000000000000000000000000000000000000000000000000000000000000000000000000000000000000000100000000000000000000000000000000000000000000000000000000000000000000000000000000000000000000000000000000000000113d22f329ee380000000000000000000000000000000000000000000000000000000000000000006400000000000000000000000000000000000000000000000000000000698830150000000000000000000000000000000000000000000000000000000069882c91",
          "blockHash": "0x60658df5cd975903201692c4c46581123743bbe998b427feea7d81dd4931805b",
          "blockNumber": "0x188aed7",
          "transactionHash": "0xdb3a3727c18c70bd72917340798ae7ed1a5ac7f6147a3b53c59792b046cc8e06",
          "transactionIndex": "0x16",
          "logIndex": "0xf2",
          "removed": false
        }
      ],
      "logsBloom": "0x00000000000000000000000000000000004000000000000000000000400000000000000000000000000000000000000000000000000000000000000000000000000000000000000000008000000000000000000000000000000000000000000000000100000000000000000000000000400000000000000000000000000000000000000000000000000000100000000000000000000020000000000000000008000000000000000000000000000000000010000000000000000000000000000000000000000002000100000000000000000000000000000000000000000000000000000000000000000000000000000000000000000000000000000000000002",
      "type": "0x2",
      "transactionHash": "0xdb3a3727c18c70bd72917340798ae7ed1a5ac7f6147a3b53c59792b046cc8e06",
      "transactionIndex": "0x16",
      "blockHash": "0x60658df5cd975903201692c4c46581123743bbe998b427feea7d81dd4931805b",
      "blockNumber": "0x188aed7",
      "gasUsed": "0x3d5a5",
      "effectiveGasPrice": "0x301f63401854a",
      "from": "0xec646a6c9000e04d050435340d9c42c039eb5648",
      "to": "0xf077d4d0508505c5a80249afc10bc6ead90e47f1",
      "contractAddress": null
    }
  ],
  "libraries": [],
  "pending": [],
  "returns": {},
  "timestamp": 1770531986607,
  "chain": 369,
  "commit": null
}