{
  "transactions": [
    {
      "hash": "0x1c00a4a672c8ed9aa9edc49b628eda133ed501295184a2ece6ce563443196b85",
      "transactionType": "CALL",
      "contractName": null,
      "contractAddress": "0xf077d4d0508505c5a80249afc10bc6ead90e47f1",
      "function": "makeCrime(uint8)",
      "arguments": [
        "0"
      ],
      "transaction": {
        "from": "0xaa73aa98480757d75aae288b5931261448eb0530",
        "to": "0xf077d4d0508505c5a80249afc10bc6ead90e47f1",
        "gas": "0x54be5",
        "value": "0x0",
        "input": "0xc625abb40000000000000000000000000000000000000000000000000000000000000000",
        "nonce": "0x69",
        "chainId": "0x171"
      },
      "additionalContracts": [],
      "isFixedGasLimit": false
    }
  ],
  "receipts": [
    {
      "status": "0x1",
      "cumulativeGasUsed": "0xa23f81",
      "logs": [
        {
          "address": "0xf077d4d0508505c5a80249afc10bc6ead90e47f1",
          "topics": [
            "0xe36ceebd3770780c5617d53efc7d77328074f1248146245ed3b854cbf651fb37"
          ],
          "data": "0x000000000000000000000000aa73aa98480757d75aae288b5931261448eb05300000000000000000000000000000000000000000000000000000000000000000000000000000000000000000000000000000000000000000000000000000000000000000000000000000000000000000000000000000000000000000000000000000000000000000000000000000000000000000000000000000000000000000000000000000000000000000000000000000000000000000000000000000000000000000000000000000000000000000000000000000000000000000698832130000000000000000000000000000000000000000000000000000000069882e8f",
          "blockHash": "0xa159906827ed8f0711bb3efb5faf1eb2ff58ed5d3afc0cebbbafc0f7693e617b",
          "blockNumber": "0x188af07",
          "transactionHash": "0x1c00a4a672c8ed9aa9edc49b628eda133ed501295184a2ece6ce563443196b85",
          "transactionIndex": "0x1d",
          "logIndex": "0x93",
          "removed": false
        }
      ],
      "logsBloom": "0x00000000000000000000000000000000000000000000000000000000400000000000000000000000000000000000000000000000000000000000000000000000000000000000000000000000000000000000000000000000000000000000000000000000000000000000000000000000400000000000000000000000000000000000000000000000000000100000000000000000000020000000000000000000000000000000000000000000000000000000000000000000000000000000000000000000000000000100000000000000000000000000000000000000000000000000000000000000000000000000000000000000000000000000000000000002",
      "type": "0x2",
      "transactionHash": "0x1c00a4a672c8ed9aa9edc49b628eda133ed501295184a2ece6ce563443196b85",
      "transactionIndex": "0x1d",
      "blockHash": "0xa159906827ed8f0711bb3efb5faf1eb2ff58ed5d3afc0cebbbafc0f7693e617b",
      "blockNumber": "0x188af07",
      "gasUsed": "0x1e865",
      "effectiveGasPrice": "0x29f65b9b835e2",
      "from": "0xaa73aa98480757d75aae288b5931261448eb0530",
      "to": "0xf077d4d0508505c5a80249afc10bc6ead90e47f1",
      "contractAddress": null
    }
  ],
  "libraries": [],
  "pending": [],
  "returns": {},
  "timestamp": 1770532497360,
  "chain": 369,
  "commit": null
}