{
  "transactions": [
    {
      "hash": "0xd15a940e67553ed5b957d4f56ff2920014aac6fd1c1681b8fe52a1dacc5de2d0",
      "transactionType": "CALL",
      "contractName": null,
      "contractAddress": "0xf077d4d0508505c5a80249afc10bc6ead90e47f1",
      "function": "makeCrime(uint8)",
      "arguments": [
        "0"
      ],
      "transaction": {
        "from": "0xac56dc5a4a9de0197f7b8f584ea04ec7e0123dde",
        "to": "0xf077d4d0508505c5a80249afc10bc6ead90e47f1",
        "gas": "0x552a0",
        "value": "0x0",
        "input": "0xc625abb40000000000000000000000000000000000000000000000000000000000000000",
        "nonce": "0x4ed",
        "chainId": "0x171"
      },
      "additionalContracts": [],
      "isFixedGasLimit": false
    }
  ],
  "receipts": [
    {
      "status": "0x1",
      "cumulativeGasUsed": "0xa34aad",
      "logs": [
        {
          "address": "0x74eadd7ebeeed638fd7c413134fa3d3433699d92",
          "topics": [
            "0x570f308d592bed3a47a73125665ce3b81fe296da89acff1af6d926e08a0a9f12"
          ],
          "data": "0x000000000000000000000000ac56dc5a4a9de0197f7b8f584ea04ec7e0123dde000000000000000000000000000000000000000000000000000000000003b03f",
          "blockHash": "0xb603e57d855c95c150fbbdee080ef2c622d32a0adda530f814b065b95d3a17df",
          "blockNumber": "0x188a783",
          "transactionHash": "0xd15a940e67553ed5b957d4f56ff2920014aac6fd1c1681b8fe52a1dacc5de2d0",
          "transactionIndex": "0x1c",
          "logIndex": "0x83",
          "removed": false
        },
        {
          "address": "0xf077d4d0508505c5a80249afc10bc6ead90e47f1",
          "topics": [
            "0xe36ceebd3770780c5617d53efc7d77328074f1248146245ed3b854cbf651fb37"
          ],
          "data": "0x000000000000000000000000ac56dc5a4a9de0197f7b8f584ea04ec7e0123dde0000000000000000000000000000000000000000000000000000000000000000000000000000000000000000000000000000000000000000000000000000000100000000000000000000000000000000000000000000000000000000000000000000000000000000000000000000000000000000000000182d7e4cfda03800000000000000000000000000000000000000000000000000000000000000000064000000000000000000000000000000000000000000000000000000006987e56f000000000000000000000000000000000000000000000000000000006987e1eb",
          "blockHash": "0xb603e57d855c95c150fbbdee080ef2c622d32a0adda530f814b065b95d3a17df",
          "blockNumber": "0x188a783",
          "transactionHash": "0xd15a940e67553ed5b957d4f56ff2920014aac6fd1c1681b8fe52a1dacc5de2d0",
          "transactionIndex": "0x1c",
          "logIndex": "0x84",
          "removed": false
        }
      ],
      "logsBloom": "0x00000000000000000000000000000000004000000000000000000000400000000000000000000000000000000000000000000000000000000000000000000000000000000000000000008000000000000000000000000000000000000000000000000100000000000000000000000000400000000000000000000000000000000000000000000000000000100000000000000000000020000000000000000008000000000000000000000000000000000010000000000000000000000000000000000000000002000100000000000000000000000000000000000000000000000000000000000000000000000000000000000000000000000000000000000002",
      "type": "0x2",
      "transactionHash": "0xd15a940e67553ed5b957d4f56ff2920014aac6fd1c1681b8fe52a1dacc5de2d0",
      "transactionIndex": "0x1c",
      "blockHash": "0xb603e57d855c95c150fbbdee080ef2c622d32a0adda530f814b065b95d3a17df",
      "blockNumber": "0x188a783",
      "gasUsed": "0x3da85",
      "effectiveGasPrice": "0x2fd815f38776c",
      "from": "0xac56dc5a4a9de0197f7b8f584ea04ec7e0123dde",
      "to": "0xf077d4d0508505c5a80249afc10bc6ead90e47f1",
      "contractAddress": null
    }
  ],
  "libraries": [],
  "pending": [],
  "returns": {},
  "timestamp": 1770512875632,
  "chain": 369,
  "commit": null
}