{
  "transactions": [
    {
      "hash": "0xa23ea9c5b4a084c0ddcb819a184b297f434c9f66a99447acf52b26fd5999f32b",
      "transactionType": "CALL",
      "contractName": null,
      "contractAddress": "0xf077d4d0508505c5a80249afc10bc6ead90e47f1",
      "function": "makeCrime(uint8)",
      "arguments": [
        "0"
      ],
      "transaction": {
        "from": "0x4c62f6121e6f967a0872da8364995e9b68c1e82f",
        "to": "0xf077d4d0508505c5a80249afc10bc6ead90e47f1",
        "gas": "0x606cf",
        "value": "0x0",
        "input": "0xc625abb40000000000000000000000000000000000000000000000000000000000000000",
        "nonce": "0x700",
        "chainId": "0x171"
      },
      "additionalContracts": [],
      "isFixedGasLimit": false
    }
  ],
  "receipts": [
    {
      "status": "0x1",
      "cumulativeGasUsed": "0x41bb18",
      "logs": [
        {
          "address": "0x74eadd7ebeeed638fd7c413134fa3d3433699d92",
          "topics": [
            "0x570f308d592bed3a47a73125665ce3b81fe296da89acff1af6d926e08a0a9f12"
          ],
          "data": "0x0000000000000000000000004c62f6121e6f967a0872da8364995e9b68c1e82f0000000000000000000000000000000000000000000000000000000000000064",
          "blockHash": "0xcb8fb175165b870be98c2204617e8ce1d1be16e05e7008307ed97fd421064cc1",
          "blockNumber": "0x1873a1d",
          "transactionHash": "0xa23ea9c5b4a084c0ddcb819a184b297f434c9f66a99447acf52b26fd5999f32b",
          "transactionIndex": "0x2a",
          "logIndex": "0x4e",
          "removed": false
        },
        {
          "address": "0xf077d4d0508505c5a80249afc10bc6ead90e47f1",
          "topics": [
            "0xe36ceebd3770780c5617d53efc7d77328074f1248146245ed3b854cbf651fb37"
          ],
          "data": "0x0000000000000000000000004c62f6121e6f967a0872da8364995e9b68c1e82f000000000000000000000000000000000000000000000000000000000000000000000000000000000000000000000000000000000000000000000000000000010000000000000000000000000000000000000000000000000000000000000000000000000000000000000000000000000000000000000016b6cb080af8ac0000000000000000000000000000000000000000000000000000000000000000006400000000000000000000000000000000000000000000000000000000697942030000000000000000000000000000000000000000000000000000000069793e7f",
          "blockHash": "0xcb8fb175165b870be98c2204617e8ce1d1be16e05e7008307ed97fd421064cc1",
          "blockNumber": "0x1873a1d",
          "transactionHash": "0xa23ea9c5b4a084c0ddcb819a184b297f434c9f66a99447acf52b26fd5999f32b",
          "transactionIndex": "0x2a",
          "logIndex": "0x4f",
          "removed": false
        }
      ],
      "logsBloom": "0x00000000000000000000000000000000004000000000000000000000400000000000000000000000000000000000000000000000000000000000000000000000000000000000000000008000000000000000000000000000000000000000000000000100000000000000000000000000400000000000000000000000000000000000000000000000000000100000000000000000000020000000000000000008000000000000000000000000000000000010000000000000000000000000000000000000000002000100000000000000000000000000000000000000000000000000000000000000000000000000000000000000000000000000000000000002",
      "type": "0x2",
      "transactionHash": "0xa23ea9c5b4a084c0ddcb819a184b297f434c9f66a99447acf52b26fd5999f32b",
      "transactionIndex": "0x2a",
      "blockHash": "0xcb8fb175165b870be98c2204617e8ce1d1be16e05e7008307ed97fd421064cc1",
      "blockNumber": "0x1873a1d",
      "gasUsed": "0x45cf8",
      "effectiveGasPrice": "0x45e509d118af2",
      "from": "0x4c62f6121e6f967a0872da8364995e9b68c1e82f",
      "to": "0xf077d4d0508505c5a80249afc10bc6ead90e47f1",
      "contractAddress": null
    }
  ],
  "libraries": [],
  "pending": [],
  "returns": {},
  "timestamp": 1769553535804,
  "chain": 369,
  "commit": null
}