{
  "transactions": [
    {
      "hash": "0x436d6d150c1ae86615ae4c7938482888abd97da7dc44f1559eb5d63ace4b1030",
      "transactionType": "CALL",
      "contractName": null,
      "contractAddress": "0xf077d4d0508505c5a80249afc10bc6ead90e47f1",
      "function": "makeCrime(uint8)",
      "arguments": [
        "0"
      ],
      "transaction": {
        "from": "0xeca7a53ba6a190c5d205bfdc7707cbc3399336c1",
        "to": "0xf077d4d0508505c5a80249afc10bc6ead90e47f1",
        "gas": "0x40ef5",
        "value": "0x0",
        "input": "0xc625abb40000000000000000000000000000000000000000000000000000000000000000",
        "nonce": "0x301",
        "chainId": "0x171"
      },
      "additionalContracts": [],
      "isFixedGasLimit": false
    }
  ],
  "receipts": [
    {
      "status": "0x1",
      "cumulativeGasUsed": "0x18356f3",
      "logs": [
        {
          "address": "0xf077d4d0508505c5a80249afc10bc6ead90e47f1",
          "topics": [
            "0xe36ceebd3770780c5617d53efc7d77328074f1248146245ed3b854cbf651fb37"
          ],
          "data": "0x000000000000000000000000eca7a53ba6a190c5d205bfdc7707cbc3399336c100000000000000000000000000000000000000000000000000000000000000000000000000000000000000000000000000000000000000000000000000000000000000000000000000000000000000000000000000000000000000000000000000000000000000000000000000000000000000000000000000000000000000000000000000000000000000000000000000000000000000000000000000000000000000000000000000000000000000000000000000000000000000006977bed3000000000000000000000000000000000000000000000000000000006977bb4f",
          "blockHash": "0xe9f63f026528c224c41a0e6510c7a4e3d38e0270be7584b4c30822ae315c2d79",
          "blockNumber": "0x1871437",
          "transactionHash": "0x436d6d150c1ae86615ae4c7938482888abd97da7dc44f1559eb5d63ace4b1030",
          "transactionIndex": "0x54",
          "logIndex": "0x377",
          "removed": false
        }
      ],
      "logsBloom": "0x00000000000000000000000000000000000000000000000000000000400000000000000000000000000000000000000000000000000000000000000000000000000000000000000000000000000000000000000000000000000000000000000000000000000000000000000000000000400000000000000000000000000000000000000000000000000000100000000000000000000020000000000000000000000000000000000000000000000000000000000000000000000000000000000000000000000000000100000000000000000000000000000000000000000000000000000000000000000000000000000000000000000000000000000000000002",
      "type": "0x2",
      "transactionHash": "0x436d6d150c1ae86615ae4c7938482888abd97da7dc44f1559eb5d63ace4b1030",
      "transactionIndex": "0x54",
      "blockHash": "0xe9f63f026528c224c41a0e6510c7a4e3d38e0270be7584b4c30822ae315c2d79",
      "blockNumber": "0x1871437",
      "gasUsed": "0x1f525",
      "effectiveGasPrice": "0x25857f75bee9a",
      "from": "0xeca7a53ba6a190c5d205bfdc7707cbc3399336c1",
      "to": "0xf077d4d0508505c5a80249afc10bc6ead90e47f1",
      "contractAddress": null
    }
  ],
  "libraries": [],
  "pending": [],
  "returns": {},
  "timestamp": 1769454417467,
  "chain": 369,
  "commit": "953695a"
}