{
  "transactions": [
    {
      "hash": "0xd76620d606583eda35ffa7e4f4e755752c34772692f1b1aa662016ae42474a74",
      "transactionType": "CALL",
      "contractName": null,
      "contractAddress": "0xf077d4d0508505c5a80249afc10bc6ead90e47f1",
      "function": "makeCrime(uint8)",
      "arguments": [
        "0"
      ],
      "transaction": {
        "from": "0xac56dc5a4a9de0197f7b8f584ea04ec7e0123dde",
        "to": "0xf077d4d0508505c5a80249afc10bc6ead90e47f1",
        "gas": "0x4bbc3",
        "value": "0x0",
        "input": "0xc625abb40000000000000000000000000000000000000000000000000000000000000000",
        "nonce": "0x240",
        "chainId": "0x171"
      },
      "additionalContracts": [],
      "isFixedGasLimit": false
    }
  ],
  "receipts": [
    {
      "status": "0x1",
      "cumulativeGasUsed": "0x175fe53",
      "logs": [
        {
          "address": "0x74eadd7ebeeed638fd7c413134fa3d3433699d92",
          "topics": [
            "0x570f308d592bed3a47a73125665ce3b81fe296da89acff1af6d926e08a0a9f12"
          ],
          "data": "0x000000000000000000000000ac56dc5a4a9de0197f7b8f584ea04ec7e0123dde00000000000000000000000000000000000000000000000000000000000365a3",
          "blockHash": "0x27c30f322067252b7e5a080e90068c906feda667d87f7d76ac4dcff9ae7a4b95",
          "blockNumber": "0x185ee9a",
          "transactionHash": "0xd76620d606583eda35ffa7e4f4e755752c34772692f1b1aa662016ae42474a74",
          "transactionIndex": "0x9c",
          "logIndex": "0x277",
          "removed": false
        },
        {
          "address": "0xf077d4d0508505c5a80249afc10bc6ead90e47f1",
          "topics": [
            "0xe36ceebd3770780c5617d53efc7d77328074f1248146245ed3b854cbf651fb37"
          ],
          "data": "0x000000000000000000000000ac56dc5a4a9de0197f7b8f584ea04ec7e0123dde00000000000000000000000000000000000000000000000000000000000000000000000000000000000000000000000000000000000000000000000000000001000000000000000000000000000000000000000000000000000000000000000000000000000000000000000000000000000000000000000dee976a5b0b640000000000000000000000000000000000000000000000000000000000000000006400000000000000000000000000000000000000000000000000000000696bf94500000000000000000000000000000000000000000000000000000000696bf5c1",
          "blockHash": "0x27c30f322067252b7e5a080e90068c906feda667d87f7d76ac4dcff9ae7a4b95",
          "blockNumber": "0x185ee9a",
          "transactionHash": "0xd76620d606583eda35ffa7e4f4e755752c34772692f1b1aa662016ae42474a74",
          "transactionIndex": "0x9c",
          "logIndex": "0x278",
          "removed": false
        }
      ],
      "logsBloom": "0x00000000000000000000000000000000004000000000000000000000400000000000000000000000000000000000000000000000000000000000000000000000000000000000000000008000000000000000000000000000000000000000000000000100000000000000000000000000400000000000000000000000000000000000000000000000000000100000000000000000000020000000000000000008000000000000000000000000000000000010000000000000000000000000000000000000000002000100000000000000000000000000000000000000000000000000000000000000000000000000000000000000000000000000000000000002",
      "type": "0x2",
      "transactionHash": "0xd76620d606583eda35ffa7e4f4e755752c34772692f1b1aa662016ae42474a74",
      "transactionIndex": "0x9c",
      "blockHash": "0x27c30f322067252b7e5a080e90068c906feda667d87f7d76ac4dcff9ae7a4b95",
      "blockNumber": "0x185ee9a",
      "gasUsed": "0x4123c",
      "effectiveGasPrice": "0x132e2852ecf54",
      "from": "0xac56dc5a4a9de0197f7b8f584ea04ec7e0123dde",
      "to": "0xf077d4d0508505c5a80249afc10bc6ead90e47f1",
      "contractAddress": null
    }
  ],
  "libraries": [],
  "pending": [],
  "returns": {},
  "timestamp": 1768682945912,
  "chain": 369,
  "commit": "953695a"
}