{
  "transactions": [
    {
      "hash": "0x87e433b49eebbf2375e38084140a0a5007a108d434fd5e69a23f221a7c7cd044",
      "transactionType": "CALL",
      "contractName": null,
      "contractAddress": "0xf077d4d0508505c5a80249afc10bc6ead90e47f1",
      "function": "makeCrime(uint8)",
      "arguments": [
        "0"
      ],
      "transaction": {
        "from": "0x4c62f6121e6f967a0872da8364995e9b68c1e82f",
        "to": "0xf077d4d0508505c5a80249afc10bc6ead90e47f1",
        "gas": "0x409a4",
        "value": "0x0",
        "input": "0xc625abb40000000000000000000000000000000000000000000000000000000000000000",
        "nonce": "0x955",
        "chainId": "0x171"
      },
      "additionalContracts": [],
      "isFixedGasLimit": false
    }
  ],
  "receipts": [
    {
      "status": "0x1",
      "cumulativeGasUsed": "0xad35a6",
      "logs": [
        {
          "address": "0x74eadd7ebeeed638fd7c413134fa3d3433699d92",
          "topics": [
            "0x570f308d592bed3a47a73125665ce3b81fe296da89acff1af6d926e08a0a9f12"
          ],
          "data": "0x0000000000000000000000004c62f6121e6f967a0872da8364995e9b68c1e82f0000000000000000000000000000000000000000000000000000000000001e78",
          "blockHash": "0x9969ca4473f9a89b1f5f56b56c4f495b6f8427adb414e43a67e10c0c89c52e8c",
          "blockNumber": "0x1889d3d",
          "transactionHash": "0x87e433b49eebbf2375e38084140a0a5007a108d434fd5e69a23f221a7c7cd044",
          "transactionIndex": "0x1d",
          "logIndex": "0x79",
          "removed": false
        },
        {
          "address": "0xf077d4d0508505c5a80249afc10bc6ead90e47f1",
          "topics": [
            "0xe36ceebd3770780c5617d53efc7d77328074f1248146245ed3b854cbf651fb37"
          ],
          "data": "0x0000000000000000000000004c62f6121e6f967a0872da8364995e9b68c1e82f000000000000000000000000000000000000000000000000000000000000000000000000000000000000000000000000000000000000000000000000000000010000000000000000000000000000000000000000000000000000000000000000000000000000000000000000000000000000000000000016fc2e998d3da0000000000000000000000000000000000000000000000000000000000000000000640000000000000000000000000000000000000000000000000000000069877c150000000000000000000000000000000000000000000000000000000069877891",
          "blockHash": "0x9969ca4473f9a89b1f5f56b56c4f495b6f8427adb414e43a67e10c0c89c52e8c",
          "blockNumber": "0x1889d3d",
          "transactionHash": "0x87e433b49eebbf2375e38084140a0a5007a108d434fd5e69a23f221a7c7cd044",
          "transactionIndex": "0x1d",
          "logIndex": "0x7a",
          "removed": false
        }
      ],
      "logsBloom": "0x00000000000000000000000000000000004000000000000000000000400000000000000000000000000000000000000000000000000000000000000000000000000000000000000000008000000000000000000000000000000000000000000000000100000000000000000000000000400000000000000000000000000000000000000000000000000000100000000000000000000020000000000000000008000000000000000000000000000000000010000000000000000000000000000000000000000002000100000000000000000000000000000000000000000000000000000000000000000000000000000000000000000000000000000000000002",
      "type": "0x2",
      "transactionHash": "0x87e433b49eebbf2375e38084140a0a5007a108d434fd5e69a23f221a7c7cd044",
      "transactionIndex": "0x1d",
      "blockHash": "0x9969ca4473f9a89b1f5f56b56c4f495b6f8427adb414e43a67e10c0c89c52e8c",
      "blockNumber": "0x1889d3d",
      "gasUsed": "0x3d5a5",
      "effectiveGasPrice": "0x2fc9cd072cd59",
      "from": "0x4c62f6121e6f967a0872da8364995e9b68c1e82f",
      "to": "0xf077d4d0508505c5a80249afc10bc6ead90e47f1",
      "contractAddress": null
    }
  ],
  "libraries": [],
  "pending": [],
  "returns": {},
  "timestamp": 1770485906131,
  "chain": 369,
  "commit": null
}