{
  "transactions": [
    {
      "hash": "0x1895c457ec23577713f72eaf5df166b66125c15e05eb439c6ccdd271ee92b396",
      "transactionType": "CALL",
      "contractName": null,
      "contractAddress": "0xf077d4d0508505c5a80249afc10bc6ead90e47f1",
      "function": "makeCrime(uint8)",
      "arguments": [
        "0"
      ],
      "transaction": {
        "from": "0x4c62f6121e6f967a0872da8364995e9b68c1e82f",
        "to": "0xf077d4d0508505c5a80249afc10bc6ead90e47f1",
        "gas": "0x53c96",
        "value": "0x0",
        "input": "0xc625abb40000000000000000000000000000000000000000000000000000000000000000",
        "nonce": "0x735",
        "chainId": "0x171"
      },
      "additionalContracts": [],
      "isFixedGasLimit": false
    }
  ],
  "receipts": [
    {
      "status": "0x1",
      "cumulativeGasUsed": "0x44f0f3",
      "logs": [
        {
          "address": "0xdcd5e9c0b2b4e9cb93677a258521d854b3a9f5a1",
          "topics": [
            "0x0bff5315606c84d1cee047503678048ca39946be11bfdd5a8c03fe5e272d98e3"
          ],
          "data": "0x0000000000000000000000004c62f6121e6f967a0872da8364995e9b68c1e82f000000000000000000000000000000000000000000000000000000006979f7890000000000000000000000000000000000000000000000000000000000000000",
          "blockHash": "0xc996adf39f8a358ee1b5a99477f17361ee798c35468761b2c214c1511db761f7",
          "blockNumber": "0x1874baf",
          "transactionHash": "0x1895c457ec23577713f72eaf5df166b66125c15e05eb439c6ccdd271ee92b396",
          "transactionIndex": "0x1b",
          "logIndex": "0x77",
          "removed": false
        },
        {
          "address": "0xf077d4d0508505c5a80249afc10bc6ead90e47f1",
          "topics": [
            "0xe36ceebd3770780c5617d53efc7d77328074f1248146245ed3b854cbf651fb37"
          ],
          "data": "0x0000000000000000000000004c62f6121e6f967a0872da8364995e9b68c1e82f00000000000000000000000000000000000000000000000000000000000000000000000000000000000000000000000000000000000000000000000000000000000000000000000000000000000000000000000000000000000000000000000100000000000000000000000000000000000000000000000000000000000000000000000000000000000000000000000000000000000000000000000000000000000000000000000000000000000000000000000000000000000000006979f5c7000000000000000000000000000000000000000000000000000000006979f243",
          "blockHash": "0xc996adf39f8a358ee1b5a99477f17361ee798c35468761b2c214c1511db761f7",
          "blockNumber": "0x1874baf",
          "transactionHash": "0x1895c457ec23577713f72eaf5df166b66125c15e05eb439c6ccdd271ee92b396",
          "transactionIndex": "0x1b",
          "logIndex": "0x78",
          "removed": false
        }
      ],
      "logsBloom": "0x00000000000000000000000000000000010000000000000000000000400000000000000000000000000000000000000000000000000000000000000000000000000000000000000000000000000000000000000000000000001000000000000000000000000000000000000000000000400000000080000000000000000000000000000000000000000000100000000000000000000020000000000000000000000000000000000000000000000000000000000000000000400000000000000000000000000000000100000000000040000000000000000000000000000000000000000000000000000000000000000000000000000000000000000000001002",
      "type": "0x2",
      "transactionHash": "0x1895c457ec23577713f72eaf5df166b66125c15e05eb439c6ccdd271ee92b396",
      "transactionIndex": "0x1b",
      "blockHash": "0xc996adf39f8a358ee1b5a99477f17361ee798c35468761b2c214c1511db761f7",
      "blockNumber": "0x1874baf",
      "gasUsed": "0x2e370",
      "effectiveGasPrice": "0x231736a35ec77",
      "from": "0x4c62f6121e6f967a0872da8364995e9b68c1e82f",
      "to": "0xf077d4d0508505c5a80249afc10bc6ead90e47f1",
      "contractAddress": null
    }
  ],
  "libraries": [],
  "pending": [],
  "returns": {},
  "timestamp": 1769599555711,
  "chain": 369,
  "commit": null
}