{
  "transactions": [
    {
      "hash": "0xa583ad86b002ada605634ae77bb97c949274f8deaa403884df6e9feb43305767",
      "transactionType": "CALL",
      "contractName": null,
      "contractAddress": "0xf077d4d0508505c5a80249afc10bc6ead90e47f1",
      "function": "makeCrime(uint8)",
      "arguments": [
        "0"
      ],
      "transaction": {
        "from": "0xac56dc5a4a9de0197f7b8f584ea04ec7e0123dde",
        "to": "0xf077d4d0508505c5a80249afc10bc6ead90e47f1",
        "gas": "0x44caf",
        "value": "0x0",
        "input": "0xc625abb40000000000000000000000000000000000000000000000000000000000000000",
        "nonce": "0x3bb",
        "chainId": "0x171"
      },
      "additionalContracts": [],
      "isFixedGasLimit": false
    }
  ],
  "receipts": [
    {
      "status": "0x1",
      "cumulativeGasUsed": "0xc53ee5",
      "logs": [
        {
          "address": "0x74eadd7ebeeed638fd7c413134fa3d3433699d92",
          "topics": [
            "0x570f308d592bed3a47a73125665ce3b81fe296da89acff1af6d926e08a0a9f12"
          ],
          "data": "0x000000000000000000000000ac56dc5a4a9de0197f7b8f584ea04ec7e0123dde0000000000000000000000000000000000000000000000000000000000038ddf",
          "blockHash": "0xe008e8a10c4b6c2c88f86f80d8451a5e59ffa1b60d0cd16f5ba9b1f234eacaea",
          "blockNumber": "0x1875e00",
          "transactionHash": "0xa583ad86b002ada605634ae77bb97c949274f8deaa403884df6e9feb43305767",
          "transactionIndex": "0x24",
          "logIndex": "0x273",
          "removed": false
        },
        {
          "address": "0xf077d4d0508505c5a80249afc10bc6ead90e47f1",
          "topics": [
            "0xe36ceebd3770780c5617d53efc7d77328074f1248146245ed3b854cbf651fb37"
          ],
          "data": "0x000000000000000000000000ac56dc5a4a9de0197f7b8f584ea04ec7e0123dde000000000000000000000000000000000000000000000000000000000000000000000000000000000000000000000000000000000000000000000000000000010000000000000000000000000000000000000000000000000000000000000000000000000000000000000000000000000000000000000018493fba64ef000000000000000000000000000000000000000000000000000000000000000000006400000000000000000000000000000000000000000000000000000000697ab11500000000000000000000000000000000000000000000000000000000697aad91",
          "blockHash": "0xe008e8a10c4b6c2c88f86f80d8451a5e59ffa1b60d0cd16f5ba9b1f234eacaea",
          "blockNumber": "0x1875e00",
          "transactionHash": "0xa583ad86b002ada605634ae77bb97c949274f8deaa403884df6e9feb43305767",
          "transactionIndex": "0x24",
          "logIndex": "0x274",
          "removed": false
        }
      ],
      "logsBloom": "0x00000000000000000000000000000000004000000000000000000000400000000000000000000000000000000000000000000000000000000000000000000000000000000000000000008000000000000000000000000000000000000000000000000100000000000000000000000000400000000000000000000000000000000000000000000000000000100000000000000000000020000000000000000008000000000000000000000000000000000010000000000000000000000000000000000000000002000100000000000000000000000000000000000000000000000000000000000000000000000000000000000000000000000000000000000002",
      "type": "0x2",
      "transactionHash": "0xa583ad86b002ada605634ae77bb97c949274f8deaa403884df6e9feb43305767",
      "transactionIndex": "0x24",
      "blockHash": "0xe008e8a10c4b6c2c88f86f80d8451a5e59ffa1b60d0cd16f5ba9b1f234eacaea",
      "blockNumber": "0x1875e00",
      "gasUsed": "0x3da85",
      "effectiveGasPrice": "0x1be7959439359",
      "from": "0xac56dc5a4a9de0197f7b8f584ea04ec7e0123dde",
      "to": "0xf077d4d0508505c5a80249afc10bc6ead90e47f1",
      "contractAddress": null
    }
  ],
  "libraries": [],
  "pending": [],
  "returns": {},
  "timestamp": 1769647505717,
  "chain": 369,
  "commit": null
}