{
  "transactions": [
    {
      "hash": "0x6c31c6ff4a22c80b663a3c59a0d4ca1a398496045082b92e27e4e976a32e1115",
      "transactionType": "CALL",
      "contractName": null,
      "contractAddress": "0xf077d4d0508505c5a80249afc10bc6ead90e47f1",
      "function": "makeCrime(uint8)",
      "arguments": [
        "0"
      ],
      "transaction": {
        "from": "0xac56dc5a4a9de0197f7b8f584ea04ec7e0123dde",
        "to": "0xf077d4d0508505c5a80249afc10bc6ead90e47f1",
        "gas": "0x552c4",
        "value": "0x0",
        "input": "0xc625abb40000000000000000000000000000000000000000000000000000000000000000",
        "nonce": "0x4fe",
        "chainId": "0x171"
      },
      "additionalContracts": [],
      "isFixedGasLimit": false
    }
  ],
  "receipts": [
    {
      "status": "0x1",
      "cumulativeGasUsed": "0x28105de",
      "logs": [
        {
          "address": "0xf077d4d0508505c5a80249afc10bc6ead90e47f1",
          "topics": [
            "0xe36ceebd3770780c5617d53efc7d77328074f1248146245ed3b854cbf651fb37"
          ],
          "data": "0x000000000000000000000000ac56dc5a4a9de0197f7b8f584ea04ec7e0123dde0000000000000000000000000000000000000000000000000000000000000000000000000000000000000000000000000000000000000000000000000000000000000000000000000000000000000000000000000000000000000000000000000000000000000000000000000000000000000000000000000000000000000000000000000000000000000000000000000000000000000000000000000000000000000000000000000000000000000000000000000000000000000000698820930000000000000000000000000000000000000000000000000000000069881d0f",
          "blockHash": "0x6422ae5eea89db1fe693d8d3931d60578bcc325b503511604db3996f6490e778",
          "blockNumber": "0x188ad53",
          "transactionHash": "0x6c31c6ff4a22c80b663a3c59a0d4ca1a398496045082b92e27e4e976a32e1115",
          "transactionIndex": "0x2e",
          "logIndex": "0x821",
          "removed": false
        }
      ],
      "logsBloom": "0x00000000000000000000000000000000000000000000000000000000400000000000000000000000000000000000000000000000000000000000000000000000000000000000000000000000000000000000000000000000000000000000000000000000000000000000000000000000400000000000000000000000000000000000000000000000000000100000000000000000000020000000000000000000000000000000000000000000000000000000000000000000000000000000000000000000000000000100000000000000000000000000000000000000000000000000000000000000000000000000000000000000000000000000000000000002",
      "type": "0x2",
      "transactionHash": "0x6c31c6ff4a22c80b663a3c59a0d4ca1a398496045082b92e27e4e976a32e1115",
      "transactionIndex": "0x2e",
      "blockHash": "0x6422ae5eea89db1fe693d8d3931d60578bcc325b503511604db3996f6490e778",
      "blockNumber": "0x188ad53",
      "gasUsed": "0x1eca9",
      "effectiveGasPrice": "0x2d50831fdf530",
      "from": "0xac56dc5a4a9de0197f7b8f584ea04ec7e0123dde",
      "to": "0xf077d4d0508505c5a80249afc10bc6ead90e47f1",
      "contractAddress": null
    }
  ],
  "libraries": [],
  "pending": [],
  "returns": {},
  "timestamp": 1770528016981,
  "chain": 369,
  "commit": null
}