{
  "transactions": [
    {
      "hash": "0xd385079237c68e1ea665cebfde14799d8581b73332bdbc9eb18abeeeeddf17f3",
      "transactionType": "CALL",
      "contractName": null,
      "contractAddress": "0xf077d4d0508505c5a80249afc10bc6ead90e47f1",
      "function": "makeCrime(uint8)",
      "arguments": [
        "0"
      ],
      "transaction": {
        "from": "0xeca7a53ba6a190c5d205bfdc7707cbc3399336c1",
        "to": "0xf077d4d0508505c5a80249afc10bc6ead90e47f1",
        "gas": "0x54ec2",
        "value": "0x0",
        "input": "0xc625abb40000000000000000000000000000000000000000000000000000000000000000",
        "nonce": "0x389",
        "chainId": "0x171"
      },
      "additionalContracts": [],
      "isFixedGasLimit": false
    }
  ],
  "receipts": [
    {
      "status": "0x1",
      "cumulativeGasUsed": "0x3435d1",
      "logs": [
        {
          "address": "0x74eadd7ebeeed638fd7c413134fa3d3433699d92",
          "topics": [
            "0x570f308d592bed3a47a73125665ce3b81fe296da89acff1af6d926e08a0a9f12"
          ],
          "data": "0x000000000000000000000000eca7a53ba6a190c5d205bfdc7707cbc3399336c100000000000000000000000000000000000000000000000000000000000230a2",
          "blockHash": "0xf1805fb41ada324c5847a3b6735cdc820c7eb64010bac257d773222c5fa41b02",
          "blockNumber": "0x18743f7",
          "transactionHash": "0xd385079237c68e1ea665cebfde14799d8581b73332bdbc9eb18abeeeeddf17f3",
          "transactionIndex": "0xc",
          "logIndex": "0x53",
          "removed": false
        },
        {
          "address": "0xf077d4d0508505c5a80249afc10bc6ead90e47f1",
          "topics": [
            "0xe36ceebd3770780c5617d53efc7d77328074f1248146245ed3b854cbf651fb37"
          ],
          "data": "0x000000000000000000000000eca7a53ba6a190c5d205bfdc7707cbc3399336c10000000000000000000000000000000000000000000000000000000000000000000000000000000000000000000000000000000000000000000000000000000100000000000000000000000000000000000000000000000000000000000000000000000000000000000000000000000000000000000000181f9d9649f8d400000000000000000000000000000000000000000000000000000000000000000014000000000000000000000000000000000000000000000000000000006979a6d5000000000000000000000000000000000000000000000000000000006979a351",
          "blockHash": "0xf1805fb41ada324c5847a3b6735cdc820c7eb64010bac257d773222c5fa41b02",
          "blockNumber": "0x18743f7",
          "transactionHash": "0xd385079237c68e1ea665cebfde14799d8581b73332bdbc9eb18abeeeeddf17f3",
          "transactionIndex": "0xc",
          "logIndex": "0x54",
          "removed": false
        }
      ],
      "logsBloom": "0x00000000000000000000000000000000004000000000000000000000400000000000000000000000000000000000000000000000000000000000000000000000000000000000000000008000000000000000000000000000000000000000000000000100000000000000000000000000400000000000000000000000000000000000000000000000000000100000000000000000000020000000000000000008000000000000000000000000000000000010000000000000000000000000000000000000000002000100000000000000000000000000000000000000000000000000000000000000000000000000000000000000000000000000000000000002",
      "type": "0x2",
      "transactionHash": "0xd385079237c68e1ea665cebfde14799d8581b73332bdbc9eb18abeeeeddf17f3",
      "transactionIndex": "0xc",
      "blockHash": "0xf1805fb41ada324c5847a3b6735cdc820c7eb64010bac257d773222c5fa41b02",
      "blockNumber": "0x18743f7",
      "gasUsed": "0x3d7b8",
      "effectiveGasPrice": "0x25eee987b5c75",
      "from": "0xeca7a53ba6a190c5d205bfdc7707cbc3399336c1",
      "to": "0xf077d4d0508505c5a80249afc10bc6ead90e47f1",
      "contractAddress": null
    }
  ],
  "libraries": [],
  "pending": [],
  "returns": {},
  "timestamp": 1769579346403,
  "chain": 369,
  "commit": null
}