{
  "transactions": [
    {
      "hash": "0x1071044767a05e6770ac5229352c9a0dc63c35bd60f34be4c1fb1f6b46f75d46",
      "transactionType": "CALL",
      "contractName": null,
      "contractAddress": "0xf077d4d0508505c5a80249afc10bc6ead90e47f1",
      "function": "makeCrime(uint8)",
      "arguments": [
        "0"
      ],
      "transaction": {
        "from": "0xeca7a53ba6a190c5d205bfdc7707cbc3399336c1",
        "to": "0xf077d4d0508505c5a80249afc10bc6ead90e47f1",
        "gas": "0x40ef5",
        "value": "0x0",
        "input": "0xc625abb40000000000000000000000000000000000000000000000000000000000000000",
        "nonce": "0x3c0",
        "chainId": "0x171"
      },
      "additionalContracts": [],
      "isFixedGasLimit": false
    }
  ],
  "receipts": [
    {
      "status": "0x1",
      "cumulativeGasUsed": "0x152dfcc",
      "logs": [
        {
          "address": "0xdcd5e9c0b2b4e9cb93677a258521d854b3a9f5a1",
          "topics": [
            "0x0bff5315606c84d1cee047503678048ca39946be11bfdd5a8c03fe5e272d98e3"
          ],
          "data": "0x000000000000000000000000eca7a53ba6a190c5d205bfdc7707cbc3399336c100000000000000000000000000000000000000000000000000000000697a5adf0000000000000000000000000000000000000000000000000000000000000000",
          "blockHash": "0x82206f3aa45991a7b9e3477510b5eaf9231daa57a05ac36463c46e36a7aa0124",
          "blockNumber": "0x187556d",
          "transactionHash": "0x1071044767a05e6770ac5229352c9a0dc63c35bd60f34be4c1fb1f6b46f75d46",
          "transactionIndex": "0x22",
          "logIndex": "0x424",
          "removed": false
        },
        {
          "address": "0xf077d4d0508505c5a80249afc10bc6ead90e47f1",
          "topics": [
            "0xe36ceebd3770780c5617d53efc7d77328074f1248146245ed3b854cbf651fb37"
          ],
          "data": "0x000000000000000000000000eca7a53ba6a190c5d205bfdc7707cbc3399336c10000000000000000000000000000000000000000000000000000000000000000000000000000000000000000000000000000000000000000000000000000000000000000000000000000000000000000000000000000000000000000000000010000000000000000000000000000000000000000000000000000000000000000000000000000000000000000000000000000000000000000000000000000000000000000000000000000000000000000000000000000000000000000697a591d00000000000000000000000000000000000000000000000000000000697a5599",
          "blockHash": "0x82206f3aa45991a7b9e3477510b5eaf9231daa57a05ac36463c46e36a7aa0124",
          "blockNumber": "0x187556d",
          "transactionHash": "0x1071044767a05e6770ac5229352c9a0dc63c35bd60f34be4c1fb1f6b46f75d46",
          "transactionIndex": "0x22",
          "logIndex": "0x425",
          "removed": false
        }
      ],
      "logsBloom": "0x00000000000000000000000000000000010000000000000000000000400000000000000000000000000000000000000000000000000000000000000000000000000000000000000000000000000000000000000000000000001000000000000000000000000000000000000000000000400000000080000000000000000000000000000000000000000000100000000000000000000020000000000000000000000000000000000000000000000000000000000000000000400000000000000000000000000000000100000000000040000000000000000000000000000000000000000000000000000000000000000000000000000000000000000000001002",
      "type": "0x2",
      "transactionHash": "0x1071044767a05e6770ac5229352c9a0dc63c35bd60f34be4c1fb1f6b46f75d46",
      "transactionIndex": "0x22",
      "blockHash": "0x82206f3aa45991a7b9e3477510b5eaf9231daa57a05ac36463c46e36a7aa0124",
      "blockNumber": "0x187556d",
      "gasUsed": "0x2f030",
      "effectiveGasPrice": "0x34605da9f84f0",
      "from": "0xeca7a53ba6a190c5d205bfdc7707cbc3399336c1",
      "to": "0xf077d4d0508505c5a80249afc10bc6ead90e47f1",
      "contractAddress": null
    }
  ],
  "libraries": [],
  "pending": [],
  "returns": {},
  "timestamp": 1769624986219,
  "chain": 369,
  "commit": null
}