{
  "transactions": [
    {
      "hash": "0x8b22ad2f6103eeeda75dafeada1928d9e0e6eaff096ea6d715705cf0c2fb407a",
      "transactionType": "CALL",
      "contractName": null,
      "contractAddress": "0xf077d4d0508505c5a80249afc10bc6ead90e47f1",
      "function": "makeCrime(uint8)",
      "arguments": [
        "0"
      ],
      "transaction": {
        "from": "0xeca7a53ba6a190c5d205bfdc7707cbc3399336c1",
        "to": "0xf077d4d0508505c5a80249afc10bc6ead90e47f1",
        "gas": "0x2b434",
        "value": "0x0",
        "input": "0xc625abb40000000000000000000000000000000000000000000000000000000000000000",
        "nonce": "0x2dc",
        "chainId": "0x171"
      },
      "additionalContracts": [],
      "isFixedGasLimit": false
    }
  ],
  "receipts": [
    {
      "status": "0x1",
      "cumulativeGasUsed": "0xfb1b44",
      "logs": [
        {
          "address": "0xf077d4d0508505c5a80249afc10bc6ead90e47f1",
          "topics": [
            "0xe36ceebd3770780c5617d53efc7d77328074f1248146245ed3b854cbf651fb37"
          ],
          "data": "0x000000000000000000000000eca7a53ba6a190c5d205bfdc7707cbc3399336c100000000000000000000000000000000000000000000000000000000000000000000000000000000000000000000000000000000000000000000000000000000000000000000000000000000000000000000000000000000000000000000000000000000000000000000000000000000000000000000000000000000000000000000000000000000000000000000000000000000000000000000000000000000000000000000000000000000000000000000000000000000000000006977460b0000000000000000000000000000000000000000000000000000000069774287",
          "blockHash": "0xec9692f9476f51145d7e96a124d0e2876ad3e0afe7dcf024a850885d3022e622",
          "blockNumber": "0x1870878",
          "transactionHash": "0x8b22ad2f6103eeeda75dafeada1928d9e0e6eaff096ea6d715705cf0c2fb407a",
          "transactionIndex": "0x2b",
          "logIndex": "0x18e",
          "removed": false
        }
      ],
      "logsBloom": "0x00000000000000000000000000000000000000000000000000000000400000000000000000000000000000000000000000000000000000000000000000000000000000000000000000000000000000000000000000000000000000000000000000000000000000000000000000000000400000000000000000000000000000000000000000000000000000100000000000000000000020000000000000000000000000000000000000000000000000000000000000000000000000000000000000000000000000000100000000000000000000000000000000000000000000000000000000000000000000000000000000000000000000000000000000000002",
      "type": "0x2",
      "transactionHash": "0x8b22ad2f6103eeeda75dafeada1928d9e0e6eaff096ea6d715705cf0c2fb407a",
      "transactionIndex": "0x2b",
      "blockHash": "0xec9692f9476f51145d7e96a124d0e2876ad3e0afe7dcf024a850885d3022e622",
      "blockNumber": "0x1870878",
      "gasUsed": "0x1f525",
      "effectiveGasPrice": "0x2067848b40f26",
      "from": "0xeca7a53ba6a190c5d205bfdc7707cbc3399336c1",
      "to": "0xf077d4d0508505c5a80249afc10bc6ead90e47f1",
      "contractAddress": null
    }
  ],
  "libraries": [],
  "pending": [],
  "returns": {},
  "timestamp": 1769423496043,
  "chain": 369,
  "commit": "953695a"
}