{
  "transactions": [
    {
      "hash": "0x0a86563ae13adfaee07d35fe8abfadd3151418b950c91ec30399e5b71fc233cb",
      "transactionType": "CALL",
      "contractName": null,
      "contractAddress": "0xf077d4d0508505c5a80249afc10bc6ead90e47f1",
      "function": "makeCrime(uint8)",
      "arguments": [
        "0"
      ],
      "transaction": {
        "from": "0x4c62f6121e6f967a0872da8364995e9b68c1e82f",
        "to": "0xf077d4d0508505c5a80249afc10bc6ead90e47f1",
        "gas": "0x53c96",
        "value": "0x0",
        "input": "0xc625abb40000000000000000000000000000000000000000000000000000000000000000",
        "nonce": "0x742",
        "chainId": "0x171"
      },
      "additionalContracts": [],
      "isFixedGasLimit": false
    }
  ],
  "receipts": [
    {
      "status": "0x1",
      "cumulativeGasUsed": "0x1e33329",
      "logs": [
        {
          "address": "0xdcd5e9c0b2b4e9cb93677a258521d854b3a9f5a1",
          "topics": [
            "0x0bff5315606c84d1cee047503678048ca39946be11bfdd5a8c03fe5e272d98e3"
          ],
          "data": "0x0000000000000000000000004c62f6121e6f967a0872da8364995e9b68c1e82f00000000000000000000000000000000000000000000000000000000697a5c3d0000000000000000000000000000000000000000000000000000000000000000",
          "blockHash": "0xe7fb141caddceea043c6442be3da184483c6f15afeba61eb2a42da24772efae4",
          "blockNumber": "0x187558f",
          "transactionHash": "0x0a86563ae13adfaee07d35fe8abfadd3151418b950c91ec30399e5b71fc233cb",
          "transactionIndex": "0x1b",
          "logIndex": "0x79d",
          "removed": false
        },
        {
          "address": "0xf077d4d0508505c5a80249afc10bc6ead90e47f1",
          "topics": [
            "0xe36ceebd3770780c5617d53efc7d77328074f1248146245ed3b854cbf651fb37"
          ],
          "data": "0x0000000000000000000000004c62f6121e6f967a0872da8364995e9b68c1e82f0000000000000000000000000000000000000000000000000000000000000000000000000000000000000000000000000000000000000000000000000000000000000000000000000000000000000000000000000000000000000000000000010000000000000000000000000000000000000000000000000000000000000000000000000000000000000000000000000000000000000000000000000000000000000000000000000000000000000000000000000000000000000000697a5a7b00000000000000000000000000000000000000000000000000000000697a56f7",
          "blockHash": "0xe7fb141caddceea043c6442be3da184483c6f15afeba61eb2a42da24772efae4",
          "blockNumber": "0x187558f",
          "transactionHash": "0x0a86563ae13adfaee07d35fe8abfadd3151418b950c91ec30399e5b71fc233cb",
          "transactionIndex": "0x1b",
          "logIndex": "0x79e",
          "removed": false
        }
      ],
      "logsBloom": "0x00000000000000000000000000000000010000000000000000000000400000000000000000000000000000000000000000000000000000000000000000000000000000000000000000000000000000000000000000000000001000000000000000000000000000000000000000000000400000000080000000000000000000000000000000000000000000100000000000000000000020000000000000000000000000000000000000000000000000000000000000000000400000000000000000000000000000000100000000000040000000000000000000000000000000000000000000000000000000000000000000000000000000000000000000001002",
      "type": "0x2",
      "transactionHash": "0x0a86563ae13adfaee07d35fe8abfadd3151418b950c91ec30399e5b71fc233cb",
      "transactionIndex": "0x1b",
      "blockHash": "0xe7fb141caddceea043c6442be3da184483c6f15afeba61eb2a42da24772efae4",
      "blockNumber": "0x187558f",
      "gasUsed": "0x2e370",
      "effectiveGasPrice": "0x3785689dda4ce",
      "from": "0x4c62f6121e6f967a0872da8364995e9b68c1e82f",
      "to": "0xf077d4d0508505c5a80249afc10bc6ead90e47f1",
      "contractAddress": null
    }
  ],
  "libraries": [],
  "pending": [],
  "returns": {},
  "timestamp": 1769625336324,
  "chain": 369,
  "commit": null
}