{
  "transactions": [
    {
      "hash": "0x5547d93e0222c678a8d8cc9279d3658eeb8be14de8d8fb76f4eb91a49fd302bc",
      "transactionType": "CALL",
      "contractName": null,
      "contractAddress": "0xf077d4d0508505c5a80249afc10bc6ead90e47f1",
      "function": "makeCrime(uint8)",
      "arguments": [
        "0"
      ],
      "transaction": {
        "from": "0xac56dc5a4a9de0197f7b8f584ea04ec7e0123dde",
        "to": "0xf077d4d0508505c5a80249afc10bc6ead90e47f1",
        "gas": "0x54352",
        "value": "0x0",
        "input": "0xc625abb40000000000000000000000000000000000000000000000000000000000000000",
        "nonce": "0x376",
        "chainId": "0x171"
      },
      "additionalContracts": [],
      "isFixedGasLimit": false
    }
  ],
  "receipts": [
    {
      "status": "0x1",
      "cumulativeGasUsed": "0x1f3b221",
      "logs": [
        {
          "address": "0x74eadd7ebeeed638fd7c413134fa3d3433699d92",
          "topics": [
            "0x570f308d592bed3a47a73125665ce3b81fe296da89acff1af6d926e08a0a9f12"
          ],
          "data": "0x000000000000000000000000ac56dc5a4a9de0197f7b8f584ea04ec7e0123dde00000000000000000000000000000000000000000000000000000000000385ab",
          "blockHash": "0x82de4e507be709d284134dd60bb1704e37a40121e78149b782b08611f210b829",
          "blockNumber": "0x187482f",
          "transactionHash": "0x5547d93e0222c678a8d8cc9279d3658eeb8be14de8d8fb76f4eb91a49fd302bc",
          "transactionIndex": "0x37",
          "logIndex": "0x53a",
          "removed": false
        },
        {
          "address": "0xf077d4d0508505c5a80249afc10bc6ead90e47f1",
          "topics": [
            "0xe36ceebd3770780c5617d53efc7d77328074f1248146245ed3b854cbf651fb37"
          ],
          "data": "0x000000000000000000000000ac56dc5a4a9de0197f7b8f584ea04ec7e0123dde0000000000000000000000000000000000000000000000000000000000000000000000000000000000000000000000000000000000000000000000000000000100000000000000000000000000000000000000000000000000000000000000000000000000000000000000000000000000000000000000167f482d3c5b1c00000000000000000000000000000000000000000000000000000000000000000064000000000000000000000000000000000000000000000000000000006979d1ff000000000000000000000000000000000000000000000000000000006979ce7b",
          "blockHash": "0x82de4e507be709d284134dd60bb1704e37a40121e78149b782b08611f210b829",
          "blockNumber": "0x187482f",
          "transactionHash": "0x5547d93e0222c678a8d8cc9279d3658eeb8be14de8d8fb76f4eb91a49fd302bc",
          "transactionIndex": "0x37",
          "logIndex": "0x53b",
          "removed": false
        }
      ],
      "logsBloom": "0x00000000000000000000000000000000004000000000000000000000400000000000000000000000000000000000000000000000000000000000000000000000000000000000000000008000000000000000000000000000000000000000000000000100000000000000000000000000400000000000000000000000000000000000000000000000000000100000000000000000000020000000000000000008000000000000000000000000000000000010000000000000000000000000000000000000000002000100000000000000000000000000000000000000000000000000000000000000000000000000000000000000000000000000000000000002",
      "type": "0x2",
      "transactionHash": "0x5547d93e0222c678a8d8cc9279d3658eeb8be14de8d8fb76f4eb91a49fd302bc",
      "transactionIndex": "0x37",
      "blockHash": "0x82de4e507be709d284134dd60bb1704e37a40121e78149b782b08611f210b829",
      "blockNumber": "0x187482f",
      "gasUsed": "0x3cf70",
      "effectiveGasPrice": "0x181fd5a7d24ab",
      "from": "0xac56dc5a4a9de0197f7b8f584ea04ec7e0123dde",
      "to": "0xf077d4d0508505c5a80249afc10bc6ead90e47f1",
      "contractAddress": null
    }
  ],
  "libraries": [],
  "pending": [],
  "returns": {},
  "timestamp": 1769590396832,
  "chain": 369,
  "commit": null
}