{
  "transactions": [
    {
      "hash": "0x7f3d9672f001a2f77d87b2c99248c441687172534a82892956fc4246aaa5df0d",
      "transactionType": "CALL",
      "contractName": null,
      "contractAddress": "0xf077d4d0508505c5a80249afc10bc6ead90e47f1",
      "function": "makeCrime(uint8)",
      "arguments": [
        "0"
      ],
      "transaction": {
        "from": "0xac56dc5a4a9de0197f7b8f584ea04ec7e0123dde",
        "to": "0xf077d4d0508505c5a80249afc10bc6ead90e47f1",
        "gas": "0x54352",
        "value": "0x0",
        "input": "0xc625abb40000000000000000000000000000000000000000000000000000000000000000",
        "nonce": "0x2bd",
        "chainId": "0x171"
      },
      "additionalContracts": [],
      "isFixedGasLimit": false
    }
  ],
  "receipts": [
    {
      "status": "0x1",
      "cumulativeGasUsed": "0x14781e3",
      "logs": [
        {
          "address": "0x74eadd7ebeeed638fd7c413134fa3d3433699d92",
          "topics": [
            "0x570f308d592bed3a47a73125665ce3b81fe296da89acff1af6d926e08a0a9f12"
          ],
          "data": "0x000000000000000000000000ac56dc5a4a9de0197f7b8f584ea04ec7e0123dde000000000000000000000000000000000000000000000000000000000003747b",
          "blockHash": "0xddc0f872e07cf59dcfe782a1c766f0c3ecf52b0ea3bca322c01e52fd208a8229",
          "blockNumber": "0x1870c22",
          "transactionHash": "0x7f3d9672f001a2f77d87b2c99248c441687172534a82892956fc4246aaa5df0d",
          "transactionIndex": "0x17",
          "logIndex": "0x30d",
          "removed": false
        },
        {
          "address": "0xf077d4d0508505c5a80249afc10bc6ead90e47f1",
          "topics": [
            "0xe36ceebd3770780c5617d53efc7d77328074f1248146245ed3b854cbf651fb37"
          ],
          "data": "0x000000000000000000000000ac56dc5a4a9de0197f7b8f584ea04ec7e0123dde0000000000000000000000000000000000000000000000000000000000000000000000000000000000000000000000000000000000000000000000000000000100000000000000000000000000000000000000000000000000000000000000000000000000000000000000000000000000000000000000162c03e5066ec4000000000000000000000000000000000000000000000000000000000000000000640000000000000000000000000000000000000000000000000000000069776bd1000000000000000000000000000000000000000000000000000000006977684d",
          "blockHash": "0xddc0f872e07cf59dcfe782a1c766f0c3ecf52b0ea3bca322c01e52fd208a8229",
          "blockNumber": "0x1870c22",
          "transactionHash": "0x7f3d9672f001a2f77d87b2c99248c441687172534a82892956fc4246aaa5df0d",
          "transactionIndex": "0x17",
          "logIndex": "0x30e",
          "removed": false
        }
      ],
      "logsBloom": "0x00000000000000000000000000000000004000000000000000000000400000000000000000000000000000000000000000000000000000000000000000000000000000000000000000008000000000000000000000000000000000000000000000000100000000000000000000000000400000000000000000000000000000000000000000000000000000100000000000000000000020000000000000000008000000000000000000000000000000000010000000000000000000000000000000000000000002000100000000000000000000000000000000000000000000000000000000000000000000000000000000000000000000000000000000000002",
      "type": "0x2",
      "transactionHash": "0x7f3d9672f001a2f77d87b2c99248c441687172534a82892956fc4246aaa5df0d",
      "transactionIndex": "0x17",
      "blockHash": "0xddc0f872e07cf59dcfe782a1c766f0c3ecf52b0ea3bca322c01e52fd208a8229",
      "blockNumber": "0x1870c22",
      "gasUsed": "0x3cf70",
      "effectiveGasPrice": "0x1bf6ee6eaafc4",
      "from": "0xac56dc5a4a9de0197f7b8f584ea04ec7e0123dde",
      "to": "0xf077d4d0508505c5a80249afc10bc6ead90e47f1",
      "contractAddress": null
    }
  ],
  "libraries": [],
  "pending": [],
  "returns": {},
  "timestamp": 1769433166974,
  "chain": 369,
  "commit": "953695a"
}