{
  "transactions": [
    {
      "hash": "0x99cf358aa48af6e7e12e22c84ee007c1f1f4a68ae48335f12c5d1e2c1c1c8a0d",
      "transactionType": "CALL",
      "contractName": null,
      "contractAddress": "0xf077d4d0508505c5a80249afc10bc6ead90e47f1",
      "function": "makeCrime(uint8)",
      "arguments": [
        "0"
      ],
      "transaction": {
        "from": "0x4c62f6121e6f967a0872da8364995e9b68c1e82f",
        "to": "0xf077d4d0508505c5a80249afc10bc6ead90e47f1",
        "gas": "0x3fd59",
        "value": "0x0",
        "input": "0xc625abb40000000000000000000000000000000000000000000000000000000000000000",
        "nonce": "0x732",
        "chainId": "0x171"
      },
      "additionalContracts": [],
      "isFixedGasLimit": false
    }
  ],
  "receipts": [
    {
      "status": "0x1",
      "cumulativeGasUsed": "0x1ba5edf",
      "logs": [
        {
          "address": "0xf077d4d0508505c5a80249afc10bc6ead90e47f1",
          "topics": [
            "0xe36ceebd3770780c5617d53efc7d77328074f1248146245ed3b854cbf651fb37"
          ],
          "data": "0x0000000000000000000000004c62f6121e6f967a0872da8364995e9b68c1e82f00000000000000000000000000000000000000000000000000000000000000000000000000000000000000000000000000000000000000000000000000000000000000000000000000000000000000000000000000000000000000000000000000000000000000000000000000000000000000000000000000000000000000000000000000000000000000000000000000000000000000000000000000000000000000000000000000000000000000000000000000000000000000006979ec3f000000000000000000000000000000000000000000000000000000006979e8bb",
          "blockHash": "0x490e423e969e29a082b10b78e925ab1f1874f1744d32b30c57d2b154d3d08604",
          "blockNumber": "0x1874ac1",
          "transactionHash": "0x99cf358aa48af6e7e12e22c84ee007c1f1f4a68ae48335f12c5d1e2c1c1c8a0d",
          "transactionIndex": "0x1d",
          "logIndex": "0x4c4",
          "removed": false
        }
      ],
      "logsBloom": "0x00000000000000000000000000000000000000000000000000000000400000000000000000000000000000000000000000000000000000000000000000000000000000000000000000000000000000000000000000000000000000000000000000000000000000000000000000000000400000000000000000000000000000000000000000000000000000100000000000000000000020000000000000000000000000000000000000000000000000000000000000000000000000000000000000000000000000000100000000000000000000000000000000000000000000000000000000000000000000000000000000000000000000000000000000000002",
      "type": "0x2",
      "transactionHash": "0x99cf358aa48af6e7e12e22c84ee007c1f1f4a68ae48335f12c5d1e2c1c1c8a0d",
      "transactionIndex": "0x1d",
      "blockHash": "0x490e423e969e29a082b10b78e925ab1f1874f1744d32b30c57d2b154d3d08604",
      "blockNumber": "0x1874ac1",
      "gasUsed": "0x1e865",
      "effectiveGasPrice": "0x1a4ef6b1b7505",
      "from": "0x4c62f6121e6f967a0872da8364995e9b68c1e82f",
      "to": "0xf077d4d0508505c5a80249afc10bc6ead90e47f1",
      "contractAddress": null
    }
  ],
  "libraries": [],
  "pending": [],
  "returns": {},
  "timestamp": 1769597115745,
  "chain": 369,
  "commit": null
}