{
  "transactions": [
    {
      "hash": "0x5c597e159b6d8758e822f4f5baa24eb1c2cadcd35756a8e03b9588e570626e0d",
      "transactionType": "CALL",
      "contractName": null,
      "contractAddress": "0xf077d4d0508505c5a80249afc10bc6ead90e47f1",
      "function": "makeCrime(uint8)",
      "arguments": [
        "0"
      ],
      "transaction": {
        "from": "0xac56dc5a4a9de0197f7b8f584ea04ec7e0123dde",
        "to": "0xf077d4d0508505c5a80249afc10bc6ead90e47f1",
        "gas": "0x2d083",
        "value": "0x0",
        "input": "0xc625abb40000000000000000000000000000000000000000000000000000000000000000",
        "nonce": "0x24a",
        "chainId": "0x171"
      },
      "additionalContracts": [],
      "isFixedGasLimit": false
    }
  ],
  "receipts": [
    {
      "status": "0x1",
      "cumulativeGasUsed": "0xd738e7",
      "logs": [
        {
          "address": "0xf077d4d0508505c5a80249afc10bc6ead90e47f1",
          "topics": [
            "0xe36ceebd3770780c5617d53efc7d77328074f1248146245ed3b854cbf651fb37"
          ],
          "data": "0x000000000000000000000000ac56dc5a4a9de0197f7b8f584ea04ec7e0123dde0000000000000000000000000000000000000000000000000000000000000000000000000000000000000000000000000000000000000000000000000000000000000000000000000000000000000000000000000000000000000000000000000000000000000000000000000000000000000000000000000000000000000000000000000000000000000000000000000000000000000000000000000000000000000000000000000000000000000000000000000000000000000000696d019100000000000000000000000000000000000000000000000000000000696cfe0d",
          "blockHash": "0x8e1123aa7b719756b67865f0aafbe08436b29a1e013303b24040d6655f66fda0",
          "blockNumber": "0x1860863",
          "transactionHash": "0x5c597e159b6d8758e822f4f5baa24eb1c2cadcd35756a8e03b9588e570626e0d",
          "transactionIndex": "0x39",
          "logIndex": "0x120",
          "removed": false
        }
      ],
      "logsBloom": "0x00000000000000000000000000000000000000000000000000000000400000000000000000000000000000000000000000000000000000000000000000000000000000000000000000000000000000000000000000000000000000000000000000000000000000000000000000000000400000000000000000000000000000000000000000000000000000100000000000000000000020000000000000000000000000000000000000000000000000000000000000000000000000000000000000000000000000000100000000000000000000000000000000000000000000000000000000000000000000000000000000000000000000000000000000000002",
      "type": "0x2",
      "transactionHash": "0x5c597e159b6d8758e822f4f5baa24eb1c2cadcd35756a8e03b9588e570626e0d",
      "transactionIndex": "0x39",
      "blockHash": "0x8e1123aa7b719756b67865f0aafbe08436b29a1e013303b24040d6655f66fda0",
      "blockNumber": "0x1860863",
      "gasUsed": "0x1eca9",
      "effectiveGasPrice": "0xeab25aa2699a",
      "from": "0xac56dc5a4a9de0197f7b8f584ea04ec7e0123dde",
      "to": "0xf077d4d0508505c5a80249afc10bc6ead90e47f1",
      "contractAddress": null
    }
  ],
  "libraries": [],
  "pending": [],
  "returns": {},
  "timestamp": 1768750607146,
  "chain": 369,
  "commit": "953695a"
}