{
  "transactions": [
    {
      "hash": "0xd6aec2866b31265e84a288295f1b6928b542f5e1193c33a101bada2e6718affe",
      "transactionType": "CALL",
      "contractName": null,
      "contractAddress": "0xf077d4d0508505c5a80249afc10bc6ead90e47f1",
      "function": "makeCrime(uint8)",
      "arguments": [
        "0"
      ],
      "transaction": {
        "from": "0xac56dc5a4a9de0197f7b8f584ea04ec7e0123dde",
        "to": "0xf077d4d0508505c5a80249afc10bc6ead90e47f1",
        "gas": "0x54352",
        "value": "0x0",
        "input": "0xc625abb40000000000000000000000000000000000000000000000000000000000000000",
        "nonce": "0x3a2",
        "chainId": "0x171"
      },
      "additionalContracts": [],
      "isFixedGasLimit": false
    }
  ],
  "receipts": [
    {
      "status": "0x1",
      "cumulativeGasUsed": "0x1ce06b1",
      "logs": [
        {
          "address": "0xf077d4d0508505c5a80249afc10bc6ead90e47f1",
          "topics": [
            "0xe36ceebd3770780c5617d53efc7d77328074f1248146245ed3b854cbf651fb37"
          ],
          "data": "0x000000000000000000000000ac56dc5a4a9de0197f7b8f584ea04ec7e0123dde0000000000000000000000000000000000000000000000000000000000000000000000000000000000000000000000000000000000000000000000000000000000000000000000000000000000000000000000000000000000000000000000000000000000000000000000000000000000000000000000000000000000000000000000000000000000000000000000000000000000000000000000000000000000000000000000000000000000000000000000000000000000000000697a69a300000000000000000000000000000000000000000000000000000000697a661f",
          "blockHash": "0x2280eb3c0d37d198f633771b96fd3b051add439b07f0d740fd16b21bbbad9d83",
          "blockNumber": "0x1875709",
          "transactionHash": "0xd6aec2866b31265e84a288295f1b6928b542f5e1193c33a101bada2e6718affe",
          "transactionIndex": "0x23",
          "logIndex": "0x578",
          "removed": false
        }
      ],
      "logsBloom": "0x00000000000000000000000000000000000000000000000000000000400000000000000000000000000000000000000000000000000000000000000000000000000000000000000000000000000000000000000000000000000000000000000000000000000000000000000000000000400000000000000000000000000000000000000000000000000000100000000000000000000020000000000000000000000000000000000000000000000000000000000000000000000000000000000000000000000000000100000000000000000000000000000000000000000000000000000000000000000000000000000000000000000000000000000000000002",
      "type": "0x2",
      "transactionHash": "0xd6aec2866b31265e84a288295f1b6928b542f5e1193c33a101bada2e6718affe",
      "transactionIndex": "0x23",
      "blockHash": "0x2280eb3c0d37d198f633771b96fd3b051add439b07f0d740fd16b21bbbad9d83",
      "blockNumber": "0x1875709",
      "gasUsed": "0x1eca9",
      "effectiveGasPrice": "0x324f91dfdf060",
      "from": "0xac56dc5a4a9de0197f7b8f584ea04ec7e0123dde",
      "to": "0xf077d4d0508505c5a80249afc10bc6ead90e47f1",
      "contractAddress": null
    }
  ],
  "libraries": [],
  "pending": [],
  "returns": {},
  "timestamp": 1769629217105,
  "chain": 369,
  "commit": null
}