{
  "transactions": [
    {
      "hash": "0xf7cf0a169b77cae76e82251d6caf3420991bed096dff9152a0aa58c445cc380a",
      "transactionType": "CALL",
      "contractName": null,
      "contractAddress": "0xf077d4d0508505c5a80249afc10bc6ead90e47f1",
      "function": "makeCrime(uint8)",
      "arguments": [
        "0"
      ],
      "transaction": {
        "from": "0xac56dc5a4a9de0197f7b8f584ea04ec7e0123dde",
        "to": "0xf077d4d0508505c5a80249afc10bc6ead90e47f1",
        "gas": "0x54352",
        "value": "0x0",
        "input": "0xc625abb40000000000000000000000000000000000000000000000000000000000000000",
        "nonce": "0x27c",
        "chainId": "0x171"
      },
      "additionalContracts": [],
      "isFixedGasLimit": false
    }
  ],
  "receipts": [
    {
      "status": "0x1",
      "cumulativeGasUsed": "0x129d982",
      "logs": [
        {
          "address": "0x74eadd7ebeeed638fd7c413134fa3d3433699d92",
          "topics": [
            "0x570f308d592bed3a47a73125665ce3b81fe296da89acff1af6d926e08a0a9f12"
          ],
          "data": "0x000000000000000000000000ac56dc5a4a9de0197f7b8f584ea04ec7e0123dde0000000000000000000000000000000000000000000000000000000000036cab",
          "blockHash": "0x591e49fc9ac068e95b60e2578f4d71dab540868b8ba1cc7d3613bd31adeac032",
          "blockNumber": "0x1866707",
          "transactionHash": "0xf7cf0a169b77cae76e82251d6caf3420991bed096dff9152a0aa58c445cc380a",
          "transactionIndex": "0x18",
          "logIndex": "0x17b",
          "removed": false
        },
        {
          "address": "0xf077d4d0508505c5a80249afc10bc6ead90e47f1",
          "topics": [
            "0xe36ceebd3770780c5617d53efc7d77328074f1248146245ed3b854cbf651fb37"
          ],
          "data": "0x000000000000000000000000ac56dc5a4a9de0197f7b8f584ea04ec7e0123dde000000000000000000000000000000000000000000000000000000000000000000000000000000000000000000000000000000000000000000000000000000010000000000000000000000000000000000000000000000000000000000000000000000000000000000000000000000000000000000000019274b259f654000000000000000000000000000000000000000000000000000000000000000000064000000000000000000000000000000000000000000000000000000006970caf1000000000000000000000000000000000000000000000000000000006970c76d",
          "blockHash": "0x591e49fc9ac068e95b60e2578f4d71dab540868b8ba1cc7d3613bd31adeac032",
          "blockNumber": "0x1866707",
          "transactionHash": "0xf7cf0a169b77cae76e82251d6caf3420991bed096dff9152a0aa58c445cc380a",
          "transactionIndex": "0x18",
          "logIndex": "0x17c",
          "removed": false
        }
      ],
      "logsBloom": "0x00000000000000000000000000000000004000000000000000000000400000000000000000000000000000000000000000000000000000000000000000000000000000000000000000008000000000000000000000000000000000000000000000000100000000000000000000000000400000000000000000000000000000000000000000000000000000100000000000000000000020000000000000000008000000000000000000000000000000000010000000000000000000000000000000000000000002000100000000000000000000000000000000000000000000000000000000000000000000000000000000000000000000000000000000000002",
      "type": "0x2",
      "transactionHash": "0xf7cf0a169b77cae76e82251d6caf3420991bed096dff9152a0aa58c445cc380a",
      "transactionIndex": "0x18",
      "blockHash": "0x591e49fc9ac068e95b60e2578f4d71dab540868b8ba1cc7d3613bd31adeac032",
      "blockNumber": "0x1866707",
      "gasUsed": "0x3cf70",
      "effectiveGasPrice": "0xc7f6e52a81f5",
      "from": "0xac56dc5a4a9de0197f7b8f584ea04ec7e0123dde",
      "to": "0xf077d4d0508505c5a80249afc10bc6ead90e47f1",
      "contractAddress": null
    }
  ],
  "libraries": [],
  "pending": [],
  "returns": {},
  "timestamp": 1768998765750,
  "chain": 369,
  "commit": "953695a"
}