{
  "transactions": [
    {
      "hash": "0x0bd51e51a547f2f7d43e91f80cb99c769dec3c866b94427e458f2acfbaeeae87",
      "transactionType": "CALL",
      "contractName": null,
      "contractAddress": "0xf077d4d0508505c5a80249afc10bc6ead90e47f1",
      "function": "makeCrime(uint8)",
      "arguments": [
        "0"
      ],
      "transaction": {
        "from": "0xac56dc5a4a9de0197f7b8f584ea04ec7e0123dde",
        "to": "0xf077d4d0508505c5a80249afc10bc6ead90e47f1",
        "gas": "0x54352",
        "value": "0x0",
        "input": "0xc625abb40000000000000000000000000000000000000000000000000000000000000000",
        "nonce": "0x25a",
        "chainId": "0x171"
      },
      "additionalContracts": [],
      "isFixedGasLimit": false
    }
  ],
  "receipts": [
    {
      "status": "0x1",
      "cumulativeGasUsed": "0x9155c2",
      "logs": [
        {
          "address": "0x74eadd7ebeeed638fd7c413134fa3d3433699d92",
          "topics": [
            "0x570f308d592bed3a47a73125665ce3b81fe296da89acff1af6d926e08a0a9f12"
          ],
          "data": "0x000000000000000000000000ac56dc5a4a9de0197f7b8f584ea04ec7e0123dde00000000000000000000000000000000000000000000000000000000000368c3",
          "blockHash": "0x892b64096662b3feb0da9525a508fa2821829803f2a9a1083d1dccadc6492bb1",
          "blockNumber": "0x1860caf",
          "transactionHash": "0x0bd51e51a547f2f7d43e91f80cb99c769dec3c866b94427e458f2acfbaeeae87",
          "transactionIndex": "0x2e",
          "logIndex": "0xa8",
          "removed": false
        },
        {
          "address": "0xf077d4d0508505c5a80249afc10bc6ead90e47f1",
          "topics": [
            "0xe36ceebd3770780c5617d53efc7d77328074f1248146245ed3b854cbf651fb37"
          ],
          "data": "0x000000000000000000000000ac56dc5a4a9de0197f7b8f584ea04ec7e0123dde000000000000000000000000000000000000000000000000000000000000000000000000000000000000000000000000000000000000000000000000000000010000000000000000000000000000000000000000000000000000000000000000000000000000000000000000000000000000000000000010a47b1971bcec0000000000000000000000000000000000000000000000000000000000000000006400000000000000000000000000000000000000000000000000000000696d2d6500000000000000000000000000000000000000000000000000000000696d29e1",
          "blockHash": "0x892b64096662b3feb0da9525a508fa2821829803f2a9a1083d1dccadc6492bb1",
          "blockNumber": "0x1860caf",
          "transactionHash": "0x0bd51e51a547f2f7d43e91f80cb99c769dec3c866b94427e458f2acfbaeeae87",
          "transactionIndex": "0x2e",
          "logIndex": "0xa9",
          "removed": false
        }
      ],
      "logsBloom": "0x00000000000000000000000000000000004000000000000000000000400000000000000000000000000000000000000000000000000000000000000000000000000000000000000000008000000000000000000000000000000000000000000000000100000000000000000000000000400000000000000000000000000000000000000000000000000000100000000000000000000020000000000000000008000000000000000000000000000000000010000000000000000000000000000000000000000002000100000000000000000000000000000000000000000000000000000000000000000000000000000000000000000000000000000000000002",
      "type": "0x2",
      "transactionHash": "0x0bd51e51a547f2f7d43e91f80cb99c769dec3c866b94427e458f2acfbaeeae87",
      "transactionIndex": "0x2e",
      "blockHash": "0x892b64096662b3feb0da9525a508fa2821829803f2a9a1083d1dccadc6492bb1",
      "blockNumber": "0x1860caf",
      "gasUsed": "0x3cf70",
      "effectiveGasPrice": "0xf1c5615711cb",
      "from": "0xac56dc5a4a9de0197f7b8f584ea04ec7e0123dde",
      "to": "0xf077d4d0508505c5a80249afc10bc6ead90e47f1",
      "contractAddress": null
    }
  ],
  "libraries": [],
  "pending": [],
  "returns": {},
  "timestamp": 1768761825479,
  "chain": 369,
  "commit": "953695a"
}