{
  "transactions": [
    {
      "hash": "0xdd5675a5815267ce9d4c21f036cccbe7bbbeb3f543ad8bedabd56159d75fbbf4",
      "transactionType": "CALL",
      "contractName": null,
      "contractAddress": "0xf077d4d0508505c5a80249afc10bc6ead90e47f1",
      "function": "makeCrime(uint8)",
      "arguments": [
        "0"
      ],
      "transaction": {
        "from": "0xac56dc5a4a9de0197f7b8f584ea04ec7e0123dde",
        "to": "0xf077d4d0508505c5a80249afc10bc6ead90e47f1",
        "gas": "0x54352",
        "value": "0x0",
        "input": "0xc625abb40000000000000000000000000000000000000000000000000000000000000000",
        "nonce": "0x373",
        "chainId": "0x171"
      },
      "additionalContracts": [],
      "isFixedGasLimit": false
    }
  ],
  "receipts": [
    {
      "status": "0x1",
      "cumulativeGasUsed": "0x117569c",
      "logs": [
        {
          "address": "0xdcd5e9c0b2b4e9cb93677a258521d854b3a9f5a1",
          "topics": [
            "0x0bff5315606c84d1cee047503678048ca39946be11bfdd5a8c03fe5e272d98e3"
          ],
          "data": "0x000000000000000000000000ac56dc5a4a9de0197f7b8f584ea04ec7e0123dde000000000000000000000000000000000000000000000000000000006979c8630000000000000000000000000000000000000000000000000000000000000000",
          "blockHash": "0xfdecd35341772cd2d031f6d7f644650bd7d1e4b65fb59a67beb2b5bdd3c4d4af",
          "blockNumber": "0x1874714",
          "transactionHash": "0xdd5675a5815267ce9d4c21f036cccbe7bbbeb3f543ad8bedabd56159d75fbbf4",
          "transactionIndex": "0x3e",
          "logIndex": "0x16c",
          "removed": false
        },
        {
          "address": "0xf077d4d0508505c5a80249afc10bc6ead90e47f1",
          "topics": [
            "0xe36ceebd3770780c5617d53efc7d77328074f1248146245ed3b854cbf651fb37"
          ],
          "data": "0x000000000000000000000000ac56dc5a4a9de0197f7b8f584ea04ec7e0123dde00000000000000000000000000000000000000000000000000000000000000000000000000000000000000000000000000000000000000000000000000000000000000000000000000000000000000000000000000000000000000000000000100000000000000000000000000000000000000000000000000000000000000000000000000000000000000000000000000000000000000000000000000000000000000000000000000000000000000000000000000000000000000006979c6a1000000000000000000000000000000000000000000000000000000006979c31d",
          "blockHash": "0xfdecd35341772cd2d031f6d7f644650bd7d1e4b65fb59a67beb2b5bdd3c4d4af",
          "blockNumber": "0x1874714",
          "transactionHash": "0xdd5675a5815267ce9d4c21f036cccbe7bbbeb3f543ad8bedabd56159d75fbbf4",
          "transactionIndex": "0x3e",
          "logIndex": "0x16d",
          "removed": false
        }
      ],
      "logsBloom": "0x00000000000000000000000000000000010000000000000000000000400000000000000000000000000000000000000000000000000000000000000000000000000000000000000000000000000000000000000000000000001000000000000000000000000000000000000000000000400000000080000000000000000000000000000000000000000000100000000000000000000020000000000000000000000000000000000000000000000000000000000000000000400000000000000000000000000000000100000000000040000000000000000000000000000000000000000000000000000000000000000000000000000000000000000000001002",
      "type": "0x2",
      "transactionHash": "0xdd5675a5815267ce9d4c21f036cccbe7bbbeb3f543ad8bedabd56159d75fbbf4",
      "transactionIndex": "0x3e",
      "blockHash": "0xfdecd35341772cd2d031f6d7f644650bd7d1e4b65fb59a67beb2b5bdd3c4d4af",
      "blockNumber": "0x1874714",
      "gasUsed": "0x2e7b4",
      "effectiveGasPrice": "0x2686bbdf128cd",
      "from": "0xac56dc5a4a9de0197f7b8f584ea04ec7e0123dde",
      "to": "0xf077d4d0508505c5a80249afc10bc6ead90e47f1",
      "contractAddress": null
    }
  ],
  "libraries": [],
  "pending": [],
  "returns": {},
  "timestamp": 1769587487165,
  "chain": 369,
  "commit": null
}