{
  "transactions": [
    {
      "hash": "0xe5dfb9364e6d45ec3cb7bd53d0e7cfb22c11a26676fe6224728caf58594e2fc9",
      "transactionType": "CALL",
      "contractName": null,
      "contractAddress": "0xf077d4d0508505c5a80249afc10bc6ead90e47f1",
      "function": "makeCrime(uint8)",
      "arguments": [
        "0"
      ],
      "transaction": {
        "from": "0xeca7a53ba6a190c5d205bfdc7707cbc3399336c1",
        "to": "0xf077d4d0508505c5a80249afc10bc6ead90e47f1",
        "gas": "0x2b434",
        "value": "0x0",
        "input": "0xc625abb40000000000000000000000000000000000000000000000000000000000000000",
        "nonce": "0x590",
        "chainId": "0x171"
      },
      "additionalContracts": [],
      "isFixedGasLimit": false
    }
  ],
  "receipts": [
    {
      "status": "0x1",
      "cumulativeGasUsed": "0xa063d3",
      "logs": [
        {
          "address": "0xf077d4d0508505c5a80249afc10bc6ead90e47f1",
          "topics": [
            "0xe36ceebd3770780c5617d53efc7d77328074f1248146245ed3b854cbf651fb37"
          ],
          "data": "0x000000000000000000000000eca7a53ba6a190c5d205bfdc7707cbc3399336c10000000000000000000000000000000000000000000000000000000000000000000000000000000000000000000000000000000000000000000000000000000000000000000000000000000000000000000000000000000000000000000000000000000000000000000000000000000000000000000000000000000000000000000000000000000000000000000000000000000000000000000000000000000000000000000000000000000000000000000000000000000000000000698828b3000000000000000000000000000000000000000000000000000000006988252f",
          "blockHash": "0x1a170bff5c867b9293d7977812a7ba220323598496b19f48df9509d2ad57f643",
          "blockNumber": "0x188ae1d",
          "transactionHash": "0xe5dfb9364e6d45ec3cb7bd53d0e7cfb22c11a26676fe6224728caf58594e2fc9",
          "transactionIndex": "0x1b",
          "logIndex": "0x68",
          "removed": false
        }
      ],
      "logsBloom": "0x00000000000000000000000000000000000000000000000000000000400000000000000000000000000000000000000000000000000000000000000000000000000000000000000000000000000000000000000000000000000000000000000000000000000000000000000000000000400000000000000000000000000000000000000000000000000000100000000000000000000020000000000000000000000000000000000000000000000000000000000000000000000000000000000000000000000000000100000000000000000000000000000000000000000000000000000000000000000000000000000000000000000000000000000000000002",
      "type": "0x2",
      "transactionHash": "0xe5dfb9364e6d45ec3cb7bd53d0e7cfb22c11a26676fe6224728caf58594e2fc9",
      "transactionIndex": "0x1b",
      "blockHash": "0x1a170bff5c867b9293d7977812a7ba220323598496b19f48df9509d2ad57f643",
      "blockNumber": "0x188ae1d",
      "gasUsed": "0x1f525",
      "effectiveGasPrice": "0x2d08c8640503a",
      "from": "0xeca7a53ba6a190c5d205bfdc7707cbc3399336c1",
      "to": "0xf077d4d0508505c5a80249afc10bc6ead90e47f1",
      "contractAddress": null
    }
  ],
  "libraries": [],
  "pending": [],
  "returns": {},
  "timestamp": 1770530096562,
  "chain": 369,
  "commit": null
}