{
  "transactions": [
    {
      "hash": "0xbcf1ebddc53a082da79c2c990bf3b7505bc8b4c2fd2c740d816c60a314de121f",
      "transactionType": "CALL",
      "contractName": null,
      "contractAddress": "0xf077d4d0508505c5a80249afc10bc6ead90e47f1",
      "function": "makeCrime(uint8)",
      "arguments": [
        "0"
      ],
      "transaction": {
        "from": "0xeca7a53ba6a190c5d205bfdc7707cbc3399336c1",
        "to": "0xf077d4d0508505c5a80249afc10bc6ead90e47f1",
        "gas": "0x54ec2",
        "value": "0x0",
        "input": "0xc625abb40000000000000000000000000000000000000000000000000000000000000000",
        "nonce": "0x3d6",
        "chainId": "0x171"
      },
      "additionalContracts": [],
      "isFixedGasLimit": false
    }
  ],
  "receipts": [
    {
      "status": "0x1",
      "cumulativeGasUsed": "0x1e99c65",
      "logs": [
        {
          "address": "0xf077d4d0508505c5a80249afc10bc6ead90e47f1",
          "topics": [
            "0xe36ceebd3770780c5617d53efc7d77328074f1248146245ed3b854cbf651fb37"
          ],
          "data": "0x000000000000000000000000eca7a53ba6a190c5d205bfdc7707cbc3399336c10000000000000000000000000000000000000000000000000000000000000000000000000000000000000000000000000000000000000000000000000000000000000000000000000000000000000000000000000000000000000000000000000000000000000000000000000000000000000000000000000000000000000000000000000000000000000000000000000000000000000000000000000000000000000000000000000000000000000000000000000000000000000000697a926b00000000000000000000000000000000000000000000000000000000697a8ee7",
          "blockHash": "0x6943c9e2da508f582776b6e872a5fb62946ab21975213bee52ffc43c983b48a2",
          "blockNumber": "0x1875b04",
          "transactionHash": "0xbcf1ebddc53a082da79c2c990bf3b7505bc8b4c2fd2c740d816c60a314de121f",
          "transactionIndex": "0x67",
          "logIndex": "0x411",
          "removed": false
        }
      ],
      "logsBloom": "0x00000000000000000000000000000000000000000000000000000000400000000000000000000000000000000000000000000000000000000000000000000000000000000000000000000000000000000000000000000000000000000000000000000000000000000000000000000000400000000000000000000000000000000000000000000000000000100000000000000000000020000000000000000000000000000000000000000000000000000000000000000000000000000000000000000000000000000100000000000000000000000000000000000000000000000000000000000000000000000000000000000000000000000000000000000002",
      "type": "0x2",
      "transactionHash": "0xbcf1ebddc53a082da79c2c990bf3b7505bc8b4c2fd2c740d816c60a314de121f",
      "transactionIndex": "0x67",
      "blockHash": "0x6943c9e2da508f582776b6e872a5fb62946ab21975213bee52ffc43c983b48a2",
      "blockNumber": "0x1875b04",
      "gasUsed": "0x1f525",
      "effectiveGasPrice": "0x20b3a63802a5f",
      "from": "0xeca7a53ba6a190c5d205bfdc7707cbc3399336c1",
      "to": "0xf077d4d0508505c5a80249afc10bc6ead90e47f1",
      "contractAddress": null
    }
  ],
  "libraries": [],
  "pending": [],
  "returns": {},
  "timestamp": 1769639657308,
  "chain": 369,
  "commit": null
}