{
  "transactions": [
    {
      "hash": "0x5a4286c9af165a32b1d14316bcf1662ceff88de900b3ef23e9fd97af9d353c76",
      "transactionType": "CALL",
      "contractName": null,
      "contractAddress": "0xf077d4d0508505c5a80249afc10bc6ead90e47f1",
      "function": "makeCrime(uint8)",
      "arguments": [
        "0"
      ],
      "transaction": {
        "from": "0x4c62f6121e6f967a0872da8364995e9b68c1e82f",
        "to": "0xf077d4d0508505c5a80249afc10bc6ead90e47f1",
        "gas": "0x3fd59",
        "value": "0x0",
        "input": "0xc625abb40000000000000000000000000000000000000000000000000000000000000000",
        "nonce": "0x746",
        "chainId": "0x171"
      },
      "additionalContracts": [],
      "isFixedGasLimit": false
    }
  ],
  "receipts": [
    {
      "status": "0x1",
      "cumulativeGasUsed": "0x1cf6eeb",
      "logs": [
        {
          "address": "0x74eadd7ebeeed638fd7c413134fa3d3433699d92",
          "topics": [
            "0x570f308d592bed3a47a73125665ce3b81fe296da89acff1af6d926e08a0a9f12"
          ],
          "data": "0x0000000000000000000000004c62f6121e6f967a0872da8364995e9b68c1e82f0000000000000000000000000000000000000000000000000000000000000320",
          "blockHash": "0x45427e6df971bf230e3bd171bfe423d610140e7727a456f91a3d29db403cf895",
          "blockNumber": "0x18756f0",
          "transactionHash": "0x5a4286c9af165a32b1d14316bcf1662ceff88de900b3ef23e9fd97af9d353c76",
          "transactionIndex": "0x2a",
          "logIndex": "0x56d",
          "removed": false
        },
        {
          "address": "0xf077d4d0508505c5a80249afc10bc6ead90e47f1",
          "topics": [
            "0xe36ceebd3770780c5617d53efc7d77328074f1248146245ed3b854cbf651fb37"
          ],
          "data": "0x0000000000000000000000004c62f6121e6f967a0872da8364995e9b68c1e82f0000000000000000000000000000000000000000000000000000000000000000000000000000000000000000000000000000000000000000000000000000000100000000000000000000000000000000000000000000000000000000000000000000000000000000000000000000000000000000000000176b344f2a78c00000000000000000000000000000000000000000000000000000000000000000006400000000000000000000000000000000000000000000000000000000697a68a900000000000000000000000000000000000000000000000000000000697a6525",
          "blockHash": "0x45427e6df971bf230e3bd171bfe423d610140e7727a456f91a3d29db403cf895",
          "blockNumber": "0x18756f0",
          "transactionHash": "0x5a4286c9af165a32b1d14316bcf1662ceff88de900b3ef23e9fd97af9d353c76",
          "transactionIndex": "0x2a",
          "logIndex": "0x56e",
          "removed": false
        }
      ],
      "logsBloom": "0x00000000000000000000000000000000004000000000000000000000400000000000000000000000000000000000000000000000000000000000000000000000000000000000000000008000000000000000000000000000000000000000000000000100000000000000000000000000400000000000000000000000000000000000000000000000000000100000000000000000000020000000000000000008000000000000000000000000000000000010000000000000000000000000000000000000000002000100000000000000000000000000000000000000000000000000000000000000000000000000000000000000000000000000000000000002",
      "type": "0x2",
      "transactionHash": "0x5a4286c9af165a32b1d14316bcf1662ceff88de900b3ef23e9fd97af9d353c76",
      "transactionIndex": "0x2a",
      "blockHash": "0x45427e6df971bf230e3bd171bfe423d610140e7727a456f91a3d29db403cf895",
      "blockNumber": "0x18756f0",
      "gasUsed": "0x3ca90",
      "effectiveGasPrice": "0x33b3382287b63",
      "from": "0x4c62f6121e6f967a0872da8364995e9b68c1e82f",
      "to": "0xf077d4d0508505c5a80249afc10bc6ead90e47f1",
      "contractAddress": null
    }
  ],
  "libraries": [],
  "pending": [],
  "returns": {},
  "timestamp": 1769628966325,
  "chain": 369,
  "commit": null
}