{
  "transactions": [
    {
      "hash": "0xf6cdf589534e09edb148e47a23e30ffeeb9aaf130d32aad33e59858cae0660d5",
      "transactionType": "CALL",
      "contractName": null,
      "contractAddress": "0xf077d4d0508505c5a80249afc10bc6ead90e47f1",
      "function": "makeCrime(uint8)",
      "arguments": [
        "0"
      ],
      "transaction": {
        "from": "0xac56dc5a4a9de0197f7b8f584ea04ec7e0123dde",
        "to": "0xf077d4d0508505c5a80249afc10bc6ead90e47f1",
        "gas": "0x44caf",
        "value": "0x0",
        "input": "0xc625abb40000000000000000000000000000000000000000000000000000000000000000",
        "nonce": "0x3dd",
        "chainId": "0x171"
      },
      "additionalContracts": [],
      "isFixedGasLimit": false
    }
  ],
  "receipts": [
    {
      "status": "0x1",
      "cumulativeGasUsed": "0xcbbe2b",
      "logs": [
        {
          "address": "0x74eadd7ebeeed638fd7c413134fa3d3433699d92",
          "topics": [
            "0x570f308d592bed3a47a73125665ce3b81fe296da89acff1af6d926e08a0a9f12"
          ],
          "data": "0x000000000000000000000000ac56dc5a4a9de0197f7b8f584ea04ec7e0123dde00000000000000000000000000000000000000000000000000000000000391c7",
          "blockHash": "0x36e19cf3a33e3609e8fa497bc9506e8101eb9d95f5cdfe2e4eee9b0a39d9afae",
          "blockNumber": "0x1876981",
          "transactionHash": "0xf6cdf589534e09edb148e47a23e30ffeeb9aaf130d32aad33e59858cae0660d5",
          "transactionIndex": "0x14",
          "logIndex": "0x294",
          "removed": false
        },
        {
          "address": "0xf077d4d0508505c5a80249afc10bc6ead90e47f1",
          "topics": [
            "0xe36ceebd3770780c5617d53efc7d77328074f1248146245ed3b854cbf651fb37"
          ],
          "data": "0x000000000000000000000000ac56dc5a4a9de0197f7b8f584ea04ec7e0123dde00000000000000000000000000000000000000000000000000000000000000000000000000000000000000000000000000000000000000000000000000000001000000000000000000000000000000000000000000000000000000000000000000000000000000000000000000000000000000000000000e4fbc69449f200000000000000000000000000000000000000000000000000000000000000000006400000000000000000000000000000000000000000000000000000000697b270300000000000000000000000000000000000000000000000000000000697b237f",
          "blockHash": "0x36e19cf3a33e3609e8fa497bc9506e8101eb9d95f5cdfe2e4eee9b0a39d9afae",
          "blockNumber": "0x1876981",
          "transactionHash": "0xf6cdf589534e09edb148e47a23e30ffeeb9aaf130d32aad33e59858cae0660d5",
          "transactionIndex": "0x14",
          "logIndex": "0x295",
          "removed": false
        }
      ],
      "logsBloom": "0x00000000000000000000000000000000004000000000000000000000400000000000000000000000000000000000000000000000000000000000000000000000000000000000000000008000000000000000000000000000000000000000000000000100000000000000000000000000400000000000000000000000000000000000000000000000000000100000000000000000000020000000000000000008000000000000000000000000000000000010000000000000000000000000000000000000000002000100000000000000000000000000000000000000000000000000000000000000000000000000000000000000000000000000000000000002",
      "type": "0x2",
      "transactionHash": "0xf6cdf589534e09edb148e47a23e30ffeeb9aaf130d32aad33e59858cae0660d5",
      "transactionIndex": "0x14",
      "blockHash": "0x36e19cf3a33e3609e8fa497bc9506e8101eb9d95f5cdfe2e4eee9b0a39d9afae",
      "blockNumber": "0x1876981",
      "gasUsed": "0x3da85",
      "effectiveGasPrice": "0x1f8c9fd569321",
      "from": "0xac56dc5a4a9de0197f7b8f584ea04ec7e0123dde",
      "to": "0xf077d4d0508505c5a80249afc10bc6ead90e47f1",
      "contractAddress": null
    }
  ],
  "libraries": [],
  "pending": [],
  "returns": {},
  "timestamp": 1769677696367,
  "chain": 369,
  "commit": null
}