{
  "transactions": [
    {
      "hash": "0x71cb41e07271d56915866d5e1e70844d6e1e1f8e7ad5b30b9dd3cbc77d8de45f",
      "transactionType": "CALL",
      "contractName": null,
      "contractAddress": "0xf077d4d0508505c5a80249afc10bc6ead90e47f1",
      "function": "makeCrime(uint8)",
      "arguments": [
        "0"
      ],
      "transaction": {
        "from": "0xac56dc5a4a9de0197f7b8f584ea04ec7e0123dde",
        "to": "0xf077d4d0508505c5a80249afc10bc6ead90e47f1",
        "gas": "0x3f872",
        "value": "0x0",
        "input": "0xc625abb40000000000000000000000000000000000000000000000000000000000000000",
        "nonce": "0x273",
        "chainId": "0x171"
      },
      "additionalContracts": [],
      "isFixedGasLimit": false
    }
  ],
  "receipts": [
    {
      "status": "0x1",
      "cumulativeGasUsed": "0x12031a3",
      "logs": [
        {
          "address": "0xf077d4d0508505c5a80249afc10bc6ead90e47f1",
          "topics": [
            "0xe36ceebd3770780c5617d53efc7d77328074f1248146245ed3b854cbf651fb37"
          ],
          "data": "0x000000000000000000000000ac56dc5a4a9de0197f7b8f584ea04ec7e0123dde00000000000000000000000000000000000000000000000000000000000000000000000000000000000000000000000000000000000000000000000000000000000000000000000000000000000000000000000000000000000000000000000000000000000000000000000000000000000000000000000000000000000000000000000000000000000000000000000000000000000000000000000000000000000000000000000000000000000000000000000000000000000000006970b7ff000000000000000000000000000000000000000000000000000000006970b47b",
          "blockHash": "0xdf91dff4be317c196310e67d9a0966fd142b9f742695bd29d515838c5f088b84",
          "blockNumber": "0x1866534",
          "transactionHash": "0x71cb41e07271d56915866d5e1e70844d6e1e1f8e7ad5b30b9dd3cbc77d8de45f",
          "transactionIndex": "0x68",
          "logIndex": "0x226",
          "removed": false
        }
      ],
      "logsBloom": "0x00000000000000000000000000000000000000000000000000000000400000000000000000000000000000000000000000000000000000000000000000000000000000000000000000000000000000000000000000000000000000000000000000000000000000000000000000000000400000000000000000000000000000000000000000000000000000100000000000000000000020000000000000000000000000000000000000000000000000000000000000000000000000000000000000000000000000000100000000000000000000000000000000000000000000000000000000000000000000000000000000000000000000000000000000000002",
      "type": "0x2",
      "transactionHash": "0x71cb41e07271d56915866d5e1e70844d6e1e1f8e7ad5b30b9dd3cbc77d8de45f",
      "transactionIndex": "0x68",
      "blockHash": "0xdf91dff4be317c196310e67d9a0966fd142b9f742695bd29d515838c5f088b84",
      "blockNumber": "0x1866534",
      "gasUsed": "0x1eca9",
      "effectiveGasPrice": "0x14b8e8f8fbb2e",
      "from": "0xac56dc5a4a9de0197f7b8f584ea04ec7e0123dde",
      "to": "0xf077d4d0508505c5a80249afc10bc6ead90e47f1",
      "contractAddress": null
    }
  ],
  "libraries": [],
  "pending": [],
  "returns": {},
  "timestamp": 1768993916122,
  "chain": 369,
  "commit": "953695a"
}