{
  "transactions": [
    {
      "hash": "0xd5b65876e5fad30d87a2a1a4164aa0fa66fdc3f6a36a2262095fdca06811e3f9",
      "transactionType": "CALL",
      "contractName": null,
      "contractAddress": "0xf077d4d0508505c5a80249afc10bc6ead90e47f1",
      "function": "makeCrime(uint8)",
      "arguments": [
        "0"
      ],
      "transaction": {
        "from": "0xac56dc5a4a9de0197f7b8f584ea04ec7e0123dde",
        "to": "0xf077d4d0508505c5a80249afc10bc6ead90e47f1",
        "gas": "0x54352",
        "value": "0x0",
        "input": "0xc625abb40000000000000000000000000000000000000000000000000000000000000000",
        "nonce": "0x264",
        "chainId": "0x171"
      },
      "additionalContracts": [],
      "isFixedGasLimit": false
    }
  ],
  "receipts": [
    {
      "status": "0x1",
      "cumulativeGasUsed": "0x1ec13c4",
      "logs": [
        {
          "address": "0xdcd5e9c0b2b4e9cb93677a258521d854b3a9f5a1",
          "topics": [
            "0x0bff5315606c84d1cee047503678048ca39946be11bfdd5a8c03fe5e272d98e3"
          ],
          "data": "0x000000000000000000000000ac56dc5a4a9de0197f7b8f584ea04ec7e0123dde00000000000000000000000000000000000000000000000000000000696e30430000000000000000000000000000000000000000000000000000000000000000",
          "blockHash": "0xc37fea5d0125f46342ae07d3f2dcd308c60412396822c151df815e5df6a6b551",
          "blockNumber": "0x18625cf",
          "transactionHash": "0xd5b65876e5fad30d87a2a1a4164aa0fa66fdc3f6a36a2262095fdca06811e3f9",
          "transactionIndex": "0x75",
          "logIndex": "0x2d4",
          "removed": false
        },
        {
          "address": "0xf077d4d0508505c5a80249afc10bc6ead90e47f1",
          "topics": [
            "0xe36ceebd3770780c5617d53efc7d77328074f1248146245ed3b854cbf651fb37"
          ],
          "data": "0x000000000000000000000000ac56dc5a4a9de0197f7b8f584ea04ec7e0123dde0000000000000000000000000000000000000000000000000000000000000000000000000000000000000000000000000000000000000000000000000000000000000000000000000000000000000000000000000000000000000000000000010000000000000000000000000000000000000000000000000000000000000000000000000000000000000000000000000000000000000000000000000000000000000000000000000000000000000000000000000000000000000000696e2e8100000000000000000000000000000000000000000000000000000000696e2afd",
          "blockHash": "0xc37fea5d0125f46342ae07d3f2dcd308c60412396822c151df815e5df6a6b551",
          "blockNumber": "0x18625cf",
          "transactionHash": "0xd5b65876e5fad30d87a2a1a4164aa0fa66fdc3f6a36a2262095fdca06811e3f9",
          "transactionIndex": "0x75",
          "logIndex": "0x2d5",
          "removed": false
        }
      ],
      "logsBloom": "0x00000000000000000000000000000000010000000000000000000000400000000000000000000000000000000000000000000000000000000000000000000000000000000000000000000000000000000000000000000000001000000000000000000000000000000000000000000000400000000080000000000000000000000000000000000000000000100000000000000000000020000000000000000000000000000000000000000000000000000000000000000000400000000000000000000000000000000100000000000040000000000000000000000000000000000000000000000000000000000000000000000000000000000000000000001002",
      "type": "0x2",
      "transactionHash": "0xd5b65876e5fad30d87a2a1a4164aa0fa66fdc3f6a36a2262095fdca06811e3f9",
      "transactionIndex": "0x75",
      "blockHash": "0xc37fea5d0125f46342ae07d3f2dcd308c60412396822c151df815e5df6a6b551",
      "blockNumber": "0x18625cf",
      "gasUsed": "0x2dfe4",
      "effectiveGasPrice": "0x109d7828c7e2c",
      "from": "0xac56dc5a4a9de0197f7b8f584ea04ec7e0123dde",
      "to": "0xf077d4d0508505c5a80249afc10bc6ead90e47f1",
      "contractAddress": null
    }
  ],
  "libraries": [],
  "pending": [],
  "returns": {},
  "timestamp": 1768827645951,
  "chain": 369,
  "commit": "953695a"
}