{
  "transactions": [
    {
      "hash": "0x0dd11b5ae25316c670705cdaa25076b84979df9865a43647a3d36e353fdd8a0d",
      "transactionType": "CALL",
      "contractName": null,
      "contractAddress": "0xf077d4d0508505c5a80249afc10bc6ead90e47f1",
      "function": "makeCrime(uint8)",
      "arguments": [
        "0"
      ],
      "transaction": {
        "from": "0xec646a6c9000e04d050435340d9c42c039eb5648",
        "to": "0xf077d4d0508505c5a80249afc10bc6ead90e47f1",
        "gas": "0x409a4",
        "value": "0x0",
        "input": "0xc625abb40000000000000000000000000000000000000000000000000000000000000000",
        "nonce": "0x49",
        "chainId": "0x171"
      },
      "additionalContracts": [],
      "isFixedGasLimit": false
    }
  ],
  "receipts": [
    {
      "status": "0x1",
      "cumulativeGasUsed": "0x114daf5",
      "logs": [
        {
          "address": "0xdcd5e9c0b2b4e9cb93677a258521d854b3a9f5a1",
          "topics": [
            "0x0bff5315606c84d1cee047503678048ca39946be11bfdd5a8c03fe5e272d98e3"
          ],
          "data": "0x000000000000000000000000ec646a6c9000e04d050435340d9c42c039eb5648000000000000000000000000000000000000000000000000000000006988365f0000000000000000000000000000000000000000000000000000000000000000",
          "blockHash": "0x97c9db13b4018f2172c76d1e3c26134db791b20f4e9efca03c7b00188de6e96c",
          "blockNumber": "0x188af47",
          "transactionHash": "0x0dd11b5ae25316c670705cdaa25076b84979df9865a43647a3d36e353fdd8a0d",
          "transactionIndex": "0x28",
          "logIndex": "0x1fb",
          "removed": false
        },
        {
          "address": "0xf077d4d0508505c5a80249afc10bc6ead90e47f1",
          "topics": [
            "0xe36ceebd3770780c5617d53efc7d77328074f1248146245ed3b854cbf651fb37"
          ],
          "data": "0x000000000000000000000000ec646a6c9000e04d050435340d9c42c039eb564800000000000000000000000000000000000000000000000000000000000000000000000000000000000000000000000000000000000000000000000000000000000000000000000000000000000000000000000000000000000000000000000100000000000000000000000000000000000000000000000000000000000000000000000000000000000000000000000000000000000000000000000000000000000000000000000000000000000000000000000000000000000000006988349d0000000000000000000000000000000000000000000000000000000069883119",
          "blockHash": "0x97c9db13b4018f2172c76d1e3c26134db791b20f4e9efca03c7b00188de6e96c",
          "blockNumber": "0x188af47",
          "transactionHash": "0x0dd11b5ae25316c670705cdaa25076b84979df9865a43647a3d36e353fdd8a0d",
          "transactionIndex": "0x28",
          "logIndex": "0x1fc",
          "removed": false
        }
      ],
      "logsBloom": "0x00000000000000000000000000000000010000000000000000000000400000000000000000000000000000000000000000000000000000000000000000000000000000000000000000000000000000000000000000000000001000000000000000000000000000000000000000000000400000000080000000000000000000000000000000000000000000100000000000000000000020000000000000000000000000000000000000000000000000000000000000000000400000000000000000000000000000000100000000000040000000000000000000000000000000000000000000000000000000000000000000000000000000000000000000001002",
      "type": "0x2",
      "transactionHash": "0x0dd11b5ae25316c670705cdaa25076b84979df9865a43647a3d36e353fdd8a0d",
      "transactionIndex": "0x28",
      "blockHash": "0x97c9db13b4018f2172c76d1e3c26134db791b20f4e9efca03c7b00188de6e96c",
      "blockNumber": "0x188af47",
      "gasUsed": "0x2ec57",
      "effectiveGasPrice": "0x2bc595e6e2598",
      "from": "0xec646a6c9000e04d050435340d9c42c039eb5648",
      "to": "0xf077d4d0508505c5a80249afc10bc6ead90e47f1",
      "contractAddress": null
    }
  ],
  "libraries": [],
  "pending": [],
  "returns": {},
  "timestamp": 1770533146756,
  "chain": 369,
  "commit": null
}