{
  "transactions": [
    {
      "hash": "0xce14fc3f5ed2a23808f77a9986605daf8cc2a17c2a8165b1639dd641efb49551",
      "transactionType": "CALL",
      "contractName": null,
      "contractAddress": "0xf077d4d0508505c5a80249afc10bc6ead90e47f1",
      "function": "makeCrime(uint8)",
      "arguments": [
        "0"
      ],
      "transaction": {
        "from": "0x4c62f6121e6f967a0872da8364995e9b68c1e82f",
        "to": "0xf077d4d0508505c5a80249afc10bc6ead90e47f1",
        "gas": "0x54be5",
        "value": "0x0",
        "input": "0xc625abb40000000000000000000000000000000000000000000000000000000000000000",
        "nonce": "0x988",
        "chainId": "0x171"
      },
      "additionalContracts": [],
      "isFixedGasLimit": false
    }
  ],
  "receipts": [
    {
      "status": "0x1",
      "cumulativeGasUsed": "0x1d09b52",
      "logs": [
        {
          "address": "0x74eadd7ebeeed638fd7c413134fa3d3433699d92",
          "topics": [
            "0x570f308d592bed3a47a73125665ce3b81fe296da89acff1af6d926e08a0a9f12"
          ],
          "data": "0x0000000000000000000000004c62f6121e6f967a0872da8364995e9b68c1e82f000000000000000000000000000000000000000000000000000000000000206c",
          "blockHash": "0x63e95596d385f0909091e87e260fef776e6b8d6cc75aab3c049e2e07aac654f5",
          "blockNumber": "0x188b408",
          "transactionHash": "0xce14fc3f5ed2a23808f77a9986605daf8cc2a17c2a8165b1639dd641efb49551",
          "transactionIndex": "0x27",
          "logIndex": "0x820",
          "removed": false
        },
        {
          "address": "0xf077d4d0508505c5a80249afc10bc6ead90e47f1",
          "topics": [
            "0xe36ceebd3770780c5617d53efc7d77328074f1248146245ed3b854cbf651fb37"
          ],
          "data": "0x0000000000000000000000004c62f6121e6f967a0872da8364995e9b68c1e82f000000000000000000000000000000000000000000000000000000000000000000000000000000000000000000000000000000000000000000000000000000010000000000000000000000000000000000000000000000000000000000000000000000000000000000000000000000000000000000000010969a62be15880000000000000000000000000000000000000000000000000000000000000000006400000000000000000000000000000000000000000000000000000000698865b70000000000000000000000000000000000000000000000000000000069886233",
          "blockHash": "0x63e95596d385f0909091e87e260fef776e6b8d6cc75aab3c049e2e07aac654f5",
          "blockNumber": "0x188b408",
          "transactionHash": "0xce14fc3f5ed2a23808f77a9986605daf8cc2a17c2a8165b1639dd641efb49551",
          "transactionIndex": "0x27",
          "logIndex": "0x821",
          "removed": false
        }
      ],
      "logsBloom": "0x00000000000000000000000000000000004000000000000000000000400000000000000000000000000000000000000000000000000000000000000000000000000000000000000000008000000000000000000000000000000000000000000000000100000000000000000000000000400000000000000000000000000000000000000000000000000000100000000000000000000020000000000000000008000000000000000000000000000000000010000000000000000000000000000000000000000002000100000000000000000000000000000000000000000000000000000000000000000000000000000000000000000000000000000000000002",
      "type": "0x2",
      "transactionHash": "0xce14fc3f5ed2a23808f77a9986605daf8cc2a17c2a8165b1639dd641efb49551",
      "transactionIndex": "0x27",
      "blockHash": "0x63e95596d385f0909091e87e260fef776e6b8d6cc75aab3c049e2e07aac654f5",
      "blockNumber": "0x188b408",
      "gasUsed": "0x3d5a5",
      "effectiveGasPrice": "0x284937f5c0b21",
      "from": "0x4c62f6121e6f967a0872da8364995e9b68c1e82f",
      "to": "0xf077d4d0508505c5a80249afc10bc6ead90e47f1",
      "contractAddress": null
    }
  ],
  "libraries": [],
  "pending": [],
  "returns": {},
  "timestamp": 1770545716180,
  "chain": 369,
  "commit": null
}