{
  "transactions": [
    {
      "hash": "0x80ba38f39a7842cdec135fcc8d7dd9c93d5ba74808f5d89c9ccdec1fdb6beea7",
      "transactionType": "CALL",
      "contractName": null,
      "contractAddress": "0xf077d4d0508505c5a80249afc10bc6ead90e47f1",
      "function": "makeCrime(uint8)",
      "arguments": [
        "0"
      ],
      "transaction": {
        "from": "0xac56dc5a4a9de0197f7b8f584ea04ec7e0123dde",
        "to": "0xf077d4d0508505c5a80249afc10bc6ead90e47f1",
        "gas": "0x4033d",
        "value": "0x0",
        "input": "0xc625abb40000000000000000000000000000000000000000000000000000000000000000",
        "nonce": "0x37a",
        "chainId": "0x171"
      },
      "additionalContracts": [],
      "isFixedGasLimit": false
    }
  ],
  "receipts": [
    {
      "status": "0x1",
      "cumulativeGasUsed": "0x189ccc2",
      "logs": [
        {
          "address": "0xdcd5e9c0b2b4e9cb93677a258521d854b3a9f5a1",
          "topics": [
            "0x0bff5315606c84d1cee047503678048ca39946be11bfdd5a8c03fe5e272d98e3"
          ],
          "data": "0x000000000000000000000000ac56dc5a4a9de0197f7b8f584ea04ec7e0123dde000000000000000000000000000000000000000000000000000000006979ddfd0000000000000000000000000000000000000000000000000000000000000000",
          "blockHash": "0x40c215495141c994e22c8502f2391531935382c42fbac27293479dabf33a161f",
          "blockNumber": "0x187492e",
          "transactionHash": "0x80ba38f39a7842cdec135fcc8d7dd9c93d5ba74808f5d89c9ccdec1fdb6beea7",
          "transactionIndex": "0x26",
          "logIndex": "0x471",
          "removed": false
        },
        {
          "address": "0xf077d4d0508505c5a80249afc10bc6ead90e47f1",
          "topics": [
            "0xe36ceebd3770780c5617d53efc7d77328074f1248146245ed3b854cbf651fb37"
          ],
          "data": "0x000000000000000000000000ac56dc5a4a9de0197f7b8f584ea04ec7e0123dde00000000000000000000000000000000000000000000000000000000000000000000000000000000000000000000000000000000000000000000000000000000000000000000000000000000000000000000000000000000000000000000000100000000000000000000000000000000000000000000000000000000000000000000000000000000000000000000000000000000000000000000000000000000000000000000000000000000000000000000000000000000000000006979dc3b000000000000000000000000000000000000000000000000000000006979d8b7",
          "blockHash": "0x40c215495141c994e22c8502f2391531935382c42fbac27293479dabf33a161f",
          "blockNumber": "0x187492e",
          "transactionHash": "0x80ba38f39a7842cdec135fcc8d7dd9c93d5ba74808f5d89c9ccdec1fdb6beea7",
          "transactionIndex": "0x26",
          "logIndex": "0x472",
          "removed": false
        }
      ],
      "logsBloom": "0x00000000000000000000000000000000010000000000000000000000400000000000000000000000000000000000000000000000000000000000000000000000000000000000000000000000000000000000000000000000001000000000000000000000000000000000000000000000400000000080000000000000000000000000000000000000000000100000000000000000000020000000000000000000000000000000000000000000000000000000000000000000400000000000000000000000000000000100000000000040000000000000000000000000000000000000000000000000000000000000000000000000000000000000000000001002",
      "type": "0x2",
      "transactionHash": "0x80ba38f39a7842cdec135fcc8d7dd9c93d5ba74808f5d89c9ccdec1fdb6beea7",
      "transactionIndex": "0x26",
      "blockHash": "0x40c215495141c994e22c8502f2391531935382c42fbac27293479dabf33a161f",
      "blockNumber": "0x187492e",
      "gasUsed": "0x2e7b4",
      "effectiveGasPrice": "0x1949f19f91d8f",
      "from": "0xac56dc5a4a9de0197f7b8f584ea04ec7e0123dde",
      "to": "0xf077d4d0508505c5a80249afc10bc6ead90e47f1",
      "contractAddress": null
    }
  ],
  "libraries": [],
  "pending": [],
  "returns": {},
  "timestamp": 1769593015763,
  "chain": 369,
  "commit": null
}