{
  "transactions": [
    {
      "hash": "0x5c06f164dd79ef589598b9d89f3ad6e084092e038834d4bb52341127ffcfadd2",
      "transactionType": "CALL",
      "contractName": null,
      "contractAddress": "0xf077d4d0508505c5a80249afc10bc6ead90e47f1",
      "function": "makeCrime(uint8)",
      "arguments": [
        "0"
      ],
      "transaction": {
        "from": "0xac56dc5a4a9de0197f7b8f584ea04ec7e0123dde",
        "to": "0xf077d4d0508505c5a80249afc10bc6ead90e47f1",
        "gas": "0x54352",
        "value": "0x0",
        "input": "0xc625abb40000000000000000000000000000000000000000000000000000000000000000",
        "nonce": "0x3a6",
        "chainId": "0x171"
      },
      "additionalContracts": [],
      "isFixedGasLimit": false
    }
  ],
  "receipts": [
    {
      "status": "0x1",
      "cumulativeGasUsed": "0x73f80a",
      "logs": [
        {
          "address": "0x74eadd7ebeeed638fd7c413134fa3d3433699d92",
          "topics": [
            "0x570f308d592bed3a47a73125665ce3b81fe296da89acff1af6d926e08a0a9f12"
          ],
          "data": "0x000000000000000000000000ac56dc5a4a9de0197f7b8f584ea04ec7e0123dde0000000000000000000000000000000000000000000000000000000000038abf",
          "blockHash": "0x2adc53140949f50f070d6eb862a7f119cd37f72710e506a62f8ec522cd14cfab",
          "blockNumber": "0x1875826",
          "transactionHash": "0x5c06f164dd79ef589598b9d89f3ad6e084092e038834d4bb52341127ffcfadd2",
          "transactionIndex": "0x1e",
          "logIndex": "0x82",
          "removed": false
        },
        {
          "address": "0xf077d4d0508505c5a80249afc10bc6ead90e47f1",
          "topics": [
            "0xe36ceebd3770780c5617d53efc7d77328074f1248146245ed3b854cbf651fb37"
          ],
          "data": "0x000000000000000000000000ac56dc5a4a9de0197f7b8f584ea04ec7e0123dde0000000000000000000000000000000000000000000000000000000000000000000000000000000000000000000000000000000000000000000000000000000100000000000000000000000000000000000000000000000000000000000000000000000000000000000000000000000000000000000000160261c0eb78980000000000000000000000000000000000000000000000000000000000000000006400000000000000000000000000000000000000000000000000000000697a750b00000000000000000000000000000000000000000000000000000000697a7187",
          "blockHash": "0x2adc53140949f50f070d6eb862a7f119cd37f72710e506a62f8ec522cd14cfab",
          "blockNumber": "0x1875826",
          "transactionHash": "0x5c06f164dd79ef589598b9d89f3ad6e084092e038834d4bb52341127ffcfadd2",
          "transactionIndex": "0x1e",
          "logIndex": "0x83",
          "removed": false
        }
      ],
      "logsBloom": "0x00000000000000000000000000000000004000000000000000000000400000000000000000000000000000000000000000000000000000000000000000000000000000000000000000008000000000000000000000000000000000000000000000000100000000000000000000000000400000000000000000000000000000000000000000000000000000100000000000000000000020000000000000000008000000000000000000000000000000000010000000000000000000000000000000000000000002000100000000000000000000000000000000000000000000000000000000000000000000000000000000000000000000000000000000000002",
      "type": "0x2",
      "transactionHash": "0x5c06f164dd79ef589598b9d89f3ad6e084092e038834d4bb52341127ffcfadd2",
      "transactionIndex": "0x1e",
      "blockHash": "0x2adc53140949f50f070d6eb862a7f119cd37f72710e506a62f8ec522cd14cfab",
      "blockNumber": "0x1875826",
      "gasUsed": "0x3cf70",
      "effectiveGasPrice": "0x385c4862062d3",
      "from": "0xac56dc5a4a9de0197f7b8f584ea04ec7e0123dde",
      "to": "0xf077d4d0508505c5a80249afc10bc6ead90e47f1",
      "contractAddress": null
    }
  ],
  "libraries": [],
  "pending": [],
  "returns": {},
  "timestamp": 1769632136590,
  "chain": 369,
  "commit": null
}