{
  "transactions": [
    {
      "hash": "0x80aeb505e098507a51e973d8d5a97c1a6f44ad976cd168a6bd3e2701ca5169fc",
      "transactionType": "CALL",
      "contractName": null,
      "contractAddress": "0xf077d4d0508505c5a80249afc10bc6ead90e47f1",
      "function": "makeCrime(uint8)",
      "arguments": [
        "0"
      ],
      "transaction": {
        "from": "0xeca7a53ba6a190c5d205bfdc7707cbc3399336c1",
        "to": "0xf077d4d0508505c5a80249afc10bc6ead90e47f1",
        "gas": "0x2b434",
        "value": "0x0",
        "input": "0xc625abb40000000000000000000000000000000000000000000000000000000000000000",
        "nonce": "0x593",
        "chainId": "0x171"
      },
      "additionalContracts": [],
      "isFixedGasLimit": false
    }
  ],
  "receipts": [
    {
      "status": "0x1",
      "cumulativeGasUsed": "0x1296c6",
      "logs": [
        {
          "address": "0xf077d4d0508505c5a80249afc10bc6ead90e47f1",
          "topics": [
            "0xe36ceebd3770780c5617d53efc7d77328074f1248146245ed3b854cbf651fb37"
          ],
          "data": "0x000000000000000000000000eca7a53ba6a190c5d205bfdc7707cbc3399336c100000000000000000000000000000000000000000000000000000000000000000000000000000000000000000000000000000000000000000000000000000000000000000000000000000000000000000000000000000000000000000000000000000000000000000000000000000000000000000000000000000000000000000000000000000000000000000000000000000000000000000000000000000000000000000000000000000000000000000000000000000000000000006988323b0000000000000000000000000000000000000000000000000000000069882eb7",
          "blockHash": "0x3879bf741cf9a4b09f019798f1d2f08422e297729934a56267311cf6ab6cd74a",
          "blockNumber": "0x188af0b",
          "transactionHash": "0x80aeb505e098507a51e973d8d5a97c1a6f44ad976cd168a6bd3e2701ca5169fc",
          "transactionIndex": "0x13",
          "logIndex": "0xc",
          "removed": false
        }
      ],
      "logsBloom": "0x00000000000000000000000000000000000000000000000000000000400000000000000000000000000000000000000000000000000000000000000000000000000000000000000000000000000000000000000000000000000000000000000000000000000000000000000000000000400000000000000000000000000000000000000000000000000000100000000000000000000020000000000000000000000000000000000000000000000000000000000000000000000000000000000000000000000000000100000000000000000000000000000000000000000000000000000000000000000000000000000000000000000000000000000000000002",
      "type": "0x2",
      "transactionHash": "0x80aeb505e098507a51e973d8d5a97c1a6f44ad976cd168a6bd3e2701ca5169fc",
      "transactionIndex": "0x13",
      "blockHash": "0x3879bf741cf9a4b09f019798f1d2f08422e297729934a56267311cf6ab6cd74a",
      "blockNumber": "0x188af0b",
      "gasUsed": "0x1f525",
      "effectiveGasPrice": "0x31049862e3010",
      "from": "0xeca7a53ba6a190c5d205bfdc7707cbc3399336c1",
      "to": "0xf077d4d0508505c5a80249afc10bc6ead90e47f1",
      "contractAddress": null
    }
  ],
  "libraries": [],
  "pending": [],
  "returns": {},
  "timestamp": 1770532536728,
  "chain": 369,
  "commit": null
}