{
  "transactions": [
    {
      "hash": "0xebade405cac16ecc8a445fdcc6aacf2c15aa89f20c4b883b1d1ca25d1c853c3c",
      "transactionType": "CALL",
      "contractName": null,
      "contractAddress": "0xf077d4d0508505c5a80249afc10bc6ead90e47f1",
      "function": "makeCrime(uint8)",
      "arguments": [
        "0"
      ],
      "transaction": {
        "from": "0x4c62f6121e6f967a0872da8364995e9b68c1e82f",
        "to": "0xf077d4d0508505c5a80249afc10bc6ead90e47f1",
        "gas": "0x54be5",
        "value": "0x0",
        "input": "0xc625abb40000000000000000000000000000000000000000000000000000000000000000",
        "nonce": "0x97f",
        "chainId": "0x171"
      },
      "additionalContracts": [],
      "isFixedGasLimit": false
    }
  ],
  "receipts": [
    {
      "status": "0x1",
      "cumulativeGasUsed": "0x2051cc4",
      "logs": [
        {
          "address": "0xf077d4d0508505c5a80249afc10bc6ead90e47f1",
          "topics": [
            "0xe36ceebd3770780c5617d53efc7d77328074f1248146245ed3b854cbf651fb37"
          ],
          "data": "0x0000000000000000000000004c62f6121e6f967a0872da8364995e9b68c1e82f000000000000000000000000000000000000000000000000000000000000000000000000000000000000000000000000000000000000000000000000000000000000000000000000000000000000000000000000000000000000000000000000000000000000000000000000000000000000000000000000000000000000000000000000000000000000000000000000000000000000000000000000000000000000000000000000000000000000000000000000000000000000000069884bc70000000000000000000000000000000000000000000000000000000069884843",
          "blockHash": "0xa94360a98b08f3f2419b1707d26e5bc081f76a9209aeb86239d92da621c01e7f",
          "blockNumber": "0x188b187",
          "transactionHash": "0xebade405cac16ecc8a445fdcc6aacf2c15aa89f20c4b883b1d1ca25d1c853c3c",
          "transactionIndex": "0x30",
          "logIndex": "0x561",
          "removed": false
        }
      ],
      "logsBloom": "0x00000000000000000000000000000000000000000000000000000000400000000000000000000000000000000000000000000000000000000000000000000000000000000000000000000000000000000000000000000000000000000000000000000000000000000000000000000000400000000000000000000000000000000000000000000000000000100000000000000000000020000000000000000000000000000000000000000000000000000000000000000000000000000000000000000000000000000100000000000000000000000000000000000000000000000000000000000000000000000000000000000000000000000000000000000002",
      "type": "0x2",
      "transactionHash": "0xebade405cac16ecc8a445fdcc6aacf2c15aa89f20c4b883b1d1ca25d1c853c3c",
      "transactionIndex": "0x30",
      "blockHash": "0xa94360a98b08f3f2419b1707d26e5bc081f76a9209aeb86239d92da621c01e7f",
      "blockNumber": "0x188b187",
      "gasUsed": "0x1e865",
      "effectiveGasPrice": "0x2c150ee29674f",
      "from": "0x4c62f6121e6f967a0872da8364995e9b68c1e82f",
      "to": "0xf077d4d0508505c5a80249afc10bc6ead90e47f1",
      "contractAddress": null
    }
  ],
  "libraries": [],
  "pending": [],
  "returns": {},
  "timestamp": 1770539076160,
  "chain": 369,
  "commit": null
}