{
  "transactions": [
    {
      "hash": "0x470303dd17f8ad6670a0097eb01258cc49394758a420d4c135445b06a2d605d5",
      "transactionType": "CALL",
      "contractName": null,
      "contractAddress": "0xf077d4d0508505c5a80249afc10bc6ead90e47f1",
      "function": "makeCrime(uint8)",
      "arguments": [
        "0"
      ],
      "transaction": {
        "from": "0xaa73aa98480757d75aae288b5931261448eb0530",
        "to": "0xf077d4d0508505c5a80249afc10bc6ead90e47f1",
        "gas": "0x409a4",
        "value": "0x0",
        "input": "0xc625abb40000000000000000000000000000000000000000000000000000000000000000",
        "nonce": "0x54",
        "chainId": "0x171"
      },
      "additionalContracts": [],
      "isFixedGasLimit": false
    }
  ],
  "receipts": [
    {
      "status": "0x1",
      "cumulativeGasUsed": "0x17643e7",
      "logs": [
        {
          "address": "0xdcd5e9c0b2b4e9cb93677a258521d854b3a9f5a1",
          "topics": [
            "0x0bff5315606c84d1cee047503678048ca39946be11bfdd5a8c03fe5e272d98e3"
          ],
          "data": "0x000000000000000000000000aa73aa98480757d75aae288b5931261448eb0530000000000000000000000000000000000000000000000000000000006987ea8d0000000000000000000000000000000000000000000000000000000000000000",
          "blockHash": "0x2e3cefd4552ada13c7721374c3e8005fe64fd3beafc927cc6e767c562ce9d2cb",
          "blockNumber": "0x188a7d7",
          "transactionHash": "0x470303dd17f8ad6670a0097eb01258cc49394758a420d4c135445b06a2d605d5",
          "transactionIndex": "0x21",
          "logIndex": "0x3cc",
          "removed": false
        },
        {
          "address": "0xf077d4d0508505c5a80249afc10bc6ead90e47f1",
          "topics": [
            "0xe36ceebd3770780c5617d53efc7d77328074f1248146245ed3b854cbf651fb37"
          ],
          "data": "0x000000000000000000000000aa73aa98480757d75aae288b5931261448eb053000000000000000000000000000000000000000000000000000000000000000000000000000000000000000000000000000000000000000000000000000000000000000000000000000000000000000000000000000000000000000000000000100000000000000000000000000000000000000000000000000000000000000000000000000000000000000000000000000000000000000000000000000000000000000000000000000000000000000000000000000000000000000006987e8cb000000000000000000000000000000000000000000000000000000006987e547",
          "blockHash": "0x2e3cefd4552ada13c7721374c3e8005fe64fd3beafc927cc6e767c562ce9d2cb",
          "blockNumber": "0x188a7d7",
          "transactionHash": "0x470303dd17f8ad6670a0097eb01258cc49394758a420d4c135445b06a2d605d5",
          "transactionIndex": "0x21",
          "logIndex": "0x3cd",
          "removed": false
        }
      ],
      "logsBloom": "0x00000000000000000000000000000000010000000000000000000000400000000000000000000000000000000000000000000000000000000000000000000000000000000000000000000000000000000000000000000000001000000000000000000000000000000000000000000000400000000080000000000000000000000000000000000000000000100000000000000000000020000000000000000000000000000000000000000000000000000000000000000000400000000000000000000000000000000100000000000040000000000000000000000000000000000000000000000000000000000000000000000000000000000000000000001002",
      "type": "0x2",
      "transactionHash": "0x470303dd17f8ad6670a0097eb01258cc49394758a420d4c135445b06a2d605d5",
      "transactionIndex": "0x21",
      "blockHash": "0x2e3cefd4552ada13c7721374c3e8005fe64fd3beafc927cc6e767c562ce9d2cb",
      "blockNumber": "0x188a7d7",
      "gasUsed": "0x2ec57",
      "effectiveGasPrice": "0x2a11d1191b8a6",
      "from": "0xaa73aa98480757d75aae288b5931261448eb0530",
      "to": "0xf077d4d0508505c5a80249afc10bc6ead90e47f1",
      "contractAddress": null
    }
  ],
  "libraries": [],
  "pending": [],
  "returns": {},
  "timestamp": 1770513736018,
  "chain": 369,
  "commit": null
}