{
  "transactions": [
    {
      "hash": "0x350570f9710301cd636248235a03ed7d4da813a044f4f98ea2b7fe0190bad6fc",
      "transactionType": "CALL",
      "contractName": null,
      "contractAddress": "0xf077d4d0508505c5a80249afc10bc6ead90e47f1",
      "function": "makeCrime(uint8)",
      "arguments": [
        "0"
      ],
      "transaction": {
        "from": "0xac56dc5a4a9de0197f7b8f584ea04ec7e0123dde",
        "to": "0xf077d4d0508505c5a80249afc10bc6ead90e47f1",
        "gas": "0x44caf",
        "value": "0x0",
        "input": "0xc625abb40000000000000000000000000000000000000000000000000000000000000000",
        "nonce": "0x3df",
        "chainId": "0x171"
      },
      "additionalContracts": [],
      "isFixedGasLimit": false
    }
  ],
  "receipts": [
    {
      "status": "0x1",
      "cumulativeGasUsed": "0x58db75",
      "logs": [
        {
          "address": "0x74eadd7ebeeed638fd7c413134fa3d3433699d92",
          "topics": [
            "0x570f308d592bed3a47a73125665ce3b81fe296da89acff1af6d926e08a0a9f12"
          ],
          "data": "0x000000000000000000000000ac56dc5a4a9de0197f7b8f584ea04ec7e0123dde000000000000000000000000000000000000000000000000000000000003922b",
          "blockHash": "0x5e608ecd2c609595415b0f230745c7e6a02b76765889e5e388f276ee55aa886f",
          "blockNumber": "0x1876a1b",
          "transactionHash": "0x350570f9710301cd636248235a03ed7d4da813a044f4f98ea2b7fe0190bad6fc",
          "transactionIndex": "0x10",
          "logIndex": "0x73",
          "removed": false
        },
        {
          "address": "0xf077d4d0508505c5a80249afc10bc6ead90e47f1",
          "topics": [
            "0xe36ceebd3770780c5617d53efc7d77328074f1248146245ed3b854cbf651fb37"
          ],
          "data": "0x000000000000000000000000ac56dc5a4a9de0197f7b8f584ea04ec7e0123dde000000000000000000000000000000000000000000000000000000000000000000000000000000000000000000000000000000000000000000000000000000010000000000000000000000000000000000000000000000000000000000000000000000000000000000000000000000000000000000000011ff6cf0fd15b00000000000000000000000000000000000000000000000000000000000000000006400000000000000000000000000000000000000000000000000000000697b2d2f00000000000000000000000000000000000000000000000000000000697b29ab",
          "blockHash": "0x5e608ecd2c609595415b0f230745c7e6a02b76765889e5e388f276ee55aa886f",
          "blockNumber": "0x1876a1b",
          "transactionHash": "0x350570f9710301cd636248235a03ed7d4da813a044f4f98ea2b7fe0190bad6fc",
          "transactionIndex": "0x10",
          "logIndex": "0x74",
          "removed": false
        }
      ],
      "logsBloom": "0x00000000000000000000000000000000004000000000000000000000400000000000000000000000000000000000000000000000000000000000000000000000000000000000000000008000000000000000000000000000000000000000000000000100000000000000000000000000400000000000000000000000000000000000000000000000000000100000000000000000000020000000000000000008000000000000000000000000000000000010000000000000000000000000000000000000000002000100000000000000000000000000000000000000000000000000000000000000000000000000000000000000000000000000000000000002",
      "type": "0x2",
      "transactionHash": "0x350570f9710301cd636248235a03ed7d4da813a044f4f98ea2b7fe0190bad6fc",
      "transactionIndex": "0x10",
      "blockHash": "0x5e608ecd2c609595415b0f230745c7e6a02b76765889e5e388f276ee55aa886f",
      "blockNumber": "0x1876a1b",
      "gasUsed": "0x3da85",
      "effectiveGasPrice": "0x1c312b43e229a",
      "from": "0xac56dc5a4a9de0197f7b8f584ea04ec7e0123dde",
      "to": "0xf077d4d0508505c5a80249afc10bc6ead90e47f1",
      "contractAddress": null
    }
  ],
  "libraries": [],
  "pending": [],
  "returns": {},
  "timestamp": 1769679278878,
  "chain": 369,
  "commit": null
}