{
  "transactions": [
    {
      "hash": "0xd2757207d9478374aba25fbdfb9e2905ae62bb8bc606902638716f7079c98081",
      "transactionType": "CALL",
      "contractName": null,
      "contractAddress": "0xf077d4d0508505c5a80249afc10bc6ead90e47f1",
      "function": "makeCrime(uint8)",
      "arguments": [
        "0"
      ],
      "transaction": {
        "from": "0xeca7a53ba6a190c5d205bfdc7707cbc3399336c1",
        "to": "0xf077d4d0508505c5a80249afc10bc6ead90e47f1",
        "gas": "0x55e10",
        "value": "0x0",
        "input": "0xc625abb40000000000000000000000000000000000000000000000000000000000000000",
        "nonce": "0x59f",
        "chainId": "0x171"
      },
      "additionalContracts": [],
      "isFixedGasLimit": false
    }
  ],
  "receipts": [
    {
      "status": "0x1",
      "cumulativeGasUsed": "0xa303c2",
      "logs": [
        {
          "address": "0x74eadd7ebeeed638fd7c413134fa3d3433699d92",
          "topics": [
            "0x570f308d592bed3a47a73125665ce3b81fe296da89acff1af6d926e08a0a9f12"
          ],
          "data": "0x000000000000000000000000eca7a53ba6a190c5d205bfdc7707cbc3399336c10000000000000000000000000000000000000000000000000000000000023cbe",
          "blockHash": "0xc658ae4d4377fb85ae6f046c182fa3971d97adfc2a871f6f1cfe83825e4ec282",
          "blockNumber": "0x188b20a",
          "transactionHash": "0xd2757207d9478374aba25fbdfb9e2905ae62bb8bc606902638716f7079c98081",
          "transactionIndex": "0x27",
          "logIndex": "0xf4",
          "removed": false
        },
        {
          "address": "0xf077d4d0508505c5a80249afc10bc6ead90e47f1",
          "topics": [
            "0xe36ceebd3770780c5617d53efc7d77328074f1248146245ed3b854cbf651fb37"
          ],
          "data": "0x000000000000000000000000eca7a53ba6a190c5d205bfdc7707cbc3399336c100000000000000000000000000000000000000000000000000000000000000000000000000000000000000000000000000000000000000000000000000000001000000000000000000000000000000000000000000000000000000000000000000000000000000000000000000000000000000000000001a667b8fc36f3c00000000000000000000000000000000000000000000000000000000000000000014000000000000000000000000000000000000000000000000000000006988510d0000000000000000000000000000000000000000000000000000000069884d89",
          "blockHash": "0xc658ae4d4377fb85ae6f046c182fa3971d97adfc2a871f6f1cfe83825e4ec282",
          "blockNumber": "0x188b20a",
          "transactionHash": "0xd2757207d9478374aba25fbdfb9e2905ae62bb8bc606902638716f7079c98081",
          "transactionIndex": "0x27",
          "logIndex": "0xf5",
          "removed": false
        }
      ],
      "logsBloom": "0x00000000000000000000000000000000004000000000000000000000400000000000000000000000000000000000000000000000000000000000000000000000000000000000000000008000000000000000000000000000000000000000000000000100000000000000000000000000400000000000000000000000000000000000000000000000000000100000000000000000000020000000000000000008000000000000000000000000000000000010000000000000000000000000000000000000000002000100000000000000000000000000000000000000000000000000000000000000000000000000000000000000000000000000000000000002",
      "type": "0x2",
      "transactionHash": "0xd2757207d9478374aba25fbdfb9e2905ae62bb8bc606902638716f7079c98081",
      "transactionIndex": "0x27",
      "blockHash": "0xc658ae4d4377fb85ae6f046c182fa3971d97adfc2a871f6f1cfe83825e4ec282",
      "blockNumber": "0x188b20a",
      "gasUsed": "0x3e2cd",
      "effectiveGasPrice": "0x27cf9e8e26126",
      "from": "0xeca7a53ba6a190c5d205bfdc7707cbc3399336c1",
      "to": "0xf077d4d0508505c5a80249afc10bc6ead90e47f1",
      "contractAddress": null
    }
  ],
  "libraries": [],
  "pending": [],
  "returns": {},
  "timestamp": 1770540426490,
  "chain": 369,
  "commit": null
}