{
  "transactions": [
    {
      "hash": "0x047c150c60f931a6a5a521dbdd681227fb6030cc87ed6ba76ae8bd47b6e350be",
      "transactionType": "CALL",
      "contractName": null,
      "contractAddress": "0xf077d4d0508505c5a80249afc10bc6ead90e47f1",
      "function": "makeCrime(uint8)",
      "arguments": [
        "0"
      ],
      "transaction": {
        "from": "0xeca7a53ba6a190c5d205bfdc7707cbc3399336c1",
        "to": "0xf077d4d0508505c5a80249afc10bc6ead90e47f1",
        "gas": "0x41b40",
        "value": "0x0",
        "input": "0xc625abb40000000000000000000000000000000000000000000000000000000000000000",
        "nonce": "0x401",
        "chainId": "0x171"
      },
      "additionalContracts": [],
      "isFixedGasLimit": false
    }
  ],
  "receipts": [
    {
      "status": "0x1",
      "cumulativeGasUsed": "0x1936fdc",
      "logs": [
        {
          "address": "0x74eadd7ebeeed638fd7c413134fa3d3433699d92",
          "topics": [
            "0x570f308d592bed3a47a73125665ce3b81fe296da89acff1af6d926e08a0a9f12"
          ],
          "data": "0x000000000000000000000000eca7a53ba6a190c5d205bfdc7707cbc3399336c100000000000000000000000000000000000000000000000000000000000232be",
          "blockHash": "0x39ad064d86868cc7a90202c289753b8cfb8a16617e59aab8b48298481ff4592f",
          "blockNumber": "0x187698c",
          "transactionHash": "0x047c150c60f931a6a5a521dbdd681227fb6030cc87ed6ba76ae8bd47b6e350be",
          "transactionIndex": "0x4b",
          "logIndex": "0x2e8",
          "removed": false
        },
        {
          "address": "0xf077d4d0508505c5a80249afc10bc6ead90e47f1",
          "topics": [
            "0xe36ceebd3770780c5617d53efc7d77328074f1248146245ed3b854cbf651fb37"
          ],
          "data": "0x000000000000000000000000eca7a53ba6a190c5d205bfdc7707cbc3399336c10000000000000000000000000000000000000000000000000000000000000000000000000000000000000000000000000000000000000000000000000000000100000000000000000000000000000000000000000000000000000000000000000000000000000000000000000000000000000000000000190b89b83816780000000000000000000000000000000000000000000000000000000000000000001400000000000000000000000000000000000000000000000000000000697b277100000000000000000000000000000000000000000000000000000000697b23ed",
          "blockHash": "0x39ad064d86868cc7a90202c289753b8cfb8a16617e59aab8b48298481ff4592f",
          "blockNumber": "0x187698c",
          "transactionHash": "0x047c150c60f931a6a5a521dbdd681227fb6030cc87ed6ba76ae8bd47b6e350be",
          "transactionIndex": "0x4b",
          "logIndex": "0x2e9",
          "removed": false
        }
      ],
      "logsBloom": "0x00000000000000000000000000000000004000000000000000000000400000000000000000000000000000000000000000000000000000000000000000000000000000000000000000008000000000000000000000000000000000000000000000000100000000000000000000000000400000000000000000000000000000000000000000000000000000100000000000000000000020000000000000000008000000000000000000000000000000000010000000000000000000000000000000000000000002000100000000000000000000000000000000000000000000000000000000000000000000000000000000000000000000000000000000000002",
      "type": "0x2",
      "transactionHash": "0x047c150c60f931a6a5a521dbdd681227fb6030cc87ed6ba76ae8bd47b6e350be",
      "transactionIndex": "0x4b",
      "blockHash": "0x39ad064d86868cc7a90202c289753b8cfb8a16617e59aab8b48298481ff4592f",
      "blockNumber": "0x187698c",
      "gasUsed": "0x3e2cd",
      "effectiveGasPrice": "0x1eaadbeb2e943",
      "from": "0xeca7a53ba6a190c5d205bfdc7707cbc3399336c1",
      "to": "0xf077d4d0508505c5a80249afc10bc6ead90e47f1",
      "contractAddress": null
    }
  ],
  "libraries": [],
  "pending": [],
  "returns": {},
  "timestamp": 1769677806159,
  "chain": 369,
  "commit": null
}