{
  "transactions": [
    {
      "hash": "0x7fa70aa60f98e5d847f3d8192634ec3986885dda31ac8ebeab4a75d6b066b556",
      "transactionType": "CALL",
      "contractName": null,
      "contractAddress": "0x7fb6a056877c1da14a63bfecde95ebbfa854f07f",
      "function": "travel(uint8,uint8,uint256)",
      "arguments": [
        "0",
        "0",
        "0"
      ],
      "transaction": {
        "from": "0xeca7a53ba6a190c5d205bfdc7707cbc3399336c1",
        "to": "0x7fb6a056877c1da14a63bfecde95ebbfa854f07f",
        "gas": "0x5e976",
        "value": "0x0",
        "input": "0xfdcb3825000000000000000000000000000000000000000000000000000000000000000000000000000000000000000000000000000000000000000000000000000000000000000000000000000000000000000000000000000000000000000000000000",
        "nonce": "0x5ac",
        "chainId": "0x171"
      },
      "additionalContracts": [],
      "isFixedGasLimit": false
    }
  ],
  "receipts": [
    {
      "status": "0x1",
      "cumulativeGasUsed": "0xf7d5b1",
      "logs": [
        {
          "address": "0x74eadd7ebeeed638fd7c413134fa3d3433699d92",
          "topics": [
            "0x570f308d592bed3a47a73125665ce3b81fe296da89acff1af6d926e08a0a9f12"
          ],
          "data": "0x000000000000000000000000eca7a53ba6a190c5d205bfdc7707cbc3399336c10000000000000000000000000000000000000000000000000000000000023dae",
          "blockHash": "0xfa5742818cc45ebb286247d3ea745f355268f2d014901bb935452fc7a9924f74",
          "blockNumber": "0x188b6d7",
          "transactionHash": "0x7fa70aa60f98e5d847f3d8192634ec3986885dda31ac8ebeab4a75d6b066b556",
          "transactionIndex": "0x53",
          "logIndex": "0x193",
          "removed": false
        },
        {
          "address": "0x7fb6a056877c1da14a63bfecde95ebbfa854f07f",
          "topics": [
            "0xde7f825a26d5481b983494f9b2cc6cb374465d2b88dffcc8cd11e1869947c827"
          ],
          "data": "0x000000000000000000000000eca7a53ba6a190c5d205bfdc7707cbc3399336c1000000000000000000000000000000000000000000000000000000000000000000000000000000000000000000000000000000000000000000000000000000010000000000000000000000000000000000000000000000000000000000000000000000000000000000000000000000000000000000000000000000000000000000000000000000000000000000000000000000000000000d8d726b7177a8000000000000000000000000000000000000000000000000000000000000000000c8000000000000000000000000000000000000000000000000000000006988b7150000000000000000000000000000000000000000000000000000000069887ed5",
          "blockHash": "0xfa5742818cc45ebb286247d3ea745f355268f2d014901bb935452fc7a9924f74",
          "blockNumber": "0x188b6d7",
          "transactionHash": "0x7fa70aa60f98e5d847f3d8192634ec3986885dda31ac8ebeab4a75d6b066b556",
          "transactionIndex": "0x53",
          "logIndex": "0x194",
          "removed": false
        }
      ],
      "logsBloom": "0x00000000000000000000000000000000004000000000000000000000000000000000000000000000000000000000000000000000000000000000000000000000000800000000000000008000000000000000000000000001000000000001000000000100000000000000000000000000000000000000000000000000000000000000000000000000000000000000000000000000000000000000000000000008000000000000000000000000000000000010000000000000000000000000000000200000000002000000000000000000000000010000000000000000000000000000000800000000000000000000000000000000000000000000000000000000",
      "type": "0x2",
      "transactionHash": "0x7fa70aa60f98e5d847f3d8192634ec3986885dda31ac8ebeab4a75d6b066b556",
      "transactionIndex": "0x53",
      "blockHash": "0xfa5742818cc45ebb286247d3ea745f355268f2d014901bb935452fc7a9924f74",
      "blockNumber": "0x188b6d7",
      "gasUsed": "0x40ad9",
      "effectiveGasPrice": "0x311eabd203c05",
      "from": "0xeca7a53ba6a190c5d205bfdc7707cbc3399336c1",
      "to": "0x7fb6a056877c1da14a63bfecde95ebbfa854f07f",
      "contractAddress": null
    }
  ],
  "libraries": [],
  "pending": [],
  "returns": {},
  "timestamp": 1770553045726,
  "chain": 369,
  "commit": null
}