{
  "transactions": [
    {
      "hash": "0xf23edaf8d2bea893507776e41652ac672ec63b9ea54870ec657cbb191ad5f2f7",
      "transactionType": "CALL",
      "contractName": null,
      "contractAddress": "0x7fb6a056877c1da14a63bfecde95ebbfa854f07f",
      "function": "travel(uint8,uint8,uint256)",
      "arguments": [
        "1",
        "0",
        "0"
      ],
      "transaction": {
        "from": "0xeca7a53ba6a190c5d205bfdc7707cbc3399336c1",
        "to": "0x7fb6a056877c1da14a63bfecde95ebbfa854f07f",
        "gas": "0x59572",
        "value": "0x0",
        "input": "0xfdcb3825000000000000000000000000000000000000000000000000000000000000000100000000000000000000000000000000000000000000000000000000000000000000000000000000000000000000000000000000000000000000000000000000",
        "nonce": "0x599",
        "chainId": "0x171"
      },
      "additionalContracts": [],
      "isFixedGasLimit": false
    }
  ],
  "receipts": [
    {
      "status": "0x1",
      "cumulativeGasUsed": "0xc1761f",
      "logs": [
        {
          "address": "0x74eadd7ebeeed638fd7c413134fa3d3433699d92",
          "topics": [
            "0x570f308d592bed3a47a73125665ce3b81fe296da89acff1af6d926e08a0a9f12"
          ],
          "data": "0x000000000000000000000000eca7a53ba6a190c5d205bfdc7707cbc3399336c10000000000000000000000000000000000000000000000000000000000023c82",
          "blockHash": "0xcbf32cfd510b9fd557e425bc063abd0dd43cb02a6a69988908937916b63f03f0",
          "blockNumber": "0x188b111",
          "transactionHash": "0xf23edaf8d2bea893507776e41652ac672ec63b9ea54870ec657cbb191ad5f2f7",
          "transactionIndex": "0xc",
          "logIndex": "0x10b",
          "removed": false
        },
        {
          "address": "0x7fb6a056877c1da14a63bfecde95ebbfa854f07f",
          "topics": [
            "0xde7f825a26d5481b983494f9b2cc6cb374465d2b88dffcc8cd11e1869947c827"
          ],
          "data": "0x000000000000000000000000eca7a53ba6a190c5d205bfdc7707cbc3399336c1000000000000000000000000000000000000000000000000000000000000000000000000000000000000000000000000000000000000000000000000000000000000000000000000000000000000000000000000000000000000000000000001000000000000000000000000000000000000000000000000000000000000000000000000000000000000000000000000000000000000000d8d726b7177a8000000000000000000000000000000000000000000000000000000000000000000c80000000000000000000000000000000000000000000000000000000069887bb50000000000000000000000000000000000000000000000000000000069884375",
          "blockHash": "0xcbf32cfd510b9fd557e425bc063abd0dd43cb02a6a69988908937916b63f03f0",
          "blockNumber": "0x188b111",
          "transactionHash": "0xf23edaf8d2bea893507776e41652ac672ec63b9ea54870ec657cbb191ad5f2f7",
          "transactionIndex": "0xc",
          "logIndex": "0x10c",
          "removed": false
        }
      ],
      "logsBloom": "0x00000000000000000000000000000000004000000000000000000000000000000000000000000000000000000000000000000000000000000000000000000000000800000000000000008000000000000000000000000001000000000001000000000100000000000000000000000000000000000000000000000000000000000000000000000000000000000000000000000000000000000000000000000008000000000000000000000000000000000010000000000000000000000000000000200000000002000000000000000000000000010000000000000000000000000000000800000000000000000000000000000000000000000000000000000000",
      "type": "0x2",
      "transactionHash": "0xf23edaf8d2bea893507776e41652ac672ec63b9ea54870ec657cbb191ad5f2f7",
      "transactionIndex": "0xc",
      "blockHash": "0xcbf32cfd510b9fd557e425bc063abd0dd43cb02a6a69988908937916b63f03f0",
      "blockNumber": "0x188b111",
      "gasUsed": "0x40ae5",
      "effectiveGasPrice": "0x2a9808114e49b",
      "from": "0xeca7a53ba6a190c5d205bfdc7707cbc3399336c1",
      "to": "0x7fb6a056877c1da14a63bfecde95ebbfa854f07f",
      "contractAddress": null
    }
  ],
  "libraries": [],
  "pending": [],
  "returns": {},
  "timestamp": 1770537845930,
  "chain": 369,
  "commit": null
}