{
  "transactions": [
    {
      "hash": "0x8d3e21bed2d8175ac29dc1a36ae87f981f769214f95a1ef1dbc6065658e28ad1",
      "transactionType": "CALL",
      "contractName": null,
      "contractAddress": "0x7fb6a056877c1da14a63bfecde95ebbfa854f07f",
      "function": "travel(uint8,uint8,uint256)",
      "arguments": [
        "0",
        "0",
        "0"
      ],
      "transaction": {
        "from": "0xeca7a53ba6a190c5d205bfdc7707cbc3399336c1",
        "to": "0x7fb6a056877c1da14a63bfecde95ebbfa854f07f",
        "gas": "0x5e976",
        "value": "0x0",
        "input": "0xfdcb3825000000000000000000000000000000000000000000000000000000000000000000000000000000000000000000000000000000000000000000000000000000000000000000000000000000000000000000000000000000000000000000000000",
        "nonce": "0x585",
        "chainId": "0x171"
      },
      "additionalContracts": [],
      "isFixedGasLimit": false
    }
  ],
  "receipts": [
    {
      "status": "0x1",
      "cumulativeGasUsed": "0x1c3e77e",
      "logs": [
        {
          "address": "0x74eadd7ebeeed638fd7c413134fa3d3433699d92",
          "topics": [
            "0x570f308d592bed3a47a73125665ce3b81fe296da89acff1af6d926e08a0a9f12"
          ],
          "data": "0x000000000000000000000000eca7a53ba6a190c5d205bfdc7707cbc3399336c10000000000000000000000000000000000000000000000000000000000023b7e",
          "blockHash": "0xd66ca0adc1bbca476b9a37c98261608bfa2ada7cdc4f7aa5a051eb7b637135f7",
          "blockNumber": "0x188aac2",
          "transactionHash": "0x8d3e21bed2d8175ac29dc1a36ae87f981f769214f95a1ef1dbc6065658e28ad1",
          "transactionIndex": "0x38",
          "logIndex": "0x4a2",
          "removed": false
        },
        {
          "address": "0x7fb6a056877c1da14a63bfecde95ebbfa854f07f",
          "topics": [
            "0xde7f825a26d5481b983494f9b2cc6cb374465d2b88dffcc8cd11e1869947c827"
          ],
          "data": "0x000000000000000000000000eca7a53ba6a190c5d205bfdc7707cbc3399336c1000000000000000000000000000000000000000000000000000000000000000000000000000000000000000000000000000000000000000000000000000000010000000000000000000000000000000000000000000000000000000000000000000000000000000000000000000000000000000000000000000000000000000000000000000000000000000000000000000000000000000d8d726b7177a8000000000000000000000000000000000000000000000000000000000000000000c80000000000000000000000000000000000000000000000000000000069883b2300000000000000000000000000000000000000000000000000000000698802e3",
          "blockHash": "0xd66ca0adc1bbca476b9a37c98261608bfa2ada7cdc4f7aa5a051eb7b637135f7",
          "blockNumber": "0x188aac2",
          "transactionHash": "0x8d3e21bed2d8175ac29dc1a36ae87f981f769214f95a1ef1dbc6065658e28ad1",
          "transactionIndex": "0x38",
          "logIndex": "0x4a3",
          "removed": false
        }
      ],
      "logsBloom": "0x00000000000000000000000000000000004000000000000000000000000000000000000000000000000000000000000000000000000000000000000000000000000800000000000000008000000000000000000000000001000000000001000000000100000000000000000000000000000000000000000000000000000000000000000000000000000000000000000000000000000000000000000000000008000000000000000000000000000000000010000000000000000000000000000000200000000002000000000000000000000000010000000000000000000000000000000800000000000000000000000000000000000000000000000000000000",
      "type": "0x2",
      "transactionHash": "0x8d3e21bed2d8175ac29dc1a36ae87f981f769214f95a1ef1dbc6065658e28ad1",
      "transactionIndex": "0x38",
      "blockHash": "0xd66ca0adc1bbca476b9a37c98261608bfa2ada7cdc4f7aa5a051eb7b637135f7",
      "blockNumber": "0x188aac2",
      "gasUsed": "0x40ad9",
      "effectiveGasPrice": "0x2d32d2af3a180",
      "from": "0xeca7a53ba6a190c5d205bfdc7707cbc3399336c1",
      "to": "0x7fb6a056877c1da14a63bfecde95ebbfa854f07f",
      "contractAddress": null
    }
  ],
  "libraries": [],
  "pending": [],
  "returns": {},
  "timestamp": 1770521317041,
  "chain": 369,
  "commit": null
}