{
  "transactions": [
    {
      "hash": "0x20f1f4815d59c4b94d3a79af85274542ad5c150563747dccafb812b699fecfb8",
      "transactionType": "CALL",
      "contractName": null,
      "contractAddress": "0x7fb6a056877c1da14a63bfecde95ebbfa854f07f",
      "function": "travel(uint8,uint8,uint256)",
      "arguments": [
        "1",
        "0",
        "0"
      ],
      "transaction": {
        "from": "0xeca7a53ba6a190c5d205bfdc7707cbc3399336c1",
        "to": "0x7fb6a056877c1da14a63bfecde95ebbfa854f07f",
        "gas": "0x58aa7",
        "value": "0x0",
        "input": "0xfdcb3825000000000000000000000000000000000000000000000000000000000000000100000000000000000000000000000000000000000000000000000000000000000000000000000000000000000000000000000000000000000000000000000000",
        "nonce": "0x575",
        "chainId": "0x171"
      },
      "additionalContracts": [],
      "isFixedGasLimit": false
    }
  ],
  "receipts": [
    {
      "status": "0x1",
      "cumulativeGasUsed": "0xb965c6",
      "logs": [
        {
          "address": "0x74eadd7ebeeed638fd7c413134fa3d3433699d92",
          "topics": [
            "0x570f308d592bed3a47a73125665ce3b81fe296da89acff1af6d926e08a0a9f12"
          ],
          "data": "0x000000000000000000000000eca7a53ba6a190c5d205bfdc7707cbc3399336c10000000000000000000000000000000000000000000000000000000000023a66",
          "blockHash": "0xfa0688b78bf2c29fc13c234b53b83340dbe4b958837114f1e95d73625991459b",
          "blockNumber": "0x188a4e5",
          "transactionHash": "0x20f1f4815d59c4b94d3a79af85274542ad5c150563747dccafb812b699fecfb8",
          "transactionIndex": "0x24",
          "logIndex": "0x13e",
          "removed": false
        },
        {
          "address": "0x7fb6a056877c1da14a63bfecde95ebbfa854f07f",
          "topics": [
            "0xde7f825a26d5481b983494f9b2cc6cb374465d2b88dffcc8cd11e1869947c827"
          ],
          "data": "0x000000000000000000000000eca7a53ba6a190c5d205bfdc7707cbc3399336c1000000000000000000000000000000000000000000000000000000000000000000000000000000000000000000000000000000000000000000000000000000000000000000000000000000000000000000000000000000000000000000000001000000000000000000000000000000000000000000000000000000000000000000000000000000000000000000000000000000000000000d8d726b7177a8000000000000000000000000000000000000000000000000000000000000000000c8000000000000000000000000000000000000000000000000000000006987ff0f000000000000000000000000000000000000000000000000000000006987c6cf",
          "blockHash": "0xfa0688b78bf2c29fc13c234b53b83340dbe4b958837114f1e95d73625991459b",
          "blockNumber": "0x188a4e5",
          "transactionHash": "0x20f1f4815d59c4b94d3a79af85274542ad5c150563747dccafb812b699fecfb8",
          "transactionIndex": "0x24",
          "logIndex": "0x13f",
          "removed": false
        }
      ],
      "logsBloom": "0x00000000000000000000000000000000004000000000000000000000000000000000000000000000000000000000000000000000000000000000000000000000000800000000000000008000000000000000000000000001000000000001000000000100000000000000000000000000000000000000000000000000000000000000000000000000000000000000000000000000000000000000000000000008000000000000000000000000000000000010000000000000000000000000000000200000000002000000000000000000000000010000000000000000000000000000000800000000000000000000000000000000000000000000000000000000",
      "type": "0x2",
      "transactionHash": "0x20f1f4815d59c4b94d3a79af85274542ad5c150563747dccafb812b699fecfb8",
      "transactionIndex": "0x24",
      "blockHash": "0xfa0688b78bf2c29fc13c234b53b83340dbe4b958837114f1e95d73625991459b",
      "blockNumber": "0x188a4e5",
      "gasUsed": "0x40315",
      "effectiveGasPrice": "0x2c776038c5def",
      "from": "0xeca7a53ba6a190c5d205bfdc7707cbc3399336c1",
      "to": "0x7fb6a056877c1da14a63bfecde95ebbfa854f07f",
      "contractAddress": null
    }
  ],
  "libraries": [],
  "pending": [],
  "returns": {},
  "timestamp": 1770505935923,
  "chain": 369,
  "commit": null
}