{
  "transactions": [
    {
      "hash": "0x1b5b0b8670aabe1d3f44bf5651014940e78aa4a44d06f8914123d56670e86ca6",
      "transactionType": "CALL",
      "contractName": null,
      "contractAddress": "0x167ad284c7bcc4d6342991aa258422e7a04f926e",
      "function": "makeCrime(uint8)",
      "arguments": [
        "0"
      ],
      "transaction": {
        "from": "0xeca7a53ba6a190c5d205bfdc7707cbc3399336c1",
        "to": "0x167ad284c7bcc4d6342991aa258422e7a04f926e",
        "gas": "0x4218c",
        "value": "0x0",
        "input": "0xc625abb40000000000000000000000000000000000000000000000000000000000000000",
        "nonce": "0x2bf",
        "chainId": "0x38"
      },
      "additionalContracts": [],
      "isFixedGasLimit": false
    }
  ],
  "receipts": [
    {
      "status": "0x1",
      "cumulativeGasUsed": "0xca5066",
      "logs": [
        {
          "address": "0x7371580cd13de739c734ae85062f75194d13fac2",
          "topics": [
            "0x0bff5315606c84d1cee047503678048ca39946be11bfdd5a8c03fe5e272d98e3"
          ],
          "data": "0x000000000000000000000000eca7a53ba6a190c5d205bfdc7707cbc3399336c1000000000000000000000000000000000000000000000000000000006984b4190000000000000000000000000000000000000000000000000000000000000000",
          "blockHash": "0xb54fb87507cc84b665f71030d0e4617d8550178db1fded044f8223c62654e7c5",
          "blockNumber": "0x4bc7c18",
          "blockTimestamp": "0x6984aed3",
          "transactionHash": "0x1b5b0b8670aabe1d3f44bf5651014940e78aa4a44d06f8914123d56670e86ca6",
          "transactionIndex": "0x4e",
          "logIndex": "0x1f0",
          "removed": false
        },
        {
          "address": "0xaae5ef15499c71301123ee4b13d20d570d24ad5e",
          "topics": [
            "0x6dd0730fb835f9bbe38532c3d82c7c87448bfdec295f1d7cd2d72ff339632a52"
          ],
          "data": "0x00000000000000000000000000000000000000000000000000000000000000c00000000000000000000000000000000000000000000000000000000000000100000000000000000000000000eca7a53ba6a190c5d205bfdc7707cbc3399336c10000000000000000000000000000000000000000000000000000000000000001000000000000000000000000000000000000000000000000000000006984aed3000000000000000000000000000000000000000000000000000000000000014000000000000000000000000000000000000000000000000000000000000000044a61696c000000000000000000000000000000000000000000000000000000000000000000000000000000000000000000000000000000000000000000000008496d707269736f6e0000000000000000000000000000000000000000000000000000000000000000000000000000000000000000000000000000000000000000",
          "blockHash": "0xb54fb87507cc84b665f71030d0e4617d8550178db1fded044f8223c62654e7c5",
          "blockNumber": "0x4bc7c18",
          "blockTimestamp": "0x6984aed3",
          "transactionHash": "0x1b5b0b8670aabe1d3f44bf5651014940e78aa4a44d06f8914123d56670e86ca6",
          "transactionIndex": "0x4e",
          "logIndex": "0x1f1",
          "removed": false
        },
        {
          "address": "0x167ad284c7bcc4d6342991aa258422e7a04f926e",
          "topics": [
            "0xe36ceebd3770780c5617d53efc7d77328074f1248146245ed3b854cbf651fb37"
          ],
          "data": "0x000000000000000000000000eca7a53ba6a190c5d205bfdc7707cbc3399336c100000000000000000000000000000000000000000000000000000000000000000000000000000000000000000000000000000000000000000000000000000000000000000000000000000000000000000000000000000000000000000000000100000000000000000000000000000000000000000000000000000000000000000000000000000000000000000000000000000000000000000000000000000000000000000000000000000000000000000000000000000000000000006984b257000000000000000000000000000000000000000000000000000000006984aed3",
          "blockHash": "0xb54fb87507cc84b665f71030d0e4617d8550178db1fded044f8223c62654e7c5",
          "blockNumber": "0x4bc7c18",
          "blockTimestamp": "0x6984aed3",
          "transactionHash": "0x1b5b0b8670aabe1d3f44bf5651014940e78aa4a44d06f8914123d56670e86ca6",
          "transactionIndex": "0x4e",
          "logIndex": "0x1f2",
          "removed": false
        }
      ],
      "logsBloom": "0x00000000000000000000000000000000001040040000000000000000400000000001000000000040000000000000000000000000000000000000000000000000000000000000000000200000000000000000000002000000001000000000000000000000000000000000000000000020000000000000000000000000000000000000000000000000000000100000000000000000000020000000000000000004000000000000000000000000000000000000000000000000000000000000000000000000000000000000000000000040000000000000000000000000000000800000000000000000000100000000002000000000000000000000000000001000",
      "type": "0x2",
      "transactionHash": "0x1b5b0b8670aabe1d3f44bf5651014940e78aa4a44d06f8914123d56670e86ca6",
      "transactionIndex": "0x4e",
      "blockHash": "0xb54fb87507cc84b665f71030d0e4617d8550178db1fded044f8223c62654e7c5",
      "blockNumber": "0x4bc7c18",
      "gasUsed": "0x2fda6",
      "effectiveGasPrice": "0x2faf080",
      "from": "0xeca7a53ba6a190c5d205bfdc7707cbc3399336c1",
      "to": "0x167ad284c7bcc4d6342991aa258422e7a04f926e",
      "contractAddress": null
    }
  ],
  "libraries": [],
  "pending": [],
  "returns": {},
  "timestamp": 1770303189339,
  "chain": 56,
  "commit": null
}