{
  "transactions": [
    {
      "hash": "0x9a2ca6d75199ffe8ffc3e59c0f0f81c447ed1190603f2e79980cf2faec4ca963",
      "transactionType": "CALL",
      "contractName": null,
      "contractAddress": "0x167ad284c7bcc4d6342991aa258422e7a04f926e",
      "function": "makeCrime(uint8)",
      "arguments": [
        "0"
      ],
      "transaction": {
        "from": "0xeca7a53ba6a190c5d205bfdc7707cbc3399336c1",
        "to": "0x167ad284c7bcc4d6342991aa258422e7a04f926e",
        "gas": "0x59794",
        "value": "0x0",
        "input": "0xc625abb40000000000000000000000000000000000000000000000000000000000000000",
        "nonce": "0x292",
        "chainId": "0x38"
      },
      "additionalContracts": [],
      "isFixedGasLimit": false
    }
  ],
  "receipts": [
    {
      "status": "0x1",
      "cumulativeGasUsed": "0xc750cf",
      "logs": [
        {
          "address": "0x7371580cd13de739c734ae85062f75194d13fac2",
          "topics": [
            "0x0bff5315606c84d1cee047503678048ca39946be11bfdd5a8c03fe5e272d98e3"
          ],
          "data": "0x000000000000000000000000eca7a53ba6a190c5d205bfdc7707cbc3399336c100000000000000000000000000000000000000000000000000000000698354920000000000000000000000000000000000000000000000000000000000000000",
          "blockHash": "0xf02abe694b063f340951eb74bd83377a5399e8cf5acfe1c228aa75f605a28fc0",
          "blockNumber": "0x4b96f0a",
          "blockTimestamp": "0x69834f4c",
          "transactionHash": "0x9a2ca6d75199ffe8ffc3e59c0f0f81c447ed1190603f2e79980cf2faec4ca963",
          "transactionIndex": "0x55",
          "logIndex": "0x198",
          "removed": false
        },
        {
          "address": "0xaae5ef15499c71301123ee4b13d20d570d24ad5e",
          "topics": [
            "0x6dd0730fb835f9bbe38532c3d82c7c87448bfdec295f1d7cd2d72ff339632a52"
          ],
          "data": "0x00000000000000000000000000000000000000000000000000000000000000c00000000000000000000000000000000000000000000000000000000000000100000000000000000000000000eca7a53ba6a190c5d205bfdc7707cbc3399336c100000000000000000000000000000000000000000000000000000000000000010000000000000000000000000000000000000000000000000000000069834f4c000000000000000000000000000000000000000000000000000000000000014000000000000000000000000000000000000000000000000000000000000000044a61696c000000000000000000000000000000000000000000000000000000000000000000000000000000000000000000000000000000000000000000000008496d707269736f6e0000000000000000000000000000000000000000000000000000000000000000000000000000000000000000000000000000000000000000",
          "blockHash": "0xf02abe694b063f340951eb74bd83377a5399e8cf5acfe1c228aa75f605a28fc0",
          "blockNumber": "0x4b96f0a",
          "blockTimestamp": "0x69834f4c",
          "transactionHash": "0x9a2ca6d75199ffe8ffc3e59c0f0f81c447ed1190603f2e79980cf2faec4ca963",
          "transactionIndex": "0x55",
          "logIndex": "0x199",
          "removed": false
        },
        {
          "address": "0x167ad284c7bcc4d6342991aa258422e7a04f926e",
          "topics": [
            "0xe36ceebd3770780c5617d53efc7d77328074f1248146245ed3b854cbf651fb37"
          ],
          "data": "0x000000000000000000000000eca7a53ba6a190c5d205bfdc7707cbc3399336c10000000000000000000000000000000000000000000000000000000000000000000000000000000000000000000000000000000000000000000000000000000000000000000000000000000000000000000000000000000000000000000000010000000000000000000000000000000000000000000000000000000000000000000000000000000000000000000000000000000000000000000000000000000000000000000000000000000000000000000000000000000000000000698352d00000000000000000000000000000000000000000000000000000000069834f4c",
          "blockHash": "0xf02abe694b063f340951eb74bd83377a5399e8cf5acfe1c228aa75f605a28fc0",
          "blockNumber": "0x4b96f0a",
          "blockTimestamp": "0x69834f4c",
          "transactionHash": "0x9a2ca6d75199ffe8ffc3e59c0f0f81c447ed1190603f2e79980cf2faec4ca963",
          "transactionIndex": "0x55",
          "logIndex": "0x19a",
          "removed": false
        }
      ],
      "logsBloom": "0x00000000000000000000000000000000001040040000000000000000400000000001000000000040000000000000000000000000000000000000000000000000000000000000000000200000000000000000000002000000001000000000000000000000000000000000000000000020000000000000000000000000000000000000000000000000000000100000000000000000000020000000000000000004000000000000000000000000000000000000000000000000000000000000000000000000000000000000000000000040000000000000000000000000000000800000000000000000000100000000002000000000000000000000000000001000",
      "type": "0x2",
      "transactionHash": "0x9a2ca6d75199ffe8ffc3e59c0f0f81c447ed1190603f2e79980cf2faec4ca963",
      "transactionIndex": "0x55",
      "blockHash": "0xf02abe694b063f340951eb74bd83377a5399e8cf5acfe1c228aa75f605a28fc0",
      "blockNumber": "0x4b96f0a",
      "gasUsed": "0x2fda6",
      "effectiveGasPrice": "0x2faf080",
      "from": "0xeca7a53ba6a190c5d205bfdc7707cbc3399336c1",
      "to": "0x167ad284c7bcc4d6342991aa258422e7a04f926e",
      "contractAddress": null
    }
  ],
  "libraries": [],
  "pending": [],
  "returns": {},
  "timestamp": 1770213197654,
  "chain": 56,
  "commit": null
}