{
  "transactions": [
    {
      "hash": "0x7c7dc7db5631a032edfcca8c331c95560e26db591a313bbc38567eec4a6e87fd",
      "transactionType": "CALL",
      "contractName": null,
      "contractAddress": "0x167ad284c7bcc4d6342991aa258422e7a04f926e",
      "function": "makeCrime(uint8)",
      "arguments": [
        "0"
      ],
      "transaction": {
        "from": "0xac56dc5a4a9de0197f7b8f584ea04ec7e0123dde",
        "to": "0x167ad284c7bcc4d6342991aa258422e7a04f926e",
        "gas": "0x2a0e7",
        "value": "0x0",
        "input": "0xc625abb40000000000000000000000000000000000000000000000000000000000000000",
        "nonce": "0xd0",
        "chainId": "0x38"
      },
      "additionalContracts": [],
      "isFixedGasLimit": false
    }
  ],
  "receipts": [
    {
      "status": "0x1",
      "cumulativeGasUsed": "0x8f7caa",
      "logs": [
        {
          "address": "0x167ad284c7bcc4d6342991aa258422e7a04f926e",
          "topics": [
            "0xe36ceebd3770780c5617d53efc7d77328074f1248146245ed3b854cbf651fb37"
          ],
          "data": "0x000000000000000000000000ac56dc5a4a9de0197f7b8f584ea04ec7e0123dde00000000000000000000000000000000000000000000000000000000000000000000000000000000000000000000000000000000000000000000000000000000000000000000000000000000000000000000000000000000000000000000000000000000000000000000000000000000000000000000000000000000000000000000000000000000000000000000000000000000000000000000000000000000000000000000000000000000000000000000000000000000000000006984b64d000000000000000000000000000000000000000000000000000000006984b2c9",
          "blockHash": "0x960d26f03e1b888a693d19c378c76d719882ffa0fd30398346ddc49c61b78def",
          "blockNumber": "0x4bc84e3",
          "blockTimestamp": "0x6984b2c9",
          "transactionHash": "0x7c7dc7db5631a032edfcca8c331c95560e26db591a313bbc38567eec4a6e87fd",
          "transactionIndex": "0x49",
          "logIndex": "0xec",
          "removed": false
        }
      ],
      "logsBloom": "0x00000000000000000000000000000000000000000000000000000000400000000000000000000040000000000000000000000000000000000000000000000000000000000000000000000000000000000000000000000000000000000000000000000000000000000000000000000000000000000000000000000000000000000000000000000000000000100000000000000000000020000000000000000004000000000000000000000000000000000000000000000000000000000000000000000000000000000000000000000000000000000000000000000000000000000000000000000000000100000000000000000000000000000000000000000000",
      "type": "0x2",
      "transactionHash": "0x7c7dc7db5631a032edfcca8c331c95560e26db591a313bbc38567eec4a6e87fd",
      "transactionIndex": "0x49",
      "blockHash": "0x960d26f03e1b888a693d19c378c76d719882ffa0fd30398346ddc49c61b78def",
      "blockNumber": "0x4bc84e3",
      "gasUsed": "0x1e72c",
      "effectiveGasPrice": "0x2faf080",
      "from": "0xac56dc5a4a9de0197f7b8f584ea04ec7e0123dde",
      "to": "0x167ad284c7bcc4d6342991aa258422e7a04f926e",
      "contractAddress": null
    }
  ],
  "libraries": [],
  "pending": [],
  "returns": {},
  "timestamp": 1770304203548,
  "chain": 56,
  "commit": null
}