{
  "transactions": [
    {
      "hash": "0x420dba22e6694dba56e633b8890b443e507f56f4675c4ecc120b0ff8823c87f9",
      "transactionType": "CALL",
      "contractName": null,
      "contractAddress": "0x167ad284c7bcc4d6342991aa258422e7a04f926e",
      "function": "makeCrime(uint8)",
      "arguments": [
        "0"
      ],
      "transaction": {
        "from": "0xec646a6c9000e04d050435340d9c42c039eb5648",
        "to": "0x167ad284c7bcc4d6342991aa258422e7a04f926e",
        "gas": "0x45b7c",
        "value": "0x0",
        "input": "0xc625abb40000000000000000000000000000000000000000000000000000000000000000",
        "nonce": "0x57",
        "chainId": "0x38"
      },
      "additionalContracts": [],
      "isFixedGasLimit": false
    }
  ],
  "receipts": [
    {
      "status": "0x1",
      "cumulativeGasUsed": "0x7f1b11",
      "logs": [
        {
          "address": "0x167ad284c7bcc4d6342991aa258422e7a04f926e",
          "topics": [
            "0xe36ceebd3770780c5617d53efc7d77328074f1248146245ed3b854cbf651fb37"
          ],
          "data": "0x000000000000000000000000ec646a6c9000e04d050435340d9c42c039eb56480000000000000000000000000000000000000000000000000000000000000000000000000000000000000000000000000000000000000000000000000000000000000000000000000000000000000000000000000000000000000000000000000000000000000000000000000000000000000000000000000000000000000000000000000000000000000000000000000000000000000000000000000000000000000000000000000000000000000000000000000000000000000000698391ad0000000000000000000000000000000000000000000000000000000069838e29",
          "blockHash": "0xf926c9dc58044261f494dca889de44ade5aaa12d262e836259ce3988a14d5c36",
          "blockNumber": "0x4b9fab9",
          "blockTimestamp": "0x69838e29",
          "transactionHash": "0x420dba22e6694dba56e633b8890b443e507f56f4675c4ecc120b0ff8823c87f9",
          "transactionIndex": "0x3d",
          "logIndex": "0x465",
          "removed": false
        }
      ],
      "logsBloom": "0x00000000000000000000000000000000000000000000000000000000400000000000000000000040000000000000000000000000000000000000000000000000000000000000000000000000000000000000000000000000000000000000000000000000000000000000000000000000000000000000000000000000000000000000000000000000000000100000000000000000000020000000000000000004000000000000000000000000000000000000000000000000000000000000000000000000000000000000000000000000000000000000000000000000000000000000000000000000000100000000000000000000000000000000000000000000",
      "type": "0x2",
      "transactionHash": "0x420dba22e6694dba56e633b8890b443e507f56f4675c4ecc120b0ff8823c87f9",
      "transactionIndex": "0x3d",
      "blockHash": "0xf926c9dc58044261f494dca889de44ade5aaa12d262e836259ce3988a14d5c36",
      "blockNumber": "0x4b9fab9",
      "gasUsed": "0x1e72c",
      "effectiveGasPrice": "0x2faf080",
      "from": "0xec646a6c9000e04d050435340d9c42c039eb5648",
      "to": "0x167ad284c7bcc4d6342991aa258422e7a04f926e",
      "contractAddress": null
    }
  ],
  "libraries": [],
  "pending": [],
  "returns": {},
  "timestamp": 1770229291489,
  "chain": 56,
  "commit": null
}