{
  "transactions": [
    {
      "hash": "0xa96638b796c8c15523e905cdc8c1a256276bf53029fa50ff26b1606722eee38e",
      "transactionType": "CALL",
      "contractName": null,
      "contractAddress": "0x167ad284c7bcc4d6342991aa258422e7a04f926e",
      "function": "makeCrime(uint8)",
      "arguments": [
        "0"
      ],
      "transaction": {
        "from": "0xaa73aa98480757d75aae288b5931261448eb0530",
        "to": "0x167ad284c7bcc4d6342991aa258422e7a04f926e",
        "gas": "0x45b7c",
        "value": "0x0",
        "input": "0xc625abb40000000000000000000000000000000000000000000000000000000000000000",
        "nonce": "0x123",
        "chainId": "0x38"
      },
      "additionalContracts": [],
      "isFixedGasLimit": false
    }
  ],
  "receipts": [
    {
      "status": "0x1",
      "cumulativeGasUsed": "0xb76dc6",
      "logs": [
        {
          "address": "0x167ad284c7bcc4d6342991aa258422e7a04f926e",
          "topics": [
            "0xe36ceebd3770780c5617d53efc7d77328074f1248146245ed3b854cbf651fb37"
          ],
          "data": "0x000000000000000000000000aa73aa98480757d75aae288b5931261448eb053000000000000000000000000000000000000000000000000000000000000000000000000000000000000000000000000000000000000000000000000000000000000000000000000000000000000000000000000000000000000000000000000000000000000000000000000000000000000000000000000000000000000000000000000000000000000000000000000000000000000000000000000000000000000000000000000000000000000000000000000000000000000000006983aa5f000000000000000000000000000000000000000000000000000000006983a6db",
          "blockHash": "0xa0327560cce3342ebff867bc68a654c7459be8d653fc199fc50c1ebc609d93a1",
          "blockNumber": "0x4ba3197",
          "blockTimestamp": "0x6983a6db",
          "transactionHash": "0xa96638b796c8c15523e905cdc8c1a256276bf53029fa50ff26b1606722eee38e",
          "transactionIndex": "0x3e",
          "logIndex": "0xe8",
          "removed": false
        }
      ],
      "logsBloom": "0x00000000000000000000000000000000000000000000000000000000400000000000000000000040000000000000000000000000000000000000000000000000000000000000000000000000000000000000000000000000000000000000000000000000000000000000000000000000000000000000000000000000000000000000000000000000000000100000000000000000000020000000000000000004000000000000000000000000000000000000000000000000000000000000000000000000000000000000000000000000000000000000000000000000000000000000000000000000000100000000000000000000000000000000000000000000",
      "type": "0x2",
      "transactionHash": "0xa96638b796c8c15523e905cdc8c1a256276bf53029fa50ff26b1606722eee38e",
      "transactionIndex": "0x3e",
      "blockHash": "0xa0327560cce3342ebff867bc68a654c7459be8d653fc199fc50c1ebc609d93a1",
      "blockNumber": "0x4ba3197",
      "gasUsed": "0x1e72c",
      "effectiveGasPrice": "0x2faf080",
      "from": "0xaa73aa98480757d75aae288b5931261448eb0530",
      "to": "0x167ad284c7bcc4d6342991aa258422e7a04f926e",
      "contractAddress": null
    }
  ],
  "libraries": [],
  "pending": [],
  "returns": {},
  "timestamp": 1770235612956,
  "chain": 56,
  "commit": null
}