{
  "transactions": [
    {
      "hash": "0xe35367d6e9ad2edb3c40bb3906ece430bc63565d0c45db5e4568d8022aab6cf5",
      "transactionType": "CALL",
      "contractName": null,
      "contractAddress": "0x167ad284c7bcc4d6342991aa258422e7a04f926e",
      "function": "makeCrime(uint8)",
      "arguments": [
        "0"
      ],
      "transaction": {
        "from": "0xaa73aa98480757d75aae288b5931261448eb0530",
        "to": "0x167ad284c7bcc4d6342991aa258422e7a04f926e",
        "gas": "0x45b7c",
        "value": "0x0",
        "input": "0xc625abb40000000000000000000000000000000000000000000000000000000000000000",
        "nonce": "0xf7",
        "chainId": "0x38"
      },
      "additionalContracts": [],
      "isFixedGasLimit": false
    }
  ],
  "receipts": [
    {
      "status": "0x1",
      "cumulativeGasUsed": "0x5bfe54",
      "logs": [
        {
          "address": "0x7371580cd13de739c734ae85062f75194d13fac2",
          "topics": [
            "0x0bff5315606c84d1cee047503678048ca39946be11bfdd5a8c03fe5e272d98e3"
          ],
          "data": "0x000000000000000000000000aa73aa98480757d75aae288b5931261448eb0530000000000000000000000000000000000000000000000000000000006980f1740000000000000000000000000000000000000000000000000000000000000000",
          "blockHash": "0x1af5f88e55492af2c60e9f57f25d246c7480bc9b2cf431b7fce6fead98f26c8e",
          "blockNumber": "0x4b421e6",
          "blockTimestamp": "0x6980ec2e",
          "transactionHash": "0xe35367d6e9ad2edb3c40bb3906ece430bc63565d0c45db5e4568d8022aab6cf5",
          "transactionIndex": "0x37",
          "logIndex": "0xb9",
          "removed": false
        },
        {
          "address": "0xaae5ef15499c71301123ee4b13d20d570d24ad5e",
          "topics": [
            "0x6dd0730fb835f9bbe38532c3d82c7c87448bfdec295f1d7cd2d72ff339632a52"
          ],
          "data": "0x00000000000000000000000000000000000000000000000000000000000000c00000000000000000000000000000000000000000000000000000000000000100000000000000000000000000aa73aa98480757d75aae288b5931261448eb05300000000000000000000000000000000000000000000000000000000000000001000000000000000000000000000000000000000000000000000000006980ec2e000000000000000000000000000000000000000000000000000000000000014000000000000000000000000000000000000000000000000000000000000000044a61696c000000000000000000000000000000000000000000000000000000000000000000000000000000000000000000000000000000000000000000000008496d707269736f6e0000000000000000000000000000000000000000000000000000000000000000000000000000000000000000000000000000000000000000",
          "blockHash": "0x1af5f88e55492af2c60e9f57f25d246c7480bc9b2cf431b7fce6fead98f26c8e",
          "blockNumber": "0x4b421e6",
          "blockTimestamp": "0x6980ec2e",
          "transactionHash": "0xe35367d6e9ad2edb3c40bb3906ece430bc63565d0c45db5e4568d8022aab6cf5",
          "transactionIndex": "0x37",
          "logIndex": "0xba",
          "removed": false
        },
        {
          "address": "0x167ad284c7bcc4d6342991aa258422e7a04f926e",
          "topics": [
            "0xe36ceebd3770780c5617d53efc7d77328074f1248146245ed3b854cbf651fb37"
          ],
          "data": "0x000000000000000000000000aa73aa98480757d75aae288b5931261448eb053000000000000000000000000000000000000000000000000000000000000000000000000000000000000000000000000000000000000000000000000000000000000000000000000000000000000000000000000000000000000000000000000100000000000000000000000000000000000000000000000000000000000000000000000000000000000000000000000000000000000000000000000000000000000000000000000000000000000000000000000000000000000000006980efb2000000000000000000000000000000000000000000000000000000006980ec2e",
          "blockHash": "0x1af5f88e55492af2c60e9f57f25d246c7480bc9b2cf431b7fce6fead98f26c8e",
          "blockNumber": "0x4b421e6",
          "blockTimestamp": "0x6980ec2e",
          "transactionHash": "0xe35367d6e9ad2edb3c40bb3906ece430bc63565d0c45db5e4568d8022aab6cf5",
          "transactionIndex": "0x37",
          "logIndex": "0xbb",
          "removed": false
        }
      ],
      "logsBloom": "0x00000000000000000000000000000000001040040000000000000000400000000001000000000040000000000000000000000000000000000000000000000000000000000000000000200000000000000000000002000000001000000000000000000000000000000000000000000020000000000000000000000000000000000000000000000000000000100000000000000000000020000000000000000004000000000000000000000000000000000000000000000000000000000000000000000000000000000000000000000040000000000000000000000000000000800000000000000000000100000000002000000000000000000000000000001000",
      "type": "0x2",
      "transactionHash": "0xe35367d6e9ad2edb3c40bb3906ece430bc63565d0c45db5e4568d8022aab6cf5",
      "transactionIndex": "0x37",
      "blockHash": "0x1af5f88e55492af2c60e9f57f25d246c7480bc9b2cf431b7fce6fead98f26c8e",
      "blockNumber": "0x4b421e6",
      "gasUsed": "0x2faba",
      "effectiveGasPrice": "0x2faf080",
      "from": "0xaa73aa98480757d75aae288b5931261448eb0530",
      "to": "0x167ad284c7bcc4d6342991aa258422e7a04f926e",
      "contractAddress": null
    }
  ],
  "libraries": [],
  "pending": [],
  "returns": {},
  "timestamp": 1770056752519,
  "chain": 56,
  "commit": null
}