{
  "transactions": [
    {
      "hash": "0x44a49d2077ee5e037520c3f9ce891e9d0e4d08cbe7bd3b90d01f00eab7aa2aa0",
      "transactionType": "CALL",
      "contractName": null,
      "contractAddress": "0x167ad284c7bcc4d6342991aa258422e7a04f926e",
      "function": "makeCrime(uint8)",
      "arguments": [
        "0"
      ],
      "transaction": {
        "from": "0xac56dc5a4a9de0197f7b8f584ea04ec7e0123dde",
        "to": "0x167ad284c7bcc4d6342991aa258422e7a04f926e",
        "gas": "0x45b7c",
        "value": "0x0",
        "input": "0xc625abb40000000000000000000000000000000000000000000000000000000000000000",
        "nonce": "0xe1",
        "chainId": "0x38"
      },
      "additionalContracts": [],
      "isFixedGasLimit": false
    }
  ],
  "receipts": [
    {
      "status": "0x1",
      "cumulativeGasUsed": "0x5fb3e4",
      "logs": [
        {
          "address": "0x167ad284c7bcc4d6342991aa258422e7a04f926e",
          "topics": [
            "0xe36ceebd3770780c5617d53efc7d77328074f1248146245ed3b854cbf651fb37"
          ],
          "data": "0x000000000000000000000000ac56dc5a4a9de0197f7b8f584ea04ec7e0123dde00000000000000000000000000000000000000000000000000000000000000000000000000000000000000000000000000000000000000000000000000000000000000000000000000000000000000000000000000000000000000000000000000000000000000000000000000000000000000000000000000000000000000000000000000000000000000000000000000000000000000000000000000000000000000000000000000000000000000000000000000000000000000006985cbef000000000000000000000000000000000000000000000000000000006985c86b",
          "blockHash": "0x4367de4d54440cd1cfcbbfb1fe3c3b68defd3725d720db54c1d5b69d748b94f4",
          "blockNumber": "0x4beedc5",
          "blockTimestamp": "0x6985c86b",
          "transactionHash": "0x44a49d2077ee5e037520c3f9ce891e9d0e4d08cbe7bd3b90d01f00eab7aa2aa0",
          "transactionIndex": "0x3c",
          "logIndex": "0xb1",
          "removed": false
        }
      ],
      "logsBloom": "0x00000000000000000000000000000000000000000000000000000000400000000000000000000040000000000000000000000000000000000000000000000000000000000000000000000000000000000000000000000000000000000000000000000000000000000000000000000000000000000000000000000000000000000000000000000000000000100000000000000000000020000000000000000004000000000000000000000000000000000000000000000000000000000000000000000000000000000000000000000000000000000000000000000000000000000000000000000000000100000000000000000000000000000000000000000000",
      "type": "0x2",
      "transactionHash": "0x44a49d2077ee5e037520c3f9ce891e9d0e4d08cbe7bd3b90d01f00eab7aa2aa0",
      "transactionIndex": "0x3c",
      "blockHash": "0x4367de4d54440cd1cfcbbfb1fe3c3b68defd3725d720db54c1d5b69d748b94f4",
      "blockNumber": "0x4beedc5",
      "gasUsed": "0x1e72c",
      "effectiveGasPrice": "0x2faf080",
      "from": "0xac56dc5a4a9de0197f7b8f584ea04ec7e0123dde",
      "to": "0x167ad284c7bcc4d6342991aa258422e7a04f926e",
      "contractAddress": null
    }
  ],
  "libraries": [],
  "pending": [],
  "returns": {},
  "timestamp": 1770375276925,
  "chain": 56,
  "commit": null
}