{
  "transactions": [
    {
      "hash": "0xaa553713e3ca1dde6ed3474dec962f77cdd6b9d9399ed2cd8aab7ee6af866ac5",
      "transactionType": "CALL",
      "contractName": null,
      "contractAddress": "0x167ad284c7bcc4d6342991aa258422e7a04f926e",
      "function": "makeCrime(uint8)",
      "arguments": [
        "0"
      ],
      "transaction": {
        "from": "0xec646a6c9000e04d050435340d9c42c039eb5648",
        "to": "0x167ad284c7bcc4d6342991aa258422e7a04f926e",
        "gas": "0x592fa",
        "value": "0x0",
        "input": "0xc625abb40000000000000000000000000000000000000000000000000000000000000000",
        "nonce": "0x65",
        "chainId": "0x38"
      },
      "additionalContracts": [],
      "isFixedGasLimit": false
    }
  ],
  "receipts": [
    {
      "status": "0x1",
      "cumulativeGasUsed": "0x7f176f",
      "logs": [
        {
          "address": "0x167ad284c7bcc4d6342991aa258422e7a04f926e",
          "topics": [
            "0xe36ceebd3770780c5617d53efc7d77328074f1248146245ed3b854cbf651fb37"
          ],
          "data": "0x000000000000000000000000ec646a6c9000e04d050435340d9c42c039eb564800000000000000000000000000000000000000000000000000000000000000000000000000000000000000000000000000000000000000000000000000000000000000000000000000000000000000000000000000000000000000000000000000000000000000000000000000000000000000000000000000000000000000000000000000000000000000000000000000000000000000000000000000000000000000000000000000000000000000000000000000000000000000006983bb5b000000000000000000000000000000000000000000000000000000006983b7d7",
          "blockHash": "0x56f1c9896b04cd2fae7c7a32d5f763f6e75d474687ea565c6ee7f8c3348d656d",
          "blockNumber": "0x4ba5755",
          "blockTimestamp": "0x6983b7d7",
          "transactionHash": "0xaa553713e3ca1dde6ed3474dec962f77cdd6b9d9399ed2cd8aab7ee6af866ac5",
          "transactionIndex": "0x36",
          "logIndex": "0xe3",
          "removed": false
        }
      ],
      "logsBloom": "0x00000000000000000000000000000000000000000000000000000000400000000000000000000040000000000000000000000000000000000000000000000000000000000000000000000000000000000000000000000000000000000000000000000000000000000000000000000000000000000000000000000000000000000000000000000000000000100000000000000000000020000000000000000004000000000000000000000000000000000000000000000000000000000000000000000000000000000000000000000000000000000000000000000000000000000000000000000000000100000000000000000000000000000000000000000000",
      "type": "0x2",
      "transactionHash": "0xaa553713e3ca1dde6ed3474dec962f77cdd6b9d9399ed2cd8aab7ee6af866ac5",
      "transactionIndex": "0x36",
      "blockHash": "0x56f1c9896b04cd2fae7c7a32d5f763f6e75d474687ea565c6ee7f8c3348d656d",
      "blockNumber": "0x4ba5755",
      "gasUsed": "0x1e72c",
      "effectiveGasPrice": "0x2faf080",
      "from": "0xec646a6c9000e04d050435340d9c42c039eb5648",
      "to": "0x167ad284c7bcc4d6342991aa258422e7a04f926e",
      "contractAddress": null
    }
  ],
  "libraries": [],
  "pending": [],
  "returns": {},
  "timestamp": 1770239960849,
  "chain": 56,
  "commit": null
}