{
  "transactions": [
    {
      "hash": "0x56cb6b554398a58faa47fcd6497171c9afec567f98e626e12330377034b4cf78",
      "transactionType": "CALL",
      "contractName": null,
      "contractAddress": "0x167ad284c7bcc4d6342991aa258422e7a04f926e",
      "function": "makeCrime(uint8)",
      "arguments": [
        "0"
      ],
      "transaction": {
        "from": "0xac56dc5a4a9de0197f7b8f584ea04ec7e0123dde",
        "to": "0x167ad284c7bcc4d6342991aa258422e7a04f926e",
        "gas": "0x45b7c",
        "value": "0x0",
        "input": "0xc625abb40000000000000000000000000000000000000000000000000000000000000000",
        "nonce": "0x11a",
        "chainId": "0x38"
      },
      "additionalContracts": [],
      "isFixedGasLimit": false
    }
  ],
  "receipts": [
    {
      "status": "0x1",
      "cumulativeGasUsed": "0x83fb7d",
      "logs": [
        {
          "address": "0x167ad284c7bcc4d6342991aa258422e7a04f926e",
          "topics": [
            "0xe36ceebd3770780c5617d53efc7d77328074f1248146245ed3b854cbf651fb37"
          ],
          "data": "0x000000000000000000000000ac56dc5a4a9de0197f7b8f584ea04ec7e0123dde00000000000000000000000000000000000000000000000000000000000000000000000000000000000000000000000000000000000000000000000000000000000000000000000000000000000000000000000000000000000000000000000000000000000000000000000000000000000000000000000000000000000000000000000000000000000000000000000000000000000000000000000000000000000000000000000000000000000000000000000000000000000000006987fb11000000000000000000000000000000000000000000000000000000006987f78d",
          "blockHash": "0x2b5e3f22aeb9c0f1f9aa58da84c8e2d30f7a9cd3629e1a6a3c2e47131b7dfb5f",
          "blockNumber": "0x4c3c814",
          "blockTimestamp": "0x6987f78d",
          "transactionHash": "0x56cb6b554398a58faa47fcd6497171c9afec567f98e626e12330377034b4cf78",
          "transactionIndex": "0x37",
          "logIndex": "0x107",
          "removed": false
        }
      ],
      "logsBloom": "0x00000000000000000000000000000000000000000000000000000000400000000000000000000040000000000000000000000000000000000000000000000000000000000000000000000000000000000000000000000000000000000000000000000000000000000000000000000000000000000000000000000000000000000000000000000000000000100000000000000000000020000000000000000004000000000000000000000000000000000000000000000000000000000000000000000000000000000000000000000000000000000000000000000000000000000000000000000000000100000000000000000000000000000000000000000000",
      "type": "0x2",
      "transactionHash": "0x56cb6b554398a58faa47fcd6497171c9afec567f98e626e12330377034b4cf78",
      "transactionIndex": "0x37",
      "blockHash": "0x2b5e3f22aeb9c0f1f9aa58da84c8e2d30f7a9cd3629e1a6a3c2e47131b7dfb5f",
      "blockNumber": "0x4c3c814",
      "gasUsed": "0x1e72c",
      "effectiveGasPrice": "0x2faf080",
      "from": "0xac56dc5a4a9de0197f7b8f584ea04ec7e0123dde",
      "to": "0x167ad284c7bcc4d6342991aa258422e7a04f926e",
      "contractAddress": null
    }
  ],
  "libraries": [],
  "pending": [],
  "returns": {},
  "timestamp": 1770518415375,
  "chain": 56,
  "commit": null
}