{
  "transactions": [
    {
      "hash": "0xb1fb3821ab47660ab8d63aa7fe40df2c92efd4e9d7b9fbf297cf9e89097474d1",
      "transactionType": "CALL",
      "contractName": null,
      "contractAddress": "0x167ad284c7bcc4d6342991aa258422e7a04f926e",
      "function": "makeCrime(uint8)",
      "arguments": [
        "0"
      ],
      "transaction": {
        "from": "0xaa73aa98480757d75aae288b5931261448eb0530",
        "to": "0x167ad284c7bcc4d6342991aa258422e7a04f926e",
        "gas": "0x2a0e7",
        "value": "0x0",
        "input": "0xc625abb40000000000000000000000000000000000000000000000000000000000000000",
        "nonce": "0x131",
        "chainId": "0x38"
      },
      "additionalContracts": [],
      "isFixedGasLimit": false
    }
  ],
  "receipts": [
    {
      "status": "0x1",
      "cumulativeGasUsed": "0x70dc5f",
      "logs": [
        {
          "address": "0x167ad284c7bcc4d6342991aa258422e7a04f926e",
          "topics": [
            "0xe36ceebd3770780c5617d53efc7d77328074f1248146245ed3b854cbf651fb37"
          ],
          "data": "0x000000000000000000000000aa73aa98480757d75aae288b5931261448eb053000000000000000000000000000000000000000000000000000000000000000000000000000000000000000000000000000000000000000000000000000000000000000000000000000000000000000000000000000000000000000000000000000000000000000000000000000000000000000000000000000000000000000000000000000000000000000000000000000000000000000000000000000000000000000000000000000000000000000000000000000000000000000006984b2ce000000000000000000000000000000000000000000000000000000006984af4a",
          "blockHash": "0x3431e2c2dda523eeb31745c8bab268fda05470315893c5c8eb148d9e49e18043",
          "blockNumber": "0x4bc7d1f",
          "blockTimestamp": "0x6984af4a",
          "transactionHash": "0xb1fb3821ab47660ab8d63aa7fe40df2c92efd4e9d7b9fbf297cf9e89097474d1",
          "transactionIndex": "0x2e",
          "logIndex": "0x174",
          "removed": false
        }
      ],
      "logsBloom": "0x00000000000000000000000000000000000000000000000000000000400000000000000000000040000000000000000000000000000000000000000000000000000000000000000000000000000000000000000000000000000000000000000000000000000000000000000000000000000000000000000000000000000000000000000000000000000000100000000000000000000020000000000000000004000000000000000000000000000000000000000000000000000000000000000000000000000000000000000000000000000000000000000000000000000000000000000000000000000100000000000000000000000000000000000000000000",
      "type": "0x2",
      "transactionHash": "0xb1fb3821ab47660ab8d63aa7fe40df2c92efd4e9d7b9fbf297cf9e89097474d1",
      "transactionIndex": "0x2e",
      "blockHash": "0x3431e2c2dda523eeb31745c8bab268fda05470315893c5c8eb148d9e49e18043",
      "blockNumber": "0x4bc7d1f",
      "gasUsed": "0x1e72c",
      "effectiveGasPrice": "0x2faf080",
      "from": "0xaa73aa98480757d75aae288b5931261448eb0530",
      "to": "0x167ad284c7bcc4d6342991aa258422e7a04f926e",
      "contractAddress": null
    }
  ],
  "libraries": [],
  "pending": [],
  "returns": {},
  "timestamp": 1770303307683,
  "chain": 56,
  "commit": null
}