{
  "transactions": [
    {
      "hash": "0x448fb4e5f29100d57146aa18ec58e0cab5b4f87df58dcdfa396473a8c23ff4a4",
      "transactionType": "CALL",
      "contractName": null,
      "contractAddress": "0x167ad284c7bcc4d6342991aa258422e7a04f926e",
      "function": "makeCrime(uint8)",
      "arguments": [
        "0"
      ],
      "transaction": {
        "from": "0xeca7a53ba6a190c5d205bfdc7707cbc3399336c1",
        "to": "0x167ad284c7bcc4d6342991aa258422e7a04f926e",
        "gas": "0x59794",
        "value": "0x0",
        "input": "0xc625abb40000000000000000000000000000000000000000000000000000000000000000",
        "nonce": "0x2c7",
        "chainId": "0x38"
      },
      "additionalContracts": [],
      "isFixedGasLimit": false
    }
  ],
  "receipts": [
    {
      "status": "0x1",
      "cumulativeGasUsed": "0x1179a82",
      "logs": [
        {
          "address": "0x167ad284c7bcc4d6342991aa258422e7a04f926e",
          "topics": [
            "0xe36ceebd3770780c5617d53efc7d77328074f1248146245ed3b854cbf651fb37"
          ],
          "data": "0x000000000000000000000000eca7a53ba6a190c5d205bfdc7707cbc3399336c100000000000000000000000000000000000000000000000000000000000000000000000000000000000000000000000000000000000000000000000000000000000000000000000000000000000000000000000000000000000000000000000000000000000000000000000000000000000000000000000000000000000000000000000000000000000000000000000000000000000000000000000000000000000000000000000000000000000000000000000000000000000000006984d6e7000000000000000000000000000000000000000000000000000000006984d363",
          "blockHash": "0xff5f578b5d89c81aa8cf027dfd1a71532cd2b42facc2f1f5ccbed001b3cdc991",
          "blockNumber": "0x4bccd53",
          "blockTimestamp": "0x6984d363",
          "transactionHash": "0x448fb4e5f29100d57146aa18ec58e0cab5b4f87df58dcdfa396473a8c23ff4a4",
          "transactionIndex": "0x9a",
          "logIndex": "0x21d",
          "removed": false
        }
      ],
      "logsBloom": "0x00000000000000000000000000000000000000000000000000000000400000000000000000000040000000000000000000000000000000000000000000000000000000000000000000000000000000000000000000000000000000000000000000000000000000000000000000000000000000000000000000000000000000000000000000000000000000100000000000000000000020000000000000000004000000000000000000000000000000000000000000000000000000000000000000000000000000000000000000000000000000000000000000000000000000000000000000000000000100000000000000000000000000000000000000000000",
      "type": "0x2",
      "transactionHash": "0x448fb4e5f29100d57146aa18ec58e0cab5b4f87df58dcdfa396473a8c23ff4a4",
      "transactionIndex": "0x9a",
      "blockHash": "0xff5f578b5d89c81aa8cf027dfd1a71532cd2b42facc2f1f5ccbed001b3cdc991",
      "blockNumber": "0x4bccd53",
      "gasUsed": "0x1ea18",
      "effectiveGasPrice": "0x2faf080",
      "from": "0xeca7a53ba6a190c5d205bfdc7707cbc3399336c1",
      "to": "0x167ad284c7bcc4d6342991aa258422e7a04f926e",
      "contractAddress": null
    }
  ],
  "libraries": [],
  "pending": [],
  "returns": {},
  "timestamp": 1770312548930,
  "chain": 56,
  "commit": null
}