{
  "transactions": [
    {
      "hash": "0x91c230d59af5cca8bdcb71435b013de18ce1833f451cbe9b13899e47fb0e43fd",
      "transactionType": "CALL",
      "contractName": null,
      "contractAddress": "0x167ad284c7bcc4d6342991aa258422e7a04f926e",
      "function": "makeCrime(uint8)",
      "arguments": [
        "0"
      ],
      "transaction": {
        "from": "0xaa73aa98480757d75aae288b5931261448eb0530",
        "to": "0x167ad284c7bcc4d6342991aa258422e7a04f926e",
        "gas": "0x2a0e7",
        "value": "0x0",
        "input": "0xc625abb40000000000000000000000000000000000000000000000000000000000000000",
        "nonce": "0x11c",
        "chainId": "0x38"
      },
      "additionalContracts": [],
      "isFixedGasLimit": false
    }
  ],
  "receipts": [
    {
      "status": "0x1",
      "cumulativeGasUsed": "0x81f06c",
      "logs": [
        {
          "address": "0x167ad284c7bcc4d6342991aa258422e7a04f926e",
          "topics": [
            "0xe36ceebd3770780c5617d53efc7d77328074f1248146245ed3b854cbf651fb37"
          ],
          "data": "0x000000000000000000000000aa73aa98480757d75aae288b5931261448eb0530000000000000000000000000000000000000000000000000000000000000000000000000000000000000000000000000000000000000000000000000000000000000000000000000000000000000000000000000000000000000000000000000000000000000000000000000000000000000000000000000000000000000000000000000000000000000000000000000000000000000000000000000000000000000000000000000000000000000000000000000000000000000000069839692000000000000000000000000000000000000000000000000000000006983930e",
          "blockHash": "0xfc8cc7c4e9a9cc1da04f2471d92b25c88a7060f5fca2899831d80d7c152b6e76",
          "blockNumber": "0x4ba0599",
          "blockTimestamp": "0x6983930e",
          "transactionHash": "0x91c230d59af5cca8bdcb71435b013de18ce1833f451cbe9b13899e47fb0e43fd",
          "transactionIndex": "0x34",
          "logIndex": "0x1d9",
          "removed": false
        }
      ],
      "logsBloom": "0x00000000000000000000000000000000000000000000000000000000400000000000000000000040000000000000000000000000000000000000000000000000000000000000000000000000000000000000000000000000000000000000000000000000000000000000000000000000000000000000000000000000000000000000000000000000000000100000000000000000000020000000000000000004000000000000000000000000000000000000000000000000000000000000000000000000000000000000000000000000000000000000000000000000000000000000000000000000000100000000000000000000000000000000000000000000",
      "type": "0x2",
      "transactionHash": "0x91c230d59af5cca8bdcb71435b013de18ce1833f451cbe9b13899e47fb0e43fd",
      "transactionIndex": "0x34",
      "blockHash": "0xfc8cc7c4e9a9cc1da04f2471d92b25c88a7060f5fca2899831d80d7c152b6e76",
      "blockNumber": "0x4ba0599",
      "gasUsed": "0x1e72c",
      "effectiveGasPrice": "0x2faf080",
      "from": "0xaa73aa98480757d75aae288b5931261448eb0530",
      "to": "0x167ad284c7bcc4d6342991aa258422e7a04f926e",
      "contractAddress": null
    }
  ],
  "libraries": [],
  "pending": [],
  "returns": {},
  "timestamp": 1770230544579,
  "chain": 56,
  "commit": null
}