{
  "transactions": [
    {
      "hash": "0x7a87e552ce4f10db4e29232886b622fa6f2b3aa4baf4feb758562781ef1f8cf6",
      "transactionType": "CALL",
      "contractName": null,
      "contractAddress": "0x167ad284c7bcc4d6342991aa258422e7a04f926e",
      "function": "makeCrime(uint8)",
      "arguments": [
        "0"
      ],
      "transaction": {
        "from": "0xaa73aa98480757d75aae288b5931261448eb0530",
        "to": "0x167ad284c7bcc4d6342991aa258422e7a04f926e",
        "gas": "0x2a0e7",
        "value": "0x0",
        "input": "0xc625abb40000000000000000000000000000000000000000000000000000000000000000",
        "nonce": "0x138",
        "chainId": "0x38"
      },
      "additionalContracts": [],
      "isFixedGasLimit": false
    }
  ],
  "receipts": [
    {
      "status": "0x1",
      "cumulativeGasUsed": "0xba99c6",
      "logs": [
        {
          "address": "0x167ad284c7bcc4d6342991aa258422e7a04f926e",
          "topics": [
            "0xe36ceebd3770780c5617d53efc7d77328074f1248146245ed3b854cbf651fb37"
          ],
          "data": "0x000000000000000000000000aa73aa98480757d75aae288b5931261448eb053000000000000000000000000000000000000000000000000000000000000000000000000000000000000000000000000000000000000000000000000000000000000000000000000000000000000000000000000000000000000000000000000000000000000000000000000000000000000000000000000000000000000000000000000000000000000000000000000000000000000000000000000000000000000000000000000000000000000000000000000000000000000000006984cda5000000000000000000000000000000000000000000000000000000006984ca21",
          "blockHash": "0x835d8731146b06281fee441358306f320cd6869eb2c505aa06776fc2227394a4",
          "blockNumber": "0x4bcb8c3",
          "blockTimestamp": "0x6984ca21",
          "transactionHash": "0x7a87e552ce4f10db4e29232886b622fa6f2b3aa4baf4feb758562781ef1f8cf6",
          "transactionIndex": "0x7a",
          "logIndex": "0x16e",
          "removed": false
        }
      ],
      "logsBloom": "0x00000000000000000000000000000000000000000000000000000000400000000000000000000040000000000000000000000000000000000000000000000000000000000000000000000000000000000000000000000000000000000000000000000000000000000000000000000000000000000000000000000000000000000000000000000000000000100000000000000000000020000000000000000004000000000000000000000000000000000000000000000000000000000000000000000000000000000000000000000000000000000000000000000000000000000000000000000000000100000000000000000000000000000000000000000000",
      "type": "0x2",
      "transactionHash": "0x7a87e552ce4f10db4e29232886b622fa6f2b3aa4baf4feb758562781ef1f8cf6",
      "transactionIndex": "0x7a",
      "blockHash": "0x835d8731146b06281fee441358306f320cd6869eb2c505aa06776fc2227394a4",
      "blockNumber": "0x4bcb8c3",
      "gasUsed": "0x1e72c",
      "effectiveGasPrice": "0x2faf080",
      "from": "0xaa73aa98480757d75aae288b5931261448eb0530",
      "to": "0x167ad284c7bcc4d6342991aa258422e7a04f926e",
      "contractAddress": null
    }
  ],
  "libraries": [],
  "pending": [],
  "returns": {},
  "timestamp": 1770310179620,
  "chain": 56,
  "commit": null
}