{
  "transactions": [
    {
      "hash": "0x49e87126d642d9d188ce6b8b6fd7ea1642b34d2a519ef2546bd988c65206ae53",
      "transactionType": "CALL",
      "contractName": null,
      "contractAddress": "0x167ad284c7bcc4d6342991aa258422e7a04f926e",
      "function": "makeCrime(uint8)",
      "arguments": [
        "0"
      ],
      "transaction": {
        "from": "0xaa73aa98480757d75aae288b5931261448eb0530",
        "to": "0x167ad284c7bcc4d6342991aa258422e7a04f926e",
        "gas": "0x592fa",
        "value": "0x0",
        "input": "0xc625abb40000000000000000000000000000000000000000000000000000000000000000",
        "nonce": "0x1a0",
        "chainId": "0x38"
      },
      "additionalContracts": [],
      "isFixedGasLimit": false
    }
  ],
  "receipts": [
    {
      "status": "0x1",
      "cumulativeGasUsed": "0x745c6b",
      "logs": [
        {
          "address": "0x7371580cd13de739c734ae85062f75194d13fac2",
          "topics": [
            "0x0bff5315606c84d1cee047503678048ca39946be11bfdd5a8c03fe5e272d98e3"
          ],
          "data": "0x000000000000000000000000aa73aa98480757d75aae288b5931261448eb05300000000000000000000000000000000000000000000000000000000069886d2e0000000000000000000000000000000000000000000000000000000000000000",
          "blockHash": "0x70cd7840e0e8b11e4952fe5631b5d359eee83cc6e28d809fb77cdf14bd99188d",
          "blockNumber": "0x4c4c1b2",
          "blockTimestamp": "0x698867e8",
          "transactionHash": "0x49e87126d642d9d188ce6b8b6fd7ea1642b34d2a519ef2546bd988c65206ae53",
          "transactionIndex": "0x40",
          "logIndex": "0x15d",
          "removed": false
        },
        {
          "address": "0xaae5ef15499c71301123ee4b13d20d570d24ad5e",
          "topics": [
            "0x6dd0730fb835f9bbe38532c3d82c7c87448bfdec295f1d7cd2d72ff339632a52"
          ],
          "data": "0x00000000000000000000000000000000000000000000000000000000000000c00000000000000000000000000000000000000000000000000000000000000100000000000000000000000000aa73aa98480757d75aae288b5931261448eb0530000000000000000000000000000000000000000000000000000000000000000100000000000000000000000000000000000000000000000000000000698867e8000000000000000000000000000000000000000000000000000000000000014000000000000000000000000000000000000000000000000000000000000000044a61696c000000000000000000000000000000000000000000000000000000000000000000000000000000000000000000000000000000000000000000000008496d707269736f6e0000000000000000000000000000000000000000000000000000000000000000000000000000000000000000000000000000000000000000",
          "blockHash": "0x70cd7840e0e8b11e4952fe5631b5d359eee83cc6e28d809fb77cdf14bd99188d",
          "blockNumber": "0x4c4c1b2",
          "blockTimestamp": "0x698867e8",
          "transactionHash": "0x49e87126d642d9d188ce6b8b6fd7ea1642b34d2a519ef2546bd988c65206ae53",
          "transactionIndex": "0x40",
          "logIndex": "0x15e",
          "removed": false
        },
        {
          "address": "0x167ad284c7bcc4d6342991aa258422e7a04f926e",
          "topics": [
            "0xe36ceebd3770780c5617d53efc7d77328074f1248146245ed3b854cbf651fb37"
          ],
          "data": "0x000000000000000000000000aa73aa98480757d75aae288b5931261448eb0530000000000000000000000000000000000000000000000000000000000000000000000000000000000000000000000000000000000000000000000000000000000000000000000000000000000000000000000000000000000000000000000001000000000000000000000000000000000000000000000000000000000000000000000000000000000000000000000000000000000000000000000000000000000000000000000000000000000000000000000000000000000000000069886b6c00000000000000000000000000000000000000000000000000000000698867e8",
          "blockHash": "0x70cd7840e0e8b11e4952fe5631b5d359eee83cc6e28d809fb77cdf14bd99188d",
          "blockNumber": "0x4c4c1b2",
          "blockTimestamp": "0x698867e8",
          "transactionHash": "0x49e87126d642d9d188ce6b8b6fd7ea1642b34d2a519ef2546bd988c65206ae53",
          "transactionIndex": "0x40",
          "logIndex": "0x15f",
          "removed": false
        }
      ],
      "logsBloom": "0x00000000000000000000000000000000001040040000000000000000400000000001000000000040000000000000000000000000000000000000000000000000000000000000000000200000000000000000000002000000001000000000000000000000000000000000000000000020000000000000000000000000000000000000000000000000000000100000000000000000000020000000000000000004000000000000000000000000000000000000000000000000000000000000000000000000000000000000000000000040000000000000000000000000000000800000000000000000000100000000002000000000000000000000000000001000",
      "type": "0x2",
      "transactionHash": "0x49e87126d642d9d188ce6b8b6fd7ea1642b34d2a519ef2546bd988c65206ae53",
      "transactionIndex": "0x40",
      "blockHash": "0x70cd7840e0e8b11e4952fe5631b5d359eee83cc6e28d809fb77cdf14bd99188d",
      "blockNumber": "0x4c4c1b2",
      "gasUsed": "0x2faba",
      "effectiveGasPrice": "0x2faf080",
      "from": "0xaa73aa98480757d75aae288b5931261448eb0530",
      "to": "0x167ad284c7bcc4d6342991aa258422e7a04f926e",
      "contractAddress": null
    }
  ],
  "libraries": [],
  "pending": [],
  "returns": {},
  "timestamp": 1770547178223,
  "chain": 56,
  "commit": null
}