{
  "transactions": [
    {
      "hash": "0xdc9ebdb53b83ee650af58a8b84bec5504d377d724bb49f2afe19beab95d3398a",
      "transactionType": "CALL",
      "contractName": null,
      "contractAddress": "0x167ad284c7bcc4d6342991aa258422e7a04f926e",
      "function": "makeCrime(uint8)",
      "arguments": [
        "0"
      ],
      "transaction": {
        "from": "0xec646a6c9000e04d050435340d9c42c039eb5648",
        "to": "0x167ad284c7bcc4d6342991aa258422e7a04f926e",
        "gas": "0x45b7c",
        "value": "0x0",
        "input": "0xc625abb40000000000000000000000000000000000000000000000000000000000000000",
        "nonce": "0x38",
        "chainId": "0x38"
      },
      "additionalContracts": [],
      "isFixedGasLimit": false
    }
  ],
  "receipts": [
    {
      "status": "0x1",
      "cumulativeGasUsed": "0x10747e1",
      "logs": [
        {
          "address": "0x7371580cd13de739c734ae85062f75194d13fac2",
          "topics": [
            "0x0bff5315606c84d1cee047503678048ca39946be11bfdd5a8c03fe5e272d98e3"
          ],
          "data": "0x000000000000000000000000ec646a6c9000e04d050435340d9c42c039eb564800000000000000000000000000000000000000000000000000000000698334a40000000000000000000000000000000000000000000000000000000000000000",
          "blockHash": "0xd3ef6a0fa115d2bf55ea702f0dd32ab787ed0a7fd51189942d643db4fd1b4232",
          "blockNumber": "0x4b9281f",
          "blockTimestamp": "0x69832f5e",
          "transactionHash": "0xdc9ebdb53b83ee650af58a8b84bec5504d377d724bb49f2afe19beab95d3398a",
          "transactionIndex": "0x92",
          "logIndex": "0x1b7",
          "removed": false
        },
        {
          "address": "0xaae5ef15499c71301123ee4b13d20d570d24ad5e",
          "topics": [
            "0x6dd0730fb835f9bbe38532c3d82c7c87448bfdec295f1d7cd2d72ff339632a52"
          ],
          "data": "0x00000000000000000000000000000000000000000000000000000000000000c00000000000000000000000000000000000000000000000000000000000000100000000000000000000000000ec646a6c9000e04d050435340d9c42c039eb564800000000000000000000000000000000000000000000000000000000000000010000000000000000000000000000000000000000000000000000000069832f5e000000000000000000000000000000000000000000000000000000000000014000000000000000000000000000000000000000000000000000000000000000044a61696c000000000000000000000000000000000000000000000000000000000000000000000000000000000000000000000000000000000000000000000008496d707269736f6e0000000000000000000000000000000000000000000000000000000000000000000000000000000000000000000000000000000000000000",
          "blockHash": "0xd3ef6a0fa115d2bf55ea702f0dd32ab787ed0a7fd51189942d643db4fd1b4232",
          "blockNumber": "0x4b9281f",
          "blockTimestamp": "0x69832f5e",
          "transactionHash": "0xdc9ebdb53b83ee650af58a8b84bec5504d377d724bb49f2afe19beab95d3398a",
          "transactionIndex": "0x92",
          "logIndex": "0x1b8",
          "removed": false
        },
        {
          "address": "0x167ad284c7bcc4d6342991aa258422e7a04f926e",
          "topics": [
            "0xe36ceebd3770780c5617d53efc7d77328074f1248146245ed3b854cbf651fb37"
          ],
          "data": "0x000000000000000000000000ec646a6c9000e04d050435340d9c42c039eb56480000000000000000000000000000000000000000000000000000000000000000000000000000000000000000000000000000000000000000000000000000000000000000000000000000000000000000000000000000000000000000000000010000000000000000000000000000000000000000000000000000000000000000000000000000000000000000000000000000000000000000000000000000000000000000000000000000000000000000000000000000000000000000698332e20000000000000000000000000000000000000000000000000000000069832f5e",
          "blockHash": "0xd3ef6a0fa115d2bf55ea702f0dd32ab787ed0a7fd51189942d643db4fd1b4232",
          "blockNumber": "0x4b9281f",
          "blockTimestamp": "0x69832f5e",
          "transactionHash": "0xdc9ebdb53b83ee650af58a8b84bec5504d377d724bb49f2afe19beab95d3398a",
          "transactionIndex": "0x92",
          "logIndex": "0x1b9",
          "removed": false
        }
      ],
      "logsBloom": "0x00000000000000000000000000000000001040040000000000000000400000000001000000000040000000000000000000000000000000000000000000000000000000000000000000200000000000000000000002000000001000000000000000000000000000000000000000000020000000000000000000000000000000000000000000000000000000100000000000000000000020000000000000000004000000000000000000000000000000000000000000000000000000000000000000000000000000000000000000000040000000000000000000000000000000800000000000000000000100000000002000000000000000000000000000001000",
      "type": "0x2",
      "transactionHash": "0xdc9ebdb53b83ee650af58a8b84bec5504d377d724bb49f2afe19beab95d3398a",
      "transactionIndex": "0x92",
      "blockHash": "0xd3ef6a0fa115d2bf55ea702f0dd32ab787ed0a7fd51189942d643db4fd1b4232",
      "blockNumber": "0x4b9281f",
      "gasUsed": "0x2faba",
      "effectiveGasPrice": "0x2faf080",
      "from": "0xec646a6c9000e04d050435340d9c42c039eb5648",
      "to": "0x167ad284c7bcc4d6342991aa258422e7a04f926e",
      "contractAddress": null
    }
  ],
  "libraries": [],
  "pending": [],
  "returns": {},
  "timestamp": 1770205023633,
  "chain": 56,
  "commit": null
}