{
  "transactions": [
    {
      "hash": "0x2f5e754aa50a3e6dd69a46fa7c3e4509adf9f209aea27e2203fbfab1824e59f4",
      "transactionType": "CALL",
      "contractName": null,
      "contractAddress": "0x167ad284c7bcc4d6342991aa258422e7a04f926e",
      "function": "makeCrime(uint8)",
      "arguments": [
        "0"
      ],
      "transaction": {
        "from": "0xaa73aa98480757d75aae288b5931261448eb0530",
        "to": "0x167ad284c7bcc4d6342991aa258422e7a04f926e",
        "gas": "0x2a0e7",
        "value": "0x0",
        "input": "0xc625abb40000000000000000000000000000000000000000000000000000000000000000",
        "nonce": "0x14b",
        "chainId": "0x38"
      },
      "additionalContracts": [],
      "isFixedGasLimit": false
    }
  ],
  "receipts": [
    {
      "status": "0x1",
      "cumulativeGasUsed": "0xff96b1",
      "logs": [
        {
          "address": "0x167ad284c7bcc4d6342991aa258422e7a04f926e",
          "topics": [
            "0xe36ceebd3770780c5617d53efc7d77328074f1248146245ed3b854cbf651fb37"
          ],
          "data": "0x000000000000000000000000aa73aa98480757d75aae288b5931261448eb05300000000000000000000000000000000000000000000000000000000000000000000000000000000000000000000000000000000000000000000000000000000000000000000000000000000000000000000000000000000000000000000000000000000000000000000000000000000000000000000000000000000000000000000000000000000000000000000000000000000000000000000000000000000000000000000000000000000000000000000000000000000000000000698603b80000000000000000000000000000000000000000000000000000000069860034",
          "blockHash": "0xc742a52c0ed5bf404ec70165f25ba2b0583355f871b7f0b942bd8eb7039ecb9d",
          "blockNumber": "0x4bf69bc",
          "blockTimestamp": "0x69860034",
          "transactionHash": "0x2f5e754aa50a3e6dd69a46fa7c3e4509adf9f209aea27e2203fbfab1824e59f4",
          "transactionIndex": "0xa4",
          "logIndex": "0x22b",
          "removed": false
        }
      ],
      "logsBloom": "0x00000000000000000000000000000000000000000000000000000000400000000000000000000040000000000000000000000000000000000000000000000000000000000000000000000000000000000000000000000000000000000000000000000000000000000000000000000000000000000000000000000000000000000000000000000000000000100000000000000000000020000000000000000004000000000000000000000000000000000000000000000000000000000000000000000000000000000000000000000000000000000000000000000000000000000000000000000000000100000000000000000000000000000000000000000000",
      "type": "0x2",
      "transactionHash": "0x2f5e754aa50a3e6dd69a46fa7c3e4509adf9f209aea27e2203fbfab1824e59f4",
      "transactionIndex": "0xa4",
      "blockHash": "0xc742a52c0ed5bf404ec70165f25ba2b0583355f871b7f0b942bd8eb7039ecb9d",
      "blockNumber": "0x4bf69bc",
      "gasUsed": "0x1e72c",
      "effectiveGasPrice": "0x2faf080",
      "from": "0xaa73aa98480757d75aae288b5931261448eb0530",
      "to": "0x167ad284c7bcc4d6342991aa258422e7a04f926e",
      "contractAddress": null
    }
  ],
  "libraries": [],
  "pending": [],
  "returns": {},
  "timestamp": 1770389558170,
  "chain": 56,
  "commit": null
}