{
  "transactions": [
    {
      "hash": "0x66e2c86d2569e173accfad927193c72f0e946bcb41d52e233ece143a288c76f3",
      "transactionType": "CALL",
      "contractName": null,
      "contractAddress": "0x167ad284c7bcc4d6342991aa258422e7a04f926e",
      "function": "makeCrime(uint8)",
      "arguments": [
        "0"
      ],
      "transaction": {
        "from": "0xaa73aa98480757d75aae288b5931261448eb0530",
        "to": "0x167ad284c7bcc4d6342991aa258422e7a04f926e",
        "gas": "0x592fa",
        "value": "0x0",
        "input": "0xc625abb40000000000000000000000000000000000000000000000000000000000000000",
        "nonce": "0x12d",
        "chainId": "0x38"
      },
      "additionalContracts": [],
      "isFixedGasLimit": false
    }
  ],
  "receipts": [
    {
      "status": "0x1",
      "cumulativeGasUsed": "0x697094",
      "logs": [
        {
          "address": "0x7371580cd13de739c734ae85062f75194d13fac2",
          "topics": [
            "0x0bff5315606c84d1cee047503678048ca39946be11bfdd5a8c03fe5e272d98e3"
          ],
          "data": "0x000000000000000000000000aa73aa98480757d75aae288b5931261448eb0530000000000000000000000000000000000000000000000000000000006983c68d0000000000000000000000000000000000000000000000000000000000000000",
          "blockHash": "0xb0fc9e08bae3f31b5fcde6c48bb60abcea48326d943b1a9ec24c6ea14974fff2",
          "blockNumber": "0x4ba6c4f",
          "blockTimestamp": "0x6983c147",
          "transactionHash": "0x66e2c86d2569e173accfad927193c72f0e946bcb41d52e233ece143a288c76f3",
          "transactionIndex": "0x2b",
          "logIndex": "0xd8",
          "removed": false
        },
        {
          "address": "0xaae5ef15499c71301123ee4b13d20d570d24ad5e",
          "topics": [
            "0x6dd0730fb835f9bbe38532c3d82c7c87448bfdec295f1d7cd2d72ff339632a52"
          ],
          "data": "0x00000000000000000000000000000000000000000000000000000000000000c00000000000000000000000000000000000000000000000000000000000000100000000000000000000000000aa73aa98480757d75aae288b5931261448eb05300000000000000000000000000000000000000000000000000000000000000001000000000000000000000000000000000000000000000000000000006983c147000000000000000000000000000000000000000000000000000000000000014000000000000000000000000000000000000000000000000000000000000000044a61696c000000000000000000000000000000000000000000000000000000000000000000000000000000000000000000000000000000000000000000000008496d707269736f6e0000000000000000000000000000000000000000000000000000000000000000000000000000000000000000000000000000000000000000",
          "blockHash": "0xb0fc9e08bae3f31b5fcde6c48bb60abcea48326d943b1a9ec24c6ea14974fff2",
          "blockNumber": "0x4ba6c4f",
          "blockTimestamp": "0x6983c147",
          "transactionHash": "0x66e2c86d2569e173accfad927193c72f0e946bcb41d52e233ece143a288c76f3",
          "transactionIndex": "0x2b",
          "logIndex": "0xd9",
          "removed": false
        },
        {
          "address": "0x167ad284c7bcc4d6342991aa258422e7a04f926e",
          "topics": [
            "0xe36ceebd3770780c5617d53efc7d77328074f1248146245ed3b854cbf651fb37"
          ],
          "data": "0x000000000000000000000000aa73aa98480757d75aae288b5931261448eb053000000000000000000000000000000000000000000000000000000000000000000000000000000000000000000000000000000000000000000000000000000000000000000000000000000000000000000000000000000000000000000000000100000000000000000000000000000000000000000000000000000000000000000000000000000000000000000000000000000000000000000000000000000000000000000000000000000000000000000000000000000000000000006983c4cb000000000000000000000000000000000000000000000000000000006983c147",
          "blockHash": "0xb0fc9e08bae3f31b5fcde6c48bb60abcea48326d943b1a9ec24c6ea14974fff2",
          "blockNumber": "0x4ba6c4f",
          "blockTimestamp": "0x6983c147",
          "transactionHash": "0x66e2c86d2569e173accfad927193c72f0e946bcb41d52e233ece143a288c76f3",
          "transactionIndex": "0x2b",
          "logIndex": "0xda",
          "removed": false
        }
      ],
      "logsBloom": "0x00000000000000000000000000000000001040040000000000000000400000000001000000000040000000000000000000000000000000000000000000000000000000000000000000200000000000000000000002000000001000000000000000000000000000000000000000000020000000000000000000000000000000000000000000000000000000100000000000000000000020000000000000000004000000000000000000000000000000000000000000000000000000000000000000000000000000000000000000000040000000000000000000000000000000800000000000000000000100000000002000000000000000000000000000001000",
      "type": "0x2",
      "transactionHash": "0x66e2c86d2569e173accfad927193c72f0e946bcb41d52e233ece143a288c76f3",
      "transactionIndex": "0x2b",
      "blockHash": "0xb0fc9e08bae3f31b5fcde6c48bb60abcea48326d943b1a9ec24c6ea14974fff2",
      "blockNumber": "0x4ba6c4f",
      "gasUsed": "0x2faba",
      "effectiveGasPrice": "0x2faf080",
      "from": "0xaa73aa98480757d75aae288b5931261448eb0530",
      "to": "0x167ad284c7bcc4d6342991aa258422e7a04f926e",
      "contractAddress": null
    }
  ],
  "libraries": [],
  "pending": [],
  "returns": {},
  "timestamp": 1770242377489,
  "chain": 56,
  "commit": null
}