{
  "transactions": [
    {
      "hash": "0x03e918e3ee64e074a18dff05214d686bb1250e36c07605130c5d0aa83e50f8c2",
      "transactionType": "CALL",
      "contractName": null,
      "contractAddress": "0x167ad284c7bcc4d6342991aa258422e7a04f926e",
      "function": "makeCrime(uint8)",
      "arguments": [
        "0"
      ],
      "transaction": {
        "from": "0xaa73aa98480757d75aae288b5931261448eb0530",
        "to": "0x167ad284c7bcc4d6342991aa258422e7a04f926e",
        "gas": "0x2a0e7",
        "value": "0x0",
        "input": "0xc625abb40000000000000000000000000000000000000000000000000000000000000000",
        "nonce": "0x139",
        "chainId": "0x38"
      },
      "additionalContracts": [],
      "isFixedGasLimit": false
    }
  ],
  "receipts": [
    {
      "status": "0x1",
      "cumulativeGasUsed": "0x844471",
      "logs": [
        {
          "address": "0x167ad284c7bcc4d6342991aa258422e7a04f926e",
          "topics": [
            "0xe36ceebd3770780c5617d53efc7d77328074f1248146245ed3b854cbf651fb37"
          ],
          "data": "0x000000000000000000000000aa73aa98480757d75aae288b5931261448eb053000000000000000000000000000000000000000000000000000000000000000000000000000000000000000000000000000000000000000000000000000000000000000000000000000000000000000000000000000000000000000000000000000000000000000000000000000000000000000000000000000000000000000000000000000000000000000000000000000000000000000000000000000000000000000000000000000000000000000000000000000000000000000006984d36f000000000000000000000000000000000000000000000000000000006984cfeb",
          "blockHash": "0xcc09ed628fd8e6308a0a335b1eea78fec5fa7da022e39243f82698ac793d133a",
          "blockNumber": "0x4bcc59f",
          "blockTimestamp": "0x6984cfeb",
          "transactionHash": "0x03e918e3ee64e074a18dff05214d686bb1250e36c07605130c5d0aa83e50f8c2",
          "transactionIndex": "0x2c",
          "logIndex": "0xb4",
          "removed": false
        }
      ],
      "logsBloom": "0x00000000000000000000000000000000000000000000000000000000400000000000000000000040000000000000000000000000000000000000000000000000000000000000000000000000000000000000000000000000000000000000000000000000000000000000000000000000000000000000000000000000000000000000000000000000000000100000000000000000000020000000000000000004000000000000000000000000000000000000000000000000000000000000000000000000000000000000000000000000000000000000000000000000000000000000000000000000000100000000000000000000000000000000000000000000",
      "type": "0x2",
      "transactionHash": "0x03e918e3ee64e074a18dff05214d686bb1250e36c07605130c5d0aa83e50f8c2",
      "transactionIndex": "0x2c",
      "blockHash": "0xcc09ed628fd8e6308a0a335b1eea78fec5fa7da022e39243f82698ac793d133a",
      "blockNumber": "0x4bcc59f",
      "gasUsed": "0x1e72c",
      "effectiveGasPrice": "0x2faf080",
      "from": "0xaa73aa98480757d75aae288b5931261448eb0530",
      "to": "0x167ad284c7bcc4d6342991aa258422e7a04f926e",
      "contractAddress": null
    }
  ],
  "libraries": [],
  "pending": [],
  "returns": {},
  "timestamp": 1770311661188,
  "chain": 56,
  "commit": null
}