{
  "transactions": [
    {
      "hash": "0x6a960b62103764fcff98cf92864ea3ebcbd4dffc7bda765250205c7f14bfcf26",
      "transactionType": "CALL",
      "contractName": null,
      "contractAddress": "0x167ad284c7bcc4d6342991aa258422e7a04f926e",
      "function": "makeCrime(uint8)",
      "arguments": [
        "0"
      ],
      "transaction": {
        "from": "0xeca7a53ba6a190c5d205bfdc7707cbc3399336c1",
        "to": "0x167ad284c7bcc4d6342991aa258422e7a04f926e",
        "gas": "0x5db94",
        "value": "0x0",
        "input": "0xc625abb40000000000000000000000000000000000000000000000000000000000000000",
        "nonce": "0x216",
        "chainId": "0x38"
      },
      "additionalContracts": [],
      "isFixedGasLimit": false
    }
  ],
  "receipts": [
    {
      "status": "0x1",
      "cumulativeGasUsed": "0x83e8b3",
      "logs": [
        {
          "address": "0x167ad284c7bcc4d6342991aa258422e7a04f926e",
          "topics": [
            "0xe36ceebd3770780c5617d53efc7d77328074f1248146245ed3b854cbf651fb37"
          ],
          "data": "0x000000000000000000000000eca7a53ba6a190c5d205bfdc7707cbc3399336c10000000000000000000000000000000000000000000000000000000000000000000000000000000000000000000000000000000000000000000000000000000000000000000000000000000000000000000000000000000000000000000000000000000000000000000000000000000000000000000000000000000000000000000000000000000000000000000000000000000000000000000000000000000000000000000000000000000000000000000000000000000000000000697a790b00000000000000000000000000000000000000000000000000000000697a7587",
          "blockHash": "0xf506a1c7a880b8459eb9fa4e3feba76b6b56755e9e199404dddcae21e561f0d1",
          "blockNumber": "0x4a5c5a3",
          "blockTimestamp": "0x697a7587",
          "transactionHash": "0x6a960b62103764fcff98cf92864ea3ebcbd4dffc7bda765250205c7f14bfcf26",
          "transactionIndex": "0x2f",
          "logIndex": "0x167",
          "removed": false
        }
      ],
      "logsBloom": "0x00000000000000000000000000000000000000000000000000000000400000000000000000000040000000000000000000000000000000000000000000000000000000000000000000000000000000000000000000000000000000000000000000000000000000000000000000000000000000000000000000000000000000000000000000000000000000100000000000000000000020000000000000000004000000000000000000000000000000000000000000000000000000000000000000000000000000000000000000000000000000000000000000000000000000000000000000000000000100000000000000000000000000000000000000000000",
      "type": "0x2",
      "transactionHash": "0x6a960b62103764fcff98cf92864ea3ebcbd4dffc7bda765250205c7f14bfcf26",
      "transactionIndex": "0x2f",
      "blockHash": "0xf506a1c7a880b8459eb9fa4e3feba76b6b56755e9e199404dddcae21e561f0d1",
      "blockNumber": "0x4a5c5a3",
      "gasUsed": "0x1ea18",
      "effectiveGasPrice": "0x2faf08d",
      "from": "0xeca7a53ba6a190c5d205bfdc7707cbc3399336c1",
      "to": "0x167ad284c7bcc4d6342991aa258422e7a04f926e",
      "contractAddress": null
    }
  ],
  "libraries": [],
  "pending": [],
  "returns": {},
  "timestamp": 1769633160637,
  "chain": 56,
  "commit": null
}