{
  "transactions": [
    {
      "hash": "0x1bf4c3161e4ef95df0a0ed3ada670f4a983408c5bb86cbe5f5a2d1f1cd957c4d",
      "transactionType": "CALL",
      "contractName": null,
      "contractAddress": "0x167ad284c7bcc4d6342991aa258422e7a04f926e",
      "function": "makeCrime(uint8)",
      "arguments": [
        "0"
      ],
      "transaction": {
        "from": "0xac56dc5a4a9de0197f7b8f584ea04ec7e0123dde",
        "to": "0x167ad284c7bcc4d6342991aa258422e7a04f926e",
        "gas": "0x2a0e7",
        "value": "0x0",
        "input": "0xc625abb40000000000000000000000000000000000000000000000000000000000000000",
        "nonce": "0x118",
        "chainId": "0x38"
      },
      "additionalContracts": [],
      "isFixedGasLimit": false
    }
  ],
  "receipts": [
    {
      "status": "0x1",
      "cumulativeGasUsed": "0x91051d",
      "logs": [
        {
          "address": "0x167ad284c7bcc4d6342991aa258422e7a04f926e",
          "topics": [
            "0xe36ceebd3770780c5617d53efc7d77328074f1248146245ed3b854cbf651fb37"
          ],
          "data": "0x000000000000000000000000ac56dc5a4a9de0197f7b8f584ea04ec7e0123dde00000000000000000000000000000000000000000000000000000000000000000000000000000000000000000000000000000000000000000000000000000000000000000000000000000000000000000000000000000000000000000000000000000000000000000000000000000000000000000000000000000000000000000000000000000000000000000000000000000000000000000000000000000000000000000000000000000000000000000000000000000000000000006987f61e000000000000000000000000000000000000000000000000000000006987f29a",
          "blockHash": "0xb7342a50ca3255d00a05e0e61135802dc30cfb91d95fe9f9a3af69bc3eb68eb5",
          "blockNumber": "0x4c3bd15",
          "blockTimestamp": "0x6987f29a",
          "transactionHash": "0x1bf4c3161e4ef95df0a0ed3ada670f4a983408c5bb86cbe5f5a2d1f1cd957c4d",
          "transactionIndex": "0x45",
          "logIndex": "0x10e",
          "removed": false
        }
      ],
      "logsBloom": "0x00000000000000000000000000000000000000000000000000000000400000000000000000000040000000000000000000000000000000000000000000000000000000000000000000000000000000000000000000000000000000000000000000000000000000000000000000000000000000000000000000000000000000000000000000000000000000100000000000000000000020000000000000000004000000000000000000000000000000000000000000000000000000000000000000000000000000000000000000000000000000000000000000000000000000000000000000000000000100000000000000000000000000000000000000000000",
      "type": "0x2",
      "transactionHash": "0x1bf4c3161e4ef95df0a0ed3ada670f4a983408c5bb86cbe5f5a2d1f1cd957c4d",
      "transactionIndex": "0x45",
      "blockHash": "0xb7342a50ca3255d00a05e0e61135802dc30cfb91d95fe9f9a3af69bc3eb68eb5",
      "blockNumber": "0x4c3bd15",
      "gasUsed": "0x1e72c",
      "effectiveGasPrice": "0x2faf080",
      "from": "0xac56dc5a4a9de0197f7b8f584ea04ec7e0123dde",
      "to": "0x167ad284c7bcc4d6342991aa258422e7a04f926e",
      "contractAddress": null
    }
  ],
  "libraries": [],
  "pending": [],
  "returns": {},
  "timestamp": 1770517148471,
  "chain": 56,
  "commit": null
}