{
  "transactions": [
    {
      "hash": "0xe8f7953a826c42ee86f9cacd26539fb9f1b7c4b242fe48bcc28fea85dd6d40fe",
      "transactionType": "CALL",
      "contractName": null,
      "contractAddress": "0x167ad284c7bcc4d6342991aa258422e7a04f926e",
      "function": "makeCrime(uint8)",
      "arguments": [
        "0"
      ],
      "transaction": {
        "from": "0xaa73aa98480757d75aae288b5931261448eb0530",
        "to": "0x167ad284c7bcc4d6342991aa258422e7a04f926e",
        "gas": "0x45b7c",
        "value": "0x0",
        "input": "0xc625abb40000000000000000000000000000000000000000000000000000000000000000",
        "nonce": "0xf3",
        "chainId": "0x38"
      },
      "additionalContracts": [],
      "isFixedGasLimit": false
    }
  ],
  "receipts": [
    {
      "status": "0x1",
      "cumulativeGasUsed": "0xcf6970",
      "logs": [
        {
          "address": "0x167ad284c7bcc4d6342991aa258422e7a04f926e",
          "topics": [
            "0xe36ceebd3770780c5617d53efc7d77328074f1248146245ed3b854cbf651fb37"
          ],
          "data": "0x000000000000000000000000aa73aa98480757d75aae288b5931261448eb053000000000000000000000000000000000000000000000000000000000000000000000000000000000000000000000000000000000000000000000000000000000000000000000000000000000000000000000000000000000000000000000000000000000000000000000000000000000000000000000000000000000000000000000000000000000000000000000000000000000000000000000000000000000000000000000000000000000000000000000000000000000000000006980e429000000000000000000000000000000000000000000000000000000006980e0a5",
          "blockHash": "0xa18b02f1cf9354607f75321c1a1c795b4e2c1e4c0d02170dbee502596a6d78b3",
          "blockNumber": "0x4b40848",
          "blockTimestamp": "0x6980e0a5",
          "transactionHash": "0xe8f7953a826c42ee86f9cacd26539fb9f1b7c4b242fe48bcc28fea85dd6d40fe",
          "transactionIndex": "0x6f",
          "logIndex": "0x13b",
          "removed": false
        }
      ],
      "logsBloom": "0x00000000000000000000000000000000000000000000000000000000400000000000000000000040000000000000000000000000000000000000000000000000000000000000000000000000000000000000000000000000000000000000000000000000000000000000000000000000000000000000000000000000000000000000000000000000000000100000000000000000000020000000000000000004000000000000000000000000000000000000000000000000000000000000000000000000000000000000000000000000000000000000000000000000000000000000000000000000000100000000000000000000000000000000000000000000",
      "type": "0x2",
      "transactionHash": "0xe8f7953a826c42ee86f9cacd26539fb9f1b7c4b242fe48bcc28fea85dd6d40fe",
      "transactionIndex": "0x6f",
      "blockHash": "0xa18b02f1cf9354607f75321c1a1c795b4e2c1e4c0d02170dbee502596a6d78b3",
      "blockNumber": "0x4b40848",
      "gasUsed": "0x1e72c",
      "effectiveGasPrice": "0x2faf080",
      "from": "0xaa73aa98480757d75aae288b5931261448eb0530",
      "to": "0x167ad284c7bcc4d6342991aa258422e7a04f926e",
      "contractAddress": null
    }
  ],
  "libraries": [],
  "pending": [],
  "returns": {},
  "timestamp": 1770053798894,
  "chain": 56,
  "commit": null
}