{
  "transactions": [
    {
      "hash": "0x27ac771f7072c63abb2b2bc31de82076b6afa4b760e0a0b9334725420d7d6f95",
      "transactionType": "CALL",
      "contractName": null,
      "contractAddress": "0x167ad284c7bcc4d6342991aa258422e7a04f926e",
      "function": "makeCrime(uint8)",
      "arguments": [
        "0"
      ],
      "transaction": {
        "from": "0xeca7a53ba6a190c5d205bfdc7707cbc3399336c1",
        "to": "0x167ad284c7bcc4d6342991aa258422e7a04f926e",
        "gas": "0x59794",
        "value": "0x0",
        "input": "0xc625abb40000000000000000000000000000000000000000000000000000000000000000",
        "nonce": "0x2e9",
        "chainId": "0x38"
      },
      "additionalContracts": [],
      "isFixedGasLimit": false
    }
  ],
  "receipts": [
    {
      "status": "0x1",
      "cumulativeGasUsed": "0x4a05fe",
      "logs": [
        {
          "address": "0x167ad284c7bcc4d6342991aa258422e7a04f926e",
          "topics": [
            "0xe36ceebd3770780c5617d53efc7d77328074f1248146245ed3b854cbf651fb37"
          ],
          "data": "0x000000000000000000000000eca7a53ba6a190c5d205bfdc7707cbc3399336c1000000000000000000000000000000000000000000000000000000000000000000000000000000000000000000000000000000000000000000000000000000000000000000000000000000000000000000000000000000000000000000000000000000000000000000000000000000000000000000000000000000000000000000000000000000000000000000000000000000000000000000000000000000000000000000000000000000000000000000000000000000000000000069876d7300000000000000000000000000000000000000000000000000000000698769ef",
          "blockHash": "0x8b01e1469015b254bb8f101038832d6fd6c2b32237326a13dfbe8491a4743baa",
          "blockNumber": "0x4c28d62",
          "blockTimestamp": "0x698769ef",
          "transactionHash": "0x27ac771f7072c63abb2b2bc31de82076b6afa4b760e0a0b9334725420d7d6f95",
          "transactionIndex": "0x26",
          "logIndex": "0xaa",
          "removed": false
        }
      ],
      "logsBloom": "0x00000000000000000000000000000000000000000000000000000000400000000000000000000040000000000000000000000000000000000000000000000000000000000000000000000000000000000000000000000000000000000000000000000000000000000000000000000000000000000000000000000000000000000000000000000000000000100000000000000000000020000000000000000004000000000000000000000000000000000000000000000000000000000000000000000000000000000000000000000000000000000000000000000000000000000000000000000000000100000000000000000000000000000000000000000000",
      "type": "0x2",
      "transactionHash": "0x27ac771f7072c63abb2b2bc31de82076b6afa4b760e0a0b9334725420d7d6f95",
      "transactionIndex": "0x26",
      "blockHash": "0x8b01e1469015b254bb8f101038832d6fd6c2b32237326a13dfbe8491a4743baa",
      "blockNumber": "0x4c28d62",
      "gasUsed": "0x1ea18",
      "effectiveGasPrice": "0x2faf080",
      "from": "0xeca7a53ba6a190c5d205bfdc7707cbc3399336c1",
      "to": "0x167ad284c7bcc4d6342991aa258422e7a04f926e",
      "contractAddress": null
    }
  ],
  "libraries": [],
  "pending": [],
  "returns": {},
  "timestamp": 1770482160650,
  "chain": 56,
  "commit": null
}