{
  "transactions": [
    {
      "hash": "0x24e637d96b1d3e503e5bada947102ffb29c7ccc2d6f8c297b79fd8b57ef8cc7a",
      "transactionType": "CALL",
      "contractName": null,
      "contractAddress": "0x167ad284c7bcc4d6342991aa258422e7a04f926e",
      "function": "makeCrime(uint8)",
      "arguments": [
        "0"
      ],
      "transaction": {
        "from": "0xaa73aa98480757d75aae288b5931261448eb0530",
        "to": "0x167ad284c7bcc4d6342991aa258422e7a04f926e",
        "gas": "0x2a0e7",
        "value": "0x0",
        "input": "0xc625abb40000000000000000000000000000000000000000000000000000000000000000",
        "nonce": "0x181",
        "chainId": "0x38"
      },
      "additionalContracts": [],
      "isFixedGasLimit": false
    }
  ],
  "receipts": [
    {
      "status": "0x1",
      "cumulativeGasUsed": "0xaece90",
      "logs": [
        {
          "address": "0x167ad284c7bcc4d6342991aa258422e7a04f926e",
          "topics": [
            "0xe36ceebd3770780c5617d53efc7d77328074f1248146245ed3b854cbf651fb37"
          ],
          "data": "0x000000000000000000000000aa73aa98480757d75aae288b5931261448eb053000000000000000000000000000000000000000000000000000000000000000000000000000000000000000000000000000000000000000000000000000000000000000000000000000000000000000000000000000000000000000000000000000000000000000000000000000000000000000000000000000000000000000000000000000000000000000000000000000000000000000000000000000000000000000000000000000000000000000000000000000000000000000006988030a000000000000000000000000000000000000000000000000000000006987ff86",
          "blockHash": "0x7b72edcfb788fd3a138088f41de0991cdf72b5bccdcdcd7400855aae8b0d0b2f",
          "blockNumber": "0x4c3d9cb",
          "blockTimestamp": "0x6987ff86",
          "transactionHash": "0x24e637d96b1d3e503e5bada947102ffb29c7ccc2d6f8c297b79fd8b57ef8cc7a",
          "transactionIndex": "0x44",
          "logIndex": "0x101",
          "removed": false
        }
      ],
      "logsBloom": "0x00000000000000000000000000000000000000000000000000000000400000000000000000000040000000000000000000000000000000000000000000000000000000000000000000000000000000000000000000000000000000000000000000000000000000000000000000000000000000000000000000000000000000000000000000000000000000100000000000000000000020000000000000000004000000000000000000000000000000000000000000000000000000000000000000000000000000000000000000000000000000000000000000000000000000000000000000000000000100000000000000000000000000000000000000000000",
      "type": "0x2",
      "transactionHash": "0x24e637d96b1d3e503e5bada947102ffb29c7ccc2d6f8c297b79fd8b57ef8cc7a",
      "transactionIndex": "0x44",
      "blockHash": "0x7b72edcfb788fd3a138088f41de0991cdf72b5bccdcdcd7400855aae8b0d0b2f",
      "blockNumber": "0x4c3d9cb",
      "gasUsed": "0x1e72c",
      "effectiveGasPrice": "0x2faf080",
      "from": "0xaa73aa98480757d75aae288b5931261448eb0530",
      "to": "0x167ad284c7bcc4d6342991aa258422e7a04f926e",
      "contractAddress": null
    }
  ],
  "libraries": [],
  "pending": [],
  "returns": {},
  "timestamp": 1770520456172,
  "chain": 56,
  "commit": null
}