{
  "transactions": [
    {
      "hash": "0xa6a5a3da68d941e2b56a4fb9ae7a807b9cba275a95a44ebd312e515a28b34bd1",
      "transactionType": "CALL",
      "contractName": null,
      "contractAddress": "0x167ad284c7bcc4d6342991aa258422e7a04f926e",
      "function": "makeCrime(uint8)",
      "arguments": [
        "1"
      ],
      "transaction": {
        "from": "0x4c62f6121e6f967a0872da8364995e9b68c1e82f",
        "to": "0x167ad284c7bcc4d6342991aa258422e7a04f926e",
        "gas": "0x59815",
        "value": "0x0",
        "input": "0xc625abb40000000000000000000000000000000000000000000000000000000000000001",
        "nonce": "0x1e4",
        "chainId": "0x38"
      },
      "additionalContracts": [],
      "isFixedGasLimit": false
    }
  ],
  "receipts": [
    {
      "status": "0x1",
      "cumulativeGasUsed": "0x6cb870",
      "logs": [
        {
          "address": "0x167ad284c7bcc4d6342991aa258422e7a04f926e",
          "topics": [
            "0xe36ceebd3770780c5617d53efc7d77328074f1248146245ed3b854cbf651fb37"
          ],
          "data": "0x0000000000000000000000004c62f6121e6f967a0872da8364995e9b68c1e82f0000000000000000000000000000000000000000000000000000000000000001000000000000000000000000000000000000000000000000000000000000000000000000000000000000000000000000000000000000000000000000000000000000000000000000000000000000000000000000000000000000000000000000000000000000000000000000000000000000000000000000000000000000000000000000000000000000000000000000000000000000000000000000698881ea0000000000000000000000000000000000000000000000000000000069887e66",
          "blockHash": "0x68b71ccec420b104eda96c7111e0be645e76e9f102b1f6e1ac459c0b84463286",
          "blockNumber": "0x4c4f3ad",
          "blockTimestamp": "0x69887e66",
          "transactionHash": "0xa6a5a3da68d941e2b56a4fb9ae7a807b9cba275a95a44ebd312e515a28b34bd1",
          "transactionIndex": "0x42",
          "logIndex": "0xf5",
          "removed": false
        }
      ],
      "logsBloom": "0x00000000000000000000000000000000000000000000000000000000400000000000000000000040000000000000000000000000000000000000000000000000000000000000000000000000000000000000000000000000000000000000000000000000000000000000000000000000000000000000000000000000000000000000000000000000000000100000000000000000000020000000000000000004000000000000000000000000000000000000000000000000000000000000000000000000000000000000000000000000000000000000000000000000000000000000000000000000000100000000000000000000000000000000000000000000",
      "type": "0x2",
      "transactionHash": "0xa6a5a3da68d941e2b56a4fb9ae7a807b9cba275a95a44ebd312e515a28b34bd1",
      "transactionIndex": "0x42",
      "blockHash": "0x68b71ccec420b104eda96c7111e0be645e76e9f102b1f6e1ac459c0b84463286",
      "blockNumber": "0x4c4f3ad",
      "gasUsed": "0x1ea76",
      "effectiveGasPrice": "0x2faf080",
      "from": "0x4c62f6121e6f967a0872da8364995e9b68c1e82f",
      "to": "0x167ad284c7bcc4d6342991aa258422e7a04f926e",
      "contractAddress": null
    }
  ],
  "libraries": [],
  "pending": [],
  "returns": {},
  "timestamp": 1770552936548,
  "chain": 56,
  "commit": null
}