{
  "transactions": [
    {
      "hash": "0x834ca6538283441749a97d71b98e1eafdd8985d6136fe93026ee1fc50b462392",
      "transactionType": "CALL",
      "contractName": null,
      "contractAddress": "0x167ad284c7bcc4d6342991aa258422e7a04f926e",
      "function": "makeCrime(uint8)",
      "arguments": [
        "0"
      ],
      "transaction": {
        "from": "0xeca7a53ba6a190c5d205bfdc7707cbc3399336c1",
        "to": "0x167ad284c7bcc4d6342991aa258422e7a04f926e",
        "gas": "0x4218c",
        "value": "0x0",
        "input": "0xc625abb40000000000000000000000000000000000000000000000000000000000000000",
        "nonce": "0x29e",
        "chainId": "0x38"
      },
      "additionalContracts": [],
      "isFixedGasLimit": false
    }
  ],
  "receipts": [
    {
      "status": "0x1",
      "cumulativeGasUsed": "0x1eb39e4",
      "logs": [
        {
          "address": "0x167ad284c7bcc4d6342991aa258422e7a04f926e",
          "topics": [
            "0xe36ceebd3770780c5617d53efc7d77328074f1248146245ed3b854cbf651fb37"
          ],
          "data": "0x000000000000000000000000eca7a53ba6a190c5d205bfdc7707cbc3399336c100000000000000000000000000000000000000000000000000000000000000000000000000000000000000000000000000000000000000000000000000000000000000000000000000000000000000000000000000000000000000000000000000000000000000000000000000000000000000000000000000000000000000000000000000000000000000000000000000000000000000000000000000000000000000000000000000000000000000000000000000000000000000006983762900000000000000000000000000000000000000000000000000000000698372a5",
          "blockHash": "0xafaeeb226eb7d787474f957d3c9051ed857dd539b7a7f0fc1fe50f10fdc700ea",
          "blockNumber": "0x4b9bd94",
          "blockTimestamp": "0x698372a5",
          "transactionHash": "0x834ca6538283441749a97d71b98e1eafdd8985d6136fe93026ee1fc50b462392",
          "transactionIndex": "0x3d",
          "logIndex": "0x102",
          "removed": false
        }
      ],
      "logsBloom": "0x00000000000000000000000000000000000000000000000000000000400000000000000000000040000000000000000000000000000000000000000000000000000000000000000000000000000000000000000000000000000000000000000000000000000000000000000000000000000000000000000000000000000000000000000000000000000000100000000000000000000020000000000000000004000000000000000000000000000000000000000000000000000000000000000000000000000000000000000000000000000000000000000000000000000000000000000000000000000100000000000000000000000000000000000000000000",
      "type": "0x2",
      "transactionHash": "0x834ca6538283441749a97d71b98e1eafdd8985d6136fe93026ee1fc50b462392",
      "transactionIndex": "0x3d",
      "blockHash": "0xafaeeb226eb7d787474f957d3c9051ed857dd539b7a7f0fc1fe50f10fdc700ea",
      "blockNumber": "0x4b9bd94",
      "gasUsed": "0x1ea18",
      "effectiveGasPrice": "0x36d6160",
      "from": "0xeca7a53ba6a190c5d205bfdc7707cbc3399336c1",
      "to": "0x167ad284c7bcc4d6342991aa258422e7a04f926e",
      "contractAddress": null
    }
  ],
  "libraries": [],
  "pending": [],
  "returns": {},
  "timestamp": 1770222247477,
  "chain": 56,
  "commit": null
}