{
  "transactions": [
    {
      "hash": "0x3b77533b4749e9f5b98592a567c1a40ea937b0f4ad903992b9ccb9d324f9fe94",
      "transactionType": "CALL",
      "contractName": null,
      "contractAddress": "0x167ad284c7bcc4d6342991aa258422e7a04f926e",
      "function": "makeCrime(uint8)",
      "arguments": [
        "0"
      ],
      "transaction": {
        "from": "0xeca7a53ba6a190c5d205bfdc7707cbc3399336c1",
        "to": "0x167ad284c7bcc4d6342991aa258422e7a04f926e",
        "gas": "0x2a4f0",
        "value": "0x0",
        "input": "0xc625abb40000000000000000000000000000000000000000000000000000000000000000",
        "nonce": "0x322",
        "chainId": "0x38"
      },
      "additionalContracts": [],
      "isFixedGasLimit": false
    }
  ],
  "receipts": [
    {
      "status": "0x1",
      "cumulativeGasUsed": "0x9991d5",
      "logs": [
        {
          "address": "0x167ad284c7bcc4d6342991aa258422e7a04f926e",
          "topics": [
            "0xe36ceebd3770780c5617d53efc7d77328074f1248146245ed3b854cbf651fb37"
          ],
          "data": "0x000000000000000000000000eca7a53ba6a190c5d205bfdc7707cbc3399336c1000000000000000000000000000000000000000000000000000000000000000000000000000000000000000000000000000000000000000000000000000000000000000000000000000000000000000000000000000000000000000000000000000000000000000000000000000000000000000000000000000000000000000000000000000000000000000000000000000000000000000000000000000000000000000000000000000000000000000000000000000000000000000069885c160000000000000000000000000000000000000000000000000000000069885892",
          "blockHash": "0x9a50dc0a9cd7944639977dcfba872748f8892f77e8b2f977522de52804d9d989",
          "blockNumber": "0x4c49fa2",
          "blockTimestamp": "0x69885892",
          "transactionHash": "0x3b77533b4749e9f5b98592a567c1a40ea937b0f4ad903992b9ccb9d324f9fe94",
          "transactionIndex": "0x3f",
          "logIndex": "0x24a",
          "removed": false
        }
      ],
      "logsBloom": "0x00000000000000000000000000000000000000000000000000000000400000000000000000000040000000000000000000000000000000000000000000000000000000000000000000000000000000000000000000000000000000000000000000000000000000000000000000000000000000000000000000000000000000000000000000000000000000100000000000000000000020000000000000000004000000000000000000000000000000000000000000000000000000000000000000000000000000000000000000000000000000000000000000000000000000000000000000000000000100000000000000000000000000000000000000000000",
      "type": "0x2",
      "transactionHash": "0x3b77533b4749e9f5b98592a567c1a40ea937b0f4ad903992b9ccb9d324f9fe94",
      "transactionIndex": "0x3f",
      "blockHash": "0x9a50dc0a9cd7944639977dcfba872748f8892f77e8b2f977522de52804d9d989",
      "blockNumber": "0x4c49fa2",
      "gasUsed": "0x1ea18",
      "effectiveGasPrice": "0x2faf080",
      "from": "0xeca7a53ba6a190c5d205bfdc7707cbc3399336c1",
      "to": "0x167ad284c7bcc4d6342991aa258422e7a04f926e",
      "contractAddress": null
    }
  ],
  "libraries": [],
  "pending": [],
  "returns": {},
  "timestamp": 1770543252154,
  "chain": 56,
  "commit": null
}