{
  "transactions": [
    {
      "hash": "0xa6557f4ee75fddfb4744c0a64c33189be0f9faabb4e351f21de9d263e9cca574",
      "transactionType": "CALL",
      "contractName": null,
      "contractAddress": "0x167ad284c7bcc4d6342991aa258422e7a04f926e",
      "function": "makeCrime(uint8)",
      "arguments": [
        "0"
      ],
      "transaction": {
        "from": "0xac56dc5a4a9de0197f7b8f584ea04ec7e0123dde",
        "to": "0x167ad284c7bcc4d6342991aa258422e7a04f926e",
        "gas": "0x44e77",
        "value": "0x0",
        "input": "0xc625abb40000000000000000000000000000000000000000000000000000000000000000",
        "nonce": "0x35",
        "chainId": "0x38"
      },
      "additionalContracts": [],
      "isFixedGasLimit": false
    }
  ],
  "receipts": [
    {
      "status": "0x1",
      "cumulativeGasUsed": "0x80685e",
      "logs": [
        {
          "address": "0x167ad284c7bcc4d6342991aa258422e7a04f926e",
          "topics": [
            "0xe36ceebd3770780c5617d53efc7d77328074f1248146245ed3b854cbf651fb37"
          ],
          "data": "0x000000000000000000000000ac56dc5a4a9de0197f7b8f584ea04ec7e0123dde0000000000000000000000000000000000000000000000000000000000000000000000000000000000000000000000000000000000000000000000000000000000000000000000000000000000000000000000000000000000000000000000000000000000000000000000000000000000000000000000000000000000000000000000000000000000000000000000000000000000000000000000000000000000000000000000000000000000000000000000000000000000000000697a7eea00000000000000000000000000000000000000000000000000000000697a7b66",
          "blockHash": "0xb9db2e32f4db48a5669c541e6c5036ea37e03ad539ff2ee3643ce12a76201a6b",
          "blockNumber": "0x4a5d2b0",
          "blockTimestamp": "0x697a7b66",
          "transactionHash": "0xa6557f4ee75fddfb4744c0a64c33189be0f9faabb4e351f21de9d263e9cca574",
          "transactionIndex": "0x32",
          "logIndex": "0xe7",
          "removed": false
        }
      ],
      "logsBloom": "0x00000000000000000000000000000000000000000000000000000000400000000000000000000040000000000000000000000000000000000000000000000000000000000000000000000000000000000000000000000000000000000000000000000000000000000000000000000000000000000000000000000000000000000000000000000000000000100000000000000000000020000000000000000004000000000000000000000000000000000000000000000000000000000000000000000000000000000000000000000000000000000000000000000000000000000000000000000000000100000000000000000000000000000000000000000000",
      "type": "0x2",
      "transactionHash": "0xa6557f4ee75fddfb4744c0a64c33189be0f9faabb4e351f21de9d263e9cca574",
      "transactionIndex": "0x32",
      "blockHash": "0xb9db2e32f4db48a5669c541e6c5036ea37e03ad539ff2ee3643ce12a76201a6b",
      "blockNumber": "0x4a5d2b0",
      "gasUsed": "0x1e72c",
      "effectiveGasPrice": "0x2faf080",
      "from": "0xac56dc5a4a9de0197f7b8f584ea04ec7e0123dde",
      "to": "0x167ad284c7bcc4d6342991aa258422e7a04f926e",
      "contractAddress": null
    }
  ],
  "libraries": [],
  "pending": [],
  "returns": {},
  "timestamp": 1769634664448,
  "chain": 56,
  "commit": null
}