{
  "transactions": [
    {
      "hash": "0x2bb4d24eba11eedf9337253aba157956931d67e60b62744e36a09da3ba987ae6",
      "transactionType": "CALL",
      "contractName": null,
      "contractAddress": "0x167ad284c7bcc4d6342991aa258422e7a04f926e",
      "function": "makeCrime(uint8)",
      "arguments": [
        "2"
      ],
      "transaction": {
        "from": "0xeca7a53ba6a190c5d205bfdc7707cbc3399336c1",
        "to": "0x167ad284c7bcc4d6342991aa258422e7a04f926e",
        "gas": "0x48dc2",
        "value": "0x0",
        "input": "0xc625abb40000000000000000000000000000000000000000000000000000000000000002",
        "nonce": "0x328",
        "chainId": "0x38"
      },
      "additionalContracts": [],
      "isFixedGasLimit": false
    }
  ],
  "receipts": [
    {
      "status": "0x1",
      "cumulativeGasUsed": "0x726886",
      "logs": [
        {
          "address": "0x167ad284c7bcc4d6342991aa258422e7a04f926e",
          "topics": [
            "0xe36ceebd3770780c5617d53efc7d77328074f1248146245ed3b854cbf651fb37"
          ],
          "data": "0x000000000000000000000000eca7a53ba6a190c5d205bfdc7707cbc3399336c10000000000000000000000000000000000000000000000000000000000000002000000000000000000000000000000000000000000000000000000000000000000000000000000000000000000000000000000000000000000000000000000000000000000000000000000000000000000000000000000000000000000000000000000000000000000000000000000000000000000000000000000000000000000000000000000000000000000000000000000000000000000000000698878c80000000000000000000000000000000000000000000000000000000069887544",
          "blockHash": "0x537df57ca48b9bc32350023f326473376e477bafa7c2019fca65c171f9d09274",
          "blockNumber": "0x4c4df62",
          "blockTimestamp": "0x69887544",
          "transactionHash": "0x2bb4d24eba11eedf9337253aba157956931d67e60b62744e36a09da3ba987ae6",
          "transactionIndex": "0x4e",
          "logIndex": "0x9c",
          "removed": false
        }
      ],
      "logsBloom": "0x00000000000000000000000000000000000000000000000000000000400000000000000000000040000000000000000000000000000000000000000000000000000000000000000000000000000000000000000000000000000000000000000000000000000000000000000000000000000000000000000000000000000000000000000000000000000000100000000000000000000020000000000000000004000000000000000000000000000000000000000000000000000000000000000000000000000000000000000000000000000000000000000000000000000000000000000000000000000100000000000000000000000000000000000000000000",
      "type": "0x2",
      "transactionHash": "0x2bb4d24eba11eedf9337253aba157956931d67e60b62744e36a09da3ba987ae6",
      "transactionIndex": "0x4e",
      "blockHash": "0x537df57ca48b9bc32350023f326473376e477bafa7c2019fca65c171f9d09274",
      "blockNumber": "0x4c4df62",
      "gasUsed": "0x1eab4",
      "effectiveGasPrice": "0x2faf080",
      "from": "0xeca7a53ba6a190c5d205bfdc7707cbc3399336c1",
      "to": "0x167ad284c7bcc4d6342991aa258422e7a04f926e",
      "contractAddress": null
    }
  ],
  "libraries": [],
  "pending": [],
  "returns": {},
  "timestamp": 1770550597966,
  "chain": 56,
  "commit": null
}