{
  "transactions": [
    {
      "hash": "0xe59da78d2404da0395359dcd508f75c6cbc21110a57202591fdcd19d92115c02",
      "transactionType": "CALL",
      "contractName": null,
      "contractAddress": "0x167ad284c7bcc4d6342991aa258422e7a04f926e",
      "function": "makeCrime(uint8)",
      "arguments": [
        "0"
      ],
      "transaction": {
        "from": "0xec646a6c9000e04d050435340d9c42c039eb5648",
        "to": "0x167ad284c7bcc4d6342991aa258422e7a04f926e",
        "gas": "0x592fa",
        "value": "0x0",
        "input": "0xc625abb40000000000000000000000000000000000000000000000000000000000000000",
        "nonce": "0x52",
        "chainId": "0x38"
      },
      "additionalContracts": [],
      "isFixedGasLimit": false
    }
  ],
  "receipts": [
    {
      "status": "0x1",
      "cumulativeGasUsed": "0x2d9ae89",
      "logs": [
        {
          "address": "0x167ad284c7bcc4d6342991aa258422e7a04f926e",
          "topics": [
            "0xe36ceebd3770780c5617d53efc7d77328074f1248146245ed3b854cbf651fb37"
          ],
          "data": "0x000000000000000000000000ec646a6c9000e04d050435340d9c42c039eb56480000000000000000000000000000000000000000000000000000000000000000000000000000000000000000000000000000000000000000000000000000000000000000000000000000000000000000000000000000000000000000000000000000000000000000000000000000000000000000000000000000000000000000000000000000000000000000000000000000000000000000000000000000000000000000000000000000000000000000000000000000000000000000698384950000000000000000000000000000000000000000000000000000000069838111",
          "blockHash": "0x331da2bc61c1bd4f7bc95f50372e34ad2349fe11d87c75ec7115c0cb9b160217",
          "blockNumber": "0x4b9dda0",
          "blockTimestamp": "0x69838111",
          "transactionHash": "0xe59da78d2404da0395359dcd508f75c6cbc21110a57202591fdcd19d92115c02",
          "transactionIndex": "0x108",
          "logIndex": "0x313",
          "removed": false
        }
      ],
      "logsBloom": "0x00000000000000000000000000000000000000000000000000000000400000000000000000000040000000000000000000000000000000000000000000000000000000000000000000000000000000000000000000000000000000000000000000000000000000000000000000000000000000000000000000000000000000000000000000000000000000100000000000000000000020000000000000000004000000000000000000000000000000000000000000000000000000000000000000000000000000000000000000000000000000000000000000000000000000000000000000000000000100000000000000000000000000000000000000000000",
      "type": "0x2",
      "transactionHash": "0xe59da78d2404da0395359dcd508f75c6cbc21110a57202591fdcd19d92115c02",
      "transactionIndex": "0x108",
      "blockHash": "0x331da2bc61c1bd4f7bc95f50372e34ad2349fe11d87c75ec7115c0cb9b160217",
      "blockNumber": "0x4b9dda0",
      "gasUsed": "0x1e72c",
      "effectiveGasPrice": "0x5f5e100",
      "from": "0xec646a6c9000e04d050435340d9c42c039eb5648",
      "to": "0x167ad284c7bcc4d6342991aa258422e7a04f926e",
      "contractAddress": null
    }
  ],
  "libraries": [],
  "pending": [],
  "returns": {},
  "timestamp": 1770225939414,
  "chain": 56,
  "commit": null
}