{
  "transactions": [
    {
      "hash": "0xc4b33ae30906b9ade0e5354ab1609d5a41dc3dd40ddd1a8dea05a12ec32fd63c",
      "transactionType": "CALL",
      "contractName": null,
      "contractAddress": "0x167ad284c7bcc4d6342991aa258422e7a04f926e",
      "function": "makeCrime(uint8)",
      "arguments": [
        "0"
      ],
      "transaction": {
        "from": "0xac56dc5a4a9de0197f7b8f584ea04ec7e0123dde",
        "to": "0x167ad284c7bcc4d6342991aa258422e7a04f926e",
        "gas": "0x45b7c",
        "value": "0x0",
        "input": "0xc625abb40000000000000000000000000000000000000000000000000000000000000000",
        "nonce": "0xb5",
        "chainId": "0x38"
      },
      "additionalContracts": [],
      "isFixedGasLimit": false
    }
  ],
  "receipts": [
    {
      "status": "0x1",
      "cumulativeGasUsed": "0x29d5f84",
      "logs": [
        {
          "address": "0x167ad284c7bcc4d6342991aa258422e7a04f926e",
          "topics": [
            "0xe36ceebd3770780c5617d53efc7d77328074f1248146245ed3b854cbf651fb37"
          ],
          "data": "0x000000000000000000000000ac56dc5a4a9de0197f7b8f584ea04ec7e0123dde000000000000000000000000000000000000000000000000000000000000000000000000000000000000000000000000000000000000000000000000000000000000000000000000000000000000000000000000000000000000000000000000000000000000000000000000000000000000000000000000000000000000000000000000000000000000000000000000000000000000000000000000000000000000000000000000000000000000000000000000000000000000000069837cca0000000000000000000000000000000000000000000000000000000069837946",
          "blockHash": "0x7ce27f076a05d0325373e627e99cea47b24627a95fd4676354cd0acd54c06aeb",
          "blockNumber": "0x4b9cc4f",
          "blockTimestamp": "0x69837946",
          "transactionHash": "0xc4b33ae30906b9ade0e5354ab1609d5a41dc3dd40ddd1a8dea05a12ec32fd63c",
          "transactionIndex": "0x7c",
          "logIndex": "0x1ee",
          "removed": false
        }
      ],
      "logsBloom": "0x00000000000000000000000000000000000000000000000000000000400000000000000000000040000000000000000000000000000000000000000000000000000000000000000000000000000000000000000000000000000000000000000000000000000000000000000000000000000000000000000000000000000000000000000000000000000000100000000000000000000020000000000000000004000000000000000000000000000000000000000000000000000000000000000000000000000000000000000000000000000000000000000000000000000000000000000000000000000100000000000000000000000000000000000000000000",
      "type": "0x2",
      "transactionHash": "0xc4b33ae30906b9ade0e5354ab1609d5a41dc3dd40ddd1a8dea05a12ec32fd63c",
      "transactionIndex": "0x7c",
      "blockHash": "0x7ce27f076a05d0325373e627e99cea47b24627a95fd4676354cd0acd54c06aeb",
      "blockNumber": "0x4b9cc4f",
      "gasUsed": "0x1e72c",
      "effectiveGasPrice": "0x2faf081",
      "from": "0xac56dc5a4a9de0197f7b8f584ea04ec7e0123dde",
      "to": "0x167ad284c7bcc4d6342991aa258422e7a04f926e",
      "contractAddress": null
    }
  ],
  "libraries": [],
  "pending": [],
  "returns": {},
  "timestamp": 1770223944608,
  "chain": 56,
  "commit": null
}