{
  "transactions": [
    {
      "hash": "0x06aa084bbe0c3e38a22c98331cee35ad8636d7027cef613b4fff5c5d50b1b6ba",
      "transactionType": "CALL",
      "contractName": null,
      "contractAddress": "0x167ad284c7bcc4d6342991aa258422e7a04f926e",
      "function": "makeCrime(uint8)",
      "arguments": [
        "0"
      ],
      "transaction": {
        "from": "0xec646a6c9000e04d050435340d9c42c039eb5648",
        "to": "0x167ad284c7bcc4d6342991aa258422e7a04f926e",
        "gas": "0x592fa",
        "value": "0x0",
        "input": "0xc625abb40000000000000000000000000000000000000000000000000000000000000000",
        "nonce": "0x8e",
        "chainId": "0x38"
      },
      "additionalContracts": [],
      "isFixedGasLimit": false
    }
  ],
  "receipts": [
    {
      "status": "0x1",
      "cumulativeGasUsed": "0x2bed203",
      "logs": [
        {
          "address": "0x7371580cd13de739c734ae85062f75194d13fac2",
          "topics": [
            "0x0bff5315606c84d1cee047503678048ca39946be11bfdd5a8c03fe5e272d98e3"
          ],
          "data": "0x000000000000000000000000ec646a6c9000e04d050435340d9c42c039eb564800000000000000000000000000000000000000000000000000000000698615e30000000000000000000000000000000000000000000000000000000000000000",
          "blockHash": "0xeed55aba4b8c1b8c8d7ab5686a20bac3dfa85b33ab31ae3544a617db051fa47d",
          "blockNumber": "0x4bf8e2c",
          "blockTimestamp": "0x6986109d",
          "transactionHash": "0x06aa084bbe0c3e38a22c98331cee35ad8636d7027cef613b4fff5c5d50b1b6ba",
          "transactionIndex": "0x2e",
          "logIndex": "0x104",
          "removed": false
        },
        {
          "address": "0xaae5ef15499c71301123ee4b13d20d570d24ad5e",
          "topics": [
            "0x6dd0730fb835f9bbe38532c3d82c7c87448bfdec295f1d7cd2d72ff339632a52"
          ],
          "data": "0x00000000000000000000000000000000000000000000000000000000000000c00000000000000000000000000000000000000000000000000000000000000100000000000000000000000000ec646a6c9000e04d050435340d9c42c039eb56480000000000000000000000000000000000000000000000000000000000000001000000000000000000000000000000000000000000000000000000006986109d000000000000000000000000000000000000000000000000000000000000014000000000000000000000000000000000000000000000000000000000000000044a61696c000000000000000000000000000000000000000000000000000000000000000000000000000000000000000000000000000000000000000000000008496d707269736f6e0000000000000000000000000000000000000000000000000000000000000000000000000000000000000000000000000000000000000000",
          "blockHash": "0xeed55aba4b8c1b8c8d7ab5686a20bac3dfa85b33ab31ae3544a617db051fa47d",
          "blockNumber": "0x4bf8e2c",
          "blockTimestamp": "0x6986109d",
          "transactionHash": "0x06aa084bbe0c3e38a22c98331cee35ad8636d7027cef613b4fff5c5d50b1b6ba",
          "transactionIndex": "0x2e",
          "logIndex": "0x105",
          "removed": false
        },
        {
          "address": "0x167ad284c7bcc4d6342991aa258422e7a04f926e",
          "topics": [
            "0xe36ceebd3770780c5617d53efc7d77328074f1248146245ed3b854cbf651fb37"
          ],
          "data": "0x000000000000000000000000ec646a6c9000e04d050435340d9c42c039eb5648000000000000000000000000000000000000000000000000000000000000000000000000000000000000000000000000000000000000000000000000000000000000000000000000000000000000000000000000000000000000000000000001000000000000000000000000000000000000000000000000000000000000000000000000000000000000000000000000000000000000000000000000000000000000000000000000000000000000000000000000000000000000000069861421000000000000000000000000000000000000000000000000000000006986109d",
          "blockHash": "0xeed55aba4b8c1b8c8d7ab5686a20bac3dfa85b33ab31ae3544a617db051fa47d",
          "blockNumber": "0x4bf8e2c",
          "blockTimestamp": "0x6986109d",
          "transactionHash": "0x06aa084bbe0c3e38a22c98331cee35ad8636d7027cef613b4fff5c5d50b1b6ba",
          "transactionIndex": "0x2e",
          "logIndex": "0x106",
          "removed": false
        }
      ],
      "logsBloom": "0x00000000000000000000000000000000001040040000000000000000400000000001000000000040000000000000000000000000000000000000000000000000000000000000000000200000000000000000000002000000001000000000000000000000000000000000000000000020000000000000000000000000000000000000000000000000000000100000000000000000000020000000000000000004000000000000000000000000000000000000000000000000000000000000000000000000000000000000000000000040000000000000000000000000000000800000000000000000000100000000002000000000000000000000000000001000",
      "type": "0x2",
      "transactionHash": "0x06aa084bbe0c3e38a22c98331cee35ad8636d7027cef613b4fff5c5d50b1b6ba",
      "transactionIndex": "0x2e",
      "blockHash": "0xeed55aba4b8c1b8c8d7ab5686a20bac3dfa85b33ab31ae3544a617db051fa47d",
      "blockNumber": "0x4bf8e2c",
      "gasUsed": "0x2faba",
      "effectiveGasPrice": "0x2faf080",
      "from": "0xec646a6c9000e04d050435340d9c42c039eb5648",
      "to": "0x167ad284c7bcc4d6342991aa258422e7a04f926e",
      "contractAddress": null
    }
  ],
  "libraries": [],
  "pending": [],
  "returns": {},
  "timestamp": 1770393758955,
  "chain": 56,
  "commit": null
}