{
  "transactions": [
    {
      "hash": "0x57e10db5b801410be685799df2ae2cd25fcbc2a91cc87eb6ed05161fed3fe8c9",
      "transactionType": "CALL",
      "contractName": null,
      "contractAddress": "0x167ad284c7bcc4d6342991aa258422e7a04f926e",
      "function": "makeCrime(uint8)",
      "arguments": [
        "0"
      ],
      "transaction": {
        "from": "0xeca7a53ba6a190c5d205bfdc7707cbc3399336c1",
        "to": "0x167ad284c7bcc4d6342991aa258422e7a04f926e",
        "gas": "0x59794",
        "value": "0x0",
        "input": "0xc625abb40000000000000000000000000000000000000000000000000000000000000000",
        "nonce": "0x2fe",
        "chainId": "0x38"
      },
      "additionalContracts": [],
      "isFixedGasLimit": false
    }
  ],
  "receipts": [
    {
      "status": "0x1",
      "cumulativeGasUsed": "0xc3b789",
      "logs": [
        {
          "address": "0x167ad284c7bcc4d6342991aa258422e7a04f926e",
          "topics": [
            "0xe36ceebd3770780c5617d53efc7d77328074f1248146245ed3b854cbf651fb37"
          ],
          "data": "0x000000000000000000000000eca7a53ba6a190c5d205bfdc7707cbc3399336c100000000000000000000000000000000000000000000000000000000000000000000000000000000000000000000000000000000000000000000000000000000000000000000000000000000000000000000000000000000000000000000000000000000000000000000000000000000000000000000000000000000000000000000000000000000000000000000000000000000000000000000000000000000000000000000000000000000000000000000000000000000000000006987c6bf000000000000000000000000000000000000000000000000000000006987c33b",
          "blockHash": "0x06bf5a716e234a761bdb6697ebb4d34e7c493562ba060df8c187d9200b661436",
          "blockNumber": "0x4c353d0",
          "blockTimestamp": "0x6987c33b",
          "transactionHash": "0x57e10db5b801410be685799df2ae2cd25fcbc2a91cc87eb6ed05161fed3fe8c9",
          "transactionIndex": "0x2d",
          "logIndex": "0x104",
          "removed": false
        }
      ],
      "logsBloom": "0x00000000000000000000000000000000000000000000000000000000400000000000000000000040000000000000000000000000000000000000000000000000000000000000000000000000000000000000000000000000000000000000000000000000000000000000000000000000000000000000000000000000000000000000000000000000000000100000000000000000000020000000000000000004000000000000000000000000000000000000000000000000000000000000000000000000000000000000000000000000000000000000000000000000000000000000000000000000000100000000000000000000000000000000000000000000",
      "type": "0x2",
      "transactionHash": "0x57e10db5b801410be685799df2ae2cd25fcbc2a91cc87eb6ed05161fed3fe8c9",
      "transactionIndex": "0x2d",
      "blockHash": "0x06bf5a716e234a761bdb6697ebb4d34e7c493562ba060df8c187d9200b661436",
      "blockNumber": "0x4c353d0",
      "gasUsed": "0x1ea18",
      "effectiveGasPrice": "0x2faf081",
      "from": "0xeca7a53ba6a190c5d205bfdc7707cbc3399336c1",
      "to": "0x167ad284c7bcc4d6342991aa258422e7a04f926e",
      "contractAddress": null
    }
  ],
  "libraries": [],
  "pending": [],
  "returns": {},
  "timestamp": 1770505020920,
  "chain": 56,
  "commit": null
}