{
  "transactions": [
    {
      "hash": "0xfe1b20c775fdd3f447bce8bc6524eb9ae5a2ff111d6769ab17e6065eb80d920f",
      "transactionType": "CALL",
      "contractName": null,
      "contractAddress": "0x167ad284c7bcc4d6342991aa258422e7a04f926e",
      "function": "makeCrime(uint8)",
      "arguments": [
        "0"
      ],
      "transaction": {
        "from": "0x4c62f6121e6f967a0872da8364995e9b68c1e82f",
        "to": "0x167ad284c7bcc4d6342991aa258422e7a04f926e",
        "gas": "0x416c2",
        "value": "0x0",
        "input": "0xc625abb40000000000000000000000000000000000000000000000000000000000000000",
        "nonce": "0x133",
        "chainId": "0x38"
      },
      "additionalContracts": [],
      "isFixedGasLimit": false
    }
  ],
  "receipts": [
    {
      "status": "0x1",
      "cumulativeGasUsed": "0xce8be5",
      "logs": [
        {
          "address": "0x167ad284c7bcc4d6342991aa258422e7a04f926e",
          "topics": [
            "0xe36ceebd3770780c5617d53efc7d77328074f1248146245ed3b854cbf651fb37"
          ],
          "data": "0x0000000000000000000000004c62f6121e6f967a0872da8364995e9b68c1e82f0000000000000000000000000000000000000000000000000000000000000000000000000000000000000000000000000000000000000000000000000000000000000000000000000000000000000000000000000000000000000000000000000000000000000000000000000000000000000000000000000000000000000000000000000000000000000000000000000000000000000000000000000000000000000000000000000000000000000000000000000000000000000000698331b10000000000000000000000000000000000000000000000000000000069832e2d",
          "blockHash": "0x20099597e2bc1f3d65c1ec5bd1439f28e65d5bbb6632f2ec37c8a4b94f55fdf9",
          "blockNumber": "0x4b9257a",
          "blockTimestamp": "0x69832e2d",
          "transactionHash": "0xfe1b20c775fdd3f447bce8bc6524eb9ae5a2ff111d6769ab17e6065eb80d920f",
          "transactionIndex": "0x3f",
          "logIndex": "0x177",
          "removed": false
        }
      ],
      "logsBloom": "0x00000000000000000000000000000000000000000000000000000000400000000000000000000040000000000000000000000000000000000000000000000000000000000000000000000000000000000000000000000000000000000000000000000000000000000000000000000000000000000000000000000000000000000000000000000000000000100000000000000000000020000000000000000004000000000000000000000000000000000000000000000000000000000000000000000000000000000000000000000000000000000000000000000000000000000000000000000000000100000000000000000000000000000000000000000000",
      "type": "0x2",
      "transactionHash": "0xfe1b20c775fdd3f447bce8bc6524eb9ae5a2ff111d6769ab17e6065eb80d920f",
      "transactionIndex": "0x3f",
      "blockHash": "0x20099597e2bc1f3d65c1ec5bd1439f28e65d5bbb6632f2ec37c8a4b94f55fdf9",
      "blockNumber": "0x4b9257a",
      "gasUsed": "0x1ea18",
      "effectiveGasPrice": "0x2faf080",
      "from": "0x4c62f6121e6f967a0872da8364995e9b68c1e82f",
      "to": "0x167ad284c7bcc4d6342991aa258422e7a04f926e",
      "contractAddress": null
    }
  ],
  "libraries": [],
  "pending": [],
  "returns": {},
  "timestamp": 1770204719252,
  "chain": 56,
  "commit": null
}