{
  "transactions": [
    {
      "hash": "0xcaff6b04ac0c17d5951d6224c94efd6de3e12cbbf528e2f3aa7c88802446dda7",
      "transactionType": "CALL",
      "contractName": null,
      "contractAddress": "0x167ad284c7bcc4d6342991aa258422e7a04f926e",
      "function": "makeCrime(uint8)",
      "arguments": [
        "0"
      ],
      "transaction": {
        "from": "0xac56dc5a4a9de0197f7b8f584ea04ec7e0123dde",
        "to": "0x167ad284c7bcc4d6342991aa258422e7a04f926e",
        "gas": "0x45b7c",
        "value": "0x0",
        "input": "0xc625abb40000000000000000000000000000000000000000000000000000000000000000",
        "nonce": "0x101",
        "chainId": "0x38"
      },
      "additionalContracts": [],
      "isFixedGasLimit": false
    }
  ],
  "receipts": [
    {
      "status": "0x1",
      "cumulativeGasUsed": "0x21d2f4",
      "logs": [
        {
          "address": "0x7371580cd13de739c734ae85062f75194d13fac2",
          "topics": [
            "0x0bff5315606c84d1cee047503678048ca39946be11bfdd5a8c03fe5e272d98e3"
          ],
          "data": "0x000000000000000000000000ac56dc5a4a9de0197f7b8f584ea04ec7e0123dde000000000000000000000000000000000000000000000000000000006987a67b0000000000000000000000000000000000000000000000000000000000000000",
          "blockHash": "0x2164c1088fe32056876a0105abc91801c70df7f54ab6c79d6f0881a6b992a08f",
          "blockNumber": "0x4c30834",
          "blockTimestamp": "0x6987a135",
          "transactionHash": "0xcaff6b04ac0c17d5951d6224c94efd6de3e12cbbf528e2f3aa7c88802446dda7",
          "transactionIndex": "0xb",
          "logIndex": "0x41",
          "removed": false
        },
        {
          "address": "0xaae5ef15499c71301123ee4b13d20d570d24ad5e",
          "topics": [
            "0x6dd0730fb835f9bbe38532c3d82c7c87448bfdec295f1d7cd2d72ff339632a52"
          ],
          "data": "0x00000000000000000000000000000000000000000000000000000000000000c00000000000000000000000000000000000000000000000000000000000000100000000000000000000000000ac56dc5a4a9de0197f7b8f584ea04ec7e0123dde0000000000000000000000000000000000000000000000000000000000000001000000000000000000000000000000000000000000000000000000006987a135000000000000000000000000000000000000000000000000000000000000014000000000000000000000000000000000000000000000000000000000000000044a61696c000000000000000000000000000000000000000000000000000000000000000000000000000000000000000000000000000000000000000000000008496d707269736f6e0000000000000000000000000000000000000000000000000000000000000000000000000000000000000000000000000000000000000000",
          "blockHash": "0x2164c1088fe32056876a0105abc91801c70df7f54ab6c79d6f0881a6b992a08f",
          "blockNumber": "0x4c30834",
          "blockTimestamp": "0x6987a135",
          "transactionHash": "0xcaff6b04ac0c17d5951d6224c94efd6de3e12cbbf528e2f3aa7c88802446dda7",
          "transactionIndex": "0xb",
          "logIndex": "0x42",
          "removed": false
        },
        {
          "address": "0x167ad284c7bcc4d6342991aa258422e7a04f926e",
          "topics": [
            "0xe36ceebd3770780c5617d53efc7d77328074f1248146245ed3b854cbf651fb37"
          ],
          "data": "0x000000000000000000000000ac56dc5a4a9de0197f7b8f584ea04ec7e0123dde00000000000000000000000000000000000000000000000000000000000000000000000000000000000000000000000000000000000000000000000000000000000000000000000000000000000000000000000000000000000000000000000100000000000000000000000000000000000000000000000000000000000000000000000000000000000000000000000000000000000000000000000000000000000000000000000000000000000000000000000000000000000000006987a4b9000000000000000000000000000000000000000000000000000000006987a135",
          "blockHash": "0x2164c1088fe32056876a0105abc91801c70df7f54ab6c79d6f0881a6b992a08f",
          "blockNumber": "0x4c30834",
          "blockTimestamp": "0x6987a135",
          "transactionHash": "0xcaff6b04ac0c17d5951d6224c94efd6de3e12cbbf528e2f3aa7c88802446dda7",
          "transactionIndex": "0xb",
          "logIndex": "0x43",
          "removed": false
        }
      ],
      "logsBloom": "0x00000000000000000000000000000000001040040000000000000000400000000001000000000040000000000000000000000000000000000000000000000000000000000000000000200000000000000000000002000000001000000000000000000000000000000000000000000020000000000000000000000000000000000000000000000000000000100000000000000000000020000000000000000004000000000000000000000000000000000000000000000000000000000000000000000000000000000000000000000040000000000000000000000000000000800000000000000000000100000000002000000000000000000000000000001000",
      "type": "0x2",
      "transactionHash": "0xcaff6b04ac0c17d5951d6224c94efd6de3e12cbbf528e2f3aa7c88802446dda7",
      "transactionIndex": "0xb",
      "blockHash": "0x2164c1088fe32056876a0105abc91801c70df7f54ab6c79d6f0881a6b992a08f",
      "blockNumber": "0x4c30834",
      "gasUsed": "0x2faba",
      "effectiveGasPrice": "0x2faf080",
      "from": "0xac56dc5a4a9de0197f7b8f584ea04ec7e0123dde",
      "to": "0x167ad284c7bcc4d6342991aa258422e7a04f926e",
      "contractAddress": null
    }
  ],
  "libraries": [],
  "pending": [],
  "returns": {},
  "timestamp": 1770496310973,
  "chain": 56,
  "commit": null
}