{
  "transactions": [
    {
      "hash": "0x31a656d4e806e3b8914763e638a41fe3d4cdae7b2df0bd0cccc595cf275fe4a2",
      "transactionType": "CALL",
      "contractName": null,
      "contractAddress": "0x167ad284c7bcc4d6342991aa258422e7a04f926e",
      "function": "makeCrime(uint8)",
      "arguments": [
        "0"
      ],
      "transaction": {
        "from": "0xeca7a53ba6a190c5d205bfdc7707cbc3399336c1",
        "to": "0x167ad284c7bcc4d6342991aa258422e7a04f926e",
        "gas": "0x4218c",
        "value": "0x0",
        "input": "0xc625abb40000000000000000000000000000000000000000000000000000000000000000",
        "nonce": "0x304",
        "chainId": "0x38"
      },
      "additionalContracts": [],
      "isFixedGasLimit": false
    }
  ],
  "receipts": [
    {
      "status": "0x1",
      "cumulativeGasUsed": "0x4503e0",
      "logs": [
        {
          "address": "0x167ad284c7bcc4d6342991aa258422e7a04f926e",
          "topics": [
            "0xe36ceebd3770780c5617d53efc7d77328074f1248146245ed3b854cbf651fb37"
          ],
          "data": "0x000000000000000000000000eca7a53ba6a190c5d205bfdc7707cbc3399336c100000000000000000000000000000000000000000000000000000000000000000000000000000000000000000000000000000000000000000000000000000000000000000000000000000000000000000000000000000000000000000000000000000000000000000000000000000000000000000000000000000000000000000000000000000000000000000000000000000000000000000000000000000000000000000000000000000000000000000000000000000000000000006987daee000000000000000000000000000000000000000000000000000000006987d76a",
          "blockHash": "0xdce9cbf69d023f5ddacfb0eee4c619e5db33ecd120b4cb3a8dd9562b595f1d31",
          "blockNumber": "0x4c380a9",
          "blockTimestamp": "0x6987d76a",
          "transactionHash": "0x31a656d4e806e3b8914763e638a41fe3d4cdae7b2df0bd0cccc595cf275fe4a2",
          "transactionIndex": "0x13",
          "logIndex": "0x60",
          "removed": false
        }
      ],
      "logsBloom": "0x00000000000000000000000000000000000000000000000000000000400000000000000000000040000000000000000000000000000000000000000000000000000000000000000000000000000000000000000000000000000000000000000000000000000000000000000000000000000000000000000000000000000000000000000000000000000000100000000000000000000020000000000000000004000000000000000000000000000000000000000000000000000000000000000000000000000000000000000000000000000000000000000000000000000000000000000000000000000100000000000000000000000000000000000000000000",
      "type": "0x2",
      "transactionHash": "0x31a656d4e806e3b8914763e638a41fe3d4cdae7b2df0bd0cccc595cf275fe4a2",
      "transactionIndex": "0x13",
      "blockHash": "0xdce9cbf69d023f5ddacfb0eee4c619e5db33ecd120b4cb3a8dd9562b595f1d31",
      "blockNumber": "0x4c380a9",
      "gasUsed": "0x1ea18",
      "effectiveGasPrice": "0x2faf080",
      "from": "0xeca7a53ba6a190c5d205bfdc7707cbc3399336c1",
      "to": "0x167ad284c7bcc4d6342991aa258422e7a04f926e",
      "contractAddress": null
    }
  ],
  "libraries": [],
  "pending": [],
  "returns": {},
  "timestamp": 1770510187672,
  "chain": 56,
  "commit": null
}