{
  "transactions": [
    {
      "hash": "0xc7e7cd160d7179ed6ec694b1ea25684f1503f02ae8d0653c707e4abd3d4adc01",
      "transactionType": "CALL",
      "contractName": null,
      "contractAddress": "0x167ad284c7bcc4d6342991aa258422e7a04f926e",
      "function": "makeCrime(uint8)",
      "arguments": [
        "0"
      ],
      "transaction": {
        "from": "0xec646a6c9000e04d050435340d9c42c039eb5648",
        "to": "0x167ad284c7bcc4d6342991aa258422e7a04f926e",
        "gas": "0x592fa",
        "value": "0x0",
        "input": "0xc625abb40000000000000000000000000000000000000000000000000000000000000000",
        "nonce": "0xbb",
        "chainId": "0x38"
      },
      "additionalContracts": [],
      "isFixedGasLimit": false
    }
  ],
  "receipts": [
    {
      "status": "0x1",
      "cumulativeGasUsed": "0x89757f",
      "logs": [
        {
          "address": "0x7371580cd13de739c734ae85062f75194d13fac2",
          "topics": [
            "0x0bff5315606c84d1cee047503678048ca39946be11bfdd5a8c03fe5e272d98e3"
          ],
          "data": "0x000000000000000000000000ec646a6c9000e04d050435340d9c42c039eb5648000000000000000000000000000000000000000000000000000000006987fcbf0000000000000000000000000000000000000000000000000000000000000000",
          "blockHash": "0x43eb0e4b9475a1b720d912447162a9fa8575ce44f4bad326f5b13d3747d1b0c0",
          "blockNumber": "0x4c3c7e8",
          "blockTimestamp": "0x6987f779",
          "transactionHash": "0xc7e7cd160d7179ed6ec694b1ea25684f1503f02ae8d0653c707e4abd3d4adc01",
          "transactionIndex": "0x36",
          "logIndex": "0x11d",
          "removed": false
        },
        {
          "address": "0xaae5ef15499c71301123ee4b13d20d570d24ad5e",
          "topics": [
            "0x6dd0730fb835f9bbe38532c3d82c7c87448bfdec295f1d7cd2d72ff339632a52"
          ],
          "data": "0x00000000000000000000000000000000000000000000000000000000000000c00000000000000000000000000000000000000000000000000000000000000100000000000000000000000000ec646a6c9000e04d050435340d9c42c039eb56480000000000000000000000000000000000000000000000000000000000000001000000000000000000000000000000000000000000000000000000006987f779000000000000000000000000000000000000000000000000000000000000014000000000000000000000000000000000000000000000000000000000000000044a61696c000000000000000000000000000000000000000000000000000000000000000000000000000000000000000000000000000000000000000000000008496d707269736f6e0000000000000000000000000000000000000000000000000000000000000000000000000000000000000000000000000000000000000000",
          "blockHash": "0x43eb0e4b9475a1b720d912447162a9fa8575ce44f4bad326f5b13d3747d1b0c0",
          "blockNumber": "0x4c3c7e8",
          "blockTimestamp": "0x6987f779",
          "transactionHash": "0xc7e7cd160d7179ed6ec694b1ea25684f1503f02ae8d0653c707e4abd3d4adc01",
          "transactionIndex": "0x36",
          "logIndex": "0x11e",
          "removed": false
        },
        {
          "address": "0x167ad284c7bcc4d6342991aa258422e7a04f926e",
          "topics": [
            "0xe36ceebd3770780c5617d53efc7d77328074f1248146245ed3b854cbf651fb37"
          ],
          "data": "0x000000000000000000000000ec646a6c9000e04d050435340d9c42c039eb564800000000000000000000000000000000000000000000000000000000000000000000000000000000000000000000000000000000000000000000000000000000000000000000000000000000000000000000000000000000000000000000000100000000000000000000000000000000000000000000000000000000000000000000000000000000000000000000000000000000000000000000000000000000000000000000000000000000000000000000000000000000000000006987fafd000000000000000000000000000000000000000000000000000000006987f779",
          "blockHash": "0x43eb0e4b9475a1b720d912447162a9fa8575ce44f4bad326f5b13d3747d1b0c0",
          "blockNumber": "0x4c3c7e8",
          "blockTimestamp": "0x6987f779",
          "transactionHash": "0xc7e7cd160d7179ed6ec694b1ea25684f1503f02ae8d0653c707e4abd3d4adc01",
          "transactionIndex": "0x36",
          "logIndex": "0x11f",
          "removed": false
        }
      ],
      "logsBloom": "0x00000000000000000000000000000000001040040000000000000000400000000001000000000040000000000000000000000000000000000000000000000000000000000000000000200000000000000000000002000000001000000000000000000000000000000000000000000020000000000000000000000000000000000000000000000000000000100000000000000000000020000000000000000004000000000000000000000000000000000000000000000000000000000000000000000000000000000000000000000040000000000000000000000000000000800000000000000000000100000000002000000000000000000000000000001000",
      "type": "0x2",
      "transactionHash": "0xc7e7cd160d7179ed6ec694b1ea25684f1503f02ae8d0653c707e4abd3d4adc01",
      "transactionIndex": "0x36",
      "blockHash": "0x43eb0e4b9475a1b720d912447162a9fa8575ce44f4bad326f5b13d3747d1b0c0",
      "blockNumber": "0x4c3c7e8",
      "gasUsed": "0x2faba",
      "effectiveGasPrice": "0x2faf080",
      "from": "0xec646a6c9000e04d050435340d9c42c039eb5648",
      "to": "0x167ad284c7bcc4d6342991aa258422e7a04f926e",
      "contractAddress": null
    }
  ],
  "libraries": [],
  "pending": [],
  "returns": {},
  "timestamp": 1770518395486,
  "chain": 56,
  "commit": null
}