{
  "transactions": [
    {
      "hash": "0x447e25dd80a65fd7618c923a570acad78b2a305f2c1125f7cbed15dfc9fac0e1",
      "transactionType": "CALL",
      "contractName": null,
      "contractAddress": "0x167ad284c7bcc4d6342991aa258422e7a04f926e",
      "function": "makeCrime(uint8)",
      "arguments": [
        "0"
      ],
      "transaction": {
        "from": "0xac56dc5a4a9de0197f7b8f584ea04ec7e0123dde",
        "to": "0x167ad284c7bcc4d6342991aa258422e7a04f926e",
        "gas": "0x2a0e7",
        "value": "0x0",
        "input": "0xc625abb40000000000000000000000000000000000000000000000000000000000000000",
        "nonce": "0x33",
        "chainId": "0x38"
      },
      "additionalContracts": [],
      "isFixedGasLimit": false
    }
  ],
  "receipts": [
    {
      "status": "0x1",
      "cumulativeGasUsed": "0x83bcd3",
      "logs": [
        {
          "address": "0x167ad284c7bcc4d6342991aa258422e7a04f926e",
          "topics": [
            "0xe36ceebd3770780c5617d53efc7d77328074f1248146245ed3b854cbf651fb37"
          ],
          "data": "0x000000000000000000000000ac56dc5a4a9de0197f7b8f584ea04ec7e0123dde0000000000000000000000000000000000000000000000000000000000000000000000000000000000000000000000000000000000000000000000000000000000000000000000000000000000000000000000000000000000000000000000000000000000000000000000000000000000000000000000000000000000000000000000000000000000000000000000000000000000000000000000000000000000000000000000000000000000000000000000000000000000000000697a781500000000000000000000000000000000000000000000000000000000697a7491",
          "blockHash": "0xb1a87707b7cc93aba5476ae9ec872bf7d6d7f480c3271ef5d4301df418e2d9a2",
          "blockNumber": "0x4a5c382",
          "blockTimestamp": "0x697a7491",
          "transactionHash": "0x447e25dd80a65fd7618c923a570acad78b2a305f2c1125f7cbed15dfc9fac0e1",
          "transactionIndex": "0x26",
          "logIndex": "0x14b",
          "removed": false
        }
      ],
      "logsBloom": "0x00000000000000000000000000000000000000000000000000000000400000000000000000000040000000000000000000000000000000000000000000000000000000000000000000000000000000000000000000000000000000000000000000000000000000000000000000000000000000000000000000000000000000000000000000000000000000100000000000000000000020000000000000000004000000000000000000000000000000000000000000000000000000000000000000000000000000000000000000000000000000000000000000000000000000000000000000000000000100000000000000000000000000000000000000000000",
      "type": "0x2",
      "transactionHash": "0x447e25dd80a65fd7618c923a570acad78b2a305f2c1125f7cbed15dfc9fac0e1",
      "transactionIndex": "0x26",
      "blockHash": "0xb1a87707b7cc93aba5476ae9ec872bf7d6d7f480c3271ef5d4301df418e2d9a2",
      "blockNumber": "0x4a5c382",
      "gasUsed": "0x1e72c",
      "effectiveGasPrice": "0x2faf081",
      "from": "0xac56dc5a4a9de0197f7b8f584ea04ec7e0123dde",
      "to": "0x167ad284c7bcc4d6342991aa258422e7a04f926e",
      "contractAddress": null
    }
  ],
  "libraries": [],
  "pending": [],
  "returns": {},
  "timestamp": 1769632915231,
  "chain": 56,
  "commit": null
}