{
  "transactions": [
    {
      "hash": "0x00c5491bc870d0933f53fac257aafb13e63ffa3d0aed519f49f0d30e396d6538",
      "transactionType": "CALL",
      "contractName": null,
      "contractAddress": "0x167ad284c7bcc4d6342991aa258422e7a04f926e",
      "function": "makeCrime(uint8)",
      "arguments": [
        "0"
      ],
      "transaction": {
        "from": "0xaa73aa98480757d75aae288b5931261448eb0530",
        "to": "0x167ad284c7bcc4d6342991aa258422e7a04f926e",
        "gas": "0x592fa",
        "value": "0x0",
        "input": "0xc625abb40000000000000000000000000000000000000000000000000000000000000000",
        "nonce": "0x17e",
        "chainId": "0x38"
      },
      "additionalContracts": [],
      "isFixedGasLimit": false
    }
  ],
  "receipts": [
    {
      "status": "0x1",
      "cumulativeGasUsed": "0xb0ef56",
      "logs": [
        {
          "address": "0x7371580cd13de739c734ae85062f75194d13fac2",
          "topics": [
            "0x0bff5315606c84d1cee047503678048ca39946be11bfdd5a8c03fe5e272d98e3"
          ],
          "data": "0x000000000000000000000000aa73aa98480757d75aae288b5931261448eb0530000000000000000000000000000000000000000000000000000000006987f1df0000000000000000000000000000000000000000000000000000000000000000",
          "blockHash": "0x8c828ad2b222be29b29046afa96fcc803d288aaa4f0aa03856374cada03235c2",
          "blockNumber": "0x4c3afbc",
          "blockTimestamp": "0x6987ec99",
          "transactionHash": "0x00c5491bc870d0933f53fac257aafb13e63ffa3d0aed519f49f0d30e396d6538",
          "transactionIndex": "0x34",
          "logIndex": "0xdf",
          "removed": false
        },
        {
          "address": "0xaae5ef15499c71301123ee4b13d20d570d24ad5e",
          "topics": [
            "0x6dd0730fb835f9bbe38532c3d82c7c87448bfdec295f1d7cd2d72ff339632a52"
          ],
          "data": "0x00000000000000000000000000000000000000000000000000000000000000c00000000000000000000000000000000000000000000000000000000000000100000000000000000000000000aa73aa98480757d75aae288b5931261448eb05300000000000000000000000000000000000000000000000000000000000000001000000000000000000000000000000000000000000000000000000006987ec99000000000000000000000000000000000000000000000000000000000000014000000000000000000000000000000000000000000000000000000000000000044a61696c000000000000000000000000000000000000000000000000000000000000000000000000000000000000000000000000000000000000000000000008496d707269736f6e0000000000000000000000000000000000000000000000000000000000000000000000000000000000000000000000000000000000000000",
          "blockHash": "0x8c828ad2b222be29b29046afa96fcc803d288aaa4f0aa03856374cada03235c2",
          "blockNumber": "0x4c3afbc",
          "blockTimestamp": "0x6987ec99",
          "transactionHash": "0x00c5491bc870d0933f53fac257aafb13e63ffa3d0aed519f49f0d30e396d6538",
          "transactionIndex": "0x34",
          "logIndex": "0xe0",
          "removed": false
        },
        {
          "address": "0x167ad284c7bcc4d6342991aa258422e7a04f926e",
          "topics": [
            "0xe36ceebd3770780c5617d53efc7d77328074f1248146245ed3b854cbf651fb37"
          ],
          "data": "0x000000000000000000000000aa73aa98480757d75aae288b5931261448eb053000000000000000000000000000000000000000000000000000000000000000000000000000000000000000000000000000000000000000000000000000000000000000000000000000000000000000000000000000000000000000000000000100000000000000000000000000000000000000000000000000000000000000000000000000000000000000000000000000000000000000000000000000000000000000000000000000000000000000000000000000000000000000006987f01d000000000000000000000000000000000000000000000000000000006987ec99",
          "blockHash": "0x8c828ad2b222be29b29046afa96fcc803d288aaa4f0aa03856374cada03235c2",
          "blockNumber": "0x4c3afbc",
          "blockTimestamp": "0x6987ec99",
          "transactionHash": "0x00c5491bc870d0933f53fac257aafb13e63ffa3d0aed519f49f0d30e396d6538",
          "transactionIndex": "0x34",
          "logIndex": "0xe1",
          "removed": false
        }
      ],
      "logsBloom": "0x00000000000000000000000000000000001040040000000000000000400000000001000000000040000000000000000000000000000000000000000000000000000000000000000000200000000000000000000002000000001000000000000000000000000000000000000000000020000000000000000000000000000000000000000000000000000000100000000000000000000020000000000000000004000000000000000000000000000000000000000000000000000000000000000000000000000000000000000000000040000000000000000000000000000000800000000000000000000100000000002000000000000000000000000000001000",
      "type": "0x2",
      "transactionHash": "0x00c5491bc870d0933f53fac257aafb13e63ffa3d0aed519f49f0d30e396d6538",
      "transactionIndex": "0x34",
      "blockHash": "0x8c828ad2b222be29b29046afa96fcc803d288aaa4f0aa03856374cada03235c2",
      "blockNumber": "0x4c3afbc",
      "gasUsed": "0x2faba",
      "effectiveGasPrice": "0x2faf080",
      "from": "0xaa73aa98480757d75aae288b5931261448eb0530",
      "to": "0x167ad284c7bcc4d6342991aa258422e7a04f926e",
      "contractAddress": null
    }
  ],
  "libraries": [],
  "pending": [],
  "returns": {},
  "timestamp": 1770515611195,
  "chain": 56,
  "commit": null
}