{
  "transactions": [
    {
      "hash": "0x166d24224dd08928289d4432465b0524dcbf2b6a8945a1cf7391c43001b00c3d",
      "transactionType": "CALL",
      "contractName": null,
      "contractAddress": "0x167ad284c7bcc4d6342991aa258422e7a04f926e",
      "function": "makeCrime(uint8)",
      "arguments": [
        "0"
      ],
      "transaction": {
        "from": "0xec646a6c9000e04d050435340d9c42c039eb5648",
        "to": "0x167ad284c7bcc4d6342991aa258422e7a04f926e",
        "gas": "0x2a0e7",
        "value": "0x0",
        "input": "0xc625abb40000000000000000000000000000000000000000000000000000000000000000",
        "nonce": "0x42",
        "chainId": "0x38"
      },
      "additionalContracts": [],
      "isFixedGasLimit": false
    }
  ],
  "receipts": [
    {
      "status": "0x1",
      "cumulativeGasUsed": "0x974c15",
      "logs": [
        {
          "address": "0x167ad284c7bcc4d6342991aa258422e7a04f926e",
          "topics": [
            "0xe36ceebd3770780c5617d53efc7d77328074f1248146245ed3b854cbf651fb37"
          ],
          "data": "0x000000000000000000000000ec646a6c9000e04d050435340d9c42c039eb56480000000000000000000000000000000000000000000000000000000000000000000000000000000000000000000000000000000000000000000000000000000000000000000000000000000000000000000000000000000000000000000000000000000000000000000000000000000000000000000000000000000000000000000000000000000000000000000000000000000000000000000000000000000000000000000000000000000000000000000000000000000000000000698352da0000000000000000000000000000000000000000000000000000000069834f56",
          "blockHash": "0xf1fc09e6f5e5e679e37fea0b35392a6c6e9184fa40bd5fdcbd95ec91c009eff7",
          "blockNumber": "0x4b96f20",
          "blockTimestamp": "0x69834f56",
          "transactionHash": "0x166d24224dd08928289d4432465b0524dcbf2b6a8945a1cf7391c43001b00c3d",
          "transactionIndex": "0x4c",
          "logIndex": "0x15a",
          "removed": false
        }
      ],
      "logsBloom": "0x00000000000000000000000000000000000000000000000000000000400000000000000000000040000000000000000000000000000000000000000000000000000000000000000000000000000000000000000000000000000000000000000000000000000000000000000000000000000000000000000000000000000000000000000000000000000000100000000000000000000020000000000000000004000000000000000000000000000000000000000000000000000000000000000000000000000000000000000000000000000000000000000000000000000000000000000000000000000100000000000000000000000000000000000000000000",
      "type": "0x2",
      "transactionHash": "0x166d24224dd08928289d4432465b0524dcbf2b6a8945a1cf7391c43001b00c3d",
      "transactionIndex": "0x4c",
      "blockHash": "0xf1fc09e6f5e5e679e37fea0b35392a6c6e9184fa40bd5fdcbd95ec91c009eff7",
      "blockNumber": "0x4b96f20",
      "gasUsed": "0x1e72c",
      "effectiveGasPrice": "0x2faf080",
      "from": "0xec646a6c9000e04d050435340d9c42c039eb5648",
      "to": "0x167ad284c7bcc4d6342991aa258422e7a04f926e",
      "contractAddress": null
    }
  ],
  "libraries": [],
  "pending": [],
  "returns": {},
  "timestamp": 1770213207947,
  "chain": 56,
  "commit": null
}