{
  "transactions": [
    {
      "hash": "0x7fde02605d6c007a2de334a69dabd2f323e5fb6fac63fcfe30bc5c84317e44cf",
      "transactionType": "CALL",
      "contractName": null,
      "contractAddress": "0x167ad284c7bcc4d6342991aa258422e7a04f926e",
      "function": "makeCrime(uint8)",
      "arguments": [
        "0"
      ],
      "transaction": {
        "from": "0xaa73aa98480757d75aae288b5931261448eb0530",
        "to": "0x167ad284c7bcc4d6342991aa258422e7a04f926e",
        "gas": "0x2a0e7",
        "value": "0x0",
        "input": "0xc625abb40000000000000000000000000000000000000000000000000000000000000000",
        "nonce": "0x114",
        "chainId": "0x38"
      },
      "additionalContracts": [],
      "isFixedGasLimit": false
    }
  ],
  "receipts": [
    {
      "status": "0x1",
      "cumulativeGasUsed": "0x1e459ba",
      "logs": [
        {
          "address": "0x167ad284c7bcc4d6342991aa258422e7a04f926e",
          "topics": [
            "0xe36ceebd3770780c5617d53efc7d77328074f1248146245ed3b854cbf651fb37"
          ],
          "data": "0x000000000000000000000000aa73aa98480757d75aae288b5931261448eb05300000000000000000000000000000000000000000000000000000000000000000000000000000000000000000000000000000000000000000000000000000000000000000000000000000000000000000000000000000000000000000000000000000000000000000000000000000000000000000000000000000000000000000000000000000000000000000000000000000000000000000000000000000000000000000000000000000000000000000000000000000000000000000698383860000000000000000000000000000000000000000000000000000000069838002",
          "blockHash": "0x54bc42239c4624f215223a363608c50871e7a64dbd6f1daa9b7e16f4e875ddc5",
          "blockNumber": "0x4b9db45",
          "blockTimestamp": "0x69838002",
          "transactionHash": "0x7fde02605d6c007a2de334a69dabd2f323e5fb6fac63fcfe30bc5c84317e44cf",
          "transactionIndex": "0x28",
          "logIndex": "0x5c",
          "removed": false
        }
      ],
      "logsBloom": "0x00000000000000000000000000000000000000000000000000000000400000000000000000000040000000000000000000000000000000000000000000000000000000000000000000000000000000000000000000000000000000000000000000000000000000000000000000000000000000000000000000000000000000000000000000000000000000100000000000000000000020000000000000000004000000000000000000000000000000000000000000000000000000000000000000000000000000000000000000000000000000000000000000000000000000000000000000000000000100000000000000000000000000000000000000000000",
      "type": "0x2",
      "transactionHash": "0x7fde02605d6c007a2de334a69dabd2f323e5fb6fac63fcfe30bc5c84317e44cf",
      "transactionIndex": "0x28",
      "blockHash": "0x54bc42239c4624f215223a363608c50871e7a64dbd6f1daa9b7e16f4e875ddc5",
      "blockNumber": "0x4b9db45",
      "gasUsed": "0x1e72c",
      "effectiveGasPrice": "0x540ae48",
      "from": "0xaa73aa98480757d75aae288b5931261448eb0530",
      "to": "0x167ad284c7bcc4d6342991aa258422e7a04f926e",
      "contractAddress": null
    }
  ],
  "libraries": [],
  "pending": [],
  "returns": {},
  "timestamp": 1770225667695,
  "chain": 56,
  "commit": null
}