{
  "transactions": [
    {
      "hash": "0x8a60adced784ba87e209ddbb2f24b9cdd84abc1dd7d07d66a0b4cec5925c17ce",
      "transactionType": "CALL",
      "contractName": null,
      "contractAddress": "0x167ad284c7bcc4d6342991aa258422e7a04f926e",
      "function": "makeCrime(uint8)",
      "arguments": [
        "0"
      ],
      "transaction": {
        "from": "0xec646a6c9000e04d050435340d9c42c039eb5648",
        "to": "0x167ad284c7bcc4d6342991aa258422e7a04f926e",
        "gas": "0x2a0e7",
        "value": "0x0",
        "input": "0xc625abb40000000000000000000000000000000000000000000000000000000000000000",
        "nonce": "0xa0",
        "chainId": "0x38"
      },
      "additionalContracts": [],
      "isFixedGasLimit": false
    }
  ],
  "receipts": [
    {
      "status": "0x1",
      "cumulativeGasUsed": "0x6cbd5d",
      "logs": [
        {
          "address": "0x167ad284c7bcc4d6342991aa258422e7a04f926e",
          "topics": [
            "0xe36ceebd3770780c5617d53efc7d77328074f1248146245ed3b854cbf651fb37"
          ],
          "data": "0x000000000000000000000000ec646a6c9000e04d050435340d9c42c039eb5648000000000000000000000000000000000000000000000000000000000000000000000000000000000000000000000000000000000000000000000000000000000000000000000000000000000000000000000000000000000000000000000000000000000000000000000000000000000000000000000000000000000000000000000000000000000000000000000000000000000000000000000000000000000000000000000000000000000000000000000000000000000000000069879b5a00000000000000000000000000000000000000000000000000000000698797d6",
          "blockHash": "0xe470cbee4eabfd534f71e61e5947e1719713297733836fa3ca63671a4c65ea0a",
          "blockNumber": "0x4c2f362",
          "blockTimestamp": "0x698797d6",
          "transactionHash": "0x8a60adced784ba87e209ddbb2f24b9cdd84abc1dd7d07d66a0b4cec5925c17ce",
          "transactionIndex": "0x22",
          "logIndex": "0x9d",
          "removed": false
        }
      ],
      "logsBloom": "0x00000000000000000000000000000000000000000000000000000000400000000000000000000040000000000000000000000000000000000000000000000000000000000000000000000000000000000000000000000000000000000000000000000000000000000000000000000000000000000000000000000000000000000000000000000000000000100000000000000000000020000000000000000004000000000000000000000000000000000000000000000000000000000000000000000000000000000000000000000000000000000000000000000000000000000000000000000000000100000000000000000000000000000000000000000000",
      "type": "0x2",
      "transactionHash": "0x8a60adced784ba87e209ddbb2f24b9cdd84abc1dd7d07d66a0b4cec5925c17ce",
      "transactionIndex": "0x22",
      "blockHash": "0xe470cbee4eabfd534f71e61e5947e1719713297733836fa3ca63671a4c65ea0a",
      "blockNumber": "0x4c2f362",
      "gasUsed": "0x1e72c",
      "effectiveGasPrice": "0x2faf080",
      "from": "0xec646a6c9000e04d050435340d9c42c039eb5648",
      "to": "0x167ad284c7bcc4d6342991aa258422e7a04f926e",
      "contractAddress": null
    }
  ],
  "libraries": [],
  "pending": [],
  "returns": {},
  "timestamp": 1770493912651,
  "chain": 56,
  "commit": null
}