{
  "transactions": [
    {
      "hash": "0xc57c5b47d7b24d231d93736f5ae8dcfb6dd8e35bd80c329a536631ffbbd06c4c",
      "transactionType": "CALL",
      "contractName": null,
      "contractAddress": "0x167ad284c7bcc4d6342991aa258422e7a04f926e",
      "function": "makeCrime(uint8)",
      "arguments": [
        "2"
      ],
      "transaction": {
        "from": "0xeca7a53ba6a190c5d205bfdc7707cbc3399336c1",
        "to": "0x167ad284c7bcc4d6342991aa258422e7a04f926e",
        "gas": "0x48dc2",
        "value": "0x0",
        "input": "0xc625abb40000000000000000000000000000000000000000000000000000000000000002",
        "nonce": "0x329",
        "chainId": "0x38"
      },
      "additionalContracts": [],
      "isFixedGasLimit": false
    }
  ],
  "receipts": [
    {
      "status": "0x1",
      "cumulativeGasUsed": "0xc0e28a",
      "logs": [
        {
          "address": "0x167ad284c7bcc4d6342991aa258422e7a04f926e",
          "topics": [
            "0xe36ceebd3770780c5617d53efc7d77328074f1248146245ed3b854cbf651fb37"
          ],
          "data": "0x000000000000000000000000eca7a53ba6a190c5d205bfdc7707cbc3399336c1000000000000000000000000000000000000000000000000000000000000000200000000000000000000000000000000000000000000000000000000000000000000000000000000000000000000000000000000000000000000000000000000000000000000000000000000000000000000000000000000000000000000000000000000000000000000000000000000000000000000000000000000000000000000000000000000000000000000000000000000000000000000000069887eaf0000000000000000000000000000000000000000000000000000000069887b2b",
          "blockHash": "0x30cb90b7d070ebf1612b883221b7a5e1e5dcc8907ccecf97c17f4f75cebf62a1",
          "blockNumber": "0x4c4ec7f",
          "blockTimestamp": "0x69887b2b",
          "transactionHash": "0xc57c5b47d7b24d231d93736f5ae8dcfb6dd8e35bd80c329a536631ffbbd06c4c",
          "transactionIndex": "0x5e",
          "logIndex": "0x1ba",
          "removed": false
        }
      ],
      "logsBloom": "0x00000000000000000000000000000000000000000000000000000000400000000000000000000040000000000000000000000000000000000000000000000000000000000000000000000000000000000000000000000000000000000000000000000000000000000000000000000000000000000000000000000000000000000000000000000000000000100000000000000000000020000000000000000004000000000000000000000000000000000000000000000000000000000000000000000000000000000000000000000000000000000000000000000000000000000000000000000000000100000000000000000000000000000000000000000000",
      "type": "0x2",
      "transactionHash": "0xc57c5b47d7b24d231d93736f5ae8dcfb6dd8e35bd80c329a536631ffbbd06c4c",
      "transactionIndex": "0x5e",
      "blockHash": "0x30cb90b7d070ebf1612b883221b7a5e1e5dcc8907ccecf97c17f4f75cebf62a1",
      "blockNumber": "0x4c4ec7f",
      "gasUsed": "0x1eab4",
      "effectiveGasPrice": "0x2faf080",
      "from": "0xeca7a53ba6a190c5d205bfdc7707cbc3399336c1",
      "to": "0x167ad284c7bcc4d6342991aa258422e7a04f926e",
      "contractAddress": null
    }
  ],
  "libraries": [],
  "pending": [],
  "returns": {},
  "timestamp": 1770552109041,
  "chain": 56,
  "commit": null
}