{
  "transactions": [
    {
      "hash": "0x0f43d612cd5d029bd57fa72cd39537e1e85037789b78d38b29025232df95abb5",
      "transactionType": "CALL",
      "contractName": null,
      "contractAddress": "0x167ad284c7bcc4d6342991aa258422e7a04f926e",
      "function": "makeCrime(uint8)",
      "arguments": [
        "0"
      ],
      "transaction": {
        "from": "0xeca7a53ba6a190c5d205bfdc7707cbc3399336c1",
        "to": "0x167ad284c7bcc4d6342991aa258422e7a04f926e",
        "gas": "0x5db94",
        "value": "0x0",
        "input": "0xc625abb40000000000000000000000000000000000000000000000000000000000000000",
        "nonce": "0x200",
        "chainId": "0x38"
      },
      "additionalContracts": [],
      "isFixedGasLimit": false
    }
  ],
  "receipts": [
    {
      "status": "0x1",
      "cumulativeGasUsed": "0xdda510",
      "logs": [
        {
          "address": "0x7371580cd13de739c734ae85062f75194d13fac2",
          "topics": [
            "0x0bff5315606c84d1cee047503678048ca39946be11bfdd5a8c03fe5e272d98e3"
          ],
          "data": "0x000000000000000000000000eca7a53ba6a190c5d205bfdc7707cbc3399336c1000000000000000000000000000000000000000000000000000000006979f0280000000000000000000000000000000000000000000000000000000000000000",
          "blockHash": "0x8395e1383fa32c7d90a484c20469f0c1d7fb636115c514619fffdbacb1455642",
          "blockNumber": "0x4a4919a",
          "blockTimestamp": "0x6979eae2",
          "transactionHash": "0x0f43d612cd5d029bd57fa72cd39537e1e85037789b78d38b29025232df95abb5",
          "transactionIndex": "0x59",
          "logIndex": "0x17f",
          "removed": false
        },
        {
          "address": "0xaae5ef15499c71301123ee4b13d20d570d24ad5e",
          "topics": [
            "0x6dd0730fb835f9bbe38532c3d82c7c87448bfdec295f1d7cd2d72ff339632a52"
          ],
          "data": "0x00000000000000000000000000000000000000000000000000000000000000c00000000000000000000000000000000000000000000000000000000000000100000000000000000000000000eca7a53ba6a190c5d205bfdc7707cbc3399336c10000000000000000000000000000000000000000000000000000000000000001000000000000000000000000000000000000000000000000000000006979eae2000000000000000000000000000000000000000000000000000000000000014000000000000000000000000000000000000000000000000000000000000000044a61696c000000000000000000000000000000000000000000000000000000000000000000000000000000000000000000000000000000000000000000000008496d707269736f6e0000000000000000000000000000000000000000000000000000000000000000000000000000000000000000000000000000000000000000",
          "blockHash": "0x8395e1383fa32c7d90a484c20469f0c1d7fb636115c514619fffdbacb1455642",
          "blockNumber": "0x4a4919a",
          "blockTimestamp": "0x6979eae2",
          "transactionHash": "0x0f43d612cd5d029bd57fa72cd39537e1e85037789b78d38b29025232df95abb5",
          "transactionIndex": "0x59",
          "logIndex": "0x180",
          "removed": false
        },
        {
          "address": "0x167ad284c7bcc4d6342991aa258422e7a04f926e",
          "topics": [
            "0xe36ceebd3770780c5617d53efc7d77328074f1248146245ed3b854cbf651fb37"
          ],
          "data": "0x000000000000000000000000eca7a53ba6a190c5d205bfdc7707cbc3399336c100000000000000000000000000000000000000000000000000000000000000000000000000000000000000000000000000000000000000000000000000000000000000000000000000000000000000000000000000000000000000000000000100000000000000000000000000000000000000000000000000000000000000000000000000000000000000000000000000000000000000000000000000000000000000000000000000000000000000000000000000000000000000006979ee66000000000000000000000000000000000000000000000000000000006979eae2",
          "blockHash": "0x8395e1383fa32c7d90a484c20469f0c1d7fb636115c514619fffdbacb1455642",
          "blockNumber": "0x4a4919a",
          "blockTimestamp": "0x6979eae2",
          "transactionHash": "0x0f43d612cd5d029bd57fa72cd39537e1e85037789b78d38b29025232df95abb5",
          "transactionIndex": "0x59",
          "logIndex": "0x181",
          "removed": false
        }
      ],
      "logsBloom": "0x00000000000000000000000000000000001040040000000000000000400000000001000000000040000000000000000000000000000000000000000000000000000000000000000000200000000000000000000002000000001000000000000000000000000000000000000000000020000000000000000000000000000000000000000000000000000000100000000000000000000020000000000000000004000000000000000000000000000000000000000000000000000000000000000000000000000000000000000000000040000000000000000000000000000000800000000000000000000100000000002000000000000000000000000000001000",
      "type": "0x2",
      "transactionHash": "0x0f43d612cd5d029bd57fa72cd39537e1e85037789b78d38b29025232df95abb5",
      "transactionIndex": "0x59",
      "blockHash": "0x8395e1383fa32c7d90a484c20469f0c1d7fb636115c514619fffdbacb1455642",
      "blockNumber": "0x4a4919a",
      "gasUsed": "0x2ecef",
      "effectiveGasPrice": "0x2faf080",
      "from": "0xeca7a53ba6a190c5d205bfdc7707cbc3399336c1",
      "to": "0x167ad284c7bcc4d6342991aa258422e7a04f926e",
      "contractAddress": null
    }
  ],
  "libraries": [],
  "pending": [],
  "returns": {},
  "timestamp": 1769597668449,
  "chain": 56,
  "commit": null
}