{
  "transactions": [
    {
      "hash": "0x466c348617b60fddcc1d00c683905754665dc4747bc6dc3d74223408b06e4eb3",
      "transactionType": "CALL",
      "contractName": null,
      "contractAddress": "0x167ad284c7bcc4d6342991aa258422e7a04f926e",
      "function": "makeCrime(uint8)",
      "arguments": [
        "0"
      ],
      "transaction": {
        "from": "0xaa73aa98480757d75aae288b5931261448eb0530",
        "to": "0x167ad284c7bcc4d6342991aa258422e7a04f926e",
        "gas": "0x592fa",
        "value": "0x0",
        "input": "0xc625abb40000000000000000000000000000000000000000000000000000000000000000",
        "nonce": "0x161",
        "chainId": "0x38"
      },
      "additionalContracts": [],
      "isFixedGasLimit": false
    }
  ],
  "receipts": [
    {
      "status": "0x1",
      "cumulativeGasUsed": "0x44365b",
      "logs": [
        {
          "address": "0x167ad284c7bcc4d6342991aa258422e7a04f926e",
          "topics": [
            "0xe36ceebd3770780c5617d53efc7d77328074f1248146245ed3b854cbf651fb37"
          ],
          "data": "0x000000000000000000000000aa73aa98480757d75aae288b5931261448eb053000000000000000000000000000000000000000000000000000000000000000000000000000000000000000000000000000000000000000000000000000000000000000000000000000000000000000000000000000000000000000000000000000000000000000000000000000000000000000000000000000000000000000000000000000000000000000000000000000000000000000000000000000000000000000000000000000000000000000000000000000000000000000006987845200000000000000000000000000000000000000000000000000000000698780ce",
          "blockHash": "0xcd2e7c3e618e9ef2c5e33398805df3ce5c014d4f65fb68dd48d8d9872e82128d",
          "blockNumber": "0x4c2c033",
          "blockTimestamp": "0x698780ce",
          "transactionHash": "0x466c348617b60fddcc1d00c683905754665dc4747bc6dc3d74223408b06e4eb3",
          "transactionIndex": "0x1c",
          "logIndex": "0x72",
          "removed": false
        }
      ],
      "logsBloom": "0x00000000000000000000000000000000000000000000000000000000400000000000000000000040000000000000000000000000000000000000000000000000000000000000000000000000000000000000000000000000000000000000000000000000000000000000000000000000000000000000000000000000000000000000000000000000000000100000000000000000000020000000000000000004000000000000000000000000000000000000000000000000000000000000000000000000000000000000000000000000000000000000000000000000000000000000000000000000000100000000000000000000000000000000000000000000",
      "type": "0x2",
      "transactionHash": "0x466c348617b60fddcc1d00c683905754665dc4747bc6dc3d74223408b06e4eb3",
      "transactionIndex": "0x1c",
      "blockHash": "0xcd2e7c3e618e9ef2c5e33398805df3ce5c014d4f65fb68dd48d8d9872e82128d",
      "blockNumber": "0x4c2c033",
      "gasUsed": "0x1e72c",
      "effectiveGasPrice": "0x2faf080",
      "from": "0xaa73aa98480757d75aae288b5931261448eb0530",
      "to": "0x167ad284c7bcc4d6342991aa258422e7a04f926e",
      "contractAddress": null
    }
  ],
  "libraries": [],
  "pending": [],
  "returns": {},
  "timestamp": 1770488015963,
  "chain": 56,
  "commit": null
}