{
  "transactions": [
    {
      "hash": "0xfe9d67882e172343ec3cbdab8d7eed50077a9c1f457dac493ae158b293e28f02",
      "transactionType": "CALL",
      "contractName": null,
      "contractAddress": "0x167ad284c7bcc4d6342991aa258422e7a04f926e",
      "function": "makeCrime(uint8)",
      "arguments": [
        "0"
      ],
      "transaction": {
        "from": "0xac56dc5a4a9de0197f7b8f584ea04ec7e0123dde",
        "to": "0x167ad284c7bcc4d6342991aa258422e7a04f926e",
        "gas": "0x45b7c",
        "value": "0x0",
        "input": "0xc625abb40000000000000000000000000000000000000000000000000000000000000000",
        "nonce": "0xc0",
        "chainId": "0x38"
      },
      "additionalContracts": [],
      "isFixedGasLimit": false
    }
  ],
  "receipts": [
    {
      "status": "0x1",
      "cumulativeGasUsed": "0x13539b6",
      "logs": [
        {
          "address": "0x7371580cd13de739c734ae85062f75194d13fac2",
          "topics": [
            "0x0bff5315606c84d1cee047503678048ca39946be11bfdd5a8c03fe5e272d98e3"
          ],
          "data": "0x000000000000000000000000ac56dc5a4a9de0197f7b8f584ea04ec7e0123dde00000000000000000000000000000000000000000000000000000000698398830000000000000000000000000000000000000000000000000000000000000000",
          "blockHash": "0xd3b3359554884efe9f9f39d81c1446785cef4c4352453fc06ab396aff805b2ae",
          "blockNumber": "0x4ba0600",
          "blockTimestamp": "0x6983933d",
          "transactionHash": "0xfe9d67882e172343ec3cbdab8d7eed50077a9c1f457dac493ae158b293e28f02",
          "transactionIndex": "0x80",
          "logIndex": "0x1d9",
          "removed": false
        },
        {
          "address": "0xaae5ef15499c71301123ee4b13d20d570d24ad5e",
          "topics": [
            "0x6dd0730fb835f9bbe38532c3d82c7c87448bfdec295f1d7cd2d72ff339632a52"
          ],
          "data": "0x00000000000000000000000000000000000000000000000000000000000000c00000000000000000000000000000000000000000000000000000000000000100000000000000000000000000ac56dc5a4a9de0197f7b8f584ea04ec7e0123dde0000000000000000000000000000000000000000000000000000000000000001000000000000000000000000000000000000000000000000000000006983933d000000000000000000000000000000000000000000000000000000000000014000000000000000000000000000000000000000000000000000000000000000044a61696c000000000000000000000000000000000000000000000000000000000000000000000000000000000000000000000000000000000000000000000008496d707269736f6e0000000000000000000000000000000000000000000000000000000000000000000000000000000000000000000000000000000000000000",
          "blockHash": "0xd3b3359554884efe9f9f39d81c1446785cef4c4352453fc06ab396aff805b2ae",
          "blockNumber": "0x4ba0600",
          "blockTimestamp": "0x6983933d",
          "transactionHash": "0xfe9d67882e172343ec3cbdab8d7eed50077a9c1f457dac493ae158b293e28f02",
          "transactionIndex": "0x80",
          "logIndex": "0x1da",
          "removed": false
        },
        {
          "address": "0x167ad284c7bcc4d6342991aa258422e7a04f926e",
          "topics": [
            "0xe36ceebd3770780c5617d53efc7d77328074f1248146245ed3b854cbf651fb37"
          ],
          "data": "0x000000000000000000000000ac56dc5a4a9de0197f7b8f584ea04ec7e0123dde0000000000000000000000000000000000000000000000000000000000000000000000000000000000000000000000000000000000000000000000000000000000000000000000000000000000000000000000000000000000000000000000010000000000000000000000000000000000000000000000000000000000000000000000000000000000000000000000000000000000000000000000000000000000000000000000000000000000000000000000000000000000000000698396c1000000000000000000000000000000000000000000000000000000006983933d",
          "blockHash": "0xd3b3359554884efe9f9f39d81c1446785cef4c4352453fc06ab396aff805b2ae",
          "blockNumber": "0x4ba0600",
          "blockTimestamp": "0x6983933d",
          "transactionHash": "0xfe9d67882e172343ec3cbdab8d7eed50077a9c1f457dac493ae158b293e28f02",
          "transactionIndex": "0x80",
          "logIndex": "0x1db",
          "removed": false
        }
      ],
      "logsBloom": "0x00000000000000000000000000000000001040040000000000000000400000000001000000000040000000000000000000000000000000000000000000000000000000000000000000200000000000000000000002000000001000000000000000000000000000000000000000000020000000000000000000000000000000000000000000000000000000100000000000000000000020000000000000000004000000000000000000000000000000000000000000000000000000000000000000000000000000000000000000000040000000000000000000000000000000800000000000000000000100000000002000000000000000000000000000001000",
      "type": "0x2",
      "transactionHash": "0xfe9d67882e172343ec3cbdab8d7eed50077a9c1f457dac493ae158b293e28f02",
      "transactionIndex": "0x80",
      "blockHash": "0xd3b3359554884efe9f9f39d81c1446785cef4c4352453fc06ab396aff805b2ae",
      "blockNumber": "0x4ba0600",
      "gasUsed": "0x2faba",
      "effectiveGasPrice": "0x2faf080",
      "from": "0xac56dc5a4a9de0197f7b8f584ea04ec7e0123dde",
      "to": "0x167ad284c7bcc4d6342991aa258422e7a04f926e",
      "contractAddress": null
    }
  ],
  "libraries": [],
  "pending": [],
  "returns": {},
  "timestamp": 1770230591186,
  "chain": 56,
  "commit": null
}