{
  "transactions": [
    {
      "hash": "0x08e29217193b7c44f2c18aab87b2ceccf58bd15261b6948495324e82877b4736",
      "transactionType": "CALL",
      "contractName": null,
      "contractAddress": "0x167ad284c7bcc4d6342991aa258422e7a04f926e",
      "function": "makeCrime(uint8)",
      "arguments": [
        "0"
      ],
      "transaction": {
        "from": "0xec646a6c9000e04d050435340d9c42c039eb5648",
        "to": "0x167ad284c7bcc4d6342991aa258422e7a04f926e",
        "gas": "0x45b7c",
        "value": "0x0",
        "input": "0xc625abb40000000000000000000000000000000000000000000000000000000000000000",
        "nonce": "0x4e",
        "chainId": "0x38"
      },
      "additionalContracts": [],
      "isFixedGasLimit": false
    }
  ],
  "receipts": [
    {
      "status": "0x1",
      "cumulativeGasUsed": "0x1dd922b",
      "logs": [
        {
          "address": "0x167ad284c7bcc4d6342991aa258422e7a04f926e",
          "topics": [
            "0xe36ceebd3770780c5617d53efc7d77328074f1248146245ed3b854cbf651fb37"
          ],
          "data": "0x000000000000000000000000ec646a6c9000e04d050435340d9c42c039eb56480000000000000000000000000000000000000000000000000000000000000000000000000000000000000000000000000000000000000000000000000000000000000000000000000000000000000000000000000000000000000000000000000000000000000000000000000000000000000000000000000000000000000000000000000000000000000000000000000000000000000000000000000000000000000000000000000000000000000000000000000000000000000000698379c3000000000000000000000000000000000000000000000000000000006983763f",
          "blockHash": "0xed553061479dc7f26d79f5a2a7a2022a52dbfc84bc48c34bb862d086728d1c30",
          "blockNumber": "0x4b9c594",
          "blockTimestamp": "0x6983763f",
          "transactionHash": "0x08e29217193b7c44f2c18aab87b2ceccf58bd15261b6948495324e82877b4736",
          "transactionIndex": "0x2a",
          "logIndex": "0xab",
          "removed": false
        }
      ],
      "logsBloom": "0x00000000000000000000000000000000000000000000000000000000400000000000000000000040000000000000000000000000000000000000000000000000000000000000000000000000000000000000000000000000000000000000000000000000000000000000000000000000000000000000000000000000000000000000000000000000000000100000000000000000000020000000000000000004000000000000000000000000000000000000000000000000000000000000000000000000000000000000000000000000000000000000000000000000000000000000000000000000000100000000000000000000000000000000000000000000",
      "type": "0x2",
      "transactionHash": "0x08e29217193b7c44f2c18aab87b2ceccf58bd15261b6948495324e82877b4736",
      "transactionIndex": "0x2a",
      "blockHash": "0xed553061479dc7f26d79f5a2a7a2022a52dbfc84bc48c34bb862d086728d1c30",
      "blockNumber": "0x4b9c594",
      "gasUsed": "0x1e72c",
      "effectiveGasPrice": "0x3197502",
      "from": "0xec646a6c9000e04d050435340d9c42c039eb5648",
      "to": "0x167ad284c7bcc4d6342991aa258422e7a04f926e",
      "contractAddress": null
    }
  ],
  "libraries": [],
  "pending": [],
  "returns": {},
  "timestamp": 1770223169034,
  "chain": 56,
  "commit": null
}