{
  "transactions": [
    {
      "hash": "0x834c6dd1941cd4f269434c273e9b1dbe839a873beeaccd3d38f1efdabba71a70",
      "transactionType": "CALL",
      "contractName": null,
      "contractAddress": "0x167ad284c7bcc4d6342991aa258422e7a04f926e",
      "function": "makeCrime(uint8)",
      "arguments": [
        "0"
      ],
      "transaction": {
        "from": "0x4c62f6121e6f967a0872da8364995e9b68c1e82f",
        "to": "0x167ad284c7bcc4d6342991aa258422e7a04f926e",
        "gas": "0x4218c",
        "value": "0x0",
        "input": "0xc625abb40000000000000000000000000000000000000000000000000000000000000000",
        "nonce": "0x1a3",
        "chainId": "0x38"
      },
      "additionalContracts": [],
      "isFixedGasLimit": false
    }
  ],
  "receipts": [
    {
      "status": "0x1",
      "cumulativeGasUsed": "0x9a545c",
      "logs": [
        {
          "address": "0x7371580cd13de739c734ae85062f75194d13fac2",
          "topics": [
            "0x0bff5315606c84d1cee047503678048ca39946be11bfdd5a8c03fe5e272d98e3"
          ],
          "data": "0x0000000000000000000000004c62f6121e6f967a0872da8364995e9b68c1e82f0000000000000000000000000000000000000000000000000000000069879eb90000000000000000000000000000000000000000000000000000000000000000",
          "blockHash": "0xea87b9ed0952a367daf034010ada0f59e55952a62c1b2084b38eb23681885668",
          "blockNumber": "0x4c2f6f8",
          "blockTimestamp": "0x69879973",
          "transactionHash": "0x834c6dd1941cd4f269434c273e9b1dbe839a873beeaccd3d38f1efdabba71a70",
          "transactionIndex": "0x33",
          "logIndex": "0x1a2",
          "removed": false
        },
        {
          "address": "0xaae5ef15499c71301123ee4b13d20d570d24ad5e",
          "topics": [
            "0x6dd0730fb835f9bbe38532c3d82c7c87448bfdec295f1d7cd2d72ff339632a52"
          ],
          "data": "0x00000000000000000000000000000000000000000000000000000000000000c000000000000000000000000000000000000000000000000000000000000001000000000000000000000000004c62f6121e6f967a0872da8364995e9b68c1e82f00000000000000000000000000000000000000000000000000000000000000010000000000000000000000000000000000000000000000000000000069879973000000000000000000000000000000000000000000000000000000000000014000000000000000000000000000000000000000000000000000000000000000044a61696c000000000000000000000000000000000000000000000000000000000000000000000000000000000000000000000000000000000000000000000008496d707269736f6e0000000000000000000000000000000000000000000000000000000000000000000000000000000000000000000000000000000000000000",
          "blockHash": "0xea87b9ed0952a367daf034010ada0f59e55952a62c1b2084b38eb23681885668",
          "blockNumber": "0x4c2f6f8",
          "blockTimestamp": "0x69879973",
          "transactionHash": "0x834c6dd1941cd4f269434c273e9b1dbe839a873beeaccd3d38f1efdabba71a70",
          "transactionIndex": "0x33",
          "logIndex": "0x1a3",
          "removed": false
        },
        {
          "address": "0x167ad284c7bcc4d6342991aa258422e7a04f926e",
          "topics": [
            "0xe36ceebd3770780c5617d53efc7d77328074f1248146245ed3b854cbf651fb37"
          ],
          "data": "0x0000000000000000000000004c62f6121e6f967a0872da8364995e9b68c1e82f000000000000000000000000000000000000000000000000000000000000000000000000000000000000000000000000000000000000000000000000000000000000000000000000000000000000000000000000000000000000000000000001000000000000000000000000000000000000000000000000000000000000000000000000000000000000000000000000000000000000000000000000000000000000000000000000000000000000000000000000000000000000000069879cf70000000000000000000000000000000000000000000000000000000069879973",
          "blockHash": "0xea87b9ed0952a367daf034010ada0f59e55952a62c1b2084b38eb23681885668",
          "blockNumber": "0x4c2f6f8",
          "blockTimestamp": "0x69879973",
          "transactionHash": "0x834c6dd1941cd4f269434c273e9b1dbe839a873beeaccd3d38f1efdabba71a70",
          "transactionIndex": "0x33",
          "logIndex": "0x1a4",
          "removed": false
        }
      ],
      "logsBloom": "0x00000000000000000000000000000000001040040000000000000000400000000001000000000040000000000000000000000000000000000000000000000000000000000000000000200000000000000000000002000000001000000000000000000000000000000000000000000020000000000000000000000000000000000000000000000000000000100000000000000000000020000000000000000004000000000000000000000000000000000000000000000000000000000000000000000000000000000000000000000040000000000000000000000000000000800000000000000000000100000000002000000000000000000000000000001000",
      "type": "0x2",
      "transactionHash": "0x834c6dd1941cd4f269434c273e9b1dbe839a873beeaccd3d38f1efdabba71a70",
      "transactionIndex": "0x33",
      "blockHash": "0xea87b9ed0952a367daf034010ada0f59e55952a62c1b2084b38eb23681885668",
      "blockNumber": "0x4c2f6f8",
      "gasUsed": "0x2fda6",
      "effectiveGasPrice": "0x2faf080",
      "from": "0x4c62f6121e6f967a0872da8364995e9b68c1e82f",
      "to": "0x167ad284c7bcc4d6342991aa258422e7a04f926e",
      "contractAddress": null
    }
  ],
  "libraries": [],
  "pending": [],
  "returns": {},
  "timestamp": 1770494325917,
  "chain": 56,
  "commit": null
}