{
  "transactions": [
    {
      "hash": "0x801a0d6489e22249ee8a46ea7e2ab119638a98a201d1d1fd1d7bb1f43b429dc8",
      "transactionType": "CALL",
      "contractName": null,
      "contractAddress": "0x167ad284c7bcc4d6342991aa258422e7a04f926e",
      "function": "makeCrime(uint8)",
      "arguments": [
        "0"
      ],
      "transaction": {
        "from": "0xec646a6c9000e04d050435340d9c42c039eb5648",
        "to": "0x167ad284c7bcc4d6342991aa258422e7a04f926e",
        "gas": "0x2a0e7",
        "value": "0x0",
        "input": "0xc625abb40000000000000000000000000000000000000000000000000000000000000000",
        "nonce": "0x6c",
        "chainId": "0x38"
      },
      "additionalContracts": [],
      "isFixedGasLimit": false
    }
  ],
  "receipts": [
    {
      "status": "0x1",
      "cumulativeGasUsed": "0xc34fd8",
      "logs": [
        {
          "address": "0x167ad284c7bcc4d6342991aa258422e7a04f926e",
          "topics": [
            "0xe36ceebd3770780c5617d53efc7d77328074f1248146245ed3b854cbf651fb37"
          ],
          "data": "0x000000000000000000000000ec646a6c9000e04d050435340d9c42c039eb564800000000000000000000000000000000000000000000000000000000000000000000000000000000000000000000000000000000000000000000000000000000000000000000000000000000000000000000000000000000000000000000000000000000000000000000000000000000000000000000000000000000000000000000000000000000000000000000000000000000000000000000000000000000000000000000000000000000000000000000000000000000000000006984b0b3000000000000000000000000000000000000000000000000000000006984ad2f",
          "blockHash": "0x611b2483781b3946e6e9d830e1a3090f29710a4b1c16ff91e382076269b7a765",
          "blockNumber": "0x4bc7872",
          "blockTimestamp": "0x6984ad2f",
          "transactionHash": "0x801a0d6489e22249ee8a46ea7e2ab119638a98a201d1d1fd1d7bb1f43b429dc8",
          "transactionIndex": "0x64",
          "logIndex": "0x119",
          "removed": false
        }
      ],
      "logsBloom": "0x00000000000000000000000000000000000000000000000000000000400000000000000000000040000000000000000000000000000000000000000000000000000000000000000000000000000000000000000000000000000000000000000000000000000000000000000000000000000000000000000000000000000000000000000000000000000000100000000000000000000020000000000000000004000000000000000000000000000000000000000000000000000000000000000000000000000000000000000000000000000000000000000000000000000000000000000000000000000100000000000000000000000000000000000000000000",
      "type": "0x2",
      "transactionHash": "0x801a0d6489e22249ee8a46ea7e2ab119638a98a201d1d1fd1d7bb1f43b429dc8",
      "transactionIndex": "0x64",
      "blockHash": "0x611b2483781b3946e6e9d830e1a3090f29710a4b1c16ff91e382076269b7a765",
      "blockNumber": "0x4bc7872",
      "gasUsed": "0x1e72c",
      "effectiveGasPrice": "0x2faf080",
      "from": "0xec646a6c9000e04d050435340d9c42c039eb5648",
      "to": "0x167ad284c7bcc4d6342991aa258422e7a04f926e",
      "contractAddress": null
    }
  ],
  "libraries": [],
  "pending": [],
  "returns": {},
  "timestamp": 1770302769300,
  "chain": 56,
  "commit": null
}