{
  "transactions": [
    {
      "hash": "0xa53cfa70ec274ebbb7a87cc2bda53a166919d4f52cfd32f62b8dac6fd8c916cc",
      "transactionType": "CALL",
      "contractName": null,
      "contractAddress": "0x167ad284c7bcc4d6342991aa258422e7a04f926e",
      "function": "makeCrime(uint8)",
      "arguments": [
        "0"
      ],
      "transaction": {
        "from": "0x4c62f6121e6f967a0872da8364995e9b68c1e82f",
        "to": "0x167ad284c7bcc4d6342991aa258422e7a04f926e",
        "gas": "0x41540",
        "value": "0x0",
        "input": "0xc625abb40000000000000000000000000000000000000000000000000000000000000000",
        "nonce": "0xb5",
        "chainId": "0x38"
      },
      "additionalContracts": [],
      "isFixedGasLimit": false
    }
  ],
  "receipts": [
    {
      "status": "0x1",
      "cumulativeGasUsed": "0x779e22",
      "logs": [
        {
          "address": "0x7371580cd13de739c734ae85062f75194d13fac2",
          "topics": [
            "0x0bff5315606c84d1cee047503678048ca39946be11bfdd5a8c03fe5e272d98e3"
          ],
          "data": "0x0000000000000000000000004c62f6121e6f967a0872da8364995e9b68c1e82f00000000000000000000000000000000000000000000000000000000697a92970000000000000000000000000000000000000000000000000000000000000000",
          "blockHash": "0x399101848559dc2292fd7bcfebe6069cbe912cc58d6a08dfce8be627b195fc17",
          "blockNumber": "0x4a5fa7d",
          "blockTimestamp": "0x697a8d51",
          "transactionHash": "0xa53cfa70ec274ebbb7a87cc2bda53a166919d4f52cfd32f62b8dac6fd8c916cc",
          "transactionIndex": "0x2a",
          "logIndex": "0xf5",
          "removed": false
        },
        {
          "address": "0xaae5ef15499c71301123ee4b13d20d570d24ad5e",
          "topics": [
            "0x6dd0730fb835f9bbe38532c3d82c7c87448bfdec295f1d7cd2d72ff339632a52"
          ],
          "data": "0x00000000000000000000000000000000000000000000000000000000000000c000000000000000000000000000000000000000000000000000000000000001000000000000000000000000004c62f6121e6f967a0872da8364995e9b68c1e82f000000000000000000000000000000000000000000000000000000000000000100000000000000000000000000000000000000000000000000000000697a8d51000000000000000000000000000000000000000000000000000000000000014000000000000000000000000000000000000000000000000000000000000000044a61696c000000000000000000000000000000000000000000000000000000000000000000000000000000000000000000000000000000000000000000000008496d707269736f6e0000000000000000000000000000000000000000000000000000000000000000000000000000000000000000000000000000000000000000",
          "blockHash": "0x399101848559dc2292fd7bcfebe6069cbe912cc58d6a08dfce8be627b195fc17",
          "blockNumber": "0x4a5fa7d",
          "blockTimestamp": "0x697a8d51",
          "transactionHash": "0xa53cfa70ec274ebbb7a87cc2bda53a166919d4f52cfd32f62b8dac6fd8c916cc",
          "transactionIndex": "0x2a",
          "logIndex": "0xf6",
          "removed": false
        },
        {
          "address": "0x167ad284c7bcc4d6342991aa258422e7a04f926e",
          "topics": [
            "0xe36ceebd3770780c5617d53efc7d77328074f1248146245ed3b854cbf651fb37"
          ],
          "data": "0x0000000000000000000000004c62f6121e6f967a0872da8364995e9b68c1e82f0000000000000000000000000000000000000000000000000000000000000000000000000000000000000000000000000000000000000000000000000000000000000000000000000000000000000000000000000000000000000000000000010000000000000000000000000000000000000000000000000000000000000000000000000000000000000000000000000000000000000000000000000000000000000000000000000000000000000000000000000000000000000000697a90d500000000000000000000000000000000000000000000000000000000697a8d51",
          "blockHash": "0x399101848559dc2292fd7bcfebe6069cbe912cc58d6a08dfce8be627b195fc17",
          "blockNumber": "0x4a5fa7d",
          "blockTimestamp": "0x697a8d51",
          "transactionHash": "0xa53cfa70ec274ebbb7a87cc2bda53a166919d4f52cfd32f62b8dac6fd8c916cc",
          "transactionIndex": "0x2a",
          "logIndex": "0xf7",
          "removed": false
        }
      ],
      "logsBloom": "0x00000000000000000000000000000000001040040000000000000000400000000001000000000040000000000000000000000000000000000000000000000000000000000000000000200000000000000000000002000000001000000000000000000000000000000000000000000020000000000000000000000000000000000000000000000000000000100000000000000000000020000000000000000004000000000000000000000000000000000000000000000000000000000000000000000000000000000000000000000040000000000000000000000000000000800000000000000000000100000000002000000000000000000000000000001000",
      "type": "0x2",
      "transactionHash": "0xa53cfa70ec274ebbb7a87cc2bda53a166919d4f52cfd32f62b8dac6fd8c916cc",
      "transactionIndex": "0x2a",
      "blockHash": "0x399101848559dc2292fd7bcfebe6069cbe912cc58d6a08dfce8be627b195fc17",
      "blockNumber": "0x4a5fa7d",
      "gasUsed": "0x2f4bf",
      "effectiveGasPrice": "0x2faf080",
      "from": "0x4c62f6121e6f967a0872da8364995e9b68c1e82f",
      "to": "0x167ad284c7bcc4d6342991aa258422e7a04f926e",
      "contractAddress": null
    }
  ],
  "libraries": [],
  "pending": [],
  "returns": {},
  "timestamp": 1769639251607,
  "chain": 56,
  "commit": null
}