{
  "transactions": [
    {
      "hash": "0x3f405f13ba856f70b90a7736b7ee7a7c081cf78ae7938629cc82e3dfd078cb8e",
      "transactionType": "CALL",
      "contractName": null,
      "contractAddress": "0x167ad284c7bcc4d6342991aa258422e7a04f926e",
      "function": "makeCrime(uint8)",
      "arguments": [
        "0"
      ],
      "transaction": {
        "from": "0xeca7a53ba6a190c5d205bfdc7707cbc3399336c1",
        "to": "0x167ad284c7bcc4d6342991aa258422e7a04f926e",
        "gas": "0x59794",
        "value": "0x0",
        "input": "0xc625abb40000000000000000000000000000000000000000000000000000000000000000",
        "nonce": "0x29a",
        "chainId": "0x38"
      },
      "additionalContracts": [],
      "isFixedGasLimit": false
    }
  ],
  "receipts": [
    {
      "status": "0x1",
      "cumulativeGasUsed": "0xb7092a",
      "logs": [
        {
          "address": "0x167ad284c7bcc4d6342991aa258422e7a04f926e",
          "topics": [
            "0xe36ceebd3770780c5617d53efc7d77328074f1248146245ed3b854cbf651fb37"
          ],
          "data": "0x000000000000000000000000eca7a53ba6a190c5d205bfdc7707cbc3399336c1000000000000000000000000000000000000000000000000000000000000000000000000000000000000000000000000000000000000000000000000000000000000000000000000000000000000000000000000000000000000000000000000000000000000000000000000000000000000000000000000000000000000000000000000000000000000000000000000000000000000000000000000000000000000000000000000000000000000000000000000000000000000000069836c8300000000000000000000000000000000000000000000000000000000698368ff",
          "blockHash": "0x0f8025d7665d40867e5f3e54e24e9a8b3ab63e11dc59d2c884e50b9e74a099ac",
          "blockNumber": "0x4b9a823",
          "blockTimestamp": "0x698368ff",
          "transactionHash": "0x3f405f13ba856f70b90a7736b7ee7a7c081cf78ae7938629cc82e3dfd078cb8e",
          "transactionIndex": "0x5e",
          "logIndex": "0x16e",
          "removed": false
        }
      ],
      "logsBloom": "0x00000000000000000000000000000000000000000000000000000000400000000000000000000040000000000000000000000000000000000000000000000000000000000000000000000000000000000000000000000000000000000000000000000000000000000000000000000000000000000000000000000000000000000000000000000000000000100000000000000000000020000000000000000004000000000000000000000000000000000000000000000000000000000000000000000000000000000000000000000000000000000000000000000000000000000000000000000000000100000000000000000000000000000000000000000000",
      "type": "0x2",
      "transactionHash": "0x3f405f13ba856f70b90a7736b7ee7a7c081cf78ae7938629cc82e3dfd078cb8e",
      "transactionIndex": "0x5e",
      "blockHash": "0x0f8025d7665d40867e5f3e54e24e9a8b3ab63e11dc59d2c884e50b9e74a099ac",
      "blockNumber": "0x4b9a823",
      "gasUsed": "0x1ea18",
      "effectiveGasPrice": "0x2faf080",
      "from": "0xeca7a53ba6a190c5d205bfdc7707cbc3399336c1",
      "to": "0x167ad284c7bcc4d6342991aa258422e7a04f926e",
      "contractAddress": null
    }
  ],
  "libraries": [],
  "pending": [],
  "returns": {},
  "timestamp": 1770219777493,
  "chain": 56,
  "commit": null
}