{
  "transactions": [
    {
      "hash": "0x0f04833724ac45871570d5a0af32bebf95dc9f173834a398c261bca4d152096c",
      "transactionType": "CALL",
      "contractName": null,
      "contractAddress": "0x167ad284c7bcc4d6342991aa258422e7a04f926e",
      "function": "makeCrime(uint8)",
      "arguments": [
        "0"
      ],
      "transaction": {
        "from": "0x4c62f6121e6f967a0872da8364995e9b68c1e82f",
        "to": "0x167ad284c7bcc4d6342991aa258422e7a04f926e",
        "gas": "0x59794",
        "value": "0x0",
        "input": "0xc625abb40000000000000000000000000000000000000000000000000000000000000000",
        "nonce": "0x165",
        "chainId": "0x38"
      },
      "additionalContracts": [],
      "isFixedGasLimit": false
    }
  ],
  "receipts": [
    {
      "status": "0x1",
      "cumulativeGasUsed": "0xcf96dd",
      "logs": [
        {
          "address": "0x7371580cd13de739c734ae85062f75194d13fac2",
          "topics": [
            "0x0bff5315606c84d1cee047503678048ca39946be11bfdd5a8c03fe5e272d98e3"
          ],
          "data": "0x0000000000000000000000004c62f6121e6f967a0872da8364995e9b68c1e82f000000000000000000000000000000000000000000000000000000006984adfb0000000000000000000000000000000000000000000000000000000000000000",
          "blockHash": "0x9658b96f0b06487fbee1c1b1b0ab2117b6488f8ddcec112269dda3368f30ef90",
          "blockNumber": "0x4bc6e80",
          "blockTimestamp": "0x6984a8b5",
          "transactionHash": "0x0f04833724ac45871570d5a0af32bebf95dc9f173834a398c261bca4d152096c",
          "transactionIndex": "0x47",
          "logIndex": "0x149",
          "removed": false
        },
        {
          "address": "0xaae5ef15499c71301123ee4b13d20d570d24ad5e",
          "topics": [
            "0x6dd0730fb835f9bbe38532c3d82c7c87448bfdec295f1d7cd2d72ff339632a52"
          ],
          "data": "0x00000000000000000000000000000000000000000000000000000000000000c000000000000000000000000000000000000000000000000000000000000001000000000000000000000000004c62f6121e6f967a0872da8364995e9b68c1e82f0000000000000000000000000000000000000000000000000000000000000001000000000000000000000000000000000000000000000000000000006984a8b5000000000000000000000000000000000000000000000000000000000000014000000000000000000000000000000000000000000000000000000000000000044a61696c000000000000000000000000000000000000000000000000000000000000000000000000000000000000000000000000000000000000000000000008496d707269736f6e0000000000000000000000000000000000000000000000000000000000000000000000000000000000000000000000000000000000000000",
          "blockHash": "0x9658b96f0b06487fbee1c1b1b0ab2117b6488f8ddcec112269dda3368f30ef90",
          "blockNumber": "0x4bc6e80",
          "blockTimestamp": "0x6984a8b5",
          "transactionHash": "0x0f04833724ac45871570d5a0af32bebf95dc9f173834a398c261bca4d152096c",
          "transactionIndex": "0x47",
          "logIndex": "0x14a",
          "removed": false
        },
        {
          "address": "0x167ad284c7bcc4d6342991aa258422e7a04f926e",
          "topics": [
            "0xe36ceebd3770780c5617d53efc7d77328074f1248146245ed3b854cbf651fb37"
          ],
          "data": "0x0000000000000000000000004c62f6121e6f967a0872da8364995e9b68c1e82f00000000000000000000000000000000000000000000000000000000000000000000000000000000000000000000000000000000000000000000000000000000000000000000000000000000000000000000000000000000000000000000000100000000000000000000000000000000000000000000000000000000000000000000000000000000000000000000000000000000000000000000000000000000000000000000000000000000000000000000000000000000000000006984ac39000000000000000000000000000000000000000000000000000000006984a8b5",
          "blockHash": "0x9658b96f0b06487fbee1c1b1b0ab2117b6488f8ddcec112269dda3368f30ef90",
          "blockNumber": "0x4bc6e80",
          "blockTimestamp": "0x6984a8b5",
          "transactionHash": "0x0f04833724ac45871570d5a0af32bebf95dc9f173834a398c261bca4d152096c",
          "transactionIndex": "0x47",
          "logIndex": "0x14b",
          "removed": false
        }
      ],
      "logsBloom": "0x00000000000000000000000000000000001040040000000000000000400000000001000000000040000000000000000000000000000000000000000000000000000000000000000000200000000000000000000002000000001000000000000000000000000000000000000000000020000000000000000000000000000000000000000000000000000000100000000000000000000020000000000000000004000000000000000000000000000000000000000000000000000000000000000000000000000000000000000000000040000000000000000000000000000000800000000000000000000100000000002000000000000000000000000000001000",
      "type": "0x2",
      "transactionHash": "0x0f04833724ac45871570d5a0af32bebf95dc9f173834a398c261bca4d152096c",
      "transactionIndex": "0x47",
      "blockHash": "0x9658b96f0b06487fbee1c1b1b0ab2117b6488f8ddcec112269dda3368f30ef90",
      "blockNumber": "0x4bc6e80",
      "gasUsed": "0x2fda6",
      "effectiveGasPrice": "0x2faf080",
      "from": "0x4c62f6121e6f967a0872da8364995e9b68c1e82f",
      "to": "0x167ad284c7bcc4d6342991aa258422e7a04f926e",
      "contractAddress": null
    }
  ],
  "libraries": [],
  "pending": [],
  "returns": {},
  "timestamp": 1770301623217,
  "chain": 56,
  "commit": null
}