{
  "transactions": [
    {
      "hash": "0xefac40b5b994c113b0b6d6f7b012f22f5d2e54ae08f2dd6c54016a2873220541",
      "transactionType": "CALL",
      "contractName": null,
      "contractAddress": "0x167ad284c7bcc4d6342991aa258422e7a04f926e",
      "function": "makeCrime(uint8)",
      "arguments": [
        "0"
      ],
      "transaction": {
        "from": "0xaa73aa98480757d75aae288b5931261448eb0530",
        "to": "0x167ad284c7bcc4d6342991aa258422e7a04f926e",
        "gas": "0x592fa",
        "value": "0x0",
        "input": "0xc625abb40000000000000000000000000000000000000000000000000000000000000000",
        "nonce": "0x145",
        "chainId": "0x38"
      },
      "additionalContracts": [],
      "isFixedGasLimit": false
    }
  ],
  "receipts": [
    {
      "status": "0x1",
      "cumulativeGasUsed": "0x4d8ac0",
      "logs": [
        {
          "address": "0x7371580cd13de739c734ae85062f75194d13fac2",
          "topics": [
            "0x0bff5315606c84d1cee047503678048ca39946be11bfdd5a8c03fe5e272d98e3"
          ],
          "data": "0x000000000000000000000000aa73aa98480757d75aae288b5931261448eb0530000000000000000000000000000000000000000000000000000000006985cd770000000000000000000000000000000000000000000000000000000000000000",
          "blockHash": "0x26f8fa1f0d09d65da16e24dffb8125eabf26e9e66531a6a2a43f2f244ed7a7cc",
          "blockNumber": "0x4beed44",
          "blockTimestamp": "0x6985c831",
          "transactionHash": "0xefac40b5b994c113b0b6d6f7b012f22f5d2e54ae08f2dd6c54016a2873220541",
          "transactionIndex": "0x20",
          "logIndex": "0x9f",
          "removed": false
        },
        {
          "address": "0xaae5ef15499c71301123ee4b13d20d570d24ad5e",
          "topics": [
            "0x6dd0730fb835f9bbe38532c3d82c7c87448bfdec295f1d7cd2d72ff339632a52"
          ],
          "data": "0x00000000000000000000000000000000000000000000000000000000000000c00000000000000000000000000000000000000000000000000000000000000100000000000000000000000000aa73aa98480757d75aae288b5931261448eb05300000000000000000000000000000000000000000000000000000000000000001000000000000000000000000000000000000000000000000000000006985c831000000000000000000000000000000000000000000000000000000000000014000000000000000000000000000000000000000000000000000000000000000044a61696c000000000000000000000000000000000000000000000000000000000000000000000000000000000000000000000000000000000000000000000008496d707269736f6e0000000000000000000000000000000000000000000000000000000000000000000000000000000000000000000000000000000000000000",
          "blockHash": "0x26f8fa1f0d09d65da16e24dffb8125eabf26e9e66531a6a2a43f2f244ed7a7cc",
          "blockNumber": "0x4beed44",
          "blockTimestamp": "0x6985c831",
          "transactionHash": "0xefac40b5b994c113b0b6d6f7b012f22f5d2e54ae08f2dd6c54016a2873220541",
          "transactionIndex": "0x20",
          "logIndex": "0xa0",
          "removed": false
        },
        {
          "address": "0x167ad284c7bcc4d6342991aa258422e7a04f926e",
          "topics": [
            "0xe36ceebd3770780c5617d53efc7d77328074f1248146245ed3b854cbf651fb37"
          ],
          "data": "0x000000000000000000000000aa73aa98480757d75aae288b5931261448eb053000000000000000000000000000000000000000000000000000000000000000000000000000000000000000000000000000000000000000000000000000000000000000000000000000000000000000000000000000000000000000000000000100000000000000000000000000000000000000000000000000000000000000000000000000000000000000000000000000000000000000000000000000000000000000000000000000000000000000000000000000000000000000006985cbb5000000000000000000000000000000000000000000000000000000006985c831",
          "blockHash": "0x26f8fa1f0d09d65da16e24dffb8125eabf26e9e66531a6a2a43f2f244ed7a7cc",
          "blockNumber": "0x4beed44",
          "blockTimestamp": "0x6985c831",
          "transactionHash": "0xefac40b5b994c113b0b6d6f7b012f22f5d2e54ae08f2dd6c54016a2873220541",
          "transactionIndex": "0x20",
          "logIndex": "0xa1",
          "removed": false
        }
      ],
      "logsBloom": "0x00000000000000000000000000000000001040040000000000000000400000000001000000000040000000000000000000000000000000000000000000000000000000000000000000200000000000000000000002000000001000000000000000000000000000000000000000000020000000000000000000000000000000000000000000000000000000100000000000000000000020000000000000000004000000000000000000000000000000000000000000000000000000000000000000000000000000000000000000000040000000000000000000000000000000800000000000000000000100000000002000000000000000000000000000001000",
      "type": "0x2",
      "transactionHash": "0xefac40b5b994c113b0b6d6f7b012f22f5d2e54ae08f2dd6c54016a2873220541",
      "transactionIndex": "0x20",
      "blockHash": "0x26f8fa1f0d09d65da16e24dffb8125eabf26e9e66531a6a2a43f2f244ed7a7cc",
      "blockNumber": "0x4beed44",
      "gasUsed": "0x2faba",
      "effectiveGasPrice": "0x2faf080",
      "from": "0xaa73aa98480757d75aae288b5931261448eb0530",
      "to": "0x167ad284c7bcc4d6342991aa258422e7a04f926e",
      "contractAddress": null
    }
  ],
  "libraries": [],
  "pending": [],
  "returns": {},
  "timestamp": 1770375219083,
  "chain": 56,
  "commit": null
}