{
  "transactions": [
    {
      "hash": "0xb05e5ce841304cdc8f557ccc3204bd7fe4aeeb4c02db903a11ae592c87261ba1",
      "transactionType": "CALL",
      "contractName": null,
      "contractAddress": "0x167ad284c7bcc4d6342991aa258422e7a04f926e",
      "function": "makeCrime(uint8)",
      "arguments": [
        "3"
      ],
      "transaction": {
        "from": "0xec646a6c9000e04d050435340d9c42c039eb5648",
        "to": "0x167ad284c7bcc4d6342991aa258422e7a04f926e",
        "gas": "0x4ce85",
        "value": "0x0",
        "input": "0xc625abb40000000000000000000000000000000000000000000000000000000000000003",
        "nonce": "0xdf",
        "chainId": "0x38"
      },
      "additionalContracts": [],
      "isFixedGasLimit": false
    }
  ],
  "receipts": [
    {
      "status": "0x1",
      "cumulativeGasUsed": "0xa90d55",
      "logs": [
        {
          "address": "0x167ad284c7bcc4d6342991aa258422e7a04f926e",
          "topics": [
            "0xe36ceebd3770780c5617d53efc7d77328074f1248146245ed3b854cbf651fb37"
          ],
          "data": "0x000000000000000000000000ec646a6c9000e04d050435340d9c42c039eb5648000000000000000000000000000000000000000000000000000000000000000300000000000000000000000000000000000000000000000000000000000000000000000000000000000000000000000000000000000000000000000000000000000000000000000000000000000000000000000000000000000000000000000000000000000000000000000000000000000000000000000000000000000000000000000000000000000000000000000000000000000000000000000069887e500000000000000000000000000000000000000000000000000000000069887acc",
          "blockHash": "0x7d4a97ced146a9ca9bb5b6c39446923cfcb605cd40d1c32da1a8f221ee5d7441",
          "blockNumber": "0x4c4ebac",
          "blockTimestamp": "0x69887acc",
          "transactionHash": "0xb05e5ce841304cdc8f557ccc3204bd7fe4aeeb4c02db903a11ae592c87261ba1",
          "transactionIndex": "0x39",
          "logIndex": "0xc4",
          "removed": false
        }
      ],
      "logsBloom": "0x00000000000000000000000000000000000000000000000000000000400000000000000000000040000000000000000000000000000000000000000000000000000000000000000000000000000000000000000000000000000000000000000000000000000000000000000000000000000000000000000000000000000000000000000000000000000000100000000000000000000020000000000000000004000000000000000000000000000000000000000000000000000000000000000000000000000000000000000000000000000000000000000000000000000000000000000000000000000100000000000000000000000000000000000000000000",
      "type": "0x2",
      "transactionHash": "0xb05e5ce841304cdc8f557ccc3204bd7fe4aeeb4c02db903a11ae592c87261ba1",
      "transactionIndex": "0x39",
      "blockHash": "0x7d4a97ced146a9ca9bb5b6c39446923cfcb605cd40d1c32da1a8f221ee5d7441",
      "blockNumber": "0x4c4ebac",
      "gasUsed": "0x1e818",
      "effectiveGasPrice": "0x2faf080",
      "from": "0xec646a6c9000e04d050435340d9c42c039eb5648",
      "to": "0x167ad284c7bcc4d6342991aa258422e7a04f926e",
      "contractAddress": null
    }
  ],
  "libraries": [],
  "pending": [],
  "returns": {},
  "timestamp": 1770552014049,
  "chain": 56,
  "commit": null
}