{
  "transactions": [
    {
      "hash": "0xfa5a229166ecd661bdec2ca57937358ca5a30a612c0941d2dfc11168416abf1a",
      "transactionType": "CALL",
      "contractName": null,
      "contractAddress": "0x167ad284c7bcc4d6342991aa258422e7a04f926e",
      "function": "makeCrime(uint8)",
      "arguments": [
        "0"
      ],
      "transaction": {
        "from": "0xaa73aa98480757d75aae288b5931261448eb0530",
        "to": "0x167ad284c7bcc4d6342991aa258422e7a04f926e",
        "gas": "0x2a0e7",
        "value": "0x0",
        "input": "0xc625abb40000000000000000000000000000000000000000000000000000000000000000",
        "nonce": "0x107",
        "chainId": "0x38"
      },
      "additionalContracts": [],
      "isFixedGasLimit": false
    }
  ],
  "receipts": [
    {
      "status": "0x1",
      "cumulativeGasUsed": "0xa0f974",
      "logs": [
        {
          "address": "0x167ad284c7bcc4d6342991aa258422e7a04f926e",
          "topics": [
            "0xe36ceebd3770780c5617d53efc7d77328074f1248146245ed3b854cbf651fb37"
          ],
          "data": "0x000000000000000000000000aa73aa98480757d75aae288b5931261448eb05300000000000000000000000000000000000000000000000000000000000000000000000000000000000000000000000000000000000000000000000000000000000000000000000000000000000000000000000000000000000000000000000000000000000000000000000000000000000000000000000000000000000000000000000000000000000000000000000000000000000000000000000000000000000000000000000000000000000000000000000000000000000000000698359a2000000000000000000000000000000000000000000000000000000006983561e",
          "blockHash": "0x26a47d82957906987e07812ac83fb19d771f5f1ea4f28d0c1e099db63a492c11",
          "blockNumber": "0x4b97e32",
          "blockTimestamp": "0x6983561e",
          "transactionHash": "0xfa5a229166ecd661bdec2ca57937358ca5a30a612c0941d2dfc11168416abf1a",
          "transactionIndex": "0x46",
          "logIndex": "0x149",
          "removed": false
        }
      ],
      "logsBloom": "0x00000000000000000000000000000000000000000000000000000000400000000000000000000040000000000000000000000000000000000000000000000000000000000000000000000000000000000000000000000000000000000000000000000000000000000000000000000000000000000000000000000000000000000000000000000000000000100000000000000000000020000000000000000004000000000000000000000000000000000000000000000000000000000000000000000000000000000000000000000000000000000000000000000000000000000000000000000000000100000000000000000000000000000000000000000000",
      "type": "0x2",
      "transactionHash": "0xfa5a229166ecd661bdec2ca57937358ca5a30a612c0941d2dfc11168416abf1a",
      "transactionIndex": "0x46",
      "blockHash": "0x26a47d82957906987e07812ac83fb19d771f5f1ea4f28d0c1e099db63a492c11",
      "blockNumber": "0x4b97e32",
      "gasUsed": "0x1e72c",
      "effectiveGasPrice": "0x2faf080",
      "from": "0xaa73aa98480757d75aae288b5931261448eb0530",
      "to": "0x167ad284c7bcc4d6342991aa258422e7a04f926e",
      "contractAddress": null
    }
  ],
  "libraries": [],
  "pending": [],
  "returns": {},
  "timestamp": 1770214943865,
  "chain": 56,
  "commit": null
}