{
  "transactions": [
    {
      "hash": "0x36b538a4d49dad4b8758bbc748fa08e17b35d6a0f1c97a5b1641c56c1f12c0ac",
      "transactionType": "CALL",
      "contractName": null,
      "contractAddress": "0x167ad284c7bcc4d6342991aa258422e7a04f926e",
      "function": "makeCrime(uint8)",
      "arguments": [
        "0"
      ],
      "transaction": {
        "from": "0xec646a6c9000e04d050435340d9c42c039eb5648",
        "to": "0x167ad284c7bcc4d6342991aa258422e7a04f926e",
        "gas": "0x45b7c",
        "value": "0x0",
        "input": "0xc625abb40000000000000000000000000000000000000000000000000000000000000000",
        "nonce": "0x44",
        "chainId": "0x38"
      },
      "additionalContracts": [],
      "isFixedGasLimit": false
    }
  ],
  "receipts": [
    {
      "status": "0x1",
      "cumulativeGasUsed": "0xa7742d",
      "logs": [
        {
          "address": "0x167ad284c7bcc4d6342991aa258422e7a04f926e",
          "topics": [
            "0xe36ceebd3770780c5617d53efc7d77328074f1248146245ed3b854cbf651fb37"
          ],
          "data": "0x000000000000000000000000ec646a6c9000e04d050435340d9c42c039eb56480000000000000000000000000000000000000000000000000000000000000000000000000000000000000000000000000000000000000000000000000000000000000000000000000000000000000000000000000000000000000000000000000000000000000000000000000000000000000000000000000000000000000000000000000000000000000000000000000000000000000000000000000000000000000000000000000000000000000000000000000000000000000000698357180000000000000000000000000000000000000000000000000000000069835394",
          "blockHash": "0xd80a2fd3acf70952d7b537f843b61e3e49e50934119c3a4b998c1c20e0b15089",
          "blockNumber": "0x4b9788e",
          "blockTimestamp": "0x69835394",
          "transactionHash": "0x36b538a4d49dad4b8758bbc748fa08e17b35d6a0f1c97a5b1641c56c1f12c0ac",
          "transactionIndex": "0x42",
          "logIndex": "0x139",
          "removed": false
        }
      ],
      "logsBloom": "0x00000000000000000000000000000000000000000000000000000000400000000000000000000040000000000000000000000000000000000000000000000000000000000000000000000000000000000000000000000000000000000000000000000000000000000000000000000000000000000000000000000000000000000000000000000000000000100000000000000000000020000000000000000004000000000000000000000000000000000000000000000000000000000000000000000000000000000000000000000000000000000000000000000000000000000000000000000000000100000000000000000000000000000000000000000000",
      "type": "0x2",
      "transactionHash": "0x36b538a4d49dad4b8758bbc748fa08e17b35d6a0f1c97a5b1641c56c1f12c0ac",
      "transactionIndex": "0x42",
      "blockHash": "0xd80a2fd3acf70952d7b537f843b61e3e49e50934119c3a4b998c1c20e0b15089",
      "blockNumber": "0x4b9788e",
      "gasUsed": "0x1e72c",
      "effectiveGasPrice": "0x2faf080",
      "from": "0xec646a6c9000e04d050435340d9c42c039eb5648",
      "to": "0x167ad284c7bcc4d6342991aa258422e7a04f926e",
      "contractAddress": null
    }
  ],
  "libraries": [],
  "pending": [],
  "returns": {},
  "timestamp": 1770214293801,
  "chain": 56,
  "commit": null
}