{
  "transactions": [
    {
      "hash": "0x132b9b844640010e4ceb4a283d737b9dab828e59625d497a1f817d5cf7a4260f",
      "transactionType": "CALL",
      "contractName": null,
      "contractAddress": "0x167ad284c7bcc4d6342991aa258422e7a04f926e",
      "function": "makeCrime(uint8)",
      "arguments": [
        "0"
      ],
      "transaction": {
        "from": "0xeca7a53ba6a190c5d205bfdc7707cbc3399336c1",
        "to": "0x167ad284c7bcc4d6342991aa258422e7a04f926e",
        "gas": "0x59794",
        "value": "0x0",
        "input": "0xc625abb40000000000000000000000000000000000000000000000000000000000000000",
        "nonce": "0x29c",
        "chainId": "0x38"
      },
      "additionalContracts": [],
      "isFixedGasLimit": false
    }
  ],
  "receipts": [
    {
      "status": "0x1",
      "cumulativeGasUsed": "0x1bd72a4",
      "logs": [
        {
          "address": "0x167ad284c7bcc4d6342991aa258422e7a04f926e",
          "topics": [
            "0xe36ceebd3770780c5617d53efc7d77328074f1248146245ed3b854cbf651fb37"
          ],
          "data": "0x000000000000000000000000eca7a53ba6a190c5d205bfdc7707cbc3399336c100000000000000000000000000000000000000000000000000000000000000000000000000000000000000000000000000000000000000000000000000000000000000000000000000000000000000000000000000000000000000000000000000000000000000000000000000000000000000000000000000000000000000000000000000000000000000000000000000000000000000000000000000000000000000000000000000000000000000000000000000000000000000006983724d0000000000000000000000000000000000000000000000000000000069836ec9",
          "blockHash": "0x9c44581f244acdc93923af4030e9ab36444ae36b7698b6964aa01a20b8f52d94",
          "blockNumber": "0x4b9b500",
          "blockTimestamp": "0x69836ec9",
          "transactionHash": "0x132b9b844640010e4ceb4a283d737b9dab828e59625d497a1f817d5cf7a4260f",
          "transactionIndex": "0x38",
          "logIndex": "0xb5",
          "removed": false
        }
      ],
      "logsBloom": "0x00000000000000000000000000000000000000000000000000000000400000000000000000000040000000000000000000000000000000000000000000000000000000000000000000000000000000000000000000000000000000000000000000000000000000000000000000000000000000000000000000000000000000000000000000000000000000100000000000000000000020000000000000000004000000000000000000000000000000000000000000000000000000000000000000000000000000000000000000000000000000000000000000000000000000000000000000000000000100000000000000000000000000000000000000000000",
      "type": "0x2",
      "transactionHash": "0x132b9b844640010e4ceb4a283d737b9dab828e59625d497a1f817d5cf7a4260f",
      "transactionIndex": "0x38",
      "blockHash": "0x9c44581f244acdc93923af4030e9ab36444ae36b7698b6964aa01a20b8f52d94",
      "blockNumber": "0x4b9b500",
      "gasUsed": "0x1ea18",
      "effectiveGasPrice": "0x5f5e100",
      "from": "0xeca7a53ba6a190c5d205bfdc7707cbc3399336c1",
      "to": "0x167ad284c7bcc4d6342991aa258422e7a04f926e",
      "contractAddress": null
    }
  ],
  "libraries": [],
  "pending": [],
  "returns": {},
  "timestamp": 1770221259183,
  "chain": 56,
  "commit": null
}