{
  "transactions": [
    {
      "hash": "0xc5eac466abab43d26018f44340fe348fc1e8f2cd01a6b3a485b3ddd50018603d",
      "transactionType": "CALL",
      "contractName": null,
      "contractAddress": "0x167ad284c7bcc4d6342991aa258422e7a04f926e",
      "function": "makeCrime(uint8)",
      "arguments": [
        "0"
      ],
      "transaction": {
        "from": "0xeca7a53ba6a190c5d205bfdc7707cbc3399336c1",
        "to": "0x167ad284c7bcc4d6342991aa258422e7a04f926e",
        "gas": "0x59794",
        "value": "0x0",
        "input": "0xc625abb40000000000000000000000000000000000000000000000000000000000000000",
        "nonce": "0x281",
        "chainId": "0x38"
      },
      "additionalContracts": [],
      "isFixedGasLimit": false
    }
  ],
  "receipts": [
    {
      "status": "0x1",
      "cumulativeGasUsed": "0x208137",
      "logs": [
        {
          "address": "0x167ad284c7bcc4d6342991aa258422e7a04f926e",
          "topics": [
            "0xe36ceebd3770780c5617d53efc7d77328074f1248146245ed3b854cbf651fb37"
          ],
          "data": "0x000000000000000000000000eca7a53ba6a190c5d205bfdc7707cbc3399336c100000000000000000000000000000000000000000000000000000000000000000000000000000000000000000000000000000000000000000000000000000000000000000000000000000000000000000000000000000000000000000000000000000000000000000000000000000000000000000000000000000000000000000000000000000000000000000000000000000000000000000000000000000000000000000000000000000000000000000000000000000000000000006980f708000000000000000000000000000000000000000000000000000000006980f384",
          "blockHash": "0x4838cdafe8d54d2ce7e13d4d52279efdb7217faf35935fdfd5999772ec8a043f",
          "blockNumber": "0x4b43232",
          "blockTimestamp": "0x6980f384",
          "transactionHash": "0xc5eac466abab43d26018f44340fe348fc1e8f2cd01a6b3a485b3ddd50018603d",
          "transactionIndex": "0x14",
          "logIndex": "0x2b",
          "removed": false
        }
      ],
      "logsBloom": "0x00000000000000000000000000000000000000000000000000000000400000000000000000000040000000000000000000000000000000000000000000000000000000000000000000000000000000000000000000000000000000000000000000000000000000000000000000000000000000000000000000000000000000000000000000000000000000100000000000000000000020000000000000000004000000000000000000000000000000000000000000000000000000000000000000000000000000000000000000000000000000000000000000000000000000000000000000000000000100000000000000000000000000000000000000000000",
      "type": "0x2",
      "transactionHash": "0xc5eac466abab43d26018f44340fe348fc1e8f2cd01a6b3a485b3ddd50018603d",
      "transactionIndex": "0x14",
      "blockHash": "0x4838cdafe8d54d2ce7e13d4d52279efdb7217faf35935fdfd5999772ec8a043f",
      "blockNumber": "0x4b43232",
      "gasUsed": "0x1ea18",
      "effectiveGasPrice": "0x2faf080",
      "from": "0xeca7a53ba6a190c5d205bfdc7707cbc3399336c1",
      "to": "0x167ad284c7bcc4d6342991aa258422e7a04f926e",
      "contractAddress": null
    }
  ],
  "libraries": [],
  "pending": [],
  "returns": {},
  "timestamp": 1770058629570,
  "chain": 56,
  "commit": null
}