{
  "transactions": [
    {
      "hash": "0x556dc3e3a4825ec2d52f1ba4076ad8c53288cd903fb648c5a1ae42fedf2c38ac",
      "transactionType": "CALL",
      "contractName": null,
      "contractAddress": "0x167ad284c7bcc4d6342991aa258422e7a04f926e",
      "function": "makeCrime(uint8)",
      "arguments": [
        "0"
      ],
      "transaction": {
        "from": "0xaa73aa98480757d75aae288b5931261448eb0530",
        "to": "0x167ad284c7bcc4d6342991aa258422e7a04f926e",
        "gas": "0x592fa",
        "value": "0x0",
        "input": "0xc625abb40000000000000000000000000000000000000000000000000000000000000000",
        "nonce": "0x183",
        "chainId": "0x38"
      },
      "additionalContracts": [],
      "isFixedGasLimit": false
    }
  ],
  "receipts": [
    {
      "status": "0x1",
      "cumulativeGasUsed": "0x31a40d",
      "logs": [
        {
          "address": "0x167ad284c7bcc4d6342991aa258422e7a04f926e",
          "topics": [
            "0xe36ceebd3770780c5617d53efc7d77328074f1248146245ed3b854cbf651fb37"
          ],
          "data": "0x000000000000000000000000aa73aa98480757d75aae288b5931261448eb05300000000000000000000000000000000000000000000000000000000000000000000000000000000000000000000000000000000000000000000000000000000000000000000000000000000000000000000000000000000000000000000000000000000000000000000000000000000000000000000000000000000000000000000000000000000000000000000000000000000000000000000000000000000000000000000000000000000000000000000000000000000000000000698806d3000000000000000000000000000000000000000000000000000000006988034f",
          "blockHash": "0xdc6cc3362a5e04d15a2288a84461c9e32cf5c3c7c52e5f9c8e73d9ebef38fd75",
          "blockNumber": "0x4c3e234",
          "blockTimestamp": "0x6988034f",
          "transactionHash": "0x556dc3e3a4825ec2d52f1ba4076ad8c53288cd903fb648c5a1ae42fedf2c38ac",
          "transactionIndex": "0x1f",
          "logIndex": "0x5e",
          "removed": false
        }
      ],
      "logsBloom": "0x00000000000000000000000000000000000000000000000000000000400000000000000000000040000000000000000000000000000000000000000000000000000000000000000000000000000000000000000000000000000000000000000000000000000000000000000000000000000000000000000000000000000000000000000000000000000000100000000000000000000020000000000000000004000000000000000000000000000000000000000000000000000000000000000000000000000000000000000000000000000000000000000000000000000000000000000000000000000100000000000000000000000000000000000000000000",
      "type": "0x2",
      "transactionHash": "0x556dc3e3a4825ec2d52f1ba4076ad8c53288cd903fb648c5a1ae42fedf2c38ac",
      "transactionIndex": "0x1f",
      "blockHash": "0xdc6cc3362a5e04d15a2288a84461c9e32cf5c3c7c52e5f9c8e73d9ebef38fd75",
      "blockNumber": "0x4c3e234",
      "gasUsed": "0x1e72c",
      "effectiveGasPrice": "0x2faf080",
      "from": "0xaa73aa98480757d75aae288b5931261448eb0530",
      "to": "0x167ad284c7bcc4d6342991aa258422e7a04f926e",
      "contractAddress": null
    }
  ],
  "libraries": [],
  "pending": [],
  "returns": {},
  "timestamp": 1770521424740,
  "chain": 56,
  "commit": null
}