{
  "transactions": [
    {
      "hash": "0x65ab64ebee8511eefd5cb571d93001971db2984c448a294906e0b4f77a36051e",
      "transactionType": "CALL",
      "contractName": null,
      "contractAddress": "0x167ad284c7bcc4d6342991aa258422e7a04f926e",
      "function": "makeCrime(uint8)",
      "arguments": [
        "0"
      ],
      "transaction": {
        "from": "0xac56dc5a4a9de0197f7b8f584ea04ec7e0123dde",
        "to": "0x167ad284c7bcc4d6342991aa258422e7a04f926e",
        "gas": "0x592fa",
        "value": "0x0",
        "input": "0xc625abb40000000000000000000000000000000000000000000000000000000000000000",
        "nonce": "0x43",
        "chainId": "0x38"
      },
      "additionalContracts": [],
      "isFixedGasLimit": false
    }
  ],
  "receipts": [
    {
      "status": "0x1",
      "cumulativeGasUsed": "0x83cd6b",
      "logs": [
        {
          "address": "0x7371580cd13de739c734ae85062f75194d13fac2",
          "topics": [
            "0x0bff5315606c84d1cee047503678048ca39946be11bfdd5a8c03fe5e272d98e3"
          ],
          "data": "0x000000000000000000000000ac56dc5a4a9de0197f7b8f584ea04ec7e0123dde00000000000000000000000000000000000000000000000000000000697ab78f0000000000000000000000000000000000000000000000000000000000000000",
          "blockHash": "0xab2cec2ed05b30ddd04e73c557fa4f579f88b879a85ae31f554c345a2aa72240",
          "blockNumber": "0x4a64ca1",
          "blockTimestamp": "0x697ab249",
          "transactionHash": "0x65ab64ebee8511eefd5cb571d93001971db2984c448a294906e0b4f77a36051e",
          "transactionIndex": "0x33",
          "logIndex": "0x116",
          "removed": false
        },
        {
          "address": "0xaae5ef15499c71301123ee4b13d20d570d24ad5e",
          "topics": [
            "0x6dd0730fb835f9bbe38532c3d82c7c87448bfdec295f1d7cd2d72ff339632a52"
          ],
          "data": "0x00000000000000000000000000000000000000000000000000000000000000c00000000000000000000000000000000000000000000000000000000000000100000000000000000000000000ac56dc5a4a9de0197f7b8f584ea04ec7e0123dde000000000000000000000000000000000000000000000000000000000000000100000000000000000000000000000000000000000000000000000000697ab249000000000000000000000000000000000000000000000000000000000000014000000000000000000000000000000000000000000000000000000000000000044a61696c000000000000000000000000000000000000000000000000000000000000000000000000000000000000000000000000000000000000000000000008496d707269736f6e0000000000000000000000000000000000000000000000000000000000000000000000000000000000000000000000000000000000000000",
          "blockHash": "0xab2cec2ed05b30ddd04e73c557fa4f579f88b879a85ae31f554c345a2aa72240",
          "blockNumber": "0x4a64ca1",
          "blockTimestamp": "0x697ab249",
          "transactionHash": "0x65ab64ebee8511eefd5cb571d93001971db2984c448a294906e0b4f77a36051e",
          "transactionIndex": "0x33",
          "logIndex": "0x117",
          "removed": false
        },
        {
          "address": "0x167ad284c7bcc4d6342991aa258422e7a04f926e",
          "topics": [
            "0xe36ceebd3770780c5617d53efc7d77328074f1248146245ed3b854cbf651fb37"
          ],
          "data": "0x000000000000000000000000ac56dc5a4a9de0197f7b8f584ea04ec7e0123dde0000000000000000000000000000000000000000000000000000000000000000000000000000000000000000000000000000000000000000000000000000000000000000000000000000000000000000000000000000000000000000000000010000000000000000000000000000000000000000000000000000000000000000000000000000000000000000000000000000000000000000000000000000000000000000000000000000000000000000000000000000000000000000697ab5cd00000000000000000000000000000000000000000000000000000000697ab249",
          "blockHash": "0xab2cec2ed05b30ddd04e73c557fa4f579f88b879a85ae31f554c345a2aa72240",
          "blockNumber": "0x4a64ca1",
          "blockTimestamp": "0x697ab249",
          "transactionHash": "0x65ab64ebee8511eefd5cb571d93001971db2984c448a294906e0b4f77a36051e",
          "transactionIndex": "0x33",
          "logIndex": "0x118",
          "removed": false
        }
      ],
      "logsBloom": "0x00000000000000000000000000000000001040040000000000000000400000000001000000000040000000000000000000000000000000000000000000000000000000000000000000200000000000000000000002000000001000000000000000000000000000000000000000000020000000000000000000000000000000000000000000000000000000100000000000000000000020000000000000000004000000000000000000000000000000000000000000000000000000000000000000000000000000000000000000000040000000000000000000000000000000800000000000000000000100000000002000000000000000000000000000001000",
      "type": "0x2",
      "transactionHash": "0x65ab64ebee8511eefd5cb571d93001971db2984c448a294906e0b4f77a36051e",
      "transactionIndex": "0x33",
      "blockHash": "0xab2cec2ed05b30ddd04e73c557fa4f579f88b879a85ae31f554c345a2aa72240",
      "blockNumber": "0x4a64ca1",
      "gasUsed": "0x2faba",
      "effectiveGasPrice": "0x2faf080",
      "from": "0xac56dc5a4a9de0197f7b8f584ea04ec7e0123dde",
      "to": "0x167ad284c7bcc4d6342991aa258422e7a04f926e",
      "contractAddress": null
    }
  ],
  "libraries": [],
  "pending": [],
  "returns": {},
  "timestamp": 1769648715313,
  "chain": 56,
  "commit": null
}