{
  "transactions": [
    {
      "hash": "0xbe3b64ca8c1119a70d97a96498c1fc51da831cd9832e49882bfd8bfd1b23d3d6",
      "transactionType": "CALL",
      "contractName": null,
      "contractAddress": "0x167ad284c7bcc4d6342991aa258422e7a04f926e",
      "function": "makeCrime(uint8)",
      "arguments": [
        "0"
      ],
      "transaction": {
        "from": "0xaa73aa98480757d75aae288b5931261448eb0530",
        "to": "0x167ad284c7bcc4d6342991aa258422e7a04f926e",
        "gas": "0x592fa",
        "value": "0x0",
        "input": "0xc625abb40000000000000000000000000000000000000000000000000000000000000000",
        "nonce": "0xf5",
        "chainId": "0x38"
      },
      "additionalContracts": [],
      "isFixedGasLimit": false
    }
  ],
  "receipts": [
    {
      "status": "0x1",
      "cumulativeGasUsed": "0x2faf9a",
      "logs": [
        {
          "address": "0x167ad284c7bcc4d6342991aa258422e7a04f926e",
          "topics": [
            "0xe36ceebd3770780c5617d53efc7d77328074f1248146245ed3b854cbf651fb37"
          ],
          "data": "0x000000000000000000000000aa73aa98480757d75aae288b5931261448eb053000000000000000000000000000000000000000000000000000000000000000000000000000000000000000000000000000000000000000000000000000000000000000000000000000000000000000000000000000000000000000000000000000000000000000000000000000000000000000000000000000000000000000000000000000000000000000000000000000000000000000000000000000000000000000000000000000000000000000000000000000000000000000006980e91b000000000000000000000000000000000000000000000000000000006980e597",
          "blockHash": "0x477b601441f1a78a75ce72c75dc6b3d1954b2ae73f6a62493870b098fbb9b218",
          "blockNumber": "0x4b41343",
          "blockTimestamp": "0x6980e597",
          "transactionHash": "0xbe3b64ca8c1119a70d97a96498c1fc51da831cd9832e49882bfd8bfd1b23d3d6",
          "transactionIndex": "0x1a",
          "logIndex": "0x50",
          "removed": false
        }
      ],
      "logsBloom": "0x00000000000000000000000000000000000000000000000000000000400000000000000000000040000000000000000000000000000000000000000000000000000000000000000000000000000000000000000000000000000000000000000000000000000000000000000000000000000000000000000000000000000000000000000000000000000000100000000000000000000020000000000000000004000000000000000000000000000000000000000000000000000000000000000000000000000000000000000000000000000000000000000000000000000000000000000000000000000100000000000000000000000000000000000000000000",
      "type": "0x2",
      "transactionHash": "0xbe3b64ca8c1119a70d97a96498c1fc51da831cd9832e49882bfd8bfd1b23d3d6",
      "transactionIndex": "0x1a",
      "blockHash": "0x477b601441f1a78a75ce72c75dc6b3d1954b2ae73f6a62493870b098fbb9b218",
      "blockNumber": "0x4b41343",
      "gasUsed": "0x1e72c",
      "effectiveGasPrice": "0x2faf080",
      "from": "0xaa73aa98480757d75aae288b5931261448eb0530",
      "to": "0x167ad284c7bcc4d6342991aa258422e7a04f926e",
      "contractAddress": null
    }
  ],
  "libraries": [],
  "pending": [],
  "returns": {},
  "timestamp": 1770055064983,
  "chain": 56,
  "commit": null
}