{
  "transactions": [
    {
      "hash": "0x79fd9d0f3a0e6b61e38de6318839ab9ad8ef4927bbba63ef8627038fd5c3dc03",
      "transactionType": "CALL",
      "contractName": null,
      "contractAddress": "0x167ad284c7bcc4d6342991aa258422e7a04f926e",
      "function": "makeCrime(uint8)",
      "arguments": [
        "0"
      ],
      "transaction": {
        "from": "0x4c62f6121e6f967a0872da8364995e9b68c1e82f",
        "to": "0x167ad284c7bcc4d6342991aa258422e7a04f926e",
        "gas": "0x59794",
        "value": "0x0",
        "input": "0xc625abb40000000000000000000000000000000000000000000000000000000000000000",
        "nonce": "0x147",
        "chainId": "0x38"
      },
      "additionalContracts": [],
      "isFixedGasLimit": false
    }
  ],
  "receipts": [
    {
      "status": "0x1",
      "cumulativeGasUsed": "0xb5a44b",
      "logs": [
        {
          "address": "0x7371580cd13de739c734ae85062f75194d13fac2",
          "topics": [
            "0x0bff5315606c84d1cee047503678048ca39946be11bfdd5a8c03fe5e272d98e3"
          ],
          "data": "0x0000000000000000000000004c62f6121e6f967a0872da8364995e9b68c1e82f0000000000000000000000000000000000000000000000000000000069836bb70000000000000000000000000000000000000000000000000000000000000000",
          "blockHash": "0x5d97548f41a1e0dc103617dddb43d4dd3b1ae958164b9ea6f55dac8f14fa950d",
          "blockNumber": "0x4b9a274",
          "blockTimestamp": "0x69836671",
          "transactionHash": "0x79fd9d0f3a0e6b61e38de6318839ab9ad8ef4927bbba63ef8627038fd5c3dc03",
          "transactionIndex": "0x5b",
          "logIndex": "0x14c",
          "removed": false
        },
        {
          "address": "0xaae5ef15499c71301123ee4b13d20d570d24ad5e",
          "topics": [
            "0x6dd0730fb835f9bbe38532c3d82c7c87448bfdec295f1d7cd2d72ff339632a52"
          ],
          "data": "0x00000000000000000000000000000000000000000000000000000000000000c000000000000000000000000000000000000000000000000000000000000001000000000000000000000000004c62f6121e6f967a0872da8364995e9b68c1e82f00000000000000000000000000000000000000000000000000000000000000010000000000000000000000000000000000000000000000000000000069836671000000000000000000000000000000000000000000000000000000000000014000000000000000000000000000000000000000000000000000000000000000044a61696c000000000000000000000000000000000000000000000000000000000000000000000000000000000000000000000000000000000000000000000008496d707269736f6e0000000000000000000000000000000000000000000000000000000000000000000000000000000000000000000000000000000000000000",
          "blockHash": "0x5d97548f41a1e0dc103617dddb43d4dd3b1ae958164b9ea6f55dac8f14fa950d",
          "blockNumber": "0x4b9a274",
          "blockTimestamp": "0x69836671",
          "transactionHash": "0x79fd9d0f3a0e6b61e38de6318839ab9ad8ef4927bbba63ef8627038fd5c3dc03",
          "transactionIndex": "0x5b",
          "logIndex": "0x14d",
          "removed": false
        },
        {
          "address": "0x167ad284c7bcc4d6342991aa258422e7a04f926e",
          "topics": [
            "0xe36ceebd3770780c5617d53efc7d77328074f1248146245ed3b854cbf651fb37"
          ],
          "data": "0x0000000000000000000000004c62f6121e6f967a0872da8364995e9b68c1e82f0000000000000000000000000000000000000000000000000000000000000000000000000000000000000000000000000000000000000000000000000000000000000000000000000000000000000000000000000000000000000000000000010000000000000000000000000000000000000000000000000000000000000000000000000000000000000000000000000000000000000000000000000000000000000000000000000000000000000000000000000000000000000000698369f50000000000000000000000000000000000000000000000000000000069836671",
          "blockHash": "0x5d97548f41a1e0dc103617dddb43d4dd3b1ae958164b9ea6f55dac8f14fa950d",
          "blockNumber": "0x4b9a274",
          "blockTimestamp": "0x69836671",
          "transactionHash": "0x79fd9d0f3a0e6b61e38de6318839ab9ad8ef4927bbba63ef8627038fd5c3dc03",
          "transactionIndex": "0x5b",
          "logIndex": "0x14e",
          "removed": false
        }
      ],
      "logsBloom": "0x00000000000000000000000000000000001040040000000000000000400000000001000000000040000000000000000000000000000000000000000000000000000000000000000000200000000000000000000002000000001000000000000000000000000000000000000000000020000000000000000000000000000000000000000000000000000000100000000000000000000020000000000000000004000000000000000000000000000000000000000000000000000000000000000000000000000000000000000000000040000000000000000000000000000000800000000000000000000100000000002000000000000000000000000000001000",
      "type": "0x2",
      "transactionHash": "0x79fd9d0f3a0e6b61e38de6318839ab9ad8ef4927bbba63ef8627038fd5c3dc03",
      "transactionIndex": "0x5b",
      "blockHash": "0x5d97548f41a1e0dc103617dddb43d4dd3b1ae958164b9ea6f55dac8f14fa950d",
      "blockNumber": "0x4b9a274",
      "gasUsed": "0x2fda6",
      "effectiveGasPrice": "0x2faf080",
      "from": "0x4c62f6121e6f967a0872da8364995e9b68c1e82f",
      "to": "0x167ad284c7bcc4d6342991aa258422e7a04f926e",
      "contractAddress": null
    }
  ],
  "libraries": [],
  "pending": [],
  "returns": {},
  "timestamp": 1770219122627,
  "chain": 56,
  "commit": null
}