{
  "transactions": [
    {
      "hash": "0x88192e8a08380837f5a30877f9386dcf5faea5901068461162d7e8e23ffdf61a",
      "transactionType": "CALL",
      "contractName": null,
      "contractAddress": "0x167ad284c7bcc4d6342991aa258422e7a04f926e",
      "function": "makeCrime(uint8)",
      "arguments": [
        "0"
      ],
      "transaction": {
        "from": "0xaa73aa98480757d75aae288b5931261448eb0530",
        "to": "0x167ad284c7bcc4d6342991aa258422e7a04f926e",
        "gas": "0x2a0e7",
        "value": "0x0",
        "input": "0xc625abb40000000000000000000000000000000000000000000000000000000000000000",
        "nonce": "0xfd",
        "chainId": "0x38"
      },
      "additionalContracts": [],
      "isFixedGasLimit": false
    }
  ],
  "receipts": [
    {
      "status": "0x1",
      "cumulativeGasUsed": "0xb1f8e6",
      "logs": [
        {
          "address": "0x167ad284c7bcc4d6342991aa258422e7a04f926e",
          "topics": [
            "0xe36ceebd3770780c5617d53efc7d77328074f1248146245ed3b854cbf651fb37"
          ],
          "data": "0x000000000000000000000000aa73aa98480757d75aae288b5931261448eb05300000000000000000000000000000000000000000000000000000000000000000000000000000000000000000000000000000000000000000000000000000000000000000000000000000000000000000000000000000000000000000000000000000000000000000000000000000000000000000000000000000000000000000000000000000000000000000000000000000000000000000000000000000000000000000000000000000000000000000000000000000000000000000698332360000000000000000000000000000000000000000000000000000000069832eb2",
          "blockHash": "0x5961143bf22a5391b8e02c5a0bbc9a3b73d3bec427a428c43a3bd34e7aa83a98",
          "blockNumber": "0x4b926a2",
          "blockTimestamp": "0x69832eb2",
          "transactionHash": "0x88192e8a08380837f5a30877f9386dcf5faea5901068461162d7e8e23ffdf61a",
          "transactionIndex": "0x5d",
          "logIndex": "0x133",
          "removed": false
        }
      ],
      "logsBloom": "0x00000000000000000000000000000000000000000000000000000000400000000000000000000040000000000000000000000000000000000000000000000000000000000000000000000000000000000000000000000000000000000000000000000000000000000000000000000000000000000000000000000000000000000000000000000000000000100000000000000000000020000000000000000004000000000000000000000000000000000000000000000000000000000000000000000000000000000000000000000000000000000000000000000000000000000000000000000000000100000000000000000000000000000000000000000000",
      "type": "0x2",
      "transactionHash": "0x88192e8a08380837f5a30877f9386dcf5faea5901068461162d7e8e23ffdf61a",
      "transactionIndex": "0x5d",
      "blockHash": "0x5961143bf22a5391b8e02c5a0bbc9a3b73d3bec427a428c43a3bd34e7aa83a98",
      "blockNumber": "0x4b926a2",
      "gasUsed": "0x1e72c",
      "effectiveGasPrice": "0x2faf080",
      "from": "0xaa73aa98480757d75aae288b5931261448eb0530",
      "to": "0x167ad284c7bcc4d6342991aa258422e7a04f926e",
      "contractAddress": null
    }
  ],
  "libraries": [],
  "pending": [],
  "returns": {},
  "timestamp": 1770204852190,
  "chain": 56,
  "commit": null
}