{
  "transactions": [
    {
      "hash": "0x9eeb4be8bf5d74cdcdd3fcb71556396af303a0500b62e14b95aa9640abb6463b",
      "transactionType": "CALL",
      "contractName": null,
      "contractAddress": "0x167ad284c7bcc4d6342991aa258422e7a04f926e",
      "function": "makeCrime(uint8)",
      "arguments": [
        "0"
      ],
      "transaction": {
        "from": "0xec646a6c9000e04d050435340d9c42c039eb5648",
        "to": "0x167ad284c7bcc4d6342991aa258422e7a04f926e",
        "gas": "0x45b7c",
        "value": "0x0",
        "input": "0xc625abb40000000000000000000000000000000000000000000000000000000000000000",
        "nonce": "0x99",
        "chainId": "0x38"
      },
      "additionalContracts": [],
      "isFixedGasLimit": false
    }
  ],
  "receipts": [
    {
      "status": "0x1",
      "cumulativeGasUsed": "0x44abab",
      "logs": [
        {
          "address": "0x7371580cd13de739c734ae85062f75194d13fac2",
          "topics": [
            "0x0bff5315606c84d1cee047503678048ca39946be11bfdd5a8c03fe5e272d98e3"
          ],
          "data": "0x000000000000000000000000ec646a6c9000e04d050435340d9c42c039eb56480000000000000000000000000000000000000000000000000000000069877c420000000000000000000000000000000000000000000000000000000000000000",
          "blockHash": "0xa6055bb2d5b5012b9e7ccad903393ac2d9526b3244bb389023ea7f359c6286ef",
          "blockNumber": "0x4c2aa62",
          "blockTimestamp": "0x698776fc",
          "transactionHash": "0x9eeb4be8bf5d74cdcdd3fcb71556396af303a0500b62e14b95aa9640abb6463b",
          "transactionIndex": "0x25",
          "logIndex": "0x7e",
          "removed": false
        },
        {
          "address": "0xaae5ef15499c71301123ee4b13d20d570d24ad5e",
          "topics": [
            "0x6dd0730fb835f9bbe38532c3d82c7c87448bfdec295f1d7cd2d72ff339632a52"
          ],
          "data": "0x00000000000000000000000000000000000000000000000000000000000000c00000000000000000000000000000000000000000000000000000000000000100000000000000000000000000ec646a6c9000e04d050435340d9c42c039eb5648000000000000000000000000000000000000000000000000000000000000000100000000000000000000000000000000000000000000000000000000698776fc000000000000000000000000000000000000000000000000000000000000014000000000000000000000000000000000000000000000000000000000000000044a61696c000000000000000000000000000000000000000000000000000000000000000000000000000000000000000000000000000000000000000000000008496d707269736f6e0000000000000000000000000000000000000000000000000000000000000000000000000000000000000000000000000000000000000000",
          "blockHash": "0xa6055bb2d5b5012b9e7ccad903393ac2d9526b3244bb389023ea7f359c6286ef",
          "blockNumber": "0x4c2aa62",
          "blockTimestamp": "0x698776fc",
          "transactionHash": "0x9eeb4be8bf5d74cdcdd3fcb71556396af303a0500b62e14b95aa9640abb6463b",
          "transactionIndex": "0x25",
          "logIndex": "0x7f",
          "removed": false
        },
        {
          "address": "0x167ad284c7bcc4d6342991aa258422e7a04f926e",
          "topics": [
            "0xe36ceebd3770780c5617d53efc7d77328074f1248146245ed3b854cbf651fb37"
          ],
          "data": "0x000000000000000000000000ec646a6c9000e04d050435340d9c42c039eb5648000000000000000000000000000000000000000000000000000000000000000000000000000000000000000000000000000000000000000000000000000000000000000000000000000000000000000000000000000000000000000000000001000000000000000000000000000000000000000000000000000000000000000000000000000000000000000000000000000000000000000000000000000000000000000000000000000000000000000000000000000000000000000069877a8000000000000000000000000000000000000000000000000000000000698776fc",
          "blockHash": "0xa6055bb2d5b5012b9e7ccad903393ac2d9526b3244bb389023ea7f359c6286ef",
          "blockNumber": "0x4c2aa62",
          "blockTimestamp": "0x698776fc",
          "transactionHash": "0x9eeb4be8bf5d74cdcdd3fcb71556396af303a0500b62e14b95aa9640abb6463b",
          "transactionIndex": "0x25",
          "logIndex": "0x80",
          "removed": false
        }
      ],
      "logsBloom": "0x00000000000000000000000000000000001040040000000000000000400000000001000000000040000000000000000000000000000000000000000000000000000000000000000000200000000000000000000002000000001000000000000000000000000000000000000000000020000000000000000000000000000000000000000000000000000000100000000000000000000020000000000000000004000000000000000000000000000000000000000000000000000000000000000000000000000000000000000000000040000000000000000000000000000000800000000000000000000100000000002000000000000000000000000000001000",
      "type": "0x2",
      "transactionHash": "0x9eeb4be8bf5d74cdcdd3fcb71556396af303a0500b62e14b95aa9640abb6463b",
      "transactionIndex": "0x25",
      "blockHash": "0xa6055bb2d5b5012b9e7ccad903393ac2d9526b3244bb389023ea7f359c6286ef",
      "blockNumber": "0x4c2aa62",
      "gasUsed": "0x2faba",
      "effectiveGasPrice": "0x2faf080",
      "from": "0xec646a6c9000e04d050435340d9c42c039eb5648",
      "to": "0x167ad284c7bcc4d6342991aa258422e7a04f926e",
      "contractAddress": null
    }
  ],
  "libraries": [],
  "pending": [],
  "returns": {},
  "timestamp": 1770485501998,
  "chain": 56,
  "commit": null
}