{
  "transactions": [
    {
      "hash": "0xcd2aedda94a9209ac5b0a57315eccf9bd4900e9db6982977e82ab11d9fd65a5d",
      "transactionType": "CALL",
      "contractName": null,
      "contractAddress": "0x167ad284c7bcc4d6342991aa258422e7a04f926e",
      "function": "makeCrime(uint8)",
      "arguments": [
        "0"
      ],
      "transaction": {
        "from": "0xec646a6c9000e04d050435340d9c42c039eb5648",
        "to": "0x167ad284c7bcc4d6342991aa258422e7a04f926e",
        "gas": "0x45b7c",
        "value": "0x0",
        "input": "0xc625abb40000000000000000000000000000000000000000000000000000000000000000",
        "nonce": "0x4c",
        "chainId": "0x38"
      },
      "additionalContracts": [],
      "isFixedGasLimit": false
    }
  ],
  "receipts": [
    {
      "status": "0x1",
      "cumulativeGasUsed": "0x20bf931",
      "logs": [
        {
          "address": "0x167ad284c7bcc4d6342991aa258422e7a04f926e",
          "topics": [
            "0xe36ceebd3770780c5617d53efc7d77328074f1248146245ed3b854cbf651fb37"
          ],
          "data": "0x000000000000000000000000ec646a6c9000e04d050435340d9c42c039eb5648000000000000000000000000000000000000000000000000000000000000000000000000000000000000000000000000000000000000000000000000000000000000000000000000000000000000000000000000000000000000000000000000000000000000000000000000000000000000000000000000000000000000000000000000000000000000000000000000000000000000000000000000000000000000000000000000000000000000000000000000000000000000000069836f540000000000000000000000000000000000000000000000000000000069836bd0",
          "blockHash": "0x95938bc9376b2ad85ea30f014393b47c0592e87e577a17408c52847df5d0ce0d",
          "blockNumber": "0x4b9ae64",
          "blockTimestamp": "0x69836bd0",
          "transactionHash": "0xcd2aedda94a9209ac5b0a57315eccf9bd4900e9db6982977e82ab11d9fd65a5d",
          "transactionIndex": "0x4b",
          "logIndex": "0x1c6",
          "removed": false
        }
      ],
      "logsBloom": "0x00000000000000000000000000000000000000000000000000000000400000000000000000000040000000000000000000000000000000000000000000000000000000000000000000000000000000000000000000000000000000000000000000000000000000000000000000000000000000000000000000000000000000000000000000000000000000100000000000000000000020000000000000000004000000000000000000000000000000000000000000000000000000000000000000000000000000000000000000000000000000000000000000000000000000000000000000000000000100000000000000000000000000000000000000000000",
      "type": "0x2",
      "transactionHash": "0xcd2aedda94a9209ac5b0a57315eccf9bd4900e9db6982977e82ab11d9fd65a5d",
      "transactionIndex": "0x4b",
      "blockHash": "0x95938bc9376b2ad85ea30f014393b47c0592e87e577a17408c52847df5d0ce0d",
      "blockNumber": "0x4b9ae64",
      "gasUsed": "0x1e72c",
      "effectiveGasPrice": "0x4153a20",
      "from": "0xec646a6c9000e04d050435340d9c42c039eb5648",
      "to": "0x167ad284c7bcc4d6342991aa258422e7a04f926e",
      "contractAddress": null
    }
  ],
  "libraries": [],
  "pending": [],
  "returns": {},
  "timestamp": 1770220497832,
  "chain": 56,
  "commit": null
}