{
  "transactions": [
    {
      "hash": "0xf3911fbaed5ae0290ffe818c2a02cd3e28f7e6df21f8e44dabd2ec7b4619cede",
      "transactionType": "CALL",
      "contractName": null,
      "contractAddress": "0x167ad284c7bcc4d6342991aa258422e7a04f926e",
      "function": "makeCrime(uint8)",
      "arguments": [
        "0"
      ],
      "transaction": {
        "from": "0xac56dc5a4a9de0197f7b8f584ea04ec7e0123dde",
        "to": "0x167ad284c7bcc4d6342991aa258422e7a04f926e",
        "gas": "0x45b7c",
        "value": "0x0",
        "input": "0xc625abb40000000000000000000000000000000000000000000000000000000000000000",
        "nonce": "0xfb",
        "chainId": "0x38"
      },
      "additionalContracts": [],
      "isFixedGasLimit": false
    }
  ],
  "receipts": [
    {
      "status": "0x1",
      "cumulativeGasUsed": "0xaaf012",
      "logs": [
        {
          "address": "0x167ad284c7bcc4d6342991aa258422e7a04f926e",
          "topics": [
            "0xe36ceebd3770780c5617d53efc7d77328074f1248146245ed3b854cbf651fb37"
          ],
          "data": "0x000000000000000000000000ac56dc5a4a9de0197f7b8f584ea04ec7e0123dde0000000000000000000000000000000000000000000000000000000000000000000000000000000000000000000000000000000000000000000000000000000000000000000000000000000000000000000000000000000000000000000000000000000000000000000000000000000000000000000000000000000000000000000000000000000000000000000000000000000000000000000000000000000000000000000000000000000000000000000000000000000000000000698789f3000000000000000000000000000000000000000000000000000000006987866f",
          "blockHash": "0xb2356fecb807e6dc55e1f29b9cb7c28f7b67ef98676697537d9a5cf16e3040fa",
          "blockNumber": "0x4c2ccb5",
          "blockTimestamp": "0x6987866f",
          "transactionHash": "0xf3911fbaed5ae0290ffe818c2a02cd3e28f7e6df21f8e44dabd2ec7b4619cede",
          "transactionIndex": "0x2d",
          "logIndex": "0xa5",
          "removed": false
        }
      ],
      "logsBloom": "0x00000000000000000000000000000000000000000000000000000000400000000000000000000040000000000000000000000000000000000000000000000000000000000000000000000000000000000000000000000000000000000000000000000000000000000000000000000000000000000000000000000000000000000000000000000000000000100000000000000000000020000000000000000004000000000000000000000000000000000000000000000000000000000000000000000000000000000000000000000000000000000000000000000000000000000000000000000000000100000000000000000000000000000000000000000000",
      "type": "0x2",
      "transactionHash": "0xf3911fbaed5ae0290ffe818c2a02cd3e28f7e6df21f8e44dabd2ec7b4619cede",
      "transactionIndex": "0x2d",
      "blockHash": "0xb2356fecb807e6dc55e1f29b9cb7c28f7b67ef98676697537d9a5cf16e3040fa",
      "blockNumber": "0x4c2ccb5",
      "gasUsed": "0x1e72c",
      "effectiveGasPrice": "0x2faf080",
      "from": "0xac56dc5a4a9de0197f7b8f584ea04ec7e0123dde",
      "to": "0x167ad284c7bcc4d6342991aa258422e7a04f926e",
      "contractAddress": null
    }
  ],
  "libraries": [],
  "pending": [],
  "returns": {},
  "timestamp": 1770489457033,
  "chain": 56,
  "commit": null
}