{
  "transactions": [
    {
      "hash": "0x93cfba1cb06c1c2f1a8343159292ac751e9ac7adf9d1f6ae90b54d4b4d4942a1",
      "transactionType": "CALL",
      "contractName": null,
      "contractAddress": "0x167ad284c7bcc4d6342991aa258422e7a04f926e",
      "function": "makeCrime(uint8)",
      "arguments": [
        "0"
      ],
      "transaction": {
        "from": "0x4c62f6121e6f967a0872da8364995e9b68c1e82f",
        "to": "0x167ad284c7bcc4d6342991aa258422e7a04f926e",
        "gas": "0x5db94",
        "value": "0x0",
        "input": "0xc625abb40000000000000000000000000000000000000000000000000000000000000000",
        "nonce": "0xa5",
        "chainId": "0x38"
      },
      "additionalContracts": [],
      "isFixedGasLimit": false
    }
  ],
  "receipts": [
    {
      "status": "0x1",
      "cumulativeGasUsed": "0xbabaa1",
      "logs": [
        {
          "address": "0x7371580cd13de739c734ae85062f75194d13fac2",
          "topics": [
            "0x0bff5315606c84d1cee047503678048ca39946be11bfdd5a8c03fe5e272d98e3"
          ],
          "data": "0x0000000000000000000000004c62f6121e6f967a0872da8364995e9b68c1e82f00000000000000000000000000000000000000000000000000000000697a58670000000000000000000000000000000000000000000000000000000000000000",
          "blockHash": "0x469c2feb68a689a8a4f4f1de572a09192fcebc406d8ad03d40ddb34fe436acd8",
          "blockNumber": "0x4a57939",
          "blockTimestamp": "0x697a5321",
          "transactionHash": "0x93cfba1cb06c1c2f1a8343159292ac751e9ac7adf9d1f6ae90b54d4b4d4942a1",
          "transactionIndex": "0x4d",
          "logIndex": "0x1e4",
          "removed": false
        },
        {
          "address": "0xaae5ef15499c71301123ee4b13d20d570d24ad5e",
          "topics": [
            "0x6dd0730fb835f9bbe38532c3d82c7c87448bfdec295f1d7cd2d72ff339632a52"
          ],
          "data": "0x00000000000000000000000000000000000000000000000000000000000000c000000000000000000000000000000000000000000000000000000000000001000000000000000000000000004c62f6121e6f967a0872da8364995e9b68c1e82f000000000000000000000000000000000000000000000000000000000000000100000000000000000000000000000000000000000000000000000000697a5321000000000000000000000000000000000000000000000000000000000000014000000000000000000000000000000000000000000000000000000000000000044a61696c000000000000000000000000000000000000000000000000000000000000000000000000000000000000000000000000000000000000000000000008496d707269736f6e0000000000000000000000000000000000000000000000000000000000000000000000000000000000000000000000000000000000000000",
          "blockHash": "0x469c2feb68a689a8a4f4f1de572a09192fcebc406d8ad03d40ddb34fe436acd8",
          "blockNumber": "0x4a57939",
          "blockTimestamp": "0x697a5321",
          "transactionHash": "0x93cfba1cb06c1c2f1a8343159292ac751e9ac7adf9d1f6ae90b54d4b4d4942a1",
          "transactionIndex": "0x4d",
          "logIndex": "0x1e5",
          "removed": false
        },
        {
          "address": "0x167ad284c7bcc4d6342991aa258422e7a04f926e",
          "topics": [
            "0xe36ceebd3770780c5617d53efc7d77328074f1248146245ed3b854cbf651fb37"
          ],
          "data": "0x0000000000000000000000004c62f6121e6f967a0872da8364995e9b68c1e82f0000000000000000000000000000000000000000000000000000000000000000000000000000000000000000000000000000000000000000000000000000000000000000000000000000000000000000000000000000000000000000000000010000000000000000000000000000000000000000000000000000000000000000000000000000000000000000000000000000000000000000000000000000000000000000000000000000000000000000000000000000000000000000697a56a500000000000000000000000000000000000000000000000000000000697a5321",
          "blockHash": "0x469c2feb68a689a8a4f4f1de572a09192fcebc406d8ad03d40ddb34fe436acd8",
          "blockNumber": "0x4a57939",
          "blockTimestamp": "0x697a5321",
          "transactionHash": "0x93cfba1cb06c1c2f1a8343159292ac751e9ac7adf9d1f6ae90b54d4b4d4942a1",
          "transactionIndex": "0x4d",
          "logIndex": "0x1e6",
          "removed": false
        }
      ],
      "logsBloom": "0x00000000000000000000000000000000001040040000000000000000400000000001000000000040000000000000000000000000000000000000000000000000000000000000000000200000000000000000000002000000001000000000000000000000000000000000000000000020000000000000000000000000000000000000000000000000000000100000000000000000000020000000000000000004000000000000000000000000000000000000000000000000000000000000000000000000000000000000000000000040000000000000000000000000000000800000000000000000000100000000002000000000000000000000000000001000",
      "type": "0x2",
      "transactionHash": "0x93cfba1cb06c1c2f1a8343159292ac751e9ac7adf9d1f6ae90b54d4b4d4942a1",
      "transactionIndex": "0x4d",
      "blockHash": "0x469c2feb68a689a8a4f4f1de572a09192fcebc406d8ad03d40ddb34fe436acd8",
      "blockNumber": "0x4a57939",
      "gasUsed": "0x2f4bf",
      "effectiveGasPrice": "0x2faf080",
      "from": "0x4c62f6121e6f967a0872da8364995e9b68c1e82f",
      "to": "0x167ad284c7bcc4d6342991aa258422e7a04f926e",
      "contractAddress": null
    }
  ],
  "libraries": [],
  "pending": [],
  "returns": {},
  "timestamp": 1769624355549,
  "chain": 56,
  "commit": null
}