{
  "transactions": [
    {
      "hash": "0x05017a46668df919b36ab1b906d85fc08de3423fad893ab6903800077d96baad",
      "transactionType": "CALL",
      "contractName": null,
      "contractAddress": "0x167ad284c7bcc4d6342991aa258422e7a04f926e",
      "function": "makeCrime(uint8)",
      "arguments": [
        "0"
      ],
      "transaction": {
        "from": "0xeca7a53ba6a190c5d205bfdc7707cbc3399336c1",
        "to": "0x167ad284c7bcc4d6342991aa258422e7a04f926e",
        "gas": "0x4218c",
        "value": "0x0",
        "input": "0xc625abb40000000000000000000000000000000000000000000000000000000000000000",
        "nonce": "0x282",
        "chainId": "0x38"
      },
      "additionalContracts": [],
      "isFixedGasLimit": false
    }
  ],
  "receipts": [
    {
      "status": "0x1",
      "cumulativeGasUsed": "0x312110",
      "logs": [
        {
          "address": "0x167ad284c7bcc4d6342991aa258422e7a04f926e",
          "topics": [
            "0xe36ceebd3770780c5617d53efc7d77328074f1248146245ed3b854cbf651fb37"
          ],
          "data": "0x000000000000000000000000eca7a53ba6a190c5d205bfdc7707cbc3399336c10000000000000000000000000000000000000000000000000000000000000000000000000000000000000000000000000000000000000000000000000000000000000000000000000000000000000000000000000000000000000000000000000000000000000000000000000000000000000000000000000000000000000000000000000000000000000000000000000000000000000000000000000000000000000000000000000000000000000000000000000000000000000000698122f00000000000000000000000000000000000000000000000000000000069811f6c",
          "blockHash": "0x1b7507613fbb8d1fadcb2086fd04cd460ff5756216b5486cab62c812aa6262c6",
          "blockNumber": "0x4b493c5",
          "blockTimestamp": "0x69811f6c",
          "transactionHash": "0x05017a46668df919b36ab1b906d85fc08de3423fad893ab6903800077d96baad",
          "transactionIndex": "0x1f",
          "logIndex": "0x4f",
          "removed": false
        }
      ],
      "logsBloom": "0x00000000000000000000000000000000000000000000000000000000400000000000000000000040000000000000000000000000000000000000000000000000000000000000000000000000000000000000000000000000000000000000000000000000000000000000000000000000000000000000000000000000000000000000000000000000000000100000000000000000000020000000000000000004000000000000000000000000000000000000000000000000000000000000000000000000000000000000000000000000000000000000000000000000000000000000000000000000000100000000000000000000000000000000000000000000",
      "type": "0x2",
      "transactionHash": "0x05017a46668df919b36ab1b906d85fc08de3423fad893ab6903800077d96baad",
      "transactionIndex": "0x1f",
      "blockHash": "0x1b7507613fbb8d1fadcb2086fd04cd460ff5756216b5486cab62c812aa6262c6",
      "blockNumber": "0x4b493c5",
      "gasUsed": "0x1ea18",
      "effectiveGasPrice": "0x2faf080",
      "from": "0xeca7a53ba6a190c5d205bfdc7707cbc3399336c1",
      "to": "0x167ad284c7bcc4d6342991aa258422e7a04f926e",
      "contractAddress": null
    }
  ],
  "libraries": [],
  "pending": [],
  "returns": {},
  "timestamp": 1770069870107,
  "chain": 56,
  "commit": null
}