{
  "transactions": [
    {
      "hash": "0x4bd08458f9910307fa213d0ff2e1675ae6baf2d788d5857793870b07d16e8319",
      "transactionType": "CALL",
      "contractName": null,
      "contractAddress": "0x167ad284c7bcc4d6342991aa258422e7a04f926e",
      "function": "makeCrime(uint8)",
      "arguments": [
        "0"
      ],
      "transaction": {
        "from": "0xac56dc5a4a9de0197f7b8f584ea04ec7e0123dde",
        "to": "0x167ad284c7bcc4d6342991aa258422e7a04f926e",
        "gas": "0x2a0e7",
        "value": "0x0",
        "input": "0xc625abb40000000000000000000000000000000000000000000000000000000000000000",
        "nonce": "0xb6",
        "chainId": "0x38"
      },
      "additionalContracts": [],
      "isFixedGasLimit": false
    }
  ],
  "receipts": [
    {
      "status": "0x1",
      "cumulativeGasUsed": "0x27d297e",
      "logs": [
        {
          "address": "0x167ad284c7bcc4d6342991aa258422e7a04f926e",
          "topics": [
            "0xe36ceebd3770780c5617d53efc7d77328074f1248146245ed3b854cbf651fb37"
          ],
          "data": "0x000000000000000000000000ac56dc5a4a9de0197f7b8f584ea04ec7e0123dde00000000000000000000000000000000000000000000000000000000000000000000000000000000000000000000000000000000000000000000000000000000000000000000000000000000000000000000000000000000000000000000000000000000000000000000000000000000000000000000000000000000000000000000000000000000000000000000000000000000000000000000000000000000000000000000000000000000000000000000000000000000000000006983807b0000000000000000000000000000000000000000000000000000000069837cf7",
          "blockHash": "0x49e8d2bf93fae21cf1e63b661fff3cf4653bc5ee740057c2ef87fc193c8f3e2f",
          "blockNumber": "0x4b9d482",
          "blockTimestamp": "0x69837cf7",
          "transactionHash": "0x4bd08458f9910307fa213d0ff2e1675ae6baf2d788d5857793870b07d16e8319",
          "transactionIndex": "0xb1",
          "logIndex": "0x216",
          "removed": false
        }
      ],
      "logsBloom": "0x00000000000000000000000000000000000000000000000000000000400000000000000000000040000000000000000000000000000000000000000000000000000000000000000000000000000000000000000000000000000000000000000000000000000000000000000000000000000000000000000000000000000000000000000000000000000000100000000000000000000020000000000000000004000000000000000000000000000000000000000000000000000000000000000000000000000000000000000000000000000000000000000000000000000000000000000000000000000100000000000000000000000000000000000000000000",
      "type": "0x2",
      "transactionHash": "0x4bd08458f9910307fa213d0ff2e1675ae6baf2d788d5857793870b07d16e8319",
      "transactionIndex": "0xb1",
      "blockHash": "0x49e8d2bf93fae21cf1e63b661fff3cf4653bc5ee740057c2ef87fc193c8f3e2f",
      "blockNumber": "0x4b9d482",
      "gasUsed": "0x1e72c",
      "effectiveGasPrice": "0x3567e03",
      "from": "0xac56dc5a4a9de0197f7b8f584ea04ec7e0123dde",
      "to": "0x167ad284c7bcc4d6342991aa258422e7a04f926e",
      "contractAddress": null
    }
  ],
  "libraries": [],
  "pending": [],
  "returns": {},
  "timestamp": 1770224889094,
  "chain": 56,
  "commit": null
}