{
  "transactions": [
    {
      "hash": "0xfd5e0691ac00a60e1bd39d64c89be6e746c81bb000ba822549a5e767d3cdc47c",
      "transactionType": "CALL",
      "contractName": null,
      "contractAddress": "0x167ad284c7bcc4d6342991aa258422e7a04f926e",
      "function": "makeCrime(uint8)",
      "arguments": [
        "0"
      ],
      "transaction": {
        "from": "0xec646a6c9000e04d050435340d9c42c039eb5648",
        "to": "0x167ad284c7bcc4d6342991aa258422e7a04f926e",
        "gas": "0x592fa",
        "value": "0x0",
        "input": "0xc625abb40000000000000000000000000000000000000000000000000000000000000000",
        "nonce": "0x78",
        "chainId": "0x38"
      },
      "additionalContracts": [],
      "isFixedGasLimit": false
    }
  ],
  "receipts": [
    {
      "status": "0x1",
      "cumulativeGasUsed": "0x8d3832",
      "logs": [
        {
          "address": "0x167ad284c7bcc4d6342991aa258422e7a04f926e",
          "topics": [
            "0xe36ceebd3770780c5617d53efc7d77328074f1248146245ed3b854cbf651fb37"
          ],
          "data": "0x000000000000000000000000ec646a6c9000e04d050435340d9c42c039eb564800000000000000000000000000000000000000000000000000000000000000000000000000000000000000000000000000000000000000000000000000000000000000000000000000000000000000000000000000000000000000000000000000000000000000000000000000000000000000000000000000000000000000000000000000000000000000000000000000000000000000000000000000000000000000000000000000000000000000000000000000000000000000006985ad06000000000000000000000000000000000000000000000000000000006985a982",
          "blockHash": "0x5d1b9452bcea71ad51492e51aa800ffee26975ef2de6655d7dec4b83e041b2a2",
          "blockNumber": "0x4bea917",
          "blockTimestamp": "0x6985a982",
          "transactionHash": "0xfd5e0691ac00a60e1bd39d64c89be6e746c81bb000ba822549a5e767d3cdc47c",
          "transactionIndex": "0x51",
          "logIndex": "0x107",
          "removed": false
        }
      ],
      "logsBloom": "0x00000000000000000000000000000000000000000000000000000000400000000000000000000040000000000000000000000000000000000000000000000000000000000000000000000000000000000000000000000000000000000000000000000000000000000000000000000000000000000000000000000000000000000000000000000000000000100000000000000000000020000000000000000004000000000000000000000000000000000000000000000000000000000000000000000000000000000000000000000000000000000000000000000000000000000000000000000000000100000000000000000000000000000000000000000000",
      "type": "0x2",
      "transactionHash": "0xfd5e0691ac00a60e1bd39d64c89be6e746c81bb000ba822549a5e767d3cdc47c",
      "transactionIndex": "0x51",
      "blockHash": "0x5d1b9452bcea71ad51492e51aa800ffee26975ef2de6655d7dec4b83e041b2a2",
      "blockNumber": "0x4bea917",
      "gasUsed": "0x1e72c",
      "effectiveGasPrice": "0x2faf080",
      "from": "0xec646a6c9000e04d050435340d9c42c039eb5648",
      "to": "0x167ad284c7bcc4d6342991aa258422e7a04f926e",
      "contractAddress": null
    }
  ],
  "libraries": [],
  "pending": [],
  "returns": {},
  "timestamp": 1770367363599,
  "chain": 56,
  "commit": null
}