{
  "transactions": [
    {
      "hash": "0x6a42139479a8e9bbdace2ca31340368563e19ee813b95bd832fcd30cbc93f4b8",
      "transactionType": "CALL",
      "contractName": null,
      "contractAddress": "0x167ad284c7bcc4d6342991aa258422e7a04f926e",
      "function": "makeCrime(uint8)",
      "arguments": [
        "0"
      ],
      "transaction": {
        "from": "0xac56dc5a4a9de0197f7b8f584ea04ec7e0123dde",
        "to": "0x167ad284c7bcc4d6342991aa258422e7a04f926e",
        "gas": "0x2a0e7",
        "value": "0x0",
        "input": "0xc625abb40000000000000000000000000000000000000000000000000000000000000000",
        "nonce": "0xb3",
        "chainId": "0x38"
      },
      "additionalContracts": [],
      "isFixedGasLimit": false
    }
  ],
  "receipts": [
    {
      "status": "0x1",
      "cumulativeGasUsed": "0x1e4a2cd",
      "logs": [
        {
          "address": "0x167ad284c7bcc4d6342991aa258422e7a04f926e",
          "topics": [
            "0xe36ceebd3770780c5617d53efc7d77328074f1248146245ed3b854cbf651fb37"
          ],
          "data": "0x000000000000000000000000ac56dc5a4a9de0197f7b8f584ea04ec7e0123dde00000000000000000000000000000000000000000000000000000000000000000000000000000000000000000000000000000000000000000000000000000000000000000000000000000000000000000000000000000000000000000000000000000000000000000000000000000000000000000000000000000000000000000000000000000000000000000000000000000000000000000000000000000000000000000000000000000000000000000000000000000000000000006983784b00000000000000000000000000000000000000000000000000000000698374c7",
          "blockHash": "0x436b4d5477c6efe56358907b3bd7f1812cc67cd331ffffa1150d2d447e5b8cf9",
          "blockNumber": "0x4b9c250",
          "blockTimestamp": "0x698374c7",
          "transactionHash": "0x6a42139479a8e9bbdace2ca31340368563e19ee813b95bd832fcd30cbc93f4b8",
          "transactionIndex": "0x2a",
          "logIndex": "0x61",
          "removed": false
        }
      ],
      "logsBloom": "0x00000000000000000000000000000000000000000000000000000000400000000000000000000040000000000000000000000000000000000000000000000000000000000000000000000000000000000000000000000000000000000000000000000000000000000000000000000000000000000000000000000000000000000000000000000000000000100000000000000000000020000000000000000004000000000000000000000000000000000000000000000000000000000000000000000000000000000000000000000000000000000000000000000000000000000000000000000000000100000000000000000000000000000000000000000000",
      "type": "0x2",
      "transactionHash": "0x6a42139479a8e9bbdace2ca31340368563e19ee813b95bd832fcd30cbc93f4b8",
      "transactionIndex": "0x2a",
      "blockHash": "0x436b4d5477c6efe56358907b3bd7f1812cc67cd331ffffa1150d2d447e5b8cf9",
      "blockNumber": "0x4b9c250",
      "gasUsed": "0x1e72c",
      "effectiveGasPrice": "0x40f8148",
      "from": "0xac56dc5a4a9de0197f7b8f584ea04ec7e0123dde",
      "to": "0x167ad284c7bcc4d6342991aa258422e7a04f926e",
      "contractAddress": null
    }
  ],
  "libraries": [],
  "pending": [],
  "returns": {},
  "timestamp": 1770222792766,
  "chain": 56,
  "commit": null
}