{
  "transactions": [
    {
      "hash": "0x407f4904cc03f6009fc3e4eda941fb483ff779c9fee9ecaf98e0321895f4228b",
      "transactionType": "CALL",
      "contractName": null,
      "contractAddress": "0x167ad284c7bcc4d6342991aa258422e7a04f926e",
      "function": "makeCrime(uint8)",
      "arguments": [
        "0"
      ],
      "transaction": {
        "from": "0x4c62f6121e6f967a0872da8364995e9b68c1e82f",
        "to": "0x167ad284c7bcc4d6342991aa258422e7a04f926e",
        "gas": "0x4218c",
        "value": "0x0",
        "input": "0xc625abb40000000000000000000000000000000000000000000000000000000000000000",
        "nonce": "0x185",
        "chainId": "0x38"
      },
      "additionalContracts": [],
      "isFixedGasLimit": false
    }
  ],
  "receipts": [
    {
      "status": "0x1",
      "cumulativeGasUsed": "0xb7f0b7",
      "logs": [
        {
          "address": "0x167ad284c7bcc4d6342991aa258422e7a04f926e",
          "topics": [
            "0xe36ceebd3770780c5617d53efc7d77328074f1248146245ed3b854cbf651fb37"
          ],
          "data": "0x0000000000000000000000004c62f6121e6f967a0872da8364995e9b68c1e82f0000000000000000000000000000000000000000000000000000000000000000000000000000000000000000000000000000000000000000000000000000000000000000000000000000000000000000000000000000000000000000000000000000000000000000000000000000000000000000000000000000000000000000000000000000000000000000000000000000000000000000000000000000000000000000000000000000000000000000000000000000000000000000698607e70000000000000000000000000000000000000000000000000000000069860463",
          "blockHash": "0x65226c76a4dc684829af0ca5bbc183ce717b60bf428f949db33d37aeb71bbae1",
          "blockNumber": "0x4bf7308",
          "blockTimestamp": "0x69860463",
          "transactionHash": "0x407f4904cc03f6009fc3e4eda941fb483ff779c9fee9ecaf98e0321895f4228b",
          "transactionIndex": "0x58",
          "logIndex": "0x151",
          "removed": false
        }
      ],
      "logsBloom": "0x00000000000000000000000000000000000000000000000000000000400000000000000000000040000000000000000000000000000000000000000000000000000000000000000000000000000000000000000000000000000000000000000000000000000000000000000000000000000000000000000000000000000000000000000000000000000000100000000000000000000020000000000000000004000000000000000000000000000000000000000000000000000000000000000000000000000000000000000000000000000000000000000000000000000000000000000000000000000100000000000000000000000000000000000000000000",
      "type": "0x2",
      "transactionHash": "0x407f4904cc03f6009fc3e4eda941fb483ff779c9fee9ecaf98e0321895f4228b",
      "transactionIndex": "0x58",
      "blockHash": "0x65226c76a4dc684829af0ca5bbc183ce717b60bf428f949db33d37aeb71bbae1",
      "blockNumber": "0x4bf7308",
      "gasUsed": "0x1ea18",
      "effectiveGasPrice": "0x2faf080",
      "from": "0x4c62f6121e6f967a0872da8364995e9b68c1e82f",
      "to": "0x167ad284c7bcc4d6342991aa258422e7a04f926e",
      "contractAddress": null
    }
  ],
  "libraries": [],
  "pending": [],
  "returns": {},
  "timestamp": 1770390629547,
  "chain": 56,
  "commit": null
}