{
  "transactions": [
    {
      "hash": "0x83fbbcb1aa3fa777499e4892877d44a8d45d13449133cb7927d09c0975730f12",
      "transactionType": "CALL",
      "contractName": null,
      "contractAddress": "0x167ad284c7bcc4d6342991aa258422e7a04f926e",
      "function": "makeCrime(uint8)",
      "arguments": [
        "0"
      ],
      "transaction": {
        "from": "0xac56dc5a4a9de0197f7b8f584ea04ec7e0123dde",
        "to": "0x167ad284c7bcc4d6342991aa258422e7a04f926e",
        "gas": "0x592fa",
        "value": "0x0",
        "input": "0xc625abb40000000000000000000000000000000000000000000000000000000000000000",
        "nonce": "0xa0",
        "chainId": "0x38"
      },
      "additionalContracts": [],
      "isFixedGasLimit": false
    }
  ],
  "receipts": [
    {
      "status": "0x1",
      "cumulativeGasUsed": "0x9e0d5a",
      "logs": [
        {
          "address": "0x167ad284c7bcc4d6342991aa258422e7a04f926e",
          "topics": [
            "0xe36ceebd3770780c5617d53efc7d77328074f1248146245ed3b854cbf651fb37"
          ],
          "data": "0x000000000000000000000000ac56dc5a4a9de0197f7b8f584ea04ec7e0123dde0000000000000000000000000000000000000000000000000000000000000000000000000000000000000000000000000000000000000000000000000000000000000000000000000000000000000000000000000000000000000000000000000000000000000000000000000000000000000000000000000000000000000000000000000000000000000000000000000000000000000000000000000000000000000000000000000000000000000000000000000000000000000000698348ce000000000000000000000000000000000000000000000000000000006983454a",
          "blockHash": "0x59aeb94f36bca700948d128a8c7ce9d6e10bab5bce04319d1b2bf9f1efa57829",
          "blockNumber": "0x4b958d4",
          "blockTimestamp": "0x6983454a",
          "transactionHash": "0x83fbbcb1aa3fa777499e4892877d44a8d45d13449133cb7927d09c0975730f12",
          "transactionIndex": "0x50",
          "logIndex": "0x11b",
          "removed": false
        }
      ],
      "logsBloom": "0x00000000000000000000000000000000000000000000000000000000400000000000000000000040000000000000000000000000000000000000000000000000000000000000000000000000000000000000000000000000000000000000000000000000000000000000000000000000000000000000000000000000000000000000000000000000000000100000000000000000000020000000000000000004000000000000000000000000000000000000000000000000000000000000000000000000000000000000000000000000000000000000000000000000000000000000000000000000000100000000000000000000000000000000000000000000",
      "type": "0x2",
      "transactionHash": "0x83fbbcb1aa3fa777499e4892877d44a8d45d13449133cb7927d09c0975730f12",
      "transactionIndex": "0x50",
      "blockHash": "0x59aeb94f36bca700948d128a8c7ce9d6e10bab5bce04319d1b2bf9f1efa57829",
      "blockNumber": "0x4b958d4",
      "gasUsed": "0x1e72c",
      "effectiveGasPrice": "0x2faf080",
      "from": "0xac56dc5a4a9de0197f7b8f584ea04ec7e0123dde",
      "to": "0x167ad284c7bcc4d6342991aa258422e7a04f926e",
      "contractAddress": null
    }
  ],
  "libraries": [],
  "pending": [],
  "returns": {},
  "timestamp": 1770210635569,
  "chain": 56,
  "commit": null
}