{
  "transactions": [
    {
      "hash": "0x2bc8ffbf857d96254065c072594ebfb6a897d80327c4d9c76fd5fce642962cf9",
      "transactionType": "CALL",
      "contractName": null,
      "contractAddress": "0x167ad284c7bcc4d6342991aa258422e7a04f926e",
      "function": "makeCrime(uint8)",
      "arguments": [
        "0"
      ],
      "transaction": {
        "from": "0xac56dc5a4a9de0197f7b8f584ea04ec7e0123dde",
        "to": "0x167ad284c7bcc4d6342991aa258422e7a04f926e",
        "gas": "0x592fa",
        "value": "0x0",
        "input": "0xc625abb40000000000000000000000000000000000000000000000000000000000000000",
        "nonce": "0x100",
        "chainId": "0x38"
      },
      "additionalContracts": [],
      "isFixedGasLimit": false
    }
  ],
  "receipts": [
    {
      "status": "0x1",
      "cumulativeGasUsed": "0x5877dc",
      "logs": [
        {
          "address": "0x7371580cd13de739c734ae85062f75194d13fac2",
          "topics": [
            "0x0bff5315606c84d1cee047503678048ca39946be11bfdd5a8c03fe5e272d98e3"
          ],
          "data": "0x000000000000000000000000ac56dc5a4a9de0197f7b8f584ea04ec7e0123dde0000000000000000000000000000000000000000000000000000000069879e6e0000000000000000000000000000000000000000000000000000000000000000",
          "blockHash": "0xc90e095351f7b4a4193bbb687008618d85ac7842119040356de654ccc4246a33",
          "blockNumber": "0x4c2f651",
          "blockTimestamp": "0x69879928",
          "transactionHash": "0x2bc8ffbf857d96254065c072594ebfb6a897d80327c4d9c76fd5fce642962cf9",
          "transactionIndex": "0x24",
          "logIndex": "0x99",
          "removed": false
        },
        {
          "address": "0xaae5ef15499c71301123ee4b13d20d570d24ad5e",
          "topics": [
            "0x6dd0730fb835f9bbe38532c3d82c7c87448bfdec295f1d7cd2d72ff339632a52"
          ],
          "data": "0x00000000000000000000000000000000000000000000000000000000000000c00000000000000000000000000000000000000000000000000000000000000100000000000000000000000000ac56dc5a4a9de0197f7b8f584ea04ec7e0123dde00000000000000000000000000000000000000000000000000000000000000010000000000000000000000000000000000000000000000000000000069879928000000000000000000000000000000000000000000000000000000000000014000000000000000000000000000000000000000000000000000000000000000044a61696c000000000000000000000000000000000000000000000000000000000000000000000000000000000000000000000000000000000000000000000008496d707269736f6e0000000000000000000000000000000000000000000000000000000000000000000000000000000000000000000000000000000000000000",
          "blockHash": "0xc90e095351f7b4a4193bbb687008618d85ac7842119040356de654ccc4246a33",
          "blockNumber": "0x4c2f651",
          "blockTimestamp": "0x69879928",
          "transactionHash": "0x2bc8ffbf857d96254065c072594ebfb6a897d80327c4d9c76fd5fce642962cf9",
          "transactionIndex": "0x24",
          "logIndex": "0x9a",
          "removed": false
        },
        {
          "address": "0x167ad284c7bcc4d6342991aa258422e7a04f926e",
          "topics": [
            "0xe36ceebd3770780c5617d53efc7d77328074f1248146245ed3b854cbf651fb37"
          ],
          "data": "0x000000000000000000000000ac56dc5a4a9de0197f7b8f584ea04ec7e0123dde000000000000000000000000000000000000000000000000000000000000000000000000000000000000000000000000000000000000000000000000000000000000000000000000000000000000000000000000000000000000000000000001000000000000000000000000000000000000000000000000000000000000000000000000000000000000000000000000000000000000000000000000000000000000000000000000000000000000000000000000000000000000000069879cac0000000000000000000000000000000000000000000000000000000069879928",
          "blockHash": "0xc90e095351f7b4a4193bbb687008618d85ac7842119040356de654ccc4246a33",
          "blockNumber": "0x4c2f651",
          "blockTimestamp": "0x69879928",
          "transactionHash": "0x2bc8ffbf857d96254065c072594ebfb6a897d80327c4d9c76fd5fce642962cf9",
          "transactionIndex": "0x24",
          "logIndex": "0x9b",
          "removed": false
        }
      ],
      "logsBloom": "0x00000000000000000000000000000000001040040000000000000000400000000001000000000040000000000000000000000000000000000000000000000000000000000000000000200000000000000000000002000000001000000000000000000000000000000000000000000020000000000000000000000000000000000000000000000000000000100000000000000000000020000000000000000004000000000000000000000000000000000000000000000000000000000000000000000000000000000000000000000040000000000000000000000000000000800000000000000000000100000000002000000000000000000000000000001000",
      "type": "0x2",
      "transactionHash": "0x2bc8ffbf857d96254065c072594ebfb6a897d80327c4d9c76fd5fce642962cf9",
      "transactionIndex": "0x24",
      "blockHash": "0xc90e095351f7b4a4193bbb687008618d85ac7842119040356de654ccc4246a33",
      "blockNumber": "0x4c2f651",
      "gasUsed": "0x2faba",
      "effectiveGasPrice": "0x2faf080",
      "from": "0xac56dc5a4a9de0197f7b8f584ea04ec7e0123dde",
      "to": "0x167ad284c7bcc4d6342991aa258422e7a04f926e",
      "contractAddress": null
    }
  ],
  "libraries": [],
  "pending": [],
  "returns": {},
  "timestamp": 1770494250483,
  "chain": 56,
  "commit": null
}