{
  "transactions": [
    {
      "hash": "0xe481692adff7fb8907289f8281eca621db9b036f801a9d17b19578c2651dc292",
      "transactionType": "CALL",
      "contractName": null,
      "contractAddress": "0x167ad284c7bcc4d6342991aa258422e7a04f926e",
      "function": "makeCrime(uint8)",
      "arguments": [
        "0"
      ],
      "transaction": {
        "from": "0xec646a6c9000e04d050435340d9c42c039eb5648",
        "to": "0x167ad284c7bcc4d6342991aa258422e7a04f926e",
        "gas": "0x45b7c",
        "value": "0x0",
        "input": "0xc625abb40000000000000000000000000000000000000000000000000000000000000000",
        "nonce": "0x41",
        "chainId": "0x38"
      },
      "additionalContracts": [],
      "isFixedGasLimit": false
    }
  ],
  "receipts": [
    {
      "status": "0x1",
      "cumulativeGasUsed": "0xf27d85",
      "logs": [
        {
          "address": "0x7371580cd13de739c734ae85062f75194d13fac2",
          "topics": [
            "0x0bff5315606c84d1cee047503678048ca39946be11bfdd5a8c03fe5e272d98e3"
          ],
          "data": "0x000000000000000000000000ec646a6c9000e04d050435340d9c42c039eb56480000000000000000000000000000000000000000000000000000000069834ef40000000000000000000000000000000000000000000000000000000000000000",
          "blockHash": "0xa5586d18423b4f365cc17e54746a25f2a93acc7d017c207d45b700dd8d26ce8e",
          "blockNumber": "0x4b96291",
          "blockTimestamp": "0x698349ae",
          "transactionHash": "0xe481692adff7fb8907289f8281eca621db9b036f801a9d17b19578c2651dc292",
          "transactionIndex": "0x75",
          "logIndex": "0x1db",
          "removed": false
        },
        {
          "address": "0xaae5ef15499c71301123ee4b13d20d570d24ad5e",
          "topics": [
            "0x6dd0730fb835f9bbe38532c3d82c7c87448bfdec295f1d7cd2d72ff339632a52"
          ],
          "data": "0x00000000000000000000000000000000000000000000000000000000000000c00000000000000000000000000000000000000000000000000000000000000100000000000000000000000000ec646a6c9000e04d050435340d9c42c039eb5648000000000000000000000000000000000000000000000000000000000000000100000000000000000000000000000000000000000000000000000000698349ae000000000000000000000000000000000000000000000000000000000000014000000000000000000000000000000000000000000000000000000000000000044a61696c000000000000000000000000000000000000000000000000000000000000000000000000000000000000000000000000000000000000000000000008496d707269736f6e0000000000000000000000000000000000000000000000000000000000000000000000000000000000000000000000000000000000000000",
          "blockHash": "0xa5586d18423b4f365cc17e54746a25f2a93acc7d017c207d45b700dd8d26ce8e",
          "blockNumber": "0x4b96291",
          "blockTimestamp": "0x698349ae",
          "transactionHash": "0xe481692adff7fb8907289f8281eca621db9b036f801a9d17b19578c2651dc292",
          "transactionIndex": "0x75",
          "logIndex": "0x1dc",
          "removed": false
        },
        {
          "address": "0x167ad284c7bcc4d6342991aa258422e7a04f926e",
          "topics": [
            "0xe36ceebd3770780c5617d53efc7d77328074f1248146245ed3b854cbf651fb37"
          ],
          "data": "0x000000000000000000000000ec646a6c9000e04d050435340d9c42c039eb5648000000000000000000000000000000000000000000000000000000000000000000000000000000000000000000000000000000000000000000000000000000000000000000000000000000000000000000000000000000000000000000000001000000000000000000000000000000000000000000000000000000000000000000000000000000000000000000000000000000000000000000000000000000000000000000000000000000000000000000000000000000000000000069834d3200000000000000000000000000000000000000000000000000000000698349ae",
          "blockHash": "0xa5586d18423b4f365cc17e54746a25f2a93acc7d017c207d45b700dd8d26ce8e",
          "blockNumber": "0x4b96291",
          "blockTimestamp": "0x698349ae",
          "transactionHash": "0xe481692adff7fb8907289f8281eca621db9b036f801a9d17b19578c2651dc292",
          "transactionIndex": "0x75",
          "logIndex": "0x1dd",
          "removed": false
        }
      ],
      "logsBloom": "0x00000000000000000000000000000000001040040000000000000000400000000001000000000040000000000000000000000000000000000000000000000000000000000000000000200000000000000000000002000000001000000000000000000000000000000000000000000020000000000000000000000000000000000000000000000000000000100000000000000000000020000000000000000004000000000000000000000000000000000000000000000000000000000000000000000000000000000000000000000040000000000000000000000000000000800000000000000000000100000000002000000000000000000000000000001000",
      "type": "0x2",
      "transactionHash": "0xe481692adff7fb8907289f8281eca621db9b036f801a9d17b19578c2651dc292",
      "transactionIndex": "0x75",
      "blockHash": "0xa5586d18423b4f365cc17e54746a25f2a93acc7d017c207d45b700dd8d26ce8e",
      "blockNumber": "0x4b96291",
      "gasUsed": "0x2faba",
      "effectiveGasPrice": "0x2faf080",
      "from": "0xec646a6c9000e04d050435340d9c42c039eb5648",
      "to": "0x167ad284c7bcc4d6342991aa258422e7a04f926e",
      "contractAddress": null
    }
  ],
  "libraries": [],
  "pending": [],
  "returns": {},
  "timestamp": 1770211760661,
  "chain": 56,
  "commit": null
}