{
  "transactions": [
    {
      "hash": "0xe0b41b357f917e3dfd2fbb8b9242b3738378092081a6e057cac68079d67e70ea",
      "transactionType": "CALL",
      "contractName": null,
      "contractAddress": "0x167ad284c7bcc4d6342991aa258422e7a04f926e",
      "function": "makeCrime(uint8)",
      "arguments": [
        "3"
      ],
      "transaction": {
        "from": "0xec646a6c9000e04d050435340d9c42c039eb5648",
        "to": "0x167ad284c7bcc4d6342991aa258422e7a04f926e",
        "gas": "0x2a22d",
        "value": "0x0",
        "input": "0xc625abb40000000000000000000000000000000000000000000000000000000000000003",
        "nonce": "0xdd",
        "chainId": "0x38"
      },
      "additionalContracts": [],
      "isFixedGasLimit": false
    }
  ],
  "receipts": [
    {
      "status": "0x1",
      "cumulativeGasUsed": "0x917bce",
      "logs": [
        {
          "address": "0x167ad284c7bcc4d6342991aa258422e7a04f926e",
          "topics": [
            "0xe36ceebd3770780c5617d53efc7d77328074f1248146245ed3b854cbf651fb37"
          ],
          "data": "0x000000000000000000000000ec646a6c9000e04d050435340d9c42c039eb5648000000000000000000000000000000000000000000000000000000000000000300000000000000000000000000000000000000000000000000000000000000000000000000000000000000000000000000000000000000000000000000000000000000000000000000000000000000000000000000000000000000000000000000000000000000000000000000000000000000000000000000000000000000000000000000000000000000000000000000000000000000000000000069887a11000000000000000000000000000000000000000000000000000000006988768d",
          "blockHash": "0x055701a5e7e64f9e520614e46a3525204666c6f724d616a36110f51f804b26aa",
          "blockNumber": "0x4c4e23d",
          "blockTimestamp": "0x6988768d",
          "transactionHash": "0xe0b41b357f917e3dfd2fbb8b9242b3738378092081a6e057cac68079d67e70ea",
          "transactionIndex": "0x50",
          "logIndex": "0x115",
          "removed": false
        }
      ],
      "logsBloom": "0x00000000000000000000000000000000000000000000000000000000400000000000000000000040000000000000000000000000000000000000000000000000000000000000000000000000000000000000000000000000000000000000000000000000000000000000000000000000000000000000000000000000000000000000000000000000000000100000000000000000000020000000000000000004000000000000000000000000000000000000000000000000000000000000000000000000000000000000000000000000000000000000000000000000000000000000000000000000000100000000000000000000000000000000000000000000",
      "type": "0x2",
      "transactionHash": "0xe0b41b357f917e3dfd2fbb8b9242b3738378092081a6e057cac68079d67e70ea",
      "transactionIndex": "0x50",
      "blockHash": "0x055701a5e7e64f9e520614e46a3525204666c6f724d616a36110f51f804b26aa",
      "blockNumber": "0x4c4e23d",
      "gasUsed": "0x1e818",
      "effectiveGasPrice": "0x2faf080",
      "from": "0xec646a6c9000e04d050435340d9c42c039eb5648",
      "to": "0x167ad284c7bcc4d6342991aa258422e7a04f926e",
      "contractAddress": null
    }
  ],
  "libraries": [],
  "pending": [],
  "returns": {},
  "timestamp": 1770550926945,
  "chain": 56,
  "commit": null
}