{
  "transactions": [
    {
      "hash": "0x4fa73dd0ec88d35b12d500107a324b6f2195ea30cf01903d23e71d4a324ca0c4",
      "transactionType": "CALL",
      "contractName": null,
      "contractAddress": "0x167ad284c7bcc4d6342991aa258422e7a04f926e",
      "function": "makeCrime(uint8)",
      "arguments": [
        "0"
      ],
      "transaction": {
        "from": "0xec646a6c9000e04d050435340d9c42c039eb5648",
        "to": "0x167ad284c7bcc4d6342991aa258422e7a04f926e",
        "gas": "0x45b7c",
        "value": "0x0",
        "input": "0xc625abb40000000000000000000000000000000000000000000000000000000000000000",
        "nonce": "0xa7",
        "chainId": "0x38"
      },
      "additionalContracts": [],
      "isFixedGasLimit": false
    }
  ],
  "receipts": [
    {
      "status": "0x1",
      "cumulativeGasUsed": "0x370645",
      "logs": [
        {
          "address": "0x167ad284c7bcc4d6342991aa258422e7a04f926e",
          "topics": [
            "0xe36ceebd3770780c5617d53efc7d77328074f1248146245ed3b854cbf651fb37"
          ],
          "data": "0x000000000000000000000000ec646a6c9000e04d050435340d9c42c039eb564800000000000000000000000000000000000000000000000000000000000000000000000000000000000000000000000000000000000000000000000000000000000000000000000000000000000000000000000000000000000000000000000000000000000000000000000000000000000000000000000000000000000000000000000000000000000000000000000000000000000000000000000000000000000000000000000000000000000000000000000000000000000000006987b474000000000000000000000000000000000000000000000000000000006987b0f0",
          "blockHash": "0xaba27ddf8342aacf53efe193676c4e9ab5038160e2ce1aabbe1db23387d40d4d",
          "blockNumber": "0x4c32b29",
          "blockTimestamp": "0x6987b0f0",
          "transactionHash": "0x4fa73dd0ec88d35b12d500107a324b6f2195ea30cf01903d23e71d4a324ca0c4",
          "transactionIndex": "0x1a",
          "logIndex": "0x61",
          "removed": false
        }
      ],
      "logsBloom": "0x00000000000000000000000000000000000000000000000000000000400000000000000000000040000000000000000000000000000000000000000000000000000000000000000000000000000000000000000000000000000000000000000000000000000000000000000000000000000000000000000000000000000000000000000000000000000000100000000000000000000020000000000000000004000000000000000000000000000000000000000000000000000000000000000000000000000000000000000000000000000000000000000000000000000000000000000000000000000100000000000000000000000000000000000000000000",
      "type": "0x2",
      "transactionHash": "0x4fa73dd0ec88d35b12d500107a324b6f2195ea30cf01903d23e71d4a324ca0c4",
      "transactionIndex": "0x1a",
      "blockHash": "0xaba27ddf8342aacf53efe193676c4e9ab5038160e2ce1aabbe1db23387d40d4d",
      "blockNumber": "0x4c32b29",
      "gasUsed": "0x1e72c",
      "effectiveGasPrice": "0x2faf080",
      "from": "0xec646a6c9000e04d050435340d9c42c039eb5648",
      "to": "0x167ad284c7bcc4d6342991aa258422e7a04f926e",
      "contractAddress": null
    }
  ],
  "libraries": [],
  "pending": [],
  "returns": {},
  "timestamp": 1770500338084,
  "chain": 56,
  "commit": null
}