{
  "transactions": [
    {
      "hash": "0xbdf40230750b5d85c0207f0bcfbfe8866fb32a729e2f49f9d8ea419c5594404b",
      "transactionType": "CALL",
      "contractName": null,
      "contractAddress": "0x167ad284c7bcc4d6342991aa258422e7a04f926e",
      "function": "makeCrime(uint8)",
      "arguments": [
        "0"
      ],
      "transaction": {
        "from": "0xeca7a53ba6a190c5d205bfdc7707cbc3399336c1",
        "to": "0x167ad284c7bcc4d6342991aa258422e7a04f926e",
        "gas": "0x4218c",
        "value": "0x0",
        "input": "0xc625abb40000000000000000000000000000000000000000000000000000000000000000",
        "nonce": "0x2a9",
        "chainId": "0x38"
      },
      "additionalContracts": [],
      "isFixedGasLimit": false
    }
  ],
  "receipts": [
    {
      "status": "0x1",
      "cumulativeGasUsed": "0x480d7e",
      "logs": [
        {
          "address": "0x167ad284c7bcc4d6342991aa258422e7a04f926e",
          "topics": [
            "0xe36ceebd3770780c5617d53efc7d77328074f1248146245ed3b854cbf651fb37"
          ],
          "data": "0x000000000000000000000000eca7a53ba6a190c5d205bfdc7707cbc3399336c1000000000000000000000000000000000000000000000000000000000000000000000000000000000000000000000000000000000000000000000000000000000000000000000000000000000000000000000000000000000000000000000000000000000000000000000000000000000000000000000000000000000000000000000000000000000000000000000000000000000000000000000000000000000000000000000000000000000000000000000000000000000000000069839dc80000000000000000000000000000000000000000000000000000000069839a44",
          "blockHash": "0x46f158adc1de33a2b2de267d2e0804a4330d1df18d89a49f6ea2d3b1af946d54",
          "blockNumber": "0x4ba159f",
          "blockTimestamp": "0x69839a44",
          "transactionHash": "0xbdf40230750b5d85c0207f0bcfbfe8866fb32a729e2f49f9d8ea419c5594404b",
          "transactionIndex": "0x27",
          "logIndex": "0x87",
          "removed": false
        }
      ],
      "logsBloom": "0x00000000000000000000000000000000000000000000000000000000400000000000000000000040000000000000000000000000000000000000000000000000000000000000000000000000000000000000000000000000000000000000000000000000000000000000000000000000000000000000000000000000000000000000000000000000000000100000000000000000000020000000000000000004000000000000000000000000000000000000000000000000000000000000000000000000000000000000000000000000000000000000000000000000000000000000000000000000000100000000000000000000000000000000000000000000",
      "type": "0x2",
      "transactionHash": "0xbdf40230750b5d85c0207f0bcfbfe8866fb32a729e2f49f9d8ea419c5594404b",
      "transactionIndex": "0x27",
      "blockHash": "0x46f158adc1de33a2b2de267d2e0804a4330d1df18d89a49f6ea2d3b1af946d54",
      "blockNumber": "0x4ba159f",
      "gasUsed": "0x1ea18",
      "effectiveGasPrice": "0x2faf080",
      "from": "0xeca7a53ba6a190c5d205bfdc7707cbc3399336c1",
      "to": "0x167ad284c7bcc4d6342991aa258422e7a04f926e",
      "contractAddress": null
    }
  ],
  "libraries": [],
  "pending": [],
  "returns": {},
  "timestamp": 1770232390329,
  "chain": 56,
  "commit": null
}