{
  "transactions": [
    {
      "hash": "0xc967db1bf4be183c473aa4023cb6d510afd126787cfbbb870d2332e8d06a9fd2",
      "transactionType": "CALL",
      "contractName": null,
      "contractAddress": "0x167ad284c7bcc4d6342991aa258422e7a04f926e",
      "function": "makeCrime(uint8)",
      "arguments": [
        "0"
      ],
      "transaction": {
        "from": "0xeca7a53ba6a190c5d205bfdc7707cbc3399336c1",
        "to": "0x167ad284c7bcc4d6342991aa258422e7a04f926e",
        "gas": "0x41540",
        "value": "0x0",
        "input": "0xc625abb40000000000000000000000000000000000000000000000000000000000000000",
        "nonce": "0x20e",
        "chainId": "0x38"
      },
      "additionalContracts": [],
      "isFixedGasLimit": false
    }
  ],
  "receipts": [
    {
      "status": "0x1",
      "cumulativeGasUsed": "0x108cf39",
      "logs": [
        {
          "address": "0x167ad284c7bcc4d6342991aa258422e7a04f926e",
          "topics": [
            "0xe36ceebd3770780c5617d53efc7d77328074f1248146245ed3b854cbf651fb37"
          ],
          "data": "0x000000000000000000000000eca7a53ba6a190c5d205bfdc7707cbc3399336c10000000000000000000000000000000000000000000000000000000000000000000000000000000000000000000000000000000000000000000000000000000000000000000000000000000000000000000000000000000000000000000000000000000000000000000000000000000000000000000000000000000000000000000000000000000000000000000000000000000000000000000000000000000000000000000000000000000000000000000000000000000000000000697a572500000000000000000000000000000000000000000000000000000000697a53a1",
          "blockHash": "0xe0ad28c7e64b662d014ae4e76c23f2fb791760ecf9fe972e2e7d5d0707bcba21",
          "blockNumber": "0x4a57a54",
          "blockTimestamp": "0x697a53a1",
          "transactionHash": "0xc967db1bf4be183c473aa4023cb6d510afd126787cfbbb870d2332e8d06a9fd2",
          "transactionIndex": "0x2f",
          "logIndex": "0x266",
          "removed": false
        }
      ],
      "logsBloom": "0x00000000000000000000000000000000000000000000000000000000400000000000000000000040000000000000000000000000000000000000000000000000000000000000000000000000000000000000000000000000000000000000000000000000000000000000000000000000000000000000000000000000000000000000000000000000000000100000000000000000000020000000000000000004000000000000000000000000000000000000000000000000000000000000000000000000000000000000000000000000000000000000000000000000000000000000000000000000000100000000000000000000000000000000000000000000",
      "type": "0x2",
      "transactionHash": "0xc967db1bf4be183c473aa4023cb6d510afd126787cfbbb870d2332e8d06a9fd2",
      "transactionIndex": "0x2f",
      "blockHash": "0xe0ad28c7e64b662d014ae4e76c23f2fb791760ecf9fe972e2e7d5d0707bcba21",
      "blockNumber": "0x4a57a54",
      "gasUsed": "0x1ea18",
      "effectiveGasPrice": "0x2faf082",
      "from": "0xeca7a53ba6a190c5d205bfdc7707cbc3399336c1",
      "to": "0x167ad284c7bcc4d6342991aa258422e7a04f926e",
      "contractAddress": null
    }
  ],
  "libraries": [],
  "pending": [],
  "returns": {},
  "timestamp": 1769624483398,
  "chain": 56,
  "commit": null
}