{
  "transactions": [
    {
      "hash": "0x1f47f96b70539f271e8eb41142ea3c217f22608210f2ae2e8aafd7d2db7a21e4",
      "transactionType": "CALL",
      "contractName": null,
      "contractAddress": "0x167ad284c7bcc4d6342991aa258422e7a04f926e",
      "function": "makeCrime(uint8)",
      "arguments": [
        "0"
      ],
      "transaction": {
        "from": "0xaa73aa98480757d75aae288b5931261448eb0530",
        "to": "0x167ad284c7bcc4d6342991aa258422e7a04f926e",
        "gas": "0x45b7c",
        "value": "0x0",
        "input": "0xc625abb40000000000000000000000000000000000000000000000000000000000000000",
        "nonce": "0x13e",
        "chainId": "0x38"
      },
      "additionalContracts": [],
      "isFixedGasLimit": false
    }
  ],
  "receipts": [
    {
      "status": "0x1",
      "cumulativeGasUsed": "0xa9ba33",
      "logs": [
        {
          "address": "0x167ad284c7bcc4d6342991aa258422e7a04f926e",
          "topics": [
            "0xe36ceebd3770780c5617d53efc7d77328074f1248146245ed3b854cbf651fb37"
          ],
          "data": "0x000000000000000000000000aa73aa98480757d75aae288b5931261448eb053000000000000000000000000000000000000000000000000000000000000000000000000000000000000000000000000000000000000000000000000000000000000000000000000000000000000000000000000000000000000000000000000000000000000000000000000000000000000000000000000000000000000000000000000000000000000000000000000000000000000000000000000000000000000000000000000000000000000000000000000000000000000000006985b0dc000000000000000000000000000000000000000000000000000000006985ad58",
          "blockHash": "0x2a67df2d3e6fc4d9adbefa35f94c30cd96a5aa3750f2fd5533b0aa09f33884b9",
          "blockNumber": "0x4beb19e",
          "blockTimestamp": "0x6985ad58",
          "transactionHash": "0x1f47f96b70539f271e8eb41142ea3c217f22608210f2ae2e8aafd7d2db7a21e4",
          "transactionIndex": "0x67",
          "logIndex": "0xfd",
          "removed": false
        }
      ],
      "logsBloom": "0x00000000000000000000000000000000000000000000000000000000400000000000000000000040000000000000000000000000000000000000000000000000000000000000000000000000000000000000000000000000000000000000000000000000000000000000000000000000000000000000000000000000000000000000000000000000000000100000000000000000000020000000000000000004000000000000000000000000000000000000000000000000000000000000000000000000000000000000000000000000000000000000000000000000000000000000000000000000000100000000000000000000000000000000000000000000",
      "type": "0x2",
      "transactionHash": "0x1f47f96b70539f271e8eb41142ea3c217f22608210f2ae2e8aafd7d2db7a21e4",
      "transactionIndex": "0x67",
      "blockHash": "0x2a67df2d3e6fc4d9adbefa35f94c30cd96a5aa3750f2fd5533b0aa09f33884b9",
      "blockNumber": "0x4beb19e",
      "gasUsed": "0x1e72c",
      "effectiveGasPrice": "0x2faf080",
      "from": "0xaa73aa98480757d75aae288b5931261448eb0530",
      "to": "0x167ad284c7bcc4d6342991aa258422e7a04f926e",
      "contractAddress": null
    }
  ],
  "libraries": [],
  "pending": [],
  "returns": {},
  "timestamp": 1770368345984,
  "chain": 56,
  "commit": null
}