{
  "transactions": [
    {
      "hash": "0x2aa15b880f18deb0c07d7b617542ed5be1c3a4caa16649c5664ee2f11a6f276e",
      "transactionType": "CALL",
      "contractName": null,
      "contractAddress": "0x167ad284c7bcc4d6342991aa258422e7a04f926e",
      "function": "makeCrime(uint8)",
      "arguments": [
        "0"
      ],
      "transaction": {
        "from": "0xac56dc5a4a9de0197f7b8f584ea04ec7e0123dde",
        "to": "0x167ad284c7bcc4d6342991aa258422e7a04f926e",
        "gas": "0x2a0e7",
        "value": "0x0",
        "input": "0xc625abb40000000000000000000000000000000000000000000000000000000000000000",
        "nonce": "0xba",
        "chainId": "0x38"
      },
      "additionalContracts": [],
      "isFixedGasLimit": false
    }
  ],
  "receipts": [
    {
      "status": "0x1",
      "cumulativeGasUsed": "0x21c01d7",
      "logs": [
        {
          "address": "0x167ad284c7bcc4d6342991aa258422e7a04f926e",
          "topics": [
            "0xe36ceebd3770780c5617d53efc7d77328074f1248146245ed3b854cbf651fb37"
          ],
          "data": "0x000000000000000000000000ac56dc5a4a9de0197f7b8f584ea04ec7e0123dde0000000000000000000000000000000000000000000000000000000000000000000000000000000000000000000000000000000000000000000000000000000000000000000000000000000000000000000000000000000000000000000000000000000000000000000000000000000000000000000000000000000000000000000000000000000000000000000000000000000000000000000000000000000000000000000000000000000000000000000000000000000000000000698388e3000000000000000000000000000000000000000000000000000000006983855f",
          "blockHash": "0xfacd3f947ffe21d2f9702a96ea334e7b3051038444414d1b3f733bf7cafd825b",
          "blockNumber": "0x4b9e730",
          "blockTimestamp": "0x6983855f",
          "transactionHash": "0x2aa15b880f18deb0c07d7b617542ed5be1c3a4caa16649c5664ee2f11a6f276e",
          "transactionIndex": "0x40",
          "logIndex": "0x28b",
          "removed": false
        }
      ],
      "logsBloom": "0x00000000000000000000000000000000000000000000000000000000400000000000000000000040000000000000000000000000000000000000000000000000000000000000000000000000000000000000000000000000000000000000000000000000000000000000000000000000000000000000000000000000000000000000000000000000000000100000000000000000000020000000000000000004000000000000000000000000000000000000000000000000000000000000000000000000000000000000000000000000000000000000000000000000000000000000000000000000000100000000000000000000000000000000000000000000",
      "type": "0x2",
      "transactionHash": "0x2aa15b880f18deb0c07d7b617542ed5be1c3a4caa16649c5664ee2f11a6f276e",
      "transactionIndex": "0x40",
      "blockHash": "0xfacd3f947ffe21d2f9702a96ea334e7b3051038444414d1b3f733bf7cafd825b",
      "blockNumber": "0x4b9e730",
      "gasUsed": "0x1e72c",
      "effectiveGasPrice": "0x5f5e100",
      "from": "0xac56dc5a4a9de0197f7b8f584ea04ec7e0123dde",
      "to": "0x167ad284c7bcc4d6342991aa258422e7a04f926e",
      "contractAddress": null
    }
  ],
  "libraries": [],
  "pending": [],
  "returns": {},
  "timestamp": 1770227041195,
  "chain": 56,
  "commit": null
}