{
  "transactions": [
    {
      "hash": "0x54be97fe1e8b9a3332da3b69c4acacdc0af1d71f5387bc2f99a3ba7d1429e7af",
      "transactionType": "CALL",
      "contractName": null,
      "contractAddress": "0x167ad284c7bcc4d6342991aa258422e7a04f926e",
      "function": "makeCrime(uint8)",
      "arguments": [
        "0"
      ],
      "transaction": {
        "from": "0xac56dc5a4a9de0197f7b8f584ea04ec7e0123dde",
        "to": "0x167ad284c7bcc4d6342991aa258422e7a04f926e",
        "gas": "0x45b7c",
        "value": "0x0",
        "input": "0xc625abb40000000000000000000000000000000000000000000000000000000000000000",
        "nonce": "0x106",
        "chainId": "0x38"
      },
      "additionalContracts": [],
      "isFixedGasLimit": false
    }
  ],
  "receipts": [
    {
      "status": "0x1",
      "cumulativeGasUsed": "0x6da54d",
      "logs": [
        {
          "address": "0x7371580cd13de739c734ae85062f75194d13fac2",
          "topics": [
            "0x0bff5315606c84d1cee047503678048ca39946be11bfdd5a8c03fe5e272d98e3"
          ],
          "data": "0x000000000000000000000000ac56dc5a4a9de0197f7b8f584ea04ec7e0123dde000000000000000000000000000000000000000000000000000000006987c16c0000000000000000000000000000000000000000000000000000000000000000",
          "blockHash": "0xf4db133564f49324eb1360f01526b6b9099ec0e877dd1ab2e5128f05c600d8ab",
          "blockNumber": "0x4c34412",
          "blockTimestamp": "0x6987bc26",
          "transactionHash": "0x54be97fe1e8b9a3332da3b69c4acacdc0af1d71f5387bc2f99a3ba7d1429e7af",
          "transactionIndex": "0x30",
          "logIndex": "0xde",
          "removed": false
        },
        {
          "address": "0xaae5ef15499c71301123ee4b13d20d570d24ad5e",
          "topics": [
            "0x6dd0730fb835f9bbe38532c3d82c7c87448bfdec295f1d7cd2d72ff339632a52"
          ],
          "data": "0x00000000000000000000000000000000000000000000000000000000000000c00000000000000000000000000000000000000000000000000000000000000100000000000000000000000000ac56dc5a4a9de0197f7b8f584ea04ec7e0123dde0000000000000000000000000000000000000000000000000000000000000001000000000000000000000000000000000000000000000000000000006987bc26000000000000000000000000000000000000000000000000000000000000014000000000000000000000000000000000000000000000000000000000000000044a61696c000000000000000000000000000000000000000000000000000000000000000000000000000000000000000000000000000000000000000000000008496d707269736f6e0000000000000000000000000000000000000000000000000000000000000000000000000000000000000000000000000000000000000000",
          "blockHash": "0xf4db133564f49324eb1360f01526b6b9099ec0e877dd1ab2e5128f05c600d8ab",
          "blockNumber": "0x4c34412",
          "blockTimestamp": "0x6987bc26",
          "transactionHash": "0x54be97fe1e8b9a3332da3b69c4acacdc0af1d71f5387bc2f99a3ba7d1429e7af",
          "transactionIndex": "0x30",
          "logIndex": "0xdf",
          "removed": false
        },
        {
          "address": "0x167ad284c7bcc4d6342991aa258422e7a04f926e",
          "topics": [
            "0xe36ceebd3770780c5617d53efc7d77328074f1248146245ed3b854cbf651fb37"
          ],
          "data": "0x000000000000000000000000ac56dc5a4a9de0197f7b8f584ea04ec7e0123dde00000000000000000000000000000000000000000000000000000000000000000000000000000000000000000000000000000000000000000000000000000000000000000000000000000000000000000000000000000000000000000000000100000000000000000000000000000000000000000000000000000000000000000000000000000000000000000000000000000000000000000000000000000000000000000000000000000000000000000000000000000000000000006987bfaa000000000000000000000000000000000000000000000000000000006987bc26",
          "blockHash": "0xf4db133564f49324eb1360f01526b6b9099ec0e877dd1ab2e5128f05c600d8ab",
          "blockNumber": "0x4c34412",
          "blockTimestamp": "0x6987bc26",
          "transactionHash": "0x54be97fe1e8b9a3332da3b69c4acacdc0af1d71f5387bc2f99a3ba7d1429e7af",
          "transactionIndex": "0x30",
          "logIndex": "0xe0",
          "removed": false
        }
      ],
      "logsBloom": "0x00000000000000000000000000000000001040040000000000000000400000000001000000000040000000000000000000000000000000000000000000000000000000000000000000200000000000000000000002000000001000000000000000000000000000000000000000000020000000000000000000000000000000000000000000000000000000100000000000000000000020000000000000000004000000000000000000000000000000000000000000000000000000000000000000000000000000000000000000000040000000000000000000000000000000800000000000000000000100000000002000000000000000000000000000001000",
      "type": "0x2",
      "transactionHash": "0x54be97fe1e8b9a3332da3b69c4acacdc0af1d71f5387bc2f99a3ba7d1429e7af",
      "transactionIndex": "0x30",
      "blockHash": "0xf4db133564f49324eb1360f01526b6b9099ec0e877dd1ab2e5128f05c600d8ab",
      "blockNumber": "0x4c34412",
      "gasUsed": "0x2faba",
      "effectiveGasPrice": "0x2faf080",
      "from": "0xac56dc5a4a9de0197f7b8f584ea04ec7e0123dde",
      "to": "0x167ad284c7bcc4d6342991aa258422e7a04f926e",
      "contractAddress": null
    }
  ],
  "libraries": [],
  "pending": [],
  "returns": {},
  "timestamp": 1770503207686,
  "chain": 56,
  "commit": null
}