{
  "transactions": [
    {
      "hash": "0x2f7dd11d86f3c749d76cf7587575ab4d5953a8d5ab38168f4a2d3b792ffe8126",
      "transactionType": "CALL",
      "contractName": null,
      "contractAddress": "0x167ad284c7bcc4d6342991aa258422e7a04f926e",
      "function": "makeCrime(uint8)",
      "arguments": [
        "0"
      ],
      "transaction": {
        "from": "0xac56dc5a4a9de0197f7b8f584ea04ec7e0123dde",
        "to": "0x167ad284c7bcc4d6342991aa258422e7a04f926e",
        "gas": "0x2a0e7",
        "value": "0x0",
        "input": "0xc625abb40000000000000000000000000000000000000000000000000000000000000000",
        "nonce": "0x29",
        "chainId": "0x38"
      },
      "additionalContracts": [],
      "isFixedGasLimit": false
    }
  ],
  "receipts": [
    {
      "status": "0x1",
      "cumulativeGasUsed": "0x37f2e8",
      "logs": [
        {
          "address": "0x167ad284c7bcc4d6342991aa258422e7a04f926e",
          "topics": [
            "0xe36ceebd3770780c5617d53efc7d77328074f1248146245ed3b854cbf651fb37"
          ],
          "data": "0x000000000000000000000000ac56dc5a4a9de0197f7b8f584ea04ec7e0123dde0000000000000000000000000000000000000000000000000000000000000000000000000000000000000000000000000000000000000000000000000000000000000000000000000000000000000000000000000000000000000000000000000000000000000000000000000000000000000000000000000000000000000000000000000000000000000000000000000000000000000000000000000000000000000000000000000000000000000000000000000000000000000000697a526800000000000000000000000000000000000000000000000000000000697a4ee4",
          "blockHash": "0x902d2854c37da7e76416d7e7b9aee9a84e6c96d3b7ac78ffa02cbe15d3b30c77",
          "blockNumber": "0x4a56fcc",
          "blockTimestamp": "0x697a4ee4",
          "transactionHash": "0x2f7dd11d86f3c749d76cf7587575ab4d5953a8d5ab38168f4a2d3b792ffe8126",
          "transactionIndex": "0x11",
          "logIndex": "0x71",
          "removed": false
        }
      ],
      "logsBloom": "0x00000000000000000000000000000000000000000000000000000000400000000000000000000040000000000000000000000000000000000000000000000000000000000000000000000000000000000000000000000000000000000000000000000000000000000000000000000000000000000000000000000000000000000000000000000000000000100000000000000000000020000000000000000004000000000000000000000000000000000000000000000000000000000000000000000000000000000000000000000000000000000000000000000000000000000000000000000000000100000000000000000000000000000000000000000000",
      "type": "0x2",
      "transactionHash": "0x2f7dd11d86f3c749d76cf7587575ab4d5953a8d5ab38168f4a2d3b792ffe8126",
      "transactionIndex": "0x11",
      "blockHash": "0x902d2854c37da7e76416d7e7b9aee9a84e6c96d3b7ac78ffa02cbe15d3b30c77",
      "blockNumber": "0x4a56fcc",
      "gasUsed": "0x1e72c",
      "effectiveGasPrice": "0x2faf080",
      "from": "0xac56dc5a4a9de0197f7b8f584ea04ec7e0123dde",
      "to": "0x167ad284c7bcc4d6342991aa258422e7a04f926e",
      "contractAddress": null
    }
  ],
  "libraries": [],
  "pending": [],
  "returns": {},
  "timestamp": 1769623269385,
  "chain": 56,
  "commit": null
}