{
  "transactions": [
    {
      "hash": "0x0e1caa6a551c0eaf7781e07ca57fe8095cc686d07dc73b7db92e5662af781f4a",
      "transactionType": "CALL",
      "contractName": null,
      "contractAddress": "0x167ad284c7bcc4d6342991aa258422e7a04f926e",
      "function": "makeCrime(uint8)",
      "arguments": [
        "0"
      ],
      "transaction": {
        "from": "0xeca7a53ba6a190c5d205bfdc7707cbc3399336c1",
        "to": "0x167ad284c7bcc4d6342991aa258422e7a04f926e",
        "gas": "0x59794",
        "value": "0x0",
        "input": "0xc625abb40000000000000000000000000000000000000000000000000000000000000000",
        "nonce": "0x22b",
        "chainId": "0x38"
      },
      "additionalContracts": [],
      "isFixedGasLimit": false
    }
  ],
  "receipts": [
    {
      "status": "0x1",
      "cumulativeGasUsed": "0xbff807",
      "logs": [
        {
          "address": "0x7371580cd13de739c734ae85062f75194d13fac2",
          "topics": [
            "0x0bff5315606c84d1cee047503678048ca39946be11bfdd5a8c03fe5e272d98e3"
          ],
          "data": "0x000000000000000000000000eca7a53ba6a190c5d205bfdc7707cbc3399336c100000000000000000000000000000000000000000000000000000000697b2b240000000000000000000000000000000000000000000000000000000000000000",
          "blockHash": "0x69e208148d0a9f95173ae625d1ce8c2c8b436a8158387ee93f12ab3041117e67",
          "blockNumber": "0x4a74d6b",
          "blockTimestamp": "0x697b25de",
          "transactionHash": "0x0e1caa6a551c0eaf7781e07ca57fe8095cc686d07dc73b7db92e5662af781f4a",
          "transactionIndex": "0x74",
          "logIndex": "0x17f",
          "removed": false
        },
        {
          "address": "0xaae5ef15499c71301123ee4b13d20d570d24ad5e",
          "topics": [
            "0x6dd0730fb835f9bbe38532c3d82c7c87448bfdec295f1d7cd2d72ff339632a52"
          ],
          "data": "0x00000000000000000000000000000000000000000000000000000000000000c00000000000000000000000000000000000000000000000000000000000000100000000000000000000000000eca7a53ba6a190c5d205bfdc7707cbc3399336c1000000000000000000000000000000000000000000000000000000000000000100000000000000000000000000000000000000000000000000000000697b25de000000000000000000000000000000000000000000000000000000000000014000000000000000000000000000000000000000000000000000000000000000044a61696c000000000000000000000000000000000000000000000000000000000000000000000000000000000000000000000000000000000000000000000008496d707269736f6e0000000000000000000000000000000000000000000000000000000000000000000000000000000000000000000000000000000000000000",
          "blockHash": "0x69e208148d0a9f95173ae625d1ce8c2c8b436a8158387ee93f12ab3041117e67",
          "blockNumber": "0x4a74d6b",
          "blockTimestamp": "0x697b25de",
          "transactionHash": "0x0e1caa6a551c0eaf7781e07ca57fe8095cc686d07dc73b7db92e5662af781f4a",
          "transactionIndex": "0x74",
          "logIndex": "0x180",
          "removed": false
        },
        {
          "address": "0x167ad284c7bcc4d6342991aa258422e7a04f926e",
          "topics": [
            "0xe36ceebd3770780c5617d53efc7d77328074f1248146245ed3b854cbf651fb37"
          ],
          "data": "0x000000000000000000000000eca7a53ba6a190c5d205bfdc7707cbc3399336c10000000000000000000000000000000000000000000000000000000000000000000000000000000000000000000000000000000000000000000000000000000000000000000000000000000000000000000000000000000000000000000000010000000000000000000000000000000000000000000000000000000000000000000000000000000000000000000000000000000000000000000000000000000000000000000000000000000000000000000000000000000000000000697b296200000000000000000000000000000000000000000000000000000000697b25de",
          "blockHash": "0x69e208148d0a9f95173ae625d1ce8c2c8b436a8158387ee93f12ab3041117e67",
          "blockNumber": "0x4a74d6b",
          "blockTimestamp": "0x697b25de",
          "transactionHash": "0x0e1caa6a551c0eaf7781e07ca57fe8095cc686d07dc73b7db92e5662af781f4a",
          "transactionIndex": "0x74",
          "logIndex": "0x181",
          "removed": false
        }
      ],
      "logsBloom": "0x00000000000000000000000000000000001040040000000000000000400000000001000000000040000000000000000000000000000000000000000000000000000000000000000000200000000000000000000002000000001000000000000000000000000000000000000000000020000000000000000000000000000000000000000000000000000000100000000000000000000020000000000000000004000000000000000000000000000000000000000000000000000000000000000000000000000000000000000000000040000000000000000000000000000000800000000000000000000100000000002000000000000000000000000000001000",
      "type": "0x2",
      "transactionHash": "0x0e1caa6a551c0eaf7781e07ca57fe8095cc686d07dc73b7db92e5662af781f4a",
      "transactionIndex": "0x74",
      "blockHash": "0x69e208148d0a9f95173ae625d1ce8c2c8b436a8158387ee93f12ab3041117e67",
      "blockNumber": "0x4a74d6b",
      "gasUsed": "0x2fda6",
      "effectiveGasPrice": "0x2faf080",
      "from": "0xeca7a53ba6a190c5d205bfdc7707cbc3399336c1",
      "to": "0x167ad284c7bcc4d6342991aa258422e7a04f926e",
      "contractAddress": null
    }
  ],
  "libraries": [],
  "pending": [],
  "returns": {},
  "timestamp": 1769678304045,
  "chain": 56,
  "commit": null
}