{
  "transactions": [
    {
      "hash": "0x7e0366e091dbb863ff9174d09ea4c5cc310fd16a9e1a34c1481e8d3a121682f3",
      "transactionType": "CALL",
      "contractName": null,
      "contractAddress": "0x167ad284c7bcc4d6342991aa258422e7a04f926e",
      "function": "makeCrime(uint8)",
      "arguments": [
        "0"
      ],
      "transaction": {
        "from": "0xeca7a53ba6a190c5d205bfdc7707cbc3399336c1",
        "to": "0x167ad284c7bcc4d6342991aa258422e7a04f926e",
        "gas": "0x59794",
        "value": "0x0",
        "input": "0xc625abb40000000000000000000000000000000000000000000000000000000000000000",
        "nonce": "0x27d",
        "chainId": "0x38"
      },
      "additionalContracts": [],
      "isFixedGasLimit": false
    }
  ],
  "receipts": [
    {
      "status": "0x1",
      "cumulativeGasUsed": "0xda2c27",
      "logs": [
        {
          "address": "0x167ad284c7bcc4d6342991aa258422e7a04f926e",
          "topics": [
            "0xe36ceebd3770780c5617d53efc7d77328074f1248146245ed3b854cbf651fb37"
          ],
          "data": "0x000000000000000000000000eca7a53ba6a190c5d205bfdc7707cbc3399336c100000000000000000000000000000000000000000000000000000000000000000000000000000000000000000000000000000000000000000000000000000000000000000000000000000000000000000000000000000000000000000000000000000000000000000000000000000000000000000000000000000000000000000000000000000000000000000000000000000000000000000000000000000000000000000000000000000000000000000000000000000000000000006980ea48000000000000000000000000000000000000000000000000000000006980e6c4",
          "blockHash": "0xfd7b3dcf5972be0a7c5f7ab4473babbe950cb36eefb9764a05447c33eee2bc37",
          "blockNumber": "0x4b415e1",
          "blockTimestamp": "0x6980e6c4",
          "transactionHash": "0x7e0366e091dbb863ff9174d09ea4c5cc310fd16a9e1a34c1481e8d3a121682f3",
          "transactionIndex": "0x51",
          "logIndex": "0x18a",
          "removed": false
        }
      ],
      "logsBloom": "0x00000000000000000000000000000000000000000000000000000000400000000000000000000040000000000000000000000000000000000000000000000000000000000000000000000000000000000000000000000000000000000000000000000000000000000000000000000000000000000000000000000000000000000000000000000000000000100000000000000000000020000000000000000004000000000000000000000000000000000000000000000000000000000000000000000000000000000000000000000000000000000000000000000000000000000000000000000000000100000000000000000000000000000000000000000000",
      "type": "0x2",
      "transactionHash": "0x7e0366e091dbb863ff9174d09ea4c5cc310fd16a9e1a34c1481e8d3a121682f3",
      "transactionIndex": "0x51",
      "blockHash": "0xfd7b3dcf5972be0a7c5f7ab4473babbe950cb36eefb9764a05447c33eee2bc37",
      "blockNumber": "0x4b415e1",
      "gasUsed": "0x1ea18",
      "effectiveGasPrice": "0x2faf080",
      "from": "0xeca7a53ba6a190c5d205bfdc7707cbc3399336c1",
      "to": "0x167ad284c7bcc4d6342991aa258422e7a04f926e",
      "contractAddress": null
    }
  ],
  "libraries": [],
  "pending": [],
  "returns": {},
  "timestamp": 1770055366699,
  "chain": 56,
  "commit": null
}