{
  "transactions": [
    {
      "hash": "0x2abc0092a29698bac50a383a360168317a8157ac4b56aa4bab089ac790deebc5",
      "transactionType": "CALL",
      "contractName": null,
      "contractAddress": "0x167ad284c7bcc4d6342991aa258422e7a04f926e",
      "function": "makeCrime(uint8)",
      "arguments": [
        "0"
      ],
      "transaction": {
        "from": "0xeca7a53ba6a190c5d205bfdc7707cbc3399336c1",
        "to": "0x167ad284c7bcc4d6342991aa258422e7a04f926e",
        "gas": "0x59794",
        "value": "0x0",
        "input": "0xc625abb40000000000000000000000000000000000000000000000000000000000000000",
        "nonce": "0x2a1",
        "chainId": "0x38"
      },
      "additionalContracts": [],
      "isFixedGasLimit": false
    }
  ],
  "receipts": [
    {
      "status": "0x1",
      "cumulativeGasUsed": "0x1ebeb4c",
      "logs": [
        {
          "address": "0x7371580cd13de739c734ae85062f75194d13fac2",
          "topics": [
            "0x0bff5315606c84d1cee047503678048ca39946be11bfdd5a8c03fe5e272d98e3"
          ],
          "data": "0x000000000000000000000000eca7a53ba6a190c5d205bfdc7707cbc3399336c100000000000000000000000000000000000000000000000000000000698386800000000000000000000000000000000000000000000000000000000000000000",
          "blockHash": "0xddc9c511d75bc54e8efb39924657096045f84aafe4b35c06111102e4be3104c6",
          "blockNumber": "0x4b9ddfa",
          "blockTimestamp": "0x6983813a",
          "transactionHash": "0x2abc0092a29698bac50a383a360168317a8157ac4b56aa4bab089ac790deebc5",
          "transactionIndex": "0x1a",
          "logIndex": "0x41",
          "removed": false
        },
        {
          "address": "0xaae5ef15499c71301123ee4b13d20d570d24ad5e",
          "topics": [
            "0x6dd0730fb835f9bbe38532c3d82c7c87448bfdec295f1d7cd2d72ff339632a52"
          ],
          "data": "0x00000000000000000000000000000000000000000000000000000000000000c00000000000000000000000000000000000000000000000000000000000000100000000000000000000000000eca7a53ba6a190c5d205bfdc7707cbc3399336c10000000000000000000000000000000000000000000000000000000000000001000000000000000000000000000000000000000000000000000000006983813a000000000000000000000000000000000000000000000000000000000000014000000000000000000000000000000000000000000000000000000000000000044a61696c000000000000000000000000000000000000000000000000000000000000000000000000000000000000000000000000000000000000000000000008496d707269736f6e0000000000000000000000000000000000000000000000000000000000000000000000000000000000000000000000000000000000000000",
          "blockHash": "0xddc9c511d75bc54e8efb39924657096045f84aafe4b35c06111102e4be3104c6",
          "blockNumber": "0x4b9ddfa",
          "blockTimestamp": "0x6983813a",
          "transactionHash": "0x2abc0092a29698bac50a383a360168317a8157ac4b56aa4bab089ac790deebc5",
          "transactionIndex": "0x1a",
          "logIndex": "0x42",
          "removed": false
        },
        {
          "address": "0x167ad284c7bcc4d6342991aa258422e7a04f926e",
          "topics": [
            "0xe36ceebd3770780c5617d53efc7d77328074f1248146245ed3b854cbf651fb37"
          ],
          "data": "0x000000000000000000000000eca7a53ba6a190c5d205bfdc7707cbc3399336c10000000000000000000000000000000000000000000000000000000000000000000000000000000000000000000000000000000000000000000000000000000000000000000000000000000000000000000000000000000000000000000000010000000000000000000000000000000000000000000000000000000000000000000000000000000000000000000000000000000000000000000000000000000000000000000000000000000000000000000000000000000000000000698384be000000000000000000000000000000000000000000000000000000006983813a",
          "blockHash": "0xddc9c511d75bc54e8efb39924657096045f84aafe4b35c06111102e4be3104c6",
          "blockNumber": "0x4b9ddfa",
          "blockTimestamp": "0x6983813a",
          "transactionHash": "0x2abc0092a29698bac50a383a360168317a8157ac4b56aa4bab089ac790deebc5",
          "transactionIndex": "0x1a",
          "logIndex": "0x43",
          "removed": false
        }
      ],
      "logsBloom": "0x00000000000000000000000000000000001040040000000000000000400000000001000000000040000000000000000000000000000000000000000000000000000000000000000000200000000000000000000002000000001000000000000000000000000000000000000000000020000000000000000000000000000000000000000000000000000000100000000000000000000020000000000000000004000000000000000000000000000000000000000000000000000000000000000000000000000000000000000000000040000000000000000000000000000000800000000000000000000100000000002000000000000000000000000000001000",
      "type": "0x2",
      "transactionHash": "0x2abc0092a29698bac50a383a360168317a8157ac4b56aa4bab089ac790deebc5",
      "transactionIndex": "0x1a",
      "blockHash": "0xddc9c511d75bc54e8efb39924657096045f84aafe4b35c06111102e4be3104c6",
      "blockNumber": "0x4b9ddfa",
      "gasUsed": "0x2fda6",
      "effectiveGasPrice": "0x4f7b233",
      "from": "0xeca7a53ba6a190c5d205bfdc7707cbc3399336c1",
      "to": "0x167ad284c7bcc4d6342991aa258422e7a04f926e",
      "contractAddress": null
    }
  ],
  "libraries": [],
  "pending": [],
  "returns": {},
  "timestamp": 1770225979652,
  "chain": 56,
  "commit": null
}