{
  "transactions": [
    {
      "hash": "0x32e4b887eabbd269ddc89916ad482f77b94056829cf30548cd62747fe60fd14d",
      "transactionType": "CALL",
      "contractName": null,
      "contractAddress": "0x167ad284c7bcc4d6342991aa258422e7a04f926e",
      "function": "makeCrime(uint8)",
      "arguments": [
        "0"
      ],
      "transaction": {
        "from": "0xeca7a53ba6a190c5d205bfdc7707cbc3399336c1",
        "to": "0x167ad284c7bcc4d6342991aa258422e7a04f926e",
        "gas": "0x2a4f0",
        "value": "0x0",
        "input": "0xc625abb40000000000000000000000000000000000000000000000000000000000000000",
        "nonce": "0x2b6",
        "chainId": "0x38"
      },
      "additionalContracts": [],
      "isFixedGasLimit": false
    }
  ],
  "receipts": [
    {
      "status": "0x1",
      "cumulativeGasUsed": "0x8aeeac",
      "logs": [
        {
          "address": "0x167ad284c7bcc4d6342991aa258422e7a04f926e",
          "topics": [
            "0xe36ceebd3770780c5617d53efc7d77328074f1248146245ed3b854cbf651fb37"
          ],
          "data": "0x000000000000000000000000eca7a53ba6a190c5d205bfdc7707cbc3399336c100000000000000000000000000000000000000000000000000000000000000000000000000000000000000000000000000000000000000000000000000000000000000000000000000000000000000000000000000000000000000000000000000000000000000000000000000000000000000000000000000000000000000000000000000000000000000000000000000000000000000000000000000000000000000000000000000000000000000000000000000000000000000006983b9fb000000000000000000000000000000000000000000000000000000006983b677",
          "blockHash": "0x62a4ed05a0f7f8a8a199c362742f1ff1f558a8acdd45ab0e5d768dd5cacf5c7d",
          "blockNumber": "0x4ba5447",
          "blockTimestamp": "0x6983b677",
          "transactionHash": "0x32e4b887eabbd269ddc89916ad482f77b94056829cf30548cd62747fe60fd14d",
          "transactionIndex": "0x30",
          "logIndex": "0x480",
          "removed": false
        }
      ],
      "logsBloom": "0x00000000000000000000000000000000000000000000000000000000400000000000000000000040000000000000000000000000000000000000000000000000000000000000000000000000000000000000000000000000000000000000000000000000000000000000000000000000000000000000000000000000000000000000000000000000000000100000000000000000000020000000000000000004000000000000000000000000000000000000000000000000000000000000000000000000000000000000000000000000000000000000000000000000000000000000000000000000000100000000000000000000000000000000000000000000",
      "type": "0x2",
      "transactionHash": "0x32e4b887eabbd269ddc89916ad482f77b94056829cf30548cd62747fe60fd14d",
      "transactionIndex": "0x30",
      "blockHash": "0x62a4ed05a0f7f8a8a199c362742f1ff1f558a8acdd45ab0e5d768dd5cacf5c7d",
      "blockNumber": "0x4ba5447",
      "gasUsed": "0x1ea18",
      "effectiveGasPrice": "0x2faf080",
      "from": "0xeca7a53ba6a190c5d205bfdc7707cbc3399336c1",
      "to": "0x167ad284c7bcc4d6342991aa258422e7a04f926e",
      "contractAddress": null
    }
  ],
  "libraries": [],
  "pending": [],
  "returns": {},
  "timestamp": 1770239609039,
  "chain": 56,
  "commit": null
}