{
  "transactions": [
    {
      "hash": "0x922299e0820c860e8eadd601b74a5937b257d620ab263450cf884f8af8cb20e6",
      "transactionType": "CALL",
      "contractName": null,
      "contractAddress": "0x167ad284c7bcc4d6342991aa258422e7a04f926e",
      "function": "makeCrime(uint8)",
      "arguments": [
        "0"
      ],
      "transaction": {
        "from": "0xaa73aa98480757d75aae288b5931261448eb0530",
        "to": "0x167ad284c7bcc4d6342991aa258422e7a04f926e",
        "gas": "0x45b7c",
        "value": "0x0",
        "input": "0xc625abb40000000000000000000000000000000000000000000000000000000000000000",
        "nonce": "0x193",
        "chainId": "0x38"
      },
      "additionalContracts": [],
      "isFixedGasLimit": false
    }
  ],
  "receipts": [
    {
      "status": "0x1",
      "cumulativeGasUsed": "0x66100a",
      "logs": [
        {
          "address": "0x167ad284c7bcc4d6342991aa258422e7a04f926e",
          "topics": [
            "0xe36ceebd3770780c5617d53efc7d77328074f1248146245ed3b854cbf651fb37"
          ],
          "data": "0x000000000000000000000000aa73aa98480757d75aae288b5931261448eb0530000000000000000000000000000000000000000000000000000000000000000000000000000000000000000000000000000000000000000000000000000000000000000000000000000000000000000000000000000000000000000000000000000000000000000000000000000000000000000000000000000000000000000000000000000000000000000000000000000000000000000000000000000000000000000000000000000000000000000000000000000000000000000069883bb90000000000000000000000000000000000000000000000000000000069883835",
          "blockHash": "0x3daffb0c95b3fdc5a77371804606d9cf3dd6602f3ac5b6a0b2d9d53f4d049c52",
          "blockNumber": "0x4c457bc",
          "blockTimestamp": "0x69883835",
          "transactionHash": "0x922299e0820c860e8eadd601b74a5937b257d620ab263450cf884f8af8cb20e6",
          "transactionIndex": "0x42",
          "logIndex": "0x90",
          "removed": false
        }
      ],
      "logsBloom": "0x00000000000000000000000000000000000000000000000000000000400000000000000000000040000000000000000000000000000000000000000000000000000000000000000000000000000000000000000000000000000000000000000000000000000000000000000000000000000000000000000000000000000000000000000000000000000000100000000000000000000020000000000000000004000000000000000000000000000000000000000000000000000000000000000000000000000000000000000000000000000000000000000000000000000000000000000000000000000100000000000000000000000000000000000000000000",
      "type": "0x2",
      "transactionHash": "0x922299e0820c860e8eadd601b74a5937b257d620ab263450cf884f8af8cb20e6",
      "transactionIndex": "0x42",
      "blockHash": "0x3daffb0c95b3fdc5a77371804606d9cf3dd6602f3ac5b6a0b2d9d53f4d049c52",
      "blockNumber": "0x4c457bc",
      "gasUsed": "0x1e72c",
      "effectiveGasPrice": "0x2faf080",
      "from": "0xaa73aa98480757d75aae288b5931261448eb0530",
      "to": "0x167ad284c7bcc4d6342991aa258422e7a04f926e",
      "contractAddress": null
    }
  ],
  "libraries": [],
  "pending": [],
  "returns": {},
  "timestamp": 1770534966627,
  "chain": 56,
  "commit": null
}