{
  "transactions": [
    {
      "hash": "0xd7f3e659051a7a7f530662c0ce46294178c39240be59ccb72790c7ac1c486b5a",
      "transactionType": "CALL",
      "contractName": null,
      "contractAddress": "0x167ad284c7bcc4d6342991aa258422e7a04f926e",
      "function": "makeCrime(uint8)",
      "arguments": [
        "0"
      ],
      "transaction": {
        "from": "0xeca7a53ba6a190c5d205bfdc7707cbc3399336c1",
        "to": "0x167ad284c7bcc4d6342991aa258422e7a04f926e",
        "gas": "0x4218c",
        "value": "0x0",
        "input": "0xc625abb40000000000000000000000000000000000000000000000000000000000000000",
        "nonce": "0x308",
        "chainId": "0x38"
      },
      "additionalContracts": [],
      "isFixedGasLimit": false
    }
  ],
  "receipts": [
    {
      "status": "0x1",
      "cumulativeGasUsed": "0x2c85a1",
      "logs": [
        {
          "address": "0x7371580cd13de739c734ae85062f75194d13fac2",
          "topics": [
            "0x0bff5315606c84d1cee047503678048ca39946be11bfdd5a8c03fe5e272d98e3"
          ],
          "data": "0x000000000000000000000000eca7a53ba6a190c5d205bfdc7707cbc3399336c1000000000000000000000000000000000000000000000000000000006987f7910000000000000000000000000000000000000000000000000000000000000000",
          "blockHash": "0x49ec30553b21147370a39153c3201f306bc99613596593bc848995aafc4cab02",
          "blockNumber": "0x4c3bc64",
          "blockTimestamp": "0x6987f24b",
          "transactionHash": "0xd7f3e659051a7a7f530662c0ce46294178c39240be59ccb72790c7ac1c486b5a",
          "transactionIndex": "0x16",
          "logIndex": "0x3e",
          "removed": false
        },
        {
          "address": "0xaae5ef15499c71301123ee4b13d20d570d24ad5e",
          "topics": [
            "0x6dd0730fb835f9bbe38532c3d82c7c87448bfdec295f1d7cd2d72ff339632a52"
          ],
          "data": "0x00000000000000000000000000000000000000000000000000000000000000c00000000000000000000000000000000000000000000000000000000000000100000000000000000000000000eca7a53ba6a190c5d205bfdc7707cbc3399336c10000000000000000000000000000000000000000000000000000000000000001000000000000000000000000000000000000000000000000000000006987f24b000000000000000000000000000000000000000000000000000000000000014000000000000000000000000000000000000000000000000000000000000000044a61696c000000000000000000000000000000000000000000000000000000000000000000000000000000000000000000000000000000000000000000000008496d707269736f6e0000000000000000000000000000000000000000000000000000000000000000000000000000000000000000000000000000000000000000",
          "blockHash": "0x49ec30553b21147370a39153c3201f306bc99613596593bc848995aafc4cab02",
          "blockNumber": "0x4c3bc64",
          "blockTimestamp": "0x6987f24b",
          "transactionHash": "0xd7f3e659051a7a7f530662c0ce46294178c39240be59ccb72790c7ac1c486b5a",
          "transactionIndex": "0x16",
          "logIndex": "0x3f",
          "removed": false
        },
        {
          "address": "0x167ad284c7bcc4d6342991aa258422e7a04f926e",
          "topics": [
            "0xe36ceebd3770780c5617d53efc7d77328074f1248146245ed3b854cbf651fb37"
          ],
          "data": "0x000000000000000000000000eca7a53ba6a190c5d205bfdc7707cbc3399336c100000000000000000000000000000000000000000000000000000000000000000000000000000000000000000000000000000000000000000000000000000000000000000000000000000000000000000000000000000000000000000000000100000000000000000000000000000000000000000000000000000000000000000000000000000000000000000000000000000000000000000000000000000000000000000000000000000000000000000000000000000000000000006987f5cf000000000000000000000000000000000000000000000000000000006987f24b",
          "blockHash": "0x49ec30553b21147370a39153c3201f306bc99613596593bc848995aafc4cab02",
          "blockNumber": "0x4c3bc64",
          "blockTimestamp": "0x6987f24b",
          "transactionHash": "0xd7f3e659051a7a7f530662c0ce46294178c39240be59ccb72790c7ac1c486b5a",
          "transactionIndex": "0x16",
          "logIndex": "0x40",
          "removed": false
        }
      ],
      "logsBloom": "0x00000000000000000000000000000000001040040000000000000000400000000001000000000040000000000000000000000000000000000000000000000000000000000000000000200000000000000000000002000000001000000000000000000000000000000000000000000020000000000000000000000000000000000000000000000000000000100000000000000000000020000000000000000004000000000000000000000000000000000000000000000000000000000000000000000000000000000000000000000040000000000000000000000000000000800000000000000000000100000000002000000000000000000000000000001000",
      "type": "0x2",
      "transactionHash": "0xd7f3e659051a7a7f530662c0ce46294178c39240be59ccb72790c7ac1c486b5a",
      "transactionIndex": "0x16",
      "blockHash": "0x49ec30553b21147370a39153c3201f306bc99613596593bc848995aafc4cab02",
      "blockNumber": "0x4c3bc64",
      "gasUsed": "0x2fda6",
      "effectiveGasPrice": "0x2faf080",
      "from": "0xeca7a53ba6a190c5d205bfdc7707cbc3399336c1",
      "to": "0x167ad284c7bcc4d6342991aa258422e7a04f926e",
      "contractAddress": null
    }
  ],
  "libraries": [],
  "pending": [],
  "returns": {},
  "timestamp": 1770517069030,
  "chain": 56,
  "commit": null
}