{
  "transactions": [
    {
      "hash": "0x1ad504664db1f096947d4477f532f8f2d5c3bbc8df9390e8f16a616b05f9e008",
      "transactionType": "CALL",
      "contractName": null,
      "contractAddress": "0x167ad284c7bcc4d6342991aa258422e7a04f926e",
      "function": "makeCrime(uint8)",
      "arguments": [
        "0"
      ],
      "transaction": {
        "from": "0xaa73aa98480757d75aae288b5931261448eb0530",
        "to": "0x167ad284c7bcc4d6342991aa258422e7a04f926e",
        "gas": "0x2a0e7",
        "value": "0x0",
        "input": "0xc625abb40000000000000000000000000000000000000000000000000000000000000000",
        "nonce": "0x162",
        "chainId": "0x38"
      },
      "additionalContracts": [],
      "isFixedGasLimit": false
    }
  ],
  "receipts": [],
  "libraries": [],
  "pending": [],
  "returns": {},
  "timestamp": 1770489450921,
  "chain": 56,
  "commit": null
}