{
  "transactions": [
    {
      "hash": "0x944036bcc41a93bbdc535bbf91eb6aa9363b7b1f0316bd1ace2a6edb2f1df678",
      "transactionType": "CALL",
      "contractName": null,
      "contractAddress": "0x167ad284c7bcc4d6342991aa258422e7a04f926e",
      "function": "makeCrime(uint8)",
      "arguments": [
        "0"
      ],
      "transaction": {
        "from": "0xac56dc5a4a9de0197f7b8f584ea04ec7e0123dde",
        "to": "0x167ad284c7bcc4d6342991aa258422e7a04f926e",
        "gas": "0x592fa",
        "value": "0x0",
        "input": "0xc625abb40000000000000000000000000000000000000000000000000000000000000000",
        "nonce": "0x11b",
        "chainId": "0x38"
      },
      "additionalContracts": [],
      "isFixedGasLimit": false
    }
  ],
  "receipts": [
    {
      "status": "0x1",
      "cumulativeGasUsed": "0x3d1d89",
      "logs": [
        {
          "address": "0x7371580cd13de739c734ae85062f75194d13fac2",
          "topics": [
            "0x0bff5315606c84d1cee047503678048ca39946be11bfdd5a8c03fe5e272d98e3"
          ],
          "data": "0x000000000000000000000000ac56dc5a4a9de0197f7b8f584ea04ec7e0123dde000000000000000000000000000000000000000000000000000000006988027f0000000000000000000000000000000000000000000000000000000000000000",
          "blockHash": "0x27ec1377c4ec8ec2d4db6f6568159b728c0f79bb50cb0c1ca2682cd27ce98a19",
          "blockNumber": "0x4c3d4ae",
          "blockTimestamp": "0x6987fd39",
          "transactionHash": "0x944036bcc41a93bbdc535bbf91eb6aa9363b7b1f0316bd1ace2a6edb2f1df678",
          "transactionIndex": "0x15",
          "logIndex": "0x74",
          "removed": false
        },
        {
          "address": "0xaae5ef15499c71301123ee4b13d20d570d24ad5e",
          "topics": [
            "0x6dd0730fb835f9bbe38532c3d82c7c87448bfdec295f1d7cd2d72ff339632a52"
          ],
          "data": "0x00000000000000000000000000000000000000000000000000000000000000c00000000000000000000000000000000000000000000000000000000000000100000000000000000000000000ac56dc5a4a9de0197f7b8f584ea04ec7e0123dde0000000000000000000000000000000000000000000000000000000000000001000000000000000000000000000000000000000000000000000000006987fd39000000000000000000000000000000000000000000000000000000000000014000000000000000000000000000000000000000000000000000000000000000044a61696c000000000000000000000000000000000000000000000000000000000000000000000000000000000000000000000000000000000000000000000008496d707269736f6e0000000000000000000000000000000000000000000000000000000000000000000000000000000000000000000000000000000000000000",
          "blockHash": "0x27ec1377c4ec8ec2d4db6f6568159b728c0f79bb50cb0c1ca2682cd27ce98a19",
          "blockNumber": "0x4c3d4ae",
          "blockTimestamp": "0x6987fd39",
          "transactionHash": "0x944036bcc41a93bbdc535bbf91eb6aa9363b7b1f0316bd1ace2a6edb2f1df678",
          "transactionIndex": "0x15",
          "logIndex": "0x75",
          "removed": false
        },
        {
          "address": "0x167ad284c7bcc4d6342991aa258422e7a04f926e",
          "topics": [
            "0xe36ceebd3770780c5617d53efc7d77328074f1248146245ed3b854cbf651fb37"
          ],
          "data": "0x000000000000000000000000ac56dc5a4a9de0197f7b8f584ea04ec7e0123dde0000000000000000000000000000000000000000000000000000000000000000000000000000000000000000000000000000000000000000000000000000000000000000000000000000000000000000000000000000000000000000000000010000000000000000000000000000000000000000000000000000000000000000000000000000000000000000000000000000000000000000000000000000000000000000000000000000000000000000000000000000000000000000698800bd000000000000000000000000000000000000000000000000000000006987fd39",
          "blockHash": "0x27ec1377c4ec8ec2d4db6f6568159b728c0f79bb50cb0c1ca2682cd27ce98a19",
          "blockNumber": "0x4c3d4ae",
          "blockTimestamp": "0x6987fd39",
          "transactionHash": "0x944036bcc41a93bbdc535bbf91eb6aa9363b7b1f0316bd1ace2a6edb2f1df678",
          "transactionIndex": "0x15",
          "logIndex": "0x76",
          "removed": false
        }
      ],
      "logsBloom": "0x00000000000000000000000000000000001040040000000000000000400000000001000000000040000000000000000000000000000000000000000000000000000000000000000000200000000000000000000002000000001000000000000000000000000000000000000000000020000000000000000000000000000000000000000000000000000000100000000000000000000020000000000000000004000000000000000000000000000000000000000000000000000000000000000000000000000000000000000000000040000000000000000000000000000000800000000000000000000100000000002000000000000000000000000000001000",
      "type": "0x2",
      "transactionHash": "0x944036bcc41a93bbdc535bbf91eb6aa9363b7b1f0316bd1ace2a6edb2f1df678",
      "transactionIndex": "0x15",
      "blockHash": "0x27ec1377c4ec8ec2d4db6f6568159b728c0f79bb50cb0c1ca2682cd27ce98a19",
      "blockNumber": "0x4c3d4ae",
      "gasUsed": "0x2faba",
      "effectiveGasPrice": "0x2faf080",
      "from": "0xac56dc5a4a9de0197f7b8f584ea04ec7e0123dde",
      "to": "0x167ad284c7bcc4d6342991aa258422e7a04f926e",
      "contractAddress": null
    }
  ],
  "libraries": [],
  "pending": [],
  "returns": {},
  "timestamp": 1770519867007,
  "chain": 56,
  "commit": null
}