{
  "transactions": [
    {
      "hash": "0xc27cd3c5532177e1ae042e9f7e430e84854bb6a5e016d0cc11eccda30e6f5afb",
      "transactionType": "CALL",
      "contractName": null,
      "contractAddress": "0x167ad284c7bcc4d6342991aa258422e7a04f926e",
      "function": "makeCrime(uint8)",
      "arguments": [
        "0"
      ],
      "transaction": {
        "from": "0xec646a6c9000e04d050435340d9c42c039eb5648",
        "to": "0x167ad284c7bcc4d6342991aa258422e7a04f926e",
        "gas": "0x592fa",
        "value": "0x0",
        "input": "0xc625abb40000000000000000000000000000000000000000000000000000000000000000",
        "nonce": "0x47",
        "chainId": "0x38"
      },
      "additionalContracts": [],
      "isFixedGasLimit": false
    }
  ],
  "receipts": [
    {
      "status": "0x1",
      "cumulativeGasUsed": "0x877afa",
      "logs": [
        {
          "address": "0x167ad284c7bcc4d6342991aa258422e7a04f926e",
          "topics": [
            "0xe36ceebd3770780c5617d53efc7d77328074f1248146245ed3b854cbf651fb37"
          ],
          "data": "0x000000000000000000000000ec646a6c9000e04d050435340d9c42c039eb5648000000000000000000000000000000000000000000000000000000000000000000000000000000000000000000000000000000000000000000000000000000000000000000000000000000000000000000000000000000000000000000000000000000000000000000000000000000000000000000000000000000000000000000000000000000000000000000000000000000000000000000000000000000000000000000000000000000000000000000000000000000000000000069835f540000000000000000000000000000000000000000000000000000000069835bd0",
          "blockHash": "0xd20ad7f1c497fc8f1235d32c4da99cdf189e24a37b58b5e59d4bbe48bb2d1149",
          "blockNumber": "0x4b98ad5",
          "blockTimestamp": "0x69835bd0",
          "transactionHash": "0xc27cd3c5532177e1ae042e9f7e430e84854bb6a5e016d0cc11eccda30e6f5afb",
          "transactionIndex": "0x55",
          "logIndex": "0xdc",
          "removed": false
        }
      ],
      "logsBloom": "0x00000000000000000000000000000000000000000000000000000000400000000000000000000040000000000000000000000000000000000000000000000000000000000000000000000000000000000000000000000000000000000000000000000000000000000000000000000000000000000000000000000000000000000000000000000000000000100000000000000000000020000000000000000004000000000000000000000000000000000000000000000000000000000000000000000000000000000000000000000000000000000000000000000000000000000000000000000000000100000000000000000000000000000000000000000000",
      "type": "0x2",
      "transactionHash": "0xc27cd3c5532177e1ae042e9f7e430e84854bb6a5e016d0cc11eccda30e6f5afb",
      "transactionIndex": "0x55",
      "blockHash": "0xd20ad7f1c497fc8f1235d32c4da99cdf189e24a37b58b5e59d4bbe48bb2d1149",
      "blockNumber": "0x4b98ad5",
      "gasUsed": "0x1e72c",
      "effectiveGasPrice": "0x2faf080",
      "from": "0xec646a6c9000e04d050435340d9c42c039eb5648",
      "to": "0x167ad284c7bcc4d6342991aa258422e7a04f926e",
      "contractAddress": null
    }
  ],
  "libraries": [],
  "pending": [],
  "returns": {},
  "timestamp": 1770216401727,
  "chain": 56,
  "commit": null
}