{
  "transactions": [
    {
      "hash": "0xa654aea6aa0b92a84943bd7746e37bee29fefadf9702c1847be927dff2381055",
      "transactionType": "CALL",
      "contractName": null,
      "contractAddress": "0x167ad284c7bcc4d6342991aa258422e7a04f926e",
      "function": "makeCrime(uint8)",
      "arguments": [
        "0"
      ],
      "transaction": {
        "from": "0x4c62f6121e6f967a0872da8364995e9b68c1e82f",
        "to": "0x167ad284c7bcc4d6342991aa258422e7a04f926e",
        "gas": "0x4218c",
        "value": "0x0",
        "input": "0xc625abb40000000000000000000000000000000000000000000000000000000000000000",
        "nonce": "0x174",
        "chainId": "0x38"
      },
      "additionalContracts": [],
      "isFixedGasLimit": false
    }
  ],
  "receipts": [
    {
      "status": "0x1",
      "cumulativeGasUsed": "0x11da503",
      "logs": [
        {
          "address": "0x7371580cd13de739c734ae85062f75194d13fac2",
          "topics": [
            "0x0bff5315606c84d1cee047503678048ca39946be11bfdd5a8c03fe5e272d98e3"
          ],
          "data": "0x0000000000000000000000004c62f6121e6f967a0872da8364995e9b68c1e82f000000000000000000000000000000000000000000000000000000006985aedc0000000000000000000000000000000000000000000000000000000000000000",
          "blockHash": "0xa47f2d90d8930e5e9488dda98d017d9e3f69b3f0db0648e7e619886d4dfab637",
          "blockNumber": "0x4bea943",
          "blockTimestamp": "0x6985a996",
          "transactionHash": "0xa654aea6aa0b92a84943bd7746e37bee29fefadf9702c1847be927dff2381055",
          "transactionIndex": "0x91",
          "logIndex": "0x215",
          "removed": false
        },
        {
          "address": "0xaae5ef15499c71301123ee4b13d20d570d24ad5e",
          "topics": [
            "0x6dd0730fb835f9bbe38532c3d82c7c87448bfdec295f1d7cd2d72ff339632a52"
          ],
          "data": "0x00000000000000000000000000000000000000000000000000000000000000c000000000000000000000000000000000000000000000000000000000000001000000000000000000000000004c62f6121e6f967a0872da8364995e9b68c1e82f0000000000000000000000000000000000000000000000000000000000000001000000000000000000000000000000000000000000000000000000006985a996000000000000000000000000000000000000000000000000000000000000014000000000000000000000000000000000000000000000000000000000000000044a61696c000000000000000000000000000000000000000000000000000000000000000000000000000000000000000000000000000000000000000000000008496d707269736f6e0000000000000000000000000000000000000000000000000000000000000000000000000000000000000000000000000000000000000000",
          "blockHash": "0xa47f2d90d8930e5e9488dda98d017d9e3f69b3f0db0648e7e619886d4dfab637",
          "blockNumber": "0x4bea943",
          "blockTimestamp": "0x6985a996",
          "transactionHash": "0xa654aea6aa0b92a84943bd7746e37bee29fefadf9702c1847be927dff2381055",
          "transactionIndex": "0x91",
          "logIndex": "0x216",
          "removed": false
        },
        {
          "address": "0x167ad284c7bcc4d6342991aa258422e7a04f926e",
          "topics": [
            "0xe36ceebd3770780c5617d53efc7d77328074f1248146245ed3b854cbf651fb37"
          ],
          "data": "0x0000000000000000000000004c62f6121e6f967a0872da8364995e9b68c1e82f00000000000000000000000000000000000000000000000000000000000000000000000000000000000000000000000000000000000000000000000000000000000000000000000000000000000000000000000000000000000000000000000100000000000000000000000000000000000000000000000000000000000000000000000000000000000000000000000000000000000000000000000000000000000000000000000000000000000000000000000000000000000000006985ad1a000000000000000000000000000000000000000000000000000000006985a996",
          "blockHash": "0xa47f2d90d8930e5e9488dda98d017d9e3f69b3f0db0648e7e619886d4dfab637",
          "blockNumber": "0x4bea943",
          "blockTimestamp": "0x6985a996",
          "transactionHash": "0xa654aea6aa0b92a84943bd7746e37bee29fefadf9702c1847be927dff2381055",
          "transactionIndex": "0x91",
          "logIndex": "0x217",
          "removed": false
        }
      ],
      "logsBloom": "0x00000000000000000000000000000000001040040000000000000000400000000001000000000040000000000000000000000000000000000000000000000000000000000000000000200000000000000000000002000000001000000000000000000000000000000000000000000020000000000000000000000000000000000000000000000000000000100000000000000000000020000000000000000004000000000000000000000000000000000000000000000000000000000000000000000000000000000000000000000040000000000000000000000000000000800000000000000000000100000000002000000000000000000000000000001000",
      "type": "0x2",
      "transactionHash": "0xa654aea6aa0b92a84943bd7746e37bee29fefadf9702c1847be927dff2381055",
      "transactionIndex": "0x91",
      "blockHash": "0xa47f2d90d8930e5e9488dda98d017d9e3f69b3f0db0648e7e619886d4dfab637",
      "blockNumber": "0x4bea943",
      "gasUsed": "0x2fda6",
      "effectiveGasPrice": "0x2faf080",
      "from": "0x4c62f6121e6f967a0872da8364995e9b68c1e82f",
      "to": "0x167ad284c7bcc4d6342991aa258422e7a04f926e",
      "contractAddress": null
    }
  ],
  "libraries": [],
  "pending": [],
  "returns": {},
  "timestamp": 1770367383647,
  "chain": 56,
  "commit": null
}